0029029810999991904010106004+59500+020350FM-12+002699999V0202901N008719999999N0000001N9+00061+99999101781ADDGF102991999999999999999999
0029029810999991904010113004+59500+020350FM-12+002699999V0203201N009819999999N0000001N9+00171+99999101791ADDGF107991999999999999999999
0029029810999991904010120004+59500+020350FM-12+002699999V0203601N009819999999N0000001N9+00221+99999102021ADDGF104991999999999999999999
0029029810999991904010206004+59500+020350FM-12+002699999V0200501N007219999999N0000001N9+00061+99999102311ADDGF101991999999999999999999
0029029810999991904010213004+59500+020350FM-12+002699999V0209991C000019999999N0000001N9+00061+99999102581ADDGF102991999999999999999999
0029029810999991904010220004+59500+020350FM-12+002699999V0209991C000019999999N0000001N9+00111+99999102781ADDGF106991999999999999999999
0029029810999991904010306004+59500+020350FM-12+002699999V0202901N006219999999N0000001N9-00221+99999102881ADDGF108991999999999999999999
0029029810999991904010313004+59500+020350FM-12+002699999V0202301N001019999999N0000001N9+00001+99999102921ADDGF108991999999999999999999
0029029810999991904010320004+59500+020350FM-12+002699999V0202301N008219999999N0000001N9+00001+99999102841ADDGF108991999999999999999999
0029029810999991904010406004+59500+020350FM-12+002699999V0202001N007219999999N0000001N9+00171+99999102621ADDGF108991999999999999999999
0029029810999991904010413004+59500+020350FM-12+002699999V0201801N007219999999N0000001N9-00061+99999102621ADDGF108991999999999999999999
0029029810999991904010420004+59500+020350FM-12+002699999V0202001N007219999999N0000001N9-00061+99999102561ADDGF108991999999999999999999
0029029810999991904010506004+59500+020350FM-12+002699999V0201801N006219999999N0000001N9-00061+99999102471ADDGF108991999999999999999999
0029029810999991904010513004+59500+020350FM-12+002699999V0201801N010819999999N0000001N9-00061+99999102461ADDGF108991999999999999999999
0029029810999991904010520004+59500+020350FM-12+002699999V0201801N009819999999N0000001N9+00111+99999102461ADDGF108991999999999999999999
0035029810999991904010606004+59500+020350FM-12+002699999V0202701N005119999999N0000001N9+00001+99999102351ADDGF108991999999999999999999MW1701
0029029810999991904010613004+59500+020350FM-12+002699999V0202701N004119999999N0000001N9-00061+99999102351ADDGF107991999999999999999999
0029029810999991904010620004+59500+020350FM-12+002699999V0209991C000019999999N0000001N9-00061+99999102301ADDGF108991999999999999999999
0029029810999991904010706004+59500+020350FM-12+002699999V0202301N004119999999N0000001N9-00061+99999102231ADDGF108991999999999999999999
0029029810999991904010713004+59500+020350FM-12+002699999V0202301N008219999999N0000001N9+00061+99999102231ADDGF108991999999999999999999
0029029810999991904010720004+59500+020350FM-12+002699999V0202001N008719999999N0000001N9+00111+99999102121ADDGF108991999999999999999999
0029029810999991904010806004+59500+020350FM-12+002699999V0201801N017019999999N0000001N9-00061+99999101751ADDGF108991999999999999999999
0029029810999991904010813004+59500+020350FM-12+002699999V0201801N017019999999N0000001N9-00061+99999101341ADDGF108991999999999999999999
0029029810999991904010820004+59500+020350FM-12+002699999V0202001N018019999999N0000001N9+00111+99999101081ADDGF108991999999999999999999
0035029810999991904010906004+59500+020350FM-12+002699999V0201601N020119999999N0000001N9-00061+99999101041ADDGF108991999999999999999999MW1721
0035029810999991904010913004+59500+020350FM-12+002699999V0201601N017019999999N0000001N9-00171+99999100981ADDGF108991999999999999999999MW1721
0035029810999991904010920004+59500+020350FM-12+002699999V0201601N018019999999N0000001N9+00061+99999100591ADDGF108991999999999999999999MW1721
0029029810999991904011006004+59500+020350FM-12+002699999V0202701N017019999999N0000001N9+00111+99999100821ADDGF108991999999999999999999
0029029810999991904011013004+59500+020350FM-12+002699999V0202301N013919999999N0000001N9+00331+99999101261ADDGF107991999999999999999999
0029029810999991904011020004+59500+020350FM-12+002699999V0202301N013919999999N0000001N9+00281+99999101481ADDGF108991999999999999999999
0029029810999991904011106004+59500+020350FM-12+002699999V0201801N020119999999N0000001N9+00281+99999101231ADDGF106991999999999999999999
0029029810999991904011113004+59500+020350FM-12+002699999V0202001N017019999999N0000001N9+00391+99999100991ADDGF107991999999999999999999
0029029810999991904011120004+59500+020350FM-12+002699999V0201801N017019999999N0000001N9+00331+99999100721ADDGF108991999999999999999999
0035029810999991904011206004+59500+020350FM-12+002699999V0201801N014919999999N0000001N9+00221+99999100201ADDGF108991999999999999999999MW1621
0029029810999991904011213004+59500+020350FM-12+002699999V0201801N018019999999N0000001N9+00281+99999099621ADDGF108991999999999999999999
0035029810999991904011220004+59500+020350FM-12+002699999V0202301N009819999999N0000001N9+00221+99999099261ADDGF108991999999999999999999MW1691
0029029810999991904011306004+59500+020350FM-12+002699999V0202701N010819999999N0000001N9+00221+99999099201ADDGF107991999999999999999999
0029029810999991904011313004+59500+020350FM-12+002699999V0201801N003119999999N0000001N9+00281+99999099111ADDGF108991999999999999999999
0029029810999991904011320004+59500+020350FM-12+002699999V0201601N008719999999N0000001N9+00281+99999098721ADDGF108991999999999999999999
0035029810999991904011406004+59500+020350FM-12+002699999V0201401N022119999999N0000001N9-00061+99999097581ADDGF108991999999999999999999MW1721
0029029810999991904011413004+59500+020350FM-12+002699999V0202301N008219999999N0000001N9+00391+99999097161ADDGF108991999999999999999999
0029029810999991904011420004+59500+020350FM-12+002699999V0202301N011819999999N0000001N9+00391+99999097551ADDGF108991999999999999999999
0035029810999991904011506004+59500+020350FM-12+002699999V0201401N006219999999N0000001N9+00331+99999097711ADDGF108991999999999999999999MW1601
0035029810999991904011513004+59500+020350FM-12+002699999V0201601N008719999999N0000001N9+00331+99999097841ADDGF108991999999999999999999MW1621
0029029810999991904011520004+59500+020350FM-12+002699999V0201801N008219999999N0000001N9+00391+99999098151ADDGF108991999999999999999999
0029029810999991904011606004+59500+020350FM-12+002699999V0201401N009819999999N0000001N9+00331+99999098311ADDGF108991999999999999999999
0029029810999991904011613004+59500+020350FM-12+002699999V0201601N008219999999N0000001N9+00281+99999098631ADDGF106991999999999999999999
0029029810999991904011620004+59500+020350FM-12+002699999V0209991C000019999999N0000001N9+00221+99999098961ADDGF108991999999999999999999
0029029810999991904011706004+59500+020350FM-12+002699999V0203601N006219999999N0000001N9+00221+99999099511ADDGF103991999999999999999999
0029029810999991904011713004+59500+020350FM-12+002699999V0203401N008719999999N0000001N9+00001+99999099901ADDGF108991999999999999999999
0029029810999991904011720004+59500+020350FM-12+002699999V0203601N009819999999N0000001N9-00111+99999100381ADDGF108991999999999999999999
0029029810999991904011806004+59500+020350FM-12+002699999V0203601N013919999999N0000001N9-00171+99999101141ADDGF108991999999999999999999
0029029810999991904011813004+59500+020350FM-12+002699999V0203601N007219999999N0000001N9-00221+99999101701ADDGF108991999999999999999999
0029029810999991904011820004+59500+020350FM-12+002699999V0203601N003119999999N0000001N9-00111+99999102111ADDGF108991999999999999999999
0029029810999991904011906004+59500+020350FM-12+002699999V0202301N009819999999N0000001N9+00061+99999102351ADDGF107991999999999999999999
0029029810999991904011913004+59500+020350FM-12+002699999V0202701N014919999999N0000001N9+00001+99999102561ADDGF106991999999999999999999
0029029810999991904011920004+59500+020350FM-12+002699999V0202701N009819999999N0000001N9-00061+99999102861ADDGF107991999999999999999999
0029029810999991904012006004+59500+020350FM-12+002699999V0202701N007219999999N0000001N9+00061+99999103021ADDGF108991999999999999999999
0029029810999991904012013004+59500+020350FM-12+002699999V0202501N010819999999N0000001N9+00171+99999102801ADDGF108991999999999999999999
0029029810999991904012020004+59500+020350FM-12+002699999V0202501N013919999999N0000001N9+00221+99999102381ADDGF108991999999999999999999
0029029810999991904012106004+59500+020350FM-12+002699999V0202501N014919999999N0000001N9+00111+99999101751ADDGF108991999999999999999999
0029029810999991904012113004+59500+020350FM-12+002699999V0202501N013919999999N0000001N9+00061+99999101561ADDGF108991999999999999999999
0029029810999991904012120004+59500+020350FM-12+002699999V0202701N011819999999N0000001N9+00171+99999101631ADDGF101991999999999999999999
0029029810999991904012206004+59500+020350FM-12+002699999V0203201N008219999999N0000001N9+00061+99999102431ADDGF101991999999999999999999
0029029810999991904012213004+59500+020350FM-12+002699999V0202501N011819999999N0000001N9-00061+99999102271ADDGF102991999999999999999999
0029029810999991904012220004+59500+020350FM-12+002699999V0202501N019019999999N0000001N9+00001+99999101381ADDGF106991999999999999999999
0029029810999991904012306004+59500+020350FM-12+002699999V0202701N014919999999N0000001N9+00281+99999100831ADDGF104991999999999999999999
0029029810999991904012313004+59500+020350FM-12+002699999V0202501N012919999999N0000001N9+00391+99999100801ADDGF106991999999999999999999
0029029810999991904012320004+59500+020350FM-12+002699999V0202701N012919999999N0000001N9+00391+99999100761ADDGF102991999999999999999999
0029029810999991904012406004+59500+020350FM-12+002699999V0202701N010819999999N0000001N9+00501+99999101381ADDGF105991999999999999999999
0029029810999991904012413004+59500+020350FM-12+002699999V0202301N008219999999N0000001N9+00391+99999101711ADDGF105991999999999999999999
0029029810999991904012420004+59500+020350FM-12+002699999V0202301N011819999999N0000001N9+00391+99999101461ADDGF102991999999999999999999
0029029810999991904012506004+59500+020350FM-12+002699999V0202501N012919999999N0000001N9+00061+99999101341ADDGF108991999999999999999999
0029029810999991904012513004+59500+020350FM-12+002699999V0202501N009819999999N0000001N9+00221+99999101471ADDGF106991999999999999999999
0029029810999991904012520004+59500+020350FM-12+002699999V0202301N008219999999N0000001N9+00171+99999101481ADDGF108991999999999999999999
0029029810999991904012606004+59500+020350FM-12+002699999V0202301N008719999999N0000001N9+00061+99999101231ADDGF108991999999999999999999
0029029810999991904012613004+59500+020350FM-12+002699999V0202301N014919999999N0000001N9+00111+99999101231ADDGF108991999999999999999999
0029029810999991904012620004+59500+020350FM-12+002699999V0202701N013919999999N0000001N9+00221+99999101391ADDGF103991999999999999999999
0029029810999991904012706004+59500+020350FM-12+002699999V0202501N009819999999N0000001N9+00221+99999101681ADDGF106991999999999999999999
0029029810999991904012713004+59500+020350FM-12+002699999V0202301N014919999999N0000001N9+00221+99999101791ADDGF107991999999999999999999
0029029810999991904012720004+59500+020350FM-12+002699999V0202301N018019999999N0000001N9+00221+99999101821ADDGF108991999999999999999999
0029029810999991904012806004+59500+020350FM-12+002699999V0202301N015919999999N0000001N9+00171+99999101711ADDGF108991999999999999999999
0029029810999991904012813004+59500+020350FM-12+002699999V0201801N019019999999N0000001N9+00281+99999101511ADDGF106991999999999999999999
0029029810999991904012820004+59500+020350FM-12+002699999V0201801N018019999999N0000001N9+00281+99999101361ADDGF106991999999999999999999
0029029810999991904012906004+59500+020350FM-12+002699999V0201801N019019999999N0000001N9+00221+99999101151ADDGF108991999999999999999999
0029029810999991904012913004+59500+020350FM-12+002699999V0201801N020119999999N0000001N9+00221+99999101061ADDGF107991999999999999999999
0029029810999991904012920004+59500+020350FM-12+002699999V0202301N010819999999N0000001N9+00281+99999100961ADDGF108991999999999999999999
0029029810999991904013006004+59500+020350FM-12+002699999V0202701N004119999999N0000001N9+00281+99999101321ADDGF108991999999999999999999
0029029810999991904013013004+59500+020350FM-12+002699999V0202701N004119999999N0000001N9+00171+99999101541ADDGF108991999999999999999999
0029029810999991904013020004+59500+020350FM-12+002699999V0201801N001019999999N0000001N9+00171+99999101751ADDGF108991999999999999999999
0029029810999991904013106004+59500+020350FM-12+002699999V0201401N006219999999N0000001N9+00221+99999101821ADDGF108991999999999999999999
0029029810999991904013113004+59500+020350FM-12+002699999V0201401N009819999999N0000001N9+00061+99999101871ADDGF108991999999999999999999
0029029810999991904013120004+59500+020350FM-12+002699999V0201401N011819999999N0000001N9-00281+99999101871ADDGF108991999999999999999999
0029029810999991904020106004+59500+020350FM-12+002699999V0201101N008219999999N0000001N9-00281+99999101901ADDGF108991999999999999999999
0029029810999991904020113004+59500+020350FM-12+002699999V0201101N008219999999N0000001N9-00391+99999101901ADDGF108991999999999999999999
0029029810999991904020120004+59500+020350FM-12+002699999V0201401N006219999999N0000001N9-00391+99999101961ADDGF108991999999999999999999
0029029810999991904020206004+59500+020350FM-12+002699999V0201401N006219999999N0000001N9-00281+99999101901ADDGF107991999999999999999999
0029029810999991904020213004+59500+020350FM-12+002699999V0201601N008219999999N0000001N9-00221+99999101881ADDGF108991999999999999999999
0029029810999991904020220004+59500+020350FM-12+002699999V0201401N007219999999N0000001N9-00281+99999101601ADDGF108991999999999999999999
0035029810999991904020306004+59500+020350FM-12+002699999V0201101N009819999999N0000001N9-00331+99999100981ADDGF108991999999999999999999MW1721
0035029810999991904020313004+59500+020350FM-12+002699999V0201401N008219999999N0000001N9-00281+99999100471ADDGF107991999999999999999999MW1721
0035029810999991904020320004+59500+020350FM-12+002699999V0200901N008219999999N0000001N9-00221+99999100021ADDGF108991999999999999999999MW1721
0029029810999991904020406004+59500+020350FM-12+002699999V0200501N008219999999N0000001N9-00331+99999100061ADDGF108991999999999999999999
0029029810999991904020413004+59500+020350FM-12+002699999V0203601N005119999999N0000001N9-00441+99999100311ADDGF107991999999999999999999
0029029810999991904020420004+59500+020350FM-12+002699999V0203601N003119999999N0000001N9-00441+99999100421ADDGF108991999999999999999999
0029029810999991904020506004+59500+020350FM-12+002699999V0203601N008719999999N0000001N9-00501+99999100621ADDGF108991999999999999999999
0029029810999991904020513004+59500+020350FM-12+002699999V0200201N007219999999N0000001N9-00501+99999100991ADDGF106991999999999999999999
0029029810999991904020520004+59500+020350FM-12+002699999V0200901N006219999999N0000001N9-00171+99999101111ADDGF108991999999999999999999
0029029810999991904020606004+59500+020350FM-12+002699999V0201401N015919999999N0000001N9-00561+99999101101ADDGF108991999999999999999999
0029029810999991904020613004+59500+020350FM-12+002699999V0201401N013919999999N0000001N9-00501+99999100861ADDGF108991999999999999999999
0029029810999991904020620004+59500+020350FM-12+002699999V0201401N015919999999N0000001N9-00281+99999100501ADDGF108991999999999999999999
0035029810999991904020706004+59500+020350FM-12+002699999V0201101N013919999999N0000001N9-00281+99999099661ADDGF108991999999999999999999MW1721
0035029810999991904020713004+59500+020350FM-12+002699999V0200501N013919999999N0000001N9-00331+99999099341ADDGF108991999999999999999999MW1721
0035029810999991904020720004+59500+020350FM-12+002699999V0200201N009819999999N0000001N9-00501+99999099311ADDGF108991999999999999999999MW1721
0029029810999991904020806004+59500+020350FM-12+002699999V0203601N011819999999N0000001N9-00831+99999099351ADDGF108991999999999999999999
0035029810999991904020813004+59500+020350FM-12+002699999V0203601N012919999999N0000001N9-00721+99999099431ADDGF108991999999999999999999MW1701
0029029810999991904020820004+59500+020350FM-12+002699999V0203601N011819999999N0000001N9-00781+99999099621ADDGF108991999999999999999999
0029029810999991904020906004+59500+020350FM-12+002699999V0200501N006219999999N0000001N9-00671+99999099741ADDGF107991999999999999999999
0029029810999991904020913004+59500+020350FM-12+002699999V0203601N005119999999N0000001N9-00891+99999099791ADDGF107991999999999999999999
0035029810999991904020920004+59500+020350FM-12+002699999V0200501N006219999999N0000001N9-00891+99999099701ADDGF108991999999999999999999MW1701
0035029810999991904021006004+59500+020350FM-12+002699999V0200701N007219999999N0000001N9-00831+99999099441ADDGF108991999999999999999999MW1721
0029029810999991904021013004+59500+020350FM-12+002699999V0200901N010819999999N0000001N9-00501+99999099261ADDGF107991999999999999999999
0029029810999991904021020004+59500+020350FM-12+002699999V0201401N013919999999N0000001N9-00501+99999099081ADDGF108991999999999999999999
0035029810999991904021106004+59500+020350FM-12+002699999V0201101N021119999999N0000001N9-00331+99999098181ADDGF108991999999999999999999MW1721
0029029810999991904021113004+59500+020350FM-12+002699999V0201401N011819999999N0000001N9+00001+99999097671ADDGF108991999999999999999999
0035029810999991904021120004+59500+020350FM-12+002699999V0201801N010819999999N0000001N9+00221+99999097511ADDGF108991999999999999999999MW1721
0029029810999991904021206004+59500+020350FM-12+002699999V0203201N008719999999N0000001N9-00061+99999097561ADDGF108991999999999999999999
0035029810999991904021213004+59500+020350FM-12+002699999V0203201N024219999999N0000001N9-00561+99999098321ADDGF108991999999999999999999MW1721
0029029810999991904021220004+59500+020350FM-12+002699999V0203201N022119999999N0000001N9-00721+99999099551ADDGF108991999999999999999999
0029029810999991904021306004+59500+020350FM-12+002699999V0203201N008719999999N0000001N9-00561+99999100191ADDGF106991999999999999999999
0029029810999991904021313004+59500+020350FM-12+002699999V0201601N005119999999N0000001N9-00391+99999099941ADDGF107991999999999999999999
0035029810999991904021320004+59500+020350FM-12+002699999V0201401N017019999999N0000001N9-00281+99999099101ADDGF108991999999999999999999MW1721
0035029810999991904021406004+59500+020350FM-12+002699999V0201801N005119999999N0000001N9+00221+99999098381ADDGF108991999999999999999999MW1721
0029029810999991904021413004+59500+020350FM-12+002699999V0202001N008219999999N0000001N9-00281+99999098441ADDGF107991999999999999999999
0029029810999991904021420004+59500+020350FM-12+002699999V0202001N007219999999N0000001N9+00281+99999098631ADDGF108991999999999999999999
0029029810999991904021506004+59500+020350FM-12+002699999V0201401N002119999999N0000001N9+00221+99999098681ADDGF108991999999999999999999
0029029810999991904021513004+59500+020350FM-12+002699999V0200701N008719999999N0000001N9+00111+99999098661ADDGF108991999999999999999999
0029029810999991904021520004+59500+020350FM-12+002699999V0200901N008719999999N0000001N9+00171+99999098701ADDGF108991999999999999999999
0029029810999991904021606004+59500+020350FM-12+002699999V0200201N010819999999N0000001N9-00171+99999098701ADDGF108991999999999999999999
0035029810999991904021613004+59500+020350FM-12+002699999V0203601N009819999999N0000001N9-00391+99999098751ADDGF108991999999999999999999MW1721
0029029810999991904021620004+59500+020350FM-12+002699999V0203401N011819999999N0000001N9-00441+99999098861ADDGF108991999999999999999999
0029029810999991904021706004+59500+020350FM-12+002699999V0203201N009819999999N0000001N9-00391+99999099081ADDGF108991999999999999999999
0029029810999991904021713004+59500+020350FM-12+002699999V0203401N006219999999N0000001N9-00441+99999099421ADDGF108991999999999999999999
0029029810999991904021720004+59500+020350FM-12+002699999V0203401N004119999999N0000001N9-00331+99999099581ADDGF108991999999999999999999
0029029810999991904021806004+59500+020350FM-12+002699999V0201101N008219999999N0000001N9-00171+99999099501ADDGF107991999999999999999999
0029029810999991904021813004+59500+020350FM-12+002699999V0201101N012919999999N0000001N9-00061+99999099121ADDGF108991999999999999999999
0029029810999991904021820004+59500+020350FM-12+002699999V0201601N008219999999N0000001N9+00221+99999099081ADDGF108991999999999999999999
0035029810999991904021906004+59500+020350FM-12+002699999V0200701N001019999999N0000001N9+00171+99999099221ADDGF108991999999999999999999MW1721
0035029810999991904021913004+59500+020350FM-12+002699999V0203601N008719999999N0000001N9+00061+99999099341ADDGF108991999999999999999999MW1721
0029029810999991904021920004+59500+020350FM-12+002699999V0203601N018019999999N0000001N9-00221+99999099401ADDGF108991999999999999999999
0029029810999991904022006004+59500+020350FM-12+002699999V0203201N010819999999N0000001N9-00331+99999099241ADDGF108991999999999999999999
0029029810999991904022013004+59500+020350FM-12+002699999V0202301N006219999999N0000001N9-00441+99999098841ADDGF108991999999999999999999
0035029810999991904022020004+59500+020350FM-12+002699999V0201601N009819999999N0000001N9+00061+99999097521ADDGF108991999999999999999999MW1721
0029029810999991904022106004+59500+020350FM-12+002699999V0203201N009819999999N0000001N9-00171+99999097721ADDGF108991999999999999999999
0029029810999991904022113004+59500+020350FM-12+002699999V0203201N008719999999N0000001N9-00111+99999098471ADDGF108991999999999999999999
0029029810999991904022120004+59500+020350FM-12+002699999V0202901N007219999999N0000001N9-00111+99999098941ADDGF104991999999999999999999
0029029810999991904022206004+59500+020350FM-12+002699999V0202701N007219999999N0000001N9-00171+99999099281ADDGF103991999999999999999999
0029029810999991904022213004+59500+020350FM-12+002699999V0203201N008219999999N0000001N9+00001+99999099821ADDGF108991999999999999999999
0029029810999991904022220004+59500+020350FM-12+002699999V0203601N010819999999N0000001N9-00111+99999100391ADDGF108991999999999999999999
0029029810999991904022306004+59500+020350FM-12+002699999V0203601N014919999999N0000001N9-00171+99999101401ADDGF108991999999999999999999
0029029810999991904022313004+59500+020350FM-12+002699999V0200201N010819999999N0000001N9-00281+99999101861ADDGF108991999999999999999999
0029029810999991904022320004+59500+020350FM-12+002699999V0200501N013919999999N0000001N9-00281+99999102301ADDGF105991999999999999999999
0029029810999991904022406004+59500+020350FM-12+002699999V0200501N012919999999N0000001N9-00281+99999102561ADDGF108991999999999999999999
0029029810999991904022413004+59500+020350FM-12+002699999V0200501N011819999999N0000001N9-00281+99999102801ADDGF104991999999999999999999
0029029810999991904022420004+59500+020350FM-12+002699999V0200701N011819999999N0000001N9-00331+99999103021ADDGF108991999999999999999999
0029029810999991904022506004+59500+020350FM-12+002699999V0200501N008219999999N0000001N9-00391+99999103141ADDGF107991999999999999999999
0029029810999991904022513004+59500+020350FM-12+002699999V0200501N008219999999N0000001N9-00561+99999103191ADDGF106991999999999999999999
0029029810999991904022520004+59500+020350FM-12+002699999V0200901N005119999999N0000001N9-00501+99999103101ADDGF107991999999999999999999
0029029810999991904022606004+59500+020350FM-12+002699999V0200701N009819999999N0000001N9-00611+99999102911ADDGF108991999999999999999999
0035029810999991904022613004+59500+020350FM-12+002699999V0200901N007219999999N0000001N9-00561+99999102841ADDGF108991999999999999999999MW1721
0035029810999991904022620004+59500+020350FM-12+002699999V0200701N011819999999N0000001N9-00611+99999102761ADDGF108991999999999999999999MW1721
0035029810999991904022706004+59500+020350FM-12+002699999V0200701N011819999999N0000001N9-00611+99999102671ADDGF108991999999999999999999MW1721
0029029810999991904022713004+59500+020350FM-12+002699999V0200501N007219999999N0000001N9-00671+99999102711ADDGF108991999999999999999999
0029029810999991904022720004+59500+020350FM-12+002699999V0200501N006219999999N0000001N9-00781+99999102741ADDGF107991999999999999999999
0029029810999991904022806004+59500+020350FM-12+002699999V0200701N004119999999N0000001N9-00831+99999102881ADDGF106991999999999999999999
0029029810999991904022813004+59500+020350FM-12+002699999V0200201N002119999999N0000001N9-00781+99999102981ADDGF103991999999999999999999
0029029810999991904022820004+59500+020350FM-12+002699999V0200501N002119999999N0000001N9-00721+99999103001ADDGF108991999999999999999999
0029029810999991904022906004+59500+020350FM-12+002699999V0201401N006219999999N0000001N9-00561+99999102791ADDGF108991999999999999999999
0035029810999991904022913004+59500+020350FM-12+002699999V0201101N009819999999N0000001N9-00671+99999102711ADDGF108991999999999999999999MW1721
0029029810999991904022920004+59500+020350FM-12+002699999V0201401N008219999999N0000001N9-00671+99999102711ADDGF108991999999999999999999
0029029810999991904030106004+59500+020350FM-12+002699999V0201101N008719999999N0000001N9-00561+99999102761ADDGF107991999999999999999999
0029029810999991904030113004+59500+020350FM-12+002699999V0200901N012919999999N0000001N9-00501+99999102831ADDGF107991999999999999999999
0035029810999991904030120004+59500+020350FM-12+002699999V0200701N010819999999N0000001N9-00441+99999102871ADDGF108991999999999999999999MW1721
0029029810999991904030206004+59500+020350FM-12+002699999V0200501N009819999999N0000001N9-00561+99999102831ADDGF108991999999999999999999
0029029810999991904030213004+59500+020350FM-12+002699999V0200201N010819999999N0000001N9-00501+99999103111ADDGF106991999999999999999999
0029029810999991904030220004+59500+020350FM-12+002699999V0200501N013919999999N0000001N9-00331+99999103141ADDGF108991999999999999999999
0029029810999991904030306004+59500+020350FM-12+002699999V0200901N011819999999N0000001N9-00281+99999103151ADDGF108991999999999999999999
0029029810999991904030313004+59500+020350FM-12+002699999V0201101N013919999999N0000001N9-00391+99999103241ADDGF104991999999999999999999
0029029810999991904030320004+59500+020350FM-12+002699999V0201401N018019999999N0000001N9-00331+99999103321ADDGF100991999999999999999999
0029029810999991904030406004+59500+020350FM-12+002699999V0201401N010819999999N0000001N9-00331+99999103431ADDGF100991999999999999999999
0029029810999991904030413004+59500+020350FM-12+002699999V0200901N009819999999N0000001N9-00281+99999103421ADDGF102991999999999999999999
0029029810999991904030420004+59500+020350FM-12+002699999V0201101N008719999999N0000001N9-00331+99999103471ADDGF105991999999999999999999
0029029810999991904030506004+59500+020350FM-12+002699999V0201101N008219999999N0000001N9-00441+99999103361ADDGF103991999999999999999999
0029029810999991904030513004+59500+020350FM-12+002699999V0201401N006219999999N0000001N9-00441+99999103301ADDGF104991999999999999999999
0029029810999991904030520004+59500+020350FM-12+002699999V0200501N008719999999N0000001N9-00501+99999103181ADDGF104991999999999999999999
0029029810999991904030606004+59500+020350FM-12+002699999V0200701N007219999999N0000001N9-00561+99999103081ADDGF105991999999999999999999
0029029810999991904030613004+59500+020350FM-12+002699999V0200501N007219999999N0000001N9-00561+99999103161ADDGF107991999999999999999999
0029029810999991904030620004+59500+020350FM-12+002699999V0200501N008219999999N0000001N9-00561+99999103121ADDGF102991999999999999999999
0035029810999991904030706004+59500+020350FM-12+002699999V0200701N009819999999N0000001N9-00561+99999102921ADDGF108991999999999999999999MW1721
0035029810999991904030713004+59500+020350FM-12+002699999V0200501N008219999999N0000001N9-00611+99999102601ADDGF108991999999999999999999MW1721
0035029810999991904030720004+59500+020350FM-12+002699999V0200501N011819999999N0000001N9-00561+99999102221ADDGF108991999999999999999999MW1721
0029029810999991904030806004+59500+020350FM-12+002699999V0203201N007219999999N0000001N9-00441+99999101721ADDGF108991999999999999999999
0035029810999991904030813004+59500+020350FM-12+002699999V0202701N005119999999N0000001N9-00611+99999101881ADDGF108991999999999999999999MW1721
0029029810999991904030820004+59500+020350FM-12+002699999V0202701N008219999999N0000001N9-00611+99999102181ADDGF108991999999999999999999
0029029810999991904030906004+59500+020350FM-12+002699999V0201401N003119999999N0000001N9-00501+99999102341ADDGF106991999999999999999999
0029029810999991904030913004+59500+020350FM-12+002699999V0201801N006219999999N0000001N9+00001+99999102421ADDGF102991999999999999999999
0035029810999991904030920004+59500+020350FM-12+002699999V0201401N007219999999N0000001N9-00111+99999102301ADDGF108991999999999999999999MW1721
0029029810999991904031006004+59500+020350FM-12+002699999V0201401N007219999999N0000001N9-00061+99999102141ADDGF108991999999999999999999
0029029810999991904031013004+59500+020350FM-12+002699999V0201401N010819999999N0000001N9-00061+99999102121ADDGF108991999999999999999999
0029029810999991904031020004+59500+020350FM-12+002699999V0201401N011819999999N0000001N9-00061+99999102031ADDGF104991999999999999999999
0035029810999991904031106004+59500+020350FM-12+002699999V0200901N011819999999N0000001N9-00221+99999101661ADDGF108991999999999999999999MW1721
0035029810999991904031113004+59500+020350FM-12+002699999V0200901N008219999999N0000001N9-00171+99999101441ADDGF108991999999999999999999MW1721
0035029810999991904031120004+59500+020350FM-12+002699999V0200201N006219999999N0000001N9-00221+99999101231ADDGF108991999999999999999999MW1721
0029029810999991904031206004+59500+020350FM-12+002699999V0202901N004119999999N0000001N9-00331+99999100921ADDGF108991999999999999999999
0029029810999991904031213004+59500+020350FM-12+002699999V0202701N003119999999N0000001N9-00281+99999100841ADDGF107991999999999999999999
0029029810999991904031220004+59500+020350FM-12+002699999V0202301N005119999999N0000001N9-00061+99999100831ADDGF102991999999999999999999
0029029810999991904031306004+59500+020350FM-12+002699999V0202001N010819999999N0000001N9+00001+99999100551ADDGF103991999999999999999999
0029029810999991904031313004+59500+020350FM-12+002699999V0202301N010819999999N0000001N9+00061+99999100471ADDGF104991999999999999999999
0029029810999991904031320004+59500+020350FM-12+002699999V0202301N010819999999N0000001N9+00111+99999100471ADDGF108991999999999999999999
0029029810999991904031406004+59500+020350FM-12+002699999V0202301N017019999999N0000001N9+00061+99999100241ADDGF108991999999999999999999
0029029810999991904031413004+59500+020350FM-12+002699999V0202001N011819999999N0000001N9+00111+99999100061ADDGF106991999999999999999999
0029029810999991904031420004+59500+020350FM-12+002699999V0201801N015919999999N0000001N9+00111+99999099841ADDGF108991999999999999999999
0029029810999991904031506004+59500+020350FM-12+002699999V0202001N010819999999N0000001N9+00061+99999099681ADDGF108991999999999999999999
0029029810999991904031513004+59500+020350FM-12+002699999V0202301N003119999999N0000001N9+00061+99999099701ADDGF107991999999999999999999
0029029810999991904031520004+59500+020350FM-12+002699999V0203601N010819999999N0000001N9-00331+99999100031ADDGF108991999999999999999999
0029029810999991904031606004+59500+020350FM-12+002699999V0203201N008719999999N0000001N9-00221+99999100911ADDGF102991999999999999999999
0029029810999991904031613004+59500+020350FM-12+002699999V0203201N010819999999N0000001N9-00171+99999101641ADDGF102991999999999999999999
0029029810999991904031620004+59500+020350FM-12+002699999V0203201N001019999999N0000001N9-00281+99999102201ADDGF100991999999999999999999
0029029810999991904031706004+59500+020350FM-12+002699999V0202301N008719999999N0000001N9+00001+99999102431ADDGF100991999999999999999999
0029029810999991904031713004+59500+020350FM-12+002699999V0202301N013919999999N0000001N9+00001+99999102401ADDGF101991999999999999999999
0029029810999991904031720004+59500+020350FM-12+002699999V0202301N012919999999N0000001N9+00001+99999102261ADDGF100991999999999999999999
0029029810999991904031806004+59500+020350FM-12+002699999V0202301N008719999999N0000001N9+00001+99999102241ADDGF102991999999999999999999
0029029810999991904031813004+59500+020350FM-12+002699999V0202301N008719999999N0000001N9+00111+99999102281ADDGF102991999999999999999999
0029029810999991904031820004+59500+020350FM-12+002699999V0202301N008219999999N0000001N9+00001+99999102161ADDGF104991999999999999999999
0029029810999991904031906004+59500+020350FM-12+002699999V0201801N007219999999N0000001N9+00001+99999102191ADDGF106991999999999999999999
0029029810999991904031913004+59500+020350FM-12+002699999V0201801N006219999999N0000001N9+00281+99999102311ADDGF102991999999999999999999
0029029810999991904031920004+59500+020350FM-12+002699999V0201801N010819999999N0000001N9-00061+99999102321ADDGF102991999999999999999999
0029029810999991904032006004+59500+020350FM-12+002699999V0201801N011819999999N0000001N9+00061+99999102061ADDGF104991999999999999999999
0029029810999991904032013004+59500+020350FM-12+002699999V0201801N010819999999N0000001N9+00171+99999101881ADDGF106991999999999999999999
0029029810999991904032020004+59500+020350FM-12+002699999V0201801N014919999999N0000001N9+00001+99999101761ADDGF102991999999999999999999
0029029810999991904032106004+59500+020350FM-12+002699999V0201801N015919999999N0000001N9+00001+99999101821ADDGF106991999999999999999999
0029029810999991904032113004+59500+020350FM-12+002699999V0201601N017019999999N0000001N9+00001+99999101911ADDGF104991999999999999999999
0029029810999991904032120004+59500+020350FM-12+002699999V0201801N020119999999N0000001N9+00001+99999101711ADDGF106991999999999999999999
0035029810999991904032206004+59500+020350FM-12+002699999V0201801N022119999999N0000001N9+00001+99999100761ADDGF108991999999999999999999MW1721
0029029810999991904032213004+59500+020350FM-12+002699999V0202001N008719999999N0000001N9+00111+99999100721ADDGF108991999999999999999999
0029029810999991904032220004+59500+020350FM-12+002699999V0201801N007219999999N0000001N9+00111+99999100921ADDGF108991999999999999999999
0029029810999991904032306004+59500+020350FM-12+002699999V0201801N004119999999N0000001N9+00061+99999101281ADDGF108991999999999999999999
0029029810999991904032313004+59500+020350FM-12+002699999V0209991C000019999999N0000001N9+00221+99999101861ADDGF108991999999999999999999
0035029810999991904032320004+59500+020350FM-12+002699999V0203601N005119999999N0000001N9+00001+99999102421ADDGF108991999999999999999999MW1721
0029029810999991904032406004+59500+020350FM-12+002699999V0200501N005119999999N0000001N9-00221+99999103021ADDGF108991999999999999999999
0029029810999991904032413004+59500+020350FM-12+002699999V0203601N007219999999N0000001N9-00221+99999103511ADDGF108991999999999999999999
0029029810999991904032420004+59500+020350FM-12+002699999V0203601N006219999999N0000001N9-00281+99999103631ADDGF108991999999999999999999
0029029810999991904032506004+59500+020350FM-12+002699999V0200701N006219999999N0000001N9-00111+99999103701ADDGF101991999999999999999999
0029029810999991904032513004+59500+020350FM-12+002699999V0200901N005119999999N0000001N9+00061+99999103681ADDGF100991999999999999999999
0029029810999991904032520004+59500+020350FM-12+002699999V0201101N006219999999N0000001N9+00061+99999103511ADDGF100991999999999999999999
0029029810999991904032606004+59500+020350FM-12+002699999V0201401N004119999999N0000001N9+00061+99999103481ADDGF101991999999999999999999
0029029810999991904032613004+59500+020350FM-12+002699999V0201401N005119999999N0000001N9+00111+99999103461ADDGF101991999999999999999999
0029029810999991904032620004+59500+020350FM-12+002699999V0201401N006219999999N0000001N9+00111+99999103311ADDGF101991999999999999999999
0029029810999991904032706004+59500+020350FM-12+002699999V0201401N004119999999N0000001N9+00111+99999103241ADDGF102991999999999999999999
0029029810999991904032713004+59500+020350FM-12+002699999V0201401N004119999999N0000001N9+00221+99999103311ADDGF102991999999999999999999
0029029810999991904032720004+59500+020350FM-12+002699999V0201101N005119999999N0000001N9+00061+99999103381ADDGF102991999999999999999999
0029029810999991904032806004+59500+020350FM-12+002699999V0200901N006219999999N0000001N9+00111+99999103351ADDGF102991999999999999999999
0029029810999991904032813004+59500+020350FM-12+002699999V0201101N009819999999N0000001N9+00061+99999103321ADDGF102991999999999999999999
0029029810999991904032820004+59500+020350FM-12+002699999V0201101N008219999999N0000001N9+00001+99999103161ADDGF103991999999999999999999
0029029810999991904032906004+59500+020350FM-12+002699999V0201401N010819999999N0000001N9+00061+99999102791ADDGF102991999999999999999999
0029029810999991904032913004+59500+020350FM-12+002699999V0201401N012919999999N0000001N9+00061+99999102511ADDGF102991999999999999999999
0029029810999991904032920004+59500+020350FM-12+002699999V0201401N014919999999N0000001N9+00001+99999102041ADDGF101991999999999999999999
0029029810999991904033006004+59500+020350FM-12+002699999V0201401N017019999999N0000001N9-00111+99999101501ADDGF104991999999999999999999
0029029810999991904033013004+59500+020350FM-12+002699999V0201401N019019999999N0000001N9-00111+99999101351ADDGF105991999999999999999999
0029029810999991904033020004+59500+020350FM-12+002699999V0201401N021119999999N0000001N9-00061+99999101461ADDGF102991999999999999999999
0029029810999991904033106004+59500+020350FM-12+002699999V0201401N018019999999N0000001N9+00281+99999101791ADDGF102991999999999999999999
0029029810999991904033113004+59500+020350FM-12+002699999V0201101N020119999999N0000001N9-00171+99999102031ADDGF102991999999999999999999
0029029810999991904033120004+59500+020350FM-12+002699999V0201101N018019999999N0000001N9-00221+99999102191ADDGF105991999999999999999999
0029029810999991904040106004+59500+020350FM-12+002699999V0201401N014919999999N0000001N9-00221+99999102121ADDGF103991999999999999999999
0029029810999991904040113004+59500+020350FM-12+002699999V0201401N017019999999N0000001N9-00111+99999102031ADDGF104991999999999999999999
0029029810999991904040120004+59500+020350FM-12+002699999V0201601N017019999999N0000001N9-00111+99999101831ADDGF104991999999999999999999
0029029810999991904040206004+59500+020350FM-12+002699999V0201601N012919999999N0000001N9-00171+99999101641ADDGF107991999999999999999999
0029029810999991904040213004+59500+020350FM-12+002699999V0201601N010819999999N0000001N9-00061+99999101741ADDGF107991999999999999999999
0029029810999991904040220004+59500+020350FM-12+002699999V0201601N007219999999N0000001N9+00001+99999101871ADDGF108991999999999999999999
0035029810999991904040306004+59500+020350FM-12+002699999V0201601N007219999999N0000001N9+00001+99999102001ADDGF108991999999999999999999MW1701
0029029810999991904040313004+59500+020350FM-12+002699999V0201601N008719999999N0000001N9+00061+99999101861ADDGF108991999999999999999999
0029029810999991904040320004+59500+020350FM-12+002699999V0201401N010819999999N0000001N9+00061+99999101481ADDGF108991999999999999999999
0035029810999991904040406004+59500+020350FM-12+002699999V0201601N015919999999N0000001N9+00111+99999100791ADDGF108991999999999999999999MW1691
0035029810999991904040413004+59500+020350FM-12+002699999V0201601N015919999999N0000001N9+00111+99999100551ADDGF108991999999999999999999MW1691
0029029810999991904040420004+59500+020350FM-12+002699999V0201801N009819999999N0000001N9+00111+99999100421ADDGF108991999999999999999999
0029029810999991904040506004+59500+020350FM-12+002699999V0201801N008219999999N0000001N9+00061+99999100581ADDGF108991999999999999999999
0029029810999991904040513004+59500+020350FM-12+002699999V0201801N006219999999N0000001N9+00171+99999100541ADDGF108991999999999999999999
0029029810999991904040520004+59500+020350FM-12+002699999V0201801N012919999999N0000001N9+00001+99999100311ADDGF108991999999999999999999
0029029810999991904040606004+59500+020350FM-12+002699999V0201601N011819999999N0000001N9+00111+99999099911ADDGF108991999999999999999999
0029029810999991904040613004+59500+020350FM-12+002699999V0201401N012919999999N0000001N9+00171+99999099361ADDGF108991999999999999999999
0035029810999991904040620004+59500+020350FM-12+002699999V0201401N013919999999N0000001N9+00171+99999098681ADDGF108991999999999999999999MW1621
0029029810999991904040706004+59500+020350FM-12+002699999V0201401N011819999999N0000001N9+00111+99999097821ADDGF108991999999999999999999
0029029810999991904040713004+59500+020350FM-12+002699999V0202301N010819999999N0000001N9+00061+99999097791ADDGF108991999999999999999999
0029029810999991904040720004+59500+020350FM-12+002699999V0202301N009819999999N0000001N9+00221+99999098311ADDGF104991999999999999999999
0029029810999991904040806004+59500+020350FM-12+002699999V0201801N008219999999N0000001N9+00171+99999098951ADDGF108991999999999999999999
0029029810999991904040813004+59500+020350FM-12+002699999V0201601N007219999999N0000001N9+00281+99999099381ADDGF107991999999999999999999
0029029810999991904040820004+59500+020350FM-12+002699999V0201401N004119999999N0000001N9+00221+99999099761ADDGF108991999999999999999999
0029029810999991904040906004+59500+020350FM-12+002699999V0202001N006219999999N0000001N9+00171+99999099981ADDGF107991999999999999999999
0029029810999991904040913004+59500+020350FM-12+002699999V0201801N008719999999N0000001N9+00331+99999099911ADDGF104991999999999999999999
0029029810999991904040920004+59500+020350FM-12+002699999V0201801N010819999999N0000001N9+00171+99999099561ADDGF108991999999999999999999
0029029810999991904041006004+59500+020350FM-12+002699999V0202301N010819999999N0000001N9+00171+99999098941ADDGF106991999999999999999999
0029029810999991904041013004+59500+020350FM-12+002699999V0202001N011819999999N0000001N9+00281+99999099061ADDGF102991999999999999999999
0029029810999991904041020004+59500+020350FM-12+002699999V0202001N009819999999N0000001N9+00171+99999099081ADDGF102991999999999999999999
0029029810999991904041106004+59500+020350FM-12+002699999V0202301N004119999999N0000001N9+00171+99999098911ADDGF102991999999999999999999
0029029810999991904041113004+59500+020350FM-12+002699999V0201801N003119999999N0000001N9+00441+99999099101ADDGF102991999999999999999999
0029029810999991904041120004+59500+020350FM-12+002699999V0201801N002119999999N0000001N9+00111+99999099421ADDGF108991999999999999999999
0029029810999991904041206004+59500+020350FM-12+002699999V0200501N004119999999N0000001N9-00061+99999100061ADDGF107991999999999999999999
0029029810999991904041213004+59500+020350FM-12+002699999V0202901N004119999999N0000001N9+00171+99999100501ADDGF102991999999999999999999
0029029810999991904041220004+59500+020350FM-12+002699999V0202701N005119999999N0000001N9+00111+99999100831ADDGF106991999999999999999999
0029029810999991904041306004+59500+020350FM-12+002699999V0203201N008719999999N0000001N9+00171+99999101231ADDGF101991999999999999999999
0029029810999991904041313004+59500+020350FM-12+002699999V0203201N009819999999N0000001N9+00061+99999101501ADDGF105991999999999999999999
0029029810999991904041320004+59500+020350FM-12+002699999V0203401N007219999999N0000001N9-00061+99999101631ADDGF102991999999999999999999
0029029810999991904041406004+59500+020350FM-12+002699999V0203601N008719999999N0000001N9+00001+99999102041ADDGF101991999999999999999999
0029029810999991904041413004+59500+020350FM-12+002699999V0203601N008219999999N0000001N9+00221+99999102281ADDGF102991999999999999999999
0029029810999991904041420004+59500+020350FM-12+002699999V0203601N006219999999N0000001N9-00171+99999102421ADDGF102991999999999999999999
0029029810999991904041506004+59500+020350FM-12+002699999V0201801N003119999999N0000001N9+00281+99999102511ADDGF102991999999999999999999
0029029810999991904041513004+59500+020350FM-12+002699999V0201801N008719999999N0000001N9+00221+99999102441ADDGF105991999999999999999999
0029029810999991904041520004+59500+020350FM-12+002699999V0201801N011819999999N0000001N9+00111+99999102101ADDGF108991999999999999999999
0029029810999991904041606004+59500+020350FM-12+002699999V0201801N019019999999N0000001N9+00221+99999101421ADDGF108991999999999999999999
0029029810999991904041613004+59500+020350FM-12+002699999V0202001N018019999999N0000001N9+00331+99999101061ADDGF104991999999999999999999
0029029810999991904041620004+59500+020350FM-12+002699999V0201801N015919999999N0000001N9+00391+99999100951ADDGF106991999999999999999999
0029029810999991904041706004+59500+020350FM-12+002699999V0201801N010819999999N0000001N9+00331+99999100761ADDGF106991999999999999999999
0029029810999991904041713004+59500+020350FM-12+002699999V0201801N005119999999N0000001N9+00391+99999100911ADDGF107991999999999999999999
0035029810999991904041720004+59500+020350FM-12+002699999V0201801N008219999999N0000001N9+00331+99999101081ADDGF108991999999999999999999MW1621
0029029810999991904041806004+59500+020350FM-12+002699999V0202001N006219999999N0000001N9+00221+99999101791ADDGF108991999999999999999999
0029029810999991904041813004+59500+020350FM-12+002699999V0202001N009819999999N0000001N9+00331+99999102511ADDGF108991999999999999999999
0035029810999991904041820004+59500+020350FM-12+002699999V0201801N006219999999N0000001N9+00221+99999102871ADDGF108991999999999999999999MW1621
0029029810999991904041906004+59500+020350FM-12+002699999V0201801N008719999999N0000001N9+00331+99999103221ADDGF106991999999999999999999
0029029810999991904041913004+59500+020350FM-12+002699999V0209991C000019999999N0000001N9+00721+99999103271ADDGF103991999999999999999999
0029029810999991904041920004+59500+020350FM-12+002699999V0200901N005119999999N0000001N9+00281+99999103161ADDGF102991999999999999999999
0029029810999991904042006004+59500+020350FM-12+002699999V0200901N007219999999N0000001N9+00281+99999102791ADDGF104991999999999999999999
0029029810999991904042013004+59500+020350FM-12+002699999V0200901N007219999999N0000001N9+00391+99999102631ADDGF102991999999999999999999
0029029810999991904042020004+59500+020350FM-12+002699999V0201401N009819999999N0000001N9+00391+99999102461ADDGF104991999999999999999999
0029029810999991904042106004+59500+020350FM-12+002699999V0201101N009819999999N0000001N9+00331+99999101991ADDGF106991999999999999999999
0029029810999991904042113004+59500+020350FM-12+002699999V0201401N009819999999N0000001N9+00331+99999101661ADDGF106991999999999999999999
0029029810999991904042120004+59500+020350FM-12+002699999V0201401N002119999999N0000001N9+00281+99999101301ADDGF108991999999999999999999
0029029810999991904042206004+59500+020350FM-12+002699999V0203201N006219999999N0000001N9+00111+99999101021ADDGF108991999999999999999999
0029029810999991904042213004+59500+020350FM-12+002699999V0202301N010819999999N0000001N9+00221+99999101301ADDGF108991999999999999999999
0029029810999991904042220004+59500+020350FM-12+002699999V0202001N008219999999N0000001N9+00061+99999101501ADDGF108991999999999999999999
0029029810999991904042306004+59500+020350FM-12+002699999V0201801N006219999999N0000001N9+00111+99999101701ADDGF108991999999999999999999
0029029810999991904042313004+59500+020350FM-12+002699999V0201401N008219999999N0000001N9+00171+99999101751ADDGF106991999999999999999999
0029029810999991904042320004+59500+020350FM-12+002699999V0200901N005119999999N0000001N9+00221+99999101511ADDGF104991999999999999999999
0029029810999991904042406004+59500+020350FM-12+002699999V0200501N003119999999N0000001N9+00171+99999100921ADDGF108991999999999999999999
0029029810999991904042413004+59500+020350FM-12+002699999V0203601N001019999999N0000001N9+00391+99999100741ADDGF103991999999999999999999
0035029810999991904042420004+59500+020350FM-12+002699999V0202001N009819999999N0000001N9+00391+99999100561ADDGF107991999999999999999999MW1621
0029029810999991904042506004+59500+020350FM-12+002699999V0202001N007219999999N0000001N9+00441+99999100361ADDGF104991999999999999999999
0029029810999991904042513004+59500+020350FM-12+002699999V0201801N013919999999N0000001N9+00441+99999100101ADDGF106991999999999999999999
0029029810999991904042520004+59500+020350FM-12+002699999V0202001N014919999999N0000001N9+00441+99999099701ADDGF102991999999999999999999
0029029810999991904042606004+59500+020350FM-12+002699999V0202301N017019999999N0000001N9+00331+99999100021ADDGF102991999999999999999999
0029029810999991904042613004+59500+020350FM-12+002699999V0202301N015919999999N0000001N9+00391+99999100431ADDGF103991999999999999999999
0029029810999991904042620004+59500+020350FM-12+002699999V0202301N012919999999N0000001N9+00331+99999100781ADDGF102991999999999999999999
0029029810999991904042706004+59500+020350FM-12+002699999V0202301N009819999999N0000001N9+00391+99999101141ADDGF106991999999999999999999
0029029810999991904042713004+59500+020350FM-12+002699999V0202001N009819999999N0000001N9+00391+99999101241ADDGF102991999999999999999999
0029029810999991904042720004+59500+020350FM-12+002699999V0201801N008219999999N0000001N9+00281+99999101041ADDGF106991999999999999999999
0029029810999991904042806004+59500+020350FM-12+002699999V0201801N013919999999N0000001N9+00281+99999100631ADDGF106991999999999999999999
0000029810999991904042813004+59500+020350FM-12+002699999V0201801N008719999999N0000001N9+00281+99999100361
0029029810999991904042820004+59500+020350FM-12+002699999V0201401N001019999999N0000001N9+00111+99999100111ADDGF108991999999999999999999
0035029810999991904042906004+59500+020350FM-12+002699999V0203201N008719999999N0000001N9+00221+99999100281ADDGF108991999999999999999999MW1601
0029029810999991904042913004+59500+020350FM-12+002699999V0202701N004119999999N0000001N9+00281+99999100681ADDGF107991999999999999999999
0029029810999991904042920004+59500+020350FM-12+002699999V0202001N008719999999N0000001N9+00221+99999100581ADDGF102991999999999999999999
0035029810999991904043006004+59500+020350FM-12+002699999V0201801N008219999999N0000001N9+00281+99999099991ADDGF108991999999999999999999MW1601
0029029810999991904043013004+59500+020350FM-12+002699999V0202901N008219999999N0000001N9+00331+99999100181ADDGF108991999999999999999999
0029029810999991904043020004+59500+020350FM-12+002699999V0202701N005119999999N0000001N9+00281+99999100671ADDGF102991999999999999999999
0029029810999991904050106004+59500+020350FM-12+002699999V0201801N006219999999N0000001N9+00391+99999101041ADDGF103991999999999999999999
0029029810999991904050113004+59500+020350FM-12+002699999V0201601N008719999999N0000001N9+00441+99999101231ADDGF106991999999999999999999
0029029810999991904050120004+59500+020350FM-12+002699999V0202001N007219999999N0000001N9+00331+99999101241ADDGF108991999999999999999999
0029029810999991904050206004+59500+020350FM-12+002699999V0201601N005119999999N0000001N9+00171+99999101061ADDGF108991999999999999999999
0029029810999991904050213004+59500+020350FM-12+002699999V0201801N008219999999N0000001N9+00331+99999100801ADDGF108991999999999999999999
0029029810999991904050220004+59500+020350FM-12+002699999V0201601N013919999999N0000001N9+00501+99999099831ADDGF108991999999999999999999
0029029810999991904050306004+59500+020350FM-12+002699999V0202001N006219999999N0000001N9+00331+99999099321ADDGF106991999999999999999999
0029029810999991904050313004+59500+020350FM-12+002699999V0202301N008719999999N0000001N9+00391+99999099201ADDGF102991999999999999999999
0029029810999991904050320004+59500+020350FM-12+002699999V0202301N011819999999N0000001N9+00331+99999098831ADDGF106991999999999999999999
0029029810999991904050406004+59500+020350FM-12+002699999V0202501N008219999999N0000001N9+00331+99999099441ADDGF106991999999999999999999
0029029810999991904050413004+59500+020350FM-12+002699999V0202301N005119999999N0000001N9+00501+99999999999ADDGF104991999999999999999999
0029029810999991904050420004+59500+020350FM-12+002699999V0202301N001019999999N0000001N9+00391+99999100461ADDGF105991999999999999999999
0029029810999991904050506004+59500+020350FM-12+002699999V0203201N004119999999N0000001N9+00221+99999100981ADDGF102991999999999999999999
0029029810999991904050513004+59500+020350FM-12+002699999V0203201N004119999999N0000001N9+00331+99999101101ADDGF102991999999999999999999
0029029810999991904050520004+59500+020350FM-12+002699999V0200501N004119999999N0000001N9+00171+99999101191ADDGF106991999999999999999999
0029029810999991904050606004+59500+020350FM-12+002699999V0200201N008719999999N0000001N9+00171+99999100831ADDGF106991999999999999999999
0029029810999991904050613004+59500+020350FM-12+002699999V0203601N007219999999N0000001N9+00281+99999100831ADDGF102991999999999999999999
0029029810999991904050620004+59500+020350FM-12+002699999V0203601N008219999999N0000001N9+00221+99999100821ADDGF103991999999999999999999
0029029810999991904050706004+59500+020350FM-12+002699999V0203601N004119999999N0000001N9+00281+99999101031ADDGF106991999999999999999999
0029029810999991904050713004+59500+020350FM-12+002699999V0200501N004119999999N0000001N9+00331+99999101281ADDGF104991999999999999999999
0029029810999991904050720004+59500+020350FM-12+002699999V0200901N004119999999N0000001N9+00221+99999101351ADDGF106991999999999999999999
0035029810999991904050806004+59500+020350FM-12+002699999V0201101N012919999999N0000001N9+00331+99999100911ADDGF106991999999999999999999MW1621
0029029810999991904050813004+59500+020350FM-12+002699999V0201401N008719999999N0000001N9+00441+99999101001ADDGF106991999999999999999999
0029029810999991904050820004+59500+020350FM-12+002699999V0201101N006219999999N0000001N9+00391+99999101031ADDGF106991999999999999999999
0035029810999991904050906004+59500+020350FM-12+002699999V0200501N009819999999N0000001N9+00281+99999100501ADDGF108991999999999999999999MW1641
0035029810999991904050913004+59500+020350FM-12+002699999V0203201N013919999999N0000001N9+00281+99999100361ADDGF108991999999999999999999MW1641
0029029810999991904050920004+59500+020350FM-12+002699999V0202901N008219999999N0000001N9+00221+99999100861ADDGF106991999999999999999999
0029029810999991904051006004+59500+020350FM-12+002699999V0200901N003119999999N0000001N9+00281+99999100941ADDGF106991999999999999999999
0000029810999991904051013004+59500+020350FM-12+002699999V0200901N009819999999N0000001N9+00111+99999100661
0029029810999991904051020004+59500+020350FM-12+002699999V0200501N009819999999N0000001N9+00331+99999100281ADDGF108991999999999999999999
0029029810999991904051106004+59500+020350FM-12+002699999V0200501N008719999999N0000001N9+00281+99999099831ADDGF108991999999999999999999
0029029810999991904051113004+59500+020350FM-12+002699999V0203401N006219999999N0000001N9+00281+99999100021ADDGF106991999999999999999999
0029029810999991904051120004+59500+020350FM-12+002699999V0202901N008219999999N0000001N9+00221+99999100521ADDGF102991999999999999999999
0029029810999991904051206004+59500+020350FM-12+002699999V0202301N001019999999N0000001N9+00561+99999100991ADDGF104991999999999999999999
0029029810999991904051213004+59500+020350FM-12+002699999V0209991C000019999999N0000001N9+00611+99999101431ADDGF102991999999999999999999
0029029810999991904051220004+59500+020350FM-12+002699999V0200501N002119999999N0000001N9+00281+99999101741ADDGF102991999999999999999999
0029029810999991904051306004+59500+020350FM-12+002699999V0209991C000019999999N0000001N9+00391+99999102181ADDGF102991999999999999999999
0029029810999991904051313004+59500+020350FM-12+002699999V0202301N005119999999N0000001N9+00941+99999102381ADDGF102991999999999999999999
0029029810999991904051320004+59500+020350FM-12+002699999V0202301N008219999999N0000001N9+00391+99999102281ADDGF102991999999999999999999
0029029810999991904051406004+59500+020350FM-12+002699999V0202301N008719999999N0000001N9+00441+99999102031ADDGF106991999999999999999999
0029029810999991904051413004+59500+020350FM-12+002699999V0202301N009819999999N0000001N9+00561+99999101821ADDGF106991999999999999999999
0029029810999991904051420004+59500+020350FM-12+002699999V0202301N013919999999N0000001N9+00441+99999101361ADDGF106991999999999999999999
0035029810999991904051506004+59500+020350FM-12+002699999V0202001N019019999999N0000001N9+00501+99999100361ADDGF108991999999999999999999MW1621
0029029810999991904051513004+59500+020350FM-12+002699999V0202301N012919999999N0000001N9+00561+99999099951ADDGF106991999999999999999999
0029029810999991904051520004+59500+020350FM-12+002699999V0202301N010819999999N0000001N9+00561+99999099801ADDGF106991999999999999999999
0029029810999991904051606004+59500+020350FM-12+002699999V0202501N008719999999N0000001N9+00441+99999099381ADDGF108991999999999999999999
0029029810999991904051613004+59500+020350FM-12+002699999V0203201N008219999999N0000001N9+00501+99999099661ADDGF108991999999999999999999
0029029810999991904051620004+59500+020350FM-12+002699999V0203201N011819999999N0000001N9+00391+99999100111ADDGF105991999999999999999999
0029029810999991904051706004+59500+020350FM-12+002699999V0203201N009819999999N0000001N9+00441+99999100741ADDGF102991999999999999999999
0029029810999991904051713004+59500+020350FM-12+002699999V0202301N002119999999N0000001N9+00671+99999100681ADDGF105991999999999999999999
0035029810999991904051720004+59500+020350FM-12+002699999V0202001N008219999999N0000001N9+00501+99999100431ADDGF106991999999999999999999MW1601
0029029810999991904051806004+59500+020350FM-12+002699999V0201801N008219999999N0000001N9+00561+99999099151ADDGF106991999999999999999999
0029029810999991904051813004+59500+020350FM-12+002699999V0202301N009819999999N0000001N9+00611+99999099201ADDGF102991999999999999999999
0029029810999991904051820004+59500+020350FM-12+002699999V0202301N008219999999N0000001N9+00611+99999099471ADDGF103991999999999999999999
0029029810999991904051906004+59500+020350FM-12+002699999V0202501N006219999999N0000001N9+00611+99999099301ADDGF102991999999999999999999
0029029810999991904051913004+59500+020350FM-12+002699999V0202301N007219999999N0000001N9+00611+99999099271ADDGF103991999999999999999999
0029029810999991904051920004+59500+020350FM-12+002699999V0202701N008219999999N0000001N9+00501+99999099301ADDGF103991999999999999999999
0029029810999991904052006004+59500+020350FM-12+002699999V0203201N012919999999N0000001N9+00441+99999099781ADDGF102991999999999999999999
0029029810999991904052013004+59500+020350FM-12+002699999V0203201N011819999999N0000001N9+00501+99999100241ADDGF104991999999999999999999
0029029810999991904052020004+59500+020350FM-12+002699999V0203201N014919999999N0000001N9+00501+99999100741ADDGF106991999999999999999999
0029029810999991904052106004+59500+020350FM-12+002699999V0203201N013919999999N0000001N9+00331+99999101151ADDGF101991999999999999999999
0029029810999991904052113004+59500+020350FM-12+002699999V0203201N008719999999N0000001N9+00441+99999101351ADDGF102991999999999999999999
0029029810999991904052120004+59500+020350FM-12+002699999V0203201N009819999999N0000001N9+00281+99999101501ADDGF102991999999999999999999
0029029810999991904052206004+59500+020350FM-12+002699999V0203601N011819999999N0000001N9+00281+99999101581ADDGF106991999999999999999999
0000029810999991904052213004+59500+020350FM-12+002699999V0203601N014919999999N0000001N9+00221+99999101681
0029029810999991904052220004+59500+020350FM-12+002699999V0203601N012919999999N0000001N9+00221+99999101661ADDGF106991999999999999999999
0029029810999991904052306004+59500+020350FM-12+002699999V0203601N010819999999N0000001N9+00221+99999101621ADDGF106991999999999999999999
0029029810999991904052313004+59500+020350FM-12+002699999V0203601N007219999999N0000001N9+00501+99999101671ADDGF105991999999999999999999
0029029810999991904052320004+59500+020350FM-12+002699999V0203201N007219999999N0000001N9+00441+99999101751ADDGF106991999999999999999999
0029029810999991904052406004+59500+020350FM-12+002699999V0201601N001019999999N0000001N9+00611+99999102061ADDGF106991999999999999999999
0029029810999991904052413004+59500+020350FM-12+002699999V0201601N002119999999N0000001N9+00611+99999102301ADDGF106991999999999999999999
0029029810999991904052420004+59500+020350FM-12+002699999V0200901N001019999999N0000001N9+00441+99999102391ADDGF102991999999999999999999
0029029810999991904052506004+59500+020350FM-12+002699999V0202701N002119999999N0000001N9+00501+99999102581ADDGF101991999999999999999999
0029029810999991904052513004+59500+020350FM-12+002699999V0202301N004119999999N0000001N9+00941+99999102711ADDGF101991999999999999999999
0029029810999991904052520004+59500+020350FM-12+002699999V0202501N004119999999N0000001N9+00561+99999102601ADDGF102991999999999999999999
0029029810999991904052606004+59500+020350FM-12+002699999V0201801N004119999999N0000001N9+00721+99999102681ADDGF102991999999999999999999
0029029810999991904052613004+59500+020350FM-12+002699999V0201801N004119999999N0000001N9+00891+99999102661ADDGF102991999999999999999999
0029029810999991904052620004+59500+020350FM-12+002699999V0201801N004119999999N0000001N9+00781+99999102541ADDGF102991999999999999999999
0029029810999991904052706004+59500+020350FM-12+002699999V0202301N004119999999N0000001N9+00721+99999102381ADDGF102991999999999999999999
0029029810999991904052713004+59500+020350FM-12+002699999V0202001N006219999999N0000001N9+00891+99999102201ADDGF104991999999999999999999
0029029810999991904052720004+59500+020350FM-12+002699999V0202301N003119999999N0000001N9+00671+99999101831ADDGF105991999999999999999999
0029029810999991904052806004+59500+020350FM-12+002699999V0202301N006219999999N0000001N9+00611+99999101111ADDGF105991999999999999999999
0029029810999991904052813004+59500+020350FM-12+002699999V0203201N009819999999N0000001N9+01281+99999100951ADDGF102991999999999999999999
0029029810999991904052820004+59500+020350FM-12+002699999V0202901N006219999999N0000001N9+00781+99999100951ADDGF104991999999999999999999
0029029810999991904052906004+59500+020350FM-12+002699999V0203401N009819999999N0000001N9+00501+99999101321ADDGF106991999999999999999999
0029029810999991904052913004+59500+020350FM-12+002699999V0203201N008719999999N0000001N9+00721+99999101681ADDGF103991999999999999999999
0029029810999991904052920004+59500+020350FM-12+002699999V0203401N010819999999N0000001N9+00721+99999101941ADDGF101991999999999999999999
0029029810999991904053006004+59500+020350FM-12+002699999V0203601N008219999999N0000001N9+00611+99999102441ADDGF102991999999999999999999
0029029810999991904053013004+59500+020350FM-12+002699999V0203201N007219999999N0000001N9+00721+99999102541ADDGF102991999999999999999999
0029029810999991904053020004+59500+020350FM-12+002699999V0209991C000019999999N0000001N9+00781+99999102461ADDGF102991999999999999999999
0029029810999991904053106004+59500+020350FM-12+002699999V0202501N008719999999N0000001N9+00671+99999101861ADDGF106991999999999999999999
0029029810999991904053113004+59500+020350FM-12+002699999V0203201N009819999999N0000001N9+01001+99999101801ADDGF102991999999999999999999
0029029810999991904053120004+59500+020350FM-12+002699999V0203201N004119999999N0000001N9+01001+99999101641ADDGF104991999999999999999999
0029029810999991904060106004+59500+020350FM-12+002699999V0203601N004119999999N0000001N9+01331+99999101421ADDGF102991999999999999999999
0029029810999991904060113004+59500+020350FM-12+002699999V0202701N002119999999N0000001N9+01331+99999101321ADDGF102991999999999999999999
0029029810999991904060120004+59500+020350FM-12+002699999V0202301N002119999999N0000001N9+01171+99999101081ADDGF102991999999999999999999
0029029810999991904060206004+59500+020350FM-12+002699999V0202301N004119999999N0000001N9+00941+99999100641ADDGF104991999999999999999999
0029029810999991904060213004+59500+020350FM-12+002699999V0203201N008219999999N0000001N9+00941+99999100701ADDGF102991999999999999999999
0029029810999991904060220004+59500+020350FM-12+002699999V0203201N007219999999N0000001N9+00671+99999100711ADDGF104991999999999999999999
0029029810999991904060306004+59500+020350FM-12+002699999V0201601N004119999999N0000001N9+01111+99999100511ADDGF102991999999999999999999
0029029810999991904060313004+59500+020350FM-12+002699999V0203201N014919999999N0000001N9+00671+99999100261ADDGF106991999999999999999999
0029029810999991904060320004+59500+020350FM-12+002699999V0202701N006219999999N0000001N9+00561+99999100041ADDGF106991999999999999999999
0029029810999991904060406004+59500+020350FM-12+002699999V0203601N014919999999N0000001N9+00561+99999101061ADDGF104991999999999999999999
0029029810999991904060413004+59500+020350FM-12+002699999V0203601N014919999999N0000001N9+00611+99999101591ADDGF102991999999999999999999
0029029810999991904060420004+59500+020350FM-12+002699999V0203201N006219999999N0000001N9+00561+99999101881ADDGF102991999999999999999999
0029029810999991904060506004+59500+020350FM-12+002699999V0209991C000019999999N0000001N9+00721+99999102111ADDGF102991999999999999999999
0029029810999991904060513004+59500+020350FM-12+002699999V0203201N008219999999N0000001N9+00671+99999101921ADDGF102991999999999999999999
0029029810999991904060520004+59500+020350FM-12+002699999V0202301N004119999999N0000001N9+01061+99999101541ADDGF104991999999999999999999
0029029810999991904060606004+59500+020350FM-12+002699999V0203201N010819999999N0000001N9+00721+99999101101ADDGF106991999999999999999999
0029029810999991904060613004+59500+020350FM-12+002699999V0203201N010819999999N0000001N9+00891+99999100981ADDGF104991999999999999999999
0029029810999991904060620004+59500+020350FM-12+002699999V0203201N007219999999N0000001N9+00781+99999100881ADDGF104991999999999999999999
0029029810999991904060706004+59500+020350FM-12+002699999V0203201N011819999999N0000001N9+00611+99999100551ADDGF106991999999999999999999
0029029810999991904060713004+59500+020350FM-12+002699999V0203201N015919999999N0000001N9+00781+99999100381ADDGF105991999999999999999999
0035029810999991904060720004+59500+020350FM-12+002699999V0203601N012919999999N0000001N9+00561+99999100281ADDGF108991999999999999999999MW1621
0029029810999991904060806004+59500+020350FM-12+002699999V0203601N010819999999N0000001N9+00721+99999100381ADDGF106991999999999999999999
0035029810999991904060813004+59500+020350FM-12+002699999V0201401N004119999999N0000001N9+00671+99999100561ADDGF106991999999999999999999MW1601
0029029810999991904060820004+59500+020350FM-12+002699999V0200501N006219999999N0000001N9+00831+99999100761ADDGF106991999999999999999999
0029029810999991904060906004+59500+020350FM-12+002699999V0203601N008219999999N0000001N9+00831+99999100941ADDGF105991999999999999999999
0029029810999991904060913004+59500+020350FM-12+002699999V0203401N010819999999N0000001N9+00611+99999101151ADDGF106991999999999999999999
0029029810999991904060920004+59500+020350FM-12+002699999V0203201N010819999999N0000001N9+00561+99999101191ADDGF105991999999999999999999
0035029810999991904061006004+59500+020350FM-12+002699999V0203201N007219999999N0000001N9+00611+99999101241ADDGF106991999999999999999999MW1601
0029029810999991904061013004+59500+020350FM-12+002699999V0203201N008719999999N0000001N9+00831+99999101121ADDGF104991999999999999999999
0029029810999991904061020004+59500+020350FM-12+002699999V0203201N008219999999N0000001N9+00561+99999101201ADDGF102991999999999999999999
0029029810999991904061106004+59500+020350FM-12+002699999V0202501N008719999999N0000001N9+00891+99999100821ADDGF103991999999999999999999
0029029810999991904061113004+59500+020350FM-12+002699999V0203201N005119999999N0000001N9+00831+99999100741ADDGF104991999999999999999999
0029029810999991904061120004+59500+020350FM-12+002699999V0202701N005119999999N0000001N9+00721+99999100781ADDGF104991999999999999999999
0029029810999991904061206004+59500+020350FM-12+002699999V0203201N009819999999N0000001N9+00671+99999100951ADDGF102991999999999999999999
0029029810999991904061213004+59500+020350FM-12+002699999V0203201N009819999999N0000001N9+00721+99999101221ADDGF102991999999999999999999
0029029810999991904061220004+59500+020350FM-12+002699999V0203201N005119999999N0000001N9+00721+99999101391ADDGF101991999999999999999999
0029029810999991904061306004+59500+020350FM-12+002699999V0202701N005119999999N0000001N9+00781+99999101521ADDGF102991999999999999999999
0029029810999991904061313004+59500+020350FM-12+002699999V0202501N004119999999N0000001N9+01061+99999101581ADDGF102991999999999999999999
0029029810999991904061320004+59500+020350FM-12+002699999V0201601N004119999999N0000001N9+01061+99999101511ADDGF104991999999999999999999
0029029810999991904061406004+59500+020350FM-12+002699999V0201401N003119999999N0000001N9+01111+99999101631ADDGF102991999999999999999999
0029029810999991904061413004+59500+020350FM-12+002699999V0201101N004119999999N0000001N9+01001+99999101751ADDGF102991999999999999999999
0029029810999991904061420004+59500+020350FM-12+002699999V0209991C000019999999N0000001N9+01221+99999101801ADDGF102991999999999999999999
0029029810999991904061506004+59500+020350FM-12+002699999V0209991C000019999999N0000001N9+01331+99999101841ADDGF101991999999999999999999
0029029810999991904061513004+59500+020350FM-12+002699999V0201601N004119999999N0000001N9+01111+99999101871ADDGF104991999999999999999999
0029029810999991904061520004+59500+020350FM-12+002699999V0201401N008219999999N0000001N9+01001+99999101621ADDGF104991999999999999999999
0029029810999991904061606004+59500+020350FM-12+002699999V0201601N010819999999N0000001N9+01061+99999101271ADDGF105991999999999999999999
0029029810999991904061613004+59500+020350FM-12+002699999V0201801N008219999999N0000001N9+01111+99999101001ADDGF105991999999999999999999
0029029810999991904061620004+59500+020350FM-12+002699999V0202301N012919999999N0000001N9+01001+99999100551ADDGF106991999999999999999999
0029029810999991904061706004+59500+020350FM-12+002699999V0202301N014919999999N0000001N9+01061+99999100501ADDGF102991999999999999999999
0029029810999991904061713004+59500+020350FM-12+002699999V0202301N017019999999N0000001N9+01111+99999100321ADDGF102991999999999999999999
0029029810999991904061720004+59500+020350FM-12+002699999V0202501N010819999999N0000001N9+01061+99999100101ADDGF103991999999999999999999
0035029810999991904061806004+59500+020350FM-12+002699999V0202501N010819999999N0000001N9+01001+99999100041ADDGF102991999999999999999999MW1601
0035029810999991904061813004+59500+020350FM-12+002699999V0202301N008719999999N0000001N9+01061+99999100021ADDGF102991999999999999999999MW1601
0029029810999991904061820004+59500+020350FM-12+002699999V0202301N004119999999N0000001N9+01001+99999099791ADDGF102991999999999999999999
0029029810999991904061906004+59500+020350FM-12+002699999V0203201N005119999999N0000001N9+00941+99999099721ADDGF104991999999999999999999
0029029810999991904061913004+59500+020350FM-12+002699999V0202701N003119999999N0000001N9+01111+99999100021ADDGF102991999999999999999999
0029029810999991904061920004+59500+020350FM-12+002699999V0202001N008219999999N0000001N9+00941+99999099721ADDGF102991999999999999999999
0029029810999991904062006004+59500+020350FM-12+002699999V0202301N007219999999N0000001N9+01001+99999099831ADDGF105991999999999999999999
0029029810999991904062013004+59500+020350FM-12+002699999V0202301N009819999999N0000001N9+01061+99999099951ADDGF104991999999999999999999
0029029810999991904062020004+59500+020350FM-12+002699999V0202901N008219999999N0000001N9+01001+99999100261ADDGF103991999999999999999999
0029029810999991904062106004+59500+020350FM-12+002699999V0201401N002119999999N0000001N9+01391+99999100631ADDGF102991999999999999999999
0029029810999991904062113004+59500+020350FM-12+002699999V0202301N008719999999N0000001N9+01171+99999100751ADDGF105991999999999999999999
0035029810999991904062120004+59500+020350FM-12+002699999V0201801N008219999999N0000001N9+00941+99999100631ADDGF108991999999999999999999MW1601
0029029810999991904062206004+59500+020350FM-12+002699999V0202301N009819999999N0000001N9+01001+99999100391ADDGF106991999999999999999999
0029029810999991904062213004+59500+020350FM-12+002699999V0202301N010819999999N0000001N9+01111+99999100221ADDGF106991999999999999999999
0029029810999991904062220004+59500+020350FM-12+002699999V0202001N010819999999N0000001N9+01001+99999099941ADDGF105991999999999999999999
0029029810999991904062306004+59500+020350FM-12+002699999V0202001N009819999999N0000001N9+00831+99999099461ADDGF106991999999999999999999
0029029810999991904062313004+59500+020350FM-12+002699999V0201801N008219999999N0000001N9+01001+99999099481ADDGF106991999999999999999999
0029029810999991904062320004+59500+020350FM-12+002699999V0201601N005119999999N0000001N9+00831+99999099701ADDGF106991999999999999999999
0029029810999991904062406004+59500+020350FM-12+002699999V0200201N006219999999N0000001N9+00891+99999099791ADDGF106991999999999999999999
0029029810999991904062413004+59500+020350FM-12+002699999V0203201N008219999999N0000001N9+01111+99999099981ADDGF104991999999999999999999
0029029810999991904062420004+59500+020350FM-12+002699999V0202901N008219999999N0000001N9+00941+99999099961ADDGF106991999999999999999999
0029029810999991904062506004+59500+020350FM-12+002699999V0202501N010819999999N0000001N9+01061+99999099621ADDGF102991999999999999999999
0029029810999991904062513004+59500+020350FM-12+002699999V0202301N013919999999N0000001N9+01111+99999099861ADDGF102991999999999999999999
0029029810999991904062520004+59500+020350FM-12+002699999V0201601N008219999999N0000001N9+01001+99999099861ADDGF101991999999999999999999
0035029810999991904062606004+59500+020350FM-12+002699999V0200901N017019999999N0000001N9+01001+99999099111ADDGF108991999999999999999999MW1641
0029029810999991904062613004+59500+020350FM-12+002699999V0201401N007219999999N0000001N9+00941+99999099191ADDGF106991999999999999999999
0035029810999991904062620004+59500+020350FM-12+002699999V0200901N008719999999N0000001N9+01001+99999099121ADDGF108991999999999999999999MW1641
0029029810999991904062706004+59500+020350FM-12+002699999V0200501N008219999999N0000001N9+00941+99999099041ADDGF108991999999999999999999
0029029810999991904062713004+59500+020350FM-12+002699999V0203201N008719999999N0000001N9+00941+99999099341ADDGF106991999999999999999999
0029029810999991904062720004+59500+020350FM-12+002699999V0202001N004119999999N0000001N9+01001+99999099511ADDGF106991999999999999999999
0029029810999991904062806004+59500+020350FM-12+002699999V0202501N002119999999N0000001N9+01001+99999099711ADDGF108991999999999999999999
0029029810999991904062813004+59500+020350FM-12+002699999V0202301N003119999999N0000001N9+01441+99999100101ADDGF106991999999999999999999
0029029810999991904062820004+59500+020350FM-12+002699999V0202701N003119999999N0000001N9+00941+99999100501ADDGF107991999999999999999999
0029029810999991904062906004+59500+020350FM-12+002699999V0203201N010819999999N0000001N9+00891+99999100821ADDGF108991999999999999999999
0029029810999991904062913004+59500+020350FM-12+002699999V0203201N008719999999N0000001N9+01001+99999100981ADDGF106991999999999999999999
0029029810999991904062920004+59500+020350FM-12+002699999V0203401N007219999999N0000001N9+00831+99999100951ADDGF106991999999999999999999
0029029810999991904063006004+59500+020350FM-12+002699999V0203601N013919999999N0000001N9+00891+99999100751ADDGF108991999999999999999999
0029029810999991904063013004+59500+020350FM-12+002699999V0203201N014919999999N0000001N9+00941+99999100641ADDGF106991999999999999999999
0029029810999991904063020004+59500+020350FM-12+002699999V0203201N011819999999N0000001N9+00941+99999100421ADDGF105991999999999999999999
0029029810999991904070106004+59500+020350FM-12+002699999V0203201N014919999999N0000001N9+00891+99999100081ADDGF106991999999999999999999
0029029810999991904070113004+59500+020350FM-12+002699999V0203201N013919999999N0000001N9+00941+99999100151ADDGF106991999999999999999999
0029029810999991904070120004+59500+020350FM-12+002699999V0203201N012919999999N0000001N9+00781+99999100181ADDGF108991999999999999999999
0029029810999991904070206004+59500+020350FM-12+002699999V0203201N011819999999N0000001N9+00781+99999100241ADDGF106991999999999999999999
0000029810999991904070213004+59500+020350FM-12+002699999V0203201N011819999999N0000001N9+00781+99999100421
0029029810999991904070220004+59500+020350FM-12+002699999V0203201N009819999999N0000001N9+00831+99999100481ADDGF108991999999999999999999
0029029810999991904070306004+59500+020350FM-12+002699999V0209991C000019999999N0000001N9+00891+99999100641ADDGF108991999999999999999999
0029029810999991904070313004+59500+020350FM-12+002699999V0202301N006219999999N0000001N9+01171+99999100631ADDGF106991999999999999999999
0029029810999991904070320004+59500+020350FM-12+002699999V0202301N008219999999N0000001N9+01111+99999100541ADDGF102991999999999999999999
0029029810999991904070406004+59500+020350FM-12+002699999V0202301N006219999999N0000001N9+01221+99999100601ADDGF102991999999999999999999
0035029810999991904070413004+59500+020350FM-12+002699999V0201801N006219999999N0000001N9+01171+99999100591ADDGF106991999999999999999999MW1621
0035029810999991904070420004+59500+020350FM-12+002699999V0201601N006219999999N0000001N9+01001+99999100311ADDGF106991999999999999999999MW1621
0029029810999991904070506004+59500+020350FM-12+002699999V0209991C000019999999N0000001N9+01001+99999099961ADDGF108991999999999999999999
0000029810999991904070513004+59500+020350FM-12+002699999V0202901N010819999999N0000001N9+00941+99999100191
0029029810999991904070520004+59500+020350FM-12+002699999V0202701N009819999999N0000001N9+00891+99999100501ADDGF108991999999999999999999
0029029810999991904070606004+59500+020350FM-12+002699999V0202301N005119999999N0000001N9+01111+99999100721ADDGF104991999999999999999999
0029029810999991904070613004+59500+020350FM-12+002699999V0202301N009819999999N0000001N9+01171+99999100961ADDGF102991999999999999999999
0029029810999991904070620004+59500+020350FM-12+002699999V0202301N008719999999N0000001N9+01001+99999101041ADDGF103991999999999999999999
0029029810999991904070706004+59500+020350FM-12+002699999V0202301N007219999999N0000001N9+01061+99999101041ADDGF108991999999999999999999
0029029810999991904070713004+59500+020350FM-12+002699999V0202301N011819999999N0000001N9+01171+99999100791ADDGF106991999999999999999999
0029029810999991904070720004+59500+020350FM-12+002699999V0202301N012919999999N0000001N9+01171+99999100631ADDGF102991999999999999999999
0029029810999991904070806004+59500+020350FM-12+002699999V0202701N002119999999N0000001N9+01111+99999100741ADDGF104991999999999999999999
0029029810999991904070813004+59500+020350FM-12+002699999V0202501N010819999999N0000001N9+01221+99999100701ADDGF102991999999999999999999
0029029810999991904070820004+59500+020350FM-12+002699999V0202501N009819999999N0000001N9+01171+99999100441ADDGF104991999999999999999999
0029029810999991904070906004+59500+020350FM-12+002699999V0202501N008719999999N0000001N9+01061+99999100121ADDGF106991999999999999999999
0029029810999991904070913004+59500+020350FM-12+002699999V0203201N008719999999N0000001N9+01061+99999100301ADDGF102991999999999999999999
0029029810999991904070920004+59500+020350FM-12+002699999V0202701N006219999999N0000001N9+01111+99999100541ADDGF102991999999999999999999
0029029810999991904071006004+59500+020350FM-12+002699999V0203201N012919999999N0000001N9+01001+99999100591ADDGF101991999999999999999999
0029029810999991904071013004+59500+020350FM-12+002699999V0203201N010819999999N0000001N9+01061+99999100741ADDGF102991999999999999999999
0029029810999991904071020004+59500+020350FM-12+002699999V0202901N008219999999N0000001N9+01111+99999100751ADDGF102991999999999999999999
0029029810999991904071106004+59500+020350FM-12+002699999V0203201N013919999999N0000001N9+00941+99999100721ADDGF102991999999999999999999
0029029810999991904071113004+59500+020350FM-12+002699999V0203201N020119999999N0000001N9+00941+99999100821ADDGF104991999999999999999999
0029029810999991904071120004+59500+020350FM-12+002699999V0203201N009819999999N0000001N9+00941+99999100941ADDGF106991999999999999999999
0029029810999991904071206004+59500+020350FM-12+002699999V0203201N010819999999N0000001N9+01001+99999101311ADDGF102991999999999999999999
0029029810999991904071213004+59500+020350FM-12+002699999V0203201N010819999999N0000001N9+01061+99999101621ADDGF102991999999999999999999
0029029810999991904071220004+59500+020350FM-12+002699999V0203201N010819999999N0000001N9+01061+99999101831ADDGF101991999999999999999999
0029029810999991904071306004+59500+020350FM-12+002699999V0203201N004119999999N0000001N9+01111+99999102121ADDGF102991999999999999999999
0029029810999991904071313004+59500+020350FM-12+002699999V0202301N005119999999N0000001N9+01281+99999102071ADDGF101991999999999999999999
0029029810999991904071320004+59500+020350FM-12+002699999V0202301N007219999999N0000001N9+01391+99999101791ADDGF102991999999999999999999
0029029810999991904071406004+59500+020350FM-12+002699999V0202501N010819999999N0000001N9+01441+99999101911ADDGF100991999999999999999999
0029029810999991904071413004+59500+020350FM-12+002699999V0202301N009819999999N0000001N9+01391+99999101841ADDGF102991999999999999999999
0029029810999991904071420004+59500+020350FM-12+002699999V0202301N010819999999N0000001N9+01281+99999101671ADDGF103991999999999999999999
0029029810999991904071506004+59500+020350FM-12+002699999V0202301N009819999999N0000001N9+01331+99999101501ADDGF100991999999999999999999
0029029810999991904071513004+59500+020350FM-12+002699999V0202301N009819999999N0000001N9+01331+99999101681ADDGF100991999999999999999999
0029029810999991904071520004+59500+020350FM-12+002699999V0202001N008719999999N0000001N9+01281+99999101421ADDGF103991999999999999999999
0029029810999991904071606004+59500+020350FM-12+002699999V0202301N006219999999N0000001N9+01441+99999101281ADDGF106991999999999999999999
0029029810999991904071613004+59500+020350FM-12+002699999V0202301N012919999999N0000001N9+01501+99999101081ADDGF104991999999999999999999
0029029810999991904071620004+59500+020350FM-12+002699999V0202301N014919999999N0000001N9+01561+99999100471ADDGF105991999999999999999999
0029029810999991904071706004+59500+020350FM-12+002699999V0202701N009819999999N0000001N9+01391+99999100481ADDGF102991999999999999999999
0029029810999991904071713004+59500+020350FM-12+002699999V0203201N006219999999N0000001N9+01331+99999100871ADDGF101991999999999999999999
0029029810999991904071720004+59500+020350FM-12+002699999V0209991C000019999999N0000001N9+01331+99999100951ADDGF104991999999999999999999
0029029810999991904071806004+59500+020350FM-12+002699999V0200201N012919999999N0000001N9+00831+99999100901ADDGF106991999999999999999999
0029029810999991904071813004+59500+020350FM-12+002699999V0202901N007219999999N0000001N9+01061+99999100641ADDGF104991999999999999999999
0029029810999991904071820004+59500+020350FM-12+002699999V0202701N005119999999N0000001N9+01061+99999100401ADDGF106991999999999999999999
0029029810999991904071906004+59500+020350FM-12+002699999V0203401N013919999999N0000001N9+00941+99999099991ADDGF106991999999999999999999
0029029810999991904071913004+59500+020350FM-12+002699999V0203401N013919999999N0000001N9+01001+99999099981ADDGF105991999999999999999999
0029029810999991904071920004+59500+020350FM-12+002699999V0203601N013919999999N0000001N9+01001+99999100261ADDGF104991999999999999999999
0029029810999991904072006004+59500+020350FM-12+002699999V0203401N012919999999N0000001N9+01061+99999100521ADDGF106991999999999999999999
0035029810999991904072013004+59500+020350FM-12+002699999V0203201N012919999999N0000001N9+01061+99999100511ADDGF105991999999999999999999MW1601
0029029810999991904072020004+59500+020350FM-12+002699999V0203201N009819999999N0000001N9+01061+99999100391ADDGF105991999999999999999999
0035029810999991904072106004+59500+020350FM-12+002699999V0203401N009819999999N0000001N9+01111+99999100461ADDGF106991999999999999999999MW1601
0035029810999991904072113004+59500+020350FM-12+002699999V0203201N009819999999N0000001N9+01061+99999100521ADDGF106991999999999999999999MW1621
0029029810999991904072120004+59500+020350FM-12+002699999V0203201N011819999999N0000001N9+01001+99999100681ADDGF104991999999999999999999
0029029810999991904072206004+59500+020350FM-12+002699999V0203601N007219999999N0000001N9+01061+99999101031ADDGF102991999999999999999999
0029029810999991904072213004+59500+020350FM-12+002699999V0202701N005119999999N0000001N9+01111+99999101191ADDGF102991999999999999999999
0029029810999991904072220004+59500+020350FM-12+002699999V0202301N007219999999N0000001N9+01171+99999101111ADDGF104991999999999999999999
0029029810999991904072306004+59500+020350FM-12+002699999V0202301N005119999999N0000001N9+01331+99999100921ADDGF102991999999999999999999
0029029810999991904072313004+59500+020350FM-12+002699999V0201801N005119999999N0000001N9+01441+99999100981ADDGF103991999999999999999999
0029029810999991904072320004+59500+020350FM-12+002699999V0201801N003119999999N0000001N9+01281+99999100861ADDGF102991999999999999999999
0029029810999991904072406004+59500+020350FM-12+002699999V0209991C000019999999N0000001N9+01561+99999100781ADDGF101991999999999999999999
0029029810999991904072413004+59500+020350FM-12+002699999V0201601N005119999999N0000001N9+01561+99999100841ADDGF101991999999999999999999
0029029810999991904072420004+59500+020350FM-12+002699999V0202001N007219999999N0000001N9+01331+99999100641ADDGF102991999999999999999999
0029029810999991904072506004+59500+020350FM-12+002699999V0202901N002119999999N0000001N9+01221+99999100431ADDGF108991999999999999999999
0029029810999991904072513004+59500+020350FM-12+002699999V0200201N004119999999N0000001N9+01281+99999100501ADDGF101991999999999999999999
0029029810999991904072520004+59500+020350FM-12+002699999V0203201N006219999999N0000001N9+01221+99999100441ADDGF102991999999999999999999
0029029810999991904072606004+59500+020350FM-12+002699999V0203201N008219999999N0000001N9+01281+99999100391ADDGF101991999999999999999999
0029029810999991904072613004+59500+020350FM-12+002699999V0203201N011819999999N0000001N9+01111+99999100511ADDGF102991999999999999999999
0029029810999991904072620004+59500+020350FM-12+002699999V0203201N010819999999N0000001N9+01171+99999100641ADDGF102991999999999999999999
0029029810999991904072706004+59500+020350FM-12+002699999V0203201N005119999999N0000001N9+01331+99999100721ADDGF104991999999999999999999
0029029810999991904072713004+59500+020350FM-12+002699999V0203201N008719999999N0000001N9+01281+99999100801ADDGF102991999999999999999999
0029029810999991904072720004+59500+020350FM-12+002699999V0203201N009819999999N0000001N9+01391+99999100861ADDGF100991999999999999999999
0029029810999991904072806004+59500+020350FM-12+002699999V0200201N006219999999N0000001N9+01281+99999101101ADDGF100991999999999999999999
0029029810999991904072813004+59500+020350FM-12+002699999V0203401N006219999999N0000001N9+01441+99999100961ADDGF100991999999999999999999
0029029810999991904072820004+59500+020350FM-12+002699999V0202701N004119999999N0000001N9+01391+99999101061ADDGF100991999999999999999999
0029029810999991904072906004+59500+020350FM-12+002699999V0201401N006219999999N0000001N9+01391+99999100791ADDGF102991999999999999999999
0029029810999991904072913004+59500+020350FM-12+002699999V0200901N003119999999N0000001N9+01441+99999101301ADDGF102991999999999999999999
0029029810999991904072920004+59500+020350FM-12+002699999V0203601N004119999999N0000001N9+01441+99999101511ADDGF100991999999999999999999
0029029810999991904073006004+59500+020350FM-12+002699999V0200501N003119999999N0000001N9+01441+99999101781ADDGF100991999999999999999999
0029029810999991904073013004+59500+020350FM-12+002699999V0203201N004119999999N0000001N9+01561+99999101861ADDGF100991999999999999999999
0029029810999991904073020004+59500+020350FM-12+002699999V0202301N002119999999N0000001N9+01671+99999101961ADDGF100991999999999999999999
0029029810999991904073106004+59500+020350FM-12+002699999V0202301N002119999999N0000001N9+01781+99999102141ADDGF100991999999999999999999
0029029810999991904073113004+59500+020350FM-12+002699999V0201801N006219999999N0000001N9+01671+99999102181ADDGF100991999999999999999999
0029029810999991904073120004+59500+020350FM-12+002699999V0201801N005119999999N0000001N9+01501+99999101881ADDGF100991999999999999999999
0029029810999991904080106004+59500+020350FM-12+002699999V0201801N005119999999N0000001N9+01781+99999102081ADDGF100991999999999999999999
0029029810999991904080113004+59500+020350FM-12+002699999V0201801N008719999999N0000001N9+01611+99999102041ADDGF100991999999999999999999
0029029810999991904080120004+59500+020350FM-12+002699999V0201801N009819999999N0000001N9+01501+99999101951ADDGF101991999999999999999999
0029029810999991904080206004+59500+020350FM-12+002699999V0202001N008719999999N0000001N9+01781+99999101881ADDGF100991999999999999999999
0029029810999991904080213004+59500+020350FM-12+002699999V0201801N008719999999N0000001N9+01721+99999101881ADDGF100991999999999999999999
0029029810999991904080220004+59500+020350FM-12+002699999V0202001N009819999999N0000001N9+01671+99999101791ADDGF102991999999999999999999
0029029810999991904080306004+59500+020350FM-12+002699999V0202301N002119999999N0000001N9+01831+99999102101ADDGF103991999999999999999999
0029029810999991904080313004+59500+020350FM-12+002699999V0203201N001019999999N0000001N9+01831+99999102061ADDGF102991999999999999999999
0029029810999991904080320004+59500+020350FM-12+002699999V0202301N003119999999N0000001N9+01671+99999101991ADDGF104991999999999999999999
0029029810999991904080406004+59500+020350FM-12+002699999V0202901N005119999999N0000001N9+01721+99999101751ADDGF103991999999999999999999
0029029810999991904080413004+59500+020350FM-12+002699999V0202301N002119999999N0000001N9+01891+99999101681ADDGF100991999999999999999999
0029029810999991904080420004+59500+020350FM-12+002699999V0203201N004119999999N0000001N9+01721+99999101461ADDGF102991999999999999999999
0029029810999991904080506004+59500+020350FM-12+002699999V0203201N003119999999N0000001N9+01611+99999101711ADDGF104991999999999999999999
0029029810999991904080513004+59500+020350FM-12+002699999V0202901N002119999999N0000001N9+01831+99999101641ADDGF100991999999999999999999
0029029810999991904080520004+59500+020350FM-12+002699999V0202301N003119999999N0000001N9+01671+99999101511ADDGF102991999999999999999999
0029029810999991904080606004+59500+020350FM-12+002699999V0201601N009819999999N0000001N9+01831+99999101311ADDGF104991999999999999999999
0029029810999991904080613004+59500+020350FM-12+002699999V0201801N010819999999N0000001N9+01781+99999101141ADDGF105991999999999999999999
0029029810999991904080620004+59500+020350FM-12+002699999V0202001N008219999999N0000001N9+01721+99999100761ADDGF103991999999999999999999
0029029810999991904080706004+59500+020350FM-12+002699999V0202501N010819999999N0000001N9+01671+99999100461ADDGF104991999999999999999999
0029029810999991904080713004+59500+020350FM-12+002699999V0202001N007219999999N0000001N9+01671+99999100551ADDGF106991999999999999999999
0029029810999991904080720004+59500+020350FM-12+002699999V0202001N006219999999N0000001N9+01611+99999100281ADDGF104991999999999999999999
0029029810999991904080806004+59500+020350FM-12+002699999V0200201N009819999999N0000001N9+01331+99999999999ADDGF106991999999999999999999
0029029810999991904080813004+59500+020350FM-12+002699999V0203401N009819999999N0000001N9+01331+99999099921ADDGF106991999999999999999999
0029029810999991904080820004+59500+020350FM-12+002699999V0203401N012919999999N0000001N9+01331+99999100221ADDGF106991999999999999999999
0029029810999991904080906004+59500+020350FM-12+002699999V0203401N009819999999N0000001N9+01331+99999099921ADDGF104991999999999999999999
0029029810999991904080913004+59500+020350FM-12+002699999V0202901N009819999999N0000001N9+01331+99999099981ADDGF102991999999999999999999
0029029810999991904080920004+59500+020350FM-12+002699999V0203601N002119999999N0000001N9+01331+99999099921ADDGF107991999999999999999999
0029029810999991904081006004+59500+020350FM-12+002699999V0203201N004119999999N0000001N9+01331+99999099821ADDGF102991999999999999999999
0029029810999991904081013004+59500+020350FM-12+002699999V0203201N007219999999N0000001N9+01221+99999100021ADDGF105991999999999999999999
0029029810999991904081020004+59500+020350FM-12+002699999V0203201N003119999999N0000001N9+01221+99999100161ADDGF102991999999999999999999
0029029810999991904081106004+59500+020350FM-12+002699999V0202001N002119999999N0000001N9+01561+99999100431ADDGF102991999999999999999999
0029029810999991904081113004+59500+020350FM-12+002699999V0202001N009819999999N0000001N9+01561+99999100661ADDGF102991999999999999999999
0029029810999991904081120004+59500+020350FM-12+002699999V0201801N009819999999N0000001N9+01441+99999100721ADDGF103991999999999999999999
0035029810999991904081206004+59500+020350FM-12+002699999V0202301N008719999999N0000001N9+01391+99999100821ADDGF104991999999999999999999MW1641
0029029810999991904081213004+59500+020350FM-12+002699999V0201801N009819999999N0000001N9+01671+99999100621ADDGF104991999999999999999999
0035029810999991904081220004+59500+020350FM-12+002699999V0201101N018019999999N0000001N9+01281+99999099711ADDGF108991999999999999999999MW1641
0035029810999991904081306004+59500+020350FM-12+002699999V0201801N015919999999N0000001N9+01391+99999099041ADDGF108991999999999999999999MW1641
0009029810999991904081313004+59500+020350FM-12+002699999V0203201N023119999999N0000001N9+01221+99999099581ADDMW1641
0029029810999991904081320004+59500+020350FM-12+002699999V0203201N009819999999N0000001N9+01111+99999100361ADDGF105991999999999999999999
0029029810999991904081406004+59500+020350FM-12+002699999V0203201N013919999999N0000001N9+01111+99999100721ADDGF103991999999999999999999
0029029810999991904081413004+59500+020350FM-12+002699999V0202501N005119999999N0000001N9+01221+99999100751ADDGF102991999999999999999999
0029029810999991904081420004+59500+020350FM-12+002699999V0202501N007219999999N0000001N9+01281+99999100661ADDGF106991999999999999999999
0035029810999991904081506004+59500+020350FM-12+002699999V0201601N008719999999N0000001N9+01281+99999100061ADDGF108991999999999999999999MW1621
0029029810999991904081513004+59500+020350FM-12+002699999V0201601N014919999999N0000001N9+01441+99999099431ADDGF106991999999999999999999
0029029810999991904081520004+59500+020350FM-12+002699999V0202501N003119999999N0000001N9+01331+99999099141ADDGF106991999999999999999999
0029029810999991904081606004+59500+020350FM-12+002699999V0202001N005119999999N0000001N9+01331+99999099101ADDGF104991999999999999999999
0029029810999991904081613004+59500+020350FM-12+002699999V0202001N003119999999N0000001N9+01441+99999099281ADDGF102991999999999999999999
0029029810999991904081620004+59500+020350FM-12+002699999V0202301N005119999999N0000001N9+01331+99999099421ADDGF104991999999999999999999
0029029810999991904081706004+59500+020350FM-12+002699999V0202501N004119999999N0000001N9+01331+99999099321ADDGF106991999999999999999999
0029029810999991904081713004+59500+020350FM-12+002699999V0202501N005119999999N0000001N9+01331+99999099901ADDGF104991999999999999999999
0029029810999991904081720004+59500+020350FM-12+002699999V0203201N008219999999N0000001N9+01281+99999100031ADDGF106991999999999999999999
0029029810999991904081806004+59500+020350FM-12+002699999V0202501N004119999999N0000001N9+01221+99999100261ADDGF106991999999999999999999
0029029810999991904081813004+59500+020350FM-12+002699999V0209991C000019999999N0000001N9+01721+99999100391ADDGF106991999999999999999999
0029029810999991904081820004+59500+020350FM-12+002699999V0201401N006219999999N0000001N9+01281+99999100281ADDGF106991999999999999999999
0035029810999991904081906004+59500+020350FM-12+002699999V0200901N009819999999N0000001N9+01281+99999099721ADDGF108991999999999999999999MW1621
0029029810999991904081913004+59500+020350FM-12+002699999V0203201N007219999999N0000001N9+01221+99999099351ADDGF106991999999999999999999
0035029810999991904081920004+59500+020350FM-12+002699999V0202701N010819999999N0000001N9+01221+99999099471ADDGF108991999999999999999999MW1621
0029029810999991904082006004+59500+020350FM-12+002699999V0202501N018019999999N0000001N9+01221+99999099591ADDGF108991999999999999999999
0029029810999991904082013004+59500+020350FM-12+002699999V0202301N014919999999N0000001N9+01331+99999099621ADDGF106991999999999999999999
0029029810999991904082020004+59500+020350FM-12+002699999V0202301N009819999999N0000001N9+01331+99999099551ADDGF106991999999999999999999
0035029810999991904082106004+59500+020350FM-12+002699999V0202901N014919999999N0000001N9+01221+99999099561ADDGF108991999999999999999999MW1621
0029029810999991904082113004+59500+020350FM-12+002699999V0202301N007219999999N0000001N9+01331+99999999999ADDGF106991999999999999999999
0029029810999991904082120004+59500+020350FM-12+002699999V0202501N005119999999N0000001N9+01221+99999100121ADDGF106991999999999999999999
0029029810999991904082206004+59500+020350FM-12+002699999V0203201N006219999999N0000001N9+01221+99999100311ADDGF105991999999999999999999
0029029810999991904082213004+59500+020350FM-12+002699999V0202701N005119999999N0000001N9+01281+99999100581ADDGF104991999999999999999999
0000029810999991904082220004+59500+020350FM-12+002699999V0209991C000019999999N0000001N9+01221+99999100591
0029029810999991904082306004+59500+020350FM-12+002699999V0209991C000019999999N0000001N9+01441+99999100551ADDGF108991999999999999999999
0029029810999991904082313004+59500+020350FM-12+002699999V0202701N003119999999N0000001N9+01331+99999100631ADDGF108991999999999999999999
0029029810999991904082320004+59500+020350FM-12+002699999V0203201N004119999999N0000001N9+01281+99999100641ADDGF102991999999999999999999
0029029810999991904082406004+59500+020350FM-12+002699999V0203601N006219999999N0000001N9+01171+99999100581ADDGF106991999999999999999999
0029029810999991904082413004+59500+020350FM-12+002699999V0203601N008219999999N0000001N9+01221+99999100541ADDGF103991999999999999999999
0029029810999991904082420004+59500+020350FM-12+002699999V0203601N009819999999N0000001N9+01221+99999100521ADDGF102991999999999999999999
0029029810999991904082506004+59500+020350FM-12+002699999V0203601N014919999999N0000001N9+01171+99999100241ADDGF106991999999999999999999
0029029810999991904082513004+59500+020350FM-12+002699999V0203601N012919999999N0000001N9+01221+99999100241ADDGF106991999999999999999999
0029029810999991904082520004+59500+020350FM-12+002699999V0203201N012919999999N0000001N9+01221+99999100311ADDGF105991999999999999999999
0029029810999991904082606004+59500+020350FM-12+002699999V0203201N012919999999N0000001N9+01111+99999100481ADDGF104991999999999999999999
0029029810999991904082613004+59500+020350FM-12+002699999V0203201N008719999999N0000001N9+01171+99999100751ADDGF102991999999999999999999
0029029810999991904082620004+59500+020350FM-12+002699999V0209991C000019999999N0000001N9+01171+99999100961ADDGF102991999999999999999999
0029029810999991904082706004+59500+020350FM-12+002699999V0202001N002119999999N0000001N9+01561+99999100981ADDGF104991999999999999999999
0029029810999991904082713004+59500+020350FM-12+002699999V0202001N008219999999N0000001N9+01441+99999101081ADDGF105991999999999999999999
0035029810999991904082720004+59500+020350FM-12+002699999V0201601N009819999999N0000001N9+01281+99999101071ADDGF108991999999999999999999MW1621
0029029810999991904082806004+59500+020350FM-12+002699999V0201801N010819999999N0000001N9+01331+99999101111ADDGF108991999999999999999999
0029029810999991904082813004+59500+020350FM-12+002699999V0201801N008219999999N0000001N9+01501+99999101301ADDGF106991999999999999999999
0029029810999991904082820004+59500+020350FM-12+002699999V0202001N004119999999N0000001N9+01391+99999101391ADDGF106991999999999999999999
0029029810999991904082906004+59500+020350FM-12+002699999V0201401N004119999999N0000001N9+01441+99999101261ADDGF108991999999999999999999
0029029810999991904082913004+59500+020350FM-12+002699999V0200501N003119999999N0000001N9+01281+99999101321ADDGF106991999999999999999999
0029029810999991904082920004+59500+020350FM-12+002699999V0200501N003119999999N0000001N9+01221+99999101471ADDGF106991999999999999999999
0029029810999991904083006004+59500+020350FM-12+002699999V0203401N010819999999N0000001N9+01221+99999101271ADDGF104991999999999999999999
0029029810999991904083013004+59500+020350FM-12+002699999V0203201N013919999999N0000001N9+01171+99999101141ADDGF104991999999999999999999
0029029810999991904083020004+59500+020350FM-12+002699999V0203201N010819999999N0000001N9+01171+99999101021ADDGF103991999999999999999999
0029029810999991904083106004+59500+020350FM-12+002699999V0203401N013919999999N0000001N9+01221+99999100791ADDGF102991999999999999999999
0029029810999991904083113004+59500+020350FM-12+002699999V0203601N012919999999N0000001N9+01171+99999100801ADDGF102991999999999999999999
0029029810999991904083120004+59500+020350FM-12+002699999V0203601N011819999999N0000001N9+01061+99999100841ADDGF106991999999999999999999
0029029810999991904090106004+59500+020350FM-12+002699999V0200201N007219999999N0000001N9+01061+99999101141ADDGF106991999999999999999999
0000029810999991904090113004+59500+020350FM-12+002699999V0203601N006219999999N0000001N9+01061+99999101321
0029029810999991904090120004+59500+020350FM-12+002699999V0203601N007219999999N0000001N9+01171+99999101501ADDGF108991999999999999999999
0029029810999991904090206004+59500+020350FM-12+002699999V0203401N006219999999N0000001N9+01171+99999101601ADDGF108991999999999999999999
0029029810999991904090213004+59500+020350FM-12+002699999V0203401N004119999999N0000001N9+01281+99999101621ADDGF106991999999999999999999
0029029810999991904090220004+59500+020350FM-12+002699999V0203601N003119999999N0000001N9+01171+99999101581ADDGF108991999999999999999999
