0029227070999991904010106004+62167+030650FM-12+010299999V0203601N002119999999N0000001N9-00561+99999999999ADDGF100991999999999999999999
0029227070999991904010113004+62167+030650FM-12+010299999V0203601N003119999999N0000001N9-00501+99999999999ADDGF103991999999999999999999
0029227070999991904010120004+62167+030650FM-12+010299999V0200501N002119999999N0000001N9-00781+99999999999ADDGF100991999999999999999999
0029227070999991904010206004+62167+030650FM-12+010299999V0200201N002119999999N0000001N9-00611+99999999999ADDGF106991999999999999999999
0029227070999991904010213004+62167+030650FM-12+010299999V0203601N002119999999N0000001N9-00281+99999999999ADDGF108991999999999999999999
0029227070999991904010220004+62167+030650FM-12+010299999V0203601N002119999999N0000001N9-00501+99999999999ADDGF100991999999999999999999
0029227070999991904010306004+62167+030650FM-12+010299999V0203601N002119999999N0000001N9-00391+99999999999ADDGF107991999999999999999999
0029227070999991904010313004+62167+030650FM-12+010299999V0203201N003119999999N0000001N9-00611+99999999999ADDGF108991999999999999999999
0029227070999991904010320004+62167+030650FM-12+010299999V0203201N003119999999N0000001N9-00721+99999999999ADDGF106991999999999999999999
0029227070999991904010406004+62167+030650FM-12+010299999V0203201N002119999999N0000001N9-00561+99999999999ADDGF108991999999999999999999
0029227070999991904010413004+62167+030650FM-12+010299999V0202701N002119999999N0000001N9-00441+99999999999ADDGF108991999999999999999999
0029227070999991904010420004+62167+030650FM-12+010299999V0202701N001019999999N0000001N9-00331+99999999999ADDGF108991999999999999999999
0029227070999991904010506004+62167+030650FM-12+010299999V0202701N002119999999N0000001N9-00391+99999999999ADDGF108991999999999999999999
0029227070999991904010513004+62167+030650FM-12+010299999V0202701N002119999999N0000001N9-00331+99999999999ADDGF108991999999999999999999
0029227070999991904010520004+62167+030650FM-12+010299999V0202701N002119999999N0000001N9-00441+99999999999ADDGF108991999999999999999999
0029227070999991904010606004+62167+030650FM-12+010299999V0202701N002119999999N0000001N9-00501+99999999999ADDGF108991999999999999999999
0029227070999991904010613004+62167+030650FM-12+010299999V0202301N003119999999N0000001N9-00561+99999999999ADDGF100991999999999999999999
0029227070999991904010620004+62167+030650FM-12+010299999V0202001N002119999999N0000001N9-00611+99999999999ADDGF108991999999999999999999
0029227070999991904010706004+62167+030650FM-12+010299999V0202001N002119999999N0000001N9-00721+99999999999ADDGF108991999999999999999999
0029227070999991904010713004+62167+030650FM-12+010299999V0202301N004119999999N0000001N9-00721+99999999999ADDGF108991999999999999999999
0029227070999991904010720004+62167+030650FM-12+010299999V0202301N002119999999N0000001N9-00831+99999999999ADDGF100991999999999999999999
0029227070999991904010806004+62167+030650FM-12+010299999V0202301N003119999999N0000001N9-00941+99999999999ADDGF108991999999999999999999
0029227070999991904010813004+62167+030650FM-12+010299999V0201801N005119999999N0000001N9-01001+99999999999ADDGF108991999999999999999999
0029227070999991904010820004+62167+030650FM-12+010299999V0201801N006219999999N0000001N9-01001+99999999999ADDGF108991999999999999999999
0029227070999991904010906004+62167+030650FM-12+010299999V0201801N008219999999N0000001N9-00941+99999999999ADDGF108991999999999999999999
0029227070999991904010913004+62167+030650FM-12+010299999V0201801N006219999999N0000001N9-00831+99999999999ADDGF108991999999999999999999
0029227070999991904010920004+62167+030650FM-12+010299999V0201801N009819999999N0000001N9-00941+99999999999ADDGF108991999999999999999999
0029227070999991904011006004+62167+030650FM-12+010299999V0201801N008219999999N0000001N9-00831+99999999999ADDGF108991999999999999999999
0029227070999991904011013004+62167+030650FM-12+010299999V0202301N006219999999N0000001N9-00501+99999999999ADDGF108991999999999999999999
0029227070999991904011020004+62167+030650FM-12+010299999V0202301N004119999999N0000001N9+00111+99999999999ADDGF108991999999999999999999
0029227070999991904011106004+62167+030650FM-12+010299999V0202301N001019999999N0000001N9+00171+99999999999ADDGF107991999999999999999999
0029227070999991904011113004+62167+030650FM-12+010299999V0201801N001019999999N0000001N9+00061+99999999999ADDGF108991999999999999999999
0029227070999991904011120004+62167+030650FM-12+010299999V0201801N003119999999N0000001N9-00221+99999999999ADDGF108991999999999999999999
0029227070999991904011206004+62167+030650FM-12+010299999V0201801N002119999999N0000001N9-00391+99999999999ADDGF108991999999999999999999
0029227070999991904011213004+62167+030650FM-12+010299999V0201401N004119999999N0000001N9-00391+99999999999ADDGF108991999999999999999999
0029227070999991904011220004+62167+030650FM-12+010299999V0201401N005119999999N0000001N9-00671+99999999999ADDGF108991999999999999999999
0029227070999991904011306004+62167+030650FM-12+010299999V0201401N006219999999N0000001N9-00721+99999999999ADDGF108991999999999999999999
0029227070999991904011313004+62167+030650FM-12+010299999V0201101N008219999999N0000001N9-00781+99999999999ADDGF100991999999999999999999
0029227070999991904011320004+62167+030650FM-12+010299999V0201101N002119999999N0000001N9-00781+99999999999ADDGF108991999999999999999999
0029227070999991904011406004+62167+030650FM-12+010299999V0201101N002119999999N0000001N9-00721+99999999999ADDGF108991999999999999999999
0029227070999991904011413004+62167+030650FM-12+010299999V0201101N006219999999N0000001N9-00831+99999999999ADDGF108991999999999999999999
0029227070999991904011420004+62167+030650FM-12+010299999V0200701N006219999999N0000001N9-00941+99999999999ADDGF108991999999999999999999
0029227070999991904011506004+62167+030650FM-12+010299999V0200701N004119999999N0000001N9-01001+99999999999ADDGF108991999999999999999999
0029227070999991904011513004+62167+030650FM-12+010299999V0200701N004119999999N0000001N9-00941+99999999999ADDGF108991999999999999999999
0029227070999991904011520004+62167+030650FM-12+010299999V0200701N004119999999N0000001N9-00941+99999999999ADDGF108991999999999999999999
0029227070999991904011606004+62167+030650FM-12+010299999V0200901N002119999999N0000001N9-00831+99999999999ADDGF108991999999999999999999
0029227070999991904011613004+62167+030650FM-12+010299999V0202301N004119999999N0000001N9-00501+99999999999ADDGF108991999999999999999999
0029227070999991904011620004+62167+030650FM-12+010299999V0202301N002119999999N0000001N9-00391+99999999999ADDGF108991999999999999999999
0029227070999991904011706004+62167+030650FM-12+010299999V0202301N003119999999N0000001N9+00001+99999999999ADDGF108991999999999999999999
0029227070999991904011713004+62167+030650FM-12+010299999V0202301N002119999999N0000001N9+00171+99999999999ADDGF108991999999999999999999
0029227070999991904011720004+62167+030650FM-12+010299999V0202301N001019999999N0000001N9+00001+99999999999ADDGF108991999999999999999999
0029227070999991904011806004+62167+030650FM-12+010299999V0202301N002119999999N0000001N9-00281+99999999999ADDGF108991999999999999999999
0029227070999991904011813004+62167+030650FM-12+010299999V0202001N002119999999N0000001N9-00281+99999999999ADDGF108991999999999999999999
0029227070999991904011820004+62167+030650FM-12+010299999V0202301N002119999999N0000001N9-00501+99999999999ADDGF108991999999999999999999
0029227070999991904011906004+62167+030650FM-12+010299999V0201801N002119999999N0000001N9-00441+99999999999ADDGF108991999999999999999999
0029227070999991904011913004+62167+030650FM-12+010299999V0202301N004119999999N0000001N9-00331+99999999999ADDGF100991999999999999999999
0029227070999991904011920004+62167+030650FM-12+010299999V0202901N001019999999N0000001N9-00501+99999999999ADDGF100991999999999999999999
0029227070999991904012006004+62167+030650FM-12+010299999V0202301N002119999999N0000001N9-00501+99999999999ADDGF108991999999999999999999
0029227070999991904012013004+62167+030650FM-12+010299999V0202301N002119999999N0000001N9-00171+99999999999ADDGF108991999999999999999999
0029227070999991904012020004+62167+030650FM-12+010299999V0202301N002119999999N0000001N9-00221+99999999999ADDGF108991999999999999999999
0029227070999991904012106004+62167+030650FM-12+010299999V0202301N004119999999N0000001N9-00331+99999999999ADDGF108991999999999999999999
0029227070999991904012113004+62167+030650FM-12+010299999V0202301N002119999999N0000001N9-00061+99999999999ADDGF108991999999999999999999
0029227070999991904012120004+62167+030650FM-12+010299999V0203201N002119999999N0000001N9-00061+99999999999ADDGF100991999999999999999999
0029227070999991904012206004+62167+030650FM-12+010299999V0203201N002119999999N0000001N9-00611+99999999999ADDGF108991999999999999999999
0029227070999991904012213004+62167+030650FM-12+010299999V0203201N002119999999N0000001N9-00611+99999999999ADDGF100991999999999999999999
0029227070999991904012220004+62167+030650FM-12+010299999V0203201N003119999999N0000001N9-00831+99999999999ADDGF108991999999999999999999
0029227070999991904012306004+62167+030650FM-12+010299999V0202301N002119999999N0000001N9-00281+99999999999ADDGF108991999999999999999999
0029227070999991904012313004+62167+030650FM-12+010299999V0202301N004119999999N0000001N9+00111+99999999999ADDGF108991999999999999999999
0029227070999991904012320004+62167+030650FM-12+010299999V0202301N015919999999N0000001N9+00171+99999999999ADDGF100991999999999999999999
0029227070999991904012406004+62167+030650FM-12+010299999V0202501N009819999999N0000001N9+00331+99999999999ADDGF103991999999999999999999
0029227070999991904012413004+62167+030650FM-12+010299999V0202701N006219999999N0000001N9+00171+99999999999ADDGF100991999999999999999999
0029227070999991904012420004+62167+030650FM-12+010299999V0202701N002119999999N0000001N9+00001+99999999999ADDGF100991999999999999999999
0029227070999991904012506004+62167+030650FM-12+010299999V0202701N001019999999N0000001N9+00001+99999999999ADDGF101991999999999999999999
0029227070999991904012513004+62167+030650FM-12+010299999V0202701N002119999999N0000001N9+00171+99999999999ADDGF100991999999999999999999
0029227070999991904012520004+62167+030650FM-12+010299999V0202301N002119999999N0000001N9-00501+99999999999ADDGF100991999999999999999999
0029227070999991904012606004+62167+030650FM-12+010299999V0201401N003119999999N0000001N9-00441+99999999999ADDGF101991999999999999999999
0029227070999991904012613004+62167+030650FM-12+010299999V0202301N002119999999N0000001N9-00501+99999999999ADDGF108991999999999999999999
0029227070999991904012620004+62167+030650FM-12+010299999V0202301N002119999999N0000001N9-00281+99999999999ADDGF100991999999999999999999
0029227070999991904012706004+62167+030650FM-12+010299999V0202301N002119999999N0000001N9-00171+99999999999ADDGF100991999999999999999999
0029227070999991904012713004+62167+030650FM-12+010299999V0202301N002119999999N0000001N9-00061+99999999999ADDGF108991999999999999999999
0029227070999991904012720004+62167+030650FM-12+010299999V0202301N002119999999N0000001N9-00221+99999999999ADDGF100991999999999999999999
0029227070999991904012806004+62167+030650FM-12+010299999V0202301N002119999999N0000001N9-00281+99999999999ADDGF100991999999999999999999
0029227070999991904012813004+62167+030650FM-12+010299999V0202301N003119999999N0000001N9+00171+99999999999ADDGF108991999999999999999999
0029227070999991904012820004+62167+030650FM-12+010299999V0202301N003119999999N0000001N9-00221+99999999999ADDGF100991999999999999999999
0029227070999991904012906004+62167+030650FM-12+010299999V0202301N002119999999N0000001N9-00281+99999999999ADDGF100991999999999999999999
0029227070999991904012913004+62167+030650FM-12+010299999V0202301N004119999999N0000001N9-00331+99999999999ADDGF100991999999999999999999
0029227070999991904012920004+62167+030650FM-12+010299999V0202301N006219999999N0000001N9-00441+99999999999ADDGF100991999999999999999999
0029227070999991904013006004+62167+030650FM-12+010299999V0201801N003119999999N0000001N9-00331+99999999999ADDGF100991999999999999999999
0029227070999991904013013004+62167+030650FM-12+010299999V0201801N004119999999N0000001N9-00331+99999999999ADDGF108991999999999999999999
0029227070999991904013020004+62167+030650FM-12+010299999V0200901N001019999999N0000001N9-00331+99999999999ADDGF100991999999999999999999
0029227070999991904013106004+62167+030650FM-12+010299999V0200901N001019999999N0000001N9-00441+99999999999ADDGF100991999999999999999999
0029227070999991904013113004+62167+030650FM-12+010299999V0200901N002119999999N0000001N9-00331+99999999999ADDGF108991999999999999999999
0029227070999991904013120004+62167+030650FM-12+010299999V0200901N001019999999N0000001N9-00671+99999999999ADDGF100991999999999999999999
0029227070999991904020106004+62167+030650FM-12+010299999V0200901N001019999999N0000001N9-00891+99999999999ADDGF107991999999999999999999
0029227070999991904020113004+62167+030650FM-12+010299999V0200901N002119999999N0000001N9-00501+99999999999ADDGF108991999999999999999999
0029227070999991904020120004+62167+030650FM-12+010299999V0203601N003119999999N0000001N9-00561+99999999999ADDGF100991999999999999999999
0029227070999991904020206004+62167+030650FM-12+010299999V0203601N002119999999N0000001N9-00671+99999999999ADDGF108991999999999999999999
0029227070999991904020213004+62167+030650FM-12+010299999V0203601N002119999999N0000001N9-00671+99999999999ADDGF108991999999999999999999
0029227070999991904020220004+62167+030650FM-12+010299999V0203601N002119999999N0000001N9-00721+99999999999ADDGF108991999999999999999999
0029227070999991904020306004+62167+030650FM-12+010299999V0203601N002119999999N0000001N9-00891+99999999999ADDGF108991999999999999999999
0029227070999991904020313004+62167+030650FM-12+010299999V0201401N002119999999N0000001N9-00781+99999999999ADDGF108991999999999999999999
0029227070999991904020320004+62167+030650FM-12+010299999V0201401N002119999999N0000001N9-00781+99999999999ADDGF108991999999999999999999
0029227070999991904020406004+62167+030650FM-12+010299999V0201401N002119999999N0000001N9-00891+99999999999ADDGF108991999999999999999999
0029227070999991904020413004+62167+030650FM-12+010299999V0200501N003119999999N0000001N9-00831+99999999999ADDGF108991999999999999999999
0029227070999991904020420004+62167+030650FM-12+010299999V0200201N002119999999N0000001N9-01001+99999999999ADDGF100991999999999999999999
0029227070999991904020506004+62167+030650FM-12+010299999V0200201N002119999999N0000001N9-01941+99999999999ADDGF100991999999999999999999
0029227070999991904020513004+62167+030650FM-12+010299999V0200501N002119999999N0000001N9-02441+99999999999ADDGF100991999999999999999999
0029227070999991904020520004+62167+030650FM-12+010299999V0200501N003119999999N0000001N9-02831+99999999999ADDGF100991999999999999999999
0029227070999991904020606004+62167+030650FM-12+010299999V0200501N002119999999N0000001N9-02831+99999999999ADDGF100991999999999999999999
0029227070999991904020613004+62167+030650FM-12+010299999V0200501N002119999999N0000001N9-01441+99999999999ADDGF100991999999999999999999
0029227070999991904020620004+62167+030650FM-12+010299999V0200501N002119999999N0000001N9-02111+99999999999ADDGF100991999999999999999999
0029227070999991904020706004+62167+030650FM-12+010299999V0203601N002119999999N0000001N9-01891+99999999999ADDGF100991999999999999999999
0029227070999991904020713004+62167+030650FM-12+010299999V0203601N002119999999N0000001N9-01441+99999999999ADDGF100991999999999999999999
0029227070999991904020720004+62167+030650FM-12+010299999V0200501N006219999999N0000001N9-01561+99999999999ADDGF100991999999999999999999
0029227070999991904020806004+62167+030650FM-12+010299999V0200501N004119999999N0000001N9-01221+99999999999ADDGF108991999999999999999999
0029227070999991904020813004+62167+030650FM-12+010299999V0200501N004119999999N0000001N9-01221+99999999999ADDGF108991999999999999999999
0029227070999991904020820004+62167+030650FM-12+010299999V0200501N002119999999N0000001N9-01331+99999999999ADDGF108991999999999999999999
0029227070999991904020906004+62167+030650FM-12+010299999V0200501N002119999999N0000001N9-01221+99999999999ADDGF108991999999999999999999
0029227070999991904020913004+62167+030650FM-12+010299999V0203601N005119999999N0000001N9-01221+99999999999ADDGF108991999999999999999999
0029227070999991904020920004+62167+030650FM-12+010299999V0200501N002119999999N0000001N9-01501+99999999999ADDGF108991999999999999999999
0029227070999991904021006004+62167+030650FM-12+010299999V0200201N002119999999N0000001N9-02171+99999999999ADDGF100991999999999999999999
0029227070999991904021013004+62167+030650FM-12+010299999V0200201N004119999999N0000001N9-01561+99999999999ADDGF107991999999999999999999
0029227070999991904021020004+62167+030650FM-12+010299999V0200501N002119999999N0000001N9-02171+99999999999ADDGF100991999999999999999999
0029227070999991904021106004+62167+030650FM-12+010299999V0203201N002119999999N0000001N9-02611+99999999999ADDGF107991999999999999999999
0029227070999991904021113004+62167+030650FM-12+010299999V0200501N004119999999N0000001N9-01561+99999999999ADDGF108991999999999999999999
0029227070999991904021120004+62167+030650FM-12+010299999V0200701N004119999999N0000001N9-01671+99999999999ADDGF108991999999999999999999
0029227070999991904021206004+62167+030650FM-12+010299999V0200701N005119999999N0000001N9-01441+99999999999ADDGF108991999999999999999999
0029227070999991904021213004+62167+030650FM-12+010299999V0200701N002119999999N0000001N9-01171+99999999999ADDGF108991999999999999999999
0029227070999991904021220004+62167+030650FM-12+010299999V0200701N003119999999N0000001N9-01061+99999999999ADDGF108991999999999999999999
0029227070999991904021306004+62167+030650FM-12+010299999V0200201N002119999999N0000001N9-01111+99999999999ADDGF108991999999999999999999
0029227070999991904021313004+62167+030650FM-12+010299999V0200201N003119999999N0000001N9-00941+99999999999ADDGF108991999999999999999999
0029227070999991904021320004+62167+030650FM-12+010299999V0200501N002119999999N0000001N9-01061+99999999999ADDGF108991999999999999999999
0029227070999991904021406004+62167+030650FM-12+010299999V0200501N004119999999N0000001N9-01221+99999999999ADDGF108991999999999999999999
0029227070999991904021413004+62167+030650FM-12+010299999V0202301N006219999999N0000001N9-01111+99999999999ADDGF108991999999999999999999
0029227070999991904021420004+62167+030650FM-12+010299999V0202301N003119999999N0000001N9-01501+99999999999ADDGF100991999999999999999999
0029227070999991904021506004+62167+030650FM-12+010299999V0200701N004119999999N0000001N9-01721+99999999999ADDGF108991999999999999999999
0029227070999991904021513004+62167+030650FM-12+010299999V0200501N002119999999N0000001N9-01221+99999999999ADDGF106991999999999999999999
0029227070999991904021520004+62167+030650FM-12+010299999V0200501N004119999999N0000001N9-01501+99999999999ADDGF100991999999999999999999
0029227070999991904021606004+62167+030650FM-12+010299999V0200501N008219999999N0000001N9-01391+99999999999ADDGF108991999999999999999999
0029227070999991904021613004+62167+030650FM-12+010299999V0200501N005119999999N0000001N9-00891+99999999999ADDGF108991999999999999999999
0029227070999991904021620004+62167+030650FM-12+010299999V0203601N006219999999N0000001N9-01001+99999999999ADDGF108991999999999999999999
0029227070999991904021706004+62167+030650FM-12+010299999V0203601N004119999999N0000001N9-01221+99999999999ADDGF102991999999999999999999
0029227070999991904021713004+62167+030650FM-12+010299999V0203601N003119999999N0000001N9-01221+99999999999ADDGF108991999999999999999999
0029227070999991904021720004+62167+030650FM-12+010299999V0203601N002119999999N0000001N9-01001+99999999999ADDGF100991999999999999999999
0029227070999991904021806004+62167+030650FM-12+010299999V0203401N002119999999N0000001N9-01221+99999999999ADDGF108991999999999999999999
0029227070999991904021813004+62167+030650FM-12+010299999V0203201N002119999999N0000001N9-01001+99999999999ADDGF108991999999999999999999
0029227070999991904021820004+62167+030650FM-12+010299999V0201401N004119999999N0000001N9-00891+99999999999ADDGF108991999999999999999999
0029227070999991904021906004+62167+030650FM-12+010299999V0201401N005119999999N0000001N9-00501+99999999999ADDGF108991999999999999999999
0029227070999991904021913004+62167+030650FM-12+010299999V0200901N004119999999N0000001N9+00001+99999999999ADDGF108991999999999999999999
0029227070999991904021920004+62167+030650FM-12+010299999V0201601N001019999999N0000001N9-00111+99999999999ADDGF108991999999999999999999
0029227070999991904022006004+62167+030650FM-12+010299999V0200901N002119999999N0000001N9-00281+99999999999ADDGF108991999999999999999999
0029227070999991904022013004+62167+030650FM-12+010299999V0201401N003119999999N0000001N9-00281+99999999999ADDGF108991999999999999999999
0029227070999991904022020004+62167+030650FM-12+010299999V0201401N002119999999N0000001N9-00441+99999999999ADDGF108991999999999999999999
0029227070999991904022106004+62167+030650FM-12+010299999V0201601N002119999999N0000001N9-00331+99999999999ADDGF108991999999999999999999
0029227070999991904022113004+62167+030650FM-12+010299999V0201601N003119999999N0000001N9-00281+99999999999ADDGF108991999999999999999999
0029227070999991904022120004+62167+030650FM-12+010299999V0201101N002119999999N0000001N9-00721+99999999999ADDGF108991999999999999999999
0029227070999991904022206004+62167+030650FM-12+010299999V0201101N002119999999N0000001N9-00671+99999999999ADDGF107991999999999999999999
0029227070999991904022213004+62167+030650FM-12+010299999V0200501N002119999999N0000001N9-00331+99999999999ADDGF100991999999999999999999
0029227070999991904022220004+62167+030650FM-12+010299999V0203601N002119999999N0000001N9-00671+99999999999ADDGF105991999999999999999999
0029227070999991904022306004+62167+030650FM-12+010299999V0203401N002119999999N0000001N9-00501+99999999999ADDGF108991999999999999999999
0029227070999991904022313004+62167+030650FM-12+010299999V0203601N004119999999N0000001N9-00281+99999999999ADDGF106991999999999999999999
0029227070999991904022320004+62167+030650FM-12+010299999V0203601N006219999999N0000001N9-00441+99999999999ADDGF106991999999999999999999
0029227070999991904022406004+62167+030650FM-12+010299999V0200501N004119999999N0000001N9-00611+99999999999ADDGF108991999999999999999999
0029227070999991904022413004+62167+030650FM-12+010299999V0203601N008219999999N0000001N9-00441+99999999999ADDGF106991999999999999999999
0029227070999991904022420004+62167+030650FM-12+010299999V0200201N004119999999N0000001N9-00891+99999999999ADDGF107991999999999999999999
0029227070999991904022506004+62167+030650FM-12+010299999V0200201N003119999999N0000001N9-01391+99999999999ADDGF100991999999999999999999
0029227070999991904022513004+62167+030650FM-12+010299999V0200201N002119999999N0000001N9-01331+99999999999ADDGF100991999999999999999999
0029227070999991904022520004+62167+030650FM-12+010299999V0203601N002119999999N0000001N9-01671+99999999999ADDGF100991999999999999999999
0029227070999991904022606004+62167+030650FM-12+010299999V0200501N002119999999N0000001N9-02001+99999999999ADDGF101991999999999999999999
0029227070999991904022613004+62167+030650FM-12+010299999V0200501N001019999999N0000001N9-00671+99999999999ADDGF102991999999999999999999
0029227070999991904022620004+62167+030650FM-12+010299999V0200501N002119999999N0000001N9-01221+99999999999ADDGF100991999999999999999999
0029227070999991904022706004+62167+030650FM-12+010299999V0200201N001019999999N0000001N9-01831+99999999999ADDGF102991999999999999999999
0029227070999991904022713004+62167+030650FM-12+010299999V0200201N002119999999N0000001N9-00441+99999999999ADDGF103991999999999999999999
0029227070999991904022720004+62167+030650FM-12+010299999V0200201N002119999999N0000001N9-01001+99999999999ADDGF100991999999999999999999
0029227070999991904022806004+62167+030650FM-12+010299999V0200201N001019999999N0000001N9-02061+99999999999ADDGF106991999999999999999999
0029227070999991904022813004+62167+030650FM-12+010299999V0201401N002119999999N0000001N9-01001+99999999999ADDGF103991999999999999999999
0029227070999991904022820004+62167+030650FM-12+010299999V0201401N001019999999N0000001N9-02171+99999999999ADDGF100991999999999999999999
0029227070999991904022906004+62167+030650FM-12+010299999V0209991C000019999999N0000001N9-02781+99999999999ADDGF100991999999999999999999
0029227070999991904022913004+62167+030650FM-12+010299999V0200701N002119999999N0000001N9-00941+99999999999ADDGF108991999999999999999999
0029227070999991904022920004+62167+030650FM-12+010299999V0201401N003119999999N0000001N9-01001+99999999999ADDGF108991999999999999999999
0029227070999991904030106004+62167+030650FM-12+010299999V0201401N005119999999N0000001N9-00501+99999999999ADDGF108991999999999999999999
0029227070999991904030113004+62167+030650FM-12+010299999V0201401N002119999999N0000001N9-00441+99999999999ADDGF108991999999999999999999
0029227070999991904030120004+62167+030650FM-12+010299999V0201401N001019999999N0000001N9-00561+99999999999ADDGF108991999999999999999999
0029227070999991904030206004+62167+030650FM-12+010299999V0201601N003119999999N0000001N9-00561+99999999999ADDGF108991999999999999999999
0029227070999991904030213004+62167+030650FM-12+010299999V0201101N004119999999N0000001N9-00441+99999999999ADDGF108991999999999999999999
0029227070999991904030220004+62167+030650FM-12+010299999V0201101N005119999999N0000001N9-00501+99999999999ADDGF108991999999999999999999
0029227070999991904030306004+62167+030650FM-12+010299999V0201101N002119999999N0000001N9-01111+99999999999ADDGF106991999999999999999999
0029227070999991904030313004+62167+030650FM-12+010299999V0201401N003119999999N0000001N9-00331+99999999999ADDGF102991999999999999999999
0029227070999991904030320004+62167+030650FM-12+010299999V0201401N002119999999N0000001N9-01171+99999999999ADDGF100991999999999999999999
0029227070999991904030406004+62167+030650FM-12+010299999V0201401N002119999999N0000001N9-01391+99999999999ADDGF100991999999999999999999
0029227070999991904030413004+62167+030650FM-12+010299999V0201401N003119999999N0000001N9-00111+99999999999ADDGF100991999999999999999999
0029227070999991904030420004+62167+030650FM-12+010299999V0201401N002119999999N0000001N9-01221+99999999999ADDGF100991999999999999999999
0029227070999991904030506004+62167+030650FM-12+010299999V0200701N002119999999N0000001N9-01331+99999999999ADDGF106991999999999999999999
0029227070999991904030513004+62167+030650FM-12+010299999V0201401N001019999999N0000001N9-00281+99999999999ADDGF100991999999999999999999
0029227070999991904030520004+62167+030650FM-12+010299999V0201401N002119999999N0000001N9-00561+99999999999ADDGF100991999999999999999999
0029227070999991904030606004+62167+030650FM-12+010299999V0201401N003119999999N0000001N9-01501+99999999999ADDGF106991999999999999999999
0029227070999991904030613004+62167+030650FM-12+010299999V0201401N003119999999N0000001N9-00061+99999999999ADDGF108991999999999999999999
0029227070999991904030620004+62167+030650FM-12+010299999V0203601N002119999999N0000001N9-01671+99999999999ADDGF100991999999999999999999
0029227070999991904030706004+62167+030650FM-12+010299999V0203601N004119999999N0000001N9-01831+99999999999ADDGF100991999999999999999999
0029227070999991904030713004+62167+030650FM-12+010299999V0201101N009819999999N0000001N9-00611+99999999999ADDGF108991999999999999999999
0029227070999991904030720004+62167+030650FM-12+010299999V0201101N015919999999N0000001N9-01831+99999999999ADDGF108991999999999999999999
0029227070999991904030806004+62167+030650FM-12+010299999V0201801N006219999999N0000001N9-00891+99999999999ADDGF108991999999999999999999
0029227070999991904030813004+62167+030650FM-12+010299999V0202301N008219999999N0000001N9-00671+99999999999ADDGF108991999999999999999999
0029227070999991904030820004+62167+030650FM-12+010299999V0202301N004119999999N0000001N9-00941+99999999999ADDGF100991999999999999999999
0029227070999991904030906004+62167+030650FM-12+010299999V0202301N003119999999N0000001N9-00891+99999999999ADDGF107991999999999999999999
0029227070999991904030913004+62167+030650FM-12+010299999V0201801N002119999999N0000001N9-00221+99999999999ADDGF101991999999999999999999
0029227070999991904030920004+62167+030650FM-12+010299999V0201801N002119999999N0000001N9-01501+99999999999ADDGF100991999999999999999999
0029227070999991904031006004+62167+030650FM-12+010299999V0202301N002119999999N0000001N9-02171+99999999999ADDGF100991999999999999999999
0029227070999991904031013004+62167+030650FM-12+010299999V0201101N002119999999N0000001N9-01561+99999999999ADDGF108991999999999999999999
0029227070999991904031020004+62167+030650FM-12+010299999V0202301N002119999999N0000001N9-01561+99999999999ADDGF108991999999999999999999
0029227070999991904031106004+62167+030650FM-12+010299999V0201401N004119999999N0000001N9-02171+99999999999ADDGF100991999999999999999999
0029227070999991904031113004+62167+030650FM-12+010299999V0201401N003119999999N0000001N9-01281+99999999999ADDGF108991999999999999999999
0029227070999991904031120004+62167+030650FM-12+010299999V0201401N002119999999N0000001N9-00561+99999999999ADDGF108991999999999999999999
0029227070999991904031206004+62167+030650FM-12+010299999V0201401N004119999999N0000001N9-00721+99999999999ADDGF108991999999999999999999
0029227070999991904031213004+62167+030650FM-12+010299999V0201801N002119999999N0000001N9-00441+99999999999ADDGF108991999999999999999999
0029227070999991904031220004+62167+030650FM-12+010299999V0201801N002119999999N0000001N9-00441+99999999999ADDGF100991999999999999999999
0029227070999991904031306004+62167+030650FM-12+010299999V0202301N002119999999N0000001N9-00781+99999999999ADDGF101991999999999999999999
0029227070999991904031313004+62167+030650FM-12+010299999V0202301N006219999999N0000001N9-00331+99999999999ADDGF108991999999999999999999
0029227070999991904031320004+62167+030650FM-12+010299999V0202301N006219999999N0000001N9-00061+99999999999ADDGF100991999999999999999999
0029227070999991904031406004+62167+030650FM-12+010299999V0201801N004119999999N0000001N9-00061+99999999999ADDGF108991999999999999999999
0029227070999991904031413004+62167+030650FM-12+010299999V0201801N002119999999N0000001N9+00061+99999999999ADDGF108991999999999999999999
0029227070999991904031420004+62167+030650FM-12+010299999V0201801N004119999999N0000001N9+00001+99999999999ADDGF108991999999999999999999
0029227070999991904031506004+62167+030650FM-12+010299999V0201801N004119999999N0000001N9-00061+99999999999ADDGF108991999999999999999999
0029227070999991904031513004+62167+030650FM-12+010299999V0201801N004119999999N0000001N9+00061+99999999999ADDGF108991999999999999999999
0029227070999991904031520004+62167+030650FM-12+010299999V0201801N002119999999N0000001N9+00001+99999999999ADDGF108991999999999999999999
0029227070999991904031606004+62167+030650FM-12+010299999V0203201N002119999999N0000001N9-00831+99999999999ADDGF108991999999999999999999
0029227070999991904031613004+62167+030650FM-12+010299999V0203201N002119999999N0000001N9-00441+99999999999ADDGF100991999999999999999999
0029227070999991904031620004+62167+030650FM-12+010299999V0203201N002119999999N0000001N9-01221+99999999999ADDGF100991999999999999999999
0029227070999991904031706004+62167+030650FM-12+010299999V0203201N002119999999N0000001N9-01831+99999999999ADDGF101991999999999999999999
0029227070999991904031713004+62167+030650FM-12+010299999V0200901N002119999999N0000001N9-00281+99999999999ADDGF102991999999999999999999
0029227070999991904031720004+62167+030650FM-12+010299999V0200901N002119999999N0000001N9-00501+99999999999ADDGF100991999999999999999999
0029227070999991904031806004+62167+030650FM-12+010299999V0202001N001019999999N0000001N9-00501+99999999999ADDGF102991999999999999999999
0029227070999991904031813004+62167+030650FM-12+010299999V0202001N002119999999N0000001N9+00111+99999999999ADDGF102991999999999999999999
0029227070999991904031820004+62167+030650FM-12+010299999V0202001N002119999999N0000001N9-00781+99999999999ADDGF100991999999999999999999
0029227070999991904031906004+62167+030650FM-12+010299999V0201101N001019999999N0000001N9-01061+99999999999ADDGF100991999999999999999999
0029227070999991904031913004+62167+030650FM-12+010299999V0200901N002119999999N0000001N9-00331+99999999999ADDGF103991999999999999999999
0029227070999991904031920004+62167+030650FM-12+010299999V0201401N002119999999N0000001N9-00941+99999999999ADDGF100991999999999999999999
0029227070999991904032006004+62167+030650FM-12+010299999V0200901N001019999999N0000001N9-01111+99999999999ADDGF100991999999999999999999
0029227070999991904032013004+62167+030650FM-12+010299999V0201801N004119999999N0000001N9+00001+99999999999ADDGF105991999999999999999999
0029227070999991904032020004+62167+030650FM-12+010299999V0201801N002119999999N0000001N9-00391+99999999999ADDGF100991999999999999999999
0029227070999991904032106004+62167+030650FM-12+010299999V0201801N004119999999N0000001N9-00221+99999999999ADDGF107991999999999999999999
0029227070999991904032113004+62167+030650FM-12+010299999V0201801N002119999999N0000001N9+00281+99999999999ADDGF102991999999999999999999
0029227070999991904032120004+62167+030650FM-12+010299999V0201401N002119999999N0000001N9-00221+99999999999ADDGF108991999999999999999999
0029227070999991904032206004+62167+030650FM-12+010299999V0201401N002119999999N0000001N9-00721+99999999999ADDGF101991999999999999999999
0029227070999991904032213004+62167+030650FM-12+010299999V0201401N002119999999N0000001N9-00111+99999999999ADDGF102991999999999999999999
0029227070999991904032220004+62167+030650FM-12+010299999V0201601N002119999999N0000001N9-00281+99999999999ADDGF100991999999999999999999
0029227070999991904032306004+62167+030650FM-12+010299999V0201601N002119999999N0000001N9-00221+99999999999ADDGF106991999999999999999999
0029227070999991904032313004+62167+030650FM-12+010299999V0201601N002119999999N0000001N9+00221+99999999999ADDGF108991999999999999999999
0029227070999991904032320004+62167+030650FM-12+010299999V0201601N001019999999N0000001N9-00061+99999999999ADDGF100991999999999999999999
0029227070999991904032406004+62167+030650FM-12+010299999V0201601N001019999999N0000001N9-00111+99999999999ADDGF108991999999999999999999
0029227070999991904032413004+62167+030650FM-12+010299999V0200501N002119999999N0000001N9+00501+99999999999ADDGF108991999999999999999999
0029227070999991904032420004+62167+030650FM-12+010299999V0200501N002119999999N0000001N9-00391+99999999999ADDGF100991999999999999999999
0029227070999991904032506004+62167+030650FM-12+010299999V0200501N002119999999N0000001N9-01001+99999999999ADDGF100991999999999999999999
0029227070999991904032513004+62167+030650FM-12+010299999V0202301N003119999999N0000001N9+00611+99999999999ADDGF100991999999999999999999
0029227070999991904032520004+62167+030650FM-12+010299999V0202301N002119999999N0000001N9-00281+99999999999ADDGF100991999999999999999999
0029227070999991904032606004+62167+030650FM-12+010299999V0202301N001019999999N0000001N9-01061+99999999999ADDGF100991999999999999999999
0029227070999991904032613004+62167+030650FM-12+010299999V0202701N001019999999N0000001N9+00611+99999999999ADDGF100991999999999999999999
0029227070999991904032620004+62167+030650FM-12+010299999V0202301N002119999999N0000001N9-00221+99999999999ADDGF100991999999999999999999
0029227070999991904032706004+62167+030650FM-12+010299999V0202301N002119999999N0000001N9-00891+99999999999ADDGF100991999999999999999999
0029227070999991904032713004+62167+030650FM-12+010299999V0203601N004119999999N0000001N9+00611+99999999999ADDGF100991999999999999999999
0000227070999991904032720004+62167+030650FM-12+010299999V0200501N009819999999N0000001N9-00391+99999999999
0029227070999991904032806004+62167+030650FM-12+010299999V0200501N005119999999N0000001N9-00831+99999999999ADDGF100991999999999999999999
0029227070999991904032813004+62167+030650FM-12+010299999V0202301N003119999999N0000001N9+00171+99999999999ADDGF101991999999999999999999
0029227070999991904032820004+62167+030650FM-12+010299999V0200901N003119999999N0000001N9-00501+99999999999ADDGF100991999999999999999999
0029227070999991904032906004+62167+030650FM-12+010299999V0201401N008219999999N0000001N9-01061+99999999999ADDGF100991999999999999999999
0029227070999991904032913004+62167+030650FM-12+010299999V0201101N015919999999N0000001N9-00331+99999999999ADDGF100991999999999999999999
0029227070999991904032920004+62167+030650FM-12+010299999V0201101N003119999999N0000001N9-01001+99999999999ADDGF100991999999999999999999
0029227070999991904033006004+62167+030650FM-12+010299999V0201101N006219999999N0000001N9-01281+99999999999ADDGF100991999999999999999999
0029227070999991904033013004+62167+030650FM-12+010299999V0201101N006219999999N0000001N9-00331+99999999999ADDGF101991999999999999999999
0029227070999991904033020004+62167+030650FM-12+010299999V0201401N002119999999N0000001N9-00941+99999999999ADDGF100991999999999999999999
0029227070999991904033106004+62167+030650FM-12+010299999V0201401N002119999999N0000001N9-00441+99999999999ADDGF100991999999999999999999
0029227070999991904033113004+62167+030650FM-12+010299999V0201401N002119999999N0000001N9-00281+99999999999ADDGF100991999999999999999999
0029227070999991904033120004+62167+030650FM-12+010299999V0201401N003119999999N0000001N9-00781+99999999999ADDGF100991999999999999999999
0029227070999991904040106004+62167+030650FM-12+010299999V0201401N002119999999N0000001N9-01441+99999999999ADDGF101991999999999999999999
0029227070999991904040113004+62167+030650FM-12+010299999V0203201N002119999999N0000001N9+00331+99999999999ADDGF101991999999999999999999
0029227070999991904040120004+62167+030650FM-12+010299999V0203601N002119999999N0000001N9-00671+99999999999ADDGF100991999999999999999999
0029227070999991904040206004+62167+030650FM-12+010299999V0209991C000019999999N0000001N9-01331+99999999999ADDGF100991999999999999999999
0029227070999991904040213004+62167+030650FM-12+010299999V0201401N002119999999N0000001N9+00561+99999999999ADDGF100991999999999999999999
0029227070999991904040220004+62167+030650FM-12+010299999V0201401N004119999999N0000001N9-01001+99999999999ADDGF100991999999999999999999
0029227070999991904040306004+62167+030650FM-12+010299999V0201401N001019999999N0000001N9-01281+99999999999ADDGF100991999999999999999999
0029227070999991904040313004+62167+030650FM-12+010299999V0201801N002119999999N0000001N9+00331+99999999999ADDGF100991999999999999999999
0029227070999991904040320004+62167+030650FM-12+010299999V0201401N002119999999N0000001N9-00501+99999999999ADDGF100991999999999999999999
0029227070999991904040406004+62167+030650FM-12+010299999V0201401N001019999999N0000001N9-00671+99999999999ADDGF100991999999999999999999
0029227070999991904040413004+62167+030650FM-12+010299999V0201401N007219999999N0000001N9+00221+99999999999ADDGF100991999999999999999999
0029227070999991904040420004+62167+030650FM-12+010299999V0201401N004119999999N0000001N9-00171+99999999999ADDGF100991999999999999999999
0029227070999991904040506004+62167+030650FM-12+010299999V0201101N009819999999N0000001N9-00111+99999999999ADDGF108991999999999999999999
0029227070999991904040513004+62167+030650FM-12+010299999V0201401N008219999999N0000001N9+00441+99999999999ADDGF108991999999999999999999
0029227070999991904040520004+62167+030650FM-12+010299999V0201401N015919999999N0000001N9+00171+99999999999ADDGF108991999999999999999999
0029227070999991904040606004+62167+030650FM-12+010299999V0201401N008219999999N0000001N9+00001+99999999999ADDGF108991999999999999999999
0029227070999991904040613004+62167+030650FM-12+010299999V0201401N003119999999N0000001N9+00171+99999999999ADDGF108991999999999999999999
0029227070999991904040620004+62167+030650FM-12+010299999V0201401N009819999999N0000001N9+00061+99999999999ADDGF108991999999999999999999
0029227070999991904040706004+62167+030650FM-12+010299999V0201401N009819999999N0000001N9+00061+99999999999ADDGF108991999999999999999999
0029227070999991904040713004+62167+030650FM-12+010299999V0200901N020119999999N0000001N9+00111+99999999999ADDGF108991999999999999999999
0029227070999991904040720004+62167+030650FM-12+010299999V0200901N020119999999N0000001N9+00061+99999999999ADDGF108991999999999999999999
0029227070999991904040806004+62167+030650FM-12+010299999V0201601N003119999999N0000001N9+00111+99999999999ADDGF108991999999999999999999
0029227070999991904040813004+62167+030650FM-12+010299999V0201101N009819999999N0000001N9+00171+99999999999ADDGF108991999999999999999999
0029227070999991904040820004+62167+030650FM-12+010299999V0201101N020119999999N0000001N9+00331+99999999999ADDGF108991999999999999999999
0029227070999991904040906004+62167+030650FM-12+010299999V0201101N006219999999N0000001N9+00171+99999999999ADDGF108991999999999999999999
0029227070999991904040913004+62167+030650FM-12+010299999V0201101N006219999999N0000001N9+00171+99999999999ADDGF108991999999999999999999
0029227070999991904040920004+62167+030650FM-12+010299999V0201401N009819999999N0000001N9+00111+99999999999ADDGF108991999999999999999999
0029227070999991904041006004+62167+030650FM-12+010299999V0201101N004119999999N0000001N9+00111+99999999999ADDGF108991999999999999999999
0029227070999991904041013004+62167+030650FM-12+010299999V0201101N004119999999N0000001N9+00221+99999999999ADDGF108991999999999999999999
0029227070999991904041020004+62167+030650FM-12+010299999V0201401N006219999999N0000001N9+00171+99999999999ADDGF108991999999999999999999
0029227070999991904041106004+62167+030650FM-12+010299999V0201401N006219999999N0000001N9+00061+99999999999ADDGF108991999999999999999999
0029227070999991904041113004+62167+030650FM-12+010299999V0200501N002119999999N0000001N9+00331+99999999999ADDGF108991999999999999999999
0029227070999991904041120004+62167+030650FM-12+010299999V0201401N002119999999N0000001N9+00061+99999999999ADDGF108991999999999999999999
0029227070999991904041206004+62167+030650FM-12+010299999V0201401N003119999999N0000001N9+00111+99999999999ADDGF108991999999999999999999
0029227070999991904041213004+62167+030650FM-12+010299999V0201801N004119999999N0000001N9+00391+99999999999ADDGF108991999999999999999999
0029227070999991904041220004+62167+030650FM-12+010299999V0202301N003119999999N0000001N9+00171+99999999999ADDGF108991999999999999999999
0029227070999991904041306004+62167+030650FM-12+010299999V0202301N002119999999N0000001N9-00061+99999999999ADDGF108991999999999999999999
0029227070999991904041313004+62167+030650FM-12+010299999V0202301N002119999999N0000001N9+00501+99999999999ADDGF106991999999999999999999
0029227070999991904041320004+62167+030650FM-12+010299999V0202301N002119999999N0000001N9+00001+99999999999ADDGF106991999999999999999999
0029227070999991904041406004+62167+030650FM-12+010299999V0202301N002119999999N0000001N9-00331+99999999999ADDGF102991999999999999999999
0029227070999991904041413004+62167+030650FM-12+010299999V0203201N005119999999N0000001N9+00171+99999999999ADDGF102991999999999999999999
0029227070999991904041420004+62167+030650FM-12+010299999V0203601N005119999999N0000001N9-00221+99999999999ADDGF100991999999999999999999
0029227070999991904041506004+62167+030650FM-12+010299999V0203601N002119999999N0000001N9-00441+99999999999ADDGF100991999999999999999999
0029227070999991904041513004+62167+030650FM-12+010299999V0203601N001019999999N0000001N9+00331+99999999999ADDGF100991999999999999999999
0029227070999991904041520004+62167+030650FM-12+010299999V0203201N002119999999N0000001N9-00391+99999999999ADDGF108991999999999999999999
0029227070999991904041606004+62167+030650FM-12+010299999V0201801N004119999999N0000001N9-00221+99999999999ADDGF108991999999999999999999
0029227070999991904041613004+62167+030650FM-12+010299999V0201801N004119999999N0000001N9+00391+99999999999ADDGF108991999999999999999999
0029227070999991904041620004+62167+030650FM-12+010299999V0201801N002119999999N0000001N9-00331+99999999999ADDGF108991999999999999999999
0029227070999991904041706004+62167+030650FM-12+010299999V0201801N004119999999N0000001N9+00221+99999999999ADDGF103991999999999999999999
0029227070999991904041713004+62167+030650FM-12+010299999V0201101N006219999999N0000001N9+00391+99999999999ADDGF107991999999999999999999
0029227070999991904041720004+62167+030650FM-12+010299999V0201401N006219999999N0000001N9+00331+99999999999ADDGF108991999999999999999999
0029227070999991904041806004+62167+030650FM-12+010299999V0201401N002119999999N0000001N9+00331+99999999999ADDGF103991999999999999999999
0029227070999991904041813004+62167+030650FM-12+010299999V0201401N004119999999N0000001N9+00891+99999999999ADDGF106991999999999999999999
0029227070999991904041820004+62167+030650FM-12+010299999V0201401N002119999999N0000001N9+00391+99999999999ADDGF100991999999999999999999
0029227070999991904041906004+62167+030650FM-12+010299999V0201601N001019999999N0000001N9+00331+99999999999ADDGF100991999999999999999999
0029227070999991904041913004+62167+030650FM-12+010299999V0201601N002119999999N0000001N9+01171+99999999999ADDGF100991999999999999999999
0029227070999991904041920004+62167+030650FM-12+010299999V0201601N002119999999N0000001N9+00331+99999999999ADDGF100991999999999999999999
0029227070999991904042006004+62167+030650FM-12+010299999V0201401N002119999999N0000001N9+00391+99999999999ADDGF100991999999999999999999
0029227070999991904042013004+62167+030650FM-12+010299999V0201801N002119999999N0000001N9+01501+99999999999ADDGF100991999999999999999999
0029227070999991904042020004+62167+030650FM-12+010299999V0201601N002119999999N0000001N9+00391+99999999999ADDGF100991999999999999999999
0029227070999991904042106004+62167+030650FM-12+010299999V0201601N001019999999N0000001N9+00561+99999999999ADDGF100991999999999999999999
0029227070999991904042113004+62167+030650FM-12+010299999V0201401N001019999999N0000001N9+01171+99999999999ADDGF103991999999999999999999
0029227070999991904042120004+62167+030650FM-12+010299999V0201101N004119999999N0000001N9+00781+99999999999ADDGF107991999999999999999999
0029227070999991904042206004+62167+030650FM-12+010299999V0201101N005119999999N0000001N9+00611+99999999999ADDGF107991999999999999999999
0029227070999991904042213004+62167+030650FM-12+010299999V0201101N008219999999N0000001N9+00501+99999999999ADDGF108991999999999999999999
0029227070999991904042220004+62167+030650FM-12+010299999V0201801N006219999999N0000001N9+00391+99999999999ADDGF108991999999999999999999
0029227070999991904042306004+62167+030650FM-12+010299999V0201801N004119999999N0000001N9+00171+99999999999ADDGF107991999999999999999999
0029227070999991904042313004+62167+030650FM-12+010299999V0201401N002119999999N0000001N9+00611+99999999999ADDGF105991999999999999999999
0029227070999991904042320004+62167+030650FM-12+010299999V0201401N003119999999N0000001N9+00391+99999999999ADDGF100991999999999999999999
0029227070999991904042406004+62167+030650FM-12+010299999V0200901N002119999999N0000001N9+00561+99999999999ADDGF108991999999999999999999
0029227070999991904042413004+62167+030650FM-12+010299999V0200901N002119999999N0000001N9+00671+99999999999ADDGF108991999999999999999999
0029227070999991904042420004+62167+030650FM-12+010299999V0201601N002119999999N0000001N9+00501+99999999999ADDGF108991999999999999999999
0029227070999991904042506004+62167+030650FM-12+010299999V0201801N002119999999N0000001N9+00441+99999999999ADDGF108991999999999999999999
0029227070999991904042513004+62167+030650FM-12+010299999V0201101N002119999999N0000001N9+00941+99999999999ADDGF103991999999999999999999
0029227070999991904042520004+62167+030650FM-12+010299999V0201401N004119999999N0000001N9+00501+99999999999ADDGF101991999999999999999999
0029227070999991904042606004+62167+030650FM-12+010299999V0201401N006219999999N0000001N9+00501+99999999999ADDGF103991999999999999999999
0029227070999991904042613004+62167+030650FM-12+010299999V0201801N006219999999N0000001N9+00941+99999999999ADDGF100991999999999999999999
0029227070999991904042620004+62167+030650FM-12+010299999V0201801N008219999999N0000001N9+00441+99999999999ADDGF103991999999999999999999
0029227070999991904042706004+62167+030650FM-12+010299999V0201601N002119999999N0000001N9+00441+99999999999ADDGF100991999999999999999999
0029227070999991904042713004+62167+030650FM-12+010299999V0201801N006219999999N0000001N9+00501+99999999999ADDGF107991999999999999999999
0029227070999991904042720004+62167+030650FM-12+010299999V0201601N004119999999N0000001N9+00501+99999999999ADDGF108991999999999999999999
0029227070999991904042806004+62167+030650FM-12+010299999V0201101N002119999999N0000001N9+00441+99999999999ADDGF108991999999999999999999
0029227070999991904042813004+62167+030650FM-12+010299999V0201401N004119999999N0000001N9+01061+99999999999ADDGF108991999999999999999999
0029227070999991904042820004+62167+030650FM-12+010299999V0201101N004119999999N0000001N9+00611+99999999999ADDGF108991999999999999999999
0029227070999991904042906004+62167+030650FM-12+010299999V0202301N002119999999N0000001N9+00281+99999999999ADDGF107991999999999999999999
0029227070999991904042913004+62167+030650FM-12+010299999V0203201N003119999999N0000001N9+00501+99999999999ADDGF108991999999999999999999
0029227070999991904042920004+62167+030650FM-12+010299999V0202301N004119999999N0000001N9+00331+99999999999ADDGF100991999999999999999999
0029227070999991904043006004+62167+030650FM-12+010299999V0202301N004119999999N0000001N9+00221+99999999999ADDGF108991999999999999999999
0029227070999991904043013004+62167+030650FM-12+010299999V0201801N003119999999N0000001N9+00331+99999999999ADDGF108991999999999999999999
0029227070999991904043020004+62167+030650FM-12+010299999V0202301N002119999999N0000001N9+00061+99999999999ADDGF108991999999999999999999
0029227070999991904050106004+62167+030650FM-12+010299999V0202301N004119999999N0000001N9+00111+99999999999ADDGF108991999999999999999999
0029227070999991904050113004+62167+030650FM-12+010299999V0202301N004119999999N0000001N9+00281+99999999999ADDGF108991999999999999999999
0029227070999991904050120004+62167+030650FM-12+010299999V0203201N002119999999N0000001N9+00171+99999999999ADDGF100991999999999999999999
0029227070999991904050206004+62167+030650FM-12+010299999V0201601N001019999999N0000001N9+00281+99999999999ADDGF100991999999999999999999
0029227070999991904050213004+62167+030650FM-12+010299999V0201601N004119999999N0000001N9+00501+99999999999ADDGF108991999999999999999999
0029227070999991904050220004+62167+030650FM-12+010299999V0200901N004119999999N0000001N9+00331+99999999999ADDGF100991999999999999999999
0029227070999991904050306004+62167+030650FM-12+010299999V0200901N005119999999N0000001N9+00721+99999999999ADDGF108991999999999999999999
0029227070999991904050313004+62167+030650FM-12+010299999V0200901N004119999999N0000001N9+00501+99999999999ADDGF108991999999999999999999
0029227070999991904050320004+62167+030650FM-12+010299999V0201801N003119999999N0000001N9+00721+99999999999ADDGF108991999999999999999999
0029227070999991904050406004+62167+030650FM-12+010299999V0201601N003119999999N0000001N9+00441+99999999999ADDGF108991999999999999999999
0029227070999991904050413004+62167+030650FM-12+010299999V0201401N002119999999N0000001N9+00721+99999999999ADDGF108991999999999999999999
0029227070999991904050420004+62167+030650FM-12+010299999V0202301N004119999999N0000001N9+00501+99999999999ADDGF107991999999999999999999
0029227070999991904050506004+62167+030650FM-12+010299999V0202301N003119999999N0000001N9+00331+99999999999ADDGF107991999999999999999999
0029227070999991904050513004+62167+030650FM-12+010299999V0202001N004119999999N0000001N9+00611+99999999999ADDGF107991999999999999999999
0029227070999991904050520004+62167+030650FM-12+010299999V0201401N004119999999N0000001N9+00331+99999999999ADDGF108991999999999999999999
0029227070999991904050606004+62167+030650FM-12+010299999V0200501N004119999999N0000001N9+00391+99999999999ADDGF108991999999999999999999
0029227070999991904050613004+62167+030650FM-12+010299999V0200501N004119999999N0000001N9+00501+99999999999ADDGF108991999999999999999999
0029227070999991904050620004+62167+030650FM-12+010299999V0200501N004119999999N0000001N9+00221+99999999999ADDGF108991999999999999999999
0029227070999991904050706004+62167+030650FM-12+010299999V0200501N015919999999N0000001N9-00171+99999999999ADDGF108991999999999999999999
0029227070999991904050713004+62167+030650FM-12+010299999V0203601N015919999999N0000001N9+00001+99999999999ADDGF108991999999999999999999
0029227070999991904050720004+62167+030650FM-12+010299999V0203601N006219999999N0000001N9-00061+99999999999ADDGF100991999999999999999999
0029227070999991904050806004+62167+030650FM-12+010299999V0203601N004119999999N0000001N9+00001+99999999999ADDGF106991999999999999999999
0029227070999991904050813004+62167+030650FM-12+010299999V0203201N002119999999N0000001N9+00561+99999999999ADDGF101991999999999999999999
0029227070999991904050820004+62167+030650FM-12+010299999V0200501N002119999999N0000001N9+00171+99999999999ADDGF100991999999999999999999
0029227070999991904050906004+62167+030650FM-12+010299999V0200501N004119999999N0000001N9+00171+99999999999ADDGF103991999999999999999999
0029227070999991904050913004+62167+030650FM-12+010299999V0200501N004119999999N0000001N9+00501+99999999999ADDGF107991999999999999999999
0029227070999991904050920004+62167+030650FM-12+010299999V0200901N005119999999N0000001N9+00721+99999999999ADDGF108991999999999999999999
0029227070999991904051006004+62167+030650FM-12+010299999V0202001N004119999999N0000001N9+00391+99999999999ADDGF108991999999999999999999
0029227070999991904051013004+62167+030650FM-12+010299999V0202001N004119999999N0000001N9+00501+99999999999ADDGF108991999999999999999999
0029227070999991904051020004+62167+030650FM-12+010299999V0203601N002119999999N0000001N9+00501+99999999999ADDGF108991999999999999999999
0029227070999991904051106004+62167+030650FM-12+010299999V0203601N003119999999N0000001N9+00441+99999999999ADDGF108991999999999999999999
0029227070999991904051113004+62167+030650FM-12+010299999V0203601N002119999999N0000001N9+00441+99999999999ADDGF108991999999999999999999
0029227070999991904051120004+62167+030650FM-12+010299999V0203201N001019999999N0000001N9+00391+99999999999ADDGF108991999999999999999999
0029227070999991904051206004+62167+030650FM-12+010299999V0202701N004119999999N0000001N9+00221+99999999999ADDGF108991999999999999999999
0029227070999991904051213004+62167+030650FM-12+010299999V0202701N011819999999N0000001N9+00671+99999999999ADDGF107991999999999999999999
0029227070999991904051220004+62167+030650FM-12+010299999V0202701N002119999999N0000001N9+00331+99999999999ADDGF103991999999999999999999
0029227070999991904051306004+62167+030650FM-12+010299999V0202701N002119999999N0000001N9+00501+99999999999ADDGF106991999999999999999999
0029227070999991904051313004+62167+030650FM-12+010299999V0202701N004119999999N0000001N9+00941+99999999999ADDGF106991999999999999999999
0029227070999991904051320004+62167+030650FM-12+010299999V0202001N002119999999N0000001N9+00501+99999999999ADDGF100991999999999999999999
0029227070999991904051406004+62167+030650FM-12+010299999V0202001N001019999999N0000001N9+00671+99999999999ADDGF103991999999999999999999
0029227070999991904051413004+62167+030650FM-12+010299999V0202001N002119999999N0000001N9+01441+99999999999ADDGF102991999999999999999999
0029227070999991904051420004+62167+030650FM-12+010299999V0201401N001019999999N0000001N9+00781+99999999999ADDGF108991999999999999999999
0029227070999991904051506004+62167+030650FM-12+010299999V0201401N002119999999N0000001N9+00781+99999999999ADDGF107991999999999999999999
0029227070999991904051513004+62167+030650FM-12+010299999V0201801N004119999999N0000001N9+01501+99999999999ADDGF102991999999999999999999
0029227070999991904051520004+62167+030650FM-12+010299999V0201401N003119999999N0000001N9+00721+99999999999ADDGF102991999999999999999999
0029227070999991904051606004+62167+030650FM-12+010299999V0201401N002119999999N0000001N9+00781+99999999999ADDGF108991999999999999999999
0029227070999991904051613004+62167+030650FM-12+010299999V0201401N004119999999N0000001N9+01281+99999999999ADDGF104991999999999999999999
0029227070999991904051620004+62167+030650FM-12+010299999V0202301N002119999999N0000001N9+00671+99999999999ADDGF108991999999999999999999
0029227070999991904051706004+62167+030650FM-12+010299999V0202301N002119999999N0000001N9+00781+99999999999ADDGF105991999999999999999999
0029227070999991904051713004+62167+030650FM-12+010299999V0203201N002119999999N0000001N9+00781+99999999999ADDGF102991999999999999999999
0029227070999991904051720004+62167+030650FM-12+010299999V0203201N002119999999N0000001N9+00721+99999999999ADDGF108991999999999999999999
0029227070999991904051806004+62167+030650FM-12+010299999V0202301N002119999999N0000001N9+00721+99999999999ADDGF103991999999999999999999
0029227070999991904051813004+62167+030650FM-12+010299999V0202301N004119999999N0000001N9+01331+99999999999ADDGF106991999999999999999999
0029227070999991904051820004+62167+030650FM-12+010299999V0202701N002119999999N0000001N9+00831+99999999999ADDGF103991999999999999999999
0029227070999991904051906004+62167+030650FM-12+010299999V0201401N004119999999N0000001N9+00671+99999999999ADDGF108991999999999999999999
0029227070999991904051913004+62167+030650FM-12+010299999V0202701N002119999999N0000001N9+01391+99999999999ADDGF106991999999999999999999
0029227070999991904051920004+62167+030650FM-12+010299999V0202301N002119999999N0000001N9+00781+99999999999ADDGF108991999999999999999999
0029227070999991904052006004+62167+030650FM-12+010299999V0209991C000019999999N0000001N9+01001+99999999999ADDGF100991999999999999999999
0029227070999991904052013004+62167+030650FM-12+010299999V0202301N002119999999N0000001N9+00941+99999999999ADDGF108991999999999999999999
0029227070999991904052020004+62167+030650FM-12+010299999V0203201N004119999999N0000001N9+00781+99999999999ADDGF107991999999999999999999
0029227070999991904052106004+62167+030650FM-12+010299999V0203201N004119999999N0000001N9+00501+99999999999ADDGF108991999999999999999999
0029227070999991904052113004+62167+030650FM-12+010299999V0203201N004119999999N0000001N9+00441+99999999999ADDGF108991999999999999999999
0029227070999991904052120004+62167+030650FM-12+010299999V0203601N008219999999N0000001N9+00221+99999999999ADDGF108991999999999999999999
0029227070999991904052206004+62167+030650FM-12+010299999V0203401N008219999999N0000001N9+00171+99999999999ADDGF108991999999999999999999
0029227070999991904052213004+62167+030650FM-12+010299999V0200901N020119999999N0000001N9+00171+99999999999ADDGF108991999999999999999999
0029227070999991904052220004+62167+030650FM-12+010299999V0200501N020119999999N0000001N9+00331+99999999999ADDGF108991999999999999999999
0029227070999991904052306004+62167+030650FM-12+010299999V0203601N020119999999N0000001N9+00061+99999999999ADDGF108991999999999999999999
0029227070999991904052313004+62167+030650FM-12+010299999V0203601N020119999999N0000001N9+00441+99999999999ADDGF108991999999999999999999
0029227070999991904052320004+62167+030650FM-12+010299999V0203601N020119999999N0000001N9+00221+99999999999ADDGF108991999999999999999999
0029227070999991904052406004+62167+030650FM-12+010299999V0203601N015919999999N0000001N9+00221+99999999999ADDGF108991999999999999999999
0029227070999991904052413004+62167+030650FM-12+010299999V0203601N006219999999N0000001N9+00441+99999999999ADDGF103991999999999999999999
0029227070999991904052420004+62167+030650FM-12+010299999V0203601N004119999999N0000001N9+00221+99999999999ADDGF107991999999999999999999
0029227070999991904052506004+62167+030650FM-12+010299999V0203401N002119999999N0000001N9+00441+99999999999ADDGF106991999999999999999999
0029227070999991904052513004+62167+030650FM-12+010299999V0203401N002119999999N0000001N9+01001+99999999999ADDGF106991999999999999999999
0029227070999991904052520004+62167+030650FM-12+010299999V0203401N002119999999N0000001N9+00781+99999999999ADDGF106991999999999999999999
0029227070999991904052606004+62167+030650FM-12+010299999V0203401N001019999999N0000001N9+01001+99999999999ADDGF102991999999999999999999
0029227070999991904052613004+62167+030650FM-12+010299999V0203401N002119999999N0000001N9+01501+99999999999ADDGF105991999999999999999999
0029227070999991904052620004+62167+030650FM-12+010299999V0203401N001019999999N0000001N9+00721+99999999999ADDGF100991999999999999999999
0029227070999991904052706004+62167+030650FM-12+010299999V0209991C000019999999N0000001N9+01061+99999999999ADDGF100991999999999999999999
0029227070999991904052713004+62167+030650FM-12+010299999V0203401N004119999999N0000001N9+01391+99999999999ADDGF107991999999999999999999
0029227070999991904052720004+62167+030650FM-12+010299999V0209991C000019999999N0000001N9+01111+99999999999ADDGF105991999999999999999999
0029227070999991904052806004+62167+030650FM-12+010299999V0202301N002119999999N0000001N9+01061+99999999999ADDGF108991999999999999999999
0029227070999991904052813004+62167+030650FM-12+010299999V0201801N002119999999N0000001N9+00941+99999999999ADDGF108991999999999999999999
0029227070999991904052820004+62167+030650FM-12+010299999V0201401N002119999999N0000001N9+00721+99999999999ADDGF108991999999999999999999
0029227070999991904052906004+62167+030650FM-12+010299999V0203601N006219999999N0000001N9+00831+99999999999ADDGF106991999999999999999999
0029227070999991904052913004+62167+030650FM-12+010299999V0203601N006219999999N0000001N9+01171+99999999999ADDGF103991999999999999999999
0029227070999991904052920004+62167+030650FM-12+010299999V0203601N004119999999N0000001N9+01001+99999999999ADDGF103991999999999999999999
0029227070999991904053006004+62167+030650FM-12+010299999V0203601N004119999999N0000001N9+00611+99999999999ADDGF105991999999999999999999
0029227070999991904053013004+62167+030650FM-12+010299999V0200201N009819999999N0000001N9+01001+99999999999ADDGF104991999999999999999999
0029227070999991904053020004+62167+030650FM-12+010299999V0200201N003119999999N0000001N9+00501+99999999999ADDGF108991999999999999999999
0029227070999991904053106004+62167+030650FM-12+010299999V0201801N006219999999N0000001N9+00671+99999999999ADDGF108991999999999999999999
0029227070999991904053113004+62167+030650FM-12+010299999V0201101N004119999999N0000001N9+00611+99999999999ADDGF108991999999999999999999
0029227070999991904053120004+62167+030650FM-12+010299999V0200201N004119999999N0000001N9+00501+99999999999ADDGF108991999999999999999999
0029227070999991904060106004+62167+030650FM-12+010299999V0201601N004119999999N0000001N9+00611+99999100201ADDGF108991999999999999999999
0029227070999991904060113004+62167+030650FM-12+010299999V0203601N004119999999N0000001N9+01441+99999999999ADDGF105991999999999999999999
0029227070999991904060120004+62167+030650FM-12+010299999V0200501N002119999999N0000001N9+00941+99999100151ADDGF101991999999999999999999
0029227070999991904060206004+62167+030650FM-12+010299999V0200501N002119999999N0000001N9+01171+99999100231ADDGF106991999999999999999999
0029227070999991904060213004+62167+030650FM-12+010299999V0203601N001019999999N0000001N9+01441+99999100151ADDGF106991999999999999999999
0029227070999991904060220004+62167+030650FM-12+010299999V0209991C000019999999N0000001N9+00941+99999100341ADDGF102991999999999999999999
0029227070999991904060306004+62167+030650FM-12+010299999V0200201N002119999999N0000001N9+01221+99999100151ADDGF106991999999999999999999
0029227070999991904060313004+62167+030650FM-12+010299999V0203201N001019999999N0000001N9+01721+99999100061ADDGF106991999999999999999999
0029227070999991904060320004+62167+030650FM-12+010299999V0209991C000019999999N0000001N9+01171+99999099801ADDGF106991999999999999999999
0029227070999991904060406004+62167+030650FM-12+010299999V0200201N006219999999N0000001N9+00611+99999099671ADDGF108991999999999999999999
0029227070999991904060413004+62167+030650FM-12+010299999V0203601N009819999999N0000001N9+00611+99999099781ADDGF105991999999999999999999
0029227070999991904060420004+62167+030650FM-12+010299999V0203201N009819999999N0000001N9+00671+99999099781ADDGF103991999999999999999999
0029227070999991904060506004+62167+030650FM-12+010299999V0203201N020119999999N0000001N9+00441+99999099861ADDGF106991999999999999999999
0029227070999991904060513004+62167+030650FM-12+010299999V0203601N020119999999N0000001N9+00831+99999099781ADDGF107991999999999999999999
0029227070999991904060520004+62167+030650FM-12+010299999V0203201N009819999999N0000001N9+00671+99999099991ADDGF106991999999999999999999
0029227070999991904060606004+62167+030650FM-12+010299999V0203401N009819999999N0000001N9+00721+99999099311ADDGF102991999999999999999999
0029227070999991904060613004+62167+030650FM-12+010299999V0200201N008219999999N0000001N9+00941+99999099081ADDGF107991999999999999999999
0029227070999991904060620004+62167+030650FM-12+010299999V0203601N006219999999N0000001N9+00501+99999099241ADDGF108991999999999999999999
0029227070999991904060706004+62167+030650FM-12+010299999V0203601N002119999999N0000001N9+00281+99999099061ADDGF108991999999999999999999
0029227070999991904060713004+62167+030650FM-12+010299999V0200201N004119999999N0000001N9+01061+99999099541ADDGF107991999999999999999999
0029227070999991904060720004+62167+030650FM-12+010299999V0203601N006219999999N0000001N9+00891+99999099201ADDGF102991999999999999999999
0029227070999991904060806004+62167+030650FM-12+010299999V0203201N006219999999N0000001N9+01171+99999099511ADDGF103991999999999999999999
0029227070999991904060813004+62167+030650FM-12+010299999V0200501N008219999999N0000001N9+01441+99999099781ADDGF106991999999999999999999
0029227070999991904060820004+62167+030650FM-12+010299999V0200501N004119999999N0000001N9+00781+99999100161ADDGF107991999999999999999999
0029227070999991904060906004+62167+030650FM-12+010299999V0203401N006219999999N0000001N9+00721+99999100161ADDGF107991999999999999999999
0029227070999991904060913004+62167+030650FM-12+010299999V0200501N006219999999N0000001N9+01391+99999100121ADDGF102991999999999999999999
0029227070999991904060920004+62167+030650FM-12+010299999V0200201N004119999999N0000001N9+01001+99999100071ADDGF101991999999999999999999
0029227070999991904061006004+62167+030650FM-12+010299999V0200501N001019999999N0000001N9+01001+99999100201ADDGF100991999999999999999999
0029227070999991904061013004+62167+030650FM-12+010299999V0200501N006219999999N0000001N9+01441+99999099861ADDGF102991999999999999999999
0029227070999991904061020004+62167+030650FM-12+010299999V0200501N004119999999N0000001N9+00941+99999099831ADDGF101991999999999999999999
0029227070999991904061106004+62167+030650FM-12+010299999V0202901N004119999999N0000001N9+00941+99999099511ADDGF101991999999999999999999
0029227070999991904061113004+62167+030650FM-12+010299999V0202701N008219999999N0000001N9+01671+99999099351ADDGF102991999999999999999999
0029227070999991904061120004+62167+030650FM-12+010299999V0202901N001019999999N0000001N9+01171+99999099181ADDGF102991999999999999999999
0029227070999991904061206004+62167+030650FM-12+010299999V0200201N001019999999N0000001N9+00941+99999099271ADDGF107991999999999999999999
0029227070999991904061213004+62167+030650FM-12+010299999V0200201N001019999999N0000001N9+01671+99999099341ADDGF106991999999999999999999
0029227070999991904061220004+62167+030650FM-12+010299999V0203401N002119999999N0000001N9+01331+99999099621ADDGF106991999999999999999999
0029227070999991904061306004+62167+030650FM-12+010299999V0202901N001019999999N0000001N9+01221+99999099841ADDGF105991999999999999999999
0029227070999991904061313004+62167+030650FM-12+010299999V0202901N009819999999N0000001N9+01391+99999099941ADDGF106991999999999999999999
0029227070999991904061320004+62167+030650FM-12+010299999V0202501N001019999999N0000001N9+00831+99999099961ADDGF101991999999999999999999
0029227070999991904061406004+62167+030650FM-12+010299999V0202901N004119999999N0000001N9+00941+99999100391ADDGF103991999999999999999999
0029227070999991904061413004+62167+030650FM-12+010299999V0203201N006219999999N0000001N9+01111+99999100511ADDGF105991999999999999999999
0029227070999991904061420004+62167+030650FM-12+010299999V0203201N001019999999N0000001N9+00781+99999100861ADDGF101991999999999999999999
0029227070999991904061506004+62167+030650FM-12+010299999V0203601N004119999999N0000001N9+00941+99999101121ADDGF101991999999999999999999
0029227070999991904061513004+62167+030650FM-12+010299999V0203201N002119999999N0000001N9+01221+99999101181ADDGF103991999999999999999999
0029227070999991904061520004+62167+030650FM-12+010299999V0202901N001019999999N0000001N9+01171+99999100961ADDGF101991999999999999999999
0029227070999991904061606004+62167+030650FM-12+010299999V0203601N001019999999N0000001N9+01281+99999101101ADDGF107991999999999999999999
0029227070999991904061613004+62167+030650FM-12+010299999V0201801N001019999999N0000001N9+02171+99999100781ADDGF101991999999999999999999
0029227070999991904061620004+62167+030650FM-12+010299999V0201601N002119999999N0000001N9+01281+99999100361ADDGF101991999999999999999999
0029227070999991904061706004+62167+030650FM-12+010299999V0201401N002119999999N0000001N9+01281+99999099671ADDGF107991999999999999999999
0029227070999991904061713004+62167+030650FM-12+010299999V0201101N004119999999N0000001N9+01501+99999099111ADDGF106991999999999999999999
0029227070999991904061720004+62167+030650FM-12+010299999V0202901N002119999999N0000001N9+01441+99999099021ADDGF102991999999999999999999
0029227070999991904061806004+62167+030650FM-12+010299999V0201801N004119999999N0000001N9+01281+99999098751ADDGF106991999999999999999999
0029227070999991904061813004+62167+030650FM-12+010299999V0202701N004119999999N0000001N9+01781+99999098831ADDGF105991999999999999999999
0029227070999991904061820004+62167+030650FM-12+010299999V0202901N002119999999N0000001N9+01281+99999098941ADDGF107991999999999999999999
0029227070999991904061906004+62167+030650FM-12+010299999V0202901N001019999999N0000001N9+01331+99999098671ADDGF105991999999999999999999
0029227070999991904061913004+62167+030650FM-12+010299999V0202301N008219999999N0000001N9+01611+99999098501ADDGF105991999999999999999999
0029227070999991904061920004+62167+030650FM-12+010299999V0202901N002119999999N0000001N9+01331+99999098541ADDGF101991999999999999999999
0029227070999991904062006004+62167+030650FM-12+010299999V0202501N006219999999N0000001N9+01281+99999099141ADDGF107991999999999999999999
0029227070999991904062013004+62167+030650FM-12+010299999V0202501N006219999999N0000001N9+01721+99999099461ADDGF106991999999999999999999
0029227070999991904062020004+62167+030650FM-12+010299999V0202301N002119999999N0000001N9+01391+99999099481ADDGF106991999999999999999999
0029227070999991904062106004+62167+030650FM-12+010299999V0201801N002119999999N0000001N9+01061+99999099781ADDGF108991999999999999999999
0029227070999991904062113004+62167+030650FM-12+010299999V0202301N002119999999N0000001N9+01331+99999099951ADDGF104991999999999999999999
0029227070999991904062120004+62167+030650FM-12+010299999V0201801N001019999999N0000001N9+01281+99999100151ADDGF102991999999999999999999
0029227070999991904062206004+62167+030650FM-12+010299999V0201101N002119999999N0000001N9+01331+99999100321ADDGF103991999999999999999999
0029227070999991904062213004+62167+030650FM-12+010299999V0201801N008219999999N0000001N9+01831+99999100121ADDGF103991999999999999999999
0029227070999991904062220004+62167+030650FM-12+010299999V0202501N004119999999N0000001N9+01281+99999099911ADDGF108991999999999999999999
0029227070999991904062306004+62167+030650FM-12+010299999V0202501N002119999999N0000001N9+01171+99999099641ADDGF108991999999999999999999
0029227070999991904062313004+62167+030650FM-12+010299999V0201801N006219999999N0000001N9+01671+99999099701ADDGF103991999999999999999999
0029227070999991904062320004+62167+030650FM-12+010299999V0201401N001019999999N0000001N9+01221+99999099841ADDGF102991999999999999999999
0029227070999991904062406004+62167+030650FM-12+010299999V0201801N004119999999N0000001N9+01331+99999099441ADDGF106991999999999999999999
0029227070999991904062413004+62167+030650FM-12+010299999V0201601N002119999999N0000001N9+01331+99999099231ADDGF108991999999999999999999
0029227070999991904062420004+62167+030650FM-12+010299999V0201101N006219999999N0000001N9+00941+99999099341ADDGF103991999999999999999999
0029227070999991904062506004+62167+030650FM-12+010299999V0201101N006219999999N0000001N9+01221+99999099541ADDGF107991999999999999999999
0029227070999991904062513004+62167+030650FM-12+010299999V0201801N002119999999N0000001N9+01721+99999099741ADDGF102991999999999999999999
0029227070999991904062520004+62167+030650FM-12+010299999V0201401N001019999999N0000001N9+01221+99999099951ADDGF100991999999999999999999
0029227070999991904062606004+62167+030650FM-12+010299999V0200701N001019999999N0000001N9+01391+99999100241ADDGF102991999999999999999999
0029227070999991904062613004+62167+030650FM-12+010299999V0200901N004119999999N0000001N9+02221+99999099871ADDGF105991999999999999999999
0029227070999991904062620004+62167+030650FM-12+010299999V0200901N004119999999N0000001N9+01721+99999099301ADDGF107991999999999999999999
0029227070999991904062706004+62167+030650FM-12+010299999V0200901N002119999999N0000001N9+01111+99999099231ADDGF107991999999999999999999
0029227070999991904062713004+62167+030650FM-12+010299999V0200901N002119999999N0000001N9+01501+99999099321ADDGF105991999999999999999999
0029227070999991904062720004+62167+030650FM-12+010299999V0200901N001019999999N0000001N9+01331+99999099351ADDGF102991999999999999999999
0029227070999991904062806004+62167+030650FM-12+010299999V0201101N002119999999N0000001N9+01221+99999099741ADDGF107991999999999999999999
0029227070999991904062813004+62167+030650FM-12+010299999V0200901N004119999999N0000001N9+01611+99999099951ADDGF105991999999999999999999
0029227070999991904062820004+62167+030650FM-12+010299999V0200901N001019999999N0000001N9+01171+99999100101ADDGF104991999999999999999999
0029227070999991904062906004+62167+030650FM-12+010299999V0202301N001019999999N0000001N9+01221+99999100341ADDGF106991999999999999999999
0029227070999991904062913004+62167+030650FM-12+010299999V0209991C000019999999N0000001N9+01781+99999100341ADDGF106991999999999999999999
0029227070999991904062920004+62167+030650FM-12+010299999V0200701N001019999999N0000001N9+01501+99999100241ADDGF103991999999999999999999
0029227070999991904063006004+62167+030650FM-12+010299999V0203601N001019999999N0000001N9+01391+99999099521ADDGF108991999999999999999999
0029227070999991904063013004+62167+030650FM-12+010299999V0200201N013919999999N0000001N9+01561+99999099121ADDGF106991999999999999999999
0029227070999991904063020004+62167+030650FM-12+010299999V0200701N002119999999N0000001N9+01501+99999099161ADDGF106991999999999999999999
0029227070999991904070106004+62167+030650FM-12+010299999V0200901N004119999999N0000001N9+01441+99999099301ADDGF107991999999999999999999
0029227070999991904070113004+62167+030650FM-12+010299999V0201101N004119999999N0000001N9+01501+99999099621ADDGF107991999999999999999999
0029227070999991904070120004+62167+030650FM-12+010299999V0209991C000019999999N0000001N9+01391+99999099921ADDGF104991999999999999999999
0029227070999991904070206004+62167+030650FM-12+010299999V0209991C000019999999N0000001N9+01331+99999100021ADDGF106991999999999999999999
0029227070999991904070213004+62167+030650FM-12+010299999V0209991C000019999999N0000001N9+02001+99999099941ADDGF106991999999999999999999
0029227070999991904070220004+62167+030650FM-12+010299999V0201101N001019999999N0000001N9+01561+99999099951ADDGF105991999999999999999999
0029227070999991904070306004+62167+030650FM-12+010299999V0200901N001019999999N0000001N9+01331+99999099961ADDGF107991999999999999999999
0029227070999991904070313004+62167+030650FM-12+010299999V0209991C000019999999N0000001N9+01611+99999099861ADDGF103991999999999999999999
0029227070999991904070320004+62167+030650FM-12+010299999V0209991C000019999999N0000001N9+01391+99999099871ADDGF104991999999999999999999
0029227070999991904070406004+62167+030650FM-12+010299999V0201601N001019999999N0000001N9+01441+99999099951ADDGF106991999999999999999999
0029227070999991904070413004+62167+030650FM-12+010299999V0202701N004119999999N0000001N9+02001+99999099991ADDGF104991999999999999999999
0029227070999991904070420004+62167+030650FM-12+010299999V0209991C000019999999N0000001N9+01611+99999100121ADDGF101991999999999999999999
0029227070999991904070506004+62167+030650FM-12+010299999V0201401N001019999999N0000001N9+01501+99999100191ADDGF103991999999999999999999
0029227070999991904070513004+62167+030650FM-12+010299999V0201801N004119999999N0000001N9+01941+99999100021ADDGF105991999999999999999999
0029227070999991904070520004+62167+030650FM-12+010299999V0201401N002119999999N0000001N9+01781+99999099991ADDGF103991999999999999999999
0029227070999991904070606004+62167+030650FM-12+010299999V0200701N002119999999N0000001N9+01331+99999099761ADDGF105991999999999999999999
0029227070999991904070613004+62167+030650FM-12+010299999V0200901N002119999999N0000001N9+01281+99999099961ADDGF107991999999999999999999
0029227070999991904070620004+62167+030650FM-12+010299999V0201801N002119999999N0000001N9+01391+99999100151ADDGF102991999999999999999999
0029227070999991904070706004+62167+030650FM-12+010299999V0202501N004119999999N0000001N9+01441+99999100181ADDGF106991999999999999999999
0029227070999991904070713004+62167+030650FM-12+010299999V0202501N002119999999N0000001N9+01561+99999100311ADDGF106991999999999999999999
0029227070999991904070720004+62167+030650FM-12+010299999V0202001N002119999999N0000001N9+01561+99999100041ADDGF106991999999999999999999
0029227070999991904070806004+62167+030650FM-12+010299999V0201801N004119999999N0000001N9+01281+99999099781ADDGF107991999999999999999999
0029227070999991904070813004+62167+030650FM-12+010299999V0202501N004119999999N0000001N9+01561+99999099351ADDGF106991999999999999999999
0029227070999991904070820004+62167+030650FM-12+010299999V0202501N004119999999N0000001N9+01281+99999099361ADDGF106991999999999999999999
0029227070999991904070906004+62167+030650FM-12+010299999V0202501N006219999999N0000001N9+01281+99999099201ADDGF106991999999999999999999
0029227070999991904070913004+62167+030650FM-12+010299999V0202701N002119999999N0000001N9+01441+99999098961ADDGF107991999999999999999999
0029227070999991904070920004+62167+030650FM-12+010299999V0202701N002119999999N0000001N9+01221+99999098781ADDGF107991999999999999999999
0029227070999991904071006004+62167+030650FM-12+010299999V0201601N002119999999N0000001N9+01171+99999098521ADDGF106991999999999999999999
0029227070999991904071013004+62167+030650FM-12+010299999V0201601N001019999999N0000001N9+01221+99999098751ADDGF106991999999999999999999
0029227070999991904071020004+62167+030650FM-12+010299999V0200201N002119999999N0000001N9+01331+99999098921ADDGF105991999999999999999999
0029227070999991904071106004+62167+030650FM-12+010299999V0200701N002119999999N0000001N9+01111+99999099071ADDGF106991999999999999999999
0029227070999991904071113004+62167+030650FM-12+010299999V0200501N001019999999N0000001N9+01331+99999099301ADDGF106991999999999999999999
0029227070999991904071120004+62167+030650FM-12+010299999V0200201N002119999999N0000001N9+00891+99999099601ADDGF107991999999999999999999
0029227070999991904071206004+62167+030650FM-12+010299999V0203601N004119999999N0000001N9+00941+99999099831ADDGF106991999999999999999999
0029227070999991904071213004+62167+030650FM-12+010299999V0203601N004119999999N0000001N9+01501+99999100141ADDGF103991999999999999999999
0029227070999991904071220004+62167+030650FM-12+010299999V0203601N001019999999N0000001N9+01221+99999100231ADDGF103991999999999999999999
0029227070999991904071306004+62167+030650FM-12+010299999V0203601N001019999999N0000001N9+01331+99999100631ADDGF104991999999999999999999
0029227070999991904071313004+62167+030650FM-12+010299999V0203201N002119999999N0000001N9+01721+99999100721ADDGF103991999999999999999999
0029227070999991904071320004+62167+030650FM-12+010299999V0202901N004119999999N0000001N9+01331+99999100601ADDGF106991999999999999999999
0029227070999991904071406004+62167+030650FM-12+010299999V0202901N001019999999N0000001N9+01561+99999100641ADDGF106991999999999999999999
0029227070999991904071413004+62167+030650FM-12+010299999V0203601N020119999999N0000001N9+02441+99999100401ADDGF103991999999999999999999
0029227070999991904071420004+62167+030650FM-12+010299999V0200501N002119999999N0000001N9+02001+99999100351ADDGF104991999999999999999999
0029227070999991904071506004+62167+030650FM-12+010299999V0209991C000019999999N0000001N9+01721+99999100591ADDGF103991999999999999999999
0029227070999991904071513004+62167+030650FM-12+010299999V0200501N018019999999N0000001N9+02281+99999100621ADDGF102991999999999999999999
0029227070999991904071520004+62167+030650FM-12+010299999V0203601N004119999999N0000001N9+01781+99999100631ADDGF108991999999999999999999
0029227070999991904071606004+62167+030650FM-12+010299999V0203601N001019999999N0000001N9+01721+99999100661ADDGF102991999999999999999999
0029227070999991904071613004+62167+030650FM-12+010299999V0200501N009819999999N0000001N9+01941+99999100321ADDGF106991999999999999999999
0029227070999991904071620004+62167+030650FM-12+010299999V0203601N001019999999N0000001N9+01721+99999099861ADDGF104991999999999999999999
0029227070999991904071706004+62167+030650FM-12+010299999V0202901N009819999999N0000001N9+01831+99999098821ADDGF103991999999999999999999
0029227070999991904071713004+62167+030650FM-12+010299999V0201601N020119999999N0000001N9+01781+99999099181ADDGF102991999999999999999999
0029227070999991904071720004+62167+030650FM-12+010299999V0202701N002119999999N0000001N9+01441+99999099421ADDGF102991999999999999999999
0029227070999991904071806004+62167+030650FM-12+010299999V0202701N009819999999N0000001N9+00941+99999099681ADDGF103991999999999999999999
0029227070999991904071813004+62167+030650FM-12+010299999V0202701N006219999999N0000001N9+01111+99999099551ADDGF106991999999999999999999
0029227070999991904071820004+62167+030650FM-12+010299999V0203401N001019999999N0000001N9+00891+99999099301ADDGF103991999999999999999999
0029227070999991904071906004+62167+030650FM-12+010299999V0200201N002119999999N0000001N9+01001+99999099071ADDGF106991999999999999999999
0029227070999991904071913004+62167+030650FM-12+010299999V0200201N004119999999N0000001N9+01221+99999099471ADDGF103991999999999999999999
0029227070999991904071920004+62167+030650FM-12+010299999V0203601N001019999999N0000001N9+01061+99999099281ADDGF107991999999999999999999
0029227070999991904072006004+62167+030650FM-12+010299999V0203601N004119999999N0000001N9+00941+99999099151ADDGF105991999999999999999999
0029227070999991904072013004+62167+030650FM-12+010299999V0203401N006219999999N0000001N9+01441+99999099041ADDGF103991999999999999999999
0029227070999991904072020004+62167+030650FM-12+010299999V0200201N002119999999N0000001N9+01001+99999099141ADDGF106991999999999999999999
0029227070999991904072106004+62167+030650FM-12+010299999V0203601N002119999999N0000001N9+01001+99999099021ADDGF107991999999999999999999
0029227070999991904072113004+62167+030650FM-12+010299999V0203401N006219999999N0000001N9+01331+99999099151ADDGF106991999999999999999999
0029227070999991904072120004+62167+030650FM-12+010299999V0202901N002119999999N0000001N9+01061+99999099311ADDGF106991999999999999999999
0029227070999991904072206004+62167+030650FM-12+010299999V0203601N004119999999N0000001N9+00941+99999099511ADDGF106991999999999999999999
0029227070999991904072213004+62167+030650FM-12+010299999V0203601N006219999999N0000001N9+01111+99999099581ADDGF108991999999999999999999
0029227070999991904072220004+62167+030650FM-12+010299999V0203601N001019999999N0000001N9+00891+99999099841ADDGF106991999999999999999999
0029227070999991904072306004+62167+030650FM-12+010299999V0203601N002119999999N0000001N9+01061+99999100041ADDGF107991999999999999999999
0029227070999991904072313004+62167+030650FM-12+010299999V0200501N004119999999N0000001N9+01281+99999100151ADDGF106991999999999999999999
0029227070999991904072320004+62167+030650FM-12+010299999V0200201N002119999999N0000001N9+01111+99999100271ADDGF104991999999999999999999
0029227070999991904072406004+62167+030650FM-12+010299999V0203401N001019999999N0000001N9+01171+99999100281ADDGF107991999999999999999999
0029227070999991904072413004+62167+030650FM-12+010299999V0202701N002119999999N0000001N9+01721+99999100161ADDGF107991999999999999999999
0029227070999991904072420004+62167+030650FM-12+010299999V0202501N001019999999N0000001N9+01331+99999100021ADDGF105991999999999999999999
0029227070999991904072506004+62167+030650FM-12+010299999V0201801N001019999999N0000001N9+01501+99999099881ADDGF106991999999999999999999
0029227070999991904072513004+62167+030650FM-12+010299999V0202001N002119999999N0000001N9+02171+99999099711ADDGF103991999999999999999999
0029227070999991904072520004+62167+030650FM-12+010299999V0201801N001019999999N0000001N9+01281+99999099601ADDGF108991999999999999999999
0029227070999991904072606004+62167+030650FM-12+010299999V0209991C000019999999N0000001N9+01281+99999099181ADDGF108991999999999999999999
0029227070999991904072613004+62167+030650FM-12+010299999V0201601N002119999999N0000001N9+01611+99999098991ADDGF106991999999999999999999
0029227070999991904072620004+62167+030650FM-12+010299999V0203401N002119999999N0000001N9+01281+99999098881ADDGF108991999999999999999999
0029227070999991904072706004+62167+030650FM-12+010299999V0202901N006219999999N0000001N9+01061+99999098861ADDGF108991999999999999999999
0029227070999991904072713004+62167+030650FM-12+010299999V0203201N006219999999N0000001N9+01391+99999099111ADDGF106991999999999999999999
0029227070999991904072720004+62167+030650FM-12+010299999V0202901N004119999999N0000001N9+01171+99999099321ADDGF108991999999999999999999
0029227070999991904072806004+62167+030650FM-12+010299999V0203201N004119999999N0000001N9+01001+99999099681ADDGF105991999999999999999999
0029227070999991904072813004+62167+030650FM-12+010299999V0202901N004119999999N0000001N9+01561+99999099881ADDGF102991999999999999999999
0029227070999991904072820004+62167+030650FM-12+010299999V0203601N001019999999N0000001N9+00891+99999100031ADDGF101991999999999999999999
0029227070999991904072906004+62167+030650FM-12+010299999V0203601N004119999999N0000001N9+01001+99999100301ADDGF101991999999999999999999
0029227070999991904072913004+62167+030650FM-12+010299999V0203201N002119999999N0000001N9+01561+99999100401ADDGF107991999999999999999999
0029227070999991904072920004+62167+030650FM-12+010299999V0203601N002119999999N0000001N9+01001+99999100751ADDGF106991999999999999999999
0029227070999991904073006004+62167+030650FM-12+010299999V0203601N002119999999N0000001N9+01001+99999101121ADDGF108991999999999999999999
0029227070999991904073013004+62167+030650FM-12+010299999V0203601N001019999999N0000001N9+01561+99999101201ADDGF102991999999999999999999
0029227070999991904073020004+62167+030650FM-12+010299999V0209991C000019999999N0000001N9+01331+99999101351ADDGF100991999999999999999999
0029227070999991904073106004+62167+030650FM-12+010299999V0203401N001019999999N0000001N9+01171+99999101641ADDGF100991999999999999999999
0029227070999991904073113004+62167+030650FM-12+010299999V0209991C000019999999N0000001N9+02001+99999101591ADDGF101991999999999999999999
0029227070999991904073120004+62167+030650FM-12+010299999V0201801N001019999999N0000001N9+01561+99999101471ADDGF102991999999999999999999
0029227070999991904080106004+62167+030650FM-12+010299999V0202301N001019999999N0000001N9+01611+99999101501ADDGF102991999999999999999999
0029227070999991904080113004+62167+030650FM-12+010299999V0202301N004119999999N0000001N9+02441+99999101401ADDGF100991999999999999999999
0029227070999991904080120004+62167+030650FM-12+010299999V0202301N001019999999N0000001N9+01671+99999101221ADDGF101991999999999999999999
0029227070999991904080206004+62167+030650FM-12+010299999V0202301N002119999999N0000001N9+01671+99999101471ADDGF101991999999999999999999
0029227070999991904080213004+62167+030650FM-12+010299999V0202301N001019999999N0000001N9+02501+99999101341ADDGF100991999999999999999999
0029227070999991904080220004+62167+030650FM-12+010299999V0209991C000019999999N0000001N9+01611+99999101421ADDGF100991999999999999999999
0029227070999991904080306004+62167+030650FM-12+010299999V0209991C000019999999N0000001N9+01671+99999101311ADDGF100991999999999999999999
0029227070999991904080313004+62167+030650FM-12+010299999V0202701N004119999999N0000001N9+02441+99999101311ADDGF103991999999999999999999
0029227070999991904080320004+62167+030650FM-12+010299999V0202901N002119999999N0000001N9+01561+99999101231ADDGF102991999999999999999999
0029227070999991904080406004+62167+030650FM-12+010299999V0202901N001019999999N0000001N9+01441+99999101111ADDGF103991999999999999999999
0029227070999991904080413004+62167+030650FM-12+010299999V0202501N002119999999N0000001N9+02441+99999100631ADDGF102991999999999999999999
0029227070999991904080420004+62167+030650FM-12+010299999V0202701N004119999999N0000001N9+01281+99999100221ADDGF108991999999999999999999
0029227070999991904080506004+62167+030650FM-12+010299999V0202901N002119999999N0000001N9+01111+99999100121ADDGF107991999999999999999999
0029227070999991904080513004+62167+030650FM-12+010299999V0202901N001019999999N0000001N9+01331+99999100111ADDGF108991999999999999999999
0029227070999991904080520004+62167+030650FM-12+010299999V0203201N002119999999N0000001N9+01111+99999100281ADDGF107991999999999999999999
0029227070999991904080606004+62167+030650FM-12+010299999V0203601N001019999999N0000001N9+01281+99999100881ADDGF107991999999999999999999
0029227070999991904080613004+62167+030650FM-12+010299999V0203601N001019999999N0000001N9+01941+99999100861ADDGF103991999999999999999999
0029227070999991904080620004+62167+030650FM-12+010299999V0200901N001019999999N0000001N9+01441+99999100741ADDGF108991999999999999999999
0029227070999991904080706004+62167+030650FM-12+010299999V0201401N002119999999N0000001N9+01281+99999100031ADDGF108991999999999999999999
0029227070999991904080713004+62167+030650FM-12+010299999V0201801N002119999999N0000001N9+01561+99999099631ADDGF106991999999999999999999
0029227070999991904080720004+62167+030650FM-12+010299999V0201801N001019999999N0000001N9+01441+99999099431ADDGF105991999999999999999999
0029227070999991904080806004+62167+030650FM-12+010299999V0202701N002119999999N0000001N9+01501+99999099221ADDGF106991999999999999999999
0029227070999991904080813004+62167+030650FM-12+010299999V0202701N002119999999N0000001N9+01611+99999098941ADDGF106991999999999999999999
0029227070999991904080820004+62167+030650FM-12+010299999V0203601N002119999999N0000001N9+01331+99999098881ADDGF108991999999999999999999
0029227070999991904080906004+62167+030650FM-12+010299999V0200701N004119999999N0000001N9+01061+99999098461ADDGF106991999999999999999999
0029227070999991904080913004+62167+030650FM-12+010299999V0200501N002119999999N0000001N9+01391+99999098751ADDGF107991999999999999999999
0029227070999991904080920004+62167+030650FM-12+010299999V0209991C000019999999N0000001N9+00831+99999098951ADDGF102991999999999999999999
0029227070999991904081006004+62167+030650FM-12+010299999V0209991C000019999999N0000001N9+01221+99999099061ADDGF101991999999999999999999
0029227070999991904081013004+62167+030650FM-12+010299999V0209991C000019999999N0000001N9+01781+99999099061ADDGF103991999999999999999999
0029227070999991904081020004+62167+030650FM-12+010299999V0200501N001019999999N0000001N9+01001+99999099001ADDGF108991999999999999999999
0029227070999991904081106004+62167+030650FM-12+010299999V0209991C000019999999N0000001N9+01001+99999099561ADDGF103991999999999999999999
0029227070999991904081113004+62167+030650FM-12+010299999V0203201N002119999999N0000001N9+01611+99999099881ADDGF103991999999999999999999
0029227070999991904081120004+62167+030650FM-12+010299999V0209991C000019999999N0000001N9+00941+99999100201ADDGF102991999999999999999999
0029227070999991904081206004+62167+030650FM-12+010299999V0202301N001019999999N0000001N9+01001+99999100681ADDGF100991999999999999999999
0029227070999991904081213004+62167+030650FM-12+010299999V0202301N001019999999N0000001N9+01831+99999100791ADDGF104991999999999999999999
0029227070999991904081220004+62167+030650FM-12+010299999V0201801N002119999999N0000001N9+01001+99999100761ADDGF101991999999999999999999
0029227070999991904081306004+62167+030650FM-12+010299999V0201401N004119999999N0000001N9+01281+99999100241ADDGF107991999999999999999999
0029227070999991904081313004+62167+030650FM-12+010299999V0201801N002119999999N0000001N9+01781+99999099791ADDGF106991999999999999999999
0029227070999991904081320004+62167+030650FM-12+010299999V0201801N002119999999N0000001N9+01111+99999099661ADDGF108991999999999999999999
0029227070999991904081406004+62167+030650FM-12+010299999V0201601N001019999999N0000001N9+01171+99999099401ADDGF108991999999999999999999
0029227070999991904081413004+62167+030650FM-12+010299999V0209991C000019999999N0000001N9+01561+99999099501ADDGF108991999999999999999999
0029227070999991904081420004+62167+030650FM-12+010299999V0209991C000019999999N0000001N9+01281+99999099551ADDGF108991999999999999999999
0029227070999991904081506004+62167+030650FM-12+010299999V0200901N002119999999N0000001N9+01171+99999099761ADDGF108991999999999999999999
0029227070999991904081513004+62167+030650FM-12+010299999V0200501N002119999999N0000001N9+01561+99999099871ADDGF103991999999999999999999
0029227070999991904081520004+62167+030650FM-12+010299999V0209991C000019999999N0000001N9+01001+99999099761ADDGF108991999999999999999999
0029227070999991904081606004+62167+030650FM-12+010299999V0203601N002119999999N0000001N9+01171+99999099351ADDGF106991999999999999999999
0029227070999991904081613004+62167+030650FM-12+010299999V0203601N001019999999N0000001N9+01391+99999099201ADDGF106991999999999999999999
0029227070999991904081620004+62167+030650FM-12+010299999V0203601N001019999999N0000001N9+01171+99999099231ADDGF108991999999999999999999
0029227070999991904081706004+62167+030650FM-12+010299999V0209991C000019999999N0000001N9+01221+99999099381ADDGF108991999999999999999999
0029227070999991904081713004+62167+030650FM-12+010299999V0200701N001019999999N0000001N9+01561+99999099391ADDGF106991999999999999999999
0029227070999991904081720004+62167+030650FM-12+010299999V0209991C000019999999N0000001N9+01171+99999099381ADDGF106991999999999999999999
0029227070999991904081806004+62167+030650FM-12+010299999V0200901N001019999999N0000001N9+01221+99999099511ADDGF108991999999999999999999
0029227070999991904081813004+62167+030650FM-12+010299999V0201401N002119999999N0000001N9+01561+99999099871ADDGF108991999999999999999999
0029227070999991904081820004+62167+030650FM-12+010299999V0201401N001019999999N0000001N9+01281+99999100121ADDGF106991999999999999999999
0029227070999991904081906004+62167+030650FM-12+010299999V0201401N001019999999N0000001N9+01281+99999100301ADDGF106991999999999999999999
0029227070999991904081913004+62167+030650FM-12+010299999V0200901N004119999999N0000001N9+01721+99999099991ADDGF106991999999999999999999
0029227070999991904081920004+62167+030650FM-12+010299999V0201401N001019999999N0000001N9+01221+99999099521ADDGF108991999999999999999999
0029227070999991904082006004+62167+030650FM-12+010299999V0201801N004119999999N0000001N9+01281+99999099241ADDGF108991999999999999999999
0029227070999991904082013004+62167+030650FM-12+010299999V0201801N002119999999N0000001N9+01331+99999099401ADDGF108991999999999999999999
0029227070999991904082020004+62167+030650FM-12+010299999V0201801N002119999999N0000001N9+01221+99999099511ADDGF107991999999999999999999
0029227070999991904082106004+62167+030650FM-12+010299999V0201801N006219999999N0000001N9+01281+99999099281ADDGF108991999999999999999999
0029227070999991904082113004+62167+030650FM-12+010299999V0201801N004119999999N0000001N9+01331+99999099181ADDGF108991999999999999999999
0029227070999991904082120004+62167+030650FM-12+010299999V0202301N002119999999N0000001N9+01171+99999099071ADDGF108991999999999999999999
0029227070999991904082206004+62167+030650FM-12+010299999V0202701N004119999999N0000001N9+01171+99999098951ADDGF108991999999999999999999
0029227070999991904082213004+62167+030650FM-12+010299999V0202501N004119999999N0000001N9+01171+99999099191ADDGF106991999999999999999999
0029227070999991904082220004+62167+030650FM-12+010299999V0202501N001019999999N0000001N9+01171+99999099401ADDGF105991999999999999999999
0029227070999991904082306004+62167+030650FM-12+010299999V0202501N001019999999N0000001N9+01001+99999099781ADDGF108991999999999999999999
0029227070999991904082313004+62167+030650FM-12+010299999V0202901N002119999999N0000001N9+01831+99999099901ADDGF103991999999999999999999
0029227070999991904082320004+62167+030650FM-12+010299999V0203201N001019999999N0000001N9+01001+99999100021ADDGF106991999999999999999999
0029227070999991904082406004+62167+030650FM-12+010299999V0203401N002119999999N0000001N9+00941+99999100031ADDGF102991999999999999999999
0029227070999991904082413004+62167+030650FM-12+010299999V0203601N001019999999N0000001N9+01611+99999099941ADDGF104991999999999999999999
0029227070999991904082420004+62167+030650FM-12+010299999V0203601N001019999999N0000001N9+01001+99999099941ADDGF104991999999999999999999
0029227070999991904082506004+62167+030650FM-12+010299999V0200201N004119999999N0000001N9+01171+99999099781ADDGF107991999999999999999999
0029227070999991904082513004+62167+030650FM-12+010299999V0200501N013919999999N0000001N9+01281+99999099661ADDGF108991999999999999999999
0029227070999991904082520004+62167+030650FM-12+010299999V0200501N002119999999N0000001N9+01171+99999099271ADDGF108991999999999999999999
0029227070999991904082606004+62167+030650FM-12+010299999V0200501N006219999999N0000001N9+01171+99999098791ADDGF108991999999999999999999
0029227070999991904082613004+62167+030650FM-12+010299999V0200501N020119999999N0000001N9+01281+99999098671ADDGF108991999999999999999999
0029227070999991904082620004+62167+030650FM-12+010299999V0203601N006219999999N0000001N9+00941+99999098721ADDGF108991999999999999999999
0029227070999991904082706004+62167+030650FM-12+010299999V0203201N004119999999N0000001N9+00671+99999099881ADDGF108991999999999999999999
0029227070999991904082713004+62167+030650FM-12+010299999V0202901N004119999999N0000001N9+00941+99999100541ADDGF106991999999999999999999
0029227070999991904082720004+62167+030650FM-12+010299999V0209991C000019999999N0000001N9+00611+99999101121ADDGF103991999999999999999999
0029227070999991904082806004+62167+030650FM-12+010299999V0200701N002119999999N0000001N9+00501+99999101591ADDGF104991999999999999999999
0029227070999991904082813004+62167+030650FM-12+010299999V0200901N002119999999N0000001N9+01221+99999101661ADDGF106991999999999999999999
0029227070999991904082820004+62167+030650FM-12+010299999V0200701N001019999999N0000001N9+00941+99999101761ADDGF107991999999999999999999
0029227070999991904082906004+62167+030650FM-12+010299999V0200701N002119999999N0000001N9+00891+99999101471ADDGF108991999999999999999999
0029227070999991904082913004+62167+030650FM-12+010299999V0200501N009819999999N0000001N9+01001+99999100671ADDGF108991999999999999999999
0029227070999991904082920004+62167+030650FM-12+010299999V0200501N002119999999N0000001N9+00941+99999099981ADDGF108991999999999999999999
0029227070999991904083006004+62167+030650FM-12+010299999V0203601N002119999999N0000001N9+01001+99999099241ADDGF108991999999999999999999
0029227070999991904083013004+62167+030650FM-12+010299999V0201801N002119999999N0000001N9+01171+99999099591ADDGF108991999999999999999999
0029227070999991904083020004+62167+030650FM-12+010299999V0201801N002119999999N0000001N9+00941+99999099641ADDGF108991999999999999999999
0029227070999991904083106004+62167+030650FM-12+010299999V0201801N002119999999N0000001N9+00941+99999099701ADDGF108991999999999999999999
0029227070999991904083113004+62167+030650FM-12+010299999V0201801N002119999999N0000001N9+01171+99999099871ADDGF108991999999999999999999
0029227070999991904083120004+62167+030650FM-12+010299999V0201801N002119999999N0000001N9+00941+99999099841ADDGF106991999999999999999999
0029227070999991904090106004+62167+030650FM-12+010299999V0201801N002119999999N0000001N9+00831+99999100301ADDGF103991999999999999999999
0029227070999991904090113004+62167+030650FM-12+010299999V0203601N002119999999N0000001N9+01721+99999100471ADDGF104991999999999999999999
0029227070999991904090120004+62167+030650FM-12+010299999V0200201N002119999999N0000001N9+01111+99999100751ADDGF103991999999999999999999
0029227070999991904090206004+62167+030650FM-12+010299999V0200501N004119999999N0000001N9+00941+99999100921ADDGF108991999999999999999999
0029227070999991904090213004+62167+030650FM-12+010299999V0200501N004119999999N0000001N9+01221+99999100921ADDGF108991999999999999999999
0029227070999991904090220004+62167+030650FM-12+010299999V0200501N002119999999N0000001N9+01001+99999100921ADDGF108991999999999999999999
0029227070999991904090306004+62167+030650FM-12+010299999V0200501N004119999999N0000001N9+00891+99999100911ADDGF108991999999999999999999
0029227070999991904090313004+62167+030650FM-12+010299999V0200501N004119999999N0000001N9+01441+99999100821ADDGF103991999999999999999999
