0029029500999991903010106004+61483+021350FM-12+000699999V0200701N006219999999N0000001N9-01061+99999100361ADDGF108991999999999999999999
0029029500999991903010113004+61483+021350FM-12+000699999V0200501N009819999999N0000001N9-01001+99999099921ADDGF108991999999999999999999
0029029500999991903010120004+61483+021350FM-12+000699999V0200701N013919999999N0000001N9-01171+99999099761ADDGF108991999999999999999999
0029029500999991903010206004+61483+021350FM-12+000699999V0203601N011819999999N0000001N9-00721+99999100181ADDGF108991999999999999999999
0029029500999991903010213004+61483+021350FM-12+000699999V0203401N008219999999N0000001N9-00611+99999100681ADDGF108991999999999999999999
0029029500999991903010220004+61483+021350FM-12+000699999V0200701N006219999999N0000001N9-01001+99999101061ADDGF100991999999999999999999
0029029500999991903010306004+61483+021350FM-12+000699999V0202301N008219999999N0000001N9-00391+99999101161ADDGF100991999999999999999999
0029029500999991903010313004+61483+021350FM-12+000699999V0202001N009819999999N0000001N9-00441+99999101311ADDGF108991999999999999999999
0029029500999991903010320004+61483+021350FM-12+000699999V0201601N009819999999N0000001N9-00331+99999101201ADDGF108991999999999999999999
0029029500999991903010406004+61483+021350FM-12+000699999V0201401N011819999999N0000001N9-00441+99999100361ADDGF108991999999999999999999
0029029500999991903010413004+61483+021350FM-12+000699999V0201401N013919999999N0000001N9-00501+99999099801ADDGF108991999999999999999999
0029029500999991903010420004+61483+021350FM-12+000699999V0201101N008219999999N0000001N9-00561+99999099241ADDGF108991999999999999999999
0029029500999991903010506004+61483+021350FM-12+000699999V0209991C000019999999N0000001N9-00331+99999099351ADDGF108991999999999999999999
0029029500999991903010513004+61483+021350FM-12+000699999V0201401N002119999999N0000001N9-00171+99999099501ADDGF108991999999999999999999
0029029500999991903010520004+61483+021350FM-12+000699999V0201401N004119999999N0000001N9-00171+99999099671ADDGF108991999999999999999999
0029029500999991903010606004+61483+021350FM-12+000699999V0201401N002119999999N0000001N9-00111+99999099801ADDGF108991999999999999999999
0029029500999991903010613004+61483+021350FM-12+000699999V0201601N002119999999N0000001N9-00061+99999099911ADDGF108991999999999999999999
0029029500999991903010620004+61483+021350FM-12+000699999V0202301N006219999999N0000001N9-00111+99999099861ADDGF108991999999999999999999
0029029500999991903010706004+61483+021350FM-12+000699999V0201401N006219999999N0000001N9+00001+99999099191ADDGF108991999999999999999999
0029029500999991903010713004+61483+021350FM-12+000699999V0201401N008219999999N0000001N9+00061+99999098861ADDGF108991999999999999999999
0029029500999991903010720004+61483+021350FM-12+000699999V0202001N006219999999N0000001N9+00061+99999098781ADDGF108991999999999999999999
0029029500999991903010806004+61483+021350FM-12+000699999V0202301N006219999999N0000001N9+00061+99999098431ADDGF108991999999999999999999
0029029500999991903010813004+61483+021350FM-12+000699999V0201101N002119999999N0000001N9+00061+99999098311ADDGF108991999999999999999999
0029029500999991903010820004+61483+021350FM-12+000699999V0203401N006219999999N0000001N9-00061+99999098321ADDGF108991999999999999999999
0029029500999991903010906004+61483+021350FM-12+000699999V0203201N011819999999N0000001N9-00391+99999099181ADDGF108991999999999999999999
0029029500999991903010913004+61483+021350FM-12+000699999V0203201N006219999999N0000001N9-00281+99999099541ADDGF108991999999999999999999
0029029500999991903010920004+61483+021350FM-12+000699999V0203201N006219999999N0000001N9-00281+99999099791ADDGF108991999999999999999999
0029029500999991903011006004+61483+021350FM-12+000699999V0201401N002119999999N0000001N9-00281+99999099911ADDGF108991999999999999999999
0029029500999991903011013004+61483+021350FM-12+000699999V0201101N004119999999N0000001N9-00281+99999099471ADDGF108991999999999999999999
0029029500999991903011020004+61483+021350FM-12+000699999V0200701N008219999999N0000001N9-00331+99999098761ADDGF108991999999999999999999
0029029500999991903011106004+61483+021350FM-12+000699999V0200701N013919999999N0000001N9-00671+99999098821ADDGF108991999999999999999999
0029029500999991903011113004+61483+021350FM-12+000699999V0200501N013919999999N0000001N9-00831+99999099361ADDGF106991999999999999999999
0029029500999991903011120004+61483+021350FM-12+000699999V0200501N018019999999N0000001N9-01001+99999099881ADDGF106991999999999999999999
0029029500999991903011206004+61483+021350FM-12+000699999V0200501N015919999999N0000001N9-01171+99999101141ADDGF100991999999999999999999
0029029500999991903011213004+61483+021350FM-12+000699999V0200501N006219999999N0000001N9-01001+99999101781ADDGF101991999999999999999999
0029029500999991903011220004+61483+021350FM-12+000699999V0201601N004119999999N0000001N9-01221+99999102071ADDGF100991999999999999999999
0029029500999991903011306004+61483+021350FM-12+000699999V0202701N009819999999N0000001N9-00221+99999101901ADDGF105991999999999999999999
0029029500999991903011313004+61483+021350FM-12+000699999V0202701N011819999999N0000001N9+00001+99999101911ADDGF103991999999999999999999
0029029500999991903011320004+61483+021350FM-12+000699999V0202901N013919999999N0000001N9+00171+99999101841ADDGF108991999999999999999999
0029029500999991903011406004+61483+021350FM-12+000699999V0200501N004119999999N0000001N9+00061+99999102401ADDGF102991999999999999999999
0029029500999991903011413004+61483+021350FM-12+000699999V0200501N002119999999N0000001N9+00061+99999102961ADDGF106991999999999999999999
0029029500999991903011420004+61483+021350FM-12+000699999V0201401N002119999999N0000001N9-00391+99999103501ADDGF100991999999999999999999
0029029500999991903011506004+61483+021350FM-12+000699999V0202501N006219999999N0000001N9-00111+99999103471ADDGF108991999999999999999999
0029029500999991903011513004+61483+021350FM-12+000699999V0202701N004119999999N0000001N9-00061+99999103381ADDGF108991999999999999999999
0029029500999991903011520004+61483+021350FM-12+000699999V0203201N002119999999N0000001N9-00171+99999103561ADDGF100991999999999999999999
0029029500999991903011606004+61483+021350FM-12+000699999V0201101N002119999999N0000001N9-00781+99999103991ADDGF100991999999999999999999
0029029500999991903011613004+61483+021350FM-12+000699999V0201601N001019999999N0000001N9-00721+99999104041ADDGF108991999999999999999999
0029029500999991903011620004+61483+021350FM-12+000699999V0201801N004119999999N0000001N9-00561+99999104071ADDGF108991999999999999999999
0029029500999991903011706004+61483+021350FM-12+000699999V0202301N008219999999N0000001N9-00331+99999104181ADDGF108991999999999999999999
0029029500999991903011713004+61483+021350FM-12+000699999V0202501N008219999999N0000001N9-00221+99999104231ADDGF108991999999999999999999
0029029500999991903011720004+61483+021350FM-12+000699999V0202501N009819999999N0000001N9-00281+99999104191ADDGF108991999999999999999999
0029029500999991903011806004+61483+021350FM-12+000699999V0202301N009819999999N0000001N9-00221+99999103911ADDGF108991999999999999999999
0029029500999991903011813004+61483+021350FM-12+000699999V0202501N008219999999N0000001N9-00111+99999103641ADDGF100991999999999999999999
0029029500999991903011820004+61483+021350FM-12+000699999V0202501N009819999999N0000001N9-00221+99999103391ADDGF100991999999999999999999
0029029500999991903011906004+61483+021350FM-12+000699999V0202301N004119999999N0000001N9-00281+99999103151ADDGF100991999999999999999999
0029029500999991903011913004+61483+021350FM-12+000699999V0202501N011819999999N0000001N9-00171+99999102871ADDGF100991999999999999999999
0029029500999991903011920004+61483+021350FM-12+000699999V0202301N011819999999N0000001N9-00221+99999102641ADDGF100991999999999999999999
0029029500999991903012006004+61483+021350FM-12+000699999V0203201N002119999999N0000001N9-00331+99999102401ADDGF102991999999999999999999
0029029500999991903012013004+61483+021350FM-12+000699999V0203401N009819999999N0000001N9-00061+99999102521ADDGF100991999999999999999999
0029029500999991903012020004+61483+021350FM-12+000699999V0209991C000019999999N0000001N9-00441+99999102951ADDGF100991999999999999999999
0029029500999991903012106004+61483+021350FM-12+000699999V0202501N002119999999N0000001N9-00391+99999102881ADDGF100991999999999999999999
0029029500999991903012113004+61483+021350FM-12+000699999V0202901N004119999999N0000001N9-00171+99999102711ADDGF102991999999999999999999
0029029500999991903012120004+61483+021350FM-12+000699999V0201401N002119999999N0000001N9-00501+99999102641ADDGF108991999999999999999999
0029029500999991903012206004+61483+021350FM-12+000699999V0202001N006219999999N0000001N9-00331+99999102361ADDGF108991999999999999999999
0029029500999991903012213004+61483+021350FM-12+000699999V0201601N006219999999N0000001N9-00781+99999102341ADDGF108991999999999999999999
0029029500999991903012220004+61483+021350FM-12+000699999V0201601N008219999999N0000001N9-00891+99999102231ADDGF108991999999999999999999
0029029500999991903012306004+61483+021350FM-12+000699999V0201401N004119999999N0000001N9-00611+99999101841ADDGF108991999999999999999999
0029029500999991903012313004+61483+021350FM-12+000699999V0201601N006219999999N0000001N9-00331+99999101561ADDGF108991999999999999999999
0029029500999991903012320004+61483+021350FM-12+000699999V0201401N011819999999N0000001N9-00611+99999101481ADDGF108991999999999999999999
0029029500999991903012406004+61483+021350FM-12+000699999V0201601N011819999999N0000001N9-00781+99999101511ADDGF108991999999999999999999
0029029500999991903012413004+61483+021350FM-12+000699999V0201401N009819999999N0000001N9-00781+99999101671ADDGF108991999999999999999999
0029029500999991903012420004+61483+021350FM-12+000699999V0201401N013919999999N0000001N9-01001+99999101641ADDGF108991999999999999999999
0029029500999991903012506004+61483+021350FM-12+000699999V0201601N015919999999N0000001N9-00891+99999101351ADDGF108991999999999999999999
0029029500999991903012513004+61483+021350FM-12+000699999V0201601N011819999999N0000001N9-00781+99999101381ADDGF108991999999999999999999
0029029500999991903012520004+61483+021350FM-12+000699999V0201601N013919999999N0000001N9-00671+99999101201ADDGF108991999999999999999999
0029029500999991903012606004+61483+021350FM-12+000699999V0201601N013919999999N0000001N9-00331+99999100471ADDGF108991999999999999999999
0029029500999991903012613004+61483+021350FM-12+000699999V0201601N008219999999N0000001N9-00061+99999100421ADDGF108991999999999999999999
0029029500999991903012620004+61483+021350FM-12+000699999V0201601N006219999999N0000001N9+00001+99999100441ADDGF108991999999999999999999
0029029500999991903012706004+61483+021350FM-12+000699999V0201801N011819999999N0000001N9+00061+99999099881ADDGF108991999999999999999999
0029029500999991903012713004+61483+021350FM-12+000699999V0202301N008219999999N0000001N9+00171+99999099541ADDGF108991999999999999999999
0029029500999991903012720004+61483+021350FM-12+000699999V0202501N015919999999N0000001N9+00111+99999098951ADDGF108991999999999999999999
0029029500999991903012806004+61483+021350FM-12+000699999V0202501N013919999999N0000001N9+00061+99999098761ADDGF101991999999999999999999
0029029500999991903012813004+61483+021350FM-12+000699999V0202501N009819999999N0000001N9+00061+99999098791ADDGF102991999999999999999999
0029029500999991903012820004+61483+021350FM-12+000699999V0202301N015919999999N0000001N9+00001+99999098471ADDGF102991999999999999999999
0029029500999991903012906004+61483+021350FM-12+000699999V0202501N008219999999N0000001N9-00061+99999098271ADDGF102991999999999999999999
0029029500999991903012913004+61483+021350FM-12+000699999V0202901N008219999999N0000001N9+00001+99999098471ADDGF104991999999999999999999
0029029500999991903012920004+61483+021350FM-12+000699999V0202701N013919999999N0000001N9+00001+99999098701ADDGF100991999999999999999999
0029029500999991903013006004+61483+021350FM-12+000699999V0202001N013919999999N0000001N9+00061+99999097871ADDGF108991999999999999999999
0029029500999991903013013004+61483+021350FM-12+000699999V0202901N009819999999N0000001N9+00061+99999097791ADDGF107991999999999999999999
0029029500999991903013020004+61483+021350FM-12+000699999V0202701N029819999999N0000001N9+00061+99999097641ADDGF104991999999999999999999
0029029500999991903013106004+61483+021350FM-12+000699999V0203201N015919999999N0000001N9+00061+99999099111ADDGF103991999999999999999999
0029029500999991903013113004+61483+021350FM-12+000699999V0202901N008219999999N0000001N9+00001+99999099901ADDGF108991999999999999999999
0029029500999991903013120004+61483+021350FM-12+000699999V0201601N009819999999N0000001N9+00001+99999099621ADDGF108991999999999999999999
0029029500999991903020106004+61483+021350FM-12+000699999V0202001N009819999999N0000001N9+00061+99999099221ADDGF108991999999999999999999
0029029500999991903020113004+61483+021350FM-12+000699999V0202301N015919999999N0000001N9+00171+99999099191ADDGF108991999999999999999999
0029029500999991903020120004+61483+021350FM-12+000699999V0202301N013919999999N0000001N9+00061+99999099261ADDGF108991999999999999999999
0029029500999991903020206004+61483+021350FM-12+000699999V0202001N011819999999N0000001N9+00001+99999099241ADDGF108991999999999999999999
0029029500999991903020213004+61483+021350FM-12+000699999V0202301N009819999999N0000001N9+00111+99999099341ADDGF108991999999999999999999
0029029500999991903020220004+61483+021350FM-12+000699999V0202301N009819999999N0000001N9-00061+99999099261ADDGF101991999999999999999999
0029029500999991903020306004+61483+021350FM-12+000699999V0203201N009819999999N0000001N9+00001+99999099631ADDGF101991999999999999999999
0029029500999991903020313004+61483+021350FM-12+000699999V0203201N006219999999N0000001N9+00001+99999100161ADDGF103991999999999999999999
0029029500999991903020320004+61483+021350FM-12+000699999V0203201N006219999999N0000001N9-00061+99999100581ADDGF100991999999999999999999
0029029500999991903020406004+61483+021350FM-12+000699999V0202501N004119999999N0000001N9-00171+99999100781ADDGF102991999999999999999999
0029029500999991903020413004+61483+021350FM-12+000699999V0202301N006219999999N0000001N9+00001+99999100591ADDGF108991999999999999999999
0029029500999991903020420004+61483+021350FM-12+000699999V0202301N009819999999N0000001N9-00061+99999100501ADDGF106991999999999999999999
0029029500999991903020506004+61483+021350FM-12+000699999V0201801N002119999999N0000001N9-00171+99999100521ADDGF101991999999999999999999
0029029500999991903020513004+61483+021350FM-12+000699999V0202301N011819999999N0000001N9+00001+99999100501ADDGF108991999999999999999999
0029029500999991903020520004+61483+021350FM-12+000699999V0202901N013919999999N0000001N9+00221+99999100361ADDGF102991999999999999999999
0029029500999991903020606004+61483+021350FM-12+000699999V0202701N011819999999N0000001N9+00111+99999100881ADDGF108991999999999999999999
0029029500999991903020613004+61483+021350FM-12+000699999V0202501N009819999999N0000001N9+00111+99999100761ADDGF104991999999999999999999
0029029500999991903020620004+61483+021350FM-12+000699999V0202301N009819999999N0000001N9+00061+99999100521ADDGF100991999999999999999999
0029029500999991903020706004+61483+021350FM-12+000699999V0202001N013919999999N0000001N9+00001+99999099911ADDGF108991999999999999999999
0029029500999991903020713004+61483+021350FM-12+000699999V0202301N011819999999N0000001N9+00111+99999099561ADDGF108991999999999999999999
0029029500999991903020720004+61483+021350FM-12+000699999V0202301N015919999999N0000001N9+00111+99999099341ADDGF108991999999999999999999
0029029500999991903020806004+61483+021350FM-12+000699999V0202001N011819999999N0000001N9+00001+99999096862ADDGF108991999999999999999999
0029029500999991903020813004+61483+021350FM-12+000699999V0202901N024219999999N0000001N9+00111+99999097261ADDGF106991999999999999999999
0029029500999991903020820004+61483+021350FM-12+000699999V0202901N020119999999N0000001N9+00061+99999097621ADDGF108991999999999999999999
0029029500999991903020906004+61483+021350FM-12+000699999V0203201N018019999999N0000001N9+00111+99999098071ADDGF108991999999999999999999
0029029500999991903020913004+61483+021350FM-12+000699999V0203201N018019999999N0000001N9+00171+99999099201ADDGF105991999999999999999999
0029029500999991903020920004+61483+021350FM-12+000699999V0203401N020119999999N0000001N9+00111+99999100661ADDGF100991999999999999999999
0029029500999991903021006004+61483+021350FM-12+000699999V0203201N009819999999N0000001N9+00001+99999101801ADDGF102991999999999999999999
0029029500999991903021013004+61483+021350FM-12+000699999V0202301N006219999999N0000001N9+00001+99999101501ADDGF108991999999999999999999
0029029500999991903021020004+61483+021350FM-12+000699999V0202301N020119999999N0000001N9+00001+99999099601ADDGF108991999999999999999999
0029029500999991903021106004+61483+021350FM-12+000699999V0202701N013919999999N0000001N9+00171+99999097721ADDGF108991999999999999999999
0029029500999991903021113004+61483+021350FM-12+000699999V0202701N018019999999N0000001N9+00221+99999097461ADDGF108991999999999999999999
0029029500999991903021120004+61483+021350FM-12+000699999V0202901N026219999999N0000001N9+00171+99999097481ADDGF108991999999999999999999
0029029500999991903021206004+61483+021350FM-12+000699999V0203201N024219999999N0000001N9-00111+99999097501ADDGF108991999999999999999999
0029029500999991903021213004+61483+021350FM-12+000699999V0203601N018019999999N0000001N9-00281+99999097631ADDGF108991999999999999999999
0029029500999991903021220004+61483+021350FM-12+000699999V0200201N015919999999N0000001N9-00671+99999098821ADDGF108991999999999999999999
0029029500999991903021306004+61483+021350FM-12+000699999V0201401N002119999999N0000001N9-00781+99999099551ADDGF108991999999999999999999
0029029500999991903021313004+61483+021350FM-12+000699999V0200201N006219999999N0000001N9-00671+99999099781ADDGF107991999999999999999999
0029029500999991903021320004+61483+021350FM-12+000699999V0200501N006219999999N0000001N9-00671+99999099951ADDGF107991999999999999999999
0029029500999991903021406004+61483+021350FM-12+000699999V0200201N006219999999N0000001N9-00561+99999099781ADDGF103991999999999999999999
0029029500999991903021413004+61483+021350FM-12+000699999V0203401N006219999999N0000001N9-00441+99999099581ADDGF105991999999999999999999
0029029500999991903021420004+61483+021350FM-12+000699999V0200901N002119999999N0000001N9-00891+99999099221ADDGF108991999999999999999999
0029029500999991903021506004+61483+021350FM-12+000699999V0203601N009819999999N0000001N9-00721+99999098921ADDGF108991999999999999999999
0029029500999991903021513004+61483+021350FM-12+000699999V0200701N004119999999N0000001N9-00941+99999099261ADDGF106991999999999999999999
0029029500999991903021520004+61483+021350FM-12+000699999V0200501N008219999999N0000001N9-01501+99999100111ADDGF102991999999999999999999
0029029500999991903021606004+61483+021350FM-12+000699999V0200201N013919999999N0000001N9-00781+99999100781ADDGF108991999999999999999999
0029029500999991903021613004+61483+021350FM-12+000699999V0203401N013919999999N0000001N9-00611+99999101391ADDGF106991999999999999999999
0029029500999991903021620004+61483+021350FM-12+000699999V0203401N009819999999N0000001N9-00501+99999101461ADDGF102991999999999999999999
0029029500999991903021706004+61483+021350FM-12+000699999V0202901N024219999999N0000001N9-00061+99999100111ADDGF108991999999999999999999
0029029500999991903021713004+61483+021350FM-12+000699999V0203601N011819999999N0000001N9-00331+99999100701ADDGF102991999999999999999999
0029029500999991903021720004+61483+021350FM-12+000699999V0200501N008219999999N0000001N9-01111+99999101921ADDGF100991999999999999999999
0029029500999991903021806004+61483+021350FM-12+000699999V0209991C000019999999N0000001N9-01671+99999102801ADDGF100991999999999999999999
0029029500999991903021813004+61483+021350FM-12+000699999V0201801N006219999999N0000001N9-00831+99999102781ADDGF108991999999999999999999
0029029500999991903021820004+61483+021350FM-12+000699999V0201801N015919999999N0000001N9-00611+99999101921ADDGF108991999999999999999999
0029029500999991903021906004+61483+021350FM-12+000699999V0202001N009819999999N0000001N9+00001+99999100521ADDGF108991999999999999999999
0029029500999991903021913004+61483+021350FM-12+000699999V0202301N004119999999N0000001N9+00171+99999100181ADDGF108991999999999999999999
0029029500999991903021920004+61483+021350FM-12+000699999V0202501N008219999999N0000001N9+00001+99999099621ADDGF108991999999999999999999
0029029500999991903022006004+61483+021350FM-12+000699999V0202001N006219999999N0000001N9+00061+99999098981ADDGF108991999999999999999999
0029029500999991903022013004+61483+021350FM-12+000699999V0202301N006219999999N0000001N9+00281+99999098601ADDGF108991999999999999999999
0029029500999991903022020004+61483+021350FM-12+000699999V0202901N009819999999N0000001N9+00281+99999098961ADDGF101991999999999999999999
0029029500999991903022106004+61483+021350FM-12+000699999V0201601N002119999999N0000001N9+00001+99999099151ADDGF108991999999999999999999
0029029500999991903022113004+61483+021350FM-12+000699999V0202501N009819999999N0000001N9+00111+99999098311ADDGF108991999999999999999999
0029029500999991903022120004+61483+021350FM-12+000699999V0202301N009819999999N0000001N9+00221+99999098101ADDGF100991999999999999999999
0029029500999991903022206004+61483+021350FM-12+000699999V0202501N006219999999N0000001N9+00001+99999097621ADDGF101991999999999999999999
0029029500999991903022213004+61483+021350FM-12+000699999V0202501N008219999999N0000001N9+00111+99999097861ADDGF108991999999999999999999
0029029500999991903022220004+61483+021350FM-12+000699999V0202501N013919999999N0000001N9+00171+99999098041ADDGF108991999999999999999999
0029029500999991903022306004+61483+021350FM-12+000699999V0202501N006219999999N0000001N9-00111+99999098361ADDGF101991999999999999999999
0029029500999991903022313004+61483+021350FM-12+000699999V0200901N004119999999N0000001N9+00061+99999097431ADDGF108991999999999999999999
0029029500999991903022320004+61483+021350FM-12+000699999V0200901N002119999999N0000001N9-00331+99999097241ADDGF100991999999999999999999
0029029500999991903022406004+61483+021350FM-12+000699999V0209991C000019999999N0000001N9-00501+99999097951ADDGF107991999999999999999999
0029029500999991903022413004+61483+021350FM-12+000699999V0203201N004119999999N0000001N9-00061+99999099111ADDGF108991999999999999999999
0029029500999991903022420004+61483+021350FM-12+000699999V0202901N002119999999N0000001N9+00171+99999999999ADDGF100991999999999999999999
0029029500999991903022506004+61483+021350FM-12+000699999V0201601N004119999999N0000001N9-01001+99999100831ADDGF108991999999999999999999
0029029500999991903022513004+61483+021350FM-12+000699999V0201601N008219999999N0000001N9+00001+99999100711ADDGF108991999999999999999999
0029029500999991903022520004+61483+021350FM-12+000699999V0202001N011819999999N0000001N9+00061+99999100071ADDGF108991999999999999999999
0029029500999991903022606004+61483+021350FM-12+000699999V0202501N009819999999N0000001N9+00001+99999100541ADDGF100991999999999999999999
0029029500999991903022613004+61483+021350FM-12+000699999V0202301N006219999999N0000001N9+00221+99999100961ADDGF102991999999999999999999
0029029500999991903022620004+61483+021350FM-12+000699999V0201601N008219999999N0000001N9+00111+99999100601ADDGF108991999999999999999999
0029029500999991903022706004+61483+021350FM-12+000699999V0202001N006219999999N0000001N9+00111+99999099551ADDGF108991999999999999999999
0029029500999991903022713004+61483+021350FM-12+000699999V0202301N013919999999N0000001N9+00171+99999099661ADDGF108991999999999999999999
0029029500999991903022720004+61483+021350FM-12+000699999V0201801N008219999999N0000001N9+00061+99999099601ADDGF108991999999999999999999
0029029500999991903022806004+61483+021350FM-12+000699999V0201801N008219999999N0000001N9+00111+99999098461ADDGF108991999999999999999999
0029029500999991903022813004+61483+021350FM-12+000699999V0202001N008219999999N0000001N9+00221+99999098261ADDGF108991999999999999999999
0029029500999991903022820004+61483+021350FM-12+000699999V0201801N009819999999N0000001N9+00111+99999098121ADDGF108991999999999999999999
0029029500999991903030106004+61483+021350FM-12+000699999V0202901N008219999999N0000001N9+00061+99999098701ADDGF108991999999999999999999
0029029500999991903030113004+61483+021350FM-12+000699999V0203201N011819999999N0000001N9+00001+99999099601ADDGF108991999999999999999999
0029029500999991903030120004+61483+021350FM-12+000699999V0202501N004119999999N0000001N9-00171+99999100151ADDGF100991999999999999999999
0029029500999991903030206004+61483+021350FM-12+000699999V0201801N002119999999N0000001N9-00331+99999100391ADDGF101991999999999999999999
0029029500999991903030213004+61483+021350FM-12+000699999V0201801N004119999999N0000001N9+00061+99999100431ADDGF108991999999999999999999
0029029500999991903030220004+61483+021350FM-12+000699999V0201801N006219999999N0000001N9+00061+99999100431ADDGF108991999999999999999999
0029029500999991903030306004+61483+021350FM-12+000699999V0201601N008219999999N0000001N9-00061+99999100351ADDGF108991999999999999999999
0029029500999991903030313004+61483+021350FM-12+000699999V0201601N008219999999N0000001N9+00061+99999100471ADDGF108991999999999999999999
0029029500999991903030320004+61483+021350FM-12+000699999V0201401N009819999999N0000001N9+00001+99999100501ADDGF108991999999999999999999
0029029500999991903030406004+61483+021350FM-12+000699999V0201601N008219999999N0000001N9+00111+99999100551ADDGF108991999999999999999999
0029029500999991903030413004+61483+021350FM-12+000699999V0201601N008219999999N0000001N9+00171+99999100591ADDGF108991999999999999999999
0029029500999991903030420004+61483+021350FM-12+000699999V0201601N011819999999N0000001N9+00111+99999100351ADDGF108991999999999999999999
0029029500999991903030506004+61483+021350FM-12+000699999V0201801N011819999999N0000001N9+00171+99999099751ADDGF108991999999999999999999
0029029500999991903030513004+61483+021350FM-12+000699999V0202001N011819999999N0000001N9+00281+99999099791ADDGF105991999999999999999999
0029029500999991903030520004+61483+021350FM-12+000699999V0202001N009819999999N0000001N9+00111+99999999999ADDGF108991999999999999999999
0029029500999991903030606004+61483+021350FM-12+000699999V0201801N004119999999N0000001N9+00001+99999099881ADDGF108991999999999999999999
0029029500999991903030613004+61483+021350FM-12+000699999V0202301N006219999999N0000001N9+00171+99999100101ADDGF100991999999999999999999
0029029500999991903030620004+61483+021350FM-12+000699999V0202301N008219999999N0000001N9+00001+99999100311ADDGF100991999999999999999999
0029029500999991903030706004+61483+021350FM-12+000699999V0202301N008219999999N0000001N9-00061+99999100471ADDGF100991999999999999999999
0029029500999991903030713004+61483+021350FM-12+000699999V0202001N008219999999N0000001N9+00171+99999100831ADDGF102991999999999999999999
0029029500999991903030720004+61483+021350FM-12+000699999V0202001N006219999999N0000001N9-00061+99999101081ADDGF100991999999999999999999
0029029500999991903030806004+61483+021350FM-12+000699999V0201801N002119999999N0000001N9-00111+99999101591ADDGF102991999999999999999999
0029029500999991903030813004+61483+021350FM-12+000699999V0202001N004119999999N0000001N9+00171+99999102161ADDGF100991999999999999999999
0029029500999991903030820004+61483+021350FM-12+000699999V0201801N002119999999N0000001N9-00171+99999102511ADDGF100991999999999999999999
0029029500999991903030906004+61483+021350FM-12+000699999V0201801N004119999999N0000001N9-00171+99999102671ADDGF108991999999999999999999
0029029500999991903030913004+61483+021350FM-12+000699999V0201801N004119999999N0000001N9+00281+99999102701ADDGF103991999999999999999999
0029029500999991903030920004+61483+021350FM-12+000699999V0201801N004119999999N0000001N9-00061+99999102861ADDGF100991999999999999999999
0029029500999991903031006004+61483+021350FM-12+000699999V0202001N006219999999N0000001N9-00171+99999102711ADDGF100991999999999999999999
0029029500999991903031013004+61483+021350FM-12+000699999V0202001N008219999999N0000001N9+00221+99999102671ADDGF100991999999999999999999
0029029500999991903031020004+61483+021350FM-12+000699999V0202001N011819999999N0000001N9+00001+99999102461ADDGF108991999999999999999999
0029029500999991903031106004+61483+021350FM-12+000699999V0202001N009819999999N0000001N9+00001+99999102281ADDGF108991999999999999999999
0029029500999991903031113004+61483+021350FM-12+000699999V0202001N009819999999N0000001N9+00061+99999102271ADDGF108991999999999999999999
0029029500999991903031120004+61483+021350FM-12+000699999V0202301N013919999999N0000001N9-00061+99999102281ADDGF108991999999999999999999
0029029500999991903031206004+61483+021350FM-12+000699999V0202301N011819999999N0000001N9-00061+99999102201ADDGF108991999999999999999999
0029029500999991903031213004+61483+021350FM-12+000699999V0202301N011819999999N0000001N9+00061+99999102301ADDGF101991999999999999999999
0029029500999991903031220004+61483+021350FM-12+000699999V0202001N013919999999N0000001N9-00061+99999102351ADDGF108991999999999999999999
0029029500999991903031306004+61483+021350FM-12+000699999V0202301N009819999999N0000001N9+00061+99999102341ADDGF108991999999999999999999
0029029500999991903031313004+61483+021350FM-12+000699999V0202001N011819999999N0000001N9+00171+99999102581ADDGF108991999999999999999999
0029029500999991903031320004+61483+021350FM-12+000699999V0201801N009819999999N0000001N9+00001+99999102631ADDGF108991999999999999999999
0029029500999991903031406004+61483+021350FM-12+000699999V0201601N004119999999N0000001N9-00391+99999102521ADDGF104991999999999999999999
0029029500999991903031413004+61483+021350FM-12+000699999V0202001N008219999999N0000001N9+00171+99999102561ADDGF101991999999999999999999
0029029500999991903031420004+61483+021350FM-12+000699999V0201801N011819999999N0000001N9-00111+99999102561ADDGF108991999999999999999999
0029029500999991903031506004+61483+021350FM-12+000699999V0201601N006219999999N0000001N9-00111+99999102511ADDGF108991999999999999999999
0029029500999991903031513004+61483+021350FM-12+000699999V0201601N004119999999N0000001N9+00111+99999102601ADDGF108991999999999999999999
0029029500999991903031520004+61483+021350FM-12+000699999V0201401N004119999999N0000001N9+00001+99999102791ADDGF108991999999999999999999
0029029500999991903031606004+61483+021350FM-12+000699999V0201401N004119999999N0000001N9+00001+99999102841ADDGF108991999999999999999999
0029029500999991903031613004+61483+021350FM-12+000699999V0201401N002119999999N0000001N9+00331+99999102951ADDGF108991999999999999999999
0029029500999991903031620004+61483+021350FM-12+000699999V0201401N006219999999N0000001N9+00111+99999103001ADDGF108991999999999999999999
0029029500999991903031706004+61483+021350FM-12+000699999V0201401N008219999999N0000001N9-00441+99999102871ADDGF108991999999999999999999
0029029500999991903031713004+61483+021350FM-12+000699999V0201401N004119999999N0000001N9-00171+99999102911ADDGF102991999999999999999999
0029029500999991903031720004+61483+021350FM-12+000699999V0201401N004119999999N0000001N9-00561+99999102871ADDGF100991999999999999999999
0029029500999991903031806004+61483+021350FM-12+000699999V0201401N004119999999N0000001N9-00721+99999102641ADDGF100991999999999999999999
0029029500999991903031813004+61483+021350FM-12+000699999V0201401N006219999999N0000001N9+00111+99999102391ADDGF100991999999999999999999
0029029500999991903031820004+61483+021350FM-12+000699999V0201401N011819999999N0000001N9-00221+99999102181ADDGF108991999999999999999999
0029029500999991903031906004+61483+021350FM-12+000699999V0201401N013919999999N0000001N9-00391+99999101541ADDGF108991999999999999999999
0029029500999991903031913004+61483+021350FM-12+000699999V0201401N015919999999N0000001N9+00001+99999101141ADDGF108991999999999999999999
0029029500999991903031920004+61483+021350FM-12+000699999V0201801N008219999999N0000001N9+00001+99999101081ADDGF108991999999999999999999
0029029500999991903032006004+61483+021350FM-12+000699999V0202001N009819999999N0000001N9+00111+99999100861ADDGF108991999999999999999999
0029029500999991903032013004+61483+021350FM-12+000699999V0202001N015919999999N0000001N9+00221+99999100201ADDGF108991999999999999999999
0029029500999991903032020004+61483+021350FM-12+000699999V0202301N008219999999N0000001N9+00171+99999099921ADDGF106991999999999999999999
0029029500999991903032106004+61483+021350FM-12+000699999V0202501N009819999999N0000001N9+00061+99999100461ADDGF100991999999999999999999
0029029500999991903032113004+61483+021350FM-12+000699999V0202501N008219999999N0000001N9+00221+99999100861ADDGF102991999999999999999999
0029029500999991903032120004+61483+021350FM-12+000699999V0202301N006219999999N0000001N9+00061+99999100821ADDGF106991999999999999999999
0029029500999991903032206004+61483+021350FM-12+000699999V0202301N008219999999N0000001N9+00171+99999100301ADDGF108991999999999999999999
0029029500999991903032213004+61483+021350FM-12+000699999V0202001N009819999999N0000001N9+00221+99999099721ADDGF108991999999999999999999
0029029500999991903032220004+61483+021350FM-12+000699999V0202301N011819999999N0000001N9+00221+99999099581ADDGF108991999999999999999999
0029029500999991903032306004+61483+021350FM-12+000699999V0202501N011819999999N0000001N9+00281+99999099201ADDGF108991999999999999999999
0029029500999991903032313004+61483+021350FM-12+000699999V0202501N008219999999N0000001N9+00281+99999099481ADDGF104991999999999999999999
0029029500999991903032320004+61483+021350FM-12+000699999V0202301N008219999999N0000001N9+00221+99999099221ADDGF108991999999999999999999
0029029500999991903032406004+61483+021350FM-12+000699999V0202301N013919999999N0000001N9+00281+99999098381ADDGF108991999999999999999999
0029029500999991903032413004+61483+021350FM-12+000699999V0202301N011819999999N0000001N9+00281+99999098301ADDGF108991999999999999999999
0029029500999991903032420004+61483+021350FM-12+000699999V0202501N009819999999N0000001N9+00111+99999098391ADDGF102991999999999999999999
0029029500999991903032506004+61483+021350FM-12+000699999V0203201N008219999999N0000001N9+00111+99999099201ADDGF108991999999999999999999
0029029500999991903032513004+61483+021350FM-12+000699999V0203601N006219999999N0000001N9-00221+99999100831ADDGF107991999999999999999999
0029029500999991903032520004+61483+021350FM-12+000699999V0201401N002119999999N0000001N9-00281+99999101391ADDGF108991999999999999999999
0029029500999991903032606004+61483+021350FM-12+000699999V0201601N009819999999N0000001N9-00111+99999101501ADDGF108991999999999999999999
0029029500999991903032613004+61483+021350FM-12+000699999V0201601N009819999999N0000001N9+00281+99999101081ADDGF108991999999999999999999
0029029500999991903032620004+61483+021350FM-12+000699999V0201801N015919999999N0000001N9+00331+99999100501ADDGF108991999999999999999999
0029029500999991903032706004+61483+021350FM-12+000699999V0202001N009819999999N0000001N9+00221+99999100191ADDGF108991999999999999999999
0029029500999991903032713004+61483+021350FM-12+000699999V0202001N008219999999N0000001N9+00501+99999100431ADDGF108991999999999999999999
0029029500999991903032720004+61483+021350FM-12+000699999V0202001N004119999999N0000001N9+00281+99999100301ADDGF108991999999999999999999
0029029500999991903032806004+61483+021350FM-12+000699999V0201801N006219999999N0000001N9+00111+99999099881ADDGF108991999999999999999999
0029029500999991903032813004+61483+021350FM-12+000699999V0202001N009819999999N0000001N9+00331+99999099201ADDGF107991999999999999999999
0029029500999991903032820004+61483+021350FM-12+000699999V0202301N008219999999N0000001N9+00171+99999099661ADDGF100991999999999999999999
0029029500999991903032906004+61483+021350FM-12+000699999V0202001N013919999999N0000001N9+00281+99999099181ADDGF108991999999999999999999
0029029500999991903032913004+61483+021350FM-12+000699999V0202301N011819999999N0000001N9+00441+99999098981ADDGF102991999999999999999999
0029029500999991903032920004+61483+021350FM-12+000699999V0202001N018019999999N0000001N9+00221+99999098951ADDGF101991999999999999999999
0029029500999991903033006004+61483+021350FM-12+000699999V0202501N015919999999N0000001N9+00281+99999099151ADDGF107991999999999999999999
0029029500999991903033013004+61483+021350FM-12+000699999V0202501N011819999999N0000001N9+00441+99999099681ADDGF102991999999999999999999
0029029500999991903033020004+61483+021350FM-12+000699999V0202301N006219999999N0000001N9+00111+99999100101ADDGF100991999999999999999999
0029029500999991903033106004+61483+021350FM-12+000699999V0201801N002119999999N0000001N9+00221+99999100481ADDGF108991999999999999999999
0029029500999991903033113004+61483+021350FM-12+000699999V0200701N004119999999N0000001N9+00281+99999100701ADDGF108991999999999999999999
0029029500999991903033120004+61483+021350FM-12+000699999V0200701N009819999999N0000001N9+00001+99999101001ADDGF108991999999999999999999
0029029500999991903040106004+61483+021350FM-12+000699999V0200701N015919999999N0000001N9-00171+99999101341ADDGF108991999999999999999999
0029029500999991903040113004+61483+021350FM-12+000699999V0200701N011819999999N0000001N9+00171+99999101361ADDGF103991999999999999999999
0029029500999991903040120004+61483+021350FM-12+000699999V0200701N008219999999N0000001N9-00171+99999101321ADDGF100991999999999999999999
0029029500999991903040206004+61483+021350FM-12+000699999V0200701N008219999999N0000001N9-00391+99999101231ADDGF102991999999999999999999
0029029500999991903040213004+61483+021350FM-12+000699999V0200501N009819999999N0000001N9+00061+99999101041ADDGF102991999999999999999999
0029029500999991903040220004+61483+021350FM-12+000699999V0200501N011819999999N0000001N9-00221+99999101101ADDGF108991999999999999999999
0029029500999991903040306004+61483+021350FM-12+000699999V0200501N009819999999N0000001N9-00281+99999101121ADDGF106991999999999999999999
0029029500999991903040313004+61483+021350FM-12+000699999V0200501N008219999999N0000001N9-00061+99999100991ADDGF106991999999999999999999
0029029500999991903040320004+61483+021350FM-12+000699999V0200501N011819999999N0000001N9-00281+99999100961ADDGF106991999999999999999999
0029029500999991903040406004+61483+021350FM-12+000699999V0200201N008219999999N0000001N9-00501+99999100431ADDGF103991999999999999999999
0029029500999991903040413004+61483+021350FM-12+000699999V0203401N006219999999N0000001N9-00331+99999999999ADDGF102991999999999999999999
0029029500999991903040420004+61483+021350FM-12+000699999V0202301N004119999999N0000001N9-00391+99999099791ADDGF108991999999999999999999
0029029500999991903040506004+61483+021350FM-12+000699999V0200701N009819999999N0000001N9-00441+99999099621ADDGF106991999999999999999999
0029029500999991903040513004+61483+021350FM-12+000699999V0200901N011819999999N0000001N9+00111+99999099671ADDGF108991999999999999999999
0048029500999991903040520004+61483+021350FM-12+000699999V0200901N008219999999N0000001N9-00111+99999999999ADDGF108991999999999999999999EQDQ01 103943APOSLP
0029029500999991903040606004+61483+021350FM-12+000699999V0200901N002119999999N0000001N9+00111+99999100271ADDGF108991999999999999999999
0029029500999991903040613004+61483+021350FM-12+000699999V0209991C000019999999N0000001N9+00501+99999100341ADDGF108991999999999999999999
0029029500999991903040620004+61483+021350FM-12+000699999V0201401N004119999999N0000001N9+00001+99999100201ADDGF108991999999999999999999
0029029500999991903040706004+61483+021350FM-12+000699999V0202001N006219999999N0000001N9+00001+99999099581ADDGF108991999999999999999999
0029029500999991903040713004+61483+021350FM-12+000699999V0201101N008219999999N0000001N9+00221+99999099061ADDGF108991999999999999999999
0029029500999991903040720004+61483+021350FM-12+000699999V0201401N008219999999N0000001N9+00061+99999098711ADDGF108991999999999999999999
0029029500999991903040806004+61483+021350FM-12+000699999V0209991C000019999999N0000001N9+00061+99999099381ADDGF108991999999999999999999
0029029500999991903040813004+61483+021350FM-12+000699999V0203201N002119999999N0000001N9+00281+99999100111ADDGF108991999999999999999999
0029029500999991903040820004+61483+021350FM-12+000699999V0203201N002119999999N0000001N9+00061+99999100671ADDGF108991999999999999999999
0029029500999991903040906004+61483+021350FM-12+000699999V0200201N004119999999N0000001N9+00061+99999101231ADDGF108991999999999999999999
0029029500999991903040913004+61483+021350FM-12+000699999V0203601N006219999999N0000001N9+00171+99999101521ADDGF108991999999999999999999
0029029500999991903040920004+61483+021350FM-12+000699999V0203401N002119999999N0000001N9+00061+99999101751ADDGF102991999999999999999999
0029029500999991903041006004+61483+021350FM-12+000699999V0202001N002119999999N0000001N9+00001+99999102121ADDGF100991999999999999999999
0029029500999991903041013004+61483+021350FM-12+000699999V0202001N006219999999N0000001N9+00331+99999102201ADDGF102991999999999999999999
0029029500999991903041020004+61483+021350FM-12+000699999V0202001N004119999999N0000001N9+00111+99999102151ADDGF100991999999999999999999
0029029500999991903041106004+61483+021350FM-12+000699999V0202001N008219999999N0000001N9+00221+99999101831ADDGF106991999999999999999999
0029029500999991903041113004+61483+021350FM-12+000699999V0202001N011819999999N0000001N9+00441+99999101421ADDGF103991999999999999999999
0029029500999991903041120004+61483+021350FM-12+000699999V0201801N011819999999N0000001N9+00111+99999100831ADDGF102991999999999999999999
0029029500999991903041206004+61483+021350FM-12+000699999V0201801N008219999999N0000001N9+00171+99999100081ADDGF102991999999999999999999
0029029500999991903041213004+61483+021350FM-12+000699999V0201801N009819999999N0000001N9+00721+99999099871ADDGF102991999999999999999999
0029029500999991903041220004+61483+021350FM-12+000699999V0201601N004119999999N0000001N9+00281+99999099711ADDGF103991999999999999999999
0029029500999991903041306004+61483+021350FM-12+000699999V0201801N002119999999N0000001N9+00221+99999099701ADDGF108991999999999999999999
0029029500999991903041313004+61483+021350FM-12+000699999V0201401N002119999999N0000001N9+00331+99999099701ADDGF108991999999999999999999
0029029500999991903041320004+61483+021350FM-12+000699999V0203401N004119999999N0000001N9+00061+99999099441ADDGF108991999999999999999999
0029029500999991903041406004+61483+021350FM-12+000699999V0202901N011819999999N0000001N9+00001+99999098721ADDGF108991999999999999999999
0029029500999991903041413004+61483+021350FM-12+000699999V0202301N009819999999N0000001N9+00281+99999099141ADDGF108991999999999999999999
0029029500999991903041420004+61483+021350FM-12+000699999V0202301N013919999999N0000001N9+00171+99999099511ADDGF103991999999999999999999
0029029500999991903041506004+61483+021350FM-12+000699999V0201801N006219999999N0000001N9+00171+99999099841ADDGF108991999999999999999999
0029029500999991903041513004+61483+021350FM-12+000699999V0201601N006219999999N0000001N9+00441+99999099801ADDGF108991999999999999999999
0029029500999991903041520004+61483+021350FM-12+000699999V0201801N007219999999N0000001N9+00111+99999099821ADDGF106991999999999999999999
0029029500999991903041606004+61483+021350FM-12+000699999V0201401N004119999999N0000001N9+00171+99999099841ADDGF103991999999999999999999
0029029500999991903041613004+61483+021350FM-12+000699999V0201801N004119999999N0000001N9+00221+99999100031ADDGF108991999999999999999999
0029029500999991903041620004+61483+021350FM-12+000699999V0201101N004119999999N0000001N9+00061+99999100141ADDGF108991999999999999999999
0029029500999991903041706004+61483+021350FM-12+000699999V0200501N006219999999N0000001N9+00061+99999100241ADDGF108991999999999999999999
0029029500999991903041713004+61483+021350FM-12+000699999V0202901N006219999999N0000001N9+00111+99999100661ADDGF108991999999999999999999
0029029500999991903041720004+61483+021350FM-12+000699999V0202701N008219999999N0000001N9-00061+99999101031ADDGF108991999999999999999999
0029029500999991903041806004+61483+021350FM-12+000699999V0202701N006219999999N0000001N9+00061+99999101471ADDGF108991999999999999999999
0029029500999991903041813004+61483+021350FM-12+000699999V0202701N004119999999N0000001N9+00171+99999101801ADDGF108991999999999999999999
0029029500999991903041820004+61483+021350FM-12+000699999V0203601N004119999999N0000001N9-00061+99999101861ADDGF106991999999999999999999
0029029500999991903041906004+61483+021350FM-12+000699999V0200501N008219999999N0000001N9+00001+99999101351ADDGF107991999999999999999999
0029029500999991903041913004+61483+021350FM-12+000699999V0200501N015919999999N0000001N9+00391+99999100521ADDGF108991999999999999999999
0029029500999991903041920004+61483+021350FM-12+000699999V0200501N015919999999N0000001N9+00171+99999099881ADDGF108991999999999999999999
0029029500999991903042006004+61483+021350FM-12+000699999V0201101N008219999999N0000001N9+00391+99999098921ADDGF108991999999999999999999
0029029500999991903042013004+61483+021350FM-12+000699999V0201401N004119999999N0000001N9+00561+99999099391ADDGF108991999999999999999999
0029029500999991903042020004+61483+021350FM-12+000699999V0200901N006219999999N0000001N9+00221+99999099541ADDGF108991999999999999999999
0029029500999991903042106004+61483+021350FM-12+000699999V0201101N008219999999N0000001N9+00171+99999099381ADDGF108991999999999999999999
0029029500999991903042113004+61483+021350FM-12+000699999V0201101N004119999999N0000001N9+00221+99999099191ADDGF108991999999999999999999
0029029500999991903042120004+61483+021350FM-12+000699999V0200501N002119999999N0000001N9+00061+99999099191ADDGF108991999999999999999999
0029029500999991903042206004+61483+021350FM-12+000699999V0202301N002119999999N0000001N9+00061+99999099421ADDGF108991999999999999999999
0029029500999991903042213004+61483+021350FM-12+000699999V0202501N004119999999N0000001N9+00221+99999099861ADDGF105991999999999999999999
0029029500999991903042220004+61483+021350FM-12+000699999V0209991C000019999999N0000001N9-00171+99999100181ADDGF102991999999999999999999
0029029500999991903042306004+61483+021350FM-12+000699999V0201801N002119999999N0000001N9+00061+99999100471ADDGF102991999999999999999999
0029029500999991903042313004+61483+021350FM-12+000699999V0203201N004119999999N0000001N9+00221+99999100831ADDGF102991999999999999999999
0029029500999991903042320004+61483+021350FM-12+000699999V0200501N002119999999N0000001N9+00111+99999101101ADDGF102991999999999999999999
0029029500999991903042406004+61483+021350FM-12+000699999V0200901N004119999999N0000001N9+00221+99999101161ADDGF108991999999999999999999
0029029500999991903042413004+61483+021350FM-12+000699999V0200701N006219999999N0000001N9+00441+99999100941ADDGF108991999999999999999999
0029029500999991903042420004+61483+021350FM-12+000699999V0200701N008219999999N0000001N9+00391+99999100721ADDGF106991999999999999999999
0029029500999991903042506004+61483+021350FM-12+000699999V0201601N006219999999N0000001N9+00671+99999100821ADDGF106991999999999999999999
0000029500999991903042513004+61483+021350FM-12+000699999V0209991C000019999999N0000001N9+01331+99999101101
0029029500999991903042520004+61483+021350FM-12+000699999V0200901N004119999999N0000001N9+00941+99999101311ADDGF105991999999999999999999
0029029500999991903042606004+61483+021350FM-12+000699999V0201101N002119999999N0000001N9+00891+99999101401ADDGF100991999999999999999999
0029029500999991903042613004+61483+021350FM-12+000699999V0201601N002119999999N0000001N9+01501+99999101441ADDGF106991999999999999999999
0029029500999991903042620004+61483+021350FM-12+000699999V0202301N002119999999N0000001N9+00671+99999101431ADDGF108991999999999999999999
0029029500999991903042706004+61483+021350FM-12+000699999V0201101N004119999999N0000001N9+00781+99999101391ADDGF101991999999999999999999
0029029500999991903042713004+61483+021350FM-12+000699999V0200201N002119999999N0000001N9+01111+99999101261ADDGF106991999999999999999999
0029029500999991903042720004+61483+021350FM-12+000699999V0201101N004119999999N0000001N9+01111+99999101241ADDGF108991999999999999999999
0029029500999991903042806004+61483+021350FM-12+000699999V0200701N004119999999N0000001N9+00891+99999101361ADDGF108991999999999999999999
0029029500999991903042813004+61483+021350FM-12+000699999V0202301N002119999999N0000001N9+01671+99999101391ADDGF105991999999999999999999
0029029500999991903042820004+61483+021350FM-12+000699999V0209991C000019999999N0000001N9+00561+99999101461ADDGF106991999999999999999999
0029029500999991903042906004+61483+021350FM-12+000699999V0200901N002119999999N0000001N9+01001+99999101541ADDGF106991999999999999999999
0029029500999991903042913004+61483+021350FM-12+000699999V0203601N002119999999N0000001N9+00941+99999101401ADDGF108991999999999999999999
0029029500999991903042920004+61483+021350FM-12+000699999V0202301N002119999999N0000001N9+01061+99999101181ADDGF108991999999999999999999
0029029500999991903043006004+61483+021350FM-12+000699999V0201401N002119999999N0000001N9+01061+99999100801ADDGF108991999999999999999999
0029029500999991903043013004+61483+021350FM-12+000699999V0203601N004119999999N0000001N9+00941+99999100591ADDGF108991999999999999999999
0029029500999991903043020004+61483+021350FM-12+000699999V0200201N004119999999N0000001N9+00781+99999100401ADDGF108991999999999999999999
0029029500999991903050106004+61483+021350FM-12+000699999V0200201N006219999999N0000001N9+00721+99999100421ADDGF108991999999999999999999
0029029500999991903050113004+61483+021350FM-12+000699999V0200201N006219999999N0000001N9+00611+99999100541ADDGF108991999999999999999999
0029029500999991903050120004+61483+021350FM-12+000699999V0200501N008219999999N0000001N9+00611+99999100831ADDGF108991999999999999999999
0029029500999991903050206004+61483+021350FM-12+000699999V0200701N008219999999N0000001N9+00501+99999101141ADDGF108991999999999999999999
0029029500999991903050213004+61483+021350FM-12+000699999V0203401N004119999999N0000001N9+00501+99999101461ADDGF108991999999999999999999
0029029500999991903050220004+61483+021350FM-12+000699999V0202701N002119999999N0000001N9+00221+99999101521ADDGF102991999999999999999999
0029029500999991903050306004+61483+021350FM-12+000699999V0203201N002119999999N0000001N9+00281+99999101641ADDGF101991999999999999999999
0029029500999991903050313004+61483+021350FM-12+000699999V0202701N002119999999N0000001N9+00561+99999101621ADDGF108991999999999999999999
0029029500999991903050320004+61483+021350FM-12+000699999V0201101N002119999999N0000001N9+00501+99999101181ADDGF108991999999999999999999
0029029500999991903050406004+61483+021350FM-12+000699999V0202501N004119999999N0000001N9+00441+99999100821ADDGF108991999999999999999999
0029029500999991903050413004+61483+021350FM-12+000699999V0202701N002119999999N0000001N9+00501+99999100791ADDGF108991999999999999999999
0029029500999991903050420004+61483+021350FM-12+000699999V0203601N004119999999N0000001N9+00331+99999100861ADDGF108991999999999999999999
0029029500999991903050506004+61483+021350FM-12+000699999V0200701N006219999999N0000001N9+00441+99999100871ADDGF108991999999999999999999
0029029500999991903050513004+61483+021350FM-12+000699999V0200701N008219999999N0000001N9+00391+99999100681ADDGF108991999999999999999999
0029029500999991903050520004+61483+021350FM-12+000699999V0200701N011819999999N0000001N9+00281+99999100501ADDGF108991999999999999999999
0029029500999991903050606004+61483+021350FM-12+000699999V0200701N009819999999N0000001N9+00331+99999100191ADDGF108991999999999999999999
0029029500999991903050613004+61483+021350FM-12+000699999V0200901N008219999999N0000001N9+00391+99999100161ADDGF108991999999999999999999
0029029500999991903050620004+61483+021350FM-12+000699999V0200901N008219999999N0000001N9+00221+99999100041ADDGF108991999999999999999999
0029029500999991903050706004+61483+021350FM-12+000699999V0200701N008219999999N0000001N9+00221+99999100121ADDGF108991999999999999999999
0029029500999991903050713004+61483+021350FM-12+000699999V0200701N004119999999N0000001N9+00501+99999100561ADDGF108991999999999999999999
0029029500999991903050720004+61483+021350FM-12+000699999V0200901N002119999999N0000001N9+00441+99999100831ADDGF108991999999999999999999
0029029500999991903050806004+61483+021350FM-12+000699999V0200901N006219999999N0000001N9+00501+99999101101ADDGF108991999999999999999999
0029029500999991903050813004+61483+021350FM-12+000699999V0203401N002119999999N0000001N9+00671+99999101341ADDGF108991999999999999999999
0029029500999991903050820004+61483+021350FM-12+000699999V0200201N002119999999N0000001N9+00281+99999101431ADDGF105991999999999999999999
0029029500999991903050906004+61483+021350FM-12+000699999V0201601N004119999999N0000001N9+00501+99999101661ADDGF106991999999999999999999
0029029500999991903050913004+61483+021350FM-12+000699999V0202901N002119999999N0000001N9+00611+99999101701ADDGF108991999999999999999999
0029029500999991903050920004+61483+021350FM-12+000699999V0203401N002119999999N0000001N9+00331+99999101641ADDGF108991999999999999999999
0029029500999991903051006004+61483+021350FM-12+000699999V0201401N004119999999N0000001N9+00281+99999101671ADDGF108991999999999999999999
0029029500999991903051013004+61483+021350FM-12+000699999V0203401N004119999999N0000001N9+00561+99999101471ADDGF102991999999999999999999
0029029500999991903051020004+61483+021350FM-12+000699999V0200201N002119999999N0000001N9+00331+99999101351ADDGF102991999999999999999999
0029029500999991903051106004+61483+021350FM-12+000699999V0201401N002119999999N0000001N9+00441+99999101101ADDGF102991999999999999999999
0029029500999991903051113004+61483+021350FM-12+000699999V0203401N002119999999N0000001N9+00781+99999100751ADDGF101991999999999999999999
0029029500999991903051120004+61483+021350FM-12+000699999V0200201N001019999999N0000001N9+00391+99999100641ADDGF102991999999999999999999
0029029500999991903051206004+61483+021350FM-12+000699999V0200501N004119999999N0000001N9+00501+99999100591ADDGF102991999999999999999999
0029029500999991903051213004+61483+021350FM-12+000699999V0203401N006219999999N0000001N9+00671+99999100471ADDGF106991999999999999999999
0029029500999991903051220004+61483+021350FM-12+000699999V0203601N004119999999N0000001N9+00441+99999100381ADDGF106991999999999999999999
0029029500999991903051306004+61483+021350FM-12+000699999V0201601N002119999999N0000001N9+00501+99999100181ADDGF106991999999999999999999
0029029500999991903051313004+61483+021350FM-12+000699999V0203201N002119999999N0000001N9+00561+99999100161ADDGF108991999999999999999999
0029029500999991903051320004+61483+021350FM-12+000699999V0202901N006219999999N0000001N9+00391+99999100221ADDGF108991999999999999999999
0029029500999991903051406004+61483+021350FM-12+000699999V0202901N004119999999N0000001N9+00171+99999100401ADDGF108991999999999999999999
0029029500999991903051413004+61483+021350FM-12+000699999V0202001N008219999999N0000001N9+00941+99999100421ADDGF105991999999999999999999
0029029500999991903051420004+61483+021350FM-12+000699999V0201601N006219999999N0000001N9+00561+99999100181ADDGF108991999999999999999999
0029029500999991903051506004+61483+021350FM-12+000699999V0202501N006219999999N0000001N9+00391+99999100151ADDGF108991999999999999999999
0029029500999991903051513004+61483+021350FM-12+000699999V0203201N006219999999N0000001N9+00391+99999100871ADDGF108991999999999999999999
0029029500999991903051520004+61483+021350FM-12+000699999V0201801N004119999999N0000001N9+00501+99999100911ADDGF103991999999999999999999
0029029500999991903051606004+61483+021350FM-12+000699999V0202001N008219999999N0000001N9+00721+99999100381ADDGF106991999999999999999999
0029029500999991903051613004+61483+021350FM-12+000699999V0202301N009819999999N0000001N9+01001+99999100321ADDGF106991999999999999999999
0029029500999991903051620004+61483+021350FM-12+000699999V0202301N004119999999N0000001N9+00501+99999100351ADDGF107991999999999999999999
0029029500999991903051706004+61483+021350FM-12+000699999V0202501N004119999999N0000001N9+00501+99999100301ADDGF101991999999999999999999
0029029500999991903051713004+61483+021350FM-12+000699999V0202501N006219999999N0000001N9+00671+99999100271ADDGF100991999999999999999999
0029029500999991903051720004+61483+021350FM-12+000699999V0202001N004119999999N0000001N9+00501+99999100231ADDGF102991999999999999999999
0029029500999991903051806004+61483+021350FM-12+000699999V0201801N002119999999N0000001N9+00671+99999100191ADDGF108991999999999999999999
0029029500999991903051813004+61483+021350FM-12+000699999V0202501N002119999999N0000001N9+00721+99999100361ADDGF108991999999999999999999
0029029500999991903051820004+61483+021350FM-12+000699999V0203401N004119999999N0000001N9+00501+99999100311ADDGF108991999999999999999999
0029029500999991903051906004+61483+021350FM-12+000699999V0200501N006219999999N0000001N9+00671+99999100241ADDGF108991999999999999999999
0000029500999991903051913004+61483+021350FM-12+000699999V02099999999999999999N0000001N9+00221+99999100031
0029029500999991903051920004+61483+021350FM-12+000699999V0203601N009819999999N0000001N9+00501+99999099951ADDGF108991999999999999999999
0029029500999991903052006004+61483+021350FM-12+000699999V0203601N002119999999N0000001N9+00501+99999100061ADDGF108991999999999999999999
0029029500999991903052013004+61483+021350FM-12+000699999V0202901N004119999999N0000001N9+00501+99999100481ADDGF108991999999999999999999
0029029500999991903052020004+61483+021350FM-12+000699999V0201801N004119999999N0000001N9+00561+99999100861ADDGF102991999999999999999999
0029029500999991903052106004+61483+021350FM-12+000699999V0201801N002119999999N0000001N9+00671+99999101261ADDGF100991999999999999999999
0029029500999991903052113004+61483+021350FM-12+000699999V0202701N004119999999N0000001N9+00671+99999101591ADDGF102991999999999999999999
0029029500999991903052120004+61483+021350FM-12+000699999V0203601N006219999999N0000001N9+00501+99999101901ADDGF101991999999999999999999
0029029500999991903052206004+61483+021350FM-12+000699999V0203401N002119999999N0000001N9+00561+99999102241ADDGF100991999999999999999999
0029029500999991903052213004+61483+021350FM-12+000699999V0203201N008219999999N0000001N9+00891+99999102381ADDGF100991999999999999999999
0029029500999991903052220004+61483+021350FM-12+000699999V0203601N004119999999N0000001N9+00721+99999102441ADDGF103991999999999999999999
0029029500999991903052306004+61483+021350FM-12+000699999V0200901N002119999999N0000001N9+01061+99999102471ADDGF101991999999999999999999
0029029500999991903052313004+61483+021350FM-12+000699999V0202901N004119999999N0000001N9+01221+99999102431ADDGF100991999999999999999999
0029029500999991903052320004+61483+021350FM-12+000699999V0200901N002119999999N0000001N9+01111+99999102311ADDGF101991999999999999999999
0029029500999991903052406004+61483+021350FM-12+000699999V0201801N002119999999N0000001N9+01281+99999102301ADDGF102991999999999999999999
0029029500999991903052413004+61483+021350FM-12+000699999V0203401N011819999999N0000001N9+00891+99999102461ADDGF105991999999999999999999
0029029500999991903052420004+61483+021350FM-12+000699999V0200201N009819999999N0000001N9+01061+99999102481ADDGF107991999999999999999999
0029029500999991903052506004+61483+021350FM-12+000699999V0200501N006219999999N0000001N9+01111+99999102521ADDGF102991999999999999999999
0029029500999991903052513004+61483+021350FM-12+000699999V0200201N002119999999N0000001N9+01281+99999102441ADDGF107991999999999999999999
0029029500999991903052520004+61483+021350FM-12+000699999V0209991C000019999999N0000001N9+01501+99999102401ADDGF108991999999999999999999
0029029500999991903052606004+61483+021350FM-12+000699999V0203601N004119999999N0000001N9+01001+99999102351ADDGF103991999999999999999999
0029029500999991903052613004+61483+021350FM-12+000699999V0203601N009819999999N0000001N9+01001+99999102441ADDGF101991999999999999999999
0029029500999991903052620004+61483+021350FM-12+000699999V0203601N006219999999N0000001N9+00721+99999102551ADDGF101991999999999999999999
0029029500999991903052706004+61483+021350FM-12+000699999V0203601N004119999999N0000001N9+00831+99999102871ADDGF100991999999999999999999
0029029500999991903052713004+61483+021350FM-12+000699999V0203401N008219999999N0000001N9+00941+99999102881ADDGF100991999999999999999999
0029029500999991903052720004+61483+021350FM-12+000699999V0200201N004119999999N0000001N9+00831+99999102751ADDGF100991999999999999999999
0029029500999991903052806004+61483+021350FM-12+000699999V0209991C000019999999N0000001N9+01111+99999102791ADDGF102991999999999999999999
0029029500999991903052813004+61483+021350FM-12+000699999V0202701N002119999999N0000001N9+01281+99999102711ADDGF102991999999999999999999
0029029500999991903052820004+61483+021350FM-12+000699999V0209991C000019999999N0000001N9+01221+99999102441ADDGF101991999999999999999999
0029029500999991903052906004+61483+021350FM-12+000699999V0202001N004119999999N0000001N9+01281+99999102341ADDGF108991999999999999999999
0029029500999991903052913004+61483+021350FM-12+000699999V0202301N004119999999N0000001N9+01721+99999102141ADDGF100991999999999999999999
0029029500999991903052920004+61483+021350FM-12+000699999V0201801N002119999999N0000001N9+01501+99999101901ADDGF100991999999999999999999
0029029500999991903053006004+61483+021350FM-12+000699999V0202001N004119999999N0000001N9+01331+99999101791ADDGF105991999999999999999999
0029029500999991903053013004+61483+021350FM-12+000699999V0202001N006219999999N0000001N9+01671+99999101641ADDGF101991999999999999999999
0029029500999991903053020004+61483+021350FM-12+000699999V0201801N002119999999N0000001N9+01611+99999101511ADDGF106991999999999999999999
0029029500999991903053106004+61483+021350FM-12+000699999V0201801N004119999999N0000001N9+01671+99999101341ADDGF108991999999999999999999
0029029500999991903053113004+61483+021350FM-12+000699999V0202001N006219999999N0000001N9+01501+99999101181ADDGF108991999999999999999999
0029029500999991903053120004+61483+021350FM-12+000699999V0201601N004119999999N0000001N9+01501+99999100941ADDGF108991999999999999999999
0029029500999991903060106004+61483+021350FM-12+000699999V0203201N002119999999N0000001N9+01111+99999100861ADDGF108991999999999999999999
0029029500999991903060113004+61483+021350FM-12+000699999V0202901N004119999999N0000001N9+01171+99999100881ADDGF100991999999999999999999
0029029500999991903060120004+61483+021350FM-12+000699999V0201801N001019999999N0000001N9+01221+99999100741ADDGF101991999999999999999999
0029029500999991903060206004+61483+021350FM-12+000699999V0201801N006219999999N0000001N9+01611+99999100561ADDGF102991999999999999999999
0029029500999991903060213004+61483+021350FM-12+000699999V0202001N008219999999N0000001N9+01891+99999100471ADDGF102991999999999999999999
0029029500999991903060220004+61483+021350FM-12+000699999V0202001N006219999999N0000001N9+01501+99999100391ADDGF106991999999999999999999
0029029500999991903060306004+61483+021350FM-12+000699999V0203601N009819999999N0000001N9+00781+99999100871ADDGF106991999999999999999999
0029029500999991903060313004+61483+021350FM-12+000699999V0203401N008219999999N0000001N9+00891+99999101161ADDGF104991999999999999999999
0029029500999991903060320004+61483+021350FM-12+000699999V0203401N011819999999N0000001N9+00891+99999101261ADDGF102991999999999999999999
0029029500999991903060406004+61483+021350FM-12+000699999V0200201N015919999999N0000001N9+00721+99999101401ADDGF108991999999999999999999
0029029500999991903060413004+61483+021350FM-12+000699999V0203401N013919999999N0000001N9+00781+99999101501ADDGF106991999999999999999999
0029029500999991903060420004+61483+021350FM-12+000699999V0203601N006219999999N0000001N9+00501+99999101481ADDGF102991999999999999999999
0029029500999991903060506004+61483+021350FM-12+000699999V0203601N006219999999N0000001N9+00501+99999101221ADDGF104991999999999999999999
0029029500999991903060513004+61483+021350FM-12+000699999V0203401N009819999999N0000001N9+00781+99999100901ADDGF102991999999999999999999
0029029500999991903060520004+61483+021350FM-12+000699999V0203401N011819999999N0000001N9+00721+99999100701ADDGF102991999999999999999999
0029029500999991903060606004+61483+021350FM-12+000699999V0203401N013919999999N0000001N9+00611+99999100921ADDGF100991999999999999999999
0029029500999991903060613004+61483+021350FM-12+000699999V0203201N008219999999N0000001N9+00831+99999101121ADDGF102991999999999999999999
0029029500999991903060620004+61483+021350FM-12+000699999V0200201N004119999999N0000001N9+00611+99999101501ADDGF101991999999999999999999
0029029500999991903060706004+61483+021350FM-12+000699999V0209991C000019999999N0000001N9+00891+99999102231ADDGF100991999999999999999999
0029029500999991903060713004+61483+021350FM-12+000699999V0202501N004119999999N0000001N9+00891+99999102541ADDGF104991999999999999999999
0029029500999991903060720004+61483+021350FM-12+000699999V0202001N002119999999N0000001N9+00781+99999102581ADDGF106991999999999999999999
0029029500999991903060806004+61483+021350FM-12+000699999V0203601N004119999999N0000001N9+00831+99999102711ADDGF102991999999999999999999
0029029500999991903060813004+61483+021350FM-12+000699999V0203401N004119999999N0000001N9+00941+99999102791ADDGF100991999999999999999999
0029029500999991903060820004+61483+021350FM-12+000699999V0203401N002119999999N0000001N9+00941+99999102711ADDGF100991999999999999999999
0029029500999991903060906004+61483+021350FM-12+000699999V0209991C000019999999N0000001N9+01611+99999102721ADDGF100991999999999999999999
0029029500999991903060913004+61483+021350FM-12+000699999V0203201N002119999999N0000001N9+01611+99999102641ADDGF100991999999999999999999
0029029500999991903060920004+61483+021350FM-12+000699999V0209991C000019999999N0000001N9+01391+99999102321ADDGF100991999999999999999999
0029029500999991903061006004+61483+021350FM-12+000699999V0201801N002119999999N0000001N9+01501+99999101961ADDGF100991999999999999999999
0029029500999991903061013004+61483+021350FM-12+000699999V0202301N004119999999N0000001N9+01611+99999101551ADDGF102991999999999999999999
0029029500999991903061020004+61483+021350FM-12+000699999V0202001N006219999999N0000001N9+01331+99999101071ADDGF106991999999999999999999
0029029500999991903061106004+61483+021350FM-12+000699999V0203201N006219999999N0000001N9+00831+99999100581ADDGF108991999999999999999999
0029029500999991903061113004+61483+021350FM-12+000699999V0203601N008219999999N0000001N9+00941+99999100721ADDGF108991999999999999999999
0029029500999991903061120004+61483+021350FM-12+000699999V0200501N008219999999N0000001N9+00891+99999100881ADDGF108991999999999999999999
0029029500999991903061206004+61483+021350FM-12+000699999V0200501N006219999999N0000001N9+00721+99999100901ADDGF108991999999999999999999
0029029500999991903061213004+61483+021350FM-12+000699999V0200201N004119999999N0000001N9+00941+99999101001ADDGF108991999999999999999999
0029029500999991903061220004+61483+021350FM-12+000699999V0200201N004119999999N0000001N9+00831+99999101181ADDGF108991999999999999999999
0029029500999991903061306004+61483+021350FM-12+000699999V0200501N006219999999N0000001N9+00721+99999101321ADDGF108991999999999999999999
0029029500999991903061313004+61483+021350FM-12+000699999V0200501N006219999999N0000001N9+01001+99999101421ADDGF108991999999999999999999
0029029500999991903061320004+61483+021350FM-12+000699999V0200701N004119999999N0000001N9+00831+99999101671ADDGF108991999999999999999999
0029029500999991903061406004+61483+021350FM-12+000699999V0200501N004119999999N0000001N9+01001+99999101791ADDGF106991999999999999999999
0029029500999991903061413004+61483+021350FM-12+000699999V0203601N006219999999N0000001N9+01001+99999101881ADDGF100991999999999999999999
0029029500999991903061420004+61483+021350FM-12+000699999V0200201N002119999999N0000001N9+00941+99999101861ADDGF100991999999999999999999
0029029500999991903061506004+61483+021350FM-12+000699999V0209991C000019999999N0000001N9+01281+99999101761ADDGF100991999999999999999999
0029029500999991903061513004+61483+021350FM-12+000699999V0202901N004119999999N0000001N9+01111+99999101581ADDGF100991999999999999999999
0029029500999991903061520004+61483+021350FM-12+000699999V0209991C000019999999N0000001N9+00831+99999101441ADDGF102991999999999999999999
0029029500999991903061606004+61483+021350FM-12+000699999V0209991C000019999999N0000001N9+01171+99999101461ADDGF100991999999999999999999
0029029500999991903061613004+61483+021350FM-12+000699999V0203601N002119999999N0000001N9+01331+99999101461ADDGF102991999999999999999999
0029029500999991903061620004+61483+021350FM-12+000699999V0200501N002119999999N0000001N9+01171+99999101381ADDGF102991999999999999999999
0029029500999991903061706004+61483+021350FM-12+000699999V0200701N004119999999N0000001N9+01441+99999101141ADDGF103991999999999999999999
0029029500999991903061713004+61483+021350FM-12+000699999V0203201N002119999999N0000001N9+01561+99999100901ADDGF100991999999999999999999
0029029500999991903061720004+61483+021350FM-12+000699999V0200701N002119999999N0000001N9+01561+99999100631ADDGF101991999999999999999999
0029029500999991903061806004+61483+021350FM-12+000699999V0200701N002119999999N0000001N9+01391+99999099961ADDGF108991999999999999999999
0029029500999991903061813004+61483+021350FM-12+000699999V0202901N004119999999N0000001N9+01331+99999099841ADDGF108991999999999999999999
0029029500999991903061820004+61483+021350FM-12+000699999V0202301N006219999999N0000001N9+01281+99999099741ADDGF108991999999999999999999
0029029500999991903061906004+61483+021350FM-12+000699999V0202001N009819999999N0000001N9+01221+99999099941ADDGF104991999999999999999999
0029029500999991903061913004+61483+021350FM-12+000699999V0202001N011819999999N0000001N9+01441+99999100271ADDGF107991999999999999999999
0029029500999991903061920004+61483+021350FM-12+000699999V0202001N009819999999N0000001N9+01111+99999100481ADDGF102991999999999999999999
0029029500999991903062006004+61483+021350FM-12+000699999V0202001N006219999999N0000001N9+01111+99999100861ADDGF106991999999999999999999
0029029500999991903062013004+61483+021350FM-12+000699999V0202301N004119999999N0000001N9+01441+99999101191ADDGF108991999999999999999999
0029029500999991903062020004+61483+021350FM-12+000699999V0200501N002119999999N0000001N9+00941+99999101231ADDGF108991999999999999999999
0029029500999991903062106004+61483+021350FM-12+000699999V0200501N008219999999N0000001N9+00941+99999100961ADDGF108991999999999999999999
0029029500999991903062113004+61483+021350FM-12+000699999V0200501N009819999999N0000001N9+01061+99999100591ADDGF108991999999999999999999
0029029500999991903062120004+61483+021350FM-12+000699999V0200501N009819999999N0000001N9+00831+99999100631ADDGF108991999999999999999999
0029029500999991903062206004+61483+021350FM-12+000699999V0200501N008219999999N0000001N9+00781+99999100701ADDGF108991999999999999999999
0029029500999991903062213004+61483+021350FM-12+000699999V0203601N011819999999N0000001N9+00781+99999100861ADDGF108991999999999999999999
0029029500999991903062220004+61483+021350FM-12+000699999V0203401N006219999999N0000001N9+00831+99999101281ADDGF106991999999999999999999
0029029500999991903062306004+61483+021350FM-12+000699999V0202701N004119999999N0000001N9+00891+99999101341ADDGF100991999999999999999999
0029029500999991903062313004+61483+021350FM-12+000699999V0203201N006219999999N0000001N9+01111+99999101711ADDGF100991999999999999999999
0029029500999991903062320004+61483+021350FM-12+000699999V0202901N006219999999N0000001N9+00941+99999101901ADDGF100991999999999999999999
0029029500999991903062406004+61483+021350FM-12+000699999V0203601N004119999999N0000001N9+00941+99999102161ADDGF104991999999999999999999
0029029500999991903062413004+61483+021350FM-12+000699999V0200201N004119999999N0000001N9+01001+99999102311ADDGF106991999999999999999999
0029029500999991903062420004+61483+021350FM-12+000699999V0200501N004119999999N0000001N9+01001+99999102311ADDGF108991999999999999999999
0029029500999991903062506004+61483+021350FM-12+000699999V0200501N002119999999N0000001N9+01221+99999102341ADDGF108991999999999999999999
0029029500999991903062513004+61483+021350FM-12+000699999V0203601N004119999999N0000001N9+01221+99999102381ADDGF102991999999999999999999
0029029500999991903062520004+61483+021350FM-12+000699999V0200201N004119999999N0000001N9+01061+99999102381ADDGF102991999999999999999999
0029029500999991903062606004+61483+021350FM-12+000699999V0203601N006219999999N0000001N9+00941+99999102461ADDGF100991999999999999999999
0029029500999991903062613004+61483+021350FM-12+000699999V0203401N009819999999N0000001N9+00941+99999102471ADDGF100991999999999999999999
0029029500999991903062620004+61483+021350FM-12+000699999V0200201N006219999999N0000001N9+00781+99999102461ADDGF106991999999999999999999
0029029500999991903062706004+61483+021350FM-12+000699999V0200501N002119999999N0000001N9+01001+99999102501ADDGF103991999999999999999999
0029029500999991903062713004+61483+021350FM-12+000699999V0200201N006219999999N0000001N9+01111+99999102501ADDGF102991999999999999999999
0029029500999991903062720004+61483+021350FM-12+000699999V0203601N002119999999N0000001N9+00831+99999102461ADDGF101991999999999999999999
0029029500999991903062806004+61483+021350FM-12+000699999V0203201N002119999999N0000001N9+01001+99999102481ADDGF100991999999999999999999
0000029500999991903062813004+61483+021350FM-12+000699999V02099999999999999999N0000001N9+01441+99999102501
0029029500999991903062820004+61483+021350FM-12+000699999V0209991C000019999999N0000001N9+01221+99999102401ADDGF102991999999999999999999
0029029500999991903062906004+61483+021350FM-12+000699999V0202001N006219999999N0000001N9+01221+99999102281ADDGF108991999999999999999999
0029029500999991903062913004+61483+021350FM-12+000699999V0202001N006219999999N0000001N9+01331+99999102121ADDGF108991999999999999999999
0029029500999991903062920004+61483+021350FM-12+000699999V0202001N008219999999N0000001N9+01171+99999101781ADDGF108991999999999999999999
0029029500999991903063006004+61483+021350FM-12+000699999V0202001N008219999999N0000001N9+01331+99999101421ADDGF106991999999999999999999
0029029500999991903063013004+61483+021350FM-12+000699999V0202001N008219999999N0000001N9+01611+99999101201ADDGF102991999999999999999999
0029029500999991903063020004+61483+021350FM-12+000699999V0202001N006219999999N0000001N9+01171+99999101031ADDGF106991999999999999999999
0029029500999991903070106004+61483+021350FM-12+000699999V0203201N006219999999N0000001N9+01061+99999101241ADDGF100991999999999999999999
0029029500999991903070113004+61483+021350FM-12+000699999V0202701N004119999999N0000001N9+01281+99999101401ADDGF100991999999999999999999
0029029500999991903070120004+61483+021350FM-12+000699999V0202301N002119999999N0000001N9+01171+99999101441ADDGF101991999999999999999999
0029029500999991903070206004+61483+021350FM-12+000699999V0201801N006219999999N0000001N9+01331+99999101241ADDGF102991999999999999999999
0029029500999991903070213004+61483+021350FM-12+000699999V0202001N008219999999N0000001N9+01671+99999101081ADDGF102991999999999999999999
0029029500999991903070220004+61483+021350FM-12+000699999V0202001N009819999999N0000001N9+01331+99999100901ADDGF106991999999999999999999
0029029500999991903070306004+61483+021350FM-12+000699999V0202901N002119999999N0000001N9+01221+99999101181ADDGF101991999999999999999999
0029029500999991903070313004+61483+021350FM-12+000699999V0202901N002119999999N0000001N9+01331+99999101301ADDGF106991999999999999999999
0029029500999991903070320004+61483+021350FM-12+000699999V0202301N002119999999N0000001N9+01221+99999101161ADDGF106991999999999999999999
0029029500999991903070406004+61483+021350FM-12+000699999V0201601N006219999999N0000001N9+01611+99999100551ADDGF108991999999999999999999
0029029500999991903070413004+61483+021350FM-12+000699999V0202001N009819999999N0000001N9+01611+99999100341ADDGF102991999999999999999999
0029029500999991903070420004+61483+021350FM-12+000699999V0202301N009819999999N0000001N9+01331+99999100321ADDGF102991999999999999999999
0029029500999991903070506004+61483+021350FM-12+000699999V0202501N011819999999N0000001N9+01281+99999100221ADDGF108991999999999999999999
0029029500999991903070513004+61483+021350FM-12+000699999V0202901N006219999999N0000001N9+01221+99999100581ADDGF100991999999999999999999
0029029500999991903070520004+61483+021350FM-12+000699999V0202501N006219999999N0000001N9+01171+99999100801ADDGF101991999999999999999999
0029029500999991903070606004+61483+021350FM-12+000699999V0200701N002119999999N0000001N9+01281+99999100911ADDGF105991999999999999999999
0029029500999991903070613004+61483+021350FM-12+000699999V0203601N006219999999N0000001N9+01281+99999100941ADDGF104991999999999999999999
0029029500999991903070620004+61483+021350FM-12+000699999V0200501N002119999999N0000001N9+01061+99999100981ADDGF108991999999999999999999
0029029500999991903070706004+61483+021350FM-12+000699999V0201401N002119999999N0000001N9+01391+99999100981ADDGF103991999999999999999999
0029029500999991903070713004+61483+021350FM-12+000699999V0200201N006219999999N0000001N9+01501+99999101061ADDGF108991999999999999999999
0029029500999991903070720004+61483+021350FM-12+000699999V0200701N004119999999N0000001N9+01561+99999101161ADDGF108991999999999999999999
0029029500999991903070806004+61483+021350FM-12+000699999V0200701N008219999999N0000001N9+01441+99999101101ADDGF108991999999999999999999
0029029500999991903070813004+61483+021350FM-12+000699999V0200701N008219999999N0000001N9+01891+99999101141ADDGF108991999999999999999999
0029029500999991903070820004+61483+021350FM-12+000699999V0200701N004119999999N0000001N9+01441+99999101201ADDGF108991999999999999999999
0029029500999991903070906004+61483+021350FM-12+000699999V0200901N004119999999N0000001N9+01501+99999101041ADDGF108991999999999999999999
0029029500999991903070913004+61483+021350FM-12+000699999V0201401N002119999999N0000001N9+01831+99999101081ADDGF108991999999999999999999
0029029500999991903070920004+61483+021350FM-12+000699999V0203401N004119999999N0000001N9+01221+99999101161ADDGF108991999999999999999999
0029029500999991903071006004+61483+021350FM-12+000699999V0203601N009819999999N0000001N9+01221+99999101391ADDGF108991999999999999999999
0029029500999991903071013004+61483+021350FM-12+000699999V0203201N004119999999N0000001N9+01171+99999101421ADDGF101991999999999999999999
0029029500999991903071020004+61483+021350FM-12+000699999V0209991C000019999999N0000001N9+01111+99999101401ADDGF107991999999999999999999
0029029500999991903071106004+61483+021350FM-12+000699999V0201101N004119999999N0000001N9+01391+99999101071ADDGF104991999999999999999999
0029029500999991903071113004+61483+021350FM-12+000699999V0202301N008219999999N0000001N9+01891+99999100941ADDGF108991999999999999999999
0000029500999991903071120004+61483+021350FM-12+000699999V02099999999999999999N0000001N9+01281+99999100841
0029029500999991903071206004+61483+021350FM-12+000699999V0203601N004119999999N0000001N9+01281+99999100561ADDGF102991999999999999999999
0029029500999991903071213004+61483+021350FM-12+000699999V0203401N008219999999N0000001N9+01331+99999100501ADDGF101991999999999999999999
0029029500999991903071220004+61483+021350FM-12+000699999V0203201N002119999999N0000001N9+01221+99999100341ADDGF101991999999999999999999
0029029500999991903071306004+61483+021350FM-12+000699999V0201801N004119999999N0000001N9+01441+99999100041ADDGF102991999999999999999999
0029029500999991903071313004+61483+021350FM-12+000699999V0201801N004119999999N0000001N9+01501+99999099981ADDGF108991999999999999999999
0029029500999991903071320004+61483+021350FM-12+000699999V0201801N004119999999N0000001N9+01281+99999099861ADDGF102991999999999999999999
0029029500999991903071406004+61483+021350FM-12+000699999V0202001N004119999999N0000001N9+01441+99999099951ADDGF100991999999999999999999
0029029500999991903071413004+61483+021350FM-12+000699999V0202301N004119999999N0000001N9+01501+99999100081ADDGF101991999999999999999999
0029029500999991903071420004+61483+021350FM-12+000699999V0202301N002119999999N0000001N9+01171+99999100081ADDGF102991999999999999999999
0029029500999991903071506004+61483+021350FM-12+000699999V0202501N006219999999N0000001N9+01281+99999100041ADDGF104991999999999999999999
0029029500999991903071513004+61483+021350FM-12+000699999V0202701N008219999999N0000001N9+01331+99999100181ADDGF101991999999999999999999
0029029500999991903071520004+61483+021350FM-12+000699999V0202501N009819999999N0000001N9+01221+99999100321ADDGF106991999999999999999999
0029029500999991903071606004+61483+021350FM-12+000699999V0202501N006219999999N0000001N9+01171+99999100631ADDGF102991999999999999999999
0029029500999991903071613004+61483+021350FM-12+000699999V0203201N006219999999N0000001N9+01281+99999101061ADDGF101991999999999999999999
0029029500999991903071620004+61483+021350FM-12+000699999V0202501N006219999999N0000001N9+01221+99999101341ADDGF101991999999999999999999
0029029500999991903071706004+61483+021350FM-12+000699999V0201801N004119999999N0000001N9+01441+99999101481ADDGF108991999999999999999999
0029029500999991903071713004+61483+021350FM-12+000699999V0202001N006219999999N0000001N9+02001+99999101441ADDGF108991999999999999999999
0029029500999991903071720004+61483+021350FM-12+000699999V0201401N006219999999N0000001N9+01391+99999101271ADDGF108991999999999999999999
0029029500999991903071806004+61483+021350FM-12+000699999V0200701N013919999999N0000001N9+01111+99999100671ADDGF108991999999999999999999
0029029500999991903071813004+61483+021350FM-12+000699999V0200701N008219999999N0000001N9+01171+99999100021ADDGF108991999999999999999999
0029029500999991903071820004+61483+021350FM-12+000699999V0200501N008219999999N0000001N9+01221+99999099561ADDGF108991999999999999999999
0029029500999991903071906004+61483+021350FM-12+000699999V0203601N008219999999N0000001N9+01171+99999099481ADDGF108991999999999999999999
0029029500999991903071913004+61483+021350FM-12+000699999V0203601N013919999999N0000001N9+01221+99999099711ADDGF108991999999999999999999
0029029500999991903071920004+61483+021350FM-12+000699999V0203401N009819999999N0000001N9+01221+99999100281ADDGF107991999999999999999999
0029029500999991903072006004+61483+021350FM-12+000699999V0203401N008219999999N0000001N9+01281+99999100831ADDGF101991999999999999999999
0029029500999991903072013004+61483+021350FM-12+000699999V0203401N006219999999N0000001N9+01391+99999101101ADDGF103991999999999999999999
0029029500999991903072020004+61483+021350FM-12+000699999V0203401N004119999999N0000001N9+01221+99999101321ADDGF101991999999999999999999
0029029500999991903072106004+61483+021350FM-12+000699999V0202701N004119999999N0000001N9+01281+99999101341ADDGF102991999999999999999999
0029029500999991903072113004+61483+021350FM-12+000699999V0203401N006219999999N0000001N9+01441+99999101311ADDGF102991999999999999999999
0029029500999991903072120004+61483+021350FM-12+000699999V0202701N004119999999N0000001N9+01281+99999101341ADDGF103991999999999999999999
0029029500999991903072206004+61483+021350FM-12+000699999V0200701N002119999999N0000001N9+01281+99999101341ADDGF100991999999999999999999
0029029500999991903072213004+61483+021350FM-12+000699999V0203601N008219999999N0000001N9+01281+99999101271ADDGF101991999999999999999999
0029029500999991903072220004+61483+021350FM-12+000699999V0203601N004119999999N0000001N9+01281+99999101311ADDGF107991999999999999999999
0029029500999991903072306004+61483+021350FM-12+000699999V0200201N002119999999N0000001N9+01331+99999101341ADDGF108991999999999999999999
0029029500999991903072313004+61483+021350FM-12+000699999V0203401N006219999999N0000001N9+01221+99999101381ADDGF108991999999999999999999
0029029500999991903072320004+61483+021350FM-12+000699999V0203601N002119999999N0000001N9+01281+99999101471ADDGF100991999999999999999999
0029029500999991903072406004+61483+021350FM-12+000699999V0200501N002119999999N0000001N9+01441+99999101541ADDGF102991999999999999999999
0029029500999991903072413004+61483+021350FM-12+000699999V0203401N006219999999N0000001N9+01611+99999101551ADDGF101991999999999999999999
0000029500999991903072420004+61483+021350FM-12+000699999V02099999999999999999N0000001N9+01501+99999101561
0029029500999991903072506004+61483+021350FM-12+000699999V0200901N002119999999N0000001N9+01721+99999101721ADDGF100991999999999999999999
0029029500999991903072513004+61483+021350FM-12+000699999V0203401N008219999999N0000001N9+01611+99999101421ADDGF100991999999999999999999
0029029500999991903072520004+61483+021350FM-12+000699999V0203601N004119999999N0000001N9+01501+99999101381ADDGF100991999999999999999999
0029029500999991903072606004+61483+021350FM-12+000699999V0203601N002119999999N0000001N9+01501+99999101461ADDGF100991999999999999999999
0029029500999991903072613004+61483+021350FM-12+000699999V0203601N006219999999N0000001N9+01671+99999101481ADDGF100991999999999999999999
0029029500999991903072620004+61483+021350FM-12+000699999V0203601N002119999999N0000001N9+01441+99999101471ADDGF102991999999999999999999
0029029500999991903072706004+61483+021350FM-12+000699999V0201801N004119999999N0000001N9+01721+99999101431ADDGF103991999999999999999999
0029029500999991903072713004+61483+021350FM-12+000699999V0202301N002119999999N0000001N9+02111+99999101431ADDGF106991999999999999999999
0029029500999991903072720004+61483+021350FM-12+000699999V0202301N004119999999N0000001N9+01611+99999101321ADDGF105991999999999999999999
0029029500999991903072806004+61483+021350FM-12+000699999V0202001N002119999999N0000001N9+01721+99999101431ADDGF104991999999999999999999
0029029500999991903072813004+61483+021350FM-12+000699999V0203601N004119999999N0000001N9+01831+99999101351ADDGF100991999999999999999999
0029029500999991903072820004+61483+021350FM-12+000699999V0200901N002119999999N0000001N9+01671+99999101231ADDGF102991999999999999999999
0029029500999991903072906004+61483+021350FM-12+000699999V0201601N006219999999N0000001N9+01721+99999101041ADDGF105991999999999999999999
0000029500999991903072913004+61483+021350FM-12+000699999V02099999999999999999N0000001N9+02111+99999101071
0029029500999991903072920004+61483+021350FM-12+000699999V0200901N002119999999N0000001N9+01781+99999100861ADDGF106991999999999999999999
0029029500999991903073006004+61483+021350FM-12+000699999V0201101N006219999999N0000001N9+01781+99999100461ADDGF108991999999999999999999
0029029500999991903073013004+61483+021350FM-12+000699999V0201601N006219999999N0000001N9+02001+99999100401ADDGF108991999999999999999999
0029029500999991903073020004+61483+021350FM-12+000699999V0201601N004119999999N0000001N9+01671+99999100301ADDGF108991999999999999999999
0029029500999991903073106004+61483+021350FM-12+000699999V0202301N008219999999N0000001N9+01671+99999100031ADDGF106991999999999999999999
0029029500999991903073113004+61483+021350FM-12+000699999V0202301N011819999999N0000001N9+01781+99999100031ADDGF102991999999999999999999
0029029500999991903073120004+61483+021350FM-12+000699999V0202001N008219999999N0000001N9+01501+99999099841ADDGF107991999999999999999999
0029029500999991903080106004+61483+021350FM-12+000699999V0202301N006219999999N0000001N9+01611+99999099721ADDGF108991999999999999999999
0029029500999991903080113004+61483+021350FM-12+000699999V0202301N006219999999N0000001N9+01891+99999099681ADDGF104991999999999999999999
0029029500999991903080120004+61483+021350FM-12+000699999V0209991C000019999999N0000001N9+01501+99999099591ADDGF108991999999999999999999
0029029500999991903080206004+61483+021350FM-12+000699999V0203201N002119999999N0000001N9+01501+99999099351ADDGF108991999999999999999999
0029029500999991903080213004+61483+021350FM-12+000699999V0203201N008219999999N0000001N9+01501+99999099381ADDGF106991999999999999999999
0029029500999991903080220004+61483+021350FM-12+000699999V0202901N006219999999N0000001N9+01391+99999099341ADDGF108991999999999999999999
0029029500999991903080306004+61483+021350FM-12+000699999V0202701N002119999999N0000001N9+01331+99999099381ADDGF103991999999999999999999
0029029500999991903080313004+61483+021350FM-12+000699999V0203201N002119999999N0000001N9+01611+99999099431ADDGF101991999999999999999999
0029029500999991903080320004+61483+021350FM-12+000699999V0202001N004119999999N0000001N9+01611+99999099441ADDGF108991999999999999999999
0029029500999991903080406004+61483+021350FM-12+000699999V0202301N006219999999N0000001N9+01611+99999099661ADDGF102991999999999999999999
0029029500999991903080413004+61483+021350FM-12+000699999V0202301N006219999999N0000001N9+01831+99999999999ADDGF102991999999999999999999
0029029500999991903080420004+61483+021350FM-12+000699999V0202001N006219999999N0000001N9+01501+99999100111ADDGF102991999999999999999999
0029029500999991903080506004+61483+021350FM-12+000699999V0201801N006219999999N0000001N9+01611+99999100021ADDGF103991999999999999999999
0029029500999991903080513004+61483+021350FM-12+000699999V0201801N004119999999N0000001N9+01941+99999099881ADDGF106991999999999999999999
0029029500999991903080520004+61483+021350FM-12+000699999V0201401N008219999999N0000001N9+01391+99999099641ADDGF108991999999999999999999
0029029500999991903080606004+61483+021350FM-12+000699999V0201401N006219999999N0000001N9+01441+99999099391ADDGF105991999999999999999999
0029029500999991903080613004+61483+021350FM-12+000699999V0200501N002119999999N0000001N9+01721+99999099381ADDGF108991999999999999999999
0029029500999991903080620004+61483+021350FM-12+000699999V0200501N006219999999N0000001N9+01391+99999099391ADDGF106991999999999999999999
0029029500999991903080706004+61483+021350FM-12+000699999V0200701N006219999999N0000001N9+01391+99999099381ADDGF108991999999999999999999
0029029500999991903080713004+61483+021350FM-12+000699999V0203601N008219999999N0000001N9+01561+99999099471ADDGF107991999999999999999999
0029029500999991903080720004+61483+021350FM-12+000699999V0203401N009819999999N0000001N9+01441+99999099551ADDGF106991999999999999999999
0029029500999991903080806004+61483+021350FM-12+000699999V0203201N013919999999N0000001N9+01441+99999099521ADDGF108991999999999999999999
0029029500999991903080813004+61483+021350FM-12+000699999V0203201N015919999999N0000001N9+01501+99999099701ADDGF108991999999999999999999
0029029500999991903080820004+61483+021350FM-12+000699999V0203201N018019999999N0000001N9+01501+99999099781ADDGF108991999999999999999999
0029029500999991903080906004+61483+021350FM-12+000699999V0203201N020119999999N0000001N9+01281+99999099801ADDGF102991999999999999999999
0029029500999991903080913004+61483+021350FM-12+000699999V0202701N015919999999N0000001N9+01501+99999099881ADDGF102991999999999999999999
0029029500999991903080920004+61483+021350FM-12+000699999V0202701N006219999999N0000001N9+01391+99999099841ADDGF102991999999999999999999
0029029500999991903081006004+61483+021350FM-12+000699999V0202301N006219999999N0000001N9+01501+99999099861ADDGF106991999999999999999999
0029029500999991903081013004+61483+021350FM-12+000699999V0202501N006219999999N0000001N9+01781+99999100031ADDGF105991999999999999999999
0029029500999991903081020004+61483+021350FM-12+000699999V0201801N002119999999N0000001N9+01441+99999100061ADDGF102991999999999999999999
0029029500999991903081106004+61483+021350FM-12+000699999V0201401N006219999999N0000001N9+01501+99999099961ADDGF108991999999999999999999
0029029500999991903081113004+61483+021350FM-12+000699999V0202301N002119999999N0000001N9+01941+99999100041ADDGF106991999999999999999999
0029029500999991903081120004+61483+021350FM-12+000699999V0202501N004119999999N0000001N9+01281+99999100071ADDGF108991999999999999999999
0029029500999991903081206004+61483+021350FM-12+000699999V0203401N004119999999N0000001N9+01171+99999100241ADDGF108991999999999999999999
0029029500999991903081213004+61483+021350FM-12+000699999V0202701N004119999999N0000001N9+01281+99999100441ADDGF108991999999999999999999
0029029500999991903081220004+61483+021350FM-12+000699999V0202501N004119999999N0000001N9+01331+99999100471ADDGF108991999999999999999999
0029029500999991903081306004+61483+021350FM-12+000699999V0202701N004119999999N0000001N9+01441+99999100551ADDGF108991999999999999999999
0029029500999991903081313004+61483+021350FM-12+000699999V0202701N004119999999N0000001N9+01561+99999100581ADDGF108991999999999999999999
0029029500999991903081320004+61483+021350FM-12+000699999V0202901N006219999999N0000001N9+01331+99999100641ADDGF108991999999999999999999
0029029500999991903081406004+61483+021350FM-12+000699999V0203201N006219999999N0000001N9+01331+99999100681ADDGF108991999999999999999999
0029029500999991903081413004+61483+021350FM-12+000699999V0203201N008219999999N0000001N9+01441+99999100921ADDGF102991999999999999999999
0029029500999991903081420004+61483+021350FM-12+000699999V0202901N008219999999N0000001N9+01331+99999101001ADDGF101991999999999999999999
0029029500999991903081506004+61483+021350FM-12+000699999V0202901N002119999999N0000001N9+01441+99999101241ADDGF100991999999999999999999
0029029500999991903081513004+61483+021350FM-12+000699999V0202301N002119999999N0000001N9+01721+99999101281ADDGF100991999999999999999999
0029029500999991903081520004+61483+021350FM-12+000699999V0201401N002119999999N0000001N9+01281+99999101201ADDGF106991999999999999999999
0029029500999991903081606004+61483+021350FM-12+000699999V0201401N009819999999N0000001N9+01441+99999100941ADDGF108991999999999999999999
0029029500999991903081613004+61483+021350FM-12+000699999V0201401N008219999999N0000001N9+01721+99999100631ADDGF108991999999999999999999
0029029500999991903081620004+61483+021350FM-12+000699999V0201101N008219999999N0000001N9+01501+99999100431ADDGF108991999999999999999999
0029029500999991903081706004+61483+021350FM-12+000699999V0200901N011819999999N0000001N9+01501+99999099951ADDGF105991999999999999999999
0029029500999991903081713004+61483+021350FM-12+000699999V0200901N013919999999N0000001N9+01831+99999099711ADDGF105991999999999999999999
0029029500999991903081720004+61483+021350FM-12+000699999V0200701N009819999999N0000001N9+01391+99999099711ADDGF103991999999999999999999
0029029500999991903081806004+61483+021350FM-12+000699999V0200901N008219999999N0000001N9+01501+99999099641ADDGF107991999999999999999999
0029029500999991903081813004+61483+021350FM-12+000699999V0200901N011819999999N0000001N9+01721+99999099741ADDGF108991999999999999999999
0029029500999991903081820004+61483+021350FM-12+000699999V0200901N004119999999N0000001N9+01391+99999099821ADDGF108991999999999999999999
0029029500999991903081906004+61483+021350FM-12+000699999V0200901N006219999999N0000001N9+01441+99999099961ADDGF108991999999999999999999
0029029500999991903081913004+61483+021350FM-12+000699999V0200701N004119999999N0000001N9+01721+99999099981ADDGF108991999999999999999999
0029029500999991903081920004+61483+021350FM-12+000699999V0200701N002119999999N0000001N9+01281+99999099981ADDGF108991999999999999999999
0029029500999991903082006004+61483+021350FM-12+000699999V0200701N004119999999N0000001N9+01221+99999099961ADDGF108991999999999999999999
0029029500999991903082013004+61483+021350FM-12+000699999V0200901N004119999999N0000001N9+01561+99999099841ADDGF108991999999999999999999
0029029500999991903082020004+61483+021350FM-12+000699999V0201801N004119999999N0000001N9+01331+99999099751ADDGF108991999999999999999999
0029029500999991903082106004+61483+021350FM-12+000699999V0202301N011819999999N0000001N9+01331+99999100071ADDGF108991999999999999999999
0029029500999991903082113004+61483+021350FM-12+000699999V0202001N011819999999N0000001N9+01611+99999100281ADDGF106991999999999999999999
0029029500999991903082120004+61483+021350FM-12+000699999V0201401N024219999999N0000001N9+01281+99999099541ADDGF108991999999999999999999
0029029500999991903082206004+61483+021350FM-12+000699999V0202001N020119999999N0000001N9+01331+99999099401ADDGF108991999999999999999999
0029029500999991903082213004+61483+021350FM-12+000699999V0202301N024219999999N0000001N9+01281+99999099601ADDGF108991999999999999999999
0029029500999991903082220004+61483+021350FM-12+000699999V0202501N020119999999N0000001N9+01331+99999100111ADDGF108991999999999999999999
0029029500999991903082306004+61483+021350FM-12+000699999V0202501N011819999999N0000001N9+01221+99999100701ADDGF100991999999999999999999
0029029500999991903082313004+61483+021350FM-12+000699999V0202301N009819999999N0000001N9+01441+99999101061ADDGF101991999999999999999999
0029029500999991903082320004+61483+021350FM-12+000699999V0202301N008219999999N0000001N9+01281+99999101191ADDGF100991999999999999999999
0029029500999991903082406004+61483+021350FM-12+000699999V0202001N004119999999N0000001N9+01331+99999101261ADDGF108991999999999999999999
0029029500999991903082413004+61483+021350FM-12+000699999V0200901N006219999999N0000001N9+01171+99999100861ADDGF108991999999999999999999
0029029500999991903082420004+61483+021350FM-12+000699999V0200701N015919999999N0000001N9+00941+99999099681ADDGF108991999999999999999999
0029029500999991903082506004+61483+021350FM-12+000699999V0203201N020119999999N0000001N9+01171+99999100321ADDGF108991999999999999999999
0029029500999991903082513004+61483+021350FM-12+000699999V0202901N008219999999N0000001N9+01331+99999101151ADDGF100991999999999999999999
0029029500999991903082520004+61483+021350FM-12+000699999V0202501N006219999999N0000001N9+01221+99999101481ADDGF100991999999999999999999
0029029500999991903082606004+61483+021350FM-12+000699999V0201801N004119999999N0000001N9+01061+99999101581ADDGF108991999999999999999999
0029029500999991903082613004+61483+021350FM-12+000699999V0209991C000019999999N0000001N9+01501+99999101541ADDGF108991999999999999999999
0029029500999991903082620004+61483+021350FM-12+000699999V0200901N006219999999N0000001N9+01221+99999101221ADDGF108991999999999999999999
0029029500999991903082706004+61483+021350FM-12+000699999V0200701N002119999999N0000001N9+01171+99999100921ADDGF103991999999999999999999
0029029500999991903082713004+61483+021350FM-12+000699999V0202901N002119999999N0000001N9+01391+99999100921ADDGF102991999999999999999999
0029029500999991903082720004+61483+021350FM-12+000699999V0201601N009819999999N0000001N9+01281+99999100681ADDGF108991999999999999999999
0029029500999991903082806004+61483+021350FM-12+000699999V0201801N009819999999N0000001N9+01281+99999099791ADDGF108991999999999999999999
0029029500999991903082813004+61483+021350FM-12+000699999V0202501N008219999999N0000001N9+01331+99999099441ADDGF108991999999999999999999
0029029500999991903082820004+61483+021350FM-12+000699999V0202301N011819999999N0000001N9+01331+99999099241ADDGF108991999999999999999999
0029029500999991903082906004+61483+021350FM-12+000699999V0202301N009819999999N0000001N9+01281+99999099021ADDGF108991999999999999999999
0029029500999991903082913004+61483+021350FM-12+000699999V0202001N008219999999N0000001N9+01561+99999098951ADDGF108991999999999999999999
0029029500999991903082920004+61483+021350FM-12+000699999V0202001N008219999999N0000001N9+01331+99999098801ADDGF108991999999999999999999
0029029500999991903083006004+61483+021350FM-12+000699999V0201801N004119999999N0000001N9+01281+99999098911ADDGF108991999999999999999999
0029029500999991903083013004+61483+021350FM-12+000699999V0203401N006219999999N0000001N9+01391+99999099321ADDGF108991999999999999999999
0029029500999991903083020004+61483+021350FM-12+000699999V0203401N009819999999N0000001N9+01221+99999099541ADDGF105991999999999999999999
0029029500999991903083106004+61483+021350FM-12+000699999V0203201N008219999999N0000001N9+01331+99999099861ADDGF108991999999999999999999
0029029500999991903083113004+61483+021350FM-12+000699999V0203201N004119999999N0000001N9+01331+99999100071ADDGF103991999999999999999999
0029029500999991903083120004+61483+021350FM-12+000699999V0202001N004119999999N0000001N9+01001+99999100041ADDGF108991999999999999999999
0029029500999991903090106004+61483+021350FM-12+000699999V0200501N006219999999N0000001N9+01001+99999100381ADDGF108991999999999999999999
0029029500999991903090113004+61483+021350FM-12+000699999V0203601N008219999999N0000001N9+01441+99999101031ADDGF103991999999999999999999
0029029500999991903090120004+61483+021350FM-12+000699999V0203201N006219999999N0000001N9+01221+99999101751ADDGF100991999999999999999999
0029029500999991903090206004+61483+021350FM-12+000699999V0202501N004119999999N0000001N9+01281+99999102161ADDGF108991999999999999999999
0029029500999991903090213004+61483+021350FM-12+000699999V0202001N008219999999N0000001N9+01391+99999102161ADDGF108991999999999999999999
0029029500999991903090220004+61483+021350FM-12+000699999V0202501N004119999999N0000001N9+01281+99999102161ADDGF108991999999999999999999
0029029500999991903090306004+61483+021350FM-12+000699999V0201401N002119999999N0000001N9+01221+99999102161ADDGF108991999999999999999999
0029029500999991903090313004+61483+021350FM-12+000699999V0201601N011819999999N0000001N9+01831+99999101711ADDGF102991999999999999999999
0029029500999991903090320004+61483+021350FM-12+000699999V0201801N018019999999N0000001N9+01391+99999101321ADDGF108991999999999999999999
0029029500999991903090406004+61483+021350FM-12+000699999V0202701N008219999999N0000001N9+01281+99999101351ADDGF106991999999999999999999
0029029500999991903090413004+61483+021350FM-12+000699999V0202501N006219999999N0000001N9+01501+99999101741ADDGF100991999999999999999999
0029029500999991903090420004+61483+021350FM-12+000699999V0203201N004119999999N0000001N9+01331+99999101981ADDGF100991999999999999999999
