0029029810999991903010106004+59500+020350FM-12+002699999V0200501N019019999999N0000001N9-00501+99999099441ADDGF108991999999999999999999
0029029810999991903010113004+59500+020350FM-12+002699999V0200201N019019999999N0000001N9-00501+99999099241ADDGF108991999999999999999999
0029029810999991903010120004+59500+020350FM-12+002699999V0203401N017019999999N0000001N9-00281+99999099441ADDGF108991999999999999999999
0029029810999991903010206004+59500+020350FM-12+002699999V0203201N012919999999N0000001N9-00501+99999100161ADDGF108991999999999999999999
0029029810999991903010213004+59500+020350FM-12+002699999V0203201N011819999999N0000001N9-00391+99999100641ADDGF106991999999999999999999
0029029810999991903010220004+59500+020350FM-12+002699999V0203201N003119999999N0000001N9-00501+99999101111ADDGF102991999999999999999999
0029029810999991903010306004+59500+020350FM-12+002699999V0202701N006219999999N0000001N9-00611+99999101301ADDGF107991999999999999999999
0029029810999991903010313004+59500+020350FM-12+002699999V0201801N010819999999N0000001N9-00061+99999101141ADDGF106991999999999999999999
0029029810999991903010320004+59500+020350FM-12+002699999V0201801N014919999999N0000001N9-00061+99999100721ADDGF106991999999999999999999
0029029810999991903010406004+59500+020350FM-12+002699999V0201801N018019999999N0000001N9+00061+99999099701ADDGF108991999999999999999999
0029029810999991903010413004+59500+020350FM-12+002699999V0201401N013919999999N0000001N9+00001+99999098911ADDGF108991999999999999999999
0029029810999991903010420004+59500+020350FM-12+002699999V0202501N010819999999N0000001N9+00061+99999099041ADDGF108991999999999999999999
0029029810999991903010506004+59500+020350FM-12+002699999V0202301N008219999999N0000001N9+00171+99999099121ADDGF108991999999999999999999
0029029810999991903010513004+59500+020350FM-12+002699999V0202501N006219999999N0000001N9+00171+99999099271ADDGF106991999999999999999999
0029029810999991903010520004+59500+020350FM-12+002699999V0202001N006219999999N0000001N9+00221+99999099541ADDGF106991999999999999999999
0029029810999991903010606004+59500+020350FM-12+002699999V0202301N006219999999N0000001N9+00061+99999099791ADDGF108991999999999999999999
0029029810999991903010613004+59500+020350FM-12+002699999V0202501N004119999999N0000001N9+00001+99999099821ADDGF106991999999999999999999
0029029810999991903010620004+59500+020350FM-12+002699999V0201801N005119999999N0000001N9+00061+99999099581ADDGF106991999999999999999999
0035029810999991903010706004+59500+020350FM-12+002699999V0201801N011819999999N0000001N9+00111+99999098751ADDGF108991999999999999999999MW1641
0029029810999991903010713004+59500+020350FM-12+002699999V0202301N008719999999N0000001N9+00331+99999098721ADDGF106991999999999999999999
0029029810999991903010720004+59500+020350FM-12+002699999V0202301N008719999999N0000001N9+00281+99999098721ADDGF108991999999999999999999
0035029810999991903010806004+59500+020350FM-12+002699999V0202301N009819999999N0000001N9+00281+99999098261ADDGF108991999999999999999999MW1601
0035029810999991903010813004+59500+020350FM-12+002699999V0202501N012919999999N0000001N9+00221+99999098021ADDGF108991999999999999999999MW1601
0029029810999991903010820004+59500+020350FM-12+002699999V0202701N009819999999N0000001N9+00221+99999098401ADDGF108991999999999999999999
0029029810999991903010906004+59500+020350FM-12+002699999V0203201N008719999999N0000001N9-00061+99999099351ADDGF106991999999999999999999
0035029810999991903010913004+59500+020350FM-12+002699999V0202501N012919999999N0000001N9+00171+99999099501ADDGF106991999999999999999999MW1601
0029029810999991903010920004+59500+020350FM-12+002699999V0202901N008719999999N0000001N9-00061+99999099821ADDGF104991999999999999999999
0029029810999991903011006004+59500+020350FM-12+002699999V0201801N004119999999N0000001N9+00061+99999099751ADDGF106991999999999999999999
0029029810999991903011013004+59500+020350FM-12+002699999V0201601N010819999999N0000001N9+00111+99999098511ADDGF108991999999999999999999
0029029810999991903011020004+59500+020350FM-12+002699999V0202501N004119999999N0000001N9+00221+99999098301ADDGF106991999999999999999999
0029029810999991903011106004+59500+020350FM-12+002699999V0203601N007219999999N0000001N9-00171+99999098281ADDGF108991999999999999999999
0029029810999991903011113004+59500+020350FM-12+002699999V0200201N015919999999N0000001N9-00391+99999098661ADDGF108991999999999999999999
0029029810999991903011120004+59500+020350FM-12+002699999V0203601N022119999999N0000001N9-00671+99999099161ADDGF106991999999999999999999
0029029810999991903011206004+59500+020350FM-12+002699999V0200201N014919999999N0000001N9-00721+99999100721ADDGF102991999999999999999999
0029029810999991903011213004+59500+020350FM-12+002699999V0200201N011819999999N0000001N9-00561+99999101471ADDGF102991999999999999999999
0029029810999991903011220004+59500+020350FM-12+002699999V0203401N006219999999N0000001N9-00441+99999102021ADDGF102991999999999999999999
0029029810999991903011306004+59500+020350FM-12+002699999V0202701N007219999999N0000001N9-00441+99999102201ADDGF101991999999999999999999
0029029810999991903011313004+59500+020350FM-12+002699999V0202701N008719999999N0000001N9-00391+99999102241ADDGF101991999999999999999999
0029029810999991903011320004+59500+020350FM-12+002699999V0202901N010819999999N0000001N9-00281+99999102181ADDGF105991999999999999999999
0029029810999991903011406004+59500+020350FM-12+002699999V0203201N009819999999N0000001N9+00111+99999102311ADDGF101991999999999999999999
0029029810999991903011413004+59500+020350FM-12+002699999V0203201N005119999999N0000001N9+00171+99999103021ADDGF101991999999999999999999
0029029810999991903011420004+59500+020350FM-12+002699999V0203201N004119999999N0000001N9+00171+99999103441ADDGF105991999999999999999999
0029029810999991903011506004+59500+020350FM-12+002699999V0202301N003119999999N0000001N9+00001+99999103801ADDGF105991999999999999999999
0029029810999991903011513004+59500+020350FM-12+002699999V0202701N007219999999N0000001N9+00001+99999103701ADDGF105991999999999999999999
0029029810999991903011520004+59500+020350FM-12+002699999V0202901N007219999999N0000001N9-00111+99999103661ADDGF102991999999999999999999
0029029810999991903011606004+59500+020350FM-12+002699999V0200501N007219999999N0000001N9-00111+99999103831ADDGF108991999999999999999999
0029029810999991903011613004+59500+020350FM-12+002699999V0201401N002119999999N0000001N9-00111+99999104031ADDGF106991999999999999999999
0029029810999991903011620004+59500+020350FM-12+002699999V0201801N001019999999N0000001N9-00111+99999104261ADDGF108991999999999999999999
0029029810999991903011706004+59500+020350FM-12+002699999V0202501N005119999999N0000001N9+00061+99999104461ADDGF106991999999999999999999
0029029810999991903011713004+59500+020350FM-12+002699999V0202501N007219999999N0000001N9+00001+99999104591ADDGF106991999999999999999999
0029029810999991903011720004+59500+020350FM-12+002699999V0202701N004119999999N0000001N9-00111+99999104551ADDGF101991999999999999999999
0029029810999991903011806004+59500+020350FM-12+002699999V0202501N004119999999N0000001N9-00171+99999104161ADDGF102991999999999999999999
0029029810999991903011813004+59500+020350FM-12+002699999V0202501N008719999999N0000001N9-00171+99999103961ADDGF102991999999999999999999
0029029810999991903011820004+59500+020350FM-12+002699999V0202701N008719999999N0000001N9-00221+99999103661ADDGF102991999999999999999999
0029029810999991903011906004+59500+020350FM-12+002699999V0202501N006219999999N0000001N9-00331+99999103471ADDGF101991999999999999999999
0029029810999991903011913004+59500+020350FM-12+002699999V0202501N009819999999N0000001N9-00171+99999103161ADDGF101991999999999999999999
0029029810999991903011920004+59500+020350FM-12+002699999V0202301N017019999999N0000001N9-00221+99999102901ADDGF108991999999999999999999
0029029810999991903012006004+59500+020350FM-12+002699999V0202701N008219999999N0000001N9-00501+99999102401ADDGF106991999999999999999999
0029029810999991903012013004+59500+020350FM-12+002699999V0203201N008219999999N0000001N9-00281+99999102541ADDGF102991999999999999999999
0029029810999991903012020004+59500+020350FM-12+002699999V0203601N008219999999N0000001N9+00001+99999102821ADDGF102991999999999999999999
0029029810999991903012106004+59500+020350FM-12+002699999V0202701N003119999999N0000001N9-00171+99999103081ADDGF108991999999999999999999
0029029810999991903012113004+59500+020350FM-12+002699999V0202701N006219999999N0000001N9-00281+99999102951ADDGF105991999999999999999999
0029029810999991903012120004+59500+020350FM-12+002699999V0202701N007219999999N0000001N9-00611+99999102801ADDGF108991999999999999999999
0029029810999991903012206004+59500+020350FM-12+002699999V0202501N007219999999N0000001N9-00721+99999102441ADDGF108991999999999999999999
0029029810999991903012213004+59500+020350FM-12+002699999V0202501N003119999999N0000001N9-00611+99999102221ADDGF108991999999999999999999
0029029810999991903012220004+59500+020350FM-12+002699999V0201801N005119999999N0000001N9-00561+99999102041ADDGF108991999999999999999999
0029029810999991903012306004+59500+020350FM-12+002699999V0202001N009819999999N0000001N9-00171+99999101461ADDGF108991999999999999999999
0029029810999991903012313004+59500+020350FM-12+002699999V0202001N009819999999N0000001N9-00171+99999101271ADDGF106991999999999999999999
0029029810999991903012320004+59500+020350FM-12+002699999V0201801N013919999999N0000001N9-00281+99999101221ADDGF108991999999999999999999
0029029810999991903012406004+59500+020350FM-12+002699999V0201401N009819999999N0000001N9-00501+99999101101ADDGF108991999999999999999999
0029029810999991903012413004+59500+020350FM-12+002699999V0201401N008719999999N0000001N9-00111+99999101141ADDGF108991999999999999999999
0029029810999991903012420004+59500+020350FM-12+002699999V0202301N003119999999N0000001N9-00111+99999101261ADDGF108991999999999999999999
0035029810999991903012506004+59500+020350FM-12+002699999V0201801N012919999999N0000001N9+00061+99999100941ADDGF108991999999999999999999MW1721
0029029810999991903012513004+59500+020350FM-12+002699999V0202301N005119999999N0000001N9+00061+99999101101ADDGF108991999999999999999999
0029029810999991903012520004+59500+020350FM-12+002699999V0201801N008219999999N0000001N9+00111+99999101081ADDGF108991999999999999999999
0029029810999991903012606004+59500+020350FM-12+002699999V0201801N013919999999N0000001N9+00111+99999100281ADDGF108991999999999999999999
0029029810999991903012613004+59500+020350FM-12+002699999V0202301N009819999999N0000001N9+00171+99999100271ADDGF108991999999999999999999
0029029810999991903012620004+59500+020350FM-12+002699999V0202301N008219999999N0000001N9+00221+99999100401ADDGF108991999999999999999999
0029029810999991903012706004+59500+020350FM-12+002699999V0202301N008719999999N0000001N9+00221+99999100071ADDGF108991999999999999999999
0029029810999991903012713004+59500+020350FM-12+002699999V0202301N014919999999N0000001N9+00331+99999099751ADDGF106991999999999999999999
0029029810999991903012720004+59500+020350FM-12+002699999V0202301N014919999999N0000001N9+00281+99999099301ADDGF102991999999999999999999
0029029810999991903012806004+59500+020350FM-12+002699999V0202301N014919999999N0000001N9+00281+99999099041ADDGF105991999999999999999999
0029029810999991903012813004+59500+020350FM-12+002699999V0202701N014919999999N0000001N9+00221+99999098961ADDGF101991999999999999999999
0029029810999991903012820004+59500+020350FM-12+002699999V0202501N015919999999N0000001N9+00221+99999098751ADDGF106991999999999999999999
0029029810999991903012906004+59500+020350FM-12+002699999V0202301N011819999999N0000001N9+00171+99999098401ADDGF105991999999999999999999
0029029810999991903012913004+59500+020350FM-12+002699999V0202901N011819999999N0000001N9+00171+99999098631ADDGF102991999999999999999999
0029029810999991903012920004+59500+020350FM-12+002699999V0202701N014919999999N0000001N9+00221+99999099001ADDGF102991999999999999999999
0029029810999991903013006004+59500+020350FM-12+002699999V0202301N014919999999N0000001N9+00221+99999098071ADDGF107991999999999999999999
0029029810999991903013013004+59500+020350FM-12+002699999V0202701N015919999999N0000001N9+00391+99999097961ADDGF102991999999999999999999
0029029810999991903013020004+59500+020350FM-12+002699999V0202901N017019999999N0000001N9+00221+99999098501ADDGF102991999999999999999999
0029029810999991903013106004+59500+020350FM-12+002699999V0202901N014919999999N0000001N9+00111+99999099391ADDGF104991999999999999999999
0029029810999991903013113004+59500+020350FM-12+002699999V0202501N004119999999N0000001N9+00171+99999099881ADDGF104991999999999999999999
0029029810999991903013120004+59500+020350FM-12+002699999V0202001N008719999999N0000001N9+00221+99999099701ADDGF108991999999999999999999
0029029810999991903020106004+59500+020350FM-12+002699999V0202501N011819999999N0000001N9+00221+99999099321ADDGF105991999999999999999999
0029029810999991903020113004+59500+020350FM-12+002699999V0202301N012919999999N0000001N9+00171+99999099441ADDGF104991999999999999999999
0029029810999991903020120004+59500+020350FM-12+002699999V0202301N010819999999N0000001N9+00111+99999099421ADDGF104991999999999999999999
0029029810999991903020206004+59500+020350FM-12+002699999V0202301N008219999999N0000001N9+00171+99999099301ADDGF106991999999999999999999
0029029810999991903020213004+59500+020350FM-12+002699999V0202301N008219999999N0000001N9+00061+99999099391ADDGF108991999999999999999999
0029029810999991903020220004+59500+020350FM-12+002699999V0202301N008719999999N0000001N9+00171+99999099431ADDGF106991999999999999999999
0029029810999991903020306004+59500+020350FM-12+002699999V0202701N006219999999N0000001N9+00061+99999099751ADDGF104991999999999999999999
0029029810999991903020313004+59500+020350FM-12+002699999V0202901N006219999999N0000001N9+00001+99999100241ADDGF102991999999999999999999
0029029810999991903020320004+59500+020350FM-12+002699999V0203201N006219999999N0000001N9+00001+99999100621ADDGF101991999999999999999999
0029029810999991903020406004+59500+020350FM-12+002699999V0202501N005119999999N0000001N9-00061+99999100821ADDGF106991999999999999999999
0029029810999991903020413004+59500+020350FM-12+002699999V0202301N011819999999N0000001N9+00061+99999100621ADDGF106991999999999999999999
0029029810999991903020420004+59500+020350FM-12+002699999V0202301N005119999999N0000001N9+00061+99999100551ADDGF106991999999999999999999
0029029810999991903020506004+59500+020350FM-12+002699999V0202301N003119999999N0000001N9+00171+99999100521ADDGF108991999999999999999999
0029029810999991903020513004+59500+020350FM-12+002699999V0202301N005119999999N0000001N9+00171+99999100621ADDGF106991999999999999999999
0029029810999991903020520004+59500+020350FM-12+002699999V0202701N010819999999N0000001N9+00281+99999100621ADDGF101991999999999999999999
0029029810999991903020606004+59500+020350FM-12+002699999V0202701N006219999999N0000001N9+00221+99999101221ADDGF106991999999999999999999
0029029810999991903020613004+59500+020350FM-12+002699999V0202301N013919999999N0000001N9+00221+99999100911ADDGF108991999999999999999999
0029029810999991903020620004+59500+020350FM-12+002699999V0202301N005119999999N0000001N9+00281+99999100791ADDGF106991999999999999999999
0029029810999991903020706004+59500+020350FM-12+002699999V0202301N011819999999N0000001N9+00111+99999999999ADDGF106991999999999999999999
0029029810999991903020713004+59500+020350FM-12+002699999V0202301N014919999999N0000001N9+00171+99999099761ADDGF106991999999999999999999
0029029810999991903020720004+59500+020350FM-12+002699999V0202501N014919999999N0000001N9+00281+99999099721ADDGF106991999999999999999999
0029029810999991903020806004+59500+020350FM-12+002699999V0202301N022119999999N0000001N9+00331+99999097152ADDGF107991999999999999999999
0029029810999991903020813004+59500+020350FM-12+002699999V0202701N018019999999N0000001N9+00281+99999097881ADDGF102991999999999999999999
0029029810999991903020820004+59500+020350FM-12+002699999V0202701N014919999999N0000001N9+00171+99999098241ADDGF102991999999999999999999
0029029810999991903020906004+59500+020350FM-12+002699999V0202901N022119999999N0000001N9+00061+99999098551ADDGF106991999999999999999999
0029029810999991903020913004+59500+020350FM-12+002699999V0203201N020119999999N0000001N9+00111+99999099431ADDGF102991999999999999999999
0029029810999991903020920004+59500+020350FM-12+002699999V0203201N020119999999N0000001N9+00111+99999100721ADDGF101991999999999999999999
0029029810999991903021006004+59500+020350FM-12+002699999V0203201N012919999999N0000001N9+00061+99999101951ADDGF101991999999999999999999
0029029810999991903021013004+59500+020350FM-12+002699999V0202301N008719999999N0000001N9-00061+99999101791ADDGF103991999999999999999999
0029029810999991903021020004+59500+020350FM-12+002699999V0202001N018019999999N0000001N9+00171+99999100021ADDGF106991999999999999999999
0029029810999991903021106004+59500+020350FM-12+002699999V0202701N018019999999N0000001N9+00331+99999098181ADDGF104991999999999999999999
0029029810999991903021113004+59500+020350FM-12+002699999V0202701N014919999999N0000001N9+00441+99999097831ADDGF102991999999999999999999
0029029810999991903021120004+59500+020350FM-12+002699999V0202701N017019999999N0000001N9+00221+99999098101ADDGF101991999999999999999999
0029029810999991903021206004+59500+020350FM-12+002699999V0202701N017019999999N0000001N9+00001+99999097981ADDGF101991999999999999999999
0029029810999991903021213004+59500+020350FM-12+002699999V0203201N020119999999N0000001N9-00171+99999097681ADDGF108991999999999999999999
0029029810999991903021220004+59500+020350FM-12+002699999V0203601N014919999999N0000001N9-00331+99999098361ADDGF106991999999999999999999
0029029810999991903021306004+59500+020350FM-12+002699999V0203401N006219999999N0000001N9-00441+99999099561ADDGF106991999999999999999999
0029029810999991903021313004+59500+020350FM-12+002699999V0203201N019019999999N0000001N9-00331+99999099761ADDGF104991999999999999999999
0035029810999991903021320004+59500+020350FM-12+002699999V0203401N018019999999N0000001N9-00391+99999100021ADDGF108991999999999999999999MW1741
0029029810999991903021406004+59500+020350FM-12+002699999V0203201N009819999999N0000001N9-00441+99999099881ADDGF106991999999999999999999
0029029810999991903021413004+59500+020350FM-12+002699999V0203201N007219999999N0000001N9-00441+99999099581ADDGF105991999999999999999999
0029029810999991903021420004+59500+020350FM-12+002699999V0202901N008219999999N0000001N9-00501+99999099031ADDGF104991999999999999999999
0029029810999991903021506004+59500+020350FM-12+002699999V0203201N008219999999N0000001N9-00441+99999098821ADDGF106991999999999999999999
0035029810999991903021513004+59500+020350FM-12+002699999V0203601N020119999999N0000001N9-00501+99999099021ADDGF104991999999999999999999MW1701
0029029810999991903021520004+59500+020350FM-12+002699999V0200201N010819999999N0000001N9-00891+99999099561ADDGF102991999999999999999999
0035029810999991903021606004+59500+020350FM-12+002699999V0203601N011819999999N0000001N9-00721+99999100391ADDGF106991999999999999999999MW1701
0029029810999991903021613004+59500+020350FM-12+002699999V0203601N017019999999N0000001N9-00501+99999101231ADDGF105991999999999999999999
0029029810999991903021620004+59500+020350FM-12+002699999V0203401N012919999999N0000001N9-00331+99999101681ADDGF106991999999999999999999
0029029810999991903021706004+59500+020350FM-12+002699999V0202701N015919999999N0000001N9-00221+99999100591ADDGF106991999999999999999999
0029029810999991903021713004+59500+020350FM-12+002699999V0203201N018019999999N0000001N9+00061+99999100511ADDGF102991999999999999999999
0029029810999991903021720004+59500+020350FM-12+002699999V0203601N014919999999N0000001N9-00331+99999101591ADDGF101991999999999999999999
0029029810999991903021806004+59500+020350FM-12+002699999V0200501N009819999999N0000001N9-00781+99999102641ADDGF102991999999999999999999
0029029810999991903021813004+59500+020350FM-12+002699999V0201801N004119999999N0000001N9-00501+99999102881ADDGF101991999999999999999999
0035029810999991903021820004+59500+020350FM-12+002699999V0201801N020119999999N0000001N9-00281+99999102141ADDGF108991999999999999999999MW1741
0029029810999991903021906004+59500+020350FM-12+002699999V0202301N014919999999N0000001N9+00221+99999100701ADDGF108991999999999999999999
0035029810999991903021913004+59500+020350FM-12+002699999V0202301N011819999999N0000001N9+00111+99999100311ADDGF106991999999999999999999MW1691
0029029810999991903021920004+59500+020350FM-12+002699999V0202301N008719999999N0000001N9+00221+99999099941ADDGF108991999999999999999999
0029029810999991903022006004+59500+020350FM-12+002699999V0202301N018019999999N0000001N9+00281+99999099161ADDGF108991999999999999999999
0029029810999991903022013004+59500+020350FM-12+002699999V0202501N019019999999N0000001N9+00331+99999098701ADDGF108991999999999999999999
0029029810999991903022020004+59500+020350FM-12+002699999V0202701N017019999999N0000001N9+00391+99999099461ADDGF102991999999999999999999
0029029810999991903022106004+59500+020350FM-12+002699999V0202301N014919999999N0000001N9+00331+99999099551ADDGF108991999999999999999999
0029029810999991903022113004+59500+020350FM-12+002699999V0202301N018019999999N0000001N9+00331+99999098521ADDGF108991999999999999999999
0029029810999991903022120004+59500+020350FM-12+002699999V0202301N015919999999N0000001N9+00331+99999098481ADDGF102991999999999999999999
0029029810999991903022206004+59500+020350FM-12+002699999V0202701N012919999999N0000001N9+00171+99999097791ADDGF102991999999999999999999
0029029810999991903022213004+59500+020350FM-12+002699999V0202701N014919999999N0000001N9+00331+99999098181ADDGF101991999999999999999999
0029029810999991903022220004+59500+020350FM-12+002699999V0202501N015919999999N0000001N9+00331+99999098441ADDGF101991999999999999999999
0029029810999991903022306004+59500+020350FM-12+002699999V0202301N007219999999N0000001N9+00061+99999098591ADDGF106991999999999999999999
0029029810999991903022313004+59500+020350FM-12+002699999V0202301N013919999999N0000001N9+00281+99999097221ADDGF104991999999999999999999
0029029810999991903022320004+59500+020350FM-12+002699999V0202501N011819999999N0000001N9+00281+99999097301ADDGF104991999999999999999999
0035029810999991903022406004+59500+020350FM-12+002699999V0202301N013919999999N0000001N9+00171+99999097601ADDGF108991999999999999999999MW1641
0029029810999991903022413004+59500+020350FM-12+002699999V0203201N011819999999N0000001N9+00061+99999098861ADDGF104991999999999999999999
0029029810999991903022420004+59500+020350FM-12+002699999V0203201N008219999999N0000001N9+00061+99999999999ADDGF102991999999999999999999
0029029810999991903022506004+59500+020350FM-12+002699999V0202501N005119999999N0000001N9+00111+99999100671ADDGF104991999999999999999999
0029029810999991903022513004+59500+020350FM-12+002699999V0201801N018019999999N0000001N9+00221+99999100511ADDGF106991999999999999999999
0029029810999991903022520004+59500+020350FM-12+002699999V0201801N013919999999N0000001N9+00281+99999100301ADDGF108991999999999999999999
0029029810999991903022606004+59500+020350FM-12+002699999V0202301N006219999999N0000001N9+00171+99999100841ADDGF105991999999999999999999
0029029810999991903022613004+59500+020350FM-12+002699999V0202301N009819999999N0000001N9+00171+99999101081ADDGF104991999999999999999999
0029029810999991903022620004+59500+020350FM-12+002699999V0201801N012919999999N0000001N9+00281+99999100441ADDGF108991999999999999999999
0029029810999991903022706004+59500+020350FM-12+002699999V0202301N010819999999N0000001N9+00221+99999099681ADDGF106991999999999999999999
0029029810999991903022713004+59500+020350FM-12+002699999V0202301N012919999999N0000001N9+00281+99999099951ADDGF102991999999999999999999
0029029810999991903022720004+59500+020350FM-12+002699999V0201601N009819999999N0000001N9+00171+99999099431ADDGF108991999999999999999999
0029029810999991903022806004+59500+020350FM-12+002699999V0202001N014919999999N0000001N9+00281+99999098511ADDGF104991999999999999999999
0029029810999991903022813004+59500+020350FM-12+002699999V0202001N011819999999N0000001N9+00221+99999098301ADDGF104991999999999999999999
0029029810999991903022820004+59500+020350FM-12+002699999V0202001N013919999999N0000001N9+00281+99999098311ADDGF108991999999999999999999
0029029810999991903030106004+59500+020350FM-12+002699999V0202701N007219999999N0000001N9+00111+99999098941ADDGF103991999999999999999999
0029029810999991903030113004+59500+020350FM-12+002699999V0202701N007219999999N0000001N9+00221+99999099791ADDGF102991999999999999999999
0029029810999991903030120004+59500+020350FM-12+002699999V0202701N005119999999N0000001N9+00221+99999100081ADDGF105991999999999999999999
0029029810999991903030206004+59500+020350FM-12+002699999V0202301N004119999999N0000001N9+00111+99999100311ADDGF102991999999999999999999
0029029810999991903030213004+59500+020350FM-12+002699999V0201801N007219999999N0000001N9+00281+99999100481ADDGF102991999999999999999999
0029029810999991903030220004+59500+020350FM-12+002699999V0201801N011819999999N0000001N9+00061+99999100341ADDGF108991999999999999999999
0029029810999991903030306004+59500+020350FM-12+002699999V0201601N014919999999N0000001N9+00061+99999099881ADDGF106991999999999999999999
0029029810999991903030313004+59500+020350FM-12+002699999V0201401N014919999999N0000001N9+00111+99999099941ADDGF108991999999999999999999
0029029810999991903030320004+59500+020350FM-12+002699999V0201601N011819999999N0000001N9+00171+99999099951ADDGF106991999999999999999999
0029029810999991903030406004+59500+020350FM-12+002699999V0201601N008219999999N0000001N9+00061+99999100141ADDGF104991999999999999999999
0035029810999991903030413004+59500+020350FM-12+002699999V0201601N012919999999N0000001N9+00221+99999100231ADDGF108991999999999999999999MW1621
0029029810999991903030420004+59500+020350FM-12+002699999V0201801N009819999999N0000001N9+00281+99999100151ADDGF108991999999999999999999
0035029810999991903030506004+59500+020350FM-12+002699999V0201801N017019999999N0000001N9+00061+99999099741ADDGF108991999999999999999999MW1691
0029029810999991903030513004+59500+020350FM-12+002699999V0201801N015919999999N0000001N9+00221+99999099881ADDGF102991999999999999999999
0029029810999991903030520004+59500+020350FM-12+002699999V0201801N008219999999N0000001N9+00111+99999100021ADDGF106991999999999999999999
0029029810999991903030606004+59500+020350FM-12+002699999V0202301N006219999999N0000001N9+00171+99999099871ADDGF102991999999999999999999
0029029810999991903030613004+59500+020350FM-12+002699999V0202301N008719999999N0000001N9+00281+99999100271ADDGF101991999999999999999999
0029029810999991903030620004+59500+020350FM-12+002699999V0202301N009819999999N0000001N9+00221+99999100521ADDGF100991999999999999999999
0029029810999991903030706004+59500+020350FM-12+002699999V0202301N010819999999N0000001N9+00061+99999100721ADDGF106991999999999999999999
0029029810999991903030713004+59500+020350FM-12+002699999V0202301N010819999999N0000001N9+00391+99999100961ADDGF102991999999999999999999
0029029810999991903030720004+59500+020350FM-12+002699999V0202301N008219999999N0000001N9+00221+99999101111ADDGF104991999999999999999999
0029029810999991903030806004+59500+020350FM-12+002699999V0202501N007219999999N0000001N9+00001+99999101781ADDGF108991999999999999999999
0029029810999991903030813004+59500+020350FM-12+002699999V0202501N007219999999N0000001N9+00171+99999102261ADDGF104991999999999999999999
0029029810999991903030820004+59500+020350FM-12+002699999V0202301N006219999999N0000001N9+00111+99999102631ADDGF101991999999999999999999
0029029810999991903030906004+59500+020350FM-12+002699999V0202301N005119999999N0000001N9+00171+99999102681ADDGF102991999999999999999999
0029029810999991903030913004+59500+020350FM-12+002699999V0202301N009819999999N0000001N9+00281+99999103031ADDGF100991999999999999999999
0029029810999991903030920004+59500+020350FM-12+002699999V0202301N008219999999N0000001N9+00111+99999102841ADDGF100991999999999999999999
0029029810999991903031006004+59500+020350FM-12+002699999V0201801N005119999999N0000001N9+00001+99999102821ADDGF102991999999999999999999
0029029810999991903031013004+59500+020350FM-12+002699999V0201801N014919999999N0000001N9+00111+99999102661ADDGF104991999999999999999999
0029029810999991903031020004+59500+020350FM-12+002699999V0201801N008219999999N0000001N9+00111+99999102471ADDGF106991999999999999999999
0029029810999991903031106004+59500+020350FM-12+002699999V0201801N008719999999N0000001N9+00111+99999102281ADDGF108991999999999999999999
0029029810999991903031113004+59500+020350FM-12+002699999V0202001N006219999999N0000001N9+00171+99999102301ADDGF106991999999999999999999
0029029810999991903031120004+59500+020350FM-12+002699999V0202301N006219999999N0000001N9+00111+99999102341ADDGF106991999999999999999999
0029029810999991903031206004+59500+020350FM-12+002699999V0202301N007219999999N0000001N9+00111+99999102351ADDGF106991999999999999999999
0029029810999991903031213004+59500+020350FM-12+002699999V0202001N012919999999N0000001N9+00061+99999102301ADDGF106991999999999999999999
0029029810999991903031220004+59500+020350FM-12+002699999V0202001N009819999999N0000001N9+00111+99999102511ADDGF106991999999999999999999
0029029810999991903031306004+59500+020350FM-12+002699999V0202301N011819999999N0000001N9+00171+99999102561ADDGF106991999999999999999999
0029029810999991903031313004+59500+020350FM-12+002699999V0202301N008719999999N0000001N9+00111+99999102721ADDGF104991999999999999999999
0029029810999991903031320004+59500+020350FM-12+002699999V0201801N006219999999N0000001N9+00001+99999102721ADDGF100991999999999999999999
0029029810999991903031406004+59500+020350FM-12+002699999V0201801N007219999999N0000001N9+00111+99999102561ADDGF101991999999999999999999
0029029810999991903031413004+59500+020350FM-12+002699999V0201801N011819999999N0000001N9+00061+99999102521ADDGF106991999999999999999999
0029029810999991903031420004+59500+020350FM-12+002699999V0201801N005119999999N0000001N9+00001+99999102321ADDGF106991999999999999999999
0029029810999991903031506004+59500+020350FM-12+002699999V0201801N004119999999N0000001N9+00061+99999102321ADDGF106991999999999999999999
0029029810999991903031513004+59500+020350FM-12+002699999V0201801N007219999999N0000001N9+00221+99999102501ADDGF104991999999999999999999
0029029810999991903031520004+59500+020350FM-12+002699999V0201801N008719999999N0000001N9+00111+99999102631ADDGF107991999999999999999999
0029029810999991903031606004+59500+020350FM-12+002699999V0201401N010819999999N0000001N9+00061+99999102671ADDGF106991999999999999999999
0029029810999991903031613004+59500+020350FM-12+002699999V0201401N009819999999N0000001N9+00111+99999102681ADDGF102991999999999999999999
0029029810999991903031620004+59500+020350FM-12+002699999V0201401N008719999999N0000001N9+00111+99999102721ADDGF102991999999999999999999
0029029810999991903031706004+59500+020350FM-12+002699999V0201101N009819999999N0000001N9+00001+99999102641ADDGF102991999999999999999999
0029029810999991903031713004+59500+020350FM-12+002699999V0201101N009819999999N0000001N9+00001+99999102601ADDGF102991999999999999999999
0029029810999991903031720004+59500+020350FM-12+002699999V0201101N012919999999N0000001N9-00061+99999102521ADDGF102991999999999999999999
0029029810999991903031806004+59500+020350FM-12+002699999V0201401N011819999999N0000001N9+00061+99999102031ADDGF101991999999999999999999
0029029810999991903031813004+59500+020350FM-12+002699999V0201401N015919999999N0000001N9+00061+99999101881ADDGF105991999999999999999999
0029029810999991903031820004+59500+020350FM-12+002699999V0201401N013919999999N0000001N9+00061+99999101661ADDGF108991999999999999999999
0029029810999991903031906004+59500+020350FM-12+002699999V0201401N017019999999N0000001N9+00171+99999100911ADDGF108991999999999999999999
0035029810999991903031913004+59500+020350FM-12+002699999V0201801N008219999999N0000001N9+00111+99999100821ADDGF106991999999999999999999MW1691
0029029810999991903031920004+59500+020350FM-12+002699999V0202301N008219999999N0000001N9+00221+99999100991ADDGF102991999999999999999999
0029029810999991903032006004+59500+020350FM-12+002699999V0202301N010819999999N0000001N9+00281+99999100871ADDGF106991999999999999999999
0035029810999991903032013004+59500+020350FM-12+002699999V0202301N014919999999N0000001N9+00441+99999100421ADDGF108991999999999999999999MW1621
0029029810999991903032020004+59500+020350FM-12+002699999V0202301N013919999999N0000001N9+00391+99999100601ADDGF102991999999999999999999
0029029810999991903032106004+59500+020350FM-12+002699999V0202501N010819999999N0000001N9+00281+99999100741ADDGF102991999999999999999999
0029029810999991903032113004+59500+020350FM-12+002699999V0202301N011819999999N0000001N9+00281+99999100941ADDGF102991999999999999999999
0029029810999991903032120004+59500+020350FM-12+002699999V0202301N009819999999N0000001N9+00331+99999100991ADDGF106991999999999999999999
0029029810999991903032206004+59500+020350FM-12+002699999V0202301N014919999999N0000001N9+00391+99999100391ADDGF106991999999999999999999
0029029810999991903032213004+59500+020350FM-12+002699999V0202501N019019999999N0000001N9+00441+99999099761ADDGF106991999999999999999999
0029029810999991903032220004+59500+020350FM-12+002699999V0202301N015919999999N0000001N9+00561+99999099801ADDGF106991999999999999999999
0029029810999991903032306004+59500+020350FM-12+002699999V0202301N014919999999N0000001N9+00441+99999099391ADDGF106991999999999999999999
0029029810999991903032313004+59500+020350FM-12+002699999V0202301N011819999999N0000001N9+00561+99999099631ADDGF106991999999999999999999
0029029810999991903032320004+59500+020350FM-12+002699999V0202301N012919999999N0000001N9+00671+99999099461ADDGF104991999999999999999999
0029029810999991903032406004+59500+020350FM-12+002699999V0202301N015919999999N0000001N9+00561+99999098741ADDGF108991999999999999999999
0035029810999991903032413004+59500+020350FM-12+002699999V0202301N011819999999N0000001N9+00331+99999098341ADDGF108991999999999999999999MW1621
0029029810999991903032420004+59500+020350FM-12+002699999V0202501N010819999999N0000001N9+00281+99999098801ADDGF105991999999999999999999
0029029810999991903032506004+59500+020350FM-12+002699999V0202701N015919999999N0000001N9+00281+99999099701ADDGF102991999999999999999999
0029029810999991903032513004+59500+020350FM-12+002699999V0203201N005119999999N0000001N9+00061+99999100831ADDGF102991999999999999999999
0029029810999991903032520004+59500+020350FM-12+002699999V0201401N005119999999N0000001N9+00001+99999101241ADDGF106991999999999999999999
0029029810999991903032606004+59500+020350FM-12+002699999V0201801N009819999999N0000001N9+00111+99999101301ADDGF108991999999999999999999
0029029810999991903032613004+59500+020350FM-12+002699999V0201801N015919999999N0000001N9+00391+99999101001ADDGF106991999999999999999999
0029029810999991903032620004+59500+020350FM-12+002699999V0201801N020119999999N0000001N9+00561+99999100601ADDGF106991999999999999999999
0029029810999991903032706004+59500+020350FM-12+002699999V0202301N008219999999N0000001N9+00441+99999100271ADDGF106991999999999999999999
0029029810999991903032713004+59500+020350FM-12+002699999V0202301N004119999999N0000001N9+00501+99999100351ADDGF106991999999999999999999
0035029810999991903032720004+59500+020350FM-12+002699999V0201401N008719999999N0000001N9+00281+99999100041ADDGF104991999999999999999999MW1601
0029029810999991903032806004+59500+020350FM-12+002699999V0201801N008219999999N0000001N9+00331+99999099671ADDGF105991999999999999999999
0029029810999991903032813004+59500+020350FM-12+002699999V0202301N011819999999N0000001N9+00501+99999099381ADDGF105991999999999999999999
0029029810999991903032820004+59500+020350FM-12+002699999V0202301N012919999999N0000001N9+00501+99999099951ADDGF102991999999999999999999
0029029810999991903032906004+59500+020350FM-12+002699999V0202001N012919999999N0000001N9+00501+99999099351ADDGF104991999999999999999999
0029029810999991903032913004+59500+020350FM-12+002699999V0202301N012919999999N0000001N9+00501+99999099361ADDGF102991999999999999999999
0029029810999991903032920004+59500+020350FM-12+002699999V0202301N017019999999N0000001N9+00391+99999099401ADDGF102991999999999999999999
0029029810999991903033006004+59500+020350FM-12+002699999V0202301N009819999999N0000001N9+00391+99999099501ADDGF102991999999999999999999
0029029810999991903033013004+59500+020350FM-12+002699999V0202301N013919999999N0000001N9+00501+99999100021ADDGF102991999999999999999999
0029029810999991903033020004+59500+020350FM-12+002699999V0202301N009819999999N0000001N9+00391+99999100221ADDGF108991999999999999999999
0029029810999991903033106004+59500+020350FM-12+002699999V0201801N004119999999N0000001N9+00331+99999100261ADDGF106991999999999999999999
0029029810999991903033113004+59500+020350FM-12+002699999V0201601N008219999999N0000001N9+00501+99999100301ADDGF106991999999999999999999
0035029810999991903033120004+59500+020350FM-12+002699999V0200701N006219999999N0000001N9+00441+99999100241ADDGF108991999999999999999999MW1641
0035029810999991903040106004+59500+020350FM-12+002699999V0200501N014919999999N0000001N9+00111+99999100231ADDGF108991999999999999999999MW1721
0029029810999991903040113004+59500+020350FM-12+002699999V0200501N014919999999N0000001N9-00111+99999100681ADDGF106991999999999999999999
0029029810999991903040120004+59500+020350FM-12+002699999V0200501N020119999999N0000001N9-00111+99999100761ADDGF106991999999999999999999
0029029810999991903040206004+59500+020350FM-12+002699999V0200501N013919999999N0000001N9-00221+99999100511ADDGF105991999999999999999999
0029029810999991903040213004+59500+020350FM-12+002699999V0200501N011819999999N0000001N9+00001+99999100581ADDGF102991999999999999999999
0029029810999991903040220004+59500+020350FM-12+002699999V0200201N008719999999N0000001N9+00001+99999100641ADDGF102991999999999999999999
0029029810999991903040306004+59500+020350FM-12+002699999V0200501N014919999999N0000001N9-00171+99999100601ADDGF103991999999999999999999
0029029810999991903040313004+59500+020350FM-12+002699999V0200201N013919999999N0000001N9-00171+99999100661ADDGF104991999999999999999999
0029029810999991903040320004+59500+020350FM-12+002699999V0203601N008719999999N0000001N9-00061+99999100561ADDGF104991999999999999999999
0029029810999991903040406004+59500+020350FM-12+002699999V0203201N011819999999N0000001N9-00281+99999100261ADDGF106991999999999999999999
0029029810999991903040413004+59500+020350FM-12+002699999V0202701N003119999999N0000001N9-00171+99999100021ADDGF106991999999999999999999
0029029810999991903040420004+59500+020350FM-12+002699999V0201401N008719999999N0000001N9-00111+99999099441ADDGF108991999999999999999999
0035029810999991903040506004+59500+020350FM-12+002699999V0200901N014919999999N0000001N9+00061+99999098441ADDGF108991999999999999999999MW1741
0029029810999991903040513004+59500+020350FM-12+002699999V0201801N008219999999N0000001N9+00441+99999098861ADDGF106991999999999999999999
0029029810999991903040520004+59500+020350FM-12+002699999V0201401N005119999999N0000001N9+00221+99999099311ADDGF106991999999999999999999
0029029810999991903040606004+59500+020350FM-12+002699999V0201401N006219999999N0000001N9+00171+99999099321ADDGF106991999999999999999999
0029029810999991903040613004+59500+020350FM-12+002699999V0200901N001019999999N0000001N9+00281+99999099961ADDGF106991999999999999999999
0029029810999991903040620004+59500+020350FM-12+002699999V0203201N004119999999N0000001N9+00111+99999100061ADDGF106991999999999999999999
0035029810999991903040706004+59500+020350FM-12+002699999V0201601N011819999999N0000001N9+00171+99999099201ADDGF106991999999999999999999MW1641
0029029810999991903040713004+59500+020350FM-12+002699999V0201801N017019999999N0000001N9+00221+99999098221ADDGF108991999999999999999999
0029029810999991903040720004+59500+020350FM-12+002699999V0201801N004119999999N0000001N9+00281+99999098461ADDGF106991999999999999999999
0029029810999991903040806004+59500+020350FM-12+002699999V0201801N004119999999N0000001N9+00391+99999099111ADDGF108991999999999999999999
0029029810999991903040813004+59500+020350FM-12+002699999V0201801N003119999999N0000001N9+00281+99999099801ADDGF108991999999999999999999
0029029810999991903040820004+59500+020350FM-12+002699999V0202301N002119999999N0000001N9+00171+99999100441ADDGF108991999999999999999999
0029029810999991903040906004+59500+020350FM-12+002699999V0203601N005119999999N0000001N9+00061+99999100951ADDGF106991999999999999999999
0029029810999991903040913004+59500+020350FM-12+002699999V0203601N007219999999N0000001N9+00171+99999101361ADDGF106991999999999999999999
0029029810999991903040920004+59500+020350FM-12+002699999V0203401N004119999999N0000001N9+00221+99999101681ADDGF106991999999999999999999
0029029810999991903041006004+59500+020350FM-12+002699999V0202501N004119999999N0000001N9+00171+99999102191ADDGF101991999999999999999999
0029029810999991903041013004+59500+020350FM-12+002699999V0202301N005119999999N0000001N9+00391+99999102341ADDGF102991999999999999999999
0029029810999991903041020004+59500+020350FM-12+002699999V0202301N008219999999N0000001N9+00221+99999102161ADDGF107991999999999999999999
0029029810999991903041106004+59500+020350FM-12+002699999V0201801N008719999999N0000001N9+00221+99999101831ADDGF106991999999999999999999
0029029810999991903041113004+59500+020350FM-12+002699999V0202001N008219999999N0000001N9+00331+99999101481ADDGF102991999999999999999999
0029029810999991903041120004+59500+020350FM-12+002699999V0201801N008219999999N0000001N9+00111+99999100911ADDGF108991999999999999999999
0029029810999991903041206004+59500+020350FM-12+002699999V0201801N010819999999N0000001N9+00331+99999099951ADDGF108991999999999999999999
0029029810999991903041213004+59500+020350FM-12+002699999V0201801N011819999999N0000001N9+00391+99999099711ADDGF105991999999999999999999
0029029810999991903041220004+59500+020350FM-12+002699999V0201801N008219999999N0000001N9+00281+99999099551ADDGF108991999999999999999999
0029029810999991903041306004+59500+020350FM-12+002699999V0201801N002119999999N0000001N9+00221+99999099461ADDGF106991999999999999999999
0029029810999991903041313004+59500+020350FM-12+002699999V0209991C000019999999N0000001N9+00441+99999099421ADDGF104991999999999999999999
0029029810999991903041320004+59500+020350FM-12+002699999V0202701N002119999999N0000001N9+00221+99999099241ADDGF104991999999999999999999
0029029810999991903041406004+59500+020350FM-12+002699999V0202701N009819999999N0000001N9+00221+99999098841ADDGF106991999999999999999999
0029029810999991903041413004+59500+020350FM-12+002699999V0202301N015919999999N0000001N9+00281+99999099311ADDGF106991999999999999999999
0029029810999991903041420004+59500+020350FM-12+002699999V0202001N009819999999N0000001N9+00281+99999099631ADDGF103991999999999999999999
0029029810999991903041506004+59500+020350FM-12+002699999V0201601N008219999999N0000001N9+00171+99999099361ADDGF106991999999999999999999
0029029810999991903041513004+59500+020350FM-12+002699999V0202301N007219999999N0000001N9+00331+99999099521ADDGF103991999999999999999999
0029029810999991903041520004+59500+020350FM-12+002699999V0202001N008219999999N0000001N9+00281+99999099551ADDGF105991999999999999999999
0029029810999991903041606004+59500+020350FM-12+002699999V0202001N008719999999N0000001N9+00171+99999099551ADDGF106991999999999999999999
0029029810999991903041613004+59500+020350FM-12+002699999V0202301N007219999999N0000001N9+00441+99999099801ADDGF105991999999999999999999
0029029810999991903041620004+59500+020350FM-12+002699999V0202301N003119999999N0000001N9+00111+99999099951ADDGF106991999999999999999999
0035029810999991903041706004+59500+020350FM-12+002699999V0202901N006219999999N0000001N9+00111+99999100201ADDGF108991999999999999999999MW1701
0035029810999991903041713004+59500+020350FM-12+002699999V0202301N008219999999N0000001N9+00391+99999100661ADDGF106991999999999999999999MW1741
0029029810999991903041720004+59500+020350FM-12+002699999V0202301N005119999999N0000001N9+00111+99999100981ADDGF108991999999999999999999
0029029810999991903041806004+59500+020350FM-12+002699999V0201401N003119999999N0000001N9+00061+99999101381ADDGF108991999999999999999999
0029029810999991903041813004+59500+020350FM-12+002699999V0200501N004119999999N0000001N9+00001+99999101481ADDGF106991999999999999999999
0029029810999991903041820004+59500+020350FM-12+002699999V0200201N011819999999N0000001N9+00171+99999101441ADDGF105991999999999999999999
0029029810999991903041906004+59500+020350FM-12+002699999V0203601N023119999999N0000001N9+00171+99999100181ADDGF106991999999999999999999
0029029810999991903041913004+59500+020350FM-12+002699999V0200201N021119999999N0000001N9+00281+99999099381ADDGF108991999999999999999999
0029029810999991903041920004+59500+020350FM-12+002699999V0200501N015919999999N0000001N9+00221+99999098881ADDGF108991999999999999999999
0029029810999991903042006004+59500+020350FM-12+002699999V0201401N011819999999N0000001N9+00331+99999098501ADDGF103991999999999999999999
0029029810999991903042013004+59500+020350FM-12+002699999V0201101N009819999999N0000001N9+00331+99999098821ADDGF102991999999999999999999
0035029810999991903042020004+59500+020350FM-12+002699999V0200901N009819999999N0000001N9+00281+99999098711ADDGF108991999999999999999999MW1691
0035029810999991903042106004+59500+020350FM-12+002699999V0201401N008719999999N0000001N9+00061+99999098631ADDGF108991999999999999999999MW1691
0029029810999991903042113004+59500+020350FM-12+002699999V0201401N004119999999N0000001N9+00281+99999098721ADDGF106991999999999999999999
0029029810999991903042120004+59500+020350FM-12+002699999V0202901N003119999999N0000001N9+00171+99999098981ADDGF106991999999999999999999
0029029810999991903042206004+59500+020350FM-12+002699999V0202301N005119999999N0000001N9+00171+99999099341ADDGF106991999999999999999999
0029029810999991903042213004+59500+020350FM-12+002699999V0209991C000019999999N0000001N9+00781+99999099701ADDGF104991999999999999999999
0029029810999991903042220004+59500+020350FM-12+002699999V0201801N004119999999N0000001N9+00221+99999099601ADDGF106991999999999999999999
0029029810999991903042306004+59500+020350FM-12+002699999V0202301N002119999999N0000001N9+00281+99999100151ADDGF104991999999999999999999
0029029810999991903042313004+59500+020350FM-12+002699999V0209991C000019999999N0000001N9+00441+99999100661ADDGF102991999999999999999999
0029029810999991903042320004+59500+020350FM-12+002699999V0200901N005119999999N0000001N9+00221+99999100781ADDGF105991999999999999999999
0029029810999991903042406004+59500+020350FM-12+002699999V0200901N015919999999N0000001N9+00281+99999100341ADDGF106991999999999999999999
0029029810999991903042413004+59500+020350FM-12+002699999V0200901N012919999999N0000001N9+00391+99999100221ADDGF106991999999999999999999
0029029810999991903042420004+59500+020350FM-12+002699999V0200901N008719999999N0000001N9+00501+99999100181ADDGF105991999999999999999999
0029029810999991903042506004+59500+020350FM-12+002699999V0201401N008219999999N0000001N9+00611+99999100481ADDGF105991999999999999999999
0029029810999991903042513004+59500+020350FM-12+002699999V0201401N008219999999N0000001N9+00671+99999100751ADDGF102991999999999999999999
0029029810999991903042520004+59500+020350FM-12+002699999V0201101N009819999999N0000001N9+00611+99999100821ADDGF105991999999999999999999
0029029810999991903042606004+59500+020350FM-12+002699999V0201401N008219999999N0000001N9+00561+99999100921ADDGF104991999999999999999999
0029029810999991903042613004+59500+020350FM-12+002699999V0201101N007219999999N0000001N9+00561+99999101041ADDGF102991999999999999999999
0029029810999991903042620004+59500+020350FM-12+002699999V0201101N007219999999N0000001N9+00721+99999100841ADDGF103991999999999999999999
0029029810999991903042706004+59500+020350FM-12+002699999V0200901N003119999999N0000001N9+00441+99999100831ADDGF106991999999999999999999
0029029810999991903042713004+59500+020350FM-12+002699999V0200901N004119999999N0000001N9+00501+99999100861ADDGF102991999999999999999999
0029029810999991903042720004+59500+020350FM-12+002699999V0200901N004119999999N0000001N9+00501+99999100861ADDGF106991999999999999999999
0029029810999991903042806004+59500+020350FM-12+002699999V0201101N005119999999N0000001N9+00441+99999100921ADDGF106991999999999999999999
0029029810999991903042813004+59500+020350FM-12+002699999V0201401N006219999999N0000001N9+00391+99999100991ADDGF108991999999999999999999
0029029810999991903042820004+59500+020350FM-12+002699999V0209991C000019999999N0000001N9+00391+99999101191ADDGF108991999999999999999999
0029029810999991903042906004+59500+020350FM-12+002699999V0209991C000019999999N0000001N9+00331+99999101111ADDGF108991999999999999999999
0029029810999991903042913004+59500+020350FM-12+002699999V0203601N004119999999N0000001N9+00561+99999100981ADDGF106991999999999999999999
0029029810999991903042920004+59500+020350FM-12+002699999V0200701N005119999999N0000001N9+00611+99999100681ADDGF106991999999999999999999
0029029810999991903043006004+59500+020350FM-12+002699999V0200501N004119999999N0000001N9+00501+99999100311ADDGF105991999999999999999999
0029029810999991903043013004+59500+020350FM-12+002699999V0200501N006219999999N0000001N9+00781+99999100221ADDGF107991999999999999999999
0029029810999991903043020004+59500+020350FM-12+002699999V0203601N007219999999N0000001N9+00781+99999100071ADDGF107991999999999999999999
0029029810999991903050106004+59500+020350FM-12+002699999V0203401N003119999999N0000001N9+00501+99999099981ADDGF107991999999999999999999
0035029810999991903050113004+59500+020350FM-12+002699999V0203201N008719999999N0000001N9+00501+99999100101ADDGF108991999999999999999999MW1621
0029029810999991903050120004+59500+020350FM-12+002699999V0203201N008219999999N0000001N9+00441+99999100201ADDGF108991999999999999999999
0029029810999991903050206004+59500+020350FM-12+002699999V0203401N011819999999N0000001N9+00441+99999100681ADDGF108991999999999999999999
0029029810999991903050213004+59500+020350FM-12+002699999V0203601N006219999999N0000001N9+00441+99999101191ADDGF108991999999999999999999
0029029810999991903050220004+59500+020350FM-12+002699999V0203401N005119999999N0000001N9+00391+99999101401ADDGF108991999999999999999999
0029029810999991903050306004+59500+020350FM-12+002699999V0200501N004119999999N0000001N9+00281+99999101361ADDGF108991999999999999999999
0029029810999991903050313004+59500+020350FM-12+002699999V0201601N003119999999N0000001N9+00501+99999101301ADDGF108991999999999999999999
0029029810999991903050320004+59500+020350FM-12+002699999V0201401N005119999999N0000001N9+00441+99999100921ADDGF108991999999999999999999
0029029810999991903050406004+59500+020350FM-12+002699999V0200901N006219999999N0000001N9+00441+99999100461ADDGF108991999999999999999999
0029029810999991903050413004+59500+020350FM-12+002699999V0200901N003119999999N0000001N9+00561+99999100441ADDGF102991999999999999999999
0029029810999991903050420004+59500+020350FM-12+002699999V0200201N007219999999N0000001N9+00391+99999100521ADDGF108991999999999999999999
0029029810999991903050506004+59500+020350FM-12+002699999V0200701N013919999999N0000001N9+00501+99999100061ADDGF108991999999999999999999
0035029810999991903050513004+59500+020350FM-12+002699999V0200701N013919999999N0000001N9+00441+99999099841ADDGF108991999999999999999999MW1621
0029029810999991903050520004+59500+020350FM-12+002699999V0200901N009819999999N0000001N9+00441+99999099641ADDGF106991999999999999999999
0029029810999991903050606004+59500+020350FM-12+002699999V0200901N015919999999N0000001N9+00331+99999099421ADDGF108991999999999999999999
0029029810999991903050613004+59500+020350FM-12+002699999V0201601N006219999999N0000001N9+00561+99999099521ADDGF108991999999999999999999
0029029810999991903050620004+59500+020350FM-12+002699999V0202301N006219999999N0000001N9+00501+99999099701ADDGF108991999999999999999999
0029029810999991903050706004+59500+020350FM-12+002699999V0202701N008719999999N0000001N9+00331+99999100031ADDGF107991999999999999999999
0029029810999991903050713004+59500+020350FM-12+002699999V0202701N006219999999N0000001N9+00331+99999100481ADDGF106991999999999999999999
0029029810999991903050720004+59500+020350FM-12+002699999V0203201N004119999999N0000001N9+00281+99999100601ADDGF106991999999999999999999
0029029810999991903050806004+59500+020350FM-12+002699999V0201401N003119999999N0000001N9+00331+99999100671ADDGF108991999999999999999999
0029029810999991903050813004+59500+020350FM-12+002699999V0200901N008719999999N0000001N9+00281+99999100921ADDGF107991999999999999999999
0029029810999991903050820004+59500+020350FM-12+002699999V0200501N006219999999N0000001N9+00331+99999101181ADDGF108991999999999999999999
0029029810999991903050906004+59500+020350FM-12+002699999V0200701N006219999999N0000001N9+00391+99999101301ADDGF107991999999999999999999
0029029810999991903050913004+59500+020350FM-12+002699999V0200901N007219999999N0000001N9+00441+99999101321ADDGF107991999999999999999999
0029029810999991903050920004+59500+020350FM-12+002699999V0200901N009819999999N0000001N9+00281+99999101301ADDGF102991999999999999999999
0029029810999991903051006004+59500+020350FM-12+002699999V0200901N008219999999N0000001N9+00331+99999101161ADDGF102991999999999999999999
0029029810999991903051013004+59500+020350FM-12+002699999V0200901N007219999999N0000001N9+00391+99999101111ADDGF102991999999999999999999
0029029810999991903051020004+59500+020350FM-12+002699999V0200501N008719999999N0000001N9+00331+99999100911ADDGF102991999999999999999999
0029029810999991903051106004+59500+020350FM-12+002699999V0200701N007219999999N0000001N9+00331+99999100631ADDGF102991999999999999999999
0029029810999991903051113004+59500+020350FM-12+002699999V0200901N008219999999N0000001N9+00391+99999100501ADDGF103991999999999999999999
0029029810999991903051120004+59500+020350FM-12+002699999V0200901N009819999999N0000001N9+00441+99999100281ADDGF104991999999999999999999
0029029810999991903051206004+59500+020350FM-12+002699999V0200501N005119999999N0000001N9+00441+99999100111ADDGF106991999999999999999999
0029029810999991903051213004+59500+020350FM-12+002699999V0203601N003119999999N0000001N9+00721+99999100181ADDGF106991999999999999999999
0029029810999991903051220004+59500+020350FM-12+002699999V0202001N003119999999N0000001N9+00441+99999100151ADDGF107991999999999999999999
0029029810999991903051306004+59500+020350FM-12+002699999V0201801N007219999999N0000001N9+00391+99999099861ADDGF108991999999999999999999
0029029810999991903051313004+59500+020350FM-12+002699999V0202301N006219999999N0000001N9+00561+99999100021ADDGF105991999999999999999999
0029029810999991903051320004+59500+020350FM-12+002699999V0202501N004119999999N0000001N9+00331+99999100241ADDGF106991999999999999999999
0035029810999991903051406004+59500+020350FM-12+002699999V0202301N002119999999N0000001N9+00831+99999100341ADDGF102991999999999999999999MW1621
0035029810999991903051413004+59500+020350FM-12+002699999V0202301N008719999999N0000001N9+00611+99999100321ADDGF106991999999999999999999MW1621
0029029810999991903051420004+59500+020350FM-12+002699999V0202001N010819999999N0000001N9+00501+99999099911ADDGF108991999999999999999999
0029029810999991903051506004+59500+020350FM-12+002699999V0202501N008719999999N0000001N9+00611+99999100191ADDGF103991999999999999999999
0029029810999991903051513004+59500+020350FM-12+002699999V0202501N003119999999N0000001N9+00831+99999100821ADDGF104991999999999999999999
0029029810999991903051520004+59500+020350FM-12+002699999V0202301N010819999999N0000001N9+00671+99999100781ADDGF106991999999999999999999
0029029810999991903051606004+59500+020350FM-12+002699999V0202301N012919999999N0000001N9+00721+99999100461ADDGF107991999999999999999999
0029029810999991903051613004+59500+020350FM-12+002699999V0202301N011819999999N0000001N9+00781+99999100441ADDGF102991999999999999999999
0029029810999991903051620004+59500+020350FM-12+002699999V0202301N009819999999N0000001N9+00721+99999100421ADDGF102991999999999999999999
0029029810999991903051706004+59500+020350FM-12+002699999V0202301N008719999999N0000001N9+00611+99999100271ADDGF105991999999999999999999
0029029810999991903051713004+59500+020350FM-12+002699999V0202301N009819999999N0000001N9+00671+99999100221ADDGF102991999999999999999999
0029029810999991903051720004+59500+020350FM-12+002699999V0202301N008219999999N0000001N9+00611+99999100031ADDGF102991999999999999999999
0029029810999991903051806004+59500+020350FM-12+002699999V0202301N010819999999N0000001N9+00611+99999099881ADDGF108991999999999999999999
0029029810999991903051813004+59500+020350FM-12+002699999V0200501N006219999999N0000001N9+00501+99999099941ADDGF108991999999999999999999
0035029810999991903051820004+59500+020350FM-12+002699999V0200501N007219999999N0000001N9+00501+99999099881ADDGF108991999999999999999999MW1601
0035029810999991903051906004+59500+020350FM-12+002699999V0203601N008719999999N0000001N9+00561+99999099741ADDGF108991999999999999999999MW1601
0035029810999991903051913004+59500+020350FM-12+002699999V0203201N009819999999N0000001N9+00501+99999099701ADDGF108991999999999999999999MW1601
0035029810999991903051920004+59500+020350FM-12+002699999V0203201N011819999999N0000001N9+00441+99999099701ADDGF108991999999999999999999MW1601
0029029810999991903052006004+59500+020350FM-12+002699999V0203201N011819999999N0000001N9+00501+99999100021ADDGF107991999999999999999999
0029029810999991903052013004+59500+020350FM-12+002699999V0209991C000019999999N0000001N9+00891+99999100511ADDGF103991999999999999999999
0029029810999991903052020004+59500+020350FM-12+002699999V0202001N006219999999N0000001N9+00561+99999100741ADDGF103991999999999999999999
0029029810999991903052106004+59500+020350FM-12+002699999V0202001N003119999999N0000001N9+00721+99999101071ADDGF105991999999999999999999
0029029810999991903052113004+59500+020350FM-12+002699999V0202301N003119999999N0000001N9+00891+99999101431ADDGF102991999999999999999999
0029029810999991903052120004+59500+020350FM-12+002699999V0202701N006219999999N0000001N9+00781+99999101741ADDGF101991999999999999999999
0029029810999991903052206004+59500+020350FM-12+002699999V0203601N002119999999N0000001N9+00671+99999102111ADDGF101991999999999999999999
0029029810999991903052213004+59500+020350FM-12+002699999V0202701N002119999999N0000001N9+01001+99999102321ADDGF101991999999999999999999
0029029810999991903052220004+59500+020350FM-12+002699999V0202701N005119999999N0000001N9+01061+99999102361ADDGF102991999999999999999999
0029029810999991903052306004+59500+020350FM-12+002699999V0203601N005119999999N0000001N9+00831+99999102431ADDGF101991999999999999999999
0000029810999991903052313004+59500+020350FM-12+002699999V0203201N002119999999N0000001N9+01221+99999102351
0029029810999991903052320004+59500+020350FM-12+002699999V0202501N002119999999N0000001N9+01281+99999102151ADDGF101991999999999999999999
0029029810999991903052406004+59500+020350FM-12+002699999V0209991C000019999999N0000001N9+01501+99999102221ADDGF101991999999999999999999
0029029810999991903052413004+59500+020350FM-12+002699999V0203201N008219999999N0000001N9+00941+99999102261ADDGF102991999999999999999999
0029029810999991903052420004+59500+020350FM-12+002699999V0203401N006219999999N0000001N9+00781+99999102301ADDGF104991999999999999999999
0029029810999991903052506004+59500+020350FM-12+002699999V0203601N009819999999N0000001N9+00781+99999102181ADDGF107991999999999999999999
0029029810999991903052513004+59500+020350FM-12+002699999V0203601N010819999999N0000001N9+01221+99999102141ADDGF106991999999999999999999
0029029810999991903052520004+59500+020350FM-12+002699999V0200501N007219999999N0000001N9+01061+99999102141ADDGF108991999999999999999999
0029029810999991903052606004+59500+020350FM-12+002699999V0203601N006219999999N0000001N9+01111+99999102221ADDGF104991999999999999999999
0029029810999991903052613004+59500+020350FM-12+002699999V0203201N006219999999N0000001N9+01001+99999102351ADDGF102991999999999999999999
0029029810999991903052620004+59500+020350FM-12+002699999V0203401N010819999999N0000001N9+01061+99999102391ADDGF102991999999999999999999
0029029810999991903052706004+59500+020350FM-12+002699999V0203601N008719999999N0000001N9+00941+99999102591ADDGF104991999999999999999999
0029029810999991903052713004+59500+020350FM-12+002699999V0203601N008219999999N0000001N9+01221+99999102721ADDGF100991999999999999999999
0029029810999991903052720004+59500+020350FM-12+002699999V0203601N006219999999N0000001N9+00941+99999102661ADDGF101991999999999999999999
0029029810999991903052806004+59500+020350FM-12+002699999V0200901N008719999999N0000001N9+01111+99999102681ADDGF101991999999999999999999
0029029810999991903052813004+59500+020350FM-12+002699999V0200901N007219999999N0000001N9+01111+99999102551ADDGF101991999999999999999999
0029029810999991903052820004+59500+020350FM-12+002699999V0209991C000019999999N0000001N9+01111+99999102341ADDGF101991999999999999999999
0029029810999991903052906004+59500+020350FM-12+002699999V0209991C000019999999N0000001N9+01561+99999102111ADDGF101991999999999999999999
0029029810999991903052913004+59500+020350FM-12+002699999V0201601N002119999999N0000001N9+01891+99999101981ADDGF100991999999999999999999
0029029810999991903052920004+59500+020350FM-12+002699999V0201801N008219999999N0000001N9+01391+99999101711ADDGF103991999999999999999999
0029029810999991903053006004+59500+020350FM-12+002699999V0201801N008219999999N0000001N9+01441+99999101621ADDGF102991999999999999999999
0029029810999991903053013004+59500+020350FM-12+002699999V0201801N005119999999N0000001N9+01561+99999101441ADDGF104991999999999999999999
0029029810999991903053020004+59500+020350FM-12+002699999V0201801N008219999999N0000001N9+01281+99999101201ADDGF103991999999999999999999
0029029810999991903053106004+59500+020350FM-12+002699999V0202001N007219999999N0000001N9+01501+99999101021ADDGF103991999999999999999999
0029029810999991903053113004+59500+020350FM-12+002699999V0201801N007219999999N0000001N9+01441+99999100941ADDGF108991999999999999999999
0035029810999991903053120004+59500+020350FM-12+002699999V0201801N004119999999N0000001N9+01171+99999100701ADDGF106991999999999999999999MW1131
0029029810999991903060106004+59500+020350FM-12+002699999V0209991C000019999999N0000001N9+99999+99999100561ADDGF101991999999999999999999
0029029810999991903060113004+59500+020350FM-12+002699999V0209991C000019999999N0000001N9+99999+99999100661ADDGF100991999999999999999999
0029029810999991903060120004+59500+020350FM-12+002699999V0202001N002119999999N0000001N9+99999+99999100561ADDGF102991999999999999999999
0029029810999991903060206004+59500+020350FM-12+002699999V0201801N008219999999N0000001N9+99999+99999100351ADDGF101991999999999999999999
0029029810999991903060213004+59500+020350FM-12+002699999V0201801N008219999999N0000001N9+99999+99999100301ADDGF102991999999999999999999
0029029810999991903060220004+59500+020350FM-12+002699999V0201801N008219999999N0000001N9+99999+99999100181ADDGF102991999999999999999999
0035029810999991903060306004+59500+020350FM-12+002699999V0203201N012919999999N0000001N9+99999+99999100671ADDGF108991999999999999999999MW1621
0029029810999991903060313004+59500+020350FM-12+002699999V0203201N008719999999N0000001N9+99999+99999100911ADDGF106991999999999999999999
0029029810999991903060320004+59500+020350FM-12+002699999V0203201N009819999999N0000001N9+99999+99999101121ADDGF102991999999999999999999
0029029810999991903060406004+59500+020350FM-12+002699999V0203201N010819999999N0000001N9+99999+99999101301ADDGF101991999999999999999999
0029029810999991903060413004+59500+020350FM-12+002699999V0203201N014919999999N0000001N9+99999+99999101441ADDGF105991999999999999999999
0035029810999991903060420004+59500+020350FM-12+002699999V0203201N008719999999N0000001N9+99999+99999101241ADDGF108991999999999999999999MW1601
0029029810999991903060506004+59500+020350FM-12+002699999V0203401N012919999999N0000001N9+99999+99999100901ADDGF105991999999999999999999
0029029810999991903060513004+59500+020350FM-12+002699999V0203201N014919999999N0000001N9+99999+99999100601ADDGF106991999999999999999999
0029029810999991903060520004+59500+020350FM-12+002699999V0203201N012919999999N0000001N9+99999+99999100701ADDGF102991999999999999999999
0029029810999991903060606004+59500+020350FM-12+002699999V0203401N018019999999N0000001N9+99999+99999100901ADDGF102991999999999999999999
0029029810999991903060613004+59500+020350FM-12+002699999V0203201N011819999999N0000001N9+99999+99999101121ADDGF104991999999999999999999
0029029810999991903060620004+59500+020350FM-12+002699999V0203201N009819999999N0000001N9+99999+99999101301ADDGF106991999999999999999999
0029029810999991903060706004+59500+020350FM-12+002699999V0203601N006219999999N0000001N9+99999+99999102001ADDGF102991999999999999999999
0029029810999991903060713004+59500+020350FM-12+002699999V0203201N006219999999N0000001N9+99999+99999102511ADDGF101991999999999999999999
0029029810999991903060720004+59500+020350FM-12+002699999V0202701N002119999999N0000001N9+99999+99999102661ADDGF102991999999999999999999
0029029810999991903060806004+59500+020350FM-12+002699999V0202301N004119999999N0000001N9+99999+99999102761ADDGF106991999999999999999999
0029029810999991903060813004+59500+020350FM-12+002699999V0209991C000019999999N0000001N9+99999+99999102781ADDGF102991999999999999999999
0029029810999991903060820004+59500+020350FM-12+002699999V0200501N005119999999N0000001N9+99999+99999102671ADDGF102991999999999999999999
0029029810999991903060906004+59500+020350FM-12+002699999V0209991C000019999999N0000001N9+99999+99999102681ADDGF100991999999999999999999
0029029810999991903060913004+59500+020350FM-12+002699999V0209991C000019999999N0000001N9+99999+99999102581ADDGF101991999999999999999999
0029029810999991903060920004+59500+020350FM-12+002699999V0200901N006219999999N0000001N9+99999+99999102201ADDGF102991999999999999999999
0029029810999991903061006004+59500+020350FM-12+002699999V0201401N007219999999N0000001N9+99999+99999101661ADDGF102991999999999999999999
0029029810999991903061013004+59500+020350FM-12+002699999V0201601N002119999999N0000001N9+99999+99999101351ADDGF102991999999999999999999
0029029810999991903061020004+59500+020350FM-12+002699999V0201601N006219999999N0000001N9+99999+99999100791ADDGF106991999999999999999999
0029029810999991903061106004+59500+020350FM-12+002699999V0201801N007219999999N0000001N9+99999+99999100271ADDGF106991999999999999999999
0035029810999991903061113004+59500+020350FM-12+002699999V0203601N008719999999N0000001N9+99999+99999100401ADDGF108991999999999999999999MW1621
0029029810999991903061120004+59500+020350FM-12+002699999V0209991C000019999999N0000001N9+99999+99999100281ADDGF108991999999999999999999
0029029810999991903061206004+59500+020350FM-12+002699999V0203601N008719999999N0000001N9+99999+99999100391ADDGF108991999999999999999999
0029029810999991903061213004+59500+020350FM-12+002699999V0202301N008219999999N0000001N9+99999+99999100751ADDGF108991999999999999999999
0029029810999991903061220004+59500+020350FM-12+002699999V0203401N009819999999N0000001N9+99999+99999100801ADDGF107991999999999999999999
0029029810999991903061306004+59500+020350FM-12+002699999V0203401N007219999999N0000001N9+99999+99999100821ADDGF108991999999999999999999
0029029810999991903061313004+59500+020350FM-12+002699999V0203601N007219999999N0000001N9+99999+99999101031ADDGF108991999999999999999999
0029029810999991903061320004+59500+020350FM-12+002699999V0203401N008719999999N0000001N9+99999+99999101201ADDGF108991999999999999999999
0029029810999991903061406004+59500+020350FM-12+002699999V0203601N008219999999N0000001N9+99999+99999101341ADDGF108991999999999999999999
0029029810999991903061413004+59500+020350FM-12+002699999V0203601N007219999999N0000001N9+99999+99999101521ADDGF108991999999999999999999
0029029810999991903061420004+59500+020350FM-12+002699999V0203601N005119999999N0000001N9+99999+99999101521ADDGF106991999999999999999999
0029029810999991903061506004+59500+020350FM-12+002699999V0200501N006219999999N0000001N9+99999+99999101391ADDGF102991999999999999999999
0029029810999991903061513004+59500+020350FM-12+002699999V0209991C000019999999N0000001N9+01331+99999101321ADDGF102991999999999999999999
0029029810999991903061520004+59500+020350FM-12+002699999V0209991C000019999999N0000001N9+01171+99999101181ADDGF103991999999999999999999
0029029810999991903061606004+59500+020350FM-12+002699999V0200501N005119999999N0000001N9+01281+99999101141ADDGF101991999999999999999999
0029029810999991903061613004+59500+020350FM-12+002699999V0209991C000019999999N0000001N9+01561+99999101151ADDGF104991999999999999999999
0029029810999991903061620004+59500+020350FM-12+002699999V0200501N006219999999N0000001N9+01331+99999101041ADDGF103991999999999999999999
0029029810999991903061706004+59500+020350FM-12+002699999V0201101N006219999999N0000001N9+01281+99999100721ADDGF102991999999999999999999
0029029810999991903061713004+59500+020350FM-12+002699999V0201401N005119999999N0000001N9+01281+99999100551ADDGF102991999999999999999999
0029029810999991903061720004+59500+020350FM-12+002699999V0201101N003119999999N0000001N9+01281+99999100161ADDGF106991999999999999999999
0029029810999991903061806004+59500+020350FM-12+002699999V0209991C000019999999N0000001N9+01281+99999099561ADDGF108991999999999999999999
0029029810999991903061813004+59500+020350FM-12+002699999V0202301N008219999999N0000001N9+01221+99999099641ADDGF108991999999999999999999
0029029810999991903061820004+59500+020350FM-12+002699999V0202001N009819999999N0000001N9+01221+99999099681ADDGF104991999999999999999999
0029029810999991903061906004+59500+020350FM-12+002699999V0202001N013919999999N0000001N9+01171+99999099801ADDGF105991999999999999999999
0029029810999991903061913004+59500+020350FM-12+002699999V0201801N012919999999N0000001N9+01281+99999100161ADDGF102991999999999999999999
0029029810999991903061920004+59500+020350FM-12+002699999V0201801N009819999999N0000001N9+01111+99999100401ADDGF102991999999999999999999
0029029810999991903062006004+59500+020350FM-12+002699999V0201801N006219999999N0000001N9+01221+99999100751ADDGF106991999999999999999999
0035029810999991903062013004+59500+020350FM-12+002699999V0200701N002119999999N0000001N9+01061+99999100871ADDGF108991999999999999999999MW1601
0029029810999991903062020004+59500+020350FM-12+002699999V0200501N010819999999N0000001N9+01171+99999100591ADDGF107991999999999999999999
0029029810999991903062106004+59500+020350FM-12+002699999V0200701N008219999999N0000001N9+01171+99999100231ADDGF108991999999999999999999
0029029810999991903062113004+59500+020350FM-12+002699999V0201801N007219999999N0000001N9+01611+99999100191ADDGF108991999999999999999999
0029029810999991903062120004+59500+020350FM-12+002699999V0203601N008219999999N0000001N9+00941+99999100311ADDGF108991999999999999999999
0029029810999991903062206004+59500+020350FM-12+002699999V0203201N010819999999N0000001N9+00781+99999100431ADDGF108991999999999999999999
0029029810999991903062213004+59500+020350FM-12+002699999V0203201N013919999999N0000001N9+00891+99999100761ADDGF107991999999999999999999
0029029810999991903062220004+59500+020350FM-12+002699999V0202901N008219999999N0000001N9+01001+99999101081ADDGF102991999999999999999999
0029029810999991903062306004+59500+020350FM-12+002699999V0202301N003119999999N0000001N9+01281+99999101281ADDGF101991999999999999999999
0029029810999991903062313004+59500+020350FM-12+002699999V0209991C000019999999N0000001N9+01441+99999101511ADDGF101991999999999999999999
0029029810999991903062320004+59500+020350FM-12+002699999V0203401N001019999999N0000001N9+01111+99999101661ADDGF102991999999999999999999
0029029810999991903062406004+59500+020350FM-12+002699999V0200701N006219999999N0000001N9+01221+99999101941ADDGF104991999999999999999999
0029029810999991903062413004+59500+020350FM-12+002699999V0201101N005119999999N0000001N9+01331+99999102031ADDGF101991999999999999999999
0029029810999991903062420004+59500+020350FM-12+002699999V0200701N004119999999N0000001N9+01281+99999102021ADDGF100991999999999999999999
0029029810999991903062506004+59500+020350FM-12+002699999V0200901N003119999999N0000001N9+01561+99999102101ADDGF101991999999999999999999
0029029810999991903062513004+59500+020350FM-12+002699999V0200501N006219999999N0000001N9+01441+99999102161ADDGF105991999999999999999999
0029029810999991903062520004+59500+020350FM-12+002699999V0200501N008219999999N0000001N9+01441+99999102061ADDGF102991999999999999999999
0029029810999991903062606004+59500+020350FM-12+002699999V0203601N009819999999N0000001N9+01281+99999102231ADDGF104991999999999999999999
0029029810999991903062613004+59500+020350FM-12+002699999V0203601N009819999999N0000001N9+01171+99999102311ADDGF106991999999999999999999
0029029810999991903062620004+59500+020350FM-12+002699999V0203401N012919999999N0000001N9+01001+99999102281ADDGF106991999999999999999999
0029029810999991903062706004+59500+020350FM-12+002699999V0203601N007219999999N0000001N9+01171+99999102221ADDGF106991999999999999999999
0029029810999991903062713004+59500+020350FM-12+002699999V0203201N005119999999N0000001N9+01391+99999102351ADDGF106991999999999999999999
0029029810999991903062720004+59500+020350FM-12+002699999V0203201N008719999999N0000001N9+01391+99999102321ADDGF102991999999999999999999
0029029810999991903062806004+59500+020350FM-12+002699999V0203601N006219999999N0000001N9+01391+99999102431ADDGF100991999999999999999999
0029029810999991903062813004+59500+020350FM-12+002699999V0200201N001019999999N0000001N9+01671+99999102431ADDGF101991999999999999999999
0029029810999991903062820004+59500+020350FM-12+002699999V0209991C000019999999N0000001N9+01611+99999102351ADDGF102991999999999999999999
0029029810999991903062906004+59500+020350FM-12+002699999V0209991C000019999999N0000001N9+01671+99999102201ADDGF105991999999999999999999
0029029810999991903062913004+59500+020350FM-12+002699999V0202001N005119999999N0000001N9+01781+99999102041ADDGF106991999999999999999999
0029029810999991903062920004+59500+020350FM-12+002699999V0201801N006219999999N0000001N9+01441+99999101741ADDGF106991999999999999999999
0029029810999991903063006004+59500+020350FM-12+002699999V0201801N008219999999N0000001N9+01391+99999101281ADDGF105991999999999999999999
0029029810999991903063013004+59500+020350FM-12+002699999V0202001N008719999999N0000001N9+01561+99999101101ADDGF105991999999999999999999
0029029810999991903063020004+59500+020350FM-12+002699999V0202301N008219999999N0000001N9+01391+99999100871ADDGF104991999999999999999999
0029029810999991903070106004+59500+020350FM-12+002699999V0203401N008719999999N0000001N9+01281+99999101031ADDGF105991999999999999999999
0029029810999991903070113004+59500+020350FM-12+002699999V0202901N005119999999N0000001N9+01331+99999101301ADDGF101991999999999999999999
0029029810999991903070120004+59500+020350FM-12+002699999V0202001N006219999999N0000001N9+01391+99999101311ADDGF102991999999999999999999
0029029810999991903070206004+59500+020350FM-12+002699999V0202301N006219999999N0000001N9+01441+99999101271ADDGF102991999999999999999999
0029029810999991903070213004+59500+020350FM-12+002699999V0202301N011819999999N0000001N9+01501+99999101061ADDGF103991999999999999999999
0029029810999991903070220004+59500+020350FM-12+002699999V0202301N010819999999N0000001N9+01441+99999100821ADDGF102991999999999999999999
0029029810999991903070306004+59500+020350FM-12+002699999V0202701N006219999999N0000001N9+01391+99999100961ADDGF102991999999999999999999
0029029810999991903070313004+59500+020350FM-12+002699999V0203601N004119999999N0000001N9+01611+99999101111ADDGF106991999999999999999999
0029029810999991903070320004+59500+020350FM-12+002699999V0201601N003119999999N0000001N9+01441+99999100951ADDGF106991999999999999999999
0029029810999991903070406004+59500+020350FM-12+002699999V0201801N009819999999N0000001N9+01561+99999100261ADDGF106991999999999999999999
0029029810999991903070413004+59500+020350FM-12+002699999V0202301N013919999999N0000001N9+01561+99999100391ADDGF104991999999999999999999
0029029810999991903070420004+59500+020350FM-12+002699999V0202001N009819999999N0000001N9+01441+99999100341ADDGF102991999999999999999999
0029029810999991903070506004+59500+020350FM-12+002699999V0202301N015919999999N0000001N9+01331+99999100221ADDGF106991999999999999999999
0029029810999991903070513004+59500+020350FM-12+002699999V0202301N010819999999N0000001N9+01391+99999100521ADDGF102991999999999999999999
0029029810999991903070520004+59500+020350FM-12+002699999V0202301N007219999999N0000001N9+01331+99999100751ADDGF103991999999999999999999
0029029810999991903070606004+59500+020350FM-12+002699999V0202301N004119999999N0000001N9+01331+99999100761ADDGF107991999999999999999999
0029029810999991903070613004+59500+020350FM-12+002699999V0202001N004119999999N0000001N9+01501+99999100801ADDGF107991999999999999999999
0029029810999991903070620004+59500+020350FM-12+002699999V0201601N001019999999N0000001N9+01331+99999100701ADDGF108991999999999999999999
0029029810999991903070706004+59500+020350FM-12+002699999V0200901N011819999999N0000001N9+01391+99999100401ADDGF108991999999999999999999
0029029810999991903070713004+59500+020350FM-12+002699999V0200901N011819999999N0000001N9+01391+99999100441ADDGF108991999999999999999999
0029029810999991903070720004+59500+020350FM-12+002699999V0200901N010819999999N0000001N9+01441+99999100441ADDGF108991999999999999999999
0029029810999991903070806004+59500+020350FM-12+002699999V0200701N008219999999N0000001N9+01391+99999100481ADDGF108991999999999999999999
0029029810999991903070813004+59500+020350FM-12+002699999V0200501N005119999999N0000001N9+01441+99999100561ADDGF108991999999999999999999
0029029810999991903070820004+59500+020350FM-12+002699999V0203201N006219999999N0000001N9+01441+99999100781ADDGF108991999999999999999999
0029029810999991903070906004+59500+020350FM-12+002699999V0202701N003119999999N0000001N9+01331+99999100831ADDGF108991999999999999999999
0029029810999991903070913004+59500+020350FM-12+002699999V0202501N004119999999N0000001N9+01391+99999101031ADDGF108991999999999999999999
0029029810999991903070920004+59500+020350FM-12+002699999V0203401N001019999999N0000001N9+01221+99999101141ADDGF108991999999999999999999
0029029810999991903071006004+59500+020350FM-12+002699999V0203201N008219999999N0000001N9+01061+99999101271ADDGF108991999999999999999999
0029029810999991903071013004+59500+020350FM-12+002699999V0209991C000019999999N0000001N9+01221+99999101361ADDGF106991999999999999999999
0029029810999991903071020004+59500+020350FM-12+002699999V0201801N007219999999N0000001N9+01331+99999101141ADDGF103991999999999999999999
0029029810999991903071106004+59500+020350FM-12+002699999V0201801N008719999999N0000001N9+01501+99999100821ADDGF105991999999999999999999
0029029810999991903071113004+59500+020350FM-12+002699999V0201801N007219999999N0000001N9+01671+99999100671ADDGF104991999999999999999999
0029029810999991903071120004+59500+020350FM-12+002699999V0209991C000019999999N0000001N9+01441+99999100481ADDGF108991999999999999999999
0029029810999991903071206004+59500+020350FM-12+002699999V0203201N008719999999N0000001N9+01221+99999100301ADDGF108991999999999999999999
0029029810999991903071213004+59500+020350FM-12+002699999V0202901N011819999999N0000001N9+01281+99999100301ADDGF102991999999999999999999
0029029810999991903071220004+59500+020350FM-12+002699999V0203201N002119999999N0000001N9+01331+99999100141ADDGF101991999999999999999999
0029029810999991903071306004+59500+020350FM-12+002699999V0201801N005119999999N0000001N9+01501+99999099721ADDGF106991999999999999999999
0029029810999991903071313004+59500+020350FM-12+002699999V0202301N008719999999N0000001N9+01391+99999099671ADDGF104991999999999999999999
0029029810999991903071320004+59500+020350FM-12+002699999V0202001N009819999999N0000001N9+01391+99999099661ADDGF103991999999999999999999
0029029810999991903071406004+59500+020350FM-12+002699999V0202501N004119999999N0000001N9+01391+99999099761ADDGF102991999999999999999999
0029029810999991903071413004+59500+020350FM-12+002699999V0202301N009819999999N0000001N9+01501+99999099871ADDGF102991999999999999999999
0029029810999991903071420004+59500+020350FM-12+002699999V0202301N009819999999N0000001N9+01331+99999099951ADDGF102991999999999999999999
0029029810999991903071506004+59500+020350FM-12+002699999V0202501N008219999999N0000001N9+01281+99999100031ADDGF102991999999999999999999
0029029810999991903071513004+59500+020350FM-12+002699999V0202501N008219999999N0000001N9+01391+99999100231ADDGF102991999999999999999999
0029029810999991903071520004+59500+020350FM-12+002699999V0202901N006219999999N0000001N9+01281+99999100341ADDGF106991999999999999999999
0029029810999991903071606004+59500+020350FM-12+002699999V0202701N005119999999N0000001N9+01281+99999100501ADDGF102991999999999999999999
0029029810999991903071613004+59500+020350FM-12+002699999V0203201N004119999999N0000001N9+01221+99999100951ADDGF102991999999999999999999
0029029810999991903071620004+59500+020350FM-12+002699999V0201801N008719999999N0000001N9+01331+99999101201ADDGF106991999999999999999999
0029029810999991903071706004+59500+020350FM-12+002699999V0201801N007219999999N0000001N9+01611+99999101261ADDGF103991999999999999999999
0029029810999991903071713004+59500+020350FM-12+002699999V0201601N009819999999N0000001N9+01501+99999101121ADDGF108991999999999999999999
0035029810999991903071720004+59500+020350FM-12+002699999V0200901N011819999999N0000001N9+01331+99999100741ADDGF108991999999999999999999MW1621
0035029810999991903071806004+59500+020350FM-12+002699999V0201101N015919999999N0000001N9+01391+99999099561ADDGF108991999999999999999999MW1621
0029029810999991903071813004+59500+020350FM-12+002699999V0201601N005119999999N0000001N9+01561+99999099231ADDGF108991999999999999999999
0029029810999991903071820004+59500+020350FM-12+002699999V0201801N007219999999N0000001N9+01441+99999099151ADDGF108991999999999999999999
0029029810999991903071906004+59500+020350FM-12+002699999V0202901N015919999999N0000001N9+01061+99999099551ADDGF108991999999999999999999
0035029810999991903071913004+59500+020350FM-12+002699999V0202701N014919999999N0000001N9+01171+99999100061ADDGF108991999999999999999999MW1621
0029029810999991903071920004+59500+020350FM-12+002699999V0202501N011819999999N0000001N9+01331+99999100421ADDGF108991999999999999999999
0029029810999991903072006004+59500+020350FM-12+002699999V0202901N008719999999N0000001N9+01281+99999100761ADDGF104991999999999999999999
0029029810999991903072013004+59500+020350FM-12+002699999V0202901N005119999999N0000001N9+01281+99999101041ADDGF103991999999999999999999
0029029810999991903072020004+59500+020350FM-12+002699999V0209991C000019999999N0000001N9+01331+99999101111ADDGF103991999999999999999999
0029029810999991903072106004+59500+020350FM-12+002699999V0200701N003119999999N0000001N9+01441+99999101141ADDGF102991999999999999999999
0029029810999991903072113004+59500+020350FM-12+002699999V0202501N001019999999N0000001N9+01561+99999101161ADDGF101991999999999999999999
0029029810999991903072120004+59500+020350FM-12+002699999V0202301N003119999999N0000001N9+01441+99999101081ADDGF101991999999999999999999
0029029810999991903072206004+59500+020350FM-12+002699999V0202301N004119999999N0000001N9+01781+99999101081ADDGF104991999999999999999999
0029029810999991903072213004+59500+020350FM-12+002699999V0202501N001019999999N0000001N9+01611+99999101031ADDGF106991999999999999999999
0029029810999991903072220004+59500+020350FM-12+002699999V0203601N006219999999N0000001N9+01441+99999100981ADDGF102991999999999999999999
0029029810999991903072306004+59500+020350FM-12+002699999V0200501N009819999999N0000001N9+01331+99999101041ADDGF103991999999999999999999
0029029810999991903072313004+59500+020350FM-12+002699999V0203201N005119999999N0000001N9+01391+99999101141ADDGF104991999999999999999999
0029029810999991903072320004+59500+020350FM-12+002699999V0203601N003119999999N0000001N9+01441+99999101181ADDGF106991999999999999999999
0029029810999991903072406004+59500+020350FM-12+002699999V0203601N006219999999N0000001N9+01561+99999101241ADDGF101991999999999999999999
0029029810999991903072413004+59500+020350FM-12+002699999V0203601N004119999999N0000001N9+01611+99999101311ADDGF102991999999999999999999
0029029810999991903072420004+59500+020350FM-12+002699999V0203601N005119999999N0000001N9+01671+99999101241ADDGF101991999999999999999999
0029029810999991903072506004+59500+020350FM-12+002699999V0200201N007219999999N0000001N9+01611+99999101141ADDGF101991999999999999999999
0029029810999991903072513004+59500+020350FM-12+002699999V0203401N010819999999N0000001N9+01781+99999101041ADDGF100991999999999999999999
0029029810999991903072520004+59500+020350FM-12+002699999V0203601N009819999999N0000001N9+01721+99999101001ADDGF101991999999999999999999
0029029810999991903072606004+59500+020350FM-12+002699999V0203601N004119999999N0000001N9+01721+99999101141ADDGF101991999999999999999999
0029029810999991903072613004+59500+020350FM-12+002699999V0203601N003119999999N0000001N9+01941+99999101201ADDGF102991999999999999999999
0029029810999991903072620004+59500+020350FM-12+002699999V0203601N006219999999N0000001N9+01781+99999101161ADDGF104991999999999999999999
0029029810999991903072706004+59500+020350FM-12+002699999V0201601N002119999999N0000001N9+01891+99999101201ADDGF106991999999999999999999
0029029810999991903072713004+59500+020350FM-12+002699999V0201601N002119999999N0000001N9+02171+99999101311ADDGF106991999999999999999999
0029029810999991903072720004+59500+020350FM-12+002699999V0209991C000019999999N0000001N9+01671+99999101241ADDGF104991999999999999999999
0029029810999991903072806004+59500+020350FM-12+002699999V0201601N003119999999N0000001N9+02171+99999101121ADDGF102991999999999999999999
0029029810999991903072813004+59500+020350FM-12+002699999V0201801N006219999999N0000001N9+01941+99999101031ADDGF103991999999999999999999
0029029810999991903072820004+59500+020350FM-12+002699999V0201801N008219999999N0000001N9+01721+99999100871ADDGF102991999999999999999999
0029029810999991903072906004+59500+020350FM-12+002699999V0201801N004119999999N0000001N9+01721+99999100721ADDGF107991999999999999999999
0029029810999991903072913004+59500+020350FM-12+002699999V0201401N008719999999N0000001N9+01891+99999100551ADDGF106991999999999999999999
0029029810999991903072920004+59500+020350FM-12+002699999V0201401N008719999999N0000001N9+01781+99999100241ADDGF105991999999999999999999
0029029810999991903073006004+59500+020350FM-12+002699999V0201401N011819999999N0000001N9+01671+99999099991ADDGF108991999999999999999999
0029029810999991903073013004+59500+020350FM-12+002699999V0201801N003119999999N0000001N9+01941+99999100121ADDGF107991999999999999999999
0029029810999991903073020004+59500+020350FM-12+002699999V0202001N008719999999N0000001N9+01671+99999999999ADDGF106991999999999999999999
0029029810999991903073106004+59500+020350FM-12+002699999V0202001N011819999999N0000001N9+01611+99999099911ADDGF106991999999999999999999
0029029810999991903073113004+59500+020350FM-12+002699999V0202001N009819999999N0000001N9+01721+99999099951ADDGF104991999999999999999999
0029029810999991903073120004+59500+020350FM-12+002699999V0201801N008719999999N0000001N9+01561+99999099721ADDGF102991999999999999999999
0029029810999991903080106004+59500+020350FM-12+002699999V0201801N008219999999N0000001N9+01671+99999099471ADDGF107991999999999999999999
0029029810999991903080113004+59500+020350FM-12+002699999V0201601N007219999999N0000001N9+01781+99999099341ADDGF106991999999999999999999
0029029810999991903080120004+59500+020350FM-12+002699999V0202001N004119999999N0000001N9+01561+99999099231ADDGF106991999999999999999999
0035029810999991903080206004+59500+020350FM-12+002699999V0203201N006219999999N0000001N9+01441+99999099141ADDGF108991999999999999999999MW1621
0029029810999991903080213004+59500+020350FM-12+002699999V0202901N003119999999N0000001N9+01611+99999099351ADDGF103991999999999999999999
0029029810999991903080220004+59500+020350FM-12+002699999V0202301N008719999999N0000001N9+01561+99999099201ADDGF103991999999999999999999
0029029810999991903080306004+59500+020350FM-12+002699999V0209991C000019999999N0000001N9+01781+99999099121ADDGF105991999999999999999999
0029029810999991903080313004+59500+020350FM-12+002699999V0202301N008719999999N0000001N9+01561+99999099231ADDGF102991999999999999999999
0029029810999991903080320004+59500+020350FM-12+002699999V0202001N008219999999N0000001N9+01561+99999099271ADDGF102991999999999999999999
0029029810999991903080406004+59500+020350FM-12+002699999V0202301N008219999999N0000001N9+01561+99999099591ADDGF102991999999999999999999
0029029810999991903080413004+59500+020350FM-12+002699999V0202301N009819999999N0000001N9+01561+99999099861ADDGF105991999999999999999999
0029029810999991903080420004+59500+020350FM-12+002699999V0202001N009819999999N0000001N9+01561+99999099911ADDGF102991999999999999999999
0029029810999991903080506004+59500+020350FM-12+002699999V0202001N006219999999N0000001N9+01561+99999099801ADDGF106991999999999999999999
0029029810999991903080513004+59500+020350FM-12+002699999V0201601N009819999999N0000001N9+01611+99999099511ADDGF107991999999999999999999
0029029810999991903080520004+59500+020350FM-12+002699999V0202001N008219999999N0000001N9+01561+99999099261ADDGF105991999999999999999999
0029029810999991903080606004+59500+020350FM-12+002699999V0200501N001019999999N0000001N9+01501+99999098881ADDGF107991999999999999999999
0035029810999991903080613004+59500+020350FM-12+002699999V0203201N004119999999N0000001N9+01501+99999099111ADDGF106991999999999999999999MW1621
0029029810999991903080620004+59500+020350FM-12+002699999V0203201N008219999999N0000001N9+01441+99999099201ADDGF103991999999999999999999
0029029810999991903080706004+59500+020350FM-12+002699999V0202701N011819999999N0000001N9+01331+99999099111ADDGF105991999999999999999999
0035029810999991903080713004+59500+020350FM-12+002699999V0203201N010819999999N0000001N9+01441+99999099241ADDGF107991999999999999999999MW1621
0035029810999991903080720004+59500+020350FM-12+002699999V0203201N011819999999N0000001N9+01441+99999099511ADDGF107991999999999999999999MW1621
0029029810999991903080806004+59500+020350FM-12+002699999V0202901N012919999999N0000001N9+01281+99999099641ADDGF108991999999999999999999
0029029810999991903080813004+59500+020350FM-12+002699999V0202701N008719999999N0000001N9+01441+99999099991ADDGF102991999999999999999999
0029029810999991903080820004+59500+020350FM-12+002699999V0202901N005119999999N0000001N9+01561+99999100041ADDGF103991999999999999999999
0029029810999991903080906004+59500+020350FM-12+002699999V0202701N012919999999N0000001N9+01331+99999100081ADDGF101991999999999999999999
0029029810999991903080913004+59500+020350FM-12+002699999V0202501N010819999999N0000001N9+01561+99999100111ADDGF103991999999999999999999
0029029810999991903080920004+59500+020350FM-12+002699999V0202301N011819999999N0000001N9+01561+99999099921ADDGF103991999999999999999999
0029029810999991903081006004+59500+020350FM-12+002699999V0202701N009819999999N0000001N9+01501+99999099841ADDGF102991999999999999999999
0029029810999991903081013004+59500+020350FM-12+002699999V0202301N008719999999N0000001N9+01561+99999100141ADDGF102991999999999999999999
0029029810999991903081020004+59500+020350FM-12+002699999V0202301N007219999999N0000001N9+01501+99999099991ADDGF108991999999999999999999
0029029810999991903081106004+59500+020350FM-12+002699999V0202301N008219999999N0000001N9+01441+99999099821ADDGF108991999999999999999999
0029029810999991903081113004+59500+020350FM-12+002699999V0202301N009819999999N0000001N9+01501+99999099951ADDGF106991999999999999999999
0035029810999991903081120004+59500+020350FM-12+002699999V0202301N009819999999N0000001N9+01501+99999100041ADDGF103991999999999999999999MW1131
0029029810999991903081206004+59500+020350FM-12+002699999V0202501N010819999999N0000001N9+01331+99999100221ADDGF106991999999999999999999
0029029810999991903081213004+59500+020350FM-12+002699999V0202301N008719999999N0000001N9+01441+99999100421ADDGF106991999999999999999999
0029029810999991903081220004+59500+020350FM-12+002699999V0202001N008219999999N0000001N9+01441+99999100441ADDGF103991999999999999999999
0029029810999991903081306004+59500+020350FM-12+002699999V0202701N003119999999N0000001N9+01331+99999100351ADDGF106991999999999999999999
0029029810999991903081313004+59500+020350FM-12+002699999V0202501N005119999999N0000001N9+01501+99999100461ADDGF105991999999999999999999
0029029810999991903081320004+59500+020350FM-12+002699999V0202901N005119999999N0000001N9+01441+99999100591ADDGF107991999999999999999999
0029029810999991903081406004+59500+020350FM-12+002699999V0202901N006219999999N0000001N9+01391+99999100681ADDGF106991999999999999999999
0029029810999991903081413004+59500+020350FM-12+002699999V0202901N005119999999N0000001N9+01561+99999100921ADDGF102991999999999999999999
0029029810999991903081420004+59500+020350FM-12+002699999V0209991C000019999999N0000001N9+01331+99999101041ADDGF101991999999999999999999
0029029810999991903081506004+59500+020350FM-12+002699999V0202001N001019999999N0000001N9+01831+99999101111ADDGF101991999999999999999999
0029029810999991903081513004+59500+020350FM-12+002699999V0201601N008219999999N0000001N9+01781+99999101041ADDGF104991999999999999999999
0029029810999991903081520004+59500+020350FM-12+002699999V0201401N011819999999N0000001N9+01501+99999100801ADDGF108991999999999999999999
0029029810999991903081606004+59500+020350FM-12+002699999V0201401N014919999999N0000001N9+01561+99999100221ADDGF108991999999999999999999
0029029810999991903081613004+59500+020350FM-12+002699999V0201401N013919999999N0000001N9+01671+99999099921ADDGF106991999999999999999999
0029029810999991903081620004+59500+020350FM-12+002699999V0200901N017019999999N0000001N9+01561+99999099601ADDGF108991999999999999999999
0029029810999991903081706004+59500+020350FM-12+002699999V0200901N019019999999N0000001N9+01671+99999099071ADDGF108991999999999999999999
0035029810999991903081713004+59500+020350FM-12+002699999V0200901N017019999999N0000001N9+01501+99999098641ADDGF108991999999999999999999MW1621
0035029810999991903081720004+59500+020350FM-12+002699999V0201601N008219999999N0000001N9+01391+99999098841ADDGF108991999999999999999999MW1621
0029029810999991903081806004+59500+020350FM-12+002699999V0201601N006219999999N0000001N9+01441+99999099041ADDGF106991999999999999999999
0029029810999991903081813004+59500+020350FM-12+002699999V0201601N008219999999N0000001N9+01671+99999099241ADDGF104991999999999999999999
0029029810999991903081820004+59500+020350FM-12+002699999V0201801N008719999999N0000001N9+01441+99999099381ADDGF107991999999999999999999
0029029810999991903081906004+59500+020350FM-12+002699999V0201401N004119999999N0000001N9+01441+99999099541ADDGF105991999999999999999999
0029029810999991903081913004+59500+020350FM-12+002699999V0201801N003119999999N0000001N9+02061+99999099711ADDGF102991999999999999999999
0029029810999991903081920004+59500+020350FM-12+002699999V0200901N006219999999N0000001N9+01441+99999099661ADDGF104991999999999999999999
0029029810999991903082006004+59500+020350FM-12+002699999V0209991C000019999999N0000001N9+01391+99999099421ADDGF107991999999999999999999
0029029810999991903082013004+59500+020350FM-12+002699999V0202701N008219999999N0000001N9+01501+99999099481ADDGF106991999999999999999999
0035029810999991903082020004+59500+020350FM-12+002699999V0202301N008219999999N0000001N9+01441+99999099741ADDGF105991999999999999999999MW1641
0029029810999991903082106004+59500+020350FM-12+002699999V0202001N008219999999N0000001N9+01501+99999100111ADDGF105991999999999999999999
0029029810999991903082113004+59500+020350FM-12+002699999V0201801N018019999999N0000001N9+01501+99999099991ADDGF108991999999999999999999
0035029810999991903082120004+59500+020350FM-12+002699999V0201801N021119999999N0000001N9+01391+99999099241ADDGF108991999999999999999999MW1641
0029029810999991903082206004+59500+020350FM-12+002699999V0202001N018019999999N0000001N9+01281+99999099511ADDGF102991999999999999999999
0029029810999991903082213004+59500+020350FM-12+002699999V0202001N019019999999N0000001N9+01331+99999099951ADDGF102991999999999999999999
0029029810999991903082220004+59500+020350FM-12+002699999V0202301N015919999999N0000001N9+01281+99999100471ADDGF102991999999999999999999
0029029810999991903082306004+59500+020350FM-12+002699999V0202301N011819999999N0000001N9+01111+99999101001ADDGF102991999999999999999999
0029029810999991903082313004+59500+020350FM-12+002699999V0202301N011819999999N0000001N9+01221+99999101271ADDGF101991999999999999999999
0029029810999991903082320004+59500+020350FM-12+002699999V0202301N008219999999N0000001N9+01171+99999101281ADDGF102991999999999999999999
0029029810999991903082406004+59500+020350FM-12+002699999V0201401N007219999999N0000001N9+01221+99999101031ADDGF108991999999999999999999
0035029810999991903082413004+59500+020350FM-12+002699999V0200901N018019999999N0000001N9+01061+99999099881ADDGF108991999999999999999999MW1621
0035029810999991903082420004+59500+020350FM-12+002699999V0201801N011819999999N0000001N9+01221+99999099121ADDGF108991999999999999999999MW1621
0029029810999991903082506004+59500+020350FM-12+002699999V0202701N018019999999N0000001N9+01061+99999100601ADDGF102991999999999999999999
0029029810999991903082513004+59500+020350FM-12+002699999V0202301N006219999999N0000001N9+01281+99999101271ADDGF102991999999999999999999
0029029810999991903082520004+59500+020350FM-12+002699999V0202301N006219999999N0000001N9+01111+99999101421ADDGF102991999999999999999999
0035029810999991903082606004+59500+020350FM-12+002699999V0201801N002119999999N0000001N9+01171+99999101431ADDGF108991999999999999999999MW1621
0035029810999991903082613004+59500+020350FM-12+002699999V0201401N011819999999N0000001N9+01171+99999101031ADDGF108991999999999999999999MW1621
0035029810999991903082620004+59500+020350FM-12+002699999V0201401N007219999999N0000001N9+01171+99999100591ADDGF108991999999999999999999MW1621
0029029810999991903082706004+59500+020350FM-12+002699999V0200701N006219999999N0000001N9+01061+99999100511ADDGF108991999999999999999999
0029029810999991903082713004+59500+020350FM-12+002699999V0209991C000019999999N0000001N9+01391+99999100781ADDGF107991999999999999999999
0035029810999991903082720004+59500+020350FM-12+002699999V0202301N008219999999N0000001N9+01171+99999100561ADDGF107991999999999999999999MW1621
0035029810999991903082806004+59500+020350FM-12+002699999V0202301N009819999999N0000001N9+01221+99999099621ADDGF108991999999999999999999MW1621
0029029810999991903082813004+59500+020350FM-12+002699999V0202301N012919999999N0000001N9+01221+99999099521ADDGF103991999999999999999999
0029029810999991903082820004+59500+020350FM-12+002699999V0202301N014919999999N0000001N9+01281+99999099391ADDGF106991999999999999999999
0029029810999991903082906004+59500+020350FM-12+002699999V0202301N014919999999N0000001N9+01171+99999099101ADDGF107991999999999999999999
0029029810999991903082913004+59500+020350FM-12+002699999V0202001N012919999999N0000001N9+01281+99999098881ADDGF102991999999999999999999
0029029810999991903082920004+59500+020350FM-12+002699999V0202301N007219999999N0000001N9+01111+99999098671ADDGF102991999999999999999999
0029029810999991903083006004+59500+020350FM-12+002699999V0209991C000019999999N0000001N9+01441+99999098681ADDGF104991999999999999999999
0029029810999991903083013004+59500+020350FM-12+002699999V0203201N010819999999N0000001N9+01281+99999099151ADDGF102991999999999999999999
0029029810999991903083106004+59500+020350FM-12+002699999V0202901N008719999999N0000001N9+01061+99999099911ADDGF106991999999999999999999
0029029810999991903083113004+59500+020350FM-12+002699999V0202301N005119999999N0000001N9+01221+99999100041ADDGF105991999999999999999999
0035029810999991903083120004+59500+020350FM-12+002699999V0201601N009819999999N0000001N9+01061+99999099591ADDGF108991999999999999999999MW1621
0029029810999991903090106004+59500+020350FM-12+002699999V0200501N014919999999N0000001N9+01061+99999099721ADDGF108991999999999999999999
0029029810999991903090113004+59500+020350FM-12+002699999V0203401N008719999999N0000001N9+01221+99999100881ADDGF102991999999999999999999
0029029810999991903090120004+59500+020350FM-12+002699999V0203201N006219999999N0000001N9+01171+99999101661ADDGF101991999999999999999999
0029029810999991903090206004+59500+020350FM-12+002699999V0201801N002119999999N0000001N9+01281+99999102121ADDGF102991999999999999999999
0029029810999991903090213004+59500+020350FM-12+002699999V0202001N008219999999N0000001N9+01331+99999102201ADDGF102991999999999999999999
0029029810999991903090220004+59500+020350FM-12+002699999V0202001N004119999999N0000001N9+01171+99999102101ADDGF108991999999999999999999
0029029810999991903090306004+59500+020350FM-12+002699999V0201401N007219999999N0000001N9+01331+99999101991ADDGF102991999999999999999999
0029029810999991903090313004+59500+020350FM-12+002699999V0201801N015919999999N0000001N9+01501+99999101661ADDGF101991999999999999999999
0029029810999991903090320004+59500+020350FM-12+002699999V0201801N013919999999N0000001N9+01281+99999101341ADDGF102991999999999999999999
0029029810999991903090406004+59500+020350FM-12+002699999V0202501N007219999999N0000001N9+01111+99999101551ADDGF102991999999999999999999
