0035028360999991923010106004+67367+026650FM-12+018199999V0209991C000019999999N0000001N9-00671+99999098441ADDGF108991999999999999999999MW1701
0029028360999991923010113004+67367+026650FM-12+018199999V0201401N003119999999N0000001N9-01441+99999098271ADDGF108991999999999999999999
0029028360999991923010120004+67367+026650FM-12+018199999V0201401N003119999999N0000001N9-01441+99999098181ADDGF108991999999999999999999
0035028360999991923010206004+67367+026650FM-12+018199999V0209991C000019999999N0000001N9-00721+99999098101ADDGF108991999999999999999999MW1701
0029028360999991923010213004+67367+026650FM-12+018199999V0209991C000019999999N0000001N9-00831+99999098261ADDGF108991999999999999999999
0029028360999991923010220004+67367+026650FM-12+018199999V0209991C000019999999N0000001N9-00831+99999098521ADDGF108991999999999999999999
0029028360999991923010306004+67367+026650FM-12+018199999V0201801N002119999999N0000001N9-01001+99999098631ADDGF108991999999999999999999
0035028360999991923010313004+67367+026650FM-12+018199999V0201801N005119999999N0000001N9-00331+99999098241ADDGF108991999999999999999999MW1701
0035028360999991923010320004+67367+026650FM-12+018199999V0202001N005119999999N0000001N9-00061+99999097741ADDGF108991999999999999999999MW1701
0029028360999991923010406004+67367+026650FM-12+018199999V0202001N007219999999N0000001N9+00061+99999098021ADDGF108991999999999999999999
0029028360999991923010413004+67367+026650FM-12+018199999V0202001N007219999999N0000001N9+00061+99999098261ADDGF108991999999999999999999
0035028360999991923010420004+67367+026650FM-12+018199999V0202001N006219999999N0000001N9+00061+99999098461ADDGF108991999999999999999999MW1691
0029028360999991923010506004+67367+026650FM-12+018199999V0202001N001019999999N0000001N9+00001+99999098761ADDGF108991999999999999999999
0029028360999991923010513004+67367+026650FM-12+018199999V0209991C000019999999N0000001N9+00001+99999099081ADDGF108991999999999999999999
0029028360999991923010520004+67367+026650FM-12+018199999V0209991C000019999999N0000001N9+00001+99999099321ADDGF108991999999999999999999
0035028360999991923010606004+67367+026650FM-12+018199999V0209991C000019999999N0000001N9-00061+99999099721ADDGF108991999999999999999999MW1701
0035028360999991923010613004+67367+026650FM-12+018199999V0202001N003119999999N0000001N9-00111+99999099831ADDGF108991999999999999999999MW1701
0035028360999991923010620004+67367+026650FM-12+018199999V0202001N004119999999N0000001N9-00061+99999099861ADDGF108991999999999999999999MW1701
0029028360999991923010706004+67367+026650FM-12+018199999V0202001N003119999999N0000001N9-00061+99999099641ADDGF108991999999999999999999
0029028360999991923010713004+67367+026650FM-12+018199999V0202001N005119999999N0000001N9-00111+99999099441ADDGF108991999999999999999999
0035028360999991923010720004+67367+026650FM-12+018199999V02099999999999999999N0000001N9-00171+99999099311ADDGF108991999999999999999999MW1701
0029028360999991923010806004+67367+026650FM-12+018199999V0202001N007219999999N0000001N9-00281+99999099001ADDGF108991999999999999999999
0035028360999991923010813004+67367+026650FM-12+018199999V0202001N005119999999N0000001N9-00501+99999098701ADDGF108991999999999999999999MW1721
0035028360999991923010820004+67367+026650FM-12+018199999V0202001N004119999999N0000001N9-00561+99999098041ADDGF108991999999999999999999MW1721
0035028360999991923010906004+67367+026650FM-12+018199999V0202001N006219999999N0000001N9-00221+99999096821ADDGF108991999999999999999999MW1701
0035028360999991923010913004+67367+026650FM-12+018199999V0202001N006219999999N0000001N9+00001+99999096361ADDGF108991999999999999999999MW1701
0035028360999991923010920004+67367+026650FM-12+018199999V0202001N001019999999N0000001N9-00061+99999096271ADDGF108991999999999999999999MW1701
0029028360999991923011006004+67367+026650FM-12+018199999V0209991C000019999999N0000001N9-00561+99999097481ADDGF108991999999999999999999
0029028360999991923011013004+67367+026650FM-12+018199999V0209991C000019999999N0000001N9-00611+99999097901ADDGF108991999999999999999999
0035028360999991923011020004+67367+026650FM-12+018199999V0209991C000019999999N0000001N9-00561+99999097961ADDGF108991999999999999999999MW1741
0035028360999991923011106004+67367+026650FM-12+018199999V0202301N005119999999N0000001N9-00171+99999097601ADDGF108991999999999999999999MW1721
0035028360999991923011113004+67367+026650FM-12+018199999V0202001N003119999999N0000001N9-00281+99999097461ADDGF108991999999999999999999MW1721
0035028360999991923011120004+67367+026650FM-12+018199999V0209991C000019999999N0000001N9-00171+99999097401ADDGF108991999999999999999999MW1721
0035028360999991923011206004+67367+026650FM-12+018199999V0209991C000019999999N0000001N9-00391+99999097351ADDGF108991999999999999999999MW1701
0029028360999991923011213004+67367+026650FM-12+018199999V0209991C000019999999N0000001N9-00281+99999097751ADDGF108991999999999999999999
0035028360999991923011220004+67367+026650FM-12+018199999V0209991C000019999999N0000001N9-00441+99999098121ADDGF108991999999999999999999MW1701
0029028360999991923011306004+67367+026650FM-12+018199999V0209991C000019999999N0000001N9-00781+99999098821ADDGF108991999999999999999999
0029028360999991923011313004+67367+026650FM-12+018199999V0209991C000019999999N0000001N9-00941+99999099141ADDGF108991999999999999999999
0029028360999991923011320004+67367+026650FM-12+018199999V0209991C000019999999N0000001N9-01001+99999099031ADDGF108991999999999999999999
0029028360999991923011406004+67367+026650FM-12+018199999V0209991C000019999999N0000001N9-00781+99999098631ADDGF108991999999999999999999
0029028360999991923011413004+67367+026650FM-12+018199999V0202301N005119999999N0000001N9-00611+99999098341ADDGF108991999999999999999999
0035028360999991923011420004+67367+026650FM-12+018199999V0201801N007219999999N0000001N9-00721+99999097721ADDGF108991999999999999999999MW1701
0035028360999991923011506004+67367+026650FM-12+018199999V0201801N008219999999N0000001N9-00611+99999097241ADDGF108991999999999999999999MW1721
0035028360999991923011513004+67367+026650FM-12+018199999V0201801N006219999999N0000001N9-00441+99999097441ADDGF108991999999999999999999MW1721
0029028360999991923011520004+67367+026650FM-12+018199999V0201801N007219999999N0000001N9-00391+99999098041ADDGF108991999999999999999999
0029028360999991923011606004+67367+026650FM-12+018199999V0201801N005119999999N0000001N9-00441+99999099351ADDGF108991999999999999999999
0029028360999991923011613004+67367+026650FM-12+018199999V0202001N001019999999N0000001N9-00501+99999100151ADDGF108991999999999999999999
0029028360999991923011620004+67367+026650FM-12+018199999V0202001N001019999999N0000001N9-00611+99999100671ADDGF108991999999999999999999
0029028360999991923011706004+67367+026650FM-12+018199999V0201801N001019999999N0000001N9-00671+99999100981ADDGF108991999999999999999999
0035028360999991923011713004+67367+026650FM-12+018199999V0201801N005119999999N0000001N9-00891+99999101021ADDGF108991999999999999999999MW1701
0035028360999991923011720004+67367+026650FM-12+018199999V0202301N007219999999N0000001N9-01001+99999100761ADDGF108991999999999999999999MW1701
0035028360999991923011806004+67367+026650FM-12+018199999V0202301N009819999999N0000001N9-00831+99999100301ADDGF108991999999999999999999MW1721
0035028360999991923011813004+67367+026650FM-12+018199999V0202001N009819999999N0000001N9-00611+99999100141ADDGF108991999999999999999999MW1721
0029028360999991923011820004+67367+026650FM-12+018199999V0202001N008719999999N0000001N9-00671+99999099831ADDGF108991999999999999999999
0035028360999991923011906004+67367+026650FM-12+018199999V0202001N008719999999N0000001N9-00721+99999099041ADDGF108991999999999999999999MW1701
0035028360999991923011913004+67367+026650FM-12+018199999V0202001N009819999999N0000001N9-00781+99999098361ADDGF108991999999999999999999MW1701
0035028360999991923011920004+67367+026650FM-12+018199999V0202001N009819999999N0000001N9-00611+99999097751ADDGF108991999999999999999999MW1701
0035028360999991923012006004+67367+026650FM-12+018199999V0202001N008719999999N0000001N9-00721+99999097191ADDGF108991999999999999999999MW1721
0035028360999991923012013004+67367+026650FM-12+018199999V0202001N005119999999N0000001N9-00611+99999096941ADDGF108991999999999999999999MW1721
0035028360999991923012020004+67367+026650FM-12+018199999V0201801N003119999999N0000001N9-00671+99999096951ADDGF108991999999999999999999MW1721
0035028360999991923012106004+67367+026650FM-12+018199999V0201801N001019999999N0000001N9-00611+99999096951ADDGF108991999999999999999999MW1701
0035028360999991923012113004+67367+026650FM-12+018199999V0201601N001019999999N0000001N9-00671+99999096921ADDGF108991999999999999999999MW1701
0035028360999991923012120004+67367+026650FM-12+018199999V0202001N003119999999N0000001N9-00611+99999096681ADDGF108991999999999999999999MW1701
0035028360999991923012206004+67367+026650FM-12+018199999V0201801N006219999999N0000001N9-00561+99999095511ADDGF108991999999999999999999MW1721
0029028360999991923012213004+67367+026650FM-12+018199999V0201801N003119999999N0000001N9-00391+99999095231ADDGF108991999999999999999999
0029028360999991923012220004+67367+026650FM-12+018199999V0201801N001019999999N0000001N9-00501+99999095271ADDGF108991999999999999999999
0029028360999991923012306004+67367+026650FM-12+018199999V0209991C000019999999N0000001N9-01831+99999096241ADDGF108991999999999999999999
0029028360999991923012313004+67367+026650FM-12+018199999V0209991C000019999999N0000001N9-02331+99999097031ADDGF108991999999999999999999
0029028360999991923012320004+67367+026650FM-12+018199999V0209991C000019999999N0000001N9-02941+99999097221ADDGF100991999999999999999999
0029028360999991923012406004+67367+026650FM-12+018199999V0209991C000019999999N0000001N9-03331+99999096721ADDGF100991999999999999999999
0029028360999991923012413004+67367+026650FM-12+018199999V0201801N001019999999N0000001N9-02281+99999096561ADDGF108991999999999999999999
0029028360999991923012420004+67367+026650FM-12+018199999V0209991C000019999999N0000001N9-02111+99999096481ADDGF108991999999999999999999
0029028360999991923012506004+67367+026650FM-12+018199999V0209991C000019999999N0000001N9-02111+99999096681ADDGF108991999999999999999999
0029028360999991923012513004+67367+026650FM-12+018199999V0209991C000019999999N0000001N9-01891+99999096711ADDGF108991999999999999999999
0029028360999991923012520004+67367+026650FM-12+018199999V0201801N003119999999N0000001N9-01671+99999095541ADDGF108991999999999999999999
0035028360999991923012606004+67367+026650FM-12+018199999V0202701N005119999999N0000001N9-01331+99999104631ADDGF108991999999999999999999MW1721
0029028360999991923012613004+67367+026650FM-12+018199999V0202701N008719999999N0000001N9-00831+99999104641ADDGF107991999999999999999999
0029028360999991923012620004+67367+026650FM-12+018199999V0202701N005119999999N0000001N9-01111+99999095022ADDGF108991999999999999999999
0029028360999991923012706004+67367+026650FM-12+018199999V0203201N005119999999N0000001N9-01001+99999095561ADDGF100991999999999999999999
0029028360999991923012713004+67367+026650FM-12+018199999V0202701N003119999999N0000001N9-01061+99999095701ADDGF108991999999999999999999
0029028360999991923012720004+67367+026650FM-12+018199999V0209991C000019999999N0000001N9-02561+99999095711ADDGF100991999999999999999999
0029028360999991923012806004+67367+026650FM-12+018199999V0209991C000019999999N0000001N9-01781+99999095871ADDGF100991999999999999999999
0029028360999991923012813004+67367+026650FM-12+018199999V0202701N005119999999N0000001N9-01171+99999095911ADDGF108991999999999999999999
0029028360999991923012820004+67367+026650FM-12+018199999V0202701N008719999999N0000001N9-01171+99999095761ADDGF108991999999999999999999
0029028360999991923012906004+67367+026650FM-12+018199999V0202701N007219999999N0000001N9-00941+99999095511ADDGF108991999999999999999999
0029028360999991923012913004+67367+026650FM-12+018199999V0202701N005119999999N0000001N9-00831+99999095701ADDGF106991999999999999999999
0029028360999991923012920004+67367+026650FM-12+018199999V0202701N005119999999N0000001N9-00671+99999095881ADDGF108991999999999999999999
0029028360999991923013006004+67367+026650FM-12+018199999V0202701N001019999999N0000001N9-00941+99999096581ADDGF108991999999999999999999
0029028360999991923013013004+67367+026650FM-12+018199999V0209991C000019999999N0000001N9-01941+99999097111ADDGF103991999999999999999999
0029028360999991923013020004+67367+026650FM-12+018199999V0209991C000019999999N0000001N9-01671+99999097441ADDGF102991999999999999999999
0029028360999991923013106004+67367+026650FM-12+018199999V0209991C000019999999N0000001N9-03441+99999097641ADDGF100991999999999999999999
0029028360999991923013113004+67367+026650FM-12+018199999V0209991C000019999999N0000001N9-03061+99999097841ADDGF100991999999999999999999
0029028360999991923013120004+67367+026650FM-12+018199999V0209991C000019999999N0000001N9-03561+99999098101ADDGF100991999999999999999999
0029028360999991923020106004+67367+026650FM-12+018199999V0209991C000019999999N0000001N9-03561+99999098161ADDGF101991999999999999999999
0029028360999991923020113004+67367+026650FM-12+018199999V0209991C000019999999N0000001N9-02501+99999098021ADDGF108991999999999999999999
0029028360999991923020120004+67367+026650FM-12+018199999V0209991C000019999999N0000001N9-02001+99999097671ADDGF108991999999999999999999
0035028360999991923020206004+67367+026650FM-12+018199999V0209991C000019999999N0000001N9-01561+99999096821ADDGF108991999999999999999999MW1721
0035028360999991923020213004+67367+026650FM-12+018199999V0209991C000019999999N0000001N9-01331+99999096661ADDGF108991999999999999999999MW1721
0035028360999991923020220004+67367+026650FM-12+018199999V0209991C000019999999N0000001N9-01561+99999096751ADDGF108991999999999999999999MW1721
0029028360999991923020306004+67367+026650FM-12+018199999V0209991C000019999999N0000001N9-01721+99999097191ADDGF101991999999999999999999
0029028360999991923020313004+67367+026650FM-12+018199999V0209991C000019999999N0000001N9-01391+99999097601ADDGF104991999999999999999999
0029028360999991923020320004+67367+026650FM-12+018199999V0203601N001019999999N0000001N9-01501+99999098031ADDGF108991999999999999999999
0029028360999991923020406004+67367+026650FM-12+018199999V0209991C000019999999N0000001N9-03331+99999098441ADDGF100991999999999999999999
0029028360999991923020413004+67367+026650FM-12+018199999V0209991C000019999999N0000001N9-02941+99999098621ADDGF107991999999999999999999
0035028360999991923020420004+67367+026650FM-12+018199999V0209991C000019999999N0000001N9-02111+99999098501ADDGF108991999999999999999999MW1701
0035028360999991923020506004+67367+026650FM-12+018199999V0201801N005119999999N0000001N9-01281+99999098071ADDGF108991999999999999999999MW1741
0029028360999991923020513004+67367+026650FM-12+018199999V0202001N003119999999N0000001N9-00831+99999098101ADDGF108991999999999999999999
0029028360999991923020520004+67367+026650FM-12+018199999V0202301N003119999999N0000001N9-00441+99999098041ADDGF108991999999999999999999
0029028360999991923020606004+67367+026650FM-12+018199999V0202301N007219999999N0000001N9-00561+99999097701ADDGF108991999999999999999999
0029028360999991923020613004+67367+026650FM-12+018199999V0202301N009819999999N0000001N9-00111+99999097621ADDGF108991999999999999999999
0029028360999991923020620004+67367+026650FM-12+018199999V0202301N006219999999N0000001N9-00061+99999098071ADDGF108991999999999999999999
0029028360999991923020706004+67367+026650FM-12+018199999V0202301N005119999999N0000001N9+00001+99999098601ADDGF108991999999999999999999
0029028360999991923020713004+67367+026650FM-12+018199999V0202301N006219999999N0000001N9-00061+99999098981ADDGF108991999999999999999999
0029028360999991923020720004+67367+026650FM-12+018199999V0202301N008719999999N0000001N9-00221+99999099271ADDGF108991999999999999999999
0029028360999991923020806004+67367+026650FM-12+018199999V0202301N007219999999N0000001N9-00501+99999099831ADDGF104991999999999999999999
0029028360999991923020813004+67367+026650FM-12+018199999V0202301N006219999999N0000001N9-00331+99999100281ADDGF108991999999999999999999
0029028360999991923020820004+67367+026650FM-12+018199999V0202301N005119999999N0000001N9-00331+99999100721ADDGF108991999999999999999999
0029028360999991923020906004+67367+026650FM-12+018199999V0202301N001019999999N0000001N9-00611+99999101161ADDGF108991999999999999999999
0029028360999991923020913004+67367+026650FM-12+018199999V0202301N003119999999N0000001N9-00781+99999101461ADDGF108991999999999999999999
0029028360999991923020920004+67367+026650FM-12+018199999V0202301N003119999999N0000001N9-01001+99999101941ADDGF108991999999999999999999
0029028360999991923021006004+67367+026650FM-12+018199999V0202301N004119999999N0000001N9-00721+99999102461ADDGF108991999999999999999999
0035028360999991923021013004+67367+026650FM-12+018199999V0202501N004119999999N0000001N9-00831+99999102751ADDGF108991999999999999999999MW1701
0029028360999991923021020004+67367+026650FM-12+018199999V0202501N001019999999N0000001N9-00891+99999102871ADDGF108991999999999999999999
0029028360999991923021106004+67367+026650FM-12+018199999V0202501N002119999999N0000001N9-01171+99999102631ADDGF108991999999999999999999
0029028360999991923021113004+67367+026650FM-12+018199999V0203201N001019999999N0000001N9-01331+99999102311ADDGF100991999999999999999999
0029028360999991923021120004+67367+026650FM-12+018199999V0209991C000019999999N0000001N9-02001+99999102441ADDGF108991999999999999999999
0029028360999991923021206004+67367+026650FM-12+018199999V0209991C000019999999N0000001N9-01331+99999102431ADDGF108991999999999999999999
0035028360999991923021213004+67367+026650FM-12+018199999V0202301N003119999999N0000001N9-01171+99999102471ADDGF108991999999999999999999MW1701
0029028360999991923021220004+67367+026650FM-12+018199999V0202301N004119999999N0000001N9-01171+99999102271ADDGF108991999999999999999999
0029028360999991923021306004+67367+026650FM-12+018199999V0209991C000019999999N0000001N9-01671+99999101781ADDGF100991999999999999999999
0029028360999991923021313004+67367+026650FM-12+018199999V0201601N001019999999N0000001N9-01441+99999101551ADDGF100991999999999999999999
0029028360999991923021320004+67367+026650FM-12+018199999V0209991C000019999999N0000001N9-02171+99999101191ADDGF100991999999999999999999
0029028360999991923021406004+67367+026650FM-12+018199999V0209991C000019999999N0000001N9-02831+99999100951ADDGF100991999999999999999999
0029028360999991923021413004+67367+026650FM-12+018199999V0202001N001019999999N0000001N9-01561+99999100741ADDGF108991999999999999999999
0029028360999991923021420004+67367+026650FM-12+018199999V0200901N001019999999N0000001N9-02061+99999100521ADDGF108991999999999999999999
0029028360999991923021506004+67367+026650FM-12+018199999V0209991C000019999999N0000001N9-01781+99999100351ADDGF108991999999999999999999
0035028360999991923021513004+67367+026650FM-12+018199999V0202301N003119999999N0000001N9-01391+99999100261ADDGF108991999999999999999999MW1701
0029028360999991923021520004+67367+026650FM-12+018199999V0202301N001019999999N0000001N9-01391+99999100151ADDGF108991999999999999999999
0029028360999991923021606004+67367+026650FM-12+018199999V0202301N004119999999N0000001N9-01281+99999099941ADDGF108991999999999999999999
0035028360999991923021613004+67367+026650FM-12+018199999V0202301N004119999999N0000001N9-01111+99999099901ADDGF108991999999999999999999MW1701
0029028360999991923021620004+67367+026650FM-12+018199999V0202301N001019999999N0000001N9-01281+99999099781ADDGF108991999999999999999999
0029028360999991923021706004+67367+026650FM-12+018199999V0202301N003119999999N0000001N9-01721+99999099561ADDGF108991999999999999999999
0029028360999991923021713004+67367+026650FM-12+018199999V0202001N005119999999N0000001N9-01331+99999099521ADDGF108991999999999999999999
0029028360999991923021720004+67367+026650FM-12+018199999V0202001N001019999999N0000001N9-01441+99999099381ADDGF101991999999999999999999
0029028360999991923021806004+67367+026650FM-12+018199999V0202001N001019999999N0000001N9-02171+99999099181ADDGF106991999999999999999999
0029028360999991923021813004+67367+026650FM-12+018199999V0202001N001019999999N0000001N9-01941+99999099031ADDGF108991999999999999999999
0029028360999991923021820004+67367+026650FM-12+018199999V0209991C000019999999N0000001N9-01831+99999098961ADDGF108991999999999999999999
0029028360999991923021906004+67367+026650FM-12+018199999V0202301N001019999999N0000001N9-01781+99999098841ADDGF108991999999999999999999
0029028360999991923021913004+67367+026650FM-12+018199999V0202301N003119999999N0000001N9-01561+99999098711ADDGF108991999999999999999999
0029028360999991923021920004+67367+026650FM-12+018199999V0202301N003119999999N0000001N9-01831+99999098551ADDGF108991999999999999999999
0029028360999991923022006004+67367+026650FM-12+018199999V0209991C000019999999N0000001N9-01781+99999098471ADDGF108991999999999999999999
0029028360999991923022013004+67367+026650FM-12+018199999V0202301N003119999999N0000001N9-01501+99999098471ADDGF108991999999999999999999
0029028360999991923022020004+67367+026650FM-12+018199999V0202301N001019999999N0000001N9-01501+99999098351ADDGF108991999999999999999999
0029028360999991923022106004+67367+026650FM-12+018199999V0202301N003119999999N0000001N9-01441+99999098021ADDGF108991999999999999999999
0029028360999991923022113004+67367+026650FM-12+018199999V0202001N003119999999N0000001N9-01281+99999097911ADDGF108991999999999999999999
0029028360999991923022120004+67367+026650FM-12+018199999V0202301N005119999999N0000001N9-01171+99999097711ADDGF108991999999999999999999
0029028360999991923022206004+67367+026650FM-12+018199999V0202001N001019999999N0000001N9-01281+99999098101ADDGF108991999999999999999999
0029028360999991923022213004+67367+026650FM-12+018199999V0209991C000019999999N0000001N9-01171+99999098441ADDGF108991999999999999999999
0029028360999991923022220004+67367+026650FM-12+018199999V0202001N002119999999N0000001N9-01561+99999098681ADDGF108991999999999999999999
0035028360999991923022306004+67367+026650FM-12+018199999V0201801N001019999999N0000001N9-01391+99999098791ADDGF108991999999999999999999MW1701
0035028360999991923022313004+67367+026650FM-12+018199999V0201801N007219999999N0000001N9-00781+99999098741ADDGF108991999999999999999999MW1701
0035028360999991923022320004+67367+026650FM-12+018199999V0202301N008219999999N0000001N9-00831+99999098761ADDGF108991999999999999999999MW1701
0035028360999991923022406004+67367+026650FM-12+018199999V0202301N008719999999N0000001N9-01441+99999098901ADDGF108991999999999999999999MW1701
0035028360999991923022413004+67367+026650FM-12+018199999V0202001N005119999999N0000001N9-01171+99999098791ADDGF108991999999999999999999MW1701
0035028360999991923022420004+67367+026650FM-12+018199999V0202001N005119999999N0000001N9-01061+99999098821ADDGF108991999999999999999999MW1701
0035028360999991923022506004+67367+026650FM-12+018199999V0202001N005119999999N0000001N9-01221+99999098711ADDGF108991999999999999999999MW1741
0035028360999991923022513004+67367+026650FM-12+018199999V0202001N005119999999N0000001N9-01061+99999098661ADDGF108991999999999999999999MW1741
0035028360999991923022520004+67367+026650FM-12+018199999V0202001N001019999999N0000001N9-01281+99999098681ADDGF108991999999999999999999MW1741
0035028360999991923022606004+67367+026650FM-12+018199999V0202001N001019999999N0000001N9-01331+99999098741ADDGF108991999999999999999999MW1721
0029028360999991923022613004+67367+026650FM-12+018199999V0201801N003119999999N0000001N9-01111+99999098831ADDGF108991999999999999999999
0035028360999991923022620004+67367+026650FM-12+018199999V0201801N005119999999N0000001N9-01001+99999098791ADDGF108991999999999999999999MW1741
0035028360999991923022706004+67367+026650FM-12+018199999V0201101N003119999999N0000001N9-01721+99999098541ADDGF108991999999999999999999MW1701
0035028360999991923022713004+67367+026650FM-12+018199999V0201101N001019999999N0000001N9-01441+99999098711ADDGF108991999999999999999999MW1701
0035028360999991923022720004+67367+026650FM-12+018199999V0209991C000019999999N0000001N9-01611+99999098761ADDGF108991999999999999999999MW1701
0035028360999991923022806004+67367+026650FM-12+018199999V0201101N001019999999N0000001N9-01611+99999098801ADDGF108991999999999999999999MW1721
0035028360999991923022813004+67367+026650FM-12+018199999V0200901N001019999999N0000001N9-01331+99999098951ADDGF108991999999999999999999MW1721
0035028360999991923022820004+67367+026650FM-12+018199999V0209991C000019999999N0000001N9-03061+99999099341ADDGF100991999999999999999999MW1721
0029028360999991923030106004+67367+026650FM-12+018199999V0209991C000019999999N0000001N9-03721+99999099801ADDGF100991999999999999999999
0029028360999991923030113004+67367+026650FM-12+018199999V0200901N002119999999N0000001N9-01941+99999100101ADDGF100991999999999999999999
0029028360999991923030120004+67367+026650FM-12+018199999V0200901N001019999999N0000001N9-03281+99999100261ADDGF100991999999999999999999
0029028360999991923030206004+67367+026650FM-12+018199999V0209991C000019999999N0000001N9-03941+99999100471ADDGF100991999999999999999999
0029028360999991923030213004+67367+026650FM-12+018199999V0200901N001019999999N0000001N9-02111+99999100501ADDGF108991999999999999999999
0029028360999991923030220004+67367+026650FM-12+018199999V0200901N001019999999N0000001N9-02891+99999100281ADDGF108991999999999999999999
0029028360999991923030306004+67367+026650FM-12+018199999V0201801N005119999999N0000001N9-01221+99999100071ADDGF108991999999999999999999
0029028360999991923030313004+67367+026650FM-12+018199999V0202001N005119999999N0000001N9-01061+99999100181ADDGF108991999999999999999999
0029028360999991923030320004+67367+026650FM-12+018199999V0201801N002119999999N0000001N9-01941+99999100261ADDGF108991999999999999999999
0029028360999991923030406004+67367+026650FM-12+018199999V0201801N003119999999N0000001N9-01671+99999100271ADDGF108991999999999999999999
0029028360999991923030413004+67367+026650FM-12+018199999V0202001N005119999999N0000001N9-00941+99999100261ADDGF101991999999999999999999
0029028360999991923030420004+67367+026650FM-12+018199999V0202001N001019999999N0000001N9-02001+99999100071ADDGF101991999999999999999999
0029028360999991923030506004+67367+026650FM-12+018199999V0201801N001019999999N0000001N9-02721+99999099911ADDGF108991999999999999999999
0029028360999991923030513004+67367+026650FM-12+018199999V0201801N005119999999N0000001N9-01111+99999099781ADDGF108991999999999999999999
0029028360999991923030520004+67367+026650FM-12+018199999V0202001N005119999999N0000001N9-01281+99999099621ADDGF108991999999999999999999
0035028360999991923030606004+67367+026650FM-12+018199999V0202001N003119999999N0000001N9-01331+99999099511ADDGF108991999999999999999999MW1701
0029028360999991923030613004+67367+026650FM-12+018199999V0202001N006219999999N0000001N9-00831+99999099511ADDGF108991999999999999999999
0029028360999991923030620004+67367+026650FM-12+018199999V0202001N006219999999N0000001N9-00721+99999099501ADDGF108991999999999999999999
0035028360999991923030706004+67367+026650FM-12+018199999V0202001N007219999999N0000001N9-00831+99999099221ADDGF108991999999999999999999MW1721
0029028360999991923030713004+67367+026650FM-12+018199999V0202001N007219999999N0000001N9-00721+99999099191ADDGF108991999999999999999999
0029028360999991923030720004+67367+026650FM-12+018199999V0202001N009819999999N0000001N9-00611+99999099191ADDGF108991999999999999999999
0029028360999991923030806004+67367+026650FM-12+018199999V0202301N009819999999N0000001N9-00331+99999099151ADDGF108991999999999999999999
0029028360999991923030813004+67367+026650FM-12+018199999V0202301N006219999999N0000001N9-00171+99999099351ADDGF108991999999999999999999
0029028360999991923030820004+67367+026650FM-12+018199999V0202701N001019999999N0000001N9-00721+99999099911ADDGF108991999999999999999999
0029028360999991923030906004+67367+026650FM-12+018199999V0202701N003119999999N0000001N9-00441+99999100471ADDGF108991999999999999999999
0029028360999991923030913004+67367+026650FM-12+018199999V0202501N003119999999N0000001N9-00561+99999100701ADDGF108991999999999999999999
0029028360999991923030920004+67367+026650FM-12+018199999V0202301N004119999999N0000001N9-00671+99999100681ADDGF108991999999999999999999
0029028360999991923031006004+67367+026650FM-12+018199999V0202501N005119999999N0000001N9-00561+99999100341ADDGF108991999999999999999999
0029028360999991923031013004+67367+026650FM-12+018199999V0202301N005119999999N0000001N9-00391+99999100401ADDGF108991999999999999999999
0029028360999991923031020004+67367+026650FM-12+018199999V0202301N005119999999N0000001N9-00501+99999100581ADDGF108991999999999999999999
0029028360999991923031106004+67367+026650FM-12+018199999V0202301N005119999999N0000001N9-00501+99999100821ADDGF108991999999999999999999
0029028360999991923031113004+67367+026650FM-12+018199999V0202301N005119999999N0000001N9-00671+99999101061ADDGF108991999999999999999999
0029028360999991923031120004+67367+026650FM-12+018199999V0202301N003119999999N0000001N9-01111+99999101111ADDGF108991999999999999999999
0035028360999991923031206004+67367+026650FM-12+018199999V0202301N005119999999N0000001N9-01171+99999100941ADDGF108991999999999999999999MW1721
0035028360999991923031213004+67367+026650FM-12+018199999V0202301N005119999999N0000001N9-01001+99999100981ADDGF108991999999999999999999MW1721
0035028360999991923031220004+67367+026650FM-12+018199999V0202301N003119999999N0000001N9-01001+99999100871ADDGF108991999999999999999999MW1721
0035028360999991923031306004+67367+026650FM-12+018199999V0202301N002119999999N0000001N9-01221+99999100791ADDGF108991999999999999999999MW1721
0029028360999991923031313004+67367+026650FM-12+018199999V0202301N003119999999N0000001N9-00781+99999100521ADDGF108991999999999999999999
0029028360999991923031320004+67367+026650FM-12+018199999V0202301N006219999999N0000001N9-00611+99999100221ADDGF108991999999999999999999
0029028360999991923031406004+67367+026650FM-12+018199999V0202001N006219999999N0000001N9-00611+99999099791ADDGF108991999999999999999999
0029028360999991923031413004+67367+026650FM-12+018199999V0202001N003119999999N0000001N9-00501+99999099471ADDGF108991999999999999999999
0029028360999991923031420004+67367+026650FM-12+018199999V0202001N004119999999N0000001N9-00391+99999099161ADDGF108991999999999999999999
0029028360999991923031506004+67367+026650FM-12+018199999V0202701N003119999999N0000001N9-00171+99999099401ADDGF108991999999999999999999
0029028360999991923031513004+67367+026650FM-12+018199999V0202701N005119999999N0000001N9+00441+99999099781ADDGF108991999999999999999999
0029028360999991923031520004+67367+026650FM-12+018199999V0202701N003119999999N0000001N9+00281+99999099781ADDGF108991999999999999999999
0029028360999991923031606004+67367+026650FM-12+018199999V0202701N003119999999N0000001N9-00331+99999100031ADDGF108991999999999999999999
0029028360999991923031613004+67367+026650FM-12+018199999V0202701N005119999999N0000001N9+00331+99999100151ADDGF108991999999999999999999
0029028360999991923031620004+67367+026650FM-12+018199999V0202901N008719999999N0000001N9+00331+99999099681ADDGF108991999999999999999999
0029028360999991923031706004+67367+026650FM-12+018199999V0203201N005119999999N0000001N9+00111+99999099541ADDGF108991999999999999999999
0029028360999991923031713004+67367+026650FM-12+018199999V0203601N007219999999N0000001N9+00111+99999099941ADDGF108991999999999999999999
0029028360999991923031720004+67367+026650FM-12+018199999V0203201N007219999999N0000001N9-00111+99999100311ADDGF108991999999999999999999
0029028360999991923031806004+67367+026650FM-12+018199999V0202701N001019999999N0000001N9-00331+99999100021ADDGF108991999999999999999999
0029028360999991923031813004+67367+026650FM-12+018199999V0202701N005119999999N0000001N9+00331+99999099721ADDGF108991999999999999999999
0029028360999991923031820004+67367+026650FM-12+018199999V0202701N006219999999N0000001N9+00221+99999099351ADDGF108991999999999999999999
0029028360999991923031906004+67367+026650FM-12+018199999V0202701N005119999999N0000001N9+00111+99999098981ADDGF108991999999999999999999
0029028360999991923031913004+67367+026650FM-12+018199999V0202701N007219999999N0000001N9+00441+99999098981ADDGF108991999999999999999999
0029028360999991923031920004+67367+026650FM-12+018199999V0202701N003119999999N0000001N9+00171+99999098391ADDGF104991999999999999999999
0029028360999991923032006004+67367+026650FM-12+018199999V0202701N007219999999N0000001N9-00281+99999098831ADDGF100991999999999999999999
0029028360999991923032013004+67367+026650FM-12+018199999V0203201N008719999999N0000001N9+00111+99999099061ADDGF108991999999999999999999
0029028360999991923032020004+67367+026650FM-12+018199999V0202901N008719999999N0000001N9-00111+99999098901ADDGF108991999999999999999999
0035028360999991923032106004+67367+026650FM-12+018199999V0200901N001019999999N0000001N9-00561+99999099301ADDGF108991999999999999999999MW1701
0029028360999991923032113004+67367+026650FM-12+018199999V0200901N003119999999N0000001N9+00001+99999099311ADDGF108991999999999999999999
0029028360999991923032120004+67367+026650FM-12+018199999V0200901N001019999999N0000001N9-00331+99999099141ADDGF108991999999999999999999
0029028360999991923032206004+67367+026650FM-12+018199999V0202701N007219999999N0000001N9+00001+99999098431ADDGF107991999999999999999999
0029028360999991923032213004+67367+026650FM-12+018199999V0202901N009819999999N0000001N9+00331+99999098671ADDGF106991999999999999999999
0029028360999991923032220004+67367+026650FM-12+018199999V0202701N005119999999N0000001N9-00171+99999099221ADDGF100991999999999999999999
0029028360999991923032306004+67367+026650FM-12+018199999V0202701N003119999999N0000001N9-00331+99999099621ADDGF108991999999999999999999
0029028360999991923032313004+67367+026650FM-12+018199999V0202701N003119999999N0000001N9+00441+99999099621ADDGF108991999999999999999999
0029028360999991923032320004+67367+026650FM-12+018199999V0202701N004119999999N0000001N9+00221+99999099561ADDGF108991999999999999999999
0029028360999991923032406004+67367+026650FM-12+018199999V0202701N003119999999N0000001N9-00111+99999099241ADDGF105991999999999999999999
0029028360999991923032413004+67367+026650FM-12+018199999V0202701N005119999999N0000001N9+00501+99999098881ADDGF108991999999999999999999
0029028360999991923032420004+67367+026650FM-12+018199999V0203601N007219999999N0000001N9+00171+99999099321ADDGF102991999999999999999999
0029028360999991923032506004+67367+026650FM-12+018199999V0202701N005119999999N0000001N9-00391+99999100071ADDGF101991999999999999999999
0029028360999991923032513004+67367+026650FM-12+018199999V0203201N005119999999N0000001N9+00001+99999100481ADDGF108991999999999999999999
0029028360999991923032520004+67367+026650FM-12+018199999V0203601N002119999999N0000001N9-00221+99999100601ADDGF108991999999999999999999
0029028360999991923032606004+67367+026650FM-12+018199999V0209991C000019999999N0000001N9-01111+99999100841ADDGF101991999999999999999999
0029028360999991923032613004+67367+026650FM-12+018199999V0202501N003119999999N0000001N9+00281+99999100681ADDGF106991999999999999999999
0029028360999991923032620004+67367+026650FM-12+018199999V0201801N003119999999N0000001N9-00171+99999100231ADDGF101991999999999999999999
0029028360999991923032706004+67367+026650FM-12+018199999V0201801N002119999999N0000001N9-01171+99999099881ADDGF108991999999999999999999
0029028360999991923032713004+67367+026650FM-12+018199999V0203401N001019999999N0000001N9+00331+99999099871ADDGF101991999999999999999999
0029028360999991923032720004+67367+026650FM-12+018199999V0209991C000019999999N0000001N9+00171+99999099861ADDGF108991999999999999999999
0029028360999991923032806004+67367+026650FM-12+018199999V0202701N003119999999N0000001N9+00001+99999099481ADDGF104991999999999999999999
0029028360999991923032813004+67367+026650FM-12+018199999V0202701N005119999999N0000001N9+00561+99999099031ADDGF103991999999999999999999
0029028360999991923032820004+67367+026650FM-12+018199999V0203201N005119999999N0000001N9+00171+99999099081ADDGF108991999999999999999999
0029028360999991923032906004+67367+026650FM-12+018199999V0203601N005119999999N0000001N9-00281+99999100151ADDGF106991999999999999999999
0029028360999991923032913004+67367+026650FM-12+018199999V0200901N003119999999N0000001N9-00221+99999100601ADDGF102991999999999999999999
0029028360999991923032920004+67367+026650FM-12+018199999V0209991C000019999999N0000001N9-01061+99999100341ADDGF100991999999999999999999
0029028360999991923033006004+67367+026650FM-12+018199999V0201801N003119999999N0000001N9-00831+99999100101ADDGF108991999999999999999999
0029028360999991923033013004+67367+026650FM-12+018199999V0201401N003119999999N0000001N9-00281+99999100631ADDGF106991999999999999999999
0029028360999991923033020004+67367+026650FM-12+018199999V0209991C000019999999N0000001N9-01331+99999100821ADDGF100991999999999999999999
0029028360999991923033106004+67367+026650FM-12+018199999V0209991C000019999999N0000001N9-01891+99999100881ADDGF108991999999999999999999
0029028360999991923033113004+67367+026650FM-12+018199999V0202301N006219999999N0000001N9-00061+99999100521ADDGF102991999999999999999999
0029028360999991923033120004+67367+026650FM-12+018199999V0202301N005119999999N0000001N9-00441+99999100231ADDGF100991999999999999999999
0029028360999991923040106004+67367+026650FM-12+018199999V0202301N002119999999N0000001N9-00781+99999099821ADDGF108991999999999999999999
0029028360999991923040113004+67367+026650FM-12+018199999V0203601N007219999999N0000001N9+00501+99999099871ADDGF108991999999999999999999
0029028360999991923040120004+67367+026650FM-12+018199999V0203601N005119999999N0000001N9+00001+99999100261ADDGF108991999999999999999999
0029028360999991923040206004+67367+026650FM-12+018199999V0203201N003119999999N0000001N9-00061+99999100231ADDGF108991999999999999999999
0029028360999991923040213004+67367+026650FM-12+018199999V0203201N005119999999N0000001N9+00391+99999100271ADDGF108991999999999999999999
0029028360999991923040220004+67367+026650FM-12+018199999V0203201N003119999999N0000001N9+00221+99999100311ADDGF108991999999999999999999
0029028360999991923040306004+67367+026650FM-12+018199999V0203201N001019999999N0000001N9+00111+99999100431ADDGF108991999999999999999999
0035028360999991923040313004+67367+026650FM-12+018199999V0202701N004119999999N0000001N9+00501+99999100391ADDGF108991999999999999999999MW1861
0029028360999991923040320004+67367+026650FM-12+018199999V0202901N002119999999N0000001N9+00221+99999100181ADDGF108991999999999999999999
0029028360999991923040406004+67367+026650FM-12+018199999V0202901N001019999999N0000001N9+00061+99999100021ADDGF108991999999999999999999
0029028360999991923040413004+67367+026650FM-12+018199999V0202901N004119999999N0000001N9+00501+99999100181ADDGF107991999999999999999999
0029028360999991923040420004+67367+026650FM-12+018199999V0209991C000019999999N0000001N9-00391+99999100341ADDGF106991999999999999999999
0029028360999991923040506004+67367+026650FM-12+018199999V0203601N001019999999N0000001N9-00671+99999100521ADDGF108991999999999999999999
0029028360999991923040513004+67367+026650FM-12+018199999V0209991C000019999999N0000001N9+00561+99999100671ADDGF108991999999999999999999
0029028360999991923040520004+67367+026650FM-12+018199999V0209991C000019999999N0000001N9-00171+99999100631ADDGF108991999999999999999999
0029028360999991923040606004+67367+026650FM-12+018199999V0209991C000019999999N0000001N9-00561+99999100741ADDGF108991999999999999999999
0029028360999991923040613004+67367+026650FM-12+018199999V0203201N001019999999N0000001N9+00611+99999100681ADDGF107991999999999999999999
0029028360999991923040620004+67367+026650FM-12+018199999V0209991C000019999999N0000001N9-00441+99999100551ADDGF101991999999999999999999
0029028360999991923040706004+67367+026650FM-12+018199999V0202301N001019999999N0000001N9-00891+99999100461ADDGF103991999999999999999999
0029028360999991923040713004+67367+026650FM-12+018199999V0202701N005119999999N0000001N9+00561+99999100201ADDGF100991999999999999999999
0029028360999991923040720004+67367+026650FM-12+018199999V0209991C000019999999N0000001N9-00171+99999100021ADDGF101991999999999999999999
0029028360999991923040806004+67367+026650FM-12+018199999V0202701N003119999999N0000001N9-00111+99999099801ADDGF108991999999999999999999
0029028360999991923040813004+67367+026650FM-12+018199999V0203401N005119999999N0000001N9+00281+99999099821ADDGF108991999999999999999999
0029028360999991923040820004+67367+026650FM-12+018199999V0203201N003119999999N0000001N9-00061+99999099881ADDGF101991999999999999999999
0029028360999991923040906004+67367+026650FM-12+018199999V0202501N002119999999N0000001N9-00441+99999099801ADDGF106991999999999999999999
0029028360999991923040913004+67367+026650FM-12+018199999V0202701N007219999999N0000001N9+00331+99999099481ADDGF108991999999999999999999
0029028360999991923040920004+67367+026650FM-12+018199999V0202701N005119999999N0000001N9-00061+99999099111ADDGF102991999999999999999999
0029028360999991923041006004+67367+026650FM-12+018199999V0203601N005119999999N0000001N9-00391+99999099221ADDGF102991999999999999999999
0029028360999991923041013004+67367+026650FM-12+018199999V0203601N003119999999N0000001N9-00111+99999099381ADDGF108991999999999999999999
0029028360999991923041020004+67367+026650FM-12+018199999V0203601N001019999999N0000001N9-00441+99999099301ADDGF108991999999999999999999
0035028360999991923041106004+67367+026650FM-12+018199999V0203601N001019999999N0000001N9-01061+99999099161ADDGF108991999999999999999999MW1721
0029028360999991923041113004+67367+026650FM-12+018199999V0200501N007219999999N0000001N9-00171+99999099381ADDGF106991999999999999999999
0029028360999991923041120004+67367+026650FM-12+018199999V0203601N001019999999N0000001N9-00781+99999099741ADDGF100991999999999999999999
0029028360999991923041206004+67367+026650FM-12+018199999V0203601N001019999999N0000001N9-01171+99999100041ADDGF100991999999999999999999
0029028360999991923041213004+67367+026650FM-12+018199999V0203201N001019999999N0000001N9-00111+99999099921ADDGF101991999999999999999999
0029028360999991923041220004+67367+026650FM-12+018199999V0209991C000019999999N0000001N9-01331+99999099761ADDGF105991999999999999999999
0029028360999991923041306004+67367+026650FM-12+018199999V0201601N001019999999N0000001N9-01331+99999099721ADDGF101991999999999999999999
0029028360999991923041313004+67367+026650FM-12+018199999V0202001N003119999999N0000001N9-00061+99999099591ADDGF101991999999999999999999
0029028360999991923041320004+67367+026650FM-12+018199999V0201801N001019999999N0000001N9-01001+99999099431ADDGF101991999999999999999999
0035028360999991923041406004+67367+026650FM-12+018199999V0201801N003119999999N0000001N9-00721+99999099301ADDGF108991999999999999999999MW1721
0029028360999991923041413004+67367+026650FM-12+018199999V0202001N005119999999N0000001N9+00061+99999099181ADDGF108991999999999999999999
0029028360999991923041420004+67367+026650FM-12+018199999V0201801N001019999999N0000001N9-00501+99999099241ADDGF107991999999999999999999
0029028360999991923041506004+67367+026650FM-12+018199999V0201801N001019999999N0000001N9-00831+99999099361ADDGF108991999999999999999999
0029028360999991923041513004+67367+026650FM-12+018199999V0201401N001019999999N0000001N9+00111+99999099391ADDGF100991999999999999999999
0029028360999991923041520004+67367+026650FM-12+018199999V0209991C000019999999N0000001N9-00941+99999099351ADDGF102991999999999999999999
0029028360999991923041606004+67367+026650FM-12+018199999V0202301N001019999999N0000001N9-00331+99999099261ADDGF103991999999999999999999
0029028360999991923041613004+67367+026650FM-12+018199999V0202701N004119999999N0000001N9+00171+99999099321ADDGF108991999999999999999999
0029028360999991923041620004+67367+026650FM-12+018199999V0203201N003119999999N0000001N9-00061+99999099541ADDGF108991999999999999999999
0029028360999991923041706004+67367+026650FM-12+018199999V0202701N002119999999N0000001N9-00061+99999099791ADDGF108991999999999999999999
0029028360999991923041713004+67367+026650FM-12+018199999V0202701N004119999999N0000001N9+00331+99999099781ADDGF108991999999999999999999
0029028360999991923041720004+67367+026650FM-12+018199999V0202701N003119999999N0000001N9+00001+99999099671ADDGF100991999999999999999999
0029028360999991923041806004+67367+026650FM-12+018199999V0202701N001019999999N0000001N9-00281+99999099481ADDGF108991999999999999999999
0029028360999991923041813004+67367+026650FM-12+018199999V0202701N005119999999N0000001N9+00501+99999099071ADDGF108991999999999999999999
0029028360999991923041820004+67367+026650FM-12+018199999V0202701N001019999999N0000001N9-00111+99999098711ADDGF108991999999999999999999
0029028360999991923041906004+67367+026650FM-12+018199999V0200501N008719999999N0000001N9-00221+99999098601ADDGF108991999999999999999999
0035028360999991923041913004+67367+026650FM-12+018199999V0200501N007219999999N0000001N9-00281+99999098871ADDGF108991999999999999999999MW1701
0029028360999991923041920004+67367+026650FM-12+018199999V0200501N007219999999N0000001N9-00781+99999099221ADDGF101991999999999999999999
0029028360999991923042006004+67367+026650FM-12+018199999V0203601N004119999999N0000001N9-01171+99999099661ADDGF100991999999999999999999
0035028360999991923042013004+67367+026650FM-12+018199999V0200901N008719999999N0000001N9-00501+99999099461ADDGF108991999999999999999999MW1701
0029028360999991923042020004+67367+026650FM-12+018199999V0200501N001019999999N0000001N9-01221+99999099281ADDGF103991999999999999999999
0029028360999991923042106004+67367+026650FM-12+018199999V0203201N001019999999N0000001N9-01281+99999098601ADDGF108991999999999999999999
0029028360999991923042113004+67367+026650FM-12+018199999V0202001N001019999999N0000001N9-00221+99999098351ADDGF108991999999999999999999
0029028360999991923042120004+67367+026650FM-12+018199999V0209991C000019999999N0000001N9-00721+99999098351ADDGF108991999999999999999999
0035028360999991923042206004+67367+026650FM-12+018199999V0200501N001019999999N0000001N9-01061+99999098561ADDGF108991999999999999999999MW1721
0029028360999991923042213004+67367+026650FM-12+018199999V0200501N005119999999N0000001N9-00331+99999098761ADDGF108991999999999999999999
0029028360999991923042220004+67367+026650FM-12+018199999V0209991C000019999999N0000001N9-00831+99999098901ADDGF108991999999999999999999
0029028360999991923042306004+67367+026650FM-12+018199999V0203601N002119999999N0000001N9-01061+99999099221ADDGF108991999999999999999999
0029028360999991923042313004+67367+026650FM-12+018199999V0200501N001019999999N0000001N9-00171+99999099241ADDGF108991999999999999999999
0029028360999991923042320004+67367+026650FM-12+018199999V0209991C000019999999N0000001N9-00891+99999099261ADDGF107991999999999999999999
0029028360999991923042406004+67367+026650FM-12+018199999V0203401N001019999999N0000001N9-00891+99999099351ADDGF108991999999999999999999
0029028360999991923042413004+67367+026650FM-12+018199999V0202001N003119999999N0000001N9-00221+99999099271ADDGF108991999999999999999999
0029028360999991923042420004+67367+026650FM-12+018199999V0209991C000019999999N0000001N9-00891+99999099111ADDGF100991999999999999999999
0029028360999991923042506004+67367+026650FM-12+018199999V0202001N001019999999N0000001N9-00941+99999099151ADDGF101991999999999999999999
0029028360999991923042513004+67367+026650FM-12+018199999V0201801N003119999999N0000001N9+00111+99999099071ADDGF108991999999999999999999
0029028360999991923042520004+67367+026650FM-12+018199999V0201401N003119999999N0000001N9-00441+99999099151ADDGF108991999999999999999999
0029028360999991923042606004+67367+026650FM-12+018199999V0201401N002119999999N0000001N9-00721+99999099461ADDGF101991999999999999999999
0029028360999991923042613004+67367+026650FM-12+018199999V0201801N005119999999N0000001N9-00111+99999099381ADDGF108991999999999999999999
0029028360999991923042620004+67367+026650FM-12+018199999V0201401N003119999999N0000001N9-00721+99999099321ADDGF102991999999999999999999
0029028360999991923042706004+67367+026650FM-12+018199999V0201401N004119999999N0000001N9-00671+99999099351ADDGF108991999999999999999999
0029028360999991923042713004+67367+026650FM-12+018199999V0201401N005119999999N0000001N9-00171+99999099001ADDGF108991999999999999999999
0035028360999991923042720004+67367+026650FM-12+018199999V0201101N005119999999N0000001N9-00611+99999098391ADDGF108991999999999999999999MW1741
0035028360999991923042806004+67367+026650FM-12+018199999V0200901N007219999999N0000001N9-00831+99999097161ADDGF108991999999999999999999MW1741
0035028360999991923042813004+67367+026650FM-12+018199999V0201401N008719999999N0000001N9-00501+99999097061ADDGF108991999999999999999999MW1741
0035028360999991923042820004+67367+026650FM-12+018199999V0200201N003119999999N0000001N9-00781+99999097241ADDGF108991999999999999999999MW1741
0035028360999991923042906004+67367+026650FM-12+018199999V0200501N005119999999N0000001N9-00721+99999097271ADDGF108991999999999999999999MW1721
0035028360999991923042913004+67367+026650FM-12+018199999V0200501N005119999999N0000001N9-00221+99999097441ADDGF108991999999999999999999MW1721
0029028360999991923042920004+67367+026650FM-12+018199999V0203601N006219999999N0000001N9-00501+99999097641ADDGF108991999999999999999999
0029028360999991923043006004+67367+026650FM-12+018199999V0203201N005119999999N0000001N9-00501+99999097951ADDGF103991999999999999999999
0029028360999991923043013004+67367+026650FM-12+018199999V0202901N005119999999N0000001N9-00061+99999098231ADDGF108991999999999999999999
0029028360999991923043020004+67367+026650FM-12+018199999V0203201N001019999999N0000001N9-00441+99999098501ADDGF100991999999999999999999
0029028360999991923050106004+67367+026650FM-12+018199999V0203201N001019999999N0000001N9-00611+99999098671ADDGF100991999999999999999999
0029028360999991923050113004+67367+026650FM-12+018199999V0203401N003119999999N0000001N9+00061+99999098751ADDGF104991999999999999999999
0029028360999991923050120004+67367+026650FM-12+018199999V0203601N001019999999N0000001N9-00501+99999098821ADDGF107991999999999999999999
0029028360999991923050206004+67367+026650FM-12+018199999V0203601N003119999999N0000001N9-00501+99999098951ADDGF108991999999999999999999
0029028360999991923050213004+67367+026650FM-12+018199999V0200501N003119999999N0000001N9+00001+99999099041ADDGF108991999999999999999999
0029028360999991923050220004+67367+026650FM-12+018199999V0200901N001019999999N0000001N9-00441+99999099111ADDGF108991999999999999999999
0029028360999991923050306004+67367+026650FM-12+018199999V0200901N001019999999N0000001N9-00441+99999099301ADDGF108991999999999999999999
0029028360999991923050313004+67367+026650FM-12+018199999V0202001N003119999999N0000001N9+00061+99999099341ADDGF103991999999999999999999
0029028360999991923050320004+67367+026650FM-12+018199999V0209991C000019999999N0000001N9-00781+99999099381ADDGF102991999999999999999999
0029028360999991923050406004+67367+026650FM-12+018199999V0202301N005119999999N0000001N9-00281+99999099581ADDGF108991999999999999999999
0029028360999991923050413004+67367+026650FM-12+018199999V0201801N003119999999N0000001N9+00331+99999099561ADDGF102991999999999999999999
0029028360999991923050420004+67367+026650FM-12+018199999V0201401N003119999999N0000001N9-00281+99999099461ADDGF100991999999999999999999
0035028360999991923050506004+67367+026650FM-12+018199999V0201601N003119999999N0000001N9-00391+99999099221ADDGF108991999999999999999999MW1721
0029028360999991923050513004+67367+026650FM-12+018199999V0201401N005119999999N0000001N9+00061+99999099141ADDGF108991999999999999999999
0029028360999991923050520004+67367+026650FM-12+018199999V0201401N005119999999N0000001N9+00061+99999099221ADDGF108991999999999999999999
0029028360999991923050606004+67367+026650FM-12+018199999V0201401N003119999999N0000001N9+00001+99999099541ADDGF108991999999999999999999
0029028360999991923050613004+67367+026650FM-12+018199999V0201401N005119999999N0000001N9+00331+99999099621ADDGF108991999999999999999999
0029028360999991923050620004+67367+026650FM-12+018199999V0201601N007219999999N0000001N9+00111+99999099481ADDGF108991999999999999999999
0029028360999991923050706004+67367+026650FM-12+018199999V0201401N009819999999N0000001N9-00171+99999098901ADDGF108991999999999999999999
0035028360999991923050713004+67367+026650FM-12+018199999V0201401N012919999999N0000001N9+00171+99999098181ADDGF108991999999999999999999MW1721
0035028360999991923050720004+67367+026650FM-12+018199999V0201401N007219999999N0000001N9-00111+99999097641ADDGF108991999999999999999999MW1721
0035028360999991923050806004+67367+026650FM-12+018199999V0201601N005119999999N0000001N9+00061+99999097441ADDGF108991999999999999999999MW1721
0035028360999991923050813004+67367+026650FM-12+018199999V0202301N005119999999N0000001N9+00281+99999097801ADDGF108991999999999999999999MW1621
0029028360999991923050820004+67367+026650FM-12+018199999V0209991C000019999999N0000001N9+00171+99999098151ADDGF108991999999999999999999
0035028360999991923050906004+67367+026650FM-12+018199999V0202701N001019999999N0000001N9+00061+99999098341ADDGF108991999999999999999999MW1721
0029028360999991923050913004+67367+026650FM-12+018199999V0201801N001019999999N0000001N9+00671+99999098361ADDGF108991999999999999999999
0029028360999991923050920004+67367+026650FM-12+018199999V0209991C000019999999N0000001N9+00221+99999098501ADDGF108991999999999999999999
0029028360999991923051006004+67367+026650FM-12+018199999V0201801N001019999999N0000001N9+00171+99999098601ADDGF108991999999999999999999
0035028360999991923051013004+67367+026650FM-12+018199999V0201801N002119999999N0000001N9+00391+99999098661ADDGF108991999999999999999999MW1681
0029028360999991923051020004+67367+026650FM-12+018199999V0209991C000019999999N0000001N9+00111+99999098781ADDGF108991999999999999999999
0035028360999991923051106004+67367+026650FM-12+018199999V0201401N005119999999N0000001N9-00061+99999098981ADDGF108991999999999999999999MW1721
0029028360999991923051113004+67367+026650FM-12+018199999V0201401N006219999999N0000001N9+00561+99999099111ADDGF108991999999999999999999
0029028360999991923051120004+67367+026650FM-12+018199999V0201101N001019999999N0000001N9+00061+99999099361ADDGF108991999999999999999999
0029028360999991923051206004+67367+026650FM-12+018199999V0203601N003119999999N0000001N9-00171+99999099471ADDGF104991999999999999999999
0029028360999991923051213004+67367+026650FM-12+018199999V0200501N003119999999N0000001N9+00331+99999099271ADDGF100991999999999999999999
0029028360999991923051220004+67367+026650FM-12+018199999V0200501N001019999999N0000001N9-00111+99999099301ADDGF100991999999999999999999
0029028360999991923051306004+67367+026650FM-12+018199999V0201401N003119999999N0000001N9+00061+99999099541ADDGF100991999999999999999999
0029028360999991923051313004+67367+026650FM-12+018199999V0201601N003119999999N0000001N9+00671+99999099471ADDGF108991999999999999999999
0029028360999991923051320004+67367+026650FM-12+018199999V0201401N003119999999N0000001N9+00501+99999099101ADDGF108991999999999999999999
0029028360999991923051406004+67367+026650FM-12+018199999V0201401N004119999999N0000001N9+00001+99999098581ADDGF108991999999999999999999
0029028360999991923051413004+67367+026650FM-12+018199999V0201801N005119999999N0000001N9+00721+99999098561ADDGF108991999999999999999999
0029028360999991923051420004+67367+026650FM-12+018199999V0201801N003119999999N0000001N9+00441+99999098501ADDGF108991999999999999999999
0029028360999991923051506004+67367+026650FM-12+018199999V0201801N005119999999N0000001N9+00171+99999097701ADDGF108991999999999999999999
0029028360999991923051513004+67367+026650FM-12+018199999V0201801N007219999999N0000001N9+00331+99999097751ADDGF108991999999999999999999
0029028360999991923051520004+67367+026650FM-12+018199999V0202001N003119999999N0000001N9+00221+99999098141ADDGF108991999999999999999999
0029028360999991923051606004+67367+026650FM-12+018199999V0202001N005119999999N0000001N9+00501+99999098661ADDGF100991999999999999999999
0029028360999991923051613004+67367+026650FM-12+018199999V0202501N003119999999N0000001N9+00891+99999098791ADDGF100991999999999999999999
0029028360999991923051620004+67367+026650FM-12+018199999V0209991C000019999999N0000001N9+00391+99999098871ADDGF100991999999999999999999
0029028360999991923051706004+67367+026650FM-12+018199999V0202001N003119999999N0000001N9+00611+99999099221ADDGF101991999999999999999999
0029028360999991923051713004+67367+026650FM-12+018199999V0202301N005119999999N0000001N9+01061+99999099421ADDGF108991999999999999999999
0029028360999991923051720004+67367+026650FM-12+018199999V0209991C000019999999N0000001N9+00561+99999099201ADDGF108991999999999999999999
0035028360999991923051806004+67367+026650FM-12+018199999V0201801N004119999999N0000001N9+00331+99999098391ADDGF108991999999999999999999MW1621
0029028360999991923051813004+67367+026650FM-12+018199999V0202301N010819999999N0000001N9+00501+99999098441ADDGF108991999999999999999999
0029028360999991923051820004+67367+026650FM-12+018199999V0201801N007219999999N0000001N9+00441+99999098361ADDGF107991999999999999999999
0029028360999991923051906004+67367+026650FM-12+018199999V0202501N005119999999N0000001N9+00611+99999098751ADDGF100991999999999999999999
0029028360999991923051913004+67367+026650FM-12+018199999V0202701N003119999999N0000001N9+01171+99999099141ADDGF100991999999999999999999
0029028360999991923051920004+67367+026650FM-12+018199999V0200201N001019999999N0000001N9+00611+99999099161ADDGF108991999999999999999999
0029028360999991923052006004+67367+026650FM-12+018199999V0201801N005119999999N0000001N9+00611+99999098831ADDGF108991999999999999999999
0029028360999991923052013004+67367+026650FM-12+018199999V0201801N008719999999N0000001N9+00891+99999098841ADDGF108991999999999999999999
0029028360999991923052020004+67367+026650FM-12+018199999V0201801N004119999999N0000001N9+00611+99999098661ADDGF108991999999999999999999
0029028360999991923052106004+67367+026650FM-12+018199999V0202001N006219999999N0000001N9+00441+99999098751ADDGF108991999999999999999999
0029028360999991923052113004+67367+026650FM-12+018199999V0202301N007219999999N0000001N9+01001+99999098881ADDGF108991999999999999999999
0029028360999991923052120004+67367+026650FM-12+018199999V0201801N001019999999N0000001N9+00561+99999099081ADDGF108991999999999999999999
0029028360999991923052213004+67367+026650FM-12+018199999V0202001N005119999999N0000001N9+01391+99999099061ADDGF107991999999999999999999
0029028360999991923052220004+67367+026650FM-12+018199999V0201601N001019999999N0000001N9+01111+99999098841ADDGF106991999999999999999999
0046028360999991923052306004+67367+026650FM-12+018199999V0201601N002119999999N0000001N9+00941+99999098481ADDAJ100009199999999GF108991999999999999999999
0029028360999991923052313004+67367+026650FM-12+018199999V0201801N007219999999N0000001N9+01611+99999098141ADDGF108991999999999999999999
0035028360999991923052320004+67367+026650FM-12+018199999V0202301N001019999999N0000001N9+00781+99999098161ADDGF108991999999999999999999MW1621
0052028360999991923052406004+67367+026650FM-12+018199999V0202301N001019999999N0000001N9+00501+99999098201ADDAJ100009199999999GF108991999999999999999999MW1621
0035028360999991923052413004+67367+026650FM-12+018199999V0209991C000019999999N0000001N9+00671+99999098341ADDGF108991999999999999999999MW1621
0029028360999991923052420004+67367+026650FM-12+018199999V0201401N001019999999N0000001N9+00671+99999098281ADDGF108991999999999999999999
0046028360999991923052506004+67367+026650FM-12+018199999V0203601N003119999999N0000001N9+00781+99999098521ADDAJ100009199999999GF108991999999999999999999
0029028360999991923052513004+67367+026650FM-12+018199999V0200201N007219999999N0000001N9+01061+99999098761ADDGF107991999999999999999999
0029028360999991923052520004+67367+026650FM-12+018199999V0200501N005119999999N0000001N9+00561+99999099221ADDGF108991999999999999999999
0046028360999991923052606004+67367+026650FM-12+018199999V0200701N001019999999N0000001N9+00331+99999099831ADDAJ100009199999999GF108991999999999999999999
0029028360999991923052613004+67367+026650FM-12+018199999V0201801N002119999999N0000001N9+00781+99999099941ADDGF108991999999999999999999
0035028360999991923052620004+67367+026650FM-12+018199999V0202701N001019999999N0000001N9+00611+99999099721ADDGF108991999999999999999999MW1621
0046028360999991923052706004+67367+026650FM-12+018199999V0202001N005119999999N0000001N9+00781+99999099031ADDAJ100009199999999GF108991999999999999999999
0035028360999991923052713004+67367+026650FM-12+018199999V0202001N007219999999N0000001N9+01281+99999098471ADDGF108991999999999999999999MW1621
0035028360999991923052720004+67367+026650FM-12+018199999V0202701N009819999999N0000001N9+00441+99999098231ADDGF108991999999999999999999MW1621
0052028360999991923052806004+67367+026650FM-12+018199999V0202901N004119999999N0000001N9+00281+99999097861ADDAJ100009199999999GF108991999999999999999999MW1601
0035028360999991923052813004+67367+026650FM-12+018199999V0203401N005119999999N0000001N9+00611+99999098031ADDGF108991999999999999999999MW1601
0029028360999991923052820004+67367+026650FM-12+018199999V0203401N007219999999N0000001N9+00281+99999098241ADDGF108991999999999999999999
0052028360999991923052906004+67367+026650FM-12+018199999V0203601N005119999999N0000001N9+00061+99999098601ADDAJ100009199999999GF108991999999999999999999MW1721
0029028360999991923052913004+67367+026650FM-12+018199999V0200501N005119999999N0000001N9+00331+99999098761ADDGF108991999999999999999999
0029028360999991923052920004+67367+026650FM-12+018199999V0203401N002119999999N0000001N9+00111+99999098841ADDGF108991999999999999999999
0052028360999991923053006004+67367+026650FM-12+018199999V0203201N001019999999N0000001N9+00061+99999099061ADDAJ100009199999999GF108991999999999999999999MW1701
0029028360999991923053013004+67367+026650FM-12+018199999V0200701N001019999999N0000001N9+00331+99999099311ADDGF108991999999999999999999
0029028360999991923053020004+67367+026650FM-12+018199999V0200701N001019999999N0000001N9+00171+99999099481ADDGF108991999999999999999999
0046028360999991923053106004+67367+026650FM-12+018199999V0202701N001019999999N0000001N9+00331+99999099431ADDAJ100009199999999GF108991999999999999999999
0029028360999991923053113004+67367+026650FM-12+018199999V0202001N005119999999N0000001N9+00671+99999099041ADDGF108991999999999999999999
0035028360999991923053120004+67367+026650FM-12+018199999V0200501N001019999999N0000001N9+00061+99999098821ADDGF108991999999999999999999MW1721
0046028360999991923060106004+67367+026650FM-12+018199999V0203601N003119999999N0000001N9+00111+99999098871ADDAJ100009199999999GF108991999999999999999999
0029028360999991923060113004+67367+026650FM-12+018199999V0202901N003119999999N0000001N9+00611+99999098781ADDGF108991999999999999999999
0029028360999991923060120004+67367+026650FM-12+018199999V0203601N001019999999N0000001N9+00391+99999098761ADDGF108991999999999999999999
0046028360999991923060206004+67367+026650FM-12+018199999V0203201N005119999999N0000001N9+00331+99999098711ADDAJ100009199999999GF108991999999999999999999
0029028360999991923060213004+67367+026650FM-12+018199999V0203201N005119999999N0000001N9+00561+99999098391ADDGF108991999999999999999999
0029028360999991923060220004+67367+026650FM-12+018199999V0202501N001019999999N0000001N9+00331+99999098031ADDGF107991999999999999999999
0046028360999991923060306004+67367+026650FM-12+018199999V0202501N001019999999N0000001N9+00441+99999097641ADDAJ100009199999999GF108991999999999999999999
0029028360999991923060313004+67367+026650FM-12+018199999V0200501N003119999999N0000001N9+00441+99999097581ADDGF108991999999999999999999
0029028360999991923060320004+67367+026650FM-12+018199999V0203601N001019999999N0000001N9+00111+99999097581ADDGF108991999999999999999999
0046028360999991923060406004+67367+026650FM-12+018199999V0203601N001019999999N0000001N9-00061+99999097541ADDAJ100009199999999GF106991999999999999999999
0029028360999991923060413004+67367+026650FM-12+018199999V0203201N003119999999N0000001N9+00611+99999097481ADDGF108991999999999999999999
0029028360999991923060420004+67367+026650FM-12+018199999V0203201N001019999999N0000001N9+00281+99999097471ADDGF105991999999999999999999
0046028360999991923060506004+67367+026650FM-12+018199999V0202301N001019999999N0000001N9+00281+99999097471ADDAJ100009199999999GF108991999999999999999999
0029028360999991923060513004+67367+026650FM-12+018199999V0203201N002119999999N0000001N9+00561+99999097461ADDGF108991999999999999999999
0029028360999991923060520004+67367+026650FM-12+018199999V0201801N001019999999N0000001N9+00281+99999097521ADDGF107991999999999999999999
0046028360999991923060606004+67367+026650FM-12+018199999V0200501N003119999999N0000001N9+00441+99999097721ADDAJ100009199999999GF108991999999999999999999
0029028360999991923060613004+67367+026650FM-12+018199999V0202701N005119999999N0000001N9+00441+99999097781ADDGF108991999999999999999999
0035028360999991923060620004+67367+026650FM-12+018199999V0202301N001019999999N0000001N9+00171+99999097701ADDGF108991999999999999999999MW1691
0046028360999991923060706004+67367+026650FM-12+018199999V0202701N001019999999N0000001N9+00171+99999097591ADDAJ100009199999999GF108991999999999999999999
0035028360999991923060713004+67367+026650FM-12+018199999V0202301N003119999999N0000001N9+00281+99999097561ADDGF108991999999999999999999MW1691
0035028360999991923060720004+67367+026650FM-12+018199999V0201401N001019999999N0000001N9+00221+99999097561ADDGF108991999999999999999999MW1621
0046028360999991923060806004+67367+026650FM-12+018199999V0202901N004119999999N0000001N9+00391+99999097661ADDAJ100009199999999GF106991999999999999999999
0029028360999991923060813004+67367+026650FM-12+018199999V0202701N006219999999N0000001N9+00781+99999097671ADDGF108991999999999999999999
0029028360999991923060820004+67367+026650FM-12+018199999V0203201N001019999999N0000001N9+00221+99999097661ADDGF108991999999999999999999
0046028360999991923060906004+67367+026650FM-12+018199999V0202001N003119999999N0000001N9+00501+99999097001ADDAJ100009199999999GF108991999999999999999999
0029028360999991923060913004+67367+026650FM-12+018199999V0201401N005119999999N0000001N9+01001+99999096421ADDGF108991999999999999999999
0029028360999991923060920004+67367+026650FM-12+018199999V0209991C000019999999N0000001N9+00781+99999096421ADDGF108991999999999999999999
0052028360999991923061006004+67367+026650FM-12+018199999V0203601N003119999999N0000001N9+00331+99999097101ADDAJ100009199999999GF108991999999999999999999MW1621
0029028360999991923061013004+67367+026650FM-12+018199999V0203201N003119999999N0000001N9+00611+99999097601ADDGF108991999999999999999999
0035028360999991923061020004+67367+026650FM-12+018199999V0203401N003119999999N0000001N9+00391+99999097941ADDGF108991999999999999999999MW1621
0046028360999991923061106004+67367+026650FM-12+018199999V0203601N003119999999N0000001N9+00331+99999097911ADDAJ100009199999999GF108991999999999999999999
0029028360999991923061113004+67367+026650FM-12+018199999V0203601N003119999999N0000001N9+00611+99999097921ADDGF107991999999999999999999
0029028360999991923061120004+67367+026650FM-12+018199999V0203601N001019999999N0000001N9+00501+99999098071ADDGF108991999999999999999999
0046028360999991923061206004+67367+026650FM-12+018199999V0200501N003119999999N0000001N9+00281+99999098441ADDAJ100009199999999GF108991999999999999999999
0029028360999991923061213004+67367+026650FM-12+018199999V0200901N001019999999N0000001N9+00831+99999098401ADDGF106991999999999999999999
0029028360999991923061220004+67367+026650FM-12+018199999V0201801N001019999999N0000001N9+00671+99999098361ADDGF106991999999999999999999
0046028360999991923061306004+67367+026650FM-12+018199999V0201801N003119999999N0000001N9+00561+99999098341ADDAJ100009199999999GF108991999999999999999999
0029028360999991923061313004+67367+026650FM-12+018199999V0202901N001019999999N0000001N9+01001+99999098261ADDGF108991999999999999999999
0029028360999991923061320004+67367+026650FM-12+018199999V0202001N007219999999N0000001N9+00781+99999098341ADDGF108991999999999999999999
0046028360999991923061406004+67367+026650FM-12+018199999V0202501N004119999999N0000001N9+00831+99999098541ADDAJ100009199999999GF108991999999999999999999
0029028360999991923061413004+67367+026650FM-12+018199999V0201401N005119999999N0000001N9+01111+99999098681ADDGF108991999999999999999999
0029028360999991923061420004+67367+026650FM-12+018199999V0201401N004119999999N0000001N9+00891+99999098921ADDGF108991999999999999999999
0046028360999991923061506004+67367+026650FM-12+018199999V0201401N001019999999N0000001N9+00831+99999099151ADDAJ100009199999999GF108991999999999999999999
0029028360999991923061513004+67367+026650FM-12+018199999V0200901N005119999999N0000001N9+01561+99999099001ADDGF108991999999999999999999
0029028360999991923061520004+67367+026650FM-12+018199999V0201401N003119999999N0000001N9+00941+99999098841ADDGF108991999999999999999999
0046028360999991923061606004+67367+026650FM-12+018199999V0201601N003119999999N0000001N9+01171+99999098521ADDAJ100009199999999GF108991999999999999999999
0029028360999991923061613004+67367+026650FM-12+018199999V0201801N007219999999N0000001N9+01441+99999098341ADDGF108991999999999999999999
0029028360999991923061620004+67367+026650FM-12+018199999V0201801N001019999999N0000001N9+00941+99999098341ADDGF108991999999999999999999
0046028360999991923061706004+67367+026650FM-12+018199999V0202001N007219999999N0000001N9+00781+99999098511ADDAJ100009199999999GF108991999999999999999999
0035028360999991923061713004+67367+026650FM-12+018199999V0202301N007219999999N0000001N9+00831+99999098871ADDGF108991999999999999999999MW1621
0035028360999991923061720004+67367+026650FM-12+018199999V0202501N005119999999N0000001N9+00831+99999099161ADDGF108991999999999999999999MW1621
0046028360999991923061806004+67367+026650FM-12+018199999V0202701N004119999999N0000001N9+01001+99999099431ADDAJ100009199999999GF106991999999999999999999
0035028360999991923061813004+67367+026650FM-12+018199999V0202001N001019999999N0000001N9+01331+99999099401ADDGF108991999999999999999999MW1621
0029028360999991923061820004+67367+026650FM-12+018199999V0209991C000019999999N0000001N9+00891+99999099351ADDGF108991999999999999999999
0046028360999991923061906004+67367+026650FM-12+018199999V0202301N003119999999N0000001N9+01171+99999099321ADDAJ100009199999999GF108991999999999999999999
0029028360999991923061913004+67367+026650FM-12+018199999V0201401N003119999999N0000001N9+01721+99999099221ADDGF108991999999999999999999
0029028360999991923061920004+67367+026650FM-12+018199999V0201801N001019999999N0000001N9+01611+99999099111ADDGF106991999999999999999999
0046028360999991923062006004+67367+026650FM-12+018199999V0201401N005119999999N0000001N9+01441+99999099001ADDAJ100009199999999GF107991999999999999999999
0029028360999991923062013004+67367+026650FM-12+018199999V0201401N006219999999N0000001N9+01611+99999098871ADDGF107991999999999999999999
0029028360999991923062020004+67367+026650FM-12+018199999V0209991C000019999999N0000001N9+01331+99999098511ADDGF108991999999999999999999
0052028360999991923062106004+67367+026650FM-12+018199999V0209991C000019999999N0000001N9+01441+99999098101ADDAJ100009199999999GF108991999999999999999999MW1621
0029028360999991923062113004+67367+026650FM-12+018199999V0201401N001019999999N0000001N9+01441+99999097671ADDGF108991999999999999999999
0029028360999991923062120004+67367+026650FM-12+018199999V0202301N003119999999N0000001N9+01501+99999097261ADDGF106991999999999999999999
0029028360999991923062213004+67367+026650FM-12+018199999V0202001N005119999999N0000001N9+01561+99999097471ADDGF108991999999999999999999
0029028360999991923062220004+67367+026650FM-12+018199999V0201401N001019999999N0000001N9+01331+99999097231ADDGF108991999999999999999999
0052028360999991923062306004+67367+026650FM-12+018199999V0201101N003119999999N0000001N9+01281+99999096111ADDAJ100009199999999GF108991999999999999999999MW1621
0035028360999991923062313004+67367+026650FM-12+018199999V0201801N008719999999N0000001N9+01281+99999096151ADDGF108991999999999999999999MW1621
0035028360999991923062320004+67367+026650FM-12+018199999V0201801N002119999999N0000001N9+00781+99999095961ADDGF108991999999999999999999MW1621
0046028360999991923062406004+67367+026650FM-12+018199999V0202301N005119999999N0000001N9+00671+99999095981ADDAJ100009199999999GF108991999999999999999999
0029028360999991923062413004+67367+026650FM-12+018199999V0201601N003119999999N0000001N9+01061+99999096201ADDGF108991999999999999999999
0029028360999991923062420004+67367+026650FM-12+018199999V0201401N003119999999N0000001N9+00831+99999096321ADDGF107991999999999999999999
0052028360999991923062506004+67367+026650FM-12+018199999V0209991C000019999999N0000001N9+00831+99999096341ADDAJ100009199999999GF108991999999999999999999MW1621
0029028360999991923062513004+67367+026650FM-12+018199999V0202501N003119999999N0000001N9+01111+99999096521ADDGF108991999999999999999999
0029028360999991923062520004+67367+026650FM-12+018199999V0202301N005119999999N0000001N9+01001+99999096821ADDGF108991999999999999999999
0046028360999991923062606004+67367+026650FM-12+018199999V0202001N007219999999N0000001N9+00941+99999097341ADDAJ100009199999999GF107991999999999999999999
0029028360999991923062613004+67367+026650FM-12+018199999V0202301N008719999999N0000001N9+01331+99999097801ADDGF108991999999999999999999
0029028360999991923062620004+67367+026650FM-12+018199999V0202301N007219999999N0000001N9+01061+99999098231ADDGF101991999999999999999999
0046028360999991923062706004+67367+026650FM-12+018199999V0202301N008719999999N0000001N9+01061+99999098641ADDAJ100009199999999GF106991999999999999999999
0029028360999991923062713004+67367+026650FM-12+018199999V0202001N007219999999N0000001N9+01561+99999098871ADDGF107991999999999999999999
0029028360999991923062720004+67367+026650FM-12+018199999V0202001N005119999999N0000001N9+01281+99999099241ADDGF100991999999999999999999
0046028360999991923062806004+67367+026650FM-12+018199999V0201801N005119999999N0000001N9+01281+99999099481ADDAJ100009199999999GF100991999999999999999999
0029028360999991923062813004+67367+026650FM-12+018199999V0202001N003119999999N0000001N9+01721+99999099461ADDGF107991999999999999999999
0029028360999991923062820004+67367+026650FM-12+018199999V0209991C000019999999N0000001N9+01501+99999099351ADDGF108991999999999999999999
0052028360999991923062906004+67367+026650FM-12+018199999V0201801N001019999999N0000001N9+01171+99999098871ADDAJ100009199999999GF108991999999999999999999MW1601
0029028360999991923062913004+67367+026650FM-12+018199999V0202001N005119999999N0000001N9+01561+99999098821ADDGF107991999999999999999999
0029028360999991923062920004+67367+026650FM-12+018199999V0202001N007219999999N0000001N9+01171+99999098911ADDGF100991999999999999999999
0046028360999991923063006004+67367+026650FM-12+018199999V0202001N007219999999N0000001N9+01061+99999098951ADDAJ100009199999999GF108991999999999999999999
0029028360999991923063013004+67367+026650FM-12+018199999V0202501N004119999999N0000001N9+01441+99999099001ADDGF108991999999999999999999
0029028360999991923063020004+67367+026650FM-12+018199999V0202501N001019999999N0000001N9+01111+99999099111ADDGF108991999999999999999999
0046028360999991923070106004+67367+026650FM-12+018199999V0201801N001019999999N0000001N9+01441+99999099161ADDAJ100009199999999GF101991999999999999999999
0029028360999991923070113004+67367+026650FM-12+018199999V0201801N004119999999N0000001N9+01781+99999098961ADDGF108991999999999999999999
0029028360999991923070120004+67367+026650FM-12+018199999V0202001N005119999999N0000001N9+01561+99999098831ADDGF106991999999999999999999
0046028360999991923070206004+67367+026650FM-12+018199999V0201801N001019999999N0000001N9+01331+99999098631ADDAJ100009199999999GF108991999999999999999999
0029028360999991923070213004+67367+026650FM-12+018199999V0202001N005119999999N0000001N9+01501+99999098541ADDGF108991999999999999999999
0029028360999991923070220004+67367+026650FM-12+018199999V0202701N003119999999N0000001N9+01111+99999098791ADDGF108991999999999999999999
0046028360999991923070306004+67367+026650FM-12+018199999V0202301N002119999999N0000001N9+01061+99999099071ADDAJ100009199999999GF108991999999999999999999
0035028360999991923070313004+67367+026650FM-12+018199999V0202301N007219999999N0000001N9+01111+99999099141ADDGF108991999999999999999999MW1621
0035028360999991923070320004+67367+026650FM-12+018199999V0202301N005119999999N0000001N9+01221+99999099191ADDGF108991999999999999999999MW1621
0046028360999991923070406004+67367+026650FM-12+018199999V0202001N001019999999N0000001N9+01171+99999099391ADDAJ100009199999999GF108991999999999999999999
0029028360999991923070413004+67367+026650FM-12+018199999V0202301N010819999999N0000001N9+01831+99999099351ADDGF108991999999999999999999
0029028360999991923070420004+67367+026650FM-12+018199999V0202001N007219999999N0000001N9+01671+99999099281ADDGF106991999999999999999999
0046028360999991923070506004+67367+026650FM-12+018199999V0202001N001019999999N0000001N9+01331+99999099471ADDAJ100009199999999GF108991999999999999999999
0029028360999991923070513004+67367+026650FM-12+018199999V0202501N007219999999N0000001N9+01781+99999099671ADDGF108991999999999999999999
0029028360999991923070520004+67367+026650FM-12+018199999V0201801N001019999999N0000001N9+01561+99999099671ADDGF106991999999999999999999
0046028360999991923070606004+67367+026650FM-12+018199999V0202501N003119999999N0000001N9+01671+99999099861ADDAJ100009199999999GF100991999999999999999999
0029028360999991923070613004+67367+026650FM-12+018199999V0202501N005119999999N0000001N9+02061+99999099831ADDGF108991999999999999999999
0029028360999991923070620004+67367+026650FM-12+018199999V0203201N001019999999N0000001N9+01561+99999099861ADDGF108991999999999999999999
0046028360999991923070706004+67367+026650FM-12+018199999V0202701N005119999999N0000001N9+01391+99999099821ADDAJ100009199999999GF108991999999999999999999
0029028360999991923070713004+67367+026650FM-12+018199999V0202901N003119999999N0000001N9+01831+99999099641ADDGF108991999999999999999999
0029028360999991923070720004+67367+026650FM-12+018199999V0203601N001019999999N0000001N9+01281+99999099711ADDGF108991999999999999999999
0046028360999991923070806004+67367+026650FM-12+018199999V0203201N005119999999N0000001N9+01001+99999100161ADDAJ100009199999999GF108991999999999999999999
0029028360999991923070813004+67367+026650FM-12+018199999V0203201N003119999999N0000001N9+01281+99999100341ADDGF108991999999999999999999
0029028360999991923070820004+67367+026650FM-12+018199999V0203601N001019999999N0000001N9+01281+99999100421ADDGF100991999999999999999999
0046028360999991923070906004+67367+026650FM-12+018199999V0203401N001019999999N0000001N9+01221+99999100601ADDAJ100009199999999GF108991999999999999999999
0029028360999991923070913004+67367+026650FM-12+018199999V0200501N001019999999N0000001N9+02001+99999100361ADDGF106991999999999999999999
0029028360999991923070920004+67367+026650FM-12+018199999V0202501N001019999999N0000001N9+01671+99999100181ADDGF108991999999999999999999
0046028360999991923071006004+67367+026650FM-12+018199999V0201801N005119999999N0000001N9+01671+99999100071ADDAJ100009199999999GF107991999999999999999999
0029028360999991923071013004+67367+026650FM-12+018199999V0202701N003119999999N0000001N9+02331+99999099961ADDGF108991999999999999999999
0029028360999991923071020004+67367+026650FM-12+018199999V0202701N001019999999N0000001N9+02171+99999100031ADDGF108991999999999999999999
0046028360999991923071106004+67367+026650FM-12+018199999V0202901N005119999999N0000001N9+01611+99999100181ADDAJ100009199999999GF104991999999999999999999
0029028360999991923071113004+67367+026650FM-12+018199999V0202901N004119999999N0000001N9+02281+99999100071ADDGF106991999999999999999999
0029028360999991923071120004+67367+026650FM-12+018199999V0202501N001019999999N0000001N9+01781+99999099911ADDGF108991999999999999999999
0046028360999991923071206004+67367+026650FM-12+018199999V0202301N005119999999N0000001N9+01831+99999099351ADDAJ100009199999999GF108991999999999999999999
0029028360999991923071213004+67367+026650FM-12+018199999V0203201N003119999999N0000001N9+01941+99999099061ADDGF108991999999999999999999
0029028360999991923071220004+67367+026650FM-12+018199999V0203201N004119999999N0000001N9+01671+99999099191ADDGF105991999999999999999999
0046028360999991923071306004+67367+026650FM-12+018199999V0203201N004119999999N0000001N9+01441+99999099201ADDAJ100009199999999GF107991999999999999999999
0035028360999991923071313004+67367+026650FM-12+018199999V0202701N003119999999N0000001N9+01671+99999098951ADDGF108991999999999999999999MW1621
0029028360999991923071320004+67367+026650FM-12+018199999V0202301N005119999999N0000001N9+01891+99999098471ADDGF108991999999999999999999
0046028360999991923071406004+67367+026650FM-12+018199999V0202701N010819999999N0000001N9+01391+99999097991ADDAJ100009199999999GF108991999999999999999999
0029028360999991923071413004+67367+026650FM-12+018199999V0202701N005119999999N0000001N9+01611+99999097901ADDGF108991999999999999999999
0029028360999991923071420004+67367+026650FM-12+018199999V0203601N003119999999N0000001N9+01111+99999098121ADDGF108991999999999999999999
0046028360999991923071506004+67367+026650FM-12+018199999V0203201N007219999999N0000001N9+01171+99999098711ADDAJ100009199999999GF108991999999999999999999
0035028360999991923071513004+67367+026650FM-12+018199999V0203601N007219999999N0000001N9+01281+99999099001ADDGF108991999999999999999999MW1621
0029028360999991923071520004+67367+026650FM-12+018199999V0203601N003119999999N0000001N9+01111+99999099281ADDGF108991999999999999999999
0046028360999991923071606004+67367+026650FM-12+018199999V0200501N001019999999N0000001N9+00891+99999099561ADDAJ100009199999999GF108991999999999999999999
0029028360999991923071613004+67367+026650FM-12+018199999V0200501N001019999999N0000001N9+01671+99999099351ADDGF106991999999999999999999
0029028360999991923071620004+67367+026650FM-12+018199999V0202301N001019999999N0000001N9+01171+99999099161ADDGF107991999999999999999999
0046028360999991923071706004+67367+026650FM-12+018199999V0201801N003119999999N0000001N9+01221+99999099111ADDAJ100009199999999GF108991999999999999999999
0029028360999991923071713004+67367+026650FM-12+018199999V0202001N005119999999N0000001N9+02281+99999098981ADDGF107991999999999999999999
0029028360999991923071720004+67367+026650FM-12+018199999V0202301N004119999999N0000001N9+01831+99999099001ADDGF100991999999999999999999
0046028360999991923071806004+67367+026650FM-12+018199999V0202301N002119999999N0000001N9+01721+99999099141ADDAJ100009199999999GF100991999999999999999999
0029028360999991923071813004+67367+026650FM-12+018199999V0201801N003119999999N0000001N9+02281+99999099081ADDGF108991999999999999999999
0029028360999991923071820004+67367+026650FM-12+018199999V0209991C000019999999N0000001N9+01781+99999098991ADDGF108991999999999999999999
0046028360999991923071906004+67367+026650FM-12+018199999V0201801N001019999999N0000001N9+01721+99999099001ADDAJ100009199999999GF101991999999999999999999
0029028360999991923071913004+67367+026650FM-12+018199999V0201401N004119999999N0000001N9+02221+99999098711ADDGF107991999999999999999999
0029028360999991923071920004+67367+026650FM-12+018199999V0201801N001019999999N0000001N9+01721+99999098461ADDGF102991999999999999999999
0046028360999991923072006004+67367+026650FM-12+018199999V0201801N001019999999N0000001N9+01331+99999098181ADDAJ100009199999999GF108991999999999999999999
0029028360999991923072013004+67367+026650FM-12+018199999V0202501N003119999999N0000001N9+02221+99999097881ADDGF107991999999999999999999
0029028360999991923072020004+67367+026650FM-12+018199999V0202301N001019999999N0000001N9+01391+99999097861ADDGF107991999999999999999999
0046028360999991923072106004+67367+026650FM-12+018199999V0202701N002119999999N0000001N9+01671+99999097991ADDAJ100009199999999GF108991999999999999999999
0035028360999991923072113004+67367+026650FM-12+018199999V0201801N008719999999N0000001N9+01611+99999097941ADDGF108991999999999999999999MW1621
0035028360999991923072120004+67367+026650FM-12+018199999V0201401N003119999999N0000001N9+01391+99999097801ADDGF108991999999999999999999MW1621
0052028360999991923072206004+67367+026650FM-12+018199999V0200501N003119999999N0000001N9+01171+99999097301ADDAJ100009199999999GF108991999999999999999999MW1621
0035028360999991923072213004+67367+026650FM-12+018199999V0200901N005119999999N0000001N9+01391+99999097031ADDGF108991999999999999999999MW1621
0029028360999991923072220004+67367+026650FM-12+018199999V0201101N001019999999N0000001N9+01281+99999097001ADDGF108991999999999999999999
0052028360999991923072306004+67367+026650FM-12+018199999V0202001N003119999999N0000001N9+01171+99999096961ADDAJ100009199999999GF108991999999999999999999MW1621
0029028360999991923072313004+67367+026650FM-12+018199999V0202001N007219999999N0000001N9+01281+99999097241ADDGF108991999999999999999999
0029028360999991923072320004+67367+026650FM-12+018199999V0202301N001019999999N0000001N9+01171+99999097391ADDGF101991999999999999999999
0052028360999991923072406004+67367+026650FM-12+018199999V0209991C000019999999N0000001N9+00721+99999097431ADDAJ100009199999999GF108991999999999999999999MW1621
0029028360999991923072413004+67367+026650FM-12+018199999V0202301N003119999999N0000001N9+01331+99999097521ADDGF108991999999999999999999
0029028360999991923072420004+67367+026650FM-12+018199999V0209991C000019999999N0000001N9+01111+99999097641ADDGF104991999999999999999999
0046028360999991923072506004+67367+026650FM-12+018199999V0200501N004119999999N0000001N9+01221+99999097581ADDAJ100009199999999GF108991999999999999999999
0035028360999991923072513004+67367+026650FM-12+018199999V0200901N007219999999N0000001N9+01671+99999097501ADDGF108991999999999999999999MW1621
0035028360999991923072520004+67367+026650FM-12+018199999V0200901N001019999999N0000001N9+01331+99999097591ADDGF108991999999999999999999MW1621
0052028360999991923072606004+67367+026650FM-12+018199999V0200901N005119999999N0000001N9+01221+99999097621ADDAJ100009199999999GF108991999999999999999999MW1621
0029028360999991923072613004+67367+026650FM-12+018199999V0201401N003119999999N0000001N9+01331+99999097671ADDGF108991999999999999999999
0029028360999991923072620004+67367+026650FM-12+018199999V0200901N001019999999N0000001N9+01331+99999097791ADDGF108991999999999999999999
0046028360999991923072706004+67367+026650FM-12+018199999V0200501N001019999999N0000001N9+01221+99999097751ADDAJ100009199999999GF108991999999999999999999
0035028360999991923072713004+67367+026650FM-12+018199999V0200701N005119999999N0000001N9+01281+99999097741ADDGF108991999999999999999999MW1621
0029028360999991923072720004+67367+026650FM-12+018199999V0200901N001019999999N0000001N9+01281+99999097801ADDGF108991999999999999999999
0046028360999991923072806004+67367+026650FM-12+018199999V0203201N001019999999N0000001N9+01061+99999097911ADDAJ100009199999999GF108991999999999999999999
0029028360999991923072813004+67367+026650FM-12+018199999V0203601N009819999999N0000001N9+01721+99999097831ADDGF108991999999999999999999
0029028360999991923072820004+67367+026650FM-12+018199999V0203601N005119999999N0000001N9+01221+99999097831ADDGF108991999999999999999999
0046028360999991923072906004+67367+026650FM-12+018199999V0203601N008719999999N0000001N9+01001+99999097831ADDAJ100009199999999GF108991999999999999999999
0029028360999991923072913004+67367+026650FM-12+018199999V0203601N005119999999N0000001N9+01221+99999097831ADDGF108991999999999999999999
0029028360999991923072920004+67367+026650FM-12+018199999V0203601N005119999999N0000001N9+01061+99999097741ADDGF108991999999999999999999
0046028360999991923073006004+67367+026650FM-12+018199999V0203601N005119999999N0000001N9+00781+99999097781ADDAJ100009199999999GF108991999999999999999999
0029028360999991923073013004+67367+026650FM-12+018199999V0203401N003119999999N0000001N9+01111+99999097881ADDGF108991999999999999999999
0029028360999991923073020004+67367+026650FM-12+018199999V0203601N005119999999N0000001N9+00941+99999097911ADDGF108991999999999999999999
0046028360999991923073106004+67367+026650FM-12+018199999V0203601N005119999999N0000001N9+00831+99999097911ADDAJ100009199999999GF108991999999999999999999
0029028360999991923073113004+67367+026650FM-12+018199999V0200501N005119999999N0000001N9+01111+99999098001ADDGF108991999999999999999999
0029028360999991923073120004+67367+026650FM-12+018199999V0200501N005119999999N0000001N9+01001+99999098101ADDGF108991999999999999999999
0046028360999991923080106004+67367+026650FM-12+018199999V0200201N003119999999N0000001N9+00781+99999098261ADDAJ100009199999999GF108991999999999999999999
0029028360999991923080113004+67367+026650FM-12+018199999V0203601N005119999999N0000001N9+01391+99999098391ADDGF108991999999999999999999
0029028360999991923080120004+67367+026650FM-12+018199999V0200201N001019999999N0000001N9+01171+99999098471ADDGF106991999999999999999999
0046028360999991923080206004+67367+026650FM-12+018199999V0203601N005119999999N0000001N9+00891+99999098641ADDAJ100009199999999GF100991999999999999999999
0029028360999991923080213004+67367+026650FM-12+018199999V0200501N003119999999N0000001N9+01561+99999098681ADDGF101991999999999999999999
0029028360999991923080220004+67367+026650FM-12+018199999V0200901N001019999999N0000001N9+00891+99999098741ADDGF100991999999999999999999
0046028360999991923080306004+67367+026650FM-12+018199999V0203601N003119999999N0000001N9+00891+99999098871ADDAJ100009199999999GF108991999999999999999999
0029028360999991923080313004+67367+026650FM-12+018199999V0200201N003119999999N0000001N9+01611+99999098841ADDGF102991999999999999999999
0029028360999991923080320004+67367+026650FM-12+018199999V0203601N003119999999N0000001N9+01001+99999099021ADDGF108991999999999999999999
0046028360999991923080406004+67367+026650FM-12+018199999V0200701N003119999999N0000001N9+00891+99999099191ADDAJ100009199999999GF108991999999999999999999
0029028360999991923080413004+67367+026650FM-12+018199999V0203601N005119999999N0000001N9+01331+99999099221ADDGF108991999999999999999999
0029028360999991923080420004+67367+026650FM-12+018199999V0200201N001019999999N0000001N9+00891+99999099301ADDGF101991999999999999999999
0046028360999991923080506004+67367+026650FM-12+018199999V0200201N001019999999N0000001N9+00891+99999099431ADDAJ100009199999999GF103991999999999999999999
0029028360999991923080513004+67367+026650FM-12+018199999V0200501N001019999999N0000001N9+01721+99999099301ADDGF108991999999999999999999
0029028360999991923080520004+67367+026650FM-12+018199999V0200501N003119999999N0000001N9+01061+99999099321ADDGF107991999999999999999999
0046028360999991923080606004+67367+026650FM-12+018199999V0200201N003119999999N0000001N9+00781+99999099471ADDAJ100009199999999GF108991999999999999999999
0029028360999991923080613004+67367+026650FM-12+018199999V0200501N005119999999N0000001N9+01061+99999099461ADDGF108991999999999999999999
0029028360999991923080620004+67367+026650FM-12+018199999V0200201N001019999999N0000001N9+00891+99999099281ADDGF108991999999999999999999
0046028360999991923080706004+67367+026650FM-12+018199999V0203401N003119999999N0000001N9+00831+99999099271ADDAJ100009199999999GF107991999999999999999999
0029028360999991923080713004+67367+026650FM-12+018199999V0202901N003119999999N0000001N9+01331+99999099111ADDGF108991999999999999999999
0029028360999991923080720004+67367+026650FM-12+018199999V0203401N001019999999N0000001N9+00941+99999099021ADDGF108991999999999999999999
0046028360999991923080806004+67367+026650FM-12+018199999V0200501N005119999999N0000001N9+00671+99999099021ADDAJ100009199999999GF108991999999999999999999
0029028360999991923080813004+67367+026650FM-12+018199999V0203601N005119999999N0000001N9+01061+99999099001ADDGF108991999999999999999999
0029028360999991923080820004+67367+026650FM-12+018199999V0203601N005119999999N0000001N9+00831+99999099031ADDGF108991999999999999999999
0046028360999991923080906004+67367+026650FM-12+018199999V0203601N005119999999N0000001N9+00671+99999099201ADDAJ100009199999999GF108991999999999999999999
0029028360999991923080913004+67367+026650FM-12+018199999V0203601N005119999999N0000001N9+01061+99999099221ADDGF108991999999999999999999
0029028360999991923080920004+67367+026650FM-12+018199999V0203601N001019999999N0000001N9+00721+99999099141ADDGF108991999999999999999999
0046028360999991923081006004+67367+026650FM-12+018199999V0200501N001019999999N0000001N9+00671+99999098951ADDAJ100009199999999GF108991999999999999999999
0029028360999991923081013004+67367+026650FM-12+018199999V0200701N001019999999N0000001N9+01171+99999098641ADDGF101991999999999999999999
0029028360999991923081020004+67367+026650FM-12+018199999V0200901N001019999999N0000001N9+00561+99999098471ADDGF101991999999999999999999
0046028360999991923081106004+67367+026650FM-12+018199999V0200901N001019999999N0000001N9+00391+99999098561ADDAJ100009199999999GF108991999999999999999999
0029028360999991923081113004+67367+026650FM-12+018199999V0200901N003119999999N0000001N9+01061+99999098641ADDGF107991999999999999999999
0029028360999991923081120004+67367+026650FM-12+018199999V0200501N001019999999N0000001N9+00721+99999098791ADDGF108991999999999999999999
0046028360999991923081206004+67367+026650FM-12+018199999V0203201N001019999999N0000001N9+00281+99999099161ADDAJ100009199999999GF104991999999999999999999
0029028360999991923081213004+67367+026650FM-12+018199999V0203601N003119999999N0000001N9+01441+99999099141ADDGF106991999999999999999999
0029028360999991923081220004+67367+026650FM-12+018199999V0200201N001019999999N0000001N9+00611+99999099161ADDGF102991999999999999999999
0046028360999991923081306004+67367+026650FM-12+018199999V0203201N005119999999N0000001N9+00671+99999099391ADDAJ100009199999999GF108991999999999999999999
0029028360999991923081313004+67367+026650FM-12+018199999V0203601N003119999999N0000001N9+00941+99999099351ADDGF108991999999999999999999
0029028360999991923081320004+67367+026650FM-12+018199999V0203601N003119999999N0000001N9+00671+99999099191ADDGF108991999999999999999999
0052028360999991923081406004+67367+026650FM-12+018199999V0203201N005119999999N0000001N9+00611+99999098901ADDAJ100009199999999GF108991999999999999999999MW1621
0029028360999991923081413004+67367+026650FM-12+018199999V0203201N003119999999N0000001N9+00941+99999098751ADDGF108991999999999999999999
0029028360999991923081420004+67367+026650FM-12+018199999V0203201N002119999999N0000001N9+00831+99999098631ADDGF108991999999999999999999
0046028360999991923081506004+67367+026650FM-12+018199999V0203601N003119999999N0000001N9+00721+99999098521ADDAJ100009199999999GF108991999999999999999999
0035028360999991923081513004+67367+026650FM-12+018199999V0203601N003119999999N0000001N9+01111+99999098441ADDGF108991999999999999999999MW1621
0029028360999991923081520004+67367+026650FM-12+018199999V0200501N001019999999N0000001N9+00831+99999098391ADDGF108991999999999999999999
0046028360999991923081606004+67367+026650FM-12+018199999V0200501N005119999999N0000001N9+00781+99999098321ADDAJ100009199999999GF108991999999999999999999
0035028360999991923081613004+67367+026650FM-12+018199999V0200501N004119999999N0000001N9+00831+99999098201ADDGF108991999999999999999999MW1601
0029028360999991923081620004+67367+026650FM-12+018199999V0200501N005119999999N0000001N9+00781+99999098101ADDGF108991999999999999999999
0046028360999991923081706004+67367+026650FM-12+018199999V0203601N005119999999N0000001N9+00671+99999097791ADDAJ100009199999999GF108991999999999999999999
0035028360999991923081713004+67367+026650FM-12+018199999V0203601N005119999999N0000001N9+00831+99999097761ADDGF108991999999999999999999MW1601
0035028360999991923081720004+67367+026650FM-12+018199999V0203601N003119999999N0000001N9+00561+99999097631ADDGF108991999999999999999999MW1601
0046028360999991923081806004+67367+026650FM-12+018199999V0203401N005119999999N0000001N9+00561+99999097431ADDAJ100009199999999GF108991999999999999999999
0035028360999991923081813004+67367+026650FM-12+018199999V0203601N007219999999N0000001N9+00781+99999097511ADDGF108991999999999999999999MW1601
0029028360999991923081820004+67367+026650FM-12+018199999V0203601N005119999999N0000001N9+00671+99999097871ADDGF108991999999999999999999
0046028360999991923081906004+67367+026650FM-12+018199999V0203601N007219999999N0000001N9+00611+99999098231ADDAJ100009199999999GF108991999999999999999999
0035028360999991923081913004+67367+026650FM-12+018199999V0203201N007219999999N0000001N9+00941+99999098471ADDGF108991999999999999999999MW1601
0029028360999991923081920004+67367+026650FM-12+018199999V0203401N001019999999N0000001N9+00391+99999098541ADDGF108991999999999999999999
0046028360999991923082006004+67367+026650FM-12+018199999V0203401N001019999999N0000001N9+00721+99999098741ADDAJ100009199999999GF107991999999999999999999
0029028360999991923082013004+67367+026650FM-12+018199999V0202701N003119999999N0000001N9+01171+99999098671ADDGF108991999999999999999999
0029028360999991923082020004+67367+026650FM-12+018199999V0209991C000019999999N0000001N9+00671+99999098681ADDGF108991999999999999999999
0046028360999991923082106004+67367+026650FM-12+018199999V0202701N001019999999N0000001N9+00441+99999098791ADDAJ100009199999999GF108991999999999999999999
0029028360999991923082113004+67367+026650FM-12+018199999V0203401N003119999999N0000001N9+01061+99999098821ADDGF108991999999999999999999
0029028360999991923082120004+67367+026650FM-12+018199999V0203601N001019999999N0000001N9+00221+99999098861ADDGF108991999999999999999999
0046028360999991923082206004+67367+026650FM-12+018199999V0203601N003119999999N0000001N9+00441+99999098821ADDAJ100009199999999GF108991999999999999999999
0029028360999991923082213004+67367+026650FM-12+018199999V0202001N007219999999N0000001N9+01281+99999098681ADDGF108991999999999999999999
0029028360999991923082220004+67367+026650FM-12+018199999V0202301N001019999999N0000001N9+00941+99999098521ADDGF108991999999999999999999
0046028360999991923082306004+67367+026650FM-12+018199999V0201801N005119999999N0000001N9+01111+99999097861ADDAJ100009199999999GF108991999999999999999999
0029028360999991923082313004+67367+026650FM-12+018199999V0201801N007219999999N0000001N9+01171+99999097671ADDGF108991999999999999999999
0029028360999991923082320004+67367+026650FM-12+018199999V0202001N012919999999N0000001N9+01111+99999097751ADDGF108991999999999999999999
0046028360999991923082406004+67367+026650FM-12+018199999V0202301N005119999999N0000001N9+01001+99999098001ADDAJ100009199999999GF108991999999999999999999
0029028360999991923082413004+67367+026650FM-12+018199999V0202301N005119999999N0000001N9+01331+99999098001ADDGF107991999999999999999999
0029028360999991923082420004+67367+026650FM-12+018199999V0201801N005119999999N0000001N9+01001+99999098101ADDGF108991999999999999999999
0046028360999991923082506004+67367+026650FM-12+018199999V0202701N005119999999N0000001N9+01061+99999098391ADDAJ100009199999999GF108991999999999999999999
0029028360999991923082513004+67367+026650FM-12+018199999V0202001N005119999999N0000001N9+01561+99999098661ADDGF108991999999999999999999
0029028360999991923082520004+67367+026650FM-12+018199999V0202301N001019999999N0000001N9+00611+99999098711ADDGF108991999999999999999999
0052028360999991923082606004+67367+026650FM-12+018199999V0201801N007219999999N0000001N9+01061+99999097911ADDAJ100009199999999GF108991999999999999999999MW1621
0035028360999991923082613004+67367+026650FM-12+018199999V0201801N007219999999N0000001N9+01171+99999097511ADDGF108991999999999999999999MW1621
0029028360999991923082620004+67367+026650FM-12+018199999V0201801N008719999999N0000001N9+01111+99999097541ADDGF108991999999999999999999
0052028360999991923082706004+67367+026650FM-12+018199999V0202301N001019999999N0000001N9+00561+99999098231ADDAJ100009199999999GF108991999999999999999999MW1621
0035028360999991923082713004+67367+026650FM-12+018199999V0202301N001019999999N0000001N9+01171+99999098471ADDGF108991999999999999999999MW1621
0029028360999991923082720004+67367+026650FM-12+018199999V0202701N001019999999N0000001N9+01111+99999098621ADDGF108991999999999999999999
0052028360999991923082806004+67367+026650FM-12+018199999V0201801N001019999999N0000001N9+01111+99999098471ADDAJ100009199999999GF108991999999999999999999MW1621
0035028360999991923082813004+67367+026650FM-12+018199999V0201801N005119999999N0000001N9+01221+99999098391ADDGF108991999999999999999999MW1621
0035028360999991923082820004+67367+026650FM-12+018199999V0201801N003119999999N0000001N9+01281+99999098121ADDGF108991999999999999999999MW1621
0052028360999991923082906004+67367+026650FM-12+018199999V0202301N001019999999N0000001N9+01281+99999097941ADDAJ100009199999999GF108991999999999999999999MW1621
0029028360999991923082913004+67367+026650FM-12+018199999V0201801N005119999999N0000001N9+01331+99999098241ADDGF108991999999999999999999
0029028360999991923082920004+67367+026650FM-12+018199999V0201801N002119999999N0000001N9+01001+99999098471ADDGF108991999999999999999999
