0035028360999991925010106004+67367+026650FM-12+018199999V0201601N003119999999N0000001N9+00001+99999096231ADDGF108991999999999999999999MW1721
0029028360999991925010113004+67367+026650FM-12+018199999V0202301N007219999999N0000001N9-00171+99999097031ADDGF108991999999999999999999
0029028360999991925010120004+67367+026650FM-12+018199999V0202301N003119999999N0000001N9+00001+99999097141ADDGF108991999999999999999999
0029028360999991925010206004+67367+026650FM-12+018199999V0202301N005119999999N0000001N9-00061+99999096791ADDGF108991999999999999999999
0035028360999991925010213004+67367+026650FM-12+018199999V0201801N005119999999N0000001N9-00111+99999096461ADDGF108991999999999999999999MW1701
0029028360999991925010220004+67367+026650FM-12+018199999V0201801N008719999999N0000001N9-00221+99999095911ADDGF108991999999999999999999
0029028360999991925010306004+67367+026650FM-12+018199999V0201801N005119999999N0000001N9-00171+99999095101ADDGF108991999999999999999999
0029028360999991925010313004+67367+026650FM-12+018199999V0201401N005119999999N0000001N9-00171+99999104952ADDGF108991999999999999999999
0035028360999991925010320004+67367+026650FM-12+018199999V0201401N003119999999N0000001N9-00281+99999104951ADDGF108991999999999999999999MW1701
0035028360999991925010406004+67367+026650FM-12+018199999V0201401N001019999999N0000001N9-00501+99999095302ADDGF108991999999999999999999MW1701
0035028360999991925010413004+67367+026650FM-12+018199999V0200901N001019999999N0000001N9-00611+99999095601ADDGF108991999999999999999999MW1701
0029028360999991925010420004+67367+026650FM-12+018199999V0200901N001019999999N0000001N9-00611+99999095631ADDGF108991999999999999999999
0035028360999991925010506004+67367+026650FM-12+018199999V0200901N001019999999N0000001N9-00561+99999095511ADDGF108991999999999999999999MW1701
0029028360999991925010513004+67367+026650FM-12+018199999V0201801N001019999999N0000001N9-00561+99999095591ADDGF108991999999999999999999
0035028360999991925010520004+67367+026650FM-12+018199999V0201801N001019999999N0000001N9-00671+99999095921ADDGF108991999999999999999999MW1701
0029028360999991925010606004+67367+026650FM-12+018199999V0201801N001019999999N0000001N9-00781+99999096301ADDGF108991999999999999999999
0029028360999991925010613004+67367+026650FM-12+018199999V0201801N001019999999N0000001N9-01111+99999096441ADDGF108991999999999999999999
0029028360999991925010620004+67367+026650FM-12+018199999V0203601N003119999999N0000001N9-01891+99999096681ADDGF108991999999999999999999
0029028360999991925010706004+67367+026650FM-12+018199999V0203601N001019999999N0000001N9-00781+99999097031ADDGF108991999999999999999999
0029028360999991925010713004+67367+026650FM-12+018199999V0202901N001019999999N0000001N9-00671+99999097141ADDGF108991999999999999999999
0029028360999991925010720004+67367+026650FM-12+018199999V0202901N001019999999N0000001N9-00891+99999097311ADDGF108991999999999999999999
0029028360999991925010806004+67367+026650FM-12+018199999V0203201N001019999999N0000001N9-01221+99999097621ADDGF108991999999999999999999
0029028360999991925010813004+67367+026650FM-12+018199999V0203201N001019999999N0000001N9-00941+99999097881ADDGF108991999999999999999999
0029028360999991925010820004+67367+026650FM-12+018199999V0203201N001019999999N0000001N9-00941+99999097831ADDGF108991999999999999999999
0035028360999991925010906004+67367+026650FM-12+018199999V0201601N003119999999N0000001N9-00941+99999097511ADDGF108991999999999999999999MW1721
0035028360999991925010913004+67367+026650FM-12+018199999V0201601N001019999999N0000001N9-01221+99999097441ADDGF108991999999999999999999MW1721
0035028360999991925010920004+67367+026650FM-12+018199999V0201401N001019999999N0000001N9-01171+99999097621ADDGF108991999999999999999999MW1721
0029028360999991925011006004+67367+026650FM-12+018199999V0209991C000019999999N0000001N9-02781+99999098121ADDGF101991999999999999999999
0029028360999991925011013004+67367+026650FM-12+018199999V0201401N001019999999N0000001N9-01831+99999098501ADDGF104991999999999999999999
0029028360999991925011020004+67367+026650FM-12+018199999V0201401N001019999999N0000001N9-02941+99999098401ADDGF108991999999999999999999
0029028360999991925011106004+67367+026650FM-12+018199999V0201401N001019999999N0000001N9-01671+99999098191ADDGF108991999999999999999999
0029028360999991925011113004+67367+026650FM-12+018199999V0201401N003119999999N0000001N9-01671+99999098601ADDGF108991999999999999999999
0029028360999991925011120004+67367+026650FM-12+018199999V0201401N003119999999N0000001N9-01441+99999098421ADDGF108991999999999999999999
0029028360999991925011206004+67367+026650FM-12+018199999V0202301N001019999999N0000001N9-00561+99999098021ADDGF108991999999999999999999
0029028360999991925011213004+67367+026650FM-12+018199999V0201601N003119999999N0000001N9-00391+99999098221ADDGF108991999999999999999999
0029028360999991925011220004+67367+026650FM-12+018199999V0202001N001019999999N0000001N9-00111+99999098081ADDGF108991999999999999999999
0029028360999991925011306004+67367+026650FM-12+018199999V0202001N003119999999N0000001N9+00171+99999097861ADDGF108991999999999999999999
0029028360999991925011313004+67367+026650FM-12+018199999V0202301N007219999999N0000001N9+00221+99999097741ADDGF108991999999999999999999
0029028360999991925011320004+67367+026650FM-12+018199999V0202701N001019999999N0000001N9-00111+99999098301ADDGF108991999999999999999999
0029028360999991925011406004+67367+026650FM-12+018199999V0202701N001019999999N0000001N9-01111+99999098671ADDGF108991999999999999999999
0029028360999991925011413004+67367+026650FM-12+018199999V0201801N005119999999N0000001N9-00061+99999098121ADDGF108991999999999999999999
0035028360999991925011420004+67367+026650FM-12+018199999V0202701N008719999999N0000001N9-00061+99999096741ADDGF108991999999999999999999MW1861
0029028360999991925011506004+67367+026650FM-12+018199999V0202001N007219999999N0000001N9+00111+99999095381ADDGF108991999999999999999999
0029028360999991925011513004+67367+026650FM-12+018199999V0202301N010819999999N0000001N9+00331+99999095031ADDGF108991999999999999999999
0048028360999991925011520004+67367+026650FM-12+018199999V0202301N008719999999N0000001N9+00171+99999999999ADDGF100991999999999999999999EQDQ01 104903APOSLP
0029028360999991925011606004+67367+026650FM-12+018199999V0203201N010819999999N0000001N9-00061+99999096231ADDGF108991999999999999999999
0029028360999991925011613004+67367+026650FM-12+018199999V0202001N005119999999N0000001N9-00891+99999096791ADDGF108991999999999999999999
0029028360999991925011620004+67367+026650FM-12+018199999V0202001N007219999999N0000001N9-00111+99999095781ADDGF100991999999999999999999
0029028360999991925011706004+67367+026650FM-12+018199999V0202701N007219999999N0000001N9-00111+99999096501ADDGF106991999999999999999999
0029028360999991925011713004+67367+026650FM-12+018199999V0202701N007219999999N0000001N9-00061+99999097341ADDGF102991999999999999999999
0029028360999991925011720004+67367+026650FM-12+018199999V0202701N003119999999N0000001N9-00561+99999098591ADDGF100991999999999999999999
0029028360999991925011806004+67367+026650FM-12+018199999V0202701N003119999999N0000001N9-00171+99999098361ADDGF108991999999999999999999
0029028360999991925011813004+67367+026650FM-12+018199999V0202301N007219999999N0000001N9+00061+99999097911ADDGF106991999999999999999999
0029028360999991925011820004+67367+026650FM-12+018199999V0202301N008719999999N0000001N9+00281+99999097401ADDGF101991999999999999999999
0035028360999991925011906004+67367+026650FM-12+018199999V0209991C000019999999N0000001N9+00061+99999096421ADDGF108991999999999999999999MW1741
0035028360999991925011913004+67367+026650FM-12+018199999V0202701N007219999999N0000001N9-00221+99999097031ADDGF108991999999999999999999MW1381
0035028360999991925011920004+67367+026650FM-12+018199999V0202701N008719999999N0000001N9-00611+99999098831ADDGF100991999999999999999999MW1381
0029028360999991925012006004+67367+026650FM-12+018199999V0202701N001019999999N0000001N9-01111+99999099711ADDGF104991999999999999999999
0029028360999991925012013004+67367+026650FM-12+018199999V0202301N007219999999N0000001N9-00331+99999099481ADDGF106991999999999999999999
0029028360999991925012020004+67367+026650FM-12+018199999V0202701N010819999999N0000001N9+00281+99999099431ADDGF100991999999999999999999
0029028360999991925012106004+67367+026650FM-12+018199999V0202701N010819999999N0000001N9+00561+99999099431ADDGF106991999999999999999999
0029028360999991925012113004+67367+026650FM-12+018199999V0202701N007219999999N0000001N9+00561+99999099671ADDGF108991999999999999999999
0029028360999991925012120004+67367+026650FM-12+018199999V0202701N003119999999N0000001N9+00561+99999099991ADDGF108991999999999999999999
0029028360999991925012206004+67367+026650FM-12+018199999V0202701N001019999999N0000001N9+00281+99999100471ADDGF108991999999999999999999
0029028360999991925012213004+67367+026650FM-12+018199999V0209991C000019999999N0000001N9-00331+99999100601ADDGF100991999999999999999999
0029028360999991925012220004+67367+026650FM-12+018199999V0209991C000019999999N0000001N9-01111+99999100601ADDGF100991999999999999999999
0029028360999991925012306004+67367+026650FM-12+018199999V0202301N003119999999N0000001N9-00671+99999100441ADDGF108991999999999999999999
0029028360999991925012313004+67367+026650FM-12+018199999V0202001N005119999999N0000001N9-00391+99999100181ADDGF108991999999999999999999
0029028360999991925012320004+67367+026650FM-12+018199999V0202301N003119999999N0000001N9-00501+99999099951ADDGF108991999999999999999999
0035028360999991925012406004+67367+026650FM-12+018199999V0202301N001019999999N0000001N9-00561+99999099801ADDGF108991999999999999999999MW1701
0035028360999991925012413004+67367+026650FM-12+018199999V0202301N005119999999N0000001N9-00221+99999099941ADDGF108991999999999999999999MW1701
0029028360999991925012420004+67367+026650FM-12+018199999V0202501N001019999999N0000001N9-01281+99999100151ADDGF100991999999999999999999
0029028360999991925012506004+67367+026650FM-12+018199999V0202501N005119999999N0000001N9-00671+99999100031ADDGF101991999999999999999999
0029028360999991925012513004+67367+026650FM-12+018199999V0202701N005119999999N0000001N9-00441+99999100101ADDGF102991999999999999999999
0029028360999991925012520004+67367+026650FM-12+018199999V0202901N004119999999N0000001N9-00671+99999100551ADDGF108991999999999999999999
0029028360999991925012606004+67367+026650FM-12+018199999V0202901N005119999999N0000001N9-00671+99999100631ADDGF107991999999999999999999
0035028360999991925012613004+67367+026650FM-12+018199999V0202301N005119999999N0000001N9-00281+99999100021ADDGF108991999999999999999999MW1721
0035028360999991925012620004+67367+026650FM-12+018199999V0202701N005119999999N0000001N9+00171+99999099541ADDGF108991999999999999999999MW1701
0029028360999991925012706004+67367+026650FM-12+018199999V0202901N005119999999N0000001N9+00221+99999099221ADDGF102991999999999999999999
0029028360999991925012713004+67367+026650FM-12+018199999V0202901N007219999999N0000001N9+00281+99999099321ADDGF106991999999999999999999
0029028360999991925012720004+67367+026650FM-12+018199999V0202901N007219999999N0000001N9+00111+99999099381ADDGF102991999999999999999999
0029028360999991925012806004+67367+026650FM-12+018199999V0202901N001019999999N0000001N9-00221+99999099431ADDGF100991999999999999999999
0029028360999991925012813004+67367+026650FM-12+018199999V0202901N003119999999N0000001N9-00781+99999099551ADDGF108991999999999999999999
0029028360999991925012820004+67367+026650FM-12+018199999V0202901N001019999999N0000001N9-00611+99999099541ADDGF108991999999999999999999
0029028360999991925012906004+67367+026650FM-12+018199999V0200501N001019999999N0000001N9-00561+99999099471ADDGF108991999999999999999999
0029028360999991925012913004+67367+026650FM-12+018199999V0200901N001019999999N0000001N9-00391+99999099241ADDGF108991999999999999999999
0029028360999991925012920004+67367+026650FM-12+018199999V0201401N001019999999N0000001N9-00501+99999098841ADDGF108991999999999999999999
0035028360999991925013006004+67367+026650FM-12+018199999V0201601N003119999999N0000001N9-00501+99999098231ADDGF108991999999999999999999MW1701
0035028360999991925013013004+67367+026650FM-12+018199999V0201601N003119999999N0000001N9-00391+99999097951ADDGF108991999999999999999999MW1701
0029028360999991925013020004+67367+026650FM-12+018199999V0201601N003119999999N0000001N9-00441+99999097721ADDGF108991999999999999999999
0035028360999991925013106004+67367+026650FM-12+018199999V0201601N005119999999N0000001N9-00391+99999097271ADDGF108991999999999999999999MW1861
0035028360999991925013113004+67367+026650FM-12+018199999V0201401N005119999999N0000001N9-00331+99999097081ADDGF108991999999999999999999MW1861
0035028360999991925013120004+67367+026650FM-12+018199999V0201401N003119999999N0000001N9-00391+99999096951ADDGF108991999999999999999999MW1861
0035028360999991925020106004+67367+026650FM-12+018199999V0201401N003119999999N0000001N9-00441+99999097061ADDGF108991999999999999999999MW1721
0035028360999991925020113004+67367+026650FM-12+018199999V0201401N003119999999N0000001N9-00501+99999097281ADDGF108991999999999999999999MW1721
0035028360999991925020120004+67367+026650FM-12+018199999V0201401N001019999999N0000001N9-00671+99999097591ADDGF108991999999999999999999MW1721
0029028360999991925020206004+67367+026650FM-12+018199999V0201401N003119999999N0000001N9-00891+99999097831ADDGF108991999999999999999999
0029028360999991925020213004+67367+026650FM-12+018199999V0202001N003119999999N0000001N9-00831+99999097801ADDGF108991999999999999999999
0035028360999991925020220004+67367+026650FM-12+018199999V0202001N003119999999N0000001N9-00781+99999097511ADDGF108991999999999999999999MW1721
0035028360999991925020306004+67367+026650FM-12+018199999V0201801N003119999999N0000001N9-00611+99999096901ADDGF108991999999999999999999MW1721
0035028360999991925020313004+67367+026650FM-12+018199999V0201801N003119999999N0000001N9-00501+99999096671ADDGF108991999999999999999999MW1721
0029028360999991925020320004+67367+026650FM-12+018199999V0202501N003119999999N0000001N9-00611+99999096751ADDGF108991999999999999999999
0029028360999991925020406004+67367+026650FM-12+018199999V0202001N003119999999N0000001N9-01061+99999096681ADDGF108991999999999999999999
0029028360999991925020413004+67367+026650FM-12+018199999V0202001N001019999999N0000001N9-00611+99999096511ADDGF108991999999999999999999
0029028360999991925020420004+67367+026650FM-12+018199999V0202001N003119999999N0000001N9-00501+99999096421ADDGF108991999999999999999999
0035028360999991925020506004+67367+026650FM-12+018199999V0202001N003119999999N0000001N9-01001+99999096601ADDGF108991999999999999999999MW1701
0029028360999991925020513004+67367+026650FM-12+018199999V0202001N005119999999N0000001N9-00891+99999096381ADDGF108991999999999999999999
0029028360999991925020520004+67367+026650FM-12+018199999V0202001N007219999999N0000001N9-00331+99999095431ADDGF108991999999999999999999
0029028360999991925020606004+67367+026650FM-12+018199999V0202001N001019999999N0000001N9-00611+99999095141ADDGF108991999999999999999999
0029028360999991925020613004+67367+026650FM-12+018199999V0202301N008719999999N0000001N9-00391+99999095081ADDGF108991999999999999999999
0029028360999991925020620004+67367+026650FM-12+018199999V0202301N003119999999N0000001N9-00501+99999095301ADDGF108991999999999999999999
0029028360999991925020706004+67367+026650FM-12+018199999V0203601N003119999999N0000001N9-00671+99999096151ADDGF108991999999999999999999
0029028360999991925020713004+67367+026650FM-12+018199999V0202701N003119999999N0000001N9-00891+99999096881ADDGF100991999999999999999999
0029028360999991925020720004+67367+026650FM-12+018199999V0209991C000019999999N0000001N9-02611+99999097431ADDGF100991999999999999999999
0029028360999991925020806004+67367+026650FM-12+018199999V0209991C000019999999N0000001N9-03171+99999098001ADDGF100991999999999999999999
0029028360999991925020813004+67367+026650FM-12+018199999V0201401N003119999999N0000001N9-01561+99999098151ADDGF108991999999999999999999
0035028360999991925020820004+67367+026650FM-12+018199999V0201801N005119999999N0000001N9-01171+99999097911ADDGF108991999999999999999999MW1701
0029028360999991925020906004+67367+026650FM-12+018199999V0201801N007219999999N0000001N9-00501+99999097071ADDGF108991999999999999999999
0035028360999991925020913004+67367+026650FM-12+018199999V0201801N010819999999N0000001N9-00391+99999096841ADDGF108991999999999999999999MW1701
0035028360999991925020920004+67367+026650FM-12+018199999V0201801N008719999999N0000001N9-00331+99999096511ADDGF108991999999999999999999MW1381
0035028360999991925021006004+67367+026650FM-12+018199999V0201601N007219999999N0000001N9-00501+99999096151ADDGF108991999999999999999999MW1701
0035028360999991925021013004+67367+026650FM-12+018199999V0201601N005119999999N0000001N9-00391+99999096381ADDGF108991999999999999999999MW1701
0035028360999991925021020004+67367+026650FM-12+018199999V0201601N003119999999N0000001N9-00171+99999096631ADDGF108991999999999999999999MW1701
0029028360999991925021106004+67367+026650FM-12+018199999V0201601N005119999999N0000001N9-00391+99999096721ADDGF108991999999999999999999
0035028360999991925021113004+67367+026650FM-12+018199999V0201401N005119999999N0000001N9-00331+99999096281ADDGF108991999999999999999999MW1721
0035028360999991925021120004+67367+026650FM-12+018199999V0201401N003119999999N0000001N9-00331+99999096101ADDGF108991999999999999999999MW1721
0029028360999991925021206004+67367+026650FM-12+018199999V0202501N003119999999N0000001N9-00391+99999096641ADDGF108991999999999999999999
0029028360999991925021213004+67367+026650FM-12+018199999V0202301N005119999999N0000001N9-00561+99999097241ADDGF108991999999999999999999
0029028360999991925021220004+67367+026650FM-12+018199999V0201601N003119999999N0000001N9-00331+99999097081ADDGF108991999999999999999999
0035028360999991925021306004+67367+026650FM-12+018199999V0201801N012919999999N0000001N9+00221+99999096101ADDGF108991999999999999999999MW1691
0029028360999991925021313004+67367+026650FM-12+018199999V0202301N010819999999N0000001N9+00171+99999096761ADDGF108991999999999999999999
0035028360999991925021320004+67367+026650FM-12+018199999V0202301N005119999999N0000001N9-00171+99999097591ADDGF100991999999999999999999MW1001
0029028360999991925021406004+67367+026650FM-12+018199999V0202501N005119999999N0000001N9-00171+99999098181ADDGF108991999999999999999999
0029028360999991925021413004+67367+026650FM-12+018199999V0202301N010819999999N0000001N9+00061+99999098631ADDGF108991999999999999999999
0029028360999991925021420004+67367+026650FM-12+018199999V0202301N003119999999N0000001N9+00001+99999098901ADDGF108991999999999999999999
0029028360999991925021506004+67367+026650FM-12+018199999V0202301N003119999999N0000001N9-00061+99999099061ADDGF108991999999999999999999
0029028360999991925021513004+67367+026650FM-12+018199999V0202001N003119999999N0000001N9-00281+99999099181ADDGF108991999999999999999999
0029028360999991925021520004+67367+026650FM-12+018199999V0201401N003119999999N0000001N9-00441+99999098871ADDGF108991999999999999999999
0035028360999991925021606004+67367+026650FM-12+018199999V0201601N002119999999N0000001N9-00061+99999098361ADDGF108991999999999999999999MW1741
0029028360999991925021613004+67367+026650FM-12+018199999V0202301N003119999999N0000001N9+00061+99999098471ADDGF108991999999999999999999
0035028360999991925021620004+67367+026650FM-12+018199999V0202301N001019999999N0000001N9-00281+99999098581ADDGF108991999999999999999999MW1721
0029028360999991925021706004+67367+026650FM-12+018199999V0202701N001019999999N0000001N9-00501+99999098741ADDGF108991999999999999999999
0029028360999991925021713004+67367+026650FM-12+018199999V0202701N003119999999N0000001N9-00721+99999098901ADDGF108991999999999999999999
0035028360999991925021720004+67367+026650FM-12+018199999V0202701N001019999999N0000001N9-01941+99999098791ADDGF100991999999999999999999MW1001
0029028360999991925021806004+67367+026650FM-12+018199999V0203201N003119999999N0000001N9-01061+99999098281ADDGF108991999999999999999999
0029028360999991925021813004+67367+026650FM-12+018199999V0203201N001019999999N0000001N9-00671+99999097961ADDGF108991999999999999999999
0035028360999991925021820004+67367+026650FM-12+018199999V0201601N003119999999N0000001N9-00671+99999098061ADDGF108991999999999999999999MW1721
0029028360999991925021906004+67367+026650FM-12+018199999V0203601N005119999999N0000001N9-00721+99999098421ADDGF108991999999999999999999
0029028360999991925021913004+67367+026650FM-12+018199999V0203601N003119999999N0000001N9-00721+99999098631ADDGF101991999999999999999999
0029028360999991925021920004+67367+026650FM-12+018199999V0203601N001019999999N0000001N9-01331+99999098631ADDGF108991999999999999999999
0035028360999991925022006004+67367+026650FM-12+018199999V0209991C000019999999N0000001N9-01721+99999098581ADDGF108991999999999999999999MW1701
0035028360999991925022013004+67367+026650FM-12+018199999V0203601N001019999999N0000001N9-01221+99999098631ADDGF108991999999999999999999MW1701
0029028360999991925022020004+67367+026650FM-12+018199999V0203201N001019999999N0000001N9-01501+99999098741ADDGF108991999999999999999999
0029028360999991925022106004+67367+026650FM-12+018199999V0203201N001019999999N0000001N9-02111+99999099191ADDGF108991999999999999999999
0029028360999991925022113004+67367+026650FM-12+018199999V0203201N003119999999N0000001N9-01561+99999099401ADDGF108991999999999999999999
0029028360999991925022120004+67367+026650FM-12+018199999V0203201N001019999999N0000001N9-02111+99999099481ADDGF108991999999999999999999
0029028360999991925022206004+67367+026650FM-12+018199999V0202301N005119999999N0000001N9-01831+99999099191ADDGF108991999999999999999999
0029028360999991925022213004+67367+026650FM-12+018199999V0202701N006219999999N0000001N9-01721+99999099311ADDGF108991999999999999999999
0029028360999991925022220004+67367+026650FM-12+018199999V0203601N001019999999N0000001N9-03001+99999099671ADDGF100991999999999999999999
0029028360999991925022306004+67367+026650FM-12+018199999V0202901N003119999999N0000001N9-02941+99999099861ADDGF100991999999999999999999
0035028360999991925022313004+67367+026650FM-12+018199999V0201601N001019999999N0000001N9-01331+99999099561ADDGF108991999999999999999999MW1721
0035028360999991925022320004+67367+026650FM-12+018199999V0202701N001019999999N0000001N9-01441+99999099761ADDGF108991999999999999999999MW1721
0035028360999991925022406004+67367+026650FM-12+018199999V0202701N001019999999N0000001N9-00891+99999099981ADDGF108991999999999999999999MW1701
0035028360999991925022413004+67367+026650FM-12+018199999V0202701N001019999999N0000001N9-00891+99999100361ADDGF108991999999999999999999MW1701
0035028360999991925022420004+67367+026650FM-12+018199999V0202701N001019999999N0000001N9-01111+99999100621ADDGF108991999999999999999999MW1701
0035028360999991925022506004+67367+026650FM-12+018199999V0202701N001019999999N0000001N9-01281+99999100641ADDGF108991999999999999999999MW1701
0035028360999991925022513004+67367+026650FM-12+018199999V0202901N001019999999N0000001N9-01281+99999100821ADDGF108991999999999999999999MW1701
0029028360999991925022520004+67367+026650FM-12+018199999V0202901N001019999999N0000001N9-01721+99999100581ADDGF108991999999999999999999
0029028360999991925022606004+67367+026650FM-12+018199999V0209991C000019999999N0000001N9-03001+99999100201ADDGF100991999999999999999999
0029028360999991925022613004+67367+026650FM-12+018199999V0202901N003119999999N0000001N9-02111+99999100181ADDGF108991999999999999999999
0035028360999991925022620004+67367+026650FM-12+018199999V0202901N003119999999N0000001N9-01781+99999100121ADDGF108991999999999999999999MW1701
0029028360999991925022706004+67367+026650FM-12+018199999V0202901N001019999999N0000001N9-02671+99999100101ADDGF108991999999999999999999
0029028360999991925022713004+67367+026650FM-12+018199999V0202901N003119999999N0000001N9-01331+99999099981ADDGF106991999999999999999999
0029028360999991925022720004+67367+026650FM-12+018199999V0202701N001019999999N0000001N9-01891+99999099961ADDGF108991999999999999999999
0035028360999991925022806004+67367+026650FM-12+018199999V0202901N001019999999N0000001N9-01281+99999099881ADDGF108991999999999999999999MW1721
0035028360999991925022813004+67367+026650FM-12+018199999V0200901N005119999999N0000001N9-00781+99999099881ADDGF108991999999999999999999MW1721
0035028360999991925022820004+67367+026650FM-12+018199999V0200901N005119999999N0000001N9-01001+99999099961ADDGF108991999999999999999999MW1721
0035028360999991925030106004+67367+026650FM-12+018199999V0201401N003119999999N0000001N9-01671+99999099941ADDGF108991999999999999999999MW1701
0035028360999991925030113004+67367+026650FM-12+018199999V0201401N001019999999N0000001N9-01441+99999099861ADDGF108991999999999999999999MW1701
0035028360999991925030120004+67367+026650FM-12+018199999V0201401N001019999999N0000001N9-01781+99999099861ADDGF108991999999999999999999MW1701
0035028360999991925030206004+67367+026650FM-12+018199999V0201601N001019999999N0000001N9-02171+99999099831ADDGF108991999999999999999999MW1721
0035028360999991925030213004+67367+026650FM-12+018199999V0201601N003119999999N0000001N9-01561+99999099781ADDGF108991999999999999999999MW1721
0029028360999991925030220004+67367+026650FM-12+018199999V0201601N001019999999N0000001N9-02611+99999099801ADDGF108991999999999999999999
0029028360999991925030306004+67367+026650FM-12+018199999V0201601N001019999999N0000001N9-02891+99999099781ADDGF108991999999999999999999
0035028360999991925030313004+67367+026650FM-12+018199999V0202301N003119999999N0000001N9-01561+99999099701ADDGF108991999999999999999999MW1721
0035028360999991925030320004+67367+026650FM-12+018199999V0202301N001019999999N0000001N9-01501+99999099351ADDGF108991999999999999999999MW1721
0035028360999991925030406004+67367+026650FM-12+018199999V0201601N006219999999N0000001N9-01111+99999098281ADDGF108991999999999999999999MW1721
0035028360999991925030413004+67367+026650FM-12+018199999V0201601N003119999999N0000001N9-00781+99999097631ADDGF108991999999999999999999MW1721
0029028360999991925030420004+67367+026650FM-12+018199999V0201601N001019999999N0000001N9-01221+99999097421ADDGF108991999999999999999999
0035028360999991925030506004+67367+026650FM-12+018199999V0202901N003119999999N0000001N9-01941+99999097401ADDGF108991999999999999999999MW1721
0035028360999991925030513004+67367+026650FM-12+018199999V0200701N003119999999N0000001N9-01281+99999097161ADDGF108991999999999999999999MW1721
0029028360999991925030520004+67367+026650FM-12+018199999V0200701N003119999999N0000001N9-01671+99999096901ADDGF102991999999999999999999
0035028360999991925030606004+67367+026650FM-12+018199999V0200701N003119999999N0000001N9-01831+99999096921ADDGF108991999999999999999999MW1721
0035028360999991925030613004+67367+026650FM-12+018199999V0200501N003119999999N0000001N9-01561+99999097031ADDGF108991999999999999999999MW1721
0035028360999991925030620004+67367+026650FM-12+018199999V0201401N003119999999N0000001N9-01891+99999097061ADDGF108991999999999999999999MW1721
0035028360999991925030706004+67367+026650FM-12+018199999V0201401N003119999999N0000001N9-02111+99999097141ADDGF108991999999999999999999MW1721
0029028360999991925030713004+67367+026650FM-12+018199999V0201101N003119999999N0000001N9-01671+99999097221ADDGF108991999999999999999999
0035028360999991925030720004+67367+026650FM-12+018199999V0201401N001019999999N0000001N9-02221+99999097301ADDGF108991999999999999999999MW1721
0035028360999991925030806004+67367+026650FM-12+018199999V0203201N003119999999N0000001N9-01671+99999097591ADDGF108991999999999999999999MW1721
0029028360999991925030813004+67367+026650FM-12+018199999V0203601N003119999999N0000001N9-01171+99999097671ADDGF108991999999999999999999
0035028360999991925030820004+67367+026650FM-12+018199999V0203601N001019999999N0000001N9-01501+99999097681ADDGF108991999999999999999999MW1721
0035028360999991925030906004+67367+026650FM-12+018199999V0200501N003119999999N0000001N9-01331+99999098021ADDGF108991999999999999999999MW1721
0035028360999991925030913004+67367+026650FM-12+018199999V0200501N003119999999N0000001N9-01001+99999098361ADDGF108991999999999999999999MW1721
0035028360999991925030920004+67367+026650FM-12+018199999V0200501N003119999999N0000001N9-01281+99999098711ADDGF108991999999999999999999MW1721
0029028360999991925031006004+67367+026650FM-12+018199999V0203201N001019999999N0000001N9-02721+99999099281ADDGF101991999999999999999999
0029028360999991925031013004+67367+026650FM-12+018199999V0203201N001019999999N0000001N9-01171+99999099631ADDGF101991999999999999999999
0029028360999991925031020004+67367+026650FM-12+018199999V0203201N001019999999N0000001N9-02721+99999100041ADDGF100991999999999999999999
0029028360999991925031106004+67367+026650FM-12+018199999V0203201N003119999999N0000001N9-02171+99999100521ADDGF108991999999999999999999
0029028360999991925031113004+67367+026650FM-12+018199999V0200501N005119999999N0000001N9-01281+99999100701ADDGF100991999999999999999999
0029028360999991925031120004+67367+026650FM-12+018199999V0200501N001019999999N0000001N9-02501+99999100761ADDGF101991999999999999999999
0029028360999991925031206004+67367+026650FM-12+018199999V0203201N005119999999N0000001N9-02331+99999100501ADDGF108991999999999999999999
0035028360999991925031213004+67367+026650FM-12+018199999V0200501N007219999999N0000001N9-01061+99999100391ADDGF108991999999999999999999MW1381
0035028360999991925031220004+67367+026650FM-12+018199999V0200901N008719999999N0000001N9-01061+99999100381ADDGF108991999999999999999999MW1721
0035028360999991925031306004+67367+026650FM-12+018199999V0200501N008719999999N0000001N9-01061+99999099741ADDGF108991999999999999999999MW1861
0035028360999991925031313004+67367+026650FM-12+018199999V0200901N008719999999N0000001N9-00941+99999099561ADDGF108991999999999999999999MW1861
0035028360999991925031320004+67367+026650FM-12+018199999V0200901N001019999999N0000001N9-01501+99999099701ADDGF108991999999999999999999MW1701
0035028360999991925031406004+67367+026650FM-12+018199999V0200901N001019999999N0000001N9-01831+99999099831ADDGF108991999999999999999999MW1701
0029028360999991925031413004+67367+026650FM-12+018199999V0201101N003119999999N0000001N9-00831+99999099981ADDGF108991999999999999999999
0029028360999991925031420004+67367+026650FM-12+018199999V0201101N003119999999N0000001N9-01281+99999100121ADDGF100991999999999999999999
0035028360999991925031506004+67367+026650FM-12+018199999V0202901N003119999999N0000001N9-01331+99999100551ADDGF108991999999999999999999MW1701
0029028360999991925031513004+67367+026650FM-12+018199999V0202901N003119999999N0000001N9-00831+99999100661ADDGF100991999999999999999999
0035028360999991925031520004+67367+026650FM-12+018199999V0203201N001019999999N0000001N9-01831+99999100791ADDGF100991999999999999999999MW1001
0029028360999991925031606004+67367+026650FM-12+018199999V0203201N003119999999N0000001N9-02611+99999100741ADDGF108991999999999999999999
0029028360999991925031613004+67367+026650FM-12+018199999V0202701N003119999999N0000001N9-00831+99999100441ADDGF108991999999999999999999
0029028360999991925031620004+67367+026650FM-12+018199999V0202701N001019999999N0000001N9-02391+99999100161ADDGF100991999999999999999999
0035028360999991925031706004+67367+026650FM-12+018199999V0201801N003119999999N0000001N9-01441+99999099911ADDGF108991999999999999999999MW1701
0035028360999991925031713004+67367+026650FM-12+018199999V0201801N005119999999N0000001N9-00831+99999099721ADDGF108991999999999999999999MW1701
0029028360999991925031720004+67367+026650FM-12+018199999V0202301N003119999999N0000001N9-00941+99999099591ADDGF108991999999999999999999
0029028360999991925031806004+67367+026650FM-12+018199999V0201801N005119999999N0000001N9-00891+99999099161ADDGF108991999999999999999999
0035028360999991925031813004+67367+026650FM-12+018199999V0202001N005119999999N0000001N9-00441+99999098601ADDGF108991999999999999999999MW1701
0029028360999991925031820004+67367+026650FM-12+018199999V0202001N003119999999N0000001N9-00281+99999098301ADDGF108991999999999999999999
0029028360999991925031906004+67367+026650FM-12+018199999V0202701N003119999999N0000001N9-00171+99999097551ADDGF107991999999999999999999
0029028360999991925031913004+67367+026650FM-12+018199999V0202701N005119999999N0000001N9+00221+99999097461ADDGF100991999999999999999999
0029028360999991925031920004+67367+026650FM-12+018199999V0202701N003119999999N0000001N9-00171+99999097231ADDGF100991999999999999999999
0029028360999991925032006004+67367+026650FM-12+018199999V0202001N005119999999N0000001N9-01001+99999096791ADDGF100991999999999999999999
0029028360999991925032013004+67367+026650FM-12+018199999V0201801N003119999999N0000001N9-00221+99999096821ADDGF107991999999999999999999
0029028360999991925032020004+67367+026650FM-12+018199999V0202001N001019999999N0000001N9-01501+99999097001ADDGF100991999999999999999999
0035028360999991925032106004+67367+026650FM-12+018199999V0203201N001019999999N0000001N9-01721+99999097511ADDGF108991999999999999999999MW1701
0029028360999991925032113004+67367+026650FM-12+018199999V0203201N005119999999N0000001N9-00171+99999097781ADDGF108991999999999999999999
0029028360999991925032120004+67367+026650FM-12+018199999V0203201N001019999999N0000001N9-01001+99999098021ADDGF100991999999999999999999
0029028360999991925032213004+67367+026650FM-12+018199999V0203201N003119999999N0000001N9-00171+99999098631ADDGF102991999999999999999999
0029028360999991925032220004+67367+026650FM-12+018199999V0202701N001019999999N0000001N9-01561+99999098701ADDGF100991999999999999999999
0029028360999991925032306004+67367+026650FM-12+018199999V0209991C000019999999N0000001N9-02671+99999098821ADDGF100991999999999999999999
0029028360999991925032313004+67367+026650FM-12+018199999V0202001N005119999999N0000001N9-00111+99999098921ADDGF100991999999999999999999
0029028360999991925032320004+67367+026650FM-12+018199999V0202301N001019999999N0000001N9-01611+99999099021ADDGF100991999999999999999999
0035028360999991925032406004+67367+026650FM-12+018199999V0201801N001019999999N0000001N9-01281+99999099301ADDGF108991999999999999999999MW1701
0029028360999991925032413004+67367+026650FM-12+018199999V0202001N005119999999N0000001N9-00111+99999099321ADDGF104991999999999999999999
0029028360999991925032420004+67367+026650FM-12+018199999V0202301N003119999999N0000001N9-00561+99999099381ADDGF100991999999999999999999
0029028360999991925032506004+67367+026650FM-12+018199999V0202001N005119999999N0000001N9-00441+99999099381ADDGF108991999999999999999999
0035028360999991925032513004+67367+026650FM-12+018199999V0202001N008219999999N0000001N9-00221+99999099481ADDGF108991999999999999999999MW1721
0035028360999991925032520004+67367+026650FM-12+018199999V0202001N004119999999N0000001N9-00281+99999099381ADDGF108991999999999999999999MW1721
0035028360999991925032606004+67367+026650FM-12+018199999V0202301N003119999999N0000001N9-00501+99999099501ADDGF108991999999999999999999MW1701
0029028360999991925032613004+67367+026650FM-12+018199999V0202701N003119999999N0000001N9+00001+99999099621ADDGF105991999999999999999999
0029028360999991925032620004+67367+026650FM-12+018199999V0202301N001019999999N0000001N9-01501+99999099781ADDGF100991999999999999999999
0035028360999991925032706004+67367+026650FM-12+018199999V0202701N003119999999N0000001N9-01331+99999100111ADDGF108991999999999999999999MW1701
0029028360999991925032713004+67367+026650FM-12+018199999V0202901N001019999999N0000001N9-00391+99999100101ADDGF100991999999999999999999
0029028360999991925032720004+67367+026650FM-12+018199999V0201401N001019999999N0000001N9-01721+99999999999ADDGF100991999999999999999999
0029028360999991925032806004+67367+026650FM-12+018199999V0201401N005119999999N0000001N9-01061+99999099961ADDGF108991999999999999999999
0029028360999991925032813004+67367+026650FM-12+018199999V0201401N004119999999N0000001N9-00721+99999099831ADDGF108991999999999999999999
0029028360999991925032820004+67367+026650FM-12+018199999V0201401N003119999999N0000001N9-01111+99999099781ADDGF100991999999999999999999
0029028360999991925032906004+67367+026650FM-12+018199999V0200901N005119999999N0000001N9-01671+99999099671ADDGF108991999999999999999999
0029028360999991925032913004+67367+026650FM-12+018199999V0200901N003119999999N0000001N9-01221+99999099471ADDGF108991999999999999999999
0035028360999991925032920004+67367+026650FM-12+018199999V0200201N003119999999N0000001N9-01331+99999099061ADDGF108991999999999999999999MW1721
0035028360999991925033006004+67367+026650FM-12+018199999V0202901N001019999999N0000001N9-01281+99999098201ADDGF108991999999999999999999MW1721
0035028360999991925033013004+67367+026650FM-12+018199999V0202001N005119999999N0000001N9-01001+99999098101ADDGF108991999999999999999999MW1721
0035028360999991925033020004+67367+026650FM-12+018199999V0202301N005119999999N0000001N9-01061+99999097751ADDGF108991999999999999999999MW1861
0035028360999991925033106004+67367+026650FM-12+018199999V0202301N010819999999N0000001N9-00281+99999096551ADDGF108991999999999999999999MW1861
0035028360999991925033113004+67367+026650FM-12+018199999V0202301N010819999999N0000001N9+00111+99999096071ADDGF108991999999999999999999MW1691
0029028360999991925033120004+67367+026650FM-12+018199999V0202501N003119999999N0000001N9-00061+99999096471ADDGF108991999999999999999999
0029028360999991925040106004+67367+026650FM-12+018199999V0202001N005119999999N0000001N9-00831+99999097321ADDGF108991999999999999999999
0029028360999991925040113004+67367+026650FM-12+018199999V0202701N005119999999N0000001N9+00061+99999097591ADDGF107991999999999999999999
0029028360999991925040120004+67367+026650FM-12+018199999V0202701N001019999999N0000001N9-01001+99999097881ADDGF108991999999999999999999
0029028360999991925040206004+67367+026650FM-12+018199999V0202701N001019999999N0000001N9-01001+99999097721ADDGF101991999999999999999999
0029028360999991925040213004+67367+026650FM-12+018199999V0202901N007219999999N0000001N9+00111+99999098071ADDGF101991999999999999999999
0029028360999991925040220004+67367+026650FM-12+018199999V0201801N005119999999N0000001N9-00331+99999098161ADDGF108991999999999999999999
0029028360999991925040306004+67367+026650FM-12+018199999V0202301N008719999999N0000001N9-00221+99999097721ADDGF108991999999999999999999
0035028360999991925040313004+67367+026650FM-12+018199999V0201801N005119999999N0000001N9-00061+99999097401ADDGF108991999999999999999999MW1861
0035028360999991925040320004+67367+026650FM-12+018199999V0201601N005119999999N0000001N9+00001+99999097001ADDGF108991999999999999999999MW1861
0035028360999991925040406004+67367+026650FM-12+018199999V0202301N005119999999N0000001N9-00111+99999096551ADDGF108991999999999999999999MW1721
0035028360999991925040413004+67367+026650FM-12+018199999V0203201N007219999999N0000001N9-00221+99999097821ADDGF108991999999999999999999MW1721
0029028360999991925040420004+67367+026650FM-12+018199999V0203601N001019999999N0000001N9-00941+99999099191ADDGF100991999999999999999999
0035028360999991925040506004+67367+026650FM-12+018199999V0201801N003119999999N0000001N9-01441+99999099801ADDGF108991999999999999999999MW1381
0035028360999991925040513004+67367+026650FM-12+018199999V0202001N010819999999N0000001N9-00111+99999099191ADDGF108991999999999999999999MW1381
0035028360999991925040520004+67367+026650FM-12+018199999V0202301N007219999999N0000001N9-00111+99999098791ADDGF108991999999999999999999MW1381
0029028360999991925040606004+67367+026650FM-12+018199999V0202501N001019999999N0000001N9-00281+99999099461ADDGF108991999999999999999999
0029028360999991925040613004+67367+026650FM-12+018199999V0202901N003119999999N0000001N9+00331+99999099781ADDGF108991999999999999999999
0029028360999991925040620004+67367+026650FM-12+018199999V0209991C000019999999N0000001N9-00331+99999099581ADDGF100991999999999999999999
0029028360999991925040706004+67367+026650FM-12+018199999V0209991C000019999999N0000001N9-00221+99999099071ADDGF101991999999999999999999
0029028360999991925040713004+67367+026650FM-12+018199999V0202701N005119999999N0000001N9+00831+99999099041ADDGF108991999999999999999999
0029028360999991925040720004+67367+026650FM-12+018199999V0202701N001019999999N0000001N9+00171+99999099141ADDGF108991999999999999999999
0029028360999991925040806004+67367+026650FM-12+018199999V0202701N001019999999N0000001N9-00221+99999099671ADDGF108991999999999999999999
0029028360999991925040813004+67367+026650FM-12+018199999V0202001N003119999999N0000001N9+00561+99999099751ADDGF108991999999999999999999
0029028360999991925040820004+67367+026650FM-12+018199999V0202301N003119999999N0000001N9+00501+99999099591ADDGF100991999999999999999999
0029028360999991925040906004+67367+026650FM-12+018199999V0202001N003119999999N0000001N9+00281+99999099121ADDGF100991999999999999999999
0029028360999991925040913004+67367+026650FM-12+018199999V0202501N005119999999N0000001N9+00891+99999099081ADDGF108991999999999999999999
0029028360999991925040920004+67367+026650FM-12+018199999V0202701N005119999999N0000001N9+00501+99999099311ADDGF108991999999999999999999
0029028360999991925041006004+67367+026650FM-12+018199999V0202701N005119999999N0000001N9+00281+99999099551ADDGF108991999999999999999999
0029028360999991925041013004+67367+026650FM-12+018199999V0203201N005119999999N0000001N9+00781+99999999999ADDGF108991999999999999999999
0029028360999991925041020004+67367+026650FM-12+018199999V0200501N003119999999N0000001N9+00111+99999100541ADDGF108991999999999999999999
0029028360999991925041106004+67367+026650FM-12+018199999V0200901N003119999999N0000001N9-00171+99999100621ADDGF108991999999999999999999
0029028360999991925041113004+67367+026650FM-12+018199999V0202701N005119999999N0000001N9+00561+99999100261ADDGF108991999999999999999999
0029028360999991925041120004+67367+026650FM-12+018199999V0202701N001019999999N0000001N9+00061+99999100041ADDGF108991999999999999999999
0029028360999991925041206004+67367+026650FM-12+018199999V0201801N003119999999N0000001N9+00281+99999099481ADDGF108991999999999999999999
0029028360999991925041213004+67367+026650FM-12+018199999V0202501N005119999999N0000001N9+00611+99999099141ADDGF108991999999999999999999
0029028360999991925041220004+67367+026650FM-12+018199999V0209991C000019999999N0000001N9+00001+99999098981ADDGF108991999999999999999999
0029028360999991925041306004+67367+026650FM-12+018199999V0203401N003119999999N0000001N9+00221+99999099041ADDGF108991999999999999999999
0029028360999991925041313004+67367+026650FM-12+018199999V0200501N003119999999N0000001N9+00441+99999099201ADDGF108991999999999999999999
0029028360999991925041320004+67367+026650FM-12+018199999V0203201N001019999999N0000001N9-00221+99999099301ADDGF101991999999999999999999
0029028360999991925041406004+67367+026650FM-12+018199999V0209991C000019999999N0000001N9-00561+99999099281ADDGF108991999999999999999999
0029028360999991925041413004+67367+026650FM-12+018199999V0202501N005119999999N0000001N9+00671+99999099271ADDGF104991999999999999999999
0029028360999991925041420004+67367+026650FM-12+018199999V0209991C000019999999N0000001N9-00221+99999099311ADDGF100991999999999999999999
0029028360999991925041506004+67367+026650FM-12+018199999V0202501N003119999999N0000001N9+00171+99999099271ADDGF100991999999999999999999
0029028360999991925041513004+67367+026650FM-12+018199999V0202001N005119999999N0000001N9+00891+99999098991ADDGF107991999999999999999999
0029028360999991925041520004+67367+026650FM-12+018199999V0202001N005119999999N0000001N9+00061+99999098871ADDGF101991999999999999999999
0029028360999991925041606004+67367+026650FM-12+018199999V0201801N005119999999N0000001N9+00501+99999098261ADDGF104991999999999999999999
0029028360999991925041613004+67367+026650FM-12+018199999V0201801N005119999999N0000001N9+01221+99999097961ADDGF101991999999999999999999
0029028360999991925041620004+67367+026650FM-12+018199999V0201801N003119999999N0000001N9+00561+99999097801ADDGF100991999999999999999999
0029028360999991925041706004+67367+026650FM-12+018199999V0202001N003119999999N0000001N9+00501+99999097621ADDGF108991999999999999999999
0029028360999991925041713004+67367+026650FM-12+018199999V0201801N003119999999N0000001N9+00721+99999097621ADDGF108991999999999999999999
0035028360999991925041720004+67367+026650FM-12+018199999V0201801N003119999999N0000001N9+00331+99999097501ADDGF108991999999999999999999MW1621
0035028360999991925041806004+67367+026650FM-12+018199999V0201801N001019999999N0000001N9+00171+99999097181ADDGF108991999999999999999999MW1621
0029028360999991925041813004+67367+026650FM-12+018199999V0202301N005119999999N0000001N9+00331+99999097361ADDGF108991999999999999999999
0029028360999991925041820004+67367+026650FM-12+018199999V0209991C000019999999N0000001N9+00111+99999097621ADDGF108991999999999999999999
0035028360999991925041906004+67367+026650FM-12+018199999V0202301N001019999999N0000001N9+00111+99999097681ADDGF108991999999999999999999MW1691
0029028360999991925041913004+67367+026650FM-12+018199999V0203601N003119999999N0000001N9+00561+99999097991ADDGF108991999999999999999999
0029028360999991925041920004+67367+026650FM-12+018199999V0203401N002119999999N0000001N9+00061+99999098391ADDGF108991999999999999999999
0029028360999991925042006004+67367+026650FM-12+018199999V0203601N003119999999N0000001N9-00331+99999098871ADDGF108991999999999999999999
0029028360999991925042013004+67367+026650FM-12+018199999V0200901N005119999999N0000001N9+00171+99999099031ADDGF108991999999999999999999
0029028360999991925042020004+67367+026650FM-12+018199999V0200501N003119999999N0000001N9-00441+99999099031ADDGF101991999999999999999999
0029028360999991925042106004+67367+026650FM-12+018199999V0200501N003119999999N0000001N9-00331+99999099041ADDGF108991999999999999999999
0029028360999991925042113004+67367+026650FM-12+018199999V0202001N003119999999N0000001N9+00281+99999098991ADDGF108991999999999999999999
0035028360999991925042120004+67367+026650FM-12+018199999V0202701N001019999999N0000001N9-00061+99999099041ADDGF108991999999999999999999MW1691
0029028360999991925042213004+67367+026650FM-12+018199999V0201801N003119999999N0000001N9+00281+99999099271ADDGF102991999999999999999999
0029028360999991925042220004+67367+026650FM-12+018199999V0209991C000019999999N0000001N9-00391+99999099241ADDGF100991999999999999999999
0029028360999991925042306004+67367+026650FM-12+018199999V0201401N001019999999N0000001N9-00501+99999099321ADDGF107991999999999999999999
0029028360999991925042313004+67367+026650FM-12+018199999V0201401N005119999999N0000001N9+00171+99999099271ADDGF102991999999999999999999
0029028360999991925042320004+67367+026650FM-12+018199999V0201401N003119999999N0000001N9-00501+99999099151ADDGF100991999999999999999999
0029028360999991925042406004+67367+026650FM-12+018199999V0201401N005119999999N0000001N9-00671+99999099071ADDGF108991999999999999999999
0035028360999991925042413004+67367+026650FM-12+018199999V0201401N005119999999N0000001N9-00171+99999098711ADDGF108991999999999999999999MW1861
0035028360999991925042420004+67367+026650FM-12+018199999V0201401N005119999999N0000001N9-00441+99999098401ADDGF108991999999999999999999MW1861
0035028360999991925042506004+67367+026650FM-12+018199999V0201401N005119999999N0000001N9-00171+99999097471ADDGF108991999999999999999999MW1721
0029028360999991925042513004+67367+026650FM-12+018199999V0202301N008719999999N0000001N9+00171+99999097541ADDGF108991999999999999999999
0029028360999991925042520004+67367+026650FM-12+018199999V0202701N001019999999N0000001N9+00111+99999097481ADDGF108991999999999999999999
0029028360999991925042606004+67367+026650FM-12+018199999V0202701N005119999999N0000001N9+00061+99999097311ADDGF101991999999999999999999
0029028360999991925042613004+67367+026650FM-12+018199999V0202701N005119999999N0000001N9+00441+99999097621ADDGF101991999999999999999999
0029028360999991925042620004+67367+026650FM-12+018199999V0202701N001019999999N0000001N9-00221+99999097941ADDGF101991999999999999999999
0029028360999991925042706004+67367+026650FM-12+018199999V0202701N001019999999N0000001N9-00171+99999098481ADDGF108991999999999999999999
0029028360999991925042713004+67367+026650FM-12+018199999V0200501N005119999999N0000001N9+00061+99999098921ADDGF108991999999999999999999
0029028360999991925042720004+67367+026650FM-12+018199999V0200201N003119999999N0000001N9-00221+99999099071ADDGF108991999999999999999999
0029028360999991925042806004+67367+026650FM-12+018199999V0203601N003119999999N0000001N9-00561+99999099201ADDGF100991999999999999999999
0029028360999991925042813004+67367+026650FM-12+018199999V0203601N003119999999N0000001N9-00171+99999099361ADDGF108991999999999999999999
0029028360999991925042820004+67367+026650FM-12+018199999V0203601N003119999999N0000001N9-00501+99999099591ADDGF102991999999999999999999
0029028360999991925042906004+67367+026650FM-12+018199999V0203601N003119999999N0000001N9-00501+99999100031ADDGF100991999999999999999999
0029028360999991925042913004+67367+026650FM-12+018199999V0203201N003119999999N0000001N9+00171+99999100321ADDGF101991999999999999999999
0029028360999991925042920004+67367+026650FM-12+018199999V0209991C000019999999N0000001N9-00391+99999100501ADDGF100991999999999999999999
0029028360999991925043006004+67367+026650FM-12+018199999V0200201N003119999999N0000001N9-00441+99999100441ADDGF108991999999999999999999
0029028360999991925043013004+67367+026650FM-12+018199999V0200701N005119999999N0000001N9+00171+99999100031ADDGF108991999999999999999999
0035028360999991925043020004+67367+026650FM-12+018199999V0200901N003119999999N0000001N9-00221+99999099841ADDGF108991999999999999999999MW1721
0035028360999991925050106004+67367+026650FM-12+018199999V0200501N005119999999N0000001N9-00331+99999098911ADDGF108991999999999999999999MW1721
0029028360999991925050113004+67367+026650FM-12+018199999V0200901N005119999999N0000001N9+00061+99999098271ADDGF108991999999999999999999
0035028360999991925050120004+67367+026650FM-12+018199999V0201601N003119999999N0000001N9+00111+99999098241ADDGF108991999999999999999999MW1601
0029028360999991925050206004+67367+026650FM-12+018199999V0202301N008719999999N0000001N9-00221+99999098441ADDGF108991999999999999999999
0029028360999991925050213004+67367+026650FM-12+018199999V0202701N008719999999N0000001N9+00281+99999098701ADDGF106991999999999999999999
0029028360999991925050220004+67367+026650FM-12+018199999V0202301N005119999999N0000001N9+00281+99999098981ADDGF108991999999999999999999
0029028360999991925050306004+67367+026650FM-12+018199999V0202701N005119999999N0000001N9+00221+99999099551ADDGF100991999999999999999999
0029028360999991925050313004+67367+026650FM-12+018199999V0202501N004119999999N0000001N9+00721+99999099861ADDGF101991999999999999999999
0029028360999991925050320004+67367+026650FM-12+018199999V0202301N003119999999N0000001N9+00331+99999099791ADDGF108991999999999999999999
0029028360999991925050406004+67367+026650FM-12+018199999V0201801N003119999999N0000001N9+00501+99999099221ADDGF108991999999999999999999
0029028360999991925050413004+67367+026650FM-12+018199999V0201801N005119999999N0000001N9+00441+99999099001ADDGF108991999999999999999999
0035028360999991925050420004+67367+026650FM-12+018199999V0202001N001019999999N0000001N9+00281+99999098801ADDGF108991999999999999999999MW1621
0029028360999991925050506004+67367+026650FM-12+018199999V0203201N005119999999N0000001N9+00281+99999098831ADDGF108991999999999999999999
0029028360999991925050513004+67367+026650FM-12+018199999V0203201N005119999999N0000001N9+00501+99999099261ADDGF107991999999999999999999
0029028360999991925050520004+67367+026650FM-12+018199999V0203401N003119999999N0000001N9+00001+99999099721ADDGF108991999999999999999999
0029028360999991925050606004+67367+026650FM-12+018199999V0203201N001019999999N0000001N9-00061+99999100191ADDGF108991999999999999999999
0035028360999991925050613004+67367+026650FM-12+018199999V0202501N003119999999N0000001N9+00281+99999100161ADDGF108991999999999999999999MW1701
0029028360999991925050620004+67367+026650FM-12+018199999V0202901N003119999999N0000001N9+00061+99999100021ADDGF108991999999999999999999
0029028360999991925050706004+67367+026650FM-12+018199999V0203201N003119999999N0000001N9-00061+99999100081ADDGF108991999999999999999999
0029028360999991925050713004+67367+026650FM-12+018199999V0200501N003119999999N0000001N9+00221+99999100141ADDGF108991999999999999999999
0029028360999991925050720004+67367+026650FM-12+018199999V0203201N001019999999N0000001N9-00221+99999100101ADDGF100991999999999999999999
0029028360999991925050806004+67367+026650FM-12+018199999V0203201N001019999999N0000001N9-00061+99999099841ADDGF108991999999999999999999
0029028360999991925050813004+67367+026650FM-12+018199999V0201601N005119999999N0000001N9+00391+99999099541ADDGF108991999999999999999999
0029028360999991925050820004+67367+026650FM-12+018199999V0200701N003119999999N0000001N9+00221+99999099511ADDGF107991999999999999999999
0029028360999991925050906004+67367+026650FM-12+018199999V0202701N003119999999N0000001N9+00171+99999099581ADDGF100991999999999999999999
0029028360999991925050913004+67367+026650FM-12+018199999V0201401N003119999999N0000001N9+01391+99999099401ADDGF108991999999999999999999
0035028360999991925050920004+67367+026650FM-12+018199999V0201801N001019999999N0000001N9+00671+99999099181ADDGF108991999999999999999999MW1601
0029028360999991925051006004+67367+026650FM-12+018199999V0201801N001019999999N0000001N9+00391+99999099021ADDGF108991999999999999999999
0029028360999991925051013004+67367+026650FM-12+018199999V0202001N003119999999N0000001N9+01221+99999099101ADDGF101991999999999999999999
0029028360999991925051020004+67367+026650FM-12+018199999V0202001N005119999999N0000001N9+00891+99999099111ADDGF108991999999999999999999
0029028360999991925051106004+67367+026650FM-12+018199999V0202301N005119999999N0000001N9+00501+99999099101ADDGF108991999999999999999999
0029028360999991925051113004+67367+026650FM-12+018199999V0202701N003119999999N0000001N9+00671+99999099421ADDGF108991999999999999999999
0029028360999991925051120004+67367+026650FM-12+018199999V0203401N001019999999N0000001N9+00331+99999099671ADDGF108991999999999999999999
0029028360999991925051206004+67367+026650FM-12+018199999V0200701N005119999999N0000001N9+00171+99999099671ADDGF108991999999999999999999
0029028360999991925051213004+67367+026650FM-12+018199999V0201401N003119999999N0000001N9+00501+99999099191ADDGF108991999999999999999999
0035028360999991925051220004+67367+026650FM-12+018199999V0201401N003119999999N0000001N9+00391+99999098721ADDGF108991999999999999999999MW1621
0035028360999991925051306004+67367+026650FM-12+018199999V0202701N005119999999N0000001N9+00281+99999098781ADDGF108991999999999999999999MW1621
0029028360999991925051313004+67367+026650FM-12+018199999V0202701N005119999999N0000001N9+00561+99999099111ADDGF108991999999999999999999
0029028360999991925051320004+67367+026650FM-12+018199999V0202701N001019999999N0000001N9+00221+99999099111ADDGF104991999999999999999999
0046028360999991925051406004+67367+026650FM-12+018199999V0202701N003119999999N0000001N9+00501+99999098941ADDAJ100009199999999GF102991999999999999999999
0035028360999991925051413004+67367+026650FM-12+018199999V0203201N003119999999N0000001N9+00891+99999099161ADDGF108991999999999999999999MW1621
0029028360999991925051420004+67367+026650FM-12+018199999V0209991C000019999999N0000001N9+00561+99999099311ADDGF108991999999999999999999
0046028360999991925051506004+67367+026650FM-12+018199999V0202701N001019999999N0000001N9+00671+99999099421ADDAJ100009199999999GF100991999999999999999999
0029028360999991925051513004+67367+026650FM-12+018199999V0202701N005119999999N0000001N9+01061+99999099431ADDGF104991999999999999999999
0029028360999991925051520004+67367+026650FM-12+018199999V0203201N003119999999N0000001N9+00561+99999099501ADDGF108991999999999999999999
0052028360999991925051606004+67367+026650FM-12+018199999V0203401N001019999999N0000001N9+00281+99999099581ADDAJ100009199999999GF108991999999999999999999MW1621
0029028360999991925051613004+67367+026650FM-12+018199999V0200701N001019999999N0000001N9+00831+99999099601ADDGF108991999999999999999999
0029028360999991925051620004+67367+026650FM-12+018199999V0209991C000019999999N0000001N9+00561+99999099761ADDGF107991999999999999999999
0046028360999991925051706004+67367+026650FM-12+018199999V0200901N001019999999N0000001N9+00561+99999100121ADDAJ100009199999999GF100991999999999999999999
0029028360999991925051713004+67367+026650FM-12+018199999V0202701N001019999999N0000001N9+01281+99999100151ADDGF106991999999999999999999
0029028360999991925051720004+67367+026650FM-12+018199999V0209991C000019999999N0000001N9+00721+99999100081ADDGF100991999999999999999999
0046028360999991925051806004+67367+026650FM-12+018199999V0202301N007219999999N0000001N9+01001+99999099741ADDAJ100009199999999GF101991999999999999999999
0029028360999991925051813004+67367+026650FM-12+018199999V0202701N007219999999N0000001N9+01831+99999099461ADDGF108991999999999999999999
0029028360999991925051820004+67367+026650FM-12+018199999V0202701N005119999999N0000001N9+01391+99999099361ADDGF108991999999999999999999
0046028360999991925051906004+67367+026650FM-12+018199999V0202901N007219999999N0000001N9+00781+99999099591ADDAJ100009199999999GF108991999999999999999999
0029028360999991925051913004+67367+026650FM-12+018199999V0202901N005119999999N0000001N9+01061+99999099521ADDGF108991999999999999999999
0029028360999991925051920004+67367+026650FM-12+018199999V0202901N005119999999N0000001N9+00781+99999099361ADDGF108991999999999999999999
0046028360999991925052006004+67367+026650FM-12+018199999V0203201N003119999999N0000001N9+00331+99999099311ADDAJ100009199999999GF108991999999999999999999
0029028360999991925052013004+67367+026650FM-12+018199999V0203201N003119999999N0000001N9+00501+99999099221ADDGF108991999999999999999999
0029028360999991925052020004+67367+026650FM-12+018199999V0200201N001019999999N0000001N9+00221+99999098911ADDGF101991999999999999999999
0046028360999991925052106004+67367+026650FM-12+018199999V0200501N005119999999N0000001N9+00171+99999098991ADDAJ100009199999999GF101991999999999999999999
0029028360999991925052113004+67367+026650FM-12+018199999V0200501N005119999999N0000001N9+00221+99999098871ADDGF108991999999999999999999
0035028360999991925052120004+67367+026650FM-12+018199999V0200201N005119999999N0000001N9+00001+99999098671ADDGF108991999999999999999999MW1701
0035028360999991925052213004+67367+026650FM-12+018199999V0200501N008719999999N0000001N9+00171+99999098401ADDGF108991999999999999999999MW1701
0035028360999991925052220004+67367+026650FM-12+018199999V0200201N007219999999N0000001N9-00061+99999098551ADDGF108991999999999999999999MW1701
0046028360999991925052306004+67367+026650FM-12+018199999V0200501N005119999999N0000001N9-00061+99999098801ADDAJ100009199999999GF108991999999999999999999
0029028360999991925052313004+67367+026650FM-12+018199999V0200201N005119999999N0000001N9+00061+99999098991ADDGF108991999999999999999999
0029028360999991925052320004+67367+026650FM-12+018199999V0203601N001019999999N0000001N9-00061+99999099181ADDGF108991999999999999999999
0046028360999991925052406004+67367+026650FM-12+018199999V0203601N001019999999N0000001N9-00061+99999099321ADDAJ100009199999999GF108991999999999999999999
0029028360999991925052413004+67367+026650FM-12+018199999V0202701N001019999999N0000001N9+00171+99999099361ADDGF108991999999999999999999
0029028360999991925052420004+67367+026650FM-12+018199999V0202501N004119999999N0000001N9+00111+99999099421ADDGF108991999999999999999999
0052028360999991925052506004+67367+026650FM-12+018199999V0202001N003119999999N0000001N9-00111+99999099351ADDAJ100009199999999GF108991999999999999999999MW1701
0029028360999991925052513004+67367+026650FM-12+018199999V0202301N001019999999N0000001N9+00221+99999099221ADDGF108991999999999999999999
0029028360999991925052520004+67367+026650FM-12+018199999V0201801N001019999999N0000001N9+00281+99999099161ADDGF108991999999999999999999
0046028360999991925052606004+67367+026650FM-12+018199999V0203201N003119999999N0000001N9+00171+99999099101ADDAJ100009199999999GF108991999999999999999999
0029028360999991925052613004+67367+026650FM-12+018199999V0201401N001019999999N0000001N9+00561+99999099111ADDGF108991999999999999999999
0029028360999991925052620004+67367+026650FM-12+018199999V0209991C000019999999N0000001N9+00281+99999099231ADDGF105991999999999999999999
0046028360999991925052706004+67367+026650FM-12+018199999V0200501N003119999999N0000001N9+00441+99999099471ADDAJ100009199999999GF100991999999999999999999
0029028360999991925052713004+67367+026650FM-12+018199999V0200701N003119999999N0000001N9+00831+99999099461ADDGF102991999999999999999999
0029028360999991925052720004+67367+026650FM-12+018199999V0200701N003119999999N0000001N9+00671+99999099501ADDGF108991999999999999999999
0046028360999991925052806004+67367+026650FM-12+018199999V0201601N003119999999N0000001N9+00671+99999099631ADDAJ100009199999999GF108991999999999999999999
0029028360999991925052813004+67367+026650FM-12+018199999V0201801N007219999999N0000001N9+01171+99999099551ADDGF108991999999999999999999
0029028360999991925052820004+67367+026650FM-12+018199999V0201801N003119999999N0000001N9+01061+99999099551ADDGF102991999999999999999999
0052028360999991925052906004+67367+026650FM-12+018199999V0202001N003119999999N0000001N9+01061+99999099721ADDAJ100009199999999GF108991999999999999999999MW1601
0029028360999991925052913004+67367+026650FM-12+018199999V0202001N008719999999N0000001N9+01441+99999099641ADDGF108991999999999999999999
0029028360999991925052920004+67367+026650FM-12+018199999V0202301N007219999999N0000001N9+01391+99999099461ADDGF108991999999999999999999
0046028360999991925053006004+67367+026650FM-12+018199999V0202001N005119999999N0000001N9+01441+99999099381ADDAJ100009199999999GF100991999999999999999999
0029028360999991925053013004+67367+026650FM-12+018199999V0202301N008719999999N0000001N9+01941+99999099121ADDGF108991999999999999999999
0035028360999991925053020004+67367+026650FM-12+018199999V0202301N003119999999N0000001N9+01441+99999098861ADDGF108991999999999999999999MW1621
0046028360999991925053106004+67367+026650FM-12+018199999V0201801N003119999999N0000001N9+01281+99999098621ADDAJ100009199999999GF108991999999999999999999
0029028360999991925053113004+67367+026650FM-12+018199999V0201401N003119999999N0000001N9+01721+99999098351ADDGF108991999999999999999999
0035028360999991925053120004+67367+026650FM-12+018199999V0201801N001019999999N0000001N9+01111+99999098111ADDGF108991999999999999999999MW1621
0046028360999991925060106004+67367+026650FM-12+018199999V0202501N001019999999N0000001N9+01001+99999098141ADDAJ100009199999999GF108991999999999999999999
0035028360999991925060113004+67367+026650FM-12+018199999V0201801N003119999999N0000001N9+01221+99999098281ADDGF108991999999999999999999MW1621
0029028360999991925060120004+67367+026650FM-12+018199999V0201101N001019999999N0000001N9+01111+99999098341ADDGF108991999999999999999999
0052028360999991925060206004+67367+026650FM-12+018199999V0202901N003119999999N0000001N9+00891+99999098561ADDAJ100009199999999GF108991999999999999999999MW1621
0035028360999991925060213004+67367+026650FM-12+018199999V0202901N005119999999N0000001N9+01001+99999099001ADDGF108991999999999999999999MW1621
0029028360999991925060220004+67367+026650FM-12+018199999V0203201N003119999999N0000001N9+00941+99999099121ADDGF108991999999999999999999
0046028360999991925060306004+67367+026650FM-12+018199999V0200201N003119999999N0000001N9+00941+99999099201ADDAJ100009199999999GF108991999999999999999999
0029028360999991925060313004+67367+026650FM-12+018199999V0200501N003119999999N0000001N9+01221+99999099151ADDGF108991999999999999999999
0029028360999991925060320004+67367+026650FM-12+018199999V0203601N003119999999N0000001N9+01111+99999099121ADDGF104991999999999999999999
0046028360999991925060406004+67367+026650FM-12+018199999V0203601N005119999999N0000001N9+00941+99999099271ADDAJ100009199999999GF104991999999999999999999
0029028360999991925060413004+67367+026650FM-12+018199999V0203601N005119999999N0000001N9+01111+99999099391ADDGF108991999999999999999999
0029028360999991925060420004+67367+026650FM-12+018199999V0203601N003119999999N0000001N9+01001+99999099581ADDGF107991999999999999999999
0046028360999991925060506004+67367+026650FM-12+018199999V0200201N005119999999N0000001N9+00721+99999099841ADDAJ100009199999999GF108991999999999999999999
0035028360999991925060513004+67367+026650FM-12+018199999V0200201N005119999999N0000001N9+01001+99999099991ADDGF108991999999999999999999MW1601
0029028360999991925060520004+67367+026650FM-12+018199999V0200701N001019999999N0000001N9+00721+99999100191ADDGF101991999999999999999999
0046028360999991925060606004+67367+026650FM-12+018199999V0200901N001019999999N0000001N9+00671+99999100391ADDAJ100009199999999GF108991999999999999999999
0029028360999991925060613004+67367+026650FM-12+018199999V0202501N003119999999N0000001N9+01391+99999100181ADDGF108991999999999999999999
0029028360999991925060620004+67367+026650FM-12+018199999V0202001N007219999999N0000001N9+01281+99999100021ADDGF108991999999999999999999
0052028360999991925060706004+67367+026650FM-12+018199999V0202001N005119999999N0000001N9+01001+99999099741ADDAJ100009199999999GF108991999999999999999999MW1621
0035028360999991925060713004+67367+026650FM-12+018199999V0201401N003119999999N0000001N9+01061+99999099521ADDGF108991999999999999999999MW1621
0035028360999991925060720004+67367+026650FM-12+018199999V0201601N003119999999N0000001N9+00891+99999099351ADDGF108991999999999999999999MW1621
0046028360999991925060806004+67367+026650FM-12+018199999V0203201N007219999999N0000001N9+00831+99999099721ADDAJ100009199999999GF108991999999999999999999
0029028360999991925060813004+67367+026650FM-12+018199999V0203201N005119999999N0000001N9+01331+99999099941ADDGF108991999999999999999999
0029028360999991925060820004+67367+026650FM-12+018199999V0203601N001019999999N0000001N9+01221+99999099951ADDGF108991999999999999999999
0046028360999991925060906004+67367+026650FM-12+018199999V0203201N001019999999N0000001N9+01171+99999099671ADDAJ100009199999999GF108991999999999999999999
0029028360999991925060913004+67367+026650FM-12+018199999V0203201N003119999999N0000001N9+01391+99999099401ADDGF108991999999999999999999
0029028360999991925060920004+67367+026650FM-12+018199999V0203201N005119999999N0000001N9+01061+99999099521ADDGF108991999999999999999999
0046028360999991925061006004+67367+026650FM-12+018199999V0203401N005119999999N0000001N9+00941+99999099641ADDAJ100009199999999GF108991999999999999999999
0029028360999991925061013004+67367+026650FM-12+018199999V0203401N007219999999N0000001N9+01221+99999099631ADDGF107991999999999999999999
0029028360999991925061020004+67367+026650FM-12+018199999V0203601N003119999999N0000001N9+00941+99999099861ADDGF108991999999999999999999
0046028360999991925061106004+67367+026650FM-12+018199999V0202001N003119999999N0000001N9+00941+99999099461ADDAJ100009199999999GF108991999999999999999999
0035028360999991925061113004+67367+026650FM-12+018199999V0202001N005119999999N0000001N9+00781+99999099031ADDGF108991999999999999999999MW1621
0035028360999991925061120004+67367+026650FM-12+018199999V0202001N003119999999N0000001N9+00671+99999098391ADDGF108991999999999999999999MW1621
0052028360999991925061206004+67367+026650FM-12+018199999V0203201N003119999999N0000001N9+00781+99999097661ADDAJ100009199999999GF108991999999999999999999MW1621
0035028360999991925061213004+67367+026650FM-12+018199999V0200501N003119999999N0000001N9+00831+99999097601ADDGF108991999999999999999999MW1621
0035028360999991925061220004+67367+026650FM-12+018199999V0200901N003119999999N0000001N9+00671+99999097781ADDGF108991999999999999999999MW1621
0046028360999991925061306004+67367+026650FM-12+018199999V0200701N003119999999N0000001N9+00781+99999097981ADDAJ100009199999999GF104991999999999999999999
0029028360999991925061313004+67367+026650FM-12+018199999V0201401N003119999999N0000001N9+01171+99999097831ADDGF107991999999999999999999
0029028360999991925061320004+67367+026650FM-12+018199999V0201801N002119999999N0000001N9+01001+99999097601ADDGF107991999999999999999999
0046028360999991925061406004+67367+026650FM-12+018199999V0201801N005119999999N0000001N9+01111+99999097521ADDAJ100009199999999GF106991999999999999999999
0029028360999991925061413004+67367+026650FM-12+018199999V0201401N003119999999N0000001N9+01221+99999097561ADDGF108991999999999999999999
0029028360999991925061420004+67367+026650FM-12+018199999V0201401N001019999999N0000001N9+01061+99999097681ADDGF108991999999999999999999
0046028360999991925061506004+67367+026650FM-12+018199999V0202001N005119999999N0000001N9+01061+99999098061ADDAJ100009199999999GF108991999999999999999999
0029028360999991925061513004+67367+026650FM-12+018199999V0203601N003119999999N0000001N9+01331+99999098081ADDGF108991999999999999999999
0029028360999991925061520004+67367+026650FM-12+018199999V0201801N001019999999N0000001N9+01221+99999098001ADDGF108991999999999999999999
0046028360999991925061606004+67367+026650FM-12+018199999V0202301N005119999999N0000001N9+01171+99999097791ADDAJ100009199999999GF108991999999999999999999
0035028360999991925061613004+67367+026650FM-12+018199999V0202501N005119999999N0000001N9+01061+99999097631ADDGF108991999999999999999999MW1621
0035028360999991925061620004+67367+026650FM-12+018199999V0202001N003119999999N0000001N9+00941+99999097551ADDGF108991999999999999999999MW1621
0052028360999991925061706004+67367+026650FM-12+018199999V0201401N003119999999N0000001N9+01001+99999097461ADDAJ100009199999999GF108991999999999999999999MW1621
0009028360999991925061713004+67367+026650FM-12+018199999V0201101N003119999999N0000001N9+01221+99999097461ADDMW1621
0029028360999991925061720004+67367+026650FM-12+018199999V0201101N003119999999N0000001N9+01281+99999097621ADDGF108991999999999999999999
0046028360999991925061806004+67367+026650FM-12+018199999V0200201N005119999999N0000001N9+01331+99999097911ADDAJ100009199999999GF101991999999999999999999
0029028360999991925061813004+67367+026650FM-12+018199999V0200501N003119999999N0000001N9+01611+99999098081ADDGF108991999999999999999999
0029028360999991925061820004+67367+026650FM-12+018199999V0200201N005119999999N0000001N9+01391+99999098271ADDGF101991999999999999999999
0046028360999991925061906004+67367+026650FM-12+018199999V0200201N005119999999N0000001N9+00941+99999098481ADDAJ100009199999999GF108991999999999999999999
0029028360999991925061913004+67367+026650FM-12+018199999V0203601N005119999999N0000001N9+01561+99999098381ADDGF107991999999999999999999
0029028360999991925061920004+67367+026650FM-12+018199999V0200201N003119999999N0000001N9+01221+99999098381ADDGF108991999999999999999999
0046028360999991925062006004+67367+026650FM-12+018199999V0200201N005119999999N0000001N9+00781+99999098621ADDAJ100009199999999GF102991999999999999999999
0029028360999991925062013004+67367+026650FM-12+018199999V0203601N003119999999N0000001N9+01281+99999098661ADDGF101991999999999999999999
0029028360999991925062020004+67367+026650FM-12+018199999V0200201N003119999999N0000001N9+01111+99999098821ADDGF108991999999999999999999
0046028360999991925062106004+67367+026650FM-12+018199999V0200201N003119999999N0000001N9+00671+99999099181ADDAJ100009199999999GF108991999999999999999999
0029028360999991925062113004+67367+026650FM-12+018199999V0200501N001019999999N0000001N9+01111+99999099201ADDGF108991999999999999999999
0029028360999991925062120004+67367+026650FM-12+018199999V0200501N001019999999N0000001N9+01061+99999099271ADDGF107991999999999999999999
0029028360999991925062213004+67367+026650FM-12+018199999V0209991C000019999999N0000001N9+01281+99999099601ADDGF108991999999999999999999
0029028360999991925062220004+67367+026650FM-12+018199999V0202301N001019999999N0000001N9+01171+99999099671ADDGF106991999999999999999999
0046028360999991925062306004+67367+026650FM-12+018199999V0202001N003119999999N0000001N9+01281+99999099701ADDAJ100009199999999GF101991999999999999999999
0029028360999991925062313004+67367+026650FM-12+018199999V0202301N003119999999N0000001N9+01781+99999099631ADDGF107991999999999999999999
0029028360999991925062320004+67367+026650FM-12+018199999V0202301N004119999999N0000001N9+01671+99999099671ADDGF102991999999999999999999
0046028360999991925062406004+67367+026650FM-12+018199999V0202001N003119999999N0000001N9+01721+99999099501ADDAJ100009199999999GF102991999999999999999999
0029028360999991925062413004+67367+026650FM-12+018199999V0201601N003119999999N0000001N9+02001+99999099101ADDGF108991999999999999999999
0029028360999991925062420004+67367+026650FM-12+018199999V0201601N003119999999N0000001N9+01721+99999098821ADDGF108991999999999999999999
0052028360999991925062506004+67367+026650FM-12+018199999V0200901N005119999999N0000001N9+00941+99999097941ADDAJ100009199999999GF108991999999999999999999MW1621
0029028360999991925062513004+67367+026650FM-12+018199999V0201101N005119999999N0000001N9+01391+99999097661ADDGF108991999999999999999999
0029028360999991925062520004+67367+026650FM-12+018199999V0201401N003119999999N0000001N9+01281+99999097601ADDGF108991999999999999999999
0046028360999991925062606004+67367+026650FM-12+018199999V0202001N007219999999N0000001N9+01281+99999097801ADDAJ100009199999999GF108991999999999999999999
0029028360999991925062613004+67367+026650FM-12+018199999V0202001N010819999999N0000001N9+01441+99999098061ADDGF104991999999999999999999
0029028360999991925062620004+67367+026650FM-12+018199999V0202001N005119999999N0000001N9+01171+99999098201ADDGF101991999999999999999999
0046028360999991925062706004+67367+026650FM-12+018199999V0202001N003119999999N0000001N9+01391+99999098201ADDAJ100009199999999GF101991999999999999999999
0029028360999991925062713004+67367+026650FM-12+018199999V0202701N005119999999N0000001N9+01441+99999098261ADDGF108991999999999999999999
0035028360999991925062720004+67367+026650FM-12+018199999V0203201N003119999999N0000001N9+01171+99999098471ADDGF108991999999999999999999MW1621
0046028360999991925062806004+67367+026650FM-12+018199999V0203201N005119999999N0000001N9+00891+99999098711ADDAJ100009199999999GF108991999999999999999999
0035028360999991925062813004+67367+026650FM-12+018199999V0203601N005119999999N0000001N9+01171+99999098881ADDGF108991999999999999999999MW1621
0029028360999991925062820004+67367+026650FM-12+018199999V0202901N001019999999N0000001N9+01001+99999099221ADDGF108991999999999999999999
0046028360999991925062906004+67367+026650FM-12+018199999V0203201N003119999999N0000001N9+00781+99999099661ADDAJ100009199999999GF108991999999999999999999
0035028360999991925062913004+67367+026650FM-12+018199999V0203201N003119999999N0000001N9+01171+99999099841ADDGF108991999999999999999999MW1621
0029028360999991925062920004+67367+026650FM-12+018199999V0203401N001019999999N0000001N9+00941+99999999999ADDGF108991999999999999999999
0046028360999991925063006004+67367+026650FM-12+018199999V0203401N001019999999N0000001N9+01281+99999100321ADDAJ100009199999999GF101991999999999999999999
0029028360999991925063013004+67367+026650FM-12+018199999V0200201N001019999999N0000001N9+01501+99999100341ADDGF104991999999999999999999
0029028360999991925063020004+67367+026650FM-12+018199999V0201601N001019999999N0000001N9+01441+99999100421ADDGF100991999999999999999999
0046028360999991925070106004+67367+026650FM-12+018199999V0202001N003119999999N0000001N9+01441+99999100631ADDAJ100009199999999GF101991999999999999999999
0029028360999991925070113004+67367+026650FM-12+018199999V0202001N001019999999N0000001N9+02061+99999100511ADDGF104991999999999999999999
0029028360999991925070120004+67367+026650FM-12+018199999V0202001N003119999999N0000001N9+01891+99999100431ADDGF100991999999999999999999
0046028360999991925070206004+67367+026650FM-12+018199999V0202001N001019999999N0000001N9+02001+99999100631ADDAJ100009199999999GF102991999999999999999999
0029028360999991925070213004+67367+026650FM-12+018199999V0202301N003119999999N0000001N9+02391+99999100501ADDGF106991999999999999999999
0029028360999991925070220004+67367+026650FM-12+018199999V0202001N001019999999N0000001N9+02061+99999100431ADDGF100991999999999999999999
0046028360999991925070306004+67367+026650FM-12+018199999V0202501N001019999999N0000001N9+02221+99999100441ADDAJ100009199999999GF100991999999999999999999
0029028360999991925070313004+67367+026650FM-12+018199999V0202701N003119999999N0000001N9+02671+99999100301ADDGF101991999999999999999999
0029028360999991925070320004+67367+026650FM-12+018199999V0202001N001019999999N0000001N9+02111+99999100141ADDGF100991999999999999999999
0046028360999991925070406004+67367+026650FM-12+018199999V0202001N001019999999N0000001N9+02281+99999100161ADDAJ100009199999999GF100991999999999999999999
0029028360999991925070413004+67367+026650FM-12+018199999V0201401N001019999999N0000001N9+02781+99999100061ADDGF104991999999999999999999
0029028360999991925070420004+67367+026650FM-12+018199999V0200501N001019999999N0000001N9+02111+99999099921ADDGF105991999999999999999999
0046028360999991925070506004+67367+026650FM-12+018199999V0202001N003119999999N0000001N9+02331+99999099881ADDAJ100009199999999GF108991999999999999999999
0029028360999991925070513004+67367+026650FM-12+018199999V0202301N005119999999N0000001N9+02671+99999099711ADDGF107991999999999999999999
0029028360999991925070520004+67367+026650FM-12+018199999V0209991C000019999999N0000001N9+02171+99999099471ADDGF106991999999999999999999
0065028360999991925070606004+67367+026650FM-12+018199999V0209991C000019999999N0000001N9+02171+99999099311ADDAJ100009199999999GF108991999999999999999999EQDQ01+000702PRSWM1
0048028360999991925070613004+67367+026650FM-12+018199999V0202301N001019999999N0000001N9+02281+99999099201ADDGF108991999999999999999999EQDQ01+000722PRSWM1
0029028360999991925070620004+67367+026650FM-12+018199999V0202001N001019999999N0000001N9+01831+99999099071ADDGF108991999999999999999999
0046028360999991925070706004+67367+026650FM-12+018199999V0202001N001019999999N0000001N9+02171+99999099001ADDAJ100009199999999GF108991999999999999999999
0029028360999991925070713004+67367+026650FM-12+018199999V0200201N001019999999N0000001N9+02221+99999098871ADDGF108991999999999999999999
0029028360999991925070720004+67367+026650FM-12+018199999V0201801N003119999999N0000001N9+02221+99999098871ADDGF106991999999999999999999
0046028360999991925070806004+67367+026650FM-12+018199999V0201801N001019999999N0000001N9+02331+99999098751ADDAJ100009199999999GF100991999999999999999999
0029028360999991925070813004+67367+026650FM-12+018199999V0202701N001019999999N0000001N9+02671+99999098641ADDGF106991999999999999999999
0029028360999991925070820004+67367+026650FM-12+018199999V0209991C000019999999N0000001N9+02331+99999098591ADDGF101991999999999999999999
0046028360999991925070906004+67367+026650FM-12+018199999V0202301N001019999999N0000001N9+02441+99999098721ADDAJ100009199999999GF100991999999999999999999
0035028360999991925070913004+67367+026650FM-12+018199999V0202501N003119999999N0000001N9+03111+99999098561ADDGF106991999999999999999999MW1171
0035028360999991925070920004+67367+026650FM-12+018199999V0202301N001019999999N0000001N9+02171+99999098581ADDGF108991999999999999999999MW1621
0046028360999991925071006004+67367+026650FM-12+018199999V0201801N001019999999N0000001N9+02441+99999098621ADDAJ100009199999999GF100991999999999999999999
0029028360999991925071013004+67367+026650FM-12+018199999V0202001N003119999999N0000001N9+02891+99999098381ADDGF104991999999999999999999
0035028360999991925071020004+67367+026650FM-12+018199999V0209991C000019999999N0000001N9+01831+99999098501ADDGF108991999999999999999999MW1621
0046028360999991925071106004+67367+026650FM-12+018199999V0201801N003119999999N0000001N9+01671+99999098461ADDAJ100009199999999GF107991999999999999999999
0029028360999991925071113004+67367+026650FM-12+018199999V0202001N005119999999N0000001N9+01781+99999098641ADDGF106991999999999999999999
0029028360999991925071120004+67367+026650FM-12+018199999V0202301N003119999999N0000001N9+01561+99999098911ADDGF101991999999999999999999
0046028360999991925071206004+67367+026650FM-12+018199999V0201801N005119999999N0000001N9+01331+99999098921ADDAJ100009199999999GF108991999999999999999999
0029028360999991925071213004+67367+026650FM-12+018199999V0202301N007219999999N0000001N9+01611+99999099071ADDGF108991999999999999999999
0029028360999991925071220004+67367+026650FM-12+018199999V0202901N001019999999N0000001N9+01331+99999099341ADDGF108991999999999999999999
0046028360999991925071306004+67367+026650FM-12+018199999V0203601N003119999999N0000001N9+01281+99999099671ADDAJ100009199999999GF108991999999999999999999
0029028360999991925071313004+67367+026650FM-12+018199999V0203401N003119999999N0000001N9+01721+99999099791ADDGF108991999999999999999999
0035028360999991925071320004+67367+026650FM-12+018199999V0202701N004119999999N0000001N9+01501+99999099911ADDGF108991999999999999999999MW1621
0046028360999991925071406004+67367+026650FM-12+018199999V0200501N003119999999N0000001N9+01221+99999100361ADDAJ100009199999999GF108991999999999999999999
0029028360999991925071413004+67367+026650FM-12+018199999V0201801N001019999999N0000001N9+01671+99999100361ADDGF108991999999999999999999
0029028360999991925071420004+67367+026650FM-12+018199999V0209991C000019999999N0000001N9+01391+99999100351ADDGF108991999999999999999999
0046028360999991925071506004+67367+026650FM-12+018199999V0201801N003119999999N0000001N9+01281+99999100391ADDAJ100009199999999GF108991999999999999999999
0029028360999991925071513004+67367+026650FM-12+018199999V0200201N003119999999N0000001N9+01781+99999100231ADDGF108991999999999999999999
0029028360999991925071520004+67367+026650FM-12+018199999V0200901N001019999999N0000001N9+01441+99999100071ADDGF100991999999999999999999
0046028360999991925071606004+67367+026650FM-12+018199999V0200901N003119999999N0000001N9+01331+99999999999ADDAJ100009199999999GF102991999999999999999999
0029028360999991925071613004+67367+026650FM-12+018199999V0200901N001019999999N0000001N9+01891+99999099831ADDGF106991999999999999999999
0029028360999991925071620004+67367+026650FM-12+018199999V0209991C000019999999N0000001N9+01671+99999099721ADDGF102991999999999999999999
0046028360999991925071706004+67367+026650FM-12+018199999V0202701N001019999999N0000001N9+01671+99999099791ADDAJ100009199999999GF101991999999999999999999
0029028360999991925071713004+67367+026650FM-12+018199999V0200901N001019999999N0000001N9+02281+99999099681ADDGF104991999999999999999999
0029028360999991925071720004+67367+026650FM-12+018199999V0209991C000019999999N0000001N9+01831+99999099541ADDGF100991999999999999999999
0046028360999991925071806004+67367+026650FM-12+018199999V0200901N001019999999N0000001N9+01891+99999099591ADDAJ100009199999999GF100991999999999999999999
0029028360999991925071813004+67367+026650FM-12+018199999V0201801N001019999999N0000001N9+02561+99999099461ADDGF101991999999999999999999
0029028360999991925071820004+67367+026650FM-12+018199999V0209991C000019999999N0000001N9+01671+99999099361ADDGF100991999999999999999999
0046028360999991925071906004+67367+026650FM-12+018199999V0209991C000019999999N0000001N9+02171+99999099381ADDAJ100009199999999GF100991999999999999999999
0029028360999991925071913004+67367+026650FM-12+018199999V0202701N005119999999N0000001N9+02611+99999099221ADDGF108991999999999999999999
0029028360999991925071920004+67367+026650FM-12+018199999V0202901N003119999999N0000001N9+01941+99999099321ADDGF108991999999999999999999
0046028360999991925072006004+67367+026650FM-12+018199999V0203201N003119999999N0000001N9+01561+99999099561ADDAJ100009199999999GF108991999999999999999999
0029028360999991925072013004+67367+026650FM-12+018199999V0203401N005119999999N0000001N9+01721+99999099781ADDGF108991999999999999999999
0029028360999991925072020004+67367+026650FM-12+018199999V0203601N001019999999N0000001N9+01331+99999099921ADDGF108991999999999999999999
0046028360999991925072106004+67367+026650FM-12+018199999V0201801N003119999999N0000001N9+01611+99999100041ADDAJ100009199999999GF102991999999999999999999
0029028360999991925072113004+67367+026650FM-12+018199999V0202701N004119999999N0000001N9+02441+99999099991ADDGF108991999999999999999999
0029028360999991925072120004+67367+026650FM-12+018199999V0202501N003119999999N0000001N9+02001+99999099961ADDGF108991999999999999999999
0029028360999991925072213004+67367+026650FM-12+018199999V0202701N005119999999N0000001N9+02831+99999099781ADDGF108991999999999999999999
0029028360999991925072220004+67367+026650FM-12+018199999V0202001N004119999999N0000001N9+01831+99999099711ADDGF108991999999999999999999
0046028360999991925072306004+67367+026650FM-12+018199999V0202001N001019999999N0000001N9+02111+99999099621ADDAJ100009199999999GF102991999999999999999999
0029028360999991925072313004+67367+026650FM-12+018199999V0202501N007219999999N0000001N9+02721+99999099381ADDGF101991999999999999999999
0035028360999991925072320004+67367+026650FM-12+018199999V0202701N004119999999N0000001N9+02061+99999099161ADDGF108991999999999999999999MW1621
0046028360999991925072406004+67367+026650FM-12+018199999V0202901N005119999999N0000001N9+01891+99999098961ADDAJ100009199999999GF100991999999999999999999
0029028360999991925072413004+67367+026650FM-12+018199999V0202701N005119999999N0000001N9+02061+99999098901ADDGF103991999999999999999999
0029028360999991925072420004+67367+026650FM-12+018199999V0202901N003119999999N0000001N9+01501+99999099041ADDGF100991999999999999999999
0046028360999991925072506004+67367+026650FM-12+018199999V0203201N005119999999N0000001N9+01111+99999099461ADDAJ100009199999999GF100991999999999999999999
0029028360999991925072513004+67367+026650FM-12+018199999V0203201N005119999999N0000001N9+01561+99999099741ADDGF102991999999999999999999
0029028360999991925072520004+67367+026650FM-12+018199999V0203201N001019999999N0000001N9+01171+99999099961ADDGF100991999999999999999999
0046028360999991925072606004+67367+026650FM-12+018199999V0202001N003119999999N0000001N9+01111+99999100111ADDAJ100009199999999GF108991999999999999999999
0029028360999991925072613004+67367+026650FM-12+018199999V0202001N005119999999N0000001N9+01891+99999099631ADDGF108991999999999999999999
0029028360999991925072620004+67367+026650FM-12+018199999V0201801N001019999999N0000001N9+01391+99999099161ADDGF108991999999999999999999
0046028360999991925072706004+67367+026650FM-12+018199999V0202001N005119999999N0000001N9+01941+99999098721ADDAJ100009199999999GF108991999999999999999999
0029028360999991925072713004+67367+026650FM-12+018199999V0202301N008719999999N0000001N9+02721+99999098521ADDGF106991999999999999999999
0035028360999991925072720004+67367+026650FM-12+018199999V0203201N001019999999N0000001N9+01611+99999098581ADDGF108991999999999999999999MW1621
0046028360999991925072806004+67367+026650FM-12+018199999V0202301N003119999999N0000001N9+01941+99999098191ADDAJ100009199999999GF108991999999999999999999
0035028360999991925072813004+67367+026650FM-12+018199999V0203201N003119999999N0000001N9+02561+99999098121ADDGF108991999999999999999999MW1171
0035028360999991925072820004+67367+026650FM-12+018199999V0203601N005119999999N0000001N9+01171+99999098241ADDGF108991999999999999999999MW1621
0052028360999991925072906004+67367+026650FM-12+018199999V0200201N003119999999N0000001N9+01001+99999098321ADDAJ100009199999999GF108991999999999999999999MW1621
0035028360999991925072913004+67367+026650FM-12+018199999V0200201N003119999999N0000001N9+01001+99999098541ADDGF108991999999999999999999MW1621
0029028360999991925072920004+67367+026650FM-12+018199999V0200501N003119999999N0000001N9+01061+99999098621ADDGF108991999999999999999999
0046028360999991925073006004+67367+026650FM-12+018199999V0203601N001019999999N0000001N9+01061+99999098511ADDAJ100009199999999GF108991999999999999999999
0035028360999991925073013004+67367+026650FM-12+018199999V0203201N003119999999N0000001N9+01281+99999098421ADDGF108991999999999999999999MW1621
0029028360999991925073020004+67367+026650FM-12+018199999V0202701N001019999999N0000001N9+01331+99999098471ADDGF108991999999999999999999
0046028360999991925073106004+67367+026650FM-12+018199999V0203201N001019999999N0000001N9+01281+99999098361ADDAJ100009199999999GF108991999999999999999999
0035028360999991925073113004+67367+026650FM-12+018199999V0201401N001019999999N0000001N9+01941+99999098281ADDGF108991999999999999999999MW1601
0029028360999991925073120004+67367+026650FM-12+018199999V0209991C000019999999N0000001N9+01611+99999098231ADDGF104991999999999999999999
0046028360999991925080106004+67367+026650FM-12+018199999V0203201N001019999999N0000001N9+01671+99999098151ADDAJ100009199999999GF101991999999999999999999
0029028360999991925080113004+67367+026650FM-12+018199999V0203601N001019999999N0000001N9+01941+99999098041ADDGF108991999999999999999999
0029028360999991925080120004+67367+026650FM-12+018199999V0200501N004119999999N0000001N9+01611+99999098071ADDGF106991999999999999999999
0046028360999991925080206004+67367+026650FM-12+018199999V0200201N002119999999N0000001N9+00781+99999098271ADDAJ100009199999999GF108991999999999999999999
0029028360999991925080213004+67367+026650FM-12+018199999V0200501N005119999999N0000001N9+01281+99999098351ADDGF108991999999999999999999
0029028360999991925080220004+67367+026650FM-12+018199999V0200501N004119999999N0000001N9+01001+99999098521ADDGF108991999999999999999999
0052028360999991925080306004+67367+026650FM-12+018199999V0203601N003119999999N0000001N9+00781+99999098591ADDAJ100009199999999GF108991999999999999999999MW1601
0029028360999991925080313004+67367+026650FM-12+018199999V0200501N003119999999N0000001N9+01111+99999098581ADDGF108991999999999999999999
0035028360999991925080320004+67367+026650FM-12+018199999V0200201N004119999999N0000001N9+01001+99999098521ADDGF108991999999999999999999MW1601
0052028360999991925080406004+67367+026650FM-12+018199999V0200501N003119999999N0000001N9+00831+99999098431ADDAJ100009199999999GF108991999999999999999999MW1601
0035028360999991925080413004+67367+026650FM-12+018199999V0201401N003119999999N0000001N9+01111+99999098511ADDGF108991999999999999999999MW1601
0029028360999991925080420004+67367+026650FM-12+018199999V0201401N003119999999N0000001N9+01111+99999098581ADDGF108991999999999999999999
0046028360999991925080506004+67367+026650FM-12+018199999V0201401N003119999999N0000001N9+01061+99999098561ADDAJ100009199999999GF108991999999999999999999
0029028360999991925080513004+67367+026650FM-12+018199999V0200901N003119999999N0000001N9+01331+99999098511ADDGF108991999999999999999999
0029028360999991925080520004+67367+026650FM-12+018199999V0200501N003119999999N0000001N9+01171+99999098421ADDGF108991999999999999999999
0046028360999991925080606004+67367+026650FM-12+018199999V0203601N007219999999N0000001N9+00721+99999098321ADDAJ100009199999999GF108991999999999999999999
0029028360999991925080613004+67367+026650FM-12+018199999V0200201N005119999999N0000001N9+01281+99999098311ADDGF108991999999999999999999
0029028360999991925080620004+67367+026650FM-12+018199999V0200201N005119999999N0000001N9+01001+99999098501ADDGF108991999999999999999999
0046028360999991925080706004+67367+026650FM-12+018199999V0203601N003119999999N0000001N9+00611+99999098921ADDAJ100009199999999GF102991999999999999999999
0029028360999991925080713004+67367+026650FM-12+018199999V0203601N001019999999N0000001N9+01441+99999098981ADDGF100991999999999999999999
0029028360999991925080720004+67367+026650FM-12+018199999V0209991C000019999999N0000001N9+00781+99999099071ADDGF100991999999999999999999
0046028360999991925080806004+67367+026650FM-12+018199999V0203401N001019999999N0000001N9+00831+99999099311ADDAJ100009199999999GF100991999999999999999999
0029028360999991925080813004+67367+026650FM-12+018199999V0202701N003119999999N0000001N9+01831+99999099271ADDGF107991999999999999999999
0029028360999991925080820004+67367+026650FM-12+018199999V0202701N001019999999N0000001N9+01221+99999099311ADDGF108991999999999999999999
0046028360999991925080906004+67367+026650FM-12+018199999V0209991C000019999999N0000001N9+01331+99999099391ADDAJ100009199999999GF100991999999999999999999
0029028360999991925080913004+67367+026650FM-12+018199999V0203201N005119999999N0000001N9+02111+99999099541ADDGF104991999999999999999999
0029028360999991925080920004+67367+026650FM-12+018199999V0202901N001019999999N0000001N9+01221+99999099561ADDGF102991999999999999999999
0046028360999991925081006004+67367+026650FM-12+018199999V0202001N001019999999N0000001N9+01441+99999099641ADDAJ100009199999999GF100991999999999999999999
0029028360999991925081013004+67367+026650FM-12+018199999V0201801N005119999999N0000001N9+02171+99999099401ADDGF104991999999999999999999
0029028360999991925081020004+67367+026650FM-12+018199999V0202301N001019999999N0000001N9+01331+99999099231ADDGF108991999999999999999999
0052028360999991925081106004+67367+026650FM-12+018199999V0201601N005119999999N0000001N9+01331+99999098721ADDAJ100009199999999GF108991999999999999999999MW1621
0035028360999991925081113004+67367+026650FM-12+018199999V0201601N005119999999N0000001N9+01441+99999098441ADDGF108991999999999999999999MW1621
0035028360999991925081120004+67367+026650FM-12+018199999V0201801N005119999999N0000001N9+01441+99999098271ADDGF108991999999999999999999MW1621
0046028360999991925081206004+67367+026650FM-12+018199999V0202301N001019999999N0000001N9+01501+99999098261ADDAJ100009199999999GF108991999999999999999999
0035028360999991925081213004+67367+026650FM-12+018199999V0203201N001019999999N0000001N9+01391+99999098551ADDGF108991999999999999999999MW1641
0029028360999991925081220004+67367+026650FM-12+018199999V0202501N003119999999N0000001N9+01331+99999098951ADDGF108991999999999999999999
0046028360999991925081306004+67367+026650FM-12+018199999V0202501N003119999999N0000001N9+01331+99999099581ADDAJ100009199999999GF108991999999999999999999
0029028360999991925081313004+67367+026650FM-12+018199999V0202301N005119999999N0000001N9+01781+99999099581ADDGF108991999999999999999999
0029028360999991925081320004+67367+026650FM-12+018199999V0202001N004119999999N0000001N9+01281+99999099391ADDGF108991999999999999999999
0052028360999991925081406004+67367+026650FM-12+018199999V0202001N003119999999N0000001N9+01281+99999098901ADDAJ100009199999999GF108991999999999999999999MW1621
0029028360999991925081413004+67367+026650FM-12+018199999V0202001N003119999999N0000001N9+01721+99999098821ADDGF108991999999999999999999
0029028360999991925081420004+67367+026650FM-12+018199999V0202001N003119999999N0000001N9+01501+99999098721ADDGF108991999999999999999999
0046028360999991925081506004+67367+026650FM-12+018199999V0201801N001019999999N0000001N9+01441+99999098671ADDAJ100009199999999GF108991999999999999999999
0029028360999991925081513004+67367+026650FM-12+018199999V0202001N007219999999N0000001N9+01941+99999098701ADDGF107991999999999999999999
0029028360999991925081520004+67367+026650FM-12+018199999V0202001N001019999999N0000001N9+01171+99999098761ADDGF108991999999999999999999
0052028360999991925081606004+67367+026650FM-12+018199999V0203601N003119999999N0000001N9+01331+99999098621ADDAJ100009199999999GF108991999999999999999999MW1621
0035028360999991925081613004+67367+026650FM-12+018199999V0200701N003119999999N0000001N9+01501+99999098501ADDGF108991999999999999999999MW1621
0035028360999991925081620004+67367+026650FM-12+018199999V0200501N003119999999N0000001N9+01501+99999098261ADDGF108991999999999999999999MW1621
0046028360999991925081706004+67367+026650FM-12+018199999V0201401N005119999999N0000001N9+01441+99999098151ADDAJ100009199999999GF108991999999999999999999
0029028360999991925081713004+67367+026650FM-12+018199999V0200901N001019999999N0000001N9+01671+99999098181ADDGF108991999999999999999999
0035028360999991925081720004+67367+026650FM-12+018199999V0200501N001019999999N0000001N9+01561+99999098111ADDGF108991999999999999999999MW1601
0046028360999991925081806004+67367+026650FM-12+018199999V0200201N005119999999N0000001N9+01561+99999098001ADDAJ100009199999999GF108991999999999999999999
0035028360999991925081813004+67367+026650FM-12+018199999V0200201N003119999999N0000001N9+01561+99999098031ADDGF108991999999999999999999MW1621
0035028360999991925081820004+67367+026650FM-12+018199999V0203601N003119999999N0000001N9+01171+99999098221ADDGF108991999999999999999999MW1621
0052028360999991925081906004+67367+026650FM-12+018199999V0200501N005119999999N0000001N9+00941+99999098281ADDAJ100009199999999GF108991999999999999999999MW1621
0035028360999991925081913004+67367+026650FM-12+018199999V0200501N005119999999N0000001N9+00941+99999098471ADDGF108991999999999999999999MW1621
0029028360999991925081920004+67367+026650FM-12+018199999V0203601N003119999999N0000001N9+00831+99999098541ADDGF108991999999999999999999
0046028360999991925082006004+67367+026650FM-12+018199999V0203601N003119999999N0000001N9+00721+99999098701ADDAJ100009199999999GF108991999999999999999999
0029028360999991925082013004+67367+026650FM-12+018199999V0203601N005119999999N0000001N9+01001+99999098921ADDGF108991999999999999999999
0029028360999991925082020004+67367+026650FM-12+018199999V0200501N005119999999N0000001N9+00721+99999099031ADDGF108991999999999999999999
0046028360999991925082106004+67367+026650FM-12+018199999V0200201N005119999999N0000001N9+00561+99999099271ADDAJ100009199999999GF108991999999999999999999
0029028360999991925082113004+67367+026650FM-12+018199999V0200501N003119999999N0000001N9+01281+99999099321ADDGF100991999999999999999999
0029028360999991925082120004+67367+026650FM-12+018199999V0203601N001019999999N0000001N9+00501+99999099511ADDGF104991999999999999999999
0029028360999991925082213004+67367+026650FM-12+018199999V0203401N001019999999N0000001N9+01331+99999099821ADDGF101991999999999999999999
0029028360999991925082220004+67367+026650FM-12+018199999V0209991C000019999999N0000001N9+00561+99999099831ADDGF100991999999999999999999
0046028360999991925082306004+67367+026650FM-12+018199999V0202301N001019999999N0000001N9+00781+99999100031ADDAJ100009199999999GF100991999999999999999999
0029028360999991925082313004+67367+026650FM-12+018199999V0202301N001019999999N0000001N9+01721+99999099991ADDGF100991999999999999999999
0029028360999991925082320004+67367+026650FM-12+018199999V0209991C000019999999N0000001N9+00671+99999100031ADDGF100991999999999999999999
0046028360999991925082406004+67367+026650FM-12+018199999V0202701N001019999999N0000001N9+00781+99999100121ADDAJ100009199999999GF100991999999999999999999
0029028360999991925082413004+67367+026650FM-12+018199999V0202301N003119999999N0000001N9+01831+99999100041ADDGF100991999999999999999999
0029028360999991925082420004+67367+026650FM-12+018199999V0202301N002119999999N0000001N9+00721+99999999999ADDGF100991999999999999999999
0046028360999991925082506004+67367+026650FM-12+018199999V0202501N002119999999N0000001N9+00941+99999100021ADDAJ100009199999999GF100991999999999999999999
0029028360999991925082513004+67367+026650FM-12+018199999V0202701N003119999999N0000001N9+01891+99999099861ADDGF101991999999999999999999
0029028360999991925082520004+67367+026650FM-12+018199999V0209991C000019999999N0000001N9+00721+99999099841ADDGF100991999999999999999999
0046028360999991925082606004+67367+026650FM-12+018199999V0209991C000019999999N0000001N9+00941+99999099991ADDAJ100009199999999GF100991999999999999999999
0029028360999991925082613004+67367+026650FM-12+018199999V0202001N003119999999N0000001N9+02001+99999100021ADDGF100991999999999999999999
0029028360999991925082620004+67367+026650FM-12+018199999V0202301N001019999999N0000001N9+00721+99999100031ADDGF101991999999999999999999
0046028360999991925082706004+67367+026650FM-12+018199999V0202301N001019999999N0000001N9+00721+99999100181ADDAJ100009199999999GF100991999999999999999999
0029028360999991925082713004+67367+026650FM-12+018199999V0202301N005119999999N0000001N9+02061+99999100081ADDGF102991999999999999999999
0029028360999991925082720004+67367+026650FM-12+018199999V0209991C000019999999N0000001N9+00941+99999100031ADDGF103991999999999999999999
0046028360999991925082806004+67367+026650FM-12+018199999V0201801N004119999999N0000001N9+00831+99999099961ADDAJ100009199999999GF100991999999999999999999
0029028360999991925082813004+67367+026650FM-12+018199999V0201601N003119999999N0000001N9+01891+99999099601ADDGF101991999999999999999999
0029028360999991925082820004+67367+026650FM-12+018199999V0200901N001019999999N0000001N9+00721+99999099471ADDGF107991999999999999999999
0046028360999991925082906004+67367+026650FM-12+018199999V0202001N003119999999N0000001N9+00781+99999099241ADDAJ100009199999999GF107991999999999999999999
0029028360999991925082913004+67367+026650FM-12+018199999V0201601N003119999999N0000001N9+01561+99999098941ADDGF108991999999999999999999
0029028360999991925082920004+67367+026650FM-12+018199999V0201601N001019999999N0000001N9+00941+99999098601ADDGF100991999999999999999999
0046028360999991925083006004+67367+026650FM-12+018199999V0203401N001019999999N0000001N9+01001+99999098081ADDAJ100009199999999GF108991999999999999999999
0035028360999991925083013004+67367+026650FM-12+018199999V0209991C000019999999N0000001N9+01221+99999098041ADDGF108991999999999999999999MW1621
