0029028360999991926010106004+67367+026650FM-12+018199999V0203201N003119999999N0000001N9-01061+99999096231ADDGF108991999999999999999999
0035028360999991926010113004+67367+026650FM-12+018199999V0203201N001019999999N0000001N9-01611+99999096821ADDGF108991999999999999999999MW1701
0029028360999991926010120004+67367+026650FM-12+018199999V0200701N001019999999N0000001N9-02561+99999097281ADDGF108991999999999999999999
0029028360999991926010206004+67367+026650FM-12+018199999V0203601N001019999999N0000001N9-02831+99999097481ADDGF108991999999999999999999
0029028360999991926010213004+67367+026650FM-12+018199999V0202001N003119999999N0000001N9-02671+99999097591ADDGF108991999999999999999999
0029028360999991926010220004+67367+026650FM-12+018199999V0201601N003119999999N0000001N9-02001+99999097621ADDGF108991999999999999999999
0035028360999991926010306004+67367+026650FM-12+018199999V0203601N001019999999N0000001N9-01501+99999097561ADDGF108991999999999999999999MW1721
0029028360999991926010313004+67367+026650FM-12+018199999V0200701N002119999999N0000001N9-02781+99999097951ADDGF100991999999999999999999
0029028360999991926010320004+67367+026650FM-12+018199999V0209991C000019999999N0000001N9-01061+99999098361ADDGF102991999999999999999999
0029028360999991926010406004+67367+026650FM-12+018199999V0209991C000019999999N0000001N9-02891+99999098941ADDGF108991999999999999999999
0029028360999991926010413004+67367+026650FM-12+018199999V0201801N001019999999N0000001N9-02891+99999099141ADDGF108991999999999999999999
0029028360999991926010420004+67367+026650FM-12+018199999V0201801N001019999999N0000001N9-01941+99999099181ADDGF108991999999999999999999
0029028360999991926010506004+67367+026650FM-12+018199999V0203601N001019999999N0000001N9-02721+99999099431ADDGF108991999999999999999999
0029028360999991926010513004+67367+026650FM-12+018199999V0209991C000019999999N0000001N9-03001+99999100031ADDGF101991999999999999999999
0035028360999991926010520004+67367+026650FM-12+018199999V0200501N001019999999N0000001N9-03171+99999100521ADDGF100991999999999999999999MW1001
0029028360999991926010606004+67367+026650FM-12+018199999V0209991C000019999999N0000001N9-03221+99999101141ADDGF100991999999999999999999
0029028360999991926010613004+67367+026650FM-12+018199999V0202001N001019999999N0000001N9-02441+99999101431ADDGF108991999999999999999999
0029028360999991926010620004+67367+026650FM-12+018199999V0201601N002119999999N0000001N9-02061+99999101221ADDGF108991999999999999999999
0029028360999991926010706004+67367+026650FM-12+018199999V0201801N001019999999N0000001N9-02611+99999100781ADDGF108991999999999999999999
0029028360999991926010713004+67367+026650FM-12+018199999V0202001N001019999999N0000001N9-01941+99999100581ADDGF108991999999999999999999
0029028360999991926010720004+67367+026650FM-12+018199999V0201801N001019999999N0000001N9-01781+99999100441ADDGF108991999999999999999999
0029028360999991926010806004+67367+026650FM-12+018199999V0201801N001019999999N0000001N9-01561+99999100431ADDGF108991999999999999999999
0035028360999991926010813004+67367+026650FM-12+018199999V0200901N001019999999N0000001N9-01441+99999100561ADDGF108991999999999999999999MW1701
0029028360999991926010820004+67367+026650FM-12+018199999V0209991C000019999999N0000001N9-01171+99999100711ADDGF108991999999999999999999
0029028360999991926010906004+67367+026650FM-12+018199999V0203601N001019999999N0000001N9-01561+99999100791ADDGF100991999999999999999999
0029028360999991926010913004+67367+026650FM-12+018199999V0209991C000019999999N0000001N9-02111+99999100921ADDGF100991999999999999999999
0029028360999991926010920004+67367+026650FM-12+018199999V0201401N001019999999N0000001N9-02171+99999100941ADDGF100991999999999999999999
0029028360999991926011006004+67367+026650FM-12+018199999V0201801N005119999999N0000001N9-02331+99999100861ADDGF100991999999999999999999
0029028360999991926011013004+67367+026650FM-12+018199999V0201801N007219999999N0000001N9-01781+99999100661ADDGF108991999999999999999999
0035028360999991926011020004+67367+026650FM-12+018199999V0202001N005119999999N0000001N9-01561+99999100551ADDGF108991999999999999999999MW1721
0029028360999991926011106004+67367+026650FM-12+018199999V0201801N003119999999N0000001N9-01281+99999100681ADDGF105991999999999999999999
0035028360999991926011113004+67367+026650FM-12+018199999V0202001N007219999999N0000001N9-01171+99999100711ADDGF108991999999999999999999MW1861
0029028360999991926011120004+67367+026650FM-12+018199999V0201801N007219999999N0000001N9-00781+99999100481ADDGF108991999999999999999999
0029028360999991926011206004+67367+026650FM-12+018199999V0202001N007219999999N0000001N9-00391+99999100351ADDGF108991999999999999999999
0029028360999991926011213004+67367+026650FM-12+018199999V0202001N005119999999N0000001N9-00221+99999100561ADDGF108991999999999999999999
0029028360999991926011220004+67367+026650FM-12+018199999V0202301N003119999999N0000001N9-00281+99999100711ADDGF108991999999999999999999
0029028360999991926011306004+67367+026650FM-12+018199999V0202001N003119999999N0000001N9-00281+99999100841ADDGF108991999999999999999999
0029028360999991926011313004+67367+026650FM-12+018199999V0202001N004119999999N0000001N9-00281+99999100941ADDGF108991999999999999999999
0029028360999991926011320004+67367+026650FM-12+018199999V0202501N005119999999N0000001N9-00221+99999100801ADDGF108991999999999999999999
0029028360999991926011406004+67367+026650FM-12+018199999V0202001N003119999999N0000001N9-00221+99999100671ADDGF108991999999999999999999
0029028360999991926011413004+67367+026650FM-12+018199999V0202501N003119999999N0000001N9-00281+99999100821ADDGF108991999999999999999999
0029028360999991926011420004+67367+026650FM-12+018199999V0202001N007219999999N0000001N9-00391+99999100911ADDGF108991999999999999999999
0029028360999991926011506004+67367+026650FM-12+018199999V0202001N008719999999N0000001N9-00781+99999100601ADDGF108991999999999999999999
0029028360999991926011513004+67367+026650FM-12+018199999V0202001N003119999999N0000001N9-00611+99999100521ADDGF108991999999999999999999
0029028360999991926011520004+67367+026650FM-12+018199999V0201801N007219999999N0000001N9-00671+99999100261ADDGF108991999999999999999999
0029028360999991926011606004+67367+026650FM-12+018199999V0202001N007219999999N0000001N9-00781+99999099701ADDGF108991999999999999999999
0029028360999991926011613004+67367+026650FM-12+018199999V0202301N004119999999N0000001N9-00611+99999099681ADDGF108991999999999999999999
0035028360999991926011620004+67367+026650FM-12+018199999V0209991C000019999999N0000001N9-00831+99999100121ADDGF108991999999999999999999MW1001
0029028360999991926011706004+67367+026650FM-12+018199999V0203601N001019999999N0000001N9-02391+99999100621ADDGF108991999999999999999999
0029028360999991926011713004+67367+026650FM-12+018199999V0203201N003119999999N0000001N9-01831+99999100591ADDGF108991999999999999999999
0029028360999991926011720004+67367+026650FM-12+018199999V0209991C000019999999N0000001N9-01561+99999100281ADDGF108991999999999999999999
0029028360999991926011806004+67367+026650FM-12+018199999V0202001N003119999999N0000001N9-01111+99999099831ADDGF108991999999999999999999
0035028360999991926011813004+67367+026650FM-12+018199999V0202001N004119999999N0000001N9-01281+99999099831ADDGF108991999999999999999999MW1721
0035028360999991926011820004+67367+026650FM-12+018199999V0202001N001019999999N0000001N9-01111+99999099871ADDGF108991999999999999999999MW1721
0035028360999991926011906004+67367+026650FM-12+018199999V0202301N003119999999N0000001N9-01061+99999099841ADDGF108991999999999999999999MW1701
0035028360999991926011913004+67367+026650FM-12+018199999V0202001N007219999999N0000001N9-01171+99999099721ADDGF108991999999999999999999MW1701
0029028360999991926011920004+67367+026650FM-12+018199999V0202001N005119999999N0000001N9-01281+99999099551ADDGF108991999999999999999999
0029028360999991926012006004+67367+026650FM-12+018199999V0202001N006219999999N0000001N9-01061+99999099271ADDGF108991999999999999999999
0035028360999991926012013004+67367+026650FM-12+018199999V0202001N005119999999N0000001N9-01111+99999099121ADDGF108991999999999999999999MW1701
0035028360999991926012020004+67367+026650FM-12+018199999V0202001N003119999999N0000001N9-01221+99999099001ADDGF108991999999999999999999MW1701
0035028360999991926012106004+67367+026650FM-12+018199999V0202001N004119999999N0000001N9-01171+99999099031ADDGF108991999999999999999999MW1701
0035028360999991926012113004+67367+026650FM-12+018199999V0202001N005119999999N0000001N9-01001+99999099031ADDGF108991999999999999999999MW1701
0035028360999991926012120004+67367+026650FM-12+018199999V0202001N005119999999N0000001N9-01001+99999099001ADDGF108991999999999999999999MW1701
0035028360999991926012213004+67367+026650FM-12+018199999V0202001N003119999999N0000001N9-01331+99999099121ADDGF108991999999999999999999MW1721
0035028360999991926012220004+67367+026650FM-12+018199999V0202001N001019999999N0000001N9-01721+99999099071ADDGF108991999999999999999999MW1721
0029028360999991926012306004+67367+026650FM-12+018199999V0202001N001019999999N0000001N9-01611+99999098941ADDGF108991999999999999999999
0029028360999991926012313004+67367+026650FM-12+018199999V0201601N001019999999N0000001N9-02221+99999098861ADDGF100991999999999999999999
0035028360999991926012320004+67367+026650FM-12+018199999V0201601N001019999999N0000001N9-01781+99999098841ADDGF108991999999999999999999MW1701
0035028360999991926012406004+67367+026650FM-12+018199999V0202001N001019999999N0000001N9-01721+99999098631ADDGF108991999999999999999999MW1721
0035028360999991926012413004+67367+026650FM-12+018199999V0201601N001019999999N0000001N9-01171+99999098421ADDGF108991999999999999999999MW1721
0035028360999991926012420004+67367+026650FM-12+018199999V0201801N001019999999N0000001N9-01001+99999098261ADDGF108991999999999999999999MW1721
0035028360999991926012506004+67367+026650FM-12+018199999V0203201N001019999999N0000001N9-01111+99999097921ADDGF108991999999999999999999MW1701
0029028360999991926012513004+67367+026650FM-12+018199999V0203601N003119999999N0000001N9-01441+99999097911ADDGF108991999999999999999999
0029028360999991926012520004+67367+026650FM-12+018199999V0203601N001019999999N0000001N9-01061+99999097841ADDGF108991999999999999999999
0035028360999991926012606004+67367+026650FM-12+018199999V0200501N001019999999N0000001N9-01281+99999097841ADDGF108991999999999999999999MW1701
0029028360999991926012613004+67367+026650FM-12+018199999V0209991C000019999999N0000001N9-01111+99999098201ADDGF108991999999999999999999
0035028360999991926012620004+67367+026650FM-12+018199999V0209991C000019999999N0000001N9-01721+99999098751ADDGF108991999999999999999999MW1001
0029028360999991926012706004+67367+026650FM-12+018199999V0209991C000019999999N0000001N9-03001+99999099121ADDGF100991999999999999999999
0029028360999991926012713004+67367+026650FM-12+018199999V0202001N001019999999N0000001N9-02001+99999098911ADDGF108991999999999999999999
0029028360999991926012720004+67367+026650FM-12+018199999V0201801N001019999999N0000001N9-02061+99999098821ADDGF108991999999999999999999
0029028360999991926012806004+67367+026650FM-12+018199999V0201801N001019999999N0000001N9-02441+99999099201ADDGF100991999999999999999999
0029028360999991926012813004+67367+026650FM-12+018199999V0209991C000019999999N0000001N9-03061+99999099311ADDGF100991999999999999999999
0029028360999991926012820004+67367+026650FM-12+018199999V0209991C000019999999N0000001N9-03831+99999099381ADDGF100991999999999999999999
0029028360999991926012906004+67367+026650FM-12+018199999V0209991C000019999999N0000001N9-04111+99999099521ADDGF100991999999999999999999
0029028360999991926012913004+67367+026650FM-12+018199999V0209991C000019999999N0000001N9-03281+99999099501ADDGF108991999999999999999999
0029028360999991926012920004+67367+026650FM-12+018199999V0201801N003119999999N0000001N9-02391+99999099081ADDGF108991999999999999999999
0029028360999991926013006004+67367+026650FM-12+018199999V0201801N001019999999N0000001N9-02721+99999098721ADDGF101991999999999999999999
0029028360999991926013013004+67367+026650FM-12+018199999V0203601N001019999999N0000001N9-02391+99999098711ADDGF108991999999999999999999
0035028360999991926013020004+67367+026650FM-12+018199999V0201801N001019999999N0000001N9-01611+99999098511ADDGF108991999999999999999999MW1701
0029028360999991926013106004+67367+026650FM-12+018199999V0209991C000019999999N0000001N9-01501+99999098591ADDGF108991999999999999999999
0029028360999991926013113004+67367+026650FM-12+018199999V0200201N001019999999N0000001N9-01611+99999098861ADDGF108991999999999999999999
0029028360999991926013120004+67367+026650FM-12+018199999V0202001N001019999999N0000001N9-01941+99999098941ADDGF108991999999999999999999
0029028360999991926020106004+67367+026650FM-12+018199999V0202001N003119999999N0000001N9-01671+99999098681ADDGF108991999999999999999999
0029028360999991926020113004+67367+026650FM-12+018199999V0201801N004119999999N0000001N9-01221+99999098381ADDGF108991999999999999999999
0035028360999991926020120004+67367+026650FM-12+018199999V0202001N003119999999N0000001N9-01061+99999098161ADDGF108991999999999999999999MW1701
0029028360999991926020206004+67367+026650FM-12+018199999V0202001N001019999999N0000001N9-01001+99999098181ADDGF108991999999999999999999
0035028360999991926020213004+67367+026650FM-12+018199999V0209991C000019999999N0000001N9-01061+99999098471ADDGF108991999999999999999999MW1701
0035028360999991926020220004+67367+026650FM-12+018199999V0200501N001019999999N0000001N9-01061+99999098951ADDGF108991999999999999999999MW1701
0029028360999991926020306004+67367+026650FM-12+018199999V0200501N001019999999N0000001N9-01501+99999099841ADDGF101991999999999999999999
0029028360999991926020313004+67367+026650FM-12+018199999V0203201N001019999999N0000001N9-02221+99999100471ADDGF100991999999999999999999
0035028360999991926020320004+67367+026650FM-12+018199999V0203601N001019999999N0000001N9-03331+99999100841ADDGF100991999999999999999999MW1001
0029028360999991926020406004+67367+026650FM-12+018199999V0202901N001019999999N0000001N9-03781+99999101071ADDGF100991999999999999999999
0029028360999991926020413004+67367+026650FM-12+018199999V0201801N001019999999N0000001N9-03221+99999101231ADDGF101991999999999999999999
0029028360999991926020420004+67367+026650FM-12+018199999V0201801N001019999999N0000001N9-03671+99999101361ADDGF100991999999999999999999
0029028360999991926020506004+67367+026650FM-12+018199999V0201801N001019999999N0000001N9-03331+99999101471ADDGF100991999999999999999999
0029028360999991926020513004+67367+026650FM-12+018199999V0201801N001019999999N0000001N9-02221+99999101681ADDGF100991999999999999999999
0029028360999991926020520004+67367+026650FM-12+018199999V0202301N001019999999N0000001N9-02891+99999101751ADDGF100991999999999999999999
0029028360999991926020606004+67367+026650FM-12+018199999V0201801N001019999999N0000001N9-03391+99999101821ADDGF100991999999999999999999
0029028360999991926020613004+67367+026650FM-12+018199999V0201801N003119999999N0000001N9-02171+99999101861ADDGF100991999999999999999999
0029028360999991926020620004+67367+026650FM-12+018199999V0201801N001019999999N0000001N9-02441+99999101721ADDGF100991999999999999999999
0029028360999991926020706004+67367+026650FM-12+018199999V0201801N003119999999N0000001N9-02561+99999101481ADDGF103991999999999999999999
0029028360999991926020713004+67367+026650FM-12+018199999V0202301N005119999999N0000001N9-01941+99999101441ADDGF108991999999999999999999
0029028360999991926020720004+67367+026650FM-12+018199999V0201801N001019999999N0000001N9-02001+99999101481ADDGF103991999999999999999999
0029028360999991926020806004+67367+026650FM-12+018199999V0201801N001019999999N0000001N9-03331+99999101631ADDGF100991999999999999999999
0029028360999991926020813004+67367+026650FM-12+018199999V0202301N001019999999N0000001N9-02171+99999101621ADDGF100991999999999999999999
0029028360999991926020820004+67367+026650FM-12+018199999V0202301N001019999999N0000001N9-02281+99999101431ADDGF100991999999999999999999
0029028360999991926020906004+67367+026650FM-12+018199999V0202001N001019999999N0000001N9-02441+99999101191ADDGF100991999999999999999999
0029028360999991926020913004+67367+026650FM-12+018199999V0201401N001019999999N0000001N9-02171+99999101151ADDGF108991999999999999999999
0035028360999991926020920004+67367+026650FM-12+018199999V0201801N001019999999N0000001N9-02611+99999101071ADDGF100991999999999999999999MW1001
0029028360999991926021006004+67367+026650FM-12+018199999V0201801N001019999999N0000001N9-02611+99999100881ADDGF104991999999999999999999
0029028360999991926021013004+67367+026650FM-12+018199999V0201801N002119999999N0000001N9-02111+99999100821ADDGF100991999999999999999999
0035028360999991926021020004+67367+026650FM-12+018199999V0201801N001019999999N0000001N9-03221+99999100701ADDGF100991999999999999999999MW1001
0029028360999991926021106004+67367+026650FM-12+018199999V0200501N001019999999N0000001N9-03171+99999100041ADDGF107991999999999999999999
0029028360999991926021113004+67367+026650FM-12+018199999V0201801N001019999999N0000001N9-01391+99999099391ADDGF108991999999999999999999
0035028360999991926021120004+67367+026650FM-12+018199999V0201801N001019999999N0000001N9-01281+99999098921ADDGF108991999999999999999999MW1701
0029028360999991926021206004+67367+026650FM-12+018199999V0202301N005119999999N0000001N9-01171+99999098031ADDGF108991999999999999999999
0035028360999991926021213004+67367+026650FM-12+018199999V0202501N009819999999N0000001N9-00891+99999097801ADDGF108991999999999999999999MW1721
0029028360999991926021220004+67367+026650FM-12+018199999V0202001N003119999999N0000001N9-00941+99999098231ADDGF100991999999999999999999
0029028360999991926021306004+67367+026650FM-12+018199999V0201801N003119999999N0000001N9-01171+99999098241ADDGF108991999999999999999999
0029028360999991926021313004+67367+026650FM-12+018199999V0201801N001019999999N0000001N9-00561+99999098481ADDGF108991999999999999999999
0029028360999991926021320004+67367+026650FM-12+018199999V0201601N001019999999N0000001N9-01001+99999099221ADDGF100991999999999999999999
0029028360999991926021406004+67367+026650FM-12+018199999V0201801N001019999999N0000001N9-02171+99999099681ADDGF108991999999999999999999
0029028360999991926021413004+67367+026650FM-12+018199999V0202001N003119999999N0000001N9-01221+99999099621ADDGF106991999999999999999999
0029028360999991926021420004+67367+026650FM-12+018199999V0201801N003119999999N0000001N9-00831+99999099381ADDGF108991999999999999999999
0029028360999991926021506004+67367+026650FM-12+018199999V0201801N003119999999N0000001N9-01061+99999098841ADDGF108991999999999999999999
0029028360999991926021513004+67367+026650FM-12+018199999V0202001N004119999999N0000001N9-00781+99999098351ADDGF108991999999999999999999
0029028360999991926021520004+67367+026650FM-12+018199999V0201801N001019999999N0000001N9-01171+99999098271ADDGF108991999999999999999999
0029028360999991926021606004+67367+026650FM-12+018199999V0201401N002119999999N0000001N9-01171+99999098201ADDGF108991999999999999999999
0035028360999991926021613004+67367+026650FM-12+018199999V0202501N004119999999N0000001N9-00891+99999097951ADDGF108991999999999999999999MW1861
0035028360999991926021620004+67367+026650FM-12+018199999V0200201N001019999999N0000001N9-01061+99999098001ADDGF108991999999999999999999MW1861
0029028360999991926021706004+67367+026650FM-12+018199999V0201801N001019999999N0000001N9-02061+99999098271ADDGF108991999999999999999999
0029028360999991926021713004+67367+026650FM-12+018199999V0201601N006219999999N0000001N9-01001+99999098271ADDGF108991999999999999999999
0029028360999991926021720004+67367+026650FM-12+018199999V0201801N003119999999N0000001N9-00941+99999097951ADDGF108991999999999999999999
0029028360999991926021806004+67367+026650FM-12+018199999V0202001N004119999999N0000001N9-00441+99999097461ADDGF108991999999999999999999
0029028360999991926021813004+67367+026650FM-12+018199999V0202001N003119999999N0000001N9-00171+99999097241ADDGF108991999999999999999999
0035028360999991926021820004+67367+026650FM-12+018199999V0202901N003119999999N0000001N9-00391+99999097021ADDGF108991999999999999999999MW1701
0035028360999991926021906004+67367+026650FM-12+018199999V0200501N007219999999N0000001N9-01111+99999097481ADDGF108991999999999999999999MW1861
0029028360999991926021913004+67367+026650FM-12+018199999V0200201N005119999999N0000001N9-01281+99999098191ADDGF108991999999999999999999
0035028360999991926021920004+67367+026650FM-12+018199999V0203201N003119999999N0000001N9-01501+99999098911ADDGF108991999999999999999999MW1721
0029028360999991926022006004+67367+026650FM-12+018199999V0203601N001019999999N0000001N9-03111+99999099791ADDGF100991999999999999999999
0029028360999991926022013004+67367+026650FM-12+018199999V0203201N001019999999N0000001N9-02061+99999100081ADDGF100991999999999999999999
0029028360999991926022020004+67367+026650FM-12+018199999V0201601N001019999999N0000001N9-03781+99999099991ADDGF102991999999999999999999
0035028360999991926022106004+67367+026650FM-12+018199999V0202001N003119999999N0000001N9-02281+99999099641ADDGF108991999999999999999999MW1721
0035028360999991926022113004+67367+026650FM-12+018199999V0203601N001019999999N0000001N9-01671+99999099641ADDGF108991999999999999999999MW1721
0035028360999991926022120004+67367+026650FM-12+018199999V0203601N001019999999N0000001N9-03391+99999099881ADDGF100991999999999999999999MW1001
0029028360999991926022206004+67367+026650FM-12+018199999V0201801N001019999999N0000001N9-03221+99999100021ADDGF108991999999999999999999
0029028360999991926022213004+67367+026650FM-12+018199999V0201801N006219999999N0000001N9-01611+99999099721ADDGF108991999999999999999999
0029028360999991926022220004+67367+026650FM-12+018199999V0202301N008719999999N0000001N9-01831+99999099381ADDGF108991999999999999999999
0035028360999991926022306004+67367+026650FM-12+018199999V0202001N007219999999N0000001N9-01501+99999098711ADDGF108991999999999999999999MW1721
0035028360999991926022313004+67367+026650FM-12+018199999V0202001N003119999999N0000001N9-00941+99999098241ADDGF108991999999999999999999MW1721
0035028360999991926022320004+67367+026650FM-12+018199999V0201801N004119999999N0000001N9-00561+99999098121ADDGF108991999999999999999999MW1721
0035028360999991926022406004+67367+026650FM-12+018199999V0201801N001019999999N0000001N9-00441+99999098161ADDGF108991999999999999999999MW1701
0029028360999991926022413004+67367+026650FM-12+018199999V0202501N003119999999N0000001N9-00281+99999099021ADDGF108991999999999999999999
0029028360999991926022420004+67367+026650FM-12+018199999V0201401N001019999999N0000001N9-00561+99999099701ADDGF108991999999999999999999
0029028360999991926022506004+67367+026650FM-12+018199999V0201801N007219999999N0000001N9-00441+99999099781ADDGF108991999999999999999999
0029028360999991926022513004+67367+026650FM-12+018199999V0202001N007219999999N0000001N9-00281+99999099581ADDGF108991999999999999999999
0029028360999991926022520004+67367+026650FM-12+018199999V0201801N008719999999N0000001N9-00171+99999099341ADDGF108991999999999999999999
0029028360999991926022606004+67367+026650FM-12+018199999V0201801N010819999999N0000001N9-00061+99999099111ADDGF108991999999999999999999
0029028360999991926022613004+67367+026650FM-12+018199999V0202001N009819999999N0000001N9+00111+99999098981ADDGF108991999999999999999999
0029028360999991926022620004+67367+026650FM-12+018199999V0202001N009819999999N0000001N9+00111+99999098661ADDGF108991999999999999999999
0029028360999991926022706004+67367+026650FM-12+018199999V0202001N007219999999N0000001N9-00331+99999099201ADDGF108991999999999999999999
0029028360999991926022713004+67367+026650FM-12+018199999V0202301N007219999999N0000001N9+00331+99999099581ADDGF106991999999999999999999
0029028360999991926022720004+67367+026650FM-12+018199999V0202001N005119999999N0000001N9-00221+99999099831ADDGF108991999999999999999999
0035028360999991926022806004+67367+026650FM-12+018199999V0202001N009819999999N0000001N9-00111+99999098661ADDGF108991999999999999999999MW1861
0029028360999991926022813004+67367+026650FM-12+018199999V0202301N009819999999N0000001N9+00061+99999098391ADDGF108991999999999999999999
0029028360999991926022820004+67367+026650FM-12+018199999V0202001N005119999999N0000001N9+00001+99999098741ADDGF108991999999999999999999
0029028360999991926030106004+67367+026650FM-12+018199999V0202001N008719999999N0000001N9-00111+99999098161ADDGF108991999999999999999999
0029028360999991926030113004+67367+026650FM-12+018199999V0202001N007219999999N0000001N9+00001+99999097081ADDGF108991999999999999999999
0029028360999991926030120004+67367+026650FM-12+018199999V0202001N010819999999N0000001N9+00061+99999096081ADDGF108991999999999999999999
0035028360999991926030206004+67367+026650FM-12+018199999V0202001N001019999999N0000001N9-00171+99999095281ADDGF108991999999999999999999MW1721
0029028360999991926030213004+67367+026650FM-12+018199999V0202501N011819999999N0000001N9-00441+99999095261ADDGF107991999999999999999999
0029028360999991926030220004+67367+026650FM-12+018199999V0202501N008719999999N0000001N9-00561+99999095191ADDGF102991999999999999999999
0029028360999991926030306004+67367+026650FM-12+018199999V0202701N006219999999N0000001N9-00671+99999095481ADDGF108991999999999999999999
0029028360999991926030313004+67367+026650FM-12+018199999V0202701N006219999999N0000001N9-00331+99999095941ADDGF101991999999999999999999
0029028360999991926030320004+67367+026650FM-12+018199999V0200201N002119999999N0000001N9-01671+99999095961ADDGF100991999999999999999999
0029028360999991926030406004+67367+026650FM-12+018199999V0202901N003119999999N0000001N9-02941+99999095391ADDGF108991999999999999999999
0029028360999991926030413004+67367+026650FM-12+018199999V0200901N003119999999N0000001N9-00781+99999095021ADDGF108991999999999999999999
0054028360999991926030420004+67367+026650FM-12+018199999V0203601N003119999999N0000001N9-00781+99999999999ADDGF108991999999999999999999MW1721EQDQ01 104953APOSLP
0029028360999991926030506004+67367+026650FM-12+018199999V0200901N003119999999N0000001N9-00941+99999095351ADDGF108991999999999999999999
0035028360999991926030513004+67367+026650FM-12+018199999V0200901N001019999999N0000001N9-00671+99999095681ADDGF108991999999999999999999MW1721
0035028360999991926030520004+67367+026650FM-12+018199999V0200701N001019999999N0000001N9-00831+99999095921ADDGF108991999999999999999999MW1721
0029028360999991926030606004+67367+026650FM-12+018199999V0200901N001019999999N0000001N9-01171+99999096151ADDGF108991999999999999999999
0035028360999991926030613004+67367+026650FM-12+018199999V0202301N001019999999N0000001N9-00831+99999096201ADDGF108991999999999999999999MW1721
0029028360999991926030620004+67367+026650FM-12+018199999V0200201N001019999999N0000001N9-01721+99999096421ADDGF108991999999999999999999
0035028360999991926030706004+67367+026650FM-12+018199999V0202001N003119999999N0000001N9-01111+99999096761ADDGF108991999999999999999999MW1701
0029028360999991926030713004+67367+026650FM-12+018199999V0202301N007219999999N0000001N9-00671+99999097261ADDGF101991999999999999999999
0029028360999991926030720004+67367+026650FM-12+018199999V0202301N001019999999N0000001N9-01721+99999097631ADDGF100991999999999999999999
0029028360999991926030806004+67367+026650FM-12+018199999V0202001N003119999999N0000001N9-02781+99999097961ADDGF100991999999999999999999
0029028360999991926030813004+67367+026650FM-12+018199999V0201601N001019999999N0000001N9-00891+99999097981ADDGF108991999999999999999999
0029028360999991926030820004+67367+026650FM-12+018199999V0201101N003119999999N0000001N9-00941+99999097391ADDGF108991999999999999999999
0029028360999991926030906004+67367+026650FM-12+018199999V0201101N007219999999N0000001N9-00441+99999096121ADDGF108991999999999999999999
0035028360999991926030913004+67367+026650FM-12+018199999V0201401N005119999999N0000001N9-00331+99999104822ADDGF108991999999999999999999MW1721
0035028360999991926030920004+67367+026650FM-12+018199999V0202001N001019999999N0000001N9-00391+99999104231ADDGF108991999999999999999999MW1721
0029028360999991926031006004+67367+026650FM-12+018199999V0202001N001019999999N0000001N9-00671+99999104641ADDGF108991999999999999999999
0029028360999991926031013004+67367+026650FM-12+018199999V0203401N008719999999N0000001N9-00561+99999095822ADDGF108991999999999999999999
0029028360999991926031020004+67367+026650FM-12+018199999V0203401N007219999999N0000001N9-00941+99999096661ADDGF100991999999999999999999
0029028360999991926031106004+67367+026650FM-12+018199999V0202301N001019999999N0000001N9-02171+99999097041ADDGF100991999999999999999999
0029028360999991926031113004+67367+026650FM-12+018199999V0202301N004119999999N0000001N9-00561+99999097061ADDGF100991999999999999999999
0029028360999991926031120004+67367+026650FM-12+018199999V0202001N005119999999N0000001N9-00891+99999096281ADDGF108991999999999999999999
0029028360999991926031206004+67367+026650FM-12+018199999V0200501N001019999999N0000001N9-01061+99999104962ADDGF108991999999999999999999
0035028360999991926031213004+67367+026650FM-12+018199999V0203601N003119999999N0000001N9-00831+99999104901ADDGF108991999999999999999999MW1721
0029028360999991926031220004+67367+026650FM-12+018199999V0202901N003119999999N0000001N9-01111+99999095502ADDGF100991999999999999999999
0035028360999991926031306004+67367+026650FM-12+018199999V0200501N003119999999N0000001N9-01001+99999096141ADDGF108991999999999999999999MW1721
0029028360999991926031313004+67367+026650FM-12+018199999V0203401N009819999999N0000001N9-00721+99999096701ADDGF102991999999999999999999
0029028360999991926031320004+67367+026650FM-12+018199999V0203601N008719999999N0000001N9-01061+99999097031ADDGF100991999999999999999999
0029028360999991926031406004+67367+026650FM-12+018199999V0203601N008719999999N0000001N9-01061+99999097261ADDGF101991999999999999999999
0029028360999991926031413004+67367+026650FM-12+018199999V0203601N009819999999N0000001N9-00331+99999097301ADDGF104991999999999999999999
0029028360999991926031420004+67367+026650FM-12+018199999V0203601N010819999999N0000001N9-00501+99999097321ADDGF108991999999999999999999
0029028360999991926031506004+67367+026650FM-12+018199999V0203601N008719999999N0000001N9-00501+99999097671ADDGF101991999999999999999999
0029028360999991926031513004+67367+026650FM-12+018199999V0203601N009819999999N0000001N9-00331+99999098061ADDGF108991999999999999999999
0029028360999991926031520004+67367+026650FM-12+018199999V0203601N008719999999N0000001N9-00671+99999098351ADDGF100991999999999999999999
0029028360999991926031606004+67367+026650FM-12+018199999V0203601N001019999999N0000001N9-00891+99999098741ADDGF104991999999999999999999
0029028360999991926031613004+67367+026650FM-12+018199999V0203601N002119999999N0000001N9-00221+99999098981ADDGF106991999999999999999999
0029028360999991926031620004+67367+026650FM-12+018199999V0203601N001019999999N0000001N9-01221+99999099201ADDGF100991999999999999999999
0029028360999991926031706004+67367+026650FM-12+018199999V0203601N001019999999N0000001N9-02331+99999099681ADDGF108991999999999999999999
0029028360999991926031713004+67367+026650FM-12+018199999V0203601N001019999999N0000001N9-00221+99999099861ADDGF100991999999999999999999
0029028360999991926031720004+67367+026650FM-12+018199999V0203201N001019999999N0000001N9-01331+99999099831ADDGF100991999999999999999999
0029028360999991926031806004+67367+026650FM-12+018199999V0203201N003119999999N0000001N9-01611+99999099871ADDGF108991999999999999999999
0029028360999991926031813004+67367+026650FM-12+018199999V0203401N003119999999N0000001N9-00561+99999099841ADDGF108991999999999999999999
0029028360999991926031820004+67367+026650FM-12+018199999V0203201N001019999999N0000001N9-00561+99999099881ADDGF108991999999999999999999
0035028360999991926031906004+67367+026650FM-12+018199999V0203201N003119999999N0000001N9-00501+99999100121ADDGF108991999999999999999999MW1721
0029028360999991926031913004+67367+026650FM-12+018199999V0209991C000019999999N0000001N9-00061+99999100361ADDGF108991999999999999999999
0029028360999991926031920004+67367+026650FM-12+018199999V0203201N001019999999N0000001N9-00441+99999100351ADDGF103991999999999999999999
0029028360999991926032006004+67367+026650FM-12+018199999V0200201N001019999999N0000001N9-01171+99999099981ADDGF108991999999999999999999
0029028360999991926032013004+67367+026650FM-12+018199999V0200201N005119999999N0000001N9-00061+99999099821ADDGF108991999999999999999999
0035028360999991926032020004+67367+026650FM-12+018199999V0203601N005119999999N0000001N9-00331+99999100161ADDGF108991999999999999999999MW1721
0029028360999991926032106004+67367+026650FM-12+018199999V0203201N005119999999N0000001N9-00721+99999100641ADDGF106991999999999999999999
0029028360999991926032113004+67367+026650FM-12+018199999V0203601N007219999999N0000001N9-00561+99999100741ADDGF108991999999999999999999
0029028360999991926032120004+67367+026650FM-12+018199999V0203601N001019999999N0000001N9-00331+99999100321ADDGF108991999999999999999999
0035028360999991926032206004+67367+026650FM-12+018199999V0201801N003119999999N0000001N9-01001+99999099351ADDGF108991999999999999999999MW1721
0035028360999991926032213004+67367+026650FM-12+018199999V0202701N003119999999N0000001N9-00171+99999099061ADDGF108991999999999999999999MW1721
0029028360999991926032220004+67367+026650FM-12+018199999V0202901N001019999999N0000001N9+00001+99999098911ADDGF108991999999999999999999
0035028360999991926032306004+67367+026650FM-12+018199999V0201801N001019999999N0000001N9-00221+99999098031ADDGF108991999999999999999999MW1701
0029028360999991926032313004+67367+026650FM-12+018199999V0203601N004119999999N0000001N9+00441+99999097871ADDGF107991999999999999999999
0029028360999991926032320004+67367+026650FM-12+018199999V0201801N005119999999N0000001N9+00001+99999097591ADDGF108991999999999999999999
0029028360999991926032406004+67367+026650FM-12+018199999V0203601N008719999999N0000001N9-00501+99999096201ADDGF100991999999999999999999
0029028360999991926032413004+67367+026650FM-12+018199999V0203401N013919999999N0000001N9-00331+99999096661ADDGF108991999999999999999999
0029028360999991926032420004+67367+026650FM-12+018199999V0203601N010819999999N0000001N9-00561+99999097781ADDGF102991999999999999999999
0035028360999991926032506004+67367+026650FM-12+018199999V0203601N008719999999N0000001N9-00671+99999099071ADDGF108991999999999999999999MW1701
0029028360999991926032513004+67367+026650FM-12+018199999V0203601N003119999999N0000001N9-00391+99999099301ADDGF108991999999999999999999
0029028360999991926032520004+67367+026650FM-12+018199999V0203401N001019999999N0000001N9-01221+99999099041ADDGF106991999999999999999999
0029028360999991926032606004+67367+026650FM-12+018199999V0201801N001019999999N0000001N9-00721+99999098341ADDGF102991999999999999999999
0029028360999991926032613004+67367+026650FM-12+018199999V0203401N006219999999N0000001N9+00061+99999098751ADDGF103991999999999999999999
0029028360999991926032620004+67367+026650FM-12+018199999V0201801N001019999999N0000001N9-00831+99999099271ADDGF104991999999999999999999
0029028360999991926032706004+67367+026650FM-12+018199999V0201801N005119999999N0000001N9-00611+99999099061ADDGF108991999999999999999999
0029028360999991926032713004+67367+026650FM-12+018199999V0202301N009819999999N0000001N9+00221+99999098361ADDGF108991999999999999999999
0029028360999991926032720004+67367+026650FM-12+018199999V0202501N007219999999N0000001N9-00281+99999098311ADDGF108991999999999999999999
0029028360999991926032806004+67367+026650FM-12+018199999V0202501N007219999999N0000001N9-00331+99999098181ADDGF108991999999999999999999
0029028360999991926032813004+67367+026650FM-12+018199999V0202001N011819999999N0000001N9-00221+99999098241ADDGF108991999999999999999999
0029028360999991926032820004+67367+026650FM-12+018199999V0202001N010819999999N0000001N9-00221+99999098431ADDGF108991999999999999999999
0029028360999991926032906004+67367+026650FM-12+018199999V0202001N003119999999N0000001N9-00221+99999098881ADDGF108991999999999999999999
0035028360999991926032913004+67367+026650FM-12+018199999V0201401N001019999999N0000001N9-00171+99999099311ADDGF108991999999999999999999MW1741
0029028360999991926032920004+67367+026650FM-12+018199999V0201801N001019999999N0000001N9-00281+99999099341ADDGF108991999999999999999999
0029028360999991926033006004+67367+026650FM-12+018199999V0200901N003119999999N0000001N9-00561+99999099071ADDGF108991999999999999999999
0029028360999991926033013004+67367+026650FM-12+018199999V0200901N005119999999N0000001N9-00281+99999098821ADDGF108991999999999999999999
0035028360999991926033020004+67367+026650FM-12+018199999V0200901N005119999999N0000001N9-00391+99999098501ADDGF108991999999999999999999MW1721
0029028360999991926033106004+67367+026650FM-12+018199999V0201801N003119999999N0000001N9-00441+99999097991ADDGF108991999999999999999999
0035028360999991926033113004+67367+026650FM-12+018199999V0201401N003119999999N0000001N9-00221+99999097831ADDGF108991999999999999999999MW1721
0035028360999991926033120004+67367+026650FM-12+018199999V0201401N001019999999N0000001N9-00441+99999097821ADDGF108991999999999999999999MW1721
0035028360999991926040106004+67367+026650FM-12+018199999V0203601N003119999999N0000001N9-00501+99999098121ADDGF108991999999999999999999MW1701
0035028360999991926040113004+67367+026650FM-12+018199999V0203601N005119999999N0000001N9-00111+99999098721ADDGF108991999999999999999999MW1701
0029028360999991926040120004+67367+026650FM-12+018199999V0200501N005119999999N0000001N9-00171+99999099561ADDGF108991999999999999999999
0035028360999991926040206004+67367+026650FM-12+018199999V0200201N003119999999N0000001N9-00391+99999100711ADDGF108991999999999999999999MW1701
0029028360999991926040213004+67367+026650FM-12+018199999V0200201N005119999999N0000001N9-00221+99999101191ADDGF108991999999999999999999
0029028360999991926040220004+67367+026650FM-12+018199999V0209991C000019999999N0000001N9-00671+99999101481ADDGF108991999999999999999999
0029028360999991926040306004+67367+026650FM-12+018199999V0203601N001019999999N0000001N9-01891+99999101551ADDGF108991999999999999999999
0029028360999991926040313004+67367+026650FM-12+018199999V0202001N005119999999N0000001N9-00441+99999101001ADDGF108991999999999999999999
0035028360999991926040320004+67367+026650FM-12+018199999V0202001N005119999999N0000001N9-00781+99999100081ADDGF108991999999999999999999MW1721
0029028360999991926040406004+67367+026650FM-12+018199999V0201801N001019999999N0000001N9-00671+99999099361ADDGF108991999999999999999999
0029028360999991926040413004+67367+026650FM-12+018199999V0203401N003119999999N0000001N9+00171+99999099031ADDGF108991999999999999999999
0035028360999991926040420004+67367+026650FM-12+018199999V0201401N001019999999N0000001N9+00001+99999098741ADDGF108991999999999999999999MW1701
0035028360999991926040506004+67367+026650FM-12+018199999V0201401N003119999999N0000001N9-00061+99999097881ADDGF108991999999999999999999MW1721
0035028360999991926040513004+67367+026650FM-12+018199999V0203201N005119999999N0000001N9-00221+99999097921ADDGF108991999999999999999999MW1721
0029028360999991926040520004+67367+026650FM-12+018199999V0200701N005119999999N0000001N9-00831+99999098521ADDGF108991999999999999999999
0029028360999991926040606004+67367+026650FM-12+018199999V0200501N003119999999N0000001N9-01331+99999099141ADDGF108991999999999999999999
0029028360999991926040613004+67367+026650FM-12+018199999V0203601N005119999999N0000001N9-00721+99999099581ADDGF107991999999999999999999
0029028360999991926040620004+67367+026650FM-12+018199999V0209991C000019999999N0000001N9-01441+99999100021ADDGF100991999999999999999999
0029028360999991926040706004+67367+026650FM-12+018199999V0209991C000019999999N0000001N9-02501+99999100271ADDGF100991999999999999999999
0029028360999991926040713004+67367+026650FM-12+018199999V0203401N001019999999N0000001N9-00391+99999100061ADDGF100991999999999999999999
0029028360999991926040720004+67367+026650FM-12+018199999V0202001N001019999999N0000001N9-01891+99999099671ADDGF100991999999999999999999
0029028360999991926040806004+67367+026650FM-12+018199999V0201801N001019999999N0000001N9-01561+99999099141ADDGF100991999999999999999999
0029028360999991926040813004+67367+026650FM-12+018199999V0201801N007219999999N0000001N9-00501+99999098701ADDGF108991999999999999999999
0035028360999991926040820004+67367+026650FM-12+018199999V0202001N005119999999N0000001N9-00501+99999098341ADDGF108991999999999999999999MW1701
0029028360999991926040906004+67367+026650FM-12+018199999V0201801N005119999999N0000001N9-00441+99999097921ADDGF108991999999999999999999
0029028360999991926040913004+67367+026650FM-12+018199999V0202001N007219999999N0000001N9-00281+99999097751ADDGF108991999999999999999999
0035028360999991926040920004+67367+026650FM-12+018199999V0202001N005119999999N0000001N9-00331+99999097581ADDGF108991999999999999999999MW1721
0035028360999991926041006004+67367+026650FM-12+018199999V0202001N001019999999N0000001N9-00171+99999097271ADDGF108991999999999999999999MW1721
0029028360999991926041013004+67367+026650FM-12+018199999V0203401N003119999999N0000001N9-00111+99999097591ADDGF108991999999999999999999
0029028360999991926041020004+67367+026650FM-12+018199999V0209991C000019999999N0000001N9-01171+99999097881ADDGF100991999999999999999999
0029028360999991926041106004+67367+026650FM-12+018199999V0202901N003119999999N0000001N9-00941+99999097981ADDGF100991999999999999999999
0029028360999991926041113004+67367+026650FM-12+018199999V0202701N003119999999N0000001N9-00171+99999097961ADDGF102991999999999999999999
0029028360999991926041120004+67367+026650FM-12+018199999V0203401N002119999999N0000001N9-00831+99999097921ADDGF108991999999999999999999
0029028360999991926041206004+67367+026650FM-12+018199999V0203601N001019999999N0000001N9-02061+99999097981ADDGF100991999999999999999999
0029028360999991926041213004+67367+026650FM-12+018199999V0202901N001019999999N0000001N9-00111+99999098221ADDGF108991999999999999999999
0029028360999991926041220004+67367+026650FM-12+018199999V0209991C000019999999N0000001N9-01061+99999098221ADDGF100991999999999999999999
0029028360999991926041306004+67367+026650FM-12+018199999V0209991C000019999999N0000001N9-01561+99999098221ADDGF106991999999999999999999
0029028360999991926041313004+67367+026650FM-12+018199999V0203201N003119999999N0000001N9-00061+99999098241ADDGF108991999999999999999999
0029028360999991926041320004+67367+026650FM-12+018199999V0203201N001019999999N0000001N9-00721+99999098361ADDGF101991999999999999999999
0029028360999991926041406004+67367+026650FM-12+018199999V0209991C000019999999N0000001N9-02001+99999098761ADDGF108991999999999999999999
0029028360999991926041413004+67367+026650FM-12+018199999V0203601N003119999999N0000001N9-00171+99999098861ADDGF102991999999999999999999
0029028360999991926041420004+67367+026650FM-12+018199999V0209991C000019999999N0000001N9-01221+99999099001ADDGF101991999999999999999999
0029028360999991926041506004+67367+026650FM-12+018199999V0203601N003119999999N0000001N9-01221+99999099321ADDGF100991999999999999999999
0029028360999991926041513004+67367+026650FM-12+018199999V0203601N001019999999N0000001N9-00061+99999099501ADDGF100991999999999999999999
0029028360999991926041520004+67367+026650FM-12+018199999V0209991C000019999999N0000001N9-01061+99999099621ADDGF100991999999999999999999
0029028360999991926041606004+67367+026650FM-12+018199999V0209991C000019999999N0000001N9-01781+99999099661ADDGF106991999999999999999999
0029028360999991926041613004+67367+026650FM-12+018199999V0201401N007219999999N0000001N9-00111+99999099401ADDGF108991999999999999999999
0029028360999991926041620004+67367+026650FM-12+018199999V0201801N003119999999N0000001N9-00331+99999099221ADDGF108991999999999999999999
0035028360999991926041706004+67367+026650FM-12+018199999V0200901N003119999999N0000001N9-00501+99999098791ADDGF108991999999999999999999MW1721
0035028360999991926041713004+67367+026650FM-12+018199999V0201601N003119999999N0000001N9-00391+99999098511ADDGF108991999999999999999999MW1721
0035028360999991926041720004+67367+026650FM-12+018199999V0200901N001019999999N0000001N9-00501+99999098561ADDGF108991999999999999999999MW1721
0029028360999991926041806004+67367+026650FM-12+018199999V0209991C000019999999N0000001N9-00781+99999098901ADDGF108991999999999999999999
0029028360999991926041813004+67367+026650FM-12+018199999V0201801N003119999999N0000001N9+00001+99999098951ADDGF102991999999999999999999
0029028360999991926041820004+67367+026650FM-12+018199999V0201801N001019999999N0000001N9-00941+99999098911ADDGF101991999999999999999999
0029028360999991926041906004+67367+026650FM-12+018199999V0201601N001019999999N0000001N9-00561+99999098871ADDGF108991999999999999999999
0029028360999991926041913004+67367+026650FM-12+018199999V0201801N005119999999N0000001N9+00111+99999098551ADDGF108991999999999999999999
0029028360999991926041920004+67367+026650FM-12+018199999V0201801N005119999999N0000001N9+00001+99999098241ADDGF108991999999999999999999
0035028360999991926042006004+67367+026650FM-12+018199999V0209991C000019999999N0000001N9-00331+99999097711ADDGF108991999999999999999999MW1721
0029028360999991926042013004+67367+026650FM-12+018199999V0202501N005119999999N0000001N9+00111+99999097791ADDGF108991999999999999999999
0029028360999991926042020004+67367+026650FM-12+018199999V0209991C000019999999N0000001N9-00671+99999098311ADDGF106991999999999999999999
0029028360999991926042106004+67367+026650FM-12+018199999V0209991C000019999999N0000001N9-00941+99999098801ADDGF100991999999999999999999
0029028360999991926042113004+67367+026650FM-12+018199999V0201401N003119999999N0000001N9+00611+99999098911ADDGF108991999999999999999999
0029028360999991926042120004+67367+026650FM-12+018199999V0209991C000019999999N0000001N9+00171+99999098861ADDGF108991999999999999999999
0035028360999991926042206004+67367+026650FM-12+018199999V0209991C000019999999N0000001N9+00171+99999098841ADDGF108991999999999999999999MW1621
0029028360999991926042213004+67367+026650FM-12+018199999V0200501N001019999999N0000001N9+00561+99999098981ADDGF108991999999999999999999
0029028360999991926042220004+67367+026650FM-12+018199999V0203601N005119999999N0000001N9+00221+99999099161ADDGF108991999999999999999999
0029028360999991926042306004+67367+026650FM-12+018199999V0200901N001019999999N0000001N9+00221+99999099511ADDGF108991999999999999999999
0029028360999991926042313004+67367+026650FM-12+018199999V0200901N003119999999N0000001N9+00501+99999099701ADDGF108991999999999999999999
0029028360999991926042320004+67367+026650FM-12+018199999V0209991C000019999999N0000001N9+00221+99999099761ADDGF108991999999999999999999
0029028360999991926042406004+67367+026650FM-12+018199999V0202701N001019999999N0000001N9+00171+99999099881ADDGF108991999999999999999999
0029028360999991926042413004+67367+026650FM-12+018199999V0203601N001019999999N0000001N9+00561+99999100031ADDGF108991999999999999999999
0029028360999991926042420004+67367+026650FM-12+018199999V0203601N001019999999N0000001N9+00281+99999100191ADDGF108991999999999999999999
0029028360999991926042506004+67367+026650FM-12+018199999V0203601N001019999999N0000001N9+00331+99999100341ADDGF108991999999999999999999
0029028360999991926042513004+67367+026650FM-12+018199999V0203201N003119999999N0000001N9+00781+99999100541ADDGF108991999999999999999999
0029028360999991926042520004+67367+026650FM-12+018199999V0202701N005119999999N0000001N9+00281+99999100561ADDGF107991999999999999999999
0029028360999991926042606004+67367+026650FM-12+018199999V0203401N001019999999N0000001N9+00221+99999100871ADDGF100991999999999999999999
0029028360999991926042613004+67367+026650FM-12+018199999V0200501N001019999999N0000001N9+00831+99999101031ADDGF108991999999999999999999
0029028360999991926042620004+67367+026650FM-12+018199999V0209991C000019999999N0000001N9+00001+99999101161ADDGF100991999999999999999999
0029028360999991926042706004+67367+026650FM-12+018199999V0209991C000019999999N0000001N9-00111+99999101461ADDGF100991999999999999999999
0029028360999991926042713004+67367+026650FM-12+018199999V0202501N003119999999N0000001N9+01061+99999101201ADDGF100991999999999999999999
0029028360999991926042720004+67367+026650FM-12+018199999V0202001N007219999999N0000001N9+00331+99999101041ADDGF100991999999999999999999
0029028360999991926042806004+67367+026650FM-12+018199999V0201801N003119999999N0000001N9+00441+99999100701ADDGF100991999999999999999999
0029028360999991926042813004+67367+026650FM-12+018199999V0202501N007219999999N0000001N9+01171+99999100501ADDGF103991999999999999999999
0029028360999991926042820004+67367+026650FM-12+018199999V0202701N001019999999N0000001N9+00281+99999100351ADDGF102991999999999999999999
0029028360999991926042906004+67367+026650FM-12+018199999V0202701N003119999999N0000001N9+00281+99999100231ADDGF108991999999999999999999
0029028360999991926042913004+67367+026650FM-12+018199999V0202001N005119999999N0000001N9+01281+99999099981ADDGF106991999999999999999999
0029028360999991926042920004+67367+026650FM-12+018199999V0202301N005119999999N0000001N9+00831+99999099671ADDGF108991999999999999999999
0029028360999991926043006004+67367+026650FM-12+018199999V0202701N003119999999N0000001N9+00281+99999099701ADDGF108991999999999999999999
0029028360999991926043013004+67367+026650FM-12+018199999V0200201N003119999999N0000001N9+00831+99999099921ADDGF108991999999999999999999
0029028360999991926043020004+67367+026650FM-12+018199999V0200201N003119999999N0000001N9+00331+99999099951ADDGF108991999999999999999999
0029028360999991926050106004+67367+026650FM-12+018199999V0200201N001019999999N0000001N9+00221+99999099881ADDGF108991999999999999999999
0029028360999991926050113004+67367+026650FM-12+018199999V0203401N003119999999N0000001N9+00721+99999099821ADDGF108991999999999999999999
0029028360999991926050120004+67367+026650FM-12+018199999V0203601N005119999999N0000001N9+00171+99999099951ADDGF106991999999999999999999
0029028360999991926050206004+67367+026650FM-12+018199999V0203601N003119999999N0000001N9+00221+99999999999ADDGF108991999999999999999999
0029028360999991926050213004+67367+026650FM-12+018199999V0200201N002119999999N0000001N9+00391+99999099991ADDGF108991999999999999999999
0029028360999991926050220004+67367+026650FM-12+018199999V0209991C000019999999N0000001N9+00001+99999099901ADDGF108991999999999999999999
0035028360999991926050306004+67367+026650FM-12+018199999V0201801N003119999999N0000001N9-00391+99999099751ADDGF108991999999999999999999MW1861
0029028360999991926050313004+67367+026650FM-12+018199999V0200501N003119999999N0000001N9+00001+99999099591ADDGF108991999999999999999999
0029028360999991926050320004+67367+026650FM-12+018199999V0200501N003119999999N0000001N9-00281+99999099621ADDGF108991999999999999999999
0029028360999991926050406004+67367+026650FM-12+018199999V0200501N005119999999N0000001N9-00561+99999100021ADDGF100991999999999999999999
0029028360999991926050413004+67367+026650FM-12+018199999V0200501N003119999999N0000001N9-00281+99999100201ADDGF108991999999999999999999
0029028360999991926050420004+67367+026650FM-12+018199999V0200501N003119999999N0000001N9-00441+99999100261ADDGF108991999999999999999999
0029028360999991926050506004+67367+026650FM-12+018199999V0201801N001019999999N0000001N9-00441+99999100441ADDGF108991999999999999999999
0029028360999991926050513004+67367+026650FM-12+018199999V0201101N003119999999N0000001N9-00111+99999100421ADDGF108991999999999999999999
0029028360999991926050520004+67367+026650FM-12+018199999V0200901N003119999999N0000001N9-00281+99999100321ADDGF108991999999999999999999
0029028360999991926050606004+67367+026650FM-12+018199999V0201801N005119999999N0000001N9-00331+99999100421ADDGF108991999999999999999999
0029028360999991926050613004+67367+026650FM-12+018199999V0201801N005119999999N0000001N9+00061+99999100361ADDGF108991999999999999999999
0029028360999991926050620004+67367+026650FM-12+018199999V0201601N003119999999N0000001N9-00221+99999100231ADDGF103991999999999999999999
0029028360999991926050706004+67367+026650FM-12+018199999V0201801N005119999999N0000001N9-00281+99999100191ADDGF108991999999999999999999
0029028360999991926050713004+67367+026650FM-12+018199999V0201401N003119999999N0000001N9+00391+99999099991ADDGF108991999999999999999999
0029028360999991926050720004+67367+026650FM-12+018199999V0201601N003119999999N0000001N9+00061+99999099911ADDGF108991999999999999999999
0035028360999991926050806004+67367+026650FM-12+018199999V0201401N003119999999N0000001N9-00111+99999099881ADDGF108991999999999999999999MW1701
0029028360999991926050813004+67367+026650FM-12+018199999V0201801N005119999999N0000001N9+00441+99999099761ADDGF108991999999999999999999
0029028360999991926050820004+67367+026650FM-12+018199999V0201801N004119999999N0000001N9+00281+99999099741ADDGF108991999999999999999999
0035028360999991926050906004+67367+026650FM-12+018199999V0201101N001019999999N0000001N9+00001+99999099711ADDGF108991999999999999999999MW1721
0035028360999991926050913004+67367+026650FM-12+018199999V0201401N005119999999N0000001N9+00441+99999099701ADDGF108991999999999999999999MW1681
0029028360999991926050920004+67367+026650FM-12+018199999V0201101N001019999999N0000001N9+00281+99999099681ADDGF108991999999999999999999
0029028360999991926051006004+67367+026650FM-12+018199999V0201401N003119999999N0000001N9+00281+99999099641ADDGF108991999999999999999999
0029028360999991926051013004+67367+026650FM-12+018199999V0201401N005119999999N0000001N9+00611+99999099581ADDGF108991999999999999999999
0029028360999991926051020004+67367+026650FM-12+018199999V0201101N005119999999N0000001N9+00331+99999099511ADDGF108991999999999999999999
0029028360999991926051106004+67367+026650FM-12+018199999V0201101N003119999999N0000001N9+00221+99999099401ADDGF108991999999999999999999
0029028360999991926051113004+67367+026650FM-12+018199999V0201401N003119999999N0000001N9+00611+99999099281ADDGF108991999999999999999999
0029028360999991926051120004+67367+026650FM-12+018199999V0201601N003119999999N0000001N9+00331+99999099191ADDGF108991999999999999999999
0029028360999991926051206004+67367+026650FM-12+018199999V0201601N003119999999N0000001N9+00281+99999098981ADDGF108991999999999999999999
0029028360999991926051213004+67367+026650FM-12+018199999V0201601N005119999999N0000001N9+00781+99999098831ADDGF108991999999999999999999
0035028360999991926051220004+67367+026650FM-12+018199999V0201601N003119999999N0000001N9+00561+99999098871ADDGF108991999999999999999999MW1621
0029028360999991926051306004+67367+026650FM-12+018199999V0201601N003119999999N0000001N9+00501+99999098911ADDGF108991999999999999999999
0029028360999991926051313004+67367+026650FM-12+018199999V0201401N008219999999N0000001N9+01001+99999098481ADDGF108991999999999999999999
0029028360999991926051320004+67367+026650FM-12+018199999V0201801N004119999999N0000001N9+00441+99999098341ADDGF106991999999999999999999
0046028360999991926051406004+67367+026650FM-12+018199999V0202001N005119999999N0000001N9+00391+99999098631ADDAJ100009199999999GF106991999999999999999999
0029028360999991926051413004+67367+026650FM-12+018199999V0202301N007219999999N0000001N9+01171+99999098751ADDGF102991999999999999999999
0029028360999991926051420004+67367+026650FM-12+018199999V0202001N004119999999N0000001N9+00671+99999098761ADDGF100991999999999999999999
0046028360999991926051506004+67367+026650FM-12+018199999V0202301N001019999999N0000001N9+00441+99999098601ADDAJ100009199999999GF108991999999999999999999
0029028360999991926051513004+67367+026650FM-12+018199999V0203201N003119999999N0000001N9+00721+99999098541ADDGF108991999999999999999999
0035028360999991926051520004+67367+026650FM-12+018199999V0202701N001019999999N0000001N9+00441+99999098551ADDGF108991999999999999999999MW1621
0046028360999991926051606004+67367+026650FM-12+018199999V0202701N001019999999N0000001N9+00671+99999098781ADDAJ100009199999999GF100991999999999999999999
0035028360999991926051613004+67367+026650FM-12+018199999V0203601N001019999999N0000001N9+00891+99999098881ADDGF108991999999999999999999MW1621
0029028360999991926051620004+67367+026650FM-12+018199999V0203601N001019999999N0000001N9+00561+99999099061ADDGF108991999999999999999999
0046028360999991926051706004+67367+026650FM-12+018199999V0203401N001019999999N0000001N9+00441+99999099311ADDAJ100009199999999GF100991999999999999999999
0029028360999991926051713004+67367+026650FM-12+018199999V0203601N003119999999N0000001N9+00831+99999099351ADDGF108991999999999999999999
0029028360999991926051720004+67367+026650FM-12+018199999V0200201N002119999999N0000001N9+00561+99999099391ADDGF108991999999999999999999
0046028360999991926051806004+67367+026650FM-12+018199999V0200901N001019999999N0000001N9+00611+99999099501ADDAJ100009199999999GF108991999999999999999999
0029028360999991926051813004+67367+026650FM-12+018199999V0200901N003119999999N0000001N9+00831+99999099381ADDGF108991999999999999999999
0035028360999991926051820004+67367+026650FM-12+018199999V0200901N003119999999N0000001N9+00281+99999099031ADDGF108991999999999999999999MW1621
0046028360999991926051906004+67367+026650FM-12+018199999V0203401N003119999999N0000001N9+00281+99999099521ADDAJ100009199999999GF108991999999999999999999
0029028360999991926051913004+67367+026650FM-12+018199999V0202701N003119999999N0000001N9+00941+99999099961ADDGF107991999999999999999999
0029028360999991926051920004+67367+026650FM-12+018199999V0203601N005119999999N0000001N9+00721+99999100401ADDGF101991999999999999999999
0046028360999991926052006004+67367+026650FM-12+018199999V0201801N001019999999N0000001N9+00561+99999100791ADDAJ100009199999999GF100991999999999999999999
0029028360999991926052013004+67367+026650FM-12+018199999V0202001N003119999999N0000001N9+01331+99999100711ADDGF100991999999999999999999
0029028360999991926052020004+67367+026650FM-12+018199999V0201801N001019999999N0000001N9+00941+99999100561ADDGF100991999999999999999999
0046028360999991926052106004+67367+026650FM-12+018199999V0202001N005119999999N0000001N9+01111+99999100551ADDAJ100009199999999GF100991999999999999999999
0029028360999991926052113004+67367+026650FM-12+018199999V0202301N003119999999N0000001N9+01671+99999100261ADDGF100991999999999999999999
0029028360999991926052120004+67367+026650FM-12+018199999V0201801N003119999999N0000001N9+01111+99999099981ADDGF107991999999999999999999
0052028360999991926052206004+67367+026650FM-12+018199999V0201801N001019999999N0000001N9+00831+99999099621ADDAJ100009199999999GF108991999999999999999999MW1621
0035028360999991926052213004+67367+026650FM-12+018199999V0202301N003119999999N0000001N9+00941+99999099391ADDGF108991999999999999999999MW1621
0029028360999991926052220004+67367+026650FM-12+018199999V0202501N004119999999N0000001N9+00831+99999099401ADDGF108991999999999999999999
0052028360999991926052306004+67367+026650FM-12+018199999V0203401N001019999999N0000001N9+00781+99999099591ADDAJ100009199999999GF108991999999999999999999MW1601
0029028360999991926052313004+67367+026650FM-12+018199999V0202501N004119999999N0000001N9+01281+99999099511ADDGF108991999999999999999999
0029028360999991926052320004+67367+026650FM-12+018199999V0202301N005119999999N0000001N9+01171+99999099181ADDGF108991999999999999999999
0046028360999991926052406004+67367+026650FM-12+018199999V0202501N003119999999N0000001N9+00781+99999098841ADDAJ100009199999999GF108991999999999999999999
0029028360999991926052413004+67367+026650FM-12+018199999V0202701N003119999999N0000001N9+01171+99999098621ADDGF108991999999999999999999
0029028360999991926052420004+67367+026650FM-12+018199999V0203201N001019999999N0000001N9+00561+99999098521ADDGF108991999999999999999999
0046028360999991926052506004+67367+026650FM-12+018199999V0203401N003119999999N0000001N9+00111+99999099361ADDAJ100009199999999GF105991999999999999999999
0029028360999991926052513004+67367+026650FM-12+018199999V0202301N003119999999N0000001N9+00501+99999099361ADDGF106991999999999999999999
0029028360999991926052520004+67367+026650FM-12+018199999V0202701N001019999999N0000001N9+00171+99999099401ADDGF100991999999999999999999
0046028360999991926052606004+67367+026650FM-12+018199999V0201401N003119999999N0000001N9+00221+99999099461ADDAJ100009199999999GF108991999999999999999999
0029028360999991926052613004+67367+026650FM-12+018199999V0203201N003119999999N0000001N9+00441+99999099301ADDGF108991999999999999999999
0029028360999991926052620004+67367+026650FM-12+018199999V0203201N001019999999N0000001N9+00111+99999099231ADDGF106991999999999999999999
0046028360999991926052706004+67367+026650FM-12+018199999V0203401N002119999999N0000001N9+00221+99999099231ADDAJ100009199999999GF106991999999999999999999
0029028360999991926052713004+67367+026650FM-12+018199999V0203601N003119999999N0000001N9+00281+99999099351ADDGF108991999999999999999999
0029028360999991926052720004+67367+026650FM-12+018199999V0203601N001019999999N0000001N9+00111+99999099431ADDGF101991999999999999999999
0046028360999991926052806004+67367+026650FM-12+018199999V0201401N001019999999N0000001N9+00281+99999099681ADDAJ100009199999999GF106991999999999999999999
0029028360999991926052813004+67367+026650FM-12+018199999V0203401N003119999999N0000001N9+00561+99999099861ADDGF104991999999999999999999
0029028360999991926052820004+67367+026650FM-12+018199999V0209991C000019999999N0000001N9+00221+99999999999ADDGF101991999999999999999999
0046028360999991926052906004+67367+026650FM-12+018199999V0201801N003119999999N0000001N9+00441+99999100231ADDAJ100009199999999GF100991999999999999999999
0029028360999991926052913004+67367+026650FM-12+018199999V0201601N005119999999N0000001N9+00831+99999100151ADDGF108991999999999999999999
0029028360999991926052920004+67367+026650FM-12+018199999V0201401N003119999999N0000001N9+00721+99999999999ADDGF108991999999999999999999
0052028360999991926053006004+67367+026650FM-12+018199999V0201601N005119999999N0000001N9+00441+99999099871ADDAJ100009199999999GF108991999999999999999999MW1621
0035028360999991926053013004+67367+026650FM-12+018199999V0201401N004119999999N0000001N9+00611+99999099581ADDGF108991999999999999999999MW1621
0029028360999991926053020004+67367+026650FM-12+018199999V0201601N005119999999N0000001N9+01441+99999099121ADDGF108991999999999999999999
0046028360999991926053106004+67367+026650FM-12+018199999V0201801N005119999999N0000001N9+00831+99999098711ADDAJ100009199999999GF108991999999999999999999
0035028360999991926053113004+67367+026650FM-12+018199999V0201801N003119999999N0000001N9+01061+99999098501ADDGF108991999999999999999999MW1621
0029028360999991926053120004+67367+026650FM-12+018199999V0201801N003119999999N0000001N9+01281+99999098441ADDGF108991999999999999999999
0052028360999991926060106004+67367+026650FM-12+018199999V0201801N003119999999N0000001N9+01331+99999098151ADDAJ100009199999999GF108991999999999999999999MW1621
0029028360999991926060113004+67367+026650FM-12+018199999V0202301N013919999999N0000001N9+01501+99999098071ADDGF108991999999999999999999
0029028360999991926060120004+67367+026650FM-12+018199999V0202301N003119999999N0000001N9+01281+99999098461ADDGF108991999999999999999999
0052028360999991926060206004+67367+026650FM-12+018199999V0202001N001019999999N0000001N9+01061+99999098671ADDAJ100009199999999GF108991999999999999999999MW1621
0029028360999991926060213004+67367+026650FM-12+018199999V0200201N003119999999N0000001N9+01221+99999098101ADDGF108991999999999999999999
0035028360999991926060220004+67367+026650FM-12+018199999V0203201N005119999999N0000001N9+00721+99999098441ADDGF108991999999999999999999MW1621
0046028360999991926060306004+67367+026650FM-12+018199999V0201401N001019999999N0000001N9+00941+99999099101ADDAJ100009199999999GF108991999999999999999999
0029028360999991926060313004+67367+026650FM-12+018199999V0202301N001019999999N0000001N9+01441+99999099351ADDGF106991999999999999999999
0029028360999991926060320004+67367+026650FM-12+018199999V0202301N003119999999N0000001N9+01061+99999099441ADDGF103991999999999999999999
0046028360999991926060406004+67367+026650FM-12+018199999V0202501N005119999999N0000001N9+01331+99999099541ADDAJ100009199999999GF103991999999999999999999
0029028360999991926060413004+67367+026650FM-12+018199999V0200501N004119999999N0000001N9+01721+99999099631ADDGF102991999999999999999999
0029028360999991926060420004+67367+026650FM-12+018199999V0203601N002119999999N0000001N9+01281+99999099791ADDGF102991999999999999999999
0046028360999991926060506004+67367+026650FM-12+018199999V0203601N001019999999N0000001N9+01171+99999100021ADDAJ100009199999999GF101991999999999999999999
0029028360999991926060513004+67367+026650FM-12+018199999V0202901N003119999999N0000001N9+01671+99999099991ADDGF104991999999999999999999
0029028360999991926060520004+67367+026650FM-12+018199999V0203601N002119999999N0000001N9+01391+99999099981ADDGF106991999999999999999999
0046028360999991926060606004+67367+026650FM-12+018199999V0200701N003119999999N0000001N9+00781+99999100341ADDAJ100009199999999GF108991999999999999999999
0029028360999991926060613004+67367+026650FM-12+018199999V0200501N003119999999N0000001N9+01561+99999100071ADDGF102991999999999999999999
0029028360999991926060620004+67367+026650FM-12+018199999V0200501N003119999999N0000001N9+01391+99999099881ADDGF108991999999999999999999
0046028360999991926060706004+67367+026650FM-12+018199999V0201801N003119999999N0000001N9+01001+99999099641ADDAJ100009199999999GF108991999999999999999999
0029028360999991926060713004+67367+026650FM-12+018199999V0202701N003119999999N0000001N9+02171+99999099241ADDGF108991999999999999999999
0035028360999991926060720004+67367+026650FM-12+018199999V0203601N001019999999N0000001N9+01281+99999099271ADDGF108991999999999999999999MW1621
0046028360999991926060806004+67367+026650FM-12+018199999V0200201N003119999999N0000001N9+00391+99999099701ADDAJ100009199999999GF108991999999999999999999
0029028360999991926060813004+67367+026650FM-12+018199999V0200501N004119999999N0000001N9+01061+99999099831ADDGF102991999999999999999999
0029028360999991926060820004+67367+026650FM-12+018199999V0200501N003119999999N0000001N9+00391+99999100101ADDGF100991999999999999999999
0046028360999991926060906004+67367+026650FM-12+018199999V0200901N001019999999N0000001N9+00441+99999100351ADDAJ100009199999999GF107991999999999999999999
0029028360999991926060913004+67367+026650FM-12+018199999V0201101N003119999999N0000001N9+00941+99999100161ADDGF106991999999999999999999
0029028360999991926060920004+67367+026650FM-12+018199999V0201801N001019999999N0000001N9+00891+99999100041ADDGF100991999999999999999999
0046028360999991926061006004+67367+026650FM-12+018199999V0201801N003119999999N0000001N9+01001+99999100121ADDAJ100009199999999GF100991999999999999999999
0029028360999991926061013004+67367+026650FM-12+018199999V0202301N004119999999N0000001N9+01501+99999099921ADDGF100991999999999999999999
0029028360999991926061020004+67367+026650FM-12+018199999V0202301N004119999999N0000001N9+01281+99999099791ADDGF100991999999999999999999
0046028360999991926061106004+67367+026650FM-12+018199999V0202301N005119999999N0000001N9+01331+99999099901ADDAJ100009199999999GF100991999999999999999999
0029028360999991926061113004+67367+026650FM-12+018199999V0202501N005119999999N0000001N9+01781+99999099701ADDGF100991999999999999999999
0029028360999991926061120004+67367+026650FM-12+018199999V0202301N004119999999N0000001N9+01391+99999099681ADDGF100991999999999999999999
0046028360999991926061206004+67367+026650FM-12+018199999V0202301N005119999999N0000001N9+01441+99999099751ADDAJ100009199999999GF100991999999999999999999
0029028360999991926061213004+67367+026650FM-12+018199999V0202501N005119999999N0000001N9+02001+99999099661ADDGF100991999999999999999999
0029028360999991926061220004+67367+026650FM-12+018199999V0202301N005119999999N0000001N9+01611+99999099701ADDGF100991999999999999999999
0046028360999991926061306004+67367+026650FM-12+018199999V0202301N003119999999N0000001N9+01391+99999099831ADDAJ100009199999999GF100991999999999999999999
0029028360999991926061313004+67367+026650FM-12+018199999V0203201N003119999999N0000001N9+02171+99999099671ADDGF100991999999999999999999
0029028360999991926061320004+67367+026650FM-12+018199999V0202501N003119999999N0000001N9+01721+99999099591ADDGF100991999999999999999999
0046028360999991926061406004+67367+026650FM-12+018199999V0202301N003119999999N0000001N9+01671+99999099591ADDAJ100009199999999GF103991999999999999999999
0029028360999991926061413004+67367+026650FM-12+018199999V0201801N003119999999N0000001N9+02331+99999099421ADDGF101991999999999999999999
0029028360999991926061420004+67367+026650FM-12+018199999V0200701N001019999999N0000001N9+01721+99999099301ADDGF106991999999999999999999
0046028360999991926061506004+67367+026650FM-12+018199999V0203601N003119999999N0000001N9+01061+99999099311ADDAJ100009199999999GF106991999999999999999999
0029028360999991926061513004+67367+026650FM-12+018199999V0203601N003119999999N0000001N9+01941+99999099111ADDGF102991999999999999999999
0029028360999991926061520004+67367+026650FM-12+018199999V0203601N005119999999N0000001N9+01001+99999099241ADDGF103991999999999999999999
0046028360999991926061606004+67367+026650FM-12+018199999V0203601N006219999999N0000001N9+00441+99999099551ADDAJ100009199999999GF108991999999999999999999
0029028360999991926061613004+67367+026650FM-12+018199999V0203601N007219999999N0000001N9+00941+99999099421ADDGF106991999999999999999999
0029028360999991926061620004+67367+026650FM-12+018199999V0203601N006219999999N0000001N9+00561+99999099321ADDGF102991999999999999999999
0046028360999991926061706004+67367+026650FM-12+018199999V0203601N008219999999N0000001N9+00221+99999098991ADDAJ100009199999999GF108991999999999999999999
0035028360999991926061713004+67367+026650FM-12+018199999V0203601N007219999999N0000001N9+00611+99999098681ADDGF108991999999999999999999MW1621
0035028360999991926061720004+67367+026650FM-12+018199999V0200201N006219999999N0000001N9+00221+99999098581ADDGF108991999999999999999999MW1621
0052028360999991926061806004+67367+026650FM-12+018199999V0203601N003119999999N0000001N9+00001+99999098321ADDAJ100009199999999GF108991999999999999999999MW1691
0035028360999991926061813004+67367+026650FM-12+018199999V0203601N006219999999N0000001N9+00221+99999098141ADDGF108991999999999999999999MW1691
0035028360999991926061820004+67367+026650FM-12+018199999V0203601N007219999999N0000001N9+00171+99999097901ADDGF108991999999999999999999MW1691
0052028360999991926061906004+67367+026650FM-12+018199999V0203601N003119999999N0000001N9+00111+99999097281ADDAJ100009199999999GF108991999999999999999999MW1691
0035028360999991926061913004+67367+026650FM-12+018199999V0203201N003119999999N0000001N9+00281+99999097281ADDGF108991999999999999999999MW1691
0035028360999991926061920004+67367+026650FM-12+018199999V0203601N004119999999N0000001N9+00221+99999097441ADDGF108991999999999999999999MW1621
0052028360999991926062006004+67367+026650FM-12+018199999V0203601N003119999999N0000001N9+00281+99999097581ADDAJ100009199999999GF108991999999999999999999MW1621
0035028360999991926062013004+67367+026650FM-12+018199999V0203601N004119999999N0000001N9+00721+99999097881ADDGF108991999999999999999999MW1621
0029028360999991926062020004+67367+026650FM-12+018199999V0203601N004119999999N0000001N9+00611+99999098221ADDGF108991999999999999999999
0046028360999991926062106004+67367+026650FM-12+018199999V0203201N004119999999N0000001N9+00391+99999098351ADDAJ100009199999999GF108991999999999999999999
0035028360999991926062113004+67367+026650FM-12+018199999V0203201N003119999999N0000001N9+00781+99999098321ADDGF108991999999999999999999MW1601
0029028360999991926062120004+67367+026650FM-12+018199999V0200901N001019999999N0000001N9+00671+99999098341ADDGF108991999999999999999999
0046028360999991926062206004+67367+026650FM-12+018199999V0209991C000019999999N0000001N9+00611+99999098361ADDAJ100009199999999GF108991999999999999999999
0029028360999991926062213004+67367+026650FM-12+018199999V0200501N001019999999N0000001N9+01111+99999098341ADDGF108991999999999999999999
0029028360999991926062220004+67367+026650FM-12+018199999V0202901N001019999999N0000001N9+00941+99999098381ADDGF102991999999999999999999
0046028360999991926062306004+67367+026650FM-12+018199999V0200501N003119999999N0000001N9+01171+99999098441ADDAJ100009199999999GF100991999999999999999999
0029028360999991926062313004+67367+026650FM-12+018199999V0200901N001019999999N0000001N9+01391+99999098341ADDGF108991999999999999999999
0029028360999991926062320004+67367+026650FM-12+018199999V0200501N003119999999N0000001N9+01171+99999098151ADDGF108991999999999999999999
0046028360999991926062406004+67367+026650FM-12+018199999V0202001N004119999999N0000001N9+01061+99999097881ADDAJ100009199999999GF107991999999999999999999
0029028360999991926062413004+67367+026650FM-12+018199999V0202301N003119999999N0000001N9+01281+99999098061ADDGF108991999999999999999999
0035028360999991926062420004+67367+026650FM-12+018199999V0202501N003119999999N0000001N9+01061+99999098481ADDGF108991999999999999999999MW1621
0046028360999991926062506004+67367+026650FM-12+018199999V0202001N003119999999N0000001N9+00941+99999099221ADDAJ100009199999999GF108991999999999999999999
0029028360999991926062513004+67367+026650FM-12+018199999V0202001N003119999999N0000001N9+01721+99999099391ADDGF108991999999999999999999
0029028360999991926062520004+67367+026650FM-12+018199999V0209991C000019999999N0000001N9+01281+99999099471ADDGF108991999999999999999999
0046028360999991926062606004+67367+026650FM-12+018199999V0209991C000019999999N0000001N9+01441+99999099821ADDAJ100009199999999GF100991999999999999999999
0029028360999991926062613004+67367+026650FM-12+018199999V0209991C000019999999N0000001N9+01781+99999099951ADDGF108991999999999999999999
0029028360999991926062620004+67367+026650FM-12+018199999V0209991C000019999999N0000001N9+01331+99999999999ADDGF104991999999999999999999
0046028360999991926062706004+67367+026650FM-12+018199999V0209991C000019999999N0000001N9+01281+99999100111ADDAJ100009199999999GF108991999999999999999999
0029028360999991926062713004+67367+026650FM-12+018199999V0200901N001019999999N0000001N9+02061+99999100061ADDGF108991999999999999999999
0035028360999991926062720004+67367+026650FM-12+018199999V0201401N005119999999N0000001N9+01501+99999099911ADDGF108991999999999999999999MW1621
0052028360999991926062806004+67367+026650FM-12+018199999V0201401N003119999999N0000001N9+01221+99999099701ADDAJ100009199999999GF108991999999999999999999MW1601
0029028360999991926062813004+67367+026650FM-12+018199999V0201401N003119999999N0000001N9+01671+99999099631ADDGF108991999999999999999999
0029028360999991926062820004+67367+026650FM-12+018199999V0209991C000019999999N0000001N9+01721+99999099641ADDGF108991999999999999999999
0046028360999991926062906004+67367+026650FM-12+018199999V0201401N001019999999N0000001N9+01561+99999099761ADDAJ100009199999999GF108991999999999999999999
0029028360999991926062913004+67367+026650FM-12+018199999V0202301N003119999999N0000001N9+01671+99999099821ADDGF108991999999999999999999
0029028360999991926062920004+67367+026650FM-12+018199999V0202001N003119999999N0000001N9+01671+99999099761ADDGF106991999999999999999999
0046028360999991926063006004+67367+026650FM-12+018199999V0203601N001019999999N0000001N9+01331+99999099951ADDAJ100009199999999GF108991999999999999999999
0029028360999991926063013004+67367+026650FM-12+018199999V0200201N003119999999N0000001N9+01331+99999100121ADDGF108991999999999999999999
0029028360999991926063020004+67367+026650FM-12+018199999V0200501N003119999999N0000001N9+01061+99999100261ADDGF108991999999999999999999
0046028360999991926070106004+67367+026650FM-12+018199999V0203601N003119999999N0000001N9+01061+99999100401ADDAJ100009199999999GF108991999999999999999999
0029028360999991926070113004+67367+026650FM-12+018199999V0203601N001019999999N0000001N9+01561+99999100321ADDGF108991999999999999999999
0035028360999991926070120004+67367+026650FM-12+018199999V0209991C000019999999N0000001N9+01221+99999100301ADDGF108991999999999999999999MW1621
0052028360999991926070206004+67367+026650FM-12+018199999V0202301N003119999999N0000001N9+01331+99999100231ADDAJ100009199999999GF108991999999999999999999MW1601
0029028360999991926070213004+67367+026650FM-12+018199999V0202701N003119999999N0000001N9+01831+99999100071ADDGF104991999999999999999999
0029028360999991926070220004+67367+026650FM-12+018199999V0209991C000019999999N0000001N9+01561+99999099981ADDGF100991999999999999999999
0046028360999991926070306004+67367+026650FM-12+018199999V0203201N003119999999N0000001N9+01281+99999099961ADDAJ100009199999999GF102991999999999999999999
0029028360999991926070313004+67367+026650FM-12+018199999V0202901N003119999999N0000001N9+01611+99999099711ADDGF104991999999999999999999
0029028360999991926070320004+67367+026650FM-12+018199999V0203601N001019999999N0000001N9+01391+99999099541ADDGF107991999999999999999999
0046028360999991926070406004+67367+026650FM-12+018199999V0203601N005119999999N0000001N9+01001+99999099541ADDAJ100009199999999GF108991999999999999999999
0029028360999991926070413004+67367+026650FM-12+018199999V0203601N003119999999N0000001N9+01331+99999099551ADDGF107991999999999999999999
0029028360999991926070420004+67367+026650FM-12+018199999V0203601N002119999999N0000001N9+01111+99999099631ADDGF102991999999999999999999
0046028360999991926070506004+67367+026650FM-12+018199999V0203601N003119999999N0000001N9+01001+99999099761ADDAJ100009199999999GF108991999999999999999999
0029028360999991926070513004+67367+026650FM-12+018199999V0203201N003119999999N0000001N9+01441+99999099521ADDGF108991999999999999999999
0029028360999991926070520004+67367+026650FM-12+018199999V0209991C000019999999N0000001N9+01391+99999099151ADDGF108991999999999999999999
0046028360999991926070606004+67367+026650FM-12+018199999V0203201N004119999999N0000001N9+01221+99999098781ADDAJ100009199999999GF108991999999999999999999
0029028360999991926070613004+67367+026650FM-12+018199999V0203201N005119999999N0000001N9+01721+99999098601ADDGF107991999999999999999999
0029028360999991926070620004+67367+026650FM-12+018199999V0203601N005119999999N0000001N9+01111+99999098831ADDGF108991999999999999999999
0046028360999991926070706004+67367+026650FM-12+018199999V0203601N005119999999N0000001N9+00721+99999099201ADDAJ100009199999999GF108991999999999999999999
0029028360999991926070713004+67367+026650FM-12+018199999V0203601N005119999999N0000001N9+01221+99999099441ADDGF108991999999999999999999
0029028360999991926070720004+67367+026650FM-12+018199999V0209991C000019999999N0000001N9+01061+99999099551ADDGF101991999999999999999999
0046028360999991926070806004+67367+026650FM-12+018199999V0209991C000019999999N0000001N9+00831+99999099781ADDAJ100009199999999GF108991999999999999999999
0029028360999991926070813004+67367+026650FM-12+018199999V0203601N001019999999N0000001N9+01391+99999099721ADDGF108991999999999999999999
0029028360999991926070820004+67367+026650FM-12+018199999V0209991C000019999999N0000001N9+01281+99999099631ADDGF106991999999999999999999
0046028360999991926070906004+67367+026650FM-12+018199999V0209991C000019999999N0000001N9+01171+99999099431ADDAJ100009199999999GF108991999999999999999999
0029028360999991926070913004+67367+026650FM-12+018199999V0202301N005119999999N0000001N9+02171+99999099031ADDGF108991999999999999999999
0035028360999991926070920004+67367+026650FM-12+018199999V0202701N006219999999N0000001N9+01561+99999098741ADDGF108991999999999999999999MW1621
0046028360999991926071006004+67367+026650FM-12+018199999V0203601N005119999999N0000001N9+01001+99999098791ADDAJ100009199999999GF108991999999999999999999
0029028360999991926071013004+67367+026650FM-12+018199999V0203201N005119999999N0000001N9+01391+99999099031ADDGF107991999999999999999999
0029028360999991926071020004+67367+026650FM-12+018199999V0203601N001019999999N0000001N9+01061+99999099281ADDGF101991999999999999999999
0046028360999991926071106004+67367+026650FM-12+018199999V0202901N001019999999N0000001N9+01281+99999099461ADDAJ100009199999999GF106991999999999999999999
0029028360999991926071113004+67367+026650FM-12+018199999V0202501N003119999999N0000001N9+01391+99999099391ADDGF108991999999999999999999
0029028360999991926071120004+67367+026650FM-12+018199999V0202501N001019999999N0000001N9+01221+99999099161ADDGF108991999999999999999999
0046028360999991926071206004+67367+026650FM-12+018199999V0202301N003119999999N0000001N9+01111+99999098801ADDAJ100009199999999GF108991999999999999999999
0029028360999991926071213004+67367+026650FM-12+018199999V0202301N001019999999N0000001N9+01611+99999098641ADDGF108991999999999999999999
0029028360999991926071220004+67367+026650FM-12+018199999V0209991C000019999999N0000001N9+01441+99999098781ADDGF107991999999999999999999
0052028360999991926071306004+67367+026650FM-12+018199999V0202301N003119999999N0000001N9+01171+99999098381ADDAJ100009199999999GF108991999999999999999999MW1621
0029028360999991926071313004+67367+026650FM-12+018199999V0202901N008219999999N0000001N9+01781+99999097991ADDGF108991999999999999999999
0029028360999991926071320004+67367+026650FM-12+018199999V0203201N003119999999N0000001N9+01501+99999097961ADDGF107991999999999999999999
0046028360999991926071406004+67367+026650FM-12+018199999V0202701N005119999999N0000001N9+01281+99999098061ADDAJ100009199999999GF107991999999999999999999
0029028360999991926071413004+67367+026650FM-12+018199999V0202701N005119999999N0000001N9+01671+99999098041ADDGF106991999999999999999999
0029028360999991926071420004+67367+026650FM-12+018199999V0209991C000019999999N0000001N9+01111+99999097871ADDGF108991999999999999999999
0046028360999991926071506004+67367+026650FM-12+018199999V0203601N005119999999N0000001N9+01001+99999097721ADDAJ100009199999999GF108991999999999999999999
0029028360999991926071513004+67367+026650FM-12+018199999V0203401N005119999999N0000001N9+01281+99999097901ADDGF108991999999999999999999
0029028360999991926071520004+67367+026650FM-12+018199999V0200201N003119999999N0000001N9+00941+99999098241ADDGF108991999999999999999999
0046028360999991926071606004+67367+026650FM-12+018199999V0203601N002119999999N0000001N9+00671+99999098761ADDAJ100009199999999GF108991999999999999999999
0029028360999991926071613004+67367+026650FM-12+018199999V0203201N001019999999N0000001N9+01221+99999098831ADDGF108991999999999999999999
0029028360999991926071620004+67367+026650FM-12+018199999V0209991C000019999999N0000001N9+00891+99999098721ADDGF102991999999999999999999
0046028360999991926071706004+67367+026650FM-12+018199999V0202301N003119999999N0000001N9+01111+99999098681ADDAJ100009199999999GF108991999999999999999999
0029028360999991926071713004+67367+026650FM-12+018199999V0202301N003119999999N0000001N9+01561+99999098631ADDGF105991999999999999999999
0029028360999991926071720004+67367+026650FM-12+018199999V0202301N003119999999N0000001N9+01281+99999098671ADDGF108991999999999999999999
0046028360999991926071806004+67367+026650FM-12+018199999V0202301N004119999999N0000001N9+01331+99999098591ADDAJ100009199999999GF104991999999999999999999
0029028360999991926071813004+67367+026650FM-12+018199999V0202501N005119999999N0000001N9+01781+99999098501ADDGF105991999999999999999999
0029028360999991926071820004+67367+026650FM-12+018199999V0202301N005119999999N0000001N9+01281+99999098431ADDGF103991999999999999999999
0046028360999991926071906004+67367+026650FM-12+018199999V0202001N003119999999N0000001N9+01281+99999098201ADDAJ100009199999999GF106991999999999999999999
0029028360999991926071913004+67367+026650FM-12+018199999V0202701N005119999999N0000001N9+01891+99999098031ADDGF103991999999999999999999
0029028360999991926071920004+67367+026650FM-12+018199999V0209991C000019999999N0000001N9+01281+99999098061ADDGF108991999999999999999999
0046028360999991926072006004+67367+026650FM-12+018199999V0203401N003119999999N0000001N9+01111+99999098221ADDAJ100009199999999GF107991999999999999999999
0029028360999991926072013004+67367+026650FM-12+018199999V0203401N003119999999N0000001N9+01561+99999098311ADDGF105991999999999999999999
0029028360999991926072020004+67367+026650FM-12+018199999V0209991C000019999999N0000001N9+01221+99999098421ADDGF101991999999999999999999
0046028360999991926072106004+67367+026650FM-12+018199999V0203601N003119999999N0000001N9+01001+99999098641ADDAJ100009199999999GF105991999999999999999999
0029028360999991926072113004+67367+026650FM-12+018199999V0200701N003119999999N0000001N9+01501+99999098601ADDGF103991999999999999999999
0029028360999991926072120004+67367+026650FM-12+018199999V0209991C000019999999N0000001N9+01281+99999098581ADDGF100991999999999999999999
0046028360999991926072206004+67367+026650FM-12+018199999V0202001N001019999999N0000001N9+01281+99999098641ADDAJ100009199999999GF100991999999999999999999
0029028360999991926072213004+67367+026650FM-12+018199999V0201601N003119999999N0000001N9+01721+99999098601ADDGF104991999999999999999999
0029028360999991926072220004+67367+026650FM-12+018199999V0209991C000019999999N0000001N9+01391+99999098591ADDGF102991999999999999999999
0046028360999991926072306004+67367+026650FM-12+018199999V0202001N003119999999N0000001N9+01611+99999098801ADDAJ100009199999999GF106991999999999999999999
0029028360999991926072313004+67367+026650FM-12+018199999V0201801N003119999999N0000001N9+02221+99999098761ADDGF102991999999999999999999
0029028360999991926072320004+67367+026650FM-12+018199999V0201401N001019999999N0000001N9+01501+99999098601ADDGF102991999999999999999999
0046028360999991926072406004+67367+026650FM-12+018199999V0201801N001019999999N0000001N9+01611+99999098541ADDAJ100009199999999GF100991999999999999999999
0029028360999991926072413004+67367+026650FM-12+018199999V0201801N005119999999N0000001N9+02331+99999098301ADDGF100991999999999999999999
0029028360999991926072420004+67367+026650FM-12+018199999V0202301N001019999999N0000001N9+01831+99999098191ADDGF101991999999999999999999
0046028360999991926072506004+67367+026650FM-12+018199999V0209991C000019999999N0000001N9+01561+99999098321ADDAJ100009199999999GF108991999999999999999999
0029028360999991926072513004+67367+026650FM-12+018199999V0202001N001019999999N0000001N9+02171+99999098421ADDGF108991999999999999999999
0029028360999991926072520004+67367+026650FM-12+018199999V0209991C000019999999N0000001N9+01561+99999098461ADDGF101991999999999999999999
0046028360999991926072606004+67367+026650FM-12+018199999V0202001N003119999999N0000001N9+01831+99999098551ADDAJ100009199999999GF100991999999999999999999
0029028360999991926072613004+67367+026650FM-12+018199999V0200901N001019999999N0000001N9+02331+99999098481ADDGF103991999999999999999999
0029028360999991926072620004+67367+026650FM-12+018199999V0209991C000019999999N0000001N9+01781+99999098381ADDGF106991999999999999999999
0046028360999991926072706004+67367+026650FM-12+018199999V0209991C000019999999N0000001N9+01671+99999098541ADDAJ100009199999999GF102991999999999999999999
0029028360999991926072720004+67367+026650FM-12+018199999V0200201N003119999999N0000001N9+01831+99999098641ADDGF100991999999999999999999
0046028360999991926072806004+67367+026650FM-12+018199999V0200501N003119999999N0000001N9+01111+99999098951ADDAJ100009199999999GF108991999999999999999999
0029028360999991926072813004+67367+026650FM-12+018199999V0200501N005119999999N0000001N9+02221+99999098941ADDGF100991999999999999999999
0029028360999991926072820004+67367+026650FM-12+018199999V0209991C000019999999N0000001N9+01781+99999099031ADDGF100991999999999999999999
0046028360999991926072906004+67367+026650FM-12+018199999V0203601N001019999999N0000001N9+01561+99999099231ADDAJ100009199999999GF100991999999999999999999
0035028360999991926072913004+67367+026650FM-12+018199999V0203601N001019999999N0000001N9+02611+99999099061ADDGF106991999999999999999999MW1171
0029028360999991926072920004+67367+026650FM-12+018199999V0209991C000019999999N0000001N9+01831+99999099101ADDGF108991999999999999999999
0046028360999991926073006004+67367+026650FM-12+018199999V0203601N003119999999N0000001N9+01441+99999099381ADDAJ100009199999999GF103991999999999999999999
0029028360999991926073020004+67367+026650FM-12+018199999V0200501N001019999999N0000001N9+01501+99999099501ADDGF102991999999999999999999
0046028360999991926073106004+67367+026650FM-12+018199999V0202001N003119999999N0000001N9+01331+99999099641ADDAJ100009199999999GF107991999999999999999999
0029028360999991926073113004+67367+026650FM-12+018199999V0200501N001019999999N0000001N9+02001+99999099431ADDGF103991999999999999999999
0029028360999991926073120004+67367+026650FM-12+018199999V0202301N001019999999N0000001N9+01331+99999099321ADDGF101991999999999999999999
0046028360999991926080106004+67367+026650FM-12+018199999V0200201N005119999999N0000001N9+01281+99999099721ADDAJ100009199999999GF100991999999999999999999
0029028360999991926080113004+67367+026650FM-12+018199999V0200201N005119999999N0000001N9+01891+99999099801ADDGF101991999999999999999999
0029028360999991926080120004+67367+026650FM-12+018199999V0209991C000019999999N0000001N9+01171+99999099921ADDGF101991999999999999999999
0046028360999991926080206004+67367+026650FM-12+018199999V0203401N003119999999N0000001N9+01061+99999100041ADDAJ100009199999999GF108991999999999999999999
0029028360999991926080213004+67367+026650FM-12+018199999V0200501N003119999999N0000001N9+01501+99999999999ADDGF106991999999999999999999
0029028360999991926080220004+67367+026650FM-12+018199999V0203601N002119999999N0000001N9+01171+99999099991ADDGF101991999999999999999999
0046028360999991926080306004+67367+026650FM-12+018199999V0200201N001019999999N0000001N9+01111+99999100021ADDAJ100009199999999GF100991999999999999999999
0029028360999991926080313004+67367+026650FM-12+018199999V0200501N003119999999N0000001N9+01781+99999099911ADDGF108991999999999999999999
0029028360999991926080320004+67367+026650FM-12+018199999V0209991C000019999999N0000001N9+01501+99999099831ADDGF107991999999999999999999
0046028360999991926080406004+67367+026650FM-12+018199999V0209991C000019999999N0000001N9+01331+99999099941ADDAJ100009199999999GF108991999999999999999999
0029028360999991926080413004+67367+026650FM-12+018199999V0200901N001019999999N0000001N9+02001+99999099951ADDGF107991999999999999999999
0029028360999991926080420004+67367+026650FM-12+018199999V0203601N003119999999N0000001N9+01671+99999999999ADDGF108991999999999999999999
0052028360999991926080506004+67367+026650FM-12+018199999V0200701N001019999999N0000001N9+01281+99999100281ADDAJ100009199999999GF108991999999999999999999MW1601
0035028360999991926080513004+67367+026650FM-12+018199999V0202301N003119999999N0000001N9+01781+99999100311ADDGF108991999999999999999999MW1621
0029028360999991926080520004+67367+026650FM-12+018199999V0201801N002119999999N0000001N9+01501+99999100351ADDGF107991999999999999999999
0046028360999991926080606004+67367+026650FM-12+018199999V0209991C000019999999N0000001N9+01391+99999100261ADDAJ100009199999999GF108991999999999999999999
0029028360999991926080613004+67367+026650FM-12+018199999V0202501N003119999999N0000001N9+02111+99999100141ADDGF107991999999999999999999
0029028360999991926080620004+67367+026650FM-12+018199999V0202001N001019999999N0000001N9+01501+99999099981ADDGF102991999999999999999999
0046028360999991926080706004+67367+026650FM-12+018199999V0209991C000019999999N0000001N9+01171+99999099901ADDAJ100009199999999GF100991999999999999999999
0029028360999991926080713004+67367+026650FM-12+018199999V0202301N005119999999N0000001N9+02221+99999099761ADDGF101991999999999999999999
0029028360999991926080720004+67367+026650FM-12+018199999V0201801N002119999999N0000001N9+01501+99999099661ADDGF102991999999999999999999
0046028360999991926080806004+67367+026650FM-12+018199999V0209991C000019999999N0000001N9+01501+99999099621ADDAJ100009199999999GF103991999999999999999999
0035028360999991926080813004+67367+026650FM-12+018199999V0203601N003119999999N0000001N9+01561+99999099641ADDGF108991999999999999999999MW1621
0035028360999991926080820004+67367+026650FM-12+018199999V0203601N003119999999N0000001N9+01281+99999099791ADDGF108991999999999999999999MW1621
0046028360999991926080906004+67367+026650FM-12+018199999V0200201N004119999999N0000001N9+01001+99999099961ADDAJ100009199999999GF104991999999999999999999
0029028360999991926080913004+67367+026650FM-12+018199999V0203601N005119999999N0000001N9+01721+99999099871ADDGF104991999999999999999999
0029028360999991926080920004+67367+026650FM-12+018199999V0202701N001019999999N0000001N9+00891+99999099821ADDGF101991999999999999999999
0046028360999991926081006004+67367+026650FM-12+018199999V0203601N002119999999N0000001N9+00941+99999099761ADDAJ100009199999999GF108991999999999999999999
0029028360999991926081013004+67367+026650FM-12+018199999V0202701N004119999999N0000001N9+02061+99999099551ADDGF102991999999999999999999
0029028360999991926081020004+67367+026650FM-12+018199999V0202301N004119999999N0000001N9+01501+99999099321ADDGF103991999999999999999999
0046028360999991926081106004+67367+026650FM-12+018199999V0209991C000019999999N0000001N9+01171+99999099191ADDAJ100009199999999GF102991999999999999999999
0029028360999991926081113004+67367+026650FM-12+018199999V0202701N003119999999N0000001N9+01941+99999099031ADDGF107991999999999999999999
0035028360999991926081120004+67367+026650FM-12+018199999V0201801N003119999999N0000001N9+01441+99999099031ADDGF108991999999999999999999MW1171
0046028360999991926081206004+67367+026650FM-12+018199999V0201801N002119999999N0000001N9+01221+99999098911ADDAJ100009199999999GF108991999999999999999999
0029028360999991926081213004+67367+026650FM-12+018199999V0202301N005119999999N0000001N9+02221+99999098661ADDGF104991999999999999999999
0035028360999991926081220004+67367+026650FM-12+018199999V0201801N001019999999N0000001N9+01391+99999098601ADDGF108991999999999999999999MW1621
0052028360999991926081306004+67367+026650FM-12+018199999V0200201N003119999999N0000001N9+01171+99999098761ADDAJ100009199999999GF108991999999999999999999MW1601
0035028360999991926081313004+67367+026650FM-12+018199999V0200201N001019999999N0000001N9+01331+99999098861ADDGF108991999999999999999999MW1601
0035028360999991926081320004+67367+026650FM-12+018199999V0200201N001019999999N0000001N9+01171+99999098781ADDGF108991999999999999999999MW1621
0052028360999991926081406004+67367+026650FM-12+018199999V0200501N003119999999N0000001N9+01111+99999098631ADDAJ100009199999999GF108991999999999999999999MW1601
0035028360999991926081413004+67367+026650FM-12+018199999V0202301N005119999999N0000001N9+01501+99999098441ADDGF108991999999999999999999MW1621
0029028360999991926081420004+67367+026650FM-12+018199999V0201801N001019999999N0000001N9+01061+99999098441ADDGF101991999999999999999999
0046028360999991926081506004+67367+026650FM-12+018199999V0201801N003119999999N0000001N9+01281+99999098471ADDAJ100009199999999GF108991999999999999999999
0029028360999991926081513004+67367+026650FM-12+018199999V0202001N004119999999N0000001N9+01831+99999098401ADDGF108991999999999999999999
0029028360999991926081520004+67367+026650FM-12+018199999V0201801N001019999999N0000001N9+01331+99999098351ADDGF108991999999999999999999
0046028360999991926081606004+67367+026650FM-12+018199999V0201601N003119999999N0000001N9+01221+99999098401ADDAJ100009199999999GF108991999999999999999999
0029028360999991926081613004+67367+026650FM-12+018199999V0202701N004119999999N0000001N9+01831+99999098471ADDGF102991999999999999999999
0029028360999991926081620004+67367+026650FM-12+018199999V0201401N003119999999N0000001N9+01281+99999098781ADDGF108991999999999999999999
0046028360999991926081706004+67367+026650FM-12+018199999V0200201N001019999999N0000001N9+01061+99999098981ADDAJ100009199999999GF108991999999999999999999
0029028360999991926081713004+67367+026650FM-12+018199999V0203601N003119999999N0000001N9+01441+99999099021ADDGF102991999999999999999999
0029028360999991926081720004+67367+026650FM-12+018199999V0203601N001019999999N0000001N9+00831+99999098951ADDGF107991999999999999999999
0046028360999991926081806004+67367+026650FM-12+018199999V0203601N001019999999N0000001N9+00891+99999098871ADDAJ100009199999999GF108991999999999999999999
0029028360999991926081813004+67367+026650FM-12+018199999V0202301N001019999999N0000001N9+01281+99999098671ADDGF108991999999999999999999
0035028360999991926081820004+67367+026650FM-12+018199999V0203601N001019999999N0000001N9+01221+99999098441ADDGF108991999999999999999999MW1621
0046028360999991926081906004+67367+026650FM-12+018199999V0203601N003119999999N0000001N9+00501+99999098511ADDAJ100009199999999GF102991999999999999999999
0029028360999991926081913004+67367+026650FM-12+018199999V0203601N003119999999N0000001N9+01331+99999098501ADDGF100991999999999999999999
0029028360999991926081920004+67367+026650FM-12+018199999V0209991C000019999999N0000001N9+00391+99999098481ADDGF100991999999999999999999
0046028360999991926082006004+67367+026650FM-12+018199999V0209991C000019999999N0000001N9+00561+99999098521ADDAJ100009199999999GF102991999999999999999999
0029028360999991926082013004+67367+026650FM-12+018199999V0202001N003119999999N0000001N9+01671+99999098341ADDGF106991999999999999999999
0029028360999991926082020004+67367+026650FM-12+018199999V0209991C000019999999N0000001N9+00671+99999098201ADDGF102991999999999999999999
0052028360999991926082106004+67367+026650FM-12+018199999V0209991C000019999999N0000001N9+00891+99999097871ADDAJ100009199999999GF108991999999999999999999MW1621
0029028360999991926082113004+67367+026650FM-12+018199999V0201801N003119999999N0000001N9+01611+99999097481ADDGF108991999999999999999999
0029028360999991926082120004+67367+026650FM-12+018199999V0202001N001019999999N0000001N9+00941+99999097241ADDGF102991999999999999999999
0052028360999991926082206004+67367+026650FM-12+018199999V0203601N001019999999N0000001N9+01061+99999096821ADDAJ100009199999999GF108991999999999999999999MW1621
0035028360999991926082213004+67367+026650FM-12+018199999V0201101N003119999999N0000001N9+01441+99999096511ADDGF108991999999999999999999MW1621
0029028360999991926082220004+67367+026650FM-12+018199999V0209991C000019999999N0000001N9+01001+99999096501ADDGF100991999999999999999999
0046028360999991926082306004+67367+026650FM-12+018199999V0209991C000019999999N0000001N9+01111+99999096871ADDAJ100009199999999GF108991999999999999999999
0029028360999991926082313004+67367+026650FM-12+018199999V0201401N001019999999N0000001N9+01561+99999097151ADDGF108991999999999999999999
0035028360999991926082320004+67367+026650FM-12+018199999V0203401N003119999999N0000001N9+01281+99999097321ADDGF108991999999999999999999MW1621
0052028360999991926082406004+67367+026650FM-12+018199999V0203601N003119999999N0000001N9+00721+99999097481ADDAJ100009199999999GF108991999999999999999999MW1621
0029028360999991926082413004+67367+026650FM-12+018199999V0200501N003119999999N0000001N9+01441+99999097441ADDGF108991999999999999999999
0035028360999991926082420004+67367+026650FM-12+018199999V0200201N003119999999N0000001N9+01001+99999097481ADDGF108991999999999999999999MW1621
0046028360999991926082506004+67367+026650FM-12+018199999V0200201N003119999999N0000001N9+00891+99999097421ADDAJ100009199999999GF108991999999999999999999
0029028360999991926082513004+67367+026650FM-12+018199999V0203601N003119999999N0000001N9+01281+99999097401ADDGF108991999999999999999999
0029028360999991926082520004+67367+026650FM-12+018199999V0209991C000019999999N0000001N9+00891+99999097381ADDGF107991999999999999999999
0052028360999991926082606004+67367+026650FM-12+018199999V0203601N001019999999N0000001N9+01061+99999097311ADDAJ100009199999999GF108991999999999999999999MW1601
0029028360999991926082613004+67367+026650FM-12+018199999V0200201N003119999999N0000001N9+01561+99999097321ADDGF106991999999999999999999
0029028360999991926082620004+67367+026650FM-12+018199999V0203601N005119999999N0000001N9+00941+99999097541ADDGF108991999999999999999999
0046028360999991926082706004+67367+026650FM-12+018199999V0200201N003119999999N0000001N9+00891+99999097861ADDAJ100009199999999GF108991999999999999999999
0029028360999991926082713004+67367+026650FM-12+018199999V0203601N005119999999N0000001N9+01111+99999098181ADDGF108991999999999999999999
0029028360999991926082720004+67367+026650FM-12+018199999V0203601N003119999999N0000001N9+01001+99999098431ADDGF108991999999999999999999
0046028360999991926082806004+67367+026650FM-12+018199999V0200201N005119999999N0000001N9+00831+99999098721ADDAJ100009199999999GF108991999999999999999999
0029028360999991926082813004+67367+026650FM-12+018199999V0203601N003119999999N0000001N9+01331+99999098911ADDGF106991999999999999999999
0035028360999991926082820004+67367+026650FM-12+018199999V0203601N003119999999N0000001N9+00941+99999099001ADDGF108991999999999999999999MW1621
0052028360999991926082906004+67367+026650FM-12+018199999V0203601N003119999999N0000001N9+00781+99999099391ADDAJ100009199999999GF108991999999999999999999MW1601
0035028360999991926082913004+67367+026650FM-12+018199999V0203601N003119999999N0000001N9+01171+99999099711ADDGF108991999999999999999999MW1601
0029028360999991926082920004+67367+026650FM-12+018199999V0209991C000019999999N0000001N9+00781+99999099951ADDGF107991999999999999999999
