0029029720999991903010106004+60450+022267FM-12+001499999V0200501N006719999999N0000001N9-00891+99999099671ADDGF108991999999999999999999
0029029720999991903010113004+60450+022267FM-12+001499999V0200501N012319999999N0000001N9-00891+99999099311ADDGF108991999999999999999999
0029029720999991903010120004+60450+022267FM-12+001499999V0203401N009319999999N0000001N9-01061+99999099191ADDGF108991999999999999999999
0029029720999991903010206004+60450+022267FM-12+001499999V0203401N004619999999N0000001N9-00941+99999099981ADDGF108991999999999999999999
0029029720999991903010213004+60450+022267FM-12+001499999V0203201N009319999999N0000001N9-00831+99999100401ADDGF108991999999999999999999
0029029720999991903010220004+60450+022267FM-12+001499999V0203201N002619999999N0000001N9-01281+99999100821ADDGF100991999999999999999999
0029029720999991903010306004+60450+022267FM-12+001499999V0201101N002619999999N0000001N9-01721+99999101191ADDGF100991999999999999999999
0029029720999991903010313004+60450+022267FM-12+001499999V0200201N001019999999N0000001N9-00721+99999101271ADDGF108991999999999999999999
0029029720999991903010320004+60450+022267FM-12+001499999V0201101N009319999999N0000001N9-00501+99999101031ADDGF108991999999999999999999
0029029720999991903010406004+60450+022267FM-12+001499999V0201101N015419999999N0000001N9-00561+99999100281ADDGF108991999999999999999999
0029029720999991903010413004+60450+022267FM-12+001499999V0201401N015419999999N0000001N9-00561+99999099551ADDGF108991999999999999999999
0029029720999991903010420004+60450+022267FM-12+001499999V0202001N012319999999N0000001N9-00171+99999098751ADDGF108991999999999999999999
0029029720999991903010506004+60450+022267FM-12+001499999V0209991C000019999999N0000001N9+00061+99999099201ADDGF108991999999999999999999
0029029720999991903010513004+60450+022267FM-12+001499999V0209991C000019999999N0000001N9+00061+99999099261ADDGF108991999999999999999999
0029029720999991903010520004+60450+022267FM-12+001499999V0202301N001019999999N0000001N9+00001+99999099501ADDGF108991999999999999999999
0029029720999991903010606004+60450+022267FM-12+001499999V0202301N002619999999N0000001N9+00061+99999099701ADDGF108991999999999999999999
0029029720999991903010613004+60450+022267FM-12+001499999V0202301N004619999999N0000001N9-00111+99999099751ADDGF108991999999999999999999
0029029720999991903010620004+60450+022267FM-12+001499999V0202001N002619999999N0000001N9-00171+99999099641ADDGF108991999999999999999999
0029029720999991903010706004+60450+022267FM-12+001499999V0201101N006719999999N0000001N9+00001+99999099061ADDGF108991999999999999999999
0029029720999991903010713004+60450+022267FM-12+001499999V0201601N009319999999N0000001N9+00061+99999098921ADDGF108991999999999999999999
0029029720999991903010720004+60450+022267FM-12+001499999V0201601N004619999999N0000001N9+00221+99999098781ADDGF108991999999999999999999
0029029720999991903010806004+60450+022267FM-12+001499999V0209991C000019999999N0000001N9+00111+99999098281ADDGF108991999999999999999999
0029029720999991903010813004+60450+022267FM-12+001499999V0201601N004619999999N0000001N9+00171+99999098021ADDGF108991999999999999999999
0029029720999991903010820004+60450+022267FM-12+001499999V0202701N002619999999N0000001N9+00061+99999098061ADDGF108991999999999999999999
0029029720999991903010906004+60450+022267FM-12+001499999V0202901N015419999999N0000001N9-00281+99999099031ADDGF108991999999999999999999
0029029720999991903010913004+60450+022267FM-12+001499999V0202901N004619999999N0000001N9-00171+99999099321ADDGF108991999999999999999999
0029029720999991903010920004+60450+022267FM-12+001499999V0202901N009319999999N0000001N9-00171+99999099631ADDGF108991999999999999999999
0029029720999991903011006004+60450+022267FM-12+001499999V0202001N002619999999N0000001N9-00281+99999099781ADDGF108991999999999999999999
0029029720999991903011013004+60450+022267FM-12+001499999V0201601N006719999999N0000001N9-00171+99999099061ADDGF108991999999999999999999
0029029720999991903011020004+60450+022267FM-12+001499999V0202901N009319999999N0000001N9-00171+99999098231ADDGF108991999999999999999999
0029029720999991903011106004+60450+022267FM-12+001499999V0200201N002619999999N0000001N9-00611+99999098261ADDGF108991999999999999999999
0029029720999991903011113004+60450+022267FM-12+001499999V0200201N012319999999N0000001N9-00781+99999098681ADDGF108991999999999999999999
0029029720999991903011120004+60450+022267FM-12+001499999V0200201N012319999999N0000001N9-01171+99999099201ADDGF108991999999999999999999
0029029720999991903011206004+60450+022267FM-12+001499999V0203201N006719999999N0000001N9-01561+99999100741ADDGF100991999999999999999999
0029029720999991903011213004+60450+022267FM-12+001499999V0202901N002619999999N0000001N9-01441+99999101421ADDGF100991999999999999999999
0029029720999991903011220004+60450+022267FM-12+001499999V0202901N001019999999N0000001N9-02171+99999102001ADDGF100991999999999999999999
0029029720999991903011306004+60450+022267FM-12+001499999V0203201N002619999999N0000001N9-01331+99999101881ADDGF101991999999999999999999
0029029720999991903011313004+60450+022267FM-12+001499999V0203201N004619999999N0000001N9-00671+99999101901ADDGF107991999999999999999999
0029029720999991903011320004+60450+022267FM-12+001499999V0203201N004619999999N0000001N9-00391+99999101781ADDGF100991999999999999999999
0029029720999991903011406004+60450+022267FM-12+001499999V0209991C000019999999N0000001N9-00391+99999102221ADDGF100991999999999999999999
0029029720999991903011413004+60450+022267FM-12+001499999V0203201N002619999999N0000001N9-00221+99999102841ADDGF100991999999999999999999
0029029720999991903011420004+60450+022267FM-12+001499999V0209991C000019999999N0000001N9-00611+99999103391ADDGF108991999999999999999999
0029029720999991903011506004+60450+022267FM-12+001499999V0209991C000019999999N0000001N9-00221+99999103561ADDGF108991999999999999999999
0029029720999991903011513004+60450+022267FM-12+001499999V0203201N002619999999N0000001N9-00331+99999103461ADDGF108991999999999999999999
0029029720999991903011520004+60450+022267FM-12+001499999V0209991C000019999999N0000001N9-00331+99999103431ADDGF108991999999999999999999
0029029720999991903011606004+60450+022267FM-12+001499999V0209991C000019999999N0000001N9-00781+99999103701ADDGF108991999999999999999999
0029029720999991903011613004+60450+022267FM-12+001499999V0201801N002619999999N0000001N9-00781+99999103981ADDGF108991999999999999999999
0029029720999991903011620004+60450+022267FM-12+001499999V0201801N001019999999N0000001N9-00611+99999104111ADDGF108991999999999999999999
0029029720999991903011706004+60450+022267FM-12+001499999V0209991C000019999999N0000001N9-00391+99999104221ADDGF108991999999999999999999
0029029720999991903011713004+60450+022267FM-12+001499999V0203201N006719999999N0000001N9-00221+99999104191ADDGF108991999999999999999999
0029029720999991903011720004+60450+022267FM-12+001499999V0202701N006719999999N0000001N9-00391+99999104191ADDGF108991999999999999999999
0029029720999991903011806004+60450+022267FM-12+001499999V0202301N001019999999N0000001N9-00561+99999103981ADDGF100991999999999999999999
0029029720999991903011813004+60450+022267FM-12+001499999V0202901N006719999999N0000001N9-00561+99999103751ADDGF100991999999999999999999
0029029720999991903011820004+60450+022267FM-12+001499999V0209991C000019999999N0000001N9-00891+99999103521ADDGF100991999999999999999999
0029029720999991903011906004+60450+022267FM-12+001499999V0209991C000019999999N0000001N9-01061+99999103181ADDGF100991999999999999999999
0029029720999991903011913004+60450+022267FM-12+001499999V0202301N002619999999N0000001N9-00561+99999103061ADDGF100991999999999999999999
0029029720999991903011920004+60450+022267FM-12+001499999V0202501N006719999999N0000001N9-00671+99999102781ADDGF100991999999999999999999
0029029720999991903012006004+60450+022267FM-12+001499999V0202501N004619999999N0000001N9-00831+99999102361ADDGF108991999999999999999999
0029029720999991903012013004+60450+022267FM-12+001499999V0203201N002619999999N0000001N9-00441+99999102391ADDGF100991999999999999999999
0029029720999991903012020004+60450+022267FM-12+001499999V0202901N002619999999N0000001N9-00781+99999102781ADDGF100991999999999999999999
0029029720999991903012106004+60450+022267FM-12+001499999V0209991C000019999999N0000001N9-01221+99999102841ADDGF108991999999999999999999
0029029720999991903012113004+60450+022267FM-12+001499999V0202701N006719999999N0000001N9-00391+99999102711ADDGF108991999999999999999999
0029029720999991903012120004+60450+022267FM-12+001499999V0209991C000019999999N0000001N9-00941+99999102601ADDGF100991999999999999999999
0029029720999991903012206004+60450+022267FM-12+001499999V0209991C000019999999N0000001N9-01001+99999102321ADDGF108991999999999999999999
0029029720999991903012213004+60450+022267FM-12+001499999V0200901N004619999999N0000001N9-00781+99999102311ADDGF108991999999999999999999
0029029720999991903012220004+60450+022267FM-12+001499999V0202701N009319999999N0000001N9-00611+99999102061ADDGF108991999999999999999999
0029029720999991903012306004+60450+022267FM-12+001499999V0201401N004619999999N0000001N9-00441+99999101761ADDGF108991999999999999999999
0029029720999991903012313004+60450+022267FM-12+001499999V0201401N009319999999N0000001N9-00441+99999101561ADDGF108991999999999999999999
0029029720999991903012320004+60450+022267FM-12+001499999V0201401N009319999999N0000001N9-00611+99999101461ADDGF108991999999999999999999
0029029720999991903012406004+60450+022267FM-12+001499999V0201401N009319999999N0000001N9-00721+99999101461ADDGF108991999999999999999999
0029029720999991903012413004+60450+022267FM-12+001499999V0201401N009319999999N0000001N9-00781+99999101581ADDGF108991999999999999999999
0029029720999991903012420004+60450+022267FM-12+001499999V0201401N009319999999N0000001N9-00831+99999101621ADDGF108991999999999999999999
0029029720999991903012506004+60450+022267FM-12+001499999V0201401N019019999999N0000001N9-00891+99999101351ADDGF108991999999999999999999
0029029720999991903012513004+60450+022267FM-12+001499999V0201401N015419999999N0000001N9-00831+99999101441ADDGF108991999999999999999999
0029029720999991903012520004+60450+022267FM-12+001499999V0201401N012319999999N0000001N9-00611+99999101271ADDGF108991999999999999999999
0029029720999991903012606004+60450+022267FM-12+001499999V0201401N015419999999N0000001N9-00391+99999100561ADDGF108991999999999999999999
0029029720999991903012613004+60450+022267FM-12+001499999V0201801N012319999999N0000001N9-00111+99999100501ADDGF108991999999999999999999
0029029720999991903012620004+60450+022267FM-12+001499999V0201401N009319999999N0000001N9+00061+99999100481ADDGF108991999999999999999999
0029029720999991903012706004+60450+022267FM-12+001499999V0202001N006719999999N0000001N9+00171+99999099961ADDGF108991999999999999999999
0029029720999991903012713004+60450+022267FM-12+001499999V0202501N009319999999N0000001N9+00281+99999099601ADDGF108991999999999999999999
0029029720999991903012720004+60450+022267FM-12+001499999V0202501N015419999999N0000001N9+00281+99999099081ADDGF108991999999999999999999
0029029720999991903012806004+60450+022267FM-12+001499999V0202501N009319999999N0000001N9+00061+99999098791ADDGF108991999999999999999999
0029029720999991903012813004+60450+022267FM-12+001499999V0202501N012319999999N0000001N9+00221+99999098801ADDGF100991999999999999999999
0029029720999991903012820004+60450+022267FM-12+001499999V0202501N006719999999N0000001N9+00001+99999098511ADDGF100991999999999999999999
0029029720999991903012906004+60450+022267FM-12+001499999V0202501N006719999999N0000001N9-00171+99999098241ADDGF100991999999999999999999
0029029720999991903012913004+60450+022267FM-12+001499999V0202701N009319999999N0000001N9-00061+99999098391ADDGF107991999999999999999999
0029029720999991903012920004+60450+022267FM-12+001499999V0202901N004619999999N0000001N9-00171+99999098671ADDGF100991999999999999999999
0029029720999991903013006004+60450+022267FM-12+001499999V0201801N006719999999N0000001N9+00111+99999097881ADDGF108991999999999999999999
0029029720999991903013013004+60450+022267FM-12+001499999V0203201N009319999999N0000001N9+00331+99999097601ADDGF107991999999999999999999
0029029720999991903013020004+60450+022267FM-12+001499999V0202701N015419999999N0000001N9+00061+99999097911ADDGF100991999999999999999999
0029029720999991903013106004+60450+022267FM-12+001499999V0203401N015419999999N0000001N9-00061+99999098831ADDGF100991999999999999999999
0029029720999991903013113004+60450+022267FM-12+001499999V0202701N004619999999N0000001N9+00001+99999099781ADDGF108991999999999999999999
0029029720999991903013120004+60450+022267FM-12+001499999V0202001N006719999999N0000001N9+00061+99999099591ADDGF108991999999999999999999
0029029720999991903020106004+60450+022267FM-12+001499999V0202301N012319999999N0000001N9+00221+99999099311ADDGF108991999999999999999999
0029029720999991903020113004+60450+022267FM-12+001499999V0202501N009319999999N0000001N9+00221+99999099301ADDGF108991999999999999999999
0029029720999991903020120004+60450+022267FM-12+001499999V0202501N006719999999N0000001N9+00061+99999099311ADDGF108991999999999999999999
0029029720999991903020206004+60450+022267FM-12+001499999V0202001N006719999999N0000001N9+00111+99999099261ADDGF108991999999999999999999
0029029720999991903020213004+60450+022267FM-12+001499999V0202001N004619999999N0000001N9+00171+99999099401ADDGF108991999999999999999999
0029029720999991903020220004+60450+022267FM-12+001499999V0202001N006719999999N0000001N9+00061+99999099301ADDGF108991999999999999999999
0029029720999991903020306004+60450+022267FM-12+001499999V0202701N004619999999N0000001N9-00221+99999099431ADDGF100991999999999999999999
0029029720999991903020313004+60450+022267FM-12+001499999V0203201N006719999999N0000001N9+00061+99999099871ADDGF100991999999999999999999
0029029720999991903020320004+60450+022267FM-12+001499999V0202501N001019999999N0000001N9-00441+99999100391ADDGF100991999999999999999999
0029029720999991903020406004+60450+022267FM-12+001499999V0201401N001019999999N0000001N9-00171+99999100751ADDGF108991999999999999999999
0029029720999991903020413004+60450+022267FM-12+001499999V0201801N002619999999N0000001N9-00111+99999100621ADDGF108991999999999999999999
0029029720999991903020420004+60450+022267FM-12+001499999V0202301N006719999999N0000001N9-00061+99999100441ADDGF108991999999999999999999
0029029720999991903020506004+60450+022267FM-12+001499999V0209991C000019999999N0000001N9-00221+99999100461ADDGF108991999999999999999999
0029029720999991903020513004+60450+022267FM-12+001499999V0201801N006719999999N0000001N9+00001+99999100391ADDGF108991999999999999999999
0029029720999991903020520004+60450+022267FM-12+001499999V0202701N006719999999N0000001N9+00221+99999100311ADDGF100991999999999999999999
0029029720999991903020606004+60450+022267FM-12+001499999V0202501N006719999999N0000001N9+00111+99999100951ADDGF100991999999999999999999
0029029720999991903020613004+60450+022267FM-12+001499999V0202501N006719999999N0000001N9+00111+99999100801ADDGF104991999999999999999999
0029029720999991903020620004+60450+022267FM-12+001499999V0202301N006719999999N0000001N9+00171+99999100621ADDGF100991999999999999999999
0029029720999991903020706004+60450+022267FM-12+001499999V0202301N012319999999N0000001N9+00111+99999100081ADDGF108991999999999999999999
0029029720999991903020713004+60450+022267FM-12+001499999V0202301N015419999999N0000001N9+00111+99999099641ADDGF108991999999999999999999
0029029720999991903020720004+60450+022267FM-12+001499999V0202301N012319999999N0000001N9+00171+99999099551ADDGF108991999999999999999999
0029029720999991903020806004+60450+022267FM-12+001499999V0202301N019019999999N0000001N9+00221+99999097042ADDGF108991999999999999999999
0029029720999991903020813004+60450+022267FM-12+001499999V0202901N019019999999N0000001N9+00111+99999097151ADDGF108991999999999999999999
0029029720999991903020820004+60450+022267FM-12+001499999V0202901N019019999999N0000001N9+00001+99999097601ADDGF100991999999999999999999
0029029720999991903020906004+60450+022267FM-12+001499999V0202901N019019999999N0000001N9-00061+99999097951ADDGF108991999999999999999999
0029029720999991903020913004+60450+022267FM-12+001499999V0202901N019019999999N0000001N9+00281+99999098901ADDGF102991999999999999999999
0029029720999991903020920004+60450+022267FM-12+001499999V0203201N015419999999N0000001N9+00111+99999100161ADDGF100991999999999999999999
0029029720999991903021006004+60450+022267FM-12+001499999V0203201N012319999999N0000001N9-00331+99999101671ADDGF100991999999999999999999
0029029720999991903021013004+60450+022267FM-12+001499999V0202501N006719999999N0000001N9-00061+99999101581ADDGF108991999999999999999999
0029029720999991903021020004+60450+022267FM-12+001499999V0202301N015419999999N0000001N9+00001+99999099881ADDGF108991999999999999999999
0029029720999991903021106004+60450+022267FM-12+001499999V0203601N015419999999N0000001N9+00331+99999097751ADDGF108991999999999999999999
0029029720999991903021113004+60450+022267FM-12+001499999V0202701N012319999999N0000001N9+00391+99999097591ADDGF108991999999999999999999
0029029720999991903021120004+60450+022267FM-12+001499999V0202901N019019999999N0000001N9+00221+99999097401ADDGF108991999999999999999999
0029029720999991903021206004+60450+022267FM-12+001499999V0202901N015419999999N0000001N9-00111+99999097401ADDGF108991999999999999999999
0029029720999991903021213004+60450+022267FM-12+001499999V0203201N015419999999N0000001N9-00171+99999097161ADDGF108991999999999999999999
0029029720999991903021220004+60450+022267FM-12+001499999V0203601N012319999999N0000001N9-00441+99999098111ADDGF108991999999999999999999
0029029720999991903021306004+60450+022267FM-12+001499999V0203401N004619999999N0000001N9-01111+99999099351ADDGF108991999999999999999999
0029029720999991903021313004+60450+022267FM-12+001499999V0203601N004619999999N0000001N9-00611+99999099441ADDGF106991999999999999999999
0029029720999991903021320004+60450+022267FM-12+001499999V0203601N002619999999N0000001N9-01221+99999099781ADDGF100991999999999999999999
0029029720999991903021406004+60450+022267FM-12+001499999V0202701N004619999999N0000001N9-01061+99999099591ADDGF108991999999999999999999
0029029720999991903021413004+60450+022267FM-12+001499999V0202901N002619999999N0000001N9-00501+99999099321ADDGF101991999999999999999999
0029029720999991903021420004+60450+022267FM-12+001499999V0202701N002619999999N0000001N9-01061+99999099041ADDGF100991999999999999999999
0029029720999991903021506004+60450+022267FM-12+001499999V0209991C000019999999N0000001N9-01501+99999098701ADDGF108991999999999999999999
0029029720999991903021513004+60450+022267FM-12+001499999V0200201N009319999999N0000001N9-01111+99999098861ADDGF108991999999999999999999
0029029720999991903021520004+60450+022267FM-12+001499999V0200201N002619999999N0000001N9-01501+99999099551ADDGF100991999999999999999999
0029029720999991903021606004+60450+022267FM-12+001499999V0203401N006719999999N0000001N9-01391+99999100381ADDGF108991999999999999999999
0029029720999991903021613004+60450+022267FM-12+001499999V0203601N012319999999N0000001N9-00671+99999100921ADDGF108991999999999999999999
0029029720999991903021620004+60450+022267FM-12+001499999V0203201N001019999999N0000001N9-00941+99999101341ADDGF100991999999999999999999
0029029720999991903021706004+60450+022267FM-12+001499999V0202701N015419999999N0000001N9-00111+99999099981ADDGF108991999999999999999999
0029029720999991903021713004+60450+022267FM-12+001499999V0203201N015419999999N0000001N9-00171+99999100201ADDGF100991999999999999999999
0029029720999991903021720004+60450+022267FM-12+001499999V0203201N004619999999N0000001N9-01001+99999101401ADDGF100991999999999999999999
0029029720999991903021806004+60450+022267FM-12+001499999V0203601N001019999999N0000001N9-01501+99999102591ADDGF100991999999999999999999
0029029720999991903021813004+60450+022267FM-12+001499999V0202301N004619999999N0000001N9-01001+99999102751ADDGF102991999999999999999999
0029029720999991903021820004+60450+022267FM-12+001499999V0202301N012319999999N0000001N9-00501+99999102141ADDGF108991999999999999999999
0029029720999991903021906004+60450+022267FM-12+001499999V0202301N015419999999N0000001N9+00111+99999100551ADDGF108991999999999999999999
0029029720999991903021913004+60450+022267FM-12+001499999V0202501N009319999999N0000001N9+00221+99999100201ADDGF108991999999999999999999
0029029720999991903021920004+60450+022267FM-12+001499999V0202001N009319999999N0000001N9+00111+99999099801ADDGF108991999999999999999999
0029029720999991903022006004+60450+022267FM-12+001499999V0202501N009319999999N0000001N9+00281+99999099031ADDGF108991999999999999999999
0029029720999991903022013004+60450+022267FM-12+001499999V0202501N009319999999N0000001N9+00391+99999098641ADDGF108991999999999999999999
0029029720999991903022020004+60450+022267FM-12+001499999V0202701N009319999999N0000001N9+00281+99999099021ADDGF100991999999999999999999
0029029720999991903022106004+60450+022267FM-12+001499999V0201801N012319999999N0000001N9+00221+99999099281ADDGF108991999999999999999999
0029029720999991903022113004+60450+022267FM-12+001499999V0202301N015419999999N0000001N9+00221+99999098381ADDGF108991999999999999999999
0029029720999991903022120004+60450+022267FM-12+001499999V0202701N004619999999N0000001N9+00221+99999098271ADDGF100991999999999999999999
0029029720999991903022206004+60450+022267FM-12+001499999V0202701N006719999999N0000001N9+00061+99999097591ADDGF102991999999999999999999
0029029720999991903022213004+60450+022267FM-12+001499999V0202301N012319999999N0000001N9+00281+99999097841ADDGF100991999999999999999999
0029029720999991903022220004+60450+022267FM-12+001499999V0202901N015419999999N0000001N9+00331+99999097961ADDGF107991999999999999999999
0029029720999991903022306004+60450+022267FM-12+001499999V0202501N004619999999N0000001N9-00111+99999098301ADDGF101991999999999999999999
0029029720999991903022313004+60450+022267FM-12+001499999V0202301N004619999999N0000001N9+00061+99999097271ADDGF108991999999999999999999
0029029720999991903022320004+60450+022267FM-12+001499999V0202901N012319999999N0000001N9+00001+99999096871ADDGF108991999999999999999999
0029029720999991903022406004+60450+022267FM-12+001499999V0200501N002619999999N0000001N9-00061+99999097521ADDGF108991999999999999999999
0029029720999991903022413004+60450+022267FM-12+001499999V0202901N004619999999N0000001N9+00061+99999098431ADDGF108991999999999999999999
0029029720999991903022420004+60450+022267FM-12+001499999V0202901N006719999999N0000001N9-00111+99999099751ADDGF108991999999999999999999
0029029720999991903022506004+60450+022267FM-12+001499999V0200901N001019999999N0000001N9-00781+99999100741ADDGF108991999999999999999999
0029029720999991903022513004+60450+022267FM-12+001499999V0201401N012319999999N0000001N9+00111+99999100781ADDGF108991999999999999999999
0029029720999991903022520004+60450+022267FM-12+001499999V0202301N012319999999N0000001N9+00171+99999100261ADDGF108991999999999999999999
0029029720999991903022606004+60450+022267FM-12+001499999V0202301N009319999999N0000001N9+00111+99999100621ADDGF101991999999999999999999
0029029720999991903022613004+60450+022267FM-12+001499999V0201801N004619999999N0000001N9+00281+99999101021ADDGF108991999999999999999999
0029029720999991903022620004+60450+022267FM-12+001499999V0201601N006719999999N0000001N9+00221+99999100711ADDGF108991999999999999999999
0029029720999991903022706004+60450+022267FM-12+001499999V0201601N012319999999N0000001N9+00221+99999099661ADDGF108991999999999999999999
0029029720999991903022713004+60450+022267FM-12+001499999V0202301N006719999999N0000001N9+00281+99999099791ADDGF108991999999999999999999
0029029720999991903022720004+60450+022267FM-12+001499999V0202301N009319999999N0000001N9+00111+99999099621ADDGF108991999999999999999999
0029029720999991903022806004+60450+022267FM-12+001499999V0201801N009319999999N0000001N9+00281+99999098551ADDGF108991999999999999999999
0029029720999991903022813004+60450+022267FM-12+001499999V0201801N006719999999N0000001N9+00331+99999098391ADDGF108991999999999999999999
0029029720999991903022820004+60450+022267FM-12+001499999V0202301N009319999999N0000001N9+00221+99999098181ADDGF108991999999999999999999
0029029720999991903030106004+60450+022267FM-12+001499999V0202701N004619999999N0000001N9+00111+99999098601ADDGF108991999999999999999999
0029029720999991903030113004+60450+022267FM-12+001499999V0202701N012319999999N0000001N9+00111+99999099231ADDGF108991999999999999999999
0029029720999991903030120004+60450+022267FM-12+001499999V0202701N004619999999N0000001N9-00111+99999999999ADDGF100991999999999999999999
0029029720999991903030206004+60450+022267FM-12+001499999V0201801N002619999999N0000001N9+00281+99999100321ADDGF100991999999999999999999
0029029720999991903030213004+60450+022267FM-12+001499999V0201801N009319999999N0000001N9+00331+99999100461ADDGF106991999999999999999999
0029029720999991903030220004+60450+022267FM-12+001499999V0201601N009319999999N0000001N9+00001+99999100431ADDGF108991999999999999999999
0029029720999991903030306004+60450+022267FM-12+001499999V0201401N019019999999N0000001N9-00171+99999100271ADDGF108991999999999999999999
0029029720999991903030313004+60450+022267FM-12+001499999V0201401N012319999999N0000001N9-00111+99999100421ADDGF108991999999999999999999
0029029720999991903030320004+60450+022267FM-12+001499999V0201401N012319999999N0000001N9+00061+99999100361ADDGF108991999999999999999999
0029029720999991903030406004+60450+022267FM-12+001499999V0201401N015419999999N0000001N9+00171+99999100421ADDGF108991999999999999999999
0029029720999991903030413004+60450+022267FM-12+001499999V0201601N012319999999N0000001N9+00221+99999100541ADDGF108991999999999999999999
0029029720999991903030420004+60450+022267FM-12+001499999V0201601N015419999999N0000001N9+00171+99999100431ADDGF108991999999999999999999
0029029720999991903030506004+60450+022267FM-12+001499999V0201801N015419999999N0000001N9+00171+99999099911ADDGF108991999999999999999999
0029029720999991903030513004+60450+022267FM-12+001499999V0202001N012319999999N0000001N9+00281+99999100021ADDGF106991999999999999999999
0029029720999991903030520004+60450+022267FM-12+001499999V0201601N012319999999N0000001N9+00111+99999100101ADDGF108991999999999999999999
0029029720999991903030606004+60450+022267FM-12+001499999V0209991C000019999999N0000001N9+00061+99999099831ADDGF108991999999999999999999
0029029720999991903030613004+60450+022267FM-12+001499999V0202001N006719999999N0000001N9+00281+99999100101ADDGF103991999999999999999999
0029029720999991903030620004+60450+022267FM-12+001499999V0202301N002619999999N0000001N9+00061+99999100401ADDGF100991999999999999999999
0029029720999991903030706004+60450+022267FM-12+001499999V0202001N001019999999N0000001N9+00001+99999100551ADDGF100991999999999999999999
0029029720999991903030713004+60450+022267FM-12+001499999V0202301N004619999999N0000001N9+00281+99999100821ADDGF100991999999999999999999
0029029720999991903030720004+60450+022267FM-12+001499999V0202301N004619999999N0000001N9+00111+99999101041ADDGF108991999999999999999999
0029029720999991903030806004+60450+022267FM-12+001499999V0202001N001019999999N0000001N9+00061+99999101561ADDGF101991999999999999999999
0029029720999991903030813004+60450+022267FM-12+001499999V0202301N009319999999N0000001N9+00111+99999102181ADDGF108991999999999999999999
0029029720999991903030820004+60450+022267FM-12+001499999V0209991C000019999999N0000001N9-00111+99999102501ADDGF101991999999999999999999
0029029720999991903030906004+60450+022267FM-12+001499999V0201601N002619999999N0000001N9+00061+99999102871ADDGF108991999999999999999999
0029029720999991903030913004+60450+022267FM-12+001499999V0201601N009319999999N0000001N9+00331+99999102911ADDGF101991999999999999999999
0029029720999991903030920004+60450+022267FM-12+001499999V0201801N002619999999N0000001N9-00061+99999102941ADDGF100991999999999999999999
0029029720999991903031006004+60450+022267FM-12+001499999V0201801N002619999999N0000001N9-00061+99999102901ADDGF100991999999999999999999
0029029720999991903031013004+60450+022267FM-12+001499999V0201601N009319999999N0000001N9+00391+99999102721ADDGF100991999999999999999999
0029029720999991903031020004+60450+022267FM-12+001499999V0201601N001019999999N0000001N9-00171+99999102501ADDGF100991999999999999999999
0029029720999991903031106004+60450+022267FM-12+001499999V0201801N006719999999N0000001N9-00061+99999102351ADDGF108991999999999999999999
0029029720999991903031113004+60450+022267FM-12+001499999V0201801N006719999999N0000001N9+00001+99999102341ADDGF108991999999999999999999
0029029720999991903031120004+60450+022267FM-12+001499999V0202001N006719999999N0000001N9-00061+99999102321ADDGF108991999999999999999999
0029029720999991903031206004+60450+022267FM-12+001499999V0202301N009319999999N0000001N9-00061+99999102341ADDGF108991999999999999999999
0029029720999991903031213004+60450+022267FM-12+001499999V0201801N009319999999N0000001N9+00061+99999102431ADDGF108991999999999999999999
0029029720999991903031220004+60450+022267FM-12+001499999V0201801N004619999999N0000001N9-00061+99999102501ADDGF108991999999999999999999
0029029720999991903031306004+60450+022267FM-12+001499999V0202001N009319999999N0000001N9+00061+99999102471ADDGF108991999999999999999999
0029029720999991903031313004+60450+022267FM-12+001499999V0201801N009319999999N0000001N9+00171+99999102671ADDGF108991999999999999999999
0029029720999991903031320004+60450+022267FM-12+001499999V0201801N002619999999N0000001N9-00171+99999102681ADDGF100991999999999999999999
0029029720999991903031406004+60450+022267FM-12+001499999V0201401N002619999999N0000001N9-00281+99999102751ADDGF100991999999999999999999
0029029720999991903031413004+60450+022267FM-12+001499999V0201801N012319999999N0000001N9+00061+99999102591ADDGF108991999999999999999999
0029029720999991903031420004+60450+022267FM-12+001499999V0201601N009319999999N0000001N9-00111+99999102561ADDGF108991999999999999999999
0029029720999991903031506004+60450+022267FM-12+001499999V0201401N004619999999N0000001N9-00111+99999102471ADDGF108991999999999999999999
0029029720999991903031513004+60450+022267FM-12+001499999V0201401N009319999999N0000001N9+00171+99999102621ADDGF108991999999999999999999
0029029720999991903031520004+60450+022267FM-12+001499999V0201401N004619999999N0000001N9+00061+99999102711ADDGF108991999999999999999999
0029029720999991903031606004+60450+022267FM-12+001499999V0201401N006719999999N0000001N9+00061+99999102841ADDGF108991999999999999999999
0029029720999991903031613004+60450+022267FM-12+001499999V0201401N006719999999N0000001N9+00391+99999102791ADDGF108991999999999999999999
0029029720999991903031620004+60450+022267FM-12+001499999V0201101N009319999999N0000001N9-00111+99999102911ADDGF100991999999999999999999
0029029720999991903031706004+60450+022267FM-12+001499999V0201101N012319999999N0000001N9-00281+99999102761ADDGF108991999999999999999999
0029029720999991903031713004+60450+022267FM-12+001499999V0201101N006719999999N0000001N9-00111+99999102681ADDGF100991999999999999999999
0029029720999991903031720004+60450+022267FM-12+001499999V0200901N006719999999N0000001N9-00441+99999102741ADDGF100991999999999999999999
0029029720999991903031806004+60450+022267FM-12+001499999V0200901N004619999999N0000001N9-00441+99999102511ADDGF100991999999999999999999
0029029720999991903031813004+60450+022267FM-12+001499999V0201101N012319999999N0000001N9+00061+99999102281ADDGF108991999999999999999999
0029029720999991903031820004+60450+022267FM-12+001499999V0201401N012319999999N0000001N9-00221+99999102101ADDGF108991999999999999999999
0029029720999991903031906004+60450+022267FM-12+001499999V0200901N015419999999N0000001N9-00281+99999101361ADDGF108991999999999999999999
0029029720999991903031913004+60450+022267FM-12+001499999V0201101N012319999999N0000001N9+00111+99999101141ADDGF108991999999999999999999
0029029720999991903031920004+60450+022267FM-12+001499999V0201601N004619999999N0000001N9+00061+99999101061ADDGF108991999999999999999999
0029029720999991903032006004+60450+022267FM-12+001499999V0201601N012319999999N0000001N9+00171+99999100951ADDGF108991999999999999999999
0029029720999991903032013004+60450+022267FM-12+001499999V0201801N012319999999N0000001N9+00281+99999100551ADDGF108991999999999999999999
0029029720999991903032020004+60450+022267FM-12+001499999V0202301N012319999999N0000001N9+00331+99999100021ADDGF108991999999999999999999
0029029720999991903032106004+60450+022267FM-12+001499999V0202501N009319999999N0000001N9+00171+99999100261ADDGF100991999999999999999999
0029029720999991903032113004+60450+022267FM-12+001499999V0202701N004619999999N0000001N9+00441+99999100741ADDGF101991999999999999999999
0029029720999991903032120004+60450+022267FM-12+001499999V0202701N002619999999N0000001N9+00111+99999100791ADDGF100991999999999999999999
0029029720999991903032206004+60450+022267FM-12+001499999V0202301N012319999999N0000001N9+00171+99999100321ADDGF108991999999999999999999
0029029720999991903032213004+60450+022267FM-12+001499999V0202001N012319999999N0000001N9+00441+99999099791ADDGF108991999999999999999999
0029029720999991903032220004+60450+022267FM-12+001499999V0202301N009319999999N0000001N9+00501+99999099591ADDGF108991999999999999999999
0029029720999991903032306004+60450+022267FM-12+001499999V0202301N006719999999N0000001N9+00501+99999099161ADDGF108991999999999999999999
0029029720999991903032313004+60450+022267FM-12+001499999V0202701N009319999999N0000001N9+01001+99999099431ADDGF106991999999999999999999
0029029720999991903032320004+60450+022267FM-12+001499999V0202301N004619999999N0000001N9+00561+99999099241ADDGF108991999999999999999999
0029029720999991903032406004+60450+022267FM-12+001499999V0202301N015419999999N0000001N9+00721+99999098551ADDGF108991999999999999999999
0029029720999991903032413004+60450+022267FM-12+001499999V0202301N006719999999N0000001N9+00501+99999098341ADDGF108991999999999999999999
0029029720999991903032420004+60450+022267FM-12+001499999V0202701N009319999999N0000001N9+00221+99999098381ADDGF100991999999999999999999
0029029720999991903032506004+60450+022267FM-12+001499999V0203201N012319999999N0000001N9-00221+99999099231ADDGF108991999999999999999999
0029029720999991903032513004+60450+022267FM-12+001499999V0203401N009319999999N0000001N9+00061+99999100461ADDGF106991999999999999999999
0029029720999991903032520004+60450+022267FM-12+001499999V0202901N001019999999N0000001N9-00281+99999101231ADDGF100991999999999999999999
0029029720999991903032606004+60450+022267FM-12+001499999V0201401N009319999999N0000001N9+00001+99999101471ADDGF108991999999999999999999
0029029720999991903032613004+60450+022267FM-12+001499999V0201801N012319999999N0000001N9+00441+99999101261ADDGF108991999999999999999999
0029029720999991903032620004+60450+022267FM-12+001499999V0202301N015419999999N0000001N9+00561+99999100831ADDGF101991999999999999999999
0029029720999991903032706004+60450+022267FM-12+001499999V0202001N009319999999N0000001N9+00441+99999100321ADDGF108991999999999999999999
0029029720999991903032713004+60450+022267FM-12+001499999V0201601N004619999999N0000001N9+01061+99999100401ADDGF108991999999999999999999
0029029720999991903032720004+60450+022267FM-12+001499999V0209991C000019999999N0000001N9+00331+99999100271ADDGF108991999999999999999999
0029029720999991903032806004+60450+022267FM-12+001499999V0209991C000019999999N0000001N9+00171+99999099791ADDGF108991999999999999999999
0029029720999991903032813004+60450+022267FM-12+001499999V0202301N006719999999N0000001N9+00561+99999099311ADDGF108991999999999999999999
0029029720999991903032820004+60450+022267FM-12+001499999V0202701N006719999999N0000001N9+00391+99999099681ADDGF100991999999999999999999
0029029720999991903032906004+60450+022267FM-12+001499999V0201801N009319999999N0000001N9+00391+99999099421ADDGF108991999999999999999999
0029029720999991903032913004+60450+022267FM-12+001499999V0202301N012319999999N0000001N9+00781+99999099191ADDGF100991999999999999999999
0029029720999991903032920004+60450+022267FM-12+001499999V0202501N015419999999N0000001N9+00391+99999099181ADDGF100991999999999999999999
0029029720999991903033006004+60450+022267FM-12+001499999V0202501N015419999999N0000001N9+00441+99999099161ADDGF108991999999999999999999
0029029720999991903033013004+60450+022267FM-12+001499999V0202701N012319999999N0000001N9+00941+99999099681ADDGF100991999999999999999999
0029029720999991903033020004+60450+022267FM-12+001499999V0202701N006719999999N0000001N9+00391+99999100021ADDGF108991999999999999999999
0029029720999991903033106004+60450+022267FM-12+001499999V0201801N001019999999N0000001N9+00111+99999100311ADDGF108991999999999999999999
0029029720999991903033113004+60450+022267FM-12+001499999V0202901N004619999999N0000001N9+00831+99999100401ADDGF108991999999999999999999
0029029720999991903033120004+60450+022267FM-12+001499999V0200501N001019999999N0000001N9+00441+99999100471ADDGF100991999999999999999999
0029029720999991903040106004+60450+022267FM-12+001499999V0200501N015419999999N0000001N9-00331+99999100711ADDGF108991999999999999999999
0029029720999991903040113004+60450+022267FM-12+001499999V0200501N009319999999N0000001N9-00331+99999100801ADDGF108991999999999999999999
0029029720999991903040120004+60450+022267FM-12+001499999V0200201N012319999999N0000001N9-00281+99999100881ADDGF108991999999999999999999
0029029720999991903040206004+60450+022267FM-12+001499999V0200201N004619999999N0000001N9-00561+99999100661ADDGF108991999999999999999999
0029029720999991903040213004+60450+022267FM-12+001499999V0200501N006719999999N0000001N9+00061+99999100591ADDGF108991999999999999999999
0029029720999991903040220004+60450+022267FM-12+001499999V0200201N001019999999N0000001N9-00391+99999100661ADDGF100991999999999999999999
0029029720999991903040306004+60450+022267FM-12+001499999V0200201N002619999999N0000001N9-00331+99999100541ADDGF101991999999999999999999
0029029720999991903040313004+60450+022267FM-12+001499999V0203601N009319999999N0000001N9-00111+99999100711ADDGF108991999999999999999999
0029029720999991903040320004+60450+022267FM-12+001499999V0203601N002619999999N0000001N9-00331+99999100501ADDGF100991999999999999999999
0029029720999991903040406004+60450+022267FM-12+001499999V0203201N006719999999N0000001N9-00501+99999100101ADDGF100991999999999999999999
0029029720999991903040413004+60450+022267FM-12+001499999V0202901N009319999999N0000001N9-00111+99999099801ADDGF107991999999999999999999
0029029720999991903040420004+60450+022267FM-12+001499999V0202501N006719999999N0000001N9-00391+99999099631ADDGF108991999999999999999999
0029029720999991903040506004+60450+022267FM-12+001499999V0200901N009319999999N0000001N9-00391+99999099021ADDGF108991999999999999999999
0029029720999991903040513004+60450+022267FM-12+001499999V0200901N012319999999N0000001N9+00001+99999099191ADDGF108991999999999999999999
0029029720999991903040520004+60450+022267FM-12+001499999V0200901N001019999999N0000001N9-00061+99999099501ADDGF108991999999999999999999
0029029720999991903040606004+60450+022267FM-12+001499999V0200901N002619999999N0000001N9+00221+99999099981ADDGF108991999999999999999999
0029029720999991903040613004+60450+022267FM-12+001499999V0201401N004619999999N0000001N9+00441+99999100041ADDGF108991999999999999999999
0029029720999991903040620004+60450+022267FM-12+001499999V0201401N002619999999N0000001N9+00111+99999099961ADDGF108991999999999999999999
0029029720999991903040706004+60450+022267FM-12+001499999V0201101N002619999999N0000001N9+00221+99999099441ADDGF108991999999999999999999
0029029720999991903040713004+60450+022267FM-12+001499999V0201101N012319999999N0000001N9+00111+99999098781ADDGF108991999999999999999999
0029029720999991903040720004+60450+022267FM-12+001499999V0201401N006719999999N0000001N9+00221+99999098511ADDGF108991999999999999999999
0029029720999991903040806004+60450+022267FM-12+001499999V0201101N001019999999N0000001N9+00171+99999099041ADDGF108991999999999999999999
0029029720999991903040813004+60450+022267FM-12+001499999V0209991C000019999999N0000001N9+00501+99999099861ADDGF108991999999999999999999
0029029720999991903040820004+60450+022267FM-12+001499999V0203201N002619999999N0000001N9+00221+99999100391ADDGF108991999999999999999999
0029029720999991903040906004+60450+022267FM-12+001499999V0200201N002619999999N0000001N9+00111+99999100871ADDGF108991999999999999999999
0029029720999991903040913004+60450+022267FM-12+001499999V0203601N004619999999N0000001N9+00671+99999101041ADDGF108991999999999999999999
0029029720999991903040920004+60450+022267FM-12+001499999V0203201N002619999999N0000001N9+00221+99999101421ADDGF108991999999999999999999
0029029720999991903041006004+60450+022267FM-12+001499999V0209991C000019999999N0000001N9+00171+99999102031ADDGF101991999999999999999999
0029029720999991903041013004+60450+022267FM-12+001499999V0202301N006719999999N0000001N9+00671+99999102151ADDGF100991999999999999999999
0029029720999991903041020004+60450+022267FM-12+001499999V0201801N001019999999N0000001N9+00061+99999102141ADDGF100991999999999999999999
0029029720999991903041106004+60450+022267FM-12+001499999V0201601N004619999999N0000001N9+00111+99999101831ADDGF108991999999999999999999
0029029720999991903041113004+60450+022267FM-12+001499999V0201801N009319999999N0000001N9+00331+99999101481ADDGF108991999999999999999999
0029029720999991903041120004+60450+022267FM-12+001499999V0201601N002619999999N0000001N9-00061+99999100901ADDGF108991999999999999999999
0029029720999991903041206004+60450+022267FM-12+001499999V0201401N006719999999N0000001N9+00111+99999100191ADDGF101991999999999999999999
0029029720999991903041213004+60450+022267FM-12+001499999V0201601N009319999999N0000001N9+00441+99999099841ADDGF108991999999999999999999
0029029720999991903041220004+60450+022267FM-12+001499999V0201801N006719999999N0000001N9+00391+99999099631ADDGF108991999999999999999999
0029029720999991903041306004+60450+022267FM-12+001499999V0203201N002619999999N0000001N9+00221+99999099391ADDGF108991999999999999999999
0029029720999991903041313004+60450+022267FM-12+001499999V0203601N002619999999N0000001N9+00171+99999099351ADDGF108991999999999999999999
0029029720999991903041320004+60450+022267FM-12+001499999V0203201N006719999999N0000001N9+00111+99999099001ADDGF108991999999999999999999
0029029720999991903041406004+60450+022267FM-12+001499999V0202701N009319999999N0000001N9+00221+99999098631ADDGF108991999999999999999999
0029029720999991903041413004+60450+022267FM-12+001499999V0202001N012319999999N0000001N9+00391+99999099191ADDGF108991999999999999999999
0029029720999991903041420004+60450+022267FM-12+001499999V0202301N009319999999N0000001N9+00111+99999099701ADDGF106991999999999999999999
0029029720999991903041506004+60450+022267FM-12+001499999V0201401N009319999999N0000001N9+00171+99999099631ADDGF108991999999999999999999
0029029720999991903041513004+60450+022267FM-12+001499999V0201801N004619999999N0000001N9+00281+99999099551ADDGF108991999999999999999999
0029029720999991903041520004+60450+022267FM-12+001499999V0202301N002619999999N0000001N9+00111+99999099701ADDGF108991999999999999999999
0029029720999991903041606004+60450+022267FM-12+001499999V0201601N004619999999N0000001N9+00221+99999099601ADDGF108991999999999999999999
0029029720999991903041613004+60450+022267FM-12+001499999V0201801N012319999999N0000001N9+00391+99999099841ADDGF108991999999999999999999
0029029720999991903041620004+60450+022267FM-12+001499999V0201601N002619999999N0000001N9+00171+99999100161ADDGF108991999999999999999999
0029029720999991903041706004+60450+022267FM-12+001499999V0201801N001019999999N0000001N9+00171+99999099991ADDGF108991999999999999999999
0029029720999991903041713004+60450+022267FM-12+001499999V0202701N009319999999N0000001N9+00391+99999100391ADDGF106991999999999999999999
0029029720999991903041720004+60450+022267FM-12+001499999V0202701N001019999999N0000001N9+00061+99999100901ADDGF108991999999999999999999
0029029720999991903041806004+60450+022267FM-12+001499999V0201801N001019999999N0000001N9+00061+99999101301ADDGF108991999999999999999999
0029029720999991903041813004+60450+022267FM-12+001499999V0203601N004619999999N0000001N9+00391+99999101481ADDGF107991999999999999999999
0029029720999991903041820004+60450+022267FM-12+001499999V0200501N002619999999N0000001N9+00111+99999101441ADDGF100991999999999999999999
0029029720999991903041906004+60450+022267FM-12+001499999V0200501N009319999999N0000001N9+00111+99999100641ADDGF108991999999999999999999
0029029720999991903041913004+60450+022267FM-12+001499999V0200201N015419999999N0000001N9+00221+99999099861ADDGF108991999999999999999999
0029029720999991903041920004+60450+022267FM-12+001499999V0200501N009319999999N0000001N9+00391+99999099161ADDGF108991999999999999999999
0029029720999991903042006004+60450+022267FM-12+001499999V0201401N009319999999N0000001N9+00281+99999098761ADDGF108991999999999999999999
0029029720999991903042013004+60450+022267FM-12+001499999V0201401N012319999999N0000001N9+00561+99999099081ADDGF106991999999999999999999
0029029720999991903042020004+60450+022267FM-12+001499999V0201401N006719999999N0000001N9+00281+99999099121ADDGF106991999999999999999999
0029029720999991903042106004+60450+022267FM-12+001499999V0200901N006719999999N0000001N9+00171+99999098911ADDGF108991999999999999999999
0029029720999991903042113004+60450+022267FM-12+001499999V0201401N004619999999N0000001N9+00221+99999098821ADDGF108991999999999999999999
0029029720999991903042120004+60450+022267FM-12+001499999V0201401N002619999999N0000001N9+00111+99999098981ADDGF107991999999999999999999
0029029720999991903042206004+60450+022267FM-12+001499999V0202301N006719999999N0000001N9+00221+99999099181ADDGF108991999999999999999999
0029029720999991903042213004+60450+022267FM-12+001499999V0202001N006719999999N0000001N9+00441+99999099641ADDGF108991999999999999999999
0029029720999991903042220004+60450+022267FM-12+001499999V0201601N002619999999N0000001N9+00221+99999099951ADDGF108991999999999999999999
0029029720999991903042306004+60450+022267FM-12+001499999V0200501N001019999999N0000001N9+00111+99999100161ADDGF108991999999999999999999
0029029720999991903042313004+60450+022267FM-12+001499999V0202501N001019999999N0000001N9+00831+99999100501ADDGF107991999999999999999999
0029029720999991903042320004+60450+022267FM-12+001499999V0203401N001019999999N0000001N9+00331+99999100781ADDGF101991999999999999999999
0029029720999991903042406004+60450+022267FM-12+001499999V0200501N009319999999N0000001N9+00221+99999100711ADDGF108991999999999999999999
0029029720999991903042413004+60450+022267FM-12+001499999V0200701N006719999999N0000001N9+00891+99999100541ADDGF108991999999999999999999
0029029720999991903042420004+60450+022267FM-12+001499999V0200901N004619999999N0000001N9+00941+99999100401ADDGF105991999999999999999999
0029029720999991903042506004+60450+022267FM-12+001499999V0201401N006719999999N0000001N9+01171+99999100721ADDGF102991999999999999999999
0029029720999991903042513004+60450+022267FM-12+001499999V0201401N009319999999N0000001N9+01721+99999100901ADDGF100991999999999999999999
0029029720999991903042520004+60450+022267FM-12+001499999V0200901N006719999999N0000001N9+01171+99999101031ADDGF108991999999999999999999
0029029720999991903042606004+60450+022267FM-12+001499999V0200901N001019999999N0000001N9+01221+99999101111ADDGF100991999999999999999999
0029029720999991903042613004+60450+022267FM-12+001499999V0201401N009319999999N0000001N9+01561+99999101081ADDGF108991999999999999999999
0029029720999991903042620004+60450+022267FM-12+001499999V0209991C000019999999N0000001N9+00941+99999101101ADDGF101991999999999999999999
0029029720999991903042706004+60450+022267FM-12+001499999V0201101N001019999999N0000001N9+00891+99999101001ADDGF108991999999999999999999
0029029720999991903042713004+60450+022267FM-12+001499999V0201101N009319999999N0000001N9+01831+99999100921ADDGF102991999999999999999999
0029029720999991903042720004+60450+022267FM-12+001499999V0209991C000019999999N0000001N9+01221+99999100951ADDGF101991999999999999999999
0029029720999991903042806004+60450+022267FM-12+001499999V0200901N004619999999N0000001N9+01001+99999101021ADDGF108991999999999999999999
0029029720999991903042813004+60450+022267FM-12+001499999V0201601N006719999999N0000001N9+01501+99999101111ADDGF108991999999999999999999
0029029720999991903042820004+60450+022267FM-12+001499999V0209991C000019999999N0000001N9+01001+99999101241ADDGF108991999999999999999999
0029029720999991903042906004+60450+022267FM-12+001499999V0200501N004619999999N0000001N9+01061+99999101181ADDGF108991999999999999999999
0029029720999991903042913004+60450+022267FM-12+001499999V0201401N006719999999N0000001N9+01891+99999100951ADDGF108991999999999999999999
0029029720999991903042920004+60450+022267FM-12+001499999V0209991C000019999999N0000001N9+01331+99999100871ADDGF108991999999999999999999
0029029720999991903043006004+60450+022267FM-12+001499999V0200501N002619999999N0000001N9+01171+99999100401ADDGF108991999999999999999999
0029029720999991903043013004+60450+022267FM-12+001499999V0200901N002619999999N0000001N9+01831+99999100261ADDGF107991999999999999999999
0029029720999991903043020004+60450+022267FM-12+001499999V0200701N001019999999N0000001N9+01281+99999100021ADDGF108991999999999999999999
0029029720999991903050106004+60450+022267FM-12+001499999V0200201N001019999999N0000001N9+01221+99999099911ADDGF108991999999999999999999
0029029720999991903050113004+60450+022267FM-12+001499999V0200701N004619999999N0000001N9+01671+99999100061ADDGF107991999999999999999999
0029029720999991903050120004+60450+022267FM-12+001499999V0200201N004619999999N0000001N9+01001+99999100241ADDGF108991999999999999999999
0029029720999991903050206004+60450+022267FM-12+001499999V0200201N004619999999N0000001N9+00441+99999100681ADDGF108991999999999999999999
0029029720999991903050213004+60450+022267FM-12+001499999V0200701N006719999999N0000001N9+00671+99999101101ADDGF108991999999999999999999
0029029720999991903050220004+60450+022267FM-12+001499999V0200501N002619999999N0000001N9+00611+99999101271ADDGF108991999999999999999999
0029029720999991903050306004+60450+022267FM-12+001499999V0201101N001019999999N0000001N9+00671+99999101351ADDGF108991999999999999999999
0029029720999991903050313004+60450+022267FM-12+001499999V0202701N006719999999N0000001N9+01001+99999101261ADDGF108991999999999999999999
0029029720999991903050320004+60450+022267FM-12+001499999V0201401N002619999999N0000001N9+00671+99999100951ADDGF108991999999999999999999
0029029720999991903050406004+60450+022267FM-12+001499999V0209991C000019999999N0000001N9+00611+99999100521ADDGF108991999999999999999999
0029029720999991903050413004+60450+022267FM-12+001499999V0201401N001019999999N0000001N9+01001+99999100501ADDGF108991999999999999999999
0029029720999991903050420004+60450+022267FM-12+001499999V0203601N002619999999N0000001N9+00721+99999100541ADDGF108991999999999999999999
0029029720999991903050506004+60450+022267FM-12+001499999V0200501N012319999999N0000001N9+00671+99999100381ADDGF108991999999999999999999
0029029720999991903050513004+60450+022267FM-12+001499999V0200501N012319999999N0000001N9+01171+99999100161ADDGF108991999999999999999999
0029029720999991903050520004+60450+022267FM-12+001499999V0200501N009319999999N0000001N9+00721+99999099961ADDGF108991999999999999999999
0029029720999991903050606004+60450+022267FM-12+001499999V0200701N015419999999N0000001N9+00671+99999099721ADDGF108991999999999999999999
0029029720999991903050613004+60450+022267FM-12+001499999V0200701N012319999999N0000001N9+00501+99999099761ADDGF108991999999999999999999
0029029720999991903050620004+60450+022267FM-12+001499999V0200901N004619999999N0000001N9+00501+99999099701ADDGF108991999999999999999999
0029029720999991903050706004+60450+022267FM-12+001499999V0202501N006719999999N0000001N9+00441+99999099641ADDGF108991999999999999999999
0029029720999991903050713004+60450+022267FM-12+001499999V0203201N009319999999N0000001N9+00501+99999100221ADDGF108991999999999999999999
0029029720999991903050720004+60450+022267FM-12+001499999V0200201N004619999999N0000001N9+00441+99999100501ADDGF108991999999999999999999
0029029720999991903050806004+60450+022267FM-12+001499999V0200901N006719999999N0000001N9+00441+99999100761ADDGF108991999999999999999999
0029029720999991903050813004+60450+022267FM-12+001499999V0201101N004619999999N0000001N9+00831+99999100961ADDGF108991999999999999999999
0029029720999991903050820004+60450+022267FM-12+001499999V0209991C000019999999N0000001N9+00561+99999101181ADDGF106991999999999999999999
0029029720999991903050906004+60450+022267FM-12+001499999V0200901N002619999999N0000001N9+00831+99999101351ADDGF101991999999999999999999
0029029720999991903050913004+60450+022267FM-12+001499999V0200701N004619999999N0000001N9+01061+99999101341ADDGF108991999999999999999999
0029029720999991903050920004+60450+022267FM-12+001499999V0201101N006719999999N0000001N9+00441+99999101421ADDGF101991999999999999999999
0029029720999991903051006004+60450+022267FM-12+001499999V0200901N006719999999N0000001N9+00501+99999101281ADDGF100991999999999999999999
0029029720999991903051013004+60450+022267FM-12+001499999V0200901N004619999999N0000001N9+00941+99999101061ADDGF100991999999999999999999
0029029720999991903051020004+60450+022267FM-12+001499999V0201401N004619999999N0000001N9+00441+99999101021ADDGF100991999999999999999999
0029029720999991903051106004+60450+022267FM-12+001499999V0200701N004619999999N0000001N9+00671+99999100741ADDGF100991999999999999999999
0029029720999991903051113004+60450+022267FM-12+001499999V0201401N012319999999N0000001N9+01111+99999100521ADDGF101991999999999999999999
0029029720999991903051120004+60450+022267FM-12+001499999V0201401N002619999999N0000001N9+00611+99999100381ADDGF102991999999999999999999
0029029720999991903051206004+60450+022267FM-12+001499999V0200501N001019999999N0000001N9+00831+99999100121ADDGF100991999999999999999999
0029029720999991903051213004+60450+022267FM-12+001499999V0202501N006719999999N0000001N9+01001+99999100141ADDGF108991999999999999999999
0029029720999991903051220004+60450+022267FM-12+001499999V0209991C000019999999N0000001N9+00781+99999999999ADDGF108991999999999999999999
0029029720999991903051306004+60450+022267FM-12+001499999V0201801N006719999999N0000001N9+00721+99999099921ADDGF108991999999999999999999
0029029720999991903051313004+60450+022267FM-12+001499999V0201401N012319999999N0000001N9+00721+99999099951ADDGF108991999999999999999999
0029029720999991903051320004+60450+022267FM-12+001499999V0202501N009319999999N0000001N9+00331+99999100081ADDGF108991999999999999999999
0029029720999991903051406004+60450+022267FM-12+001499999V0202901N006719999999N0000001N9+00441+99999100231ADDGF108991999999999999999999
0029029720999991903051413004+60450+022267FM-12+001499999V0202001N009319999999N0000001N9+01001+99999100311ADDGF107991999999999999999999
0029029720999991903051420004+60450+022267FM-12+001499999V0201601N009319999999N0000001N9+00501+99999100111ADDGF108991999999999999999999
0029029720999991903051506004+60450+022267FM-12+001499999V0202701N012319999999N0000001N9+00721+99999099831ADDGF108991999999999999999999
0029029720999991903051513004+60450+022267FM-12+001499999V0202701N015419999999N0000001N9+01061+99999100471ADDGF100991999999999999999999
0029029720999991903051520004+60450+022267FM-12+001499999V0209991C000019999999N0000001N9+00671+99999100741ADDGF100991999999999999999999
0029029720999991903051606004+60450+022267FM-12+001499999V0201801N009319999999N0000001N9+00941+99999100301ADDGF107991999999999999999999
0029029720999991903051613004+60450+022267FM-12+001499999V0202701N015419999999N0000001N9+01281+99999100271ADDGF106991999999999999999999
0029029720999991903051620004+60450+022267FM-12+001499999V0202301N004619999999N0000001N9+00781+99999100231ADDGF102991999999999999999999
0029029720999991903051706004+60450+022267FM-12+001499999V0202301N012319999999N0000001N9+00941+99999100141ADDGF102991999999999999999999
0029029720999991903051713004+60450+022267FM-12+001499999V0202501N012319999999N0000001N9+01221+99999100141ADDGF107991999999999999999999
0029029720999991903051720004+60450+022267FM-12+001499999V0202001N002619999999N0000001N9+00671+99999100041ADDGF100991999999999999999999
0029029720999991903051806004+60450+022267FM-12+001499999V0201601N009319999999N0000001N9+00671+99999099901ADDGF108991999999999999999999
0029029720999991903051813004+60450+022267FM-12+001499999V0209991C000019999999N0000001N9+01171+99999100021ADDGF108991999999999999999999
0029029720999991903051820004+60450+022267FM-12+001499999V0200501N006719999999N0000001N9+00671+99999099981ADDGF108991999999999999999999
0029029720999991903051906004+60450+022267FM-12+001499999V0200201N006719999999N0000001N9+00721+99999099631ADDGF108991999999999999999999
0029029720999991903051913004+60450+022267FM-12+001499999V0200201N009319999999N0000001N9+00831+99999099541ADDGF108991999999999999999999
0029029720999991903051920004+60450+022267FM-12+001499999V0200201N004619999999N0000001N9+00561+99999099501ADDGF108991999999999999999999
0029029720999991903052006004+60450+022267FM-12+001499999V0201401N006719999999N0000001N9+00611+99999099751ADDGF108991999999999999999999
0029029720999991903052013004+60450+022267FM-12+001499999V0201101N009319999999N0000001N9+00671+99999100421ADDGF108991999999999999999999
0029029720999991903052020004+60450+022267FM-12+001499999V0201801N006719999999N0000001N9+00501+99999100781ADDGF101991999999999999999999
0029029720999991903052106004+60450+022267FM-12+001499999V0209991C000019999999N0000001N9+00781+99999101001ADDGF100991999999999999999999
0029029720999991903052113004+60450+022267FM-12+001499999V0202701N006719999999N0000001N9+01281+99999101281ADDGF106991999999999999999999
0029029720999991903052120004+60450+022267FM-12+001499999V0203201N006719999999N0000001N9+00831+99999101551ADDGF104991999999999999999999
0029029720999991903052206004+60450+022267FM-12+001499999V0203601N009319999999N0000001N9+01061+99999101941ADDGF100991999999999999999999
0029029720999991903052213004+60450+022267FM-12+001499999V0203201N012319999999N0000001N9+01671+99999102041ADDGF100991999999999999999999
0029029720999991903052220004+60450+022267FM-12+001499999V0203401N002619999999N0000001N9+01111+99999102361ADDGF101991999999999999999999
0029029720999991903052306004+60450+022267FM-12+001499999V0203601N002619999999N0000001N9+01561+99999102301ADDGF100991999999999999999999
0029029720999991903052313004+60450+022267FM-12+001499999V0203601N002619999999N0000001N9+02061+99999102121ADDGF100991999999999999999999
0029029720999991903052320004+60450+022267FM-12+001499999V0209991C000019999999N0000001N9+01391+99999102071ADDGF100991999999999999999999
0029029720999991903052406004+60450+022267FM-12+001499999V0209991C000019999999N0000001N9+01831+99999102071ADDGF100991999999999999999999
0029029720999991903052413004+60450+022267FM-12+001499999V0200201N002619999999N0000001N9+02281+99999102031ADDGF106991999999999999999999
0029029720999991903052420004+60450+022267FM-12+001499999V0209991C000019999999N0000001N9+01391+99999102201ADDGF101991999999999999999999
0029029720999991903052506004+60450+022267FM-12+001499999V0200201N009319999999N0000001N9+01391+99999102191ADDGF108991999999999999999999
0029029720999991903052513004+60450+022267FM-12+001499999V0200501N006719999999N0000001N9+01941+99999102121ADDGF108991999999999999999999
0029029720999991903052520004+60450+022267FM-12+001499999V0203201N002619999999N0000001N9+01501+99999102101ADDGF108991999999999999999999
0029029720999991903052606004+60450+022267FM-12+001499999V0209991C000019999999N0000001N9+02001+99999102121ADDGF105991999999999999999999
0029029720999991903052613004+60450+022267FM-12+001499999V0202701N009319999999N0000001N9+02281+99999102141ADDGF107991999999999999999999
0029029720999991903052620004+60450+022267FM-12+001499999V0203401N006719999999N0000001N9+01671+99999102301ADDGF102991999999999999999999
0029029720999991903052706004+60450+022267FM-12+001499999V0200201N006719999999N0000001N9+01441+99999102591ADDGF100991999999999999999999
0029029720999991903052713004+60450+022267FM-12+001499999V0203601N006719999999N0000001N9+02001+99999102541ADDGF100991999999999999999999
0029029720999991903052720004+60450+022267FM-12+001499999V0200501N002619999999N0000001N9+01671+99999102591ADDGF100991999999999999999999
0029029720999991903052806004+60450+022267FM-12+001499999V0200901N004619999999N0000001N9+01721+99999102661ADDGF100991999999999999999999
0029029720999991903052813004+60450+022267FM-12+001499999V0200701N004619999999N0000001N9+02281+99999102511ADDGF100991999999999999999999
0029029720999991903052820004+60450+022267FM-12+001499999V0209991C000019999999N0000001N9+01721+99999102321ADDGF100991999999999999999999
0029029720999991903052906004+60450+022267FM-12+001499999V0209991C000019999999N0000001N9+02001+99999102101ADDGF100991999999999999999999
0029029720999991903052913004+60450+022267FM-12+001499999V0202701N006719999999N0000001N9+02441+99999101941ADDGF100991999999999999999999
0029029720999991903052920004+60450+022267FM-12+001499999V0202301N002619999999N0000001N9+01941+99999101721ADDGF100991999999999999999999
0029029720999991903053006004+60450+022267FM-12+001499999V0202301N002619999999N0000001N9+02001+99999101581ADDGF102991999999999999999999
0029029720999991903053013004+60450+022267FM-12+001499999V0202301N006719999999N0000001N9+02331+99999101391ADDGF100991999999999999999999
0029029720999991903053020004+60450+022267FM-12+001499999V0209991C000019999999N0000001N9+01831+99999101271ADDGF108991999999999999999999
0029029720999991903053106004+60450+022267FM-12+001499999V0202301N004619999999N0000001N9+01831+99999101081ADDGF102991999999999999999999
0029029720999991903053113004+60450+022267FM-12+001499999V0202001N009319999999N0000001N9+02391+99999100921ADDGF106991999999999999999999
0029029720999991903053120004+60450+022267FM-12+001499999V0201601N006719999999N0000001N9+01781+99999100841ADDGF108991999999999999999999
0029029720999991903060106004+60450+022267FM-12+001499999V0201801N002619999999N0000001N9+01611+99999100591ADDGF108991999999999999999999
0029029720999991903060113004+60450+022267FM-12+001499999V0202501N006719999999N0000001N9+02331+99999100501ADDGF100991999999999999999999
0029029720999991903060120004+60450+022267FM-12+001499999V02099999999999999999N0000001N9+01671+99999100561ADDGF100991999999999999999999
0029029720999991903060206004+60450+022267FM-12+001499999V0201401N006719999999N0000001N9+01941+99999100391ADDGF100991999999999999999999
0029029720999991903060213004+60450+022267FM-12+001499999V0202301N012319999999N0000001N9+02331+99999100401ADDGF100991999999999999999999
0029029720999991903060220004+60450+022267FM-12+001499999V0201601N004619999999N0000001N9+01561+99999100311ADDGF101991999999999999999999
0029029720999991903060306004+60450+022267FM-12+001499999V0203601N004619999999N0000001N9+00891+99999100361ADDGF108991999999999999999999
0029029720999991903060313004+60450+022267FM-12+001499999V0203201N012319999999N0000001N9+01501+99999100671ADDGF105991999999999999999999
0029029720999991903060320004+60450+022267FM-12+001499999V0203201N006719999999N0000001N9+00941+99999100831ADDGF102991999999999999999999
0029029720999991903060406004+60450+022267FM-12+001499999V0203201N012319999999N0000001N9+01281+99999101001ADDGF100991999999999999999999
0029029720999991903060413004+60450+022267FM-12+001499999V0203601N009319999999N0000001N9+01391+99999101031ADDGF108991999999999999999999
0029029720999991903060420004+60450+022267FM-12+001499999V0203601N001019999999N0000001N9+01221+99999100991ADDGF108991999999999999999999
0029029720999991903060506004+60450+022267FM-12+001499999V0203201N009319999999N0000001N9+01281+99999100741ADDGF101991999999999999999999
0029029720999991903060513004+60450+022267FM-12+001499999V0203601N012319999999N0000001N9+01781+99999100241ADDGF108991999999999999999999
0029029720999991903060520004+60450+022267FM-12+001499999V0203201N012319999999N0000001N9+01281+99999100121ADDGF100991999999999999999999
0029029720999991903060606004+60450+022267FM-12+001499999V0203201N012319999999N0000001N9+01281+99999100391ADDGF101991999999999999999999
0029029720999991903060613004+60450+022267FM-12+001499999V0203201N015419999999N0000001N9+01281+99999100671ADDGF104991999999999999999999
0029029720999991903060620004+60450+022267FM-12+001499999V0203201N006719999999N0000001N9+01001+99999101121ADDGF100991999999999999999999
0029029720999991903060706004+60450+022267FM-12+001499999V0203601N004619999999N0000001N9+01221+99999101981ADDGF100991999999999999999999
0029029720999991903060713004+60450+022267FM-12+001499999V0203401N004619999999N0000001N9+01831+99999102241ADDGF100991999999999999999999
0029029720999991903060720004+60450+022267FM-12+001499999V0209991C000019999999N0000001N9+01111+99999102521ADDGF100991999999999999999999
0029029720999991903060806004+60450+022267FM-12+001499999V0202501N002619999999N0000001N9+01501+99999102711ADDGF100991999999999999999999
0029029720999991903060813004+60450+022267FM-12+001499999V0202701N004619999999N0000001N9+02111+99999102551ADDGF100991999999999999999999
0029029720999991903060820004+60450+022267FM-12+001499999V0203201N002619999999N0000001N9+01501+99999102581ADDGF100991999999999999999999
0029029720999991903060906004+60450+022267FM-12+001499999V0203201N002619999999N0000001N9+02001+99999102601ADDGF100991999999999999999999
0029029720999991903060913004+60450+022267FM-12+001499999V0202501N004619999999N0000001N9+02501+99999102461ADDGF100991999999999999999999
0029029720999991903060920004+60450+022267FM-12+001499999V0209991C000019999999N0000001N9+01781+99999102231ADDGF100991999999999999999999
0029029720999991903061006004+60450+022267FM-12+001499999V0201401N002619999999N0000001N9+02221+99999101681ADDGF100991999999999999999999
0029029720999991903061013004+60450+022267FM-12+001499999V0201801N009319999999N0000001N9+02331+99999101461ADDGF100991999999999999999999
0029029720999991903061020004+60450+022267FM-12+001499999V0202301N004619999999N0000001N9+02001+99999100901ADDGF108991999999999999999999
0029029720999991903061106004+60450+022267FM-12+001499999V0201801N006719999999N0000001N9+01721+99999100311ADDGF108991999999999999999999
0029029720999991903061113004+60450+022267FM-12+001499999V0201801N004619999999N0000001N9+01611+99999100381ADDGF108991999999999999999999
0029029720999991903061120004+60450+022267FM-12+001499999V0200501N009319999999N0000001N9+01221+99999100361ADDGF108991999999999999999999
0029029720999991903061206004+60450+022267FM-12+001499999V0200501N009319999999N0000001N9+01391+99999100391ADDGF108991999999999999999999
0029029720999991903061213004+60450+022267FM-12+001499999V0203601N009319999999N0000001N9+01171+99999100621ADDGF108991999999999999999999
0029029720999991903061220004+60450+022267FM-12+001499999V0203601N009319999999N0000001N9+01001+99999100761ADDGF108991999999999999999999
0029029720999991903061306004+60450+022267FM-12+001499999V0203601N002619999999N0000001N9+00891+99999101161ADDGF108991999999999999999999
0029029720999991903061313004+60450+022267FM-12+001499999V0200201N006719999999N0000001N9+01001+99999101001ADDGF108991999999999999999999
0029029720999991903061320004+60450+022267FM-12+001499999V0200501N006719999999N0000001N9+00891+99999101201ADDGF108991999999999999999999
0029029720999991903061406004+60450+022267FM-12+001499999V0200501N009319999999N0000001N9+00891+99999101061ADDGF108991999999999999999999
0029029720999991903061413004+60450+022267FM-12+001499999V0200201N006719999999N0000001N9+01441+99999101441ADDGF108991999999999999999999
0029029720999991903061420004+60450+022267FM-12+001499999V0200501N002619999999N0000001N9+01221+99999101521ADDGF100991999999999999999999
0029029720999991903061506004+60450+022267FM-12+001499999V0209991C000019999999N0000001N9+01721+99999101361ADDGF100991999999999999999999
0029029720999991903061513004+60450+022267FM-12+001499999V0200501N004619999999N0000001N9+01891+99999101141ADDGF101991999999999999999999
0029029720999991903061520004+60450+022267FM-12+001499999V0203401N002619999999N0000001N9+01441+99999101111ADDGF100991999999999999999999
0029029720999991903061606004+60450+022267FM-12+001499999V0200201N002619999999N0000001N9+01831+99999101081ADDGF100991999999999999999999
0029029720999991903061613004+60450+022267FM-12+001499999V0203601N004619999999N0000001N9+02171+99999101081ADDGF100991999999999999999999
0029029720999991903061620004+60450+022267FM-12+001499999V0209991C000019999999N0000001N9+01721+99999100951ADDGF106991999999999999999999
0029029720999991903061706004+60450+022267FM-12+001499999V0200901N006719999999N0000001N9+01941+99999100841ADDGF100991999999999999999999
0029029720999991903061713004+60450+022267FM-12+001499999V0201401N012319999999N0000001N9+02171+99999100591ADDGF100991999999999999999999
0029029720999991903061720004+60450+022267FM-12+001499999V0201101N002619999999N0000001N9+01781+99999100351ADDGF103991999999999999999999
0029029720999991903061806004+60450+022267FM-12+001499999V0200901N004619999999N0000001N9+01561+99999099581ADDGF108991999999999999999999
0029029720999991903061813004+60450+022267FM-12+001499999V0202301N009319999999N0000001N9+01561+99999099481ADDGF108991999999999999999999
0029029720999991903061820004+60450+022267FM-12+001499999V0202001N006719999999N0000001N9+01501+99999099701ADDGF108991999999999999999999
0029029720999991903061906004+60450+022267FM-12+001499999V0201801N015419999999N0000001N9+01281+99999099841ADDGF108991999999999999999999
0029029720999991903061913004+60450+022267FM-12+001499999V0202001N015419999999N0000001N9+01441+99999100161ADDGF108991999999999999999999
0029029720999991903061920004+60450+022267FM-12+001499999V0202001N006719999999N0000001N9+01281+99999100461ADDGF100991999999999999999999
0029029720999991903062006004+60450+022267FM-12+001499999V0201801N006719999999N0000001N9+01671+99999100711ADDGF100991999999999999999999
0029029720999991903062013004+60450+022267FM-12+001499999V0209991C000019999999N0000001N9+01561+99999100951ADDGF108991999999999999999999
0029029720999991903062020004+60450+022267FM-12+001499999V0200201N006719999999N0000001N9+01331+99999100791ADDGF108991999999999999999999
0029029720999991903062106004+60450+022267FM-12+001499999V0201401N009319999999N0000001N9+01831+99999100401ADDGF108991999999999999999999
0029029720999991903062113004+60450+022267FM-12+001499999V0202001N012319999999N0000001N9+02441+99999100221ADDGF106991999999999999999999
0029029720999991903062120004+60450+022267FM-12+001499999V0201801N004619999999N0000001N9+01721+99999100271ADDGF107991999999999999999999
0029029720999991903062206004+60450+022267FM-12+001499999V0209991C000019999999N0000001N9+01391+99999100221ADDGF108991999999999999999999
0029029720999991903062213004+60450+022267FM-12+001499999V0203201N002619999999N0000001N9+01441+99999100341ADDGF108991999999999999999999
0029029720999991903062220004+60450+022267FM-12+001499999V0203201N006719999999N0000001N9+01111+99999100761ADDGF108991999999999999999999
0029029720999991903062306004+60450+022267FM-12+001499999V0202901N006719999999N0000001N9+01441+99999101081ADDGF100991999999999999999999
0029029720999991903062313004+60450+022267FM-12+001499999V0202301N012319999999N0000001N9+01941+99999101361ADDGF100991999999999999999999
0029029720999991903062320004+60450+022267FM-12+001499999V0202701N002619999999N0000001N9+01391+99999101601ADDGF102991999999999999999999
0029029720999991903062406004+60450+022267FM-12+001499999V0209991C000019999999N0000001N9+01281+99999101901ADDGF108991999999999999999999
0029029720999991903062413004+60450+022267FM-12+001499999V0203601N004619999999N0000001N9+02061+99999101941ADDGF105991999999999999999999
0029029720999991903062420004+60450+022267FM-12+001499999V0203401N004619999999N0000001N9+01441+99999101981ADDGF100991999999999999999999
0029029720999991903062506004+60450+022267FM-12+001499999V0200901N006719999999N0000001N9+01941+99999102121ADDGF100991999999999999999999
0029029720999991903062513004+60450+022267FM-12+001499999V0201401N004619999999N0000001N9+02111+99999102101ADDGF107991999999999999999999
0029029720999991903062520004+60450+022267FM-12+001499999V0209991C000019999999N0000001N9+01671+99999102141ADDGF100991999999999999999999
0029029720999991903062606004+60450+022267FM-12+001499999V0203601N001019999999N0000001N9+01941+99999102161ADDGF100991999999999999999999
0029029720999991903062613004+60450+022267FM-12+001499999V0203201N009319999999N0000001N9+02111+99999102031ADDGF101991999999999999999999
0029029720999991903062620004+60450+022267FM-12+001499999V0203201N004619999999N0000001N9+01501+99999102071ADDGF108991999999999999999999
0029029720999991903062706004+60450+022267FM-12+001499999V0200201N006719999999N0000001N9+01671+99999102201ADDGF101991999999999999999999
0029029720999991903062713004+60450+022267FM-12+001499999V0200501N009319999999N0000001N9+02111+99999102201ADDGF107991999999999999999999
0029029720999991903062720004+60450+022267FM-12+001499999V0209991C000019999999N0000001N9+01721+99999102201ADDGF101991999999999999999999
0029029720999991903062806004+60450+022267FM-12+001499999V0200201N002619999999N0000001N9+01941+99999102361ADDGF100991999999999999999999
0029029720999991903062813004+60450+022267FM-12+001499999V0200501N004619999999N0000001N9+02441+99999102201ADDGF104991999999999999999999
0029029720999991903062820004+60450+022267FM-12+001499999V0203401N002619999999N0000001N9+01611+99999102151ADDGF100991999999999999999999
0029029720999991903062906004+60450+022267FM-12+001499999V0209991C000019999999N0000001N9+01781+99999102141ADDGF108991999999999999999999
0029029720999991903062913004+60450+022267FM-12+001499999V0202501N006719999999N0000001N9+02221+99999101991ADDGF108991999999999999999999
0029029720999991903062920004+60450+022267FM-12+001499999V0201801N002619999999N0000001N9+01721+99999101721ADDGF106991999999999999999999
0029029720999991903063006004+60450+022267FM-12+001499999V0201801N006719999999N0000001N9+01831+99999101351ADDGF108991999999999999999999
0029029720999991903063013004+60450+022267FM-12+001499999V0201801N009319999999N0000001N9+02111+99999101081ADDGF107991999999999999999999
0029029720999991903063020004+60450+022267FM-12+001499999V0202001N006719999999N0000001N9+01561+99999100921ADDGF100991999999999999999999
0029029720999991903070106004+60450+022267FM-12+001499999V0203601N002619999999N0000001N9+01611+99999100921ADDGF104991999999999999999999
0029029720999991903070113004+60450+022267FM-12+001499999V0203201N012319999999N0000001N9+01891+99999101031ADDGF100991999999999999999999
0029029720999991903070120004+60450+022267FM-12+001499999V0202901N002619999999N0000001N9+01391+99999101141ADDGF100991999999999999999999
0029029720999991903070206004+60450+022267FM-12+001499999V0202301N002619999999N0000001N9+01891+99999101161ADDGF100991999999999999999999
0029029720999991903070213004+60450+022267FM-12+001499999V0202001N012319999999N0000001N9+01891+99999100991ADDGF107991999999999999999999
0029029720999991903070220004+60450+022267FM-12+001499999V0201801N006719999999N0000001N9+01611+99999100871ADDGF108991999999999999999999
0029029720999991903070306004+60450+022267FM-12+001499999V0203601N002619999999N0000001N9+01941+99999100781ADDGF100991999999999999999999
0029029720999991903070313004+60450+022267FM-12+001499999V0203201N004619999999N0000001N9+02391+99999100861ADDGF108991999999999999999999
0029029720999991903070320004+60450+022267FM-12+001499999V0203201N001019999999N0000001N9+01831+99999100861ADDGF107991999999999999999999
0029029720999991903070406004+60450+022267FM-12+001499999V0201801N009319999999N0000001N9+01831+99999100361ADDGF108991999999999999999999
0029029720999991903070413004+60450+022267FM-12+001499999V0202301N012319999999N0000001N9+02061+99999100231ADDGF100991999999999999999999
0029029720999991903070420004+60450+022267FM-12+001499999V0202001N009319999999N0000001N9+01611+99999100321ADDGF107991999999999999999999
0029029720999991903070506004+60450+022267FM-12+001499999V0202301N012319999999N0000001N9+01501+99999100081ADDGF108991999999999999999999
0029029720999991903070513004+60450+022267FM-12+001499999V0202701N012319999999N0000001N9+01831+99999100321ADDGF106991999999999999999999
0029029720999991903070520004+60450+022267FM-12+001499999V0202301N001019999999N0000001N9+01441+99999100671ADDGF100991999999999999999999
0029029720999991903070606004+60450+022267FM-12+001499999V0202301N002619999999N0000001N9+01891+99999100641ADDGF108991999999999999999999
0029029720999991903070613004+60450+022267FM-12+001499999V0202501N009319999999N0000001N9+01721+99999100751ADDGF108991999999999999999999
0029029720999991903070620004+60450+022267FM-12+001499999V0202001N001019999999N0000001N9+01831+99999100721ADDGF102991999999999999999999
0029029720999991903070706004+60450+022267FM-12+001499999V0201801N006719999999N0000001N9+01891+99999100701ADDGF108991999999999999999999
0029029720999991903070713004+60450+022267FM-12+001499999V0200701N006719999999N0000001N9+01941+99999100721ADDGF108991999999999999999999
0029029720999991903070720004+60450+022267FM-12+001499999V0200501N006719999999N0000001N9+01721+99999100701ADDGF108991999999999999999999
0029029720999991903070806004+60450+022267FM-12+001499999V0200501N009319999999N0000001N9+01561+99999100621ADDGF108991999999999999999999
0029029720999991903070813004+60450+022267FM-12+001499999V0200201N009319999999N0000001N9+01611+99999100701ADDGF108991999999999999999999
0029029720999991903070820004+60450+022267FM-12+001499999V0203601N006719999999N0000001N9+01561+99999100671ADDGF108991999999999999999999
0029029720999991903070906004+60450+022267FM-12+001499999V0209991C000019999999N0000001N9+01611+99999100641ADDGF108991999999999999999999
0029029720999991903070913004+60450+022267FM-12+001499999V0202501N006719999999N0000001N9+01831+99999100831ADDGF108991999999999999999999
0029029720999991903070920004+60450+022267FM-12+001499999V0202701N004619999999N0000001N9+01441+99999100951ADDGF108991999999999999999999
0029029720999991903071006004+60450+022267FM-12+001499999V0203201N004619999999N0000001N9+01281+99999101021ADDGF108991999999999999999999
0029029720999991903071013004+60450+022267FM-12+001499999V0202701N006719999999N0000001N9+01891+99999100991ADDGF100991999999999999999999
0029029720999991903071020004+60450+022267FM-12+001499999V0202701N001019999999N0000001N9+01441+99999101111ADDGF102991999999999999999999
0029029720999991903071106004+60450+022267FM-12+001499999V0201401N006719999999N0000001N9+01721+99999100881ADDGF108991999999999999999999
0029029720999991903071113004+60450+022267FM-12+001499999V0202001N006719999999N0000001N9+02001+99999100761ADDGF107991999999999999999999
0029029720999991903071120004+60450+022267FM-12+001499999V0201801N004619999999N0000001N9+01671+99999100621ADDGF108991999999999999999999
0029029720999991903071206004+60450+022267FM-12+001499999V0203601N006719999999N0000001N9+01221+99999100161ADDGF108991999999999999999999
0029029720999991903071213004+60450+022267FM-12+001499999V0203201N006719999999N0000001N9+02001+99999100061ADDGF106991999999999999999999
0029029720999991903071220004+60450+022267FM-12+001499999V0203201N002619999999N0000001N9+01221+99999100041ADDGF100991999999999999999999
0029029720999991903071306004+60450+022267FM-12+001499999V0209991C000019999999N0000001N9+01671+99999099791ADDGF100991999999999999999999
0029029720999991903071313004+60450+022267FM-12+001499999V0202701N006719999999N0000001N9+01671+99999099721ADDGF108991999999999999999999
0029029720999991903071320004+60450+022267FM-12+001499999V0201801N002619999999N0000001N9+01331+99999099681ADDGF101991999999999999999999
0029029720999991903071406004+60450+022267FM-12+001499999V0201801N002619999999N0000001N9+01671+99999099761ADDGF100991999999999999999999
0029029720999991903071413004+60450+022267FM-12+001499999V0202701N006719999999N0000001N9+01831+99999099761ADDGF101991999999999999999999
0029029720999991903071420004+60450+022267FM-12+001499999V0202501N009319999999N0000001N9+01391+99999099801ADDGF100991999999999999999999
0029029720999991903071506004+60450+022267FM-12+001499999V0202501N004619999999N0000001N9+01671+99999099801ADDGF100991999999999999999999
0029029720999991903071513004+60450+022267FM-12+001499999V0202501N009319999999N0000001N9+01501+99999099991ADDGF104991999999999999999999
0029029720999991903071520004+60450+022267FM-12+001499999V0202301N009319999999N0000001N9+01281+99999100141ADDGF101991999999999999999999
0029029720999991903071606004+60450+022267FM-12+001499999V0202701N004619999999N0000001N9+01561+99999100351ADDGF106991999999999999999999
0029029720999991903071613004+60450+022267FM-12+001499999V0202701N009319999999N0000001N9+01671+99999100791ADDGF101991999999999999999999
0029029720999991903071620004+60450+022267FM-12+001499999V0202901N002619999999N0000001N9+01221+99999101041ADDGF100991999999999999999999
0029029720999991903071706004+60450+022267FM-12+001499999V0200501N004619999999N0000001N9+01721+99999101271ADDGF101991999999999999999999
0029029720999991903071713004+60450+022267FM-12+001499999V0201601N009319999999N0000001N9+01781+99999101241ADDGF108991999999999999999999
0029029720999991903071720004+60450+022267FM-12+001499999V0200701N006719999999N0000001N9+01391+99999101031ADDGF108991999999999999999999
0029029720999991903071806004+60450+022267FM-12+001499999V0200701N015419999999N0000001N9+01221+99999999999ADDGF108991999999999999999999
0029029720999991903071813004+60450+022267FM-12+001499999V0201401N009319999999N0000001N9+01331+99999099541ADDGF108991999999999999999999
0029029720999991903071820004+60450+022267FM-12+001499999V0201801N004619999999N0000001N9+01501+99999099161ADDGF108991999999999999999999
0029029720999991903071906004+60450+022267FM-12+001499999V0202001N006719999999N0000001N9+01501+99999099121ADDGF108991999999999999999999
0029029720999991903071913004+60450+022267FM-12+001499999V0202501N009319999999N0000001N9+01331+99999099461ADDGF108991999999999999999999
0029029720999991903071920004+60450+022267FM-12+001499999V0202901N012319999999N0000001N9+01171+99999099881ADDGF108991999999999999999999
0029029720999991903072006004+60450+022267FM-12+001499999V0202701N006719999999N0000001N9+01721+99999100501ADDGF100991999999999999999999
0029029720999991903072013004+60450+022267FM-12+001499999V0203201N009319999999N0000001N9+01891+99999100711ADDGF104991999999999999999999
0029029720999991903072020004+60450+022267FM-12+001499999V0202901N004619999999N0000001N9+01331+99999100941ADDGF100991999999999999999999
0029029720999991903072106004+60450+022267FM-12+001499999V0203401N002619999999N0000001N9+01561+99999101031ADDGF107991999999999999999999
0029029720999991903072113004+60450+022267FM-12+001499999V0202701N004619999999N0000001N9+02001+99999100981ADDGF105991999999999999999999
0029029720999991903072120004+60450+022267FM-12+001499999V0203201N004619999999N0000001N9+01441+99999100981ADDGF108991999999999999999999
0029029720999991903072206004+60450+022267FM-12+001499999V0209991C000019999999N0000001N9+01501+99999101031ADDGF100991999999999999999999
0029029720999991903072213004+60450+022267FM-12+001499999V0203601N004619999999N0000001N9+02111+99999100821ADDGF101991999999999999999999
0029029720999991903072220004+60450+022267FM-12+001499999V0200501N002619999999N0000001N9+01561+99999100801ADDGF101991999999999999999999
0029029720999991903072306004+60450+022267FM-12+001499999V0203601N001019999999N0000001N9+01441+99999101001ADDGF108991999999999999999999
0029029720999991903072313004+60450+022267FM-12+001499999V0209991C000019999999N0000001N9+01941+99999101001ADDGF108991999999999999999999
0029029720999991903072320004+60450+022267FM-12+001499999V0203401N004619999999N0000001N9+01671+99999100991ADDGF100991999999999999999999
0029029720999991903072406004+60450+022267FM-12+001499999V0209991C000019999999N0000001N9+02061+99999101221ADDGF101991999999999999999999
0029029720999991903072413004+60450+022267FM-12+001499999V0200701N006719999999N0000001N9+02391+99999101111ADDGF107991999999999999999999
0029029720999991903072420004+60450+022267FM-12+001499999V0200501N001019999999N0000001N9+01941+99999101141ADDGF100991999999999999999999
0029029720999991903072506004+60450+022267FM-12+001499999V0203601N002619999999N0000001N9+02061+99999101151ADDGF100991999999999999999999
0029029720999991903072513004+60450+022267FM-12+001499999V0200201N009319999999N0000001N9+02391+99999100951ADDGF100991999999999999999999
0029029720999991903072520004+60450+022267FM-12+001499999V0200501N001019999999N0000001N9+02061+99999100941ADDGF100991999999999999999999
0029029720999991903072606004+60450+022267FM-12+001499999V0209991C000019999999N0000001N9+02111+99999100991ADDGF100991999999999999999999
0029029720999991903072613004+60450+022267FM-12+001499999V0203401N004619999999N0000001N9+02501+99999101061ADDGF100991999999999999999999
0029029720999991903072620004+60450+022267FM-12+001499999V0209991C000019999999N0000001N9+01941+99999101081ADDGF101991999999999999999999
0029029720999991903072706004+60450+022267FM-12+001499999V0201601N001019999999N0000001N9+01561+99999101181ADDGF108991999999999999999999
0029029720999991903072713004+60450+022267FM-12+001499999V0202501N004619999999N0000001N9+02441+99999101121ADDGF103991999999999999999999
0029029720999991903072720004+60450+022267FM-12+001499999V0202001N001019999999N0000001N9+01721+99999101231ADDGF104991999999999999999999
0029029720999991903072806004+60450+022267FM-12+001499999V0202001N002619999999N0000001N9+02221+99999101141ADDGF103991999999999999999999
0029029720999991903072813004+60450+022267FM-12+001499999V0201801N002619999999N0000001N9+02441+99999101031ADDGF100991999999999999999999
0029029720999991903072820004+60450+022267FM-12+001499999V0201801N001019999999N0000001N9+01721+99999100991ADDGF100991999999999999999999
0029029720999991903072906004+60450+022267FM-12+001499999V0200901N004619999999N0000001N9+02171+99999100791ADDGF102991999999999999999999
0029029720999991903072913004+60450+022267FM-12+001499999V0201601N009319999999N0000001N9+02611+99999100781ADDGF106991999999999999999999
0029029720999991903072920004+60450+022267FM-12+001499999V0201101N006719999999N0000001N9+01891+99999100521ADDGF106991999999999999999999
0029029720999991903073006004+60450+022267FM-12+001499999V0200901N012319999999N0000001N9+02111+99999100151ADDGF108991999999999999999999
0029029720999991903073013004+60450+022267FM-12+001499999V0201801N009319999999N0000001N9+01941+99999100121ADDGF108991999999999999999999
0029029720999991903073020004+60450+022267FM-12+001499999V0201601N012319999999N0000001N9+01721+99999100071ADDGF108991999999999999999999
0029029720999991903073106004+60450+022267FM-12+001499999V0201801N009319999999N0000001N9+01721+99999099821ADDGF106991999999999999999999
0029029720999991903073113004+60450+022267FM-12+001499999V0202001N012319999999N0000001N9+01941+99999099861ADDGF106991999999999999999999
0029029720999991903073120004+60450+022267FM-12+001499999V0202001N006719999999N0000001N9+01611+99999099861ADDGF108991999999999999999999
0029029720999991903080106004+60450+022267FM-12+001499999V0201801N012319999999N0000001N9+01671+99999099511ADDGF108991999999999999999999
0029029720999991903080113004+60450+022267FM-12+001499999V0201801N004619999999N0000001N9+01831+99999099391ADDGF108991999999999999999999
0029029720999991903080120004+60450+022267FM-12+001499999V0201601N004619999999N0000001N9+01611+99999099321ADDGF107991999999999999999999
0029029720999991903080206004+60450+022267FM-12+001499999V0209991C000019999999N0000001N9+01611+99999099001ADDGF107991999999999999999999
0029029720999991903080213004+60450+022267FM-12+001499999V0201801N009319999999N0000001N9+01721+99999099121ADDGF108991999999999999999999
0029029720999991903080220004+60450+022267FM-12+001499999V0209991C000019999999N0000001N9+01331+99999099241ADDGF102991999999999999999999
0029029720999991903080306004+60450+022267FM-12+001499999V0209991C000019999999N0000001N9+01831+99999099061ADDGF105991999999999999999999
0029029720999991903080313004+60450+022267FM-12+001499999V0202501N002619999999N0000001N9+02111+99999099141ADDGF108991999999999999999999
0029029720999991903080320004+60450+022267FM-12+001499999V0202301N001019999999N0000001N9+01391+99999099301ADDGF102991999999999999999999
0029029720999991903080406004+60450+022267FM-12+001499999V0202001N004619999999N0000001N9+01671+99999099501ADDGF107991999999999999999999
0029029720999991903080413004+60450+022267FM-12+001499999V0202001N012319999999N0000001N9+01891+99999099721ADDGF106991999999999999999999
0029029720999991903080420004+60450+022267FM-12+001499999V0201801N004619999999N0000001N9+01501+99999099961ADDGF106991999999999999999999
0029029720999991903080506004+60450+022267FM-12+001499999V0201401N004619999999N0000001N9+01671+99999099791ADDGF108991999999999999999999
0029029720999991903080513004+60450+022267FM-12+001499999V0201401N012319999999N0000001N9+02001+99999099711ADDGF106991999999999999999999
0029029720999991903080520004+60450+022267FM-12+001499999V0201601N009319999999N0000001N9+01331+99999099321ADDGF108991999999999999999999
0029029720999991903080606004+60450+022267FM-12+001499999V0200701N006719999999N0000001N9+01561+99999099001ADDGF108991999999999999999999
0029029720999991903080613004+60450+022267FM-12+001499999V0200901N002619999999N0000001N9+01561+99999098921ADDGF108991999999999999999999
0029029720999991903080620004+60450+022267FM-12+001499999V0202901N001019999999N0000001N9+01331+99999099021ADDGF106991999999999999999999
0029029720999991903080706004+60450+022267FM-12+001499999V0209991C000019999999N0000001N9+01331+99999098881ADDGF108991999999999999999999
0029029720999991903080713004+60450+022267FM-12+001499999V0203601N002619999999N0000001N9+01391+99999099031ADDGF108991999999999999999999
0029029720999991903080720004+60450+022267FM-12+001499999V0202901N006719999999N0000001N9+01331+99999099181ADDGF106991999999999999999999
0029029720999991903080806004+60450+022267FM-12+001499999V0202901N002619999999N0000001N9+01391+99999099231ADDGF108991999999999999999999
0029029720999991903080813004+60450+022267FM-12+001499999V0202901N015419999999N0000001N9+01561+99999099551ADDGF108991999999999999999999
0029029720999991903080820004+60450+022267FM-12+001499999V0202501N009319999999N0000001N9+01331+99999099681ADDGF102991999999999999999999
0029029720999991903080906004+60450+022267FM-12+001499999V0202901N015419999999N0000001N9+01331+99999099631ADDGF108991999999999999999999
0029029720999991903080913004+60450+022267FM-12+001499999V0202701N015419999999N0000001N9+01671+99999099741ADDGF100991999999999999999999
0029029720999991903080920004+60450+022267FM-12+001499999V0202501N009319999999N0000001N9+01501+99999099711ADDGF101991999999999999999999
0029029720999991903081006004+60450+022267FM-12+001499999V0202001N004619999999N0000001N9+01441+99999099681ADDGF108991999999999999999999
0029029720999991903081013004+60450+022267FM-12+001499999V0203201N006719999999N0000001N9+01941+99999099941ADDGF108991999999999999999999
0029029720999991903081020004+60450+022267FM-12+001499999V0202001N001019999999N0000001N9+01441+99999099921ADDGF105991999999999999999999
0029029720999991903081106004+60450+022267FM-12+001499999V0209991C000019999999N0000001N9+01281+99999099721ADDGF108991999999999999999999
0029029720999991903081113004+60450+022267FM-12+001499999V0200501N006719999999N0000001N9+01171+99999099841ADDGF108991999999999999999999
0029029720999991903081120004+60450+022267FM-12+001499999V0201801N002619999999N0000001N9+01331+99999099841ADDGF102991999999999999999999
0029029720999991903081206004+60450+022267FM-12+001499999V0209991C000019999999N0000001N9+01331+99999099951ADDGF108991999999999999999999
0029029720999991903081213004+60450+022267FM-12+001499999V0202301N006719999999N0000001N9+01611+99999100231ADDGF108991999999999999999999
0029029720999991903081220004+60450+022267FM-12+001499999V0209991C000019999999N0000001N9+01391+99999100361ADDGF108991999999999999999999
0029029720999991903081306004+60450+022267FM-12+001499999V0209991C000019999999N0000001N9+01671+99999100261ADDGF104991999999999999999999
0029029720999991903081313004+60450+022267FM-12+001499999V0203201N004619999999N0000001N9+01721+99999100271ADDGF108991999999999999999999
0029029720999991903081320004+60450+022267FM-12+001499999V0202901N004619999999N0000001N9+01281+99999100431ADDGF107991999999999999999999
0029029720999991903081406004+60450+022267FM-12+001499999V0202901N006719999999N0000001N9+01561+99999100481ADDGF105991999999999999999999
0029029720999991903081413004+60450+022267FM-12+001499999V0203201N012319999999N0000001N9+01721+99999100521ADDGF107991999999999999999999
0029029720999991903081420004+60450+022267FM-12+001499999V0209991C000019999999N0000001N9+01061+99999100861ADDGF100991999999999999999999
0029029720999991903081506004+60450+022267FM-12+001499999V0209991C000019999999N0000001N9+01561+99999101021ADDGF100991999999999999999999
0029029720999991903081513004+60450+022267FM-12+001499999V0202301N006719999999N0000001N9+01891+99999100861ADDGF102991999999999999999999
0029029720999991903081520004+60450+022267FM-12+001499999V0209991C000019999999N0000001N9+01281+99999100941ADDGF108991999999999999999999
0029029720999991903081606004+60450+022267FM-12+001499999V0200901N006719999999N0000001N9+01391+99999100641ADDGF108991999999999999999999
0029029720999991903081613004+60450+022267FM-12+001499999V0200901N012319999999N0000001N9+02001+99999100321ADDGF108991999999999999999999
0029029720999991903081620004+60450+022267FM-12+001499999V0200701N009319999999N0000001N9+01501+99999100121ADDGF108991999999999999999999
0029029720999991903081706004+60450+022267FM-12+001499999V0200701N015419999999N0000001N9+01441+99999099351ADDGF108991999999999999999999
0029029720999991903081713004+60450+022267FM-12+001499999V0200901N012319999999N0000001N9+01781+99999099231ADDGF108991999999999999999999
0029029720999991903081720004+60450+022267FM-12+001499999V0200701N006719999999N0000001N9+01221+99999099231ADDGF108991999999999999999999
0029029720999991903081806004+60450+022267FM-12+001499999V0200901N004619999999N0000001N9+01331+99999099191ADDGF108991999999999999999999
0029029720999991903081813004+60450+022267FM-12+001499999V0201401N002619999999N0000001N9+01331+99999099421ADDGF108991999999999999999999
0029029720999991903081820004+60450+022267FM-12+001499999V0200701N004619999999N0000001N9+01281+99999099481ADDGF108991999999999999999999
0029029720999991903081906004+60450+022267FM-12+001499999V0209991C000019999999N0000001N9+01391+99999099591ADDGF108991999999999999999999
0029029720999991903081913004+60450+022267FM-12+001499999V0209991C000019999999N0000001N9+01501+99999099681ADDGF108991999999999999999999
0029029720999991903081920004+60450+022267FM-12+001499999V0201801N001019999999N0000001N9+01221+99999099711ADDGF101991999999999999999999
0029029720999991903082006004+60450+022267FM-12+001499999V0200901N004619999999N0000001N9+01331+99999099621ADDGF108991999999999999999999
0029029720999991903082013004+60450+022267FM-12+001499999V0200701N004619999999N0000001N9+01441+99999099511ADDGF108991999999999999999999
0029029720999991903082020004+60450+022267FM-12+001499999V0201801N004619999999N0000001N9+01331+99999099591ADDGF108991999999999999999999
0029029720999991903082106004+60450+022267FM-12+001499999V0201801N009319999999N0000001N9+01441+99999099921ADDGF100991999999999999999999
0029029720999991903082113004+60450+022267FM-12+001499999V0201401N012319999999N0000001N9+01671+99999100201ADDGF108991999999999999999999
0029029720999991903082120004+60450+022267FM-12+001499999V0201601N015419999999N0000001N9+01391+99999099701ADDGF108991999999999999999999
0029029720999991903082206004+60450+022267FM-12+001499999V0201801N015419999999N0000001N9+01331+99999099521ADDGF108991999999999999999999
0029029720999991903082213004+60450+022267FM-12+001499999V0202001N019019999999N0000001N9+01501+99999099861ADDGF106991999999999999999999
0029029720999991903082220004+60450+022267FM-12+001499999V0202301N012319999999N0000001N9+01331+99999100161ADDGF101991999999999999999999
0029029720999991903082306004+60450+022267FM-12+001499999V0202301N012319999999N0000001N9+01331+99999100721ADDGF101991999999999999999999
0029029720999991903082313004+60450+022267FM-12+001499999V0202301N009319999999N0000001N9+01611+99999101041ADDGF102991999999999999999999
0029029720999991903082320004+60450+022267FM-12+001499999V0201801N004619999999N0000001N9+01171+99999101181ADDGF100991999999999999999999
0029029720999991903082406004+60450+022267FM-12+001499999V0201801N001019999999N0000001N9+01281+99999101101ADDGF108991999999999999999999
0029029720999991903082413004+60450+022267FM-12+001499999V0200901N012319999999N0000001N9+01171+99999100391ADDGF108991999999999999999999
0029029720999991903082420004+60450+022267FM-12+001499999V0201401N006719999999N0000001N9+01331+99999099391ADDGF108991999999999999999999
0029029720999991903082506004+60450+022267FM-12+001499999V0203201N012319999999N0000001N9+01111+99999100031ADDGF108991999999999999999999
0029029720999991903082513004+60450+022267FM-12+001499999V0202501N009319999999N0000001N9+01611+99999100921ADDGF100991999999999999999999
0029029720999991903082520004+60450+022267FM-12+001499999V0209991C000019999999N0000001N9+01111+99999101361ADDGF100991999999999999999999
0029029720999991903082606004+60450+022267FM-12+001499999V0209991C000019999999N0000001N9+01111+99999101361ADDGF108991999999999999999999
0029029720999991903082613004+60450+022267FM-12+001499999V0200901N002619999999N0000001N9+01391+99999101341ADDGF108991999999999999999999
0029029720999991903082620004+60450+022267FM-12+001499999V0201101N006719999999N0000001N9+01171+99999100901ADDGF108991999999999999999999
0029029720999991903082706004+60450+022267FM-12+001499999V0200501N004619999999N0000001N9+01221+99999100541ADDGF108991999999999999999999
0029029720999991903082713004+60450+022267FM-12+001499999V0202701N002619999999N0000001N9+01501+99999100671ADDGF108991999999999999999999
0029029720999991903082720004+60450+022267FM-12+001499999V0202301N002619999999N0000001N9+01061+99999100541ADDGF100991999999999999999999
0029029720999991903082806004+60450+022267FM-12+001499999V0201601N006719999999N0000001N9+01281+99999099781ADDGF108991999999999999999999
0029029720999991903082813004+60450+022267FM-12+001499999V0202301N009319999999N0000001N9+01391+99999099421ADDGF108991999999999999999999
0029029720999991903082820004+60450+022267FM-12+001499999V0202301N006719999999N0000001N9+01281+99999099241ADDGF108991999999999999999999
0029029720999991903082906004+60450+022267FM-12+001499999V0202001N009319999999N0000001N9+01221+99999098961ADDGF108991999999999999999999
0029029720999991903082913004+60450+022267FM-12+001499999V0202001N012319999999N0000001N9+01391+99999098901ADDGF108991999999999999999999
0029029720999991903082920004+60450+022267FM-12+001499999V0201801N004619999999N0000001N9+01171+99999098641ADDGF106991999999999999999999
0029029720999991903083006004+60450+022267FM-12+001499999V0209991C000019999999N0000001N9+01001+99999098591ADDGF108991999999999999999999
0029029720999991903083013004+60450+022267FM-12+001499999V0203201N004619999999N0000001N9+01611+99999098801ADDGF107991999999999999999999
0029029720999991903083020004+60450+022267FM-12+001499999V0202901N004619999999N0000001N9+01221+99999099161ADDGF108991999999999999999999
0029029720999991903083106004+60450+022267FM-12+001499999V0202901N006719999999N0000001N9+01331+99999099561ADDGF108991999999999999999999
0029029720999991903083113004+60450+022267FM-12+001499999V0202901N009319999999N0000001N9+01611+99999099761ADDGF106991999999999999999999
0029029720999991903083120004+60450+022267FM-12+001499999V0202301N001019999999N0000001N9+01171+99999099701ADDGF107991999999999999999999
0029029720999991903090106004+60450+022267FM-12+001499999V0200201N002619999999N0000001N9+01001+99999099861ADDGF108991999999999999999999
0029029720999991903090113004+60450+022267FM-12+001499999V0200201N004619999999N0000001N9+01671+99999100671ADDGF108991999999999999999999
0029029720999991903090120004+60450+022267FM-12+001499999V0203201N002619999999N0000001N9+01001+99999101461ADDGF100991999999999999999999
0029029720999991903090206004+60450+022267FM-12+001499999V0209991C000019999999N0000001N9+01221+99999102151ADDGF108991999999999999999999
0029029720999991903090213004+60450+022267FM-12+001499999V0202301N006719999999N0000001N9+01561+99999102081ADDGF108991999999999999999999
0029029720999991903090220004+60450+022267FM-12+001499999V0202301N009319999999N0000001N9+01281+99999102081ADDGF108991999999999999999999
0029029720999991903090306004+60450+022267FM-12+001499999V0200901N002619999999N0000001N9+01221+99999102061ADDGF108991999999999999999999
0029029720999991903090313004+60450+022267FM-12+001499999V0201601N009319999999N0000001N9+01831+99999101751ADDGF101991999999999999999999
0029029720999991903090320004+60450+022267FM-12+001499999V0201601N012319999999N0000001N9+01391+99999101341ADDGF100991999999999999999999
0029029720999991903090406004+60450+022267FM-12+001499999V0209991C000019999999N0000001N9+01391+99999101301ADDGF108991999999999999999999
0029029720999991903090413004+60450+022267FM-12+001499999V0202701N006719999999N0000001N9+01671+99999101471ADDGF100991999999999999999999
