0029227070999991903010106004+62167+030650FM-12+010299999V0200501N002119999999N0000001N9-02001+99999100141ADDGF100991999999999999999999
0029227070999991903010113004+62167+030650FM-12+010299999V0200501N008219999999N0000001N9-01061+99999099321ADDGF108991999999999999999999
0029227070999991903010120004+62167+030650FM-12+010299999V0200501N004119999999N0000001N9-00941+99999098961ADDGF100991999999999999999999
0029227070999991903010206004+62167+030650FM-12+010299999V0201401N006219999999N0000001N9-00281+99999098881ADDGF108991999999999999999999
0035227070999991903010213004+62167+030650FM-12+010299999V0202301N004119999999N0000001N9-00611+99999098991ADDGF108991999999999999999999MW1721
0029227070999991903010220004+62167+030650FM-12+010299999V0202301N004119999999N0000001N9-01111+99999099301ADDGF108991999999999999999999
0029227070999991903010306004+62167+030650FM-12+010299999V0209991C000019999999N0000001N9-01781+99999100101ADDGF100991999999999999999999
0029227070999991903010313004+62167+030650FM-12+010299999V0209991C000019999999N0000001N9-02001+99999100511ADDGF102991999999999999999999
0029227070999991903010320004+62167+030650FM-12+010299999V0209991C000019999999N0000001N9-01671+99999100631ADDGF100991999999999999999999
0029227070999991903010406004+62167+030650FM-12+010299999V0201401N004119999999N0000001N9-01441+99999100751ADDGF100991999999999999999999
0035227070999991903010413004+62167+030650FM-12+010299999V0201401N018019999999N0000001N9-01111+99999100561ADDGF108991999999999999999999MW1861
0029227070999991903010420004+62167+030650FM-12+010299999V0200901N009819999999N0000001N9-01671+99999100241ADDGF100991999999999999999999
0029227070999991903010506004+62167+030650FM-12+010299999V0200901N015919999999N0000001N9-01111+99999099351ADDGF108991999999999999999999
0035227070999991903010513004+62167+030650FM-12+010299999V0201101N004119999999N0000001N9-00671+99999099071ADDGF108991999999999999999999MW1861
0029227070999991903010520004+62167+030650FM-12+010299999V0202301N004119999999N0000001N9-00391+99999099071ADDGF108991999999999999999999
0029227070999991903010606004+62167+030650FM-12+010299999V0201801N001019999999N0000001N9-00171+99999099111ADDGF100991999999999999999999
0029227070999991903010613004+62167+030650FM-12+010299999V0202701N002119999999N0000001N9-00111+99999099311ADDGF108991999999999999999999
0029227070999991903010620004+62167+030650FM-12+010299999V0201801N001019999999N0000001N9-00171+99999099381ADDGF108991999999999999999999
0029227070999991903010706004+62167+030650FM-12+010299999V0200901N004119999999N0000001N9-00391+99999099181ADDGF100991999999999999999999
0035227070999991903010713004+62167+030650FM-12+010299999V0201401N004119999999N0000001N9-00281+99999099161ADDGF108991999999999999999999MW1721
0029227070999991903010720004+62167+030650FM-12+010299999V0201401N002119999999N0000001N9-00331+99999098831ADDGF108991999999999999999999
0029227070999991903010806004+62167+030650FM-12+010299999V0201401N004119999999N0000001N9-00441+99999097951ADDGF108991999999999999999999
0035227070999991903010813004+62167+030650FM-12+010299999V0201401N004119999999N0000001N9-00111+99999097601ADDGF108991999999999999999999MW1721
0029227070999991903010820004+62167+030650FM-12+010299999V0209991C000019999999N0000001N9-00061+99999097751ADDGF100991999999999999999999
0029227070999991903010906004+62167+030650FM-12+010299999V0203601N002119999999N0000001N9+00001+99999097401ADDGF108991999999999999999999
0035227070999991903010913004+62167+030650FM-12+010299999V0202701N004119999999N0000001N9-00281+99999097711ADDGF108991999999999999999999MW1721
0029227070999991903010920004+62167+030650FM-12+010299999V0202901N004119999999N0000001N9-00831+99999098111ADDGF108991999999999999999999
0029227070999991903011006004+62167+030650FM-12+010299999V0202701N002119999999N0000001N9-01501+99999099021ADDGF100991999999999999999999
0035227070999991903011013004+62167+030650FM-12+010299999V0209991C000019999999N0000001N9-01221+99999099151ADDGF108991999999999999999999MW1721
0029227070999991903011020004+62167+030650FM-12+010299999V0200901N002119999999N0000001N9-01111+99999098501ADDGF100991999999999999999999
0029227070999991903011106004+62167+030650FM-12+010299999V0200901N003119999999N0000001N9-01111+99999097831ADDGF108991999999999999999999
0035227070999991903011113004+62167+030650FM-12+010299999V0200901N002119999999N0000001N9-01061+99999097861ADDGF108991999999999999999999MW1721
0029227070999991903011120004+62167+030650FM-12+010299999V0203601N005119999999N0000001N9-01111+99999098141ADDGF100991999999999999999999
0029227070999991903011206004+62167+030650FM-12+010299999V0203201N002119999999N0000001N9-01561+99999099031ADDGF101991999999999999999999
0029227070999991903011213004+62167+030650FM-12+010299999V0203201N002119999999N0000001N9-02001+99999100081ADDGF100991999999999999999999
0029227070999991903011220004+62167+030650FM-12+010299999V0203201N002119999999N0000001N9-02891+99999100761ADDGF100991999999999999999999
0029227070999991903011306004+62167+030650FM-12+010299999V0209991C000019999999N0000001N9-03061+99999100521ADDGF102991999999999999999999
0029227070999991903011313004+62167+030650FM-12+010299999V0201401N002119999999N0000001N9-01671+99999100241ADDGF108991999999999999999999
0029227070999991903011320004+62167+030650FM-12+010299999V0202701N006219999999N0000001N9-00281+99999099961ADDGF108991999999999999999999
0029227070999991903011406004+62167+030650FM-12+010299999V0203201N004119999999N0000001N9-00331+99999101281ADDGF102991999999999999999999
0029227070999991903011413004+62167+030650FM-12+010299999V0203601N003119999999N0000001N9-01331+99999102241ADDGF100991999999999999999999
0029227070999991903011420004+62167+030650FM-12+010299999V0209991C000019999999N0000001N9-02331+99999102881ADDGF100991999999999999999999
0029227070999991903011506004+62167+030650FM-12+010299999V0201401N002119999999N0000001N9-01391+99999102561ADDGF100991999999999999999999
0029227070999991903011513004+62167+030650FM-12+010299999V0209991C000019999999N0000001N9-00831+99999102381ADDGF108991999999999999999999
0029227070999991903011520004+62167+030650FM-12+010299999V0209991C000019999999N0000001N9-00561+99999102381ADDGF108991999999999999999999
0029227070999991903011606004+62167+030650FM-12+010299999V0209991C000019999999N0000001N9-00781+99999102681ADDGF102991999999999999999999
0029227070999991903011613004+62167+030650FM-12+010299999V0209991C000019999999N0000001N9-01171+99999103031ADDGF101991999999999999999999
0029227070999991903011620004+62167+030650FM-12+010299999V0209991C000019999999N0000001N9-01671+99999102951ADDGF100991999999999999999999
0029227070999991903011706004+62167+030650FM-12+010299999V0209991C000019999999N0000001N9-02061+99999102981ADDGF100991999999999999999999
0029227070999991903011713004+62167+030650FM-12+010299999V0209991C000019999999N0000001N9-01441+99999103001ADDGF100991999999999999999999
0029227070999991903011720004+62167+030650FM-12+010299999V0209991C000019999999N0000001N9-01281+99999103031ADDGF100991999999999999999999
0029227070999991903011806004+62167+030650FM-12+010299999V0209991C000019999999N0000001N9-01221+99999102621ADDGF108991999999999999999999
0029227070999991903011813004+62167+030650FM-12+010299999V0203201N002119999999N0000001N9-00721+99999102481ADDGF108991999999999999999999
0029227070999991903011820004+62167+030650FM-12+010299999V0203201N001019999999N0000001N9-00501+99999102311ADDGF100991999999999999999999
0029227070999991903011906004+62167+030650FM-12+010299999V0203201N002119999999N0000001N9-00721+99999102241ADDGF100991999999999999999999
0029227070999991903011913004+62167+030650FM-12+010299999V0202701N001019999999N0000001N9-00781+99999102061ADDGF108991999999999999999999
0029227070999991903011920004+62167+030650FM-12+010299999V0201801N004119999999N0000001N9-00941+99999101541ADDGF100991999999999999999999
0029227070999991903012006004+62167+030650FM-12+010299999V0202701N002119999999N0000001N9-01061+99999100841ADDGF105991999999999999999999
0029227070999991903012013004+62167+030650FM-12+010299999V0202701N003119999999N0000001N9-00781+99999100621ADDGF106991999999999999999999
0029227070999991903012020004+62167+030650FM-12+010299999V0203201N004119999999N0000001N9-00831+99999100921ADDGF100991999999999999999999
0029227070999991903012106004+62167+030650FM-12+010299999V0203201N004119999999N0000001N9-01061+99999101151ADDGF100991999999999999999999
0029227070999991903012113004+62167+030650FM-12+010299999V0203201N002119999999N0000001N9-00671+99999101111ADDGF107991999999999999999999
0029227070999991903012120004+62167+030650FM-12+010299999V0203201N002119999999N0000001N9-01001+99999101511ADDGF100991999999999999999999
0029227070999991903012206004+62167+030650FM-12+010299999V0203201N002119999999N0000001N9-00941+99999101761ADDGF100991999999999999999999
0029227070999991903012213004+62167+030650FM-12+010299999V0209991C000019999999N0000001N9-01001+99999101831ADDGF100991999999999999999999
0029227070999991903012220004+62167+030650FM-12+010299999V0203201N001019999999N0000001N9-01221+99999101981ADDGF100991999999999999999999
0029227070999991903012306004+62167+030650FM-12+010299999V0202301N002119999999N0000001N9-01441+99999101861ADDGF100991999999999999999999
0029227070999991903012313004+62167+030650FM-12+010299999V0202301N001019999999N0000001N9-01501+99999101821ADDGF108991999999999999999999
0029227070999991903012320004+62167+030650FM-12+010299999V0202301N002119999999N0000001N9-01561+99999101841ADDGF100991999999999999999999
0029227070999991903012406004+62167+030650FM-12+010299999V0202301N002119999999N0000001N9-02001+99999101961ADDGF100991999999999999999999
0029227070999991903012413004+62167+030650FM-12+010299999V0202301N004119999999N0000001N9-01721+99999102141ADDGF108991999999999999999999
0029227070999991903012420004+62167+030650FM-12+010299999V0202301N005119999999N0000001N9-01611+99999102111ADDGF100991999999999999999999
0029227070999991903012506004+62167+030650FM-12+010299999V0202301N006219999999N0000001N9-01721+99999102001ADDGF108991999999999999999999
0035227070999991903012513004+62167+030650FM-12+010299999V0201401N009819999999N0000001N9-01561+99999102031ADDGF108991999999999999999999MW1861
0029227070999991903012520004+62167+030650FM-12+010299999V0201401N009819999999N0000001N9-01671+99999101641ADDGF108991999999999999999999
0029227070999991903012606004+62167+030650FM-12+010299999V0201401N011819999999N0000001N9-01781+99999101401ADDGF108991999999999999999999
0035227070999991903012613004+62167+030650FM-12+010299999V0201401N015919999999N0000001N9-01671+99999101151ADDGF108991999999999999999999MW1861
0029227070999991903012620004+62167+030650FM-12+010299999V0201401N015919999999N0000001N9-01441+99999100911ADDGF108991999999999999999999
0029227070999991903012706004+62167+030650FM-12+010299999V0201401N009819999999N0000001N9-01221+99999100441ADDGF108991999999999999999999
0035227070999991903012713004+62167+030650FM-12+010299999V0201601N009819999999N0000001N9-01111+99999099341ADDGF108991999999999999999999MW1721
0029227070999991903012720004+62167+030650FM-12+010299999V0201401N002119999999N0000001N9-00831+99999098181ADDGF108991999999999999999999
0029227070999991903012806004+62167+030650FM-12+010299999V0209991C000019999999N0000001N9-00611+99999097301ADDGF108991999999999999999999
0029227070999991903012813004+62167+030650FM-12+010299999V0209991C000019999999N0000001N9-00501+99999097661ADDGF108991999999999999999999
0035227070999991903012820004+62167+030650FM-12+010299999V0202301N001019999999N0000001N9-00171+99999097561ADDGF108991999999999999999999MW1721
0029227070999991903012906004+62167+030650FM-12+010299999V0202301N001019999999N0000001N9-00221+99999097301ADDGF108991999999999999999999
0035227070999991903012913004+62167+030650FM-12+010299999V0209991C000019999999N0000001N9-00061+99999097191ADDGF108991999999999999999999MW1721
0029227070999991903012920004+62167+030650FM-12+010299999V0202301N003119999999N0000001N9-00171+99999097351ADDGF108991999999999999999999
0029227070999991903013006004+62167+030650FM-12+010299999V0201401N004119999999N0000001N9-00281+99999097401ADDGF108991999999999999999999
0029227070999991903013013004+62167+030650FM-12+010299999V0201401N002119999999N0000001N9-00441+99999096761ADDGF108991999999999999999999
0035227070999991903013020004+62167+030650FM-12+010299999V0200501N002119999999N0000001N9-00501+99999096341ADDGF108991999999999999999999MW1721
0029227070999991903013106004+62167+030650FM-12+010299999V0203201N003119999999N0000001N9-00671+99999097141ADDGF107991999999999999999999
0029227070999991903013113004+62167+030650FM-12+010299999V0203201N002119999999N0000001N9-00441+99999098301ADDGF108991999999999999999999
0029227070999991903013120004+62167+030650FM-12+010299999V0203201N001019999999N0000001N9-00501+99999098901ADDGF100991999999999999999999
0029227070999991903020106004+62167+030650FM-12+010299999V0201401N006219999999N0000001N9-00671+99999098781ADDGF108991999999999999999999
0029227070999991903020113004+62167+030650FM-12+010299999V0201401N001019999999N0000001N9-00281+99999098481ADDGF108991999999999999999999
0029227070999991903020120004+62167+030650FM-12+010299999V0201801N002119999999N0000001N9+00061+99999098341ADDGF100991999999999999999999
0029227070999991903020206004+62167+030650FM-12+010299999V0202301N004119999999N0000001N9+00111+99999098471ADDGF108991999999999999999999
0029227070999991903020213004+62167+030650FM-12+010299999V0202301N004119999999N0000001N9+00061+99999098631ADDGF108991999999999999999999
0029227070999991903020220004+62167+030650FM-12+010299999V0202301N002119999999N0000001N9+00111+99999098711ADDGF108991999999999999999999
0029227070999991903020306004+62167+030650FM-12+010299999V0201801N004119999999N0000001N9+00001+99999098151ADDGF108991999999999999999999
0029227070999991903020313004+62167+030650FM-12+010299999V0202301N006219999999N0000001N9-00061+99999098341ADDGF108991999999999999999999
0029227070999991903020320004+62167+030650FM-12+010299999V0202701N002119999999N0000001N9-00721+99999098951ADDGF100991999999999999999999
0029227070999991903020406004+62167+030650FM-12+010299999V0202701N001019999999N0000001N9-01671+99999099561ADDGF100991999999999999999999
0029227070999991903020413004+62167+030650FM-12+010299999V0202701N002119999999N0000001N9-01001+99999099721ADDGF100991999999999999999999
0029227070999991903020420004+62167+030650FM-12+010299999V0209991C000019999999N0000001N9-01831+99999099741ADDGF108991999999999999999999
0029227070999991903020506004+62167+030650FM-12+010299999V0209991C000019999999N0000001N9-01061+99999099471ADDGF108991999999999999999999
0029227070999991903020513004+62167+030650FM-12+010299999V0202701N001019999999N0000001N9-00721+99999099601ADDGF108991999999999999999999
0035227070999991903020520004+62167+030650FM-12+010299999V0202301N002119999999N0000001N9-00221+99999099041ADDGF108991999999999999999999MW1721
0029227070999991903020606004+62167+030650FM-12+010299999V0202301N002119999999N0000001N9-00221+99999098741ADDGF108991999999999999999999
0029227070999991903020613004+62167+030650FM-12+010299999V0203201N008219999999N0000001N9+00061+99999099301ADDGF102991999999999999999999
0029227070999991903020620004+62167+030650FM-12+010299999V0209991C000019999999N0000001N9-00671+99999099421ADDGF100991999999999999999999
0029227070999991903020706004+62167+030650FM-12+010299999V0202701N001019999999N0000001N9-00561+99999099201ADDGF108991999999999999999999
0029227070999991903020713004+62167+030650FM-12+010299999V0201801N004119999999N0000001N9+00001+99999098641ADDGF108991999999999999999999
0029227070999991903020720004+62167+030650FM-12+010299999V0202301N004119999999N0000001N9+00331+99999098221ADDGF108991999999999999999999
0029227070999991903020806004+62167+030650FM-12+010299999V0201401N002119999999N0000001N9+00061+99999097391ADDGF108991999999999999999999
0035227070999991903020813004+62167+030650FM-12+010299999V0201401N005119999999N0000001N9+00001+99999095441ADDGF108991999999999999999999MW1721
0029227070999991903020820004+62167+030650FM-12+010299999V0203201N002119999999N0000001N9-00061+99999095161ADDGF108991999999999999999999
0029227070999991903020906004+62167+030650FM-12+010299999V0203201N005119999999N0000001N9-00111+99999095581ADDGF108991999999999999999999
0029227070999991903020913004+62167+030650FM-12+010299999V0203201N008219999999N0000001N9-00331+99999096381ADDGF108991999999999999999999
0029227070999991903020920004+62167+030650FM-12+010299999V0203201N015919999999N0000001N9-00061+99999097601ADDGF108991999999999999999999
0029227070999991903021006004+62167+030650FM-12+010299999V0203201N011819999999N0000001N9-00561+99999099621ADDGF107991999999999999999999
0029227070999991903021013004+62167+030650FM-12+010299999V0203201N008219999999N0000001N9-00441+99999100081ADDGF100991999999999999999999
0029227070999991903021020004+62167+030650FM-12+010299999V0209991C000019999999N0000001N9-00941+99999099431ADDGF100991999999999999999999
0029227070999991903021106004+62167+030650FM-12+010299999V0201401N002119999999N0000001N9-00331+99999096121ADDGF108991999999999999999999
0035227070999991903021113004+62167+030650FM-12+010299999V0202301N004119999999N0000001N9+00111+99999095591ADDGF108991999999999999999999MW1721
0029227070999991903021120004+62167+030650FM-12+010299999V0202301N004119999999N0000001N9+00001+99999095441ADDGF103991999999999999999999
0029227070999991903021206004+62167+030650FM-12+010299999V0209991C000019999999N0000001N9-00331+99999095421ADDGF108991999999999999999999
0029227070999991903021213004+62167+030650FM-12+010299999V0203601N004119999999N0000001N9+00441+99999096081ADDGF108991999999999999999999
0029227070999991903021220004+62167+030650FM-12+010299999V0203201N004119999999N0000001N9-00781+99999096741ADDGF108991999999999999999999
0029227070999991903021306004+62167+030650FM-12+010299999V0203201N008219999999N0000001N9-01501+99999097791ADDGF102991999999999999999999
0029227070999991903021313004+62167+030650FM-12+010299999V0203201N004119999999N0000001N9-01281+99999098111ADDGF100991999999999999999999
0029227070999991903021320004+62167+030650FM-12+010299999V0209991C000019999999N0000001N9-02061+99999098501ADDGF100991999999999999999999
0029227070999991903021406004+62167+030650FM-12+010299999V0209991C000019999999N0000001N9-02611+99999098281ADDGF101991999999999999999999
0029227070999991903021413004+62167+030650FM-12+010299999V0209991C000019999999N0000001N9-01781+99999098031ADDGF106991999999999999999999
0029227070999991903021420004+62167+030650FM-12+010299999V0209991C000019999999N0000001N9-02501+99999098111ADDGF100991999999999999999999
0029227070999991903021506004+62167+030650FM-12+010299999V0203201N002119999999N0000001N9-02111+99999097981ADDGF108991999999999999999999
0029227070999991903021513004+62167+030650FM-12+010299999V0203201N001019999999N0000001N9-01721+99999098151ADDGF108991999999999999999999
0029227070999991903021520004+62167+030650FM-12+010299999V0203201N002119999999N0000001N9-02061+99999098351ADDGF100991999999999999999999
0029227070999991903021606004+62167+030650FM-12+010299999V0203201N003119999999N0000001N9-02061+99999098681ADDGF108991999999999999999999
0029227070999991903021613004+62167+030650FM-12+010299999V0203201N006219999999N0000001N9-00721+99999099381ADDGF108991999999999999999999
0029227070999991903021620004+62167+030650FM-12+010299999V0203201N004119999999N0000001N9-01001+99999099751ADDGF100991999999999999999999
0029227070999991903021706004+62167+030650FM-12+010299999V0201401N003119999999N0000001N9-01281+99999098501ADDGF108991999999999999999999
0029227070999991903021713004+62167+030650FM-12+010299999V0203601N006219999999N0000001N9-01281+99999098911ADDGF108991999999999999999999
0029227070999991903021720004+62167+030650FM-12+010299999V0203601N002119999999N0000001N9-01441+99999100231ADDGF100991999999999999999999
0029227070999991903021806004+62167+030650FM-12+010299999V0209991C000019999999N0000001N9-02441+99999101241ADDGF100991999999999999999999
0029227070999991903021813004+62167+030650FM-12+010299999V0209991C000019999999N0000001N9-01331+99999101821ADDGF100991999999999999999999
0029227070999991903021820004+62167+030650FM-12+010299999V0203201N001019999999N0000001N9-02221+99999101581ADDGF100991999999999999999999
0029227070999991903021906004+62167+030650FM-12+010299999V0201401N004119999999N0000001N9-01111+99999100521ADDGF108991999999999999999999
0035227070999991903021913004+62167+030650FM-12+010299999V0201401N004119999999N0000001N9-00891+99999099471ADDGF108991999999999999999999MW1721
0029227070999991903021920004+62167+030650FM-12+010299999V0201401N002119999999N0000001N9-00671+99999099021ADDGF108991999999999999999999
0029227070999991903022006004+62167+030650FM-12+010299999V0201801N002119999999N0000001N9-00061+99999097961ADDGF108991999999999999999999
0029227070999991903022013004+62167+030650FM-12+010299999V0202301N002119999999N0000001N9+00221+99999097721ADDGF108991999999999999999999
0029227070999991903022020004+62167+030650FM-12+010299999V0209991C000019999999N0000001N9+00221+99999097431ADDGF108991999999999999999999
0029227070999991903022106004+62167+030650FM-12+010299999V0202701N002119999999N0000001N9-00221+99999098071ADDGF100991999999999999999999
0029227070999991903022113004+62167+030650FM-12+010299999V0202301N002119999999N0000001N9+00111+99999097551ADDGF107991999999999999999999
0029227070999991903022120004+62167+030650FM-12+010299999V0202301N004119999999N0000001N9+00001+99999096871ADDGF100991999999999999999999
0029227070999991903022206004+62167+030650FM-12+010299999V0202301N002119999999N0000001N9+00111+99999096481ADDGF108991999999999999999999
0029227070999991903022213004+62167+030650FM-12+010299999V0202301N002119999999N0000001N9+00171+99999096621ADDGF108991999999999999999999
0029227070999991903022220004+62167+030650FM-12+010299999V0202301N002119999999N0000001N9-00281+99999096831ADDGF100991999999999999999999
0029227070999991903022306004+62167+030650FM-12+010299999V0202301N004119999999N0000001N9+00061+99999096221ADDGF107991999999999999999999
0029227070999991903022313004+62167+030650FM-12+010299999V0202301N004119999999N0000001N9+00001+99999096941ADDGF101991999999999999999999
0029227070999991903022320004+62167+030650FM-12+010299999V0209991C000019999999N0000001N9-00331+99999096501ADDGF100991999999999999999999
0029227070999991903022406004+62167+030650FM-12+010299999V0209991C000019999999N0000001N9-01111+99999096711ADDGF102991999999999999999999
0029227070999991903022413004+62167+030650FM-12+010299999V0201401N002119999999N0000001N9-00441+99999097301ADDGF108991999999999999999999
0029227070999991903022420004+62167+030650FM-12+010299999V0203201N005119999999N0000001N9-00501+99999098161ADDGF100991999999999999999999
0029227070999991903022506004+62167+030650FM-12+010299999V0201401N002119999999N0000001N9-00831+99999099511ADDGF108991999999999999999999
0029227070999991903022513004+62167+030650FM-12+010299999V0200901N003119999999N0000001N9-00671+99999100231ADDGF106991999999999999999999
0029227070999991903022520004+62167+030650FM-12+010299999V0202701N001019999999N0000001N9-01781+99999100361ADDGF100991999999999999999999
0029227070999991903022606004+62167+030650FM-12+010299999V0202301N004119999999N0000001N9-00501+99999099601ADDGF108991999999999999999999
0029227070999991903022613004+62167+030650FM-12+010299999V0202301N003119999999N0000001N9-00221+99999099831ADDGF108991999999999999999999
0029227070999991903022620004+62167+030650FM-12+010299999V0202301N001019999999N0000001N9-00501+99999100341ADDGF100991999999999999999999
0029227070999991903022706004+62167+030650FM-12+010299999V0201401N002119999999N0000001N9-00061+99999099881ADDGF108991999999999999999999
0035227070999991903022713004+62167+030650FM-12+010299999V0201401N005119999999N0000001N9-00061+99999099281ADDGF108991999999999999999999MW1721
0035227070999991903022720004+62167+030650FM-12+010299999V0201401N002119999999N0000001N9+00061+99999099001ADDGF108991999999999999999999MW1721
0029227070999991903022806004+62167+030650FM-12+010299999V0201401N004119999999N0000001N9+00001+99999098741ADDGF108991999999999999999999
0035227070999991903022813004+62167+030650FM-12+010299999V0201401N004119999999N0000001N9+00111+99999098351ADDGF108991999999999999999999MW1721
0029227070999991903022820004+62167+030650FM-12+010299999V0201401N004119999999N0000001N9+00061+99999098081ADDGF108991999999999999999999
0029227070999991903030106004+62167+030650FM-12+010299999V0201401N002119999999N0000001N9+00061+99999097801ADDGF108991999999999999999999
0035227070999991903030113004+62167+030650FM-12+010299999V0201801N002119999999N0000001N9+00111+99999098101ADDGF108991999999999999999999MW1721
0029227070999991903030120004+62167+030650FM-12+010299999V0201801N002119999999N0000001N9+00061+99999098431ADDGF108991999999999999999999
0029227070999991903030206004+62167+030650FM-12+010299999V0203201N007219999999N0000001N9-00171+99999099311ADDGF108991999999999999999999
0029227070999991903030213004+62167+030650FM-12+010299999V0202301N002119999999N0000001N9+00061+99999099741ADDGF100991999999999999999999
0029227070999991903030220004+62167+030650FM-12+010299999V0209991C000019999999N0000001N9-00671+99999100081ADDGF100991999999999999999999
0029227070999991903030306004+62167+030650FM-12+010299999V0209991C000019999999N0000001N9-01171+99999100301ADDGF100991999999999999999999
0029227070999991903030313004+62167+030650FM-12+010299999V0201401N004119999999N0000001N9-00441+99999100481ADDGF100991999999999999999999
0029227070999991903030320004+62167+030650FM-12+010299999V0201401N004119999999N0000001N9-00501+99999100581ADDGF100991999999999999999999
0029227070999991903030406004+62167+030650FM-12+010299999V0201401N006219999999N0000001N9-00501+99999100911ADDGF107991999999999999999999
0029227070999991903030413004+62167+030650FM-12+010299999V0201401N004119999999N0000001N9-00171+99999100961ADDGF100991999999999999999999
0029227070999991903030420004+62167+030650FM-12+010299999V0201401N006219999999N0000001N9-00221+99999101161ADDGF108991999999999999999999
0029227070999991903030506004+62167+030650FM-12+010299999V0201401N008219999999N0000001N9-00111+99999100631ADDGF108991999999999999999999
0035227070999991903030513004+62167+030650FM-12+010299999V0201401N009819999999N0000001N9-00061+99999100281ADDGF108991999999999999999999MW1721
0029227070999991903030520004+62167+030650FM-12+010299999V0202301N002119999999N0000001N9+00061+99999100041ADDGF108991999999999999999999
0029227070999991903030606004+62167+030650FM-12+010299999V0201401N004119999999N0000001N9+00061+99999099641ADDGF100991999999999999999999
0029227070999991903030613004+62167+030650FM-12+010299999V0201401N002119999999N0000001N9+00061+99999099161ADDGF108991999999999999999999
0029227070999991903030620004+62167+030650FM-12+010299999V0201401N004119999999N0000001N9+00061+99999099551ADDGF100991999999999999999999
0029227070999991903030706004+62167+030650FM-12+010299999V0201801N002119999999N0000001N9-00171+99999100101ADDGF100991999999999999999999
0029227070999991903030713004+62167+030650FM-12+010299999V0201801N002119999999N0000001N9+00061+99999100241ADDGF106991999999999999999999
0029227070999991903030720004+62167+030650FM-12+010299999V0201801N002119999999N0000001N9-00061+99999100481ADDGF100991999999999999999999
0029227070999991903030806004+62167+030650FM-12+010299999V0201801N002119999999N0000001N9+00061+99999100751ADDGF100991999999999999999999
0029227070999991903030813004+62167+030650FM-12+010299999V0202301N002119999999N0000001N9+00221+99999100831ADDGF108991999999999999999999
0029227070999991903030820004+62167+030650FM-12+010299999V0209991C000019999999N0000001N9+00061+99999101511ADDGF108991999999999999999999
0029227070999991903030906004+62167+030650FM-12+010299999V0209991C000019999999N0000001N9-00441+99999101951ADDGF108991999999999999999999
0029227070999991903030913004+62167+030650FM-12+010299999V0202301N002119999999N0000001N9+00061+99999102201ADDGF107991999999999999999999
0029227070999991903030920004+62167+030650FM-12+010299999V0202301N002119999999N0000001N9+00061+99999102191ADDGF100991999999999999999999
0029227070999991903031006004+62167+030650FM-12+010299999V0202301N003119999999N0000001N9-00111+99999102271ADDGF102991999999999999999999
0029227070999991903031013004+62167+030650FM-12+010299999V0201801N002119999999N0000001N9-00441+99999102201ADDGF108991999999999999999999
0029227070999991903031020004+62167+030650FM-12+010299999V0201801N002119999999N0000001N9-00441+99999102041ADDGF108991999999999999999999
0029227070999991903031106004+62167+030650FM-12+010299999V0201401N001019999999N0000001N9-00671+99999101921ADDGF105991999999999999999999
0029227070999991903031113004+62167+030650FM-12+010299999V0201801N002119999999N0000001N9-00441+99999101841ADDGF106991999999999999999999
0029227070999991903031120004+62167+030650FM-12+010299999V0202301N004119999999N0000001N9-00221+99999101831ADDGF100991999999999999999999
0029227070999991903031206004+62167+030650FM-12+010299999V0202301N004119999999N0000001N9-00331+99999101641ADDGF108991999999999999999999
0029227070999991903031213004+62167+030650FM-12+010299999V0202301N005119999999N0000001N9-00171+99999101711ADDGF103991999999999999999999
0029227070999991903031220004+62167+030650FM-12+010299999V0201801N002119999999N0000001N9-00221+99999101951ADDGF100991999999999999999999
0029227070999991903031306004+62167+030650FM-12+010299999V0202301N004119999999N0000001N9-00331+99999102001ADDGF108991999999999999999999
0029227070999991903031313004+62167+030650FM-12+010299999V0202301N004119999999N0000001N9-00061+99999101991ADDGF100991999999999999999999
0029227070999991903031320004+62167+030650FM-12+010299999V0202301N002119999999N0000001N9-00111+99999102061ADDGF100991999999999999999999
0029227070999991903031406004+62167+030650FM-12+010299999V0202301N001019999999N0000001N9-00781+99999102261ADDGF100991999999999999999999
0029227070999991903031413004+62167+030650FM-12+010299999V0201401N002119999999N0000001N9-00391+99999102311ADDGF107991999999999999999999
0029227070999991903031420004+62167+030650FM-12+010299999V0201401N002119999999N0000001N9-00501+99999102221ADDGF108991999999999999999999
0029227070999991903031506004+62167+030650FM-12+010299999V0201801N002119999999N0000001N9-00561+99999102431ADDGF100991999999999999999999
0029227070999991903031513004+62167+030650FM-12+010299999V0201401N002119999999N0000001N9+00001+99999102591ADDGF108991999999999999999999
0029227070999991903031520004+62167+030650FM-12+010299999V0201401N002119999999N0000001N9-00221+99999102721ADDGF100991999999999999999999
0029227070999991903031606004+62167+030650FM-12+010299999V0201401N002119999999N0000001N9-00501+99999102801ADDGF108991999999999999999999
0029227070999991903031613004+62167+030650FM-12+010299999V0201401N002119999999N0000001N9+00171+99999102901ADDGF108991999999999999999999
0029227070999991903031620004+62167+030650FM-12+010299999V0201401N002119999999N0000001N9-00781+99999103021ADDGF100991999999999999999999
0029227070999991903031706004+62167+030650FM-12+010299999V0201401N002119999999N0000001N9-01221+99999102821ADDGF100991999999999999999999
0029227070999991903031713004+62167+030650FM-12+010299999V0201401N004119999999N0000001N9-00061+99999102721ADDGF105991999999999999999999
0029227070999991903031720004+62167+030650FM-12+010299999V0201401N005119999999N0000001N9-00671+99999102641ADDGF100991999999999999999999
0029227070999991903031806004+62167+030650FM-12+010299999V0201401N002119999999N0000001N9-01061+99999102721ADDGF100991999999999999999999
0029227070999991903031813004+62167+030650FM-12+010299999V0201401N008219999999N0000001N9-00391+99999102521ADDGF108991999999999999999999
0029227070999991903031820004+62167+030650FM-12+010299999V0201401N009819999999N0000001N9-00671+99999102401ADDGF100991999999999999999999
0029227070999991903031906004+62167+030650FM-12+010299999V0201401N010819999999N0000001N9-01001+99999102111ADDGF108991999999999999999999
0035227070999991903031913004+62167+030650FM-12+010299999V0201401N009819999999N0000001N9-01061+99999101831ADDGF108991999999999999999999MW1721
0029227070999991903031920004+62167+030650FM-12+010299999V0201401N015919999999N0000001N9-00941+99999101661ADDGF108991999999999999999999
0029227070999991903032006004+62167+030650FM-12+010299999V0200901N011819999999N0000001N9-00671+99999101161ADDGF100991999999999999999999
0029227070999991903032013004+62167+030650FM-12+010299999V0200901N009819999999N0000001N9-00501+99999100911ADDGF108991999999999999999999
0029227070999991903032020004+62167+030650FM-12+010299999V0200901N020119999999N0000001N9-00561+99999100231ADDGF100991999999999999999999
0029227070999991903032106004+62167+030650FM-12+010299999V0201801N002119999999N0000001N9+00171+99999099301ADDGF106991999999999999999999
0035227070999991903032113004+62167+030650FM-12+010299999V0202301N002119999999N0000001N9+00331+99999099621ADDGF108991999999999999999999MW1721
0035227070999991903032120004+62167+030650FM-12+010299999V0202301N002119999999N0000001N9+00001+99999099961ADDGF108991999999999999999999MW1721
0029227070999991903032206004+62167+030650FM-12+010299999V0202301N002119999999N0000001N9-00561+99999099901ADDGF105991999999999999999999
0029227070999991903032213004+62167+030650FM-12+010299999V0202301N003119999999N0000001N9+00001+99999099231ADDGF108991999999999999999999
0029227070999991903032220004+62167+030650FM-12+010299999V0202301N004119999999N0000001N9+00171+99999098231ADDGF108991999999999999999999
0029227070999991903032306004+62167+030650FM-12+010299999V0202301N003119999999N0000001N9+00281+99999097941ADDGF106991999999999999999999
0029227070999991903032313004+62167+030650FM-12+010299999V0202301N005119999999N0000001N9+00611+99999097941ADDGF108991999999999999999999
0029227070999991903032320004+62167+030650FM-12+010299999V0202301N006219999999N0000001N9+00281+99999098221ADDGF108991999999999999999999
0029227070999991903032406004+62167+030650FM-12+010299999V0200901N005119999999N0000001N9+00061+99999097681ADDGF100991999999999999999999
0029227070999991903032413004+62167+030650FM-12+010299999V0200901N008219999999N0000001N9+00671+99999097191ADDGF100991999999999999999999
0029227070999991903032420004+62167+030650FM-12+010299999V0200901N009819999999N0000001N9+00281+99999096901ADDGF100991999999999999999999
0029227070999991903032506004+62167+030650FM-12+010299999V0203201N002119999999N0000001N9-00391+99999098001ADDGF105991999999999999999999
0029227070999991903032513004+62167+030650FM-12+010299999V0203601N004119999999N0000001N9-00331+99999099421ADDGF108991999999999999999999
0029227070999991903032520004+62167+030650FM-12+010299999V0203601N004119999999N0000001N9-00941+99999100381ADDGF108991999999999999999999
0029227070999991903032606004+62167+030650FM-12+010299999V0203601N002119999999N0000001N9-01671+99999101361ADDGF107991999999999999999999
0029227070999991903032613004+62167+030650FM-12+010299999V0201401N004119999999N0000001N9-00331+99999101341ADDGF108991999999999999999999
0029227070999991903032620004+62167+030650FM-12+010299999V0201401N006219999999N0000001N9-00391+99999100741ADDGF100991999999999999999999
0029227070999991903032706004+62167+030650FM-12+010299999V0201401N005119999999N0000001N9+00111+99999099711ADDGF100991999999999999999999
0029227070999991903032713004+62167+030650FM-12+010299999V0201801N004119999999N0000001N9-00611+99999099391ADDGF108991999999999999999999
0029227070999991903032720004+62167+030650FM-12+010299999V0201801N001019999999N0000001N9+00331+99999099701ADDGF100991999999999999999999
0029227070999991903032806004+62167+030650FM-12+010299999V0201801N003119999999N0000001N9+00671+99999099071ADDGF108991999999999999999999
0029227070999991903032813004+62167+030650FM-12+010299999V0201401N006219999999N0000001N9+00391+99999098881ADDGF108991999999999999999999
0029227070999991903032820004+62167+030650FM-12+010299999V0202301N002119999999N0000001N9+00331+99999098501ADDGF100991999999999999999999
0029227070999991903032906004+62167+030650FM-12+010299999V0202301N004119999999N0000001N9+00171+99999099431ADDGF100991999999999999999999
0029227070999991903032913004+62167+030650FM-12+010299999V0201401N006219999999N0000001N9+00561+99999098621ADDGF108991999999999999999999
0029227070999991903032920004+62167+030650FM-12+010299999V0202301N009819999999N0000001N9+00441+99999098261ADDGF108991999999999999999999
0029227070999991903033006004+62167+030650FM-12+010299999V0201401N008219999999N0000001N9+00281+99999098061ADDGF108991999999999999999999
0029227070999991903033013004+62167+030650FM-12+010299999V0201401N006219999999N0000001N9+00501+99999098441ADDGF108991999999999999999999
0029227070999991903033020004+62167+030650FM-12+010299999V0202301N002119999999N0000001N9+00441+99999098871ADDGF100991999999999999999999
0029227070999991903033106004+62167+030650FM-12+010299999V0203601N002119999999N0000001N9-00171+99999099831ADDGF101991999999999999999999
0029227070999991903033113004+62167+030650FM-12+010299999V0203601N001019999999N0000001N9+00171+99999100181ADDGF107991999999999999999999
0029227070999991903033120004+62167+030650FM-12+010299999V0203601N002119999999N0000001N9-00111+99999100471ADDGF100991999999999999999999
0029227070999991903040106004+62167+030650FM-12+010299999V0203601N002119999999N0000001N9-00671+99999100681ADDGF101991999999999999999999
0029227070999991903040113004+62167+030650FM-12+010299999V0203601N003119999999N0000001N9-00281+99999100401ADDGF103991999999999999999999
0029227070999991903040120004+62167+030650FM-12+010299999V0203601N004119999999N0000001N9-00561+99999100351ADDGF101991999999999999999999
0029227070999991903040206004+62167+030650FM-12+010299999V0200501N004119999999N0000001N9-00781+99999100221ADDGF105991999999999999999999
0029227070999991903040213004+62167+030650FM-12+010299999V0200501N004119999999N0000001N9-00111+99999100081ADDGF106991999999999999999999
0029227070999991903040220004+62167+030650FM-12+010299999V0200501N002119999999N0000001N9-00501+99999100231ADDGF100991999999999999999999
0029227070999991903040306004+62167+030650FM-12+010299999V0200501N005119999999N0000001N9-00781+99999100071ADDGF100991999999999999999999
0029227070999991903040313004+62167+030650FM-12+010299999V0200501N008219999999N0000001N9-00171+99999100041ADDGF100991999999999999999999
0029227070999991903040320004+62167+030650FM-12+010299999V0200501N020119999999N0000001N9-00561+99999099541ADDGF108991999999999999999999
0035227070999991903040406004+62167+030650FM-12+010299999V0200501N006219999999N0000001N9-00561+99999098831ADDGF108991999999999999999999MW1721
0029227070999991903040413004+62167+030650FM-12+010299999V0200501N002119999999N0000001N9-00061+99999098751ADDGF108991999999999999999999
0029227070999991903040420004+62167+030650FM-12+010299999V0209991C000019999999N0000001N9-00221+99999098921ADDGF100991999999999999999999
0029227070999991903040506004+62167+030650FM-12+010299999V0200501N002119999999N0000001N9-00391+99999099041ADDGF108991999999999999999999
0029227070999991903040513004+62167+030650FM-12+010299999V0200901N001019999999N0000001N9-00061+99999099351ADDGF108991999999999999999999
0029227070999991903040520004+62167+030650FM-12+010299999V0200901N002119999999N0000001N9-00501+99999099711ADDGF100991999999999999999999
0029227070999991903040606004+62167+030650FM-12+010299999V0201401N001019999999N0000001N9-01061+99999100081ADDGF105991999999999999999999
0029227070999991903040613004+62167+030650FM-12+010299999V0201401N004119999999N0000001N9+00221+99999999999ADDGF108991999999999999999999
0035227070999991903040620004+62167+030650FM-12+010299999V0201401N002119999999N0000001N9+00061+99999099821ADDGF108991999999999999999999MW1721
0035227070999991903040706004+62167+030650FM-12+010299999V0201401N002119999999N0000001N9+00001+99999099161ADDGF108991999999999999999999MW1691
0029227070999991903040713004+62167+030650FM-12+010299999V0202301N002119999999N0000001N9+00331+99999098751ADDGF108991999999999999999999
0029227070999991903040720004+62167+030650FM-12+010299999V0209991C000019999999N0000001N9+00001+99999099281ADDGF100991999999999999999999
0029227070999991903040806004+62167+030650FM-12+010299999V0200901N006219999999N0000001N9+00061+99999099201ADDGF108991999999999999999999
0029227070999991903040813004+62167+030650FM-12+010299999V0200901N002119999999N0000001N9+00221+99999099601ADDGF108991999999999999999999
0029227070999991903040820004+62167+030650FM-12+010299999V0201401N001019999999N0000001N9+00221+99999099821ADDGF108991999999999999999999
0029227070999991903040906004+62167+030650FM-12+010299999V0203601N002119999999N0000001N9+00331+99999099941ADDGF105991999999999999999999
0029227070999991903040913004+62167+030650FM-12+010299999V0200501N004119999999N0000001N9+00611+99999100221ADDGF107991999999999999999999
0029227070999991903040920004+62167+030650FM-12+010299999V0203601N004119999999N0000001N9+00221+99999100441ADDGF108991999999999999999999
0029227070999991903041006004+62167+030650FM-12+010299999V0203201N002119999999N0000001N9+00221+99999099961ADDGF108991999999999999999999
0029227070999991903041013004+62167+030650FM-12+010299999V0202701N004119999999N0000001N9+00391+99999100101ADDGF106991999999999999999999
0029227070999991903041020004+62167+030650FM-12+010299999V0209991C000019999999N0000001N9+00171+99999100821ADDGF100991999999999999999999
0029227070999991903041106004+62167+030650FM-12+010299999V0201401N001019999999N0000001N9+00001+99999101471ADDGF101991999999999999999999
0029227070999991903041113004+62167+030650FM-12+010299999V0201401N003119999999N0000001N9+00061+99999101161ADDGF108991999999999999999999
0029227070999991903041120004+62167+030650FM-12+010299999V0201401N004119999999N0000001N9+00061+99999100621ADDGF108991999999999999999999
0029227070999991903041206004+62167+030650FM-12+010299999V0201401N005119999999N0000001N9+00111+99999100071ADDGF103991999999999999999999
0029227070999991903041213004+62167+030650FM-12+010299999V0201401N006219999999N0000001N9+00831+99999099671ADDGF100991999999999999999999
0029227070999991903041220004+62167+030650FM-12+010299999V0201401N008219999999N0000001N9+00501+99999099801ADDGF108991999999999999999999
0029227070999991903041306004+62167+030650FM-12+010299999V0201401N004119999999N0000001N9+00501+99999099401ADDGF105991999999999999999999
0029227070999991903041313004+62167+030650FM-12+010299999V0201401N004119999999N0000001N9+01061+99999099301ADDGF103991999999999999999999
0029227070999991903041320004+62167+030650FM-12+010299999V0201401N006219999999N0000001N9+00611+99999098721ADDGF100991999999999999999999
0029227070999991903041406004+62167+030650FM-12+010299999V0201401N006219999999N0000001N9+00671+99999098341ADDGF104991999999999999999999
0029227070999991903041413004+62167+030650FM-12+010299999V0202301N008219999999N0000001N9+00391+99999098901ADDGF108991999999999999999999
0029227070999991903041420004+62167+030650FM-12+010299999V0201801N009819999999N0000001N9+00061+99999099671ADDGF100991999999999999999999
0029227070999991903041506004+62167+030650FM-12+010299999V0201401N004119999999N0000001N9+00061+99999099841ADDGF108991999999999999999999
0029227070999991903041513004+62167+030650FM-12+010299999V0200901N006219999999N0000001N9+00501+99999099551ADDGF105991999999999999999999
0029227070999991903041520004+62167+030650FM-12+010299999V0200901N008219999999N0000001N9+00001+99999099621ADDGF100991999999999999999999
0029227070999991903041606004+62167+030650FM-12+010299999V0200901N004119999999N0000001N9-00061+99999099711ADDGF108991999999999999999999
0029227070999991903041613004+62167+030650FM-12+010299999V0201801N002119999999N0000001N9+00331+99999099801ADDGF106991999999999999999999
0029227070999991903041620004+62167+030650FM-12+010299999V0201801N004119999999N0000001N9+00111+99999099751ADDGF105991999999999999999999
0029227070999991903041706004+62167+030650FM-12+010299999V0200501N004119999999N0000001N9+00171+99999099761ADDGF107991999999999999999999
0035227070999991903041713004+62167+030650FM-12+010299999V0201401N005119999999N0000001N9+00281+99999099741ADDGF108991999999999999999999MW1691
0029227070999991903041720004+62167+030650FM-12+010299999V0201401N006219999999N0000001N9+00111+99999099951ADDGF108991999999999999999999
0029227070999991903041806004+62167+030650FM-12+010299999V0201801N002119999999N0000001N9-00061+99999100751ADDGF108991999999999999999999
0029227070999991903041813004+62167+030650FM-12+010299999V0201401N004119999999N0000001N9+00611+99999101121ADDGF105991999999999999999999
0029227070999991903041820004+62167+030650FM-12+010299999V0201401N002119999999N0000001N9+00111+99999100991ADDGF100991999999999999999999
0029227070999991903041906004+62167+030650FM-12+010299999V0200501N004119999999N0000001N9+00281+99999100631ADDGF102991999999999999999999
0029227070999991903041913004+62167+030650FM-12+010299999V0200501N004119999999N0000001N9+00781+99999100081ADDGF108991999999999999999999
0029227070999991903041920004+62167+030650FM-12+010299999V0200501N004119999999N0000001N9+00611+99999099551ADDGF100991999999999999999999
0029227070999991903042006004+62167+030650FM-12+010299999V0200501N004119999999N0000001N9+00561+99999099111ADDGF107991999999999999999999
0029227070999991903042013004+62167+030650FM-12+010299999V0200501N004119999999N0000001N9+00781+99999099271ADDGF102991999999999999999999
0029227070999991903042020004+62167+030650FM-12+010299999V0200501N006219999999N0000001N9+00441+99999099551ADDGF100991999999999999999999
0029227070999991903042106004+62167+030650FM-12+010299999V0200901N002119999999N0000001N9+00281+99999099311ADDGF101991999999999999999999
0029227070999991903042113004+62167+030650FM-12+010299999V0200901N006219999999N0000001N9+00831+99999098841ADDGF106991999999999999999999
0029227070999991903042120004+62167+030650FM-12+010299999V0200901N006219999999N0000001N9+00111+99999098761ADDGF100991999999999999999999
0029227070999991903042206004+62167+030650FM-12+010299999V0201401N004119999999N0000001N9+00171+99999099001ADDGF107991999999999999999999
0035227070999991903042213004+62167+030650FM-12+010299999V0201401N006219999999N0000001N9+00281+99999099181ADDGF108991999999999999999999MW1621
0029227070999991903042220004+62167+030650FM-12+010299999V0201401N004119999999N0000001N9+00111+99999099581ADDGF103991999999999999999999
0029227070999991903042306004+62167+030650FM-12+010299999V0201401N004119999999N0000001N9+00221+99999099901ADDGF105991999999999999999999
0029227070999991903042313004+62167+030650FM-12+010299999V0201401N004119999999N0000001N9+00331+99999099961ADDGF108991999999999999999999
0029227070999991903042320004+62167+030650FM-12+010299999V0201401N005119999999N0000001N9+00111+99999100351ADDGF100991999999999999999999
0029227070999991903042406004+62167+030650FM-12+010299999V0200901N004119999999N0000001N9+00061+99999100901ADDGF108991999999999999999999
0029227070999991903042413004+62167+030650FM-12+010299999V0200901N005119999999N0000001N9+00611+99999100751ADDGF108991999999999999999999
0029227070999991903042420004+62167+030650FM-12+010299999V0200501N004119999999N0000001N9+00441+99999100591ADDGF103991999999999999999999
0029227070999991903042506004+62167+030650FM-12+010299999V0200501N002119999999N0000001N9+00671+99999100861ADDGF100991999999999999999999
0029227070999991903042513004+62167+030650FM-12+010299999V0200501N002119999999N0000001N9+01561+99999101041ADDGF100991999999999999999999
0029227070999991903042520004+62167+030650FM-12+010299999V0200501N001019999999N0000001N9+01171+99999101221ADDGF106991999999999999999999
0029227070999991903042606004+62167+030650FM-12+010299999V0203601N001019999999N0000001N9+01171+99999101111ADDGF100991999999999999999999
0029227070999991903042613004+62167+030650FM-12+010299999V0200501N002119999999N0000001N9+01721+99999101221ADDGF100991999999999999999999
0029227070999991903042620004+62167+030650FM-12+010299999V0200501N002119999999N0000001N9+01221+99999101111ADDGF100991999999999999999999
0029227070999991903042706004+62167+030650FM-12+010299999V0200901N001019999999N0000001N9+00781+99999100901ADDGF100991999999999999999999
0029227070999991903042713004+62167+030650FM-12+010299999V0209991C000019999999N0000001N9+01781+99999100701ADDGF106991999999999999999999
0029227070999991903042720004+62167+030650FM-12+010299999V0201401N002119999999N0000001N9+00831+99999100801ADDGF103991999999999999999999
0029227070999991903042806004+62167+030650FM-12+010299999V0201401N002119999999N0000001N9+01171+99999100881ADDGF106991999999999999999999
0029227070999991903042813004+62167+030650FM-12+010299999V0201801N002119999999N0000001N9+01611+99999100861ADDGF107991999999999999999999
0029227070999991903042820004+62167+030650FM-12+010299999V0201801N002119999999N0000001N9+01221+99999100951ADDGF100991999999999999999999
0029227070999991903042906004+62167+030650FM-12+010299999V0209991C000019999999N0000001N9+00941+99999100981ADDGF102991999999999999999999
0029227070999991903042913004+62167+030650FM-12+010299999V0201401N004119999999N0000001N9+02001+99999100781ADDGF106991999999999999999999
0029227070999991903042920004+62167+030650FM-12+010299999V0201401N002119999999N0000001N9+01171+99999100721ADDGF106991999999999999999999
0029227070999991903043006004+62167+030650FM-12+010299999V0201401N004119999999N0000001N9+01171+99999100351ADDGF100991999999999999999999
0029227070999991903043013004+62167+030650FM-12+010299999V0201401N006219999999N0000001N9+01781+99999100041ADDGF103991999999999999999999
0029227070999991903043020004+62167+030650FM-12+010299999V0201401N002119999999N0000001N9+00941+99999099751ADDGF100991999999999999999999
0029227070999991903050106004+62167+030650FM-12+010299999V0201401N002119999999N0000001N9+00831+99999099471ADDGF107991999999999999999999
0029227070999991903050113004+62167+030650FM-12+010299999V0203601N002119999999N0000001N9+01111+99999099501ADDGF108991999999999999999999
0029227070999991903050120004+62167+030650FM-12+010299999V0200501N006219999999N0000001N9+00061+99999099831ADDGF108991999999999999999999
0029227070999991903050206004+62167+030650FM-12+010299999V0200501N008219999999N0000001N9+00001+99999100641ADDGF108991999999999999999999
0029227070999991903050213004+62167+030650FM-12+010299999V0200501N006219999999N0000001N9+00781+99999100621ADDGF100991999999999999999999
0029227070999991903050220004+62167+030650FM-12+010299999V0200501N008219999999N0000001N9+00111+99999100671ADDGF103991999999999999999999
0029227070999991903050306004+62167+030650FM-12+010299999V0200501N004119999999N0000001N9+00111+99999100711ADDGF100991999999999999999999
0029227070999991903050313004+62167+030650FM-12+010299999V0200501N004119999999N0000001N9+01061+99999100561ADDGF100991999999999999999999
0029227070999991903050320004+62167+030650FM-12+010299999V0200501N002119999999N0000001N9+00441+99999100751ADDGF100991999999999999999999
0029227070999991903050406004+62167+030650FM-12+010299999V0201401N004119999999N0000001N9+00221+99999100461ADDGF100991999999999999999999
0029227070999991903050413004+62167+030650FM-12+010299999V0201401N008219999999N0000001N9+00671+99999100111ADDGF107991999999999999999999
0029227070999991903050420004+62167+030650FM-12+010299999V0201401N006219999999N0000001N9+00281+99999099981ADDGF108991999999999999999999
0029227070999991903050506004+62167+030650FM-12+010299999V0201401N004119999999N0000001N9+00391+99999099831ADDGF108991999999999999999999
0029227070999991903050513004+62167+030650FM-12+010299999V0203601N005119999999N0000001N9+00721+99999100041ADDGF108991999999999999999999
0029227070999991903050520004+62167+030650FM-12+010299999V0203601N004119999999N0000001N9+00501+99999100241ADDGF100991999999999999999999
0029227070999991903050606004+62167+030650FM-12+010299999V0203601N002119999999N0000001N9+00061+99999100221ADDGF108991999999999999999999
0029227070999991903050613004+62167+030650FM-12+010299999V0200501N004119999999N0000001N9+00281+99999099881ADDGF107991999999999999999999
0029227070999991903050620004+62167+030650FM-12+010299999V0200501N006219999999N0000001N9+00171+99999099741ADDGF100991999999999999999999
0029227070999991903050706004+62167+030650FM-12+010299999V0200501N004119999999N0000001N9+00061+99999099311ADDGF108991999999999999999999
0035227070999991903050713004+62167+030650FM-12+010299999V0200501N006219999999N0000001N9+00281+99999099551ADDGF108991999999999999999999MW1621
0029227070999991903050720004+62167+030650FM-12+010299999V0200501N004119999999N0000001N9+00061+99999099951ADDGF108991999999999999999999
0029227070999991903050806004+62167+030650FM-12+010299999V0209991C000019999999N0000001N9+00111+99999100221ADDGF100991999999999999999999
0029227070999991903050813004+62167+030650FM-12+010299999V0203601N004119999999N0000001N9+00561+99999100421ADDGF105991999999999999999999
0029227070999991903050820004+62167+030650FM-12+010299999V0200501N005119999999N0000001N9-00061+99999100861ADDGF100991999999999999999999
0029227070999991903050906004+62167+030650FM-12+010299999V0200501N002119999999N0000001N9+00001+99999101151ADDGF100991999999999999999999
0029227070999991903050913004+62167+030650FM-12+010299999V0203601N004119999999N0000001N9+00441+99999101241ADDGF100991999999999999999999
0029227070999991903050920004+62167+030650FM-12+010299999V0203601N002119999999N0000001N9-00061+99999100881ADDGF100991999999999999999999
0029227070999991903051006004+62167+030650FM-12+010299999V0201401N004119999999N0000001N9-00061+99999101231ADDGF100991999999999999999999
0029227070999991903051013004+62167+030650FM-12+010299999V0201401N005119999999N0000001N9+00561+99999100941ADDGF105991999999999999999999
0029227070999991903051020004+62167+030650FM-12+010299999V0201401N004119999999N0000001N9+00061+99999100991ADDGF100991999999999999999999
0029227070999991903051106004+62167+030650FM-12+010299999V0200901N002119999999N0000001N9+00221+99999100511ADDGF100991999999999999999999
0029227070999991903051113004+62167+030650FM-12+010299999V0200901N004119999999N0000001N9+00941+99999100361ADDGF100991999999999999999999
0029227070999991903051120004+62167+030650FM-12+010299999V0200901N002119999999N0000001N9+00171+99999100271ADDGF100991999999999999999999
0029227070999991903051206004+62167+030650FM-12+010299999V0200901N002119999999N0000001N9+00561+99999099831ADDGF103991999999999999999999
0029227070999991903051213004+62167+030650FM-12+010299999V0201401N003119999999N0000001N9+00941+99999099641ADDGF106991999999999999999999
0029227070999991903051220004+62167+030650FM-12+010299999V0201801N002119999999N0000001N9+00501+99999099431ADDGF108991999999999999999999
0029227070999991903051306004+62167+030650FM-12+010299999V0201801N003119999999N0000001N9+00391+99999099181ADDGF107991999999999999999999
0029227070999991903051313004+62167+030650FM-12+010299999V0202301N004119999999N0000001N9+00781+99999099431ADDGF107991999999999999999999
0029227070999991903051320004+62167+030650FM-12+010299999V0201401N002119999999N0000001N9+00611+99999099341ADDGF107991999999999999999999
0029227070999991903051406004+62167+030650FM-12+010299999V0201401N002119999999N0000001N9+00501+99999099361ADDGF107991999999999999999999
0029227070999991903051413004+62167+030650FM-12+010299999V0201401N002119999999N0000001N9+00831+99999099421ADDGF106991999999999999999999
0029227070999991903051420004+62167+030650FM-12+010299999V0201401N002119999999N0000001N9+00611+99999099541ADDGF108991999999999999999999
0029227070999991903051506004+62167+030650FM-12+010299999V0201401N002119999999N0000001N9+00501+99999099361ADDGF106991999999999999999999
0029227070999991903051513004+62167+030650FM-12+010299999V0203201N002119999999N0000001N9+01171+99999099481ADDGF106991999999999999999999
0029227070999991903051520004+62167+030650FM-12+010299999V0203201N002119999999N0000001N9+01001+99999099631ADDGF103991999999999999999999
0029227070999991903051606004+62167+030650FM-12+010299999V0203201N002119999999N0000001N9+00831+99999099841ADDGF100991999999999999999999
0029227070999991903051613004+62167+030650FM-12+010299999V0201401N002119999999N0000001N9+01221+99999099701ADDGF108991999999999999999999
0029227070999991903051620004+62167+030650FM-12+010299999V0201401N002119999999N0000001N9+00611+99999099431ADDGF108991999999999999999999
0029227070999991903051706004+62167+030650FM-12+010299999V0201401N002119999999N0000001N9+00831+99999099301ADDGF101991999999999999999999
0029227070999991903051713004+62167+030650FM-12+010299999V0202701N008219999999N0000001N9+01171+99999099101ADDGF107991999999999999999999
0029227070999991903051720004+62167+030650FM-12+010299999V0202301N004119999999N0000001N9+00611+99999099151ADDGF100991999999999999999999
0029227070999991903051806004+62167+030650FM-12+010299999V0202301N002119999999N0000001N9+00721+99999099551ADDGF100991999999999999999999
0029227070999991903051813004+62167+030650FM-12+010299999V0201401N004119999999N0000001N9+01441+99999099631ADDGF100991999999999999999999
0029227070999991903051820004+62167+030650FM-12+010299999V0201401N002119999999N0000001N9+00721+99999099781ADDGF106991999999999999999999
0029227070999991903051906004+62167+030650FM-12+010299999V0201401N004119999999N0000001N9+00721+99999099521ADDGF108991999999999999999999
0035227070999991903051913004+62167+030650FM-12+010299999V0201401N004119999999N0000001N9+00831+99999099201ADDGF108991999999999999999999MW1621
0029227070999991903051920004+62167+030650FM-12+010299999V0201401N001019999999N0000001N9+01061+99999099401ADDGF107991999999999999999999
0029227070999991903052006004+62167+030650FM-12+010299999V0201401N002119999999N0000001N9+00781+99999100061ADDGF107991999999999999999999
0035227070999991903052013004+62167+030650FM-12+010299999V0203201N001019999999N0000001N9+01061+99999100071ADDGF106991999999999999999999MW1621
0029227070999991903052020004+62167+030650FM-12+010299999V0209991C000019999999N0000001N9+01001+99999100161ADDGF107991999999999999999999
0029227070999991903052106004+62167+030650FM-12+010299999V0200901N002119999999N0000001N9+01221+99999100201ADDGF108991999999999999999999
0035227070999991903052113004+62167+030650FM-12+010299999V0200901N002119999999N0000001N9+01331+99999100231ADDGF107991999999999999999999MW1621
0029227070999991903052120004+62167+030650FM-12+010299999V0200901N002119999999N0000001N9+01111+99999100471ADDGF108991999999999999999999
0029227070999991903052206004+62167+030650FM-12+010299999V0203601N002119999999N0000001N9+01281+99999100791ADDGF107991999999999999999999
0035227070999991903052213004+62167+030650FM-12+010299999V0200501N002119999999N0000001N9+01721+99999101021ADDGF107991999999999999999999MW1621
0029227070999991903052220004+62167+030650FM-12+010299999V0209991C000019999999N0000001N9+01281+99999101381ADDGF103991999999999999999999
0029227070999991903052306004+62167+030650FM-12+010299999V0203601N002119999999N0000001N9+01331+99999101561ADDGF100991999999999999999999
0029227070999991903052313004+62167+030650FM-12+010299999V0202701N002119999999N0000001N9+02171+99999101621ADDGF103991999999999999999999
0029227070999991903052320004+62167+030650FM-12+010299999V0202701N002119999999N0000001N9+01501+99999101521ADDGF104991999999999999999999
0029227070999991903052406004+62167+030650FM-12+010299999V0209991C000019999999N0000001N9+01671+99999101681ADDGF100991999999999999999999
0029227070999991903052413004+62167+030650FM-12+010299999V0201401N002119999999N0000001N9+02671+99999101721ADDGF106991999999999999999999
0029227070999991903052420004+62167+030650FM-12+010299999V0202301N002119999999N0000001N9+01721+99999101581ADDGF102991999999999999999999
0029227070999991903052506004+62167+030650FM-12+010299999V0200501N002119999999N0000001N9+00561+99999101911ADDGF101991999999999999999999
0029227070999991903052513004+62167+030650FM-12+010299999V0200501N002119999999N0000001N9+02891+99999101781ADDGF102991999999999999999999
0029227070999991903052520004+62167+030650FM-12+010299999V0200501N002119999999N0000001N9+01891+99999101751ADDGF107991999999999999999999
0029227070999991903052606004+62167+030650FM-12+010299999V0201401N002119999999N0000001N9+01561+99999101741ADDGF103991999999999999999999
0029227070999991903052613004+62167+030650FM-12+010299999V0201801N002119999999N0000001N9+02171+99999101501ADDGF106991999999999999999999
0029227070999991903052620004+62167+030650FM-12+010299999V0201801N001019999999N0000001N9+01331+99999101471ADDGF107991999999999999999999
0029227070999991903052706004+62167+030650FM-12+010299999V0203601N005119999999N0000001N9+01281+99999101711ADDGF102991999999999999999999
0029227070999991903052713004+62167+030650FM-12+010299999V0203201N006219999999N0000001N9+01611+99999102021ADDGF107991999999999999999999
0029227070999991903052720004+62167+030650FM-12+010299999V0203201N002119999999N0000001N9+01221+99999102021ADDGF100991999999999999999999
0029227070999991903052806004+62167+030650FM-12+010299999V0203601N002119999999N0000001N9+01331+99999102151ADDGF100991999999999999999999
0029227070999991903052813004+62167+030650FM-12+010299999V0202701N003119999999N0000001N9+02171+99999101831ADDGF100991999999999999999999
0029227070999991903052820004+62167+030650FM-12+010299999V0202301N002119999999N0000001N9+01501+99999101621ADDGF100991999999999999999999
0029227070999991903052906004+62167+030650FM-12+010299999V0209991C000019999999N0000001N9+01281+99999101711ADDGF100991999999999999999999
0029227070999991903052913004+62167+030650FM-12+010299999V0202301N004119999999N0000001N9+02331+99999101181ADDGF101991999999999999999999
0029227070999991903052920004+62167+030650FM-12+010299999V0202301N002119999999N0000001N9+01441+99999100961ADDGF100991999999999999999999
0029227070999991903053006004+62167+030650FM-12+010299999V0202301N002119999999N0000001N9+01831+99999100841ADDGF100991999999999999999999
0029227070999991903053013004+62167+030650FM-12+010299999V0203201N003119999999N0000001N9+02501+99999100621ADDGF102991999999999999999999
0029227070999991903053020004+62167+030650FM-12+010299999V0209991C000019999999N0000001N9+01721+99999100551ADDGF102991999999999999999999
0029227070999991903053106004+62167+030650FM-12+010299999V0203201N002119999999N0000001N9+01941+99999100541ADDGF103991999999999999999999
0029227070999991903053113004+62167+030650FM-12+010299999V0202301N002119999999N0000001N9+02561+99999100501ADDGF105991999999999999999999
0029227070999991903053120004+62167+030650FM-12+010299999V0202301N002119999999N0000001N9+01391+99999100341ADDGF103991999999999999999999
0029227070999991903060106004+62167+030650FM-12+010299999V0201401N002119999999N0000001N9+01331+99999100301ADDGF103991999999999999999999
0029227070999991903060113004+62167+030650FM-12+010299999V0201801N002119999999N0000001N9+02331+99999100041ADDGF105991999999999999999999
0035227070999991903060120004+62167+030650FM-12+010299999V0201801N004119999999N0000001N9+02221+99999100231ADDGF103991999999999999999999MW1621
0029227070999991903060206004+62167+030650FM-12+010299999V0201801N004119999999N0000001N9+01561+99999100261ADDGF106991999999999999999999
0029227070999991903060213004+62167+030650FM-12+010299999V0201801N005119999999N0000001N9+02331+99999099961ADDGF102991999999999999999999
0029227070999991903060220004+62167+030650FM-12+010299999V0201801N002119999999N0000001N9+01941+99999100071ADDGF105991999999999999999999
0029227070999991903060306004+62167+030650FM-12+010299999V0209991C000019999999N0000001N9+01781+99999099821ADDGF100991999999999999999999
0035227070999991903060313004+62167+030650FM-12+010299999V0201401N002119999999N0000001N9+01831+99999099791ADDGF106991999999999999999999MW1621
0029227070999991903060320004+62167+030650FM-12+010299999V0201401N002119999999N0000001N9+01781+99999099751ADDGF107991999999999999999999
0029227070999991903060406004+62167+030650FM-12+010299999V0203601N002119999999N0000001N9+01331+99999099821ADDGF108991999999999999999999
0029227070999991903060413004+62167+030650FM-12+010299999V0200501N007219999999N0000001N9+01221+99999099981ADDGF108991999999999999999999
0029227070999991903060420004+62167+030650FM-12+010299999V0200501N004119999999N0000001N9+01001+99999100201ADDGF106991999999999999999999
0029227070999991903060506004+62167+030650FM-12+010299999V0203601N005119999999N0000001N9+00831+99999100031ADDGF108991999999999999999999
0029227070999991903060513004+62167+030650FM-12+010299999V0200501N004119999999N0000001N9+01171+99999099591ADDGF105991999999999999999999
0029227070999991903060520004+62167+030650FM-12+010299999V0200501N002119999999N0000001N9+00781+99999099121ADDGF108991999999999999999999
0029227070999991903060606004+62167+030650FM-12+010299999V0203601N004119999999N0000001N9+00611+99999098511ADDGF108991999999999999999999
0029227070999991903060613004+62167+030650FM-12+010299999V0203201N006219999999N0000001N9+00611+99999099111ADDGF107991999999999999999999
0029227070999991903060620004+62167+030650FM-12+010299999V0202701N004119999999N0000001N9+00781+99999099871ADDGF107991999999999999999999
0029227070999991903060706004+62167+030650FM-12+010299999V0200501N004119999999N0000001N9+00891+99999100951ADDGF106991999999999999999999
0029227070999991903060713004+62167+030650FM-12+010299999V0200501N004119999999N0000001N9+01501+99999101401ADDGF105991999999999999999999
0029227070999991903060720004+62167+030650FM-12+010299999V0202701N002119999999N0000001N9+00891+99999101541ADDGF100991999999999999999999
0029227070999991903060806004+62167+030650FM-12+010299999V0202701N002119999999N0000001N9+01171+99999101981ADDGF100991999999999999999999
0029227070999991903060813004+62167+030650FM-12+010299999V0203201N004119999999N0000001N9+01941+99999101741ADDGF100991999999999999999999
0029227070999991903060820004+62167+030650FM-12+010299999V0209991C000019999999N0000001N9+01441+99999101791ADDGF100991999999999999999999
0029227070999991903060906004+62167+030650FM-12+010299999V0202701N001019999999N0000001N9+01391+99999101991ADDGF100991999999999999999999
0029227070999991903060913004+62167+030650FM-12+010299999V0203201N004119999999N0000001N9+02171+99999101951ADDGF100991999999999999999999
0029227070999991903060920004+62167+030650FM-12+010299999V0203201N002119999999N0000001N9+01281+99999101711ADDGF100991999999999999999999
0029227070999991903061006004+62167+030650FM-12+010299999V0209991C000019999999N0000001N9+01781+99999101391ADDGF100991999999999999999999
0029227070999991903061013004+62167+030650FM-12+010299999V0201801N004119999999N0000001N9+02331+99999100661ADDGF101991999999999999999999
0029227070999991903061020004+62167+030650FM-12+010299999V0201401N004119999999N0000001N9+01721+99999100281ADDGF101991999999999999999999
0029227070999991903061106004+62167+030650FM-12+010299999V0201401N006219999999N0000001N9+01891+99999099661ADDGF106991999999999999999999
0029227070999991903061113004+62167+030650FM-12+010299999V0202301N009819999999N0000001N9+02281+99999099831ADDGF105991999999999999999999
0029227070999991903061120004+62167+030650FM-12+010299999V0203201N008219999999N0000001N9+01281+99999099741ADDGF108991999999999999999999
0029227070999991903061206004+62167+030650FM-12+010299999V0203201N008219999999N0000001N9+00501+99999100071ADDGF108991999999999999999999
0029227070999991903061213004+62167+030650FM-12+010299999V0203601N008219999999N0000001N9+00441+99999100161ADDGF108991999999999999999999
0029227070999991903061220004+62167+030650FM-12+010299999V0200501N003119999999N0000001N9+00391+99999100461ADDGF108991999999999999999999
0035227070999991903061306004+62167+030650FM-12+010299999V0200501N008219999999N0000001N9+00441+99999100471ADDGF108991999999999999999999MW1621
0035227070999991903061313004+62167+030650FM-12+010299999V0200901N006219999999N0000001N9+00721+99999100641ADDGF108991999999999999999999MW1621
0029227070999991903061320004+62167+030650FM-12+010299999V0200501N001019999999N0000001N9+00671+99999100911ADDGF108991999999999999999999
0029227070999991903061406004+62167+030650FM-12+010299999V0200501N008219999999N0000001N9+00891+99999100791ADDGF105991999999999999999999
0029227070999991903061413004+62167+030650FM-12+010299999V0200501N002119999999N0000001N9+01441+99999100871ADDGF106991999999999999999999
0029227070999991903061420004+62167+030650FM-12+010299999V0203601N001019999999N0000001N9+00941+99999101021ADDGF101991999999999999999999
0029227070999991903061506004+62167+030650FM-12+010299999V0203601N001019999999N0000001N9+01111+99999101281ADDGF102991999999999999999999
0029227070999991903061513004+62167+030650FM-12+010299999V0202301N002119999999N0000001N9+01671+99999100481ADDGF103991999999999999999999
0029227070999991903061520004+62167+030650FM-12+010299999V0202701N002119999999N0000001N9+01111+99999100261ADDGF100991999999999999999999
0029227070999991903061606004+62167+030650FM-12+010299999V0201801N002119999999N0000001N9+01441+99999100441ADDGF100991999999999999999999
0029227070999991903061613004+62167+030650FM-12+010299999V0202701N001019999999N0000001N9+01831+99999100311ADDGF108991999999999999999999
0029227070999991903061620004+62167+030650FM-12+010299999V0202701N002119999999N0000001N9+01331+99999100471ADDGF101991999999999999999999
0029227070999991903061706004+62167+030650FM-12+010299999V0203201N001019999999N0000001N9+01501+99999100821ADDGF100991999999999999999999
0029227070999991903061713004+62167+030650FM-12+010299999V0201401N001019999999N0000001N9+02221+99999100821ADDGF102991999999999999999999
0029227070999991903061720004+62167+030650FM-12+010299999V0201401N001019999999N0000001N9+01441+99999100101ADDGF100991999999999999999999
0029227070999991903061806004+62167+030650FM-12+010299999V0201401N002119999999N0000001N9+01561+99999100321ADDGF107991999999999999999999
0029227070999991903061813004+62167+030650FM-12+010299999V0201801N006219999999N0000001N9+02001+99999099741ADDGF105991999999999999999999
0029227070999991903061820004+62167+030650FM-12+010299999V0201401N001019999999N0000001N9+01561+99999099421ADDGF107991999999999999999999
0029227070999991903061906004+62167+030650FM-12+010299999V0200501N002119999999N0000001N9+01501+99999099431ADDGF107991999999999999999999
0029227070999991903061913004+62167+030650FM-12+010299999V0202301N002119999999N0000001N9+02061+99999099841ADDGF106991999999999999999999
0029227070999991903061920004+62167+030650FM-12+010299999V0201401N002119999999N0000001N9+01441+99999099951ADDGF101991999999999999999999
0029227070999991903062006004+62167+030650FM-12+010299999V0201801N001019999999N0000001N9+01501+99999100381ADDGF103991999999999999999999
0029227070999991903062013004+62167+030650FM-12+010299999V0202301N003119999999N0000001N9+02111+99999100321ADDGF101991999999999999999999
0029227070999991903062020004+62167+030650FM-12+010299999V0200501N001019999999N0000001N9+01781+99999100471ADDGF100991999999999999999999
0029227070999991903062106004+62167+030650FM-12+010299999V0203601N002119999999N0000001N9+01391+99999100461ADDGF107991999999999999999999
0029227070999991903062113004+62167+030650FM-12+010299999V0200901N001019999999N0000001N9+02391+99999100461ADDGF100991999999999999999999
0029227070999991903062120004+62167+030650FM-12+010299999V0209991C000019999999N0000001N9+01831+99999100041ADDGF105991999999999999999999
0029227070999991903062206004+62167+030650FM-12+010299999V0201401N004119999999N0000001N9+01671+99999099831ADDGF108991999999999999999999
0029227070999991903062213004+62167+030650FM-12+010299999V0201401N004119999999N0000001N9+02001+99999099721ADDGF106991999999999999999999
0029227070999991903062220004+62167+030650FM-12+010299999V0201401N002119999999N0000001N9+01671+99999099881ADDGF108991999999999999999999
0029227070999991903062306004+62167+030650FM-12+010299999V0201801N005119999999N0000001N9+01671+99999099991ADDGF107991999999999999999999
0029227070999991903062313004+62167+030650FM-12+010299999V0202301N006219999999N0000001N9+01611+99999100221ADDGF107991999999999999999999
0029227070999991903062320004+62167+030650FM-12+010299999V0202701N001019999999N0000001N9+01391+99999100581ADDGF101991999999999999999999
0029227070999991903062406004+62167+030650FM-12+010299999V0202701N001019999999N0000001N9+01721+99999101071ADDGF100991999999999999999999
0029227070999991903062413004+62167+030650FM-12+010299999V0202701N006219999999N0000001N9+01891+99999101201ADDGF102991999999999999999999
0029227070999991903062420004+62167+030650FM-12+010299999V0202701N002119999999N0000001N9+00891+99999101261ADDGF100991999999999999999999
0029227070999991903062506004+62167+030650FM-12+010299999V0203601N004119999999N0000001N9+01281+99999101621ADDGF100991999999999999999999
0029227070999991903062513004+62167+030650FM-12+010299999V0202701N004119999999N0000001N9+01671+99999101701ADDGF102991999999999999999999
0029227070999991903062520004+62167+030650FM-12+010299999V0203601N001019999999N0000001N9+01221+99999101681ADDGF101991999999999999999999
0029227070999991903062606004+62167+030650FM-12+010299999V0200501N004119999999N0000001N9+01501+99999101671ADDGF102991999999999999999999
0029227070999991903062613004+62167+030650FM-12+010299999V0203201N002119999999N0000001N9+01891+99999101461ADDGF105991999999999999999999
0029227070999991903062620004+62167+030650FM-12+010299999V0200501N002119999999N0000001N9+01671+99999101581ADDGF107991999999999999999999
0029227070999991903062706004+62167+030650FM-12+010299999V0200501N004119999999N0000001N9+01501+99999101641ADDGF100991999999999999999999
0029227070999991903062713004+62167+030650FM-12+010299999V0203201N002119999999N0000001N9+01941+99999101601ADDGF104991999999999999999999
0029227070999991903062720004+62167+030650FM-12+010299999V0203201N002119999999N0000001N9+01281+99999101541ADDGF101991999999999999999999
0029227070999991903062806004+62167+030650FM-12+010299999V0203601N001019999999N0000001N9+01671+99999101701ADDGF100991999999999999999999
0029227070999991903062813004+62167+030650FM-12+010299999V0203601N001019999999N0000001N9+02171+99999101681ADDGF104991999999999999999999
0029227070999991903062820004+62167+030650FM-12+010299999V0209991C000019999999N0000001N9+01331+99999101511ADDGF100991999999999999999999
0029227070999991903062906004+62167+030650FM-12+010299999V0200501N001019999999N0000001N9+01561+99999101641ADDGF101991999999999999999999
0029227070999991903062913004+62167+030650FM-12+010299999V0202301N001019999999N0000001N9+02391+99999101361ADDGF103991999999999999999999
0029227070999991903062920004+62167+030650FM-12+010299999V0201401N002119999999N0000001N9+01561+99999100981ADDGF105991999999999999999999
0029227070999991903063006004+62167+030650FM-12+010299999V0201401N002119999999N0000001N9+01561+99999100701ADDGF107991999999999999999999
0029227070999991903063013004+62167+030650FM-12+010299999V0202301N003119999999N0000001N9+02001+99999100481ADDGF107991999999999999999999
0029227070999991903063020004+62167+030650FM-12+010299999V0202301N002119999999N0000001N9+01671+99999100301ADDGF102991999999999999999999
0029227070999991903070106004+62167+030650FM-12+010299999V0202301N002119999999N0000001N9+01781+99999099981ADDGF101991999999999999999999
0029227070999991903070113004+62167+030650FM-12+010299999V0203201N004119999999N0000001N9+01331+99999099961ADDGF107991999999999999999999
0029227070999991903070120004+62167+030650FM-12+010299999V0202301N001019999999N0000001N9+01441+99999100041ADDGF102991999999999999999999
0029227070999991903070206004+62167+030650FM-12+010299999V0203601N001019999999N0000001N9+01331+99999100461ADDGF103991999999999999999999
0029227070999991903070213004+62167+030650FM-12+010299999V0203201N002119999999N0000001N9+01331+99999100441ADDGF105991999999999999999999
0029227070999991903070220004+62167+030650FM-12+010299999V0202301N004119999999N0000001N9+01501+99999100341ADDGF107991999999999999999999
0029227070999991903070306004+62167+030650FM-12+010299999V0202301N002119999999N0000001N9+01561+99999100071ADDGF106991999999999999999999
0029227070999991903070313004+62167+030650FM-12+010299999V0202301N004119999999N0000001N9+02001+99999100021ADDGF106991999999999999999999
0029227070999991903070320004+62167+030650FM-12+010299999V0202301N001019999999N0000001N9+01671+99999100101ADDGF100991999999999999999999
0029227070999991903070406004+62167+030650FM-12+010299999V0201801N001019999999N0000001N9+01831+99999100391ADDGF105991999999999999999999
0029227070999991903070413004+62167+030650FM-12+010299999V0201801N004119999999N0000001N9+02221+99999100031ADDGF104991999999999999999999
0029227070999991903070420004+62167+030650FM-12+010299999V0201401N004119999999N0000001N9+01671+99999099431ADDGF108991999999999999999999
0029227070999991903070506004+62167+030650FM-12+010299999V0201801N004119999999N0000001N9+01441+99999099561ADDGF107991999999999999999999
0029227070999991903070513004+62167+030650FM-12+010299999V0201801N002119999999N0000001N9+01331+99999099431ADDGF108991999999999999999999
0029227070999991903070520004+62167+030650FM-12+010299999V0202301N002119999999N0000001N9+01171+99999099551ADDGF108991999999999999999999
0029227070999991903070606004+62167+030650FM-12+010299999V0202301N002119999999N0000001N9+01281+99999100151ADDGF100991999999999999999999
0029227070999991903070613004+62167+030650FM-12+010299999V0200901N003119999999N0000001N9+01831+99999100151ADDGF103991999999999999999999
0029227070999991903070620004+62167+030650FM-12+010299999V0202501N002119999999N0000001N9+01501+99999100061ADDGF108991999999999999999999
0029227070999991903070706004+62167+030650FM-12+010299999V0202501N004119999999N0000001N9+01221+99999100241ADDGF108991999999999999999999
0029227070999991903070713004+62167+030650FM-12+010299999V0203601N002119999999N0000001N9+01501+99999100351ADDGF108991999999999999999999
0029227070999991903070720004+62167+030650FM-12+010299999V0202301N002119999999N0000001N9+01281+99999100541ADDGF100991999999999999999999
0029227070999991903070806004+62167+030650FM-12+010299999V0200501N003119999999N0000001N9+01441+99999100671ADDGF102991999999999999999999
0029227070999991903070813004+62167+030650FM-12+010299999V0200901N004119999999N0000001N9+01831+99999100561ADDGF108991999999999999999999
0029227070999991903070820004+62167+030650FM-12+010299999V0200501N008219999999N0000001N9+01221+99999100381ADDGF108991999999999999999999
0029227070999991903070906004+62167+030650FM-12+010299999V0200501N009819999999N0000001N9+01001+99999100321ADDGF108991999999999999999999
0029227070999991903070913004+62167+030650FM-12+010299999V0200501N006219999999N0000001N9+01061+99999100401ADDGF108991999999999999999999
0029227070999991903070920004+62167+030650FM-12+010299999V0200901N002119999999N0000001N9+01001+99999100271ADDGF108991999999999999999999
0029227070999991903071006004+62167+030650FM-12+010299999V0200901N002119999999N0000001N9+01111+99999100111ADDGF108991999999999999999999
0029227070999991903071013004+62167+030650FM-12+010299999V0203201N002119999999N0000001N9+01441+99999100151ADDGF107991999999999999999999
0029227070999991903071020004+62167+030650FM-12+010299999V0203201N002119999999N0000001N9+01221+99999100381ADDGF107991999999999999999999
0029227070999991903071106004+62167+030650FM-12+010299999V0203201N001019999999N0000001N9+01281+99999100551ADDGF103991999999999999999999
0029227070999991903071113004+62167+030650FM-12+010299999V0200901N002119999999N0000001N9+01831+99999100391ADDGF105991999999999999999999
0029227070999991903071120004+62167+030650FM-12+010299999V0200901N002119999999N0000001N9+01281+99999100241ADDGF103991999999999999999999
0029227070999991903071206004+62167+030650FM-12+010299999V0201401N003119999999N0000001N9+01501+99999099581ADDGF107991999999999999999999
0035227070999991903071213004+62167+030650FM-12+010299999V0201401N003119999999N0000001N9+01501+99999099181ADDGF108991999999999999999999MW1621
0029227070999991903071220004+62167+030650FM-12+010299999V0203201N001019999999N0000001N9+01611+99999098881ADDGF107991999999999999999999
0029227070999991903071306004+62167+030650FM-12+010299999V0203201N002119999999N0000001N9+01331+99999098841ADDGF106991999999999999999999
0029227070999991903071313004+62167+030650FM-12+010299999V0203201N002119999999N0000001N9+01001+99999099101ADDGF103991999999999999999999
0029227070999991903071320004+62167+030650FM-12+010299999V0203201N002119999999N0000001N9+01391+99999099181ADDGF104991999999999999999999
0029227070999991903071406004+62167+030650FM-12+010299999V0201401N001019999999N0000001N9+01501+99999099201ADDGF105991999999999999999999
0029227070999991903071413004+62167+030650FM-12+010299999V0200501N002119999999N0000001N9+02111+99999099031ADDGF102991999999999999999999
0029227070999991903071420004+62167+030650FM-12+010299999V0200901N002119999999N0000001N9+01561+99999098761ADDGF108991999999999999999999
0029227070999991903071506004+62167+030650FM-12+010299999V0203201N004119999999N0000001N9+01561+99999098561ADDGF108991999999999999999999
0029227070999991903071513004+62167+030650FM-12+010299999V0202301N002119999999N0000001N9+01281+99999099141ADDGF108991999999999999999999
0029227070999991903071520004+62167+030650FM-12+010299999V0202301N002119999999N0000001N9+01501+99999099541ADDGF102991999999999999999999
0029227070999991903071606004+62167+030650FM-12+010299999V0201801N002119999999N0000001N9+01281+99999099751ADDGF103991999999999999999999
0029227070999991903071613004+62167+030650FM-12+010299999V0202301N005119999999N0000001N9+01561+99999099991ADDGF103991999999999999999999
0029227070999991903071620004+62167+030650FM-12+010299999V0201401N002119999999N0000001N9+01061+99999100201ADDGF105991999999999999999999
0029227070999991903071706004+62167+030650FM-12+010299999V0200501N002119999999N0000001N9+01281+99999100661ADDGF100991999999999999999999
0029227070999991903071713004+62167+030650FM-12+010299999V0201801N002119999999N0000001N9+01281+99999100801ADDGF101991999999999999999999
0029227070999991903071720004+62167+030650FM-12+010299999V0201401N002119999999N0000001N9+01281+99999100751ADDGF108991999999999999999999
0029227070999991903071806004+62167+030650FM-12+010299999V0201401N002119999999N0000001N9+01171+99999100631ADDGF108991999999999999999999
0035227070999991903071813004+62167+030650FM-12+010299999V0200901N003119999999N0000001N9+01281+99999100421ADDGF108991999999999999999999MW1621
0029227070999991903071820004+62167+030650FM-12+010299999V0200901N004119999999N0000001N9+01331+99999099681ADDGF108991999999999999999999
0029227070999991903071906004+62167+030650FM-12+010299999V0201401N003119999999N0000001N9+01441+99999098861ADDGF108991999999999999999999
0035227070999991903071913004+62167+030650FM-12+010299999V0201401N005119999999N0000001N9+01611+99999098881ADDGF108991999999999999999999MW1621
0029227070999991903071920004+62167+030650FM-12+010299999V0201801N004119999999N0000001N9+01331+99999098861ADDGF108991999999999999999999
0029227070999991903072006004+62167+030650FM-12+010299999V0201801N002119999999N0000001N9+01281+99999098881ADDGF108991999999999999999999
0035227070999991903072013004+62167+030650FM-12+010299999V0202301N003119999999N0000001N9+01561+99999099161ADDGF108991999999999999999999MW1621
0029227070999991903072020004+62167+030650FM-12+010299999V0202301N002119999999N0000001N9+01281+99999099381ADDGF108991999999999999999999
0029227070999991903072106004+62167+030650FM-12+010299999V0202701N004119999999N0000001N9+01001+99999099561ADDGF108991999999999999999999
0035227070999991903072113004+62167+030650FM-12+010299999V0202701N004119999999N0000001N9+01171+99999099801ADDGF108991999999999999999999MW1621
0029227070999991903072120004+62167+030650FM-12+010299999V0202701N004119999999N0000001N9+00941+99999099901ADDGF108991999999999999999999
0029227070999991903072206004+62167+030650FM-12+010299999V0202701N002119999999N0000001N9+01171+99999099761ADDGF108991999999999999999999
0029227070999991903072213004+62167+030650FM-12+010299999V0202701N002119999999N0000001N9+01561+99999099801ADDGF108991999999999999999999
0029227070999991903072220004+62167+030650FM-12+010299999V0202701N002119999999N0000001N9+01281+99999100021ADDGF107991999999999999999999
0029227070999991903072306004+62167+030650FM-12+010299999V0203601N003119999999N0000001N9+01331+99999100191ADDGF107991999999999999999999
0029227070999991903072313004+62167+030650FM-12+010299999V0203601N003119999999N0000001N9+01831+99999100201ADDGF103991999999999999999999
0029227070999991903072320004+62167+030650FM-12+010299999V0203601N004119999999N0000001N9+01171+99999100351ADDGF105991999999999999999999
0029227070999991903072406004+62167+030650FM-12+010299999V0200501N004119999999N0000001N9+01501+99999100591ADDGF102991999999999999999999
0029227070999991903072413004+62167+030650FM-12+010299999V0200501N003119999999N0000001N9+02001+99999100631ADDGF100991999999999999999999
0029227070999991903072420004+62167+030650FM-12+010299999V0200501N004119999999N0000001N9+01501+99999100581ADDGF100991999999999999999999
0029227070999991903072506004+62167+030650FM-12+010299999V0200501N006219999999N0000001N9+01331+99999100521ADDGF100991999999999999999999
0029227070999991903072513004+62167+030650FM-12+010299999V0200501N004119999999N0000001N9+01891+99999100471ADDGF100991999999999999999999
0029227070999991903072520004+62167+030650FM-12+010299999V0200501N003119999999N0000001N9+01501+99999100341ADDGF100991999999999999999999
0029227070999991903072606004+62167+030650FM-12+010299999V0201801N008219999999N0000001N9+01441+99999100111ADDGF100991999999999999999999
0029227070999991903072613004+62167+030650FM-12+010299999V0203201N002119999999N0000001N9+01891+99999100151ADDGF100991999999999999999999
0029227070999991903072620004+62167+030650FM-12+010299999V0200501N004119999999N0000001N9+01501+99999100361ADDGF103991999999999999999999
0029227070999991903072706004+62167+030650FM-12+010299999V0200501N002119999999N0000001N9+01331+99999100581ADDGF100991999999999999999999
0029227070999991903072713004+62167+030650FM-12+010299999V0200901N002119999999N0000001N9+02001+99999100621ADDGF103991999999999999999999
0029227070999991903072720004+62167+030650FM-12+010299999V0202701N001019999999N0000001N9+01501+99999100441ADDGF105991999999999999999999
0029227070999991903072806004+62167+030650FM-12+010299999V0201401N004119999999N0000001N9+01221+99999100591ADDGF108991999999999999999999
0029227070999991903072813004+62167+030650FM-12+010299999V0201101N003119999999N0000001N9+01721+99999100551ADDGF107991999999999999999999
0029227070999991903072820004+62167+030650FM-12+010299999V0203601N001019999999N0000001N9+01331+99999100511ADDGF104991999999999999999999
0029227070999991903072906004+62167+030650FM-12+010299999V0203201N002119999999N0000001N9+01331+99999100631ADDGF102991999999999999999999
0029227070999991903072913004+62167+030650FM-12+010299999V0201801N004119999999N0000001N9+02061+99999100511ADDGF102991999999999999999999
0029227070999991903072920004+62167+030650FM-12+010299999V0201401N002119999999N0000001N9+01171+99999100401ADDGF102991999999999999999999
0029227070999991903073006004+62167+030650FM-12+010299999V0201401N001019999999N0000001N9+01721+99999100391ADDGF102991999999999999999999
0029227070999991903073013004+62167+030650FM-12+010299999V0201801N002119999999N0000001N9+02391+99999100121ADDGF101991999999999999999999
0029227070999991903073020004+62167+030650FM-12+010299999V0201801N002119999999N0000001N9+01561+99999099871ADDGF106991999999999999999999
0029227070999991903073106004+62167+030650FM-12+010299999V0201401N002119999999N0000001N9+01671+99999099381ADDGF106991999999999999999999
0029227070999991903073113004+62167+030650FM-12+010299999V0201801N002119999999N0000001N9+01781+99999099381ADDGF108991999999999999999999
0029227070999991903073120004+62167+030650FM-12+010299999V0201801N002119999999N0000001N9+01331+99999099281ADDGF107991999999999999999999
0029227070999991903080106004+62167+030650FM-12+010299999V0202701N001019999999N0000001N9+01281+99999099301ADDGF105991999999999999999999
0029227070999991903080113004+62167+030650FM-12+010299999V0201401N004119999999N0000001N9+01891+99999098831ADDGF103991999999999999999999
0029227070999991903080120004+62167+030650FM-12+010299999V0201401N002119999999N0000001N9+01391+99999098701ADDGF103991999999999999999999
0029227070999991903080206004+62167+030650FM-12+010299999V0201401N002119999999N0000001N9+01331+99999098381ADDGF108991999999999999999999
0035227070999991903080213004+62167+030650FM-12+010299999V0201801N002119999999N0000001N9+01561+99999098361ADDGF106991999999999999999999MW1621
0029227070999991903080220004+62167+030650FM-12+010299999V0201801N002119999999N0000001N9+01281+99999098601ADDGF103991999999999999999999
0029227070999991903080306004+62167+030650FM-12+010299999V0202701N001019999999N0000001N9+01501+99999098711ADDGF108991999999999999999999
0035227070999991903080313004+62167+030650FM-12+010299999V0201801N002119999999N0000001N9+01391+99999098861ADDGF106991999999999999999999MW1621
0029227070999991903080320004+62167+030650FM-12+010299999V0201401N004119999999N0000001N9+01221+99999098761ADDGF107991999999999999999999
0029227070999991903080406004+62167+030650FM-12+010299999V0201401N002119999999N0000001N9+01331+99999099151ADDGF103991999999999999999999
0035227070999991903080413004+62167+030650FM-12+010299999V0200901N004119999999N0000001N9+01671+99999099391ADDGF106991999999999999999999MW1621
0029227070999991903080420004+62167+030650FM-12+010299999V0201401N002119999999N0000001N9+01331+99999099471ADDGF103991999999999999999999
0029227070999991903080506004+62167+030650FM-12+010299999V0201401N002119999999N0000001N9+01561+99999099721ADDGF106991999999999999999999
0029227070999991903080513004+62167+030650FM-12+010299999V0201401N004119999999N0000001N9+01561+99999099591ADDGF108991999999999999999999
0029227070999991903080520004+62167+030650FM-12+010299999V0201401N004119999999N0000001N9+01331+99999099401ADDGF105991999999999999999999
0029227070999991903080606004+62167+030650FM-12+010299999V0201401N006219999999N0000001N9+01441+99999099271ADDGF107991999999999999999999
0035227070999991903080613004+62167+030650FM-12+010299999V0201401N005119999999N0000001N9+01561+99999099071ADDGF108991999999999999999999MW1621
0029227070999991903080620004+62167+030650FM-12+010299999V0201401N002119999999N0000001N9+01281+99999099081ADDGF103991999999999999999999
0029227070999991903080706004+62167+030650FM-12+010299999V0200501N002119999999N0000001N9+01281+99999098591ADDGF102991999999999999999999
0029227070999991903080713004+62167+030650FM-12+010299999V0203201N002119999999N0000001N9+01781+99999098261ADDGF105991999999999999999999
0029227070999991903080720004+62167+030650FM-12+010299999V0203201N002119999999N0000001N9+01281+99999097941ADDGF102991999999999999999999
0029227070999991903080806004+62167+030650FM-12+010299999V0202301N003119999999N0000001N9+01441+99999097821ADDGF108991999999999999999999
0029227070999991903080813004+62167+030650FM-12+010299999V0202301N004119999999N0000001N9+01721+99999097921ADDGF103991999999999999999999
0029227070999991903080820004+62167+030650FM-12+010299999V0202301N009819999999N0000001N9+01221+99999097801ADDGF108991999999999999999999
0029227070999991903080906004+62167+030650FM-12+010299999V0202301N009819999999N0000001N9+01111+99999097831ADDGF108991999999999999999999
0035227070999991903080913004+62167+030650FM-12+010299999V0202301N008219999999N0000001N9+01391+99999097751ADDGF107991999999999999999999MW1621
0029227070999991903080920004+62167+030650FM-12+010299999V0202301N009819999999N0000001N9+01441+99999098221ADDGF108991999999999999999999
0029227070999991903081006004+62167+030650FM-12+010299999V0202301N006219999999N0000001N9+01331+99999098561ADDGF108991999999999999999999
0029227070999991903081013004+62167+030650FM-12+010299999V0201401N004119999999N0000001N9+01501+99999099021ADDGF108991999999999999999999
0029227070999991903081020004+62167+030650FM-12+010299999V0201401N002119999999N0000001N9+01171+99999099301ADDGF100991999999999999999999
0029227070999991903081106004+62167+030650FM-12+010299999V0203201N002119999999N0000001N9+01111+99999099381ADDGF108991999999999999999999
0029227070999991903081113004+62167+030650FM-12+010299999V0203201N003119999999N0000001N9+01611+99999099161ADDGF108991999999999999999999
0029227070999991903081120004+62167+030650FM-12+010299999V0203201N003119999999N0000001N9+01281+99999099031ADDGF108991999999999999999999
0029227070999991903081206004+62167+030650FM-12+010299999V0203201N002119999999N0000001N9+01331+99999098561ADDGF108991999999999999999999
0035227070999991903081213004+62167+030650FM-12+010299999V0203201N002119999999N0000001N9+01501+99999098751ADDGF108991999999999999999999MW1621
0029227070999991903081220004+62167+030650FM-12+010299999V0201401N002119999999N0000001N9+01281+99999098961ADDGF108991999999999999999999
0035227070999991903081306004+62167+030650FM-12+010299999V0202301N003119999999N0000001N9+01331+99999099191ADDGF108991999999999999999999MW1621
0029227070999991903081313004+62167+030650FM-12+010299999V0203201N002119999999N0000001N9+01501+99999099401ADDGF107991999999999999999999
0029227070999991903081320004+62167+030650FM-12+010299999V0203201N002119999999N0000001N9+01281+99999099431ADDGF107991999999999999999999
0029227070999991903081406004+62167+030650FM-12+010299999V0203201N002119999999N0000001N9+01331+99999099501ADDGF108991999999999999999999
0029227070999991903081413004+62167+030650FM-12+010299999V0203201N002119999999N0000001N9+01671+99999099751ADDGF107991999999999999999999
0029227070999991903081420004+62167+030650FM-12+010299999V0203201N002119999999N0000001N9+01221+99999099561ADDGF108991999999999999999999
0029227070999991903081506004+62167+030650FM-12+010299999V0203201N003119999999N0000001N9+01281+99999099841ADDGF106991999999999999999999
0029227070999991903081513004+62167+030650FM-12+010299999V0203201N002119999999N0000001N9+01721+99999100071ADDGF107991999999999999999999
0029227070999991903081520004+62167+030650FM-12+010299999V0203201N003119999999N0000001N9+01001+99999100221ADDGF100991999999999999999999
0029227070999991903081606004+62167+030650FM-12+010299999V0203201N002119999999N0000001N9+01001+99999100361ADDGF103991999999999999999999
0029227070999991903081613004+62167+030650FM-12+010299999V0203201N002119999999N0000001N9+01781+99999100231ADDGF103991999999999999999999
0029227070999991903081620004+62167+030650FM-12+010299999V0203201N002119999999N0000001N9+01441+99999100081ADDGF100991999999999999999999
0029227070999991903081706004+62167+030650FM-12+010299999V0200501N002119999999N0000001N9+01331+99999099681ADDGF108991999999999999999999
0029227070999991903081713004+62167+030650FM-12+010299999V0200501N004119999999N0000001N9+02001+99999099361ADDGF103991999999999999999999
0029227070999991903081720004+62167+030650FM-12+010299999V0200501N002119999999N0000001N9+01501+99999099271ADDGF104991999999999999999999
0029227070999991903081806004+62167+030650FM-12+010299999V0200501N006219999999N0000001N9+01281+99999099161ADDGF107991999999999999999999
0029227070999991903081813004+62167+030650FM-12+010299999V0200501N002119999999N0000001N9+01671+99999099191ADDGF102991999999999999999999
0029227070999991903081820004+62167+030650FM-12+010299999V0200501N004119999999N0000001N9+01331+99999099401ADDGF105991999999999999999999
0029227070999991903081906004+62167+030650FM-12+010299999V0203601N004119999999N0000001N9+01281+99999099381ADDGF107991999999999999999999
0035227070999991903081913004+62167+030650FM-12+010299999V0200901N002119999999N0000001N9+01671+99999099511ADDGF107991999999999999999999MW1621
0029227070999991903081920004+62167+030650FM-12+010299999V0200901N004119999999N0000001N9+01281+99999099541ADDGF108991999999999999999999
0029227070999991903082006004+62167+030650FM-12+010299999V0201401N003119999999N0000001N9+01221+99999099981ADDGF102991999999999999999999
0029227070999991903082013004+62167+030650FM-12+010299999V0201401N003119999999N0000001N9+01941+99999099831ADDGF102991999999999999999999
0029227070999991903082020004+62167+030650FM-12+010299999V0201401N002119999999N0000001N9+01281+99999099881ADDGF108991999999999999999999
0029227070999991903082106004+62167+030650FM-12+010299999V0201401N003119999999N0000001N9+01331+99999099921ADDGF103991999999999999999999
0029227070999991903082113004+62167+030650FM-12+010299999V0201401N002119999999N0000001N9+01781+99999100031ADDGF105991999999999999999999
0029227070999991903082120004+62167+030650FM-12+010299999V0201401N003119999999N0000001N9+01111+99999099941ADDGF100991999999999999999999
0029227070999991903082206004+62167+030650FM-12+010299999V0200901N006219999999N0000001N9+01281+99999099821ADDGF107991999999999999999999
0029227070999991903082213004+62167+030650FM-12+010299999V0202301N006219999999N0000001N9+01441+99999099801ADDGF107991999999999999999999
0029227070999991903082220004+62167+030650FM-12+010299999V0201801N002119999999N0000001N9+01221+99999099951ADDGF103991999999999999999999
0029227070999991903082306004+62167+030650FM-12+010299999V0201801N006219999999N0000001N9+01221+99999099981ADDGF107991999999999999999999
0029227070999991903082313004+62167+030650FM-12+010299999V0202301N006219999999N0000001N9+01721+99999100341ADDGF107991999999999999999999
0029227070999991903082320004+62167+030650FM-12+010299999V0209991C000019999999N0000001N9+01281+99999100351ADDGF108991999999999999999999
0029227070999991903082406004+62167+030650FM-12+010299999V0202301N002119999999N0000001N9+01001+99999100761ADDGF100991999999999999999999
0029227070999991903082413004+62167+030650FM-12+010299999V0201801N002119999999N0000001N9+01831+99999100561ADDGF105991999999999999999999
0029227070999991903082420004+62167+030650FM-12+010299999V0201801N008219999999N0000001N9+00941+99999099671ADDGF108991999999999999999999
0029227070999991903082506004+62167+030650FM-12+010299999V0201801N006219999999N0000001N9+01391+99999099481ADDGF108991999999999999999999
0035227070999991903082513004+62167+030650FM-12+010299999V0201801N004119999999N0000001N9+01391+99999099301ADDGF108991999999999999999999MW1621
0029227070999991903082520004+62167+030650FM-12+010299999V0202701N003119999999N0000001N9+01221+99999099961ADDGF106991999999999999999999
0029227070999991903082606004+62167+030650FM-12+010299999V0202701N002119999999N0000001N9+01171+99999100791ADDGF106991999999999999999999
0029227070999991903082613004+62167+030650FM-12+010299999V0202301N003119999999N0000001N9+01671+99999100861ADDGF102991999999999999999999
0029227070999991903082620004+62167+030650FM-12+010299999V0202301N002119999999N0000001N9+00941+99999100481ADDGF100991999999999999999999
0029227070999991903082706004+62167+030650FM-12+010299999V0203201N003119999999N0000001N9+01001+99999099961ADDGF108991999999999999999999
0035227070999991903082713004+62167+030650FM-12+010299999V0203201N006219999999N0000001N9+00941+99999099431ADDGF108991999999999999999999MW1621
0029227070999991903082720004+62167+030650FM-12+010299999V0200501N004119999999N0000001N9+01001+99999099561ADDGF106991999999999999999999
0029227070999991903082806004+62167+030650FM-12+010299999V0209991C000019999999N0000001N9+00831+99999099831ADDGF102991999999999999999999
0029227070999991903082813004+62167+030650FM-12+010299999V0203201N004119999999N0000001N9+01001+99999099701ADDGF105991999999999999999999
0029227070999991903082820004+62167+030650FM-12+010299999V0200501N003119999999N0000001N9+01171+99999099181ADDGF108991999999999999999999
0035227070999991903082906004+62167+030650FM-12+010299999V0202301N002119999999N0000001N9+01171+99999098671ADDGF108991999999999999999999MW1621
0029227070999991903082913004+62167+030650FM-12+010299999V0201801N002119999999N0000001N9+01441+99999098481ADDGF106991999999999999999999
0029227070999991903082920004+62167+030650FM-12+010299999V0201401N002119999999N0000001N9+01001+99999098621ADDGF100991999999999999999999
0029227070999991903083006004+62167+030650FM-12+010299999V0201401N003119999999N0000001N9+01061+99999098501ADDGF108991999999999999999999
0035227070999991903083013004+62167+030650FM-12+010299999V0203601N009819999999N0000001N9+01171+99999097881ADDGF108991999999999999999999MW1621
0029227070999991903083020004+62167+030650FM-12+010299999V0200901N002119999999N0000001N9+01221+99999097961ADDGF108991999999999999999999
0029227070999991903083106004+62167+030650FM-12+010299999V0200901N003119999999N0000001N9+01221+99999098081ADDGF108991999999999999999999
0035227070999991903083113004+62167+030650FM-12+010299999V0203201N004119999999N0000001N9+01221+99999098511ADDGF108991999999999999999999MW1621
0029227070999991903083120004+62167+030650FM-12+010299999V0203201N002119999999N0000001N9+01001+99999098901ADDGF106991999999999999999999
0029227070999991903090106004+62167+030650FM-12+010299999V0202301N002119999999N0000001N9+01061+99999099471ADDGF108991999999999999999999
0029227070999991903090113004+62167+030650FM-12+010299999V0202701N002119999999N0000001N9+01721+99999100111ADDGF104991999999999999999999
0029227070999991903090120004+62167+030650FM-12+010299999V0202701N002119999999N0000001N9+01001+99999100561ADDGF102991999999999999999999
0029227070999991903090206004+62167+030650FM-12+010299999V0202701N002119999999N0000001N9+00561+99999101161ADDGF100991999999999999999999
0029227070999991903090213004+62167+030650FM-12+010299999V0203201N003119999999N0000001N9+01611+99999101231ADDGF103991999999999999999999
0029227070999991903090220004+62167+030650FM-12+010299999V0203201N002119999999N0000001N9+00941+99999101431ADDGF103991999999999999999999
0029227070999991903090306004+62167+030650FM-12+010299999V0202701N002119999999N0000001N9+00891+99999101591ADDGF105991999999999999999999
0035227070999991903090313004+62167+030650FM-12+010299999V0202701N002119999999N0000001N9+01441+99999101781ADDGF103991999999999999999999MW1621
0029227070999991903090320004+62167+030650FM-12+010299999V0203201N002119999999N0000001N9+00941+99999101701ADDGF100991999999999999999999
