0035028360999991921010106004+67367+026650FM-12+018199999V0209991C000019999999N0000001N9-02441+99999099721ADDGF102991999999999999999999MW1481
0035028360999991921010113004+67367+026650FM-12+018199999V0209991C000019999999N0000001N9-03111+99999099881ADDGF101991999999999999999999MW1481
0029028360999991921010120004+67367+026650FM-12+018199999V0209991C000019999999N0000001N9-02561+99999999999ADDGF108991999999999999999999
0029028360999991921010206004+67367+026650FM-12+018199999V0209991C000019999999N0000001N9-02561+99999100141ADDGF100991999999999999999999
0035028360999991921010213004+67367+026650FM-12+018199999V0209991C000019999999N0000001N9-02781+99999100311ADDGF104991999999999999999999MW1481
0035028360999991921010220004+67367+026650FM-12+018199999V0209991C000019999999N0000001N9-02221+99999100361ADDGF108991999999999999999999MW1481
0029028360999991921010306004+67367+026650FM-12+018199999V0209991C000019999999N0000001N9-02111+99999100471ADDGF105991999999999999999999
0029028360999991921010313004+67367+026650FM-12+018199999V0209991C000019999999N0000001N9-02671+99999100671ADDGF106991999999999999999999
0029028360999991921010320004+67367+026650FM-12+018199999V0209991C000019999999N0000001N9-03281+99999100661ADDGF101991999999999999999999
0035028360999991921010406004+67367+026650FM-12+018199999V0209991C000019999999N0000001N9-02561+99999100391ADDGF103991999999999999999999MW1481
0035028360999991921010413004+67367+026650FM-12+018199999V0201401N001019999999N0000001N9-02171+99999100081ADDGF108991999999999999999999MW1481
0029028360999991921010420004+67367+026650FM-12+018199999V0201801N003119999999N0000001N9-01221+99999099391ADDGF108991999999999999999999
0035028360999991921010506004+67367+026650FM-12+018199999V0200901N003119999999N0000001N9-01281+99999098361ADDGF108991999999999999999999MW1721
0035028360999991921010513004+67367+026650FM-12+018199999V0201801N002119999999N0000001N9-01171+99999098041ADDGF108991999999999999999999MW1721
0029028360999991921010520004+67367+026650FM-12+018199999V0201801N002119999999N0000001N9-01111+99999098061ADDGF108991999999999999999999
0029028360999991921010606004+67367+026650FM-12+018199999V0201601N003119999999N0000001N9-01111+99999097871ADDGF108991999999999999999999
0029028360999991921010613004+67367+026650FM-12+018199999V0201801N002119999999N0000001N9-00891+99999097541ADDGF108991999999999999999999
0029028360999991921010620004+67367+026650FM-12+018199999V0201401N002119999999N0000001N9-00611+99999097111ADDGF108991999999999999999999
0035028360999991921010706004+67367+026650FM-12+018199999V0201801N002119999999N0000001N9-00171+99999096741ADDGF108991999999999999999999MW1721
0035028360999991921010713004+67367+026650FM-12+018199999V0201401N001019999999N0000001N9-00111+99999096041ADDGF108991999999999999999999MW1721
0029028360999991921010720004+67367+026650FM-12+018199999V0202501N002119999999N0000001N9-00331+99999096201ADDGF108991999999999999999999
0029028360999991921010806004+67367+026650FM-12+018199999V0209991C000019999999N0000001N9-01001+99999096681ADDGF105991999999999999999999
0029028360999991921010813004+67367+026650FM-12+018199999V0202901N001019999999N0000001N9-00611+99999097471ADDGF100991999999999999999999
0029028360999991921010820004+67367+026650FM-12+018199999V0209991C000019999999N0000001N9-02001+99999097831ADDGF100991999999999999999999
0029028360999991921010906004+67367+026650FM-12+018199999V0209991C000019999999N0000001N9-02001+99999097561ADDGF106991999999999999999999
0029028360999991921010913004+67367+026650FM-12+018199999V0203201N001019999999N0000001N9-02111+99999097461ADDGF102991999999999999999999
0029028360999991921010920004+67367+026650FM-12+018199999V02099999999999999999N0000001N9-01891+99999097521ADDGF106991999999999999999999
0029028360999991921011006004+67367+026650FM-12+018199999V0209991C000019999999N0000001N9-01441+99999097381ADDGF108991999999999999999999
0035028360999991921011013004+67367+026650FM-12+018199999V0200501N001019999999N0000001N9-01281+99999097341ADDGF108991999999999999999999MW1701
0029028360999991921011020004+67367+026650FM-12+018199999V02099999999999999999N0000001N9-01501+99999097431ADDGF106991999999999999999999
0029028360999991921011106004+67367+026650FM-12+018199999V0209991C000019999999N0000001N9-02111+99999097581ADDGF103991999999999999999999
0029028360999991921011113004+67367+026650FM-12+018199999V0203401N001019999999N0000001N9-02721+99999097781ADDGF101991999999999999999999
0029028360999991921011120004+67367+026650FM-12+018199999V0209991C000019999999N0000001N9-03391+99999097901ADDGF100991999999999999999999
0029028360999991921011206004+67367+026650FM-12+018199999V0209991C000019999999N0000001N9-03441+99999097941ADDGF102991999999999999999999
0029028360999991921011213004+67367+026650FM-12+018199999V0203401N001019999999N0000001N9-03001+99999098121ADDGF108991999999999999999999
0029028360999991921011220004+67367+026650FM-12+018199999V0209991C000019999999N0000001N9-02781+99999098151ADDGF102991999999999999999999
0029028360999991921011306004+67367+026650FM-12+018199999V0202001N004119999999N0000001N9-01501+99999097761ADDGF107991999999999999999999
0029028360999991921011313004+67367+026650FM-12+018199999V0202001N002119999999N0000001N9-01671+99999097801ADDGF106991999999999999999999
0035028360999991921011320004+67367+026650FM-12+018199999V0201401N001019999999N0000001N9-01331+99999097841ADDGF108991999999999999999999MW1701
0035028360999991921011406004+67367+026650FM-12+018199999V0209991C000019999999N0000001N9-01441+99999097501ADDGF108991999999999999999999MW1721
0035028360999991921011413004+67367+026650FM-12+018199999V0209991C000019999999N0000001N9-01561+99999097401ADDGF108991999999999999999999MW1721
0029028360999991921011420004+67367+026650FM-12+018199999V0209991C000019999999N0000001N9-01611+99999097301ADDGF108991999999999999999999
0029028360999991921011506004+67367+026650FM-12+018199999V0203401N002119999999N0000001N9-01331+99999098121ADDGF100991999999999999999999
0029028360999991921011513004+67367+026650FM-12+018199999V0203201N002119999999N0000001N9-01671+99999099111ADDGF100991999999999999999999
0029028360999991921011520004+67367+026650FM-12+018199999V0209991C000019999999N0000001N9-01941+99999099501ADDGF106991999999999999999999
0035028360999991921011606004+67367+026650FM-12+018199999V0202001N004119999999N0000001N9-01061+99999097991ADDGF108991999999999999999999MW1861
0035028360999991921011613004+67367+026650FM-12+018199999V0202301N005119999999N0000001N9-00391+99999096631ADDGF108991999999999999999999MW1381
0035028360999991921011620004+67367+026650FM-12+018199999V0202301N007219999999N0000001N9+00061+99999095831ADDGF108991999999999999999999MW1381
0029028360999991921011706004+67367+026650FM-12+018199999V0202501N007219999999N0000001N9+00001+99999095961ADDGF103991999999999999999999
0029028360999991921011713004+67367+026650FM-12+018199999V0202301N005119999999N0000001N9-00061+99999096461ADDGF108991999999999999999999
0029028360999991921011720004+67367+026650FM-12+018199999V0202001N003119999999N0000001N9-00171+99999096041ADDGF108991999999999999999999
0035028360999991921011806004+67367+026650FM-12+018199999V0201401N001019999999N0000001N9-00061+99999095191ADDGF108991999999999999999999MW1721
0035028360999991921011813004+67367+026650FM-12+018199999V0201401N002119999999N0000001N9-00171+99999104712ADDGF108991999999999999999999MW1721
0029028360999991921011820004+67367+026650FM-12+018199999V0201101N001019999999N0000001N9-00331+99999104631ADDGF108991999999999999999999
0035028360999991921011906004+67367+026650FM-12+018199999V0209991C000019999999N0000001N9-00611+99999095322ADDGF107991999999999999999999MW1701
0029028360999991921011913004+67367+026650FM-12+018199999V0209991C000019999999N0000001N9-00611+99999095841ADDGF108991999999999999999999
0029028360999991921011920004+67367+026650FM-12+018199999V0203601N003119999999N0000001N9-00331+99999096321ADDGF108991999999999999999999
0029028360999991921012006004+67367+026650FM-12+018199999V0209991C000019999999N0000001N9-00561+99999096191ADDGF108991999999999999999999
0029028360999991921012013004+67367+026650FM-12+018199999V0201801N004119999999N0000001N9-00561+99999095361ADDGF108991999999999999999999
0054028360999991921012020004+67367+026650FM-12+018199999V0201401N001019999999N0000001N9-00501+99999999999ADDGF108991999999999999999999MW1721EQDQ01 104583APOSLP
0029028360999991921012106004+67367+026650FM-12+018199999V0203201N003119999999N0000001N9-00671+99999095421ADDGF108991999999999999999999
0029028360999991921012113004+67367+026650FM-12+018199999V0203201N003119999999N0000001N9-01171+99999096681ADDGF102991999999999999999999
0029028360999991921012120004+67367+026650FM-12+018199999V0209991C000019999999N0000001N9-02721+99999096841ADDGF100991999999999999999999
0029028360999991921012206004+67367+026650FM-12+018199999V0209991C000019999999N0000001N9-02941+99999096301ADDGF100991999999999999999999
0029028360999991921012213004+67367+026650FM-12+018199999V0209991C000019999999N0000001N9-02501+99999095881ADDGF105991999999999999999999
0029028360999991921012220004+67367+026650FM-12+018199999V0209991C000019999999N0000001N9-02781+99999095721ADDGF106991999999999999999999
0029028360999991921012306004+67367+026650FM-12+018199999V0209991C000019999999N0000001N9-03221+99999096041ADDGF102991999999999999999999
0029028360999991921012313004+67367+026650FM-12+018199999V0209991C000019999999N0000001N9-03391+99999096201ADDGF102991999999999999999999
0029028360999991921012320004+67367+026650FM-12+018199999V0209991C000019999999N0000001N9-04171+99999096191ADDGF100991999999999999999999
0029028360999991921012406004+67367+026650FM-12+018199999V0209991C000019999999N0000001N9-02891+99999096281ADDGF108991999999999999999999
0029028360999991921012413004+67367+026650FM-12+018199999V0203601N006219999999N0000001N9-01061+99999096791ADDGF102991999999999999999999
0029028360999991921012420004+67367+026650FM-12+018199999V0209991C000019999999N0000001N9-02281+99999097341ADDGF105991999999999999999999
0029028360999991921012506004+67367+026650FM-12+018199999V0209991C000019999999N0000001N9-02891+99999097591ADDGF100991999999999999999999
0029028360999991921012513004+67367+026650FM-12+018199999V0203201N001019999999N0000001N9-02391+99999097801ADDGF100991999999999999999999
0029028360999991921012520004+67367+026650FM-12+018199999V0209991C000019999999N0000001N9-03281+99999097701ADDGF101991999999999999999999
0029028360999991921012606004+67367+026650FM-12+018199999V0209991C000019999999N0000001N9-03781+99999097511ADDGF100991999999999999999999
0029028360999991921012613004+67367+026650FM-12+018199999V0209991C000019999999N0000001N9-03111+99999097311ADDGF105991999999999999999999
0035028360999991921012620004+67367+026650FM-12+018199999V0202701N001019999999N0000001N9-01671+99999097221ADDGF101991999999999999999999MW1721
0029028360999991921012706004+67367+026650FM-12+018199999V0203201N002119999999N0000001N9-01501+99999097301ADDGF108991999999999999999999
0029028360999991921012713004+67367+026650FM-12+018199999V0209991C000019999999N0000001N9-01781+99999097751ADDGF107991999999999999999999
0029028360999991921012720004+67367+026650FM-12+018199999V0209991C000019999999N0000001N9-02171+99999098141ADDGF106991999999999999999999
0029028360999991921012806004+67367+026650FM-12+018199999V0209991C000019999999N0000001N9-03331+99999098481ADDGF100991999999999999999999
0029028360999991921012813004+67367+026650FM-12+018199999V0202701N001019999999N0000001N9-02561+99999098501ADDGF108991999999999999999999
0029028360999991921012820004+67367+026650FM-12+018199999V0202901N002119999999N0000001N9-02221+99999098191ADDGF108991999999999999999999
0029028360999991921012906004+67367+026650FM-12+018199999V0201401N003119999999N0000001N9-01721+99999097151ADDGF108991999999999999999999
0029028360999991921012913004+67367+026650FM-12+018199999V0201401N002119999999N0000001N9-01501+99999096871ADDGF107991999999999999999999
0035028360999991921012920004+67367+026650FM-12+018199999V0201801N002119999999N0000001N9-01391+99999096791ADDGF108991999999999999999999MW1721
0029028360999991921013006004+67367+026650FM-12+018199999V0209991C000019999999N0000001N9-01281+99999096421ADDGF108991999999999999999999
0035028360999991921013013004+67367+026650FM-12+018199999V0209991C000019999999N0000001N9-01221+99999096441ADDGF108991999999999999999999MW1701
0029028360999991921013020004+67367+026650FM-12+018199999V0203401N001019999999N0000001N9-01441+99999096781ADDGF108991999999999999999999
0029028360999991921013106004+67367+026650FM-12+018199999V0209991C000019999999N0000001N9-02061+99999097141ADDGF108991999999999999999999
0029028360999991921013113004+67367+026650FM-12+018199999V0202901N001019999999N0000001N9-01781+99999097321ADDGF102991999999999999999999
0029028360999991921013120004+67367+026650FM-12+018199999V0202901N002119999999N0000001N9-01611+99999097681ADDGF100991999999999999999999
0029028360999991921020106004+67367+026650FM-12+018199999V0209991C000019999999N0000001N9-02441+99999098261ADDGF100991999999999999999999
0029028360999991921020113004+67367+026650FM-12+018199999V0209991C000019999999N0000001N9-02781+99999098631ADDGF100991999999999999999999
0029028360999991921020120004+67367+026650FM-12+018199999V0209991C000019999999N0000001N9-03391+99999098981ADDGF102991999999999999999999
0029028360999991921020206004+67367+026650FM-12+018199999V0203601N003119999999N0000001N9-02781+99999099991ADDGF108991999999999999999999
0029028360999991921020213004+67367+026650FM-12+018199999V0209991C000019999999N0000001N9-02001+99999100561ADDGF102991999999999999999999
0029028360999991921020220004+67367+026650FM-12+018199999V0209991C000019999999N0000001N9-02831+99999101001ADDGF100991999999999999999999
0029028360999991921020306004+67367+026650FM-12+018199999V0209991C000019999999N0000001N9-02501+99999101321ADDGF100991999999999999999999
0029028360999991921020313004+67367+026650FM-12+018199999V0201801N002119999999N0000001N9-02221+99999101631ADDGF103991999999999999999999
0029028360999991921020320004+67367+026650FM-12+018199999V0209991C000019999999N0000001N9-03001+99999101861ADDGF100991999999999999999999
0029028360999991921020406004+67367+026650FM-12+018199999V0202001N001019999999N0000001N9-01781+99999101681ADDGF103991999999999999999999
0029028360999991921020413004+67367+026650FM-12+018199999V0201801N003119999999N0000001N9-01721+99999101661ADDGF108991999999999999999999
0029028360999991921020420004+67367+026650FM-12+018199999V0202001N003119999999N0000001N9-01611+99999101541ADDGF108991999999999999999999
0029028360999991921020506004+67367+026650FM-12+018199999V0201801N001019999999N0000001N9-01281+99999101671ADDGF108991999999999999999999
0029028360999991921020513004+67367+026650FM-12+018199999V0202301N003119999999N0000001N9-00941+99999101781ADDGF108991999999999999999999
0029028360999991921020520004+67367+026650FM-12+018199999V0201801N003119999999N0000001N9-01561+99999101621ADDGF108991999999999999999999
0029028360999991921020606004+67367+026650FM-12+018199999V0201801N003119999999N0000001N9-01391+99999100921ADDGF108991999999999999999999
0035028360999991921020613004+67367+026650FM-12+018199999V0201801N003119999999N0000001N9-01171+99999100101ADDGF108991999999999999999999MW1721
0029028360999991921020620004+67367+026650FM-12+018199999V0202901N001019999999N0000001N9-00671+99999100201ADDGF102991999999999999999999
0029028360999991921020706004+67367+026650FM-12+018199999V0209991C000019999999N0000001N9-01891+99999100991ADDGF108991999999999999999999
0029028360999991921020713004+67367+026650FM-12+018199999V0209991C000019999999N0000001N9-01061+99999101261ADDGF108991999999999999999999
0029028360999991921020720004+67367+026650FM-12+018199999V0209991C000019999999N0000001N9-01221+99999101201ADDGF107991999999999999999999
0029028360999991921020806004+67367+026650FM-12+018199999V0209991C000019999999N0000001N9-01221+99999101061ADDGF102991999999999999999999
0029028360999991921020813004+67367+026650FM-12+018199999V0201601N002119999999N0000001N9-01221+99999101101ADDGF102991999999999999999999
0029028360999991921020820004+67367+026650FM-12+018199999V0209991C000019999999N0000001N9-01111+99999100781ADDGF106991999999999999999999
0029028360999991921020906004+67367+026650FM-12+018199999V0202001N003119999999N0000001N9-00891+99999100181ADDGF100991999999999999999999
0035028360999991921020913004+67367+026650FM-12+018199999V0202301N004119999999N0000001N9-01611+99999099751ADDGF106991999999999999999999MW1381
0029028360999991921020920004+67367+026650FM-12+018199999V0202301N004119999999N0000001N9-00721+99999099261ADDGF100991999999999999999999
0029028360999991921021006004+67367+026650FM-12+018199999V0202701N005119999999N0000001N9-00561+99999098921ADDGF102991999999999999999999
0029028360999991921021013004+67367+026650FM-12+018199999V0202901N006219999999N0000001N9-00561+99999098951ADDGF100991999999999999999999
0029028360999991921021020004+67367+026650FM-12+018199999V0209991C000019999999N0000001N9-00671+99999098781ADDGF108991999999999999999999
0029028360999991921021106004+67367+026650FM-12+018199999V0209991C000019999999N0000001N9-01611+99999097991ADDGF108991999999999999999999
0035028360999991921021113004+67367+026650FM-12+018199999V0201101N002119999999N0000001N9-00831+99999097301ADDGF108991999999999999999999MW1721
0035028360999991921021120004+67367+026650FM-12+018199999V0200501N003119999999N0000001N9-00941+99999097141ADDGF108991999999999999999999MW1721
0029028360999991921021206004+67367+026650FM-12+018199999V0203401N005119999999N0000001N9-01331+99999098471ADDGF100991999999999999999999
0029028360999991921021213004+67367+026650FM-12+018199999V0203201N004119999999N0000001N9-01281+99999098901ADDGF100991999999999999999999
0029028360999991921021220004+67367+026650FM-12+018199999V0209991C000019999999N0000001N9-03001+99999098551ADDGF101991999999999999999999
0029028360999991921021306004+67367+026650FM-12+018199999V0209991C000019999999N0000001N9-02501+99999097661ADDGF107991999999999999999999
0035028360999991921021313004+67367+026650FM-12+018199999V0201601N003119999999N0000001N9-01781+99999096941ADDGF108991999999999999999999MW1721
0035028360999991921021320004+67367+026650FM-12+018199999V0200901N003119999999N0000001N9-01721+99999096471ADDGF104991999999999999999999MW1721
0029028360999991921021406004+67367+026650FM-12+018199999V0200501N005119999999N0000001N9-01891+99999097031ADDGF100991999999999999999999
0029028360999991921021413004+67367+026650FM-12+018199999V0203401N002119999999N0000001N9-01941+99999097661ADDGF100991999999999999999999
0029028360999991921021420004+67367+026650FM-12+018199999V0209991C000019999999N0000001N9-03391+99999098071ADDGF100991999999999999999999
0029028360999991921021506004+67367+026650FM-12+018199999V0209991C000019999999N0000001N9-04171+99999098111ADDGF100991999999999999999999
0029028360999991921021513004+67367+026650FM-12+018199999V0202001N002119999999N0000001N9-01941+99999097721ADDGF108991999999999999999999
0029028360999991921021520004+67367+026650FM-12+018199999V0209991C000019999999N0000001N9-01781+99999097381ADDGF108991999999999999999999
0029028360999991921021606004+67367+026650FM-12+018199999V0201801N003119999999N0000001N9-01501+99999097021ADDGF108991999999999999999999
0029028360999991921021613004+67367+026650FM-12+018199999V0202701N004119999999N0000001N9-01061+99999097201ADDGF107991999999999999999999
0029028360999991921021620004+67367+026650FM-12+018199999V0209991C000019999999N0000001N9-02281+99999097921ADDGF100991999999999999999999
0029028360999991921021706004+67367+026650FM-12+018199999V0209991C000019999999N0000001N9-03561+99999098661ADDGF100991999999999999999999
0029028360999991921021713004+67367+026650FM-12+018199999V0209991C000019999999N0000001N9-01941+99999098841ADDGF108991999999999999999999
0029028360999991921021720004+67367+026650FM-12+018199999V0209991C000019999999N0000001N9-01721+99999098871ADDGF107991999999999999999999
0029028360999991921021806004+67367+026650FM-12+018199999V0209991C000019999999N0000001N9-02281+99999099001ADDGF108991999999999999999999
0029028360999991921021813004+67367+026650FM-12+018199999V0201801N001019999999N0000001N9-01331+99999099041ADDGF108991999999999999999999
0029028360999991921021820004+67367+026650FM-12+018199999V0202301N006219999999N0000001N9-01611+99999098661ADDGF106991999999999999999999
0029028360999991921021906004+67367+026650FM-12+018199999V0209991C000019999999N0000001N9-01781+99999098431ADDGF102991999999999999999999
0029028360999991921021913004+67367+026650FM-12+018199999V0203201N002119999999N0000001N9-00891+99999099081ADDGF106991999999999999999999
0029028360999991921021920004+67367+026650FM-12+018199999V0209991C000019999999N0000001N9-01561+99999099221ADDGF100991999999999999999999
0035028360999991921022006004+67367+026650FM-12+018199999V0202001N002119999999N0000001N9-00891+99999098781ADDGF108991999999999999999999MW1721
0029028360999991921022013004+67367+026650FM-12+018199999V0202301N002119999999N0000001N9-00501+99999098541ADDGF106991999999999999999999
0029028360999991921022020004+67367+026650FM-12+018199999V0202701N006219999999N0000001N9-00221+99999098391ADDGF108991999999999999999999
0029028360999991921022106004+67367+026650FM-12+018199999V0202901N005119999999N0000001N9-00061+99999098791ADDGF105991999999999999999999
0029028360999991921022113004+67367+026650FM-12+018199999V0202701N005119999999N0000001N9+00281+99999099081ADDGF106991999999999999999999
0029028360999991921022120004+67367+026650FM-12+018199999V0202701N003119999999N0000001N9+00001+99999099421ADDGF106991999999999999999999
0029028360999991921022206004+67367+026650FM-12+018199999V0202701N003119999999N0000001N9+00111+99999099511ADDGF108991999999999999999999
0029028360999991921022213004+67367+026650FM-12+018199999V0202701N002119999999N0000001N9+00441+99999099581ADDGF105991999999999999999999
0029028360999991921022220004+67367+026650FM-12+018199999V0202701N001019999999N0000001N9+00061+99999099781ADDGF106991999999999999999999
0029028360999991921022306004+67367+026650FM-12+018199999V0202001N003119999999N0000001N9-00391+99999099621ADDGF107991999999999999999999
0029028360999991921022313004+67367+026650FM-12+018199999V0202301N004119999999N0000001N9+00061+99999099521ADDGF102991999999999999999999
0029028360999991921022320004+67367+026650FM-12+018199999V0200501N001019999999N0000001N9-00721+99999099751ADDGF101991999999999999999999
0029028360999991921022406004+67367+026650FM-12+018199999V0200901N003119999999N0000001N9-01501+99999100391ADDGF101991999999999999999999
0029028360999991921022413004+67367+026650FM-12+018199999V0201601N001019999999N0000001N9-00561+99999100701ADDGF100991999999999999999999
0029028360999991921022420004+67367+026650FM-12+018199999V0201801N002119999999N0000001N9-00561+99999100661ADDGF108991999999999999999999
0035028360999991921022506004+67367+026650FM-12+018199999V0202001N003119999999N0000001N9-00561+99999100301ADDGF108991999999999999999999MW1481
0035028360999991921022513004+67367+026650FM-12+018199999V0202001N003119999999N0000001N9-00391+99999100221ADDGF108991999999999999999999MW1481
0035028360999991921022520004+67367+026650FM-12+018199999V0202001N002119999999N0000001N9-00501+99999099951ADDGF108991999999999999999999MW1481
0029028360999991921022606004+67367+026650FM-12+018199999V0202301N004119999999N0000001N9-00501+99999098921ADDGF108991999999999999999999
0029028360999991921022613004+67367+026650FM-12+018199999V0202701N004119999999N0000001N9-00281+99999098741ADDGF108991999999999999999999
0029028360999991921022620004+67367+026650FM-12+018199999V0209991C000019999999N0000001N9-00721+99999098361ADDGF100991999999999999999999
0029028360999991921022706004+67367+026650FM-12+018199999V0202001N003119999999N0000001N9-00671+99999097831ADDGF108991999999999999999999
0029028360999991921022713004+67367+026650FM-12+018199999V0202001N002119999999N0000001N9-00281+99999097281ADDGF108991999999999999999999
0035028360999991921022720004+67367+026650FM-12+018199999V0209991C000019999999N0000001N9-00331+99999096871ADDGF108991999999999999999999MW1721
0029028360999991921022806004+67367+026650FM-12+018199999V0202901N002119999999N0000001N9-01281+99999097661ADDGF101991999999999999999999
0029028360999991921022813004+67367+026650FM-12+018199999V0202501N003119999999N0000001N9-00781+99999097821ADDGF100991999999999999999999
0035028360999991921022820004+67367+026650FM-12+018199999V0201401N004119999999N0000001N9-00781+99999096861ADDGF108991999999999999999999MW1721
0029028360999991921030106004+67367+026650FM-12+018199999V0202701N001019999999N0000001N9-00781+99999096921ADDGF108991999999999999999999
0029028360999991921030113004+67367+026650FM-12+018199999V0202501N003119999999N0000001N9-00281+99999097111ADDGF107991999999999999999999
0029028360999991921030120004+67367+026650FM-12+018199999V0202701N001019999999N0000001N9-00331+99999097311ADDGF102991999999999999999999
0035028360999991921030206004+67367+026650FM-12+018199999V0201401N002119999999N0000001N9-00331+99999096111ADDGF108991999999999999999999MW1721
0029028360999991921030213004+67367+026650FM-12+018199999V0202301N005119999999N0000001N9+00061+99999095671ADDGF108991999999999999999999
0035028360999991921030220004+67367+026650FM-12+018199999V0203601N004119999999N0000001N9-00721+99999096201ADDGF108991999999999999999999MW1861
0029028360999991921030306004+67367+026650FM-12+018199999V0203601N003119999999N0000001N9-02501+99999097301ADDGF102991999999999999999999
0029028360999991921030313004+67367+026650FM-12+018199999V0203601N001019999999N0000001N9-01171+99999097701ADDGF102991999999999999999999
0029028360999991921030320004+67367+026650FM-12+018199999V0209991C000019999999N0000001N9-02221+99999097841ADDGF102991999999999999999999
0029028360999991921030406004+67367+026650FM-12+018199999V0209991C000019999999N0000001N9-03061+99999097521ADDGF102991999999999999999999
0035028360999991921030413004+67367+026650FM-12+018199999V0200501N002119999999N0000001N9-01281+99999096791ADDGF108991999999999999999999MW1861
0035028360999991921030420004+67367+026650FM-12+018199999V0200901N003119999999N0000001N9-01061+99999095641ADDGF108991999999999999999999MW1861
0035028360999991921030506004+67367+026650FM-12+018199999V0200201N005119999999N0000001N9-01001+99999104661ADDGF108991999999999999999999MW1861
0035028360999991921030513004+67367+026650FM-12+018199999V0203601N006219999999N0000001N9-00831+99999104821ADDGF108991999999999999999999MW1861
0029028360999991921030520004+67367+026650FM-12+018199999V0203601N005119999999N0000001N9-00611+99999095342ADDGF108991999999999999999999
0029028360999991921030606004+67367+026650FM-12+018199999V0203401N006219999999N0000001N9-00941+99999096721ADDGF108991999999999999999999
0029028360999991921030613004+67367+026650FM-12+018199999V0203601N004119999999N0000001N9-00831+99999097591ADDGF102991999999999999999999
0029028360999991921030620004+67367+026650FM-12+018199999V0209991C000019999999N0000001N9-02611+99999098121ADDGF100991999999999999999999
0029028360999991921030706004+67367+026650FM-12+018199999V0203401N001019999999N0000001N9-03781+99999098341ADDGF101991999999999999999999
0029028360999991921030713004+67367+026650FM-12+018199999V0202001N003119999999N0000001N9-01001+99999098261ADDGF101991999999999999999999
0035028360999991921030720004+67367+026650FM-12+018199999V0209991C000019999999N0000001N9-01111+99999098241ADDGF108991999999999999999999MW1701
0035028360999991921030806004+67367+026650FM-12+018199999V0202001N002119999999N0000001N9-01441+99999098341ADDGF108991999999999999999999MW1701
0029028360999991921030813004+67367+026650FM-12+018199999V0202701N001019999999N0000001N9-00831+99999098231ADDGF100991999999999999999999
0029028360999991921030820004+67367+026650FM-12+018199999V0202701N001019999999N0000001N9-02441+99999098241ADDGF100991999999999999999999
0029028360999991921030906004+67367+026650FM-12+018199999V0209991C000019999999N0000001N9-03331+99999098241ADDGF100991999999999999999999
0029028360999991921030913004+67367+026650FM-12+018199999V0201801N001019999999N0000001N9-01281+99999098281ADDGF106991999999999999999999
0029028360999991921030920004+67367+026650FM-12+018199999V0209991C000019999999N0000001N9-01111+99999098231ADDGF108991999999999999999999
0035028360999991921031006004+67367+026650FM-12+018199999V0201401N002119999999N0000001N9-00941+99999097721ADDGF108991999999999999999999MW1721
0035028360999991921031013004+67367+026650FM-12+018199999V0201401N001019999999N0000001N9-00501+99999097911ADDGF106991999999999999999999MW1721
0029028360999991921031020004+67367+026650FM-12+018199999V0201801N001019999999N0000001N9-00501+99999098461ADDGF108991999999999999999999
0029028360999991921031106004+67367+026650FM-12+018199999V0202001N002119999999N0000001N9-00561+99999098901ADDGF108991999999999999999999
0029028360999991921031113004+67367+026650FM-12+018199999V0201601N005119999999N0000001N9-00171+99999098761ADDGF108991999999999999999999
0035028360999991921031120004+67367+026650FM-12+018199999V0201801N002119999999N0000001N9-00111+99999098551ADDGF108991999999999999999999MW1721
0029028360999991921031206004+67367+026650FM-12+018199999V0202301N005119999999N0000001N9+00111+99999098031ADDGF108991999999999999999999
0029028360999991921031213004+67367+026650FM-12+018199999V0202301N004119999999N0000001N9+00111+99999098001ADDGF105991999999999999999999
0029028360999991921031220004+67367+026650FM-12+018199999V0202501N007219999999N0000001N9+00281+99999098591ADDGF108991999999999999999999
0029028360999991921031306004+67367+026650FM-12+018199999V0201801N003119999999N0000001N9-00721+99999099641ADDGF102991999999999999999999
0029028360999991921031313004+67367+026650FM-12+018199999V0202001N005119999999N0000001N9+00501+99999099781ADDGF100991999999999999999999
0029028360999991921031320004+67367+026650FM-12+018199999V0202301N003119999999N0000001N9+00061+99999099821ADDGF100991999999999999999999
0029028360999991921031406004+67367+026650FM-12+018199999V0202001N003119999999N0000001N9-00111+99999099921ADDGF108991999999999999999999
0029028360999991921031413004+67367+026650FM-12+018199999V0202001N005119999999N0000001N9+00001+99999099911ADDGF108991999999999999999999
0029028360999991921031420004+67367+026650FM-12+018199999V0202001N004119999999N0000001N9-00331+99999099881ADDGF108991999999999999999999
0029028360999991921031506004+67367+026650FM-12+018199999V0201801N003119999999N0000001N9-00111+99999099471ADDGF108991999999999999999999
0029028360999991921031513004+67367+026650FM-12+018199999V0202301N003119999999N0000001N9+00001+99999099461ADDGF108991999999999999999999
0029028360999991921031520004+67367+026650FM-12+018199999V0202501N002119999999N0000001N9-00111+99999099661ADDGF108991999999999999999999
0029028360999991921031606004+67367+026650FM-12+018199999V0202301N002119999999N0000001N9-00171+99999099431ADDGF108991999999999999999999
0029028360999991921031613004+67367+026650FM-12+018199999V0202001N003119999999N0000001N9+00001+99999099431ADDGF108991999999999999999999
0029028360999991921031620004+67367+026650FM-12+018199999V0209991C000019999999N0000001N9-00221+99999099301ADDGF100991999999999999999999
0035028360999991921031706004+67367+026650FM-12+018199999V0201401N004119999999N0000001N9-00171+99999098761ADDGF108991999999999999999999MW1721
0029028360999991921031713004+67367+026650FM-12+018199999V0202501N004119999999N0000001N9+00221+99999098391ADDGF108991999999999999999999
0029028360999991921031720004+67367+026650FM-12+018199999V0202001N003119999999N0000001N9+00061+99999098351ADDGF101991999999999999999999
0029028360999991921031806004+67367+026650FM-12+018199999V0202701N004119999999N0000001N9+00061+99999098401ADDGF104991999999999999999999
0029028360999991921031813004+67367+026650FM-12+018199999V0202901N011819999999N0000001N9+00441+99999098751ADDGF106991999999999999999999
0029028360999991921031820004+67367+026650FM-12+018199999V0202701N005119999999N0000001N9+00171+99999099271ADDGF101991999999999999999999
0029028360999991921031906004+67367+026650FM-12+018199999V0209991C000019999999N0000001N9-01171+99999099421ADDGF102991999999999999999999
0029028360999991921031913004+67367+026650FM-12+018199999V0201401N001019999999N0000001N9+00331+99999099081ADDGF107991999999999999999999
0029028360999991921031920004+67367+026650FM-12+018199999V0209991C000019999999N0000001N9+00001+99999098581ADDGF108991999999999999999999
0029028360999991921032006004+67367+026650FM-12+018199999V0201101N003119999999N0000001N9-00061+99999097941ADDGF108991999999999999999999
0035028360999991921032013004+67367+026650FM-12+018199999V0201401N004119999999N0000001N9+00061+99999097911ADDGF108991999999999999999999MW1721
0029028360999991921032020004+67367+026650FM-12+018199999V0200901N002119999999N0000001N9-00171+99999098041ADDGF108991999999999999999999
0029028360999991921032106004+67367+026650FM-12+018199999V0201101N002119999999N0000001N9-00441+99999098201ADDGF108991999999999999999999
0029028360999991921032113004+67367+026650FM-12+018199999V0200901N001019999999N0000001N9-00171+99999098231ADDGF108991999999999999999999
0029028360999991921032120004+67367+026650FM-12+018199999V0201401N003119999999N0000001N9-00221+99999098231ADDGF108991999999999999999999
0035028360999991921032206004+67367+026650FM-12+018199999V0201601N003119999999N0000001N9-00331+99999098181ADDGF108991999999999999999999MW1721
0035028360999991921032213004+67367+026650FM-12+018199999V0201601N004119999999N0000001N9-00061+99999097861ADDGF108991999999999999999999MW1721
0035028360999991921032220004+67367+026650FM-12+018199999V0201401N005119999999N0000001N9-00171+99999097561ADDGF108991999999999999999999MW1721
0029028360999991921032306004+67367+026650FM-12+018199999V0201401N001019999999N0000001N9-00171+99999097241ADDGF108991999999999999999999
0035028360999991921032313004+67367+026650FM-12+018199999V0201401N001019999999N0000001N9+00171+99999097481ADDGF108991999999999999999999MW1721
0029028360999991921032320004+67367+026650FM-12+018199999V0209991C000019999999N0000001N9-00891+99999097701ADDGF100991999999999999999999
0029028360999991921032406004+67367+026650FM-12+018199999V0209991C000019999999N0000001N9-01061+99999097351ADDGF107991999999999999999999
0029028360999991921032413004+67367+026650FM-12+018199999V0201601N002119999999N0000001N9+00221+99999097191ADDGF106991999999999999999999
0035028360999991921032420004+67367+026650FM-12+018199999V0201801N003119999999N0000001N9+00001+99999096921ADDGF108991999999999999999999MW1701
0029028360999991921032506004+67367+026650FM-12+018199999V0201601N002119999999N0000001N9+00001+99999096441ADDGF108991999999999999999999
0029028360999991921032513004+67367+026650FM-12+018199999V0202301N003119999999N0000001N9+00281+99999096501ADDGF108991999999999999999999
0029028360999991921032520004+67367+026650FM-12+018199999V0202701N005119999999N0000001N9+00221+99999096741ADDGF108991999999999999999999
0029028360999991921032606004+67367+026650FM-12+018199999V0202701N004119999999N0000001N9-00221+99999097431ADDGF106991999999999999999999
0029028360999991921032613004+67367+026650FM-12+018199999V0202501N005119999999N0000001N9+00281+99999097761ADDGF102991999999999999999999
0035028360999991921032620004+67367+026650FM-12+018199999V0202701N003119999999N0000001N9-00281+99999098041ADDGF101991999999999999999999MW1001
0029028360999991921032706004+67367+026650FM-12+018199999V0209991C000019999999N0000001N9-01391+99999098311ADDGF100991999999999999999999
0029028360999991921032713004+67367+026650FM-12+018199999V0202301N001019999999N0000001N9+00391+99999098361ADDGF100991999999999999999999
0029028360999991921032720004+67367+026650FM-12+018199999V0209991C000019999999N0000001N9-01061+99999098281ADDGF100991999999999999999999
0029028360999991921032806004+67367+026650FM-12+018199999V0202301N001019999999N0000001N9-01561+99999097861ADDGF108991999999999999999999
0035028360999991921032813004+67367+026650FM-12+018199999V0201101N006219999999N0000001N9-00221+99999097181ADDGF108991999999999999999999MW1861
0035028360999991921032820004+67367+026650FM-12+018199999V0200901N003119999999N0000001N9-00221+99999096761ADDGF108991999999999999999999MW1721
0029028360999991921032906004+67367+026650FM-12+018199999V0201101N002119999999N0000001N9-00111+99999096581ADDGF108991999999999999999999
0035028360999991921032913004+67367+026650FM-12+018199999V0201401N001019999999N0000001N9+00001+99999096601ADDGF107991999999999999999999MW1721
0029028360999991921032920004+67367+026650FM-12+018199999V0209991C000019999999N0000001N9-00501+99999096951ADDGF107991999999999999999999
0029028360999991921033006004+67367+026650FM-12+018199999V0201801N004119999999N0000001N9-00171+99999097081ADDGF108991999999999999999999
0035028360999991921033013004+67367+026650FM-12+018199999V0209991C000019999999N0000001N9+00001+99999096681ADDGF108991999999999999999999MW1721
0029028360999991921033020004+67367+026650FM-12+018199999V0209991C000019999999N0000001N9-00281+99999096791ADDGF106991999999999999999999
0029028360999991921033106004+67367+026650FM-12+018199999V0209991C000019999999N0000001N9-00611+99999096761ADDGF108991999999999999999999
0029028360999991921033113004+67367+026650FM-12+018199999V0203601N004119999999N0000001N9-00111+99999096791ADDGF108991999999999999999999
0029028360999991921033120004+67367+026650FM-12+018199999V0203601N003119999999N0000001N9-00501+99999096991ADDGF102991999999999999999999
0029028360999991921040106004+67367+026650FM-12+018199999V0203401N001019999999N0000001N9-01171+99999097781ADDGF100991999999999999999999
0029028360999991921040113004+67367+026650FM-12+018199999V0203401N005119999999N0000001N9+00171+99999098381ADDGF106991999999999999999999
0029028360999991921040120004+67367+026650FM-12+018199999V0209991C000019999999N0000001N9-01281+99999098751ADDGF100991999999999999999999
0029028360999991921040206004+67367+026650FM-12+018199999V0202301N005119999999N0000001N9-00331+99999098421ADDGF108991999999999999999999
0029028360999991921040213004+67367+026650FM-12+018199999V0202301N008219999999N0000001N9+00111+99999098111ADDGF108991999999999999999999
0029028360999991921040220004+67367+026650FM-12+018199999V0202001N007219999999N0000001N9+00221+99999097461ADDGF104991999999999999999999
0029028360999991921040306004+67367+026650FM-12+018199999V0202301N008219999999N0000001N9+00441+99999097461ADDGF104991999999999999999999
0029028360999991921040313004+67367+026650FM-12+018199999V0202501N005119999999N0000001N9+00611+99999097921ADDGF108991999999999999999999
0029028360999991921040320004+67367+026650FM-12+018199999V0202301N005119999999N0000001N9+00441+99999098071ADDGF108991999999999999999999
0029028360999991921040406004+67367+026650FM-12+018199999V0202001N009819999999N0000001N9+00221+99999097781ADDGF108991999999999999999999
0029028360999991921040413004+67367+026650FM-12+018199999V0202001N006219999999N0000001N9+00441+99999097801ADDGF106991999999999999999999
0035028360999991921040420004+67367+026650FM-12+018199999V0202001N004119999999N0000001N9+00281+99999097881ADDGF108991999999999999999999MW1621
0035028360999991921040506004+67367+026650FM-12+018199999V0201801N006219999999N0000001N9+00111+99999097241ADDGF108991999999999999999999MW1861
0029028360999991921040513004+67367+026650FM-12+018199999V0202301N007219999999N0000001N9+00221+99999097401ADDGF106991999999999999999999
0029028360999991921040520004+67367+026650FM-12+018199999V0202501N003119999999N0000001N9-00111+99999098021ADDGF102991999999999999999999
0029028360999991921040606004+67367+026650FM-12+018199999V0209991C000019999999N0000001N9-00331+99999098951ADDGF108991999999999999999999
0029028360999991921040613004+67367+026650FM-12+018199999V0203601N003119999999N0000001N9+00441+99999099781ADDGF105991999999999999999999
0029028360999991921040620004+67367+026650FM-12+018199999V0203601N006219999999N0000001N9-00111+99999100661ADDGF108991999999999999999999
0035028360999991921040706004+67367+026650FM-12+018199999V0202701N002119999999N0000001N9-00171+99999101031ADDGF108991999999999999999999MW1721
0029028360999991921040713004+67367+026650FM-12+018199999V0202301N007219999999N0000001N9+00221+99999100631ADDGF108991999999999999999999
0029028360999991921040720004+67367+026650FM-12+018199999V0202301N004119999999N0000001N9+00061+99999100321ADDGF102991999999999999999999
0029028360999991921040806004+67367+026650FM-12+018199999V0202701N005119999999N0000001N9+00391+99999100681ADDGF101991999999999999999999
0029028360999991921040813004+67367+026650FM-12+018199999V0203201N002119999999N0000001N9+00441+99999101541ADDGF105991999999999999999999
0029028360999991921040820004+67367+026650FM-12+018199999V0209991C000019999999N0000001N9-00171+99999101941ADDGF101991999999999999999999
0029028360999991921040906004+67367+026650FM-12+018199999V0201801N001019999999N0000001N9+00221+99999101541ADDGF106991999999999999999999
0029028360999991921040913004+67367+026650FM-12+018199999V0202701N005119999999N0000001N9+00891+99999101001ADDGF106991999999999999999999
0029028360999991921040920004+67367+026650FM-12+018199999V0202301N004119999999N0000001N9+00671+99999100541ADDGF108991999999999999999999
0029028360999991921041006004+67367+026650FM-12+018199999V0202701N004119999999N0000001N9+00331+99999100391ADDGF107991999999999999999999
0029028360999991921041013004+67367+026650FM-12+018199999V0202501N005119999999N0000001N9+00561+99999100021ADDGF106991999999999999999999
0029028360999991921041020004+67367+026650FM-12+018199999V0202301N005119999999N0000001N9+00441+99999099441ADDGF108991999999999999999999
0029028360999991921041106004+67367+026650FM-12+018199999V0202701N001019999999N0000001N9+00281+99999098911ADDGF108991999999999999999999
0035028360999991921041113004+67367+026650FM-12+018199999V0203601N004119999999N0000001N9+00171+99999098961ADDGF108991999999999999999999MW1621
0029028360999991921041120004+67367+026650FM-12+018199999V0209991C000019999999N0000001N9-00281+99999099201ADDGF106991999999999999999999
0029028360999991921041206004+67367+026650FM-12+018199999V0203401N001019999999N0000001N9-00281+99999099021ADDGF105991999999999999999999
0029028360999991921041213004+67367+026650FM-12+018199999V0201401N002119999999N0000001N9+00331+99999098281ADDGF108991999999999999999999
0035028360999991921041220004+67367+026650FM-12+018199999V0201601N005119999999N0000001N9+00061+99999097191ADDGF108991999999999999999999MW1691
0029028360999991921041306004+67367+026650FM-12+018199999V0202301N002119999999N0000001N9+00061+99999096391ADDGF101991999999999999999999
0029028360999991921041313004+67367+026650FM-12+018199999V0202301N004119999999N0000001N9+00441+99999096201ADDGF102991999999999999999999
0029028360999991921041320004+67367+026650FM-12+018199999V0201801N002119999999N0000001N9+00061+99999096121ADDGF100991999999999999999999
0029028360999991921041406004+67367+026650FM-12+018199999V0201801N002119999999N0000001N9-00281+99999096101ADDGF100991999999999999999999
0029028360999991921041413004+67367+026650FM-12+018199999V0202001N004119999999N0000001N9+00501+99999096261ADDGF101991999999999999999999
0029028360999991921041420004+67367+026650FM-12+018199999V0209991C000019999999N0000001N9-00171+99999096631ADDGF102991999999999999999999
0029028360999991921041506004+67367+026650FM-12+018199999V0209991C000019999999N0000001N9-00221+99999097081ADDGF106991999999999999999999
0029028360999991921041513004+67367+026650FM-12+018199999V0200701N002119999999N0000001N9+00441+99999096941ADDGF108991999999999999999999
0035028360999991921041520004+67367+026650FM-12+018199999V0200701N006219999999N0000001N9+00001+99999096261ADDGF108991999999999999999999MW1721
0035028360999991921041606004+67367+026650FM-12+018199999V0201601N001019999999N0000001N9+00061+99999095941ADDGF108991999999999999999999MW1701
0035028360999991921041613004+67367+026650FM-12+018199999V0202501N007219999999N0000001N9+00111+99999096341ADDGF106991999999999999999999MW1701
0035028360999991921041620004+67367+026650FM-12+018199999V0202001N003119999999N0000001N9-00061+99999097191ADDGF108991999999999999999999MW1701
0029028360999991921041706004+67367+026650FM-12+018199999V0202301N001019999999N0000001N9-00221+99999097781ADDGF106991999999999999999999
0029028360999991921041713004+67367+026650FM-12+018199999V0202301N001019999999N0000001N9+00281+99999098541ADDGF107991999999999999999999
0029028360999991921041720004+67367+026650FM-12+018199999V0209991C000019999999N0000001N9-00061+99999099081ADDGF108991999999999999999999
0029028360999991921041806004+67367+026650FM-12+018199999V0200901N001019999999N0000001N9-00061+99999099381ADDGF105991999999999999999999
0029028360999991921041813004+67367+026650FM-12+018199999V0201101N002119999999N0000001N9+00501+99999099311ADDGF108991999999999999999999
0029028360999991921041820004+67367+026650FM-12+018199999V0201101N004119999999N0000001N9+00171+99999099321ADDGF108991999999999999999999
0035028360999991921041906004+67367+026650FM-12+018199999V0200501N003119999999N0000001N9-00171+99999098841ADDGF108991999999999999999999MW1721
0035028360999991921041913004+67367+026650FM-12+018199999V0200901N002119999999N0000001N9+00001+99999098741ADDGF108991999999999999999999MW1721
0029028360999991921041920004+67367+026650FM-12+018199999V0201401N001019999999N0000001N9+00221+99999099191ADDGF108991999999999999999999
0029028360999991921042006004+67367+026650FM-12+018199999V0202001N003119999999N0000001N9+00331+99999099591ADDGF108991999999999999999999
0029028360999991921042013004+67367+026650FM-12+018199999V0202001N002119999999N0000001N9+00561+99999100031ADDGF106991999999999999999999
0029028360999991921042020004+67367+026650FM-12+018199999V0209991C000019999999N0000001N9-00171+99999100311ADDGF101991999999999999999999
0035028360999991921042106004+67367+026650FM-12+018199999V0209991C000019999999N0000001N9-00061+99999100281ADDGF108991999999999999999999MW1721
0029028360999991921042113004+67367+026650FM-12+018199999V0200501N002119999999N0000001N9+00331+99999099961ADDGF108991999999999999999999
0035028360999991921042120004+67367+026650FM-12+018199999V0209991C000019999999N0000001N9+00171+99999099801ADDGF108991999999999999999999MW1601
0029028360999991921042206004+67367+026650FM-12+018199999V0209991C000019999999N0000001N9+00221+99999099401ADDGF108991999999999999999999
0029028360999991921042213004+67367+026650FM-12+018199999V0202701N001019999999N0000001N9+00781+99999099751ADDGF106991999999999999999999
0029028360999991921042220004+67367+026650FM-12+018199999V0201601N002119999999N0000001N9+00391+99999100141ADDGF102991999999999999999999
0029028360999991921042306004+67367+026650FM-12+018199999V0201601N002119999999N0000001N9+00281+99999100361ADDGF107991999999999999999999
0029028360999991921042313004+67367+026650FM-12+018199999V0202501N003119999999N0000001N9+00831+99999100661ADDGF100991999999999999999999
0029028360999991921042320004+67367+026650FM-12+018199999V0209991C000019999999N0000001N9+00171+99999101061ADDGF100991999999999999999999
0029028360999991921042406004+67367+026650FM-12+018199999V0201801N001019999999N0000001N9+00391+99999101481ADDGF100991999999999999999999
0029028360999991921042413004+67367+026650FM-12+018199999V0202001N002119999999N0000001N9+01221+99999101581ADDGF100991999999999999999999
0029028360999991921042420004+67367+026650FM-12+018199999V0202001N001019999999N0000001N9+00281+99999101701ADDGF100991999999999999999999
0029028360999991921042506004+67367+026650FM-12+018199999V0201801N001019999999N0000001N9+00561+99999102121ADDGF100991999999999999999999
0029028360999991921042513004+67367+026650FM-12+018199999V0209991C000019999999N0000001N9+01611+99999102201ADDGF100991999999999999999999
0029028360999991921042520004+67367+026650FM-12+018199999V0209991C000019999999N0000001N9+00391+99999102221ADDGF100991999999999999999999
0029028360999991921042606004+67367+026650FM-12+018199999V0209991C000019999999N0000001N9+00721+99999102201ADDGF100991999999999999999999
0029028360999991921042613004+67367+026650FM-12+018199999V0209991C000019999999N0000001N9+01671+99999102041ADDGF108991999999999999999999
0029028360999991921042620004+67367+026650FM-12+018199999V0202701N001019999999N0000001N9+00671+99999101881ADDGF108991999999999999999999
0029028360999991921042706004+67367+026650FM-12+018199999V0209991C000019999999N0000001N9+00671+99999101681ADDGF106991999999999999999999
0029028360999991921042713004+67367+026650FM-12+018199999V0203401N004119999999N0000001N9+01671+99999101581ADDGF102991999999999999999999
0029028360999991921042720004+67367+026650FM-12+018199999V0209991C000019999999N0000001N9+00561+99999101231ADDGF100991999999999999999999
0029028360999991921042806004+67367+026650FM-12+018199999V0209991C000019999999N0000001N9+00501+99999100661ADDGF108991999999999999999999
0029028360999991921042813004+67367+026650FM-12+018199999V0203601N004119999999N0000001N9+00331+99999100991ADDGF108991999999999999999999
0029028360999991921042820004+67367+026650FM-12+018199999V0200501N004119999999N0000001N9+00001+99999101441ADDGF106991999999999999999999
0029028360999991921042906004+67367+026650FM-12+018199999V0202701N001019999999N0000001N9-00111+99999101361ADDGF106991999999999999999999
0029028360999991921042913004+67367+026650FM-12+018199999V0202701N006219999999N0000001N9+00561+99999100841ADDGF106991999999999999999999
0029028360999991921042920004+67367+026650FM-12+018199999V0202701N003119999999N0000001N9+00561+99999100231ADDGF108991999999999999999999
0029028360999991921043006004+67367+026650FM-12+018199999V0203201N002119999999N0000001N9+00331+99999100181ADDGF108991999999999999999999
0029028360999991921043013004+67367+026650FM-12+018199999V0203201N004119999999N0000001N9+00441+99999100231ADDGF108991999999999999999999
0029028360999991921043020004+67367+026650FM-12+018199999V0209991C000019999999N0000001N9+00111+99999099961ADDGF108991999999999999999999
0029028360999991921050106004+67367+026650FM-12+018199999V0209991C000019999999N0000001N9+00171+99999098921ADDGF108991999999999999999999
0029028360999991921050113004+67367+026650FM-12+018199999V0209991C000019999999N0000001N9+00611+99999098601ADDGF108991999999999999999999
0029028360999991921050120004+67367+026650FM-12+018199999V0209991C000019999999N0000001N9+00441+99999098231ADDGF108991999999999999999999
0035028360999991921050206004+67367+026650FM-12+018199999V0203401N001019999999N0000001N9+00061+99999098021ADDGF108991999999999999999999MW1601
0035028360999991921050213004+67367+026650FM-12+018199999V0203601N002119999999N0000001N9+00441+99999097991ADDGF108991999999999999999999MW1621
0029028360999991921050220004+67367+026650FM-12+018199999V0200501N002119999999N0000001N9+00171+99999097951ADDGF108991999999999999999999
0035028360999991921050306004+67367+026650FM-12+018199999V0200901N004119999999N0000001N9-00221+99999097681ADDGF108991999999999999999999MW1721
0035028360999991921050313004+67367+026650FM-12+018199999V0200901N003119999999N0000001N9-00061+99999097621ADDGF108991999999999999999999MW1721
0035028360999991921050320004+67367+026650FM-12+018199999V0209991C000019999999N0000001N9+00001+99999097511ADDGF108991999999999999999999MW1721
0029028360999991921050406004+67367+026650FM-12+018199999V0209991C000019999999N0000001N9-00111+99999097431ADDGF108991999999999999999999
0029028360999991921050413004+67367+026650FM-12+018199999V0201801N002119999999N0000001N9+00671+99999097431ADDGF106991999999999999999999
0029028360999991921050420004+67367+026650FM-12+018199999V0202001N003119999999N0000001N9+00281+99999097621ADDGF100991999999999999999999
0029028360999991921050506004+67367+026650FM-12+018199999V0209991C000019999999N0000001N9+00331+99999097801ADDGF101991999999999999999999
0029028360999991921050513004+67367+026650FM-12+018199999V0202701N004119999999N0000001N9+00941+99999097961ADDGF101991999999999999999999
0029028360999991921050520004+67367+026650FM-12+018199999V0209991C000019999999N0000001N9+00281+99999098391ADDGF101991999999999999999999
0029028360999991921050606004+67367+026650FM-12+018199999V0202901N002119999999N0000001N9+00501+99999098831ADDGF100991999999999999999999
0029028360999991921050613004+67367+026650FM-12+018199999V0203201N002119999999N0000001N9+00831+99999099041ADDGF106991999999999999999999
0029028360999991921050620004+67367+026650FM-12+018199999V0200701N001019999999N0000001N9+00331+99999098871ADDGF105991999999999999999999
0052028360999991921050706004+67367+026650FM-12+018199999V0209991C000019999999N0000001N9+00331+99999098381ADDAJ100009199999999GF108991999999999999999999MW1601
0029028360999991921050713004+67367+026650FM-12+018199999V0202901N004119999999N0000001N9+00781+99999098111ADDGF106991999999999999999999
0029028360999991921050720004+67367+026650FM-12+018199999V0202701N001019999999N0000001N9+00221+99999098231ADDGF102991999999999999999999
0052028360999991921050806004+67367+026650FM-12+018199999V0201601N004119999999N0000001N9+00171+99999098481ADDAJ100009199999999GF108991999999999999999999MW1691
0029028360999991921050813004+67367+026650FM-12+018199999V0201801N005119999999N0000001N9+00391+99999098401ADDGF108991999999999999999999
0029028360999991921050820004+67367+026650FM-12+018199999V0201801N004119999999N0000001N9+00611+99999098281ADDGF108991999999999999999999
0052028360999991921050906004+67367+026650FM-12+018199999V0202001N004119999999N0000001N9+00441+99999098401ADDAJ100009199999999GF108991999999999999999999MW1621
0035028360999991921050913004+67367+026650FM-12+018199999V0209991C000019999999N0000001N9+00391+99999098741ADDGF108991999999999999999999MW1621
0035028360999991921050920004+67367+026650FM-12+018199999V0203601N001019999999N0000001N9+00061+99999098901ADDGF108991999999999999999999MW1721
0046028360999991921051006004+67367+026650FM-12+018199999V0203601N003119999999N0000001N9+00171+99999099711ADDAJ100009199999999GF100991999999999999999999
0029028360999991921051013004+67367+026650FM-12+018199999V0209991C000019999999N0000001N9+00671+99999100141ADDGF101991999999999999999999
0029028360999991921051020004+67367+026650FM-12+018199999V0209991C000019999999N0000001N9+00561+99999100231ADDGF103991999999999999999999
0046028360999991921051106004+67367+026650FM-12+018199999V0200901N003119999999N0000001N9+00441+99999099921ADDAJ100009199999999GF108991999999999999999999
0029028360999991921051113004+67367+026650FM-12+018199999V0201101N003119999999N0000001N9+00671+99999099911ADDGF108991999999999999999999
0029028360999991921051120004+67367+026650FM-12+018199999V0201401N002119999999N0000001N9+00441+99999099911ADDGF102991999999999999999999
0046028360999991921051206004+67367+026650FM-12+018199999V0201601N004119999999N0000001N9+00001+99999099961ADDAJ100009199999999GF108991999999999999999999
0029028360999991921051213004+67367+026650FM-12+018199999V0200901N001019999999N0000001N9+00781+99999099911ADDGF107991999999999999999999
0029028360999991921051220004+67367+026650FM-12+018199999V0209991C000019999999N0000001N9+00561+99999099781ADDGF107991999999999999999999
0046028360999991921051306004+67367+026650FM-12+018199999V0202001N001019999999N0000001N9+00501+99999099701ADDAJ100009199999999GF108991999999999999999999
0029028360999991921051313004+67367+026650FM-12+018199999V0202501N002119999999N0000001N9+00721+99999099641ADDGF108991999999999999999999
0029028360999991921051320004+67367+026650FM-12+018199999V0200901N001019999999N0000001N9+00611+99999099521ADDGF108991999999999999999999
0046028360999991921051406004+67367+026650FM-12+018199999V0209991C000019999999N0000001N9+00561+99999099261ADDAJ100009199999999GF108991999999999999999999
0035028360999991921051413004+67367+026650FM-12+018199999V0201801N001019999999N0000001N9+00781+99999098921ADDGF108991999999999999999999MW1621
0029028360999991921051420004+67367+026650FM-12+018199999V0209991C000019999999N0000001N9+00501+99999099041ADDGF102991999999999999999999
0046028360999991921051506004+67367+026650FM-12+018199999V0201801N002119999999N0000001N9+00781+99999099161ADDAJ100009199999999GF108991999999999999999999
0035028360999991921051513004+67367+026650FM-12+018199999V0202001N004119999999N0000001N9+01061+99999099061ADDGF108991999999999999999999MW1601
0035028360999991921051520004+67367+026650FM-12+018199999V0202001N003119999999N0000001N9+00891+99999098841ADDGF108991999999999999999999MW1601
0046028360999991921051606004+67367+026650FM-12+018199999V0202701N003119999999N0000001N9+00941+99999098711ADDAJ100009199999999GF103991999999999999999999
0029028360999991921051613004+67367+026650FM-12+018199999V0202701N003119999999N0000001N9+01221+99999098801ADDGF108991999999999999999999
0029028360999991921051620004+67367+026650FM-12+018199999V02099999999999999999N0000001N9+01001+99999098841ADDGF102991999999999999999999
0046028360999991921051706004+67367+026650FM-12+018199999V0203401N003119999999N0000001N9+00671+99999099221ADDAJ100009199999999GF100991999999999999999999
0029028360999991921051713004+67367+026650FM-12+018199999V0203401N002119999999N0000001N9+01001+99999099541ADDGF107991999999999999999999
0029028360999991921051720004+67367+026650FM-12+018199999V0209991C000019999999N0000001N9+00611+99999099721ADDGF100991999999999999999999
0046028360999991921051806004+67367+026650FM-12+018199999V0201801N003119999999N0000001N9+00941+99999099801ADDAJ100009199999999GF101991999999999999999999
0029028360999991921051813004+67367+026650FM-12+018199999V0201801N004119999999N0000001N9+01671+99999099671ADDGF102991999999999999999999
0029028360999991921051820004+67367+026650FM-12+018199999V0201801N003119999999N0000001N9+01111+99999099551ADDGF105991999999999999999999
0046028360999991921051906004+67367+026650FM-12+018199999V0202001N004119999999N0000001N9+00941+99999099541ADDAJ100009199999999GF108991999999999999999999
0029028360999991921051913004+67367+026650FM-12+018199999V0202001N003119999999N0000001N9+01171+99999099641ADDGF108991999999999999999999
0029028360999991921051920004+67367+026650FM-12+018199999V0202001N004119999999N0000001N9+00831+99999099481ADDGF108991999999999999999999
0052028360999991921052006004+67367+026650FM-12+018199999V0201801N004119999999N0000001N9+00831+99999099071ADDAJ100009199999999GF108991999999999999999999MW1621
0029028360999991921052013004+67367+026650FM-12+018199999V0202001N006219999999N0000001N9+01221+99999099041ADDGF106991999999999999999999
0029028360999991921052020004+67367+026650FM-12+018199999V0201801N003119999999N0000001N9+01001+99999098951ADDGF107991999999999999999999
0046028360999991921052106004+67367+026650FM-12+018199999V0201801N006219999999N0000001N9+01221+99999098381ADDAJ100009199999999GF106991999999999999999999
0035028360999991921052113004+67367+026650FM-12+018199999V0202501N006219999999N0000001N9+01441+99999098101ADDGF107991999999999999999999MW1171
0029028360999991921052120004+67367+026650FM-12+018199999V0203201N003119999999N0000001N9+00501+99999098951ADDGF106991999999999999999999
0046028360999991921052206004+67367+026650FM-12+018199999V0202701N003119999999N0000001N9+00721+99999099401ADDAJ100009199999999GF105991999999999999999999
0029028360999991921052213004+67367+026650FM-12+018199999V0202901N006219999999N0000001N9+00941+99999098981ADDGF108991999999999999999999
0029028360999991921052220004+67367+026650FM-12+018199999V0202001N003119999999N0000001N9+00721+99999098631ADDGF105991999999999999999999
0046028360999991921052306004+67367+026650FM-12+018199999V0202301N006219999999N0000001N9+00891+99999098201ADDAJ100009199999999GF101991999999999999999999
0029028360999991921052313004+67367+026650FM-12+018199999V0203201N007219999999N0000001N9+00941+99999098601ADDGF108991999999999999999999
0029028360999991921052320004+67367+026650FM-12+018199999V0203201N004119999999N0000001N9+00561+99999099111ADDGF103991999999999999999999
0046028360999991921052406004+67367+026650FM-12+018199999V0202901N004119999999N0000001N9+00501+99999099481ADDAJ100009199999999GF101991999999999999999999
0029028360999991921052413004+67367+026650FM-12+018199999V0202301N003119999999N0000001N9+00941+99999099391ADDGF102991999999999999999999
0029028360999991921052420004+67367+026650FM-12+018199999V0201801N004119999999N0000001N9+00501+99999098741ADDGF108991999999999999999999
0046028360999991921052506004+67367+026650FM-12+018199999V0202701N004119999999N0000001N9+00781+99999098181ADDAJ100009199999999GF101991999999999999999999
0035028360999991921052513004+67367+026650FM-12+018199999V0202901N006219999999N0000001N9+01171+99999098161ADDGF108991999999999999999999MW1621
0029028360999991921052520004+67367+026650FM-12+018199999V0202901N002119999999N0000001N9+00891+99999098751ADDGF100991999999999999999999
0046028360999991921052606004+67367+026650FM-12+018199999V0202301N001019999999N0000001N9+00891+99999099361ADDAJ100009199999999GF106991999999999999999999
0029028360999991921052613004+67367+026650FM-12+018199999V0201801N001019999999N0000001N9+01671+99999099321ADDGF102991999999999999999999
0046028360999991921052706004+67367+026650FM-12+018199999V0202001N008219999999N0000001N9+01611+99999098711ADDAJ100009199999999GF102991999999999999999999
0029028360999991921052713004+67367+026650FM-12+018199999V0202301N008219999999N0000001N9+02171+99999098741ADDGF102991999999999999999999
0029028360999991921052720004+67367+026650FM-12+018199999V0202301N006219999999N0000001N9+01781+99999098661ADDGF102991999999999999999999
0046028360999991921052806004+67367+026650FM-12+018199999V0202001N004119999999N0000001N9+01611+99999098631ADDAJ100009199999999GF100991999999999999999999
0029028360999991921052813004+67367+026650FM-12+018199999V0202301N008219999999N0000001N9+02331+99999098471ADDGF100991999999999999999999
0029028360999991921052820004+67367+026650FM-12+018199999V0202001N004119999999N0000001N9+02001+99999098311ADDGF106991999999999999999999
0046028360999991921052906004+67367+026650FM-12+018199999V0202001N005119999999N0000001N9+01721+99999098261ADDAJ100009199999999GF101991999999999999999999
0029028360999991921052913004+67367+026650FM-12+018199999V0202001N004119999999N0000001N9+02171+99999098261ADDGF102991999999999999999999
0029028360999991921052920004+67367+026650FM-12+018199999V0201801N003119999999N0000001N9+01721+99999098221ADDGF103991999999999999999999
0046028360999991921053006004+67367+026650FM-12+018199999V0201801N008219999999N0000001N9+01441+99999098181ADDAJ100009199999999GF101991999999999999999999
0029028360999991921053013004+67367+026650FM-12+018199999V0202301N008219999999N0000001N9+01671+99999098391ADDGF102991999999999999999999
0029028360999991921053020004+67367+026650FM-12+018199999V0202501N008219999999N0000001N9+00891+99999098881ADDGF108991999999999999999999
0046028360999991921053106004+67367+026650FM-12+018199999V0202301N003119999999N0000001N9+01001+99999099841ADDAJ100009199999999GF100991999999999999999999
0029028360999991921053113004+67367+026650FM-12+018199999V0202001N008219999999N0000001N9+01561+99999099721ADDGF107991999999999999999999
0029028360999991921053120004+67367+026650FM-12+018199999V0201801N004119999999N0000001N9+01501+99999099581ADDGF105991999999999999999999
0052028360999991921060106004+67367+026650FM-12+018199999V0201801N005119999999N0000001N9+01331+99999099151ADDAJ100009199999999GF108991999999999999999999MW1621
0029028360999991921060113004+67367+026650FM-12+018199999V0202001N008219999999N0000001N9+01891+99999099141ADDGF102991999999999999999999
0029028360999991921060120004+67367+026650FM-12+018199999V0202301N002119999999N0000001N9+01331+99999099401ADDGF101991999999999999999999
0046028360999991921060206004+67367+026650FM-12+018199999V0202701N004119999999N0000001N9+01221+99999099991ADDAJ100009199999999GF100991999999999999999999
0029028360999991921060213004+67367+026650FM-12+018199999V0203201N003119999999N0000001N9+01671+99999100111ADDGF106991999999999999999999
0029028360999991921060220004+67367+026650FM-12+018199999V0209991C000019999999N0000001N9+01331+99999099881ADDGF105991999999999999999999
0046028360999991921060306004+67367+026650FM-12+018199999V0202001N003119999999N0000001N9+01061+99999099071ADDAJ100009199999999GF108991999999999999999999
0029028360999991921060313004+67367+026650FM-12+018199999V0202701N004119999999N0000001N9+01281+99999099001ADDGF106991999999999999999999
0029028360999991921060320004+67367+026650FM-12+018199999V0202701N004119999999N0000001N9+00941+99999098871ADDGF102991999999999999999999
0046028360999991921060406004+67367+026650FM-12+018199999V0202701N006219999999N0000001N9+00721+99999098991ADDAJ100009199999999GF101991999999999999999999
0035028360999991921060413004+67367+026650FM-12+018199999V0202701N006219999999N0000001N9+01001+99999099081ADDGF108991999999999999999999MW1601
0029028360999991921060420004+67367+026650FM-12+018199999V0202901N004119999999N0000001N9+00831+99999098791ADDGF102991999999999999999999
0046028360999991921060506004+67367+026650FM-12+018199999V0203201N002119999999N0000001N9+00611+99999098581ADDAJ100009199999999GF100991999999999999999999
0035028360999991921060513004+67367+026650FM-12+018199999V0203201N006219999999N0000001N9+00941+99999098501ADDGF106991999999999999999999MW1621
0029028360999991921060520004+67367+026650FM-12+018199999V0203401N005119999999N0000001N9+00501+99999098711ADDGF108991999999999999999999
0046028360999991921060606004+67367+026650FM-12+018199999V0203201N003119999999N0000001N9+00441+99999098791ADDAJ100009199999999GF104991999999999999999999
0029028360999991921060613004+67367+026650FM-12+018199999V0202701N004119999999N0000001N9+00781+99999098711ADDGF108991999999999999999999
0046028360999991921060706004+67367+026650FM-12+018199999V0209991C000019999999N0000001N9+00831+99999098401ADDAJ100009199999999GF108991999999999999999999
0029028360999991921060713004+67367+026650FM-12+018199999V0202701N001019999999N0000001N9+01331+99999098471ADDGF107991999999999999999999
0029028360999991921060720004+67367+026650FM-12+018199999V0203201N002119999999N0000001N9+01281+99999098591ADDGF104991999999999999999999
0046028360999991921060806004+67367+026650FM-12+018199999V0203601N003119999999N0000001N9+01001+99999099041ADDAJ100009199999999GF101991999999999999999999
0029028360999991921060813004+67367+026650FM-12+018199999V0200201N004119999999N0000001N9+01331+99999099001ADDGF102991999999999999999999
0029028360999991921060820004+67367+026650FM-12+018199999V0209991C000019999999N0000001N9+01171+99999098871ADDGF101991999999999999999999
0046028360999991921060906004+67367+026650FM-12+018199999V0209991C000019999999N0000001N9+01061+99999098621ADDAJ100009199999999GF101991999999999999999999
0029028360999991921060913004+67367+026650FM-12+018199999V0200501N001019999999N0000001N9+01671+99999098101ADDGF103991999999999999999999
0029028360999991921060920004+67367+026650FM-12+018199999V0209991C000019999999N0000001N9+01441+99999097741ADDGF108991999999999999999999
0046028360999991921061006004+67367+026650FM-12+018199999V0202701N006219999999N0000001N9+01331+99999097721ADDAJ100009199999999GF107991999999999999999999
0029028360999991921061013004+67367+026650FM-12+018199999V0203601N004119999999N0000001N9+01561+99999098231ADDGF106991999999999999999999
0035028360999991921061020004+67367+026650FM-12+018199999V0209991C000019999999N0000001N9+01281+99999098391ADDGF108991999999999999999999MW1601
0046028360999991921061106004+67367+026650FM-12+018199999V0209991C000019999999N0000001N9+01561+99999098391ADDAJ100009199999999GF108991999999999999999999
0029028360999991921061113004+67367+026650FM-12+018199999V0201801N003119999999N0000001N9+01721+99999098341ADDGF108991999999999999999999
0029028360999991921061120004+67367+026650FM-12+018199999V0201801N001019999999N0000001N9+01501+99999098431ADDGF108991999999999999999999
0046028360999991921061206004+67367+026650FM-12+018199999V0201801N001019999999N0000001N9+01391+99999098541ADDAJ100009199999999GF108991999999999999999999
0029028360999991921061213004+67367+026650FM-12+018199999V0202001N004119999999N0000001N9+01891+99999098421ADDGF108991999999999999999999
0029028360999991921061220004+67367+026650FM-12+018199999V0202301N001019999999N0000001N9+01171+99999098441ADDGF107991999999999999999999
0046028360999991921061306004+67367+026650FM-12+018199999V0201601N002119999999N0000001N9+01281+99999098741ADDAJ100009199999999GF108991999999999999999999
0035028360999991921061313004+67367+026650FM-12+018199999V0201401N001019999999N0000001N9+01331+99999098631ADDGF108991999999999999999999MW1621
0029028360999991921061320004+67367+026650FM-12+018199999V0209991C000019999999N0000001N9+01331+99999098711ADDGF108991999999999999999999
0046028360999991921061406004+67367+026650FM-12+018199999V0209991C000019999999N0000001N9+01331+99999099001ADDAJ100009199999999GF107991999999999999999999
0029028360999991921061413004+67367+026650FM-12+018199999V0202301N002119999999N0000001N9+01891+99999099041ADDGF105991999999999999999999
0029028360999991921061420004+67367+026650FM-12+018199999V0201801N002119999999N0000001N9+01501+99999099061ADDGF100991999999999999999999
0046028360999991921061506004+67367+026650FM-12+018199999V0202001N006219999999N0000001N9+01281+99999098921ADDAJ100009199999999GF101991999999999999999999
0029028360999991921061513004+67367+026650FM-12+018199999V0201801N006219999999N0000001N9+01671+99999098741ADDGF102991999999999999999999
0029028360999991921061520004+67367+026650FM-12+018199999V0201801N003119999999N0000001N9+01221+99999098751ADDGF108991999999999999999999
0046028360999991921061606004+67367+026650FM-12+018199999V0202301N003119999999N0000001N9+00831+99999098791ADDAJ100009199999999GF108991999999999999999999
0029028360999991921061613004+67367+026650FM-12+018199999V0202301N002119999999N0000001N9+01561+99999098761ADDGF106991999999999999999999
0046028360999991921061706004+67367+026650FM-12+018199999V0202901N001019999999N0000001N9+00941+99999098741ADDAJ100009199999999GF106991999999999999999999
0029028360999991921061713004+67367+026650FM-12+018199999V0201801N003119999999N0000001N9+01501+99999098521ADDGF101991999999999999999999
0029028360999991921061720004+67367+026650FM-12+018199999V0201801N001019999999N0000001N9+01171+99999098481ADDGF101991999999999999999999
0046028360999991921061806004+67367+026650FM-12+018199999V0201401N002119999999N0000001N9+01331+99999098481ADDAJ100009199999999GF108991999999999999999999
0029028360999991921061813004+67367+026650FM-12+018199999V0201801N002119999999N0000001N9+02061+99999098431ADDGF101991999999999999999999
0029028360999991921061820004+67367+026650FM-12+018199999V0201101N001019999999N0000001N9+01831+99999098421ADDGF103991999999999999999999
0046028360999991921061906004+67367+026650FM-12+018199999V0200901N002119999999N0000001N9+01721+99999098261ADDAJ100009199999999GF106991999999999999999999
0035028360999991921061913004+67367+026650FM-12+018199999V0200501N002119999999N0000001N9+01671+99999097951ADDGF108991999999999999999999MW1621
0035028360999991921061920004+67367+026650FM-12+018199999V0200501N002119999999N0000001N9+01221+99999097621ADDGF108991999999999999999999MW1601
0046028360999991921062006004+67367+026650FM-12+018199999V0201401N003119999999N0000001N9+01281+99999097221ADDAJ100009199999999GF108991999999999999999999
0029028360999991921062013004+67367+026650FM-12+018199999V0201401N001019999999N0000001N9+01561+99999097161ADDGF108991999999999999999999
0035028360999991921062020004+67367+026650FM-12+018199999V0202001N001019999999N0000001N9+01111+99999097031ADDGF108991999999999999999999MW1621
0046028360999991921062106004+67367+026650FM-12+018199999V0202001N006219999999N0000001N9+00781+99999097311ADDAJ100009199999999GF108991999999999999999999
0029028360999991921062113004+67367+026650FM-12+018199999V0202001N008219999999N0000001N9+01281+99999097751ADDGF108991999999999999999999
0029028360999991921062120004+67367+026650FM-12+018199999V0202001N001019999999N0000001N9+01281+99999098261ADDGF101991999999999999999999
0046028360999991921062206004+67367+026650FM-12+018199999V0201801N004119999999N0000001N9+01331+99999098961ADDAJ100009199999999GF107991999999999999999999
0029028360999991921062213004+67367+026650FM-12+018199999V0201401N003119999999N0000001N9+01561+99999098961ADDGF108991999999999999999999
0029028360999991921062220004+67367+026650FM-12+018199999V0209991C000019999999N0000001N9+01501+99999098861ADDGF108991999999999999999999
0046028360999991921062306004+67367+026650FM-12+018199999V0209991C000019999999N0000001N9+01561+99999098401ADDAJ100009199999999GF108991999999999999999999
0029028360999991921062313004+67367+026650FM-12+018199999V0202501N002119999999N0000001N9+01171+99999098281ADDGF108991999999999999999999
0029028360999991921062320004+67367+026650FM-12+018199999V0202701N002119999999N0000001N9+01281+99999098321ADDGF108991999999999999999999
0046028360999991921062406004+67367+026650FM-12+018199999V0203201N005119999999N0000001N9+00831+99999098671ADDAJ100009199999999GF108991999999999999999999
0029028360999991921062413004+67367+026650FM-12+018199999V0203201N003119999999N0000001N9+01221+99999099041ADDGF107991999999999999999999
0029028360999991921062420004+67367+026650FM-12+018199999V0209991C000019999999N0000001N9+01221+99999099191ADDGF106991999999999999999999
0046028360999991921062506004+67367+026650FM-12+018199999V0209991C000019999999N0000001N9+01281+99999099431ADDAJ100009199999999GF108991999999999999999999
0029028360999991921062513004+67367+026650FM-12+018199999V0203201N001019999999N0000001N9+01721+99999099301ADDGF103991999999999999999999
0029028360999991921062520004+67367+026650FM-12+018199999V0209991C000019999999N0000001N9+01561+99999099121ADDGF103991999999999999999999
0046028360999991921062606004+67367+026650FM-12+018199999V0201601N002119999999N0000001N9+01501+99999098901ADDAJ100009199999999GF107991999999999999999999
0029028360999991921062613004+67367+026650FM-12+018199999V0201401N004119999999N0000001N9+01671+99999098681ADDGF108991999999999999999999
0035028360999991921062620004+67367+026650FM-12+018199999V0201401N001019999999N0000001N9+01171+99999098661ADDGF108991999999999999999999MW1621
0046028360999991921062706004+67367+026650FM-12+018199999V0201101N002119999999N0000001N9+01171+99999098631ADDAJ100009199999999GF108991999999999999999999
0035028360999991921062713004+67367+026650FM-12+018199999V0209991C000019999999N0000001N9+01221+99999098481ADDGF108991999999999999999999MW1621
0029028360999991921062720004+67367+026650FM-12+018199999V0209991C000019999999N0000001N9+01281+99999098311ADDGF108991999999999999999999
0052028360999991921062806004+67367+026650FM-12+018199999V0209991C000019999999N0000001N9+01171+99999098391ADDAJ100009199999999GF107991999999999999999999MW1621
0035028360999991921062813004+67367+026650FM-12+018199999V0202701N001019999999N0000001N9+01561+99999098281ADDGF106991999999999999999999MW1621
0029028360999991921062820004+67367+026650FM-12+018199999V0209991C000019999999N0000001N9+01441+99999098151ADDGF106991999999999999999999
0052028360999991921062906004+67367+026650FM-12+018199999V0203601N002119999999N0000001N9+01221+99999098031ADDAJ100009199999999GF108991999999999999999999MW1621
0029028360999991921062913004+67367+026650FM-12+018199999V0200201N007219999999N0000001N9+01891+99999097921ADDGF105991999999999999999999
0029028360999991921062920004+67367+026650FM-12+018199999V0200201N005119999999N0000001N9+01171+99999098271ADDGF102991999999999999999999
0046028360999991921063006004+67367+026650FM-12+018199999V0200201N005119999999N0000001N9+00941+99999098741ADDAJ100009199999999GF108991999999999999999999
0029028360999991921063013004+67367+026650FM-12+018199999V0200201N005119999999N0000001N9+01281+99999098981ADDGF108991999999999999999999
0029028360999991921063020004+67367+026650FM-12+018199999V0200201N004119999999N0000001N9+01171+99999099191ADDGF106991999999999999999999
0046028360999991921070106004+67367+026650FM-12+018199999V0200501N003119999999N0000001N9+01001+99999099511ADDAJ100009199999999GF100991999999999999999999
0029028360999991921070113004+67367+026650FM-12+018199999V0200201N001019999999N0000001N9+01721+99999099511ADDGF100991999999999999999999
0029028360999991921070120004+67367+026650FM-12+018199999V0209991C000019999999N0000001N9+01501+99999099511ADDGF100991999999999999999999
0046028360999991921070206004+67367+026650FM-12+018199999V0202301N001019999999N0000001N9+01721+99999099511ADDAJ100009199999999GF100991999999999999999999
0029028360999991921070213004+67367+026650FM-12+018199999V0202701N001019999999N0000001N9+02281+99999099381ADDGF104991999999999999999999
0029028360999991921070220004+67367+026650FM-12+018199999V0203601N005119999999N0000001N9+01781+99999099481ADDGF101991999999999999999999
0046028360999991921070306004+67367+026650FM-12+018199999V0200201N001019999999N0000001N9+01221+99999099791ADDAJ100009199999999GF100991999999999999999999
0029028360999991921070313004+67367+026650FM-12+018199999V0200501N001019999999N0000001N9+01941+99999099601ADDGF101991999999999999999999
0029028360999991921070320004+67367+026650FM-12+018199999V0209991C000019999999N0000001N9+01561+99999099401ADDGF102991999999999999999999
0046028360999991921070406004+67367+026650FM-12+018199999V0203601N004119999999N0000001N9+01221+99999099441ADDAJ100009199999999GF106991999999999999999999
0029028360999991921070413004+67367+026650FM-12+018199999V0200201N002119999999N0000001N9+01671+99999099381ADDGF106991999999999999999999
0035028360999991921070420004+67367+026650FM-12+018199999V0200501N002119999999N0000001N9+01171+99999099191ADDGF108991999999999999999999MW1621
0052028360999991921070506004+67367+026650FM-12+018199999V0200901N001019999999N0000001N9+01001+99999098841ADDAJ100009199999999GF108991999999999999999999MW1621
0035028360999991921070513004+67367+026650FM-12+018199999V0200901N004119999999N0000001N9+01111+99999098661ADDGF108991999999999999999999MW1621
0029028360999991921070520004+67367+026650FM-12+018199999V0201401N001019999999N0000001N9+01171+99999098581ADDGF108991999999999999999999
0046028360999991921070606004+67367+026650FM-12+018199999V0201801N002119999999N0000001N9+01111+99999098521ADDAJ100009199999999GF108991999999999999999999
0035028360999991921070613004+67367+026650FM-12+018199999V0202301N006219999999N0000001N9+01391+99999098581ADDGF107991999999999999999999MW1621
0029028360999991921070620004+67367+026650FM-12+018199999V0203601N004119999999N0000001N9+00891+99999098901ADDGF108991999999999999999999
0046028360999991921070706004+67367+026650FM-12+018199999V0203601N004119999999N0000001N9+00831+99999099141ADDAJ100009199999999GF108991999999999999999999
0029028360999991921070713004+67367+026650FM-12+018199999V0203201N004119999999N0000001N9+01111+99999099191ADDGF107991999999999999999999
0029028360999991921070720004+67367+026650FM-12+018199999V0209991C000019999999N0000001N9+01171+99999099241ADDGF103991999999999999999999
0052028360999991921070806004+67367+026650FM-12+018199999V0201801N002119999999N0000001N9+00941+99999099111ADDAJ100009199999999GF108991999999999999999999MW1601
0029028360999991921070813004+67367+026650FM-12+018199999V0202001N003119999999N0000001N9+01501+99999098871ADDGF108991999999999999999999
0029028360999991921070820004+67367+026650FM-12+018199999V0201801N003119999999N0000001N9+01501+99999098591ADDGF106991999999999999999999
0046028360999991921070906004+67367+026650FM-12+018199999V0202001N004119999999N0000001N9+01501+99999098101ADDAJ100009199999999GF106991999999999999999999
0029028360999991921070913004+67367+026650FM-12+018199999V0202501N006219999999N0000001N9+01941+99999097991ADDGF102991999999999999999999
0029028360999991921070920004+67367+026650FM-12+018199999V0202701N003119999999N0000001N9+01391+99999098181ADDGF103991999999999999999999
0046028360999991921071006004+67367+026650FM-12+018199999V0202701N001019999999N0000001N9+01171+99999098241ADDAJ100009199999999GF101991999999999999999999
0029028360999991921071013004+67367+026650FM-12+018199999V0203401N003119999999N0000001N9+01561+99999098181ADDGF106991999999999999999999
0029028360999991921071020004+67367+026650FM-12+018199999V0202701N001019999999N0000001N9+01281+99999098041ADDGF103991999999999999999999
0046028360999991921071106004+67367+026650FM-12+018199999V0202901N002119999999N0000001N9+01171+99999098071ADDAJ100009199999999GF101991999999999999999999
0029028360999991921071113004+67367+026650FM-12+018199999V0202701N001019999999N0000001N9+01441+99999097951ADDGF107991999999999999999999
0029028360999991921071120004+67367+026650FM-12+018199999V0203601N002119999999N0000001N9+01221+99999097671ADDGF106991999999999999999999
0046028360999991921071206004+67367+026650FM-12+018199999V0200501N003119999999N0000001N9+01171+99999097461ADDAJ100009199999999GF105991999999999999999999
0035028360999991921071213004+67367+026650FM-12+018199999V0200501N003119999999N0000001N9+01331+99999097301ADDGF108991999999999999999999MW1621
0035028360999991921071220004+67367+026650FM-12+018199999V0203601N004119999999N0000001N9+00941+99999097261ADDGF108991999999999999999999MW1621
0052028360999991921071306004+67367+026650FM-12+018199999V0203601N003119999999N0000001N9+00671+99999097111ADDAJ100009199999999GF108991999999999999999999MW1621
0035028360999991921071313004+67367+026650FM-12+018199999V0203601N005119999999N0000001N9+00891+99999097231ADDGF108991999999999999999999MW1621
0029028360999991921071320004+67367+026650FM-12+018199999V0203601N006219999999N0000001N9+01061+99999097641ADDGF108991999999999999999999
0046028360999991921071406004+67367+026650FM-12+018199999V0203601N007219999999N0000001N9+00891+99999098311ADDAJ100009199999999GF108991999999999999999999
0029028360999991921071413004+67367+026650FM-12+018199999V0203601N005119999999N0000001N9+00941+99999098701ADDGF108991999999999999999999
0029028360999991921071420004+67367+026650FM-12+018199999V0203601N006219999999N0000001N9+00721+99999098991ADDGF108991999999999999999999
0046028360999991921071506004+67367+026650FM-12+018199999V0203401N004119999999N0000001N9+00781+99999099221ADDAJ100009199999999GF108991999999999999999999
0029028360999991921071513004+67367+026650FM-12+018199999V0203401N003119999999N0000001N9+01171+99999099321ADDGF108991999999999999999999
0029028360999991921071520004+67367+026650FM-12+018199999V0203401N001019999999N0000001N9+01111+99999099381ADDGF103991999999999999999999
0046028360999991921071606004+67367+026650FM-12+018199999V0209991C000019999999N0000001N9+00941+99999099561ADDAJ100009199999999GF108991999999999999999999
0035028360999991921071613004+67367+026650FM-12+018199999V0203601N004119999999N0000001N9+01111+99999099591ADDGF108991999999999999999999MW1621
0035028360999991921071620004+67367+026650FM-12+018199999V0203601N004119999999N0000001N9+00781+99999099781ADDGF108991999999999999999999MW1621
0046028360999991921071706004+67367+026650FM-12+018199999V0203601N003119999999N0000001N9+00831+99999100191ADDAJ100009199999999GF106991999999999999999999
0029028360999991921071713004+67367+026650FM-12+018199999V0203601N003119999999N0000001N9+01171+99999100231ADDGF108991999999999999999999
0029028360999991921071720004+67367+026650FM-12+018199999V0209991C000019999999N0000001N9+00941+99999100201ADDGF100991999999999999999999
0046028360999991921071806004+67367+026650FM-12+018199999V0203601N001019999999N0000001N9+00941+99999099961ADDAJ100009199999999GF106991999999999999999999
0029028360999991921071813004+67367+026650FM-12+018199999V0200201N004119999999N0000001N9+01721+99999099721ADDGF108991999999999999999999
0029028360999991921071820004+67367+026650FM-12+018199999V0200501N002119999999N0000001N9+01221+99999099661ADDGF108991999999999999999999
0046028360999991921071906004+67367+026650FM-12+018199999V0200701N002119999999N0000001N9+00941+99999099621ADDAJ100009199999999GF106991999999999999999999
0029028360999991921071913004+67367+026650FM-12+018199999V0200901N001019999999N0000001N9+01281+99999099621ADDGF108991999999999999999999
0029028360999991921071920004+67367+026650FM-12+018199999V0209991C000019999999N0000001N9+01001+99999099671ADDGF101991999999999999999999
0046028360999991921072006004+67367+026650FM-12+018199999V0209991C000019999999N0000001N9+01221+99999099661ADDAJ100009199999999GF100991999999999999999999
0029028360999991921072013004+67367+026650FM-12+018199999V0209991C000019999999N0000001N9+01831+99999099381ADDGF102991999999999999999999
0029028360999991921072020004+67367+026650FM-12+018199999V0200501N001019999999N0000001N9+01441+99999099151ADDGF101991999999999999999999
0046028360999991921072106004+67367+026650FM-12+018199999V0201801N001019999999N0000001N9+01331+99999098981ADDAJ100009199999999GF108991999999999999999999
0029028360999991921072113004+67367+026650FM-12+018199999V0202001N001019999999N0000001N9+01781+99999098831ADDGF103991999999999999999999
0029028360999991921072120004+67367+026650FM-12+018199999V0202901N001019999999N0000001N9+01501+99999098661ADDGF102991999999999999999999
0052028360999991921072206004+67367+026650FM-12+018199999V0202901N001019999999N0000001N9+01281+99999098461ADDAJ100009199999999GF108991999999999999999999MW1621
0035028360999991921072213004+67367+026650FM-12+018199999V0200701N004119999999N0000001N9+01611+99999098261ADDGF106991999999999999999999MW1621
0035028360999991921072220004+67367+026650FM-12+018199999V0209991C000019999999N0000001N9+01171+99999098121ADDGF107991999999999999999999MW1621
0046028360999991921072306004+67367+026650FM-12+018199999V0201601N003119999999N0000001N9+01331+99999097911ADDAJ100009199999999GF105991999999999999999999
0029028360999991921072313004+67367+026650FM-12+018199999V0203601N001019999999N0000001N9+01671+99999097721ADDGF102991999999999999999999
0029028360999991921072320004+67367+026650FM-12+018199999V0200901N001019999999N0000001N9+01441+99999097551ADDGF102991999999999999999999
0046028360999991921072406004+67367+026650FM-12+018199999V0200901N003119999999N0000001N9+01501+99999097501ADDAJ100009199999999GF100991999999999999999999
0029028360999991921072413004+67367+026650FM-12+018199999V0201101N004119999999N0000001N9+02001+99999097351ADDGF103991999999999999999999
0029028360999991921072420004+67367+026650FM-12+018199999V0200901N004119999999N0000001N9+01611+99999097301ADDGF105991999999999999999999
0046028360999991921072506004+67367+026650FM-12+018199999V0200501N002119999999N0000001N9+01441+99999097321ADDAJ100009199999999GF106991999999999999999999
0029028360999991921072513004+67367+026650FM-12+018199999V0203601N006219999999N0000001N9+01831+99999097501ADDGF106991999999999999999999
0029028360999991921072520004+67367+026650FM-12+018199999V0200201N004119999999N0000001N9+01501+99999097941ADDGF100991999999999999999999
0046028360999991921072606004+67367+026650FM-12+018199999V0200201N001019999999N0000001N9+01441+99999098441ADDAJ100009199999999GF101991999999999999999999
0029028360999991921072613004+67367+026650FM-12+018199999V0203401N004119999999N0000001N9+02061+99999098521ADDGF101991999999999999999999
0029028360999991921072620004+67367+026650FM-12+018199999V0209991C000019999999N0000001N9+01281+99999098621ADDGF103991999999999999999999
0046028360999991921072706004+67367+026650FM-12+018199999V0200901N004119999999N0000001N9+01061+99999098421ADDAJ100009199999999GF108991999999999999999999
0029028360999991921072713004+67367+026650FM-12+018199999V0201101N002119999999N0000001N9+01671+99999097801ADDGF108991999999999999999999
0029028360999991921072720004+67367+026650FM-12+018199999V0201401N001019999999N0000001N9+01331+99999097351ADDGF108991999999999999999999
0046028360999991921072806004+67367+026650FM-12+018199999V0202001N001019999999N0000001N9+01061+99999097381ADDAJ100009199999999GF108991999999999999999999
0029028360999991921072813004+67367+026650FM-12+018199999V0202001N002119999999N0000001N9+01671+99999097591ADDGF106991999999999999999999
0029028360999991921072820004+67367+026650FM-12+018199999V0202501N002119999999N0000001N9+01281+99999097861ADDGF104991999999999999999999
0046028360999991921072906004+67367+026650FM-12+018199999V0209991C000019999999N0000001N9+01171+99999098191ADDAJ100009199999999GF108991999999999999999999
0029028360999991921072913004+67367+026650FM-12+018199999V0203401N001019999999N0000001N9+01891+99999098501ADDGF105991999999999999999999
0029028360999991921072920004+67367+026650FM-12+018199999V0209991C000019999999N0000001N9+01391+99999098821ADDGF100991999999999999999999
0046028360999991921073006004+67367+026650FM-12+018199999V0200701N002119999999N0000001N9+01221+99999099031ADDAJ100009199999999GF107991999999999999999999
0035028360999991921073013004+67367+026650FM-12+018199999V0201101N002119999999N0000001N9+01391+99999098871ADDGF108991999999999999999999MW1621
0035028360999991921073020004+67367+026650FM-12+018199999V0200901N001019999999N0000001N9+01171+99999098501ADDGF108991999999999999999999MW1621
0052028360999991921073106004+67367+026650FM-12+018199999V0200901N002119999999N0000001N9+00941+99999098201ADDAJ100009199999999GF108991999999999999999999MW1621
0035028360999991921073113004+67367+026650FM-12+018199999V0200901N003119999999N0000001N9+01001+99999098471ADDGF108991999999999999999999MW1621
0029028360999991921073120004+67367+026650FM-12+018199999V0200901N001019999999N0000001N9+00941+99999098791ADDGF108991999999999999999999
0046028360999991921080106004+67367+026650FM-12+018199999V0209991C000019999999N0000001N9+00941+99999099001ADDAJ100009199999999GF108991999999999999999999
0029028360999991921080113004+67367+026650FM-12+018199999V0200201N001019999999N0000001N9+01441+99999099111ADDGF108991999999999999999999
0029028360999991921080120004+67367+026650FM-12+018199999V0209991C000019999999N0000001N9+01221+99999099141ADDGF108991999999999999999999
0052028360999991921080206004+67367+026650FM-12+018199999V0209991C000019999999N0000001N9+00941+99999099381ADDAJ100009199999999GF108991999999999999999999MW1621
0029028360999991921080213004+67367+026650FM-12+018199999V0209991C000019999999N0000001N9+01561+99999099501ADDGF108991999999999999999999
0029028360999991921080220004+67367+026650FM-12+018199999V0209991C000019999999N0000001N9+01281+99999099501ADDGF108991999999999999999999
0046028360999991921080306004+67367+026650FM-12+018199999V0209991C000019999999N0000001N9+01281+99999099401ADDAJ100009199999999GF108991999999999999999999
0035028360999991921080313004+67367+026650FM-12+018199999V0200701N001019999999N0000001N9+01331+99999099111ADDGF108991999999999999999999MW1621
0029028360999991921080320004+67367+026650FM-12+018199999V0209991C000019999999N0000001N9+01221+99999098671ADDGF108991999999999999999999
0046028360999991921080406004+67367+026650FM-12+018199999V0203601N001019999999N0000001N9+01221+99999099161ADDAJ100009199999999GF108991999999999999999999
0029028360999991921080413004+67367+026650FM-12+018199999V0200701N003119999999N0000001N9+01671+99999099141ADDGF108991999999999999999999
0035028360999991921080420004+67367+026650FM-12+018199999V0201101N002119999999N0000001N9+01171+99999098821ADDGF108991999999999999999999MW1621
0052028360999991921080506004+67367+026650FM-12+018199999V0201801N003119999999N0000001N9+01391+99999097621ADDAJ100009199999999GF108991999999999999999999MW1621
0029028360999991921080513004+67367+026650FM-12+018199999V0202701N007219999999N0000001N9+01561+99999097921ADDGF107991999999999999999999
0029028360999991921080520004+67367+026650FM-12+018199999V0202701N001019999999N0000001N9+01001+99999097871ADDGF101991999999999999999999
0046028360999991921080606004+67367+026650FM-12+018199999V0201801N002119999999N0000001N9+01281+99999097701ADDAJ100009199999999GF102991999999999999999999
0029028360999991921080613004+67367+026650FM-12+018199999V0202001N003119999999N0000001N9+01671+99999097511ADDGF104991999999999999999999
0029028360999991921080620004+67367+026650FM-12+018199999V0201801N001019999999N0000001N9+01331+99999097391ADDGF102991999999999999999999
0046028360999991921080706004+67367+026650FM-12+018199999V0200701N001019999999N0000001N9+01221+99999097141ADDAJ100009199999999GF108991999999999999999999
0035028360999991921080713004+67367+026650FM-12+018199999V0200901N004119999999N0000001N9+01391+99999096991ADDGF108991999999999999999999MW1621
0035028360999991921080720004+67367+026650FM-12+018199999V0200901N005119999999N0000001N9+01221+99999096991ADDGF108991999999999999999999MW1601
0052028360999991921080806004+67367+026650FM-12+018199999V0200701N003119999999N0000001N9+01221+99999096821ADDAJ100009199999999GF108991999999999999999999MW1621
0035028360999991921080813004+67367+026650FM-12+018199999V0200701N004119999999N0000001N9+01331+99999096871ADDGF108991999999999999999999MW1601
0035028360999991921080820004+67367+026650FM-12+018199999V0200501N003119999999N0000001N9+01281+99999096821ADDGF108991999999999999999999MW1601
0046028360999991921080906004+67367+026650FM-12+018199999V0200701N008219999999N0000001N9+01441+99999096681ADDAJ100009199999999GF108991999999999999999999
0029028360999991921080913004+67367+026650FM-12+018199999V0201401N008219999999N0000001N9+01501+99999097111ADDGF104991999999999999999999
0029028360999991921080920004+67367+026650FM-12+018199999V0200901N002119999999N0000001N9+01441+99999097591ADDGF105991999999999999999999
0046028360999991921081006004+67367+026650FM-12+018199999V0209991C000019999999N0000001N9+01001+99999098061ADDAJ100009199999999GF108991999999999999999999
0029028360999991921081013004+67367+026650FM-12+018199999V0203601N004119999999N0000001N9+01281+99999098341ADDGF108991999999999999999999
0035028360999991921081020004+67367+026650FM-12+018199999V0203601N002119999999N0000001N9+01061+99999098591ADDGF108991999999999999999999MW1601
0046028360999991921081106004+67367+026650FM-12+018199999V0203601N003119999999N0000001N9+01061+99999098761ADDAJ100009199999999GF108991999999999999999999
0029028360999991921081113004+67367+026650FM-12+018199999V0203601N002119999999N0000001N9+01441+99999098941ADDGF108991999999999999999999
0029028360999991921081120004+67367+026650FM-12+018199999V0200501N003119999999N0000001N9+01331+99999099001ADDGF106991999999999999999999
0052028360999991921081206004+67367+026650FM-12+018199999V0209991C000019999999N0000001N9+01171+99999099161ADDAJ100009199999999GF108991999999999999999999MW1621
0029028360999991921081213004+67367+026650FM-12+018199999V0201801N001019999999N0000001N9+01671+99999099191ADDGF108991999999999999999999
0029028360999991921081220004+67367+026650FM-12+018199999V0202001N001019999999N0000001N9+01331+99999099201ADDGF108991999999999999999999
0046028360999991921081306004+67367+026650FM-12+018199999V0202001N002119999999N0000001N9+01281+99999099241ADDAJ100009199999999GF102991999999999999999999
0029028360999991921081313004+67367+026650FM-12+018199999V0201801N001019999999N0000001N9+01831+99999099141ADDGF108991999999999999999999
0035028360999991921081320004+67367+026650FM-12+018199999V0209991C000019999999N0000001N9+01391+99999099061ADDGF108991999999999999999999MW1621
0046028360999991921081406004+67367+026650FM-12+018199999V0201401N002119999999N0000001N9+01331+99999098761ADDAJ100009199999999GF108991999999999999999999
0029028360999991921081413004+67367+026650FM-12+018199999V0201801N003119999999N0000001N9+02171+99999098581ADDGF106991999999999999999999
0029028360999991921081420004+67367+026650FM-12+018199999V0201801N002119999999N0000001N9+01941+99999098601ADDGF108991999999999999999999
0046028360999991921081506004+67367+026650FM-12+018199999V0201801N001019999999N0000001N9+01671+99999098821ADDAJ100009199999999GF108991999999999999999999
0029028360999991921081513004+67367+026650FM-12+018199999V0201801N001019999999N0000001N9+02221+99999098951ADDGF108991999999999999999999
0029028360999991921081520004+67367+026650FM-12+018199999V0203401N001019999999N0000001N9+01831+99999099061ADDGF108991999999999999999999
0046028360999991921081606004+67367+026650FM-12+018199999V0203601N003119999999N0000001N9+01671+99999099161ADDAJ100009199999999GF108991999999999999999999
0029028360999991921081613004+67367+026650FM-12+018199999V0201801N003119999999N0000001N9+01781+99999099401ADDGF106991999999999999999999
0029028360999991921081620004+67367+026650FM-12+018199999V0209991C000019999999N0000001N9+01171+99999099431ADDGF102991999999999999999999
0046028360999991921081706004+67367+026650FM-12+018199999V0201801N002119999999N0000001N9+01331+99999099551ADDAJ100009199999999GF101991999999999999999999
0029028360999991921081713004+67367+026650FM-12+018199999V0201801N004119999999N0000001N9+01671+99999099381ADDGF102991999999999999999999
0029028360999991921081720004+67367+026650FM-12+018199999V0202001N001019999999N0000001N9+01281+99999099231ADDGF108991999999999999999999
0052028360999991921081806004+67367+026650FM-12+018199999V0202501N001019999999N0000001N9+01171+99999098981ADDAJ100009199999999GF108991999999999999999999MW1621
0029028360999991921081813004+67367+026650FM-12+018199999V0203601N006219999999N0000001N9+01331+99999099381ADDGF102991999999999999999999
0029028360999991921081820004+67367+026650FM-12+018199999V0209991C000019999999N0000001N9+00611+99999099581ADDGF101991999999999999999999
0046028360999991921081906004+67367+026650FM-12+018199999V0209991C000019999999N0000001N9+00781+99999099751ADDAJ100009199999999GF100991999999999999999999
0029028360999991921081913004+67367+026650FM-12+018199999V0202301N003119999999N0000001N9+01721+99999099561ADDGF105991999999999999999999
0029028360999991921081920004+67367+026650FM-12+018199999V0202301N003119999999N0000001N9+01171+99999099461ADDGF108991999999999999999999
0052028360999991921082006004+67367+026650FM-12+018199999V0209991C000019999999N0000001N9+00891+99999099471ADDAJ100009199999999GF108991999999999999999999MW1621
0029028360999991921082013004+67367+026650FM-12+018199999V0203401N001019999999N0000001N9+01441+99999099461ADDGF106991999999999999999999
0029028360999991921082020004+67367+026650FM-12+018199999V0203601N001019999999N0000001N9+00781+99999099381ADDGF102991999999999999999999
0046028360999991921082106004+67367+026650FM-12+018199999V0201801N003119999999N0000001N9+01111+99999098981ADDAJ100009199999999GF108991999999999999999999
0029028360999991921082113004+67367+026650FM-12+018199999V0202301N004119999999N0000001N9+01671+99999098761ADDGF108991999999999999999999
0029028360999991921082120004+67367+026650FM-12+018199999V0202701N001019999999N0000001N9+01281+99999098861ADDGF108991999999999999999999
0046028360999991921082206004+67367+026650FM-12+018199999V0203601N004119999999N0000001N9+00831+99999099501ADDAJ100009199999999GF108991999999999999999999
0029028360999991921082213004+67367+026650FM-12+018199999V0203601N003119999999N0000001N9+01061+99999099861ADDGF107991999999999999999999
0029028360999991921082220004+67367+026650FM-12+018199999V0203201N001019999999N0000001N9+00561+99999999999ADDGF108991999999999999999999
0046028360999991921082306004+67367+026650FM-12+018199999V0209991C000019999999N0000001N9+00441+99999100301ADDAJ100009199999999GF108991999999999999999999
0029028360999991921082313004+67367+026650FM-12+018199999V0209991C000019999999N0000001N9+01331+99999100101ADDGF107991999999999999999999
0029028360999991921082320004+67367+026650FM-12+018199999V0202301N002119999999N0000001N9+01061+99999099991ADDGF105991999999999999999999
0046028360999991921082406004+67367+026650FM-12+018199999V0201801N004119999999N0000001N9+00721+99999099751ADDAJ100009199999999GF106991999999999999999999
0029028360999991921082413004+67367+026650FM-12+018199999V0201801N003119999999N0000001N9+01391+99999099481ADDGF108991999999999999999999
0029028360999991921082420004+67367+026650FM-12+018199999V0201601N001019999999N0000001N9+01281+99999099161ADDGF108991999999999999999999
0052028360999991921082506004+67367+026650FM-12+018199999V0201801N003119999999N0000001N9+01281+99999098821ADDAJ100009199999999GF108991999999999999999999MW1621
0029028360999991921082513004+67367+026650FM-12+018199999V0201801N006219999999N0000001N9+01721+99999098701ADDGF107991999999999999999999
0029028360999991921082520004+67367+026650FM-12+018199999V0202001N008219999999N0000001N9+01501+99999098661ADDGF105991999999999999999999
0046028360999991921082606004+67367+026650FM-12+018199999V0201801N004119999999N0000001N9+01281+99999098631ADDAJ100009199999999GF104991999999999999999999
0029028360999991921082613004+67367+026650FM-12+018199999V0201801N008219999999N0000001N9+01781+99999098671ADDGF105991999999999999999999
0029028360999991921082620004+67367+026650FM-12+018199999V0201801N002119999999N0000001N9+01171+99999098671ADDGF100991999999999999999999
0046028360999991921082706004+67367+026650FM-12+018199999V0201401N004119999999N0000001N9+01111+99999098561ADDAJ100009199999999GF107991999999999999999999
0029028360999991921082713004+67367+026650FM-12+018199999V0201401N011819999999N0000001N9+01671+99999098521ADDGF106991999999999999999999
0029028360999991921082720004+67367+026650FM-12+018199999V0201401N003119999999N0000001N9+01171+99999098441ADDGF102991999999999999999999
0052028360999991921082806004+67367+026650FM-12+018199999V0201401N001019999999N0000001N9+00831+99999097911ADDAJ100009199999999GF108991999999999999999999MW1621
0029028360999991921082813004+67367+026650FM-12+018199999V0201401N003119999999N0000001N9+01111+99999097561ADDGF108991999999999999999999
0029028360999991921082820004+67367+026650FM-12+018199999V0201401N003119999999N0000001N9+00721+99999097561ADDGF101991999999999999999999
0052028360999991921082906004+67367+026650FM-12+018199999V0201601N001019999999N0000001N9+00721+99999097581ADDAJ100009199999999GF108991999999999999999999MW1621
0029028360999991921082913004+67367+026650FM-12+018199999V0202701N005119999999N0000001N9+01391+99999098151ADDGF108991999999999999999999
0029028360999991921082920004+67367+026650FM-12+018199999V0209991C000019999999N0000001N9+00441+99999098671ADDGF101991999999999999999999
