0035028360999991922010106004+67367+026650FM-12+018199999V0209991C000019999999N0000001N9-01831+99999096941ADDGF108991999999999999999999MW1721
0035028360999991922010113004+67367+026650FM-12+018199999V0209991C000019999999N0000001N9-01561+99999096481ADDGF108991999999999999999999MW1721
0035028360999991922010120004+67367+026650FM-12+018199999V0201401N005119999999N0000001N9-01171+99999095761ADDGF108991999999999999999999MW1721
0035028360999991922010206004+67367+026650FM-12+018199999V0201401N005119999999N0000001N9-01061+99999104802ADDGF108991999999999999999999MW1721
0035028360999991922010213004+67367+026650FM-12+018199999V0201101N003119999999N0000001N9-01281+99999104781ADDGF108991999999999999999999MW1721
0029028360999991922010220004+67367+026650FM-12+018199999V0201101N003119999999N0000001N9-01171+99999095152ADDGF108991999999999999999999
0035028360999991922010306004+67367+026650FM-12+018199999V0201101N005119999999N0000001N9-00831+99999095421ADDGF108991999999999999999999MW1721
0035028360999991922010313004+67367+026650FM-12+018199999V0200501N003119999999N0000001N9-01061+99999095741ADDGF108991999999999999999999MW1721
0035028360999991922010320004+67367+026650FM-12+018199999V0200501N005119999999N0000001N9-01171+99999096061ADDGF108991999999999999999999MW1721
0035028360999991922010406004+67367+026650FM-12+018199999V0200201N007219999999N0000001N9-00671+99999096101ADDGF108991999999999999999999MW1721
0035028360999991922010413004+67367+026650FM-12+018199999V0200501N003119999999N0000001N9-00671+99999096551ADDGF108991999999999999999999MW1721
0035028360999991922010420004+67367+026650FM-12+018199999V0200501N003119999999N0000001N9-00561+99999097071ADDGF108991999999999999999999MW1721
0035028360999991922010506004+67367+026650FM-12+018199999V0200501N001019999999N0000001N9-00781+99999097741ADDGF108991999999999999999999MW1701
0035028360999991922010513004+67367+026650FM-12+018199999V0200501N001019999999N0000001N9-01001+99999098241ADDGF106991999999999999999999MW1701
0029028360999991922010520004+67367+026650FM-12+018199999V0200501N001019999999N0000001N9-01111+99999098751ADDGF108991999999999999999999
0029028360999991922010606004+67367+026650FM-12+018199999V0200501N001019999999N0000001N9-01001+99999099071ADDGF102991999999999999999999
0029028360999991922010613004+67367+026650FM-12+018199999V0200501N001019999999N0000001N9-02001+99999099101ADDGF108991999999999999999999
0029028360999991922010620004+67367+026650FM-12+018199999V0209991C000019999999N0000001N9-02061+99999098991ADDGF108991999999999999999999
0029028360999991922010706004+67367+026650FM-12+018199999V0209991C000019999999N0000001N9-02331+99999098841ADDGF100991999999999999999999
0029028360999991922010713004+67367+026650FM-12+018199999V0209991C000019999999N0000001N9-02561+99999098901ADDGF108991999999999999999999
0029028360999991922010720004+67367+026650FM-12+018199999V0209991C000019999999N0000001N9-02721+99999098861ADDGF108991999999999999999999
0035028360999991922010806004+67367+026650FM-12+018199999V0200501N001019999999N0000001N9-02001+99999098801ADDGF108991999999999999999999MW1721
0035028360999991922010813004+67367+026650FM-12+018199999V0200501N001019999999N0000001N9-01561+99999098521ADDGF108991999999999999999999MW1721
0035028360999991922010820004+67367+026650FM-12+018199999V0200501N001019999999N0000001N9-01441+99999098561ADDGF108991999999999999999999MW1721
0029028360999991922010906004+67367+026650FM-12+018199999V0201401N001019999999N0000001N9-01671+99999098711ADDGF108991999999999999999999
0035028360999991922010913004+67367+026650FM-12+018199999V0201401N003119999999N0000001N9-01001+99999098441ADDGF108991999999999999999999MW1721
0035028360999991922010920004+67367+026650FM-12+018199999V0201601N003119999999N0000001N9-00501+99999098301ADDGF108991999999999999999999MW1721
0029028360999991922011006004+67367+026650FM-12+018199999V0201601N008719999999N0000001N9-00441+99999098351ADDGF108991999999999999999999
0029028360999991922011013004+67367+026650FM-12+018199999V0201601N005119999999N0000001N9-00781+99999098241ADDGF108991999999999999999999
0029028360999991922011020004+67367+026650FM-12+018199999V0201401N007219999999N0000001N9-01061+99999098161ADDGF108991999999999999999999
0035028360999991922011106004+67367+026650FM-12+018199999V0201401N005119999999N0000001N9-01061+99999098161ADDGF108991999999999999999999MW1701
0029028360999991922011113004+67367+026650FM-12+018199999V0201101N003119999999N0000001N9-01501+99999098481ADDGF108991999999999999999999
0029028360999991922011120004+67367+026650FM-12+018199999V0201101N001019999999N0000001N9-01671+99999098911ADDGF108991999999999999999999
0035028360999991922011206004+67367+026650FM-12+018199999V0201101N001019999999N0000001N9-01561+99999099521ADDGF108991999999999999999999MW1701
0029028360999991922011213004+67367+026650FM-12+018199999V0203201N001019999999N0000001N9-01831+99999100191ADDGF108991999999999999999999
0029028360999991922011220004+67367+026650FM-12+018199999V0203201N001019999999N0000001N9-01831+99999100741ADDGF108991999999999999999999
0029028360999991922011306004+67367+026650FM-12+018199999V0209991C000019999999N0000001N9-01941+99999101201ADDGF108991999999999999999999
0029028360999991922011313004+67367+026650FM-12+018199999V0201101N001019999999N0000001N9-01671+99999101421ADDGF108991999999999999999999
0029028360999991922011320004+67367+026650FM-12+018199999V0201101N001019999999N0000001N9-01501+99999101671ADDGF108991999999999999999999
0029028360999991922011406004+67367+026650FM-12+018199999V0201101N001019999999N0000001N9-01561+99999101901ADDGF108991999999999999999999
0029028360999991922011413004+67367+026650FM-12+018199999V0209991C000019999999N0000001N9-01671+99999102041ADDGF108991999999999999999999
0029028360999991922011420004+67367+026650FM-12+018199999V0209991C000019999999N0000001N9-02781+99999102081ADDGF100991999999999999999999
0029028360999991922011506004+67367+026650FM-12+018199999V0209991C000019999999N0000001N9-02611+99999102141ADDGF101991999999999999999999
0029028360999991922011513004+67367+026650FM-12+018199999V0201101N001019999999N0000001N9-02831+99999101981ADDGF101991999999999999999999
0029028360999991922011520004+67367+026650FM-12+018199999V0209991C000019999999N0000001N9-03221+99999101801ADDGF101991999999999999999999
0029028360999991922011606004+67367+026650FM-12+018199999V0209991C000019999999N0000001N9-03281+99999101521ADDGF100991999999999999999999
0029028360999991922011613004+67367+026650FM-12+018199999V0202901N001019999999N0000001N9-01781+99999101261ADDGF108991999999999999999999
0035028360999991922011620004+67367+026650FM-12+018199999V0200501N001019999999N0000001N9-02061+99999101151ADDGF100991999999999999999999MW1001
0035028360999991922011706004+67367+026650FM-12+018199999V0200901N005119999999N0000001N9-01391+99999101031ADDGF108991999999999999999999MW1381
0035028360999991922011713004+67367+026650FM-12+018199999V0200901N003119999999N0000001N9-01331+99999101241ADDGF108991999999999999999999MW1701
0029028360999991922011720004+67367+026650FM-12+018199999V0200901N001019999999N0000001N9-01671+99999101141ADDGF101991999999999999999999
0029028360999991922011806004+67367+026650FM-12+018199999V0209991C000019999999N0000001N9-03501+99999100961ADDGF100991999999999999999999
0029028360999991922011813004+67367+026650FM-12+018199999V0200901N001019999999N0000001N9-02561+99999101101ADDGF107991999999999999999999
0035028360999991922011820004+67367+026650FM-12+018199999V0200901N001019999999N0000001N9-02061+99999101041ADDGF108991999999999999999999MW1721
0035028360999991922011906004+67367+026650FM-12+018199999V0200901N001019999999N0000001N9-01561+99999101021ADDGF108991999999999999999999MW1721
0035028360999991922011913004+67367+026650FM-12+018199999V0201101N001019999999N0000001N9-01561+99999101021ADDGF108991999999999999999999MW1721
0029028360999991922011920004+67367+026650FM-12+018199999V0201101N001019999999N0000001N9-02281+99999101021ADDGF108991999999999999999999
0029028360999991922012006004+67367+026650FM-12+018199999V0201101N001019999999N0000001N9-02331+99999100861ADDGF108991999999999999999999
0029028360999991922012013004+67367+026650FM-12+018199999V0201101N001019999999N0000001N9-01831+99999100881ADDGF108991999999999999999999
0035028360999991922012020004+67367+026650FM-12+018199999V0201401N001019999999N0000001N9-01671+99999100991ADDGF108991999999999999999999MW1701
0035028360999991922012106004+67367+026650FM-12+018199999V0201601N001019999999N0000001N9-01331+99999101181ADDGF108991999999999999999999MW1721
0035028360999991922012113004+67367+026650FM-12+018199999V0201801N001019999999N0000001N9-01061+99999101201ADDGF108991999999999999999999MW1721
0029028360999991922012120004+67367+026650FM-12+018199999V0201801N007219999999N0000001N9-00941+99999100921ADDGF108991999999999999999999
0035028360999991922012206004+67367+026650FM-12+018199999V0202001N005119999999N0000001N9-00941+99999100941ADDGF102991999999999999999999MW1381
0029028360999991922012213004+67367+026650FM-12+018199999V0202301N001019999999N0000001N9-01561+99999101341ADDGF101991999999999999999999
0029028360999991922012220004+67367+026650FM-12+018199999V0202301N003119999999N0000001N9-00941+99999101581ADDGF108991999999999999999999
0035028360999991922012306004+67367+026650FM-12+018199999V0202301N001019999999N0000001N9-00941+99999101791ADDGF108991999999999999999999MW1721
0035028360999991922012313004+67367+026650FM-12+018199999V0202301N001019999999N0000001N9-00941+99999101761ADDGF108991999999999999999999MW1721
0029028360999991922012320004+67367+026650FM-12+018199999V0209991C000019999999N0000001N9-00891+99999101641ADDGF108991999999999999999999
0029028360999991922012406004+67367+026650FM-12+018199999V0202301N001019999999N0000001N9-00831+99999101681ADDGF107991999999999999999999
0029028360999991922012413004+67367+026650FM-12+018199999V0202301N001019999999N0000001N9-00611+99999101801ADDGF108991999999999999999999
0029028360999991922012420004+67367+026650FM-12+018199999V0202301N001019999999N0000001N9-00501+99999101761ADDGF108991999999999999999999
0035028360999991922012506004+67367+026650FM-12+018199999V0202301N999999999999N0000001N9-00281+99999101431ADDGF108991999999999999999999MW1701
0029028360999991922012513004+67367+026650FM-12+018199999V0202301N001019999999N0000001N9-00281+99999101181ADDGF108991999999999999999999
0029028360999991922012520004+67367+026650FM-12+018199999V0202301N003119999999N0000001N9-00441+99999100881ADDGF108991999999999999999999
0029028360999991922012606004+67367+026650FM-12+018199999V0202301N001019999999N0000001N9-01781+99999100591ADDGF102991999999999999999999
0029028360999991922012613004+67367+026650FM-12+018199999V0202501N001019999999N0000001N9-01891+99999100431ADDGF107991999999999999999999
0035028360999991922012620004+67367+026650FM-12+018199999V0202501N001019999999N0000001N9-01891+99999100301ADDGF108991999999999999999999MW1001
0029028360999991922012706004+67367+026650FM-12+018199999V0202501N003119999999N0000001N9-00391+99999100151ADDGF108991999999999999999999
0029028360999991922012713004+67367+026650FM-12+018199999V0202501N001019999999N0000001N9-00331+99999100061ADDGF108991999999999999999999
0029028360999991922012720004+67367+026650FM-12+018199999V0202501N001019999999N0000001N9-00281+99999099841ADDGF108991999999999999999999
0029028360999991922012806004+67367+026650FM-12+018199999V0202501N001019999999N0000001N9-01281+99999099361ADDGF108991999999999999999999
0029028360999991922012813004+67367+026650FM-12+018199999V0202501N001019999999N0000001N9-01061+99999099041ADDGF102991999999999999999999
0029028360999991922012820004+67367+026650FM-12+018199999V0202501N001019999999N0000001N9-00831+99999098801ADDGF108991999999999999999999
0029028360999991922012906004+67367+026650FM-12+018199999V0202501N001019999999N0000001N9-01111+99999098831ADDGF107991999999999999999999
0029028360999991922012913004+67367+026650FM-12+018199999V0202501N003119999999N0000001N9-01111+99999098941ADDGF108991999999999999999999
0029028360999991922012920004+67367+026650FM-12+018199999V0202301N003119999999N0000001N9-01281+99999098721ADDGF108991999999999999999999
0035028360999991922013006004+67367+026650FM-12+018199999V0202501N003119999999N0000001N9-01171+99999098301ADDGF108991999999999999999999MW1701
0035028360999991922013013004+67367+026650FM-12+018199999V0202301N001019999999N0000001N9-01281+99999098361ADDGF108991999999999999999999MW1701
0029028360999991922013020004+67367+026650FM-12+018199999V0202501N001019999999N0000001N9-02001+99999098381ADDGF101991999999999999999999
0029028360999991922013106004+67367+026650FM-12+018199999V0209991C000019999999N0000001N9-02781+99999098711ADDGF100991999999999999999999
0029028360999991922013113004+67367+026650FM-12+018199999V0202501N001019999999N0000001N9-02281+99999099081ADDGF107991999999999999999999
0035028360999991922013120004+67367+026650FM-12+018199999V0202501N001019999999N0000001N9-03061+99999099271ADDGF106991999999999999999999MW1001
0029028360999991922020106004+67367+026650FM-12+018199999V0209991C000019999999N0000001N9-03561+99999099741ADDGF100991999999999999999999
0029028360999991922020113004+67367+026650FM-12+018199999V0209991C000019999999N0000001N9-03061+99999100061ADDGF100991999999999999999999
0029028360999991922020120004+67367+026650FM-12+018199999V0209991C000019999999N0000001N9-03611+99999100351ADDGF100991999999999999999999
0029028360999991922020206004+67367+026650FM-12+018199999V0209991C000019999999N0000001N9-03721+99999100671ADDGF100991999999999999999999
0029028360999991922020213004+67367+026650FM-12+018199999V0209991C000019999999N0000001N9-03221+99999100701ADDGF100991999999999999999999
0029028360999991922020220004+67367+026650FM-12+018199999V0209991C000019999999N0000001N9-03171+99999100541ADDGF100991999999999999999999
0029028360999991922020306004+67367+026650FM-12+018199999V0209991C000019999999N0000001N9-03281+99999100161ADDGF100991999999999999999999
0029028360999991922020313004+67367+026650FM-12+018199999V0200501N001019999999N0000001N9-02781+99999100071ADDGF100991999999999999999999
0035028360999991922020320004+67367+026650FM-12+018199999V0200501N001019999999N0000001N9-03671+99999999999ADDGF100991999999999999999999MW1001
0029028360999991922020406004+67367+026650FM-12+018199999V0209991C000019999999N0000001N9-04001+99999100031ADDGF100991999999999999999999
0029028360999991922020413004+67367+026650FM-12+018199999V0209991C000019999999N0000001N9-02501+99999100071ADDGF107991999999999999999999
0035028360999991922020420004+67367+026650FM-12+018199999V0209991C000019999999N0000001N9-03331+99999100161ADDGF100991999999999999999999MW1001
0029028360999991922020506004+67367+026650FM-12+018199999V0209991C000019999999N0000001N9-03671+99999100301ADDGF101991999999999999999999
0029028360999991922020513004+67367+026650FM-12+018199999V0209991C000019999999N0000001N9-03171+99999100461ADDGF101991999999999999999999
0029028360999991922020520004+67367+026650FM-12+018199999V0209991C000019999999N0000001N9-03781+99999100621ADDGF101991999999999999999999
0029028360999991922020606004+67367+026650FM-12+018199999V0209991C000019999999N0000001N9-04001+99999100671ADDGF100991999999999999999999
0029028360999991922020613004+67367+026650FM-12+018199999V0209991C000019999999N0000001N9-02671+99999100711ADDGF100991999999999999999999
0029028360999991922020620004+67367+026650FM-12+018199999V0201801N001019999999N0000001N9-02391+99999100701ADDGF100991999999999999999999
0029028360999991922020706004+67367+026650FM-12+018199999V0201801N001019999999N0000001N9-02061+99999100711ADDGF101991999999999999999999
0029028360999991922020713004+67367+026650FM-12+018199999V0201801N001019999999N0000001N9-01831+99999100641ADDGF101991999999999999999999
0029028360999991922020720004+67367+026650FM-12+018199999V0201801N001019999999N0000001N9-02171+99999100431ADDGF100991999999999999999999
0029028360999991922020806004+67367+026650FM-12+018199999V0201801N001019999999N0000001N9-02831+99999099781ADDGF108991999999999999999999
0029028360999991922020813004+67367+026650FM-12+018199999V0202001N001019999999N0000001N9-02061+99999099261ADDGF102991999999999999999999
0035028360999991922020820004+67367+026650FM-12+018199999V0202301N007219999999N0000001N9-01671+99999098831ADDGF108991999999999999999999MW1381
0035028360999991922020906004+67367+026650FM-12+018199999V0202301N005119999999N0000001N9-00941+99999098261ADDGF108991999999999999999999MW1721
0035028360999991922020913004+67367+026650FM-12+018199999V0203201N007219999999N0000001N9-00501+99999098841ADDGF107991999999999999999999MW1381
0035028360999991922020920004+67367+026650FM-12+018199999V0202901N005119999999N0000001N9-00561+99999099681ADDGF102991999999999999999999MW1381
0035028360999991922021006004+67367+026650FM-12+018199999V0202901N003119999999N0000001N9-00501+99999999999ADDGF108991999999999999999999MW1381
0035028360999991922021013004+67367+026650FM-12+018199999V0202701N007219999999N0000001N9+00001+99999099941ADDGF108991999999999999999999MW1381
0035028360999991922021020004+67367+026650FM-12+018199999V0202501N005119999999N0000001N9-00221+99999099681ADDGF108991999999999999999999MW1381
0029028360999991922021106004+67367+026650FM-12+018199999V0202501N003119999999N0000001N9-00391+99999098521ADDGF103991999999999999999999
0029028360999991922021113004+67367+026650FM-12+018199999V0202701N003119999999N0000001N9-00061+99999098191ADDGF104991999999999999999999
0029028360999991922021120004+67367+026650FM-12+018199999V0202901N003119999999N0000001N9+00001+99999098431ADDGF108991999999999999999999
0035028360999991922021206004+67367+026650FM-12+018199999V0202901N001019999999N0000001N9-00281+99999098781ADDGF108991999999999999999999MW1721
0029028360999991922021213004+67367+026650FM-12+018199999V0201601N001019999999N0000001N9-00061+99999098591ADDGF108991999999999999999999
0029028360999991922021220004+67367+026650FM-12+018199999V0202701N003119999999N0000001N9+00281+99999098471ADDGF108991999999999999999999
0029028360999991922021306004+67367+026650FM-12+018199999V0202901N003119999999N0000001N9+00001+99999098551ADDGF102991999999999999999999
0029028360999991922021313004+67367+026650FM-12+018199999V0203201N003119999999N0000001N9+00281+99999098661ADDGF107991999999999999999999
0029028360999991922021320004+67367+026650FM-12+018199999V0200501N001019999999N0000001N9-01221+99999098721ADDGF108991999999999999999999
0029028360999991922021406004+67367+026650FM-12+018199999V0201401N001019999999N0000001N9-02001+99999098271ADDGF103991999999999999999999
0029028360999991922021413004+67367+026650FM-12+018199999V0201401N003119999999N0000001N9-00441+99999097791ADDGF108991999999999999999999
0029028360999991922021420004+67367+026650FM-12+018199999V0201401N003119999999N0000001N9-00441+99999097741ADDGF108991999999999999999999
0029028360999991922021506004+67367+026650FM-12+018199999V0201601N003119999999N0000001N9-00501+99999097711ADDGF108991999999999999999999
0029028360999991922021513004+67367+026650FM-12+018199999V0201401N001019999999N0000001N9-00441+99999097881ADDGF108991999999999999999999
0035028360999991922021520004+67367+026650FM-12+018199999V0201401N001019999999N0000001N9-00561+99999098221ADDGF108991999999999999999999MW1721
0029028360999991922021606004+67367+026650FM-12+018199999V0201401N001019999999N0000001N9-00781+99999098711ADDGF107991999999999999999999
0029028360999991922021613004+67367+026650FM-12+018199999V0203201N001019999999N0000001N9-00441+99999099031ADDGF108991999999999999999999
0029028360999991922021620004+67367+026650FM-12+018199999V0203201N001019999999N0000001N9-00831+99999099151ADDGF108991999999999999999999
0029028360999991922021706004+67367+026650FM-12+018199999V0202701N003119999999N0000001N9-00721+99999098881ADDGF108991999999999999999999
0035028360999991922021713004+67367+026650FM-12+018199999V0202701N003119999999N0000001N9-00561+99999098781ADDGF108991999999999999999999MW1721
0029028360999991922021720004+67367+026650FM-12+018199999V0202701N001019999999N0000001N9-00781+99999098751ADDGF102991999999999999999999
0029028360999991922021806004+67367+026650FM-12+018199999V0202701N001019999999N0000001N9-01111+99999098621ADDGF108991999999999999999999
0035028360999991922021813004+67367+026650FM-12+018199999V0202701N001019999999N0000001N9-00831+99999098561ADDGF108991999999999999999999MW1701
0029028360999991922021820004+67367+026650FM-12+018199999V0202701N001019999999N0000001N9-01171+99999098481ADDGF108991999999999999999999
0035028360999991922021906004+67367+026650FM-12+018199999V0202701N001019999999N0000001N9-01221+99999098351ADDGF108991999999999999999999MW1721
0035028360999991922021913004+67367+026650FM-12+018199999V0203401N001019999999N0000001N9-00941+99999098431ADDGF108991999999999999999999MW1701
0029028360999991922021920004+67367+026650FM-12+018199999V0203401N001019999999N0000001N9-01281+99999098461ADDGF108991999999999999999999
0029028360999991922022006004+67367+026650FM-12+018199999V0201101N003119999999N0000001N9-01171+99999098391ADDGF108991999999999999999999
0035028360999991922022013004+67367+026650FM-12+018199999V0201401N004119999999N0000001N9-01001+99999098461ADDGF108991999999999999999999MW1721
0035028360999991922022020004+67367+026650FM-12+018199999V0201401N007219999999N0000001N9-01171+99999098561ADDGF108991999999999999999999MW1721
0035028360999991922022106004+67367+026650FM-12+018199999V0203201N001019999999N0000001N9-01611+99999098681ADDGF108991999999999999999999MW1701
0035028360999991922022113004+67367+026650FM-12+018199999V0203201N001019999999N0000001N9-01391+99999098781ADDGF108991999999999999999999MW1701
0029028360999991922022120004+67367+026650FM-12+018199999V0203201N003119999999N0000001N9-01721+99999098881ADDGF108991999999999999999999
0029028360999991922022206004+67367+026650FM-12+018199999V0209991C000019999999N0000001N9-03441+99999098951ADDGF102991999999999999999999
0029028360999991922022213004+67367+026650FM-12+018199999V0209991C000019999999N0000001N9-01781+99999098961ADDGF100991999999999999999999
0029028360999991922022220004+67367+026650FM-12+018199999V0209991C000019999999N0000001N9-03281+99999098961ADDGF100991999999999999999999
0029028360999991922022306004+67367+026650FM-12+018199999V0203401N001019999999N0000001N9-02721+99999098751ADDGF108991999999999999999999
0035028360999991922022313004+67367+026650FM-12+018199999V0203401N001019999999N0000001N9-01781+99999098541ADDGF108991999999999999999999MW1721
0035028360999991922022320004+67367+026650FM-12+018199999V0203401N001019999999N0000001N9-01331+99999098261ADDGF108991999999999999999999MW1721
0035028360999991922022406004+67367+026650FM-12+018199999V0201601N001019999999N0000001N9-01061+99999098041ADDGF108991999999999999999999MW1721
0029028360999991922022413004+67367+026650FM-12+018199999V0201601N001019999999N0000001N9-00561+99999098111ADDGF108991999999999999999999
0029028360999991922022420004+67367+026650FM-12+018199999V0201601N003119999999N0000001N9-00721+99999098191ADDGF108991999999999999999999
0029028360999991922022506004+67367+026650FM-12+018199999V0202001N009819999999N0000001N9-00281+99999097921ADDGF108991999999999999999999
0035028360999991922022513004+67367+026650FM-12+018199999V0202001N009819999999N0000001N9-00171+99999097231ADDGF108991999999999999999999MW1741
0029028360999991922022520004+67367+026650FM-12+018199999V0201801N007219999999N0000001N9+00001+99999096671ADDGF101991999999999999999999
0035028360999991922022606004+67367+026650FM-12+018199999V0202501N008719999999N0000001N9-00221+99999096601ADDGF100991999999999999999999MW1381
0035028360999991922022613004+67367+026650FM-12+018199999V0202501N018019999999N0000001N9-00061+99999096761ADDGF107991999999999999999999MW1381
0035028360999991922022620004+67367+026650FM-12+018199999V0202501N003119999999N0000001N9-00441+99999096831ADDGF100991999999999999999999MW1001
0029028360999991922022706004+67367+026650FM-12+018199999V0202501N001019999999N0000001N9-02221+99999097121ADDGF100991999999999999999999
0029028360999991922022713004+67367+026650FM-12+018199999V0202001N003119999999N0000001N9-00441+99999097161ADDGF102991999999999999999999
0029028360999991922022720004+67367+026650FM-12+018199999V0202001N001019999999N0000001N9-00561+99999096991ADDGF108991999999999999999999
0029028360999991922022806004+67367+026650FM-12+018199999V0203401N001019999999N0000001N9-02001+99999096911ADDGF102991999999999999999999
0029028360999991922022813004+67367+026650FM-12+018199999V0203201N001019999999N0000001N9-01061+99999097191ADDGF101991999999999999999999
0029028360999991922022820004+67367+026650FM-12+018199999V0209991C000019999999N0000001N9-02441+99999097501ADDGF100991999999999999999999
0029028360999991922030106004+67367+026650FM-12+018199999V0209991C000019999999N0000001N9-02221+99999097821ADDGF108991999999999999999999
0029028360999991922030113004+67367+026650FM-12+018199999V0209991C000019999999N0000001N9-01501+99999097981ADDGF108991999999999999999999
0029028360999991922030120004+67367+026650FM-12+018199999V0203201N001019999999N0000001N9-02391+99999098031ADDGF108991999999999999999999
0035028360999991922030206004+67367+026650FM-12+018199999V0203201N001019999999N0000001N9-01781+99999098221ADDGF108991999999999999999999MW1701
0035028360999991922030213004+67367+026650FM-12+018199999V0203201N001019999999N0000001N9-01331+99999098391ADDGF108991999999999999999999MW1701
0035028360999991922030220004+67367+026650FM-12+018199999V0203201N001019999999N0000001N9-01611+99999098541ADDGF108991999999999999999999MW1701
0029028360999991922030306004+67367+026650FM-12+018199999V0201401N001019999999N0000001N9-01281+99999098671ADDGF108991999999999999999999
0035028360999991922030313004+67367+026650FM-12+018199999V0201601N001019999999N0000001N9-00941+99999098701ADDGF108991999999999999999999MW1721
0035028360999991922030320004+67367+026650FM-12+018199999V0201601N001019999999N0000001N9-00891+99999098601ADDGF108991999999999999999999MW1721
0035028360999991922030406004+67367+026650FM-12+018199999V0202701N003119999999N0000001N9-00721+99999098161ADDGF108991999999999999999999MW1721
0035028360999991922030413004+67367+026650FM-12+018199999V0202701N001019999999N0000001N9-00501+99999097841ADDGF108991999999999999999999MW1721
0035028360999991922030420004+67367+026650FM-12+018199999V0202001N001019999999N0000001N9-00611+99999097581ADDGF108991999999999999999999MW1721
0035028360999991922030506004+67367+026650FM-12+018199999V0203201N001019999999N0000001N9-00891+99999097181ADDGF108991999999999999999999MW1721
0035028360999991922030513004+67367+026650FM-12+018199999V0203601N003119999999N0000001N9-00671+99999097041ADDGF108991999999999999999999MW1721
0029028360999991922030520004+67367+026650FM-12+018199999V0203401N003119999999N0000001N9-01171+99999097101ADDGF108991999999999999999999
0029028360999991922030606004+67367+026650FM-12+018199999V0203201N001019999999N0000001N9-01891+99999097071ADDGF108991999999999999999999
0029028360999991922030613004+67367+026650FM-12+018199999V0203201N001019999999N0000001N9-01171+99999096951ADDGF102991999999999999999999
0029028360999991922030620004+67367+026650FM-12+018199999V0203201N001019999999N0000001N9-02611+99999096961ADDGF101991999999999999999999
0029028360999991922030706004+67367+026650FM-12+018199999V0202901N001019999999N0000001N9-03331+99999097101ADDGF101991999999999999999999
0029028360999991922030713004+67367+026650FM-12+018199999V0203201N001019999999N0000001N9-01391+99999097161ADDGF103991999999999999999999
0029028360999991922030720004+67367+026650FM-12+018199999V0209991C000019999999N0000001N9-02721+99999097351ADDGF100991999999999999999999
0029028360999991922030806004+67367+026650FM-12+018199999V0209991C000019999999N0000001N9-03561+99999097511ADDGF100991999999999999999999
0029028360999991922030813004+67367+026650FM-12+018199999V0209991C000019999999N0000001N9-01221+99999097461ADDGF100991999999999999999999
0029028360999991922030820004+67367+026650FM-12+018199999V0203201N001019999999N0000001N9-02561+99999097441ADDGF108991999999999999999999
0029028360999991922030906004+67367+026650FM-12+018199999V0203201N001019999999N0000001N9-01111+99999097521ADDGF108991999999999999999999
0029028360999991922030913004+67367+026650FM-12+018199999V0203601N005119999999N0000001N9-00611+99999097951ADDGF108991999999999999999999
0029028360999991922030920004+67367+026650FM-12+018199999V0209991C000019999999N0000001N9-01671+99999098351ADDGF100991999999999999999999
0029028360999991922031006004+67367+026650FM-12+018199999V0209991C000019999999N0000001N9-03221+99999098641ADDGF100991999999999999999999
0029028360999991922031013004+67367+026650FM-12+018199999V0201601N001019999999N0000001N9-00561+99999098621ADDGF102991999999999999999999
0035028360999991922031020004+67367+026650FM-12+018199999V0201801N005119999999N0000001N9-01171+99999098501ADDGF101991999999999999999999MW1001
0035028360999991922031106004+67367+026650FM-12+018199999V0202701N009819999999N0000001N9-01111+99999097501ADDGF108991999999999999999999MW1381
0035028360999991922031113004+67367+026650FM-12+018199999V0202701N015919999999N0000001N9-00721+99999096701ADDGF108991999999999999999999MW1381
0035028360999991922031120004+67367+026650FM-12+018199999V0202701N008719999999N0000001N9-00611+99999096081ADDGF108991999999999999999999MW1381
0029028360999991922031206004+67367+026650FM-12+018199999V0202301N001019999999N0000001N9-02281+99999095941ADDGF106991999999999999999999
0029028360999991922031213004+67367+026650FM-12+018199999V0203401N003119999999N0000001N9-00781+99999096101ADDGF104991999999999999999999
0029028360999991922031220004+67367+026650FM-12+018199999V0203201N003119999999N0000001N9-01391+99999096911ADDGF102991999999999999999999
0035028360999991922031306004+67367+026650FM-12+018199999V0203601N008719999999N0000001N9-00561+99999098031ADDGF108991999999999999999999MW1381
0035028360999991922031313004+67367+026650FM-12+018199999V0203601N008719999999N0000001N9-00221+99999098631ADDGF106991999999999999999999MW1381
0029028360999991922031320004+67367+026650FM-12+018199999V0203201N003119999999N0000001N9-00781+99999098831ADDGF100991999999999999999999
0029028360999991922031406004+67367+026650FM-12+018199999V0202901N001019999999N0000001N9-01171+99999098871ADDGF108991999999999999999999
0035028360999991922031413004+67367+026650FM-12+018199999V0203201N003119999999N0000001N9-00391+99999098961ADDGF108991999999999999999999MW1381
0035028360999991922031420004+67367+026650FM-12+018199999V0203201N003119999999N0000001N9-00561+99999099081ADDGF108991999999999999999999MW1381
0029028360999991922031506004+67367+026650FM-12+018199999V0202901N003119999999N0000001N9-00671+99999099181ADDGF108991999999999999999999
0029028360999991922031513004+67367+026650FM-12+018199999V0202701N005119999999N0000001N9-00281+99999098961ADDGF104991999999999999999999
0029028360999991922031520004+67367+026650FM-12+018199999V0202701N001019999999N0000001N9-01331+99999098561ADDGF108991999999999999999999
0035028360999991922031606004+67367+026650FM-12+018199999V0202701N001019999999N0000001N9-01611+99999098111ADDGF108991999999999999999999MW1721
0029028360999991922031613004+67367+026650FM-12+018199999V0203401N007219999999N0000001N9-00501+99999098631ADDGF108991999999999999999999
0029028360999991922031620004+67367+026650FM-12+018199999V0203401N005119999999N0000001N9-00721+99999098761ADDGF108991999999999999999999
0029028360999991922031706004+67367+026650FM-12+018199999V0203401N001019999999N0000001N9-01001+99999099161ADDGF106991999999999999999999
0035028360999991922031713004+67367+026650FM-12+018199999V0203201N007219999999N0000001N9-00781+99999099231ADDGF107991999999999999999999MW1381
0035028360999991922031720004+67367+026650FM-12+018199999V0203201N003119999999N0000001N9-01441+99999099281ADDGF100991999999999999999999MW1001
0029028360999991922031806004+67367+026650FM-12+018199999V0202701N001019999999N0000001N9-02781+99999099191ADDGF101991999999999999999999
0029028360999991922031813004+67367+026650FM-12+018199999V0203201N005119999999N0000001N9-00891+99999099071ADDGF101991999999999999999999
0035028360999991922031820004+67367+026650FM-12+018199999V0202701N003119999999N0000001N9-01441+99999098981ADDGF100991999999999999999999MW1001
0035028360999991922031906004+67367+026650FM-12+018199999V0202701N001019999999N0000001N9-01331+99999098841ADDGF108991999999999999999999MW1701
0029028360999991922031913004+67367+026650FM-12+018199999V0203201N003119999999N0000001N9-00561+99999098951ADDGF103991999999999999999999
0035028360999991922031920004+67367+026650FM-12+018199999V0203601N003119999999N0000001N9-01331+99999098991ADDGF102991999999999999999999MW1001
0029028360999991922032006004+67367+026650FM-12+018199999V0202701N001019999999N0000001N9-02831+99999098911ADDGF101991999999999999999999
0029028360999991922032013004+67367+026650FM-12+018199999V0203401N003119999999N0000001N9-00721+99999098841ADDGF106991999999999999999999
0029028360999991922032020004+67367+026650FM-12+018199999V0203401N001019999999N0000001N9-01171+99999098481ADDGF108991999999999999999999
0035028360999991922032106004+67367+026650FM-12+018199999V0202701N003119999999N0000001N9-01061+99999098141ADDGF108991999999999999999999MW1701
0029028360999991922032113004+67367+026650FM-12+018199999V0203201N001019999999N0000001N9-00611+99999098321ADDGF104991999999999999999999
0029028360999991922032120004+67367+026650FM-12+018199999V0203201N003119999999N0000001N9-00831+99999098581ADDGF103991999999999999999999
0029028360999991922032206004+67367+026650FM-12+018199999V0200901N001019999999N0000001N9-01611+99999098871ADDGF108991999999999999999999
0029028360999991922032213004+67367+026650FM-12+018199999V0201801N007219999999N0000001N9-00561+99999098781ADDGF105991999999999999999999
0035028360999991922032220004+67367+026650FM-12+018199999V0201801N007219999999N0000001N9-00781+99999098381ADDGF108991999999999999999999MW1721
0035028360999991922032306004+67367+026650FM-12+018199999V0202001N003119999999N0000001N9-00561+99999098081ADDGF108991999999999999999999MW1721
0029028360999991922032313004+67367+026650FM-12+018199999V0202301N004119999999N0000001N9+00281+99999098001ADDGF108991999999999999999999
0029028360999991922032320004+67367+026650FM-12+018199999V0202301N003119999999N0000001N9+00331+99999097961ADDGF106991999999999999999999
0029028360999991922032406004+67367+026650FM-12+018199999V0202301N005119999999N0000001N9+00061+99999098001ADDGF100991999999999999999999
0029028360999991922032413004+67367+026650FM-12+018199999V0202701N009819999999N0000001N9+00501+99999098461ADDGF101991999999999999999999
0029028360999991922032420004+67367+026650FM-12+018199999V0203201N001019999999N0000001N9-00501+99999098721ADDGF108991999999999999999999
0029028360999991922032506004+67367+026650FM-12+018199999V0203201N001019999999N0000001N9-01001+99999098761ADDGF108991999999999999999999
0035028360999991922032513004+67367+026650FM-12+018199999V0201401N003119999999N0000001N9+00001+99999098541ADDGF108991999999999999999999MW1721
0035028360999991922032520004+67367+026650FM-12+018199999V0201401N003119999999N0000001N9+00001+99999098141ADDGF108991999999999999999999MW1721
0035028360999991922032606004+67367+026650FM-12+018199999V0201801N003119999999N0000001N9-00281+99999098041ADDGF108991999999999999999999MW1721
0035028360999991922032613004+67367+026650FM-12+018199999V0201601N001019999999N0000001N9-00111+99999098001ADDGF108991999999999999999999MW1721
0035028360999991922032620004+67367+026650FM-12+018199999V0201601N001019999999N0000001N9-00331+99999098001ADDGF108991999999999999999999MW1721
0035028360999991922032706004+67367+026650FM-12+018199999V0203601N003119999999N0000001N9-00561+99999097901ADDGF108991999999999999999999MW1721
0035028360999991922032713004+67367+026650FM-12+018199999V0203601N003119999999N0000001N9-00331+99999098031ADDGF108991999999999999999999MW1721
0035028360999991922032720004+67367+026650FM-12+018199999V0200201N003119999999N0000001N9-00441+99999098181ADDGF108991999999999999999999MW1721
0035028360999991922032806004+67367+026650FM-12+018199999V0200201N004119999999N0000001N9-00561+99999098481ADDGF108991999999999999999999MW1721
0035028360999991922032813004+67367+026650FM-12+018199999V0200201N005119999999N0000001N9-00331+99999098591ADDGF108991999999999999999999MW1721
0035028360999991922032820004+67367+026650FM-12+018199999V0200201N005119999999N0000001N9-00501+99999098641ADDGF108991999999999999999999MW1721
0035028360999991922032906004+67367+026650FM-12+018199999V0200501N005119999999N0000001N9-00501+99999098641ADDGF108991999999999999999999MW1721
0035028360999991922032913004+67367+026650FM-12+018199999V0200501N007219999999N0000001N9-00281+99999098781ADDGF108991999999999999999999MW1721
0035028360999991922032920004+67367+026650FM-12+018199999V0200501N009819999999N0000001N9-00501+99999099061ADDGF108991999999999999999999MW1381
0035028360999991922033006004+67367+026650FM-12+018199999V0200201N006219999999N0000001N9-00561+99999099341ADDGF108991999999999999999999MW1701
0035028360999991922033013004+67367+026650FM-12+018199999V0200501N009819999999N0000001N9-00281+99999099401ADDGF108991999999999999999999MW1701
0035028360999991922033020004+67367+026650FM-12+018199999V0200501N006219999999N0000001N9-00501+99999099501ADDGF108991999999999999999999MW1741
0035028360999991922033106004+67367+026650FM-12+018199999V0200501N007219999999N0000001N9-00391+99999099351ADDGF108991999999999999999999MW1721
0035028360999991922033113004+67367+026650FM-12+018199999V0200501N007219999999N0000001N9+00001+99999099281ADDGF108991999999999999999999MW1721
0035028360999991922033120004+67367+026650FM-12+018199999V0200501N001019999999N0000001N9-00171+99999099081ADDGF108991999999999999999999MW1721
0035028360999991922040106004+67367+026650FM-12+018199999V0200501N001019999999N0000001N9-00331+99999098621ADDGF108991999999999999999999MW1701
0029028360999991922040113004+67367+026650FM-12+018199999V0202301N003119999999N0000001N9+00061+99999098471ADDGF108991999999999999999999
0029028360999991922040120004+67367+026650FM-12+018199999V0202001N005119999999N0000001N9-00171+99999098541ADDGF108991999999999999999999
0029028360999991922040206004+67367+026650FM-12+018199999V0202301N003119999999N0000001N9-00501+99999098831ADDGF106991999999999999999999
0029028360999991922040213004+67367+026650FM-12+018199999V0202001N005119999999N0000001N9+00111+99999098941ADDGF100991999999999999999999
0029028360999991922040220004+67367+026650FM-12+018199999V0201401N001019999999N0000001N9-00671+99999098721ADDGF108991999999999999999999
0035028360999991922040306004+67367+026650FM-12+018199999V0201101N001019999999N0000001N9-00391+99999098111ADDGF108991999999999999999999MW1721
0029028360999991922040313004+67367+026650FM-12+018199999V0201801N005119999999N0000001N9+00061+99999097871ADDGF106991999999999999999999
0035028360999991922040320004+67367+026650FM-12+018199999V0201801N003119999999N0000001N9-00331+99999098001ADDGF108991999999999999999999MW1721
0035028360999991922040406004+67367+026650FM-12+018199999V0201801N003119999999N0000001N9-00331+99999098161ADDGF108991999999999999999999MW1721
0035028360999991922040413004+67367+026650FM-12+018199999V0201601N003119999999N0000001N9-00061+99999098061ADDGF108991999999999999999999MW1721
0029028360999991922040420004+67367+026650FM-12+018199999V0201801N001019999999N0000001N9-00561+99999098081ADDGF108991999999999999999999
0029028360999991922040506004+67367+026650FM-12+018199999V0203201N003119999999N0000001N9-00781+99999098191ADDGF108991999999999999999999
0035028360999991922040513004+67367+026650FM-12+018199999V0203601N001019999999N0000001N9-00221+99999098311ADDGF108991999999999999999999MW1701
0035028360999991922040520004+67367+026650FM-12+018199999V0203601N005119999999N0000001N9-00441+99999098541ADDGF108991999999999999999999MW1701
0029028360999991922040606004+67367+026650FM-12+018199999V0203601N005119999999N0000001N9-00721+99999098941ADDGF105991999999999999999999
0035028360999991922040613004+67367+026650FM-12+018199999V0200501N005119999999N0000001N9-00281+99999099231ADDGF108991999999999999999999MW1721
0029028360999991922040620004+67367+026650FM-12+018199999V0200501N007219999999N0000001N9-00721+99999099441ADDGF108991999999999999999999
0035028360999991922040706004+67367+026650FM-12+018199999V0200501N007219999999N0000001N9-00831+99999099081ADDGF108991999999999999999999MW1721
0035028360999991922040713004+67367+026650FM-12+018199999V0200501N013919999999N0000001N9-00721+99999098551ADDGF108991999999999999999999MW1721
0035028360999991922040720004+67367+026650FM-12+018199999V0200501N008719999999N0000001N9-00941+99999098261ADDGF108991999999999999999999MW1721
0035028360999991922040806004+67367+026650FM-12+018199999V0200501N003119999999N0000001N9-00831+99999098001ADDGF108991999999999999999999MW1721
0029028360999991922040813004+67367+026650FM-12+018199999V0200501N003119999999N0000001N9-00441+99999098191ADDGF108991999999999999999999
0035028360999991922040820004+67367+026650FM-12+018199999V0200501N001019999999N0000001N9-00831+99999098301ADDGF108991999999999999999999MW1701
0029028360999991922040906004+67367+026650FM-12+018199999V0203401N001019999999N0000001N9-01171+99999098591ADDGF106991999999999999999999
0035028360999991922040913004+67367+026650FM-12+018199999V0200501N003119999999N0000001N9-00391+99999098781ADDGF108991999999999999999999MW1701
0035028360999991922040920004+67367+026650FM-12+018199999V0201801N001019999999N0000001N9-00671+99999098881ADDGF108991999999999999999999MW1721
0029028360999991922041006004+67367+026650FM-12+018199999V0209991C000019999999N0000001N9-01171+99999098831ADDGF107991999999999999999999
0035028360999991922041013004+67367+026650FM-12+018199999V0200501N005119999999N0000001N9-00391+99999098671ADDGF108991999999999999999999MW1721
0035028360999991922041020004+67367+026650FM-12+018199999V0203601N003119999999N0000001N9-00441+99999098161ADDGF108991999999999999999999MW1721
0035028360999991922041106004+67367+026650FM-12+018199999V0200901N003119999999N0000001N9-00561+99999097581ADDGF108991999999999999999999MW1721
0029028360999991922041113004+67367+026650FM-12+018199999V0201401N007219999999N0000001N9+00111+99999097741ADDGF106991999999999999999999
0029028360999991922041120004+67367+026650FM-12+018199999V0201801N005119999999N0000001N9-00331+99999098201ADDGF108991999999999999999999
0029028360999991922041206004+67367+026650FM-12+018199999V0201401N001019999999N0000001N9-01391+99999098721ADDGF105991999999999999999999
0029028360999991922041213004+67367+026650FM-12+018199999V0202301N001019999999N0000001N9-00061+99999098991ADDGF103991999999999999999999
0029028360999991922041220004+67367+026650FM-12+018199999V0202701N001019999999N0000001N9-01281+99999099281ADDGF104991999999999999999999
0029028360999991922041306004+67367+026650FM-12+018199999V0209991C000019999999N0000001N9-02061+99999099551ADDGF102991999999999999999999
0029028360999991922041313004+67367+026650FM-12+018199999V0202301N001019999999N0000001N9+00391+99999099581ADDGF106991999999999999999999
0029028360999991922041320004+67367+026650FM-12+018199999V0209991C000019999999N0000001N9-01061+99999099601ADDGF100991999999999999999999
0029028360999991922041406004+67367+026650FM-12+018199999V0209991C000019999999N0000001N9-01391+99999099201ADDGF107991999999999999999999
0029028360999991922041413004+67367+026650FM-12+018199999V0201101N005119999999N0000001N9+00331+99999098471ADDGF108991999999999999999999
0029028360999991922041420004+67367+026650FM-12+018199999V0200901N001019999999N0000001N9-00061+99999098311ADDGF108991999999999999999999
0029028360999991922041506004+67367+026650FM-12+018199999V0202901N003119999999N0000001N9-00611+99999098941ADDGF108991999999999999999999
0029028360999991922041513004+67367+026650FM-12+018199999V0201801N003119999999N0000001N9+00221+99999099361ADDGF108991999999999999999999
0029028360999991922041520004+67367+026650FM-12+018199999V0201401N003119999999N0000001N9+00061+99999099301ADDGF108991999999999999999999
0035028360999991922041606004+67367+026650FM-12+018199999V0201401N005119999999N0000001N9-00281+99999098421ADDGF108991999999999999999999MW1741
0029028360999991922041613004+67367+026650FM-12+018199999V0200701N003119999999N0000001N9-00331+99999098581ADDGF108991999999999999999999
0035028360999991922041620004+67367+026650FM-12+018199999V0201401N001019999999N0000001N9-00441+99999098751ADDGF108991999999999999999999MW1701
0035028360999991922041706004+67367+026650FM-12+018199999V0201401N003119999999N0000001N9-00391+99999098221ADDGF108991999999999999999999MW1721
0035028360999991922041713004+67367+026650FM-12+018199999V0203201N003119999999N0000001N9-00111+99999098081ADDGF108991999999999999999999MW1721
0029028360999991922041720004+67367+026650FM-12+018199999V0202701N001019999999N0000001N9+00061+99999098441ADDGF108991999999999999999999
0029028360999991922041806004+67367+026650FM-12+018199999V0209991C000019999999N0000001N9-00331+99999098511ADDGF102991999999999999999999
0029028360999991922041813004+67367+026650FM-12+018199999V0203201N003119999999N0000001N9+00391+99999098951ADDGF108991999999999999999999
0029028360999991922041820004+67367+026650FM-12+018199999V0200501N007219999999N0000001N9-00281+99999099951ADDGF108991999999999999999999
0029028360999991922041906004+67367+026650FM-12+018199999V0203201N001019999999N0000001N9-00561+99999100701ADDGF108991999999999999999999
0029028360999991922041913004+67367+026650FM-12+018199999V0203601N001019999999N0000001N9+00001+99999100761ADDGF108991999999999999999999
0029028360999991922041920004+67367+026650FM-12+018199999V0209991C000019999999N0000001N9-00891+99999100831ADDGF101991999999999999999999
0029028360999991922042006004+67367+026650FM-12+018199999V0201601N001019999999N0000001N9-00611+99999100511ADDGF108991999999999999999999
0029028360999991922042013004+67367+026650FM-12+018199999V0202301N007219999999N0000001N9+00391+99999100191ADDGF108991999999999999999999
0029028360999991922042020004+67367+026650FM-12+018199999V0202001N005119999999N0000001N9+00171+99999099901ADDGF108991999999999999999999
0029028360999991922042106004+67367+026650FM-12+018199999V0202001N003119999999N0000001N9-00061+99999099521ADDGF108991999999999999999999
0029028360999991922042113004+67367+026650FM-12+018199999V0202501N003119999999N0000001N9+00831+99999099461ADDGF108991999999999999999999
0029028360999991922042120004+67367+026650FM-12+018199999V0202701N001019999999N0000001N9+00001+99999099601ADDGF103991999999999999999999
0029028360999991922042206004+67367+026650FM-12+018199999V0209991C000019999999N0000001N9-00061+99999099681ADDGF102991999999999999999999
0029028360999991922042213004+67367+026650FM-12+018199999V0202501N005119999999N0000001N9+00941+99999099601ADDGF101991999999999999999999
0029028360999991922042220004+67367+026650FM-12+018199999V0202001N003119999999N0000001N9+00561+99999099621ADDGF101991999999999999999999
0029028360999991922042306004+67367+026650FM-12+018199999V0201801N001019999999N0000001N9+00331+99999099631ADDGF100991999999999999999999
0029028360999991922042313004+67367+026650FM-12+018199999V0202001N008719999999N0000001N9+00781+99999099601ADDGF100991999999999999999999
0029028360999991922042320004+67367+026650FM-12+018199999V0202001N005119999999N0000001N9+00281+99999099751ADDGF100991999999999999999999
0029028360999991922042406004+67367+026650FM-12+018199999V0202001N007219999999N0000001N9-00171+99999099871ADDGF100991999999999999999999
0029028360999991922042413004+67367+026650FM-12+018199999V0202001N005119999999N0000001N9+00501+99999099831ADDGF100991999999999999999999
0029028360999991922042420004+67367+026650FM-12+018199999V0201801N001019999999N0000001N9-00221+99999099761ADDGF100991999999999999999999
0029028360999991922042506004+67367+026650FM-12+018199999V0201801N001019999999N0000001N9-00111+99999099681ADDGF102991999999999999999999
0029028360999991922042513004+67367+026650FM-12+018199999V0201801N005119999999N0000001N9+01171+99999099461ADDGF101991999999999999999999
0029028360999991922042520004+67367+026650FM-12+018199999V0201401N001019999999N0000001N9+00281+99999099361ADDGF102991999999999999999999
0029028360999991922042606004+67367+026650FM-12+018199999V0201601N003119999999N0000001N9+00611+99999099351ADDGF101991999999999999999999
0029028360999991922042613004+67367+026650FM-12+018199999V0201801N005119999999N0000001N9+00891+99999099381ADDGF108991999999999999999999
0029028360999991922042620004+67367+026650FM-12+018199999V0209991C000019999999N0000001N9+00111+99999099461ADDGF100991999999999999999999
0029028360999991922042706004+67367+026650FM-12+018199999V0201801N003119999999N0000001N9+00561+99999099501ADDGF102991999999999999999999
0029028360999991922042713004+67367+026650FM-12+018199999V0201801N005119999999N0000001N9+01171+99999099521ADDGF102991999999999999999999
0029028360999991922042720004+67367+026650FM-12+018199999V0201801N001019999999N0000001N9+00281+99999099631ADDGF108991999999999999999999
0029028360999991922042806004+67367+026650FM-12+018199999V0201801N001019999999N0000001N9+00281+99999099661ADDGF108991999999999999999999
0029028360999991922042813004+67367+026650FM-12+018199999V0201801N003119999999N0000001N9+01171+99999099661ADDGF101991999999999999999999
0029028360999991922042820004+67367+026650FM-12+018199999V0201601N001019999999N0000001N9+00171+99999099821ADDGF103991999999999999999999
0029028360999991922042906004+67367+026650FM-12+018199999V0201601N001019999999N0000001N9+00391+99999999999ADDGF101991999999999999999999
0029028360999991922042913004+67367+026650FM-12+018199999V0201401N005119999999N0000001N9+01171+99999099921ADDGF105991999999999999999999
0029028360999991922042920004+67367+026650FM-12+018199999V0201401N001019999999N0000001N9+00671+99999099921ADDGF107991999999999999999999
0029028360999991922043006004+67367+026650FM-12+018199999V0201401N003119999999N0000001N9+00721+99999099841ADDGF102991999999999999999999
0029028360999991922043013004+67367+026650FM-12+018199999V0201101N003119999999N0000001N9+01171+99999099681ADDGF101991999999999999999999
0029028360999991922043020004+67367+026650FM-12+018199999V0201101N003119999999N0000001N9+00611+99999099671ADDGF108991999999999999999999
0029028360999991922050106004+67367+026650FM-12+018199999V0201401N001019999999N0000001N9+00441+99999099701ADDGF108991999999999999999999
0029028360999991922050113004+67367+026650FM-12+018199999V0201801N001019999999N0000001N9+01221+99999099831ADDGF101991999999999999999999
0029028360999991922050120004+67367+026650FM-12+018199999V0209991C000019999999N0000001N9+00221+99999099941ADDGF100991999999999999999999
0029028360999991922050206004+67367+026650FM-12+018199999V0202001N001019999999N0000001N9+00441+99999099901ADDGF100991999999999999999999
0029028360999991922050213004+67367+026650FM-12+018199999V0201801N003119999999N0000001N9+01281+99999099621ADDGF102991999999999999999999
0029028360999991922050220004+67367+026650FM-12+018199999V0201601N001019999999N0000001N9+00561+99999099381ADDGF108991999999999999999999
0029028360999991922050306004+67367+026650FM-12+018199999V0201101N001019999999N0000001N9+00831+99999098941ADDGF107991999999999999999999
0029028360999991922050313004+67367+026650FM-12+018199999V0201101N009819999999N0000001N9+01221+99999098551ADDGF107991999999999999999999
0035028360999991922050320004+67367+026650FM-12+018199999V0201401N003119999999N0000001N9+00391+99999098321ADDGF108991999999999999999999MW1621
0029028360999991922050406004+67367+026650FM-12+018199999V0201801N009819999999N0000001N9+00171+99999098521ADDGF108991999999999999999999
0035028360999991922050413004+67367+026650FM-12+018199999V0201801N008719999999N0000001N9+00441+99999098681ADDGF108991999999999999999999MW1601
0029028360999991922050420004+67367+026650FM-12+018199999V0201801N007219999999N0000001N9+00391+99999098781ADDGF108991999999999999999999
0029028360999991922050506004+67367+026650FM-12+018199999V0201601N003119999999N0000001N9+00391+99999098901ADDGF106991999999999999999999
0029028360999991922050513004+67367+026650FM-12+018199999V0202001N001019999999N0000001N9+00831+99999098861ADDGF108991999999999999999999
0029028360999991922050520004+67367+026650FM-12+018199999V0202001N001019999999N0000001N9+00331+99999098741ADDGF108991999999999999999999
0029028360999991922050606004+67367+026650FM-12+018199999V0202301N001019999999N0000001N9+00561+99999098821ADDGF104991999999999999999999
0029028360999991922050613004+67367+026650FM-12+018199999V0202001N005119999999N0000001N9+99999+99999099001ADDGF108991999999999999999999
0029028360999991922050620004+67367+026650FM-12+018199999V0202001N003119999999N0000001N9+00441+99999099141ADDGF108991999999999999999999
0029028360999991922050706004+67367+026650FM-12+018199999V0202001N005119999999N0000001N9+00061+99999099351ADDGF108991999999999999999999
0029028360999991922050713004+67367+026650FM-12+018199999V0202501N003119999999N0000001N9+00891+99999099511ADDGF101991999999999999999999
0029028360999991922050720004+67367+026650FM-12+018199999V0209991C000019999999N0000001N9+00221+99999099621ADDGF101991999999999999999999
0029028360999991922050806004+67367+026650FM-12+018199999V0201801N003119999999N0000001N9+00611+99999099201ADDGF101991999999999999999999
0035028360999991922050813004+67367+026650FM-12+018199999V0201801N008719999999N0000001N9+00831+99999098591ADDGF108991999999999999999999MW1601
0035028360999991922050820004+67367+026650FM-12+018199999V0201601N005119999999N0000001N9+00331+99999098041ADDGF108991999999999999999999MW1601
0029028360999991922050906004+67367+026650FM-12+018199999V0201801N001019999999N0000001N9+00331+99999097601ADDGF108991999999999999999999
0029028360999991922050913004+67367+026650FM-12+018199999V0201401N001019999999N0000001N9+00561+99999097671ADDGF108991999999999999999999
0029028360999991922050920004+67367+026650FM-12+018199999V0201801N001019999999N0000001N9+00171+99999097641ADDGF103991999999999999999999
0046028360999991922051006004+67367+026650FM-12+018199999V0203601N001019999999N0000001N9+00441+99999097591ADDAJ100009199999999GF108991999999999999999999
0029028360999991922051013004+67367+026650FM-12+018199999V0203601N005119999999N0000001N9+00441+99999097591ADDGF108991999999999999999999
0029028360999991922051020004+67367+026650FM-12+018199999V0200201N005119999999N0000001N9+00281+99999097301ADDGF108991999999999999999999
0052028360999991922051106004+67367+026650FM-12+018199999V0203601N007219999999N0000001N9+00061+99999096421ADDAJ100009199999999GF108991999999999999999999MW1721
0029028360999991922051113004+67367+026650FM-12+018199999V0200901N005119999999N0000001N9+00561+99999096711ADDGF108991999999999999999999
0029028360999991922051120004+67367+026650FM-12+018199999V0200501N001019999999N0000001N9+00441+99999096791ADDGF107991999999999999999999
0046028360999991922051206004+67367+026650FM-12+018199999V0200501N003119999999N0000001N9+00281+99999096871ADDAJ100009199999999GF108991999999999999999999
0035028360999991922051213004+67367+026650FM-12+018199999V0200701N005119999999N0000001N9+00501+99999097031ADDGF108991999999999999999999MW1901
0035028360999991922051220004+67367+026650FM-12+018199999V0209991C000019999999N0000001N9+00221+99999097201ADDGF108991999999999999999999MW1621
0046028360999991922051306004+67367+026650FM-12+018199999V0201601N001019999999N0000001N9+00281+99999097381ADDAJ100009199999999GF108991999999999999999999
0029028360999991922051313004+67367+026650FM-12+018199999V0202301N005119999999N0000001N9+00391+99999097561ADDGF107991999999999999999999
0029028360999991922051320004+67367+026650FM-12+018199999V0202001N001019999999N0000001N9+00171+99999097751ADDGF108991999999999999999999
0046028360999991922051406004+67367+026650FM-12+018199999V0202301N001019999999N0000001N9+00221+99999097961ADDAJ100009199999999GF108991999999999999999999
0029028360999991922051413004+67367+026650FM-12+018199999V0202501N005119999999N0000001N9+00891+99999098111ADDGF107991999999999999999999
0029028360999991922051420004+67367+026650FM-12+018199999V0202501N001019999999N0000001N9+00331+99999098381ADDGF108991999999999999999999
0046028360999991922051506004+67367+026650FM-12+018199999V0202301N001019999999N0000001N9+00611+99999098421ADDAJ100009199999999GF100991999999999999999999
0029028360999991922051513004+67367+026650FM-12+018199999V0201601N005119999999N0000001N9+01111+99999098201ADDGF107991999999999999999999
0029028360999991922051520004+67367+026650FM-12+018199999V0201401N003119999999N0000001N9+00891+99999098101ADDGF108991999999999999999999
0052028360999991922051606004+67367+026650FM-12+018199999V0200701N003119999999N0000001N9+00501+99999098101ADDAJ100009199999999GF108991999999999999999999MW1621
0035028360999991922051613004+67367+026650FM-12+018199999V0201101N005119999999N0000001N9+00331+99999098151ADDGF108991999999999999999999MW1621
0035028360999991922051620004+67367+026650FM-12+018199999V0200701N003119999999N0000001N9+00611+99999098281ADDGF108991999999999999999999MW1621
0046028360999991922051706004+67367+026650FM-12+018199999V0200501N005119999999N0000001N9+00441+99999098581ADDAJ100009199999999GF103991999999999999999999
0029028360999991922051713004+67367+026650FM-12+018199999V0200501N003119999999N0000001N9+00831+99999098741ADDGF107991999999999999999999
0029028360999991922051720004+67367+026650FM-12+018199999V0200201N001019999999N0000001N9+00501+99999098871ADDGF100991999999999999999999
0046028360999991922051806004+67367+026650FM-12+018199999V0203201N001019999999N0000001N9+00441+99999099001ADDAJ100009199999999GF101991999999999999999999
0029028360999991922051813004+67367+026650FM-12+018199999V0202701N001019999999N0000001N9+99999+99999098951ADDGF106991999999999999999999
0029028360999991922051820004+67367+026650FM-12+018199999V0209991C000019999999N0000001N9+00941+99999098981ADDGF103991999999999999999999
0046028360999991922051906004+67367+026650FM-12+018199999V0201601N001019999999N0000001N9+01111+99999099161ADDAJ100009199999999GF100991999999999999999999
0029028360999991922051913004+67367+026650FM-12+018199999V0202501N005119999999N0000001N9+01561+99999099111ADDGF108991999999999999999999
0029028360999991922051920004+67367+026650FM-12+018199999V0209991C000019999999N0000001N9+01171+99999099031ADDGF102991999999999999999999
0046028360999991922052006004+67367+026650FM-12+018199999V0201601N003119999999N0000001N9+01111+99999099061ADDAJ100009199999999GF108991999999999999999999
0029028360999991922052013004+67367+026650FM-12+018199999V0201601N003119999999N0000001N9+01561+99999099121ADDGF108991999999999999999999
0029028360999991922052020004+67367+026650FM-12+018199999V0209991C000019999999N0000001N9+99999+99999099231ADDGF108991999999999999999999
0046028360999991922052106004+67367+026650FM-12+018199999V0201401N001019999999N0000001N9+00561+99999099621ADDAJ100009199999999GF108991999999999999999999
0029028360999991922052113004+67367+026650FM-12+018199999V0209991C000019999999N0000001N9+01331+99999099641ADDGF108991999999999999999999
0029028360999991922052120004+67367+026650FM-12+018199999V0209991C000019999999N0000001N9+01061+99999099581ADDGF108991999999999999999999
0046028360999991922052206004+67367+026650FM-12+018199999V0202501N003119999999N0000001N9+01111+99999099671ADDAJ100009199999999GF108991999999999999999999
0029028360999991922052213004+67367+026650FM-12+018199999V0202301N003119999999N0000001N9+01611+99999099621ADDGF108991999999999999999999
0029028360999991922052220004+67367+026650FM-12+018199999V0201801N003119999999N0000001N9+01391+99999099381ADDGF108991999999999999999999
0046028360999991922052306004+67367+026650FM-12+018199999V0201801N007219999999N0000001N9+01221+99999099001ADDAJ100009199999999GF108991999999999999999999
0035028360999991922052313004+67367+026650FM-12+018199999V0201801N008719999999N0000001N9+01001+99999098761ADDGF108991999999999999999999MW1601
0029028360999991922052320004+67367+026650FM-12+018199999V0202001N003119999999N0000001N9+00941+99999098681ADDGF108991999999999999999999
0046028360999991922052406004+67367+026650FM-12+018199999V0202301N007219999999N0000001N9+00941+99999098551ADDAJ100009199999999GF102991999999999999999999
0029028360999991922052413004+67367+026650FM-12+018199999V0202701N013919999999N0000001N9+01331+99999098711ADDGF108991999999999999999999
0029028360999991922052420004+67367+026650FM-12+018199999V0209991C000019999999N0000001N9+00891+99999099081ADDGF106991999999999999999999
0046028360999991922052506004+67367+026650FM-12+018199999V0201801N003119999999N0000001N9+01001+99999098841ADDAJ100009199999999GF108991999999999999999999
0029028360999991922052513004+67367+026650FM-12+018199999V0203601N007219999999N0000001N9+01061+99999098821ADDGF105991999999999999999999
0029028360999991922052520004+67367+026650FM-12+018199999V0203601N003119999999N0000001N9+00501+99999099111ADDGF108991999999999999999999
0046028360999991922052606004+67367+026650FM-12+018199999V0203601N005119999999N0000001N9+00221+99999099781ADDAJ100009199999999GF108991999999999999999999
0029028360999991922052613004+67367+026650FM-12+018199999V0202701N003119999999N0000001N9+00671+99999099861ADDGF106991999999999999999999
0029028360999991922052620004+67367+026650FM-12+018199999V0201601N003119999999N0000001N9+00501+99999099601ADDGF102991999999999999999999
0052028360999991922052706004+67367+026650FM-12+018199999V0201601N009819999999N0000001N9+00331+99999098761ADDAJ100009199999999GF108991999999999999999999MW1621
0035028360999991922052713004+67367+026650FM-12+018199999V0201401N009819999999N0000001N9+00441+99999097781ADDGF108991999999999999999999MW1621
0035028360999991922052720004+67367+026650FM-12+018199999V0201601N007219999999N0000001N9+00561+99999097081ADDGF108991999999999999999999MW1621
0046028360999991922052806004+67367+026650FM-12+018199999V0202301N005119999999N0000001N9+00781+99999097121ADDAJ100009199999999GF108991999999999999999999
0029028360999991922052813004+67367+026650FM-12+018199999V0202701N013919999999N0000001N9+00831+99999097461ADDGF108991999999999999999999
0029028360999991922052820004+67367+026650FM-12+018199999V0202701N009819999999N0000001N9+00561+99999097911ADDGF108991999999999999999999
0046028360999991922052906004+67367+026650FM-12+018199999V0203201N007219999999N0000001N9+00331+99999098501ADDAJ100009199999999GF108991999999999999999999
0029028360999991922052913004+67367+026650FM-12+018199999V0202701N007219999999N0000001N9+00721+99999098781ADDGF108991999999999999999999
0029028360999991922052920004+67367+026650FM-12+018199999V0202701N004119999999N0000001N9+00611+99999098831ADDGF106991999999999999999999
0046028360999991922053006004+67367+026650FM-12+018199999V0202701N004119999999N0000001N9+00561+99999098681ADDAJ100009199999999GF105991999999999999999999
0029028360999991922053013004+67367+026650FM-12+018199999V0203201N005119999999N0000001N9+01001+99999098501ADDGF108991999999999999999999
0029028360999991922053020004+67367+026650FM-12+018199999V0203601N003119999999N0000001N9+00561+99999098321ADDGF101991999999999999999999
0046028360999991922053106004+67367+026650FM-12+018199999V0201101N003119999999N0000001N9+00721+99999097621ADDAJ100009199999999GF108991999999999999999999
0029028360999991922053113004+67367+026650FM-12+018199999V0203601N003119999999N0000001N9+01111+99999097301ADDGF108991999999999999999999
0029028360999991922053120004+67367+026650FM-12+018199999V0200201N003119999999N0000001N9+00831+99999097481ADDGF108991999999999999999999
0046028360999991922060106004+67367+026650FM-12+018199999V0200501N007219999999N0000001N9+00561+99999097951ADDAJ100009199999999GF108991999999999999999999
0029028360999991922060113004+67367+026650FM-12+018199999V0203201N005119999999N0000001N9+00781+99999098261ADDGF108991999999999999999999
0035028360999991922060120004+67367+026650FM-12+018199999V0203601N005119999999N0000001N9+00501+99999098671ADDGF108991999999999999999999MW1621
0046028360999991922060206004+67367+026650FM-12+018199999V0203601N005119999999N0000001N9+00281+99999099111ADDAJ100009199999999GF108991999999999999999999
0029028360999991922060213004+67367+026650FM-12+018199999V0203601N005119999999N0000001N9+00831+99999099141ADDGF106991999999999999999999
0029028360999991922060220004+67367+026650FM-12+018199999V0203601N004119999999N0000001N9+00441+99999099121ADDGF108991999999999999999999
0052028360999991922060306004+67367+026650FM-12+018199999V0203201N003119999999N0000001N9+00281+99999099161ADDAJ100009199999999GF108991999999999999999999MW1721
0029028360999991922060313004+67367+026650FM-12+018199999V0203601N007219999999N0000001N9+00561+99999099151ADDGF108991999999999999999999
0029028360999991922060320004+67367+026650FM-12+018199999V0203601N003119999999N0000001N9+00441+99999099061ADDGF108991999999999999999999
0046028360999991922060406004+67367+026650FM-12+018199999V0203201N003119999999N0000001N9+00281+99999099001ADDAJ100009199999999GF108991999999999999999999
0029028360999991922060413004+67367+026650FM-12+018199999V0203601N003119999999N0000001N9+00831+99999098721ADDGF108991999999999999999999
0029028360999991922060420004+67367+026650FM-12+018199999V0209991C000019999999N0000001N9+00941+99999098751ADDGF107991999999999999999999
0046028360999991922060506004+67367+026650FM-12+018199999V0201601N001019999999N0000001N9+01061+99999099081ADDAJ100009199999999GF103991999999999999999999
0029028360999991922060513004+67367+026650FM-12+018199999V0200901N003119999999N0000001N9+01501+99999099031ADDGF106991999999999999999999
0029028360999991922060520004+67367+026650FM-12+018199999V0209991C000019999999N0000001N9+01171+99999099081ADDGF108991999999999999999999
0046028360999991922060606004+67367+026650FM-12+018199999V0209991C000019999999N0000001N9+99999+99999098981ADDAJ100009199999999GF104991999999999999999999
0029028360999991922060613004+67367+026650FM-12+018199999V0203601N004119999999N0000001N9+01611+99999098801ADDGF108991999999999999999999
0029028360999991922060620004+67367+026650FM-12+018199999V0200501N001019999999N0000001N9+01171+99999098661ADDGF108991999999999999999999
0046028360999991922060706004+67367+026650FM-12+018199999V0200501N001019999999N0000001N9+00831+99999098711ADDAJ100009199999999GF108991999999999999999999
0029028360999991922060713004+67367+026650FM-12+018199999V0203601N001019999999N0000001N9+00941+99999098711ADDGF108991999999999999999999
0029028360999991922060720004+67367+026650FM-12+018199999V0209991C000019999999N0000001N9+00781+99999098761ADDGF108991999999999999999999
0046028360999991922060806004+67367+026650FM-12+018199999V0201401N001019999999N0000001N9+01111+99999098981ADDAJ100009199999999GF106991999999999999999999
0029028360999991922060813004+67367+026650FM-12+018199999V0201401N001019999999N0000001N9+01611+99999099021ADDGF108991999999999999999999
0029028360999991922060820004+67367+026650FM-12+018199999V0201401N003119999999N0000001N9+01441+99999099061ADDGF108991999999999999999999
0046028360999991922060906004+67367+026650FM-12+018199999V0200901N005119999999N0000001N9+01721+99999099301ADDAJ100009199999999GF107991999999999999999999
0029028360999991922060913004+67367+026650FM-12+018199999V0200501N005119999999N0000001N9+99999+99999099401ADDGF107991999999999999999999
0029028360999991922060920004+67367+026650FM-12+018199999V0200501N005119999999N0000001N9+99999+99999099701ADDGF100991999999999999999999
0046028360999991922061006004+67367+026650FM-12+018199999V0200501N004119999999N0000001N9+01061+99999099941ADDAJ100009199999999GF101991999999999999999999
0029028360999991922061013004+67367+026650FM-12+018199999V0200901N005119999999N0000001N9+02111+99999099711ADDGF106991999999999999999999
0029028360999991922061020004+67367+026650FM-12+018199999V0200501N005119999999N0000001N9+01611+99999099671ADDGF100991999999999999999999
0046028360999991922061106004+67367+026650FM-12+018199999V0200501N005119999999N0000001N9+01331+99999099551ADDAJ100009199999999GF108991999999999999999999
0029028360999991922061113004+67367+026650FM-12+018199999V0200901N007219999999N0000001N9+02111+99999099231ADDGF108991999999999999999999
0035028360999991922061120004+67367+026650FM-12+018199999V0201101N001019999999N0000001N9+01441+99999099311ADDGF108991999999999999999999MW1621
0052028360999991922061206004+67367+026650FM-12+018199999V0200701N003119999999N0000001N9+01331+99999099401ADDAJ100009199999999GF108991999999999999999999MW1621
0029028360999991922061213004+67367+026650FM-12+018199999V0200701N007219999999N0000001N9+02061+99999099351ADDGF108991999999999999999999
0029028360999991922061220004+67367+026650FM-12+018199999V0200901N007219999999N0000001N9+01611+99999099591ADDGF108991999999999999999999
0046028360999991922061306004+67367+026650FM-12+018199999V0200901N001019999999N0000001N9+01721+99999099741ADDAJ100009199999999GF107991999999999999999999
0029028360999991922061313004+67367+026650FM-12+018199999V0200901N005119999999N0000001N9+01941+99999099591ADDGF107991999999999999999999
0029028360999991922061320004+67367+026650FM-12+018199999V0209991C000019999999N0000001N9+01391+99999099541ADDGF108991999999999999999999
0046028360999991922061406004+67367+026650FM-12+018199999V0201601N003119999999N0000001N9+01721+99999099321ADDAJ100009199999999GF102991999999999999999999
0029028360999991922061413004+67367+026650FM-12+018199999V0202001N007219999999N0000001N9+02171+99999099111ADDGF108991999999999999999999
0029028360999991922061420004+67367+026650FM-12+018199999V0209991C000019999999N0000001N9+01611+99999099141ADDGF108991999999999999999999
0046028360999991922061506004+67367+026650FM-12+018199999V0201401N001019999999N0000001N9+01781+99999099161ADDAJ100009199999999GF108991999999999999999999
0035028360999991922061513004+67367+026650FM-12+018199999V0201601N001019999999N0000001N9+02281+99999098981ADDGF108991999999999999999999MW1171
0029028360999991922061520004+67367+026650FM-12+018199999V0201601N001019999999N0000001N9+01501+99999099021ADDGF108991999999999999999999
0046028360999991922061606004+67367+026650FM-12+018199999V0201401N003119999999N0000001N9+01891+99999098831ADDAJ100009199999999GF108991999999999999999999
0029028360999991922061613004+67367+026650FM-12+018199999V0201401N008719999999N0000001N9+02671+99999098421ADDGF106991999999999999999999
0029028360999991922061620004+67367+026650FM-12+018199999V0209991C000019999999N0000001N9+02001+99999098311ADDGF106991999999999999999999
0046028360999991922061706004+67367+026650FM-12+018199999V0202001N003119999999N0000001N9+01781+99999098391ADDAJ100009199999999GF108991999999999999999999
0029028360999991922061713004+67367+026650FM-12+018199999V0202501N005119999999N0000001N9+02221+99999098521ADDGF108991999999999999999999
0029028360999991922061720004+67367+026650FM-12+018199999V0203201N001019999999N0000001N9+01781+99999098711ADDGF106991999999999999999999
0046028360999991922061806004+67367+026650FM-12+018199999V0202501N001019999999N0000001N9+01441+99999098981ADDAJ100009199999999GF107991999999999999999999
0029028360999991922061813004+67367+026650FM-12+018199999V0202701N001019999999N0000001N9+02111+99999099141ADDGF106991999999999999999999
0029028360999991922061820004+67367+026650FM-12+018199999V0209991C000019999999N0000001N9+02061+99999099161ADDGF105991999999999999999999
0046028360999991922061906004+67367+026650FM-12+018199999V0209991C000019999999N0000001N9+01941+99999099271ADDAJ100009199999999GF102991999999999999999999
0029028360999991922061913004+67367+026650FM-12+018199999V0202701N001019999999N0000001N9+02441+99999099061ADDGF103991999999999999999999
0029028360999991922061920004+67367+026650FM-12+018199999V0209991C000019999999N0000001N9+02111+99999098861ADDGF102991999999999999999999
0046028360999991922062006004+67367+026650FM-12+018199999V0201401N005119999999N0000001N9+02001+99999098871ADDAJ100009199999999GF102991999999999999999999
0029028360999991922062013004+67367+026650FM-12+018199999V0201401N005119999999N0000001N9+02111+99999099061ADDGF102991999999999999999999
0029028360999991922062020004+67367+026650FM-12+018199999V0201401N003119999999N0000001N9+01501+99999099271ADDGF100991999999999999999999
0046028360999991922062106004+67367+026650FM-12+018199999V0201401N003119999999N0000001N9+01281+99999099471ADDAJ100009199999999GF101991999999999999999999
0029028360999991922062113004+67367+026650FM-12+018199999V0200901N005119999999N0000001N9+01891+99999099141ADDGF102991999999999999999999
0029028360999991922062120004+67367+026650FM-12+018199999V0201401N003119999999N0000001N9+01561+99999098921ADDGF101991999999999999999999
0046028360999991922062206004+67367+026650FM-12+018199999V0201101N003119999999N0000001N9+01331+99999098711ADDAJ100009199999999GF108991999999999999999999
0029028360999991922062213004+67367+026650FM-12+018199999V0201801N005119999999N0000001N9+01831+99999098501ADDGF108991999999999999999999
0029028360999991922062220004+67367+026650FM-12+018199999V0201801N003119999999N0000001N9+01391+99999098401ADDGF108991999999999999999999
0046028360999991922062306004+67367+026650FM-12+018199999V0201401N003119999999N0000001N9+01281+99999098341ADDAJ100009199999999GF107991999999999999999999
0029028360999991922062313004+67367+026650FM-12+018199999V0201101N005119999999N0000001N9+01831+99999098071ADDGF108991999999999999999999
0035028360999991922062320004+67367+026650FM-12+018199999V0201401N005119999999N0000001N9+01001+99999097961ADDGF108991999999999999999999MW1621
0052028360999991922062406004+67367+026650FM-12+018199999V0202001N001019999999N0000001N9+00941+99999097781ADDAJ100009199999999GF108991999999999999999999MW1621
0029028360999991922062413004+67367+026650FM-12+018199999V0202001N003119999999N0000001N9+01221+99999097911ADDGF108991999999999999999999
0029028360999991922062420004+67367+026650FM-12+018199999V0202501N001019999999N0000001N9+01171+99999098001ADDGF108991999999999999999999
0046028360999991922062506004+67367+026650FM-12+018199999V0201801N001019999999N0000001N9+01061+99999098071ADDAJ100009199999999GF108991999999999999999999
0035028360999991922062513004+67367+026650FM-12+018199999V0202701N001019999999N0000001N9+01501+99999098041ADDGF108991999999999999999999MW1621
0029028360999991922062520004+67367+026650FM-12+018199999V0203201N001019999999N0000001N9+99999+99999098101ADDGF108991999999999999999999
0046028360999991922062606004+67367+026650FM-12+018199999V0202501N005119999999N0000001N9+01441+99999098261ADDAJ100009199999999GF100991999999999999999999
0029028360999991922062613004+67367+026650FM-12+018199999V0202501N005119999999N0000001N9+01941+99999098241ADDGF106991999999999999999999
0029028360999991922062620004+67367+026650FM-12+018199999V0209991C000019999999N0000001N9+01671+99999098281ADDGF100991999999999999999999
0046028360999991922062706004+67367+026650FM-12+018199999V0201401N003119999999N0000001N9+01561+99999098101ADDAJ100009199999999GF108991999999999999999999
0029028360999991922062713004+67367+026650FM-12+018199999V0201801N003119999999N0000001N9+01331+99999098231ADDGF108991999999999999999999
0029028360999991922062720004+67367+026650FM-12+018199999V0202301N005119999999N0000001N9+01441+99999098231ADDGF108991999999999999999999
0046028360999991922062806004+67367+026650FM-12+018199999V0202001N001019999999N0000001N9+01441+99999098311ADDAJ100009199999999GF108991999999999999999999
0029028360999991922062813004+67367+026650FM-12+018199999V0201801N003119999999N0000001N9+01781+99999098021ADDGF108991999999999999999999
0035028360999991922062820004+67367+026650FM-12+018199999V0200701N001019999999N0000001N9+01331+99999097641ADDGF108991999999999999999999MW1621
0046028360999991922062906004+67367+026650FM-12+018199999V0201801N001019999999N0000001N9+01221+99999096471ADDAJ100009199999999GF108991999999999999999999
0029028360999991922062913004+67367+026650FM-12+018199999V0202301N007219999999N0000001N9+01281+99999097221ADDGF108991999999999999999999
0029028360999991922062920004+67367+026650FM-12+018199999V0202001N003119999999N0000001N9+01391+99999097741ADDGF101991999999999999999999
0046028360999991922063006004+67367+026650FM-12+018199999V0201401N005119999999N0000001N9+99999+99999097841ADDAJ100009199999999GF108991999999999999999999
0035028360999991922063013004+67367+026650FM-12+018199999V0201401N006219999999N0000001N9+99999+99999097751ADDGF108991999999999999999999MW1621
0029028360999991922063020004+67367+026650FM-12+018199999V0202001N001019999999N0000001N9+01331+99999097901ADDGF101991999999999999999999
0052028360999991922070106004+67367+026650FM-12+018199999V0201601N007219999999N0000001N9+00941+99999098001ADDAJ100009199999999GF108991999999999999999999MW1621
0029028360999991922070113004+67367+026650FM-12+018199999V0201801N007219999999N0000001N9+01391+99999098431ADDGF108991999999999999999999
0029028360999991922070120004+67367+026650FM-12+018199999V0202301N001019999999N0000001N9+01171+99999098901ADDGF108991999999999999999999
0046028360999991922070206004+67367+026650FM-12+018199999V0202001N007219999999N0000001N9+01221+99999099161ADDAJ100009199999999GF106991999999999999999999
0035028360999991922070213004+67367+026650FM-12+018199999V0202701N001019999999N0000001N9+01061+99999099351ADDGF108991999999999999999999MW1621
0029028360999991922070220004+67367+026650FM-12+018199999V0201801N001019999999N0000001N9+01221+99999099641ADDGF102991999999999999999999
0046028360999991922070306004+67367+026650FM-12+018199999V0201801N003119999999N0000001N9+01501+99999100071ADDAJ100009199999999GF106991999999999999999999
0029028360999991922070313004+67367+026650FM-12+018199999V0201801N005119999999N0000001N9+01781+99999100041ADDGF108991999999999999999999
0029028360999991922070320004+67367+026650FM-12+018199999V0202001N004119999999N0000001N9+01671+99999099881ADDGF108991999999999999999999
0046028360999991922070406004+67367+026650FM-12+018199999V0202001N001019999999N0000001N9+01561+99999099701ADDAJ100009199999999GF108991999999999999999999
0029028360999991922070413004+67367+026650FM-12+018199999V0201601N005119999999N0000001N9+02171+99999099441ADDGF108991999999999999999999
0035028360999991922070420004+67367+026650FM-12+018199999V0209991C000019999999N0000001N9+01501+99999099381ADDGF108991999999999999999999MW1621
0046028360999991922070506004+67367+026650FM-12+018199999V0202001N001019999999N0000001N9+01391+99999099141ADDAJ100009199999999GF108991999999999999999999
0029028360999991922070513004+67367+026650FM-12+018199999V0201801N003119999999N0000001N9+02061+99999098911ADDGF108991999999999999999999
0029028360999991922070520004+67367+026650FM-12+018199999V0209991C000019999999N0000001N9+01781+99999098821ADDGF106991999999999999999999
0052028360999991922070606004+67367+026650FM-12+018199999V0201101N001019999999N0000001N9+01331+99999098601ADDAJ100009199999999GF108991999999999999999999MW1621
0029028360999991922070613004+67367+026650FM-12+018199999V0201801N005119999999N0000001N9+01831+99999098601ADDGF108991999999999999999999
0029028360999991922070620004+67367+026650FM-12+018199999V0202301N003119999999N0000001N9+01611+99999098711ADDGF108991999999999999999999
0046028360999991922070706004+67367+026650FM-12+018199999V0201601N003119999999N0000001N9+01391+99999098631ADDAJ100009199999999GF108991999999999999999999
0029028360999991922070713004+67367+026650FM-12+018199999V0201801N007219999999N0000001N9+02221+99999098021ADDGF108991999999999999999999
0029028360999991922070720004+67367+026650FM-12+018199999V0201801N008219999999N0000001N9+01831+99999098071ADDGF100991999999999999999999
0046028360999991922070806004+67367+026650FM-12+018199999V0201801N007219999999N0000001N9+01561+99999098421ADDAJ100009199999999GF101991999999999999999999
0029028360999991922070813004+67367+026650FM-12+018199999V0202301N003119999999N0000001N9+02001+99999098461ADDGF107991999999999999999999
0029028360999991922070820004+67367+026650FM-12+018199999V0202001N004119999999N0000001N9+01611+99999098511ADDGF108991999999999999999999
0046028360999991922070906004+67367+026650FM-12+018199999V0202501N005119999999N0000001N9+01501+99999098831ADDAJ100009199999999GF100991999999999999999999
0029028360999991922070913004+67367+026650FM-12+018199999V0202701N005119999999N0000001N9+01721+99999099121ADDGF106991999999999999999999
0029028360999991922070920004+67367+026650FM-12+018199999V0202001N003119999999N0000001N9+01501+99999099391ADDGF106991999999999999999999
0046028360999991922071006004+67367+026650FM-12+018199999V0202001N003119999999N0000001N9+01441+99999099431ADDAJ100009199999999GF101991999999999999999999
0029028360999991922071013004+67367+026650FM-12+018199999V0202001N007219999999N0000001N9+01671+99999099191ADDGF108991999999999999999999
0035028360999991922071020004+67367+026650FM-12+018199999V0202301N003119999999N0000001N9+01281+99999098791ADDGF108991999999999999999999MW1621
0052028360999991922071106004+67367+026650FM-12+018199999V0201601N005119999999N0000001N9+01171+99999098641ADDAJ100009199999999GF108991999999999999999999MW1621
0029028360999991922071113004+67367+026650FM-12+018199999V0202301N005119999999N0000001N9+01671+99999098601ADDGF108991999999999999999999
0029028360999991922071120004+67367+026650FM-12+018199999V0209991C000019999999N0000001N9+01281+99999098761ADDGF107991999999999999999999
0046028360999991922071206004+67367+026650FM-12+018199999V0203601N005119999999N0000001N9+00941+99999099361ADDAJ100009199999999GF108991999999999999999999
0029028360999991922071213004+67367+026650FM-12+018199999V0203601N005119999999N0000001N9+01221+99999099631ADDGF108991999999999999999999
0029028360999991922071220004+67367+026650FM-12+018199999V0203601N007219999999N0000001N9+00941+99999099981ADDGF108991999999999999999999
0046028360999991922071306004+67367+026650FM-12+018199999V0203201N005119999999N0000001N9+00831+99999100041ADDAJ100009199999999GF108991999999999999999999
0029028360999991922071313004+67367+026650FM-12+018199999V0200201N005119999999N0000001N9+01061+99999099961ADDGF108991999999999999999999
0029028360999991922071320004+67367+026650FM-12+018199999V0203601N003119999999N0000001N9+00891+99999099921ADDGF108991999999999999999999
0046028360999991922071406004+67367+026650FM-12+018199999V0200501N003119999999N0000001N9+00941+99999099781ADDAJ100009199999999GF108991999999999999999999
0035028360999991922071413004+67367+026650FM-12+018199999V0203601N001019999999N0000001N9+01171+99999099641ADDGF108991999999999999999999MW1601
0029028360999991922071420004+67367+026650FM-12+018199999V0209991C000019999999N0000001N9+01331+99999099481ADDGF108991999999999999999999
0046028360999991922071506004+67367+026650FM-12+018199999V0200701N003119999999N0000001N9+01111+99999099381ADDAJ100009199999999GF108991999999999999999999
0029028360999991922071513004+67367+026650FM-12+018199999V0200901N005119999999N0000001N9+01611+99999099321ADDGF108991999999999999999999
0029028360999991922071520004+67367+026650FM-12+018199999V0209991C000019999999N0000001N9+01831+99999099261ADDGF106991999999999999999999
0046028360999991922071606004+67367+026650FM-12+018199999V0209991C000019999999N0000001N9+01561+99999099351ADDAJ100009199999999GF106991999999999999999999
0029028360999991922071613004+67367+026650FM-12+018199999V0200901N005119999999N0000001N9+02171+99999099161ADDGF101991999999999999999999
0029028360999991922071620004+67367+026650FM-12+018199999V0202001N001019999999N0000001N9+01781+99999099161ADDGF108991999999999999999999
0046028360999991922071706004+67367+026650FM-12+018199999V0201401N001019999999N0000001N9+01561+99999099281ADDAJ100009199999999GF108991999999999999999999
0029028360999991922071713004+67367+026650FM-12+018199999V0201401N003119999999N0000001N9+02221+99999099111ADDGF102991999999999999999999
0029028360999991922071720004+67367+026650FM-12+018199999V0209991C000019999999N0000001N9+01721+99999099031ADDGF100991999999999999999999
0046028360999991922071806004+67367+026650FM-12+018199999V0209991C000019999999N0000001N9+01611+99999099191ADDAJ100009199999999GF100991999999999999999999
0029028360999991922071813004+67367+026650FM-12+018199999V0200901N001019999999N0000001N9+01941+99999098921ADDGF108991999999999999999999
0029028360999991922071820004+67367+026650FM-12+018199999V0200901N004119999999N0000001N9+01441+99999098911ADDGF108991999999999999999999
0046028360999991922071906004+67367+026650FM-12+018199999V0200501N003119999999N0000001N9+01561+99999098681ADDAJ100009199999999GF104991999999999999999999
0029028360999991922071913004+67367+026650FM-12+018199999V0200901N005119999999N0000001N9+01831+99999098461ADDGF108991999999999999999999
0029028360999991922071920004+67367+026650FM-12+018199999V0200701N001019999999N0000001N9+01501+99999098401ADDGF108991999999999999999999
0046028360999991922072006004+67367+026650FM-12+018199999V0209991C000019999999N0000001N9+01331+99999098421ADDAJ100009199999999GF108991999999999999999999
0029028360999991922072013004+67367+026650FM-12+018199999V0200901N001019999999N0000001N9+01561+99999098431ADDGF108991999999999999999999
0029028360999991922072020004+67367+026650FM-12+018199999V0209991C000019999999N0000001N9+01441+99999098501ADDGF108991999999999999999999
0046028360999991922072106004+67367+026650FM-12+018199999V0200501N001019999999N0000001N9+01611+99999098551ADDAJ100009199999999GF108991999999999999999999
0029028360999991922072113004+67367+026650FM-12+018199999V0203601N003119999999N0000001N9+99999+99999098481ADDGF107991999999999999999999
0029028360999991922072120004+67367+026650FM-12+018199999V0200201N005119999999N0000001N9+01501+99999098501ADDGF108991999999999999999999
0052028360999991922072206004+67367+026650FM-12+018199999V0200201N003119999999N0000001N9+01281+99999098391ADDAJ100009199999999GF108991999999999999999999MW1621
0029028360999991922072213004+67367+026650FM-12+018199999V0200201N005119999999N0000001N9+01611+99999098391ADDGF108991999999999999999999
0029028360999991922072220004+67367+026650FM-12+018199999V0200201N003119999999N0000001N9+01501+99999098421ADDGF107991999999999999999999
0046028360999991922072306004+67367+026650FM-12+018199999V0200901N001019999999N0000001N9+01561+99999098501ADDAJ100009199999999GF103991999999999999999999
0029028360999991922072313004+67367+026650FM-12+018199999V0201401N001019999999N0000001N9+02281+99999098471ADDGF108991999999999999999999
0035028360999991922072320004+67367+026650FM-12+018199999V0209991C000019999999N0000001N9+01781+99999098591ADDGF106991999999999999999999MW1171
0046028360999991922072406004+67367+026650FM-12+018199999V0203201N001019999999N0000001N9+01721+99999098871ADDAJ100009199999999GF108991999999999999999999
0029028360999991922072413004+67367+026650FM-12+018199999V0200901N005119999999N0000001N9+02611+99999098821ADDGF106991999999999999999999
0029028360999991922072420004+67367+026650FM-12+018199999V0200901N001019999999N0000001N9+02001+99999098941ADDGF101991999999999999999999
0046028360999991922072506004+67367+026650FM-12+018199999V0201401N001019999999N0000001N9+01671+99999099271ADDAJ100009199999999GF108991999999999999999999
0029028360999991922072513004+67367+026650FM-12+018199999V0200901N006219999999N0000001N9+02391+99999099201ADDGF101991999999999999999999
0029028360999991922072520004+67367+026650FM-12+018199999V0200901N001019999999N0000001N9+01721+99999099361ADDGF101991999999999999999999
0046028360999991922072606004+67367+026650FM-12+018199999V0201601N001019999999N0000001N9+01611+99999099631ADDAJ100009199999999GF100991999999999999999999
0029028360999991922072613004+67367+026650FM-12+018199999V0201101N005119999999N0000001N9+02111+99999099441ADDGF108991999999999999999999
0029028360999991922072620004+67367+026650FM-12+018199999V0209991C000019999999N0000001N9+01281+99999099381ADDGF102991999999999999999999
0046028360999991922072706004+67367+026650FM-12+018199999V0200701N001019999999N0000001N9+01441+99999099261ADDAJ100009199999999GF101991999999999999999999
0029028360999991922072713004+67367+026650FM-12+018199999V0201401N005119999999N0000001N9+02061+99999098871ADDGF108991999999999999999999
0029028360999991922072720004+67367+026650FM-12+018199999V0209991C000019999999N0000001N9+01281+99999098721ADDGF106991999999999999999999
0046028360999991922072806004+67367+026650FM-12+018199999V0203201N001019999999N0000001N9+01171+99999098631ADDAJ100009199999999GF108991999999999999999999
0029028360999991922072813004+67367+026650FM-12+018199999V0203601N005119999999N0000001N9+01721+99999098441ADDGF108991999999999999999999
0035028360999991922072820004+67367+026650FM-12+018199999V0203601N003119999999N0000001N9+01561+99999098301ADDGF108991999999999999999999MW1621
0046028360999991922072906004+67367+026650FM-12+018199999V0200501N003119999999N0000001N9+01111+99999098071ADDAJ100009199999999GF108991999999999999999999
0035028360999991922072913004+67367+026650FM-12+018199999V0200501N007219999999N0000001N9+01391+99999098041ADDGF108991999999999999999999MW1601
0029028360999991922072920004+67367+026650FM-12+018199999V0200501N003119999999N0000001N9+01501+99999098021ADDGF108991999999999999999999
0046028360999991922073006004+67367+026650FM-12+018199999V0200501N005119999999N0000001N9+01331+99999098081ADDAJ100009199999999GF108991999999999999999999
0029028360999991922073013004+67367+026650FM-12+018199999V0203601N005119999999N0000001N9+99999+99999098181ADDGF108991999999999999999999
0029028360999991922073020004+67367+026650FM-12+018199999V0200501N001019999999N0000001N9+01501+99999098311ADDGF108991999999999999999999
0046028360999991922073106004+67367+026650FM-12+018199999V0203401N003119999999N0000001N9+01061+99999098441ADDAJ100009199999999GF108991999999999999999999
0029028360999991922073113004+67367+026650FM-12+018199999V0203601N001019999999N0000001N9+01781+99999098431ADDGF107991999999999999999999
0029028360999991922073120004+67367+026650FM-12+018199999V0203601N001019999999N0000001N9+01171+99999098441ADDGF103991999999999999999999
0046028360999991922080106004+67367+026650FM-12+018199999V0203201N003119999999N0000001N9+01171+99999098471ADDAJ100009199999999GF108991999999999999999999
0035028360999991922080113004+67367+026650FM-12+018199999V0201601N001019999999N0000001N9+01391+99999098521ADDGF108991999999999999999999MW1621
0029028360999991922080120004+67367+026650FM-12+018199999V0202301N003119999999N0000001N9+01331+99999098461ADDGF108991999999999999999999
0046028360999991922080206004+67367+026650FM-12+018199999V0202001N005119999999N0000001N9+01331+99999098441ADDAJ100009199999999GF106991999999999999999999
0035028360999991922080213004+67367+026650FM-12+018199999V0201801N005119999999N0000001N9+01281+99999098511ADDGF108991999999999999999999MW1601
0029028360999991922080220004+67367+026650FM-12+018199999V0202301N001019999999N0000001N9+01111+99999098601ADDGF108991999999999999999999
0046028360999991922080306004+67367+026650FM-12+018199999V0202001N003119999999N0000001N9+01111+99999098951ADDAJ100009199999999GF108991999999999999999999
0035028360999991922080313004+67367+026650FM-12+018199999V0202301N005119999999N0000001N9+01561+99999099221ADDGF108991999999999999999999MW1601
0029028360999991922080320004+67367+026650FM-12+018199999V0209991C000019999999N0000001N9+01171+99999099341ADDGF102991999999999999999999
0046028360999991922080406004+67367+026650FM-12+018199999V0201401N001019999999N0000001N9+01061+99999099031ADDAJ100009199999999GF108991999999999999999999
0035028360999991922080413004+67367+026650FM-12+018199999V0200201N003119999999N0000001N9+01171+99999098661ADDGF108991999999999999999999MW1621
0035028360999991922080420004+67367+026650FM-12+018199999V0200501N003119999999N0000001N9+01111+99999098081ADDGF108991999999999999999999MW1621
0052028360999991922080506004+67367+026650FM-12+018199999V0201801N003119999999N0000001N9+01171+99999097751ADDAJ100009199999999GF108991999999999999999999MW1601
0029028360999991922080513004+67367+026650FM-12+018199999V0202301N005119999999N0000001N9+01391+99999097801ADDGF108991999999999999999999
0035028360999991922080520004+67367+026650FM-12+018199999V0202501N003119999999N0000001N9+01171+99999097991ADDGF108991999999999999999999MW1621
0046028360999991922080606004+67367+026650FM-12+018199999V0202501N001019999999N0000001N9+01221+99999099111ADDAJ100009199999999GF101991999999999999999999
0029028360999991922080613004+67367+026650FM-12+018199999V0202501N003119999999N0000001N9+01671+99999099381ADDGF107991999999999999999999
0029028360999991922080620004+67367+026650FM-12+018199999V0209991C000019999999N0000001N9+01061+99999099541ADDGF108991999999999999999999
0046028360999991922080706004+67367+026650FM-12+018199999V0203601N001019999999N0000001N9+00941+99999099301ADDAJ100009199999999GF108991999999999999999999
0035028360999991922080713004+67367+026650FM-12+018199999V0203601N011819999999N0000001N9+00891+99999098631ADDGF108991999999999999999999MW1621
0035028360999991922080720004+67367+026650FM-12+018199999V0200501N008719999999N0000001N9+00831+99999097901ADDGF108991999999999999999999MW1621
0052028360999991922080806004+67367+026650FM-12+018199999V0200901N003119999999N0000001N9+00891+99999097511ADDAJ100009199999999GF108991999999999999999999MW1621
0035028360999991922080813004+67367+026650FM-12+018199999V0200901N001019999999N0000001N9+01061+99999097621ADDGF108991999999999999999999MW1621
0035028360999991922080820004+67367+026650FM-12+018199999V0202301N003119999999N0000001N9+01061+99999097991ADDGF108991999999999999999999MW1621
0046028360999991922080906004+67367+026650FM-12+018199999V0202301N005119999999N0000001N9+01001+99999098391ADDAJ100009199999999GF108991999999999999999999
0029028360999991922080913004+67367+026650FM-12+018199999V0202501N005119999999N0000001N9+01501+99999098751ADDGF108991999999999999999999
0029028360999991922080920004+67367+026650FM-12+018199999V0202001N003119999999N0000001N9+01061+99999098941ADDGF104991999999999999999999
0046028360999991922081006004+67367+026650FM-12+018199999V0202301N001019999999N0000001N9+01061+99999099161ADDAJ100009199999999GF108991999999999999999999
0029028360999991922081013004+67367+026650FM-12+018199999V0200201N001019999999N0000001N9+01831+99999099031ADDGF108991999999999999999999
0029028360999991922081020004+67367+026650FM-12+018199999V0200501N003119999999N0000001N9+01281+99999099061ADDGF108991999999999999999999
0046028360999991922081106004+67367+026650FM-12+018199999V0200501N003119999999N0000001N9+01061+99999099101ADDAJ100009199999999GF108991999999999999999999
0029028360999991922081113004+67367+026650FM-12+018199999V0200201N009819999999N0000001N9+01331+99999099271ADDGF108991999999999999999999
0029028360999991922081120004+67367+026650FM-12+018199999V0200201N009819999999N0000001N9+00941+99999099401ADDGF108991999999999999999999
0046028360999991922081206004+67367+026650FM-12+018199999V0200201N008719999999N0000001N9+00721+99999099271ADDAJ100009199999999GF108991999999999999999999
0035028360999991922081213004+67367+026650FM-12+018199999V0200501N007219999999N0000001N9+00781+99999099301ADDGF108991999999999999999999MW1621
0029028360999991922081220004+67367+026650FM-12+018199999V0200501N008719999999N0000001N9+00781+99999099231ADDGF108991999999999999999999
0046028360999991922081306004+67367+026650FM-12+018199999V0200501N007219999999N0000001N9+00671+99999099401ADDAJ100009199999999GF108991999999999999999999
0029028360999991922081313004+67367+026650FM-12+018199999V0200501N005119999999N0000001N9+00941+99999099321ADDGF108991999999999999999999
0029028360999991922081320004+67367+026650FM-12+018199999V0203601N003119999999N0000001N9+00891+99999099301ADDGF108991999999999999999999
0046028360999991922081406004+67367+026650FM-12+018199999V0200701N003119999999N0000001N9+00721+99999099321ADDAJ100009199999999GF108991999999999999999999
0029028360999991922081413004+67367+026650FM-12+018199999V0200901N001019999999N0000001N9+01221+99999099231ADDGF107991999999999999999999
0029028360999991922081420004+67367+026650FM-12+018199999V0200701N003119999999N0000001N9+00891+99999099301ADDGF108991999999999999999999
0046028360999991922081506004+67367+026650FM-12+018199999V0200701N004119999999N0000001N9+00781+99999099321ADDAJ100009199999999GF108991999999999999999999
0035028360999991922081513004+67367+026650FM-12+018199999V0203601N003119999999N0000001N9+01171+99999099201ADDGF108991999999999999999999MW1621
0029028360999991922081520004+67367+026650FM-12+018199999V0200501N001019999999N0000001N9+00831+99999099181ADDGF108991999999999999999999
0046028360999991922081606004+67367+026650FM-12+018199999V0203401N001019999999N0000001N9+00721+99999099201ADDAJ100009199999999GF108991999999999999999999
0029028360999991922081613004+67367+026650FM-12+018199999V0203201N003119999999N0000001N9+01221+99999099141ADDGF108991999999999999999999
0029028360999991922081620004+67367+026650FM-12+018199999V0209991C000019999999N0000001N9+00561+99999099141ADDGF106991999999999999999999
0046028360999991922081706004+67367+026650FM-12+018199999V0203601N001019999999N0000001N9+00611+99999099271ADDAJ100009199999999GF108991999999999999999999
0029028360999991922081713004+67367+026650FM-12+018199999V0200201N005119999999N0000001N9+01281+99999099301ADDGF108991999999999999999999
0029028360999991922081720004+67367+026650FM-12+018199999V0200501N001019999999N0000001N9+00561+99999099301ADDGF101991999999999999999999
0046028360999991922081806004+67367+026650FM-12+018199999V0209991C000019999999N0000001N9+00611+99999099401ADDAJ100009199999999GF100991999999999999999999
0029028360999991922081813004+67367+026650FM-12+018199999V0201601N001019999999N0000001N9+01561+99999099271ADDGF104991999999999999999999
0029028360999991922081820004+67367+026650FM-12+018199999V0201401N001019999999N0000001N9+00671+99999099161ADDGF101991999999999999999999
0046028360999991922081906004+67367+026650FM-12+018199999V0201401N001019999999N0000001N9+00781+99999099201ADDAJ100009199999999GF100991999999999999999999
0029028360999991922081913004+67367+026650FM-12+018199999V0201401N005119999999N0000001N9+01781+99999099081ADDGF101991999999999999999999
0029028360999991922081920004+67367+026650FM-12+018199999V0209991C000019999999N0000001N9+01111+99999099161ADDGF108991999999999999999999
0046028360999991922082006004+67367+026650FM-12+018199999V0201401N003119999999N0000001N9+01171+99999099261ADDAJ100009199999999GF105991999999999999999999
0029028360999991922082013004+67367+026650FM-12+018199999V0201801N007219999999N0000001N9+01671+99999099301ADDGF108991999999999999999999
0029028360999991922082020004+67367+026650FM-12+018199999V0201401N003119999999N0000001N9+01391+99999099321ADDGF108991999999999999999999
0046028360999991922082106004+67367+026650FM-12+018199999V0201801N005119999999N0000001N9+00941+99999099271ADDAJ100009199999999GF108991999999999999999999
0029028360999991922082113004+67367+026650FM-12+018199999V0201801N005119999999N0000001N9+01781+99999099141ADDGF108991999999999999999999
0029028360999991922082120004+67367+026650FM-12+018199999V0202001N003119999999N0000001N9+01391+99999099161ADDGF108991999999999999999999
0052028360999991922082206004+67367+026650FM-12+018199999V0209991C000019999999N0000001N9+01281+99999099221ADDAJ100009199999999GF108991999999999999999999MW1621
0029028360999991922082213004+67367+026650FM-12+018199999V0201401N003119999999N0000001N9+01831+99999099191ADDGF108991999999999999999999
0035028360999991922082220004+67367+026650FM-12+018199999V0201401N003119999999N0000001N9+01281+99999099121ADDGF108991999999999999999999MW1621
0046028360999991922082306004+67367+026650FM-12+018199999V0201801N003119999999N0000001N9+01221+99999099001ADDAJ100009199999999GF108991999999999999999999
0035028360999991922082313004+67367+026650FM-12+018199999V0202301N005119999999N0000001N9+01331+99999099001ADDGF108991999999999999999999MW1621
0029028360999991922082320004+67367+026650FM-12+018199999V0202301N001019999999N0000001N9+00831+99999099151ADDGF100991999999999999999999
0046028360999991922082406004+67367+026650FM-12+018199999V0202301N001019999999N0000001N9+01001+99999099041ADDAJ100009199999999GF108991999999999999999999
0029028360999991922082413004+67367+026650FM-12+018199999V0201401N001019999999N0000001N9+01721+99999098961ADDGF101991999999999999999999
0029028360999991922082420004+67367+026650FM-12+018199999V0201401N003119999999N0000001N9+01441+99999098841ADDGF108991999999999999999999
0046028360999991922082506004+67367+026650FM-12+018199999V0201801N001019999999N0000001N9+01331+99999098901ADDAJ100009199999999GF107991999999999999999999
0029028360999991922082513004+67367+026650FM-12+018199999V0201401N005119999999N0000001N9+01941+99999098821ADDGF108991999999999999999999
0029028360999991922082520004+67367+026650FM-12+018199999V0201801N005119999999N0000001N9+01501+99999098841ADDGF108991999999999999999999
0052028360999991922082606004+67367+026650FM-12+018199999V0202301N001019999999N0000001N9+01221+99999098941ADDAJ100009199999999GF108991999999999999999999MW1621
0029028360999991922082613004+67367+026650FM-12+018199999V0201801N001019999999N0000001N9+99999+99999099061ADDGF108991999999999999999999
0029028360999991922082620004+67367+026650FM-12+018199999V0209991C000019999999N0000001N9+01061+99999099111ADDGF108991999999999999999999
0046028360999991922082706004+67367+026650FM-12+018199999V0209991C000019999999N0000001N9+01061+99999099231ADDAJ100009199999999GF108991999999999999999999
0029028360999991922082713004+67367+026650FM-12+018199999V0202301N003119999999N0000001N9+01671+99999099261ADDGF108991999999999999999999
0029028360999991922082720004+67367+026650FM-12+018199999V0202301N001019999999N0000001N9+00891+99999099261ADDGF108991999999999999999999
0046028360999991922082806004+67367+026650FM-12+018199999V0209991C000019999999N0000001N9+00891+99999099301ADDAJ100009199999999GF108991999999999999999999
