0029028360999991924010106004+67367+026650FM-12+018199999V0200501N003119999999N0000001N9-02891+99999100791ADDGF108991999999999999999999
0029028360999991924010113004+67367+026650FM-12+018199999V0209991C000019999999N0000001N9-02281+99999100791ADDGF100991999999999999999999
0029028360999991924010120004+67367+026650FM-12+018199999V0200901N001019999999N0000001N9-01331+99999100481ADDGF108991999999999999999999
0029028360999991924010206004+67367+026650FM-12+018199999V0201101N002119999999N0000001N9-01941+99999099951ADDGF102991999999999999999999
0035028360999991924010213004+67367+026650FM-12+018199999V0202001N003119999999N0000001N9-01331+99999100041ADDGF108991999999999999999999MW1721
0029028360999991924010220004+67367+026650FM-12+018199999V0202001N006219999999N0000001N9-00941+99999100361ADDGF108991999999999999999999
0035028360999991924010306004+67367+026650FM-12+018199999V0202001N003119999999N0000001N9-01281+99999100501ADDGF108991999999999999999999MW1701
0029028360999991924010313004+67367+026650FM-12+018199999V0201401N003119999999N0000001N9-01501+99999100421ADDGF108991999999999999999999
0029028360999991924010320004+67367+026650FM-12+018199999V0201401N001019999999N0000001N9-01501+99999099951ADDGF108991999999999999999999
0029028360999991924010406004+67367+026650FM-12+018199999V0201801N002119999999N0000001N9-01501+99999100081ADDGF108991999999999999999999
0035028360999991924010413004+67367+026650FM-12+018199999V0201801N003119999999N0000001N9-01331+99999100341ADDGF108991999999999999999999MW1701
0035028360999991924010420004+67367+026650FM-12+018199999V0201801N003119999999N0000001N9-01171+99999100151ADDGF108991999999999999999999MW1701
0029028360999991924010506004+67367+026650FM-12+018199999V0201401N003119999999N0000001N9-01441+99999099761ADDGF108991999999999999999999
0035028360999991924010513004+67367+026650FM-12+018199999V0201801N004119999999N0000001N9-01391+99999099521ADDGF108991999999999999999999MW1701
0029028360999991924010520004+67367+026650FM-12+018199999V0201601N005119999999N0000001N9-01171+99999099301ADDGF108991999999999999999999
0029028360999991924010606004+67367+026650FM-12+018199999V0202301N008719999999N0000001N9-00671+99999099161ADDGF108991999999999999999999
0029028360999991924010613004+67367+026650FM-12+018199999V0202301N005119999999N0000001N9-00611+99999099541ADDGF108991999999999999999999
0029028360999991924010620004+67367+026650FM-12+018199999V0201801N005119999999N0000001N9-00561+99999100071ADDGF108991999999999999999999
0029028360999991924010706004+67367+026650FM-12+018199999V0201801N003119999999N0000001N9-00781+99999100661ADDGF108991999999999999999999
0029028360999991924010713004+67367+026650FM-12+018199999V0201801N006219999999N0000001N9-00781+99999100941ADDGF108991999999999999999999
0029028360999991924010720004+67367+026650FM-12+018199999V0202001N003119999999N0000001N9-00831+99999101001ADDGF108991999999999999999999
0029028360999991924010806004+67367+026650FM-12+018199999V0201801N003119999999N0000001N9-00941+99999101081ADDGF108991999999999999999999
0029028360999991924010813004+67367+026650FM-12+018199999V0201801N001019999999N0000001N9-01061+99999101151ADDGF108991999999999999999999
0029028360999991924010820004+67367+026650FM-12+018199999V0202001N003119999999N0000001N9-01001+99999101141ADDGF108991999999999999999999
0029028360999991924010906004+67367+026650FM-12+018199999V0201801N003119999999N0000001N9-01331+99999101031ADDGF108991999999999999999999
0029028360999991924010913004+67367+026650FM-12+018199999V0201401N003119999999N0000001N9-01501+99999100951ADDGF108991999999999999999999
0029028360999991924010920004+67367+026650FM-12+018199999V0201601N003119999999N0000001N9-01501+99999100791ADDGF108991999999999999999999
0035028360999991924011006004+67367+026650FM-12+018199999V0201401N001019999999N0000001N9-01331+99999100631ADDGF108991999999999999999999MW1721
0029028360999991924011013004+67367+026650FM-12+018199999V0200901N001019999999N0000001N9-01441+99999100431ADDGF108991999999999999999999
0029028360999991924011020004+67367+026650FM-12+018199999V0209991C000019999999N0000001N9-01221+99999100201ADDGF108991999999999999999999
0029028360999991924011106004+67367+026650FM-12+018199999V0201801N003119999999N0000001N9-00721+99999100041ADDGF108991999999999999999999
0029028360999991924011113004+67367+026650FM-12+018199999V0201801N003119999999N0000001N9-00721+99999099911ADDGF108991999999999999999999
0029028360999991924011120004+67367+026650FM-12+018199999V0202301N005119999999N0000001N9-00501+99999099791ADDGF108991999999999999999999
0029028360999991924011206004+67367+026650FM-12+018199999V0201801N003119999999N0000001N9-00501+99999099671ADDGF108991999999999999999999
0035028360999991924011213004+67367+026650FM-12+018199999V0201801N006219999999N0000001N9-00501+99999099471ADDGF108991999999999999999999MW1701
0029028360999991924011220004+67367+026650FM-12+018199999V0202301N005119999999N0000001N9-00391+99999099071ADDGF108991999999999999999999
0035028360999991924011306004+67367+026650FM-12+018199999V0201101N005119999999N0000001N9-00221+99999098041ADDGF108991999999999999999999MW1721
0029028360999991924011313004+67367+026650FM-12+018199999V0200901N001019999999N0000001N9-00441+99999097821ADDGF108991999999999999999999
0029028360999991924011320004+67367+026650FM-12+018199999V0202001N006219999999N0000001N9-00331+99999098031ADDGF108991999999999999999999
0029028360999991924011406004+67367+026650FM-12+018199999V0201401N001019999999N0000001N9-00561+99999098081ADDGF108991999999999999999999
0035028360999991924011413004+67367+026650FM-12+018199999V0201401N003119999999N0000001N9-00221+99999097641ADDGF108991999999999999999999MW1721
0035028360999991924011420004+67367+026650FM-12+018199999V0202301N008719999999N0000001N9+00061+99999096881ADDGF108991999999999999999999MW1721
0029028360999991924011506004+67367+026650FM-12+018199999V0202301N008719999999N0000001N9+00061+99999096901ADDGF101991999999999999999999
0029028360999991924011513004+67367+026650FM-12+018199999V0202701N005119999999N0000001N9-00391+99999097701ADDGF108991999999999999999999
0029028360999991924011520004+67367+026650FM-12+018199999V0203601N005119999999N0000001N9-00171+99999098871ADDGF108991999999999999999999
0029028360999991924011606004+67367+026650FM-12+018199999V0209991C000019999999N0000001N9-00561+99999100031ADDGF108991999999999999999999
0029028360999991924011613004+67367+026650FM-12+018199999V0201801N001019999999N0000001N9-01441+99999100471ADDGF108991999999999999999999
0029028360999991924011620004+67367+026650FM-12+018199999V0202001N006219999999N0000001N9-00831+99999100581ADDGF108991999999999999999999
0035028360999991924011706004+67367+026650FM-12+018199999V0201801N001019999999N0000001N9-00561+99999100231ADDGF108991999999999999999999MW1721
0029028360999991924011713004+67367+026650FM-12+018199999V0201801N003119999999N0000001N9-00611+99999099991ADDGF108991999999999999999999
0029028360999991924011720004+67367+026650FM-12+018199999V0203401N001019999999N0000001N9-00561+99999099951ADDGF108991999999999999999999
0029028360999991924011806004+67367+026650FM-12+018199999V0200501N003119999999N0000001N9-00781+99999100151ADDGF108991999999999999999999
0029028360999991924011813004+67367+026650FM-12+018199999V0200501N003119999999N0000001N9-00781+99999100421ADDGF108991999999999999999999
0029028360999991924011820004+67367+026650FM-12+018199999V0200701N003119999999N0000001N9-01061+99999100521ADDGF108991999999999999999999
0035028360999991924011906004+67367+026650FM-12+018199999V0201401N003119999999N0000001N9-01111+99999100301ADDGF108991999999999999999999MW1721
0035028360999991924011913004+67367+026650FM-12+018199999V0201101N003119999999N0000001N9-01221+99999099951ADDGF108991999999999999999999MW1721
0035028360999991924011920004+67367+026650FM-12+018199999V0201101N003119999999N0000001N9-01281+99999099601ADDGF108991999999999999999999MW1721
0035028360999991924012006004+67367+026650FM-12+018199999V0201101N001019999999N0000001N9-01561+99999099481ADDGF108991999999999999999999MW1701
0029028360999991924012013004+67367+026650FM-12+018199999V0200901N003119999999N0000001N9-01781+99999099661ADDGF108991999999999999999999
0029028360999991924012020004+67367+026650FM-12+018199999V0203401N001019999999N0000001N9-02501+99999099941ADDGF102991999999999999999999
0029028360999991924012106004+67367+026650FM-12+018199999V0203201N001019999999N0000001N9-02501+99999100361ADDGF100991999999999999999999
0029028360999991924012113004+67367+026650FM-12+018199999V0203401N003119999999N0000001N9-02721+99999100661ADDGF102991999999999999999999
0029028360999991924012120004+67367+026650FM-12+018199999V0203401N001019999999N0000001N9-04171+99999101001ADDGF102991999999999999999999
0029028360999991924012206004+67367+026650FM-12+018199999V0203601N001019999999N0000001N9-04561+99999101191ADDGF102991999999999999999999
0029028360999991924012213004+67367+026650FM-12+018199999V0200901N001019999999N0000001N9-03941+99999101161ADDGF100991999999999999999999
0029028360999991924012220004+67367+026650FM-12+018199999V0201801N003119999999N0000001N9-02831+99999100711ADDGF108991999999999999999999
0029028360999991924012306004+67367+026650FM-12+018199999V0202301N001019999999N0000001N9-02061+99999100181ADDGF108991999999999999999999
0029028360999991924012313004+67367+026650FM-12+018199999V0202301N001019999999N0000001N9-02111+99999100341ADDGF108991999999999999999999
0029028360999991924012320004+67367+026650FM-12+018199999V0201801N001019999999N0000001N9-02561+99999100421ADDGF108991999999999999999999
0029028360999991924012406004+67367+026650FM-12+018199999V0201801N001019999999N0000001N9-02111+99999100441ADDGF108991999999999999999999
0035028360999991924012413004+67367+026650FM-12+018199999V0201801N005119999999N0000001N9-01501+99999100401ADDGF108991999999999999999999MW1701
0035028360999991924012420004+67367+026650FM-12+018199999V0201801N003119999999N0000001N9-01671+99999100601ADDGF108991999999999999999999MW1701
0035028360999991924012506004+67367+026650FM-12+018199999V0202301N008219999999N0000001N9-01171+99999100551ADDGF108991999999999999999999MW1861
0035028360999991924012513004+67367+026650FM-12+018199999V0202001N007219999999N0000001N9-01281+99999100481ADDGF108991999999999999999999MW1861
0035028360999991924012520004+67367+026650FM-12+018199999V0202001N009819999999N0000001N9-01331+99999100311ADDGF108991999999999999999999MW1861
0035028360999991924012606004+67367+026650FM-12+018199999V0201801N011819999999N0000001N9-01281+99999099661ADDGF108991999999999999999999MW1861
0035028360999991924012613004+67367+026650FM-12+018199999V0201801N011819999999N0000001N9-01221+99999098871ADDGF108991999999999999999999MW1861
0029028360999991924012620004+67367+026650FM-12+018199999V0201801N007219999999N0000001N9-00611+99999098231ADDGF108991999999999999999999
0029028360999991924012706004+67367+026650FM-12+018199999V0201801N011819999999N0000001N9-00611+99999096961ADDGF108991999999999999999999
0029028360999991924012713004+67367+026650FM-12+018199999V0202301N009819999999N0000001N9-00061+99999096341ADDGF108991999999999999999999
0029028360999991924012720004+67367+026650FM-12+018199999V0202001N003119999999N0000001N9-00221+99999096581ADDGF108991999999999999999999
0029028360999991924012806004+67367+026650FM-12+018199999V0209991C000019999999N0000001N9-01781+99999097461ADDGF108991999999999999999999
0029028360999991924012813004+67367+026650FM-12+018199999V0209991C000019999999N0000001N9-01171+99999098001ADDGF108991999999999999999999
0029028360999991924012820004+67367+026650FM-12+018199999V0209991C000019999999N0000001N9-01941+99999098311ADDGF108991999999999999999999
0029028360999991924012906004+67367+026650FM-12+018199999V0209991C000019999999N0000001N9-02061+99999098561ADDGF107991999999999999999999
0029028360999991924012913004+67367+026650FM-12+018199999V0203201N001019999999N0000001N9-02061+99999098581ADDGF100991999999999999999999
0029028360999991924012920004+67367+026650FM-12+018199999V0201101N005119999999N0000001N9-01171+99999098001ADDGF108991999999999999999999
0029028360999991924013006004+67367+026650FM-12+018199999V0200701N001019999999N0000001N9-01721+99999098121ADDGF108991999999999999999999
0029028360999991924013013004+67367+026650FM-12+018199999V0201601N001019999999N0000001N9-01781+99999098261ADDGF106991999999999999999999
0035028360999991924013020004+67367+026650FM-12+018199999V0202001N005119999999N0000001N9-00611+99999097751ADDGF108991999999999999999999MW1721
0035028360999991924013106004+67367+026650FM-12+018199999V0209991C000019999999N0000001N9-00331+99999097301ADDGF108991999999999999999999MW1721
0029028360999991924013113004+67367+026650FM-12+018199999V0202901N001019999999N0000001N9-00391+99999098101ADDGF100991999999999999999999
0029028360999991924013120004+67367+026650FM-12+018199999V0203201N001019999999N0000001N9-00671+99999098151ADDGF102991999999999999999999
0029028360999991924020106004+67367+026650FM-12+018199999V0201401N003119999999N0000001N9-00441+99999096951ADDGF108991999999999999999999
0035028360999991924020113004+67367+026650FM-12+018199999V0201801N005119999999N0000001N9-00391+99999096121ADDGF108991999999999999999999MW1721
0029028360999991924020120004+67367+026650FM-12+018199999V0202001N004119999999N0000001N9-00441+99999096101ADDGF108991999999999999999999
0029028360999991924020206004+67367+026650FM-12+018199999V0209991C000019999999N0000001N9-02611+99999096021ADDGF108991999999999999999999
0029028360999991924020213004+67367+026650FM-12+018199999V0200901N001019999999N0000001N9-01611+99999095991ADDGF108991999999999999999999
0035028360999991924020220004+67367+026650FM-12+018199999V0209991C000019999999N0000001N9-01611+99999096281ADDGF108991999999999999999999MW1701
0029028360999991924020306004+67367+026650FM-12+018199999V0203601N001019999999N0000001N9-02171+99999096921ADDGF108991999999999999999999
0029028360999991924020313004+67367+026650FM-12+018199999V0203401N001019999999N0000001N9-02171+99999097391ADDGF108991999999999999999999
0029028360999991924020320004+67367+026650FM-12+018199999V0203401N001019999999N0000001N9-02221+99999097581ADDGF108991999999999999999999
0035028360999991924020406004+67367+026650FM-12+018199999V0202901N001019999999N0000001N9-01941+99999097641ADDGF108991999999999999999999MW1701
0035028360999991924020413004+67367+026650FM-12+018199999V0201601N001019999999N0000001N9-01561+99999097751ADDGF108991999999999999999999MW1701
0035028360999991924020420004+67367+026650FM-12+018199999V0200701N001019999999N0000001N9-01671+99999097751ADDGF108991999999999999999999MW1701
0029028360999991924020506004+67367+026650FM-12+018199999V0203601N001019999999N0000001N9-01671+99999097431ADDGF108991999999999999999999
0035028360999991924020513004+67367+026650FM-12+018199999V0201401N003119999999N0000001N9-01721+99999097361ADDGF108991999999999999999999MW1701
0035028360999991924020520004+67367+026650FM-12+018199999V0203601N001019999999N0000001N9-01721+99999097461ADDGF108991999999999999999999MW1701
0035028360999991924020606004+67367+026650FM-12+018199999V0203601N001019999999N0000001N9-01611+99999097541ADDGF108991999999999999999999MW1701
0035028360999991924020613004+67367+026650FM-12+018199999V0203401N001019999999N0000001N9-01501+99999097401ADDGF108991999999999999999999MW1701
0035028360999991924020620004+67367+026650FM-12+018199999V0202701N003119999999N0000001N9-01561+99999097181ADDGF108991999999999999999999MW1701
0029028360999991924020706004+67367+026650FM-12+018199999V0209991C000019999999N0000001N9-01941+99999097161ADDGF108991999999999999999999
0035028360999991924020713004+67367+026650FM-12+018199999V0203401N001019999999N0000001N9-01781+99999097471ADDGF108991999999999999999999MW1701
0029028360999991924020720004+67367+026650FM-12+018199999V0209991C000019999999N0000001N9-01441+99999097941ADDGF108991999999999999999999
0029028360999991924020806004+67367+026650FM-12+018199999V0203201N001019999999N0000001N9-01561+99999098301ADDGF108991999999999999999999
0029028360999991924020813004+67367+026650FM-12+018199999V0203201N001019999999N0000001N9-01721+99999098541ADDGF108991999999999999999999
0029028360999991924020820004+67367+026650FM-12+018199999V0200901N001019999999N0000001N9-03171+99999098821ADDGF105991999999999999999999
0029028360999991924020906004+67367+026650FM-12+018199999V0209991C000019999999N0000001N9-03001+99999099271ADDGF100991999999999999999999
0029028360999991924020913004+67367+026650FM-12+018199999V0201101N001019999999N0000001N9-02441+99999099561ADDGF100991999999999999999999
0029028360999991924020920004+67367+026650FM-12+018199999V0202701N001019999999N0000001N9-02831+99999099621ADDGF108991999999999999999999
0035028360999991924021006004+67367+026650FM-12+018199999V0202001N002119999999N0000001N9-01441+99999099781ADDGF108991999999999999999999MW1721
0035028360999991924021013004+67367+026650FM-12+018199999V0201401N005119999999N0000001N9-00831+99999100541ADDGF108991999999999999999999MW1721
0035028360999991924021020004+67367+026650FM-12+018199999V0200901N005119999999N0000001N9-01001+99999101111ADDGF108991999999999999999999MW1721
0029028360999991924021106004+67367+026650FM-12+018199999V0200901N001019999999N0000001N9-01781+99999101621ADDGF108991999999999999999999
0029028360999991924021113004+67367+026650FM-12+018199999V0201101N001019999999N0000001N9-01891+99999101781ADDGF106991999999999999999999
0035028360999991924021120004+67367+026650FM-12+018199999V0203601N002119999999N0000001N9-02171+99999101621ADDGF108991999999999999999999MW1701
0035028360999991924021206004+67367+026650FM-12+018199999V0201401N001019999999N0000001N9-01561+99999101121ADDGF108991999999999999999999MW1721
0035028360999991924021213004+67367+026650FM-12+018199999V0201401N003119999999N0000001N9-01331+99999100871ADDGF108991999999999999999999MW1721
0035028360999991924021220004+67367+026650FM-12+018199999V0201601N001019999999N0000001N9-01501+99999100701ADDGF108991999999999999999999MW1721
0029028360999991924021306004+67367+026650FM-12+018199999V0201801N003119999999N0000001N9-01501+99999100321ADDGF108991999999999999999999
0035028360999991924021313004+67367+026650FM-12+018199999V0201601N001019999999N0000001N9-01391+99999100121ADDGF108991999999999999999999MW1701
0029028360999991924021320004+67367+026650FM-12+018199999V0202701N001019999999N0000001N9-02171+99999099901ADDGF108991999999999999999999
0035028360999991924021406004+67367+026650FM-12+018199999V0202701N001019999999N0000001N9-02391+99999100041ADDGF108991999999999999999999MW1701
0035028360999991924021413004+67367+026650FM-12+018199999V0209991C000019999999N0000001N9-01721+99999100231ADDGF108991999999999999999999MW1701
0035028360999991924021420004+67367+026650FM-12+018199999V0201801N003119999999N0000001N9-01941+99999100341ADDGF108991999999999999999999MW1701
0035028360999991924021506004+67367+026650FM-12+018199999V0203401N001019999999N0000001N9-01831+99999100021ADDGF108991999999999999999999MW1721
0035028360999991924021513004+67367+026650FM-12+018199999V0203601N001019999999N0000001N9-01171+99999099511ADDGF108991999999999999999999MW1721
0035028360999991924021520004+67367+026650FM-12+018199999V0202001N008719999999N0000001N9-01441+99999099351ADDGF108991999999999999999999MW1721
0029028360999991924021606004+67367+026650FM-12+018199999V0201801N005119999999N0000001N9-01501+99999099061ADDGF108991999999999999999999
0029028360999991924021613004+67367+026650FM-12+018199999V0202001N003119999999N0000001N9-01391+99999099241ADDGF100991999999999999999999
0029028360999991924021620004+67367+026650FM-12+018199999V0209991C000019999999N0000001N9-01281+99999099181ADDGF108991999999999999999999
0035028360999991924021706004+67367+026650FM-12+018199999V0201801N005119999999N0000001N9-00611+99999098181ADDGF108991999999999999999999MW1381
0035028360999991924021713004+67367+026650FM-12+018199999V0202001N007219999999N0000001N9-00281+99999097591ADDGF108991999999999999999999MW1861
0035028360999991924021720004+67367+026650FM-12+018199999V0202001N008219999999N0000001N9-00441+99999097261ADDGF108991999999999999999999MW1381
0029028360999991924021806004+67367+026650FM-12+018199999V0201801N003119999999N0000001N9-00441+99999097121ADDGF108991999999999999999999
0029028360999991924021813004+67367+026650FM-12+018199999V0202701N004119999999N0000001N9-00671+99999097401ADDGF108991999999999999999999
0029028360999991924021820004+67367+026650FM-12+018199999V0202701N003119999999N0000001N9-01171+99999097901ADDGF108991999999999999999999
0035028360999991924021906004+67367+026650FM-12+018199999V0203401N001019999999N0000001N9-01221+99999098101ADDGF108991999999999999999999MW1721
0029028360999991924021913004+67367+026650FM-12+018199999V0203601N003119999999N0000001N9-01061+99999098821ADDGF100991999999999999999999
0029028360999991924021920004+67367+026650FM-12+018199999V0201801N001019999999N0000001N9-03001+99999099001ADDGF108991999999999999999999
0029028360999991924022006004+67367+026650FM-12+018199999V0202001N001019999999N0000001N9-02061+99999098521ADDGF108991999999999999999999
0035028360999991924022013004+67367+026650FM-12+018199999V0201601N003119999999N0000001N9-01001+99999098311ADDGF108991999999999999999999MW1721
0035028360999991924022020004+67367+026650FM-12+018199999V0201401N003119999999N0000001N9-01281+99999098381ADDGF108991999999999999999999MW1721
0029028360999991924022106004+67367+026650FM-12+018199999V0203601N001019999999N0000001N9-02111+99999098501ADDGF108991999999999999999999
0035028360999991924022113004+67367+026650FM-12+018199999V0203601N001019999999N0000001N9-01331+99999098681ADDGF105991999999999999999999MW1701
0035028360999991924022120004+67367+026650FM-12+018199999V0200901N001019999999N0000001N9-01721+99999098871ADDGF107991999999999999999999MW1701
0029028360999991924022206004+67367+026650FM-12+018199999V0203601N001019999999N0000001N9-01671+99999099191ADDGF108991999999999999999999
0029028360999991924022213004+67367+026650FM-12+018199999V0203601N003119999999N0000001N9-01441+99999099351ADDGF108991999999999999999999
0035028360999991924022220004+67367+026650FM-12+018199999V0201801N003119999999N0000001N9-01941+99999099481ADDGF108991999999999999999999MW1701
0029028360999991924022306004+67367+026650FM-12+018199999V0203601N001019999999N0000001N9-02941+99999099621ADDGF108991999999999999999999
0029028360999991924022313004+67367+026650FM-12+018199999V0203201N003119999999N0000001N9-02221+99999099541ADDGF106991999999999999999999
0035028360999991924022320004+67367+026650FM-12+018199999V0203201N004119999999N0000001N9-01671+99999099301ADDGF108991999999999999999999MW1701
0035028360999991924022406004+67367+026650FM-12+018199999V0203201N003119999999N0000001N9-01831+99999099321ADDGF108991999999999999999999MW1721
0029028360999991924022413004+67367+026650FM-12+018199999V0203201N002119999999N0000001N9-01611+99999099591ADDGF108991999999999999999999
0035028360999991924022420004+67367+026650FM-12+018199999V0200501N002119999999N0000001N9-01781+99999099901ADDGF108991999999999999999999MW1721
0035028360999991924022506004+67367+026650FM-12+018199999V0203401N001019999999N0000001N9-01781+99999100361ADDGF108991999999999999999999MW1721
0029028360999991924022513004+67367+026650FM-12+018199999V0201401N001019999999N0000001N9-01721+99999100621ADDGF108991999999999999999999
0029028360999991924022520004+67367+026650FM-12+018199999V0209991C000019999999N0000001N9-02221+99999100761ADDGF108991999999999999999999
0029028360999991924022606004+67367+026650FM-12+018199999V0201801N001019999999N0000001N9-01671+99999100401ADDGF108991999999999999999999
0029028360999991924022613004+67367+026650FM-12+018199999V0202001N008719999999N0000001N9-01111+99999099911ADDGF108991999999999999999999
0035028360999991924022620004+67367+026650FM-12+018199999V0201801N008219999999N0000001N9-01171+99999099261ADDGF108991999999999999999999MW1721
0035028360999991924022706004+67367+026650FM-12+018199999V0201801N007219999999N0000001N9-01221+99999098581ADDGF108991999999999999999999MW1861
0035028360999991924022713004+67367+026650FM-12+018199999V0201801N008719999999N0000001N9-01061+99999098181ADDGF108991999999999999999999MW1861
0035028360999991924022720004+67367+026650FM-12+018199999V0202301N007219999999N0000001N9-01061+99999097471ADDGF108991999999999999999999MW1861
0029028360999991924022806004+67367+026650FM-12+018199999V0202001N013919999999N0000001N9-00721+99999097461ADDGF108991999999999999999999
0035028360999991924022813004+67367+026650FM-12+018199999V0201801N007219999999N0000001N9-00891+99999097701ADDGF108991999999999999999999MW1861
0035028360999991924022820004+67367+026650FM-12+018199999V0201401N003119999999N0000001N9-01001+99999097641ADDGF108991999999999999999999MW1721
0029028360999991924022906004+67367+026650FM-12+018199999V0201801N005119999999N0000001N9-01061+99999097621ADDGF108991999999999999999999
0035028360999991924022913004+67367+026650FM-12+018199999V0202001N006219999999N0000001N9-00941+99999097831ADDGF108991999999999999999999MW1721
0035028360999991924022920004+67367+026650FM-12+018199999V0203201N003119999999N0000001N9-01221+99999098071ADDGF108991999999999999999999MW1721
0035028360999991924030106004+67367+026650FM-12+018199999V0209991C000019999999N0000001N9-01671+99999098581ADDGF108991999999999999999999MW1721
0035028360999991924030113004+67367+026650FM-12+018199999V0203601N001019999999N0000001N9-01061+99999098581ADDGF107991999999999999999999MW1721
0029028360999991924030120004+67367+026650FM-12+018199999V0203201N003119999999N0000001N9-01281+99999098471ADDGF108991999999999999999999
0035028360999991924030206004+67367+026650FM-12+018199999V0203401N005119999999N0000001N9-01171+99999097901ADDGF108991999999999999999999MW1721
0035028360999991924030213004+67367+026650FM-12+018199999V0200201N004119999999N0000001N9-00781+99999097741ADDGF108991999999999999999999MW1721
0035028360999991924030220004+67367+026650FM-12+018199999V0203601N002119999999N0000001N9-01331+99999097641ADDGF108991999999999999999999MW1721
0035028360999991924030306004+67367+026650FM-12+018199999V0209991C000019999999N0000001N9-02001+99999097831ADDGF108991999999999999999999MW1721
0035028360999991924030313004+67367+026650FM-12+018199999V0201801N001019999999N0000001N9-01001+99999098261ADDGF108991999999999999999999MW1721
0035028360999991924030320004+67367+026650FM-12+018199999V0200901N002119999999N0000001N9-01561+99999098711ADDGF108991999999999999999999MW1721
0029028360999991924030406004+67367+026650FM-12+018199999V0209991C000019999999N0000001N9-01391+99999099121ADDGF108991999999999999999999
0029028360999991924030413004+67367+026650FM-12+018199999V0201601N003119999999N0000001N9-01171+99999099081ADDGF108991999999999999999999
0035028360999991924030420004+67367+026650FM-12+018199999V0201401N005119999999N0000001N9-01171+99999098711ADDGF108991999999999999999999MW1721
0029028360999991924030506004+67367+026650FM-12+018199999V0201401N003119999999N0000001N9-00671+99999098461ADDGF108991999999999999999999
0035028360999991924030513004+67367+026650FM-12+018199999V0202301N009819999999N0000001N9-00671+99999098861ADDGF108991999999999999999999MW1721
0035028360999991924030520004+67367+026650FM-12+018199999V0202301N005119999999N0000001N9-01001+99999099351ADDGF108991999999999999999999MW1721
0029028360999991924030606004+67367+026650FM-12+018199999V0201801N001019999999N0000001N9-02331+99999099701ADDGF108991999999999999999999
0035028360999991924030613004+67367+026650FM-12+018199999V0201601N001019999999N0000001N9-01221+99999099801ADDGF108991999999999999999999MW1701
0035028360999991924030620004+67367+026650FM-12+018199999V0203401N001019999999N0000001N9-01171+99999099721ADDGF108991999999999999999999MW1701
0035028360999991924030706004+67367+026650FM-12+018199999V0209991C000019999999N0000001N9-01331+99999100101ADDGF108991999999999999999999MW1721
0029028360999991924030713004+67367+026650FM-12+018199999V0201801N003119999999N0000001N9-01001+99999100361ADDGF107991999999999999999999
0029028360999991924030720004+67367+026650FM-12+018199999V0201801N005119999999N0000001N9-01061+99999100151ADDGF108991999999999999999999
0035028360999991924030806004+67367+026650FM-12+018199999V0202001N009819999999N0000001N9-00561+99999099141ADDGF108991999999999999999999MW1381
0035028360999991924030813004+67367+026650FM-12+018199999V0202001N009819999999N0000001N9-00561+99999098681ADDGF108991999999999999999999MW1721
0035028360999991924030820004+67367+026650FM-12+018199999V0202001N007219999999N0000001N9-00391+99999098261ADDGF108991999999999999999999MW1721
0029028360999991924030906004+67367+026650FM-12+018199999V0202301N005119999999N0000001N9-00281+99999097641ADDGF108991999999999999999999
0035028360999991924030913004+67367+026650FM-12+018199999V0203601N001019999999N0000001N9-00281+99999097821ADDGF108991999999999999999999MW1721
0035028360999991924030920004+67367+026650FM-12+018199999V0200201N005119999999N0000001N9-00561+99999098311ADDGF108991999999999999999999MW1721
0029028360999991924031006004+67367+026650FM-12+018199999V0200201N005119999999N0000001N9-01061+99999099401ADDGF102991999999999999999999
0029028360999991924031013004+67367+026650FM-12+018199999V0200201N003119999999N0000001N9-00671+99999099961ADDGF100991999999999999999999
0029028360999991924031020004+67367+026650FM-12+018199999V0209991C000019999999N0000001N9-02331+99999100191ADDGF103991999999999999999999
0029028360999991924031106004+67367+026650FM-12+018199999V0209991C000019999999N0000001N9-03331+99999100431ADDGF100991999999999999999999
0029028360999991924031113004+67367+026650FM-12+018199999V0202701N003119999999N0000001N9-00781+99999100581ADDGF106991999999999999999999
0029028360999991924031120004+67367+026650FM-12+018199999V0200901N003119999999N0000001N9-02331+99999100711ADDGF103991999999999999999999
0029028360999991924031206004+67367+026650FM-12+018199999V0201801N001019999999N0000001N9-02331+99999100621ADDGF107991999999999999999999
0029028360999991924031213004+67367+026650FM-12+018199999V0202301N007219999999N0000001N9-00441+99999100311ADDGF108991999999999999999999
0035028360999991924031220004+67367+026650FM-12+018199999V0202301N002119999999N0000001N9-00441+99999100311ADDGF108991999999999999999999MW1721
0035028360999991924031306004+67367+026650FM-12+018199999V0201801N001019999999N0000001N9-00831+99999100341ADDGF108991999999999999999999MW1721
0029028360999991924031313004+67367+026650FM-12+018199999V0201801N002119999999N0000001N9-00501+99999100391ADDGF108991999999999999999999
0035028360999991924031320004+67367+026650FM-12+018199999V0202001N003119999999N0000001N9-00611+99999099861ADDGF108991999999999999999999MW1721
0035028360999991924031406004+67367+026650FM-12+018199999V0201801N006219999999N0000001N9-00391+99999098951ADDGF108991999999999999999999MW1721
0029028360999991924031413004+67367+026650FM-12+018199999V0202001N007219999999N0000001N9-00061+99999098361ADDGF108991999999999999999999
0029028360999991924031420004+67367+026650FM-12+018199999V0202001N007219999999N0000001N9+00061+99999097601ADDGF108991999999999999999999
0029028360999991924031506004+67367+026650FM-12+018199999V0202301N006219999999N0000001N9-00171+99999096661ADDGF108991999999999999999999
0035028360999991924031513004+67367+026650FM-12+018199999V0202301N006219999999N0000001N9-00061+99999096601ADDGF108991999999999999999999MW1701
0035028360999991924031520004+67367+026650FM-12+018199999V0200501N011819999999N0000001N9-00561+99999096981ADDGF108991999999999999999999MW1741
0035028360999991924031606004+67367+026650FM-12+018199999V0200501N006219999999N0000001N9-01001+99999097671ADDGF108991999999999999999999MW1721
0035028360999991924031613004+67367+026650FM-12+018199999V0200501N006219999999N0000001N9-00831+99999098061ADDGF108991999999999999999999MW1721
0035028360999991924031620004+67367+026650FM-12+018199999V0200701N007219999999N0000001N9-01061+99999098311ADDGF108991999999999999999999MW1721
0029028360999991924031706004+67367+026650FM-12+018199999V0200501N003119999999N0000001N9-01441+99999098481ADDGF107991999999999999999999
0029028360999991924031713004+67367+026650FM-12+018199999V0200501N006219999999N0000001N9-00941+99999098501ADDGF108991999999999999999999
0029028360999991924031720004+67367+026650FM-12+018199999V0200701N008719999999N0000001N9-01061+99999098521ADDGF108991999999999999999999
0029028360999991924031806004+67367+026650FM-12+018199999V0200501N001019999999N0000001N9-01391+99999098551ADDGF102991999999999999999999
0035028360999991924031813004+67367+026650FM-12+018199999V0200501N007219999999N0000001N9-00671+99999098501ADDGF108991999999999999999999MW1721
0035028360999991924031820004+67367+026650FM-12+018199999V0200501N008719999999N0000001N9-00891+99999098471ADDGF108991999999999999999999MW1721
0035028360999991924031906004+67367+026650FM-12+018199999V0200201N005119999999N0000001N9-00941+99999098301ADDGF108991999999999999999999MW1861
0035028360999991924031913004+67367+026650FM-12+018199999V0200501N007219999999N0000001N9-00671+99999098231ADDGF108991999999999999999999MW1701
0029028360999991924031920004+67367+026650FM-12+018199999V0200501N005119999999N0000001N9-01001+99999098261ADDGF108991999999999999999999
0029028360999991924032006004+67367+026650FM-12+018199999V0203201N001019999999N0000001N9-01891+99999098341ADDGF108991999999999999999999
0029028360999991924032013004+67367+026650FM-12+018199999V0203601N006219999999N0000001N9-00721+99999098321ADDGF108991999999999999999999
0029028360999991924032020004+67367+026650FM-12+018199999V0203601N003119999999N0000001N9-01221+99999098361ADDGF108991999999999999999999
0029028360999991924032106004+67367+026650FM-12+018199999V0203201N001019999999N0000001N9-01941+99999098391ADDGF108991999999999999999999
0029028360999991924032113004+67367+026650FM-12+018199999V0202701N002119999999N0000001N9-00501+99999098361ADDGF101991999999999999999999
0029028360999991924032120004+67367+026650FM-12+018199999V0209991C000019999999N0000001N9-02001+99999098231ADDGF100991999999999999999999
0029028360999991924032206004+67367+026650FM-12+018199999V0203601N001019999999N0000001N9-02721+99999098121ADDGF100991999999999999999999
0029028360999991924032213004+67367+026650FM-12+018199999V0202701N003119999999N0000001N9-00441+99999098071ADDGF108991999999999999999999
0035028360999991924032220004+67367+026650FM-12+018199999V0209991C000019999999N0000001N9-01501+99999097961ADDGF108991999999999999999999MW1721
0029028360999991924032306004+67367+026650FM-12+018199999V0203201N002119999999N0000001N9-02281+99999097991ADDGF101991999999999999999999
0029028360999991924032313004+67367+026650FM-12+018199999V0202701N003119999999N0000001N9-00391+99999098271ADDGF100991999999999999999999
0029028360999991924032320004+67367+026650FM-12+018199999V0203601N003119999999N0000001N9-02061+99999098521ADDGF100991999999999999999999
0029028360999991924032406004+67367+026650FM-12+018199999V0203601N001019999999N0000001N9-03171+99999098821ADDGF100991999999999999999999
0029028360999991924032413004+67367+026650FM-12+018199999V0202701N001019999999N0000001N9-00441+99999099001ADDGF101991999999999999999999
0029028360999991924032420004+67367+026650FM-12+018199999V0203601N001019999999N0000001N9-02221+99999099361ADDGF100991999999999999999999
0029028360999991924032506004+67367+026650FM-12+018199999V0203601N001019999999N0000001N9-03171+99999099801ADDGF100991999999999999999999
0029028360999991924032513004+67367+026650FM-12+018199999V0209991C000019999999N0000001N9-00611+99999099781ADDGF100991999999999999999999
0029028360999991924032520004+67367+026650FM-12+018199999V0209991C000019999999N0000001N9-02221+99999099861ADDGF100991999999999999999999
0029028360999991924032606004+67367+026650FM-12+018199999V0209991C000019999999N0000001N9-03171+99999099941ADDGF100991999999999999999999
0029028360999991924032613004+67367+026650FM-12+018199999V0203601N001019999999N0000001N9-00172+99999099881ADDGF100991999999999999999999
0029028360999991924032620004+67367+026650FM-12+018199999V0209991C000019999999N0000001N9-01721+99999099991ADDGF100991999999999999999999
0029028360999991924032706004+67367+026650FM-12+018199999V0209991C000019999999N0000001N9-02001+99999100271ADDGF108991999999999999999999
0029028360999991924032713004+67367+026650FM-12+018199999V0202701N003119999999N0000001N9+00061+99999100081ADDGF108991999999999999999999
0029028360999991924032720004+67367+026650FM-12+018199999V0201401N005119999999N0000001N9-00441+99999099831ADDGF100991999999999999999999
0029028360999991924032806004+67367+026650FM-12+018199999V0200901N002119999999N0000001N9-00831+99999099271ADDGF108991999999999999999999
0035028360999991924032813004+67367+026650FM-12+018199999V0200901N005119999999N0000001N9-00281+99999098861ADDGF108991999999999999999999MW1721
0035028360999991924032820004+67367+026650FM-12+018199999V0200901N004119999999N0000001N9-00391+99999098581ADDGF108991999999999999999999MW1721
0035028360999991924032906004+67367+026650FM-12+018199999V0201401N001019999999N0000001N9-00171+99999098241ADDGF108991999999999999999999MW1721
0029028360999991924032913004+67367+026650FM-12+018199999V0202001N006219999999N0000001N9-00171+99999098341ADDGF108991999999999999999999
0029028360999991924032920004+67367+026650FM-12+018199999V0201801N003119999999N0000001N9-00281+99999098351ADDGF108991999999999999999999
0029028360999991924033006004+67367+026650FM-12+018199999V0201801N003119999999N0000001N9-00501+99999098361ADDGF108991999999999999999999
0035028360999991924033013004+67367+026650FM-12+018199999V0202001N004119999999N0000001N9-00171+99999098241ADDGF108991999999999999999999MW1701
0035028360999991924033020004+67367+026650FM-12+018199999V0202301N002119999999N0000001N9-00281+99999098061ADDGF108991999999999999999999MW1701
0035028360999991924033106004+67367+026650FM-12+018199999V0203601N002119999999N0000001N9-00441+99999098201ADDGF108991999999999999999999MW1721
0035028360999991924033113004+67367+026650FM-12+018199999V0203601N003119999999N0000001N9-00111+99999098561ADDGF108991999999999999999999MW1721
0035028360999991924033120004+67367+026650FM-12+018199999V0203601N007219999999N0000001N9-00281+99999099031ADDGF108991999999999999999999MW1721
0035028360999991924040106004+67367+026650FM-12+018199999V0203601N003119999999N0000001N9-00441+99999099621ADDGF108991999999999999999999MW1701
0029028360999991924040113004+67367+026650FM-12+018199999V0203601N004119999999N0000001N9-00111+99999099861ADDGF103991999999999999999999
0029028360999991924040120004+67367+026650FM-12+018199999V0203601N001019999999N0000001N9-01441+99999100061ADDGF100991999999999999999999
0029028360999991924040206004+67367+026650FM-12+018199999V0209991C000019999999N0000001N9-02061+99999100041ADDGF100991999999999999999999
0029028360999991924040213004+67367+026650FM-12+018199999V0202701N005119999999N0000001N9+00171+99999099881ADDGF100991999999999999999999
0029028360999991924040220004+67367+026650FM-12+018199999V0202001N007219999999N0000001N9-00221+99999099481ADDGF108991999999999999999999
0029028360999991924040306004+67367+026650FM-12+018199999V0202701N006219999999N0000001N9-00171+99999098391ADDGF108991999999999999999999
0029028360999991924040313004+67367+026650FM-12+018199999V0203201N009819999999N0000001N9+00281+99999098551ADDGF108991999999999999999999
0029028360999991924040320004+67367+026650FM-12+018199999V0203601N005119999999N0000001N9-00671+99999099151ADDGF100991999999999999999999
0029028360999991924040406004+67367+026650FM-12+018199999V0203601N001019999999N0000001N9-00781+99999099561ADDGF108991999999999999999999
0029028360999991924040413004+67367+026650FM-12+018199999V0203601N003119999999N0000001N9-00441+99999099401ADDGF107991999999999999999999
0029028360999991924040420004+67367+026650FM-12+018199999V0200201N001019999999N0000001N9-01171+99999098941ADDGF103991999999999999999999
0029028360999991924040506004+67367+026650FM-12+018199999V0202701N005119999999N0000001N9-00391+99999098071ADDGF108991999999999999999999
0035028360999991924040513004+67367+026650FM-12+018199999V0209991C000019999999N0000001N9+00171+99999097761ADDGF108991999999999999999999MW1721
0035028360999991924040520004+67367+026650FM-12+018199999V0200701N003119999999N0000001N9-00171+99999097381ADDGF108991999999999999999999MW1721
0035028360999991924040606004+67367+026650FM-12+018199999V0209991C000019999999N0000001N9-00331+99999096241ADDGF108991999999999999999999MW1721
0035028360999991924040613004+67367+026650FM-12+018199999V0200501N005119999999N0000001N9-00221+99999096321ADDGF108991999999999999999999MW1741
0029028360999991924040620004+67367+026650FM-12+018199999V0200901N003119999999N0000001N9-00671+99999096601ADDGF108991999999999999999999
0035028360999991924040706004+67367+026650FM-12+018199999V0203601N001019999999N0000001N9-00941+99999096501ADDGF108991999999999999999999MW1721
0035028360999991924040713004+67367+026650FM-12+018199999V0209991C000019999999N0000001N9-00561+99999096501ADDGF108991999999999999999999MW1721
0035028360999991924040720004+67367+026650FM-12+018199999V0203601N003119999999N0000001N9-00941+99999096501ADDGF108991999999999999999999MW1721
0029028360999991924040806004+67367+026650FM-12+018199999V0203601N003119999999N0000001N9-01111+99999095961ADDGF108991999999999999999999
0035028360999991924040813004+67367+026650FM-12+018199999V0203601N003119999999N0000001N9-00831+99999095621ADDGF108991999999999999999999MW1721
0029028360999991924040820004+67367+026650FM-12+018199999V0203601N003119999999N0000001N9-01831+99999095671ADDGF102991999999999999999999
0029028360999991924040906004+67367+026650FM-12+018199999V0209991C000019999999N0000001N9-02171+99999096421ADDGF100991999999999999999999
0029028360999991924040913004+67367+026650FM-12+018199999V0202501N005119999999N0000001N9-00391+99999096821ADDGF108991999999999999999999
0029028360999991924040920004+67367+026650FM-12+018199999V0201801N005119999999N0000001N9-00891+99999097081ADDGF107991999999999999999999
0029028360999991924041006004+67367+026650FM-12+018199999V0202301N007219999999N0000001N9-00501+99999096951ADDGF108991999999999999999999
0029028360999991924041013004+67367+026650FM-12+018199999V0202501N007219999999N0000001N9-00061+99999097461ADDGF101991999999999999999999
0029028360999991924041020004+67367+026650FM-12+018199999V0202501N003119999999N0000001N9-01111+99999097861ADDGF100991999999999999999999
0029028360999991924041106004+67367+026650FM-12+018199999V0202301N005119999999N0000001N9-00891+99999098381ADDGF100991999999999999999999
0029028360999991924041113004+67367+026650FM-12+018199999V0202301N003119999999N0000001N9+00221+99999098601ADDGF100991999999999999999999
0029028360999991924041120004+67367+026650FM-12+018199999V0202501N001019999999N0000001N9-00891+99999098581ADDGF108991999999999999999999
0029028360999991924041206004+67367+026650FM-12+018199999V0200501N006219999999N0000001N9-00331+99999097941ADDGF108991999999999999999999
0035028360999991924041213004+67367+026650FM-12+018199999V0200501N006219999999N0000001N9-00171+99999097521ADDGF108991999999999999999999MW1721
0035028360999991924041220004+67367+026650FM-12+018199999V0200501N003119999999N0000001N9-00111+99999097301ADDGF108991999999999999999999MW1721
0035028360999991924041306004+67367+026650FM-12+018199999V0202001N009819999999N0000001N9-00221+99999097961ADDGF108991999999999999999999MW1861
0029028360999991924041313004+67367+026650FM-12+018199999V0202001N007219999999N0000001N9-00061+99999098551ADDGF108991999999999999999999
0029028360999991924041320004+67367+026650FM-12+018199999V0201801N001019999999N0000001N9-00331+99999098981ADDGF108991999999999999999999
0035028360999991924041406004+67367+026650FM-12+018199999V0201401N001019999999N0000001N9-00171+99999098871ADDGF108991999999999999999999MW1721
0029028360999991924041413004+67367+026650FM-12+018199999V0202301N001019999999N0000001N9+00281+99999098991ADDGF108991999999999999999999
0029028360999991924041420004+67367+026650FM-12+018199999V0202701N001019999999N0000001N9+00001+99999099301ADDGF108991999999999999999999
0035028360999991924041506004+67367+026650FM-12+018199999V0202701N001019999999N0000001N9-00281+99999099361ADDGF108991999999999999999999MW1721
0029028360999991924041513004+67367+026650FM-12+018199999V0202701N005119999999N0000001N9+00281+99999099421ADDGF100991999999999999999999
0029028360999991924041520004+67367+026650FM-12+018199999V0202701N001019999999N0000001N9-00941+99999099601ADDGF100991999999999999999999
0029028360999991924041606004+67367+026650FM-12+018199999V0202901N001019999999N0000001N9-00561+99999099841ADDGF100991999999999999999999
0029028360999991924041613004+67367+026650FM-12+018199999V0201801N004119999999N0000001N9+00671+99999099751ADDGF108991999999999999999999
0029028360999991924041620004+67367+026650FM-12+018199999V0201601N003119999999N0000001N9+00111+99999099741ADDGF108991999999999999999999
0035028360999991924041706004+67367+026650FM-12+018199999V0201801N007219999999N0000001N9+00171+99999099721ADDGF108991999999999999999999MW1691
0035028360999991924041713004+67367+026650FM-12+018199999V0201801N005119999999N0000001N9+00221+99999099951ADDGF108991999999999999999999MW1691
0035028360999991924041720004+67367+026650FM-12+018199999V0201801N001019999999N0000001N9+00111+99999100261ADDGF108991999999999999999999MW1691
0029028360999991924041806004+67367+026650FM-12+018199999V0201801N001019999999N0000001N9+00171+99999100541ADDGF108991999999999999999999
0029028360999991924041813004+67367+026650FM-12+018199999V0201801N001019999999N0000001N9+01001+99999100421ADDGF101991999999999999999999
0029028360999991924041820004+67367+026650FM-12+018199999V0209991C000019999999N0000001N9-00171+99999100271ADDGF100991999999999999999999
0029028360999991924041906004+67367+026650FM-12+018199999V0209991C000019999999N0000001N9-00281+99999099911ADDGF108991999999999999999999
0035028360999991924041913004+67367+026650FM-12+018199999V0201801N003119999999N0000001N9+00441+99999099741ADDGF108991999999999999999999MW1601
0035028360999991924041920004+67367+026650FM-12+018199999V0201801N003119999999N0000001N9+00061+99999099591ADDGF108991999999999999999999MW1681
0035028360999991924042006004+67367+026650FM-12+018199999V0202501N003119999999N0000001N9+00001+99999099321ADDGF108991999999999999999999MW1701
0035028360999991924042013004+67367+026650FM-12+018199999V0203601N001019999999N0000001N9+00281+99999099161ADDGF108991999999999999999999MW1681
0029028360999991924042020004+67367+026650FM-12+018199999V0209991C000019999999N0000001N9-00111+99999098781ADDGF108991999999999999999999
0029028360999991924042106004+67367+026650FM-12+018199999V0201401N005119999999N0000001N9+00061+99999098341ADDGF108991999999999999999999
0035028360999991924042113004+67367+026650FM-12+018199999V0200901N005119999999N0000001N9+00281+99999098391ADDGF108991999999999999999999MW1721
0029028360999991924042120004+67367+026650FM-12+018199999V0200901N005119999999N0000001N9+00061+99999098721ADDGF108991999999999999999999
0035028360999991924042206004+67367+026650FM-12+018199999V0200901N006219999999N0000001N9-00391+99999099261ADDGF108991999999999999999999MW1701
0029028360999991924042213004+67367+026650FM-12+018199999V0200901N005119999999N0000001N9-00111+99999099481ADDGF100991999999999999999999
0029028360999991924042220004+67367+026650FM-12+018199999V0200901N003119999999N0000001N9-00721+99999099561ADDGF100991999999999999999999
0029028360999991924042306004+67367+026650FM-12+018199999V0200901N003119999999N0000001N9-00611+99999099481ADDGF100991999999999999999999
0029028360999991924042313004+67367+026650FM-12+018199999V0200901N003119999999N0000001N9+00001+99999099271ADDGF100991999999999999999999
0029028360999991924042320004+67367+026650FM-12+018199999V0200901N001019999999N0000001N9-00441+99999099321ADDGF100991999999999999999999
0029028360999991924042406004+67367+026650FM-12+018199999V0200701N005119999999N0000001N9-00721+99999099601ADDGF100991999999999999999999
0029028360999991924042413004+67367+026650FM-12+018199999V0200701N007219999999N0000001N9-00061+99999099641ADDGF100991999999999999999999
0029028360999991924042420004+67367+026650FM-12+018199999V0200501N003119999999N0000001N9-00561+99999099911ADDGF100991999999999999999999
0029028360999991924042506004+67367+026650FM-12+018199999V0203601N007219999999N0000001N9-00501+99999100071ADDGF108991999999999999999999
0035028360999991924042513004+67367+026650FM-12+018199999V0203601N005119999999N0000001N9-00111+99999099981ADDGF108991999999999999999999MW1701
0029028360999991924042520004+67367+026650FM-12+018199999V0203601N007219999999N0000001N9-00441+99999099911ADDGF108991999999999999999999
0035028360999991924042606004+67367+026650FM-12+018199999V0203601N005119999999N0000001N9-00501+99999099591ADDGF108991999999999999999999MW1701
0035028360999991924042613004+67367+026650FM-12+018199999V0203601N005119999999N0000001N9-00221+99999099401ADDGF108991999999999999999999MW1701
0035028360999991924042620004+67367+026650FM-12+018199999V0203601N003119999999N0000001N9-00441+99999099321ADDGF108991999999999999999999MW1701
0035028360999991924042706004+67367+026650FM-12+018199999V0203601N003119999999N0000001N9-00441+99999099281ADDGF108991999999999999999999MW1701
0035028360999991924042713004+67367+026650FM-12+018199999V0203601N003119999999N0000001N9-00171+99999099221ADDGF108991999999999999999999MW1701
0035028360999991924042720004+67367+026650FM-12+018199999V0203601N001019999999N0000001N9-00331+99999099191ADDGF108991999999999999999999MW1701
0029028360999991924042806004+67367+026650FM-12+018199999V0203601N001019999999N0000001N9-00281+99999099191ADDGF108991999999999999999999
0029028360999991924042813004+67367+026650FM-12+018199999V0203601N001019999999N0000001N9+00171+99999099081ADDGF100991999999999999999999
0029028360999991924042820004+67367+026650FM-12+018199999V0203601N001019999999N0000001N9-00441+99999098871ADDGF100991999999999999999999
0029028360999991924042906004+67367+026650FM-12+018199999V0203201N003119999999N0000001N9-00171+99999098521ADDGF106991999999999999999999
0035028360999991924042913004+67367+026650FM-12+018199999V0200701N004119999999N0000001N9+00221+99999098391ADDGF108991999999999999999999MW1721
0035028360999991924042920004+67367+026650FM-12+018199999V0200701N001019999999N0000001N9+00001+99999098441ADDGF108991999999999999999999MW1721
0035028360999991924043006004+67367+026650FM-12+018199999V0201601N003119999999N0000001N9-00061+99999098721ADDGF108991999999999999999999MW1721
0029028360999991924043013004+67367+026650FM-12+018199999V0201801N002119999999N0000001N9+00441+99999098741ADDGF108991999999999999999999
0029028360999991924043020004+67367+026650FM-12+018199999V0200901N002119999999N0000001N9-00221+99999098791ADDGF106991999999999999999999
0035028360999991924050106004+67367+026650FM-12+018199999V0200901N001019999999N0000001N9-00061+99999098791ADDGF108991999999999999999999MW1721
0029028360999991924050113004+67367+026650FM-12+018199999V0200901N001019999999N0000001N9+00611+99999098791ADDGF105991999999999999999999
0029028360999991924050120004+67367+026650FM-12+018199999V0200901N001019999999N0000001N9+00001+99999098761ADDGF106991999999999999999999
0029028360999991924050206004+67367+026650FM-12+018199999V0209991C000019999999N0000001N9+00111+99999098781ADDGF101991999999999999999999
0029028360999991924050213004+67367+026650FM-12+018199999V0203601N003119999999N0000001N9+00721+99999098791ADDGF101991999999999999999999
0029028360999991924050220004+67367+026650FM-12+018199999V0209991C000019999999N0000001N9-00111+99999098791ADDGF100991999999999999999999
0029028360999991924050306004+67367+026650FM-12+018199999V0209991C000019999999N0000001N9+00001+99999098901ADDGF108991999999999999999999
0029028360999991924050313004+67367+026650FM-12+018199999V0202701N005119999999N0000001N9+00671+99999099041ADDGF108991999999999999999999
0029028360999991924050320004+67367+026650FM-12+018199999V0202301N003119999999N0000001N9+00281+99999099221ADDGF100991999999999999999999
0029028360999991924050406004+67367+026650FM-12+018199999V0202301N005119999999N0000001N9+00281+99999099461ADDGF106991999999999999999999
0029028360999991924050413004+67367+026650FM-12+018199999V0202301N005119999999N0000001N9+00831+99999099581ADDGF102991999999999999999999
0029028360999991924050420004+67367+026650FM-12+018199999V0202301N003119999999N0000001N9+00331+99999099701ADDGF100991999999999999999999
0029028360999991924050506004+67367+026650FM-12+018199999V0202001N002119999999N0000001N9+00391+99999099721ADDGF108991999999999999999999
0029028360999991924050513004+67367+026650FM-12+018199999V0201801N003119999999N0000001N9+01061+99999099781ADDGF108991999999999999999999
0029028360999991924050520004+67367+026650FM-12+018199999V0200901N001019999999N0000001N9+00611+99999099661ADDGF105991999999999999999999
0029028360999991924050606004+67367+026650FM-12+018199999V0200901N003119999999N0000001N9+00501+99999099281ADDGF108991999999999999999999
0029028360999991924050613004+67367+026650FM-12+018199999V0200901N005119999999N0000001N9+00831+99999098951ADDGF108991999999999999999999
0035028360999991924050620004+67367+026650FM-12+018199999V0200901N001019999999N0000001N9+00281+99999098701ADDGF108991999999999999999999MW1621
0029028360999991924050706004+67367+026650FM-12+018199999V0202301N005119999999N0000001N9+00061+99999099161ADDGF108991999999999999999999
0029028360999991924050713004+67367+026650FM-12+018199999V0202301N006219999999N0000001N9+00671+99999099311ADDGF100991999999999999999999
0029028360999991924050720004+67367+026650FM-12+018199999V0202301N001019999999N0000001N9+00221+99999099261ADDGF108991999999999999999999
0029028360999991924050806004+67367+026650FM-12+018199999V0202301N005119999999N0000001N9+00171+99999099361ADDGF108991999999999999999999
0029028360999991924050813004+67367+026650FM-12+018199999V0202501N007219999999N0000001N9+00391+99999099861ADDGF106991999999999999999999
0029028360999991924050820004+67367+026650FM-12+018199999V0202301N004119999999N0000001N9+00331+99999100121ADDGF100991999999999999999999
0029028360999991924050906004+67367+026650FM-12+018199999V0202001N003119999999N0000001N9+00171+99999099881ADDGF108991999999999999999999
0035028360999991924050913004+67367+026650FM-12+018199999V0201401N004119999999N0000001N9+00391+99999099401ADDGF108991999999999999999999MW1601
0035028360999991924050920004+67367+026650FM-12+018199999V0201401N005119999999N0000001N9+00221+99999099061ADDGF108991999999999999999999MW1601
0029028360999991924051006004+67367+026650FM-12+018199999V0202301N003119999999N0000001N9+00221+99999099001ADDGF108991999999999999999999
0029028360999991924051013004+67367+026650FM-12+018199999V0202301N007219999999N0000001N9+00831+99999098781ADDGF107991999999999999999999
0029028360999991924051020004+67367+026650FM-12+018199999V0202701N008719999999N0000001N9+00561+99999099031ADDGF102991999999999999999999
0029028360999991924051106004+67367+026650FM-12+018199999V0202501N007219999999N0000001N9+00331+99999099961ADDGF100991999999999999999999
0029028360999991924051113004+67367+026650FM-12+018199999V0202501N008719999999N0000001N9+00781+99999099881ADDGF106991999999999999999999
0029028360999991924051120004+67367+026650FM-12+018199999V0202301N005119999999N0000001N9+00561+99999099641ADDGF108991999999999999999999
0029028360999991924051206004+67367+026650FM-12+018199999V0202301N002119999999N0000001N9+00331+99999099591ADDGF108991999999999999999999
0029028360999991924051213004+67367+026650FM-12+018199999V0201801N005119999999N0000001N9+00671+99999099271ADDGF108991999999999999999999
0035028360999991924051220004+67367+026650FM-12+018199999V0201801N003119999999N0000001N9+00331+99999098951ADDGF108991999999999999999999MW1621
0029028360999991924051306004+67367+026650FM-12+018199999V0202301N003119999999N0000001N9+00221+99999098901ADDGF108991999999999999999999
0029028360999991924051313004+67367+026650FM-12+018199999V0201801N003119999999N0000001N9+00941+99999098741ADDGF101991999999999999999999
0029028360999991924051320004+67367+026650FM-12+018199999V0202701N004119999999N0000001N9+00561+99999098821ADDGF100991999999999999999999
0029028360999991924051406004+67367+026650FM-12+018199999V0202701N005119999999N0000001N9+00561+99999099061ADDGF100991999999999999999999
0029028360999991924051413004+67367+026650FM-12+018199999V0202701N003119999999N0000001N9+00941+99999099301ADDGF108991999999999999999999
0029028360999991924051420004+67367+026650FM-12+018199999V0202701N001019999999N0000001N9+00391+99999099191ADDGF108991999999999999999999
0029028360999991924051506004+67367+026650FM-12+018199999V0202701N001019999999N0000001N9+00281+99999099391ADDGF108991999999999999999999
0029028360999991924051513004+67367+026650FM-12+018199999V0202701N003119999999N0000001N9+00831+99999099351ADDGF108991999999999999999999
0029028360999991924051520004+67367+026650FM-12+018199999V0209991C000019999999N0000001N9+00501+99999098951ADDGF108991999999999999999999
0029028360999991924051606004+67367+026650FM-12+018199999V0202701N003119999999N0000001N9+00391+99999098681ADDGF108991999999999999999999
0029028360999991924051613004+67367+026650FM-12+018199999V0203201N005119999999N0000001N9+00781+99999099021ADDGF108991999999999999999999
0029028360999991924051620004+67367+026650FM-12+018199999V0202701N001019999999N0000001N9+00281+99999099241ADDGF102991999999999999999999
0029028360999991924051706004+67367+026650FM-12+018199999V0203201N001019999999N0000001N9+00281+99999099341ADDGF101991999999999999999999
0029028360999991924051713004+67367+026650FM-12+018199999V0203201N003119999999N0000001N9+00561+99999099221ADDGF108991999999999999999999
0029028360999991924051720004+67367+026650FM-12+018199999V0203601N003119999999N0000001N9+00171+99999099231ADDGF106991999999999999999999
0029028360999991924051806004+67367+026650FM-12+018199999V0203201N003119999999N0000001N9+00061+99999099191ADDGF108991999999999999999999
0035028360999991924051813004+67367+026650FM-12+018199999V0203601N003119999999N0000001N9+00281+99999099111ADDGF108991999999999999999999MW1701
0035028360999991924051820004+67367+026650FM-12+018199999V0203401N003119999999N0000001N9+00111+99999099161ADDGF108991999999999999999999MW1701
0029028360999991924051906004+67367+026650FM-12+018199999V0203201N003119999999N0000001N9+00111+99999099141ADDGF108991999999999999999999
0029028360999991924051913004+67367+026650FM-12+018199999V0203201N005119999999N0000001N9+00391+99999099121ADDGF108991999999999999999999
0029028360999991924051920004+67367+026650FM-12+018199999V0203201N001019999999N0000001N9+00171+99999099191ADDGF108991999999999999999999
0029028360999991924052006004+67367+026650FM-12+018199999V0203201N003119999999N0000001N9+00111+99999099271ADDGF108991999999999999999999
0035028360999991924052013004+67367+026650FM-12+018199999V0203601N007219999999N0000001N9+00391+99999099341ADDGF107991999999999999999999MW1701
0035028360999991924052020004+67367+026650FM-12+018199999V0203201N003119999999N0000001N9+00111+99999099501ADDGF108991999999999999999999MW1701
0029028360999991924052106004+67367+026650FM-12+018199999V0202701N002119999999N0000001N9+00281+99999099661ADDGF104991999999999999999999
0035028360999991924052113004+67367+026650FM-12+018199999V0202701N007219999999N0000001N9+00501+99999099701ADDGF108991999999999999999999MW1861
0029028360999991924052120004+67367+026650FM-12+018199999V0203201N001019999999N0000001N9+00281+99999099821ADDGF108991999999999999999999
0029028360999991924052206004+67367+026650FM-12+018199999V0203201N003119999999N0000001N9+00281+99999099941ADDGF106991999999999999999999
0029028360999991924052213004+67367+026650FM-12+018199999V0202701N003119999999N0000001N9+00501+99999099781ADDGF108991999999999999999999
0029028360999991924052220004+67367+026650FM-12+018199999V0203201N001019999999N0000001N9+00171+99999099641ADDGF108991999999999999999999
0029028360999991924052306004+67367+026650FM-12+018199999V0202901N001019999999N0000001N9+00331+99999099301ADDGF108991999999999999999999
0029028360999991924052313004+67367+026650FM-12+018199999V0202301N003119999999N0000001N9+00611+99999098901ADDGF108991999999999999999999
0029028360999991924052320004+67367+026650FM-12+018199999V0203601N003119999999N0000001N9+00331+99999098511ADDGF106991999999999999999999
0052028360999991924052406004+67367+026650FM-12+018199999V0200901N004119999999N0000001N9+00171+99999098231ADDAJ100009199999999GF108991999999999999999999MW1721
0035028360999991924052413004+67367+026650FM-12+018199999V0200901N005119999999N0000001N9+00171+99999098311ADDGF108991999999999999999999MW1691
0035028360999991924052420004+67367+026650FM-12+018199999V0200901N003119999999N0000001N9+00061+99999098391ADDGF108991999999999999999999MW1691
0052028360999991924052506004+67367+026650FM-12+018199999V0201101N003119999999N0000001N9+00171+99999098471ADDAJ100009199999999GF108991999999999999999999MW1691
0035028360999991924052513004+67367+026650FM-12+018199999V0201401N005119999999N0000001N9+00391+99999098311ADDGF108991999999999999999999MW1621
0035028360999991924052520004+67367+026650FM-12+018199999V0201401N004119999999N0000001N9+00561+99999097801ADDGF108991999999999999999999MW1621
0052028360999991924052606004+67367+026650FM-12+018199999V0200901N005119999999N0000001N9+00391+99999097161ADDAJ100009199999999GF108991999999999999999999MW1601
0035028360999991924052613004+67367+026650FM-12+018199999V0200901N003119999999N0000001N9+00721+99999097311ADDGF108991999999999999999999MW1641
0035028360999991924052620004+67367+026650FM-12+018199999V0200901N001019999999N0000001N9+00611+99999097701ADDGF108991999999999999999999MW1641
0052028360999991924052706004+67367+026650FM-12+018199999V0200901N001019999999N0000001N9+00611+99999098101ADDAJ100009199999999GF108991999999999999999999MW1601
0029028360999991924052713004+67367+026650FM-12+018199999V0203601N005119999999N0000001N9+00891+99999098471ADDGF108991999999999999999999
0029028360999991924052720004+67367+026650FM-12+018199999V0203601N001019999999N0000001N9+00611+99999098861ADDGF108991999999999999999999
0046028360999991924052806004+67367+026650FM-12+018199999V0203601N001019999999N0000001N9+00501+99999099231ADDAJ100009199999999GF108991999999999999999999
0029028360999991924052813004+67367+026650FM-12+018199999V0201601N003119999999N0000001N9+01331+99999098921ADDGF106991999999999999999999
0029028360999991924052820004+67367+026650FM-12+018199999V0202701N001019999999N0000001N9+00561+99999098581ADDGF108991999999999999999999
0046028360999991924052906004+67367+026650FM-12+018199999V0202701N003119999999N0000001N9+00611+99999098351ADDAJ100009199999999GF108991999999999999999999
0029028360999991924052913004+67367+026650FM-12+018199999V0203201N005119999999N0000001N9+00721+99999099031ADDGF108991999999999999999999
0029028360999991924052920004+67367+026650FM-12+018199999V0203401N003119999999N0000001N9+00611+99999099461ADDGF107991999999999999999999
0046028360999991924053006004+67367+026650FM-12+018199999V0202701N004119999999N0000001N9+00391+99999099861ADDAJ100009199999999GF105991999999999999999999
0029028360999991924053013004+67367+026650FM-12+018199999V0202501N003119999999N0000001N9+01061+99999099821ADDGF106991999999999999999999
0029028360999991924053020004+67367+026650FM-12+018199999V0202001N007219999999N0000001N9+00891+99999099501ADDGF108991999999999999999999
0052028360999991924053106004+67367+026650FM-12+018199999V0201401N003119999999N0000001N9+00441+99999098421ADDAJ100009199999999GF108991999999999999999999MW1621
0035028360999991924053113004+67367+026650FM-12+018199999V0202001N005119999999N0000001N9+00721+99999097461ADDGF108991999999999999999999MW1621
0035028360999991924053120004+67367+026650FM-12+018199999V0202701N009819999999N0000001N9+00331+99999097751ADDGF108991999999999999999999MW1621
0046028360999991924060106004+67367+026650FM-12+018199999V0203201N003119999999N0000001N9+00281+99999099061ADDAJ100009199999999GF108991999999999999999999
0035028360999991924060113004+67367+026650FM-12+018199999V0203201N001019999999N0000001N9+00281+99999099591ADDGF108991999999999999999999MW1861
0029028360999991924060120004+67367+026650FM-12+018199999V0203401N001019999999N0000001N9+00281+99999099761ADDGF105991999999999999999999
0046028360999991924060206004+67367+026650FM-12+018199999V0203601N001019999999N0000001N9+00331+99999099991ADDAJ100009199999999GF104991999999999999999999
0029028360999991924060213004+67367+026650FM-12+018199999V0203601N001019999999N0000001N9+00781+99999099701ADDGF108991999999999999999999
0029028360999991924060220004+67367+026650FM-12+018199999V0200901N001019999999N0000001N9+00721+99999099311ADDGF108991999999999999999999
0046028360999991924060306004+67367+026650FM-12+018199999V0200901N008719999999N0000001N9+00501+99999098661ADDAJ100009199999999GF108991999999999999999999
0035028360999991924060313004+67367+026650FM-12+018199999V0201101N005119999999N0000001N9+00171+99999098121ADDGF108991999999999999999999MW1691
0035028360999991924060320004+67367+026650FM-12+018199999V0200901N006219999999N0000001N9+00281+99999097661ADDGF108991999999999999999999MW1601
0052028360999991924060406004+67367+026650FM-12+018199999V0200901N003119999999N0000001N9+00441+99999097321ADDAJ100009199999999GF108991999999999999999999MW1601
0035028360999991924060413004+67367+026650FM-12+018199999V0202701N006219999999N0000001N9+00721+99999097321ADDGF108991999999999999999999MW1621
0029028360999991924060420004+67367+026650FM-12+018199999V0209991C000019999999N0000001N9+00721+99999097201ADDGF107991999999999999999999
0046028360999991924060506004+67367+026650FM-12+018199999V0203601N003119999999N0000001N9+00441+99999097461ADDAJ100009199999999GF108991999999999999999999
0029028360999991924060513004+67367+026650FM-12+018199999V0203401N003119999999N0000001N9+00831+99999097831ADDGF108991999999999999999999
0029028360999991924060520004+67367+026650FM-12+018199999V0203601N003119999999N0000001N9+00561+99999098281ADDGF108991999999999999999999
0052028360999991924060606004+67367+026650FM-12+018199999V0200201N003119999999N0000001N9+00331+99999098841ADDAJ100009199999999GF108991999999999999999999MW1621
0029028360999991924060613004+67367+026650FM-12+018199999V0200501N003119999999N0000001N9+00671+99999099241ADDGF108991999999999999999999
0035028360999991924060620004+67367+026650FM-12+018199999V0203401N001019999999N0000001N9+00561+99999099511ADDGF108991999999999999999999MW1601
0046028360999991924060706004+67367+026650FM-12+018199999V0202001N003119999999N0000001N9+00671+99999099511ADDAJ100009199999999GF108991999999999999999999
0029028360999991924060713004+67367+026650FM-12+018199999V0202701N007219999999N0000001N9+00891+99999099471ADDGF108991999999999999999999
0029028360999991924060720004+67367+026650FM-12+018199999V0202501N003119999999N0000001N9+00831+99999099461ADDGF107991999999999999999999
0046028360999991924060806004+67367+026650FM-12+018199999V0202501N007219999999N0000001N9+00891+99999099561ADDAJ100009199999999GF104991999999999999999999
0029028360999991924060813004+67367+026650FM-12+018199999V0202501N005119999999N0000001N9+01061+99999099501ADDGF106991999999999999999999
0035028360999991924060820004+67367+026650FM-12+018199999V0203401N003119999999N0000001N9+00781+99999099521ADDGF108991999999999999999999MW1621
0046028360999991924060906004+67367+026650FM-12+018199999V0203601N003119999999N0000001N9+00611+99999099511ADDAJ100009199999999GF108991999999999999999999
0029028360999991924060913004+67367+026650FM-12+018199999V0203201N005119999999N0000001N9+00941+99999099551ADDGF105991999999999999999999
0029028360999991924060920004+67367+026650FM-12+018199999V0203201N001019999999N0000001N9+00781+99999099591ADDGF108991999999999999999999
0046028360999991924061006004+67367+026650FM-12+018199999V0203601N003119999999N0000001N9+00721+99999099511ADDAJ100009199999999GF108991999999999999999999
0029028360999991924061013004+67367+026650FM-12+018199999V0209991C000019999999N0000001N9+01111+99999099341ADDGF106991999999999999999999
0029028360999991924061020004+67367+026650FM-12+018199999V0200701N005119999999N0000001N9+01061+99999099021ADDGF108991999999999999999999
0052028360999991924061106004+67367+026650FM-12+018199999V0200901N005119999999N0000001N9+00441+99999098391ADDAJ100009199999999GF108991999999999999999999MW1621
0035028360999991924061113004+67367+026650FM-12+018199999V0200501N008719999999N0000001N9+00331+99999098261ADDGF108991999999999999999999MW1621
0035028360999991924061120004+67367+026650FM-12+018199999V0200501N005119999999N0000001N9+00221+99999098461ADDGF108991999999999999999999MW1621
0052028360999991924061206004+67367+026650FM-12+018199999V0200501N005119999999N0000001N9+00111+99999098861ADDAJ100009199999999GF108991999999999999999999MW1601
0029028360999991924061213004+67367+026650FM-12+018199999V0200201N003119999999N0000001N9+00441+99999099061ADDGF108991999999999999999999
0035028360999991924061220004+67367+026650FM-12+018199999V0200501N001019999999N0000001N9+00501+99999099141ADDGF108991999999999999999999MW1621
0052028360999991924061306004+67367+026650FM-12+018199999V0201401N003119999999N0000001N9+00111+99999099141ADDAJ100009199999999GF108991999999999999999999MW1691
0035028360999991924061313004+67367+026650FM-12+018199999V0203601N005119999999N0000001N9+00391+99999099111ADDGF108991999999999999999999MW1621
0029028360999991924061320004+67367+026650FM-12+018199999V0200501N001019999999N0000001N9+00501+99999099401ADDGF100991999999999999999999
0046028360999991924061406004+67367+026650FM-12+018199999V0200201N005119999999N0000001N9+00611+99999099581ADDAJ100009199999999GF108991999999999999999999
0029028360999991924061413004+67367+026650FM-12+018199999V0203601N006219999999N0000001N9+00781+99999099961ADDGF108991999999999999999999
0029028360999991924061420004+67367+026650FM-12+018199999V0209991C000019999999N0000001N9+00671+99999100231ADDGF108991999999999999999999
0046028360999991924061506004+67367+026650FM-12+018199999V0202301N005119999999N0000001N9+01001+99999100361ADDAJ100009199999999GF107991999999999999999999
0029028360999991924061513004+67367+026650FM-12+018199999V0202501N005119999999N0000001N9+01501+99999100101ADDGF106991999999999999999999
0029028360999991924061520004+67367+026650FM-12+018199999V0202301N005119999999N0000001N9+01171+99999099831ADDGF106991999999999999999999
0046028360999991924061606004+67367+026650FM-12+018199999V0201801N003119999999N0000001N9+01281+99999099591ADDAJ100009199999999GF108991999999999999999999
0035028360999991924061613004+67367+026650FM-12+018199999V0201401N005119999999N0000001N9+00891+99999099341ADDGF108991999999999999999999MW1621
0035028360999991924061620004+67367+026650FM-12+018199999V0200901N005119999999N0000001N9+00391+99999098901ADDGF108991999999999999999999MW1621
0052028360999991924061706004+67367+026650FM-12+018199999V0200201N001019999999N0000001N9+00611+99999098711ADDAJ100009199999999GF108991999999999999999999MW1601
0035028360999991924061713004+67367+026650FM-12+018199999V0203601N003119999999N0000001N9+00721+99999099321ADDGF108991999999999999999999MW1621
0029028360999991924061720004+67367+026650FM-12+018199999V0203201N003119999999N0000001N9+00941+99999099751ADDGF108991999999999999999999
0046028360999991924061806004+67367+026650FM-12+018199999V0203601N001019999999N0000001N9+01061+99999100341ADDAJ100009199999999GF106991999999999999999999
0029028360999991924061813004+67367+026650FM-12+018199999V0202701N007219999999N0000001N9+01671+99999100391ADDGF107991999999999999999999
0029028360999991924061820004+67367+026650FM-12+018199999V0202501N005119999999N0000001N9+01611+99999100101ADDGF108991999999999999999999
0052028360999991924061906004+67367+026650FM-12+018199999V0202701N005119999999N0000001N9+01171+99999099511ADDAJ100009199999999GF108991999999999999999999MW1621
0029028360999991924061913004+67367+026650FM-12+018199999V0203201N008219999999N0000001N9+01501+99999100111ADDGF104991999999999999999999
0029028360999991924061920004+67367+026650FM-12+018199999V0203601N003119999999N0000001N9+01111+99999100361ADDGF102991999999999999999999
0046028360999991924062006004+67367+026650FM-12+018199999V0203601N001019999999N0000001N9+01001+99999100501ADDAJ100009199999999GF101991999999999999999999
0029028360999991924062013004+67367+026650FM-12+018199999V0200701N001019999999N0000001N9+01561+99999100201ADDGF106991999999999999999999
0029028360999991924062020004+67367+026650FM-12+018199999V0203201N001019999999N0000001N9+01441+99999099941ADDGF104991999999999999999999
0046028360999991924062106004+67367+026650FM-12+018199999V0202001N003119999999N0000001N9+01501+99999099781ADDAJ100009199999999GF108991999999999999999999
0029028360999991924062113004+67367+026650FM-12+018199999V0202301N005119999999N0000001N9+01891+99999099701ADDGF108991999999999999999999
0029028360999991924062120004+67367+026650FM-12+018199999V0202501N003119999999N0000001N9+01391+99999099721ADDGF108991999999999999999999
0046028360999991924062206004+67367+026650FM-12+018199999V0202301N005119999999N0000001N9+01331+99999099701ADDAJ100009199999999GF108991999999999999999999
0029028360999991924062213004+67367+026650FM-12+018199999V0202701N003119999999N0000001N9+01391+99999099551ADDGF108991999999999999999999
0029028360999991924062220004+67367+026650FM-12+018199999V0203601N001019999999N0000001N9+01281+99999099481ADDGF108991999999999999999999
0046028360999991924062306004+67367+026650FM-12+018199999V0200201N005119999999N0000001N9+00891+99999099461ADDAJ100009199999999GF108991999999999999999999
0029028360999991924062313004+67367+026650FM-12+018199999V0200201N007219999999N0000001N9+01061+99999099481ADDGF107991999999999999999999
0029028360999991924062320004+67367+026650FM-12+018199999V0200501N007219999999N0000001N9+00781+99999099441ADDGF107991999999999999999999
0046028360999991924062406004+67367+026650FM-12+018199999V0200901N007219999999N0000001N9+00501+99999099461ADDAJ100009199999999GF108991999999999999999999
0029028360999991924062413004+67367+026650FM-12+018199999V0201101N007219999999N0000001N9+01171+99999099161ADDGF106991999999999999999999
0029028360999991924062420004+67367+026650FM-12+018199999V0200901N003119999999N0000001N9+00941+99999099081ADDGF108991999999999999999999
0046028360999991924062506004+67367+026650FM-12+018199999V0200501N005119999999N0000001N9+00561+99999099221ADDAJ100009199999999GF107991999999999999999999
0029028360999991924062513004+67367+026650FM-12+018199999V0200501N004119999999N0000001N9+01171+99999099071ADDGF106991999999999999999999
0029028360999991924062520004+67367+026650FM-12+018199999V0200701N003119999999N0000001N9+00941+99999099081ADDGF108991999999999999999999
0046028360999991924062606004+67367+026650FM-12+018199999V0200701N003119999999N0000001N9+00611+99999099231ADDAJ100009199999999GF108991999999999999999999
0029028360999991924062613004+67367+026650FM-12+018199999V0200201N004119999999N0000001N9+00831+99999099201ADDGF108991999999999999999999
0029028360999991924062620004+67367+026650FM-12+018199999V0203601N001019999999N0000001N9+00941+99999099081ADDGF108991999999999999999999
0046028360999991924062706004+67367+026650FM-12+018199999V0200201N003119999999N0000001N9+00941+99999098951ADDAJ100009199999999GF108991999999999999999999
0029028360999991924062713004+67367+026650FM-12+018199999V0200201N001019999999N0000001N9+01281+99999098881ADDGF108991999999999999999999
0029028360999991924062720004+67367+026650FM-12+018199999V0202001N001019999999N0000001N9+01001+99999098721ADDGF108991999999999999999999
0046028360999991924062806004+67367+026650FM-12+018199999V0201801N001019999999N0000001N9+00891+99999098601ADDAJ100009199999999GF108991999999999999999999
0029028360999991924062813004+67367+026650FM-12+018199999V0201101N003119999999N0000001N9+01391+99999098361ADDGF108991999999999999999999
0029028360999991924062820004+67367+026650FM-12+018199999V0201601N001019999999N0000001N9+01331+99999098121ADDGF102991999999999999999999
0046028360999991924062906004+67367+026650FM-12+018199999V0201101N003119999999N0000001N9+01221+99999098001ADDAJ100009199999999GF104991999999999999999999
0035028360999991924062913004+67367+026650FM-12+018199999V0200501N003119999999N0000001N9+01391+99999097761ADDGF108991999999999999999999MW1601
0035028360999991924062920004+67367+026650FM-12+018199999V0200701N002119999999N0000001N9+01061+99999097781ADDGF108991999999999999999999MW1621
0052028360999991924063006004+67367+026650FM-12+018199999V0200501N003119999999N0000001N9+00721+99999097801ADDAJ100009199999999GF108991999999999999999999MW1601
0029028360999991924063013004+67367+026650FM-12+018199999V0200201N003119999999N0000001N9+00941+99999097801ADDGF108991999999999999999999
0029028360999991924063020004+67367+026650FM-12+018199999V0203601N001019999999N0000001N9+00941+99999097671ADDGF108991999999999999999999
0046028360999991924070106004+67367+026650FM-12+018199999V0203401N001019999999N0000001N9+01001+99999097591ADDAJ100009199999999GF107991999999999999999999
0029028360999991924070113004+67367+026650FM-12+018199999V0202501N005119999999N0000001N9+01611+99999097461ADDGF107991999999999999999999
0029028360999991924070120004+67367+026650FM-12+018199999V0209991C000019999999N0000001N9+01111+99999097461ADDGF106991999999999999999999
0046028360999991924070206004+67367+026650FM-12+018199999V0209991C000019999999N0000001N9+01391+99999097481ADDAJ100009199999999GF106991999999999999999999
0035028360999991924070213004+67367+026650FM-12+018199999V0201601N003119999999N0000001N9+01561+99999097591ADDGF107991999999999999999999MW1621
0029028360999991924070220004+67367+026650FM-12+018199999V0202501N003119999999N0000001N9+01281+99999097911ADDGF108991999999999999999999
0046028360999991924070306004+67367+026650FM-12+018199999V0202301N003119999999N0000001N9+00941+99999098441ADDAJ100009199999999GF108991999999999999999999
0029028360999991924070313004+67367+026650FM-12+018199999V0202501N005119999999N0000001N9+01891+99999098631ADDGF104991999999999999999999
0029028360999991924070320004+67367+026650FM-12+018199999V0202301N003119999999N0000001N9+01721+99999098761ADDGF105991999999999999999999
0046028360999991924070406004+67367+026650FM-12+018199999V0202001N003119999999N0000001N9+01671+99999098881ADDAJ100009199999999GF104991999999999999999999
0029028360999991924070413004+67367+026650FM-12+018199999V0201801N003119999999N0000001N9+02001+99999098661ADDGF106991999999999999999999
0029028360999991924070420004+67367+026650FM-12+018199999V0201601N003119999999N0000001N9+01891+99999098341ADDGF101991999999999999999999
0046028360999991924070506004+67367+026650FM-12+018199999V0201101N004119999999N0000001N9+01781+99999098221ADDAJ100009199999999GF102991999999999999999999
0029028360999991924070513004+67367+026650FM-12+018199999V0201801N004119999999N0000001N9+02281+99999098071ADDGF107991999999999999999999
0029028360999991924070520004+67367+026650FM-12+018199999V0202501N004119999999N0000001N9+01721+99999097821ADDGF106991999999999999999999
0046028360999991924070606004+67367+026650FM-12+018199999V0202501N003119999999N0000001N9+01331+99999097641ADDAJ100009199999999GF108991999999999999999999
0029028360999991924070613004+67367+026650FM-12+018199999V0202701N004119999999N0000001N9+01781+99999097431ADDGF108991999999999999999999
0035028360999991924070620004+67367+026650FM-12+018199999V0201401N001019999999N0000001N9+01281+99999097401ADDGF108991999999999999999999MW1621
0046028360999991924070706004+67367+026650FM-12+018199999V0203201N003119999999N0000001N9+01221+99999097351ADDAJ100009199999999GF108991999999999999999999
0029028360999991924070713004+67367+026650FM-12+018199999V0203601N005119999999N0000001N9+01281+99999097511ADDGF108991999999999999999999
0029028360999991924070720004+67367+026650FM-12+018199999V0203401N001019999999N0000001N9+01111+99999097561ADDGF108991999999999999999999
0052028360999991924070806004+67367+026650FM-12+018199999V0203401N003119999999N0000001N9+00891+99999097591ADDAJ100009199999999GF108991999999999999999999MW1601
0035028360999991924070813004+67367+026650FM-12+018199999V0203401N002119999999N0000001N9+01171+99999097671ADDGF108991999999999999999999MW1601
0029028360999991924070820004+67367+026650FM-12+018199999V0203201N001019999999N0000001N9+01111+99999097721ADDGF108991999999999999999999
0052028360999991924070906004+67367+026650FM-12+018199999V0209991C000019999999N0000001N9+01171+99999097911ADDAJ100009199999999GF108991999999999999999999MW1601
0035028360999991924070913004+67367+026650FM-12+018199999V0202701N003119999999N0000001N9+01391+99999098121ADDGF108991999999999999999999MW1601
0029028360999991924070920004+67367+026650FM-12+018199999V0203201N004119999999N0000001N9+01501+99999098271ADDGF108991999999999999999999
0046028360999991924071006004+67367+026650FM-12+018199999V0200501N005119999999N0000001N9+01441+99999098421ADDAJ100009199999999GF107991999999999999999999
0035028360999991924071013004+67367+026650FM-12+018199999V0203601N008219999999N0000001N9+01331+99999098591ADDGF108991999999999999999999MW1621
0029028360999991924071020004+67367+026650FM-12+018199999V0203401N005119999999N0000001N9+01221+99999098741ADDGF108991999999999999999999
0046028360999991924071106004+67367+026650FM-12+018199999V0203401N005119999999N0000001N9+01171+99999098801ADDAJ100009199999999GF108991999999999999999999
0029028360999991924071113004+67367+026650FM-12+018199999V0203201N007219999999N0000001N9+01221+99999099041ADDGF108991999999999999999999
0029028360999991924071120004+67367+026650FM-12+018199999V0203401N003119999999N0000001N9+01001+99999099241ADDGF108991999999999999999999
0046028360999991924071206004+67367+026650FM-12+018199999V0203201N005119999999N0000001N9+01061+99999099301ADDAJ100009199999999GF108991999999999999999999
0029028360999991924071213004+67367+026650FM-12+018199999V0203201N006219999999N0000001N9+01221+99999099461ADDGF108991999999999999999999
0029028360999991924071220004+67367+026650FM-12+018199999V0203201N002119999999N0000001N9+01111+99999099561ADDGF108991999999999999999999
0046028360999991924071306004+67367+026650FM-12+018199999V0203401N005119999999N0000001N9+01001+99999099761ADDAJ100009199999999GF108991999999999999999999
0029028360999991924071313004+67367+026650FM-12+018199999V0203401N004119999999N0000001N9+01391+99999099721ADDGF106991999999999999999999
0029028360999991924071320004+67367+026650FM-12+018199999V0209991C000019999999N0000001N9+01111+99999099701ADDGF108991999999999999999999
0046028360999991924071406004+67367+026650FM-12+018199999V0203601N001019999999N0000001N9+01171+99999099511ADDAJ100009199999999GF105991999999999999999999
0029028360999991924071413004+67367+026650FM-12+018199999V0200201N002119999999N0000001N9+01391+99999099401ADDGF108991999999999999999999
0029028360999991924071420004+67367+026650FM-12+018199999V0200201N003119999999N0000001N9+01391+99999099381ADDGF107991999999999999999999
0046028360999991924071506004+67367+026650FM-12+018199999V0200201N001019999999N0000001N9+01281+99999099381ADDAJ100009199999999GF101991999999999999999999
0029028360999991924071513004+67367+026650FM-12+018199999V0203601N001019999999N0000001N9+01891+99999099241ADDGF103991999999999999999999
0029028360999991924071520004+67367+026650FM-12+018199999V0209991C000019999999N0000001N9+01501+99999099061ADDGF105991999999999999999999
0046028360999991924071606004+67367+026650FM-12+018199999V0203601N001019999999N0000001N9+01831+99999099071ADDAJ100009199999999GF102991999999999999999999
0029028360999991924071613004+67367+026650FM-12+018199999V0209991C000019999999N0000001N9+02331+99999098961ADDGF106991999999999999999999
0029028360999991924071620004+67367+026650FM-12+018199999V0209991C000019999999N0000001N9+01941+99999098911ADDGF106991999999999999999999
0046028360999991924071706004+67367+026650FM-12+018199999V0209991C000019999999N0000001N9+01831+99999098951ADDAJ100009199999999GF106991999999999999999999
0029028360999991924071713004+67367+026650FM-12+018199999V0202501N005119999999N0000001N9+02561+99999098841ADDGF106991999999999999999999
0029028360999991924071720004+67367+026650FM-12+018199999V0209991C000019999999N0000001N9+02111+99999098801ADDGF101991999999999999999999
0046028360999991924071806004+67367+026650FM-12+018199999V0202001N003119999999N0000001N9+01941+99999098911ADDAJ100009199999999GF100991999999999999999999
0029028360999991924071813004+67367+026650FM-12+018199999V0202501N007219999999N0000001N9+02561+99999098871ADDGF106991999999999999999999
0029028360999991924071820004+67367+026650FM-12+018199999V0202701N003119999999N0000001N9+02111+99999099031ADDGF100991999999999999999999
0046028360999991924071906004+67367+026650FM-12+018199999V0202701N003119999999N0000001N9+02061+99999099221ADDAJ100009199999999GF102991999999999999999999
0029028360999991924071913004+67367+026650FM-12+018199999V0202301N003119999999N0000001N9+02671+99999099161ADDGF106991999999999999999999
0029028360999991924071920004+67367+026650FM-12+018199999V0209991C000019999999N0000001N9+02061+99999099141ADDGF102991999999999999999999
0046028360999991924072006004+67367+026650FM-12+018199999V0209991C000019999999N0000001N9+02061+99999099301ADDAJ100009199999999GF101991999999999999999999
0029028360999991924072013004+67367+026650FM-12+018199999V0200901N001019999999N0000001N9+02891+99999099241ADDGF104991999999999999999999
0029028360999991924072020004+67367+026650FM-12+018199999V0200201N001019999999N0000001N9+02221+99999099281ADDGF105991999999999999999999
0046028360999991924072106004+67367+026650FM-12+018199999V0209991C000019999999N0000001N9+01561+99999099541ADDAJ100009199999999GF104991999999999999999999
0029028360999991924072113004+67367+026650FM-12+018199999V0201801N001019999999N0000001N9+02831+99999099501ADDGF103991999999999999999999
0029028360999991924072120004+67367+026650FM-12+018199999V0209991C000019999999N0000001N9+02111+99999099441ADDGF100991999999999999999999
0046028360999991924072206004+67367+026650FM-12+018199999V0201401N001019999999N0000001N9+02281+99999099561ADDAJ100009199999999GF101991999999999999999999
0035028360999991924072213004+67367+026650FM-12+018199999V0202701N005119999999N0000001N9+02781+99999099301ADDGF105991999999999999999999MW1171
0029028360999991924072220004+67367+026650FM-12+018199999V0209991C000019999999N0000001N9+02171+99999099221ADDGF106991999999999999999999
0046028360999991924072306004+67367+026650FM-12+018199999V0201601N003119999999N0000001N9+02111+99999099161ADDAJ100009199999999GF101991999999999999999999
0035028360999991924072313004+67367+026650FM-12+018199999V0201601N007219999999N0000001N9+02561+99999098981ADDGF108991999999999999999999MW1171
0029028360999991924072320004+67367+026650FM-12+018199999V0209991C000019999999N0000001N9+02111+99999098911ADDGF107991999999999999999999
0046028360999991924072406004+67367+026650FM-12+018199999V0201601N005119999999N0000001N9+02001+99999098951ADDAJ100009199999999GF101991999999999999999999
0029028360999991924072413004+67367+026650FM-12+018199999V0201601N006219999999N0000001N9+02781+99999099031ADDGF106991999999999999999999
0029028360999991924072420004+67367+026650FM-12+018199999V0209991C000019999999N0000001N9+02111+99999099061ADDGF108991999999999999999999
0046028360999991924072506004+67367+026650FM-12+018199999V0201401N003119999999N0000001N9+01831+99999099351ADDAJ100009199999999GF100991999999999999999999
0029028360999991924072513004+67367+026650FM-12+018199999V0201601N003119999999N0000001N9+02611+99999099271ADDGF107991999999999999999999
0029028360999991924072520004+67367+026650FM-12+018199999V0209991C000019999999N0000001N9+01831+99999099231ADDGF108991999999999999999999
0046028360999991924072606004+67367+026650FM-12+018199999V0201601N001019999999N0000001N9+01891+99999099341ADDAJ100009199999999GF102991999999999999999999
0029028360999991924072613004+67367+026650FM-12+018199999V0209991C000019999999N0000001N9+02781+99999099301ADDGF103991999999999999999999
0029028360999991924072620004+67367+026650FM-12+018199999V0209991C000019999999N0000001N9+01941+99999099381ADDGF100991999999999999999999
0046028360999991924072706004+67367+026650FM-12+018199999V0203601N003119999999N0000001N9+01441+99999099471ADDAJ100009199999999GF100991999999999999999999
0029028360999991924072713004+67367+026650FM-12+018199999V0200201N005119999999N0000001N9+02331+99999099381ADDGF100991999999999999999999
0029028360999991924072720004+67367+026650FM-12+018199999V0209991C000019999999N0000001N9+01561+99999099361ADDGF100991999999999999999999
0046028360999991924072806004+67367+026650FM-12+018199999V0209991C000019999999N0000001N9+01501+99999099461ADDAJ100009199999999GF100991999999999999999999
0029028360999991924072813004+67367+026650FM-12+018199999V0200501N003119999999N0000001N9+02441+99999099301ADDGF100991999999999999999999
0029028360999991924072820004+67367+026650FM-12+018199999V0209991C000019999999N0000001N9+01611+99999099161ADDGF100991999999999999999999
0046028360999991924072906004+67367+026650FM-12+018199999V0203201N001019999999N0000001N9+01721+99999099121ADDAJ100009199999999GF100991999999999999999999
0029028360999991924072913004+67367+026650FM-12+018199999V0209991C000019999999N0000001N9+02721+99999099001ADDGF104991999999999999999999
0029028360999991924072920004+67367+026650FM-12+018199999V0209991C000019999999N0000001N9+01891+99999099031ADDGF107991999999999999999999
0046028360999991924073006004+67367+026650FM-12+018199999V0203401N002119999999N0000001N9+01671+99999099201ADDAJ100009199999999GF102991999999999999999999
0029028360999991924073013004+67367+026650FM-12+018199999V0201801N003119999999N0000001N9+02611+99999099141ADDGF102991999999999999999999
0029028360999991924073020004+67367+026650FM-12+018199999V0209991C000019999999N0000001N9+01891+99999099081ADDGF102991999999999999999999
0046028360999991924073106004+67367+026650FM-12+018199999V0202001N003119999999N0000001N9+01891+99999099351ADDAJ100009199999999GF100991999999999999999999
0029028360999991924073113004+67367+026650FM-12+018199999V0209991C000019999999N0000001N9+02611+99999099321ADDGF106991999999999999999999
0029028360999991924073120004+67367+026650FM-12+018199999V0209991C000019999999N0000001N9+01831+99999099351ADDGF106991999999999999999999
0046028360999991924080106004+67367+026650FM-12+018199999V0202301N001019999999N0000001N9+01781+99999099461ADDAJ100009199999999GF102991999999999999999999
0029028360999991924080113004+67367+026650FM-12+018199999V0202001N007219999999N0000001N9+02671+99999099381ADDGF104991999999999999999999
0029028360999991924080120004+67367+026650FM-12+018199999V0209991C000019999999N0000001N9+01941+99999099351ADDGF102991999999999999999999
0046028360999991924080206004+67367+026650FM-12+018199999V0202301N001019999999N0000001N9+01831+99999099401ADDAJ100009199999999GF101991999999999999999999
0029028360999991924080213004+67367+026650FM-12+018199999V0202001N007219999999N0000001N9+02671+99999099321ADDGF104991999999999999999999
0029028360999991924080220004+67367+026650FM-12+018199999V0202501N002119999999N0000001N9+01561+99999099351ADDGF106991999999999999999999
0046028360999991924080306004+67367+026650FM-12+018199999V0202001N005119999999N0000001N9+01831+99999099501ADDAJ100009199999999GF106991999999999999999999
0029028360999991924080313004+67367+026650FM-12+018199999V0202001N008719999999N0000001N9+02561+99999099401ADDGF108991999999999999999999
0029028360999991924080320004+67367+026650FM-12+018199999V0202001N007219999999N0000001N9+02001+99999099461ADDGF104991999999999999999999
0046028360999991924080406004+67367+026650FM-12+018199999V0201801N001019999999N0000001N9+01891+99999099541ADDAJ100009199999999GF102991999999999999999999
0029028360999991924080413004+67367+026650FM-12+018199999V0202001N008219999999N0000001N9+02671+99999099391ADDGF106991999999999999999999
0035028360999991924080420004+67367+026650FM-12+018199999V0202001N005119999999N0000001N9+01891+99999099401ADDGF108991999999999999999999MW1621
0046028360999991924080506004+67367+026650FM-12+018199999V0202001N005119999999N0000001N9+01891+99999099471ADDAJ100009199999999GF107991999999999999999999
0029028360999991924080513004+67367+026650FM-12+018199999V0202001N006219999999N0000001N9+02561+99999099321ADDGF106991999999999999999999
0029028360999991924080520004+67367+026650FM-12+018199999V0201601N001019999999N0000001N9+02171+99999099231ADDGF101991999999999999999999
0046028360999991924080606004+67367+026650FM-12+018199999V0201801N004119999999N0000001N9+02001+99999099221ADDAJ100009199999999GF100991999999999999999999
0029028360999991924080613004+67367+026650FM-12+018199999V0202001N015919999999N0000001N9+02561+99999099061ADDGF105991999999999999999999
0029028360999991924080620004+67367+026650FM-12+018199999V0201801N001019999999N0000001N9+01941+99999098951ADDGF108991999999999999999999
0046028360999991924080706004+67367+026650FM-12+018199999V0200901N007219999999N0000001N9+01831+99999098551ADDAJ100009199999999GF108991999999999999999999
0029028360999991924080713004+67367+026650FM-12+018199999V0201401N007219999999N0000001N9+01611+99999098161ADDGF108991999999999999999999
0029028360999991924080720004+67367+026650FM-12+018199999V0201601N004119999999N0000001N9+01281+99999097981ADDGF108991999999999999999999
0052028360999991924080806004+67367+026650FM-12+018199999V0202301N007219999999N0000001N9+01221+99999097941ADDAJ100009199999999GF108991999999999999999999MW1621
0035028360999991924080813004+67367+026650FM-12+018199999V0202501N006219999999N0000001N9+01171+99999098301ADDGF108991999999999999999999MW1621
0029028360999991924080820004+67367+026650FM-12+018199999V0202701N004119999999N0000001N9+01281+99999098701ADDGF108991999999999999999999
0046028360999991924080906004+67367+026650FM-12+018199999V0202701N001019999999N0000001N9+01061+99999099241ADDAJ100009199999999GF106991999999999999999999
0029028360999991924080913004+67367+026650FM-12+018199999V0202701N003119999999N0000001N9+01611+99999099311ADDGF108991999999999999999999
0029028360999991924080920004+67367+026650FM-12+018199999V0202701N005119999999N0000001N9+01281+99999099341ADDGF108991999999999999999999
0046028360999991924081006004+67367+026650FM-12+018199999V0202301N005119999999N0000001N9+01331+99999099151ADDAJ100009199999999GF107991999999999999999999
0029028360999991924081013004+67367+026650FM-12+018199999V0202501N007219999999N0000001N9+01611+99999098871ADDGF108991999999999999999999
0029028360999991924081020004+67367+026650FM-12+018199999V0202501N005119999999N0000001N9+01281+99999098641ADDGF107991999999999999999999
0046028360999991924081106004+67367+026650FM-12+018199999V0202701N007219999999N0000001N9+01171+99999098841ADDAJ100009199999999GF108991999999999999999999
0029028360999991924081113004+67367+026650FM-12+018199999V0202701N005119999999N0000001N9+01941+99999098961ADDGF106991999999999999999999
0029028360999991924081120004+67367+026650FM-12+018199999V0209991C000019999999N0000001N9+01061+99999099061ADDGF106991999999999999999999
0046028360999991924081206004+67367+026650FM-12+018199999V0209991C000019999999N0000001N9+01171+99999099101ADDAJ100009199999999GF108991999999999999999999
0029028360999991924081213004+67367+026650FM-12+018199999V0202501N004119999999N0000001N9+01891+99999099161ADDGF107991999999999999999999
0029028360999991924081220004+67367+026650FM-12+018199999V0209991C000019999999N0000001N9+01221+99999099181ADDGF107991999999999999999999
0046028360999991924081306004+67367+026650FM-12+018199999V0202001N001019999999N0000001N9+01281+99999099161ADDAJ100009199999999GF106991999999999999999999
0029028360999991924081313004+67367+026650FM-12+018199999V0202001N007219999999N0000001N9+02061+99999099031ADDGF106991999999999999999999
0029028360999991924081320004+67367+026650FM-12+018199999V0202001N003119999999N0000001N9+01501+99999099031ADDGF102991999999999999999999
0046028360999991924081406004+67367+026650FM-12+018199999V0202001N005119999999N0000001N9+01391+99999099001ADDAJ100009199999999GF108991999999999999999999
0035028360999991924081413004+67367+026650FM-12+018199999V0202301N003119999999N0000001N9+01561+99999098981ADDGF108991999999999999999999MW1621
0029028360999991924081420004+67367+026650FM-12+018199999V0209991C000019999999N0000001N9+01441+99999098871ADDGF108991999999999999999999
0046028360999991924081506004+67367+026650FM-12+018199999V0202301N001019999999N0000001N9+01281+99999099151ADDAJ100009199999999GF108991999999999999999999
0029028360999991924081513004+67367+026650FM-12+018199999V0201801N003119999999N0000001N9+01671+99999099161ADDGF108991999999999999999999
0029028360999991924081520004+67367+026650FM-12+018199999V0209991C000019999999N0000001N9+01501+99999098981ADDGF108991999999999999999999
0052028360999991924081606004+67367+026650FM-12+018199999V0209991C000019999999N0000001N9+01561+99999098981ADDAJ100009199999999GF108991999999999999999999MW1621
0029028360999991924081613004+67367+026650FM-12+018199999V0209991C000019999999N0000001N9+02001+99999099001ADDGF108991999999999999999999
0029028360999991924081620004+67367+026650FM-12+018199999V0209991C000019999999N0000001N9+01611+99999099041ADDGF101991999999999999999999
0046028360999991924081706004+67367+026650FM-12+018199999V0200901N001019999999N0000001N9+01391+99999099121ADDAJ100009199999999GF108991999999999999999999
0029028360999991924081713004+67367+026650FM-12+018199999V0202301N007219999999N0000001N9+02561+99999098981ADDGF103991999999999999999999
0029028360999991924081720004+67367+026650FM-12+018199999V0202301N005119999999N0000001N9+01561+99999099191ADDGF102991999999999999999999
0046028360999991924081806004+67367+026650FM-12+018199999V0202301N004119999999N0000001N9+01111+99999099201ADDAJ100009199999999GF108991999999999999999999
0029028360999991924081813004+67367+026650FM-12+018199999V0202501N003119999999N0000001N9+02111+99999099041ADDGF105991999999999999999999
0029028360999991924081820004+67367+026650FM-12+018199999V0209991C000019999999N0000001N9+01061+99999099031ADDGF101991999999999999999999
0046028360999991924081906004+67367+026650FM-12+018199999V0202301N001019999999N0000001N9+01061+99999099031ADDAJ100009199999999GF108991999999999999999999
0029028360999991924081913004+67367+026650FM-12+018199999V0200901N003119999999N0000001N9+01831+99999098981ADDGF106991999999999999999999
0029028360999991924081920004+67367+026650FM-12+018199999V0201101N001019999999N0000001N9+01441+99999098981ADDGF106991999999999999999999
0046028360999991924082006004+67367+026650FM-12+018199999V0201401N003119999999N0000001N9+01441+99999098871ADDAJ100009199999999GF108991999999999999999999
0029028360999991924082013004+67367+026650FM-12+018199999V0201801N003119999999N0000001N9+02111+99999098751ADDGF106991999999999999999999
0035028360999991924082020004+67367+026650FM-12+018199999V0209991C000019999999N0000001N9+01501+99999098681ADDGF104991999999999999999999MW1171
0046028360999991924082106004+67367+026650FM-12+018199999V0201101N001019999999N0000001N9+01391+99999098501ADDAJ100009199999999GF108991999999999999999999
0029028360999991924082113004+67367+026650FM-12+018199999V0201101N005119999999N0000001N9+02331+99999098151ADDGF100991999999999999999999
0029028360999991924082120004+67367+026650FM-12+018199999V0201101N001019999999N0000001N9+01721+99999098031ADDGF108991999999999999999999
0052028360999991924082206004+67367+026650FM-12+018199999V0202501N003119999999N0000001N9+01111+99999098351ADDAJ100009199999999GF108991999999999999999999MW1621
0029028360999991924082213004+67367+026650FM-12+018199999V0203601N003119999999N0000001N9+01501+99999098391ADDGF108991999999999999999999
0029028360999991924082220004+67367+026650FM-12+018199999V0203601N007219999999N0000001N9+01111+99999098391ADDGF108991999999999999999999
0046028360999991924082306004+67367+026650FM-12+018199999V0200701N005119999999N0000001N9+00671+99999098751ADDAJ100009199999999GF108991999999999999999999
0029028360999991924082313004+67367+026650FM-12+018199999V0200701N007219999999N0000001N9+01061+99999098951ADDGF108991999999999999999999
0029028360999991924082320004+67367+026650FM-12+018199999V0200201N003119999999N0000001N9+00561+99999099151ADDGF100991999999999999999999
0046028360999991924082406004+67367+026650FM-12+018199999V0200501N003119999999N0000001N9+00391+99999099461ADDAJ100009199999999GF101991999999999999999999
0029028360999991924082413004+67367+026650FM-12+018199999V0209991C000019999999N0000001N9+01221+99999099301ADDGF108991999999999999999999
0029028360999991924082420004+67367+026650FM-12+018199999V0209991C000019999999N0000001N9+00671+99999099081ADDGF108991999999999999999999
0046028360999991924082506004+67367+026650FM-12+018199999V0203601N005119999999N0000001N9+00781+99999098941ADDAJ100009199999999GF106991999999999999999999
0029028360999991924082513004+67367+026650FM-12+018199999V0200201N005119999999N0000001N9+01061+99999099061ADDGF107991999999999999999999
0029028360999991924082520004+67367+026650FM-12+018199999V0209991C000019999999N0000001N9+00501+99999099181ADDGF104991999999999999999999
0046028360999991924082606004+67367+026650FM-12+018199999V0209991C000019999999N0000001N9+00171+99999099401ADDAJ100009199999999GF100991999999999999999999
0029028360999991924082613004+67367+026650FM-12+018199999V0209991C000019999999N0000001N9+01061+99999099361ADDGF108991999999999999999999
0035028360999991924082620004+67367+026650FM-12+018199999V0209991C000019999999N0000001N9+00611+99999099381ADDGF108991999999999999999999MW1621
0046028360999991924082706004+67367+026650FM-12+018199999V0202501N003119999999N0000001N9+00831+99999099341ADDAJ100009199999999GF103991999999999999999999
0029028360999991924082713004+67367+026650FM-12+018199999V0202301N003119999999N0000001N9+01331+99999099231ADDGF107991999999999999999999
