0057011060999991928010112004+67500+012067FM-12+001199999V0202001N012319999999N0500001N9+00281+99999102171ADDAY181999GF108991999999999999001001MD1710261+9999MW1801
0062011060999991928010206004+67500+012067FM-12+001199999V0201801N00931220001CN0200001N9+00281+99999100901ADDAA199002091AY121999GF101991999999017501999999MD1810461+9999
0108011060999991928010212004+67500+012067FM-12+001199999V0201601N009319999999N0100001N9+00111+99999100062ADDAY171999GF108991999011012501001001MD1810542+9999MW1681EQDQ01+000042SCOTLCQ02+100063APOSLPQ03+000542APC3  
0087011060999991928010306004+67500+012067FM-12+001199999V0202001N022619999999N0100001N9+00501+99999098781ADDAA199001091AY161999GF108991999011004501001001MD1310061+9999MW1601EQDQ01+000042SCOTLC
0057011060999991928010312004+67500+012067FM-12+001199999V0202301N01541004501CN0040001N9+00001+99999098951ADDAY161999GF108991081061004501999999MD1210201+9999MW1601
0087011060999991928010406004+67500+012067FM-12+001199999V0202301N004619999999N0200001N9+00111+99999099311ADDAA199000591AY161999GF108991999011004501001001MD1810201+9999MW1211EQDQ01+000042SCOTLC
0092011060999991928010412004+67500+012067FM-12+001199999V0201401N009319999999N0040001N9+00221+99999098601ADDAY161999GF108991999011008001001001MD1810542+9999MW1161EQDQ01+000042SCOTLCQ02+000542APC3  
0068011060999991928010506004+67500+012067FM-12+001199999V0201601N00931004501CN0040001N9+00221+99999097591ADDAA199000591AY171999GF108991081061004501999999MD1610061+9999MW1681
0072011060999991928010512004+67500+012067FM-12+001199999V0200901N00931220001CN0500001N9+00111+99999097601ADDAY111999GF101991011011017501001001EQDQ01+000032APCTENQ02+000002APC3  
0051011060999991928010606004+67500+012067FM-12+001199999V0200901N00461220001CN0500001N9+00001+99999097981ADDAY101999GF101991011011017501001001MD1310141+9999
0051011060999991928010612004+67500+012067FM-12+001199999V0200901N00461220001CN0500001N9+00001+99999098131ADDAY101999GF102991021011017501001021MD1310141+9999
0087011060999991928010706004+67500+012067FM-12+001199999V0202701N015419999999N0100001N9+00221+99999098731ADDAA199000691AY171999GF108991999011004501001001MD1310201+9999MW1681EQDQ01+000042SCOTLC
0051011060999991928010712004+67500+012067FM-12+001199999V0202701N00931075001CN0100001N9+00001+99999099331ADDAY121999GF108991041011012501001081MD1310341+9999
0000011060999991928010806004+67500+012067FM-12+001199999V0202001N004619999999N9999999N9-00281+99999097311
0051011060999991928010812004+67500+012067FM-12+001199999V0201101N009319999999N0500001N9+00221+99999097671ADDAY121999GF108991999999017501999999MD1810201+9999
0068011060999991928010906004+67500+012067FM-12+001199999V0201601N01541220001CN0200001N9+00281+99999097581ADDAA199001091AY171999GF104991041011008001001001MD1610061+9999MW1231
0076011060999991928010912004+67500+012067FM-12+001199999V0201601N012319999999N0200001N9+00281+99999097771ADDAY171999GF106991999011008001001001MD1310061+9999MW1231EQDQ01+000022SCOTLC
0083011060999991928011006004+67500+012067FM-12+001199999V0201801N01231220001CN0200001N9+00281+99999098561ADDAA199002091AY161999GF104991041011012501001001EQDQ01+000032APCTENQ02+000002APC3  
0051011060999991928011012004+67500+012067FM-12+001199999V0201801N01231030001CN0500001N9+00221+99999098671ADDAY121999GF108991021011017501021001MD1310061+9999
0051011060999991928011106004+67500+012067FM-12+001199999V0200901N012319999999N0500001N9+00111+99999097731ADDAY111999GF108991999999017501999999MD1710201+9999
0051011060999991928011112004+67500+012067FM-12+001199999V0200901N01231030001CN0200001N9+00111+99999097581ADDAY121999GF106991021011012501021001MD1710141+9999
0068011060999991928011206004+67500+012067FM-12+001199999V0200901N00671030001CN0200001N9+00001+99999098341ADDAA199001091AY171999GF108991041061004501021001MD1310261+9999MW1161
0057011060999991928011212004+67500+012067FM-12+001199999V0201401N01231002401CN0020001N9+00001+99999098731ADDAY171999GF108991081061002501999999MD1310261+9999MW1711
0062011060999991928011306004+67500+012067FM-12+001199999V0201801N00261220001CN0500001N9+00111+99999098591ADDAA199001091AY181999GF104991041011012501001001MD1810141+9999
0076011060999991928011312004+67500+012067FM-12+001199999V0209991C00001012301CN0500001N9+00111+99999098511ADDAY121999GF107991999011012501001001MD1810061+9999MW1161EQDQ01+000062SCOTLC
0051011060999991928011406004+67500+012067FM-12+001199999V0201401N00261220001CN0500001N9+00001+99999099171ADDAY101999GF100991001001999999001001MD1310261+9999
0051011060999991928011412004+67500+012067FM-12+001199999V0201601N00261220001CN0500001N9+00001+99999099431ADDAY101999GF102991021011017501001001MD1310201+9999
0068011060999991928011506004+67500+012067FM-12+001199999V0200701N00261220001CN0500001N9+00001+99999099841ADDAA199001091AY171999GF104991041011012501001001MD1310141+9999MW1231
0056011060999991928011512004+67500+012067FM-12+001199999V0203201N00461220001CN0500001N9+00111+99999999999ADDAY111999GF104991041011012501999999EQDQ01+000001APOSP 
0051011060999991928011606004+67500+012067FM-12+001199999V0200501N00461220001CN0500001N9-00111+99999100841ADDAY101999GF100991001001999999001001MD1310341+9999
0057011060999991928011612004+67500+012067FM-12+001199999V0203201N00101220001CN0500001N9+00001+99999101191ADDAY101999GF102991021061012501001001MD1310141+9999MW1161
0087011060999991928011706004+67500+012067FM-12+001199999V0209991C000019999999N0500001N9+00001+99999102261ADDAA199000691AY181999GF108991999051012501001001MD1310261+9999MW1231EQDQ01+000042SCOTLC
0051011060999991928011712004+67500+012067FM-12+001199999V0202501N00461012301CN0500001N9+00001+99999102561ADDAY121999GF108991061051012501021001MD1310141+9999
0051011060999991928011806004+67500+012067FM-12+001199999V0202301N00261030001CN0500001N9+00111+99999102701ADDAY121999GF108991041011012501021001MD1510001+9999
0051011060999991928011812004+67500+012067FM-12+001199999V0202001N00671030001CN0500001N9+00111+99999102741ADDAY121999GF108991041051012501021001MD1010001+9999
0051011060999991928011912004+67500+012067FM-12+001199999V0201101N00671220001CN0500001N9+00001+99999101841ADDAY101999GF102991999999017501999999MD1810261+9999
0062011060999991928012012004+67500+012067FM-12+001199999V0202001N01541007801CN0040001N9+00281+99999100831ADDAY161999GF108991081061008001999999MW1621EQDQ01+000002APC3  
0068011060999991928012106004+67500+012067FM-12+001199999V0202001N00931007801CN0040001N9+00391+99999100641ADDAA199001091AY161999GF107991071061008001001001MD1310141+9999MW1621
0051011060999991928012112004+67500+012067FM-12+001199999V0202001N015419999999N0040001N9+00391+99999100701ADDAY161999GF107991999999017501999999MD1990141+9999
0070011060999991928012212004+67500+012067FM-12+001199999V0209991C00001075001CN0040001N9+00501+99999099751ADDAY121999GF108991041011012501001081MD1210061+9999EQDQ01+002002WODIR 
0068011060999991928012306004+67500+012067FM-12+001199999V0202301N01231000151CN0100001N9+00391+99999100731ADDAA199000391AY181999GF107991061061000251021001MD1310261+9999MW1801
0057011060999991928012312004+67500+012067FM-12+001199999V0202001N01231012301CN0100001N9+00391+99999100831ADDAY181999GF108991061011012501001081MD1710061+9999MW1161
0081011060999991928012406004+67500+012067FM-12+001199999V0201801N009319999999N0200001N9+00281+99999099461ADDAA199000691AY161999GF106991999999017501999999MD1810602+9999EQDQ01+000602APC3  
0051011060999991928012412004+67500+012067FM-12+001199999V0201801N01231030001CN0200001N9+00221+99999098901ADDAY121999GF108991041051017501021001MD1810201+9999
0062011060999991928012506004+67500+012067FM-12+001199999V0201801N01231030001CN0500001N9+00111+99999097951ADDAA199060091AY121999GF108991041051012501031001MD1810141+9999
0070011060999991928012512004+67500+012067FM-12+001199999V0201601N01541220001CN0100001N9+00221+99999097841ADDAY121999GF101991999011012501021001MD1810061+9999EQDQ01+000072SCOTLC
0062011060999991928012706004+67500+012067FM-12+001199999V0201801N00261220001CN0500001N9+00391+99999099761ADDAA199000691AY171999GF101991999999017501999999MD1310141+9999
0057011060999991928012712004+67500+012067FM-12+001199999V0201801N00671075001CN0200001N9+00391+99999100161ADDAY121999GF107991021061012501001021MD1310201+9999MW1161
0105011060999991928012806004+67500+012067FM-12+001199999V0201401N00461220001CN0500001N9+00281+99999100461ADDAA199000691AY161999GF104991999001999999021001MW1211EQDQ01+000002SCOTLCQ02+000032APCTENQ03+000002APC3  
0051011060999991928012812004+67500+012067FM-12+001199999V0200901N00671220001CN0500001N9+00611+99999100471ADDAY111999GF101991011011017501001001MD1610061+9999
0072011060999991928012906004+67500+012067FM-12+001199999V0201401N00101220001CN0500001N9+00111+99999100301ADDAY111999GF102991021011017501001001EQDQ01+000042APCTENQ02+000142APC3  
0051011060999991928012912004+67500+012067FM-12+001199999V0200901N00261220001CN0500001N9+00111+99999100371ADDAY101999GF101991011011017501001001MD1710061+9999
0051011060999991928013006004+67500+012067FM-12+001199999V0200901N00931220001CN0500001N9+00001+99999100741ADDAY101999GF100991001001999999001001MD1990141+9999
0037011060999991928013012004+67500+012067FM-12+001199999V0202301N00671220001CN0500001N9+00001+99999100671ADDAY101999GF104991021051022501999999
0051011060999991928013106004+67500+012067FM-12+001199999V0201601N012319999999N0500001N9+00221+99999100271ADDAY121999GF108991001999022501999999MD1810201+9999
0051011060999991928013112004+67500+012067FM-12+001199999V0201601N015419999999N0500001N9+00221+99999100381ADDAY121999GF108991999999017501999999MD1810061+9999
0062011060999991928020106004+67500+012067FM-12+001199999V0201401N012319999999N0500001N9+00281+99999099331ADDAA199000691AY171999GF107991999999017501999999MD1810401+9999
0051011060999991928020112004+67500+012067FM-12+001199999V0201401N01541030001CN0500001N9+00281+99999098831ADDAY121999GF108991011011017501021001MD1810341+9999
0068011060999991928020206004+67500+012067FM-12+001199999V0202001N01231030001CN0200001N9+00281+99999097771ADDAA199000691AY181999GF108991021011012501021001MD1510061+9999MW1231
0051011060999991928020212004+67500+012067FM-12+001199999V0201601N01231075001CN0500001N9+00391+99999098121ADDAY111999GF106991021011012501001081MD1310061+9999
0068011060999991928020306004+67500+012067FM-12+001199999V0202001N01231075001CN0100001N9+00391+99999099131ADDAA199003091AY161999GF106991041061008001001081MD1310461+9999MW1161
0068011060999991928020406004+67500+012067FM-12+001199999V0201801N01231012301CN0100001N9+00221+99999100231ADDAA199002091AY161999GF108991061061012501021001MD1610141+9999MW1631
0094011060999991928020412004+67500+012067FM-12+001199999V0201801N00671220001CN0100001N9+00221+99999100261ADDAY181999GF104991999011012501001001MW1901EQDQ01+000022SCOTLCQ02+000032APCTENQ03+000002APC3  
0070011060999991928020506004+67500+012067FM-12+001199999V0201601N01541030001CN0200001N9+00221+99999099321ADDAY121999GF108991021011012501021001MD1810542+9999EQDQ01+000542APC3  
0057011060999991928020512004+67500+012067FM-12+001199999V0201801N01541007801CN0040001N9+00221+99999098841ADDAY171999GF108991081061008001999999MD1810401+9999MW1681
0068011060999991928020606004+67500+012067FM-12+001199999V0201801N00671220001CN0200001N9+00281+99999098631ADDAA199000691AY181999GF104991041011012501001001MD1810061+9999MW1831
0078011060999991928020612004+67500+012067FM-12+001199999V0202301N00671075001CN0100001N9+00281+99999098671ADDAY181999GF106991041061008001001021MW1801EQDQ01+000042APCTENQ02+000062APC3  
0068011060999991928020706004+67500+012067FM-12+001199999V0201801N00931030001CN0200001N9+00281+99999098331ADDAA199000691AY161999GF108991041061012501021001MD1810261+9999MW1601
0092011060999991928020712004+67500+012067FM-12+001199999V0201801N01541007801CN0040001N9+00281+99999097462ADDAY161999GF108991081061008001999999MD1810542+9999MW1621EQDQ01+097463APOSLPQ02+000542APC3  
0105011060999991928020806004+67500+012067FM-12+001199999V0202901N004619999999N0040001N9+00281+99999097981ADDAA199004091AY161999GF108991999011008001001001MW1621EQDQ01+000042SCOTLCQ02+000042APCTENQ03+000062APC3  
0076011060999991928020812004+67500+012067FM-12+001199999V0203201N01541030001CN0100001N9+00281+99999098531ADDAY161999GF107991041011012501021001MD1310542+9999MW1161EQDQ01+000542APC3  
0086011060999991928020906004+67500+012067FM-12+001199999V0200901N00931220001CN0500001N9+00111+99999097581ADDAY101999GF104991999001999999031001MD1810802+9999EQDQ01+000002SCOTLCQ02+000802APC3  
0051011060999991928020912004+67500+012067FM-12+001199999V0200501N01231075001CN0500001N9+00001+99999097031ADDAY121999GF106991021011017501001081MD1610261+9999
0087011060999991928021006004+67500+012067FM-12+001199999V0202701N009319999999N0200001N9+00111+99999097791ADDAA199000691AY181999GF106991999011017501001001MD1310201+9999MW1161EQDQ01+000042SCOTLC
0057011060999991928021012004+67500+012067FM-12+001199999V0202501N00931000601CN0010001N9+00001+99999098041ADDAY181999GF108991081061000751999999MD1310141+9999MW1851
0048011060999991928021106004+67500+012067FM-12+001199999V0202501N006719999999N0500001N9-00221+99999098131ADDAA199000391AY111999GF106991999999012501999999
0072011060999991928021112004+67500+012067FM-12+001199999V0202001N00461220001CN0500001N9-00111+99999098071ADDAY101999GF102991021011017501001001EQDQ01+000062APCTENQ02+000002APC3  
0057011060999991928021212004+67500+012067FM-12+001199999V0202501N00461012301CN0040001N9+00001+99999098711ADDAY171999GF108991061061012501001081MD1210061+9999MW1741
0062011060999991928021306004+67500+012067FM-12+001199999V0200901N00461220001CN0500001N9+00001+99999099131ADDAA199000391AY181999GF104991021011012501021001MD1310201+9999
0051011060999991928021312004+67500+012067FM-12+001199999V0200901N00461220001CN0500001N9+00001+99999099321ADDAY111999GF102991011011017501001021MD1310061+9999
0051011060999991928021406004+67500+012067FM-12+001199999V0201101N00671220001CN0500001N9-00111+99999099891ADDAY101999GF104991999999017501999999MD1310201+9999
0051011060999991928021412004+67500+012067FM-12+001199999V0200701N00931220001CN0500001N9+00001+99999100161ADDAY101999GF102991001001999999001021MD1310201+9999
0072011060999991928021506004+67500+012067FM-12+001199999V0200701N01231220001CN0500001N9-00221+99999100771ADDAY101999GF102991021011017501001001EQDQ01+000022APCTENQ02+000002APC3  
0051011060999991928021512004+67500+012067FM-12+001199999V0200901N01541220001CN0500001N9-00221+99999100611ADDAY111999GF101991011011017501001001MD1810141+9999
0070011060999991928021606004+67500+012067FM-12+001199999V0200901N01541220001CN0500001N9-00111+99999099501ADDAY121999GF108991999001999999021001MD1810201+9999EQDQ01+000002SCOTLC
0051011060999991928021612004+67500+012067FM-12+001199999V0200901N015419999999N0200001N9+00001+99999099321ADDAY121999GF108991999999017501999999MD1810141+9999
0105011060999991928021706004+67500+012067FM-12+001199999V0201601N01231220001CN0020001N9+00001+99999098921ADDAA199000391AY171999GF108991999001999999021001MW1731EQDQ01+000002SCOTLCQ02+000032APCTENQ03+000002APC3  
0057011060999991928021712004+67500+012067FM-12+001199999V0201601N01541007801CN0040001N9+00001+99999099151ADDAY171999GF108991081061008001999999MD1310141+9999MW1711
0068011060999991928021806004+67500+012067FM-12+001199999V0201801N01541004501CN0010001N9-00111+99999100191ADDAA199000591AY171999GF108991081061004501999999MD1310141+9999MW1711
0057011060999991928021812004+67500+012067FM-12+001199999V0201801N01541030001CN0040001N9+00001+99999100311ADDAY171999GF108991041061004501021001MD1310141+9999MW1711
0087011060999991928021906004+67500+012067FM-12+001199999V0202001N006719999999N0100001N9+00001+99999101131ADDAA199001091AY171999GF106991999011008001001001MD1310341+9999MW1161EQDQ01+000042SCOTLC
0070011060999991928021912004+67500+012067FM-12+001199999V0202501N006719999999N0500001N9+00281+99999101701ADDAY111999GF106991999011012501001001MD1310401+9999EQDQ01+000022SCOTLC
0051011060999991928022006004+67500+012067FM-12+001199999V0209991C00001030001CN0500001N9+00111+99999103261ADDAY111999GF108991041051017501021001MD1310201+9999
0051011060999991928022012004+67500+012067FM-12+001199999V0201601N00461075001CN0500001N9+00221+99999103281ADDAY111999GF106991041051017501001081MD1610061+9999
0068011060999991928022106004+67500+012067FM-12+001199999V0201801N00931004501CN0040001N9+00221+99999102951ADDAA199000691AY161999GF108991081061004501999999MD1810141+9999MW1601
0070011060999991928022112004+67500+012067FM-12+001199999V0201801N00931220001CN0500001N9+00281+99999102871ADDAY161999GF108991999001999999021001MD1610061+9999EQDQ01+000002SCOTLC
0068011060999991928022206004+67500+012067FM-12+001199999V0202001N01231030001CN0020001N9+00281+99999102071ADDAA199000691AY141999GF108991041051004501021001MD1610141+9999MW1511
0076011060999991928022212004+67500+012067FM-12+001199999V0202301N004619999999N0100001N9+00501+99999102331ADDAY161999GF108991999061004501001001MD1310261+9999MW1211EQDQ01+000042SCOTLC
0070011060999991928022306004+67500+012067FM-12+001199999V0202001N015419999999N0100001N9+00501+99999102471ADDAY121999GF108991999051008001001001MD1610141+9999EQDQ01+000042SCOTLC
0076011060999991928022312004+67500+012067FM-12+001199999V0202301N00931007801CN0040001N9+00611+99999102521ADDAY161999GF108991999061008001001001MD1310141+9999MW1601EQDQ01+000062SCOTLC
0070011060999991928022406004+67500+012067FM-12+001199999V0202301N012319999999N0100001N9+00501+99999102441ADDAY121999GF108991999051001501001001MD1810201+9999EQDQ01+000022SCOTLC
0057011060999991928022412004+67500+012067FM-12+001199999V0202301N01901030001CN0040001N9+00611+99999102381ADDAY121999GF108991021061012501021001MD1710061+9999MW1161
0068011060999991928022506004+67500+012067FM-12+001199999V0202001N01541030001CN0040001N9+00501+99999101621ADDAA199002091AY161999GF108991021061012501021001MD1810401+9999MW1641
0057011060999991928022512004+67500+012067FM-12+001199999V0202301N01541012301CN0040001N9+00501+99999101111ADDAY161999GF108991081061012501999999MD1810341+9999MW1631
0076011060999991928022612004+67500+012067FM-12+001199999V0202701N01231220001CN0200001N9+00281+99999102341ADDAY181999GF102991999011012501001001MD1310141+9999MW1231EQDQ01+000042SCOTLC
0099011060999991928022706004+67500+012067FM-12+001199999V0202301N00931220001CN0100001N9+00391+99999102671ADDAA199000691AY161999GF108991999001999999021001EQDQ01+000002SCOTLCQ02+000042APCTENQ03+000062APC3  
0072011060999991928022712004+67500+012067FM-12+001199999V0202301N00461012301CN0500001N9+00501+99999102731ADDAY161999GF108991081051012501999999EQDQ01+000022APCTENQ02+000002APC3  
0068011060999991928022806004+67500+012067FM-12+001199999V0202001N00931075001CN0040001N9+00501+99999102691ADDAA199000691AY161999GF108991041051004501001021MD1310061+9999MW1211
0070011060999991928022812004+67500+012067FM-12+001199999V0202001N006719999999N0020001N9+00501+99999102901ADDAY121999GF108991999051017501001001MD1310141+9999EQDQ01+000022SCOTLC
0048011060999991928022906004+67500+012067FM-12+001199999V0201801N00671220001CN0040001N9+00391+99999103221ADDAA199003091AY141999GF104991999001999999999091
0051011060999991928022912004+67500+012067FM-12+001199999V0201801N00261015001CN0100001N9+00501+99999103361ADDAY121999GF108991081051017501999999MD1210061+9999
0076012620999991928010206004+64800+010550FM-12+003799999V0201401N00671030001CN0200001N9+00001+99999100701ADDAY121999GF108991011061008001021001MD1810602+9999MW1161EQDQ01+000602APC3  
0087012620999991928010306004+64800+010550FM-12+003799999V0202701N009319999999N0200001N9+00501+99999100191ADDAA199000691AY181999GF107991999061004501001001MD1310201+9999MW1161EQDQ01+000022SCOTLC
0087012620999991928010406004+64800+010550FM-12+003799999V0201601N00461030001CN0200001N9+00221+99999099531ADDAA199000591AY161999GF108991021061008001021001MD1810542+9999MW1161EQDQ01+000542APC3  
0087012620999991928010706004+64800+010550FM-12+003799999V0203601N00931001501CN0100001N9+00111+99999099581ADDAA199002091AY171999GF107991999061001501001001MD1310261+9999MW1161EQDQ01+000062SCOTLC
0081012620999991928010806004+64800+010550FM-12+003799999V0201401N00931015001CN0200001N9+00001+99999097841ADDAA199003091AY121999GF108991061051017501021001MD1810602+9999EQDQ01+000602APC3  
0068012620999991928010906004+64800+010550FM-12+003799999V0201601N00931004501CN0020001N9+00111+99999097471ADDAA199000691AY121999GF108991081061004501999999MD1810201+9999MW1681
0057012620999991928011006004+64800+010550FM-12+003799999V0201601N00461030001CN0200001N9+00221+99999098741ADDAY121999GF108991011061004501021001MD1410001+9999MW1161
0068012620999991928011106004+64800+010550FM-12+003799999V0201101N00931001501CN0002001N9+00001+99999999999ADDAA199004091AY171999GF108991081061001501999999MD1510141+9999MW1751
0048012620999991928011206004+64800+010550FM-12+003799999V0202501N009319999999N0200001N9+00281+99999098401ADDAA199002091AY171999GF106991999999012501999999
0062012620999991928011306004+64800+010550FM-12+003799999V0201101N00461220001CN0500001N9+00111+99999098191ADDAA199000591AY101999GF102991999999022501999999MD1810341+9999
0051012620999991928011406004+64800+010550FM-12+003799999V0201401N00101012301CN0500001N9-00111+99999099271ADDAY121999GF108991081051012501999999MD1310201+9999
0070012620999991928011506004+64800+010550FM-12+003799999V0201101N00461220001CN0500001N9-00221+99999099891ADDAY101999GF101991999001999999021001MD1610061+9999EQDQ01+000002SCOTLC
0068012620999991928011606004+64800+010550FM-12+003799999V0200901N00261004501CN0010001N9-00391+99999100521ADDAA199000391AY101999GF108991081061004501999999MD1310201+9999MW1721
0051012620999991928011706004+64800+010550FM-12+003799999V0201101N00261030001CN0500001N9-00501+99999102351ADDAY111999GF107991021061012501021001MD1310201+9999
0072012620999991928011806004+64800+010550FM-12+003799999V0201401N00261220001CN0500001N9-00391+99999102791ADDAY101999GF100991001001999999001001EQDQ01+000032APCTENQ02+000002APC3  
0051012620999991928012006004+64800+010550FM-12+003799999V0201601N00461030001CN0200001N9+00001+99999101591ADDAY121999GF108991011061008001021001MD1610141+9999
0062012620999991928012106004+64800+010550FM-12+003799999V0201801N00261030001CN0200001N9+00391+99999101261ADDAA199000691AY181999GF107991021051004501021001MD1310061+9999
0051012620999991928012206004+64800+010550FM-12+003799999V0201801N00671030001CN0200001N9+00391+99999100171ADDAY121999GF108991021051022501021001MD1310261+9999
0078012620999991928012406004+64800+010550FM-12+003799999V0201601N00931030001CN0200001N9+00111+99999099261ADDAY121999GF107991021061004501021001MW1161EQDQ01+000082APCTENQ02+000002APC3  
0068012620999991928012506004+64800+010550FM-12+003799999V0202301N00671002401CN0005001N9+00111+99999098231ADDAA199000591AY121999GF108991081061002501999999MD1990341+9999MW1771
0068012620999991928012706004+64800+010550FM-12+003799999V0201801N00461030001CN0200001N9+00391+99999100311ADDAA199000591AY161999GF108991011061008001021001MD1310141+9999MW1161
0057012620999991928012806004+64800+010550FM-12+003799999V0202501N00671220001CN0000001N9+00281+99999100591ADDAY171999GF104991041051022501031001MD1510001+9999MW1611
0062012620999991928012906004+64800+010550FM-12+003799999V0201401N00461220001CN0500001N9+00111+99999100071ADDAA199001091AY101999GF104991001001999999021021MD1810141+9999
0051012620999991928013006004+64800+010550FM-12+003799999V0201101N00931220001CN0500001N9-00111+99999100351ADDAY101999GF102991001001999999021021MD1810261+9999
0051012620999991928013106004+64800+010550FM-12+003799999V0201801N01231030001CN0500001N9+00221+99999100101ADDAY111999GF108991041011012501021001MD1110141+9999
0051012620999991928020106004+64800+010550FM-12+003799999V0201601N01541030001CN0200001N9+00221+99999098641ADDAY121999GF108991011061008001021001MD1810461+9999
0087012620999991928020306004+64800+010550FM-12+003799999V0202301N006719999999N0200001N9+00281+99999099761ADDAA199000591AY111999GF106991999061004501001001MD1310401+9999MW1161EQDQ01+000042SCOTLC
0087012620999991928020406004+64800+010550FM-12+003799999V0202301N00931004501CN0200001N9+00281+99999100691ADDAA199003091AY171999GF108991999061004501001001MD1310201+9999MW1161EQDQ01+000062SCOTLC
0068012620999991928020506004+64800+010550FM-12+003799999V0201601N00461004501CN0100001N9+00221+99999099141ADDAA199002091AY161999GF108991081061004501999999MD1810401+9999MW1681
0057012620999991928020606004+64800+010550FM-12+003799999V0202501N01231030001CN0100001N9+00281+99999098971ADDAY121999GF108991041061004501021001MD1810061+9999MW1161
0087012620999991928020706004+64800+010550FM-12+003799999V0201601N00931030001CN0200001N9+00281+99999098431ADDAA199001091AY181999GF108991041061004501021001MD1810862+9999MW1161EQDQ01+000862APC3  
0087012620999991928020806004+64800+010550FM-12+003799999V0202901N012319999999N0100001N9+00391+99999098961ADDAA199000691AY181999GF108991999061002501001001MD1310141+9999MW1771EQDQ01+000042SCOTLC
0087012620999991928020906004+64800+010550FM-12+003799999V0201401N00671002401CN0010001N9+00111+99999097011ADDAA199002091AY171999GF108991081061002501999999MD1810742+9999MW1681EQDQ01+000742APC3  
0068012620999991928021006004+64800+010550FM-12+003799999V0203201N00101030001CN0200001N9+00001+99999098271ADDAA199000391AY181999GF107991021061002501021001MD1310461+9999MW1161
0087012620999991928021106004+64800+010550FM-12+003799999V0202701N004619999999N0200001N9+00001+99999098271ADDAA199001091AY181999GF108991999061002501001001MD1610201+9999MW1161EQDQ01+000042SCOTLC
0105012620999991928021306004+64800+010550FM-12+003799999V0201801N00261220001CN0500001N9+00001+99999099471ADDAA199001091AY111999GF102991999061002501001001MW1161EQDQ01+000012SCOTLCQ02+000032APCTENQ03+000002APC3  
0070012620999991928021406004+64800+010550FM-12+003799999V0201401N00461220001CN0500001N9-00391+99999099621ADDAY101999GF101991999001999999021001MD1990061+9999EQDQ01+000002SCOTLC
0051012620999991928021506004+64800+010550FM-12+003799999V0201401N00671220001CN0500001N9-00391+99999100351ADDAY111999GF107991001001999999021021MD1010001+9999
0068012620999991928021606004+64800+010550FM-12+003799999V0201401N01541002401CN0010001N9-00111+99999098301ADDAA199000391AY171999GF108991081061002501999999MD1710141+9999MW1711
0068012620999991928021706004+64800+010550FM-12+003799999V0201401N01541030001CN0100001N9-00281+99999098741ADDAA199004091AY171999GF108991041061002501021001MD1310141+9999MW1161
0068012620999991928021806004+64800+010550FM-12+003799999V0201401N00931004501CN0040001N9-00501+99999100431ADDAA199000591AY171999GF108991081061004501999999MD1310201+9999MW1711
0070012620999991928021906004+64800+010550FM-12+003799999V0201401N00671220001CN0500001N9-00391+99999101141ADDAY101999GF101991999001999999021001MD1310401+9999EQDQ01+000002SCOTLC
0068012620999991928022006004+64800+010550FM-12+003799999V0201401N00461030001CN0200001N9+00111+99999103321ADDAA199073091AY181999GF107991041061004501021001MD1310141+9999MW1161
0057012620999991928022106004+64800+010550FM-12+003799999V0201601N00671030001CN0200001N9+00111+99999103151ADDAY121999GF108991021061008001021001MD1810141+9999MW1161
0068012620999991928022206004+64800+010550FM-12+003799999V0201601N00671004501CN0040001N9+00111+99999102661ADDAA199000691AY121999GF108991081061004501999999MD1110061+9999MW1511
0068012620999991928022306004+64800+010550FM-12+003799999V0202501N00671075001CN0100001N9+00391+99999103301ADDAA199000391AY181999GF106991041061004501001021MD1410001+9999MW1161
0051012620999991928022406004+64800+010550FM-12+003799999V0202001N00461075001CN0200001N9+00281+99999103271ADDAY111999GF106991011051004501001021MD1810141+9999
0076012620999991928022506004+64800+010550FM-12+003799999V0202301N006719999999N0100001N9+00281+99999102611ADDAY121999GF108991999061004501001001MD1810201+9999MW1161EQDQ01+000022SCOTLC
0068012620999991928022706004+64800+010550FM-12+003799999V0201801N00461030001CN0100001N9+00281+99999103171ADDAA199000691AY161999GF108991041061004501021001MD1610061+9999MW1501
0072012620999991928022806004+64800+010550FM-12+003799999V0202301N00461030001CN0100001N9+00391+99999103171ADDAY121999GF108991021051004501021001EQDQ01+000032APCTENQ02+000002APC3  
0057014030999991928010212004+59300+004883FM-12+005799999V0201801N01901007801CN0020001N9+99999+99999999999ADDAY171999GF108991081061008001999999MD1810201+9999MW1681
0057014030999991928010312004+59300+004883FM-12+005799999V0209999900261012301CN0500001N9+00221+99999101231ADDAY161999GF107991071061012501001001MD1310141+9999MW1211
0087014030999991928010406004+59300+004883FM-12+005799999V0202001N012319999999N9999999N9+00281+99999099971ADDAA199002091AY161999GF108991999999999999001001MD1810742+9999MW1631EQDQ01+000742APC3  
0070014030999991928010412004+59300+004883FM-12+005799999V0202501N00671007801CN0100001N9+00391+99999099271ADDAY161999GF108991081061008001999999MD1810542+9999EQDQ01+000542APC3  
0083014030999991928010506004+59300+004883FM-12+005799999V0202901N00671220001CN0200001N9+00281+99999098781ADDAA199002091AY161999GF104991041091017501001001EQDQ01+000042APCTENQ02+000142APC3  
0078014030999991928010512004+59300+004883FM-12+005799999V0202901N00931220001CN0100001N9+00281+99999099031ADDAY181999GF104991041091012501001001MW1161EQDQ01+000042APCTENQ02+000142APC3  
0062014030999991928010606004+59300+004883FM-12+005799999V0201801N00101015001CN0500001N9+00221+99999099181ADDAA199001091AY181999GF107991071051017501001001MD1810461+9999
0062014030999991928010706004+59300+004883FM-12+005799999V0201801N001019999999N0500001N9+00001+99999100601ADDAA199001091AY101999GF107991999999999999999999MD1310061+9999
0068014030999991928010806004+59300+004883FM-12+005799999V0202701N00671007801CN9999999N9+00281+99999098271ADDAA199007091AY161999GF108991081061008001999999MD1510341+9999MW1631
0062014030999991928010906004+59300+004883FM-12+005799999V0202701N00931220001CN0200001N9+00391+99999099391ADDAA199003091AY161999GF104991041011017501001001MD1310401+9999
0070014030999991928010912004+59300+004883FM-12+005799999V0202301N00461220001CN0200001N9+00391+99999099581ADDAY101999GF102991021011999999001021MD1990061+9999EQDQ01+000992SCOLCB
0062014030999991928011006004+59300+004883FM-12+005799999V0202301N00671007801CN0100001N9+00391+99999099411ADDAA199002091AY101999GF106991061091008001001001MD1810061+9999
0070014030999991928011012004+59300+004883FM-12+005799999V0201801N00931007801CN0100001N9+00391+99999098921ADDAY181999GF108991081061008001999999MD1810542+9999EQDQ01+000542APC3  
0068014030999991928011106004+59300+004883FM-12+005799999V0202501N01231007801CN0100001N9+00391+99999098731ADDAA199001091AY181999GF108991081061008001999999MD1310261+9999MW1621
0078014030999991928011112004+59300+004883FM-12+005799999V0202501N01541220001CN0500001N9+00391+99999099001ADDAY181999GF104991021011012501001021MW1211EQDQ01+000042APCTENQ02+000062APC3  
0081014030999991928011206004+59300+004883FM-12+005799999V0202501N00931220001CN0200001N9+00391+99999100071ADDAA199001091AY181999GF104991041091999999001001MD1310141+9999EQDQ01+000992SCOLCB
0057014030999991928011212004+59300+004883FM-12+005799999V0201801N00671007801CN0100001N9+00391+99999099721ADDAY101999GF108991081061008001999999MD1810461+9999MW1611
0051014030999991928011312004+59300+004883FM-12+005799999V0202001N00461007801CN0200001N9+00501+99999097811ADDAY121999GF108991081061008001999999MD1810061+9999
0062014030999991928011406004+59300+004883FM-12+005799999V0203601N01231220001CN0200001N9+00281+99999099171ADDAA199000591AY111999GF101991011011012501001001MD1310461+9999
0062014030999991928011506004+59300+004883FM-12+005799999V0201401N01231007801CN0040001N9+00221+99999098831ADDAA199002091AY171999GF108991081061008001999999MD1610201+9999
0037014030999991928011512004+59300+004883FM-12+005799999V0202501N006719999999N0500001N9+00281+99999098951ADDAY181999GF106991999999012501999999
0062014030999991928011606004+59300+004883FM-12+005799999V0201101N00461220001CN0500001N9+00221+99999099721ADDAA199005091AY111999GF102991999999999999999999MD1310201+9999
0057014030999991928011612004+59300+004883FM-12+005799999V0201101N00101007801CN0500001N9+00221+99999100131ADDAY111999GF108991081061008001999999MD1310261+9999MW1611
0051014030999991928011712004+59300+004883FM-12+005799999V0200901N004619999999N0500001N9+00001+99999101671ADDAY121999GF199999041051017501021001MD1310141+9999
0051014030999991928011812004+59300+004883FM-12+005799999V0201101N00671220001CN0500001N9-00221+99999102841ADDAY111999GF199999001001999999001021MD1010001+9999
0072014030999991928011912004+59300+004883FM-12+005799999V0209999900931220001CN0500001N9-00111+99999999999ADDAY111999GF104991041011999999001021EQDQ01+000992SCOLCBQ02+000002APC3  
0051014030999991928012006004+59300+004883FM-12+005799999V0201601N012319999999N0500001N9+00001+99999102171ADDAY121999GF108991999999999999999999MD1990201+9999
0051014030999991928012012004+59300+004883FM-12+005799999V0201601N01541007801CN0040001N9+01501+99999101861ADDAY181999GF108991081061008001999999MD1810141+9999
0062014030999991928012106004+59300+004883FM-12+005799999V0201401N01231015001CN0200001N9+00281+99999101621ADDAA199002091AY161999GF108991081051017501999999MD1710141+9999
0051014030999991928012112004+59300+004883FM-12+005799999V0201601N01901015001CN0200001N9+00281+99999101141ADDAY121999GF199999081051017501999999MD1810401+9999
0051014030999991928012312004+59300+004883FM-12+005799999V0201601N01541007801CN0100001N9+00001+99999101471ADDAY171999GF108991081061008001999999MD1810141+9999
0051014030999991928012412004+59300+004883FM-12+005799999V0201401N01231007801CN0200001N9+00281+99999099261ADDAY141999GF108991081061008001999999MD1810341+9999
0068014030999991928012506004+59300+004883FM-12+005799999V0202701N01231220001CN0200001N9+00281+99999099581ADDAA199007091AY181999GF104991041091012501001001MD1310461+9999MW1801
0057014030999991928012512004+59300+004883FM-12+005799999V0202901N01231007801CN0100001N9+00221+99999100261ADDAY181999GF108991081061008001999999MD1310401+9999MW1801
0089014030999991928012706004+59300+004883FM-12+005799999V0201401N009319999999N0100001N9+00281+99999100101ADDAA199002091AY161999GF108991999999999999001001MW1611EQDQ01+000032APCTENQ02+000002APC3  
0057014030999991928012712004+59300+004883FM-12+005799999V0200901N00671007801CN0200001N9+00781+99999100171ADDAY161999GF108991081061008001999999MD1990061+9999MW1211
0083014030999991928012806004+59300+004883FM-12+005799999V0201601N001019999999N0100001N9+00221+99999100921ADDAA199000691AY111999GF107991999999999999999999EQDQ01+000032APCTENQ02+000002APC3  
0051014030999991928012812004+59300+004883FM-12+005799999V0201801N00461220001CN0200001N9+00281+99999100671ADDAY181999GF104991021011012501001021MD1990261+9999
0062014030999991928012906004+59300+004883FM-12+005799999V0202301N00101220001CN0100001N9+00281+99999100081ADDAA199009091AY181999GF104991999999999999999999MD1310261+9999
0057014030999991928012912004+59300+004883FM-12+005799999V0201601N00461000151CN0010001N9+00391+99999100391ADDAY141999GF108991081051000251999999MD1110141+9999MW1101
0062014030999991928013006004+59300+004883FM-12+005799999V0201101N012319999999N0200001N9+00221+99999100031ADDAA199002091AY161999GF108991999999999999999999MD1810201+9999
0070014030999991928013012004+59300+004883FM-12+005799999V0201601N012319999999N0500001N9+00281+99999099931ADDAY111999GF108991999011012501001001MD1990061+9999EQDQ01+000022SCOTLC
0048014030999991928013106004+59300+004883FM-12+005799999V0201801N002619999999N0100001N9+00281+99999100301ADDAA199002091AY111999GF106991999999012501999999
0070014030999991928013112004+59300+004883FM-12+005799999V0201801N006719999999N0200001N9+00281+99999100241ADDAY111999GF106991999011012501001001MD1990141+9999EQDQ01+000022SCOTLC
0051014030999991928020112004+59300+004883FM-12+005799999V0202001N00931015001CN0200001N9+00501+99999097931ADDAY121999GF107991071051017501001001MD1710261+9999
0057014030999991928020212004+59300+004883FM-12+005799999V0202301N00931220001CN0200001N9+00221+99999099201ADDAY181999GF104991999999999999001001MD1310141+9999MW1891
0081014030999991928020406004+59300+004883FM-12+005799999V0202001N00261220001CN0500001N9+00221+99999101511ADDAA199000591AY181999GF102991021011999999001001MD1310261+9999EQDQ01+000992SCOLCB
0051014030999991928020412004+59300+004883FM-12+005799999V0201801N00931012301CN0100001N9+00281+99999101431ADDAY101999GF106991061011012501001001MD1810201+9999
0037014030999991928020612004+59300+004883FM-12+005799999V0202701N012319999999N0200001N9+00391+99999100661ADDAY181999GF106991999999012501999999
0043014030999991928020712004+59300+004883FM-12+005799999V0202701N01541220001CN0200001N9+00501+99999100061ADDAY181999GF102991011011012501001081MW1211
0043014030999991928020812004+59300+004883FM-12+005799999V0202501N01231007801CN0100001N9+00611+99999100301ADDAY121999GF108991081061008001999999MW1611
0037014030999991928020912004+59300+004883FM-12+005799999V0202701N019019999999N0040001N9+00391+99999098801ADDAY181999GF106991999999012501999999
0037014030999991928021012004+59300+004883FM-12+005799999V0201801N00261030001CN0200001N9+00281+99999099551ADDAY111999GF107991021051017501021001
0073014030999991928021106004+59300+004883FM-12+005799999V0200501N00671007801CN0500001N9+00281+99999097401ADDAA199001091AY111999GF108991999061008001001001MW1601EQDQ01+000072SCOTLC
0037014030999991928021112004+59300+004883FM-12+005799999V0200201N00931015001CN0500001N9+00281+99999097661ADDAY121999GF108991081051017501999999
0037014030999991928021212004+59300+004883FM-12+005799999V0201401N00101021001CN0500001N9+00111+99999099181ADDAY101999GF107991071051022501001001
0037014030999991928021312004+59300+004883FM-12+005799999V0201601N00671015001CN0500001N9+00111+99999099711ADDAY101999GF106991061051017501001001
0043014030999991928021412004+59300+004883FM-12+005799999V0201401N00671007801CN0010001N9+00001+99999099271ADDAY171999GF108991081061008001999999MW1711
0043014030999991928021512004+59300+004883FM-12+005799999V0201601N01901007801CN0010001N9+00001+99999099671ADDAY171999GF108991081061008001999999MW1681
0037014030999991928021612004+59300+004883FM-12+005799999V0202501N00671075001CN0100001N9+00391+99999099411ADDAY181999GF106991041011012501001021
0089014030999991928021706004+59300+004883FM-12+005799999V0202701N00461007801CN0100001N9+00281+99999098771ADDAA199002091AY181999GF107991071061008001001001MW1801EQDQ01+000032APCTENQ02+000002APC3  
0057014030999991928021712004+59300+004883FM-12+005799999V0202301N00461012301CN0200001N9+00391+99999099061ADDAY111999GF107991071061012501001001MD1310061+9999MW1211
0062014030999991928021806004+59300+004883FM-12+005799999V0202701N00101220001CN0500001N9+00111+99999101181ADDAA199000591AY181999GF102991021011012501001001MD1310401+9999
0057014030999991928021812004+59300+004883FM-12+005799999V0202501N00671007801CN0100001N9+00281+99999101131ADDAY181999GF108991081061008001999999MD1990201+9999MW1611
0062014030999991928021906004+59300+004883FM-12+005799999V0202901N00671220001CN0200001N9+00501+99999101271ADDAA199000691AY181999GF104991041011022501001001MD1310141+9999
0072014030999991928021912004+59300+004883FM-12+005799999V0203401N00671075001CN0500001N9+00501+99999101721ADDAY111999GF106991041051017501001021EQDQ01+000042APCTENQ02+000142APC3  
0068014030999991928022006004+59300+004883FM-12+005799999V0201801N00671007801CN0100001N9+00111+99999103281ADDAA199000591AY141999GF108991081061008001999999MD1310401+9999MW1611
0051014030999991928022012004+59300+004883FM-12+005799999V0201801N00931015001CN0500001N9+00001+99999103441ADDAY171999GF106991061051017501001001MD1310061+9999
0051014030999991928022106004+59300+004883FM-12+005799999V0201601N00931015001CN0500001N9+00111+99999103361ADDAY111999GF108991081051017501999999MD1810201+9999
0072014030999991928022206004+59300+004883FM-12+005799999V0201601N00671015001CN0200001N9+00281+99999102921ADDAY121999GF108991081051017501999999EQDQ01+000042APCTENQ02+000142APC3  
0051014030999991928022312004+59300+004883FM-12+005799999V0201401N00101220001CN0200001N9+00391+99999103591ADDAY101999GF100991001001999999001001MD1610061+9999
0051014030999991928022412004+59300+004883FM-12+005799999V0201801N00931220001CN0500001N9+00221+99999103461ADDAY101999GF101991011011012501001001MD1990061+9999
0072014030999991928022512004+59300+004883FM-12+005799999V0201601N01231015001CN0200001N9+00221+99999103091ADDAY121999GF108991081051017501999999EQDQ01+000032APCTENQ02+000002APC3  
0051014030999991928022606004+59300+004883FM-12+005799999V0201601N00261004501CN0040001N9+00221+99999103191ADDAY121999GF108991081061004501999999MD1610061+9999
0070014030999991928022612004+59300+004883FM-12+005799999V0201601N00261220001CN0100001N9+00391+99999103191ADDAY111999GF108991999001999999021001MD1990061+9999EQDQ01+000002SCOTLC
0037014030999991928022712004+59300+004883FM-12+005799999V0201801N00671220001CN0040001N9+00281+99999103321ADDAY141999GF104991001001999999999021
0051014030999991928022812004+59300+004883FM-12+005799999V0201601N00461007801CN0100001N9+00221+99999103221ADDAY141999GF107991071051008001001001MD1990061+9999
0051014030999991928022906004+59300+004883FM-12+005799999V0200901N00261220001CN0500001N9+00001+99999102921ADDAY101999GF100991001001999999001001MD1810141+9999
0072014030999991928022912004+59300+004883FM-12+005799999V0201801N00101220001CN0500001N9+00281+99999102881ADDAY101999GF100991001001999999001001EQDQ01+000062APCTENQ02+000002APC3  
0089014270999991928010106004+58100+006567FM-12+000999999V0201401N00931002401CN0040001N9-00111+99999103361ADDAA199000691AY171999GF108991081061002501999999MW1711EQDQ01+000032APCTENQ02+000002APC3  
0062014270999991928010206004+58100+006567FM-12+000999999V0201401N012319999999N0100001N9+00111+99999101791ADDAA199000691AY171999GF108991999999999999001001MD1810401+9999
0068014270999991928010306004+58100+006567FM-12+000999999V0200901N002619999999N0040001N9+00001+99999101011ADDAA199017091AY171999GF108991999999999999001001MD1310141+9999MW1681
0070014270999991928010406004+58100+006567FM-12+000999999V0202001N00931002401CN0100001N9+00281+99999100611ADDAY141999GF108991081061002501999999MD1810602+9999EQDQ01+000602APC3  
0089014270999991928010506004+58100+006567FM-12+000999999V0202901N009319999999N0200001N9+00281+99999098801ADDAA199003091AY181999GF107991999999999999001001MW1891EQDQ01+000042APCTENQ02+000062APC3  
0062014270999991928010606004+58100+006567FM-12+000999999V0202501N009319999999N0200001N9+00391+99999099311ADDAA199000591AY111999GF108991999999999999021001MD1810401+9999
0062014270999991928010706004+58100+006567FM-12+000999999V0203201N004619999999N0200001N9+00111+99999100731ADDAA199000691AY101999GF107991999999999999001081MD1310261+9999
0087014270999991928010806004+58100+006567FM-12+000999999V0202301N01231002401CN0100001N9+00501+99999098481ADDAA199012091AY141999GF108991081061002501999999MD1810542+9999MW1631EQDQ01+000542APC3  
0062014270999991928010906004+58100+006567FM-12+000999999V0202701N01901220001CN0200001N9+00501+99999099671ADDAA199000691AY181999GF104991999999999999031001MD1310141+9999
0062014270999991928011006004+58100+006567FM-12+000999999V0202301N00931002401CN0200001N9+00501+99999099861ADDAA199003091AY181999GF108991081061002501999999MD1310061+9999
0089014270999991928011106004+58100+006567FM-12+000999999V0202701N015419999999N0100001N9+00501+99999099171ADDAA199000691AY181999GF106991999999999999001001MW1161EQDQ01+000042APCTENQ02+000142APC3  
0062014270999991928011206004+58100+006567FM-12+000999999V0202701N01541220001CN0100001N9+00501+99999100331ADDAA199002091AY181999GF104991999999999999001001MD1310201+9999
0068014270999991928011306004+58100+006567FM-12+000999999V0202301N012319999999N0040001N9+00611+99999098151ADDAA199020091AY161999GF108991999999999999001001MD1810401+9999MW1431
0068014270999991928011406004+58100+006567FM-12+000999999V0203201N01231220001CN0200001N9+00391+99999099031ADDAA199001091AY181999GF104991041091008001031001MD1310401+9999MW1161
0068014270999991928011506004+58100+006567FM-12+000999999V0200901N009319999999N0040001N9+00001+99999099101ADDAA199001091AY171999GF108991999999999999001001MD1810141+9999MW1731
0068014270999991928011606004+58100+006567FM-12+000999999V0200901N006719999999N0100001N9+00001+99999099771ADDAA199000391AY171999GF108991999999999999001001MD1310141+9999MW1701
0068014270999991928011706004+58100+006567FM-12+000999999V0200501N01231002401CN0100001N9-00221+99999100971ADDAA199000691AY171999GF108991081061002501999999MD1310201+9999MW1711
0051014270999991928011806004+58100+006567FM-12+000999999V0200701N01231030001CN0200001N9-00611+99999103001ADDAY111999GF106991041051012501031001MD1310261+9999
0072014270999991928012006004+58100+006567FM-12+000999999V0200901N004619999999N0200001N9-00281+99999098671ADDAY121999GF108991999999999999001001EQDQ01+000022APCTENQ02+000002APC3  
0068014270999991928012106004+58100+006567FM-12+000999999V0200901N006719999999N0040001N9+00001+99999102131ADDAA199003091AY161999GF108991999999999999001001MD1210061+9999MW1531
0068014270999991928012206004+58100+006567FM-12+000999999V0200901N009319999999N0040001N9+00111+99999100901ADDAA199039091AY161999GF108991999999999999001001MD1610061+9999MW1631
0062014270999991928012306004+58100+006567FM-12+000999999V0200901N009319999999N0100001N9-00221+99999101871ADDAA199004091AY171999GF108991999999999999001001MD1010141+9999
0076014270999991928012406004+58100+006567FM-12+000999999V0201601N01231001501CN0040001N9+00391+99999100121ADDAY171999GF108991081061001501999999MD1810542+9999MW1631EQDQ01+000542APC3  
0089014270999991928012606004+58100+006567FM-12+000999999V0202301N015419999999N0040001N9+00391+99999099951ADDAA199004091AY161999GF108991999999999999001001MW1631EQDQ01+000032APCTENQ02+000002APC3  
0068014270999991928012706004+58100+006567FM-12+000999999V0201101N009319999999N0040001N9+00281+99999100351ADDAA199001091AY161999GF108991999999999999001001MD1810061+9999MW1621
0062014270999991928012806004+58100+006567FM-12+000999999V0203201N00261004501CN0200001N9+00221+99999101071ADDAA199002091AY101999GF107991071061004501001001MD1310141+9999
0062014270999991928012906004+58100+006567FM-12+000999999V0202001N004619999999N0100001N9+00281+99999100151ADDAA199012091AY161999GF107991999999999999001001MD1310261+9999
0068014270999991928013006004+58100+006567FM-12+000999999V0200901N00931002401CN0200001N9+00001+99999100391ADDAA199005091AY171999GF108991081061002501999999MD1810261+9999MW1691
0083014270999991928013106004+58100+006567FM-12+000999999V0201101N00461004501CN0200001N9+00111+99999100551ADDAA199005091AY121999GF107991061061004501001021EQDQ01+000042APCTENQ02+000062APC3  
0062014270999991928020106004+58100+006567FM-12+000999999V0201801N00931002401CN0040001N9+00391+99999098691ADDAA199012091AY171999GF108991081061002501999999MD1810401+9999
0057014270999991928020206004+58100+006567FM-12+000999999V0202501N00931220001CN0200001N9+00281+99999099461ADDAY111999GF104991041091004501001001MD1310201+9999MW1161
0068014270999991928020306004+58100+006567FM-12+000999999V0201101N009319999999N0020001N9+00001+99999099641ADDAA199007091AY171999GF108991999999999999001001MD1810061+9999MW1681
0068014270999991928020406004+58100+006567FM-12+000999999V0202901N00261220001CN0200001N9+00281+99999101871ADDAA199000691AY101999GF104991999999999999001001MD1310261+9999MW1161
0089014270999991928020506004+58100+006567FM-12+000999999V0202301N006719999999N0020001N9+00281+99999100421ADDAA199020091AY161999GF108991999999999999001001MW1431EQDQ01+000032APCTENQ02+000002APC3  
0068014270999991928020606004+58100+006567FM-12+000999999V0202501N00931007801CN0200001N9+00281+99999100611ADDAA199000591AY181999GF106991061091008001001001MD1310141+9999MW1801
0087014270999991928020706004+58100+006567FM-12+000999999V0202301N01901002401CN0040001N9+00391+99999100791ADDAA199003091AY161999GF108991081061002501999999MD1810662+9999MW1631EQDQ01+000662APC3  
0087014270999991928020806004+58100+006567FM-12+000999999V0202701N012319999999N0100001N9+00391+99999100901ADDAA199002091AY161999GF107991999051002501001001MD1710141+9999MW1521EQDQ01+000022SCOTLC
0062014270999991928020906004+58100+006567FM-12+000999999V0202701N02261030001CN0100001N9+00501+99999099301ADDAA199000591AY161999GF108991041061002501021001MD1810261+9999
0068014270999991928021006004+58100+006567FM-12+000999999V0202901N01231004501CN0100001N9+00281+99999099811ADDAA199001091AY181999GF106991061091004501001001MD1210201+9999MW1161
0068014270999991928021106004+58100+006567FM-12+000999999V0200501N001019999999N0010001N9+00001+99999097271ADDAA199005091AY161999GF108991999999999999001001MD1110061+9999MW1681
0062014270999991928021306004+58100+006567FM-12+000999999V0200901N00101220001CN0200001N9-00281+99999099671ADDAA199010091AY101999GF102991021051008001001001MD1110141+9999
0068014270999991928021406004+58100+006567FM-12+000999999V0201101N00931004501CN0020001N9+00001+99999099241ADDAA199000691AY171999GF108991081061004501999999MD1810261+9999MW1711
0062014270999991928021506004+58100+006567FM-12+000999999V0201101N00931004501CN0100001N9-00221+99999100871ADDAA199000691AY171999GF108991081061004501999999MD1110201+9999
0068014270999991928021606004+58100+006567FM-12+000999999V0202701N01231002401CN0100001N9+00391+99999099621ADDAA199005091AY161999GF108991081061002501999999MD1310261+9999MW1601
0089014270999991928021706004+58100+006567FM-12+000999999V0209991C00001002401CN0200001N9+00221+99999098921ADDAA199005091AY161999GF108991081061002501999999MW1211EQDQ01+000032APCTENQ02+000002APC3  
0081014270999991928021806004+58100+006567FM-12+000999999V0203201N00671220001CN0200001N9+00221+99999101151ADDAA199002091AY101999GF102991999011008001001001MD1310341+9999EQDQ01+000012SCOTLC
0068014270999991928021906004+58100+006567FM-12+000999999V0202901N00931030001CN0040001N9+00391+99999101371ADDAA199004091AY141999GF106991041051001501031001MD1310261+9999MW1421
0062014270999991928022006004+58100+006567FM-12+000999999V0201401N00461075001CN0200001N9-00221+99999103551ADDAA199000691AY111999GF106991041051004501001091MD1310341+9999
0062014270999991928022106004+58100+006567FM-12+000999999V0200901N00461007801CN0200001N9+00001+99999103731ADDAA199000691AY121999GF108991081051008001999999MD1810141+9999
0057014270999991928022206004+58100+006567FM-12+000999999V0200901N00461004501CN0100001N9+00221+99999103241ADDAY111999GF108991081061004501999999MD1010001+9999MW1451
0062014270999991928022306004+58100+006567FM-12+000999999V0209991C00001220001CN0200001N9+00111+99999103631ADDAA199000691AY101999GF104991999999999999001001MD1310141+9999
0072014270999991928022406004+58100+006567FM-12+000999999V0200901N00671012301CN0200001N9+00111+99999103671ADDAY121999GF108991061051012501021001EQDQ01+000032APCTENQ02+000002APC3  
0051014270999991928022506004+58100+006567FM-12+000999999V0201101N00931004501CN0200001N9+00001+99999103551ADDAY111999GF106991061061004501001001MD1710061+9999
0051014270999991928022606004+58100+006567FM-12+000999999V0200501N001019999999N0100001N9+00001+99999103321ADDAY111999GF107991999999999999021001MD1810061+9999
0051014270999991928022706004+58100+006567FM-12+000999999V0201101N00671001501CN0100001N9-00111+99999103531ADDAY141999GF107991071051001501001001MD1310061+9999
0072014270999991928022806004+58100+006567FM-12+000999999V0201101N00461220001CN0200001N9-00221+99999103461ADDAY141999GF104991999999999999001081EQDQ01+000032APCTENQ02+000002APC3  
0051014270999991928022906004+58100+006567FM-12+000999999V0200701N00931001501CN0200001N9+00001+99999103181ADDAY111999GF107991071051001501001001MD1510001+9999
0070030910999991928010106004+57167-002100FM-12+002499999V0202001N00101220001CN0040001N9+00221+99999102331ADDAY101999GF102991999001999999021001MD1990061+9999EQDQ01+000002SCOTLC
0083030910999991928010206004+57167-002100FM-12+002499999V0202701N00261004501CN0040001N9+00611+99999099871ADDAA199009091AY161999GF108991081061004501999999EQDQ01+000042APCTENQ02+000062APC3  
0062030910999991928010306004+57167-002100FM-12+002499999V0202901N00461220001CN0040001N9+00221+99999101171ADDAA199001091AY101999GF101991011051012501001001MD1310341+9999
0062030910999991928010406004+57167-002100FM-12+002499999V0201801N00261030001CN0040001N9+00611+99999100401ADDAA199000591AY111999GF108991041061008001021001MD1710201+9999
0070030910999991928010506004+57167-002100FM-12+002499999V0202701N00931220001CN0100001N9+00391+99999100441ADDAY101999GF101991999001999999031001MD1310341+9999EQDQ01+000002SCOTLC
0087030910999991928010706004+57167-002100FM-12+002499999V0201801N00461004501CN0040001N9+00281+99999100331ADDAA199004091AY161999GF108991081061004501999999MD1810542+9999MW1611EQDQ01+000542APC3  
0062030910999991928010806004+57167-002100FM-12+002499999V0202501N00461220001CN0200001N9+00391+99999099031ADDAA199000591AY181999GF101991011091008001999001MD1210141+9999
0051030910999991928010906004+57167-002100FM-12+002499999V0201801N00461220001CN0040001N9+00281+99999099801ADDAY101999GF104991001001999999031081MD1990061+9999
0051030910999991928011006004+57167-002100FM-12+002499999V0202001N00461220001CN0100001N9+00391+99999099171ADDAY101999GF104991021011004501001081MD1710341+9999
0062030910999991928011106004+57167-002100FM-12+002499999V0202301N00461220001CN0200001N9+00221+99999099471ADDAA199000391AY101999GF101991011011008001001001MD1310341+9999
0087030910999991928011206004+57167-002100FM-12+002499999V0201601N00671004501CN0040001N9+00391+99999099901ADDAA199001091AY111999GF108991081061004501999999MD1810542+9999MW1611EQDQ01+000542APC3  
0070030910999991928011306004+57167-002100FM-12+002499999V0202001N00671220001CN0200001N9+00611+99999097891ADDAY111999GF102991999001999999031001MD1810201+9999EQDQ01+000002SCOTLC
0051030910999991928011406004+57167-002100FM-12+002499999V0209991C00001030001CN0040001N9+00391+99999099971ADDAY111999GF108991021051012501021001MD1310201+9999
0081030910999991928011606004+57167-002100FM-12+002499999V0203201N00461220001CN0200001N9+00391+99999099391ADDAA199005091AY161999GF104991999011008001001001MD1310401+9999EQDQ01+000012SCOTLC
0068030910999991928011706004+57167-002100FM-12+002499999V0200701N00671004501CN0100001N9+00391+99999100991ADDAA199007091AY161999GF108991081051004501999999MD1310261+9999MW1611
0070030910999991928011806004+57167-002100FM-12+002499999V0202001N00101220001CN0020001N9+00281+99999100561ADDAY161999GF101991011051999999021001MD1310141+9999EQDQ01+000992SCOLCB
0057030910999991928012006004+57167-002100FM-12+002499999V0201601N00931030001CN0040001N9+00721+99999101141ADDAY111999GF108991011061004501021001MD1710341+9999MW1231
0087030910999991928012106004+57167-002100FM-12+002499999V0201601N00671030001CN0040001N9+00721+99999100481ADDAA199000691AY111999GF107991041061004501021001MD1810542+9999MW1611EQDQ01+000542APC3  
0070030910999991928012206004+57167-002100FM-12+002499999V0202301N00101220001CN0040001N9+00281+99999100401ADDAY111999GF106991999001999999021001MD1310401+9999EQDQ01+000002SCOTLC
0051030910999991928012306004+57167-002100FM-12+002499999V0201801N00261030001CN0000501N9+00281+99999100861ADDAY161999GF108991041051012501021001MD1810141+9999
0081030910999991928012406004+57167-002100FM-12+002499999V0202001N00461220001CN0040001N9+00501+99999099131ADDAA199000591AY101999GF102991999001999999031001MD1710061+9999EQDQ01+000002SCOTLC
0070030910999991928012506004+57167-002100FM-12+002499999V0202501N00461220001CN0100001N9+00221+99999100571ADDAY101999GF101991999001999999031001MD1310341+9999EQDQ01+000002SCOTLC
0062030910999991928012606004+57167-002100FM-12+002499999V0202301N00671220001CN0100001N9+00281+99999099761ADDAA199000591AY101999GF101991011051012501001001MD1310201+9999
0068030910999991928012706004+57167-002100FM-12+002499999V0202901N00931007801CN0100001N9+00221+99999100521ADDAA199003091AY171999GF106991061091008001001001MD1310461+9999MW1231
0068030910999991928012806004+57167-002100FM-12+002499999V0202001N00461004501CN0100001N9+00281+99999100731ADDAA199000391AY161999GF108991081061004501999999MD1810461+9999MW1601
0051030910999991928012906004+57167-002100FM-12+002499999V0202001N00461220001CN0100001N9+00221+99999099931ADDAY101999GF104991021011004501001021MD1410001+9999
0083030910999991928013006004+57167-002100FM-12+002499999V0209991C00001030001CN0040001N9+00111+99999099431ADDAA199006091AY111999GF106991021051012501031001EQDQ01+000032APCTENQ02+000002APC3  
0070030910999991928013106004+57167-002100FM-12+002499999V0201801N00101220001CN0040001N9+00111+99999100121ADDAY101999GF101991999001999999031001MD1110061+9999EQDQ01+000002SCOTLC
0062030910999991928020106004+57167-002100FM-12+002499999V0202001N00461030001CN0200001N9+00391+99999097571ADDAA199000591AY111999GF106991021011008001031001MD1610201+9999
0051030910999991928020206004+57167-002100FM-12+002499999V0202301N00671030001CN0200001N9+00221+99999099141ADDAY101999GF106991021051012501031999MD1210141+9999
0070030910999991928020306004+57167-002100FM-12+002499999V0202901N00931030001CN0200001N9+00281+99999099721ADDAY111999GF107991021051012501031001MD1310542+9999EQDQ01+000542APC3  
0068030910999991928020406004+57167-002100FM-12+002499999V0201801N00671030001CN0100001N9+00391+99999101091ADDAA199000691AY161999GF108991041061004501021001MD1810341+9999MW1611
0081030910999991928020506004+57167-002100FM-12+002499999V0202001N00461220001CN0200001N9+00391+99999099951ADDAA199000691AY111999GF106991999001999999031001MD1210061+9999EQDQ01+000002SCOTLC
0062030910999991928020606004+57167-002100FM-12+002499999V0202301N00671220001CN0200001N9+00721+99999100901ADDAA199001091AY181999GF102991021011008001001001MD1310141+9999
0089030910999991928020706004+57167-002100FM-12+002499999V0202301N00461030001CN0100001N9+00781+99999100661ADDAA199000391AY161999GF108991041061004501021001MW1611EQDQ01+000042APCTENQ02+000142APC3  
0051030910999991928020806004+57167-002100FM-12+002499999V0202001N00671030001CN0200001N9+01001+99999101041ADDAY111999GF106991011051004501031001MD1710061+9999
0051030910999991928020906004+57167-002100FM-12+002499999V0202301N00671220001CN0200001N9+00501+99999100041ADDAY101999GF101991011011004501001021MD1210141+9999
0070030910999991928021006004+57167-002100FM-12+002499999V0201601N00461007801CN0040001N9+00391+99999099841ADDAY111999GF108991061051008001021001MD1810542+9999EQDQ01+000542APC3  
0068030910999991928021106004+57167-002100FM-12+002499999V0202501N00671007801CN0200001N9+00281+99999097041ADDAA199000691AY161999GF107991071061008001001001MD1610061+9999MW1601
0062030910999991928021206004+57167-002100FM-12+002499999V0209991C00001220001CN0200001N9+00111+99999099401ADDAA199000591AY181999GF102991021051012501001001MD1010001+9999
0051030910999991928021306004+57167-002100FM-12+002499999V0202301N00261220001CN0040001N9+00001+99999099551ADDAY101999GF104991011051012501031999MD1710061+9999
0062030910999991928021406004+57167-002100FM-12+002499999V0202501N00461220001CN0200001N9+00221+99999099311ADDAA199001091AY101999GF101991011051012501001001MD1310201+9999
0048030910999991928021506004+57167-002100FM-12+002499999V0201801N006719999999N0010001N9+00501+99999099671ADDAA199000691AY111999GF199999999999002501999999
0051030910999991928021606004+57167-002100FM-12+002499999V0209991C00001007801CN0040001N9+00501+99999099761ADDAY111999GF107991071051008001001001MD1810261+9999
0062030910999991928021706004+57167-002100FM-12+002499999V0202701N00931220001CN0200001N9+00281+99999099581ADDAA199000391AY181999GF106991001001999999031081MD1210401+9999
0051030910999991928021806004+57167-002100FM-12+002499999V0202001N00461012301CN0200001N9+00391+99999101701ADDAY111999GF108991081051012501999999MD1990061+9999
0051030910999991928021906004+57167-002100FM-12+002499999V0202701N00261007801CN0200001N9+00891+99999102261ADDAY101999GF106991061051008001031001MD1310201+9999
0072030910999991928022006004+57167-002100FM-12+002499999V0202001N00461220001CN0100001N9+00501+99999103011ADDAY101999GF102991011051008001021001EQDQ01+000032APCTENQ02+000002APC3  
0051030910999991928022106004+57167-002100FM-12+002499999V0202001N00261220001CN0020001N9+00391+99999102701ADDAY101999GF101991011051002501001001MD1110061+9999
0051030910999991928022206004+57167-002100FM-12+002499999V0202901N00261012301CN0200001N9+00781+99999102841ADDAY111999GF108991081051012501999999MD1310201+9999
0057030910999991928022306004+57167-002100FM-12+002499999V0202901N00261220001CN0005001N9-00221+99999103761ADDAY101999GF100991001001999999001001MD1610061+9999MW1461
0072030910999991928022406004+57167-002100FM-12+002499999V0201601N00671030001CN0040001N9+00501+99999102871ADDAY111999GF108991021051004501031001EQDQ01+000032APCTENQ02+000002APC3  
0081030910999991928022506004+57167-002100FM-12+002499999V0202001N00101220001CN0040001N9+00111+99999102571ADDAA199000691AY111999GF102991999001999999021001MD1310141+9999EQDQ01+000002SCOTLC
0105030910999991928022606004+57167-002100FM-12+002499999V0209991C00001220001CN0020001N9+00111+99999102841ADDAA199000691AY141999GF101991999001999999031001MW1421EQDQ01+000002SCOTLCQ02+000032APCTENQ03+000002APC3  
0072030910999991928022706004+57167-002100FM-12+002499999V0201601N00461001501CN0020001N9+00391+99999102801ADDAY141999GF108991081051001501999999EQDQ01+000032APCTENQ02+000002APC3  
0062030910999991928022806004+57167-002100FM-12+002499999V0201601N00461002401CN0040001N9+00391+99999102601ADDAA199000691AY111999GF107991071051002501001001MD1610061+9999
0070030910999991928022906004+57167-002100FM-12+002499999V0201401N012319999999N0040001N9+00391+99999101871ADDAY111999GF108991999051004501001001MD1810141+9999EQDQ01+000042SCOTLC
0037030910999991928060506004+57167-002100FM-12+002499999V0202901N002619999999N0200001N9+00721+99999101601ADDAY111999GF106991999999012501999999
0068030910999991928061006004+57167-002100FM-12+002499999V0203401N00261001501CN0040001N9+00891+99999098501ADDAA199003091AY161999GF108991081061001501999999MD1410001+9999MW1211
0051030910999991928061106004+57167-002100FM-12+002499999V0202701N00671220001CN0200001N9+00891+99999100301ADDAY111999GF104991011011008001031001MD1310341+9999
0062030910999991928061206004+57167-002100FM-12+002499999V0203201N00461220001CN0200001N9+00221+99999101831ADDAA199002091AY101999GF101991011011008001031001MD1310201+9999
0051030910999991928061506004+57167-002100FM-12+002499999V0202901N00671075001CN0200001N9+00781+99999101441ADDAY111999GF106991041011008001001081MD1210061+9999
0051030910999991928061606004+57167-002100FM-12+002499999V0202901N00671220001CN0200001N9+00781+99999101991ADDAY101999GF104991011011008001031001MD1010061+9999
0068030910999991928061706004+57167-002100FM-12+002499999V0202901N00461007801CN0200001N9+01001+99999101151ADDAA199000691AY111999GF108991061061008001031001MD1810141+9999MW1601
0083030910999991928061806004+57167-002100FM-12+002499999V0202901N00461007801CN0200001N9+00781+99999100871ADDAA199000691AY181999GF107991071091008001001001EQDQ01+000022APCTENQ02+000002APC3  
0062030910999991928062006004+57167-002100FM-12+002499999V0203201N00461220001CN0200001N9+01001+99999100921ADDAA199000691AY101999GF102991021011008001001001MD1310141+9999
0081030910999991928062706004+57167-002100FM-12+002499999V0203201N00671004501CN0200001N9+01001+99999999999ADDAA199000691AY101999GF107991999011004501001001MD1310261+9999EQDQ01+000062SCOTLC
0051030910999991928070106004+57167-002100FM-12+002499999V0202501N00461075001CN0200001N9+01281+99999100801ADDAY101999GF106991011051012501001091MD1310141+9999
0068030910999991928070406004+57167-002100FM-12+002499999V0202901N00261030001CN0200001N9+01001+99999101321ADDAA199003091AY161999GF107991021091008001021001MD1110061+9999MW1211
0089030910999991928070606004+57167-002100FM-12+002499999V0202701N00261007801CN0200001N9+01221+99999099701ADDAA199004091AY161999GF106991061091008001021001MW1211EQDQ01+000042APCTENQ02+000062APC3  
0062030910999991928070706004+57167-002100FM-12+002499999V0202901N00461220001CN0200001N9+01111+99999101911ADDAA199000691AY101999GF104991041011008001001001MD1310261+9999
0051030910999991928071106004+57167-002100FM-12+002499999V0202301N00461220001CN0200001N9+01781+99999100921ADDAY111999GF104991011011008001031001MD1210141+9999
0062030910999991928071606004+57167-002100FM-12+002499999V0203201N00101220001CN0200001N9+01281+99999102631ADDAA199000591AY101999GF102991021051012501031001MD1310141+9999
0083030910999991928071806004+57167-002100FM-12+002499999V0202901N00461007801CN0200001N9+01611+99999101731ADDAA199000691AY111999GF107991061011008001031001EQDQ01+000042APCTENQ02+000062APC3  
0072030910999991928071906004+57167-002100FM-12+002499999V0202501N00261030001CN0200001N9+01281+99999101971ADDAY111999GF107991021051012501021001EQDQ01+000032APCTENQ02+000002APC3  
0051030910999991928072006004+57167-002100FM-12+002499999V0202701N00261075001CN0200001N9+01501+99999101631ADDAY111999GF106991041051008001001081MD1110061+9999
0051030910999991928072106004+57167-002100FM-12+002499999V0202901N00461007801CN0200001N9+01391+99999101911ADDAY101999GF106991061051008001001001MD1310201+9999
0051030910999991928072206004+57167-002100FM-12+002499999V0202901N00101220001CN0200001N9+01391+99999101831ADDAY101999GF104991011051012501031001MD1310061+9999
0051030910999991928072306004+57167-002100FM-12+002499999V0202501N00261002401CN0020001N9+01221+99999101871ADDAY121999GF108991081051002501999999MD1810061+9999
0088030910999991928072506004+57167-002100FM-12+002499999V0202501N00261220001CN0200001N9+01391+99999101101ADDAY111999GF104991999011008001001001EQDQ01+000012SCOTLCQ02+000032APCTENQ03+000002APC3  
0070030910999991928072606004+57167-002100FM-12+002499999V0202501N002619999999N0200001N9+01501+99999100861ADDAY111999GF106991999011008001001001MD1210061+9999EQDQ01+000012SCOTLC
0051030910999991928072806004+57167-002100FM-12+002499999V0202701N00461220001CN0200001N9+01111+99999100071ADDAY111999GF101991011051012501001001MD1810141+9999
0081030910999991928072906004+57167-002100FM-12+002499999V0202901N004619999999N0200001N9+00891+99999100061ADDAA199000591AY111999GF107991999011008001001001MD1310061+9999EQDQ01+000012SCOTLC
0062030910999991928073006004+57167-002100FM-12+002499999V0202901N00671030001CN0200001N9+01221+99999100161ADDAA199001091AY181999GF106991041061004501031001MD1810201+9999
0062030910999991928073106004+57167-002100FM-12+002499999V0202901N00671220001CN0200001N9+00781+99999101041ADDAA199000691AY101999GF101991011011008001001021MD1310141+9999
0062030910999991928080106004+57167-002100FM-12+002499999V0203201N00461220001CN0200001N9+00781+99999101871ADDAA199000691AY101999GF101991011051012501001001MD1310141+9999
0105030910999991928080406004+57167-002100FM-12+002499999V0203401N00261220001CN0100001N9+01391+99999101771ADDAA199000691AY111999GF108991999001999999021001MW1601EQDQ01+000002SCOTLCQ02+000042APCTENQ03+000062APC3  
0088030910999991928080806004+57167-002100FM-12+002499999V0202901N00461220001CN0200001N9+01281+99999100501ADDAY101999GF104991999001999999031001EQDQ01+000002SCOTLCQ02+000032APCTENQ03+000002APC3  
0051030910999991928080906004+57167-002100FM-12+002499999V0202501N00461220001CN0200001N9+01501+99999100831ADDAY101999GF101991011011008001031001MD1310141+9999
0070030910999991928081006004+57167-002100FM-12+002499999V0202501N00461220001CN0200001N9+01391+99999101491ADDAY101999GF102991999001999999031001MD1210141+9999EQDQ01+000002SCOTLC
0081030910999991928081606004+57167-002100FM-12+002499999V0202901N004619999999N0200001N9+01221+99999101321ADDAA199002091AY111999GF107991999011008001001001MD1310201+9999EQDQ01+000012SCOTLC
0081030910999991928081706004+57167-002100FM-12+002499999V0202901N002619999999N0200001N9+01221+99999101771ADDAA199001091AY111999GF107991999011008001001001MD1310141+9999EQDQ01+000012SCOTLC
0081030910999991928082806004+57167-002100FM-12+002499999V0203201N001019999999N0200001N9+01111+99999100121ADDAA199000691AY111999GF107991999011008001001001MD1310141+9999EQDQ01+000012SCOTLC
0087030910999991928090106004+57167-002100FM-12+002499999V0203201N00101220001CN0010001N9+00501+99999102271ADDAA199000691AY101999GF101991999001999999031001MD1110061+9999MW1461EQDQ01+000002SCOTLC
0062030910999991928090306004+57167-002100FM-12+002499999V0201801N00461012301CN0100001N9+01391+99999101131ADDAA199003091AY161999GF108991071051012501021001MD1710061+9999
0048030910999991928090406004+57167-002100FM-12+002499999V0202901N001019999999N0100001N9+01281+99999101181ADDAA199001091AY161999GF199999999999004501999999
0068030910999991928090506004+57167-002100FM-12+002499999V0203401N00101002401CN0040001N9+01221+99999100901ADDAA199003091AY161999GF108991081061002501999999MD1410001+9999MW1511
0087030910999991928090606004+57167-002100FM-12+002499999V0203401N006719999999N0200001N9+01111+99999100771ADDAA199012091AY161999GF106991999061004501001001MD1310261+9999MW1211EQDQ01+000022SCOTLC
0089030910999991928090706004+57167-002100FM-12+002499999V0201801N00261030001CN0100001N9+01281+99999101391ADDAA199001091AY161999GF108991011061004501021001MW1601EQDQ01+000032APCTENQ02+000002APC3  
0051030910999991928090806004+57167-002100FM-12+002499999V0202001N00101220001CN0040001N9+01281+99999101131ADDAY101999GF101991011051001501001091MD1210201+9999
0068030910999991928090906004+57167-002100FM-12+002499999V0200901N00101000151CN0005001N9+01221+99999100921ADDAA199009091AY161999GF108991081061000251999999MD1810061+9999MW1631
0062030910999991928091106004+57167-002100FM-12+002499999V0202701N00461220001CN0200001N9+00891+99999101931ADDAA199000391AY101999GF101991001001999999001021MD1310261+9999
0070030910999991928091306004+57167-002100FM-12+002499999V0203201N00101220001CN0020001N9+00891+99999102631ADDAY101999GF101991999001999999031001MD1310061+9999EQDQ01+000002SCOTLC
0072030910999991928091406004+57167-002100FM-12+002499999V0201801N00261220001CN0040001N9+01221+99999102631ADDAY101999GF100991001001999999001001EQDQ01+000042APCTENQ02+000062APC3  
0076030910999991928091506004+57167-002100FM-12+002499999V0202901N00461004501CN0200001N9+01001+99999103031ADDAY161999GF107991999061004501001001MD1310141+9999MW1601EQDQ01+000062SCOTLC
0051030910999991928091606004+57167-002100FM-12+002499999V0202001N00261220001CN0100001N9+01001+99999102521ADDAY101999GF104991001001999999031021MD1810141+9999
0068030910999991928091706004+57167-002100FM-12+002499999V0202701N00261004501CN0040001N9+01221+99999999999ADDAA199004091AY161999GF108991081061004501999999MD1810141+9999MW1631
0062030910999991928091806004+57167-002100FM-12+002499999V0202001N00101220001CN0100001N9+01111+99999101141ADDAA199000691AY101999GF101991011011004501001021MD1310261+9999
0072030910999991928091906004+57167-002100FM-12+002499999V0209991C00001220001CN0200001N9+00501+99999101731ADDAY101999GF101991011051012501001001EQDQ01+000032APCTENQ02+000002APC3  
0056030910999991928092006004+57167-002100FM-12+002499999V0202001N00461220001CN0200001N9+99999+99999999999ADDAY101999GF102991999011008001001001EQDQ01+000012SCOTLC
0051030910999991928092206004+57167-002100FM-12+002499999V0202901N00461007801CN0200001N9+00721+99999103201ADDAY111999GF108991081051008001999999MD1310061+9999
0068030910999991928092306004+57167-002100FM-12+002499999V0203201N00261007801CN0100001N9+00781+99999102691ADDAA199000691AY161999GF108991061061008001021001MD1810201+9999MW1601
0081030910999991928092506004+57167-002100FM-12+002499999V0203401N00461004501CN0100001N9+00781+99999101711ADDAA199009091AY111999GF107991999061004501001001MD1310201+9999EQDQ01+000062SCOTLC
0062030910999991928092606004+57167-002100FM-12+002499999V0203201N00461007801CN0200001N9+00781+99999102121ADDAA199000691AY111999GF106991061051008001001001MD1310141+9999
0051030910999991928092706004+57167-002100FM-12+002499999V0202901N00461007801CN0200001N9+00781+99999101351ADDAY111999GF107991071051008001001001MD1810061+9999
0068030910999991928092806004+57167-002100FM-12+002499999V0203601N00671030001CN0200001N9+00611+99999101491ADDAA199006091AY161999GF106991041061008001031001MD1310261+9999MW1211
0072030910999991928092906004+57167-002100FM-12+002499999V0202901N00261220001CN0200001N9+00281+99999101761ADDAY111999GF106991999001999999031001EQDQ01+000002SCOTLCQ02+000002APC3  
0062030910999991928093006004+57167-002100FM-12+002499999V0203201N00461220001CN0200001N9+00391+99999101761ADDAA199000591AY181999GF101991011091008001001001MD1310141+9999
0051030910999991928100106004+57167-002100FM-12+002499999V0202701N00101220001CN0040001N9+00221+99999102031ADDAY101999GF102991001001999999001081MD1810061+9999
0062030910999991928100206004+57167-002100FM-12+002499999V0202901N00261012301CN0040001N9+00781+99999102001ADDAA199000691AY111999GF107991071051012501001001MD1310201+9999
0051030910999991928100306004+57167-002100FM-12+002499999V0203201N00261220001CN0020001N9+00221+99999102521ADDAY101999GF100991001001999999001001MD1310061+9999
0078030910999991928100406004+57167-002100FM-12+002499999V0201801N00261007801CN0010001N9+00891+99999102331ADDAY141999GF107991071051008001001001MW1101EQDQ01+000022APCTENQ02+000002APC3  
0051030910999991928100506004+57167-002100FM-12+002499999V0201601N00671007801CN0040001N9+01111+99999101751ADDAY111999GF106991061051008001021001MD1810061+9999
0081030910999991928100606004+57167-002100FM-12+002499999V0202301N001019999999N0040001N9+01111+99999101171ADDAA199055091AY161999GF107991999061008001001001MD1410001+9999EQDQ01+000022SCOTLC
0068030910999991928100706004+57167-002100FM-12+002499999V0202001N00261030001CN0200001N9+01001+99999101671ADDAA199000691AY161999GF107991041061008001021001MD1810061+9999MW1601
0068030910999991928100806004+57167-002100FM-12+002499999V0201801N00261004501CN0040001N9+01281+99999100461ADDAA199000591AY161999GF107991061061004501021001MD1710061+9999MW1601
0051030910999991928100906004+57167-002100FM-12+002499999V0202501N00261030001CN0100001N9+00781+99999099801ADDAY101999GF106991011051008001031001MD1510061+9999
0062030910999991928101006004+57167-002100FM-12+002499999V0201601N00261220001CN0200001N9+00891+99999999999ADDAA199000591AY101999GF101991011011008001001021MD1310341+9999
0062030910999991928101106004+57167-002100FM-12+002499999V0200901N00671030001CN0200001N9-01781+99999101071ADDAA199000591AY181999GF106991011011004501031001MD1710141+9999
0062030910999991928101206004+57167-002100FM-12+002499999V0202901N00101220001CN0040001N9+00281+99999101631ADDAA199001091AY101999GF102991021011008001001001MD1310141+9999
0087030910999991928101306004+57167-002100FM-12+002499999V0203201N00461220001CN0200001N9+00611+99999102081ADDAA199000391AY181999GF104991999061004501001001MD1310061+9999MW1601EQDQ01+000022SCOTLC
0070030910999991928101406004+57167-002100FM-12+002499999V0203201N001019999999N0100001N9+00391+99999102241ADDAY181999GF107991999061004501001001MD1610141+9999EQDQ01+000042SCOTLC
0062030910999991928101506004+57167-002100FM-12+002499999V0201601N00261030001CN0020001N9+00891+99999101461ADDAA199000691AY111999GF107991021061008001021001MD1210061+9999
0068030910999991928101606004+57167-002100FM-12+002499999V0201801N00671004501CN0040001N9+00891+99999100991ADDAA199000691AY161999GF108991081061004501999999MD1810201+9999MW1601
0081030910999991928101706004+57167-002100FM-12+002499999V0202301N00101220001CN0100001N9+00781+99999100731ADDAA199006091AY161999GF102991999001999999031001MD1310261+9999EQDQ01+000002SCOTLC
0062030910999991928101806004+57167-002100FM-12+002499999V0201801N00101030001CN0040001N9+00891+99999100431ADDAA199000691AY111999GF106991041051004501021001MD1710261+9999
0081030910999991928101906004+57167-002100FM-12+002499999V0202001N00261220001CN0200001N9+00781+99999098911ADDAA199005091AY101999GF102991011011008001031001MD1310602+9999EQDQ01+000602APC3  
0062030910999991928102006004+57167-002100FM-12+002499999V0201601N01231007801CN0100001N9+01111+99999096831ADDAA199013091AY161999GF107991071061008001001001MD1510461+9999
0051030910999991928102106004+57167-002100FM-12+002499999V0202001N00261220001CN0200001N9+00611+99999099171ADDAY101999GF102991011051017501001021MD1710141+9999
0062030910999991928102206004+57167-002100FM-12+002499999V0202701N00101220001CN0020001N9+00611+99999099501ADDAA199000391AY101999GF102991021011008001001021MD1310061+9999
0062030910999991928102306004+57167-002100FM-12+002499999V0202501N00101220001CN0040001N9-00111+99999099681ADDAA199000691AY101999GF101991011091008001031001MD1310061+9999
0062030910999991928102406004+57167-002100FM-12+002499999V0201801N00671220001CN0100001N9+01111+99999098471ADDAA199003091AY181999GF104991041051008001001091MD1710061+9999
0062030910999991928102506004+57167-002100FM-12+002499999V0202001N00261220001CN0200001N9+00891+99999099281ADDAA199000691AY111999GF102991011051012501031001MD1310461+9999
0068030910999991928102606004+57167-002100FM-12+002499999V0201601N00671030001CN0100001N9+00891+99999099271ADDAA199000691AY101999GF106991021061004501031001MD1810261+9999MW1601
0081030910999991928102706004+57167-002100FM-12+002499999V0200201N00101030001CN0040001N9+01001+99999100351ADDAA199000591AY121999GF107991021051008001031001MD1310542+9999EQDQ01+000542APC3  
0062030910999991928102806004+57167-002100FM-12+002499999V0202701N00461220001CN0200001N9+00611+99999100641ADDAA199001091AY101999GF101991011091008001001021MD1710061+9999
0083030910999991928102906004+57167-002100FM-12+002499999V0202901N00101220001CN0100001N9+00391+99999100551ADDAA199000691AY101999GF104991011051012501031001EQDQ01+000022APCTENQ02+000002APC3  
0089030910999991928103006004+57167-002100FM-12+002499999V0202301N00261030001CN0040001N9+00891+99999099111ADDAA199005091AY161999GF107991041061008001021001MW1601EQDQ01+000042APCTENQ02+000202APC3  
0087030910999991928103106004+57167-002100FM-12+002499999V0202901N00261004501CN0040001N9+00781+99999099861ADDAA199002091AY161999GF108991081061004501999999MD1310542+9999MW1601EQDQ01+000542APC3  
0087030910999991928110106004+57167-002100FM-12+002499999V0203201N004619999999N0200001N9+00501+99999102311ADDAA199001091AY111999GF106991999011008001001001MD1310201+9999MW1161EQDQ01+000012SCOTLC
0068030910999991928110206004+57167-002100FM-12+002499999V0203601N00671007801CN0100001N9+00501+99999102021ADDAA199001091AY181999GF106991061091008001001001MD1810061+9999MW1621
0057030910999991928110306004+57167-002100FM-12+002499999V0200501N00671004501CN0100001N9+00611+99999101331ADDAY161999GF108991081061004501999999MD1610061+9999MW1621
0062030910999991928110506004+57167-002100FM-12+002499999V0203201N00261220001CN0040001N9+00391+99999101171ADDAA199000591AY111999GF104991041011008001031001MD1310061+9999
0105030910999991928110606004+57167-002100FM-12+002499999V0203201N004619999999N0100001N9+00611+99999101501ADDAA199000591AY181999GF107991999061008001001001MW1801EQDQ01+000022SCOTLCQ02+000032APCTENQ03+000002APC3  
0051030910999991928110706004+57167-002100FM-12+002499999V0203201N00461030001CN0200001N9+00391+99999101471ADDAY111999GF107991041011008001031001MD1310061+9999
0051030910999991928110806004+57167-002100FM-12+002499999V0203201N00461220001CN0100001N9+00111+99999101701ADDAY101999GF101991011011008001001001MD1310061+9999
0072030910999991928110906004+57167-002100FM-12+002499999V0203201N00261220001CN0040001N9-00281+99999102081ADDAY101999GF100991001001999999001001EQDQ01+000032APCTENQ02+000002APC3  
0051030910999991928111106004+57167-002100FM-12+002499999V0202301N00261220001CN0200001N9+00501+99999100831ADDAY101999GF102991011051012501001081MD1010001+9999
0072030910999991928111306004+57167-002100FM-12+002499999V0202301N00261220001CN0200001N9+00781+99999099941ADDAY101999GF102991011011004501031001EQDQ01+000022APCTENQ02+000002APC3  
0051030910999991928111406004+57167-002100FM-12+002499999V0209991C00001220001CN0100001N9+00391+99999100371ADDAY101999GF102991021051004501001001MD1410001+9999
0062030910999991928111606004+57167-002100FM-12+002499999V0202301N00261220001CN0100001N9+00391+99999097941ADDAA199000691AY101999GF101991011011008001031001MD1010061+9999
0089030910999991928111706004+57167-002100FM-12+002499999V0202701N00461220001CN0200001N9+00611+99999097221ADDAA199001091AY161999GF102991021011008001031001MW1211EQDQ01+000042APCTENQ02+000062APC3  
0062030910999991928111806004+57167-002100FM-12+002499999V0202701N00671220001CN0200001N9+00611+99999099761ADDAA199001091AY101999GF101991011051008001001001MD1310461+9999
0068030910999991928111906004+57167-002100FM-12+002499999V0201601N00671004501CN0020001N9+01001+99999099351ADDAA199004091AY161999GF108991081061004501999999MD1810341+9999MW1601
0081030910999991928112406004+57167-002100FM-12+002499999V0202901N00931220001CN0200001N9+00391+99999097631ADDAA199007091AY161999GF101991011051012501021001MD1310602+9999EQDQ01+000602APC3  
0092030910999991928112506004+57167-002100FM-12+002499999V0202701N009319999999N0200001N9+00781+99999096901ADDAY161999GF106991999051002501001001MD1990862+9999MW1211EQDQ01+000012SCOTLCQ02+000862APC3  
0068030910999991928112606004+57167-002100FM-12+002499999V0202901N00931220001CN0200001N9+00501+99999099181ADDAA199000591AY181999GF104991041091008001001001MD1310401+9999MW1831
0051030910999991928112706004+57167-002100FM-12+002499999V0203201N00671220001CN0200001N9+00281+99999099831ADDAY101999GF101991011091008001031001MD1310201+9999
0068030910999991928112806004+57167-002100FM-12+002499999V0203201N00461030001CN0100001N9+00221+99999102201ADDAA199005091AY181999GF106991041091004501031001MD1310341+9999MW1831
0068030910999991928112906004+57167-002100FM-12+002499999V0209991C00001004501CN0010001N9+00611+99999101871ADDAA199000691AY161999GF108991081061004501999999MD1810141+9999MW1601
0051030910999991928113006004+57167-002100FM-12+002499999V0202901N00671030001CN0100001N9+01221+99999101801ADDAY111999GF107991041051012501031001MD1310141+9999
0051030910999991928120106004+57167-002100FM-12+002499999V0203201N00671220001CN0200001N9+00891+99999102301ADDAY111999GF104991021011008001031001MD1210201+9999
0070030910999991928120206004+57167-002100FM-12+002499999V0202901N00261220001CN0100001N9-00111+99999102641ADDAY101999GF101991999001999999031001MD1010141+9999EQDQ01+000002SCOTLC
0062030910999991928120306004+57167-002100FM-12+002499999V0202501N00261220001CN0040001N9+00391+99999102381ADDAA199000391AY111999GF104991001001999999031081MD1310341+9999
0051030910999991928120406004+57167-002100FM-12+002499999V0202001N00461007801CN0040001N9+00391+99999102211ADDAY111999GF108991061051008001021001MD1810341+9999
0051030910999991928120506004+57167-002100FM-12+002499999V0202301N00461220001CN0100001N9+00781+99999101041ADDAY111999GF101991011051012501001001MD1210061+9999
0087030910999991928120706004+57167-002100FM-12+002499999V0202901N01231030001CN0100001N9+00111+99999100101ADDAA199002091AY171999GF106991041091008001021001MD1210662+9999MW1721EQDQ01+000662APC3  
0062030910999991928120806004+57167-002100FM-12+002499999V0202901N00671220001CN0100001N9+00111+99999101261ADDAA199001091AY181999GF101991011091008001001001MD1210141+9999
0051030910999991928120906004+57167-002100FM-12+002499999V0202301N00101030001CN0200001N9+00001+99999100971ADDAY101999GF107991011051008001021001MD1810201+9999
0051030910999991928121106004+57167-002100FM-12+002499999V0201401N00671007801CN0100001N9+00611+99999099671ADDAY111999GF108991081051008001999999MD1310201+9999
0068030910999991928121206004+57167-002100FM-12+002499999V0201101N00931004501CN0040001N9+00391+99999100921ADDAA199000391AY161999GF108991081061004501999999MD1310201+9999MW1601
0062030910999991928121306004+57167-002100FM-12+002499999V0201101N00671007801CN0200001N9+00391+99999101931ADDAA199001091AY181999GF107991071051008001001001MD1310141+9999
0051030910999991928121406004+57167-002100FM-12+002499999V0200901N00261015001CN0100001N9+00221+99999101801ADDAY111999GF107991071051017501001001MD1810061+9999
0068030910999991928121606004+57167-002100FM-12+002499999V0201601N00931007801CN0040001N9+00391+99999101511ADDAA199000591AY161999GF108991061061008001021001MD1810401+9999MW1601
0062030910999991928121706004+57167-002100FM-12+002499999V0202501N00261220001CN0100001N9+00501+99999101571ADDAA199004091AY111999GF101991011051012501001001MD1310261+9999
0072030910999991928121806004+57167-002100FM-12+002499999V0202501N00261220001CN0040001N9-00111+99999102831ADDAY101999GF102991001001999999001021EQDQ01+000032APCTENQ02+000002APC3  
0062030910999991928121906004+57167-002100FM-12+002499999V0209991C00001220001CN0040001N9+00221+99999102331ADDAA199006091AY161999GF101991011051012501001001MD1310061+9999
0062030910999991928122006004+57167-002100FM-12+002499999V0203201N00461220001CN0200001N9+00221+99999101721ADDAA199003091AY111999GF101991011051012501001001MD1310061+9999
0072030910999991928122106004+57167-002100FM-12+002499999V0209991C00001220001CN0040001N9+00111+99999102101ADDAY111999GF106991999001999999031001EQDQ01+000002SCOTLCQ02+000002APC3  
0070030910999991928122206004+57167-002100FM-12+002499999V0202001N00261220001CN0040001N9+00221+99999101351ADDAY101999GF104991999001999999031001MD1810201+9999EQDQ01+000002SCOTLC
0076030910999991928122306004+57167-002100FM-12+002499999V0202501N00261220001CN0200001N9+00221+99999102341ADDAY101999GF101991999001999999031001MD1210061+9999MW1891EQDQ01+000002SCOTLC
0057030910999991928122406004+57167-002100FM-12+002499999V0201601N00461004501CN0040001N9+00781+99999100151ADDAY161999GF108991081061004501999999MD1810261+9999MW1611
0051030910999991928122506004+57167-002100FM-12+002499999V0202701N00261220001CN0010001N9+00221+99999100701ADDAY101999GF101991999999017501999999MD1310141+9999
0051030910999991928122706004+57167-002100FM-12+002499999V0202901N00671220001CN0200001N9+00221+99999101311ADDAY101999GF101991011091012501001001MD1310261+9999
0051030910999991928122806004+57167-002100FM-12+002499999V0203201N00461012301CN0100001N9-00111+99999101411ADDAY101999GF106991061051012501001001MD1810061+9999
0068030910999991928122906004+57167-002100FM-12+002499999V0201101N00931004501CN0100001N9+00391+99999100031ADDAA199001091AY161999GF108991081061004501999999MD1810401+9999MW1611
0076030910999991928123006004+57167-002100FM-12+002499999V0200901N01541004501CN0200001N9+00281+99999100231ADDAY171999GF107991999091004501001001MD1310061+9999MW1681EQDQ01+000062SCOTLC
0051030910999991928123106004+57167-002100FM-12+002499999V0200501N00931220001CN0200001N9+00281+99999101601ADDAY101999GF102991021011008001001001MD1310261+9999
0072032620999991928010106004+55017-001417FM-12+003399999V0202301N00261002401CN0040001N9+00001+99999102551ADDAY121999GF108991081051002501999999EQDQ01+000032APCTENQ02+000002APC3  
0068032620999991928010206004+55017-001417FM-12+003399999V0202301N00461004501CN0100001N9+00391+99999100441ADDAA199002091AY161999GF108991081061004501999999MD1610061+9999MW1601
0051032620999991928010306004+55017-001417FM-12+003399999V0202701N00261220001CN0040001N9+00221+99999101191ADDAY101999GF102991021051002501001001MD1310141+9999
0051032620999991928010506004+55017-001417FM-12+003399999V0202701N00461220001CN0200001N9+00281+99999100931ADDAY101999GF102991021051004501031001MD1310201+9999
0087032620999991928010606004+55017-001417FM-12+003399999V0202701N00931004501CN0040001N9+01111+99999099001ADDAA199003091AY161999GF108991081061004501999999MD1810542+9999MW1161EQDQ01+000542APC3  
0068032620999991928010706004+55017-001417FM-12+003399999V0201801N00461004501CN0100001N9+00391+99999100801ADDAA199001091AY161999GF108991081061004501999999MD1610401+9999MW1601
0068032620999991928010806004+55017-001417FM-12+003399999V0202701N01231220001CN0200001N9+00611+99999099901ADDAA199001091AY181999GF102991021011012501001001MD1310141+9999MW1211
0051032620999991928010906004+55017-001417FM-12+003399999V0202301N00461007801CN0040001N9+00611+99999100351ADDAY111999GF106991061011008001001001MD1810061+9999
0051032620999991928011006004+55017-001417FM-12+003399999V0202001N00461004501CN0100001N9+00611+99999099931ADDAY121999GF108991081061004501999999MD1610341+9999
0051032620999991928011106004+55017-001417FM-12+003399999V0202701N00671220001CN0200001N9+00391+99999100241ADDAY101999GF102991021011008001001001MD1310201+9999
0057032620999991928011206004+55017-001417FM-12+003399999V0201801N00461004501CN0040001N9+00391+99999100531ADDAY121999GF108991081061004501999999MD1810341+9999MW1161
0072032620999991928011306004+55017-001417FM-12+003399999V0202501N00931220001CN0100001N9+00721+99999098871ADDAY101999GF104991041051002501001001EQDQ01+000032APCTENQ02+000002APC3  
0051032620999991928011406004+55017-001417FM-12+003399999V0201801N00101220001CN0100001N9+00501+99999100271ADDAY101999GF104991021051017501021001MD1110141+9999
0051032620999991928011506004+55017-001417FM-12+003399999V0202301N00461220001CN0100001N9+00391+99999099061ADDAY101999GF102991021011004501001001MD1810061+9999
0051032620999991928011606004+55017-001417FM-12+003399999V0200701N01231004501CN0100001N9+00391+99999100711ADDAY111999GF106991061061004501001001MD1310261+9999
0051032620999991928011706004+55017-001417FM-12+003399999V0203601N00461004501CN0200001N9+00501+99999100551ADDAY101999GF107991071051004501001001MD1310141+9999
0051032620999991928011806004+55017-001417FM-12+003399999V0201801N00261004501CN0100001N9+00391+99999101751ADDAY111999GF107991071061004501001001MD1410001+9999
0068032620999991928011906004+55017-001417FM-12+003399999V0202501N00461004501CN0100001N9+00391+99999100961ADDAA199016091AY161999GF108991081061004501999999MD1310201+9999MW1211
0051032620999991928012006004+55017-001417FM-12+003399999V0202001N00261004501CN0100001N9+00501+99999101811ADDAY101999GF106991061051004501001001MD1810141+9999
0051032620999991928012106004+55017-001417FM-12+003399999V0202001N00261002401CN0040001N9+00611+99999101041ADDAY141999GF108991081051002501999999MD1810341+9999
0062032620999991928012206004+55017-001417FM-12+003399999V0202701N00261004501CN0100001N9+00611+99999100481ADDAA199003091AY121999GF108991081061004501999999MD1310141+9999
0051032620999991928012306004+55017-001417FM-12+003399999V0202301N00101220001CN0100001N9+00281+99999101411ADDAY101999GF104991021051004501031001MD1610061+9999
0068032620999991928012406004+55017-001417FM-12+003399999V0201801N00261004501CN0040001N9+00721+99999099681ADDAA199001091AY161999GF108991081061004501999999MD1710201+9999MW1161
0062032620999991928012506004+55017-001417FM-12+003399999V0202701N00931220001CN0100001N9+00281+99999101181ADDAA199000591AY101999GF102991021011004501001001MD1310341+9999
0062032620999991928012606004+55017-001417FM-12+003399999V0202501N00671220001CN0100001N9+00281+99999100591ADDAA199003091AY101999GF102991021051004501001001MD1310061+9999
0051032620999991928012706004+55017-001417FM-12+003399999V0202701N00261220001CN0040001N9-00111+99999100781ADDAY101999GF102991021051002501001001MD1310401+9999
0068032620999991928012806004+55017-001417FM-12+003399999V0201801N00261004501CN0040001N9+00111+99999101321ADDAA199000691AY161999GF108991081061004501999999MD1810261+9999MW1161
0051032620999991928012906004+55017-001417FM-12+003399999V0201801N00101220001CN0100001N9+00221+99999100121ADDAY101999GF104991021051004501031001MD1610141+9999
0062032620999991928013006004+55017-001417FM-12+003399999V0202701N00261004501CN0040001N9+00281+99999099681ADDAA199001091AY101999GF106991061061004501001001MD1310061+9999
0051032620999991928013106004+55017-001417FM-12+003399999V0202301N00261220001CN0040001N9+00111+99999100571ADDAY101999GF104991041051002501001001MD1310141+9999
0068032620999991928020106004+55017-001417FM-12+003399999V0202701N00671220001CN0100001N9+00721+99999098531ADDAA199005091AY161999GF104991041091008001001001MD1610141+9999MW1211
0068032620999991928020206004+55017-001417FM-12+003399999V0202301N00671004501CN0040001N9+00221+99999100041ADDAA199000591AY181999GF106991061061004501001001MD1310061+9999MW1161
0062032620999991928020306004+55017-001417FM-12+003399999V0202701N00261004501CN0100001N9+00721+99999099811ADDAA199000391AY111999GF106991061061004501001001MD1310461+9999
0068032620999991928020506004+55017-001417FM-12+003399999V0202701N00261004501CN0100001N9+00501+99999100431ADDAA199004091AY161999GF108991081061004501999999MD1610061+9999MW1161
0051032620999991928020606004+55017-001417FM-12+003399999V0202701N00931220001CN0100001N9+00391+99999101591ADDAY101999GF104991041091004501001001MD1310261+9999
0051032620999991928020706004+55017-001417FM-12+003399999V0202501N01231220001CN0200001N9+00891+99999101641ADDAY101999GF104991041011008001001001MD1810141+9999
0051032620999991928020806004+55017-001417FM-12+003399999V0202301N00461004501CN0040001N9+01111+99999101831ADDAY101999GF106991061061004501001001MD1810061+9999
0051032620999991928020906004+55017-001417FM-12+003399999V0202701N01231220001CN0100001N9+00501+99999101131ADDAY101999GF104991041051002501001001MD1110461+9999
0062032620999991928021006004+55017-001417FM-12+003399999V0202001N00261220001CN0100001N9+00391+99999100461ADDAA199001091AY101999GF102991021061004501001001MD1810461+9999
0068032620999991928021106004+55017-001417FM-12+003399999V0202501N00261004501CN0040001N9+00221+99999097601ADDAA199001091AY161999GF106991061061004501001001MD1310141+9999MW1211
0062032620999991928021206004+55017-001417FM-12+003399999V0202701N00261220001CN0100001N9+00221+99999099761ADDAA199001091AY121999GF102991021091004501001001MD1310201+9999
0051032620999991928021306004+55017-001417FM-12+003399999V0202501N00261004501CN0020001N9+00221+99999099711ADDAY101999GF106991061051004501001001MD1810141+9999
0051032620999991928021406004+55017-001417FM-12+003399999V0202701N00931004501CN0100001N9+00501+99999099771ADDAY101999GF106991061011004501001001MD1310141+9999
0062032620999991928021506004+55017-001417FM-12+003399999V0201801N00261004501CN0040001N9+00721+99999100291ADDAA199001091AY141999GF108991081061004501999999MD1610261+9999
0051032620999991928021606004+55017-001417FM-12+003399999V0202301N00261004501CN0100001N9+01001+99999100031ADDAY121999GF108991081061004501999999MD1810261+9999
0051032620999991928021806004+55017-001417FM-12+003399999V0202501N00261004501CN0100001N9+00611+99999102191ADDAY121999GF108991081061004501999999MD1110061+9999
0051032620999991928021906004+55017-001417FM-12+003399999V0202701N00101220001CN0200001N9+00721+99999102501ADDAY101999GF104991011051004501031001MD1310201+9999
0051032620999991928022006004+55017-001417FM-12+003399999V0202701N00101004501CN0020001N9+00391+99999103221ADDAY101999GF107991071061004501001001MD1110061+9999
0057032620999991928022206004+55017-001417FM-12+003399999V0202701N00101004501CN0005001N9+00391+99999103091ADDAY141999GF108991081051004501999999MD1310141+9999MW1451
0068032620999991928022306004+55017-001417FM-12+003399999V0200501N00261004501CN0040001N9+00391+99999103571ADDAA199001091AY161999GF108991081061004501999999MD1810061+9999MW1511
0062032620999991928022406004+55017-001417FM-12+003399999V0201401N00461004501CN0100001N9+00391+99999102671ADDAA199000691AY121999GF108991081061004501999999MD1610141+9999
0051032620999991928022506004+55017-001417FM-12+003399999V0201801N00261004501CN0100001N9+00111+99999102711ADDAY121999GF108991081051004501999999MD1310061+9999
0057032620999991928022606004+55017-001417FM-12+003399999V0202001N00101002401CN0000501N9+00001+99999102901ADDAY141999GF108991081051002501999999MD1410001+9999MW1451
0057032620999991928022706004+55017-001417FM-12+003399999V0202001N00101002401CN0002001N9+00221+99999102831ADDAY141999GF108991081051002501999999MD1310061+9999MW1431
0051032620999991928022806004+55017-001417FM-12+003399999V0200901N00101004501CN0040001N9+00391+99999102441ADDAY141999GF106991061051004501001001MD1610061+9999
0051032620999991928022906004+55017-001417FM-12+003399999V0201401N00671002401CN0040001N9+00391+99999100521ADDAY121999GF108991081051002501999999MD1510141+9999
0051032620999991928060306004+55017-001417FM-12+003399999V0203201N00101220001CN0100001N9+01391+99999102531ADDAY101999GF102991021011004501001001MD1810061+9999
0051032620999991928060406004+55017-001417FM-12+003399999V0203401N00461220001CN0100001N9+01111+99999101581ADDAY101999GF104991041011004501001001MD1310061+9999
0051032620999991928061106004+55017-001417FM-12+003399999V0202701N00671220001CN0100001N9+01001+99999100791ADDAY101999GF104991041011008001001001MD1310201+9999
0051032620999991928061206004+55017-001417FM-12+003399999V0202701N00461004501CN0200001N9+01111+99999101911ADDAY101999GF106991061011004501001001MD1310141+9999
0072032620999991928061506004+55017-001417FM-12+003399999V0202701N00461220001CN0100001N9+00891+99999101671ADDAY101999GF102991021011004501031001EQDQ01+000032APCTENQ02+000002APC3  
0062032620999991928061606004+55017-001417FM-12+003399999V0203401N00461220001CN0100001N9+00611+99999102031ADDAA199000391AY101999GF104991021011004501031001MD1310141+9999
0083032620999991928061806004+55017-001417FM-12+003399999V0202701N00461220001CN0100001N9+00781+99999101101ADDAA199001091AY101999GF102991011051004501001021EQDQ01+000032APCTENQ02+000002APC3  
0062032620999991928062006004+55017-001417FM-12+003399999V0203201N00261004501CN0100001N9+01001+99999100961ADDAA199000391AY111999GF107991071061004501001001MD1310261+9999
0062032620999991928062306004+55017-001417FM-12+003399999V0202701N00461220001CN0100001N9+01221+99999101301ADDAA199000691AY101999GF104991041091004501031001MD1310201+9999
0051032620999991928062706004+55017-001417FM-12+003399999V0202701N00461220001CN0200001N9+01001+99999101281ADDAY101999GF102991021011008001031001MD1310261+9999
0072032620999991928063006004+55017-001417FM-12+003399999V0202701N00461220001CN0100001N9+01281+99999100561ADDAY101999GF104991041011004501001021EQDQ01+000032APCTENQ02+000002APC3  
0051032620999991928070306004+55017-001417FM-12+003399999V0202701N00671220001CN0100001N9+01281+99999101371ADDAY101999GF104991041011004501001021MD1310201+9999
0051032620999991928070406004+55017-001417FM-12+003399999V0202901N00461220001CN0100001N9+01221+99999101401ADDAY101999GF102991021011004501031001MD1010061+9999
0062032620999991928070706004+55017-001417FM-12+003399999V0203401N00101004501CN0200001N9+01111+99999101911ADDAA199000591AY111999GF106991061061004501001001MD1310261+9999
0051032620999991928070906004+55017-001417FM-12+003399999V0202701N00461220001CN0100001N9+01391+99999101411ADDAY101999GF104991041011004501001001MD1310061+9999
0051032620999991928071506004+55017-001417FM-12+003399999V0202701N00261220001CN0100001N9+01781+99999102231ADDAY101999GF104991021011004501031001MD1310061+9999
0072032620999991928071706004+55017-001417FM-12+003399999V0202701N00261220001CN0100001N9+01391+99999102991ADDAY101999GF102991021011004501001021EQDQ01+000032APCTENQ02+000002APC3  
0051032620999991928071906004+55017-001417FM-12+003399999V0202701N00261220001CN0100001N9+01281+99999102101ADDAY101999GF104991021011004501001021MD1310061+9999
0051032620999991928072006004+55017-001417FM-12+003399999V0202701N00461220001CN0100001N9+01391+99999101811ADDAY101999GF104991041051004501001001MD1310061+9999
0051032620999991928072106004+55017-001417FM-12+003399999V0203201N00461220001CN0100001N9+01391+99999102101ADDAY101999GF101991011011004501001001MD1310141+9999
0051032620999991928072306004+55017-001417FM-12+003399999V0202701N00261004501CN0100001N9+01611+99999101991ADDAY111999GF107991071011004501001001MD1310061+9999
0083032620999991928072406004+55017-001417FM-12+003399999V0202701N00671030001CN0100001N9+01391+99999101301ADDAA199000691AY111999GF106991041011004501031001EQDQ01+000032APCTENQ02+000002APC3  
0051032620999991928072506004+55017-001417FM-12+003399999V0202901N00261220001CN0100001N9+01391+99999101471ADDAY101999GF104991041011004501031001MD1310061+9999
0051032620999991928072606004+55017-001417FM-12+003399999V0202701N00461220001CN0100001N9+01391+99999101321ADDAY101999GF104991041011004501001001MD1410001+9999
0089032620999991928072806004+55017-001417FM-12+003399999V0203401N00101004501CN0040001N9+00891+99999100131ADDAA199000591AY161999GF108991081061004501999999MW1601EQDQ01+000032APCTENQ02+000002APC3  
0051032620999991928072906004+55017-001417FM-12+003399999V0202701N00261220001CN0100001N9+01111+99999100161ADDAY101999GF104991021011004501001021MD1310061+9999
0051032620999991928073006004+55017-001417FM-12+003399999V0202701N00461220001CN0100001N9+01221+99999100601ADDAY101999GF102991021011004501001001MD1310061+9999
0051032620999991928073106004+55017-001417FM-12+003399999V0202901N00261220001CN0200001N9+00891+99999101071ADDAY101999GF104991041011004501031001MD1310201+9999
0051032620999991928080306004+55017-001417FM-12+003399999V0202301N00261220001CN0040001N9+01221+99999102021ADDAY121999GF104991021051004501031001MD1810061+9999
0078032620999991928080406004+55017-001417FM-12+003399999V0202301N00101220001CN0010001N9+01221+99999101751ADDAY141999GF104991041051002501001081MW1431EQDQ01+000032APCTENQ02+000002APC3  
0051032620999991928080506004+55017-001417FM-12+003399999V0203401N00101220001CN0040001N9+01281+99999102101ADDAY101999GF102991021051004501001001MD1310141+9999
0051032620999991928080606004+55017-001417FM-12+003399999V0202301N00101030001CN0020001N9+01221+99999102231ADDAY101999GF106991041051002501031001MD1410001+9999
0068032620999991928080806004+55017-001417FM-12+003399999V0202701N00461220001CN0100001N9+01391+99999101101ADDAA199000391AY181999GF104991041011004501001001MD1310141+9999MW1211
0062032620999991928080906004+55017-001417FM-12+003399999V0202701N00461220001CN0100001N9+01391+99999101501ADDAA199002091AY101999GF104991021011004501001021MD1310141+9999
0062032620999991928081006004+55017-001417FM-12+003399999V0202701N00261220001CN0100001N9+01391+99999101761ADDAA199000591AY101999GF102991021011004501031001MD1310061+9999
0051032620999991928081106004+55017-001417FM-12+003399999V0202301N00261004501CN0040001N9+01391+99999101301ADDAY111999GF107991071061004501001001MD1610141+9999
0062032620999991928081506004+55017-001417FM-12+003399999V0202701N00461220001CN0100001N9+01391+99999100471ADDAA199000691AY101999GF104991041011004501031001MD1310061+9999
