0029029500999991904010106004+61483+021350FM-12+000699999V0203201N004119999999N0000001N9+00061+99999102071ADDGF100991999999999999999999
0029029500999991904010113004+61483+021350FM-12+000699999V0200201N006219999999N0000001N9+00001+99999102181ADDGF101991999999999999999999
0029029500999991904010120004+61483+021350FM-12+000699999V0200501N004119999999N0000001N9-00171+99999102401ADDGF100991999999999999999999
0029029500999991904010206004+61483+021350FM-12+000699999V0200501N002119999999N0000001N9-00611+99999102661ADDGF100991999999999999999999
0029029500999991904010213004+61483+021350FM-12+000699999V0201401N002119999999N0000001N9-00671+99999102801ADDGF100991999999999999999999
0029029500999991904010220004+61483+021350FM-12+000699999V0201601N004119999999N0000001N9-00671+99999102881ADDGF108991999999999999999999
0029029500999991904010306004+61483+021350FM-12+000699999V0202301N006219999999N0000001N9-00171+99999102901ADDGF108991999999999999999999
0000029500999991904010313004+61483+021350FM-12+000699999V0202501N008219999999N0000001N9-00111+99999102921
0029029500999991904010320004+61483+021350FM-12+000699999V0202301N009819999999N0000001N9-00111+99999102871ADDGF108991999999999999999999
0029029500999991904010406004+61483+021350FM-12+000699999V0202301N011819999999N0000001N9-00111+99999102721ADDGF108991999999999999999999
0000029500999991904010413004+61483+021350FM-12+000699999V0202301N009819999999N0000001N9+00001+99999102751
0029029500999991904010420004+61483+021350FM-12+000699999V0202301N009819999999N0000001N9-00061+99999102751ADDGF108991999999999999999999
0029029500999991904010506004+61483+021350FM-12+000699999V0201801N006219999999N0000001N9-00111+99999102781ADDGF108991999999999999999999
0000029500999991904010513004+61483+021350FM-12+000699999V0201801N006219999999N0000001N9-00111+99999102781
0029029500999991904010520004+61483+021350FM-12+000699999V0201601N008219999999N0000001N9-00221+99999102741ADDGF108991999999999999999999
0029029500999991904010606004+61483+021350FM-12+000699999V0201601N004119999999N0000001N9-00221+99999102541ADDGF108991999999999999999999
0000029500999991904010613004+61483+021350FM-12+000699999V0201601N002119999999N0000001N9-00111+99999102561
0029029500999991904010620004+61483+021350FM-12+000699999V0201401N002119999999N0000001N9-00111+99999102671ADDGF108991999999999999999999
0029029500999991904010706004+61483+021350FM-12+000699999V0201801N006219999999N0000001N9-00221+99999102601ADDGF108991999999999999999999
0000029500999991904010713004+61483+021350FM-12+000699999V0201801N006219999999N0000001N9-00171+99999102541
0029029500999991904010720004+61483+021350FM-12+000699999V0202001N011819999999N0000001N9-00171+99999102391ADDGF108991999999999999999999
0029029500999991904010806004+61483+021350FM-12+000699999V0201801N011819999999N0000001N9+00001+99999101991ADDGF108991999999999999999999
0000029500999991904010813004+61483+021350FM-12+000699999V0201801N013919999999N0000001N9-00221+99999101821
0029029500999991904010820004+61483+021350FM-12+000699999V0201801N015919999999N0000001N9-00281+99999101441ADDGF108991999999999999999999
0029029500999991904010906004+61483+021350FM-12+000699999V0201601N011819999999N0000001N9-00171+99999101481ADDGF108991999999999999999999
0000029500999991904010913004+61483+021350FM-12+000699999V0201801N009819999999N0000001N9-00221+99999101501
0029029500999991904010920004+61483+021350FM-12+000699999V0201801N011819999999N0000001N9-00441+99999101231ADDGF108991999999999999999999
0029029500999991904011006004+61483+021350FM-12+000699999V0202501N009819999999N0000001N9+00061+99999100701ADDGF108991999999999999999999
0000029500999991904011013004+61483+021350FM-12+000699999V0202501N011819999999N0000001N9+00171+99999101191
0029029500999991904011020004+61483+021350FM-12+000699999V0202301N009819999999N0000001N9+00111+99999101591ADDGF108991999999999999999999
0029029500999991904011106004+61483+021350FM-12+000699999V0202001N011819999999N0000001N9+00111+99999101421ADDGF108991999999999999999999
0000029500999991904011113004+61483+021350FM-12+000699999V0202001N013919999999N0000001N9+00171+99999101221
0029029500999991904011120004+61483+021350FM-12+000699999V0202001N013919999999N0000001N9+00171+99999101021ADDGF108991999999999999999999
0029029500999991904011206004+61483+021350FM-12+000699999V0202001N009819999999N0000001N9+00061+99999100581ADDGF108991999999999999999999
0000029500999991904011213004+61483+021350FM-12+000699999V0201601N009819999999N0000001N9+00061+99999100241
0029029500999991904011220004+61483+021350FM-12+000699999V0201401N009819999999N0000001N9-00111+99999099871ADDGF108991999999999999999999
0029029500999991904011306004+61483+021350FM-12+000699999V0201401N008219999999N0000001N9-00221+99999099461ADDGF108991999999999999999999
0000029500999991904011313004+61483+021350FM-12+000699999V0202301N004119999999N0000001N9+00001+99999099501
0029029500999991904011320004+61483+021350FM-12+000699999V0201401N006219999999N0000001N9-00061+99999099481ADDGF108991999999999999999999
0029029500999991904011406004+61483+021350FM-12+000699999V0201401N011819999999N0000001N9-00171+99999098701ADDGF108991999999999999999999
0000029500999991904011413004+61483+021350FM-12+000699999V0201101N013919999999N0000001N9-00281+99999098181
0029029500999991904011420004+61483+021350FM-12+000699999V0201101N015919999999N0000001N9-00561+99999097981ADDGF108991999999999999999999
0029029500999991904011506004+61483+021350FM-12+000699999V0201601N006219999999N0000001N9-00061+99999098231ADDGF108991999999999999999999
0000029500999991904011513004+61483+021350FM-12+000699999V0201101N008219999999N0000001N9-00171+99999098551
0029029500999991904011520004+61483+021350FM-12+000699999V0201101N009819999999N0000001N9-00331+99999098831ADDGF108991999999999999999999
0029029500999991904011606004+61483+021350FM-12+000699999V0201101N011819999999N0000001N9-00441+99999099151ADDGF108991999999999999999999
0000029500999991904011613004+61483+021350FM-12+000699999V0200901N006219999999N0000001N9-00441+99999099431
0029029500999991904011620004+61483+021350FM-12+000699999V0200901N008219999999N0000001N9-00561+99999099741ADDGF108991999999999999999999
0029029500999991904011706004+61483+021350FM-12+000699999V0200501N006219999999N0000001N9-00721+99999100181ADDGF108991999999999999999999
0029029500999991904011713004+61483+021350FM-12+000699999V0200501N006219999999N0000001N9-00671+99999100541ADDGF108991999999999999999999
0029029500999991904011720004+61483+021350FM-12+000699999V0200501N004119999999N0000001N9-00891+99999100951ADDGF100991999999999999999999
0029029500999991904011806004+61483+021350FM-12+000699999V0200701N006219999999N0000001N9-00721+99999101721ADDGF108991999999999999999999
0029029500999991904011813004+61483+021350FM-12+000699999V0201801N002119999999N0000001N9-00561+99999102121ADDGF108991999999999999999999
0029029500999991904011820004+61483+021350FM-12+000699999V0202001N006219999999N0000001N9-00331+99999102311ADDGF108991999999999999999999
0029029500999991904011906004+61483+021350FM-12+000699999V0202001N013919999999N0000001N9-00171+99999102241ADDGF108991999999999999999999
0029029500999991904011913004+61483+021350FM-12+000699999V0202501N013919999999N0000001N9+00001+99999102401ADDGF106991999999999999999999
0029029500999991904011920004+61483+021350FM-12+000699999V0202501N011819999999N0000001N9+00061+99999102661ADDGF102991999999999999999999
0029029500999991904012006004+61483+021350FM-12+000699999V0202301N008219999999N0000001N9+00001+99999102831ADDGF102991999999999999999999
0000029500999991904012013004+61483+021350FM-12+000699999V0202301N008219999999N0000001N9+00111+99999102831
0029029500999991904012020004+61483+021350FM-12+000699999V0202301N011819999999N0000001N9+00001+99999102481ADDGF108991999999999999999999
0029029500999991904012106004+61483+021350FM-12+000699999V0202301N013919999999N0000001N9+00111+99999101711ADDGF108991999999999999999999
0000029500999991904012113004+61483+021350FM-12+000699999V0202301N011819999999N0000001N9+00171+99999101461
0029029500999991904012120004+61483+021350FM-12+000699999V0202901N009819999999N0000001N9+00111+99999101761ADDGF101991999999999999999999
0029029500999991904012206004+61483+021350FM-12+000699999V0203201N013919999999N0000001N9-00111+99999102431ADDGF100991999999999999999999
0000029500999991904012213004+61483+021350FM-12+000699999V0202501N011819999999N0000001N9+00001+99999102181
0029029500999991904012220004+61483+021350FM-12+000699999V0202301N018019999999N0000001N9-00111+99999101231ADDGF108991999999999999999999
0029029500999991904012306004+61483+021350FM-12+000699999V0202301N015919999999N0000001N9+00331+99999100741ADDGF102991999999999999999999
0000029500999991904012313004+61483+021350FM-12+000699999V0202701N011819999999N0000001N9+00331+99999100701
0029029500999991904012320004+61483+021350FM-12+000699999V0202701N011819999999N0000001N9+00331+99999100671ADDGF108991999999999999999999
0029029500999991904012406004+61483+021350FM-12+000699999V0202901N011819999999N0000001N9+00281+99999101431ADDGF101991999999999999999999
0000029500999991904012413004+61483+021350FM-12+000699999V0202301N006219999999N0000001N9+00281+99999101631
0029029500999991904012420004+61483+021350FM-12+000699999V0202301N013919999999N0000001N9+00171+99999101381ADDGF100991999999999999999999
0029029500999991904012506004+61483+021350FM-12+000699999V0202501N009819999999N0000001N9+00111+99999101341ADDGF100991999999999999999999
0029029500999991904012513004+61483+021350FM-12+000699999V0202001N004119999999N0000001N9+00171+99999101621ADDGF103991999999999999999999
0029029500999991904012520004+61483+021350FM-12+000699999V0201801N004119999999N0000001N9+00001+99999101661ADDGF103991999999999999999999
0029029500999991904012606004+61483+021350FM-12+000699999V0202301N006219999999N0000001N9+00001+99999101501ADDGF108991999999999999999999
0000029500999991904012613004+61483+021350FM-12+000699999V0202301N008219999999N0000001N9+00001+99999101361
0029029500999991904012620004+61483+021350FM-12+000699999V0202301N006219999999N0000001N9+00001+99999101391ADDGF100991999999999999999999
0029029500999991904012706004+61483+021350FM-12+000699999V0202301N006219999999N0000001N9+00001+99999101701ADDGF102991999999999999999999
0000029500999991904012713004+61483+021350FM-12+000699999V0202301N008219999999N0000001N9+00111+99999101831
0029029500999991904012720004+61483+021350FM-12+000699999V0202001N008219999999N0000001N9+00061+99999101901ADDGF100991999999999999999999
0029029500999991904012806004+61483+021350FM-12+000699999V0202001N015919999999N0000001N9+00061+99999101781ADDGF108991999999999999999999
0000029500999991904012813004+61483+021350FM-12+000699999V0202001N018019999999N0000001N9+00171+99999101581
0029029500999991904012820004+61483+021350FM-12+000699999V0202001N018019999999N0000001N9+00221+99999101441ADDGF108991999999999999999999
0029029500999991904012906004+61483+021350FM-12+000699999V0201801N015919999999N0000001N9+00111+99999101301ADDGF108991999999999999999999
0000029500999991904012913004+61483+021350FM-12+000699999V0201801N015919999999N0000001N9+00111+99999101161
0029029500999991904012920004+61483+021350FM-12+000699999V0202001N011819999999N0000001N9+00061+99999101141ADDGF108991999999999999999999
0029029500999991904013006004+61483+021350FM-12+000699999V0202001N006219999999N0000001N9+00061+99999101471ADDGF100991999999999999999999
0000029500999991904013013004+61483+021350FM-12+000699999V0202301N004119999999N0000001N9+00111+99999101881
0029029500999991904013020004+61483+021350FM-12+000699999V0202001N004119999999N0000001N9+00001+99999102101ADDGF108991999999999999999999
0029029500999991904013106004+61483+021350FM-12+000699999V0201601N004119999999N0000001N9+00001+99999102261ADDGF108991999999999999999999
0029029500999991904013113004+61483+021350FM-12+000699999V0201601N004119999999N0000001N9+00061+99999102401ADDGF108991999999999999999999
0029029500999991904013120004+61483+021350FM-12+000699999V0201601N004119999999N0000001N9-00061+99999102391ADDGF108991999999999999999999
0029029500999991904020106004+61483+021350FM-12+000699999V0201601N004119999999N0000001N9-00331+99999102341ADDGF108991999999999999999999
0029029500999991904020113004+61483+021350FM-12+000699999V0201801N004119999999N0000001N9-00441+99999102511ADDGF108991999999999999999999
0029029500999991904020120004+61483+021350FM-12+000699999V0201801N002119999999N0000001N9-00441+99999102521ADDGF108991999999999999999999
0029029500999991904020206004+61483+021350FM-12+000699999V0201801N006219999999N0000001N9-00391+99999102501ADDGF108991999999999999999999
0029029500999991904020213004+61483+021350FM-12+000699999V0201601N006219999999N0000001N9-00281+99999102421ADDGF108991999999999999999999
0029029500999991904020220004+61483+021350FM-12+000699999V0201601N008219999999N0000001N9-00331+99999102201ADDGF108991999999999999999999
0029029500999991904020306004+61483+021350FM-12+000699999V0201601N004119999999N0000001N9-00561+99999101671ADDGF108991999999999999999999
0029029500999991904020313004+61483+021350FM-12+000699999V0201101N006219999999N0000001N9-00501+99999101381ADDGF108991999999999999999999
0029029500999991904020320004+61483+021350FM-12+000699999V0201101N006219999999N0000001N9-00611+99999100941ADDGF108991999999999999999999
0029029500999991904020406004+61483+021350FM-12+000699999V0200701N008219999999N0000001N9-00781+99999100761ADDGF108991999999999999999999
0029029500999991904020413004+61483+021350FM-12+000699999V0200701N004119999999N0000001N9-00671+99999100951ADDGF103991999999999999999999
0029029500999991904020420004+61483+021350FM-12+000699999V0200901N002119999999N0000001N9-00831+99999101071ADDGF102991999999999999999999
0029029500999991904020506004+61483+021350FM-12+000699999V0201101N006219999999N0000001N9-01111+99999101301ADDGF104991999999999999999999
0029029500999991904020513004+61483+021350FM-12+000699999V0201101N002119999999N0000001N9-00781+99999101701ADDGF106991999999999999999999
0029029500999991904020520004+61483+021350FM-12+000699999V0201101N009819999999N0000001N9-01221+99999101941ADDGF108991999999999999999999
0029029500999991904020606004+61483+021350FM-12+000699999V0201401N006219999999N0000001N9-01441+99999102001ADDGF103991999999999999999999
0000029500999991904020613004+61483+021350FM-12+000699999V0201101N011819999999N0000001N9-01171+99999101901
0029029500999991904020620004+61483+021350FM-12+000699999V0201101N009819999999N0000001N9-01331+99999101631ADDGF108991999999999999999999
0029029500999991904020706004+61483+021350FM-12+000699999V0200901N009819999999N0000001N9-01061+99999100901ADDGF108991999999999999999999
0029029500999991904020713004+61483+021350FM-12+000699999V0200701N011819999999N0000001N9-00941+99999100581ADDGF108991999999999999999999
0029029500999991904020720004+61483+021350FM-12+000699999V0200701N013919999999N0000001N9-00941+99999100351ADDGF108991999999999999999999
0029029500999991904020806004+61483+021350FM-12+000699999V0200701N011819999999N0000001N9-01111+99999100101ADDGF108991999999999999999999
0029029500999991904020813004+61483+021350FM-12+000699999V0200501N008219999999N0000001N9-01001+99999100151ADDGF106991999999999999999999
0029029500999991904020820004+61483+021350FM-12+000699999V0200501N009819999999N0000001N9-01001+99999100261ADDGF108991999999999999999999
0029029500999991904020906004+61483+021350FM-12+000699999V0200501N006219999999N0000001N9-01501+99999100461ADDGF101991999999999999999999
0029029500999991904020913004+61483+021350FM-12+000699999V0200701N008219999999N0000001N9-01281+99999100471ADDGF101991999999999999999999
0029029500999991904020920004+61483+021350FM-12+000699999V0200901N006219999999N0000001N9-01671+99999100441ADDGF100991999999999999999999
0029029500999991904021006004+61483+021350FM-12+000699999V0200901N006219999999N0000001N9-02001+99999100341ADDGF100991999999999999999999
0029029500999991904021013004+61483+021350FM-12+000699999V0201401N004119999999N0000001N9-01501+99999100281ADDGF102991999999999999999999
0029029500999991904021020004+61483+021350FM-12+000699999V0201101N013919999999N0000001N9-01721+99999100061ADDGF108991999999999999999999
0029029500999991904021106004+61483+021350FM-12+000699999V0201101N009819999999N0000001N9-01611+99999099561ADDGF108991999999999999999999
0029029500999991904021113004+61483+021350FM-12+000699999V0201101N009819999999N0000001N9-01221+99999098831ADDGF108991999999999999999999
0029029500999991904021120004+61483+021350FM-12+000699999V0200901N008219999999N0000001N9-01111+99999098481ADDGF108991999999999999999999
0029029500999991904021206004+61483+021350FM-12+000699999V0200701N008219999999N0000001N9-00941+99999098431ADDGF108991999999999999999999
0029029500999991904021213004+61483+021350FM-12+000699999V0200201N009819999999N0000001N9-00891+99999098991ADDGF108991999999999999999999
0029029500999991904021220004+61483+021350FM-12+000699999V0203601N020119999999N0000001N9-01001+99999099801ADDGF108991999999999999999999
0029029500999991904021306004+61483+021350FM-12+000699999V0200501N006219999999N0000001N9-01061+99999100431ADDGF108991999999999999999999
0029029500999991904021313004+61483+021350FM-12+000699999V0201101N002119999999N0000001N9-01061+99999100461ADDGF108991999999999999999999
0029029500999991904021320004+61483+021350FM-12+000699999V0201401N006219999999N0000001N9-01281+99999100071ADDGF108991999999999999999999
0029029500999991904021406004+61483+021350FM-12+000699999V0200901N008219999999N0000001N9-01001+99999099321ADDGF108991999999999999999999
0029029500999991904021413004+61483+021350FM-12+000699999V0201101N011819999999N0000001N9-00611+99999099121ADDGF108991999999999999999999
0029029500999991904021420004+61483+021350FM-12+000699999V0201401N008219999999N0000001N9-00561+99999099101ADDGF108991999999999999999999
0029029500999991904021506004+61483+021350FM-12+000699999V0201401N006219999999N0000001N9-00221+99999099201ADDGF108991999999999999999999
0000029500999991904021513004+61483+021350FM-12+000699999V0201401N006219999999N0000001N9+00001+99999099431
0029029500999991904021520004+61483+021350FM-12+000699999V0201101N008219999999N0000001N9-00441+99999099561ADDGF108991999999999999999999
0029029500999991904021606004+61483+021350FM-12+000699999V0200701N008219999999N0000001N9-00831+99999099551ADDGF108991999999999999999999
0029029500999991904021613004+61483+021350FM-12+000699999V0200501N008219999999N0000001N9-00721+99999099471ADDGF108991999999999999999999
0029029500999991904021620004+61483+021350FM-12+000699999V0200701N009819999999N0000001N9-00831+99999099461ADDGF108991999999999999999999
0029029500999991904021706004+61483+021350FM-12+000699999V0200501N009819999999N0000001N9-01331+99999099631ADDGF108991999999999999999999
0029029500999991904021713004+61483+021350FM-12+000699999V0200501N004119999999N0000001N9-01061+99999099841ADDGF108991999999999999999999
0029029500999991904021720004+61483+021350FM-12+000699999V0200901N002119999999N0000001N9-01061+99999100061ADDGF108991999999999999999999
0029029500999991904021806004+61483+021350FM-12+000699999V0201101N004119999999N0000001N9-01061+99999100141ADDGF108991999999999999999999
0029029500999991904021813004+61483+021350FM-12+000699999V0200901N004119999999N0000001N9-00721+99999100141ADDGF108991999999999999999999
0029029500999991904021820004+61483+021350FM-12+000699999V0201101N008219999999N0000001N9-00611+99999099921ADDGF108991999999999999999999
0029029500999991904021906004+61483+021350FM-12+000699999V0200701N004119999999N0000001N9-00391+99999099941ADDGF108991999999999999999999
0029029500999991904021913004+61483+021350FM-12+000699999V0200501N006219999999N0000001N9-00331+99999099941ADDGF108991999999999999999999
0029029500999991904021920004+61483+021350FM-12+000699999V0200501N011819999999N0000001N9-00561+99999100031ADDGF108991999999999999999999
0029029500999991904022006004+61483+021350FM-12+000699999V0200201N008219999999N0000001N9-00611+99999099551ADDGF108991999999999999999999
0000029500999991904022013004+61483+021350FM-12+000699999V0203201N004119999999N0000001N9-00441+99999099041
0029029500999991904022020004+61483+021350FM-12+000699999V0202001N006219999999N0000001N9-00501+99999098381ADDGF108991999999999999999999
0029029500999991904022106004+61483+021350FM-12+000699999V0200701N004119999999N0000001N9-00611+99999098241ADDGF108991999999999999999999
0029029500999991904022113004+61483+021350FM-12+000699999V0209991C000019999999N0000001N9-00281+99999098711ADDGF108991999999999999999999
0029029500999991904022120004+61483+021350FM-12+000699999V0202501N002119999999N0000001N9-00221+99999099161ADDGF108991999999999999999999
0029029500999991904022206004+61483+021350FM-12+000699999V0202501N002119999999N0000001N9-00171+99999099581ADDGF108991999999999999999999
0000029500999991904022213004+61483+021350FM-12+000699999V0203401N006219999999N0000001N9-00061+99999100061
0029029500999991904022220004+61483+021350FM-12+000699999V0200201N008219999999N0000001N9-00221+99999100941ADDGF103991999999999999999999
0029029500999991904022306004+61483+021350FM-12+000699999V0200501N011819999999N0000001N9-00441+99999102101ADDGF108991999999999999999999
0000029500999991904022313004+61483+021350FM-12+000699999V0200501N009819999999N0000001N9-00281+99999102501
0029029500999991904022320004+61483+021350FM-12+000699999V0200501N006219999999N0000001N9-00501+99999102791ADDGF108991999999999999999999
0029029500999991904022406004+61483+021350FM-12+000699999V0200701N006219999999N0000001N9-00781+99999103111ADDGF100991999999999999999999
0029029500999991904022413004+61483+021350FM-12+000699999V0200701N004119999999N0000001N9-00391+99999103311ADDGF100991999999999999999999
0029029500999991904022420004+61483+021350FM-12+000699999V0200701N004119999999N0000001N9-00891+99999103501ADDGF100991999999999999999999
0029029500999991904022506004+61483+021350FM-12+000699999V0201401N002119999999N0000001N9-00831+99999103581ADDGF108991999999999999999999
0029029500999991904022513004+61483+021350FM-12+000699999V0200901N004119999999N0000001N9-00721+99999103521ADDGF108991999999999999999999
0029029500999991904022520004+61483+021350FM-12+000699999V0201401N002119999999N0000001N9-01391+99999103581ADDGF100991999999999999999999
0029029500999991904022606004+61483+021350FM-12+000699999V0201401N004119999999N0000001N9-01831+99999103481ADDGF100991999999999999999999
0029029500999991904022613004+61483+021350FM-12+000699999V0201101N004119999999N0000001N9-01001+99999103431ADDGF100991999999999999999999
0029029500999991904022620004+61483+021350FM-12+000699999V0200901N002119999999N0000001N9-01501+99999103391ADDGF100991999999999999999999
0029029500999991904022706004+61483+021350FM-12+000699999V0201401N004119999999N0000001N9-01831+99999103261ADDGF101991999999999999999999
0029029500999991904022713004+61483+021350FM-12+000699999V0200901N002119999999N0000001N9-01171+99999103141ADDGF103991999999999999999999
0029029500999991904022720004+61483+021350FM-12+000699999V0200701N004119999999N0000001N9-01281+99999103081ADDGF102991999999999999999999
0029029500999991904022806004+61483+021350FM-12+000699999V0201101N002119999999N0000001N9-01721+99999103181ADDGF100991999999999999999999
0029029500999991904022813004+61483+021350FM-12+000699999V0201801N002119999999N0000001N9-00781+99999103231ADDGF102991999999999999999999
0029029500999991904022820004+61483+021350FM-12+000699999V0201601N002119999999N0000001N9-01331+99999103231ADDGF102991999999999999999999
0029029500999991904022906004+61483+021350FM-12+000699999V0201601N002119999999N0000001N9-01171+99999103191ADDGF108991999999999999999999
0029029500999991904022913004+61483+021350FM-12+000699999V0201601N002119999999N0000001N9-00671+99999103121ADDGF102991999999999999999999
0029029500999991904022920004+61483+021350FM-12+000699999V0201601N004119999999N0000001N9-00941+99999103231ADDGF108991999999999999999999
0029029500999991904030106004+61483+021350FM-12+000699999V0201401N008219999999N0000001N9-01111+99999103231ADDGF108991999999999999999999
0029029500999991904030113004+61483+021350FM-12+000699999V0201101N004119999999N0000001N9-00781+99999103301ADDGF102991999999999999999999
0029029500999991904030120004+61483+021350FM-12+000699999V0200501N002119999999N0000001N9-01111+99999103421ADDGF108991999999999999999999
0029029500999991904030206004+61483+021350FM-12+000699999V0200901N002119999999N0000001N9-01221+99999103561ADDGF101991999999999999999999
0029029500999991904030213004+61483+021350FM-12+000699999V0200701N004119999999N0000001N9-00501+99999103591ADDGF100991999999999999999999
0029029500999991904030220004+61483+021350FM-12+000699999V0200701N004119999999N0000001N9-00891+99999103861ADDGF102991999999999999999999
0029029500999991904030306004+61483+021350FM-12+000699999V0200701N006219999999N0000001N9-00561+99999103901ADDGF108991999999999999999999
0029029500999991904030313004+61483+021350FM-12+000699999V0201401N008219999999N0000001N9-00281+99999103911ADDGF106991999999999999999999
0029029500999991904030320004+61483+021350FM-12+000699999V0201101N006219999999N0000001N9-00941+99999104021ADDGF100991999999999999999999
0029029500999991904030406004+61483+021350FM-12+000699999V0201101N004119999999N0000001N9-01331+99999104071ADDGF100991999999999999999999
0029029500999991904030413004+61483+021350FM-12+000699999V0201101N004119999999N0000001N9-00391+99999103981ADDGF100991999999999999999999
0029029500999991904030420004+61483+021350FM-12+000699999V0201101N004119999999N0000001N9-01111+99999104001ADDGF100991999999999999999999
0029029500999991904030506004+61483+021350FM-12+000699999V0201101N004119999999N0000001N9-01561+99999103831ADDGF102991999999999999999999
0029029500999991904030513004+61483+021350FM-12+000699999V0201401N002119999999N0000001N9-00391+99999103681ADDGF104991999999999999999999
0029029500999991904030520004+61483+021350FM-12+000699999V0200901N002119999999N0000001N9-01061+99999103551ADDGF102991999999999999999999
0029029500999991904030606004+61483+021350FM-12+000699999V0200901N002119999999N0000001N9-01611+99999103501ADDGF100991999999999999999999
0029029500999991904030613004+61483+021350FM-12+000699999V0200901N002119999999N0000001N9-00671+99999103551ADDGF100991999999999999999999
0029029500999991904030620004+61483+021350FM-12+000699999V0200901N002119999999N0000001N9-01061+99999103481ADDGF103991999999999999999999
0029029500999991904030706004+61483+021350FM-12+000699999V0200901N004119999999N0000001N9-00831+99999103401ADDGF108991999999999999999999
0029029500999991904030713004+61483+021350FM-12+000699999V0200701N004119999999N0000001N9-00441+99999103141ADDGF108991999999999999999999
0029029500999991904030720004+61483+021350FM-12+000699999V0200701N006219999999N0000001N9-00721+99999102761ADDGF102991999999999999999999
0029029500999991904030806004+61483+021350FM-12+000699999V0200701N002119999999N0000001N9-00941+99999102101ADDGF108991999999999999999999
0029029500999991904030813004+61483+021350FM-12+000699999V0201801N002119999999N0000001N9-00441+99999102021ADDGF108991999999999999999999
0029029500999991904030820004+61483+021350FM-12+000699999V0202701N009819999999N0000001N9-00781+99999102271ADDGF108991999999999999999999
0029029500999991904030906004+61483+021350FM-12+000699999V0202301N008219999999N0000001N9-00891+99999102471ADDGF100991999999999999999999
0029029500999991904030913004+61483+021350FM-12+000699999V0202001N008219999999N0000001N9-00501+99999102681ADDGF105991999999999999999999
0029029500999991904030920004+61483+021350FM-12+000699999V0201801N002119999999N0000001N9-00891+99999102661ADDGF100991999999999999999999
0029029500999991904031006004+61483+021350FM-12+000699999V0201601N002119999999N0000001N9-00721+99999102631ADDGF108991999999999999999999
0029029500999991904031013004+61483+021350FM-12+000699999V0201601N002119999999N0000001N9-00171+99999102661ADDGF108991999999999999999999
0029029500999991904031020004+61483+021350FM-12+000699999V0201401N004119999999N0000001N9-00281+99999102641ADDGF108991999999999999999999
0029029500999991904031106004+61483+021350FM-12+000699999V0201401N004119999999N0000001N9-00391+99999102471ADDGF108991999999999999999999
0029029500999991904031113004+61483+021350FM-12+000699999V0201401N004119999999N0000001N9-00221+99999102231ADDGF108991999999999999999999
0029029500999991904031120004+61483+021350FM-12+000699999V0200901N002119999999N0000001N9-00441+99999101841ADDGF108991999999999999999999
0029029500999991904031206004+61483+021350FM-12+000699999V0202501N004119999999N0000001N9-00331+99999101261ADDGF108991999999999999999999
0029029500999991904031213004+61483+021350FM-12+000699999V0202301N006219999999N0000001N9-00171+99999100991ADDGF102991999999999999999999
0029029500999991904031220004+61483+021350FM-12+000699999V0202501N008219999999N0000001N9-00391+99999100841ADDGF100991999999999999999999
0029029500999991904031306004+61483+021350FM-12+000699999V0202001N008219999999N0000001N9-00221+99999100511ADDGF108991999999999999999999
0029029500999991904031313004+61483+021350FM-12+000699999V0202301N004119999999N0000001N9+00171+99999100561ADDGF108991999999999999999999
0029029500999991904031320004+61483+021350FM-12+000699999V0201801N004119999999N0000001N9-00501+99999100591ADDGF104991999999999999999999
0029029500999991904031406004+61483+021350FM-12+000699999V0202301N009819999999N0000001N9-00061+99999100311ADDGF108991999999999999999999
0029029500999991904031413004+61483+021350FM-12+000699999V0202001N011819999999N0000001N9+00171+99999100231ADDGF108991999999999999999999
0029029500999991904031420004+61483+021350FM-12+000699999V0202001N011819999999N0000001N9+00001+99999099941ADDGF108991999999999999999999
0029029500999991904031506004+61483+021350FM-12+000699999V0202301N008219999999N0000001N9+00001+99999099861ADDGF108991999999999999999999
0029029500999991904031513004+61483+021350FM-12+000699999V0203401N006219999999N0000001N9-00331+99999100111ADDGF108991999999999999999999
0029029500999991904031520004+61483+021350FM-12+000699999V0200501N009819999999N0000001N9-00671+99999100501ADDGF102991999999999999999999
0029029500999991904031606004+61483+021350FM-12+000699999V0203401N006219999999N0000001N9-00611+99999101141ADDGF100991999999999999999999
0029029500999991904031613004+61483+021350FM-12+000699999V0203201N006219999999N0000001N9-00391+99999101921ADDGF100991999999999999999999
0029029500999991904031620004+61483+021350FM-12+000699999V0202301N002119999999N0000001N9-00721+99999102301ADDGF100991999999999999999999
0029029500999991904031706004+61483+021350FM-12+000699999V0202001N008219999999N0000001N9-00721+99999102361ADDGF100991999999999999999999
0029029500999991904031713004+61483+021350FM-12+000699999V0202301N011819999999N0000001N9+00001+99999102231ADDGF101991999999999999999999
0029029500999991904031720004+61483+021350FM-12+000699999V0202301N009819999999N0000001N9-00331+99999102151ADDGF100991999999999999999999
0029029500999991904031806004+61483+021350FM-12+000699999V0202301N009819999999N0000001N9-00391+99999102191ADDGF100991999999999999999999
0029029500999991904031813004+61483+021350FM-12+000699999V0202001N009819999999N0000001N9+00001+99999102321ADDGF100991999999999999999999
0029029500999991904031820004+61483+021350FM-12+000699999V0202001N008219999999N0000001N9-00331+99999102311ADDGF100991999999999999999999
0029029500999991904031906004+61483+021350FM-12+000699999V0202001N009819999999N0000001N9-00391+99999102401ADDGF106991999999999999999999
0029029500999991904031913004+61483+021350FM-12+000699999V0202001N011819999999N0000001N9+00061+99999102511ADDGF100991999999999999999999
0029029500999991904031920004+61483+021350FM-12+000699999V0201801N011819999999N0000001N9-00441+99999102501ADDGF100991999999999999999999
0029029500999991904032006004+61483+021350FM-12+000699999V0201801N006219999999N0000001N9-00561+99999102351ADDGF100991999999999999999999
0000029500999991904032013004+61483+021350FM-12+000699999V0202001N013919999999N0000001N9+00221+99999102081
0029029500999991904032020004+61483+021350FM-12+000699999V0201601N013919999999N0000001N9-00221+99999102081ADDGF106991999999999999999999
0029029500999991904032106004+61483+021350FM-12+000699999V0201601N011819999999N0000001N9-00171+99999102151ADDGF108991999999999999999999
0029029500999991904032113004+61483+021350FM-12+000699999V0201801N011819999999N0000001N9+00001+99999102271ADDGF101991999999999999999999
0029029500999991904032120004+61483+021350FM-12+000699999V0201801N013919999999N0000001N9-00281+99999102101ADDGF103991999999999999999999
0029029500999991904032206004+61483+021350FM-12+000699999V0201801N020119999999N0000001N9-00111+99999101141ADDGF108991999999999999999999
0000029500999991904032213004+61483+021350FM-12+000699999V0202001N015919999999N0000001N9+00061+99999100841
0029029500999991904032220004+61483+021350FM-12+000699999V0201801N004119999999N0000001N9-00171+99999101241ADDGF100991999999999999999999
0029029500999991904032306004+61483+021350FM-12+000699999V0202001N002119999999N0000001N9+00001+99999101741ADDGF108991999999999999999999
0029029500999991904032313004+61483+021350FM-12+000699999V0203201N002119999999N0000001N9+00111+99999102221ADDGF108991999999999999999999
0029029500999991904032320004+61483+021350FM-12+000699999V0202701N002119999999N0000001N9-00281+99999102601ADDGF108991999999999999999999
0029029500999991904032406004+61483+021350FM-12+000699999V0201401N004119999999N0000001N9-00781+99999103361ADDGF105991999999999999999999
0029029500999991904032413004+61483+021350FM-12+000699999V0200501N004119999999N0000001N9-00111+99999103751ADDGF108991999999999999999999
0029029500999991904032420004+61483+021350FM-12+000699999V0200501N002119999999N0000001N9-00331+99999103861ADDGF108991999999999999999999
0029029500999991904032506004+61483+021350FM-12+000699999V0200901N002119999999N0000001N9-00941+99999103951ADDGF102991999999999999999999
0029029500999991904032520004+61483+021350FM-12+000699999V0201601N004119999999N0000001N9-00331+99999103861ADDGF100991999999999999999999
0029029500999991904032606004+61483+021350FM-12+000699999V0201801N004119999999N0000001N9-00611+99999103741ADDGF100991999999999999999999
0029029500999991904032613004+61483+021350FM-12+000699999V0202301N004119999999N0000001N9+00221+99999103831ADDGF100991999999999999999999
0029029500999991904032620004+61483+021350FM-12+000699999V0201801N002119999999N0000001N9-00331+99999103551ADDGF102991999999999999999999
0029029500999991904032706004+61483+021350FM-12+000699999V0201801N002119999999N0000001N9-00501+99999103551ADDGF100991999999999999999999
0029029500999991904032713004+61483+021350FM-12+000699999V0200201N002119999999N0000001N9+00221+99999103581ADDGF103991999999999999999999
0029029500999991904032720004+61483+021350FM-12+000699999V0200501N002119999999N0000001N9-00061+99999103601ADDGF100991999999999999999999
0029029500999991904032806004+61483+021350FM-12+000699999V0201401N006219999999N0000001N9-00501+99999103671ADDGF100991999999999999999999
0029029500999991904032813004+61483+021350FM-12+000699999V0201401N002119999999N0000001N9+00391+99999103661ADDGF100991999999999999999999
0029029500999991904032820004+61483+021350FM-12+000699999V0201601N008219999999N0000001N9-00221+99999103511ADDGF100991999999999999999999
0029029500999991904032906004+61483+021350FM-12+000699999V0201601N004119999999N0000001N9-00671+99999103241ADDGF100991999999999999999999
0029029500999991904032913004+61483+021350FM-12+000699999V0201601N006219999999N0000001N9+00331+99999102981ADDGF102991999999999999999999
0029029500999991904032920004+61483+021350FM-12+000699999V0201401N009819999999N0000001N9-00331+99999102711ADDGF100991999999999999999999
0029029500999991904033006004+61483+021350FM-12+000699999V0201401N009819999999N0000001N9-00501+99999102321ADDGF108991999999999999999999
0029029500999991904033013004+61483+021350FM-12+000699999V0201401N011819999999N0000001N9+00111+99999102201ADDGF100991999999999999999999
0029029500999991904033020004+61483+021350FM-12+000699999V0201401N008219999999N0000001N9-00561+99999102431ADDGF101991999999999999999999
0029029500999991904033106004+61483+021350FM-12+000699999V0201101N008219999999N0000001N9-00891+99999102601ADDGF102991999999999999999999
0029029500999991904033113004+61483+021350FM-12+000699999V0201601N008219999999N0000001N9+00171+99999102701ADDGF100991999999999999999999
0029029500999991904033120004+61483+021350FM-12+000699999V0201401N006219999999N0000001N9-00501+99999102901ADDGF100991999999999999999999
0029029500999991904040106004+61483+021350FM-12+000699999V0201401N006219999999N0000001N9-01001+99999102791ADDGF100991999999999999999999
0029029500999991904040113004+61483+021350FM-12+000699999V0201401N008219999999N0000001N9+00171+99999102701ADDGF102991999999999999999999
0029029500999991904040120004+61483+021350FM-12+000699999V0201401N008219999999N0000001N9-00391+99999102521ADDGF102991999999999999999999
0029029500999991904040206004+61483+021350FM-12+000699999V0201401N006219999999N0000001N9-00831+99999102301ADDGF105991999999999999999999
0029029500999991904040213004+61483+021350FM-12+000699999V0201601N008219999999N0000001N9+00221+99999102341ADDGF106991999999999999999999
0029029500999991904040220004+61483+021350FM-12+000699999V0201601N006219999999N0000001N9-00281+99999102421ADDGF103991999999999999999999
0029029500999991904040306004+61483+021350FM-12+000699999V0201401N008219999999N0000001N9-00501+99999102431ADDGF108991999999999999999999
0000029500999991904040313004+61483+021350FM-12+000699999V0201601N008219999999N0000001N9+00111+99999102361
0029029500999991904040320004+61483+021350FM-12+000699999V0201801N009819999999N0000001N9-00111+99999102111ADDGF108991999999999999999999
0029029500999991904040406004+61483+021350FM-12+000699999V0201601N011819999999N0000001N9+00061+99999101401ADDGF108991999999999999999999
0000029500999991904040413004+61483+021350FM-12+000699999V0201601N009819999999N0000001N9+00171+99999101261
0029029500999991904040420004+61483+021350FM-12+000699999V0201601N008219999999N0000001N9+00061+99999101061ADDGF108991999999999999999999
0029029500999991904040506004+61483+021350FM-12+000699999V0201801N006219999999N0000001N9+00061+99999100981ADDGF108991999999999999999999
0000029500999991904040513004+61483+021350FM-12+000699999V0201801N006219999999N0000001N9+00391+99999100921
0029029500999991904040520004+61483+021350FM-12+000699999V0201601N006219999999N0000001N9+00061+99999100741ADDGF108991999999999999999999
0029029500999991904040606004+61483+021350FM-12+000699999V0201801N009819999999N0000001N9+00061+99999100561ADDGF108991999999999999999999
0029029500999991904040613004+61483+021350FM-12+000699999V0201601N011819999999N0000001N9+00281+99999100221ADDGF108991999999999999999999
0029029500999991904040620004+61483+021350FM-12+000699999V0201401N013919999999N0000001N9+00171+99999099541ADDGF108991999999999999999999
0029029500999991904040706004+61483+021350FM-12+000699999V0201401N011819999999N0000001N9+00171+99999098741ADDGF108991999999999999999999
0000029500999991904040713004+61483+021350FM-12+000699999V0201101N009819999999N0000001N9+00281+99999098481
0029029500999991904040720004+61483+021350FM-12+000699999V0201401N008219999999N0000001N9+00061+99999098501ADDGF108991999999999999999999
0029029500999991904040806004+61483+021350FM-12+000699999V0201801N008219999999N0000001N9+00111+99999099231ADDGF108991999999999999999999
0000029500999991904040813004+61483+021350FM-12+000699999V0202001N004119999999N0000001N9+00221+99999099821
0029029500999991904040820004+61483+021350FM-12+000699999V0201801N002119999999N0000001N9+00111+99999100191ADDGF108991999999999999999999
0029029500999991904040906004+61483+021350FM-12+000699999V0201601N004119999999N0000001N9+00111+99999100321ADDGF108991999999999999999999
0000029500999991904040913004+61483+021350FM-12+000699999V0201801N004119999999N0000001N9+00391+99999100351
0029029500999991904040920004+61483+021350FM-12+000699999V0201601N008219999999N0000001N9+00061+99999100031ADDGF108991999999999999999999
0029029500999991904041006004+61483+021350FM-12+000699999V0201601N009819999999N0000001N9+00061+99999099221ADDGF108991999999999999999999
0029029500999991904041013004+61483+021350FM-12+000699999V0201801N011819999999N0000001N9+00221+99999099181ADDGF108991999999999999999999
0029029500999991904041020004+61483+021350FM-12+000699999V0201801N011819999999N0000001N9+00111+99999099301ADDGF108991999999999999999999
0029029500999991904041106004+61483+021350FM-12+000699999V0201601N009819999999N0000001N9+00171+99999099261ADDGF108991999999999999999999
0029029500999991904041113004+61483+021350FM-12+000699999V0202001N004119999999N0000001N9+00501+99999099521ADDGF107991999999999999999999
0029029500999991904041120004+61483+021350FM-12+000699999V0201101N002119999999N0000001N9-00061+99999099911ADDGF102991999999999999999999
0029029500999991904041206004+61483+021350FM-12+000699999V0200701N004119999999N0000001N9-00061+99999100421ADDGF108991999999999999999999
0029029500999991904041213004+61483+021350FM-12+000699999V0202901N004119999999N0000001N9+00111+99999100791ADDGF108991999999999999999999
0029029500999991904041220004+61483+021350FM-12+000699999V0202301N004119999999N0000001N9+00001+99999101121ADDGF108991999999999999999999
0029029500999991904041306004+61483+021350FM-12+000699999V0203601N008219999999N0000001N9+00001+99999101441ADDGF106991999999999999999999
0029029500999991904041313004+61483+021350FM-12+000699999V0203401N011819999999N0000001N9-00061+99999101711ADDGF102991999999999999999999
0029029500999991904041320004+61483+021350FM-12+000699999V0203601N008219999999N0000001N9-00061+99999102031ADDGF101991999999999999999999
0029029500999991904041406004+61483+021350FM-12+000699999V0200201N011819999999N0000001N9-00221+99999102361ADDGF100991999999999999999999
0029029500999991904041413004+61483+021350FM-12+000699999V0203401N009819999999N0000001N9-00111+99999102551ADDGF100991999999999999999999
0029029500999991904041420004+61483+021350FM-12+000699999V0200201N006219999999N0000001N9-00221+99999102631ADDGF100991999999999999999999
0029029500999991904041506004+61483+021350FM-12+000699999V0201801N004119999999N0000001N9-00281+99999102681ADDGF100991999999999999999999
0000029500999991904041513004+61483+021350FM-12+000699999V0202001N011819999999N0000001N9+00221+99999102711
0029029500999991904041520004+61483+021350FM-12+000699999V0201801N011819999999N0000001N9-00061+99999102431ADDGF108991999999999999999999
0029029500999991904041606004+61483+021350FM-12+000699999V0201601N013919999999N0000001N9+00061+99999101871ADDGF108991999999999999999999
0000029500999991904041613004+61483+021350FM-12+000699999V0201801N018019999999N0000001N9+00501+99999101381
0029029500999991904041620004+61483+021350FM-12+000699999V0202001N018019999999N0000001N9+00221+99999101231ADDGF108991999999999999999999
0029029500999991904041706004+61483+021350FM-12+000699999V0201801N009819999999N0000001N9+00281+99999101071ADDGF105991999999999999999999
0000029500999991904041713004+61483+021350FM-12+000699999V0202001N011819999999N0000001N9+00331+99999101341
0029029500999991904041720004+61483+021350FM-12+000699999V0201601N002119999999N0000001N9+00281+99999101471ADDGF108991999999999999999999
0029029500999991904041806004+61483+021350FM-12+000699999V0201601N004119999999N0000001N9+00281+99999102101ADDGF108991999999999999999999
0000029500999991904041813004+61483+021350FM-12+000699999V0201601N004119999999N0000001N9+00391+99999102641
0029029500999991904041820004+61483+021350FM-12+000699999V0201601N006219999999N0000001N9+00221+99999102991ADDGF108991999999999999999999
0029029500999991904041906004+61483+021350FM-12+000699999V0202001N006219999999N0000001N9+00221+99999103271ADDGF108991999999999999999999
0029029500999991904041913004+61483+021350FM-12+000699999V0202301N004119999999N0000001N9+00561+99999103511ADDGF108991999999999999999999
0029029500999991904041920004+61483+021350FM-12+000699999V0201401N002119999999N0000001N9+00221+99999103431ADDGF101991999999999999999999
0029029500999991904042006004+61483+021350FM-12+000699999V0201401N002119999999N0000001N9+00331+99999103241ADDGF103991999999999999999999
0029029500999991904042013004+61483+021350FM-12+000699999V0200201N004119999999N0000001N9+00671+99999102981ADDGF101991999999999999999999
0029029500999991904042020004+61483+021350FM-12+000699999V0201401N002119999999N0000001N9+00501+99999102881ADDGF101991999999999999999999
0029029500999991904042106004+61483+021350FM-12+000699999V0201401N004119999999N0000001N9+00391+99999102511ADDGF100991999999999999999999
0000029500999991904042113004+61483+021350FM-12+000699999V0201401N008219999999N0000001N9+00721+99999102241
0029029500999991904042120004+61483+021350FM-12+000699999V0201401N004119999999N0000001N9+00441+99999101981ADDGF108991999999999999999999
0029029500999991904042206004+61483+021350FM-12+000699999V0202301N004119999999N0000001N9+00281+99999101271ADDGF108991999999999999999999
0029029500999991904042213004+61483+021350FM-12+000699999V0202301N006219999999N0000001N9+00441+99999101391ADDGF108991999999999999999999
0029029500999991904042220004+61483+021350FM-12+000699999V0202301N011819999999N0000001N9+00111+99999101721ADDGF108991999999999999999999
0029029500999991904042306004+61483+021350FM-12+000699999V0202001N008219999999N0000001N9+00281+99999102071ADDGF108991999999999999999999
0029029500999991904042313004+61483+021350FM-12+000699999V0202301N008219999999N0000001N9+00501+99999102151ADDGF102991999999999999999999
0029029500999991904042320004+61483+021350FM-12+000699999V0201401N002119999999N0000001N9+00331+99999102001ADDGF107991999999999999999999
0029029500999991904042406004+61483+021350FM-12+000699999V0201401N006219999999N0000001N9+00391+99999101401ADDGF108991999999999999999999
0029029500999991904042413004+61483+021350FM-12+000699999V0209991C000019999999N0000001N9+00441+99999101101ADDGF108991999999999999999999
0029029500999991904042420004+61483+021350FM-12+000699999V0202001N008219999999N0000001N9+00331+99999100801ADDGF108991999999999999999999
0029029500999991904042506004+61483+021350FM-12+000699999V0202001N008219999999N0000001N9+00391+99999100581ADDGF108991999999999999999999
0029029500999991904042513004+61483+021350FM-12+000699999V0201801N008219999999N0000001N9+00831+99999100471ADDGF108991999999999999999999
0029029500999991904042520004+61483+021350FM-12+000699999V0201801N011819999999N0000001N9+00501+99999099901ADDGF108991999999999999999999
0029029500999991904042606004+61483+021350FM-12+000699999V0202301N013919999999N0000001N9+00281+99999099911ADDGF108991999999999999999999
0000029500999991904042613004+61483+021350FM-12+000699999V0202301N013919999999N0000001N9+00441+99999100321
0029029500999991904042620004+61483+021350FM-12+000699999V0202301N009819999999N0000001N9+00221+99999100741ADDGF104991999999999999999999
0029029500999991904042706004+61483+021350FM-12+000699999V0202301N009819999999N0000001N9+00281+99999101201ADDGF100991999999999999999999
0029029500999991904042713004+61483+021350FM-12+000699999V0202301N009819999999N0000001N9+00611+99999101471ADDGF100991999999999999999999
0029029500999991904042720004+61483+021350FM-12+000699999V0202001N008219999999N0000001N9+00391+99999101461ADDGF108991999999999999999999
0029029500999991904042806004+61483+021350FM-12+000699999V0201801N008219999999N0000001N9+00391+99999101161ADDGF108991999999999999999999
0029029500999991904042813004+61483+021350FM-12+000699999V0201601N006219999999N0000001N9+00391+99999100831ADDGF108991999999999999999999
0029029500999991904042820004+61483+021350FM-12+000699999V0201401N002119999999N0000001N9+00281+99999100701ADDGF108991999999999999999999
0029029500999991904042906004+61483+021350FM-12+000699999V0203401N002119999999N0000001N9+00221+99999100801ADDGF108991999999999999999999
0029029500999991904042913004+61483+021350FM-12+000699999V0202701N004119999999N0000001N9+00221+99999100901ADDGF108991999999999999999999
0029029500999991904042920004+61483+021350FM-12+000699999V0201801N006219999999N0000001N9+00171+99999100741ADDGF102991999999999999999999
0029029500999991904043006004+61483+021350FM-12+000699999V0201801N008219999999N0000001N9+00331+99999100381ADDGF108991999999999999999999
0029029500999991904043013004+61483+021350FM-12+000699999V0202301N002119999999N0000001N9+00501+99999100501ADDGF106991999999999999999999
0029029500999991904043020004+61483+021350FM-12+000699999V0203201N006219999999N0000001N9+00171+99999100901ADDGF100991999999999999999999
0029029500999991904050106004+61483+021350FM-12+000699999V0200201N006219999999N0000001N9+00111+99999101511ADDGF108991999999999999999999
0000029500999991904050113004+61483+021350FM-12+000699999V0201801N002119999999N0000001N9+00831+99999101641
0029029500999991904050120004+61483+021350FM-12+000699999V0201601N008219999999N0000001N9+00501+99999101561ADDGF108991999999999999999999
0029029500999991904050206004+61483+021350FM-12+000699999V0202001N004119999999N0000001N9+00391+99999101541ADDGF108991999999999999999999
0029029500999991904050213004+61483+021350FM-12+000699999V0200501N004119999999N0000001N9+00781+99999101231ADDGF108991999999999999999999
0029029500999991904050220004+61483+021350FM-12+000699999V0201101N006219999999N0000001N9+00561+99999100511ADDGF108991999999999999999999
0029029500999991904050306004+61483+021350FM-12+000699999V0201801N008219999999N0000001N9+00501+99999099791ADDGF108991999999999999999999
0029029500999991904050313004+61483+021350FM-12+000699999V0202301N004119999999N0000001N9+00501+99999099481ADDGF108991999999999999999999
0029029500999991904050320004+61483+021350FM-12+000699999V0201601N006219999999N0000001N9+00441+99999099301ADDGF108991999999999999999999
0029029500999991904050406004+61483+021350FM-12+000699999V0202901N006219999999N0000001N9+00281+99999099471ADDGF108991999999999999999999
0029029500999991904050413004+61483+021350FM-12+000699999V0202501N008219999999N0000001N9+00331+99999099991ADDGF108991999999999999999999
0029029500999991904050420004+61483+021350FM-12+000699999V0202901N009819999999N0000001N9+00171+99999100501ADDGF108991999999999999999999
0029029500999991904050506004+61483+021350FM-12+000699999V0203401N009819999999N0000001N9+00171+99999101161ADDGF108991999999999999999999
0029029500999991904050513004+61483+021350FM-12+000699999V0203401N009819999999N0000001N9+00221+99999101561ADDGF108991999999999999999999
0029029500999991904050520004+61483+021350FM-12+000699999V0200501N004119999999N0000001N9+00171+99999101581ADDGF108991999999999999999999
0029029500999991904050606004+61483+021350FM-12+000699999V0200501N006219999999N0000001N9+00171+99999101401ADDGF108991999999999999999999
0029029500999991904050613004+61483+021350FM-12+000699999V0203401N013919999999N0000001N9+00331+99999101191ADDGF102991999999999999999999
0029029500999991904050620004+61483+021350FM-12+000699999V0200201N008219999999N0000001N9+00281+99999101191ADDGF106991999999999999999999
0029029500999991904050706004+61483+021350FM-12+000699999V0200201N008219999999N0000001N9+00111+99999101431ADDGF102991999999999999999999
0029029500999991904050713004+61483+021350FM-12+000699999V0203201N006219999999N0000001N9+00441+99999101741ADDGF108991999999999999999999
0029029500999991904050720004+61483+021350FM-12+000699999V0203401N002119999999N0000001N9+00281+99999101901ADDGF108991999999999999999999
0029029500999991904050806004+61483+021350FM-12+000699999V0201101N008219999999N0000001N9+00331+99999101991ADDGF108991999999999999999999
0029029500999991904050813004+61483+021350FM-12+000699999V0201101N013919999999N0000001N9+00721+99999101901ADDGF108991999999999999999999
0029029500999991904050820004+61483+021350FM-12+000699999V0201101N011819999999N0000001N9+00331+99999101801ADDGF108991999999999999999999
0029029500999991904050906004+61483+021350FM-12+000699999V0200901N011819999999N0000001N9+00331+99999101401ADDGF108991999999999999999999
0000029500999991904050913004+61483+021350FM-12+000699999V0200501N009819999999N0000001N9+00171+99999100841
0029029500999991904050920004+61483+021350FM-12+000699999V0203401N011819999999N0000001N9+00111+99999100701ADDGF108991999999999999999999
0029029500999991904051006004+61483+021350FM-12+000699999V0202701N004119999999N0000001N9+00281+99999101201ADDGF108991999999999999999999
0029029500999991904051013004+61483+021350FM-12+000699999V0203201N002119999999N0000001N9+00561+99999101261ADDGF102991999999999999999999
0029029500999991904051020004+61483+021350FM-12+000699999V0200501N004119999999N0000001N9+00281+99999100941ADDGF106991999999999999999999
0029029500999991904051106004+61483+021350FM-12+000699999V0200501N006219999999N0000001N9+00331+99999100441ADDGF108991999999999999999999
0029029500999991904051113004+61483+021350FM-12+000699999V0203401N008219999999N0000001N9+00281+99999100461ADDGF108991999999999999999999
0029029500999991904051120004+61483+021350FM-12+000699999V0200201N006219999999N0000001N9+00281+99999100711ADDGF105991999999999999999999
0029029500999991904051206004+61483+021350FM-12+000699999V0203201N008219999999N0000001N9+00281+99999101191ADDGF108991999999999999999999
0029029500999991904051213004+61483+021350FM-12+000699999V0203201N006219999999N0000001N9+00391+99999101701ADDGF100991999999999999999999
0029029500999991904051220004+61483+021350FM-12+000699999V0202701N004119999999N0000001N9+00281+99999101881ADDGF103991999999999999999999
0029029500999991904051306004+61483+021350FM-12+000699999V0202701N006219999999N0000001N9+00441+99999102221ADDGF102991999999999999999999
0029029500999991904051313004+61483+021350FM-12+000699999V0202301N004119999999N0000001N9+00781+99999102461ADDGF102991999999999999999999
0029029500999991904051320004+61483+021350FM-12+000699999V0202001N011819999999N0000001N9+00501+99999101901ADDGF105991999999999999999999
0029029500999991904051406004+61483+021350FM-12+000699999V0202001N008219999999N0000001N9+00561+99999102141ADDGF108991999999999999999999
0029029500999991904051413004+61483+021350FM-12+000699999V0202001N008219999999N0000001N9+00781+99999101841ADDGF108991999999999999999999
0029029500999991904051420004+61483+021350FM-12+000699999V0201801N013919999999N0000001N9+00561+99999101511ADDGF108991999999999999999999
0029029500999991904051506004+61483+021350FM-12+000699999V0201801N013919999999N0000001N9+00671+99999100741ADDGF108991999999999999999999
0029029500999991904051513004+61483+021350FM-12+000699999V0201801N015919999999N0000001N9+00611+99999100261ADDGF108991999999999999999999
0029029500999991904051520004+61483+021350FM-12+000699999V0202001N013919999999N0000001N9+00561+99999099841ADDGF108991999999999999999999
0029029500999991904051606004+61483+021350FM-12+000699999V0202301N008219999999N0000001N9+00611+99999099521ADDGF108991999999999999999999
0000029500999991904051613004+61483+021350FM-12+000699999V0202701N004119999999N0000001N9+00561+99999099761
0029029500999991904051620004+61483+021350FM-12+000699999V0203401N008219999999N0000001N9+00331+99999100321ADDGF107991999999999999999999
0029029500999991904051706004+61483+021350FM-12+000699999V0203401N008219999999N0000001N9+00441+99999100901ADDGF101991999999999999999999
0029029500999991904051713004+61483+021350FM-12+000699999V0202701N004119999999N0000001N9+00501+99999101031ADDGF106991999999999999999999
0029029500999991904051720004+61483+021350FM-12+000699999V0201801N009819999999N0000001N9+00561+99999100631ADDGF108991999999999999999999
0029029500999991904051806004+61483+021350FM-12+000699999V0201601N009819999999N0000001N9+00671+99999099621ADDGF108991999999999999999999
0029029500999991904051813004+61483+021350FM-12+000699999V0202001N009819999999N0000001N9+00671+99999099241ADDGF108991999999999999999999
0029029500999991904051820004+61483+021350FM-12+000699999V0202501N006219999999N0000001N9+00441+99999099591ADDGF101991999999999999999999
0029029500999991904051906004+61483+021350FM-12+000699999V0202001N004119999999N0000001N9+00671+99999099561ADDGF108991999999999999999999
0029029500999991904051913004+61483+021350FM-12+000699999V0202301N006219999999N0000001N9+01001+99999099591ADDGF104991999999999999999999
0029029500999991904051920004+61483+021350FM-12+000699999V0202701N002119999999N0000001N9+00391+99999099721ADDGF106991999999999999999999
0029029500999991904052006004+61483+021350FM-12+000699999V0203401N013919999999N0000001N9+00331+99999099911ADDGF102991999999999999999999
0029029500999991904052013004+61483+021350FM-12+000699999V0203201N015919999999N0000001N9+00501+99999100361ADDGF102991999999999999999999
0029029500999991904052020004+61483+021350FM-12+000699999V0203401N013919999999N0000001N9+00441+99999100701ADDGF108991999999999999999999
0029029500999991904052106004+61483+021350FM-12+000699999V0203401N015919999999N0000001N9+00331+99999101191ADDGF106991999999999999999999
0029029500999991904052113004+61483+021350FM-12+000699999V0203201N013919999999N0000001N9+00391+99999101581ADDGF102991999999999999999999
0029029500999991904052120004+61483+021350FM-12+000699999V0203401N011819999999N0000001N9+00281+99999101831ADDGF106991999999999999999999
0029029500999991904052206004+61483+021350FM-12+000699999V0203601N013919999999N0000001N9+00221+99999101901ADDGF108991999999999999999999
0029029500999991904052213004+61483+021350FM-12+000699999V0200201N015919999999N0000001N9+00331+99999102061ADDGF108991999999999999999999
0029029500999991904052220004+61483+021350FM-12+000699999V0200201N013919999999N0000001N9+00281+99999102041ADDGF107991999999999999999999
0029029500999991904052306004+61483+021350FM-12+000699999V0200201N011819999999N0000001N9+00281+99999102041ADDGF100991999999999999999999
0029029500999991904052313004+61483+021350FM-12+000699999V0203601N006219999999N0000001N9+00831+99999102071ADDGF104991999999999999999999
0029029500999991904052320004+61483+021350FM-12+000699999V0209991C000019999999N0000001N9+00441+99999102201ADDGF103991999999999999999999
0029029500999991904052406004+61483+021350FM-12+000699999V0201401N002119999999N0000001N9+00671+99999102501ADDGF100991999999999999999999
0029029500999991904052413004+61483+021350FM-12+000699999V0203401N006219999999N0000001N9+00671+99999102551ADDGF101991999999999999999999
0029029500999991904052420004+61483+021350FM-12+000699999V0203401N002119999999N0000001N9+00501+99999102551ADDGF101991999999999999999999
0029029500999991904052506004+61483+021350FM-12+000699999V0203201N002119999999N0000001N9+00501+99999102751ADDGF100991999999999999999999
0029029500999991904052513004+61483+021350FM-12+000699999V0202501N004119999999N0000001N9+00831+99999102821ADDGF100991999999999999999999
0029029500999991904052520004+61483+021350FM-12+000699999V0202001N004119999999N0000001N9+00671+99999102721ADDGF101991999999999999999999
0029029500999991904052606004+61483+021350FM-12+000699999V0202301N008219999999N0000001N9+00671+99999102761ADDGF102991999999999999999999
0029029500999991904052613004+61483+021350FM-12+000699999V0202301N008219999999N0000001N9+00891+99999102751ADDGF101991999999999999999999
0029029500999991904052620004+61483+021350FM-12+000699999V0202001N006219999999N0000001N9+00671+99999102711ADDGF104991999999999999999999
0029029500999991904052706004+61483+021350FM-12+000699999V0202001N008219999999N0000001N9+00721+99999102501ADDGF108991999999999999999999
0029029500999991904052713004+61483+021350FM-12+000699999V0202001N009819999999N0000001N9+01061+99999102361ADDGF108991999999999999999999
0029029500999991904052720004+61483+021350FM-12+000699999V0202001N011819999999N0000001N9+00781+99999101981ADDGF108991999999999999999999
0029029500999991904052806004+61483+021350FM-12+000699999V0203201N004119999999N0000001N9+00561+99999101261ADDGF101991999999999999999999
0029029500999991904052813004+61483+021350FM-12+000699999V0203201N006219999999N0000001N9+00671+99999101161ADDGF107991999999999999999999
0029029500999991904052820004+61483+021350FM-12+000699999V0203401N009819999999N0000001N9+00561+99999101161ADDGF107991999999999999999999
0029029500999991904052906004+61483+021350FM-12+000699999V0203601N008219999999N0000001N9+00721+99999101751ADDGF101991999999999999999999
0029029500999991904052913004+61483+021350FM-12+000699999V0203401N013919999999N0000001N9+00781+99999102111ADDGF101991999999999999999999
0029029500999991904052920004+61483+021350FM-12+000699999V0203601N006219999999N0000001N9+00781+99999102401ADDGF100991999999999999999999
0029029500999991904053006004+61483+021350FM-12+000699999V0203601N006219999999N0000001N9+00671+99999102741ADDGF100991999999999999999999
0029029500999991904053013004+61483+021350FM-12+000699999V0203401N008219999999N0000001N9+00781+99999102801ADDGF101991999999999999999999
0029029500999991904053020004+61483+021350FM-12+000699999V0203601N002119999999N0000001N9+00721+99999102601ADDGF108991999999999999999999
0029029500999991904053106004+61483+021350FM-12+000699999V0202501N004119999999N0000001N9+00721+99999102101ADDGF106991999999999999999999
0029029500999991904053113004+61483+021350FM-12+000699999V0203201N006219999999N0000001N9+00831+99999101991ADDGF106991999999999999999999
0029029500999991904053120004+61483+021350FM-12+000699999V0202701N002119999999N0000001N9+00721+99999101861ADDGF106991999999999999999999
0029029500999991904060106004+61483+021350FM-12+000699999V0203401N004119999999N0000001N9+00831+99999101751ADDGF102991999999999999999999
0029029500999991904060113004+61483+021350FM-12+000699999V0203201N006219999999N0000001N9+00941+99999101671ADDGF102991999999999999999999
0029029500999991904060120004+61483+021350FM-12+000699999V0209991C000019999999N0000001N9+01111+99999101441ADDGF108991999999999999999999
0029029500999991904060206004+61483+021350FM-12+000699999V0201101N006219999999N0000001N9+01171+99999101111ADDGF108991999999999999999999
0029029500999991904060213004+61483+021350FM-12+000699999V0202501N004119999999N0000001N9+01281+99999101021ADDGF102991999999999999999999
0029029500999991904060220004+61483+021350FM-12+000699999V0200701N002119999999N0000001N9+01501+99999101121ADDGF102991999999999999999999
0029029500999991904060306004+61483+021350FM-12+000699999V0201101N004119999999N0000001N9+01391+99999100951ADDGF108991999999999999999999
0000029500999991904060313004+61483+021350FM-12+000699999V0200501N002119999999N0000001N9+01171+99999100631
0029029500999991904060320004+61483+021350FM-12+000699999V0200201N006219999999N0000001N9+00941+99999100791ADDGF108991999999999999999999
0029029500999991904060406004+61483+021350FM-12+000699999V0200201N013919999999N0000001N9+00721+99999101471ADDGF102991999999999999999999
0029029500999991904060413004+61483+021350FM-12+000699999V0203401N015919999999N0000001N9+00671+99999101941ADDGF100991999999999999999999
0029029500999991904060420004+61483+021350FM-12+000699999V0203201N009819999999N0000001N9+00501+99999102111ADDGF106991999999999999999999
0029029500999991904060506004+61483+021350FM-12+000699999V0203201N002119999999N0000001N9+00611+99999102241ADDGF108991999999999999999999
0029029500999991904060513004+61483+021350FM-12+000699999V0202901N006219999999N0000001N9+00721+99999102141ADDGF108991999999999999999999
0029029500999991904060520004+61483+021350FM-12+000699999V0203401N002119999999N0000001N9+00561+99999101791ADDGF108991999999999999999999
0029029500999991904060606004+61483+021350FM-12+000699999V0203201N002119999999N0000001N9+00721+99999101521ADDGF108991999999999999999999
0029029500999991904060613004+61483+021350FM-12+000699999V0203201N009819999999N0000001N9+00781+99999101401ADDGF101991999999999999999999
0029029500999991904060620004+61483+021350FM-12+000699999V0203201N008219999999N0000001N9+00671+99999101191ADDGF102991999999999999999999
0029029500999991904060706004+61483+021350FM-12+000699999V0203401N009819999999N0000001N9+00671+99999100901ADDGF102991999999999999999999
0029029500999991904060713004+61483+021350FM-12+000699999V0203601N015919999999N0000001N9+00781+99999100721ADDGF108991999999999999999999
0029029500999991904060720004+61483+021350FM-12+000699999V0203601N008219999999N0000001N9+00611+99999100791ADDGF108991999999999999999999
0029029500999991904060806004+61483+021350FM-12+000699999V0200201N008219999999N0000001N9+00671+99999100941ADDGF108991999999999999999999
0000029500999991904060813004+61483+021350FM-12+000699999V0200201N008219999999N0000001N9+00941+99999101161
0029029500999991904060820004+61483+021350FM-12+000699999V0203601N008219999999N0000001N9+00831+99999101351ADDGF105991999999999999999999
0029029500999991904060906004+61483+021350FM-12+000699999V0203601N006219999999N0000001N9+00671+99999101501ADDGF106991999999999999999999
0000029500999991904060913004+61483+021350FM-12+000699999V0203601N009819999999N0000001N9+00831+99999101431
0029029500999991904060920004+61483+021350FM-12+000699999V0203601N006219999999N0000001N9+00671+99999101671ADDGF108991999999999999999999
0029029500999991904061006004+61483+021350FM-12+000699999V0203601N008219999999N0000001N9+00671+99999101741ADDGF101991999999999999999999
0029029500999991904061013004+61483+021350FM-12+000699999V0203401N011819999999N0000001N9+00781+99999101661ADDGF102991999999999999999999
0029029500999991904061020004+61483+021350FM-12+000699999V0203401N009819999999N0000001N9+00671+99999101561ADDGF108991999999999999999999
0029029500999991904061106004+61483+021350FM-12+000699999V0201801N004119999999N0000001N9+00891+99999101041ADDGF104991999999999999999999
0000029500999991904061113004+61483+021350FM-12+000699999V0202901N006219999999N0000001N9+00671+99999100911
0029029500999991904061120004+61483+021350FM-12+000699999V0203401N008219999999N0000001N9+00781+99999100941ADDGF102991999999999999999999
0029029500999991904061206004+61483+021350FM-12+000699999V0203401N011819999999N0000001N9+00671+99999101181ADDGF103991999999999999999999
0029029500999991904061213004+61483+021350FM-12+000699999V0203201N008219999999N0000001N9+00781+99999101441ADDGF102991999999999999999999
0029029500999991904061220004+61483+021350FM-12+000699999V0202901N006219999999N0000001N9+00721+99999101641ADDGF102991999999999999999999
0029029500999991904061306004+61483+021350FM-12+000699999V0202901N006219999999N0000001N9+00721+99999101671ADDGF102991999999999999999999
0029029500999991904061313004+61483+021350FM-12+000699999V0202901N006219999999N0000001N9+00831+99999101831ADDGF103991999999999999999999
0029029500999991904061320004+61483+021350FM-12+000699999V0202701N004119999999N0000001N9+00781+99999101781ADDGF101991999999999999999999
0029029500999991904061406004+61483+021350FM-12+000699999V0202701N002119999999N0000001N9+00721+99999101991ADDGF102991999999999999999999
0029029500999991904061413004+61483+021350FM-12+000699999V0203401N006219999999N0000001N9+00941+99999102121ADDGF102991999999999999999999
0029029500999991904061420004+61483+021350FM-12+000699999V0203401N002119999999N0000001N9+00941+99999102111ADDGF102991999999999999999999
0029029500999991904061506004+61483+021350FM-12+000699999V0201401N004119999999N0000001N9+01281+99999102201ADDGF106991999999999999999999
0029029500999991904061513004+61483+021350FM-12+000699999V0202301N002119999999N0000001N9+01561+99999102141ADDGF106991999999999999999999
0029029500999991904061520004+61483+021350FM-12+000699999V0202301N006219999999N0000001N9+01111+99999102001ADDGF102991999999999999999999
0029029500999991904061606004+61483+021350FM-12+000699999V0201801N008219999999N0000001N9+01331+99999101601ADDGF102991999999999999999999
0029029500999991904061613004+61483+021350FM-12+000699999V0201801N009819999999N0000001N9+01891+99999101221ADDGF106991999999999999999999
0029029500999991904061620004+61483+021350FM-12+000699999V0201801N009819999999N0000001N9+01281+99999100761ADDGF107991999999999999999999
0029029500999991904061706004+61483+021350FM-12+000699999V0202301N015919999999N0000001N9+01001+99999100381ADDGF100991999999999999999999
0029029500999991904061713004+61483+021350FM-12+000699999V0202301N013919999999N0000001N9+01281+99999100341ADDGF100991999999999999999999
0029029500999991904061720004+61483+021350FM-12+000699999V0202501N009819999999N0000001N9+01001+99999100031ADDGF106991999999999999999999
0029029500999991904061806004+61483+021350FM-12+000699999V0202501N008219999999N0000001N9+00941+99999100041ADDGF102991999999999999999999
0029029500999991904061813004+61483+021350FM-12+000699999V0202501N004119999999N0000001N9+01171+99999100441ADDGF102991999999999999999999
0029029500999991904061820004+61483+021350FM-12+000699999V0201801N002119999999N0000001N9+01001+99999100161ADDGF107991999999999999999999
0029029500999991904061906004+61483+021350FM-12+000699999V0203401N006219999999N0000001N9+00831+99999100121ADDGF103991999999999999999999
0029029500999991904061913004+61483+021350FM-12+000699999V0202901N006219999999N0000001N9+01061+99999100281ADDGF102991999999999999999999
0029029500999991904061920004+61483+021350FM-12+000699999V0202301N009819999999N0000001N9+01061+99999100121ADDGF106991999999999999999999
0029029500999991904062006004+61483+021350FM-12+000699999V0202001N002119999999N0000001N9+01281+99999100101ADDGF108991999999999999999999
0029029500999991904062013004+61483+021350FM-12+000699999V0202301N006219999999N0000001N9+01391+99999100281ADDGF105991999999999999999999
0029029500999991904062020004+61483+021350FM-12+000699999V0203201N002119999999N0000001N9+00721+99999100481ADDGF108991999999999999999999
0029029500999991904062106004+61483+021350FM-12+000699999V0202001N002119999999N0000001N9+01111+99999100961ADDGF103991999999999999999999
0029029500999991904062113004+61483+021350FM-12+000699999V0202301N008219999999N0000001N9+01561+99999101021ADDGF107991999999999999999999
0029029500999991904062120004+61483+021350FM-12+000699999V0202001N004119999999N0000001N9+01061+99999101001ADDGF108991999999999999999999
0029029500999991904062206004+61483+021350FM-12+000699999V0201801N004119999999N0000001N9+01281+99999100721ADDGF108991999999999999999999
0029029500999991904062213004+61483+021350FM-12+000699999V0202301N006219999999N0000001N9+01501+99999100511ADDGF103991999999999999999999
0029029500999991904062220004+61483+021350FM-12+000699999V0202001N004119999999N0000001N9+01171+99999100301ADDGF108991999999999999999999
0029029500999991904062306004+61483+021350FM-12+000699999V0201401N006219999999N0000001N9+01221+99999100121ADDGF108991999999999999999999
0000029500999991904062313004+61483+021350FM-12+000699999V0202501N006219999999N0000001N9+01171+99999100281
0029029500999991904062320004+61483+021350FM-12+000699999V0201401N004119999999N0000001N9+01001+99999100351ADDGF108991999999999999999999
0029029500999991904062406004+61483+021350FM-12+000699999V0200501N004119999999N0000001N9+01171+99999100361ADDGF106991999999999999999999
0029029500999991904062413004+61483+021350FM-12+000699999V0202701N006219999999N0000001N9+01061+99999100341ADDGF108991999999999999999999
0029029500999991904062420004+61483+021350FM-12+000699999V0203201N004119999999N0000001N9+00941+99999100161ADDGF108991999999999999999999
0029029500999991904062506004+61483+021350FM-12+000699999V0202701N008219999999N0000001N9+00891+99999099671ADDGF108991999999999999999999
0029029500999991904062513004+61483+021350FM-12+000699999V0202301N008219999999N0000001N9+01001+99999099981ADDGF108991999999999999999999
0029029500999991904062520004+61483+021350FM-12+000699999V0201801N008219999999N0000001N9+01111+99999100261ADDGF103991999999999999999999
0029029500999991904062606004+61483+021350FM-12+000699999V0201101N008219999999N0000001N9+01221+99999100271ADDGF108991999999999999999999
0000029500999991904062613004+61483+021350FM-12+000699999V0201101N009819999999N0000001N9+01501+99999100161
0029029500999991904062620004+61483+021350FM-12+000699999V0200701N008219999999N0000001N9+01221+99999100041ADDGF108991999999999999999999
0029029500999991904062706004+61483+021350FM-12+000699999V0200901N006219999999N0000001N9+01281+99999099641ADDGF108991999999999999999999
0029029500999991904062713004+61483+021350FM-12+000699999V0203601N004119999999N0000001N9+01171+99999099711ADDGF108991999999999999999999
0029029500999991904062720004+61483+021350FM-12+000699999V0203401N002119999999N0000001N9+01001+99999099791ADDGF108991999999999999999999
0029029500999991904062806004+61483+021350FM-12+000699999V0201801N004119999999N0000001N9+01111+99999100111ADDGF108991999999999999999999
0029029500999991904062813004+61483+021350FM-12+000699999V0203601N004119999999N0000001N9+01171+99999100481ADDGF105991999999999999999999
0029029500999991904062820004+61483+021350FM-12+000699999V0203401N006219999999N0000001N9+01111+99999100831ADDGF106991999999999999999999
0029029500999991904062906004+61483+021350FM-12+000699999V0200501N002119999999N0000001N9+01171+99999101061ADDGF108991999999999999999999
0029029500999991904062913004+61483+021350FM-12+000699999V0203401N008219999999N0000001N9+01221+99999101241ADDGF106991999999999999999999
0029029500999991904062920004+61483+021350FM-12+000699999V0200201N006219999999N0000001N9+01281+99999101221ADDGF102991999999999999999999
0029029500999991904063006004+61483+021350FM-12+000699999V0200201N008219999999N0000001N9+01171+99999101231ADDGF108991999999999999999999
0029029500999991904063013004+61483+021350FM-12+000699999V0203601N009819999999N0000001N9+01171+99999100981ADDGF102991999999999999999999
0029029500999991904063020004+61483+021350FM-12+000699999V0203601N011819999999N0000001N9+01061+99999100791ADDGF106991999999999999999999
0029029500999991904070106004+61483+021350FM-12+000699999V0203601N011819999999N0000001N9+00941+99999100481ADDGF108991999999999999999999
0000029500999991904070113004+61483+021350FM-12+000699999V0203601N011819999999N0000001N9+01001+99999100561
0029029500999991904070120004+61483+021350FM-12+000699999V0203601N009819999999N0000001N9+01001+99999100641ADDGF108991999999999999999999
0029029500999991904070206004+61483+021350FM-12+000699999V0200501N004119999999N0000001N9+01281+99999100641ADDGF108991999999999999999999
0029029500999991904070213004+61483+021350FM-12+000699999V0203601N006219999999N0000001N9+01221+99999100711ADDGF106991999999999999999999
0029029500999991904070220004+61483+021350FM-12+000699999V0202701N002119999999N0000001N9+01001+99999100751ADDGF108991999999999999999999
0029029500999991904070306004+61483+021350FM-12+000699999V0202001N004119999999N0000001N9+01001+99999100841ADDGF108991999999999999999999
0029029500999991904070313004+61483+021350FM-12+000699999V0202001N008219999999N0000001N9+01171+99999100831ADDGF108991999999999999999999
0029029500999991904070320004+61483+021350FM-12+000699999V0202301N002119999999N0000001N9+00941+99999100861ADDGF108991999999999999999999
0029029500999991904070406004+61483+021350FM-12+000699999V0202301N006219999999N0000001N9+01111+99999100781ADDGF102991999999999999999999
0029029500999991904070413004+61483+021350FM-12+000699999V0202301N006219999999N0000001N9+01561+99999100881ADDGF102991999999999999999999
0029029500999991904070420004+61483+021350FM-12+000699999V0201801N004119999999N0000001N9+01171+99999100901ADDGF108991999999999999999999
0029029500999991904070506004+61483+021350FM-12+000699999V0200701N004119999999N0000001N9+01171+99999100641ADDGF108991999999999999999999
0000029500999991904070513004+61483+021350FM-12+000699999V0200501N002119999999N0000001N9+01171+99999100551
0029029500999991904070520004+61483+021350FM-12+000699999V0203601N002119999999N0000001N9+01001+99999100581ADDGF108991999999999999999999
0029029500999991904070606004+61483+021350FM-12+000699999V0203201N004119999999N0000001N9+00941+99999100911ADDGF102991999999999999999999
0029029500999991904070613004+61483+021350FM-12+000699999V0202301N004119999999N0000001N9+01391+99999101221ADDGF101991999999999999999999
0029029500999991904070620004+61483+021350FM-12+000699999V0201801N004119999999N0000001N9+01281+99999101271ADDGF102991999999999999999999
0029029500999991904070706004+61483+021350FM-12+000699999V0202001N008219999999N0000001N9+01331+99999101241ADDGF108991999999999999999999
0029029500999991904070713004+61483+021350FM-12+000699999V0202001N008219999999N0000001N9+01781+99999101111ADDGF108991999999999999999999
0029029500999991904070720004+61483+021350FM-12+000699999V0202001N011819999999N0000001N9+01221+99999100681ADDGF106991999999999999999999
0029029500999991904070806004+61483+021350FM-12+000699999V0203201N004119999999N0000001N9+01061+99999100881ADDGF102991999999999999999999
0029029500999991904070813004+61483+021350FM-12+000699999V0202701N002119999999N0000001N9+01111+99999100951ADDGF108991999999999999999999
0029029500999991904070820004+61483+021350FM-12+000699999V0202301N006219999999N0000001N9+01171+99999100601ADDGF101991999999999999999999
0029029500999991904070906004+61483+021350FM-12+000699999V0202501N002119999999N0000001N9+01171+99999100471ADDGF108991999999999999999999
0029029500999991904070913004+61483+021350FM-12+000699999V0203201N008219999999N0000001N9+01221+99999100591ADDGF101991999999999999999999
0029029500999991904070920004+61483+021350FM-12+000699999V0203201N008219999999N0000001N9+01171+99999100621ADDGF101991999999999999999999
0029029500999991904071006004+61483+021350FM-12+000699999V0203401N013919999999N0000001N9+01111+99999100621ADDGF102991999999999999999999
0000029500999991904071013004+61483+021350FM-12+000699999V0203201N009819999999N0000001N9+01171+99999100761
0029029500999991904071020004+61483+021350FM-12+000699999V0203201N011819999999N0000001N9+01171+99999100741ADDGF106991999999999999999999
0029029500999991904071106004+61483+021350FM-12+000699999V0203201N013919999999N0000001N9+00831+99999100741ADDGF108991999999999999999999
0000029500999991904071113004+61483+021350FM-12+000699999V0203401N015919999999N0000001N9+00941+99999100951
0029029500999991904071120004+61483+021350FM-12+000699999V0203201N009819999999N0000001N9+00891+99999101201ADDGF103991999999999999999999
0029029500999991904071206004+61483+021350FM-12+000699999V0203401N006219999999N0000001N9+00941+99999101581ADDGF100991999999999999999999
0029029500999991904071213004+61483+021350FM-12+000699999V0203401N009819999999N0000001N9+01061+99999101881ADDGF101991999999999999999999
0029029500999991904071220004+61483+021350FM-12+000699999V0203401N006219999999N0000001N9+00941+99999102111ADDGF100991999999999999999999
0029029500999991904071306004+61483+021350FM-12+000699999V0202701N002119999999N0000001N9+01001+99999102201ADDGF100991999999999999999999
0029029500999991904071313004+61483+021350FM-12+000699999V0202301N006219999999N0000001N9+01391+99999102161ADDGF104991999999999999999999
0029029500999991904071320004+61483+021350FM-12+000699999V0202301N006219999999N0000001N9+01171+99999102001ADDGF102991999999999999999999
0029029500999991904071406004+61483+021350FM-12+000699999V0202301N004119999999N0000001N9+01331+99999101881ADDGF100991999999999999999999
0029029500999991904071413004+61483+021350FM-12+000699999V0202001N008219999999N0000001N9+01441+99999101901ADDGF102991999999999999999999
0029029500999991904071420004+61483+021350FM-12+000699999V0201801N002119999999N0000001N9+01281+99999101801ADDGF102991999999999999999999
0029029500999991904071506004+61483+021350FM-12+000699999V0202001N006219999999N0000001N9+01391+99999101681ADDGF102991999999999999999999
0029029500999991904071513004+61483+021350FM-12+000699999V0202001N006219999999N0000001N9+01721+99999101791ADDGF103991999999999999999999
0029029500999991904071520004+61483+021350FM-12+000699999V0202001N008219999999N0000001N9+01331+99999101641ADDGF108991999999999999999999
0029029500999991904071606004+61483+021350FM-12+000699999V0202301N008219999999N0000001N9+01441+99999101381ADDGF108991999999999999999999
0029029500999991904071613004+61483+021350FM-12+000699999V0202001N009819999999N0000001N9+01611+99999101071ADDGF108991999999999999999999
0029029500999991904071620004+61483+021350FM-12+000699999V0202001N011819999999N0000001N9+01281+99999100511ADDGF108991999999999999999999
0029029500999991904071706004+61483+021350FM-12+000699999V0203201N006219999999N0000001N9+01171+99999100681ADDGF104991999999999999999999
0029029500999991904071713004+61483+021350FM-12+000699999V0202901N008219999999N0000001N9+01281+99999101081ADDGF106991999999999999999999
0029029500999991904071720004+61483+021350FM-12+000699999V0203201N006219999999N0000001N9+01061+99999101241ADDGF106991999999999999999999
0029029500999991904071806004+61483+021350FM-12+000699999V0203201N009819999999N0000001N9+00891+99999101181ADDGF101991999999999999999999
0029029500999991904071813004+61483+021350FM-12+000699999V0202701N011819999999N0000001N9+01171+99999100861ADDGF107991999999999999999999
0029029500999991904071820004+61483+021350FM-12+000699999V0202901N008219999999N0000001N9+01001+99999100481ADDGF108991999999999999999999
0029029500999991904071906004+61483+021350FM-12+000699999V0203601N008219999999N0000001N9+00831+99999100301ADDGF108991999999999999999999
0000029500999991904071913004+61483+021350FM-12+000699999V0200201N009819999999N0000001N9+01001+99999100551
0029029500999991904071920004+61483+021350FM-12+000699999V0203601N006219999999N0000001N9+01061+99999100721ADDGF108991999999999999999999
0029029500999991904072006004+61483+021350FM-12+000699999V0203601N008219999999N0000001N9+01111+99999100801ADDGF106991999999999999999999
0029029500999991904072013004+61483+021350FM-12+000699999V0203401N009819999999N0000001N9+01061+99999100751ADDGF107991999999999999999999
0029029500999991904072020004+61483+021350FM-12+000699999V0203401N011819999999N0000001N9+01001+99999100801ADDGF108991999999999999999999
0029029500999991904072106004+61483+021350FM-12+000699999V0203601N008219999999N0000001N9+01001+99999100761ADDGF108991999999999999999999
0000029500999991904072113004+61483+021350FM-12+000699999V0203601N011819999999N0000001N9+01001+99999100871
0029029500999991904072120004+61483+021350FM-12+000699999V0203601N006219999999N0000001N9+00891+99999101071ADDGF101991999999999999999999
0029029500999991904072206004+61483+021350FM-12+000699999V0203401N006219999999N0000001N9+00941+99999101301ADDGF107991999999999999999999
0029029500999991904072213004+61483+021350FM-12+000699999V0203201N006219999999N0000001N9+01111+99999101431ADDGF102991999999999999999999
0029029500999991904072220004+61483+021350FM-12+000699999V0202701N002119999999N0000001N9+00941+99999101441ADDGF101991999999999999999999
0029029500999991904072306004+61483+021350FM-12+000699999V0209991C000019999999N0000001N9+01111+99999101421ADDGF107991999999999999999999
0029029500999991904072313004+61483+021350FM-12+000699999V0203201N002119999999N0000001N9+01391+99999101431ADDGF101991999999999999999999
0029029500999991904072320004+61483+021350FM-12+000699999V0209991C000019999999N0000001N9+01111+99999101381ADDGF102991999999999999999999
0029029500999991904072406004+61483+021350FM-12+000699999V0202001N004119999999N0000001N9+01171+99999101241ADDGF108991999999999999999999
0000029500999991904072413004+61483+021350FM-12+000699999V0202701N004119999999N0000001N9+01221+99999101181
0029029500999991904072420004+61483+021350FM-12+000699999V0209991C000019999999N0000001N9+01171+99999101021ADDGF107991999999999999999999
0029029500999991904072506004+61483+021350FM-12+000699999V0203601N004119999999N0000001N9+01171+99999100841ADDGF107991999999999999999999
0029029500999991904072513004+61483+021350FM-12+000699999V0203201N006219999999N0000001N9+01221+99999100841ADDGF104991999999999999999999
0029029500999991904072520004+61483+021350FM-12+000699999V0203201N008219999999N0000001N9+01111+99999100781ADDGF102991999999999999999999
0029029500999991904072606004+61483+021350FM-12+000699999V0203201N008219999999N0000001N9+01171+99999100781ADDGF101991999999999999999999
0029029500999991904072613004+61483+021350FM-12+000699999V0203201N011819999999N0000001N9+01281+99999100781ADDGF102991999999999999999999
0029029500999991904072620004+61483+021350FM-12+000699999V0203201N008219999999N0000001N9+01061+99999100901ADDGF101991999999999999999999
0029029500999991904072706004+61483+021350FM-12+000699999V0203401N004119999999N0000001N9+01061+99999101071ADDGF100991999999999999999999
0029029500999991904072713004+61483+021350FM-12+000699999V0203401N009819999999N0000001N9+01221+99999101081ADDGF101991999999999999999999
0029029500999991904072720004+61483+021350FM-12+000699999V0203601N008219999999N0000001N9+00941+99999101241ADDGF101991999999999999999999
0029029500999991904072806004+61483+021350FM-12+000699999V0203601N004119999999N0000001N9+00891+99999101521ADDGF100991999999999999999999
0029029500999991904072813004+61483+021350FM-12+000699999V0203201N006219999999N0000001N9+01171+99999101501ADDGF101991999999999999999999
0029029500999991904072820004+61483+021350FM-12+000699999V0209991C000019999999N0000001N9+01061+99999101381ADDGF102991999999999999999999
0029029500999991904072906004+61483+021350FM-12+000699999V0200901N004119999999N0000001N9+01391+99999101541ADDGF105991999999999999999999
0029029500999991904072913004+61483+021350FM-12+000699999V0203401N008219999999N0000001N9+01331+99999101781ADDGF102991999999999999999999
0029029500999991904072920004+61483+021350FM-12+000699999V0203601N004119999999N0000001N9+01061+99999101911ADDGF100991999999999999999999
0029029500999991904073006004+61483+021350FM-12+000699999V0209991C000019999999N0000001N9+01001+99999102121ADDGF101991999999999999999999
0029029500999991904073013004+61483+021350FM-12+000699999V0202901N004119999999N0000001N9+01501+99999102181ADDGF100991999999999999999999
0029029500999991904073020004+61483+021350FM-12+000699999V0209991C000019999999N0000001N9+01221+99999102161ADDGF101991999999999999999999
0029029500999991904073106004+61483+021350FM-12+000699999V0201801N006219999999N0000001N9+01501+99999102231ADDGF102991999999999999999999
0029029500999991904073113004+61483+021350FM-12+000699999V0202001N006219999999N0000001N9+01721+99999102321ADDGF100991999999999999999999
0029029500999991904073120004+61483+021350FM-12+000699999V0201801N008219999999N0000001N9+01391+99999102281ADDGF101991999999999999999999
0029029500999991904080106004+61483+021350FM-12+000699999V0202001N008219999999N0000001N9+01441+99999102271ADDGF100991999999999999999999
0029029500999991904080113004+61483+021350FM-12+000699999V0202001N009819999999N0000001N9+01781+99999102241ADDGF100991999999999999999999
0029029500999991904080120004+61483+021350FM-12+000699999V0201801N008219999999N0000001N9+01501+99999102101ADDGF101991999999999999999999
0029029500999991904080206004+61483+021350FM-12+000699999V0202001N008219999999N0000001N9+01501+99999102061ADDGF100991999999999999999999
0029029500999991904080213004+61483+021350FM-12+000699999V0202001N008219999999N0000001N9+01831+99999102111ADDGF100991999999999999999999
0029029500999991904080220004+61483+021350FM-12+000699999V0202001N004119999999N0000001N9+01331+99999102141ADDGF105991999999999999999999
0029029500999991904080306004+61483+021350FM-12+000699999V0203601N004119999999N0000001N9+01111+99999102271ADDGF108991999999999999999999
0029029500999991904080313004+61483+021350FM-12+000699999V0203201N004119999999N0000001N9+01501+99999102301ADDGF101991999999999999999999
0029029500999991904080320004+61483+021350FM-12+000699999V0202301N002119999999N0000001N9+01221+99999102181ADDGF108991999999999999999999
0029029500999991904080406004+61483+021350FM-12+000699999V0201601N002119999999N0000001N9+01501+99999101981ADDGF101991999999999999999999
0029029500999991904080413004+61483+021350FM-12+000699999V0203201N006219999999N0000001N9+01671+99999101941ADDGF106991999999999999999999
0029029500999991904080420004+61483+021350FM-12+000699999V0202701N004119999999N0000001N9+01331+99999101981ADDGF101991999999999999999999
0029029500999991904080506004+61483+021350FM-12+000699999V0203201N008219999999N0000001N9+01391+99999101951ADDGF102991999999999999999999
0029029500999991904080513004+61483+021350FM-12+000699999V0203201N006219999999N0000001N9+01501+99999101951ADDGF101991999999999999999999
0029029500999991904080520004+61483+021350FM-12+000699999V0202701N002119999999N0000001N9+01221+99999101901ADDGF102991999999999999999999
0029029500999991904080606004+61483+021350FM-12+000699999V0201101N002119999999N0000001N9+01331+99999101711ADDGF108991999999999999999999
0029029500999991904080613004+61483+021350FM-12+000699999V0202001N009819999999N0000001N9+01941+99999101321ADDGF107991999999999999999999
0029029500999991904080620004+61483+021350FM-12+000699999V0202001N006219999999N0000001N9+01441+99999101041ADDGF108991999999999999999999
0029029500999991904080706004+61483+021350FM-12+000699999V0202301N004119999999N0000001N9+01501+99999100741ADDGF108991999999999999999999
0029029500999991904080713004+61483+021350FM-12+000699999V0203201N004119999999N0000001N9+01331+99999100821ADDGF108991999999999999999999
0029029500999991904080720004+61483+021350FM-12+000699999V0203201N004119999999N0000001N9+01221+99999100721ADDGF108991999999999999999999
0029029500999991904080806004+61483+021350FM-12+000699999V0200201N008219999999N0000001N9+01171+99999100421ADDGF108991999999999999999999
0029029500999991904080813004+61483+021350FM-12+000699999V0200201N009819999999N0000001N9+01221+99999100361ADDGF107991999999999999999999
0029029500999991904080820004+61483+021350FM-12+000699999V0200201N008219999999N0000001N9+01281+99999100351ADDGF108991999999999999999999
0029029500999991904080906004+61483+021350FM-12+000699999V0203601N004119999999N0000001N9+01171+99999100341ADDGF100991999999999999999999
0029029500999991904080913004+61483+021350FM-12+000699999V0203201N006219999999N0000001N9+01331+99999100281ADDGF102991999999999999999999
0029029500999991904080920004+61483+021350FM-12+000699999V0202901N006219999999N0000001N9+01221+99999100181ADDGF102991999999999999999999
0029029500999991904081006004+61483+021350FM-12+000699999V0202901N006219999999N0000001N9+01171+99999100061ADDGF104991999999999999999999
0029029500999991904081013004+61483+021350FM-12+000699999V0203201N006219999999N0000001N9+01281+99999100281ADDGF103991999999999999999999
0029029500999991904081020004+61483+021350FM-12+000699999V0203201N004119999999N0000001N9+01061+99999100381ADDGF102991999999999999999999
0029029500999991904081106004+61483+021350FM-12+000699999V0202701N006219999999N0000001N9+01221+99999100591ADDGF102991999999999999999999
0029029500999991904081113004+61483+021350FM-12+000699999V0202701N004119999999N0000001N9+01391+99999100941ADDGF101991999999999999999999
0029029500999991904081120004+61483+021350FM-12+000699999V0201801N002119999999N0000001N9+01221+99999101061ADDGF108991999999999999999999
0029029500999991904081206004+61483+021350FM-12+000699999V0202001N006219999999N0000001N9+01331+99999101081ADDGF101991999999999999999999
0029029500999991904081213004+61483+021350FM-12+000699999V0202001N008219999999N0000001N9+01671+99999101061ADDGF102991999999999999999999
0029029500999991904081220004+61483+021350FM-12+000699999V0201101N004119999999N0000001N9+01391+99999100661ADDGF108991999999999999999999
0029029500999991904081306004+61483+021350FM-12+000699999V0201401N006219999999N0000001N9+01391+99999099821ADDGF105991999999999999999999
0029029500999991904081313004+61483+021350FM-12+000699999V0203201N002119999999N0000001N9+01281+99999099871ADDGF108991999999999999999999
0029029500999991904081320004+61483+021350FM-12+000699999V0203201N020119999999N0000001N9+01001+99999100231ADDGF108991999999999999999999
0029029500999991904081406004+61483+021350FM-12+000699999V0203201N013919999999N0000001N9+01061+99999100681ADDGF101991999999999999999999
0029029500999991904081413004+61483+021350FM-12+000699999V0202901N008219999999N0000001N9+01111+99999100951ADDGF101991999999999999999999
0029029500999991904081420004+61483+021350FM-12+000699999V0202301N004119999999N0000001N9+00941+99999100981ADDGF101991999999999999999999
0029029500999991904081506004+61483+021350FM-12+000699999V0201601N004119999999N0000001N9+01111+99999100541ADDGF108991999999999999999999
0000029500999991904081513004+61483+021350FM-12+000699999V0201401N008219999999N0000001N9+01391+99999100081
0029029500999991904081520004+61483+021350FM-12+000699999V0201401N006219999999N0000001N9+01221+99999099521ADDGF108991999999999999999999
0029029500999991904081606004+61483+021350FM-12+000699999V0201801N006219999999N0000001N9+01281+99999099471ADDGF102991999999999999999999
0029029500999991904081613004+61483+021350FM-12+000699999V0209991C000019999999N0000001N9+01671+99999099671ADDGF106991999999999999999999
0029029500999991904081620004+61483+021350FM-12+000699999V0201601N002119999999N0000001N9+01281+99999099821ADDGF107991999999999999999999
0029029500999991904081706004+61483+021350FM-12+000699999V0201401N002119999999N0000001N9+01281+99999099941ADDGF108991999999999999999999
0029029500999991904081713004+61483+021350FM-12+000699999V0203601N004119999999N0000001N9+01331+99999100121ADDGF106991999999999999999999
0029029500999991904081720004+61483+021350FM-12+000699999V0203601N002119999999N0000001N9+01221+99999100281ADDGF108991999999999999999999
0029029500999991904081806004+61483+021350FM-12+000699999V0201801N002119999999N0000001N9+01391+99999100521ADDGF108991999999999999999999
0000029500999991904081813004+61483+021350FM-12+000699999V0202001N006219999999N0000001N9+01501+99999100711
0029029500999991904081820004+61483+021350FM-12+000699999V0202301N002119999999N0000001N9+01111+99999100721ADDGF108991999999999999999999
0029029500999991904081906004+61483+021350FM-12+000699999V0200901N006219999999N0000001N9+01111+99999100591ADDGF108991999999999999999999
0000029500999991904081913004+61483+021350FM-12+000699999V0200901N006219999999N0000001N9+01391+99999100161
0029029500999991904081920004+61483+021350FM-12+000699999V0200701N009819999999N0000001N9+01171+99999099711ADDGF108991999999999999999999
0029029500999991904082006004+61483+021350FM-12+000699999V0209991C000019999999N0000001N9+01281+99999099631ADDGF108991999999999999999999
0000029500999991904082013004+61483+021350FM-12+000699999V0202001N009819999999N0000001N9+01281+99999099761
0029029500999991904082020004+61483+021350FM-12+000699999V0202001N004119999999N0000001N9+01111+99999099711ADDGF108991999999999999999999
0029029500999991904082106004+61483+021350FM-12+000699999V0202301N004119999999N0000001N9+01111+99999099741ADDGF108991999999999999999999
0000029500999991904082113004+61483+021350FM-12+000699999V0203201N009819999999N0000001N9+01281+99999099871
0029029500999991904082120004+61483+021350FM-12+000699999V0202501N004119999999N0000001N9+01171+99999100111ADDGF108991999999999999999999
0029029500999991904082206004+61483+021350FM-12+000699999V0203201N004119999999N0000001N9+01221+99999100241ADDGF106991999999999999999999
0029029500999991904082213004+61483+021350FM-12+000699999V0202901N004119999999N0000001N9+01331+99999100541ADDGF102991999999999999999999
0029029500999991904082220004+61483+021350FM-12+000699999V0202501N004119999999N0000001N9+01171+99999100641ADDGF102991999999999999999999
0029029500999991904082306004+61483+021350FM-12+000699999V0202501N002119999999N0000001N9+01221+99999100681ADDGF103991999999999999999999
0029029500999991904082313004+61483+021350FM-12+000699999V0202701N004119999999N0000001N9+01331+99999100761ADDGF102991999999999999999999
0029029500999991904082320004+61483+021350FM-12+000699999V0202501N002119999999N0000001N9+01171+99999100801ADDGF102991999999999999999999
0029029500999991904082406004+61483+021350FM-12+000699999V0200501N004119999999N0000001N9+01171+99999100861ADDGF108991999999999999999999
0029029500999991904082413004+61483+021350FM-12+000699999V0203401N008219999999N0000001N9+01391+99999101231ADDGF104991999999999999999999
0029029500999991904082420004+61483+021350FM-12+000699999V0200501N006219999999N0000001N9+01281+99999100921ADDGF101991999999999999999999
0029029500999991904082506004+61483+021350FM-12+000699999V0200501N008219999999N0000001N9+01001+99999100801ADDGF108991999999999999999999
0029029500999991904082513004+61483+021350FM-12+000699999V0203601N008219999999N0000001N9+01331+99999100681ADDGF102991999999999999999999
0029029500999991904082520004+61483+021350FM-12+000699999V0203601N009819999999N0000001N9+01221+99999100661ADDGF102991999999999999999999
0029029500999991904082606004+61483+021350FM-12+000699999V0203601N009819999999N0000001N9+01061+99999100661ADDGF101991999999999999999999
0029029500999991904082613004+61483+021350FM-12+000699999V0203401N011819999999N0000001N9+01171+99999100821ADDGF101991999999999999999999
0029029500999991904082620004+61483+021350FM-12+000699999V0203601N008219999999N0000001N9+01061+99999101041ADDGF102991999999999999999999
0029029500999991904082706004+61483+021350FM-12+000699999V0201601N006219999999N0000001N9+01061+99999101301ADDGF107991999999999999999999
0000029500999991904082713004+61483+021350FM-12+000699999V0202301N002119999999N0000001N9+01331+99999101461
0029029500999991904082720004+61483+021350FM-12+000699999V0201401N006219999999N0000001N9+01221+99999101541ADDGF108991999999999999999999
0029029500999991904082806004+61483+021350FM-12+000699999V0201401N008219999999N0000001N9+01061+99999101501ADDGF108991999999999999999999
0000029500999991904082813004+61483+021350FM-12+000699999V0202001N004119999999N0000001N9+01111+99999101621
0029029500999991904082820004+61483+021350FM-12+000699999V0201401N006219999999N0000001N9+01171+99999101701ADDGF107991999999999999999999
0029029500999991904082906004+61483+021350FM-12+000699999V0201401N004119999999N0000001N9+01221+99999101711ADDGF108991999999999999999999
0029029500999991904082913004+61483+021350FM-12+000699999V0201401N002119999999N0000001N9+01331+99999101751ADDGF108991999999999999999999
0029029500999991904082920004+61483+021350FM-12+000699999V0200501N006219999999N0000001N9+01171+99999101671ADDGF101991999999999999999999
0029029500999991904083006004+61483+021350FM-12+000699999V0203601N009819999999N0000001N9+01061+99999101431ADDGF108991999999999999999999
0029029500999991904083013004+61483+021350FM-12+000699999V0203401N015919999999N0000001N9+01061+99999101191ADDGF108991999999999999999999
0029029500999991904083020004+61483+021350FM-12+000699999V0203601N011819999999N0000001N9+00941+99999101111ADDGF102991999999999999999999
0029029500999991904083106004+61483+021350FM-12+000699999V0203601N008219999999N0000001N9+00891+99999101021ADDGF105991999999999999999999
0000029500999991904083113004+61483+021350FM-12+000699999V0203601N009819999999N0000001N9+00891+99999100991
0029029500999991904083120004+61483+021350FM-12+000699999V0203601N004119999999N0000001N9+00891+99999101141ADDGF108991999999999999999999
0029029500999991904090106004+61483+021350FM-12+000699999V0203601N004119999999N0000001N9+00831+99999101311ADDGF108991999999999999999999
0029029500999991904090113004+61483+021350FM-12+000699999V0203601N004119999999N0000001N9+01001+99999101551ADDGF108991999999999999999999
0029029500999991904090120004+61483+021350FM-12+000699999V0203601N002119999999N0000001N9+00891+99999101741ADDGF108991999999999999999999
0029029500999991904090206004+61483+021350FM-12+000699999V0200201N004119999999N0000001N9+00891+99999101941ADDGF108991999999999999999999
0029029500999991904090213004+61483+021350FM-12+000699999V0203401N006219999999N0000001N9+00941+99999101881ADDGF108991999999999999999999
0029029500999991904090220004+61483+021350FM-12+000699999V0203401N004119999999N0000001N9+00891+99999101761ADDGF108991999999999999999999
0029029500999991904090306004+61483+021350FM-12+000699999V0203401N002119999999N0000001N9+00891+99999101661ADDGF108991999999999999999999
0029029500999991904090313004+61483+021350FM-12+000699999V0202701N002119999999N0000001N9+01061+99999101721ADDGF102991999999999999999999
0029029500999991904090320004+61483+021350FM-12+000699999V0201401N002119999999N0000001N9+00721+99999101541ADDGF101991999999999999999999
0029029500999991904090406004+61483+021350FM-12+000699999V0201401N006219999999N0000001N9+01001+99999101461ADDGF108991999999999999999999
0029029500999991904090413004+61483+021350FM-12+000699999V0202001N004119999999N0000001N9+01391+99999101541ADDGF108991999999999999999999
0029029500999991904090420004+61483+021350FM-12+000699999V0202001N006219999999N0000001N9+01061+99999101641ADDGF108991999999999999999999
0029029500999991904090506004+61483+021350FM-12+000699999V0202001N004119999999N0000001N9+01001+99999102071ADDGF108991999999999999999999
0029029500999991904090513004+61483+021350FM-12+000699999V0202001N002119999999N0000001N9+01391+99999102231ADDGF104991999999999999999999
0029029500999991904090520004+61483+021350FM-12+000699999V0202301N004119999999N0000001N9+01001+99999102321ADDGF108991999999999999999999
0029029500999991904090606004+61483+021350FM-12+000699999V0202001N004119999999N0000001N9+01111+99999102501ADDGF104991999999999999999999
0029029500999991904090613004+61483+021350FM-12+000699999V0202301N004119999999N0000001N9+01391+99999102601ADDGF102991999999999999999999
0029029500999991904090620004+61483+021350FM-12+000699999V0201801N002119999999N0000001N9+01001+99999102661ADDGF101991999999999999999999
0029029500999991904090706004+61483+021350FM-12+000699999V0201801N002119999999N0000001N9+01061+99999102761ADDGF101991999999999999999999
0029029500999991904090713004+61483+021350FM-12+000699999V0202001N002119999999N0000001N9+01501+99999102871ADDGF101991999999999999999999
0029029500999991904090720004+61483+021350FM-12+000699999V0201401N002119999999N0000001N9+01061+99999102741ADDGF101991999999999999999999
0029029500999991904090806004+61483+021350FM-12+000699999V0201601N004119999999N0000001N9+01001+99999102601ADDGF103991999999999999999999
0029029500999991904090813004+61483+021350FM-12+000699999V0201801N004119999999N0000001N9+01671+99999102321ADDGF104991999999999999999999
0029029500999991904090820004+61483+021350FM-12+000699999V0201601N006219999999N0000001N9+01221+99999102031ADDGF101991999999999999999999
