0029029600999991904010106004+61183+022617FM-12+005199999V0203201N002119999999N0000001N9-00171+99999101271ADDGF108991999999999999999999
0029029600999991904010113004+61183+022617FM-12+005199999V0203201N002119999999N0000001N9-00391+99999101421ADDGF103991999999999999999999
0029029600999991904010120004+61183+022617FM-12+005199999V0203201N002119999999N0000001N9-00671+99999101751ADDGF100991999999999999999999
0029029600999991904010206004+61183+022617FM-12+005199999V0209991C000019999999N0000001N9-01221+99999102181ADDGF100991999999999999999999
0029029600999991904010213004+61183+022617FM-12+005199999V0209991C000019999999N0000001N9-01111+99999102361ADDGF100991999999999999999999
0029029600999991904010220004+61183+022617FM-12+005199999V0209991C000019999999N0000001N9-01441+99999102481ADDGF100991999999999999999999
0029029600999991904010306004+61183+022617FM-12+005199999V0201601N001019999999N0000001N9-00501+99999102481ADDGF108991999999999999999999
0029029600999991904010313004+61183+022617FM-12+005199999V0202301N002119999999N0000001N9-00331+99999102511ADDGF108991999999999999999999
0029029600999991904010320004+61183+022617FM-12+005199999V0202001N003119999999N0000001N9-00331+99999102481ADDGF108991999999999999999999
0029029600999991904010406004+61183+022617FM-12+005199999V0202301N002119999999N0000001N9-00171+99999102281ADDGF108991999999999999999999
0029029600999991904010413004+61183+022617FM-12+005199999V0202301N005119999999N0000001N9-00111+99999102321ADDGF108991999999999999999999
0029029600999991904010420004+61183+022617FM-12+005199999V0202301N007219999999N0000001N9-00171+99999102341ADDGF108991999999999999999999
0029029600999991904010506004+61183+022617FM-12+005199999V0201801N003119999999N0000001N9-00281+99999102341ADDGF108991999999999999999999
0029029600999991904010513004+61183+022617FM-12+005199999V0201601N004119999999N0000001N9-00331+99999102361ADDGF108991999999999999999999
0029029600999991904010520004+61183+022617FM-12+005199999V0201601N005119999999N0000001N9-00331+99999102351ADDGF108991999999999999999999
0029029600999991904010606004+61183+022617FM-12+005199999V0201801N007219999999N0000001N9-00331+99999102121ADDGF108991999999999999999999
0029029600999991904010613004+61183+022617FM-12+005199999V0201801N004119999999N0000001N9-00221+99999102041ADDGF108991999999999999999999
0029029600999991904010620004+61183+022617FM-12+005199999V0201801N002119999999N0000001N9-00281+99999102101ADDGF108991999999999999999999
0029029600999991904010706004+61183+022617FM-12+005199999V0202301N003119999999N0000001N9-00331+99999102101ADDGF108991999999999999999999
0029029600999991904010713004+61183+022617FM-12+005199999V0201601N005119999999N0000001N9-00391+99999102121ADDGF108991999999999999999999
0029029600999991904010720004+61183+022617FM-12+005199999V0201601N007219999999N0000001N9-00391+99999101941ADDGF108991999999999999999999
0035029600999991904010806004+61183+022617FM-12+005199999V0201601N008719999999N0000001N9-00331+99999101581ADDGF108991999999999999999999MW1721
0029029600999991904010813004+61183+022617FM-12+005199999V0201801N008719999999N0000001N9-00441+99999101341ADDGF108991999999999999999999
0029029600999991904010820004+61183+022617FM-12+005199999V0201801N007219999999N0000001N9-00441+99999101021ADDGF108991999999999999999999
0029029600999991904010906004+61183+022617FM-12+005199999V0201801N001019999999N0000001N9-00331+99999101001ADDGF108991999999999999999999
0035029600999991904010913004+61183+022617FM-12+005199999V0201801N008219999999N0000001N9-00441+99999101031ADDGF108991999999999999999999MW1721
0035029600999991904010920004+61183+022617FM-12+005199999V0202301N005119999999N0000001N9-00441+99999100671ADDGF108991999999999999999999MW1721
0029029600999991904011006004+61183+022617FM-12+005199999V0202301N006219999999N0000001N9-00061+99999100071ADDGF108991999999999999999999
0029029600999991904011013004+61183+022617FM-12+005199999V0202301N010819999999N0000001N9+00111+99999100621ADDGF108991999999999999999999
0029029600999991904011020004+61183+022617FM-12+005199999V0202001N007219999999N0000001N9+00111+99999101031ADDGF108991999999999999999999
0029029600999991904011106004+61183+022617FM-12+005199999V0202001N007219999999N0000001N9+00061+99999100901ADDGF102991999999999999999999
0029029600999991904011113004+61183+022617FM-12+005199999V0202001N011819999999N0000001N9+00221+99999100741ADDGF108991999999999999999999
0035029600999991904011120004+61183+022617FM-12+005199999V0201801N009819999999N0000001N9+00111+99999100601ADDGF108991999999999999999999MW1621
0035029600999991904011206004+61183+022617FM-12+005199999V0201801N006219999999N0000001N9+00001+99999100121ADDGF108991999999999999999999MW1691
0029029600999991904011213004+61183+022617FM-12+005199999V0201601N008219999999N0000001N9-00111+99999099781ADDGF108991999999999999999999
0029029600999991904011220004+61183+022617FM-12+005199999V0201601N008219999999N0000001N9-00221+99999099441ADDGF108991999999999999999999
0035029600999991904011306004+61183+022617FM-12+005199999V0201101N005119999999N0000001N9-00331+99999098881ADDGF108991999999999999999999MW1721
0029029600999991904011313004+61183+022617FM-12+005199999V0201801N003119999999N0000001N9-00111+99999098921ADDGF108991999999999999999999
0029029600999991904011320004+61183+022617FM-12+005199999V0201401N002119999999N0000001N9-00111+99999098881ADDGF108991999999999999999999
0029029600999991904011406004+61183+022617FM-12+005199999V0200901N009819999999N0000001N9-00221+99999098201ADDGF108991999999999999999999
0035029600999991904011413004+61183+022617FM-12+005199999V0200901N011819999999N0000001N9-00331+99999097641ADDGF108991999999999999999999MW1721
0035029600999991904011420004+61183+022617FM-12+005199999V0201101N006219999999N0000001N9-00561+99999097441ADDGF108991999999999999999999MW1721
0029029600999991904011506004+61183+022617FM-12+005199999V0201101N005119999999N0000001N9-00331+99999097721ADDGF108991999999999999999999
0029029600999991904011513004+61183+022617FM-12+005199999V0200901N006219999999N0000001N9-00281+99999097991ADDGF108991999999999999999999
0029029600999991904011520004+61183+022617FM-12+005199999V0200901N004119999999N0000001N9-00441+99999098281ADDGF108991999999999999999999
0029029600999991904011606004+61183+022617FM-12+005199999V0200901N005119999999N0000001N9-00561+99999098541ADDGF108991999999999999999999
0035029600999991904011613004+61183+022617FM-12+005199999V0200701N005119999999N0000001N9-00561+99999098761ADDGF108991999999999999999999MW1721
0035029600999991904011620004+61183+022617FM-12+005199999V0200701N003119999999N0000001N9-00611+99999099041ADDGF108991999999999999999999MW1721
0029029600999991904011706004+61183+022617FM-12+005199999V0200701N003119999999N0000001N9-00671+99999099461ADDGF108991999999999999999999
0009029600999991904011713004+61183+022617FM-12+005199999V0200201N005119999999N0000001N9-00611+99999099821ADDMW1721
0029029600999991904011720004+61183+022617FM-12+005199999V0203601N002119999999N0000001N9-00891+99999100191ADDGF100991999999999999999999
0029029600999991904011806004+61183+022617FM-12+005199999V0203401N003119999999N0000001N9-01671+99999100961ADDGF102991999999999999999999
0029029600999991904011813004+61183+022617FM-12+005199999V0203201N001019999999N0000001N9-01671+99999101641ADDGF108991999999999999999999
0029029600999991904011820004+61183+022617FM-12+005199999V0201801N001019999999N0000001N9-00941+99999101831ADDGF108991999999999999999999
0029029600999991904011906004+61183+022617FM-12+005199999V0202301N005119999999N0000001N9-00331+99999101781ADDGF108991999999999999999999
0029029600999991904011913004+61183+022617FM-12+005199999V0202701N008219999999N0000001N9-00171+99999101991ADDGF108991999999999999999999
0029029600999991904011920004+61183+022617FM-12+005199999V0202701N005119999999N0000001N9-00111+99999102241ADDGF108991999999999999999999
0029029600999991904012006004+61183+022617FM-12+005199999V0202301N004119999999N0000001N9-00111+99999102481ADDGF108991999999999999999999
0000029600999991904012013004+61183+022617FM-12+005199999V0202301N005119999999N0000001N9-00221+99999102441
0029029600999991904012020004+61183+022617FM-12+005199999V0202301N006219999999N0000001N9-00171+99999102041ADDGF108991999999999999999999
0029029600999991904012106004+61183+022617FM-12+005199999V0202301N008719999999N0000001N9+00061+99999101191ADDGF108991999999999999999999
0029029600999991904012113004+61183+022617FM-12+005199999V0202301N007219999999N0000001N9+00061+99999100911ADDGF108991999999999999999999
0029029600999991904012120004+61183+022617FM-12+005199999V0202701N007219999999N0000001N9+00061+99999101081ADDGF100991999999999999999999
0029029600999991904012206004+61183+022617FM-12+005199999V0202701N007219999999N0000001N9-00611+99999101861ADDGF100991999999999999999999
0029029600999991904012220004+61183+022617FM-12+005199999V0202301N008719999999N0000001N9-00221+99999100701ADDGF108991999999999999999999
0035029600999991904012306004+61183+022617FM-12+005199999V0202901N013919999999N0000001N9+00441+99999100021ADDGF106991999999999999999999MW1621
0029029600999991904012313004+61183+022617FM-12+005199999V0202901N002119999999N0000001N9+00611+99999100031ADDGF108991999999999999999999
0029029600999991904012320004+61183+022617FM-12+005199999V0202701N010819999999N0000001N9+00441+99999099921ADDGF108991999999999999999999
0029029600999991904012406004+61183+022617FM-12+005199999V0202901N012919999999N0000001N9+00331+99999100741ADDGF104991999999999999999999
0029029600999991904012413004+61183+022617FM-12+005199999V0202301N005119999999N0000001N9+00331+99999101031ADDGF107991999999999999999999
0029029600999991904012420004+61183+022617FM-12+005199999V0202301N008719999999N0000001N9+00171+99999100821ADDGF101991999999999999999999
0029029600999991904012506004+61183+022617FM-12+005199999V0202701N005119999999N0000001N9-00111+99999100721ADDGF100991999999999999999999
0029029600999991904012513004+61183+022617FM-12+005199999V0202301N004119999999N0000001N9+00171+99999100951ADDGF102991999999999999999999
0029029600999991904012520004+61183+022617FM-12+005199999V0202001N004119999999N0000001N9-00171+99999101071ADDGF108991999999999999999999
0029029600999991904012606004+61183+022617FM-12+005199999V0202001N005119999999N0000001N9-00061+99999100921ADDGF108991999999999999999999
0029029600999991904012613004+61183+022617FM-12+005199999V0202301N006219999999N0000001N9-00111+99999100791ADDGF108991999999999999999999
0029029600999991904012620004+61183+022617FM-12+005199999V0202301N007219999999N0000001N9+00001+99999100821ADDGF108991999999999999999999
0029029600999991904012706004+61183+022617FM-12+005199999V0202301N005119999999N0000001N9-00061+99999101161ADDGF108991999999999999999999
0029029600999991904012713004+61183+022617FM-12+005199999V0202301N005119999999N0000001N9+00111+99999101351ADDGF108991999999999999999999
0029029600999991904012720004+61183+022617FM-12+005199999V0202301N008219999999N0000001N9+00061+99999101361ADDGF102991999999999999999999
0029029600999991904012806004+61183+022617FM-12+005199999V0202001N004119999999N0000001N9+00061+99999101311ADDGF108991999999999999999999
0029029600999991904012813004+61183+022617FM-12+005199999V0202001N012919999999N0000001N9+00171+99999101191ADDGF108991999999999999999999
0029029600999991904012820004+61183+022617FM-12+005199999V0202001N012919999999N0000001N9+00221+99999101151ADDGF108991999999999999999999
0029029600999991904012906004+61183+022617FM-12+005199999V0201801N014919999999N0000001N9+00061+99999100911ADDGF108991999999999999999999
0029029600999991904012913004+61183+022617FM-12+005199999V0202001N012919999999N0000001N9-00171+99999100641ADDGF108991999999999999999999
0035029600999991904012920004+61183+022617FM-12+005199999V0201801N008219999999N0000001N9-00111+99999100641ADDGF108991999999999999999999MW1721
0029029600999991904013006004+61183+022617FM-12+005199999V0202001N005119999999N0000001N9+00061+99999100911ADDGF108991999999999999999999
0029029600999991904013013004+61183+022617FM-12+005199999V0202701N005119999999N0000001N9+00171+99999101241ADDGF108991999999999999999999
0029029600999991904013020004+61183+022617FM-12+005199999V0202701N002119999999N0000001N9+00061+99999101511ADDGF108991999999999999999999
0029029600999991904013106004+61183+022617FM-12+005199999V0201401N003119999999N0000001N9+00001+99999101711ADDGF108991999999999999999999
0029029600999991904013113004+61183+022617FM-12+005199999V0201601N003119999999N0000001N9+00061+99999101871ADDGF108991999999999999999999
0029029600999991904013120004+61183+022617FM-12+005199999V0201601N007219999999N0000001N9-00171+99999101861ADDGF108991999999999999999999
0029029600999991904020106004+61183+022617FM-12+005199999V0201401N003119999999N0000001N9-00391+99999101871ADDGF108991999999999999999999
0029029600999991904020113004+61183+022617FM-12+005199999V0201401N004119999999N0000001N9-00501+99999101911ADDGF108991999999999999999999
0029029600999991904020120004+61183+022617FM-12+005199999V0201401N004119999999N0000001N9-00441+99999101941ADDGF108991999999999999999999
0029029600999991904020206004+61183+022617FM-12+005199999V0201401N002119999999N0000001N9-00441+99999101871ADDGF108991999999999999999999
0035029600999991904020213004+61183+022617FM-12+005199999V0202001N003119999999N0000001N9-00391+99999101921ADDGF108991999999999999999999MW1721
0029029600999991904020220004+61183+022617FM-12+005199999V0201601N004119999999N0000001N9-00501+99999101621ADDGF108991999999999999999999
0029029600999991904020306004+61183+022617FM-12+005199999V0201101N003119999999N0000001N9-00781+99999101061ADDGF108991999999999999999999
0035029600999991904020313004+61183+022617FM-12+005199999V0200901N003119999999N0000001N9-00611+99999100661ADDGF108991999999999999999999MW1721
0035029600999991904020320004+61183+022617FM-12+005199999V0200701N004119999999N0000001N9-00781+99999100201ADDGF108991999999999999999999MW1721
0029029600999991904020406004+61183+022617FM-12+005199999V0200501N005119999999N0000001N9-00831+99999099991ADDGF108991999999999999999999
0029029600999991904020413004+61183+022617FM-12+005199999V0200701N003119999999N0000001N9-00891+99999100361ADDGF104991999999999999999999
0029029600999991904020420004+61183+022617FM-12+005199999V0203401N001019999999N0000001N9-01781+99999100351ADDGF100991999999999999999999
0029029600999991904020506004+61183+022617FM-12+005199999V0200701N002119999999N0000001N9-01061+99999100591ADDGF108991999999999999999999
0029029600999991904020513004+61183+022617FM-12+005199999V0200701N004119999999N0000001N9-00941+99999100991ADDGF108991999999999999999999
0029029600999991904020520004+61183+022617FM-12+005199999V0201101N001019999999N0000001N9-01721+99999101311ADDGF100991999999999999999999
0029029600999991904020606004+61183+022617FM-12+005199999V0201101N003119999999N0000001N9-01781+99999101391ADDGF108991999999999999999999
0029029600999991904020613004+61183+022617FM-12+005199999V0200901N006219999999N0000001N9-01331+99999101281ADDGF108991999999999999999999
0029029600999991904020620004+61183+022617FM-12+005199999V0200901N008219999999N0000001N9-01441+99999101021ADDGF108991999999999999999999
0029029600999991904020706004+61183+022617FM-12+005199999V0200701N008719999999N0000001N9-01171+99999100221ADDGF108991999999999999999999
0035029600999991904020713004+61183+022617FM-12+005199999V0200501N007219999999N0000001N9-00941+99999099751ADDGF108991999999999999999999MW1721
0035029600999991904020720004+61183+022617FM-12+005199999V0200701N010819999999N0000001N9-01001+99999099521ADDGF108991999999999999999999MW1721
0035029600999991904020806004+61183+022617FM-12+005199999V0200501N007219999999N0000001N9-01281+99999099301ADDGF108991999999999999999999MW1721
0035029600999991904020813004+61183+022617FM-12+005199999V0200501N005119999999N0000001N9-01111+99999099381ADDGF108991999999999999999999MW1721
0029029600999991904020820004+61183+022617FM-12+005199999V0200501N005119999999N0000001N9-01111+99999099461ADDGF108991999999999999999999
0029029600999991904020906004+61183+022617FM-12+005199999V0200201N001019999999N0000001N9-01611+99999099661ADDGF107991999999999999999999
0029029600999991904020913004+61183+022617FM-12+005199999V0203601N004119999999N0000001N9-01611+99999099741ADDGF100991999999999999999999
0029029600999991904020920004+61183+022617FM-12+005199999V0203601N001019999999N0000001N9-02171+99999099721ADDGF100991999999999999999999
0029029600999991904021006004+61183+022617FM-12+005199999V0200501N002119999999N0000001N9-02671+99999099601ADDGF100991999999999999999999
0029029600999991904021013004+61183+022617FM-12+005199999V0201101N006219999999N0000001N9-01721+99999099781ADDGF101991999999999999999999
0029029600999991904021020004+61183+022617FM-12+005199999V0200701N005119999999N0000001N9-02001+99999099481ADDGF106991999999999999999999
0029029600999991904021106004+61183+022617FM-12+005199999V0200901N008219999999N0000001N9-01831+99999098951ADDGF108991999999999999999999
0035029600999991904021113004+61183+022617FM-12+005199999V0200901N010819999999N0000001N9-01221+99999098351ADDGF108991999999999999999999MW1721
0035029600999991904021120004+61183+022617FM-12+005199999V0200901N008719999999N0000001N9-00941+99999097861ADDGF108991999999999999999999MW1721
0035029600999991904021206004+61183+022617FM-12+005199999V0200901N008219999999N0000001N9-00831+99999097751ADDGF108991999999999999999999MW1721
0035029600999991904021213004+61183+022617FM-12+005199999V0200201N007219999999N0000001N9-00781+99999098121ADDGF108991999999999999999999MW1721
0035029600999991904021220004+61183+022617FM-12+005199999V0203401N008719999999N0000001N9-01111+99999098911ADDGF108991999999999999999999MW1721
0029029600999991904021306004+61183+022617FM-12+005199999V0202901N005119999999N0000001N9-01611+99999099741ADDGF106991999999999999999999
0029029600999991904021313004+61183+022617FM-12+005199999V0203601N001019999999N0000001N9-01331+99999099751ADDGF106991999999999999999999
0029029600999991904021320004+61183+022617FM-12+005199999V0200901N004119999999N0000001N9-01561+99999099401ADDGF108991999999999999999999
0035029600999991904021406004+61183+022617FM-12+005199999V0201101N006219999999N0000001N9-01061+99999098741ADDGF108991999999999999999999MW1721
0035029600999991904021413004+61183+022617FM-12+005199999V0201101N003119999999N0000001N9-00561+99999098551ADDGF108991999999999999999999MW1721
0035029600999991904021420004+61183+022617FM-12+005199999V0201101N006219999999N0000001N9-00561+99999098551ADDGF108991999999999999999999MW1721
0029029600999991904021506004+61183+022617FM-12+005199999V0201101N003119999999N0000001N9-00281+99999098671ADDGF108991999999999999999999
0029029600999991904021513004+61183+022617FM-12+005199999V0201101N003119999999N0000001N9+00061+99999098821ADDGF108991999999999999999999
0029029600999991904021520004+61183+022617FM-12+005199999V0200701N009819999999N0000001N9-00561+99999098861ADDGF108991999999999999999999
0029029600999991904021606004+61183+022617FM-12+005199999V0200501N005119999999N0000001N9-00941+99999098801ADDGF108991999999999999999999
0029029600999991904021613004+61183+022617FM-12+005199999V0200201N006219999999N0000001N9-00891+99999098701ADDGF108991999999999999999999
0035029600999991904021620004+61183+022617FM-12+005199999V0200901N006219999999N0000001N9-01001+99999098671ADDGF108991999999999999999999MW1721
0029029600999991904021706004+61183+022617FM-12+005199999V0203601N006219999999N0000001N9-01221+99999098821ADDGF108991999999999999999999
0029029600999991904021713004+61183+022617FM-12+005199999V0203201N005119999999N0000001N9-01171+99999099101ADDGF108991999999999999999999
0029029600999991904021720004+61183+022617FM-12+005199999V0200701N002119999999N0000001N9-01171+99999099361ADDGF108991999999999999999999
0029029600999991904021806004+61183+022617FM-12+005199999V0200901N004119999999N0000001N9-01061+99999099511ADDGF108991999999999999999999
0029029600999991904021813004+61183+022617FM-12+005199999V0200901N006219999999N0000001N9-00611+99999099501ADDGF108991999999999999999999
0029029600999991904021820004+61183+022617FM-12+005199999V0200901N006219999999N0000001N9-00501+99999099261ADDGF108991999999999999999999
0029029600999991904021906004+61183+022617FM-12+005199999V0200901N002119999999N0000001N9-00281+99999099241ADDGF108991999999999999999999
0035029600999991904021913004+61183+022617FM-12+005199999V0200201N005119999999N0000001N9-00061+99999099271ADDGF108991999999999999999999MW1721
0029029600999991904021920004+61183+022617FM-12+005199999V0203601N008719999999N0000001N9-00441+99999099181ADDGF108991999999999999999999
0035029600999991904022006004+61183+022617FM-12+005199999V0203201N006219999999N0000001N9-00671+99999098711ADDGF108991999999999999999999MW1721
0029029600999991904022013004+61183+022617FM-12+005199999V0202901N004119999999N0000001N9-00561+99999098341ADDGF108991999999999999999999
0029029600999991904022020004+61183+022617FM-12+005199999V0202001N005119999999N0000001N9-00561+99999097831ADDGF108991999999999999999999
0029029600999991904022106004+61183+022617FM-12+005199999V0200501N002119999999N0000001N9-00721+99999097541ADDGF108991999999999999999999
0029029600999991904022113004+61183+022617FM-12+005199999V0203601N004119999999N0000001N9-00281+99999098021ADDGF108991999999999999999999
0029029600999991904022120004+61183+022617FM-12+005199999V0201401N002119999999N0000001N9-00781+99999098541ADDGF108991999999999999999999
0029029600999991904022206004+61183+022617FM-12+005199999V0201801N003119999999N0000001N9-00441+99999098951ADDGF108991999999999999999999
0035029600999991904022213004+61183+022617FM-12+005199999V0201801N003119999999N0000001N9+00111+99999099321ADDGF108991999999999999999999MW1721
0029029600999991904022220004+61183+022617FM-12+005199999V0200201N008219999999N0000001N9-00171+99999100151ADDGF100991999999999999999999
0029029600999991904022306004+61183+022617FM-12+005199999V0200201N009819999999N0000001N9-00441+99999101261ADDGF108991999999999999999999
0029029600999991904022313004+61183+022617FM-12+005199999V0200201N008219999999N0000001N9-00281+99999101761ADDGF108991999999999999999999
0029029600999991904022320004+61183+022617FM-12+005199999V0200201N006219999999N0000001N9-00561+99999102151ADDGF102991999999999999999999
0029029600999991904022406004+61183+022617FM-12+005199999V0200501N005119999999N0000001N9-00781+99999102541ADDGF108991999999999999999999
0029029600999991904022413004+61183+022617FM-12+005199999V0200501N006219999999N0000001N9-00441+99999102781ADDGF101991999999999999999999
0029029600999991904022420004+61183+022617FM-12+005199999V0203601N003119999999N0000001N9-01111+99999103031ADDGF100991999999999999999999
0029029600999991904022506004+61183+022617FM-12+005199999V0200501N004119999999N0000001N9-00941+99999103111ADDGF108991999999999999999999
0029029600999991904022513004+61183+022617FM-12+005199999V0200701N004119999999N0000001N9-00891+99999103101ADDGF107991999999999999999999
0029029600999991904022520004+61183+022617FM-12+005199999V0201401N001019999999N0000001N9-01891+99999103111ADDGF100991999999999999999999
0029029600999991904022606004+61183+022617FM-12+005199999V0200501N001019999999N0000001N9-02391+99999103021ADDGF100991999999999999999999
0029029600999991904022613004+61183+022617FM-12+005199999V0200701N005119999999N0000001N9-01221+99999102961ADDGF100991999999999999999999
0029029600999991904022620004+61183+022617FM-12+005199999V0200701N001019999999N0000001N9-02061+99999102871ADDGF100991999999999999999999
0029029600999991904022706004+61183+022617FM-12+005199999V0200201N001019999999N0000001N9-02781+99999102741ADDGF101991999999999999999999
0029029600999991904022713004+61183+022617FM-12+005199999V0203401N004119999999N0000001N9-01221+99999102641ADDGF106991999999999999999999
0029029600999991904022720004+61183+022617FM-12+005199999V0200501N002119999999N0000001N9-01831+99999102621ADDGF100991999999999999999999
0029029600999991904022806004+61183+022617FM-12+005199999V0209991C000019999999N0000001N9-02721+99999102701ADDGF101991999999999999999999
0029029600999991904022813004+61183+022617FM-12+005199999V0203401N002119999999N0000001N9-01171+99999102721ADDGF100991999999999999999999
0029029600999991904022820004+61183+022617FM-12+005199999V0202901N001019999999N0000001N9-01781+99999102721ADDGF100991999999999999999999
0029029600999991904022906004+61183+022617FM-12+005199999V0201401N002119999999N0000001N9-01831+99999102701ADDGF102991999999999999999999
0029029600999991904022913004+61183+022617FM-12+005199999V0201601N002119999999N0000001N9-00831+99999102741ADDGF101991999999999999999999
0029029600999991904022920004+61183+022617FM-12+005199999V0201401N004119999999N0000001N9-01001+99999102821ADDGF108991999999999999999999
0029029600999991904030106004+61183+022617FM-12+005199999V0200901N005119999999N0000001N9-01671+99999102911ADDGF102991999999999999999999
0029029600999991904030113004+61183+022617FM-12+005199999V0201101N004119999999N0000001N9-01001+99999102951ADDGF107991999999999999999999
0029029600999991904030120004+61183+022617FM-12+005199999V0200501N003119999999N0000001N9-01331+99999102991ADDGF108991999999999999999999
0029029600999991904030206004+61183+022617FM-12+005199999V0200201N001019999999N0000001N9-01441+99999102991ADDGF107991999999999999999999
0029029600999991904030213004+61183+022617FM-12+005199999V0200501N003119999999N0000001N9-00561+99999103121ADDGF102991999999999999999999
0029029600999991904030220004+61183+022617FM-12+005199999V0200501N005119999999N0000001N9-00561+99999103321ADDGF106991999999999999999999
0035029600999991904030306004+61183+022617FM-12+005199999V0200901N007219999999N0000001N9-00561+99999103441ADDGF108991999999999999999999MW1721
0029029600999991904030313004+61183+022617FM-12+005199999V0201101N008219999999N0000001N9-00441+99999103581ADDGF102991999999999999999999
0029029600999991904030320004+61183+022617FM-12+005199999V0201101N007219999999N0000001N9-00941+99999103681ADDGF103991999999999999999999
0029029600999991904030406004+61183+022617FM-12+005199999V0200701N003119999999N0000001N9-01611+99999103741ADDGF100991999999999999999999
0029029600999991904030413004+61183+022617FM-12+005199999V0201101N004119999999N0000001N9-00501+99999103601ADDGF100991999999999999999999
0029029600999991904030420004+61183+022617FM-12+005199999V0200901N003119999999N0000001N9-01221+99999103621ADDGF100991999999999999999999
0029029600999991904030506004+61183+022617FM-12+005199999V0200701N001019999999N0000001N9-02111+99999103441ADDGF102991999999999999999999
0029029600999991904030513004+61183+022617FM-12+005199999V0203401N003119999999N0000001N9-00941+99999103241ADDGF100991999999999999999999
0029029600999991904030520004+61183+022617FM-12+005199999V0200501N001019999999N0000001N9-01611+99999103081ADDGF100991999999999999999999
0029029600999991904030606004+61183+022617FM-12+005199999V0201101N001019999999N0000001N9-02441+99999103021ADDGF100991999999999999999999
0029029600999991904030613004+61183+022617FM-12+005199999V0203601N003119999999N0000001N9-00891+99999103061ADDGF100991999999999999999999
0029029600999991904030620004+61183+022617FM-12+005199999V0200901N004119999999N0000001N9-00891+99999103031ADDGF108991999999999999999999
0035029600999991904030706004+61183+022617FM-12+005199999V0200501N001019999999N0000001N9-01001+99999102911ADDGF108991999999999999999999MW1721
0029029600999991904030713004+61183+022617FM-12+005199999V0200901N004119999999N0000001N9-00441+99999102621ADDGF108991999999999999999999
0029029600999991904030720004+61183+022617FM-12+005199999V0200501N005119999999N0000001N9-00781+99999102161ADDGF108991999999999999999999
0035029600999991904030806004+61183+022617FM-12+005199999V0200501N002119999999N0000001N9-00891+99999101391ADDGF108991999999999999999999MW1721
0009029600999991904030813004+61183+022617FM-12+005199999V0202301N006219999999N0000001N9-00501+99999101351ADDMW1721
0035029600999991904030820004+61183+022617FM-12+005199999V0202301N007219999999N0000001N9-00891+99999101701ADDGF108991999999999999999999MW1721
0029029600999991904030906004+61183+022617FM-12+005199999V0201601N004119999999N0000001N9-01331+99999102001ADDGF100991999999999999999999
0029029600999991904030913004+61183+022617FM-12+005199999V0202301N008219999999N0000001N9-00501+99999102201ADDGF102991999999999999999999
0029029600999991904030920004+61183+022617FM-12+005199999V0201801N004119999999N0000001N9-00561+99999102181ADDGF108991999999999999999999
0029029600999991904031006004+61183+022617FM-12+005199999V0201101N002119999999N0000001N9-00941+99999102111ADDGF108991999999999999999999
0035029600999991904031013004+61183+022617FM-12+005199999V0201801N003119999999N0000001N9-00061+99999102151ADDGF108991999999999999999999MW1721
0029029600999991904031020004+61183+022617FM-12+005199999V0201101N003119999999N0000001N9-00221+99999102071ADDGF108991999999999999999999
0029029600999991904031106004+61183+022617FM-12+005199999V0201101N004119999999N0000001N9-00501+99999101861ADDGF108991999999999999999999
0035029600999991904031113004+61183+022617FM-12+005199999V0200901N006219999999N0000001N9-00281+99999101541ADDGF108991999999999999999999MW1721
0029029600999991904031120004+61183+022617FM-12+005199999V0200501N003119999999N0000001N9-00561+99999101201ADDGF108991999999999999999999
0029029600999991904031206004+61183+022617FM-12+005199999V0200501N001019999999N0000001N9-00501+99999100541ADDGF108991999999999999999999
0029029600999991904031213004+61183+022617FM-12+005199999V0202701N007219999999N0000001N9-00331+99999100381ADDGF108991999999999999999999
0029029600999991904031220004+61183+022617FM-12+005199999V0202301N008719999999N0000001N9-00501+99999100271ADDGF100991999999999999999999
0029029600999991904031306004+61183+022617FM-12+005199999V0201801N004119999999N0000001N9-00671+99999100041ADDGF107991999999999999999999
0029029600999991904031313004+61183+022617FM-12+005199999V0202301N008719999999N0000001N9+00221+99999099951ADDGF102991999999999999999999
0029029600999991904031320004+61183+022617FM-12+005199999V0201801N006219999999N0000001N9-00281+99999100041ADDGF100991999999999999999999
0029029600999991904031406004+61183+022617FM-12+005199999V0202001N009819999999N0000001N9+00001+99999099801ADDGF108991999999999999999999
0035029600999991904031413004+61183+022617FM-12+005199999V0202301N012919999999N0000001N9+00171+99999099761ADDGF108991999999999999999999MW1721
0035029600999991904031420004+61183+022617FM-12+005199999V0202001N013919999999N0000001N9+00001+99999099431ADDGF108991999999999999999999MW1721
0029029600999991904031506004+61183+022617FM-12+005199999V0202301N005119999999N0000001N9-00061+99999099261ADDGF108991999999999999999999
0029029600999991904031513004+61183+022617FM-12+005199999V0202301N005119999999N0000001N9+00171+99999099431ADDGF108991999999999999999999
0029029600999991904031520004+61183+022617FM-12+005199999V0203601N008719999999N0000001N9-00561+99999099711ADDGF108991999999999999999999
0029029600999991904031606004+61183+022617FM-12+005199999V0202301N001019999999N0000001N9-01941+99999100361ADDGF100991999999999999999999
0029029600999991904031613004+61183+022617FM-12+005199999V0203401N009819999999N0000001N9-00281+99999101101ADDGF101991999999999999999999
0029029600999991904031620004+61183+022617FM-12+005199999V0202901N005119999999N0000001N9-01001+99999101741ADDGF100991999999999999999999
0029029600999991904031706004+61183+022617FM-12+005199999V0201801N004119999999N0000001N9-01501+99999101961ADDGF100991999999999999999999
0029029600999991904031713004+61183+022617FM-12+005199999V0202301N013919999999N0000001N9+00061+99999101791ADDGF101991999999999999999999
0029029600999991904031720004+61183+022617FM-12+005199999V0202301N008219999999N0000001N9-00281+99999101711ADDGF100991999999999999999999
0029029600999991904031806004+61183+022617FM-12+005199999V0202301N007219999999N0000001N9-00561+99999101741ADDGF100991999999999999999999
0029029600999991904031813004+61183+022617FM-12+005199999V0202301N008719999999N0000001N9+00171+99999101831ADDGF100991999999999999999999
0029029600999991904031820004+61183+022617FM-12+005199999V0202001N004119999999N0000001N9-00331+99999101751ADDGF102991999999999999999999
0029029600999991904031906004+61183+022617FM-12+005199999V0201801N006219999999N0000001N9-00331+99999101961ADDGF108991999999999999999999
0029029600999991904031913004+61183+022617FM-12+005199999V0201801N007219999999N0000001N9+00001+99999102041ADDGF100991999999999999999999
0029029600999991904031920004+61183+022617FM-12+005199999V0201801N004119999999N0000001N9-00611+99999102121ADDGF100991999999999999999999
0029029600999991904032006004+61183+022617FM-12+005199999V0201801N005119999999N0000001N9-00781+99999101831ADDGF100991999999999999999999
0029029600999991904032013004+61183+022617FM-12+005199999V0201801N011819999999N0000001N9+00221+99999101631ADDGF101991999999999999999999
0029029600999991904032020004+61183+022617FM-12+005199999V0201801N009819999999N0000001N9-00391+99999101661ADDGF108991999999999999999999
0029029600999991904032106004+61183+022617FM-12+005199999V0201801N006219999999N0000001N9-00331+99999101761ADDGF108991999999999999999999
0029029600999991904032113004+61183+022617FM-12+005199999V0201801N011819999999N0000001N9-00061+99999101861ADDGF101991999999999999999999
0029029600999991904032120004+61183+022617FM-12+005199999V0201801N010819999999N0000001N9-00331+99999101741ADDGF100991999999999999999999
0029029600999991904032206004+61183+022617FM-12+005199999V0201801N011819999999N0000001N9-00221+99999100781ADDGF108991999999999999999999
0029029600999991904032213004+61183+022617FM-12+005199999V0201801N011819999999N0000001N9-00061+99999100431ADDGF108991999999999999999999
0029029600999991904032220004+61183+022617FM-12+005199999V0202001N005119999999N0000001N9+00061+99999100661ADDGF108991999999999999999999
0029029600999991904032306004+61183+022617FM-12+005199999V0201801N004119999999N0000001N9+00061+99999101101ADDGF108991999999999999999999
0029029600999991904032313004+61183+022617FM-12+005199999V0201801N003119999999N0000001N9+00391+99999101561ADDGF108991999999999999999999
0029029600999991904032320004+61183+022617FM-12+005199999V0203401N004119999999N0000001N9+00061+99999102101ADDGF108991999999999999999999
0029029600999991904032406004+61183+022617FM-12+005199999V0203601N002119999999N0000001N9-00561+99999102911ADDGF108991999999999999999999
0029029600999991904032413004+61183+022617FM-12+005199999V0202901N004119999999N0000001N9-00061+99999103301ADDGF102991999999999999999999
0029029600999991904032420004+61183+022617FM-12+005199999V0203201N001019999999N0000001N9-00781+99999103431ADDGF100991999999999999999999
0029029600999991904032506004+61183+022617FM-12+005199999V0201401N001019999999N0000001N9-01441+99999103581ADDGF100991999999999999999999
0029029600999991904032513004+61183+022617FM-12+005199999V0202001N004119999999N0000001N9+00391+99999103561ADDGF100991999999999999999999
0029029600999991904032520004+61183+022617FM-12+005199999V0201101N002119999999N0000001N9-00611+99999103421ADDGF100991999999999999999999
0029029600999991904032606004+61183+022617FM-12+005199999V0201401N002119999999N0000001N9-01171+99999103401ADDGF100991999999999999999999
0029029600999991904032613004+61183+022617FM-12+005199999V0201801N003119999999N0000001N9+00501+99999103271ADDGF101991999999999999999999
0029029600999991904032620004+61183+022617FM-12+005199999V0201601N003119999999N0000001N9-00391+99999103111ADDGF100991999999999999999999
0029029600999991904032706004+61183+022617FM-12+005199999V0201401N001019999999N0000001N9-01281+99999103141ADDGF100991999999999999999999
0029029600999991904032713004+61183+022617FM-12+005199999V0203601N003119999999N0000001N9+00501+99999103161ADDGF100991999999999999999999
0029029600999991904032720004+61183+022617FM-12+005199999V0201101N001019999999N0000001N9-00441+99999103191ADDGF100991999999999999999999
0029029600999991904032806004+61183+022617FM-12+005199999V0201101N003119999999N0000001N9-00611+99999103361ADDGF100991999999999999999999
0029029600999991904032813004+61183+022617FM-12+005199999V0201101N005119999999N0000001N9+00281+99999103301ADDGF100991999999999999999999
0029029600999991904032820004+61183+022617FM-12+005199999V0201401N005119999999N0000001N9-00331+99999103191ADDGF100991999999999999999999
0029029600999991904032906004+61183+022617FM-12+005199999V0201401N005119999999N0000001N9-00671+99999102881ADDGF100991999999999999999999
0029029600999991904032913004+61183+022617FM-12+005199999V0201601N008719999999N0000001N9+00171+99999102591ADDGF100991999999999999999999
0029029600999991904032920004+61183+022617FM-12+005199999V0201401N006219999999N0000001N9-00441+99999102321ADDGF100991999999999999999999
0029029600999991904033006004+61183+022617FM-12+005199999V0201401N007219999999N0000001N9-00721+99999101881ADDGF100991999999999999999999
0029029600999991904033013004+61183+022617FM-12+005199999V0201401N009819999999N0000001N9+00001+99999101741ADDGF100991999999999999999999
0029029600999991904033020004+61183+022617FM-12+005199999V0201101N005119999999N0000001N9-00611+99999101881ADDGF100991999999999999999999
0029029600999991904033106004+61183+022617FM-12+005199999V0201101N007219999999N0000001N9-01001+99999102141ADDGF102991999999999999999999
0029029600999991904033113004+61183+022617FM-12+005199999V0201101N007219999999N0000001N9+00001+99999102311ADDGF100991999999999999999999
0029029600999991904033120004+61183+022617FM-12+005199999V0201101N005119999999N0000001N9-00611+99999102441ADDGF100991999999999999999999
0029029600999991904040106004+61183+022617FM-12+005199999V0201101N006219999999N0000001N9-01061+99999102401ADDGF100991999999999999999999
0029029600999991904040113004+61183+022617FM-12+005199999V0201401N008219999999N0000001N9+00061+99999102241ADDGF101991999999999999999999
0029029600999991904040120004+61183+022617FM-12+005199999V0201401N005119999999N0000001N9-00501+99999102001ADDGF100991999999999999999999
0029029600999991904040206004+61183+022617FM-12+005199999V0201101N006219999999N0000001N9-00941+99999101801ADDGF100991999999999999999999
0029029600999991904040213004+61183+022617FM-12+005199999V0201401N008219999999N0000001N9+00111+99999101791ADDGF100991999999999999999999
0029029600999991904040220004+61183+022617FM-12+005199999V0201101N002119999999N0000001N9-00561+99999101911ADDGF100991999999999999999999
0029029600999991904040306004+61183+022617FM-12+005199999V0201101N003119999999N0000001N9-00831+99999101961ADDGF106991999999999999999999
0029029600999991904040313004+61183+022617FM-12+005199999V0201801N004119999999N0000001N9+00221+99999101801ADDGF102991999999999999999999
0029029600999991904040320004+61183+022617FM-12+005199999V0201401N006219999999N0000001N9-00221+99999101521ADDGF105991999999999999999999
0029029600999991904040406004+61183+022617FM-12+005199999V0201601N007219999999N0000001N9+00061+99999100941ADDGF107991999999999999999999
0029029600999991904040413004+61183+022617FM-12+005199999V0201601N009819999999N0000001N9+00281+99999100761ADDGF108991999999999999999999
0035029600999991904040420004+61183+022617FM-12+005199999V0201401N007219999999N0000001N9+00171+99999100541ADDGF108991999999999999999999MW1721
0035029600999991904040506004+61183+022617FM-12+005199999V0201801N004119999999N0000001N9+00111+99999100381ADDGF108991999999999999999999MW1691
0029029600999991904040513004+61183+022617FM-12+005199999V0201801N004119999999N0000001N9+00391+99999100361ADDGF108991999999999999999999
0029029600999991904040520004+61183+022617FM-12+005199999V0201801N004119999999N0000001N9+00061+99999100151ADDGF108991999999999999999999
0029029600999991904040606004+61183+022617FM-12+005199999V0201601N006219999999N0000001N9+00061+99999100041ADDGF108991999999999999999999
0035029600999991904040613004+61183+022617FM-12+005199999V0201401N008719999999N0000001N9+00221+99999099661ADDGF108991999999999999999999MW1621
0035029600999991904040620004+61183+022617FM-12+005199999V0201401N008719999999N0000001N9+00111+99999099041ADDGF108991999999999999999999MW1621
0035029600999991904040706004+61183+022617FM-12+005199999V0201101N010819999999N0000001N9+00171+99999098201ADDGF108991999999999999999999MW1621
0035029600999991904040713004+61183+022617FM-12+005199999V0201101N008219999999N0000001N9+00281+99999097961ADDGF108991999999999999999999MW1621
0035029600999991904040720004+61183+022617FM-12+005199999V0201601N009819999999N0000001N9+00111+99999098041ADDGF108991999999999999999999MW1621
0035029600999991904040806004+61183+022617FM-12+005199999V0201801N007219999999N0000001N9+00111+99999098791ADDGF108991999999999999999999MW1621
0029029600999991904040813004+61183+022617FM-12+005199999V0201601N005119999999N0000001N9+00331+99999099281ADDGF108991999999999999999999
0029029600999991904040820004+61183+022617FM-12+005199999V0202301N002119999999N0000001N9+00171+99999099501ADDGF108991999999999999999999
0035029600999991904040906004+61183+022617FM-12+005199999V0201601N002119999999N0000001N9+00111+99999099801ADDGF108991999999999999999999MW1691
0029029600999991904040913004+61183+022617FM-12+005199999V0201801N006219999999N0000001N9+00331+99999099751ADDGF108991999999999999999999
0029029600999991904040920004+61183+022617FM-12+005199999V0201601N007219999999N0000001N9+00061+99999099541ADDGF108991999999999999999999
0035029600999991904041006004+61183+022617FM-12+005199999V0201601N008219999999N0000001N9+00111+99999098701ADDGF108991999999999999999999MW1691
0029029600999991904041013004+61183+022617FM-12+005199999V0202001N009819999999N0000001N9+00331+99999098721ADDGF106991999999999999999999
0029029600999991904041020004+61183+022617FM-12+005199999V0201801N009819999999N0000001N9+00111+99999098881ADDGF106991999999999999999999
0029029600999991904041106004+61183+022617FM-12+005199999V0201801N005119999999N0000001N9+00111+99999098761ADDGF108991999999999999999999
0029029600999991904041113004+61183+022617FM-12+005199999V0202001N005119999999N0000001N9+00391+99999098871ADDGF108991999999999999999999
0029029600999991904041120004+61183+022617FM-12+005199999V0200901N002119999999N0000001N9+00001+99999099161ADDGF107991999999999999999999
0029029600999991904041206004+61183+022617FM-12+005199999V0203401N005119999999N0000001N9-00061+99999099701ADDGF108991999999999999999999
0029029600999991904041213004+61183+022617FM-12+005199999V0202901N006219999999N0000001N9+00221+99999100121ADDGF108991999999999999999999
0029029600999991904041220004+61183+022617FM-12+005199999V0202901N003119999999N0000001N9+00001+99999100421ADDGF108991999999999999999999
0035029600999991904041306004+61183+022617FM-12+005199999V0202901N005119999999N0000001N9-00061+99999100681ADDGF108991999999999999999999MW1721
0029029600999991904041313004+61183+022617FM-12+005199999V0203201N008719999999N0000001N9+00281+99999100871ADDGF106991999999999999999999
0029029600999991904041320004+61183+022617FM-12+005199999V0200201N007219999999N0000001N9-00171+99999101241ADDGF108991999999999999999999
0029029600999991904041406004+61183+022617FM-12+005199999V0203201N006219999999N0000001N9-00331+99999101701ADDGF100991999999999999999999
0029029600999991904041413004+61183+022617FM-12+005199999V0203601N010819999999N0000001N9+00001+99999101881ADDGF100991999999999999999999
0029029600999991904041420004+61183+022617FM-12+005199999V0203601N002119999999N0000001N9-00331+99999102071ADDGF100991999999999999999999
0029029600999991904041506004+61183+022617FM-12+005199999V0201601N001019999999N0000001N9-00561+99999102271ADDGF100991999999999999999999
0029029600999991904041513004+61183+022617FM-12+005199999V0201801N006219999999N0000001N9+00331+99999102191ADDGF100991999999999999999999
0029029600999991904041520004+61183+022617FM-12+005199999V0201601N006219999999N0000001N9-00061+99999102021ADDGF108991999999999999999999
0035029600999991904041606004+61183+022617FM-12+005199999V0201801N010819999999N0000001N9+00001+99999101421ADDGF108991999999999999999999MW1691
0000029600999991904041613004+61183+022617FM-12+005199999V0202001N013919999999N0000001N9+00501+99999101021
0029029600999991904041620004+61183+022617FM-12+005199999V0201801N008719999999N0000001N9+00221+99999100781ADDGF106991999999999999999999
0029029600999991904041706004+61183+022617FM-12+005199999V0201801N008719999999N0000001N9+00441+99999100661ADDGF107991999999999999999999
0029029600999991904041713004+61183+022617FM-12+005199999V0202001N008719999999N0000001N9+00611+99999100791ADDGF108991999999999999999999
0035029600999991904041720004+61183+022617FM-12+005199999V0201401N004119999999N0000001N9+00441+99999100941ADDGF108991999999999999999999MW1621
0035029600999991904041806004+61183+022617FM-12+005199999V0201601N006219999999N0000001N9+00281+99999101521ADDGF108991999999999999999999MW1621
0029029600999991904041813004+61183+022617FM-12+005199999V0201801N006219999999N0000001N9+00331+99999102221ADDGF108991999999999999999999
0035029600999991904041820004+61183+022617FM-12+005199999V0201601N005119999999N0000001N9+00221+99999102631ADDGF108991999999999999999999MW1621
0029029600999991904041906004+61183+022617FM-12+005199999V0201601N003119999999N0000001N9+00221+99999102981ADDGF108991999999999999999999
0029029600999991904041913004+61183+022617FM-12+005199999V0201801N003119999999N0000001N9+00891+99999103061ADDGF108991999999999999999999
0029029600999991904041920004+61183+022617FM-12+005199999V0201401N002119999999N0000001N9+00171+99999103041ADDGF100991999999999999999999
0029029600999991904042006004+61183+022617FM-12+005199999V0209991C000019999999N0000001N9+00441+99999102821ADDGF100991999999999999999999
0029029600999991904042013004+61183+022617FM-12+005199999V0201801N006219999999N0000001N9+01391+99999102501ADDGF100991999999999999999999
0029029600999991904042020004+61183+022617FM-12+005199999V0201401N002119999999N0000001N9+00501+99999102471ADDGF101991999999999999999999
0029029600999991904042106004+61183+022617FM-12+005199999V0201401N004119999999N0000001N9+00501+99999102121ADDGF100991999999999999999999
0035029600999991904042113004+61183+022617FM-12+005199999V0201401N007219999999N0000001N9+00781+99999101701ADDGF108991999999999999999999MW1621
0029029600999991904042120004+61183+022617FM-12+005199999V0200901N007219999999N0000001N9+00501+99999101321ADDGF108991999999999999999999
0035029600999991904042206004+61183+022617FM-12+005199999V0201101N004119999999N0000001N9+00391+99999100561ADDGF108991999999999999999999MW1621
0029029600999991904042213004+61183+022617FM-12+005199999V0202701N008219999999N0000001N9+00501+99999100761ADDGF108991999999999999999999
0029029600999991904042220004+61183+022617FM-12+005199999V0202001N008219999999N0000001N9+00171+99999101151ADDGF108991999999999999999999
0029029600999991904042306004+61183+022617FM-12+005199999V0201801N005119999999N0000001N9+00221+99999101481ADDGF106991999999999999999999
0029029600999991904042313004+61183+022617FM-12+005199999V0201801N005119999999N0000001N9+00941+99999101591ADDGF106991999999999999999999
0029029600999991904042320004+61183+022617FM-12+005199999V0201401N002119999999N0000001N9+00391+99999101381ADDGF107991999999999999999999
0029029600999991904042406004+61183+022617FM-12+005199999V0200701N001019999999N0000001N9+00441+99999100781ADDGF106991999999999999999999
0029029600999991904042413004+61183+022617FM-12+005199999V0202901N004119999999N0000001N9+01281+99999100311ADDGF102991999999999999999999
0029029600999991904042420004+61183+022617FM-12+005199999V0202301N002119999999N0000001N9+00611+99999100181ADDGF108991999999999999999999
0029029600999991904042506004+61183+022617FM-12+005199999V0201801N004119999999N0000001N9+00441+99999100041ADDGF108991999999999999999999
0029029600999991904042513004+61183+022617FM-12+005199999V0202001N012919999999N0000001N9+01171+99999099921ADDGF107991999999999999999999
0029029600999991904042520004+61183+022617FM-12+005199999V0201801N004119999999N0000001N9+00671+99999099481ADDGF108991999999999999999999
0029029600999991904042606004+61183+022617FM-12+005199999V0202301N010819999999N0000001N9+00391+99999099481ADDGF108991999999999999999999
0029029600999991904042613004+61183+022617FM-12+005199999V0202001N014919999999N0000001N9+00721+99999099871ADDGF108991999999999999999999
0029029600999991904042620004+61183+022617FM-12+005199999V0202001N004119999999N0000001N9+00171+99999100221ADDGF108991999999999999999999
0029029600999991904042706004+61183+022617FM-12+005199999V0202301N007219999999N0000001N9+00441+99999100681ADDGF100991999999999999999999
0029029600999991904042713004+61183+022617FM-12+005199999V0202301N008719999999N0000001N9+00891+99999100871ADDGF106991999999999999999999
0029029600999991904042720004+61183+022617FM-12+005199999V0201601N003119999999N0000001N9+00331+99999100901ADDGF101991999999999999999999
0029029600999991904042806004+61183+022617FM-12+005199999V0201601N004119999999N0000001N9+00331+99999100621ADDGF108991999999999999999999
0035029600999991904042813004+61183+022617FM-12+005199999V0201601N004119999999N0000001N9+00561+99999100271ADDGF108991999999999999999999MW1621
0035029600999991904042820004+61183+022617FM-12+005199999V0201401N001019999999N0000001N9+00281+99999100071ADDGF108991999999999999999999MW1621
0029029600999991904042906004+61183+022617FM-12+005199999V0203601N005119999999N0000001N9+00171+99999100021ADDGF108991999999999999999999
0029029600999991904042913004+61183+022617FM-12+005199999V0202901N006219999999N0000001N9+00501+99999100101ADDGF108991999999999999999999
0029029600999991904042920004+61183+022617FM-12+005199999V0202301N001019999999N0000001N9+00001+99999100181ADDGF100991999999999999999999
0035029600999991904043006004+61183+022617FM-12+005199999V0201801N005119999999N0000001N9+00111+99999099841ADDGF108991999999999999999999MW1691
0035029600999991904043013004+61183+022617FM-12+005199999V0202701N003119999999N0000001N9+00561+99999099751ADDGF108991999999999999999999MW1621
0029029600999991904043020004+61183+022617FM-12+005199999V0202901N005119999999N0000001N9+00111+99999100101ADDGF108991999999999999999999
0029029600999991904050106004+61183+022617FM-12+005199999V0203201N005119999999N0000001N9+00061+99999100741ADDGF108991999999999999999999
0029029600999991904050113004+61183+022617FM-12+005199999V0203401N003119999999N0000001N9+00831+99999100981ADDGF101991999999999999999999
0029029600999991904050120004+61183+022617FM-12+005199999V0202001N004119999999N0000001N9+00561+99999101031ADDGF108991999999999999999999
0029029600999991904050206004+61183+022617FM-12+005199999V0201801N003119999999N0000001N9+00561+99999100911ADDGF108991999999999999999999
0000029600999991904050213004+61183+022617FM-12+005199999V0201601N002119999999N0000001N9+01331+99999100621
0035029600999991904050220004+61183+022617FM-12+005199999V0201101N002119999999N0000001N9+00781+99999100031ADDGF108991999999999999999999MW1621
0029029600999991904050306004+61183+022617FM-12+005199999V0201801N004119999999N0000001N9+00611+99999099241ADDGF108991999999999999999999
0035029600999991904050313004+61183+022617FM-12+005199999V0202001N007219999999N0000001N9+00671+99999098681ADDGF108991999999999999999999MW1621
0035029600999991904050320004+61183+022617FM-12+005199999V0201601N004119999999N0000001N9+00441+99999098801ADDGF108991999999999999999999MW1621
0029029600999991904050406004+61183+022617FM-12+005199999V0202301N004119999999N0000001N9+00391+99999098751ADDGF108991999999999999999999
0029029600999991904050413004+61183+022617FM-12+005199999V0202301N006219999999N0000001N9+00561+99999099281ADDGF108991999999999999999999
0035029600999991904050420004+61183+022617FM-12+005199999V0202701N005119999999N0000001N9+00061+99999099821ADDGF108991999999999999999999MW1621
0029029600999991904050506004+61183+022617FM-12+005199999V0203201N006219999999N0000001N9+00221+99999100421ADDGF108991999999999999999999
0029029600999991904050513004+61183+022617FM-12+005199999V0203601N005119999999N0000001N9+00441+99999100781ADDGF108991999999999999999999
0029029600999991904050520004+61183+022617FM-12+005199999V0200201N004119999999N0000001N9+00221+99999100821ADDGF108991999999999999999999
0029029600999991904050606004+61183+022617FM-12+005199999V0200201N006219999999N0000001N9+00111+99999100641ADDGF100991999999999999999999
0029029600999991904050613004+61183+022617FM-12+005199999V0200201N006219999999N0000001N9+00331+99999100401ADDGF108991999999999999999999
0029029600999991904050620004+61183+022617FM-12+005199999V0203401N003119999999N0000001N9+00221+99999100361ADDGF108991999999999999999999
0029029600999991904050706004+61183+022617FM-12+005199999V0203601N004119999999N0000001N9+00111+99999100591ADDGF101991999999999999999999
0029029600999991904050713004+61183+022617FM-12+005199999V0200201N007219999999N0000001N9+00441+99999100981ADDGF108991999999999999999999
0029029600999991904050720004+61183+022617FM-12+005199999V0200701N001019999999N0000001N9+00221+99999101241ADDGF108991999999999999999999
0029029600999991904050806004+61183+022617FM-12+005199999V0201101N004119999999N0000001N9+00281+99999101401ADDGF108991999999999999999999
0029029600999991904050813004+61183+022617FM-12+005199999V0201401N007219999999N0000001N9+00891+99999101241ADDGF108991999999999999999999
0035029600999991904050820004+61183+022617FM-12+005199999V0201101N005119999999N0000001N9+00441+99999101231ADDGF108991999999999999999999MW1621
0035029600999991904050906004+61183+022617FM-12+005199999V0200901N007219999999N0000001N9+00171+99999100721ADDGF108991999999999999999999MW1621
0035029600999991904050913004+61183+022617FM-12+005199999V0200701N003119999999N0000001N9+00391+99999099981ADDGF108991999999999999999999MW1621
0035029600999991904050920004+61183+022617FM-12+005199999V0202901N006219999999N0000001N9+00281+99999099781ADDGF108991999999999999999999MW1621
0029029600999991904051006004+61183+022617FM-12+005199999V0202901N005119999999N0000001N9+00171+99999100561ADDGF108991999999999999999999
0029029600999991904051013004+61183+022617FM-12+005199999V0201101N002119999999N0000001N9+00671+99999100601ADDGF108991999999999999999999
0029029600999991904051020004+61183+022617FM-12+005199999V0200201N002119999999N0000001N9+00441+99999100241ADDGF108991999999999999999999
0035029600999991904051106004+61183+022617FM-12+005199999V0200201N006219999999N0000001N9+00281+99999099621ADDGF108991999999999999999999MW1621
0035029600999991904051113004+61183+022617FM-12+005199999V0200201N006219999999N0000001N9+00391+99999099621ADDGF108991999999999999999999MW1621
0029029600999991904051120004+61183+022617FM-12+005199999V0203401N005119999999N0000001N9+00331+99999099961ADDGF108991999999999999999999
0029029600999991904051206004+61183+022617FM-12+005199999V0202001N001019999999N0000001N9+00221+99999100481ADDGF108991999999999999999999
0029029600999991904051213004+61183+022617FM-12+005199999V0202701N005119999999N0000001N9+00781+99999100951ADDGF104991999999999999999999
0029029600999991904051220004+61183+022617FM-12+005199999V0202901N003119999999N0000001N9+00171+99999101321ADDGF100991999999999999999999
0029029600999991904051306004+61183+022617FM-12+005199999V0201801N002119999999N0000001N9+00611+99999101671ADDGF100991999999999999999999
0029029600999991904051313004+61183+022617FM-12+005199999V0203201N007219999999N0000001N9+01001+99999101801ADDGF101991999999999999999999
0029029600999991904051320004+61183+022617FM-12+005199999V0202301N005119999999N0000001N9+00611+99999101791ADDGF102991999999999999999999
0029029600999991904051406004+61183+022617FM-12+005199999V0201801N004119999999N0000001N9+00501+99999101621ADDGF108991999999999999999999
0029029600999991904051413004+61183+022617FM-12+005199999V0202001N008219999999N0000001N9+00941+99999101351ADDGF108991999999999999999999
0029029600999991904051420004+61183+022617FM-12+005199999V0202001N006219999999N0000001N9+00671+99999101021ADDGF108991999999999999999999
0029029600999991904051506004+61183+022617FM-12+005199999V0202001N006219999999N0000001N9+00721+99999100351ADDGF108991999999999999999999
0029029600999991904051513004+61183+022617FM-12+005199999V0201801N009819999999N0000001N9+00831+99999099831ADDGF108991999999999999999999
0029029600999991904051520004+61183+022617FM-12+005199999V0201801N005119999999N0000001N9+00611+99999099431ADDGF108991999999999999999999
0029029600999991904051606004+61183+022617FM-12+005199999V0202001N005119999999N0000001N9+00721+99999098961ADDGF108991999999999999999999
0029029600999991904051613004+61183+022617FM-12+005199999V0202301N006219999999N0000001N9+01061+99999099031ADDGF107991999999999999999999
0029029600999991904051620004+61183+022617FM-12+005199999V0202901N002119999999N0000001N9+00441+99999099541ADDGF108991999999999999999999
0029029600999991904051706004+61183+022617FM-12+005199999V0203401N004119999999N0000001N9+00721+99999100081ADDGF101991999999999999999999
0029029600999991904051713004+61183+022617FM-12+005199999V0202901N007219999999N0000001N9+01061+99999100301ADDGF105991999999999999999999
0029029600999991904051720004+61183+022617FM-12+005199999V0202301N003119999999N0000001N9+00831+99999100081ADDGF108991999999999999999999
0029029600999991904051806004+61183+022617FM-12+005199999V0201401N004119999999N0000001N9+00781+99999099181ADDGF108991999999999999999999
0035029600999991904051813004+61183+022617FM-12+005199999V0201801N005119999999N0000001N9+00831+99999098791ADDGF108991999999999999999999MW1621
0029029600999991904051820004+61183+022617FM-12+005199999V0202301N004119999999N0000001N9+00721+99999098961ADDGF100991999999999999999999
0029029600999991904051906004+61183+022617FM-12+005199999V0202001N002119999999N0000001N9+00831+99999098961ADDGF104991999999999999999999
0029029600999991904051913004+61183+022617FM-12+005199999V0202301N005119999999N0000001N9+01221+99999098871ADDGF106991999999999999999999
0029029600999991904051920004+61183+022617FM-12+005199999V0202901N003119999999N0000001N9+00721+99999098991ADDGF108991999999999999999999
0029029600999991904052006004+61183+022617FM-12+005199999V0203201N005119999999N0000001N9+00501+99999099111ADDGF105991999999999999999999
0029029600999991904052013004+61183+022617FM-12+005199999V0202901N008219999999N0000001N9+00891+99999099431ADDGF108991999999999999999999
0029029600999991904052020004+61183+022617FM-12+005199999V0203601N007219999999N0000001N9+00611+99999099861ADDGF108991999999999999999999
0029029600999991904052106004+61183+022617FM-12+005199999V0203601N008719999999N0000001N9+00501+99999100321ADDGF106991999999999999999999
0029029600999991904052113004+61183+022617FM-12+005199999V0203201N008219999999N0000001N9+00501+99999100601ADDGF108991999999999999999999
0029029600999991904052120004+61183+022617FM-12+005199999V0203601N006219999999N0000001N9+00221+99999100921ADDGF108991999999999999999999
0029029600999991904052206004+61183+022617FM-12+005199999V0203601N010819999999N0000001N9+00171+99999101041ADDGF108991999999999999999999
0029029600999991904052213004+61183+022617FM-12+005199999V0200201N008719999999N0000001N9+00281+99999101191ADDGF108991999999999999999999
0029029600999991904052220004+61183+022617FM-12+005199999V0200201N006219999999N0000001N9+00221+99999101261ADDGF108991999999999999999999
0029029600999991904052306004+61183+022617FM-12+005199999V0200201N006219999999N0000001N9+00391+99999101241ADDGF104991999999999999999999
0029029600999991904052313004+61183+022617FM-12+005199999V0200201N005119999999N0000001N9+00891+99999101271ADDGF100991999999999999999999
0029029600999991904052320004+61183+022617FM-12+005199999V0200201N002119999999N0000001N9+00611+99999101441ADDGF100991999999999999999999
0029029600999991904052406004+61183+022617FM-12+005199999V0201101N002119999999N0000001N9+00721+99999101951ADDGF100991999999999999999999
0029029600999991904052413004+61183+022617FM-12+005199999V0203201N003119999999N0000001N9+01171+99999101921ADDGF102991999999999999999999
0029029600999991904052420004+61183+022617FM-12+005199999V0203201N001019999999N0000001N9+00891+99999101901ADDGF102991999999999999999999
0029029600999991904052506004+61183+022617FM-12+005199999V0202701N002119999999N0000001N9+00671+99999102181ADDGF108991999999999999999999
0029029600999991904052513004+61183+022617FM-12+005199999V0203201N002119999999N0000001N9+01221+99999102161ADDGF103991999999999999999999
0029029600999991904052520004+61183+022617FM-12+005199999V0202701N002119999999N0000001N9+00831+99999102191ADDGF100991999999999999999999
0029029600999991904052606004+61183+022617FM-12+005199999V0202301N004119999999N0000001N9+00831+99999102361ADDGF100991999999999999999999
0029029600999991904052613004+61183+022617FM-12+005199999V0202301N004119999999N0000001N9+01331+99999102241ADDGF100991999999999999999999
0029029600999991904052620004+61183+022617FM-12+005199999V0202301N003119999999N0000001N9+00781+99999102201ADDGF103991999999999999999999
0029029600999991904052706004+61183+022617FM-12+005199999V0202301N003119999999N0000001N9+01061+99999101991ADDGF106991999999999999999999
0029029600999991904052713004+61183+022617FM-12+005199999V0202001N005119999999N0000001N9+01501+99999101751ADDGF108991999999999999999999
0029029600999991904052720004+61183+022617FM-12+005199999V0202001N002119999999N0000001N9+00941+99999101421ADDGF108991999999999999999999
0029029600999991904052806004+61183+022617FM-12+005199999V0202301N006219999999N0000001N9+00941+99999100521ADDGF108991999999999999999999
0029029600999991904052813004+61183+022617FM-12+005199999V0203201N008719999999N0000001N9+01391+99999100341ADDGF106991999999999999999999
0029029600999991904052820004+61183+022617FM-12+005199999V0202901N004119999999N0000001N9+00941+99999100381ADDGF103991999999999999999999
0029029600999991904052906004+61183+022617FM-12+005199999V0200201N009819999999N0000001N9+01111+99999100911ADDGF100991999999999999999999
0029029600999991904052913004+61183+022617FM-12+005199999V0200201N007219999999N0000001N9+01721+99999101151ADDGF106991999999999999999999
0029029600999991904052920004+61183+022617FM-12+005199999V0200201N001019999999N0000001N9+01111+99999101591ADDGF102991999999999999999999
0029029600999991904053006004+61183+022617FM-12+005199999V0200201N003119999999N0000001N9+01001+99999102151ADDGF100991999999999999999999
0029029600999991904053013004+61183+022617FM-12+005199999V0203601N005119999999N0000001N9+01501+99999102101ADDGF100991999999999999999999
0029029600999991904053020004+61183+022617FM-12+005199999V0202901N004119999999N0000001N9+00891+99999101991ADDGF102991999999999999999999
0029029600999991904053106004+61183+022617FM-12+005199999V0202301N004119999999N0000001N9+01171+99999101421ADDGF106991999999999999999999
0029029600999991904053113004+61183+022617FM-12+005199999V0203201N008219999999N0000001N9+01721+99999101071ADDGF103991999999999999999999
0029029600999991904053120004+61183+022617FM-12+005199999V0202901N002119999999N0000001N9+01331+99999101101ADDGF103991999999999999999999
0029029600999991904060106004+61183+022617FM-12+005199999V0202901N003119999999N0000001N9+01281+99999100961ADDGF101991999999999999999999
0029029600999991904060113004+61183+022617FM-12+005199999V0203201N007219999999N0000001N9+01831+99999100801ADDGF106991999999999999999999
0029029600999991904060120004+61183+022617FM-12+005199999V0202901N001019999999N0000001N9+01331+99999100711ADDGF101991999999999999999999
0029029600999991904060206004+61183+022617FM-12+005199999V0201101N003119999999N0000001N9+01001+99999100521ADDGF108991999999999999999999
0029029600999991904060213004+61183+022617FM-12+005199999V0201601N003119999999N0000001N9+02061+99999100281ADDGF103991999999999999999999
0029029600999991904060220004+61183+022617FM-12+005199999V0200701N002119999999N0000001N9+01441+99999100421ADDGF104991999999999999999999
0029029600999991904060306004+61183+022617FM-12+005199999V0200901N001019999999N0000001N9+01501+99999100341ADDGF107991999999999999999999
0035029600999991904060313004+61183+022617FM-12+005199999V0201101N004119999999N0000001N9+01611+99999099911ADDGF108991999999999999999999MW1621
0029029600999991904060320004+61183+022617FM-12+005199999V0200201N006219999999N0000001N9+01061+99999099911ADDGF108991999999999999999999
0029029600999991904060406004+61183+022617FM-12+005199999V0200201N008719999999N0000001N9+00831+99999100511ADDGF108991999999999999999999
0029029600999991904060413004+61183+022617FM-12+005199999V0203601N010819999999N0000001N9+01061+99999100961ADDGF100991999999999999999999
0029029600999991904060420004+61183+022617FM-12+005199999V0203601N006219999999N0000001N9+00721+99999101351ADDGF100991999999999999999999
0029029600999991904060506004+61183+022617FM-12+005199999V0203401N006219999999N0000001N9+00721+99999101601ADDGF100991999999999999999999
0029029600999991904060513004+61183+022617FM-12+005199999V0203201N008719999999N0000001N9+01111+99999101271ADDGF102991999999999999999999
0029029600999991904060520004+61183+022617FM-12+005199999V0202901N004119999999N0000001N9+00891+99999100981ADDGF102991999999999999999999
0029029600999991904060606004+61183+022617FM-12+005199999V0203201N004119999999N0000001N9+00891+99999100721ADDGF102991999999999999999999
0029029600999991904060613004+61183+022617FM-12+005199999V0203401N008219999999N0000001N9+01331+99999100511ADDGF106991999999999999999999
0029029600999991904060620004+61183+022617FM-12+005199999V0202901N006219999999N0000001N9+01061+99999100311ADDGF101991999999999999999999
0029029600999991904060706004+61183+022617FM-12+005199999V0203601N008719999999N0000001N9+01061+99999100031ADDGF100991999999999999999999
0035029600999991904060713004+61183+022617FM-12+005199999V0203601N005119999999N0000001N9+00781+99999099871ADDGF108991999999999999999999MW1621
0035029600999991904060720004+61183+022617FM-12+005199999V0200201N004119999999N0000001N9+00671+99999099981ADDGF108991999999999999999999MW1621
0029029600999991904060806004+61183+022617FM-12+005199999V0200201N008219999999N0000001N9+01001+99999100241ADDGF106991999999999999999999
0029029600999991904060813004+61183+022617FM-12+005199999V0200201N011819999999N0000001N9+01501+99999100271ADDGF102991999999999999999999
0029029600999991904060820004+61183+022617FM-12+005199999V0200701N004119999999N0000001N9+01281+99999100561ADDGF106991999999999999999999
0029029600999991904060906004+61183+022617FM-12+005199999V0200701N005119999999N0000001N9+01221+99999100671ADDGF107991999999999999999999
0029029600999991904060913004+61183+022617FM-12+005199999V0200501N005119999999N0000001N9+01721+99999100701ADDGF106991999999999999999999
0029029600999991904060920004+61183+022617FM-12+005199999V0200201N004119999999N0000001N9+01111+99999100831ADDGF108991999999999999999999
0029029600999991904061006004+61183+022617FM-12+005199999V0203601N004119999999N0000001N9+01061+99999100961ADDGF102991999999999999999999
0029029600999991904061013004+61183+022617FM-12+005199999V0203601N006219999999N0000001N9+01441+99999100821ADDGF106991999999999999999999
0029029600999991904061020004+61183+022617FM-12+005199999V0203201N002119999999N0000001N9+01111+99999100671ADDGF101991999999999999999999
0029029600999991904061106004+61183+022617FM-12+005199999V0200701N001019999999N0000001N9+01001+99999100421ADDGF108991999999999999999999
0029029600999991904061113004+61183+022617FM-12+005199999V0203601N001019999999N0000001N9+01671+99999100081ADDGF102991999999999999999999
0029029600999991904061120004+61183+022617FM-12+005199999V0203601N007219999999N0000001N9+01061+99999100161ADDGF106991999999999999999999
0029029600999991904061206004+61183+022617FM-12+005199999V0203401N007219999999N0000001N9+01061+99999100381ADDGF103991999999999999999999
0029029600999991904061213004+61183+022617FM-12+005199999V0203601N008719999999N0000001N9+01281+99999100551ADDGF104991999999999999999999
0029029600999991904061220004+61183+022617FM-12+005199999V0202901N005119999999N0000001N9+01001+99999100841ADDGF100991999999999999999999
0029029600999991904061306004+61183+022617FM-12+005199999V0202701N005119999999N0000001N9+01171+99999100941ADDGF100991999999999999999999
0029029600999991904061313004+61183+022617FM-12+005199999V0202901N009819999999N0000001N9+01331+99999100961ADDGF102991999999999999999999
0029029600999991904061320004+61183+022617FM-12+005199999V0202901N005119999999N0000001N9+01171+99999101101ADDGF100991999999999999999999
0029029600999991904061406004+61183+022617FM-12+005199999V0203201N003119999999N0000001N9+01111+99999101351ADDGF101991999999999999999999
0029029600999991904061413004+61183+022617FM-12+005199999V0202901N007219999999N0000001N9+01671+99999101281ADDGF101991999999999999999999
0029029600999991904061420004+61183+022617FM-12+005199999V0202901N004119999999N0000001N9+01221+99999101391ADDGF100991999999999999999999
0029029600999991904061506004+61183+022617FM-12+005199999V0201101N003119999999N0000001N9+01281+99999101681ADDGF101991999999999999999999
0029029600999991904061513004+61183+022617FM-12+005199999V0201601N003119999999N0000001N9+02061+99999101501ADDGF106991999999999999999999
0029029600999991904061520004+61183+022617FM-12+005199999V0202001N004119999999N0000001N9+01561+99999101421ADDGF104991999999999999999999
0029029600999991904061606004+61183+022617FM-12+005199999V0201801N006219999999N0000001N9+01501+99999101221ADDGF100991999999999999999999
0029029600999991904061613004+61183+022617FM-12+005199999V0201801N008719999999N0000001N9+02171+99999100761ADDGF108991999999999999999999
0029029600999991904061620004+61183+022617FM-12+005199999V0201801N008219999999N0000001N9+01721+99999100231ADDGF108991999999999999999999
0029029600999991904061706004+61183+022617FM-12+005199999V0202301N007219999999N0000001N9+01281+99999099901ADDGF108991999999999999999999
0029029600999991904061713004+61183+022617FM-12+005199999V0202301N009819999999N0000001N9+01781+99999099751ADDGF106991999999999999999999
0029029600999991904061720004+61183+022617FM-12+005199999V0202301N005119999999N0000001N9+01221+99999099481ADDGF107991999999999999999999
0029029600999991904061806004+61183+022617FM-12+005199999V0202301N007219999999N0000001N9+01391+99999099481ADDGF101991999999999999999999
0029029600999991904061813004+61183+022617FM-12+005199999V0202901N008219999999N0000001N9+01831+99999099501ADDGF102991999999999999999999
0029029600999991904061820004+61183+022617FM-12+005199999V0202901N002119999999N0000001N9+01171+99999099481ADDGF102991999999999999999999
0029029600999991904061906004+61183+022617FM-12+005199999V0203201N001019999999N0000001N9+01331+99999099351ADDGF107991999999999999999999
0029029600999991904061913004+61183+022617FM-12+005199999V0202901N009819999999N0000001N9+01391+99999099431ADDGF100991999999999999999999
0029029600999991904061920004+61183+022617FM-12+005199999V0202301N002119999999N0000001N9+01061+99999099511ADDGF103991999999999999999999
0029029600999991904062006004+61183+022617FM-12+005199999V0201801N001019999999N0000001N9+01391+99999099461ADDGF106991999999999999999999
0035029600999991904062013004+61183+022617FM-12+005199999V0202301N003119999999N0000001N9+01281+99999099601ADDGF108991999999999999999999MW1621
0029029600999991904062020004+61183+022617FM-12+005199999V0202701N001019999999N0000001N9+01281+99999099801ADDGF108991999999999999999999
0029029600999991904062106004+61183+022617FM-12+005199999V0209991C000019999999N0000001N9+01001+99999100311ADDGF106991999999999999999999
0029029600999991904062113004+61183+022617FM-12+005199999V0201801N004119999999N0000001N9+01891+99999100391ADDGF107991999999999999999999
0029029600999991904062120004+61183+022617FM-12+005199999V0201801N003119999999N0000001N9+01281+99999100421ADDGF108991999999999999999999
0029029600999991904062206004+61183+022617FM-12+005199999V0201801N002119999999N0000001N9+01111+99999100141ADDGF108991999999999999999999
0029029600999991904062213004+61183+022617FM-12+005199999V0202001N003119999999N0000001N9+01611+99999100041ADDGF107991999999999999999999
0029029600999991904062220004+61183+022617FM-12+005199999V0201601N003119999999N0000001N9+01281+99999099681ADDGF108991999999999999999999
0029029600999991904062306004+61183+022617FM-12+005199999V0201601N004119999999N0000001N9+01221+99999099481ADDGF108991999999999999999999
0029029600999991904062313004+61183+022617FM-12+005199999V0201401N003119999999N0000001N9+01331+99999099601ADDGF108991999999999999999999
0029029600999991904062320004+61183+022617FM-12+005199999V0200901N002119999999N0000001N9+00891+99999099741ADDGF107991999999999999999999
0029029600999991904062406004+61183+022617FM-12+005199999V0200701N001019999999N0000001N9+01171+99999099671ADDGF106991999999999999999999
0035029600999991904062413004+61183+022617FM-12+005199999V0200701N004119999999N0000001N9+01561+99999099561ADDGF108991999999999999999999MW1621
0035029600999991904062420004+61183+022617FM-12+005199999V0202901N003119999999N0000001N9+01001+99999099381ADDGF108991999999999999999999MW1621
0035029600999991904062506004+61183+022617FM-12+005199999V0201801N002119999999N0000001N9+00941+99999099101ADDGF108991999999999999999999MW1621
0029029600999991904062513004+61183+022617FM-12+005199999V0202001N002119999999N0000001N9+01391+99999099401ADDGF108991999999999999999999
0029029600999991904062520004+61183+022617FM-12+005199999V0201801N002119999999N0000001N9+01171+99999099751ADDGF101991999999999999999999
0029029600999991904062606004+61183+022617FM-12+005199999V0201101N004119999999N0000001N9+01221+99999099661ADDGF107991999999999999999999
0029029600999991904062613004+61183+022617FM-12+005199999V0200901N008219999999N0000001N9+01561+99999099481ADDGF108991999999999999999999
0029029600999991904062620004+61183+022617FM-12+005199999V0200701N001019999999N0000001N9+01221+99999099311ADDGF106991999999999999999999
0029029600999991904062706004+61183+022617FM-12+005199999V0200901N003119999999N0000001N9+01061+99999098951ADDGF108991999999999999999999
0029029600999991904062713004+61183+022617FM-12+005199999V0201101N003119999999N0000001N9+01611+99999099021ADDGF107991999999999999999999
0035029600999991904062720004+61183+022617FM-12+005199999V0201101N004119999999N0000001N9+01221+99999099101ADDGF108991999999999999999999MW1621
0035029600999991904062806004+61183+022617FM-12+005199999V0201601N004119999999N0000001N9+01171+99999099501ADDGF108991999999999999999999MW1621
0029029600999991904062813004+61183+022617FM-12+005199999V0200901N003119999999N0000001N9+01611+99999099801ADDGF106991999999999999999999
0029029600999991904062820004+61183+022617FM-12+005199999V0201101N001019999999N0000001N9+01331+99999100111ADDGF106991999999999999999999
0029029600999991904062906004+61183+022617FM-12+005199999V0201401N001019999999N0000001N9+01331+99999100431ADDGF108991999999999999999999
0029029600999991904062913004+61183+022617FM-12+005199999V0202701N003119999999N0000001N9+01891+99999100471ADDGF106991999999999999999999
0029029600999991904062920004+61183+022617FM-12+005199999V0203401N002119999999N0000001N9+01501+99999100541ADDGF101991999999999999999999
0029029600999991904063006004+61183+022617FM-12+005199999V0203601N008219999999N0000001N9+01171+99999100401ADDGF106991999999999999999999
0029029600999991904063013004+61183+022617FM-12+005199999V0203601N008719999999N0000001N9+01671+99999100111ADDGF106991999999999999999999
0029029600999991904063020004+61183+022617FM-12+005199999V0203601N008219999999N0000001N9+01391+99999099841ADDGF106991999999999999999999
0029029600999991904070106004+61183+022617FM-12+005199999V0200201N008219999999N0000001N9+01281+99999099561ADDGF108991999999999999999999
0029029600999991904070113004+61183+022617FM-12+005199999V0200201N008219999999N0000001N9+01721+99999099581ADDGF107991999999999999999999
0029029600999991904070120004+61183+022617FM-12+005199999V0200201N006219999999N0000001N9+01391+99999099781ADDGF106991999999999999999999
0029029600999991904070206004+61183+022617FM-12+005199999V0200901N005119999999N0000001N9+01441+99999099901ADDGF107991999999999999999999
0029029600999991904070213004+61183+022617FM-12+005199999V0200201N002119999999N0000001N9+01671+99999099941ADDGF106991999999999999999999
0029029600999991904070220004+61183+022617FM-12+005199999V0200701N001019999999N0000001N9+01331+99999100121ADDGF102991999999999999999999
0029029600999991904070306004+61183+022617FM-12+005199999V0202001N002119999999N0000001N9+01281+99999100161ADDGF108991999999999999999999
0029029600999991904070313004+61183+022617FM-12+005199999V0202301N006219999999N0000001N9+01781+99999100111ADDGF106991999999999999999999
0029029600999991904070320004+61183+022617FM-12+005199999V0202301N001019999999N0000001N9+01171+99999100181ADDGF108991999999999999999999
0029029600999991904070406004+61183+022617FM-12+005199999V0202301N004119999999N0000001N9+01391+99999100201ADDGF101991999999999999999999
0029029600999991904070413004+61183+022617FM-12+005199999V0202301N007219999999N0000001N9+01941+99999100261ADDGF105991999999999999999999
0035029600999991904070420004+61183+022617FM-12+005199999V0209991C000019999999N0000001N9+01281+99999100261ADDGF108991999999999999999999MW1621
0035029600999991904070506004+61183+022617FM-12+005199999V0201401N004119999999N0000001N9+01171+99999099941ADDGF108991999999999999999999MW1621
0029029600999991904070513004+61183+022617FM-12+005199999V0201601N003119999999N0000001N9+01501+99999099781ADDGF108991999999999999999999
0029029600999991904070520004+61183+022617FM-12+005199999V0200901N001019999999N0000001N9+01281+99999099831ADDGF106991999999999999999999
0029029600999991904070606004+61183+022617FM-12+005199999V0202501N003119999999N0000001N9+01281+99999100231ADDGF108991999999999999999999
0029029600999991904070613004+61183+022617FM-12+005199999V0202701N005119999999N0000001N9+01891+99999100471ADDGF102991999999999999999999
0029029600999991904070620004+61183+022617FM-12+005199999V0202701N003119999999N0000001N9+01671+99999100591ADDGF101991999999999999999999
0029029600999991904070706004+61183+022617FM-12+005199999V0202301N005119999999N0000001N9+01281+99999100741ADDGF108991999999999999999999
0029029600999991904070713004+61183+022617FM-12+005199999V0201801N007219999999N0000001N9+01941+99999100521ADDGF108991999999999999999999
0029029600999991904070720004+61183+022617FM-12+005199999V0202001N003119999999N0000001N9+01281+99999100191ADDGF108991999999999999999999
0029029600999991904070806004+61183+022617FM-12+005199999V0202701N005119999999N0000001N9+01281+99999100201ADDGF102991999999999999999999
0029029600999991904070813004+61183+022617FM-12+005199999V0202701N007219999999N0000001N9+01561+99999100231ADDGF108991999999999999999999
0029029600999991904070820004+61183+022617FM-12+005199999V0202701N003119999999N0000001N9+01061+99999999999ADDGF102991999999999999999999
0029029600999991904070906004+61183+022617FM-12+005199999V0202501N001019999999N0000001N9+01441+99999099701ADDGF105991999999999999999999
0029029600999991904070913004+61183+022617FM-12+005199999V0203201N008719999999N0000001N9+01721+99999099761ADDGF104991999999999999999999
0029029600999991904070920004+61183+022617FM-12+005199999V0202901N005119999999N0000001N9+01171+99999099881ADDGF101991999999999999999999
0029029600999991904071006004+61183+022617FM-12+005199999V0203201N008219999999N0000001N9+01171+99999099791ADDGF101991999999999999999999
0029029600999991904071013004+61183+022617FM-12+005199999V0203401N009819999999N0000001N9+01281+99999099941ADDGF108991999999999999999999
0029029600999991904071020004+61183+022617FM-12+005199999V0202901N006219999999N0000001N9+01171+99999099911ADDGF106991999999999999999999
0029029600999991904071106004+61183+022617FM-12+005199999V0203201N007219999999N0000001N9+01001+99999099901ADDGF108991999999999999999999
0029029600999991904071113004+61183+022617FM-12+005199999V0203401N008219999999N0000001N9+01331+99999100061ADDGF108991999999999999999999
0029029600999991904071120004+61183+022617FM-12+005199999V0203401N006219999999N0000001N9+01171+99999100381ADDGF102991999999999999999999
0029029600999991904071206004+61183+022617FM-12+005199999V0203601N007219999999N0000001N9+01221+99999100751ADDGF102991999999999999999999
0000029600999991904071213004+61183+022617FM-12+005199999V02099999999999999999N0000001N9+01501+99999100981
0029029600999991904071220004+61183+022617FM-12+005199999V02099999999999999999N0000001N9+01281+99999101301ADDGF101991999999999999999999
0029029600999991904071306004+61183+022617FM-12+005199999V0202901N001019999999N0000001N9+01281+99999101621ADDGF101991999999999999999999
0029029600999991904071313004+61183+022617FM-12+005199999V0202901N007219999999N0000001N9+01831+99999101461ADDGF101991999999999999999999
0029029600999991904071320004+61183+022617FM-12+005199999V0202301N004119999999N0000001N9+01441+99999101351ADDGF101991999999999999999999
0029029600999991904071406004+61183+022617FM-12+005199999V0202701N005119999999N0000001N9+01831+99999101271ADDGF101991999999999999999999
0029029600999991904071413004+61183+022617FM-12+005199999V0202301N008719999999N0000001N9+02221+99999101231ADDGF101991999999999999999999
0029029600999991904071420004+61183+022617FM-12+005199999V0202301N004119999999N0000001N9+01781+99999101121ADDGF101991999999999999999999
0029029600999991904071506004+61183+022617FM-12+005199999V0202301N006219999999N0000001N9+01721+99999101071ADDGF101991999999999999999999
0029029600999991904071513004+61183+022617FM-12+005199999V0202301N008219999999N0000001N9+02441+99999101121ADDGF101991999999999999999999
0029029600999991904071520004+61183+022617FM-12+005199999V0202001N005119999999N0000001N9+01671+99999101061ADDGF105991999999999999999999
0029029600999991904071606004+61183+022617FM-12+005199999V0202001N006219999999N0000001N9+01781+99999100841ADDGF106991999999999999999999
0029029600999991904071613004+61183+022617FM-12+005199999V0202001N006219999999N0000001N9+02111+99999100591ADDGF108991999999999999999999
0029029600999991904071620004+61183+022617FM-12+005199999V0202001N005119999999N0000001N9+01781+99999099981ADDGF107991999999999999999999
0029029600999991904071706004+61183+022617FM-12+005199999V0203201N007219999999N0000001N9+01501+99999099941ADDGF108991999999999999999999
0029029600999991904071713004+61183+022617FM-12+005199999V0202901N009819999999N0000001N9+01721+99999100281ADDGF102991999999999999999999
0029029600999991904071720004+61183+022617FM-12+005199999V0202901N005119999999N0000001N9+01171+99999100501ADDGF101991999999999999999999
0029029600999991904071806004+61183+022617FM-12+005199999V0203201N008219999999N0000001N9+00941+99999100441ADDGF105991999999999999999999
0029029600999991904071813004+61183+022617FM-12+005199999V0202901N010819999999N0000001N9+01221+99999100121ADDGF104991999999999999999999
0029029600999991904071820004+61183+022617FM-12+005199999V0202701N004119999999N0000001N9+00941+99999099741ADDGF102991999999999999999999
0029029600999991904071906004+61183+022617FM-12+005199999V0202901N005119999999N0000001N9+01061+99999099471ADDGF106991999999999999999999
0029029600999991904071913004+61183+022617FM-12+005199999V0200501N007219999999N0000001N9+01221+99999099641ADDGF106991999999999999999999
0029029600999991904071920004+61183+022617FM-12+005199999V0203401N004119999999N0000001N9+00891+99999099901ADDGF103991999999999999999999
0029029600999991904072006004+61183+022617FM-12+005199999V0203601N008219999999N0000001N9+01171+99999099991ADDGF101991999999999999999999
0029029600999991904072013004+61183+022617FM-12+005199999V0203201N008719999999N0000001N9+01391+99999099901ADDGF107991999999999999999999
0029029600999991904072020004+61183+022617FM-12+005199999V0203401N006219999999N0000001N9+01111+99999099921ADDGF106991999999999999999999
0029029600999991904072106004+61183+022617FM-12+005199999V0203601N008719999999N0000001N9+01111+99999099981ADDGF108991999999999999999999
0029029600999991904072113004+61183+022617FM-12+005199999V0203201N008219999999N0000001N9+01391+99999999999ADDGF106991999999999999999999
0029029600999991904072120004+61183+022617FM-12+005199999V0203401N005119999999N0000001N9+00831+99999100231ADDGF101991999999999999999999
0029029600999991904072206004+61183+022617FM-12+005199999V0203401N007219999999N0000001N9+01061+99999100521ADDGF106991999999999999999999
0029029600999991904072213004+61183+022617FM-12+005199999V0203401N006219999999N0000001N9+01281+99999100631ADDGF105991999999999999999999
0029029600999991904072220004+61183+022617FM-12+005199999V0202701N003119999999N0000001N9+00891+99999100741ADDGF101991999999999999999999
0029029600999991904072306004+61183+022617FM-12+005199999V0201401N001019999999N0000001N9+01061+99999100761ADDGF106991999999999999999999
0029029600999991904072313004+61183+022617FM-12+005199999V0203601N002119999999N0000001N9+01831+99999100701ADDGF105991999999999999999999
0029029600999991904072320004+61183+022617FM-12+005199999V0202901N001019999999N0000001N9+01221+99999100631ADDGF101991999999999999999999
0029029600999991904072406004+61183+022617FM-12+005199999V0200901N001019999999N0000001N9+01171+99999100581ADDGF102991999999999999999999
0029029600999991904072413004+61183+022617FM-12+005199999V0202001N004119999999N0000001N9+02171+99999100421ADDGF102991999999999999999999
0029029600999991904072420004+61183+022617FM-12+005199999V0209991C000019999999N0000001N9+01391+99999100341ADDGF105991999999999999999999
0029029600999991904072506004+61183+022617FM-12+005199999V0202001N002119999999N0000001N9+01391+99999100081ADDGF108991999999999999999999
0029029600999991904072513004+61183+022617FM-12+005199999V0202901N006219999999N0000001N9+01721+99999100041ADDGF104991999999999999999999
0029029600999991904072520004+61183+022617FM-12+005199999V0202901N004119999999N0000001N9+01001+99999099951ADDGF102991999999999999999999
0029029600999991904072606004+61183+022617FM-12+005199999V0203201N004119999999N0000001N9+01001+99999099951ADDGF104991999999999999999999
0035029600999991904072613004+61183+022617FM-12+005199999V0203601N006219999999N0000001N9+01331+99999099951ADDGF107991999999999999999999MW1621
0029029600999991904072620004+61183+022617FM-12+005199999V0203201N005119999999N0000001N9+01221+99999100041ADDGF101991999999999999999999
0029029600999991904072706004+61183+022617FM-12+005199999V0203401N008219999999N0000001N9+01331+99999100361ADDGF101991999999999999999999
0029029600999991904072713004+61183+022617FM-12+005199999V0203601N008719999999N0000001N9+01891+99999100351ADDGF102991999999999999999999
0029029600999991904072720004+61183+022617FM-12+005199999V0203601N007219999999N0000001N9+01221+99999100421ADDGF101991999999999999999999
0029029600999991904072806004+61183+022617FM-12+005199999V0203601N004119999999N0000001N9+01171+99999100741ADDGF100991999999999999999999
0029029600999991904072813004+61183+022617FM-12+005199999V0203401N007219999999N0000001N9+01891+99999100641ADDGF101991999999999999999999
0029029600999991904072820004+61183+022617FM-12+005199999V0202901N004119999999N0000001N9+01281+99999100661ADDGF102991999999999999999999
0029029600999991904072906004+61183+022617FM-12+005199999V0200501N005119999999N0000001N9+01441+99999100831ADDGF101991999999999999999999
0029029600999991904072913004+61183+022617FM-12+005199999V0203601N007219999999N0000001N9+02061+99999100981ADDGF102991999999999999999999
0029029600999991904072920004+61183+022617FM-12+005199999V0203601N002119999999N0000001N9+01391+99999101181ADDGF102991999999999999999999
0029029600999991904073006004+61183+022617FM-12+005199999V0200701N001019999999N0000001N9+01281+99999101481ADDGF100991999999999999999999
0029029600999991904073013004+61183+022617FM-12+005199999V0202701N001019999999N0000001N9+02001+99999101551ADDGF101991999999999999999999
0029029600999991904073020004+61183+022617FM-12+005199999V0202501N001019999999N0000001N9+01391+99999101621ADDGF102991999999999999999999
0029029600999991904073106004+61183+022617FM-12+005199999V0201601N002119999999N0000001N9+01501+99999101821ADDGF101991999999999999999999
0029029600999991904073113004+61183+022617FM-12+005199999V0202301N004119999999N0000001N9+02391+99999101741ADDGF101991999999999999999999
0029029600999991904073120004+61183+022617FM-12+005199999V0202001N003119999999N0000001N9+01391+99999101751ADDGF102991999999999999999999
0029029600999991904080106004+61183+022617FM-12+005199999V0202001N005119999999N0000001N9+01561+99999101721ADDGF100991999999999999999999
0029029600999991904080113004+61183+022617FM-12+005199999V0202301N007219999999N0000001N9+02441+99999101681ADDGF100991999999999999999999
0029029600999991904080120004+61183+022617FM-12+005199999V0201801N003119999999N0000001N9+01501+99999101621ADDGF101991999999999999999999
0029029600999991904080206004+61183+022617FM-12+005199999V0202001N004119999999N0000001N9+01781+99999101581ADDGF100991999999999999999999
0029029600999991904080213004+61183+022617FM-12+005199999V0202301N008219999999N0000001N9+02441+99999101521ADDGF100991999999999999999999
0029029600999991904080220004+61183+022617FM-12+005199999V0201801N004119999999N0000001N9+01611+99999101511ADDGF103991999999999999999999
0029029600999991904080306004+61183+022617FM-12+005199999V0203401N003119999999N0000001N9+01561+99999101621ADDGF102991999999999999999999
0029029600999991904080313004+61183+022617FM-12+005199999V0203601N004119999999N0000001N9+02281+99999101591ADDGF101991999999999999999999
0029029600999991904080320004+61183+022617FM-12+005199999V0209991C000019999999N0000001N9+01561+99999101601ADDGF103991999999999999999999
0029029600999991904080406004+61183+022617FM-12+005199999V0201801N004119999999N0000001N9+01721+99999101321ADDGF101991999999999999999999
0029029600999991904080413004+61183+022617FM-12+005199999V0202701N008219999999N0000001N9+02391+99999101121ADDGF102991999999999999999999
0029029600999991904080420004+61183+022617FM-12+005199999V0203201N004119999999N0000001N9+01391+99999101241ADDGF100991999999999999999999
0029029600999991904080506004+61183+022617FM-12+005199999V0203201N004119999999N0000001N9+01441+99999101241ADDGF102991999999999999999999
0029029600999991904080513004+61183+022617FM-12+005199999V0203401N007219999999N0000001N9+01941+99999101071ADDGF101991999999999999999999
0029029600999991904080520004+61183+022617FM-12+005199999V0202901N003119999999N0000001N9+01111+99999101141ADDGF101991999999999999999999
0029029600999991904080606004+61183+022617FM-12+005199999V0201401N004119999999N0000001N9+01221+99999101141ADDGF102991999999999999999999
0029029600999991904080613004+61183+022617FM-12+005199999V0202001N006219999999N0000001N9+02221+99999100821ADDGF107991999999999999999999
0029029600999991904080620004+61183+022617FM-12+005199999V0201801N005119999999N0000001N9+01721+99999100501ADDGF108991999999999999999999
0029029600999991904080706004+61183+022617FM-12+005199999V0202701N001019999999N0000001N9+01171+99999100071ADDGF106991999999999999999999
0029029600999991904080713004+61183+022617FM-12+005199999V0202701N002119999999N0000001N9+01671+99999100141ADDGF108991999999999999999999
0029029600999991904080720004+61183+022617FM-12+005199999V0202901N004119999999N0000001N9+01331+99999100021ADDGF108991999999999999999999
0029029600999991904080806004+61183+022617FM-12+005199999V0203601N005119999999N0000001N9+01221+99999099641ADDGF108991999999999999999999
0029029600999991904080813004+61183+022617FM-12+005199999V0200201N006219999999N0000001N9+01281+99999099511ADDGF108991999999999999999999
0029029600999991904080820004+61183+022617FM-12+005199999V0200201N006219999999N0000001N9+01171+99999099591ADDGF108991999999999999999999
0029029600999991904080906004+61183+022617FM-12+005199999V0203601N005119999999N0000001N9+01221+99999099521ADDGF100991999999999999999999
0029029600999991904080913004+61183+022617FM-12+005199999V0203401N006219999999N0000001N9+01671+99999099431ADDGF106991999999999999999999
0029029600999991904080920004+61183+022617FM-12+005199999V0202701N004119999999N0000001N9+00891+99999099481ADDGF100991999999999999999999
0029029600999991904081006004+61183+022617FM-12+005199999V0202901N005119999999N0000001N9+01171+99999099391ADDGF102991999999999999999999
0029029600999991904081013004+61183+022617FM-12+005199999V0202901N006219999999N0000001N9+01331+99999099471ADDGF104991999999999999999999
0029029600999991904081020004+61183+022617FM-12+005199999V0202701N005119999999N0000001N9+00781+99999099781ADDGF106991999999999999999999
0029029600999991904081106004+61183+022617FM-12+005199999V0202301N004119999999N0000001N9+01111+99999100071ADDGF101991999999999999999999
0029029600999991904081113004+61183+022617FM-12+005199999V0202901N006219999999N0000001N9+01561+99999100271ADDGF103991999999999999999999
0029029600999991904081120004+61183+022617FM-12+005199999V0201801N004119999999N0000001N9+01001+99999100441ADDGF102991999999999999999999
0029029600999991904081206004+61183+022617FM-12+005199999V0201801N005119999999N0000001N9+01221+99999100551ADDGF103991999999999999999999
0029029600999991904081213004+61183+022617FM-12+005199999V0202001N007219999999N0000001N9+01671+99999100441ADDGF107991999999999999999999
0029029600999991904081220004+61183+022617FM-12+005199999V0200901N005119999999N0000001N9+01281+99999100081ADDGF106991999999999999999999
0029029600999991904081306004+61183+022617FM-12+005199999V0201101N005119999999N0000001N9+01331+99999099221ADDGF108991999999999999999999
0029029600999991904081313004+61183+022617FM-12+005199999V0200701N003119999999N0000001N9+01501+99999099121ADDGF108991999999999999999999
0029029600999991904081320004+61183+022617FM-12+005199999V0202901N008219999999N0000001N9+01221+99999099321ADDGF108991999999999999999999
0029029600999991904081406004+61183+022617FM-12+005199999V0202901N011819999999N0000001N9+01001+99999099901ADDGF108991999999999999999999
0029029600999991904081413004+61183+022617FM-12+005199999V0202901N008719999999N0000001N9+01331+99999100231ADDGF102991999999999999999999
0029029600999991904081420004+61183+022617FM-12+005199999V0201801N002119999999N0000001N9+00611+99999100321ADDGF100991999999999999999999
0029029600999991904081506004+61183+022617FM-12+005199999V0201601N004119999999N0000001N9+01001+99999100031ADDGF108991999999999999999999
0035029600999991904081513004+61183+022617FM-12+005199999V0201401N006219999999N0000001N9+01441+99999099561ADDGF108991999999999999999999MW1621
0035029600999991904081520004+61183+022617FM-12+005199999V0201401N005119999999N0000001N9+01221+99999098981ADDGF108991999999999999999999MW1621
0029029600999991904081606004+61183+022617FM-12+005199999V0201601N004119999999N0000001N9+01221+99999098881ADDGF108991999999999999999999
0029029600999991904081613004+61183+022617FM-12+005199999V0202301N002119999999N0000001N9+01561+99999099041ADDGF108991999999999999999999
0029029600999991904081620004+61183+022617FM-12+005199999V0201401N002119999999N0000001N9+01221+99999099221ADDGF108991999999999999999999
0029029600999991904081706004+61183+022617FM-12+005199999V0201401N002119999999N0000001N9+01111+99999099301ADDGF108991999999999999999999
0029029600999991904081713004+61183+022617FM-12+005199999V0202301N001019999999N0000001N9+01561+99999099401ADDGF108991999999999999999999
0029029600999991904081720004+61183+022617FM-12+005199999V0203201N001019999999N0000001N9+01331+99999099661ADDGF108991999999999999999999
0029029600999991904081806004+61183+022617FM-12+005199999V0200901N001019999999N0000001N9+01221+99999099881ADDGF108991999999999999999999
0029029600999991904081813004+61183+022617FM-12+005199999V0202301N004119999999N0000001N9+01831+99999100041ADDGF107991999999999999999999
0029029600999991904081820004+61183+022617FM-12+005199999V0201801N002119999999N0000001N9+01111+99999100141ADDGF108991999999999999999999
0029029600999991904081906004+61183+022617FM-12+005199999V0200901N004119999999N0000001N9+01111+99999099951ADDGF108991999999999999999999
0035029600999991904081913004+61183+022617FM-12+005199999V0200901N008219999999N0000001N9+01221+99999099381ADDGF108991999999999999999999MW1621
0029029600999991904081920004+61183+022617FM-12+005199999V0201601N004119999999N0000001N9+01171+99999099071ADDGF108991999999999999999999
0029029600999991904082006004+61183+022617FM-12+005199999V0202301N004119999999N0000001N9+01171+99999098901ADDGF108991999999999999999999
0029029600999991904082013004+61183+022617FM-12+005199999V0202301N005119999999N0000001N9+01331+99999099221ADDGF108991999999999999999999
0035029600999991904082020004+61183+022617FM-12+005199999V0201801N003119999999N0000001N9+01061+99999099111ADDGF108991999999999999999999MW1621
0035029600999991904082106004+61183+022617FM-12+005199999V0202301N001019999999N0000001N9+01171+99999099061ADDGF108991999999999999999999MW1621
0035029600999991904082113004+61183+022617FM-12+005199999V0202701N006219999999N0000001N9+01391+99999099241ADDGF107991999999999999999999MW1621
0029029600999991904082120004+61183+022617FM-12+005199999V0202701N005119999999N0000001N9+01001+99999099581ADDGF103991999999999999999999
0029029600999991904082206004+61183+022617FM-12+005199999V0202001N004119999999N0000001N9+01171+99999099721ADDGF108991999999999999999999
0029029600999991904082213004+61183+022617FM-12+005199999V0202901N008219999999N0000001N9+01611+99999099911ADDGF106991999999999999999999
0029029600999991904082220004+61183+022617FM-12+005199999V0202901N003119999999N0000001N9+01001+99999100161ADDGF108991999999999999999999
0029029600999991904082306004+61183+022617FM-12+005199999V0201801N001019999999N0000001N9+01061+99999100201ADDGF108991999999999999999999
0029029600999991904082313004+61183+022617FM-12+005199999V0203201N003119999999N0000001N9+01721+99999100221ADDGF108991999999999999999999
0029029600999991904082320004+61183+022617FM-12+005199999V0203401N002119999999N0000001N9+01001+99999100261ADDGF101991999999999999999999
0029029600999991904082406004+61183+022617FM-12+005199999V0202901N001019999999N0000001N9+00721+99999100301ADDGF107991999999999999999999
0029029600999991904082413004+61183+022617FM-12+005199999V0200501N005119999999N0000001N9+01721+99999100261ADDGF107991999999999999999999
0029029600999991904082420004+61183+022617FM-12+005199999V0203601N002119999999N0000001N9+01061+99999100311ADDGF101991999999999999999999
0029029600999991904082506004+61183+022617FM-12+005199999V0200201N007219999999N0000001N9+01061+99999100161ADDGF105991999999999999999999
0029029600999991904082513004+61183+022617FM-12+005199999V0200501N007219999999N0000001N9+01721+99999100021ADDGF106991999999999999999999
0029029600999991904082520004+61183+022617FM-12+005199999V0200201N006219999999N0000001N9+01331+99999099991ADDGF108991999999999999999999
0029029600999991904082606004+61183+022617FM-12+005199999V0203401N007219999999N0000001N9+00941+99999099941ADDGF102991999999999999999999
0029029600999991904082613004+61183+022617FM-12+005199999V0203201N007219999999N0000001N9+01441+99999100111ADDGF108991999999999999999999
0029029600999991904082620004+61183+022617FM-12+005199999V0202901N002119999999N0000001N9+01111+99999100461ADDGF107991999999999999999999
0029029600999991904082706004+61183+022617FM-12+005199999V0201601N002119999999N0000001N9+00611+99999100841ADDGF106991999999999999999999
0029029600999991904082713004+61183+022617FM-12+005199999V0201101N004119999999N0000001N9+01611+99999100951ADDGF102991999999999999999999
0029029600999991904082720004+61183+022617FM-12+005199999V0201401N003119999999N0000001N9+01061+99999101141ADDGF104991999999999999999999
0035029600999991904082806004+61183+022617FM-12+005199999V0201101N005119999999N0000001N9+01001+99999101151ADDGF108991999999999999999999MW1621
0029029600999991904082813004+61183+022617FM-12+005199999V0201401N005119999999N0000001N9+01501+99999101221ADDGF108991999999999999999999
0029029600999991904082820004+61183+022617FM-12+005199999V0201401N004119999999N0000001N9+01171+99999101321ADDGF107991999999999999999999
0035029600999991904082906004+61183+022617FM-12+005199999V0201101N004119999999N0000001N9+01111+99999101241ADDGF108991999999999999999999MW1621
0029029600999991904082913004+61183+022617FM-12+005199999V0200701N003119999999N0000001N9+01331+99999101191ADDGF108991999999999999999999
0029029600999991904082920004+61183+022617FM-12+005199999V0203601N002119999999N0000001N9+00891+99999101071ADDGF104991999999999999999999
0029029600999991904083006004+61183+022617FM-12+005199999V0203201N008219999999N0000001N9+00781+99999100711ADDGF108991999999999999999999
0035029600999991904083013004+61183+022617FM-12+005199999V0203401N007219999999N0000001N9+00941+99999100441ADDGF108991999999999999999999MW1621
0035029600999991904083020004+61183+022617FM-12+005199999V0203601N006219999999N0000001N9+00831+99999100431ADDGF108991999999999999999999MW1621
0029029600999991904083106004+61183+022617FM-12+005199999V0203401N006219999999N0000001N9+00671+99999100351ADDGF106991999999999999999999
0029029600999991904083113004+61183+022617FM-12+005199999V0203601N007219999999N0000001N9+00941+99999100351ADDGF108991999999999999999999
0029029600999991904083120004+61183+022617FM-12+005199999V0203601N004119999999N0000001N9+00831+99999100511ADDGF108991999999999999999999
0029029600999991904090106004+61183+022617FM-12+005199999V0203401N004119999999N0000001N9+00891+99999100741ADDGF108991999999999999999999
0029029600999991904090113004+61183+022617FM-12+005199999V0203601N004119999999N0000001N9+01221+99999100951ADDGF108991999999999999999999
0029029600999991904090120004+61183+022617FM-12+005199999V0200201N002119999999N0000001N9+01111+99999101191ADDGF108991999999999999999999
0029029600999991904090206004+61183+022617FM-12+005199999V0203601N003119999999N0000001N9+01061+99999101321ADDGF108991999999999999999999
0029029600999991904090213004+61183+022617FM-12+005199999V0200701N002119999999N0000001N9+01441+99999101321ADDGF108991999999999999999999
0029029600999991904090220004+61183+022617FM-12+005199999V0200701N002119999999N0000001N9+01111+99999101261ADDGF108991999999999999999999
