0029029720999991904010106004+60450+022267FM-12+001499999V0209991C000019999999N0000001N9+00061+99999101761ADDGF108991999999999999999999
0029029720999991904010113004+60450+022267FM-12+001499999V0209991C000019999999N0000001N9-00061+99999101881ADDGF108991999999999999999999
0029029720999991904010120004+60450+022267FM-12+001499999V0209991C000019999999N0000001N9-00331+99999102111ADDGF100991999999999999999999
0029029720999991904010206004+60450+022267FM-12+001499999V0203601N001019999999N0000001N9-00831+99999102601ADDGF100991999999999999999999
0029029720999991904010213004+60450+022267FM-12+001499999V0209991C000019999999N0000001N9-00721+99999102801ADDGF100991999999999999999999
0029029720999991904010220004+60450+022267FM-12+001499999V0209991C000019999999N0000001N9-01111+99999102961ADDGF100991999999999999999999
0029029720999991904010306004+60450+022267FM-12+001499999V0209991C000019999999N0000001N9-00281+99999103031ADDGF108991999999999999999999
0029029720999991904010313004+60450+022267FM-12+001499999V0209991C000019999999N0000001N9-00221+99999103021ADDGF108991999999999999999999
0029029720999991904010320004+60450+022267FM-12+001499999V0202701N001019999999N0000001N9-00171+99999102981ADDGF108991999999999999999999
0029029720999991904010406004+60450+022267FM-12+001499999V0202301N002619999999N0000001N9-00061+99999102821ADDGF108991999999999999999999
0029029720999991904010413004+60450+022267FM-12+001499999V0202301N002619999999N0000001N9+00061+99999102801ADDGF108991999999999999999999
0029029720999991904010420004+60450+022267FM-12+001499999V0202301N004619999999N0000001N9-00111+99999102831ADDGF108991999999999999999999
0029029720999991904010506004+60450+022267FM-12+001499999V0201401N002619999999N0000001N9-00221+99999102791ADDGF108991999999999999999999
0029029720999991904010513004+60450+022267FM-12+001499999V0201601N002619999999N0000001N9-00171+99999102821ADDGF108991999999999999999999
0029029720999991904010520004+60450+022267FM-12+001499999V0201401N002619999999N0000001N9-00281+99999102791ADDGF108991999999999999999999
0029029720999991904010606004+60450+022267FM-12+001499999V0200901N002619999999N0000001N9-00221+99999102591ADDGF108991999999999999999999
0029029720999991904010613004+60450+022267FM-12+001499999V0209991C000019999999N0000001N9-00061+99999102511ADDGF108991999999999999999999
0029029720999991904010620004+60450+022267FM-12+001499999V0209991C000019999999N0000001N9-00221+99999102521ADDGF108991999999999999999999
0029029720999991904010706004+60450+022267FM-12+001499999V0200901N001019999999N0000001N9-00171+99999102501ADDGF108991999999999999999999
0029029720999991904010713004+60450+022267FM-12+001499999V0201401N001019999999N0000001N9-00281+99999102551ADDGF108991999999999999999999
0029029720999991904010720004+60450+022267FM-12+001499999V0201401N002619999999N0000001N9-00281+99999102431ADDGF108991999999999999999999
0029029720999991904010806004+60450+022267FM-12+001499999V0201401N009319999999N0000001N9-00061+99999102081ADDGF108991999999999999999999
0029029720999991904010813004+60450+022267FM-12+001499999V0201401N012319999999N0000001N9-00391+99999101881ADDGF108991999999999999999999
0029029720999991904010820004+60450+022267FM-12+001499999V0201401N012319999999N0000001N9-00391+99999101641ADDGF108991999999999999999999
0029029720999991904010906004+60450+022267FM-12+001499999V0201801N009319999999N0000001N9-00281+99999101511ADDGF108991999999999999999999
0029029720999991904010913004+60450+022267FM-12+001499999V0201401N009319999999N0000001N9-00441+99999101501ADDGF108991999999999999999999
0029029720999991904010920004+60450+022267FM-12+001499999V0201801N002619999999N0000001N9-00331+99999101161ADDGF108991999999999999999999
0029029720999991904011006004+60450+022267FM-12+001499999V0202501N009319999999N0000001N9+00061+99999100801ADDGF108991999999999999999999
0000029720999991904011013004+60450+022267FM-12+001499999V0202301N006719999999N0000001N9-00331+99999101281
0029029720999991904011020004+60450+022267FM-12+001499999V0202301N002619999999N0000001N9+00171+99999101621ADDGF108991999999999999999999
0029029720999991904011106004+60450+022267FM-12+001499999V0202301N006719999999N0000001N9+00171+99999101501ADDGF108991999999999999999999
0029029720999991904011113004+60450+022267FM-12+001499999V0202301N009319999999N0000001N9+00221+99999101321ADDGF108991999999999999999999
0029029720999991904011120004+60450+022267FM-12+001499999V0202301N006719999999N0000001N9+00171+99999101111ADDGF108991999999999999999999
0029029720999991904011206004+60450+022267FM-12+001499999V0201401N012319999999N0000001N9+00001+99999100591ADDGF108991999999999999999999
0029029720999991904011213004+60450+022267FM-12+001499999V0201401N006719999999N0000001N9+00061+99999100161ADDGF108991999999999999999999
0029029720999991904011220004+60450+022267FM-12+001499999V0201401N004619999999N0000001N9-00171+99999099741ADDGF108991999999999999999999
0029029720999991904011306004+60450+022267FM-12+001499999V0201401N001019999999N0000001N9+00001+99999099351ADDGF108991999999999999999999
0029029720999991904011313004+60450+022267FM-12+001499999V0209991C000019999999N0000001N9+00061+99999099321ADDGF108991999999999999999999
0029029720999991904011320004+60450+022267FM-12+001499999V0201401N002619999999N0000001N9+00001+99999099221ADDGF108991999999999999999999
0029029720999991904011406004+60450+022267FM-12+001499999V0201401N012319999999N0000001N9-00171+99999098351ADDGF108991999999999999999999
0029029720999991904011413004+60450+022267FM-12+001499999V0201401N012319999999N0000001N9-00331+99999097831ADDGF108991999999999999999999
0029029720999991904011420004+60450+022267FM-12+001499999V0201101N009319999999N0000001N9-00331+99999097681ADDGF108991999999999999999999
0029029720999991904011506004+60450+022267FM-12+001499999V0201401N001019999999N0000001N9+00061+99999098021ADDGF108991999999999999999999
0029029720999991904011513004+60450+022267FM-12+001499999V0200901N004619999999N0000001N9+00111+99999098241ADDGF108991999999999999999999
0029029720999991904011520004+60450+022267FM-12+001499999V0201401N001019999999N0000001N9+00061+99999098471ADDGF108991999999999999999999
0029029720999991904011606004+60450+022267FM-12+001499999V0201401N001019999999N0000001N9+00061+99999098751ADDGF108991999999999999999999
0029029720999991904011613004+60450+022267FM-12+001499999V0201401N001019999999N0000001N9+00111+99999098951ADDGF108991999999999999999999
0029029720999991904011620004+60450+022267FM-12+001499999V0209991C000019999999N0000001N9-00061+99999099281ADDGF108991999999999999999999
0029029720999991904011706004+60450+022267FM-12+001499999V0200901N001019999999N0000001N9-00171+99999099741ADDGF108991999999999999999999
0029029720999991904011713004+60450+022267FM-12+001499999V0209991C000019999999N0000001N9-00171+99999100081ADDGF108991999999999999999999
0029029720999991904011720004+60450+022267FM-12+001499999V0200701N001019999999N0000001N9-00331+99999100501ADDGF108991999999999999999999
0029029720999991904011806004+60450+022267FM-12+001499999V0200501N001019999999N0000001N9-00561+99999101281ADDGF108991999999999999999999
0029029720999991904011813004+60450+022267FM-12+001499999V0200501N002619999999N0000001N9-00721+99999101861ADDGF108991999999999999999999
0029029720999991904011820004+60450+022267FM-12+001499999V0209991C000019999999N0000001N9-00831+99999102301ADDGF108991999999999999999999
0029029720999991904011906004+60450+022267FM-12+001499999V0202301N001019999999N0000001N9-00171+99999102321ADDGF108991999999999999999999
0029029720999991904011913004+60450+022267FM-12+001499999V0202701N001019999999N0000001N9-00061+99999102551ADDGF108991999999999999999999
0029029720999991904011920004+60450+022267FM-12+001499999V0202301N004619999999N0000001N9-00171+99999102871ADDGF108991999999999999999999
0029029720999991904012006004+60450+022267FM-12+001499999V0202301N001019999999N0000001N9-00171+99999103031ADDGF108991999999999999999999
0029029720999991904012013004+60450+022267FM-12+001499999V0202301N001019999999N0000001N9-00111+99999102961ADDGF108991999999999999999999
0029029720999991904012020004+60450+022267FM-12+001499999V0202301N001019999999N0000001N9-00061+99999102541ADDGF108991999999999999999999
0029029720999991904012106004+60450+022267FM-12+001499999V0202701N004619999999N0000001N9+00061+99999101711ADDGF108991999999999999999999
0029029720999991904012113004+60450+022267FM-12+001499999V0202701N004619999999N0000001N9+00061+99999101541ADDGF108991999999999999999999
0029029720999991904012120004+60450+022267FM-12+001499999V0202701N002619999999N0000001N9+00061+99999101661ADDGF108991999999999999999999
0029029720999991904012206004+60450+022267FM-12+001499999V0209991C000019999999N0000001N9-00561+99999102391ADDGF100991999999999999999999
0029029720999991904012213004+60450+022267FM-12+001499999V0202701N001019999999N0000001N9-00171+99999102241ADDGF108991999999999999999999
0029029720999991904012220004+60450+022267FM-12+001499999V0202701N006719999999N0000001N9-00061+99999101261ADDGF108991999999999999999999
0029029720999991904012306004+60450+022267FM-12+001499999V0202701N004619999999N0000001N9+00221+99999100641ADDGF102991999999999999999999
0029029720999991904012313004+60450+022267FM-12+001499999V0202701N002619999999N0000001N9+00331+99999100661ADDGF105991999999999999999999
0029029720999991904012320004+60450+022267FM-12+001499999V0202701N002619999999N0000001N9+00331+99999100551ADDGF108991999999999999999999
0029029720999991904012406004+60450+022267FM-12+001499999V0202701N001019999999N0000001N9+00331+99999101341ADDGF103991999999999999999999
0029029720999991904012413004+60450+022267FM-12+001499999V0209991C000019999999N0000001N9+00281+99999101661ADDGF106991999999999999999999
0029029720999991904012420004+60450+022267FM-12+001499999V0202301N002619999999N0000001N9+00061+99999101391ADDGF100991999999999999999999
0029029720999991904012506004+60450+022267FM-12+001499999V0202301N001019999999N0000001N9-00171+99999101301ADDGF100991999999999999999999
0029029720999991904012513004+60450+022267FM-12+001499999V0202701N002619999999N0000001N9+00001+99999101481ADDGF101991999999999999999999
0029029720999991904012520004+60450+022267FM-12+001499999V0209991C000019999999N0000001N9-00331+99999101521ADDGF100991999999999999999999
0029029720999991904012606004+60450+022267FM-12+001499999V0202701N002619999999N0000001N9+00061+99999101381ADDGF108991999999999999999999
0029029720999991904012613004+60450+022267FM-12+001499999V0202701N004619999999N0000001N9+00001+99999101281ADDGF108991999999999999999999
0029029720999991904012620004+60450+022267FM-12+001499999V0201801N002619999999N0000001N9+00061+99999101501ADDGF108991999999999999999999
0029029720999991904012706004+60450+022267FM-12+001499999V0202301N001019999999N0000001N9-00061+99999101721ADDGF108991999999999999999999
0029029720999991904012713004+60450+022267FM-12+001499999V0202301N002619999999N0000001N9+00171+99999101861ADDGF108991999999999999999999
0029029720999991904012720004+60450+022267FM-12+001499999V0202301N004619999999N0000001N9+00111+99999102031ADDGF108991999999999999999999
0029029720999991904012806004+60450+022267FM-12+001499999V0201601N006719999999N0000001N9+00111+99999101941ADDGF108991999999999999999999
0029029720999991904012813004+60450+022267FM-12+001499999V0201401N012319999999N0000001N9+00171+99999101821ADDGF108991999999999999999999
0029029720999991904012820004+60450+022267FM-12+001499999V0201801N019019999999N0000001N9+00111+99999101711ADDGF108991999999999999999999
0029029720999991904012906004+60450+022267FM-12+001499999V0201801N012319999999N0000001N9+00061+99999101501ADDGF108991999999999999999999
0029029720999991904012913004+60450+022267FM-12+001499999V0201801N012319999999N0000001N9-00061+99999101311ADDGF108991999999999999999999
0029029720999991904012920004+60450+022267FM-12+001499999V0201801N009319999999N0000001N9+00111+99999101111ADDGF108991999999999999999999
0029029720999991904013006004+60450+022267FM-12+001499999V0201801N001019999999N0000001N9+00111+99999101421ADDGF108991999999999999999999
0029029720999991904013013004+60450+022267FM-12+001499999V0209991C000019999999N0000001N9+00221+99999101661ADDGF108991999999999999999999
0029029720999991904013020004+60450+022267FM-12+001499999V0209991C000019999999N0000001N9-00061+99999101911ADDGF108991999999999999999999
0029029720999991904013106004+60450+022267FM-12+001499999V0209991C000019999999N0000001N9+00061+99999102101ADDGF108991999999999999999999
0029029720999991904013113004+60450+022267FM-12+001499999V0200901N002619999999N0000001N9+00001+99999102241ADDGF108991999999999999999999
0029029720999991904013120004+60450+022267FM-12+001499999V0200901N004619999999N0000001N9-00221+99999102261ADDGF108991999999999999999999
0029029720999991904020106004+60450+022267FM-12+001499999V0201601N001019999999N0000001N9-00441+99999102241ADDGF108991999999999999999999
0029029720999991904020113004+60450+022267FM-12+001499999V0201401N002619999999N0000001N9-00391+99999102221ADDGF108991999999999999999999
0029029720999991904020120004+60450+022267FM-12+001499999V0201401N004619999999N0000001N9-00441+99999102281ADDGF108991999999999999999999
0029029720999991904020206004+60450+022267FM-12+001499999V0201401N002619999999N0000001N9+00281+99999102261ADDGF108991999999999999999999
0029029720999991904020213004+60450+022267FM-12+001499999V0201401N004619999999N0000001N9-00221+99999102231ADDGF108991999999999999999999
0029029720999991904020220004+60450+022267FM-12+001499999V0201401N002619999999N0000001N9-00391+99999101981ADDGF108991999999999999999999
0029029720999991904020306004+60450+022267FM-12+001499999V0201401N002619999999N0000001N9-00611+99999101421ADDGF108991999999999999999999
0029029720999991904020313004+60450+022267FM-12+001499999V0201401N002619999999N0000001N9-00441+99999100951ADDGF108991999999999999999999
0029029720999991904020320004+60450+022267FM-12+001499999V0201401N004619999999N0000001N9-00671+99999100461ADDGF108991999999999999999999
0029029720999991904020406004+60450+022267FM-12+001499999V0200901N001019999999N0000001N9-00781+99999100281ADDGF108991999999999999999999
0029029720999991904020413004+60450+022267FM-12+001499999V0200501N002619999999N0000001N9-00671+99999100501ADDGF108991999999999999999999
0029029720999991904020420004+60450+022267FM-12+001499999V0200501N001019999999N0000001N9-01111+99999100701ADDGF105991999999999999999999
0029029720999991904020506004+60450+022267FM-12+001499999V0200701N004619999999N0000001N9-01001+99999100881ADDGF102991999999999999999999
0029029720999991904020513004+60450+022267FM-12+001499999V0200901N001019999999N0000001N9-00831+99999101321ADDGF108991999999999999999999
0029029720999991904020520004+60450+022267FM-12+001499999V0200501N002619999999N0000001N9-01221+99999101631ADDGF108991999999999999999999
0029029720999991904020606004+60450+022267FM-12+001499999V0200501N004619999999N0000001N9-01501+99999101631ADDGF108991999999999999999999
0029029720999991904020613004+60450+022267FM-12+001499999V0200901N006719999999N0000001N9-01061+99999101501ADDGF108991999999999999999999
0029029720999991904020620004+60450+022267FM-12+001499999V0200901N004619999999N0000001N9-01061+99999101191ADDGF108991999999999999999999
0029029720999991904020706004+60450+022267FM-12+001499999V0200901N006719999999N0000001N9-01061+99999100271ADDGF108991999999999999999999
0029029720999991904020713004+60450+022267FM-12+001499999V0200501N006719999999N0000001N9-00781+99999099861ADDGF108991999999999999999999
0029029720999991904020720004+60450+022267FM-12+001499999V0200501N006719999999N0000001N9-00941+99999099631ADDGF108991999999999999999999
0029029720999991904020806004+60450+022267FM-12+001499999V0200501N006719999999N0000001N9-01171+99999099441ADDGF108991999999999999999999
0029029720999991904020813004+60450+022267FM-12+001499999V0200501N006719999999N0000001N9-01061+99999099511ADDGF108991999999999999999999
0029029720999991904020820004+60450+022267FM-12+001499999V0200501N009319999999N0000001N9-01061+99999099711ADDGF108991999999999999999999
0029029720999991904020906004+60450+022267FM-12+001499999V0200501N002619999999N0000001N9-01501+99999100021ADDGF102991999999999999999999
0029029720999991904020913004+60450+022267FM-12+001499999V0200501N001019999999N0000001N9-01391+99999100021ADDGF100991999999999999999999
0029029720999991904020920004+60450+022267FM-12+001499999V0209991C000019999999N0000001N9-01891+99999100041ADDGF100991999999999999999999
0029029720999991904021006004+60450+022267FM-12+001499999V0200901N002619999999N0000001N9-01831+99999099831ADDGF108991999999999999999999
0029029720999991904021013004+60450+022267FM-12+001499999V0201101N004619999999N0000001N9-01391+99999099821ADDGF108991999999999999999999
0029029720999991904021020004+60450+022267FM-12+001499999V0209991C000019999999N0000001N9-01441+99999099781ADDGF108991999999999999999999
0029029720999991904021106004+60450+022267FM-12+001499999V0200901N006719999999N0000001N9-01171+99999098951ADDGF108991999999999999999999
0029029720999991904021113004+60450+022267FM-12+001499999V0200901N009319999999N0000001N9-00671+99999098271ADDGF108991999999999999999999
0029029720999991904021120004+60450+022267FM-12+001499999V0200901N009319999999N0000001N9-00561+99999098041ADDGF108991999999999999999999
0029029720999991904021206004+60450+022267FM-12+001499999V0200901N004619999999N0000001N9-00391+99999097911ADDGF108991999999999999999999
0029029720999991904021213004+60450+022267FM-12+001499999V0201401N002619999999N0000001N9-00391+99999098341ADDGF108991999999999999999999
0029029720999991904021220004+60450+022267FM-12+001499999V0203601N006719999999N0000001N9-01061+99999099311ADDGF108991999999999999999999
0029029720999991904021306004+60450+022267FM-12+001499999V0203601N001019999999N0000001N9-01111+99999100301ADDGF108991999999999999999999
0029029720999991904021313004+60450+022267FM-12+001499999V0203601N002619999999N0000001N9-00831+99999100221ADDGF108991999999999999999999
0029029720999991904021320004+60450+022267FM-12+001499999V0200501N002619999999N0000001N9-01171+99999099661ADDGF108991999999999999999999
0029029720999991904021406004+60450+022267FM-12+001499999V0200901N002619999999N0000001N9-00671+99999098921ADDGF108991999999999999999999
0029029720999991904021413004+60450+022267FM-12+001499999V0200901N002619999999N0000001N9-00331+99999098761ADDGF108991999999999999999999
0029029720999991904021420004+60450+022267FM-12+001499999V0201401N001019999999N0000001N9-00221+99999098941ADDGF108991999999999999999999
0029029720999991904021506004+60450+022267FM-12+001499999V0201401N001019999999N0000001N9+00061+99999098951ADDGF108991999999999999999999
0029029720999991904021513004+60450+022267FM-12+001499999V0201801N002619999999N0000001N9+00111+99999099021ADDGF108991999999999999999999
0029029720999991904021520004+60450+022267FM-12+001499999V0201401N002619999999N0000001N9-00061+99999099071ADDGF108991999999999999999999
0029029720999991904021606004+60450+022267FM-12+001499999V0200701N002619999999N0000001N9-00671+99999098991ADDGF108991999999999999999999
0029029720999991904021613004+60450+022267FM-12+001499999V0200501N004619999999N0000001N9-00671+99999098901ADDGF108991999999999999999999
0029029720999991904021620004+60450+022267FM-12+001499999V0200501N004619999999N0000001N9-00781+99999098911ADDGF108991999999999999999999
0029029720999991904021706004+60450+022267FM-12+001499999V0200501N001019999999N0000001N9-01061+99999099181ADDGF108991999999999999999999
0029029720999991904021713004+60450+022267FM-12+001499999V0200501N002619999999N0000001N9-01001+99999099481ADDGF108991999999999999999999
0029029720999991904021720004+60450+022267FM-12+001499999V0200501N001019999999N0000001N9-01061+99999099761ADDGF108991999999999999999999
0029029720999991904021806004+60450+022267FM-12+001499999V0209991C000019999999N0000001N9-00941+99999099801ADDGF108991999999999999999999
0029029720999991904021813004+60450+022267FM-12+001499999V0209991C000019999999N0000001N9-00441+99999099751ADDGF108991999999999999999999
0029029720999991904021820004+60450+022267FM-12+001499999V0209991C000019999999N0000001N9-00221+99999099521ADDGF108991999999999999999999
0029029720999991904021906004+60450+022267FM-12+001499999V0209991C000019999999N0000001N9+00001+99999099591ADDGF108991999999999999999999
0029029720999991904021913004+60450+022267FM-12+001499999V0209991C000019999999N0000001N9+00111+99999099541ADDGF108991999999999999999999
0029029720999991904021920004+60450+022267FM-12+001499999V0200501N004619999999N0000001N9-00281+99999099381ADDGF108991999999999999999999
0029029720999991904022006004+60450+022267FM-12+001499999V0209991C000019999999N0000001N9-00721+99999099121ADDGF108991999999999999999999
0029029720999991904022013004+60450+022267FM-12+001499999V0203201N002619999999N0000001N9-00331+99999098831ADDGF108991999999999999999999
0029029720999991904022020004+60450+022267FM-12+001499999V0203601N001019999999N0000001N9-00501+99999098151ADDGF108991999999999999999999
0029029720999991904022106004+60450+022267FM-12+001499999V0209991C000019999999N0000001N9-00441+99999097791ADDGF108991999999999999999999
0029029720999991904022113004+60450+022267FM-12+001499999V0200501N001019999999N0000001N9-00221+99999098301ADDGF107991999999999999999999
0029029720999991904022120004+60450+022267FM-12+001499999V0209991C000019999999N0000001N9-00781+99999099001ADDGF100991999999999999999999
0029029720999991904022206004+60450+022267FM-12+001499999V0209991C000019999999N0000001N9-00561+99999099471ADDGF108991999999999999999999
0029029720999991904022213004+60450+022267FM-12+001499999V0209991C000019999999N0000001N9+00111+99999099741ADDGF108991999999999999999999
0029029720999991904022220004+60450+022267FM-12+001499999V0203601N002619999999N0000001N9-00061+99999100391ADDGF106991999999999999999999
0029029720999991904022306004+60450+022267FM-12+001499999V0200501N002619999999N0000001N9-00281+99999101591ADDGF108991999999999999999999
0029029720999991904022313004+60450+022267FM-12+001499999V0200501N004619999999N0000001N9-00221+99999102111ADDGF108991999999999999999999
0029029720999991904022320004+60450+022267FM-12+001499999V0200501N004619999999N0000001N9-00391+99999102481ADDGF108991999999999999999999
0029029720999991904022406004+60450+022267FM-12+001499999V0200901N002619999999N0000001N9-00561+99999102871ADDGF102991999999999999999999
0029029720999991904022413004+60450+022267FM-12+001499999V0200901N002619999999N0000001N9-00331+99999103151ADDGF101991999999999999999999
0029029720999991904022420004+60450+022267FM-12+001499999V0200501N001019999999N0000001N9-00891+99999103341ADDGF100991999999999999999999
0029029720999991904022506004+60450+022267FM-12+001499999V0209991C000019999999N0000001N9-01001+99999103511ADDGF108991999999999999999999
0029029720999991904022513004+60450+022267FM-12+001499999V0200901N002619999999N0000001N9-00781+99999103641ADDGF108991999999999999999999
0029029720999991904022520004+60450+022267FM-12+001499999V0200501N002619999999N0000001N9+01001+99999103471ADDGF108991999999999999999999
0029029720999991904022606004+60450+022267FM-12+001499999V0200901N002619999999N0000001N9-01331+99999103341ADDGF100991999999999999999999
0029029720999991904022613004+60450+022267FM-12+001499999V0200901N001019999999N0000001N9-00891+99999103301ADDGF101991999999999999999999
0029029720999991904022620004+60450+022267FM-12+001499999V0200901N001019999999N0000001N9-01331+99999103261ADDGF102991999999999999999999
0029029720999991904022706004+60450+022267FM-12+001499999V0200901N002619999999N0000001N9-01941+99999103121ADDGF100991999999999999999999
0029029720999991904022713004+60450+022267FM-12+001499999V0200901N001019999999N0000001N9-00941+99999102991ADDGF106991999999999999999999
0029029720999991904022720004+60450+022267FM-12+001499999V0200901N001019999999N0000001N9-01391+99999103101ADDGF107991999999999999999999
0029029720999991904022806004+60450+022267FM-12+001499999V0209991C000019999999N0000001N9-02061+99999103161ADDGF100991999999999999999999
0029029720999991904022813004+60450+022267FM-12+001499999V0203601N001019999999N0000001N9-00941+99999103191ADDGF100991999999999999999999
0029029720999991904022820004+60450+022267FM-12+001499999V0209991C000019999999N0000001N9-01561+99999103221ADDGF100991999999999999999999
0029029720999991904022906004+60450+022267FM-12+001499999V0209991C000019999999N0000001N9-01671+99999103161ADDGF108991999999999999999999
0029029720999991904022913004+60450+022267FM-12+001499999V0201401N001019999999N0000001N9-00671+99999103151ADDGF108991999999999999999999
0029029720999991904022920004+60450+022267FM-12+001499999V0201101N001019999999N0000001N9-00941+99999103181ADDGF108991999999999999999999
0029029720999991904030106004+60450+022267FM-12+001499999V0200501N001019999999N0000001N9-01331+99999103261ADDGF108991999999999999999999
0000029720999991904030113004+60450+022267FM-12+001499999V0200501N004619999999N0000001N9-00781+99999103301
0029029720999991904030120004+60450+022267FM-12+001499999V0200501N004619999999N0000001N9-00941+99999103341ADDGF108991999999999999999999
0029029720999991904030206004+60450+022267FM-12+001499999V0200501N004619999999N0000001N9-00831+99999103341ADDGF105991999999999999999999
0029029720999991904030213004+60450+022267FM-12+001499999V0200901N004619999999N0000001N9-00281+99999103461ADDGF108991999999999999999999
0035029720999991904030220004+60450+022267FM-12+001499999V0200901N004619999999N0000001N9-00501+99999103551ADDGF108991999999999999999999MW1721
0029029720999991904030306004+60450+022267FM-12+001499999V0200901N006719999999N0000001N9-00501+99999103701ADDGF108991999999999999999999
0029029720999991904030313004+60450+022267FM-12+001499999V0201401N006719999999N0000001N9-00391+99999103861ADDGF100991999999999999999999
0029029720999991904030320004+60450+022267FM-12+001499999V0200501N002619999999N0000001N9-00831+99999104071ADDGF100991999999999999999999
0029029720999991904030406004+60450+022267FM-12+001499999V0200501N002619999999N0000001N9-01391+99999104031ADDGF100991999999999999999999
0029029720999991904030413004+60450+022267FM-12+001499999V0201401N002619999999N0000001N9-00441+99999103941ADDGF100991999999999999999999
0029029720999991904030420004+60450+022267FM-12+001499999V0200501N002619999999N0000001N9-00891+99999103961ADDGF100991999999999999999999
0029029720999991904030506004+60450+022267FM-12+001499999V0200501N002619999999N0000001N9-01441+99999103821ADDGF102991999999999999999999
0029029720999991904030513004+60450+022267FM-12+001499999V0200501N001019999999N0000001N9-00441+99999103621ADDGF100991999999999999999999
0029029720999991904030520004+60450+022267FM-12+001499999V0203601N001019999999N0000001N9-01111+99999103521ADDGF100991999999999999999999
0029029720999991904030606004+60450+022267FM-12+001499999V0203601N001019999999N0000001N9-01611+99999103501ADDGF100991999999999999999999
0029029720999991904030613004+60450+022267FM-12+001499999V0200501N001019999999N0000001N9-00501+99999103461ADDGF101991999999999999999999
0029029720999991904030620004+60450+022267FM-12+001499999V0203601N001019999999N0000001N9-01061+99999103421ADDGF108991999999999999999999
0035029720999991904030706004+60450+022267FM-12+001499999V0200901N001019999999N0000001N9-01001+99999103301ADDGF108991999999999999999999MW1721
0029029720999991904030713004+60450+022267FM-12+001499999V0200501N002619999999N0000001N9-00501+99999102951ADDGF108991999999999999999999
0029029720999991904030720004+60450+022267FM-12+001499999V0200501N004619999999N0000001N9-00671+99999102511ADDGF108991999999999999999999
0035029720999991904030806004+60450+022267FM-12+001499999V0200901N001019999999N0000001N9-00891+99999101801ADDGF108991999999999999999999MW1721
0029029720999991904030813004+60450+022267FM-12+001499999V0200901N002619999999N0000001N9-00561+99999101861ADDGF108991999999999999999999
0029029720999991904030820004+60450+022267FM-12+001499999V0209991C000019999999N0000001N9-01061+99999102301ADDGF100991999999999999999999
0029029720999991904030906004+60450+022267FM-12+001499999V0209991C000019999999N0000001N9-01331+99999102541ADDGF100991999999999999999999
0029029720999991904030913004+60450+022267FM-12+001499999V0202301N001019999999N0000001N9-00221+99999102701ADDGF108991999999999999999999
0029029720999991904030920004+60450+022267FM-12+001499999V0209991C000019999999N0000001N9-00831+99999102591ADDGF108991999999999999999999
0029029720999991904031006004+60450+022267FM-12+001499999V0201801N001019999999N0000001N9-00561+99999102501ADDGF108991999999999999999999
0029029720999991904031013004+60450+022267FM-12+001499999V0201801N001019999999N0000001N9+00061+99999102511ADDGF108991999999999999999999
0029029720999991904031020004+60450+022267FM-12+001499999V0201801N001019999999N0000001N9-00171+99999102461ADDGF108991999999999999999999
0035029720999991904031106004+60450+022267FM-12+001499999V0201401N001019999999N0000001N9-00441+99999102191ADDGF108991999999999999999999MW1721
0035029720999991904031113004+60450+022267FM-12+001499999V0201801N002619999999N0000001N9-00221+99999101761ADDGF108991999999999999999999MW1721
0029029720999991904031120004+60450+022267FM-12+001499999V0201801N004619999999N0000001N9-00331+99999101481ADDGF108991999999999999999999
0029029720999991904031206004+60450+022267FM-12+001499999V0209991C000019999999N0000001N9-00441+99999101021ADDGF108991999999999999999999
0029029720999991904031213004+60450+022267FM-12+001499999V0209991C000019999999N0000001N9-00441+99999100901ADDGF108991999999999999999999
0029029720999991904031220004+60450+022267FM-12+001499999V0209991C000019999999N0000001N9-00721+99999100831ADDGF100991999999999999999999
0029029720999991904031306004+60450+022267FM-12+001499999V0201801N002619999999N0000001N9-00611+99999100591ADDGF103991999999999999999999
0029029720999991904031313004+60450+022267FM-12+001499999V0202301N004619999999N0000001N9+00221+99999100551ADDGF108991999999999999999999
0029029720999991904031320004+60450+022267FM-12+001499999V0202301N002619999999N0000001N9-00281+99999100561ADDGF100991999999999999999999
0029029720999991904031406004+60450+022267FM-12+001499999V0202501N006719999999N0000001N9+00001+99999100381ADDGF108991999999999999999999
0029029720999991904031413004+60450+022267FM-12+001499999V0202301N006719999999N0000001N9+00111+99999100311ADDGF108991999999999999999999
0029029720999991904031420004+60450+022267FM-12+001499999V0202301N009319999999N0000001N9+00001+99999100031ADDGF108991999999999999999999
0029029720999991904031506004+60450+022267FM-12+001499999V0209991C000019999999N0000001N9+00001+99999099791ADDGF108991999999999999999999
0035029720999991904031513004+60450+022267FM-12+001499999V0209991C000019999999N0000001N9+00281+99999099801ADDGF108991999999999999999999MW1721
0029029720999991904031520004+60450+022267FM-12+001499999V0202901N002619999999N0000001N9-00281+99999100141ADDGF108991999999999999999999
0029029720999991904031606004+60450+022267FM-12+001499999V0203201N002619999999N0000001N9-01221+99999100901ADDGF100991999999999999999999
0029029720999991904031613004+60450+022267FM-12+001499999V0203201N004619999999N0000001N9-00171+99999101521ADDGF100991999999999999999999
0029029720999991904031620004+60450+022267FM-12+001499999V0203201N001019999999N0000001N9-00891+99999102261ADDGF100991999999999999999999
0029029720999991904031706004+60450+022267FM-12+001499999V0203201N004619999999N0000001N9-01391+99999102561ADDGF102991999999999999999999
0029029720999991904031713004+60450+022267FM-12+001499999V0203201N004619999999N0000001N9+00001+99999102441ADDGF101991999999999999999999
0029029720999991904031720004+60450+022267FM-12+001499999V0203201N004619999999N0000001N9-00281+99999102341ADDGF100991999999999999999999
0029029720999991904031806004+60450+022267FM-12+001499999V0202701N001019999999N0000001N9-00391+99999102321ADDGF100991999999999999999999
0029029720999991904031813004+60450+022267FM-12+001499999V0202701N002619999999N0000001N9+00061+99999102391ADDGF101991999999999999999999
0029029720999991904031820004+60450+022267FM-12+001499999V0201801N001019999999N0000001N9-00221+99999102361ADDGF108991999999999999999999
0029029720999991904031906004+60450+022267FM-12+001499999V0201801N002619999999N0000001N9-00281+99999102471ADDGF108991999999999999999999
0029029720999991904031913004+60450+022267FM-12+001499999V0201801N002619999999N0000001N9+00391+99999102581ADDGF100991999999999999999999
0029029720999991904031920004+60450+022267FM-12+001499999V0201801N002619999999N0000001N9-00501+99999102541ADDGF100991999999999999999999
0029029720999991904032006004+60450+022267FM-12+001499999V0201801N004619999999N0000001N9-00441+99999102321ADDGF100991999999999999999999
0029029720999991904032013004+60450+022267FM-12+001499999V0201801N006719999999N0000001N9+00171+99999102241ADDGF102991999999999999999999
0029029720999991904032020004+60450+022267FM-12+001499999V0201801N004619999999N0000001N9-00391+99999102181ADDGF100991999999999999999999
0029029720999991904032106004+60450+022267FM-12+001499999V0201801N004619999999N0000001N9-00281+99999102261ADDGF108991999999999999999999
0029029720999991904032113004+60450+022267FM-12+001499999V0201401N006719999999N0000001N9-00171+99999102401ADDGF108991999999999999999999
0029029720999991904032120004+60450+022267FM-12+001499999V0201801N009319999999N0000001N9-00281+99999102201ADDGF100991999999999999999999
0035029720999991904032206004+60450+022267FM-12+001499999V0201801N012319999999N0000001N9-00171+99999101231ADDGF108991999999999999999999MW1721
0035029720999991904032213004+60450+022267FM-12+001499999V0201801N009319999999N0000001N9-00061+99999100951ADDGF108991999999999999999999MW1721
0029029720999991904032220004+60450+022267FM-12+001499999V0201801N001019999999N0000001N9+00061+99999101111ADDGF108991999999999999999999
0029029720999991904032306004+60450+022267FM-12+001499999V0201401N001019999999N0000001N9+00001+99999101661ADDGF108991999999999999999999
0029029720999991904032313004+60450+022267FM-12+001499999V0201401N001019999999N0000001N9+00331+99999102031ADDGF108991999999999999999999
0029029720999991904032320004+60450+022267FM-12+001499999V0209991C000019999999N0000001N9+00061+99999102561ADDGF108991999999999999999999
0029029720999991904032406004+60450+022267FM-12+001499999V0209991C000019999999N0000001N9-00221+99999103341ADDGF108991999999999999999999
0029029720999991904032413004+60450+022267FM-12+001499999V0200501N001019999999N0000001N9+00331+99999103701ADDGF101991999999999999999999
0029029720999991904032420004+60450+022267FM-12+001499999V0209991C000019999999N0000001N9-00221+99999103841ADDGF100991999999999999999999
0029029720999991904032506004+60450+022267FM-12+001499999V0209991C000019999999N0000001N9-00721+99999103981ADDGF100991999999999999999999
0029029720999991904032513004+60450+022267FM-12+001499999V0209991C000019999999N0000001N9+00501+99999104001ADDGF100991999999999999999999
0029029720999991904032520004+60450+022267FM-12+001499999V0209991C000019999999N0000001N9-00111+99999103831ADDGF100991999999999999999999
0029029720999991904032606004+60450+022267FM-12+001499999V0209991C000019999999N0000001N9-00611+99999103821ADDGF100991999999999999999999
0029029720999991904032613004+60450+022267FM-12+001499999V0209991C000019999999N0000001N9+00611+99999103741ADDGF102991999999999999999999
0029029720999991904032620004+60450+022267FM-12+001499999V0209991C000019999999N0000001N9-00171+99999103661ADDGF100991999999999999999999
0029029720999991904032706004+60450+022267FM-12+001499999V0209991C000019999999N0000001N9-00721+99999103551ADDGF100991999999999999999999
0029029720999991904032713004+60450+022267FM-12+001499999V0201401N001019999999N0000001N9+00671+99999103581ADDGF100991999999999999999999
0029029720999991904032720004+60450+022267FM-12+001499999V0201401N001019999999N0000001N9-00171+99999103591ADDGF100991999999999999999999
0029029720999991904032806004+60450+022267FM-12+001499999V0209991C000019999999N0000001N9-00331+99999103721ADDGF100991999999999999999999
0029029720999991904032813004+60450+022267FM-12+001499999V0200901N002619999999N0000001N9+00331+99999103681ADDGF100991999999999999999999
0029029720999991904032820004+60450+022267FM-12+001499999V0200901N006719999999N0000001N9-00281+99999103561ADDGF100991999999999999999999
0029029720999991904032906004+60450+022267FM-12+001499999V0201401N006719999999N0000001N9-00281+99999103241ADDGF100991999999999999999999
0029029720999991904032913004+60450+022267FM-12+001499999V0201401N004619999999N0000001N9+00171+99999103021ADDGF100991999999999999999999
0029029720999991904032920004+60450+022267FM-12+001499999V0201401N004619999999N0000001N9-00281+99999102681ADDGF100991999999999999999999
0029029720999991904033006004+60450+022267FM-12+001499999V0201401N004619999999N0000001N9-00561+99999102161ADDGF100991999999999999999999
0029029720999991904033013004+60450+022267FM-12+001499999V0201401N009319999999N0000001N9+00061+99999102021ADDGF100991999999999999999999
0029029720999991904033020004+60450+022267FM-12+001499999V0201401N006719999999N0000001N9-00391+99999102151ADDGF100991999999999999999999
0029029720999991904033106004+60450+022267FM-12+001499999V0200901N006719999999N0000001N9-00671+99999102481ADDGF100991999999999999999999
0029029720999991904033113004+60450+022267FM-12+001499999V0200901N006719999999N0000001N9+00001+99999102641ADDGF100991999999999999999999
0029029720999991904033120004+60450+022267FM-12+001499999V0200901N001019999999N0000001N9-00501+99999102801ADDGF100991999999999999999999
0029029720999991904040106004+60450+022267FM-12+001499999V0200901N002619999999N0000001N9-00391+99999102701ADDGF100991999999999999999999
0029029720999991904040113004+60450+022267FM-12+001499999V0201101N002619999999N0000001N9+00061+99999102551ADDGF100991999999999999999999
0029029720999991904040120004+60450+022267FM-12+001499999V0200901N002619999999N0000001N9-00441+99999102351ADDGF100991999999999999999999
0029029720999991904040206004+60450+022267FM-12+001499999V0200901N002619999999N0000001N9-00611+99999102141ADDGF100991999999999999999999
0029029720999991904040213004+60450+022267FM-12+001499999V0200901N002619999999N0000001N9+00171+99999102181ADDGF100991999999999999999999
0029029720999991904040220004+60450+022267FM-12+001499999V0201401N001019999999N0000001N9-00281+99999102261ADDGF100991999999999999999999
0029029720999991904040306004+60450+022267FM-12+001499999V0201401N002619999999N0000001N9-00441+99999102341ADDGF108991999999999999999999
0029029720999991904040313004+60450+022267FM-12+001499999V0201401N004619999999N0000001N9+00221+99999102241ADDGF106991999999999999999999
0029029720999991904040320004+60450+022267FM-12+001499999V0201401N002619999999N0000001N9-00061+99999101951ADDGF108991999999999999999999
0029029720999991904040406004+60450+022267FM-12+001499999V0201401N006719999999N0000001N9+00001+99999101301ADDGF108991999999999999999999
0029029720999991904040413004+60450+022267FM-12+001499999V0201401N009319999999N0000001N9+00171+99999101111ADDGF108991999999999999999999
0029029720999991904040420004+60450+022267FM-12+001499999V0201401N002619999999N0000001N9+00061+99999100901ADDGF108991999999999999999999
0029029720999991904040506004+60450+022267FM-12+001499999V0201401N002619999999N0000001N9+00061+99999100831ADDGF108991999999999999999999
0029029720999991904040513004+60450+022267FM-12+001499999V0201401N002619999999N0000001N9+00221+99999100761ADDGF108991999999999999999999
0029029720999991904040520004+60450+022267FM-12+001499999V0201401N002619999999N0000001N9+00061+99999100601ADDGF108991999999999999999999
0029029720999991904040606004+60450+022267FM-12+001499999V0201401N001019999999N0000001N9+00061+99999100381ADDGF108991999999999999999999
0029029720999991904040613004+60450+022267FM-12+001499999V0201401N002619999999N0000001N9+00171+99999099961ADDGF108991999999999999999999
0029029720999991904040620004+60450+022267FM-12+001499999V0201401N001019999999N0000001N9+00111+99999099201ADDGF108991999999999999999999
0029029720999991904040706004+60450+022267FM-12+001499999V0201401N001019999999N0000001N9+00111+99999098351ADDGF108991999999999999999999
0029029720999991904040713004+60450+022267FM-12+001499999V0201401N001019999999N0000001N9+00221+99999098141ADDGF108991999999999999999999
0029029720999991904040720004+60450+022267FM-12+001499999V0201401N002619999999N0000001N9+00111+99999098521ADDGF108991999999999999999999
0029029720999991904040806004+60450+022267FM-12+001499999V0201401N002619999999N0000001N9+00171+99999099231ADDGF108991999999999999999999
0029029720999991904040813004+60450+022267FM-12+001499999V0201401N002619999999N0000001N9+00221+99999099661ADDGF108991999999999999999999
0029029720999991904040820004+60450+022267FM-12+001499999V0201401N001019999999N0000001N9+00171+99999099941ADDGF108991999999999999999999
0029029720999991904040906004+60450+022267FM-12+001499999V0201401N001019999999N0000001N9+00111+99999100191ADDGF108991999999999999999999
0029029720999991904040913004+60450+022267FM-12+001499999V0201401N001019999999N0000001N9+00331+99999100191ADDGF108991999999999999999999
0029029720999991904040920004+60450+022267FM-12+001499999V0201401N002619999999N0000001N9+00171+99999099981ADDGF108991999999999999999999
0029029720999991904041006004+60450+022267FM-12+001499999V0201801N002619999999N0000001N9+00111+99999099061ADDGF108991999999999999999999
0029029720999991904041013004+60450+022267FM-12+001499999V0201801N004619999999N0000001N9+00391+99999099231ADDGF107991999999999999999999
0029029720999991904041020004+60450+022267FM-12+001499999V0202301N006719999999N0000001N9+00171+99999099321ADDGF108991999999999999999999
0029029720999991904041106004+60450+022267FM-12+001499999V0201401N001019999999N0000001N9+00171+99999099141ADDGF108991999999999999999999
0029029720999991904041113004+60450+022267FM-12+001499999V0202301N001019999999N0000001N9+00441+99999099241ADDGF108991999999999999999999
0029029720999991904041120004+60450+022267FM-12+001499999V0209991C000019999999N0000001N9+00061+99999099561ADDGF100991999999999999999999
0029029720999991904041206004+60450+022267FM-12+001499999V0209991C000019999999N0000001N9-00061+99999100141ADDGF100991999999999999999999
0029029720999991904041213004+60450+022267FM-12+001499999V0203601N004619999999N0000001N9+00391+99999100631ADDGF108991999999999999999999
0029029720999991904041220004+60450+022267FM-12+001499999V0209991C000019999999N0000001N9+00061+99999100861ADDGF108991999999999999999999
0029029720999991904041306004+60450+022267FM-12+001499999V0203201N001019999999N0000001N9-00061+99999101161ADDGF108991999999999999999999
0029029720999991904041313004+60450+022267FM-12+001499999V0203601N004619999999N0000001N9+00221+99999101381ADDGF102991999999999999999999
0029029720999991904041320004+60450+022267FM-12+001499999V0203601N002619999999N0000001N9-00171+99999101841ADDGF100991999999999999999999
0029029720999991904041406004+60450+022267FM-12+001499999V0203601N002619999999N0000001N9-00281+99999102121ADDGF100991999999999999999999
0029029720999991904041413004+60450+022267FM-12+001499999V0203601N006719999999N0000001N9+00221+99999102281ADDGF100991999999999999999999
0029029720999991904041420004+60450+022267FM-12+001499999V0203601N002619999999N0000001N9-00281+99999102521ADDGF100991999999999999999999
0029029720999991904041506004+60450+022267FM-12+001499999V0203601N002619999999N0000001N9-00331+99999102711ADDGF100991999999999999999999
0029029720999991904041513004+60450+022267FM-12+001499999V0202501N002619999999N0000001N9+00331+99999102741ADDGF107991999999999999999999
0029029720999991904041520004+60450+022267FM-12+001499999V0202701N004619999999N0000001N9-00061+99999102501ADDGF108991999999999999999999
0029029720999991904041606004+60450+022267FM-12+001499999V0202301N009319999999N0000001N9+00171+99999101841ADDGF108991999999999999999999
0029029720999991904041613004+60450+022267FM-12+001499999V0202301N009319999999N0000001N9+00561+99999101561ADDGF108991999999999999999999
0029029720999991904041620004+60450+022267FM-12+001499999V0202301N004619999999N0000001N9+00391+99999101281ADDGF108991999999999999999999
0029029720999991904041706004+60450+022267FM-12+001499999V0201801N012319999999N0000001N9+00501+99999101141ADDGF108991999999999999999999
0029029720999991904041713004+60450+022267FM-12+001499999V0201401N009319999999N0000001N9+00831+99999101221ADDGF108991999999999999999999
0029029720999991904041720004+60450+022267FM-12+001499999V0201801N002619999999N0000001N9+00611+99999101311ADDGF108991999999999999999999
0029029720999991904041806004+60450+022267FM-12+001499999V0201801N002619999999N0000001N9+00391+99999101991ADDGF108991999999999999999999
0029029720999991904041813004+60450+022267FM-12+001499999V0201801N001019999999N0000001N9+00501+99999102721ADDGF108991999999999999999999
0035029720999991904041820004+60450+022267FM-12+001499999V0201801N002619999999N0000001N9+00221+99999103191ADDGF108991999999999999999999MW1621
0029029720999991904041906004+60450+022267FM-12+001499999V0201801N001019999999N0000001N9+00281+99999103461ADDGF107991999999999999999999
0029029720999991904041913004+60450+022267FM-12+001499999V0201801N001019999999N0000001N9+01001+99999103481ADDGF108991999999999999999999
0029029720999991904041920004+60450+022267FM-12+001499999V0209991C000019999999N0000001N9+00331+99999103441ADDGF108991999999999999999999
0029029720999991904042006004+60450+022267FM-12+001499999V0201101N001019999999N0000001N9+00721+99999103121ADDGF102991999999999999999999
0029029720999991904042013004+60450+022267FM-12+001499999V0201401N004619999999N0000001N9+01281+99999102861ADDGF100991999999999999999999
0029029720999991904042020004+60450+022267FM-12+001499999V0201401N004619999999N0000001N9+00721+99999102801ADDGF100991999999999999999999
0029029720999991904042106004+60450+022267FM-12+001499999V0201401N002619999999N0000001N9+00721+99999102401ADDGF100991999999999999999999
0029029720999991904042113004+60450+022267FM-12+001499999V0201401N004619999999N0000001N9+00831+99999102021ADDGF108991999999999999999999
0029029720999991904042120004+60450+022267FM-12+001499999V0201401N002619999999N0000001N9+00611+99999101381ADDGF108991999999999999999999
0035029720999991904042206004+60450+022267FM-12+001499999V0202701N001019999999N0000001N9+00331+99999100961ADDGF108991999999999999999999MW1621
0029029720999991904042213004+60450+022267FM-12+001499999V0202701N001019999999N0000001N9+00501+99999101361ADDGF108991999999999999999999
0029029720999991904042220004+60450+022267FM-12+001499999V0202701N002619999999N0000001N9+00171+99999101751ADDGF108991999999999999999999
0029029720999991904042306004+60450+022267FM-12+001499999V0201801N001019999999N0000001N9+00061+99999102001ADDGF108991999999999999999999
0029029720999991904042313004+60450+022267FM-12+001499999V0201801N002619999999N0000001N9+00941+99999101911ADDGF100991999999999999999999
0029029720999991904042320004+60450+022267FM-12+001499999V0201801N001019999999N0000001N9+00501+99999101761ADDGF100991999999999999999999
0029029720999991904042406004+60450+022267FM-12+001499999V0209991C000019999999N0000001N9+00391+99999101071ADDGF108991999999999999999999
0029029720999991904042413004+60450+022267FM-12+001499999V0202701N001019999999N0000001N9+01061+99999100781ADDGF106991999999999999999999
0029029720999991904042420004+60450+022267FM-12+001499999V0209991C000019999999N0000001N9+00501+99999100621ADDGF108991999999999999999999
0029029720999991904042506004+60450+022267FM-12+001499999V0209991C000019999999N0000001N9+00391+99999100521ADDGF108991999999999999999999
0000029720999991904042513004+60450+022267FM-12+001499999V0201801N004619999999N0000001N9+00721+99999100421
0029029720999991904042520004+60450+022267FM-12+001499999V0200901N006719999999N0000001N9+00561+99999099941ADDGF108991999999999999999999
0029029720999991904042606004+60450+022267FM-12+001499999V0202301N012319999999N0000001N9+00441+99999100181ADDGF100991999999999999999999
0029029720999991904042613004+60450+022267FM-12+001499999V0202301N009319999999N0000001N9+00671+99999100541ADDGF100991999999999999999999
0029029720999991904042620004+60450+022267FM-12+001499999V0202901N002619999999N0000001N9+00281+99999100831ADDGF101991999999999999999999
0029029720999991904042706004+60450+022267FM-12+001499999V0202301N002619999999N0000001N9+00561+99999101231ADDGF100991999999999999999999
0029029720999991904042713004+60450+022267FM-12+001499999V0202301N004619999999N0000001N9+00781+99999101401ADDGF100991999999999999999999
0029029720999991904042720004+60450+022267FM-12+001499999V0202301N002619999999N0000001N9+00281+99999101351ADDGF108991999999999999999999
0029029720999991904042806004+60450+022267FM-12+001499999V0201401N001019999999N0000001N9+00441+99999100991ADDGF108991999999999999999999
0029029720999991904042813004+60450+022267FM-12+001499999V0201401N001019999999N0000001N9+00561+99999100631ADDGF108991999999999999999999
0029029720999991904042820004+60450+022267FM-12+001499999V0201401N001019999999N0000001N9+00281+99999100561ADDGF108991999999999999999999
0029029720999991904042906004+60450+022267FM-12+001499999V0200501N001019999999N0000001N9+00281+99999100351ADDGF108991999999999999999999
0029029720999991904042913004+60450+022267FM-12+001499999V0202701N004619999999N0000001N9+00561+99999100641ADDGF108991999999999999999999
0029029720999991904042920004+60450+022267FM-12+001499999V0209991C000019999999N0000001N9+00171+99999100661ADDGF100991999999999999999999
0029029720999991904043006004+60450+022267FM-12+001499999V0201801N002619999999N0000001N9+00331+99999100361ADDGF108991999999999999999999
0029029720999991904043013004+60450+022267FM-12+001499999V0201801N002619999999N0000001N9+00561+99999100141ADDGF108991999999999999999999
0029029720999991904043020004+60450+022267FM-12+001499999V0203201N001019999999N0000001N9+00171+99999100821ADDGF100991999999999999999999
0029029720999991904050106004+60450+022267FM-12+001499999V0203201N001019999999N0000001N9+00441+99999101221ADDGF100991999999999999999999
0029029720999991904050113004+60450+022267FM-12+001499999V0203201N002619999999N0000001N9+01061+99999101431ADDGF106991999999999999999999
0029029720999991904050120004+60450+022267FM-12+001499999V0202301N002619999999N0000001N9+00501+99999101441ADDGF108991999999999999999999
0029029720999991904050206004+60450+022267FM-12+001499999V0201401N001019999999N0000001N9+00441+99999101351ADDGF108991999999999999999999
0029029720999991904050213004+60450+022267FM-12+001499999V0201401N001019999999N0000001N9+00831+99999101081ADDGF108991999999999999999999
0029029720999991904050220004+60450+022267FM-12+001499999V0201401N002619999999N0000001N9+00721+99999100281ADDGF108991999999999999999999
0029029720999991904050306004+60450+022267FM-12+001499999V0201801N001019999999N0000001N9+00501+99999099661ADDGF108991999999999999999999
0029029720999991904050313004+60450+022267FM-12+001499999V0200501N004619999999N0000001N9+00611+99999099301ADDGF108991999999999999999999
0035029720999991904050320004+60450+022267FM-12+001499999V0201401N001019999999N0000001N9+00441+99999099161ADDGF108991999999999999999999MW1621
0029029720999991904050406004+60450+022267FM-12+001499999V0200701N002619999999N0000001N9+00441+99999099271ADDGF108991999999999999999999
0029029720999991904050413004+60450+022267FM-12+001499999V0201101N004619999999N0000001N9+00721+99999099831ADDGF107991999999999999999999
0029029720999991904050420004+60450+022267FM-12+001499999V0202701N004619999999N0000001N9+00331+99999100481ADDGF108991999999999999999999
0029029720999991904050506004+60450+022267FM-12+001499999V0203201N002619999999N0000001N9+00281+99999100951ADDGF108991999999999999999999
0029029720999991904050513004+60450+022267FM-12+001499999V0203201N002619999999N0000001N9+00671+99999101191ADDGF108991999999999999999999
0029029720999991904050520004+60450+022267FM-12+001499999V0203601N001019999999N0000001N9+00221+99999101201ADDGF104991999999999999999999
0029029720999991904050606004+60450+022267FM-12+001499999V0200501N004619999999N0000001N9+00111+99999100951ADDGF108991999999999999999999
0029029720999991904050613004+60450+022267FM-12+001499999V0200501N006719999999N0000001N9+00501+99999100751ADDGF108991999999999999999999
0029029720999991904050620004+60450+022267FM-12+001499999V0203601N002619999999N0000001N9+00331+99999100721ADDGF108991999999999999999999
0029029720999991904050706004+60450+022267FM-12+001499999V0203601N002619999999N0000001N9+00281+99999101001ADDGF102991999999999999999999
0029029720999991904050713004+60450+022267FM-12+001499999V0203601N004619999999N0000001N9+00611+99999101271ADDGF108991999999999999999999
0029029720999991904050720004+60450+022267FM-12+001499999V0203601N002619999999N0000001N9+00281+99999101641ADDGF108991999999999999999999
0029029720999991904050806004+60450+022267FM-12+001499999V0200901N009319999999N0000001N9+00501+99999101631ADDGF108991999999999999999999
0000029720999991904050813004+60450+022267FM-12+001499999V0200901N015419999999N0000001N9+00941+99999101421
0035029720999991904050820004+60450+022267FM-12+001499999V0200901N004619999999N0000001N9+00501+99999101311ADDGF108991999999999999999999MW1621
0035029720999991904050906004+60450+022267FM-12+001499999V0201401N002619999999N0000001N9+00331+99999100801ADDGF108991999999999999999999MW1621
0029029720999991904050913004+60450+022267FM-12+001499999V0201401N001019999999N0000001N9+00611+99999100121ADDGF108991999999999999999999
0029029720999991904050920004+60450+022267FM-12+001499999V0203201N002619999999N0000001N9+00171+99999100461ADDGF108991999999999999999999
0029029720999991904051006004+60450+022267FM-12+001499999V0203601N002619999999N0000001N9+00221+99999100991ADDGF108991999999999999999999
0029029720999991904051013004+60450+022267FM-12+001499999V0200501N001019999999N0000001N9+00781+99999100861ADDGF108991999999999999999999
0035029720999991904051020004+60450+022267FM-12+001499999V0200501N001019999999N0000001N9+00611+99999100521ADDGF108991999999999999999999MW1621
0035029720999991904051106004+60450+022267FM-12+001499999V0200501N002619999999N0000001N9+00441+99999099881ADDGF108991999999999999999999MW1621
0029029720999991904051113004+60450+022267FM-12+001499999V0200501N002619999999N0000001N9+00561+99999099991ADDGF108991999999999999999999
0029029720999991904051120004+60450+022267FM-12+001499999V0200501N002619999999N0000001N9+00391+99999100421ADDGF108991999999999999999999
0029029720999991904051206004+60450+022267FM-12+001499999V0200501N002619999999N0000001N9+00501+99999101071ADDGF108991999999999999999999
0029029720999991904051213004+60450+022267FM-12+001499999V0200501N004619999999N0000001N9+00941+99999101441ADDGF102991999999999999999999
0029029720999991904051220004+60450+022267FM-12+001499999V0203601N001019999999N0000001N9+00281+99999101751ADDGF100991999999999999999999
0029029720999991904051306004+60450+022267FM-12+001499999V0209991C000019999999N0000001N9+00561+99999102341ADDGF102991999999999999999999
0029029720999991904051313004+60450+022267FM-12+001499999V0203601N002619999999N0000001N9+01111+99999102341ADDGF100991999999999999999999
0029029720999991904051320004+60450+022267FM-12+001499999V0203601N001019999999N0000001N9+00561+99999102361ADDGF101991999999999999999999
0029029720999991904051406004+60450+022267FM-12+001499999V0201801N001019999999N0000001N9+00561+99999102141ADDGF108991999999999999999999
0029029720999991904051413004+60450+022267FM-12+001499999V0201801N002619999999N0000001N9+00891+99999101871ADDGF108991999999999999999999
0029029720999991904051420004+60450+022267FM-12+001499999V0202301N004619999999N0000001N9+00611+99999101621ADDGF108991999999999999999999
0035029720999991904051506004+60450+022267FM-12+001499999V0202301N019019999999N0000001N9+00831+99999100681ADDGF108991999999999999999999MW1621
0035029720999991904051513004+60450+022267FM-12+001499999V0201801N012319999999N0000001N9+00671+99999100231ADDGF108991999999999999999999MW1621
0029029720999991904051520004+60450+022267FM-12+001499999V0202301N002619999999N0000001N9+00611+99999099941ADDGF108991999999999999999999
0029029720999991904051606004+60450+022267FM-12+001499999V0202301N001019999999N0000001N9+00611+99999099401ADDGF108991999999999999999999
0029029720999991904051613004+60450+022267FM-12+001499999V0202301N002619999999N0000001N9+01001+99999099501ADDGF108991999999999999999999
0029029720999991904051620004+60450+022267FM-12+001499999V0203201N004619999999N0000001N9+00441+99999099941ADDGF102991999999999999999999
0029029720999991904051706004+60450+022267FM-12+001499999V0203201N004619999999N0000001N9+00891+99999100561ADDGF100991999999999999999999
0029029720999991904051713004+60450+022267FM-12+001499999V0202701N006719999999N0000001N9+01111+99999100781ADDGF108991999999999999999999
0029029720999991904051720004+60450+022267FM-12+001499999V0203201N002619999999N0000001N9+00721+99999100561ADDGF108991999999999999999999
0029029720999991904051806004+60450+022267FM-12+001499999V0201801N006719999999N0000001N9+00781+99999099481ADDGF108991999999999999999999
0029029720999991904051813004+60450+022267FM-12+001499999V0202701N004619999999N0000001N9+00941+99999099241ADDGF108991999999999999999999
0029029720999991904051820004+60450+022267FM-12+001499999V0202301N002619999999N0000001N9+00781+99999099481ADDGF106991999999999999999999
0029029720999991904051906004+60450+022267FM-12+001499999V0202301N001019999999N0000001N9+00941+99999099401ADDGF103991999999999999999999
0029029720999991904051913004+60450+022267FM-12+001499999V0202701N006719999999N0000001N9+01061+99999099361ADDGF106991999999999999999999
0029029720999991904051920004+60450+022267FM-12+001499999V0209991C000019999999N0000001N9+00561+99999099441ADDGF100991999999999999999999
0029029720999991904052006004+60450+022267FM-12+001499999V0202701N004619999999N0000001N9+00721+99999099591ADDGF100991999999999999999999
0029029720999991904052013004+60450+022267FM-12+001499999V0202701N009319999999N0000001N9+00941+99999099951ADDGF102991999999999999999999
0029029720999991904052020004+60450+022267FM-12+001499999V0203201N004619999999N0000001N9+00611+99999100241ADDGF108991999999999999999999
0029029720999991904052106004+60450+022267FM-12+001499999V0203201N004619999999N0000001N9+00671+99999100801ADDGF108991999999999999999999
0029029720999991904052113004+60450+022267FM-12+001499999V0203601N009319999999N0000001N9+00781+99999101081ADDGF107991999999999999999999
0029029720999991904052120004+60450+022267FM-12+001499999V0203601N006719999999N0000001N9+00111+99999101471ADDGF108991999999999999999999
0029029720999991904052206004+60450+022267FM-12+001499999V0203601N004619999999N0000001N9+00281+99999101481ADDGF108991999999999999999999
0029029720999991904052213004+60450+022267FM-12+001499999V0203601N006719999999N0000001N9+00391+99999101551ADDGF108991999999999999999999
0029029720999991904052220004+60450+022267FM-12+001499999V0203601N006719999999N0000001N9+00281+99999101581ADDGF108991999999999999999999
0029029720999991904052306004+60450+022267FM-12+001499999V0200501N002619999999N0000001N9+00391+99999101621ADDGF106991999999999999999999
0029029720999991904052313004+60450+022267FM-12+001499999V0200501N004619999999N0000001N9+00941+99999101621ADDGF102991999999999999999999
0029029720999991904052320004+60450+022267FM-12+001499999V0200701N001019999999N0000001N9+00781+99999101761ADDGF102991999999999999999999
0029029720999991904052406004+60450+022267FM-12+001499999V0200901N002619999999N0000001N9+00941+99999102281ADDGF100991999999999999999999
0029029720999991904052413004+60450+022267FM-12+001499999V0200701N002619999999N0000001N9+01221+99999102311ADDGF104991999999999999999999
0029029720999991904052420004+60450+022267FM-12+001499999V0200901N001019999999N0000001N9+00611+99999102381ADDGF100991999999999999999999
0029029720999991904052506004+60450+022267FM-12+001499999V0202701N002619999999N0000001N9+00721+99999102641ADDGF108991999999999999999999
0029029720999991904052513004+60450+022267FM-12+001499999V0202701N004619999999N0000001N9+01281+99999102641ADDGF100991999999999999999999
0029029720999991904052520004+60450+022267FM-12+001499999V0203201N001019999999N0000001N9+00671+99999102671ADDGF100991999999999999999999
0029029720999991904052606004+60450+022267FM-12+001499999V0202301N002619999999N0000001N9+00941+99999102871ADDGF100991999999999999999999
0029029720999991904052613004+60450+022267FM-12+001499999V0202301N004619999999N0000001N9+01221+99999102791ADDGF100991999999999999999999
0029029720999991904052620004+60450+022267FM-12+001499999V0202301N001019999999N0000001N9+00721+99999102701ADDGF100991999999999999999999
0029029720999991904052706004+60450+022267FM-12+001499999V0202501N006719999999N0000001N9+01001+99999102501ADDGF108991999999999999999999
0029029720999991904052713004+60450+022267FM-12+001499999V0202701N009319999999N0000001N9+01391+99999102301ADDGF103991999999999999999999
0029029720999991904052720004+60450+022267FM-12+001499999V0202301N004619999999N0000001N9+00891+99999101911ADDGF102991999999999999999999
0029029720999991904052806004+60450+022267FM-12+001499999V0202301N004619999999N0000001N9+01001+99999101081ADDGF108991999999999999999999
0029029720999991904052813004+60450+022267FM-12+001499999V0202301N004619999999N0000001N9+01501+99999100821ADDGF102991999999999999999999
0029029720999991904052820004+60450+022267FM-12+001499999V0202901N009319999999N0000001N9+00891+99999101041ADDGF100991999999999999999999
0029029720999991904052906004+60450+022267FM-12+001499999V0203601N004619999999N0000001N9+01441+99999101321ADDGF102991999999999999999999
0029029720999991904052913004+60450+022267FM-12+001499999V0203601N006719999999N0000001N9+01781+99999101561ADDGF103991999999999999999999
0029029720999991904052920004+60450+022267FM-12+001499999V0203601N001019999999N0000001N9+01221+99999102071ADDGF100991999999999999999999
0029029720999991904053006004+60450+022267FM-12+001499999V0203601N002619999999N0000001N9+01171+99999102501ADDGF100991999999999999999999
0029029720999991904053013004+60450+022267FM-12+001499999V0200501N006719999999N0000001N9+01671+99999102421ADDGF100991999999999999999999
0029029720999991904053020004+60450+022267FM-12+001499999V0203601N002619999999N0000001N9+01111+99999102201ADDGF102991999999999999999999
0029029720999991904053106004+60450+022267FM-12+001499999V0202701N002619999999N0000001N9+01221+99999101741ADDGF108991999999999999999999
0029029720999991904053113004+60450+022267FM-12+001499999V0203201N006719999999N0000001N9+01831+99999101591ADDGF107991999999999999999999
0029029720999991904053120004+60450+022267FM-12+001499999V0203201N004619999999N0000001N9+01221+99999101581ADDGF103991999999999999999999
0029029720999991904060106004+60450+022267FM-12+001499999V0202701N006719999999N0000001N9+01441+99999101361ADDGF102991999999999999999999
0029029720999991904060113004+60450+022267FM-12+001499999V0203201N009319999999N0000001N9+01941+99999101181ADDGF102991999999999999999999
0029029720999991904060120004+60450+022267FM-12+001499999V0203601N001019999999N0000001N9+01441+99999101081ADDGF100991999999999999999999
0029029720999991904060206004+60450+022267FM-12+001499999V0201401N004619999999N0000001N9+01611+99999100871ADDGF108991999999999999999999
0029029720999991904060213004+60450+022267FM-12+001499999V0201401N004619999999N0000001N9+02001+99999100711ADDGF100991999999999999999999
0029029720999991904060220004+60450+022267FM-12+001499999V0202701N001019999999N0000001N9+01391+99999100751ADDGF105991999999999999999999
0029029720999991904060306004+60450+022267FM-12+001499999V0200901N001019999999N0000001N9+01721+99999100671ADDGF100991999999999999999999
0029029720999991904060313004+60450+022267FM-12+001499999V0201401N004619999999N0000001N9+01941+99999100201ADDGF108991999999999999999999
0029029720999991904060320004+60450+022267FM-12+001499999V0203601N001019999999N0000001N9+00891+99999100111ADDGF108991999999999999999999
0029029720999991904060406004+60450+022267FM-12+001499999V0203601N012319999999N0000001N9+00831+99999100951ADDGF108991999999999999999999
0029029720999991904060413004+60450+022267FM-12+001499999V0203601N006719999999N0000001N9+01281+99999101321ADDGF100991999999999999999999
0029029720999991904060420004+60450+022267FM-12+001499999V0203601N006719999999N0000001N9+00781+99999101791ADDGF100991999999999999999999
0029029720999991904060506004+60450+022267FM-12+001499999V0202701N004619999999N0000001N9+01001+99999101991ADDGF100991999999999999999999
0029029720999991904060513004+60450+022267FM-12+001499999V0203201N009319999999N0000001N9+01281+99999101781ADDGF105991999999999999999999
0029029720999991904060520004+60450+022267FM-12+001499999V0203601N004619999999N0000001N9+01001+99999101441ADDGF103991999999999999999999
0029029720999991904060606004+60450+022267FM-12+001499999V0203601N001019999999N0000001N9+00831+99999101111ADDGF106991999999999999999999
0029029720999991904060613004+60450+022267FM-12+001499999V0203601N004619999999N0000001N9+01441+99999100921ADDGF104991999999999999999999
0029029720999991904060620004+60450+022267FM-12+001499999V0203601N004619999999N0000001N9+01001+99999100761ADDGF100991999999999999999999
0029029720999991904060706004+60450+022267FM-12+001499999V0203601N004619999999N0000001N9+01171+99999100391ADDGF102991999999999999999999
0029029720999991904060713004+60450+022267FM-12+001499999V0203601N006719999999N0000001N9+01171+99999100101ADDGF108991999999999999999999
0029029720999991904060720004+60450+022267FM-12+001499999V0203601N002619999999N0000001N9+00721+99999100271ADDGF108991999999999999999999
0029029720999991904060806004+60450+022267FM-12+001499999V0203601N002619999999N0000001N9+01061+99999100381ADDGF105991999999999999999999
0029029720999991904060813004+60450+022267FM-12+001499999V0200501N004619999999N0000001N9+01171+99999100551ADDGF106991999999999999999999
0029029720999991904060820004+60450+022267FM-12+001499999V0200501N004619999999N0000001N9+01331+99999100821ADDGF107991999999999999999999
0029029720999991904060906004+60450+022267FM-12+001499999V0200501N004619999999N0000001N9+01171+99999100991ADDGF108991999999999999999999
0029029720999991904060913004+60450+022267FM-12+001499999V0203601N004619999999N0000001N9+01671+99999101061ADDGF107991999999999999999999
0029029720999991904060920004+60450+022267FM-12+001499999V0203601N002619999999N0000001N9+01331+99999101161ADDGF105991999999999999999999
0029029720999991904061006004+60450+022267FM-12+001499999V0203601N001019999999N0000001N9+01061+99999101311ADDGF106991999999999999999999
0029029720999991904061013004+60450+022267FM-12+001499999V0203601N004619999999N0000001N9+01501+99999101321ADDGF107991999999999999999999
0029029720999991904061020004+60450+022267FM-12+001499999V0203201N002619999999N0000001N9+01111+99999101101ADDGF101991999999999999999999
0029029720999991904061106004+60450+022267FM-12+001499999V0200501N001019999999N0000001N9+01001+99999100861ADDGF108991999999999999999999
0029029720999991904061113004+60450+022267FM-12+001499999V0202701N006719999999N0000001N9+01561+99999100581ADDGF104991999999999999999999
0029029720999991904061120004+60450+022267FM-12+001499999V0203201N004619999999N0000001N9+01061+99999100551ADDGF106991999999999999999999
0029029720999991904061206004+60450+022267FM-12+001499999V0203201N004619999999N0000001N9+01221+99999100821ADDGF106991999999999999999999
0029029720999991904061213004+60450+022267FM-12+001499999V0203201N012319999999N0000001N9+01331+99999100991ADDGF104991999999999999999999
0029029720999991904061220004+60450+022267FM-12+001499999V0203201N004619999999N0000001N9+00831+99999101341ADDGF101991999999999999999999
0029029720999991904061306004+60450+022267FM-12+001499999V0202701N004619999999N0000001N9+01391+99999101461ADDGF100991999999999999999999
0029029720999991904061313004+60450+022267FM-12+001499999V0202701N006719999999N0000001N9+01561+99999101471ADDGF101991999999999999999999
0029029720999991904061320004+60450+022267FM-12+001499999V0203201N002619999999N0000001N9+01111+99999101551ADDGF100991999999999999999999
0029029720999991904061406004+60450+022267FM-12+001499999V0202701N001019999999N0000001N9+01391+99999101781ADDGF100991999999999999999999
0029029720999991904061413004+60450+022267FM-12+001499999V0202701N004619999999N0000001N9+01781+99999101721ADDGF102991999999999999999999
0029029720999991904061420004+60450+022267FM-12+001499999V0203201N002619999999N0000001N9+01281+99999101831ADDGF102991999999999999999999
0029029720999991904061506004+60450+022267FM-12+001499999V0200901N002619999999N0000001N9+01611+99999102041ADDGF101991999999999999999999
0029029720999991904061513004+60450+022267FM-12+001499999V0201801N004619999999N0000001N9+02001+99999101961ADDGF103991999999999999999999
0029029720999991904061520004+60450+022267FM-12+001499999V0200901N002619999999N0000001N9+01561+99999101831ADDGF100991999999999999999999
0029029720999991904061606004+60450+022267FM-12+001499999V0201801N006719999999N0000001N9+01941+99999101591ADDGF101991999999999999999999
0029029720999991904061613004+60450+022267FM-12+001499999V0201401N006719999999N0000001N9+02001+99999101301ADDGF108991999999999999999999
0029029720999991904061620004+60450+022267FM-12+001499999V0200901N004619999999N0000001N9+01441+99999100801ADDGF108991999999999999999999
0029029720999991904061706004+60450+022267FM-12+001499999V0202301N006719999999N0000001N9+01501+99999100461ADDGF102991999999999999999999
0029029720999991904061713004+60450+022267FM-12+001499999V0202301N009319999999N0000001N9+01671+99999100361ADDGF102991999999999999999999
0029029720999991904061720004+60450+022267FM-12+001499999V0201801N004619999999N0000001N9+01391+99999099991ADDGF103991999999999999999999
0029029720999991904061806004+60450+022267FM-12+001499999V0202701N004619999999N0000001N9+01561+99999099961ADDGF100991999999999999999999
0029029720999991904061813004+60450+022267FM-12+001499999V0202301N006719999999N0000001N9+01721+99999100081ADDGF102991999999999999999999
0029029720999991904061820004+60450+022267FM-12+001499999V0201801N004619999999N0000001N9+01441+99999099951ADDGF106991999999999999999999
0029029720999991904061906004+60450+022267FM-12+001499999V0203601N002619999999N0000001N9+01331+99999099721ADDGF107991999999999999999999
0029029720999991904061913004+60450+022267FM-12+001499999V0203201N009319999999N0000001N9+01721+99999099881ADDGF101991999999999999999999
0029029720999991904061920004+60450+022267FM-12+001499999V0202701N002619999999N0000001N9+01221+99999999999ADDGF104991999999999999999999
0029029720999991904062006004+60450+022267FM-12+001499999V0201801N002619999999N0000001N9+01331+99999099871ADDGF108991999999999999999999
0029029720999991904062013004+60450+022267FM-12+001499999V0201801N006719999999N0000001N9+01561+99999100031ADDGF107991999999999999999999
0029029720999991904062020004+60450+022267FM-12+001499999V0201801N002619999999N0000001N9+01281+99999100201ADDGF103991999999999999999999
0029029720999991904062106004+60450+022267FM-12+001499999V0203601N001019999999N0000001N9+00891+99999100751ADDGF108991999999999999999999
0029029720999991904062113004+60450+022267FM-12+001499999V0201801N004619999999N0000001N9+01781+99999100881ADDGF107991999999999999999999
0029029720999991904062120004+60450+022267FM-12+001499999V0201801N002619999999N0000001N9+01281+99999100841ADDGF108991999999999999999999
0029029720999991904062206004+60450+022267FM-12+001499999V0201801N004619999999N0000001N9+01171+99999100561ADDGF108991999999999999999999
0029029720999991904062213004+60450+022267FM-12+001499999V0201801N006719999999N0000001N9+01611+99999100441ADDGF106991999999999999999999
0029029720999991904062220004+60450+022267FM-12+001499999V0201801N002619999999N0000001N9+01221+99999100231ADDGF108991999999999999999999
0029029720999991904062306004+60450+022267FM-12+001499999V0201801N004619999999N0000001N9+01281+99999099831ADDGF105991999999999999999999
0029029720999991904062313004+60450+022267FM-12+001499999V0201801N006719999999N0000001N9+01391+99999099951ADDGF106991999999999999999999
0029029720999991904062320004+60450+022267FM-12+001499999V0200501N002619999999N0000001N9+00721+99999100041ADDGF102991999999999999999999
0029029720999991904062406004+60450+022267FM-12+001499999V0200501N001019999999N0000001N9+00831+99999100021ADDGF108991999999999999999999
0029029720999991904062413004+60450+022267FM-12+001499999V0203601N002619999999N0000001N9+01441+99999099941ADDGF106991999999999999999999
0029029720999991904062420004+60450+022267FM-12+001499999V0202701N001019999999N0000001N9+01061+99999099841ADDGF108991999999999999999999
0029029720999991904062506004+60450+022267FM-12+001499999V0202301N004619999999N0000001N9+01111+99999099641ADDGF108991999999999999999999
0029029720999991904062513004+60450+022267FM-12+001499999V0202301N009319999999N0000001N9+01671+99999099991ADDGF102991999999999999999999
0029029720999991904062520004+60450+022267FM-12+001499999V0201401N004619999999N0000001N9+01111+99999100281ADDGF100991999999999999999999
0029029720999991904062606004+60450+022267FM-12+001499999V0200901N012319999999N0000001N9+01221+99999099831ADDGF107991999999999999999999
0029029720999991904062613004+60450+022267FM-12+001499999V0200901N009319999999N0000001N9+01221+99999099671ADDGF108991999999999999999999
0029029720999991904062620004+60450+022267FM-12+001499999V0200901N002619999999N0000001N9+01111+99999099551ADDGF106991999999999999999999
0029029720999991904062706004+60450+022267FM-12+001499999V0200501N002619999999N0000001N9+01111+99999099201ADDGF108991999999999999999999
0029029720999991904062713004+60450+022267FM-12+001499999V0200501N002619999999N0000001N9+01561+99999099361ADDGF108991999999999999999999
0029029720999991904062720004+60450+022267FM-12+001499999V0200901N002619999999N0000001N9+01221+99999099561ADDGF108991999999999999999999
0029029720999991904062806004+60450+022267FM-12+001499999V0201401N004619999999N0000001N9+01221+99999099781ADDGF108991999999999999999999
0029029720999991904062813004+60450+022267FM-12+001499999V0201801N004619999999N0000001N9+01611+99999100151ADDGF107991999999999999999999
0029029720999991904062820004+60450+022267FM-12+001499999V0202301N001019999999N0000001N9+01391+99999100511ADDGF107991999999999999999999
0029029720999991904062906004+60450+022267FM-12+001499999V0202701N001019999999N0000001N9+01221+99999100801ADDGF108991999999999999999999
0029029720999991904062913004+60450+022267FM-12+001499999V0202701N002619999999N0000001N9+01721+99999100911ADDGF107991999999999999999999
0029029720999991904062920004+60450+022267FM-12+001499999V0203601N001019999999N0000001N9+01281+99999100901ADDGF102991999999999999999999
0029029720999991904063006004+60450+022267FM-12+001499999V0203601N004619999999N0000001N9+01281+99999100711ADDGF107991999999999999999999
0029029720999991904063013004+60450+022267FM-12+001499999V0203601N009319999999N0000001N9+01831+99999100391ADDGF108991999999999999999999
0029029720999991904063020004+60450+022267FM-12+001499999V0203601N004619999999N0000001N9+01501+99999100221ADDGF108991999999999999999999
0029029720999991904070106004+60450+022267FM-12+001499999V0203601N006719999999N0000001N9+01331+99999099901ADDGF108991999999999999999999
0029029720999991904070113004+60450+022267FM-12+001499999V0203601N006719999999N0000001N9+01721+99999099941ADDGF108991999999999999999999
0029029720999991904070120004+60450+022267FM-12+001499999V0203601N004619999999N0000001N9+01441+99999100081ADDGF104991999999999999999999
0029029720999991904070206004+60450+022267FM-12+001499999V0203601N001019999999N0000001N9+01441+99999100191ADDGF108991999999999999999999
0029029720999991904070213004+60450+022267FM-12+001499999V0202701N004619999999N0000001N9+01721+99999100321ADDGF107991999999999999999999
0029029720999991904070220004+60450+022267FM-12+001499999V0202701N002619999999N0000001N9+01561+99999100461ADDGF102991999999999999999999
0029029720999991904070306004+60450+022267FM-12+001499999V0202701N004619999999N0000001N9+01171+99999100661ADDGF108991999999999999999999
0029029720999991904070313004+60450+022267FM-12+001499999V0202301N006719999999N0000001N9+01501+99999100681ADDGF108991999999999999999999
0029029720999991904070320004+60450+022267FM-12+001499999V0201401N001019999999N0000001N9+01061+99999100631ADDGF102991999999999999999999
0029029720999991904070406004+60450+022267FM-12+001499999V0201801N004619999999N0000001N9+01671+99999100701ADDGF101991999999999999999999
0029029720999991904070413004+60450+022267FM-12+001499999V0201801N006719999999N0000001N9+01891+99999100761ADDGF102991999999999999999999
0029029720999991904070420004+60450+022267FM-12+001499999V0201401N002619999999N0000001N9+01331+99999100661ADDGF108991999999999999999999
0029029720999991904070506004+60450+022267FM-12+001499999V0200501N004619999999N0000001N9+01331+99999100111ADDGF108991999999999999999999
0029029720999991904070513004+60450+022267FM-12+001499999V0200901N002619999999N0000001N9+01561+99999100121ADDGF107991999999999999999999
0029029720999991904070520004+60450+022267FM-12+001499999V0202701N004619999999N0000001N9+01331+99999100271ADDGF106991999999999999999999
0029029720999991904070606004+60450+022267FM-12+001499999V0202701N004619999999N0000001N9+01501+99999100741ADDGF103991999999999999999999
0029029720999991904070613004+60450+022267FM-12+001499999V0202301N006719999999N0000001N9+01891+99999100961ADDGF102991999999999999999999
0029029720999991904070620004+60450+022267FM-12+001499999V0202301N002619999999N0000001N9+01441+99999101111ADDGF101991999999999999999999
0029029720999991904070706004+60450+022267FM-12+001499999V0201801N006719999999N0000001N9+01221+99999101191ADDGF108991999999999999999999
0029029720999991904070713004+60450+022267FM-12+001499999V0201801N006719999999N0000001N9+01501+99999101111ADDGF108991999999999999999999
0029029720999991904070720004+60450+022267FM-12+001499999V0201801N004619999999N0000001N9+01331+99999100701ADDGF108991999999999999999999
0029029720999991904070806004+60450+022267FM-12+001499999V0202701N004619999999N0000001N9+01561+99999100701ADDGF102991999999999999999999
0029029720999991904070813004+60450+022267FM-12+001499999V0202701N006719999999N0000001N9+01671+99999100681ADDGF108991999999999999999999
0029029720999991904070820004+60450+022267FM-12+001499999V0202301N004619999999N0000001N9+01441+99999100471ADDGF100991999999999999999999
0029029720999991904070906004+60450+022267FM-12+001499999V0202701N002619999999N0000001N9+01561+99999100121ADDGF108991999999999999999999
0029029720999991904070913004+60450+022267FM-12+001499999V0202701N004619999999N0000001N9+01611+99999100161ADDGF105991999999999999999999
0029029720999991904070920004+60450+022267FM-12+001499999V0203201N004619999999N0000001N9+01281+99999100351ADDGF102991999999999999999999
0029029720999991904071006004+60450+022267FM-12+001499999V0203201N009319999999N0000001N9+01331+99999100341ADDGF100991999999999999999999
0029029720999991904071013004+60450+022267FM-12+001499999V0203201N012319999999N0000001N9+01561+99999100461ADDGF103991999999999999999999
0029029720999991904071020004+60450+022267FM-12+001499999V0203201N004619999999N0000001N9+01281+99999100501ADDGF104991999999999999999999
0029029720999991904071106004+60450+022267FM-12+001499999V0203201N006719999999N0000001N9+01281+99999100431ADDGF102991999999999999999999
0029029720999991904071113004+60450+022267FM-12+001499999V0203201N006719999999N0000001N9+01281+99999100551ADDGF108991999999999999999999
0029029720999991904071120004+60450+022267FM-12+001499999V0203201N002619999999N0000001N9+01001+99999100841ADDGF102991999999999999999999
0029029720999991904071206004+60450+022267FM-12+001499999V0203201N004619999999N0000001N9+01331+99999101191ADDGF101991999999999999999999
0029029720999991904071213004+60450+022267FM-12+001499999V0203201N006719999999N0000001N9+01671+99999101471ADDGF104991999999999999999999
0029029720999991904071220004+60450+022267FM-12+001499999V0203201N004619999999N0000001N9+01221+99999101751ADDGF100991999999999999999999
0029029720999991904071306004+60450+022267FM-12+001499999V0203201N002619999999N0000001N9+01501+99999102101ADDGF101991999999999999999999
0029029720999991904071313004+60450+022267FM-12+001499999V0202701N004619999999N0000001N9+01941+99999102141ADDGF101991999999999999999999
0029029720999991904071320004+60450+022267FM-12+001499999V0202701N002619999999N0000001N9+01501+99999101901ADDGF101991999999999999999999
0029029720999991904071406004+60450+022267FM-12+001499999V0202701N002619999999N0000001N9+01941+99999101821ADDGF100991999999999999999999
0029029720999991904071413004+60450+022267FM-12+001499999V0202701N006719999999N0000001N9+02221+99999101801ADDGF100991999999999999999999
0029029720999991904071420004+60450+022267FM-12+001499999V0202701N004619999999N0000001N9+01611+99999101711ADDGF102991999999999999999999
0029029720999991904071506004+60450+022267FM-12+001499999V0202701N002619999999N0000001N9+01941+99999101641ADDGF100991999999999999999999
0029029720999991904071513004+60450+022267FM-12+001499999V0202701N004619999999N0000001N9+02281+99999101661ADDGF101991999999999999999999
0029029720999991904071520004+60450+022267FM-12+001499999V0202701N002619999999N0000001N9+01611+99999101551ADDGF102991999999999999999999
0029029720999991904071606004+60450+022267FM-12+001499999V0202301N002619999999N0000001N9+01831+99999101361ADDGF107991999999999999999999
0029029720999991904071613004+60450+022267FM-12+001499999V0201801N002619999999N0000001N9+02281+99999101301ADDGF107991999999999999999999
0029029720999991904071620004+60450+022267FM-12+001499999V0201801N004619999999N0000001N9+01831+99999100631ADDGF107991999999999999999999
0029029720999991904071706004+60450+022267FM-12+001499999V0202701N004619999999N0000001N9+01671+99999100441ADDGF106991999999999999999999
0029029720999991904071713004+60450+022267FM-12+001499999V0203201N006719999999N0000001N9+01891+99999100791ADDGF101991999999999999999999
0029029720999991904071720004+60450+022267FM-12+001499999V0203201N001019999999N0000001N9+00941+99999101041ADDGF105991999999999999999999
0029029720999991904071806004+60450+022267FM-12+001499999V0203201N001019999999N0000001N9+00831+99999100981ADDGF108991999999999999999999
0029029720999991904071813004+60450+022267FM-12+001499999V0203201N006719999999N0000001N9+01441+99999100661ADDGF106991999999999999999999
0029029720999991904071820004+60450+022267FM-12+001499999V0202701N002619999999N0000001N9+01171+99999100301ADDGF106991999999999999999999
0029029720999991904071906004+60450+022267FM-12+001499999V0203601N001019999999N0000001N9+01001+99999099941ADDGF107991999999999999999999
0029029720999991904071913004+60450+022267FM-12+001499999V0203601N004619999999N0000001N9+01221+99999100031ADDGF104991999999999999999999
0029029720999991904071920004+60450+022267FM-12+001499999V0203601N002619999999N0000001N9+01001+99999100301ADDGF102991999999999999999999
0029029720999991904072006004+60450+022267FM-12+001499999V0203601N002619999999N0000001N9+01171+99999100441ADDGF106991999999999999999999
0029029720999991904072013004+60450+022267FM-12+001499999V0203601N004619999999N0000001N9+01331+99999100341ADDGF106991999999999999999999
0029029720999991904072020004+60450+022267FM-12+001499999V0203601N002619999999N0000001N9+01111+99999100341ADDGF104991999999999999999999
0029029720999991904072106004+60450+022267FM-12+001499999V0203601N004619999999N0000001N9+01061+99999100321ADDGF108991999999999999999999
0029029720999991904072113004+60450+022267FM-12+001499999V0203601N006719999999N0000001N9+01561+99999100391ADDGF106991999999999999999999
0029029720999991904072120004+60450+022267FM-12+001499999V0203601N004619999999N0000001N9+01061+99999100631ADDGF107991999999999999999999
0029029720999991904072206004+60450+022267FM-12+001499999V0203601N004619999999N0000001N9+01061+99999101001ADDGF100991999999999999999999
0029029720999991904072213004+60450+022267FM-12+001499999V0203601N004619999999N0000001N9+01501+99999101101ADDGF106991999999999999999999
0029029720999991904072220004+60450+022267FM-12+001499999V0203201N002619999999N0000001N9+01171+99999101181ADDGF107991999999999999999999
0029029720999991904072306004+60450+022267FM-12+001499999V0201801N001019999999N0000001N9+01281+99999101181ADDGF102991999999999999999999
0029029720999991904072313004+60450+022267FM-12+001499999V0201801N004619999999N0000001N9+01831+99999101111ADDGF102991999999999999999999
0029029720999991904072320004+60450+022267FM-12+001499999V0201801N002619999999N0000001N9+01561+99999101081ADDGF102991999999999999999999
0029029720999991904072406004+60450+022267FM-12+001499999V0202301N001019999999N0000001N9+01281+99999100991ADDGF108991999999999999999999
0029029720999991904072413004+60450+022267FM-12+001499999V0202301N002619999999N0000001N9+02061+99999100911ADDGF100991999999999999999999
0029029720999991904072420004+60450+022267FM-12+001499999V0202301N002619999999N0000001N9+01671+99999100841ADDGF102991999999999999999999
0029029720999991904072506004+60450+022267FM-12+001499999V0201801N001019999999N0000001N9+01441+99999100561ADDGF108991999999999999999999
0029029720999991904072513004+60450+022267FM-12+001499999V0202301N004619999999N0000001N9+02001+99999100421ADDGF105991999999999999999999
0029029720999991904072520004+60450+022267FM-12+001499999V0203201N002619999999N0000001N9+01221+99999100421ADDGF102991999999999999999999
0029029720999991904072606004+60450+022267FM-12+001499999V0203601N004619999999N0000001N9+01281+99999100401ADDGF100991999999999999999999
0029029720999991904072613004+60450+022267FM-12+001499999V0202701N006719999999N0000001N9+01671+99999100351ADDGF103991999999999999999999
0029029720999991904072620004+60450+022267FM-12+001499999V0203201N002619999999N0000001N9+01331+99999100461ADDGF100991999999999999999999
0029029720999991904072706004+60450+022267FM-12+001499999V0203601N004619999999N0000001N9+01501+99999100661ADDGF100991999999999999999999
0029029720999991904072713004+60450+022267FM-12+001499999V0203601N006719999999N0000001N9+01941+99999100701ADDGF105991999999999999999999
0029029720999991904072720004+60450+022267FM-12+001499999V0203601N002619999999N0000001N9+01331+99999100861ADDGF101991999999999999999999
0029029720999991904072806004+60450+022267FM-12+001499999V0203601N002619999999N0000001N9+01331+99999101141ADDGF100991999999999999999999
0029029720999991904072813004+60450+022267FM-12+001499999V0203601N004619999999N0000001N9+02001+99999101041ADDGF100991999999999999999999
0029029720999991904072820004+60450+022267FM-12+001499999V0203601N001019999999N0000001N9+01501+99999101061ADDGF103991999999999999999999
0029029720999991904072906004+60450+022267FM-12+001499999V0203601N002619999999N0000001N9+01611+99999101061ADDGF100991999999999999999999
0029029720999991904072913004+60450+022267FM-12+001499999V0203601N006719999999N0000001N9+02111+99999101351ADDGF102991999999999999999999
0029029720999991904072920004+60450+022267FM-12+001499999V0203601N001019999999N0000001N9+01891+99999101501ADDGF100991999999999999999999
0029029720999991904073006004+60450+022267FM-12+001499999V0203601N002619999999N0000001N9+01391+99999101871ADDGF100991999999999999999999
0029029720999991904073013004+60450+022267FM-12+001499999V0203601N004619999999N0000001N9+02171+99999102071ADDGF100991999999999999999999
0029029720999991904073020004+60450+022267FM-12+001499999V0203601N001019999999N0000001N9+02001+99999101981ADDGF100991999999999999999999
0029029720999991904073106004+60450+022267FM-12+001499999V0203601N001019999999N0000001N9+01831+99999102241ADDGF100991999999999999999999
0029029720999991904073113004+60450+022267FM-12+001499999V0202701N004619999999N0000001N9+02221+99999102261ADDGF100991999999999999999999
0029029720999991904073120004+60450+022267FM-12+001499999V0202701N001019999999N0000001N9+01281+99999102261ADDGF100991999999999999999999
0029029720999991904080106004+60450+022267FM-12+001499999V0202701N004619999999N0000001N9+01781+99999102261ADDGF100991999999999999999999
0029029720999991904080113004+60450+022267FM-12+001499999V0201801N006719999999N0000001N9+02111+99999102221ADDGF100991999999999999999999
0029029720999991904080120004+60450+022267FM-12+001499999V0201801N001019999999N0000001N9+01501+99999102121ADDGF100991999999999999999999
0029029720999991904080206004+60450+022267FM-12+001499999V0201801N004619999999N0000001N9+01831+99999102061ADDGF100991999999999999999999
0029029720999991904080213004+60450+022267FM-12+001499999V0201801N006719999999N0000001N9+02281+99999102081ADDGF100991999999999999999999
0029029720999991904080220004+60450+022267FM-12+001499999V0201801N002619999999N0000001N9+01671+99999102001ADDGF101991999999999999999999
0029029720999991904080306004+60450+022267FM-12+001499999V0202701N001019999999N0000001N9+01831+99999102021ADDGF100991999999999999999999
0029029720999991904080313004+60450+022267FM-12+001499999V0202701N004619999999N0000001N9+02561+99999102021ADDGF101991999999999999999999
0029029720999991904080320004+60450+022267FM-12+001499999V0202701N001019999999N0000001N9+01781+99999102031ADDGF101991999999999999999999
0029029720999991904080406004+60450+022267FM-12+001499999V0202701N002619999999N0000001N9+02001+99999101821ADDGF101991999999999999999999
0029029720999991904080413004+60450+022267FM-12+001499999V0202701N006719999999N0000001N9+02501+99999101641ADDGF102991999999999999999999
0029029720999991904080420004+60450+022267FM-12+001499999V0203601N004619999999N0000001N9+01611+99999101671ADDGF102991999999999999999999
0029029720999991904080506004+60450+022267FM-12+001499999V0203601N002619999999N0000001N9+01501+99999101681ADDGF102991999999999999999999
0029029720999991904080513004+60450+022267FM-12+001499999V0203601N006719999999N0000001N9+02061+99999101551ADDGF102991999999999999999999
0029029720999991904080520004+60450+022267FM-12+001499999V0203601N001019999999N0000001N9+01561+99999101561ADDGF100991999999999999999999
0029029720999991904080606004+60450+022267FM-12+001499999V0201801N002619999999N0000001N9+01501+99999101681ADDGF101991999999999999999999
0029029720999991904080613004+60450+022267FM-12+001499999V0201801N006719999999N0000001N9+02171+99999101311ADDGF106991999999999999999999
0029029720999991904080620004+60450+022267FM-12+001499999V0201801N004619999999N0000001N9+01781+99999100911ADDGF108991999999999999999999
0029029720999991904080706004+60450+022267FM-12+001499999V0201801N006719999999N0000001N9+01831+99999100601ADDGF104991999999999999999999
0029029720999991904080713004+60450+022267FM-12+001499999V0202301N004619999999N0000001N9+01831+99999100601ADDGF108991999999999999999999
0029029720999991904080720004+60450+022267FM-12+001499999V0203601N002619999999N0000001N9+01501+99999100311ADDGF108991999999999999999999
0029029720999991904080806004+60450+022267FM-12+001499999V0203601N002619999999N0000001N9+01281+99999100031ADDGF108991999999999999999999
0029029720999991904080813004+60450+022267FM-12+001499999V0203601N004619999999N0000001N9+01501+99999099871ADDGF108991999999999999999999
0029029720999991904080820004+60450+022267FM-12+001499999V0203601N004619999999N0000001N9+01281+99999099881ADDGF108991999999999999999999
0029029720999991904080906004+60450+022267FM-12+001499999V0203601N004619999999N0000001N9+01441+99999099871ADDGF101991999999999999999999
0029029720999991904080913004+60450+022267FM-12+001499999V0202701N009319999999N0000001N9+01831+99999099861ADDGF102991999999999999999999
0029029720999991904080920004+60450+022267FM-12+001499999V0202701N002619999999N0000001N9+01171+99999099921ADDGF106991999999999999999999
0029029720999991904081006004+60450+022267FM-12+001499999V0202701N002619999999N0000001N9+01331+99999099881ADDGF102991999999999999999999
0029029720999991904081013004+60450+022267FM-12+001499999V0202701N006719999999N0000001N9+01561+99999099981ADDGF105991999999999999999999
0029029720999991904081020004+60450+022267FM-12+001499999V0202701N001019999999N0000001N9+01001+99999100351ADDGF102991999999999999999999
0029029720999991904081106004+60450+022267FM-12+001499999V0202701N001019999999N0000001N9+01331+99999100621ADDGF101991999999999999999999
0029029720999991904081113004+60450+022267FM-12+001499999V0202701N006719999999N0000001N9+01781+99999100741ADDGF103991999999999999999999
0029029720999991904081120004+60450+022267FM-12+001499999V0201801N001019999999N0000001N9+01391+99999100911ADDGF105991999999999999999999
0029029720999991904081206004+60450+022267FM-12+001499999V0201801N006719999999N0000001N9+01671+99999100961ADDGF107991999999999999999999
0029029720999991904081213004+60450+022267FM-12+001499999V0201401N006719999999N0000001N9+01721+99999100751ADDGF108991999999999999999999
0029029720999991904081220004+60450+022267FM-12+001499999V0201401N004619999999N0000001N9+01441+99999100141ADDGF108991999999999999999999
0029029720999991904081306004+60450+022267FM-12+001499999V0200901N002619999999N0000001N9+01281+99999099481ADDGF108991999999999999999999
0029029720999991904081313004+60450+022267FM-12+001499999V0200901N006719999999N0000001N9+01781+99999099461ADDGF108991999999999999999999
0029029720999991904081320004+60450+022267FM-12+001499999V0202701N009319999999N0000001N9+01001+99999099901ADDGF108991999999999999999999
0029029720999991904081406004+60450+022267FM-12+001499999V0202701N009319999999N0000001N9+01281+99999100541ADDGF103991999999999999999999
0029029720999991904081413004+60450+022267FM-12+001499999V0202701N009319999999N0000001N9+01391+99999100821ADDGF100991999999999999999999
0029029720999991904081420004+60450+022267FM-12+001499999V0200901N001019999999N0000001N9+00891+99999100831ADDGF101991999999999999999999
0029029720999991904081506004+60450+022267FM-12+001499999V0200901N002619999999N0000001N9+01281+99999100321ADDGF108991999999999999999999
0029029720999991904081513004+60450+022267FM-12+001499999V0200901N006719999999N0000001N9+01281+99999100121ADDGF108991999999999999999999
0029029720999991904081520004+60450+022267FM-12+001499999V0200901N004619999999N0000001N9+01331+99999099261ADDGF108991999999999999999999
0029029720999991904081606004+60450+022267FM-12+001499999V0201401N002619999999N0000001N9+01561+99999099281ADDGF105991999999999999999999
0029029720999991904081613004+60450+022267FM-12+001499999V0202301N004619999999N0000001N9+01781+99999099361ADDGF104991999999999999999999
0029029720999991904081620004+60450+022267FM-12+001499999V0202701N001019999999N0000001N9+01221+99999099591ADDGF102991999999999999999999
0029029720999991904081706004+60450+022267FM-12+001499999V0200901N002619999999N0000001N9+01441+99999099591ADDGF108991999999999999999999
0029029720999991904081713004+60450+022267FM-12+001499999V0202701N004619999999N0000001N9+01721+99999099781ADDGF106991999999999999999999
0029029720999991904081720004+60450+022267FM-12+001499999V0202701N001019999999N0000001N9+01221+99999100081ADDGF102991999999999999999999
0029029720999991904081806004+60450+022267FM-12+001499999V0202701N002619999999N0000001N9+01391+99999100351ADDGF108991999999999999999999
0029029720999991904081813004+60450+022267FM-12+001499999V0202301N004619999999N0000001N9+01671+99999100501ADDGF108991999999999999999999
0029029720999991904081820004+60450+022267FM-12+001499999V0201801N004619999999N0000001N9+01331+99999100521ADDGF108991999999999999999999
0029029720999991904081906004+60450+022267FM-12+001499999V0200501N004619999999N0000001N9+01221+99999100101ADDGF108991999999999999999999
0029029720999991904081913004+60450+022267FM-12+001499999V0200901N004619999999N0000001N9+01281+99999099401ADDGF108991999999999999999999
0029029720999991904081920004+60450+022267FM-12+001499999V0201801N006719999999N0000001N9+01221+99999099381ADDGF108991999999999999999999
0029029720999991904082006004+60450+022267FM-12+001499999V0201801N006719999999N0000001N9+01221+99999099501ADDGF108991999999999999999999
0029029720999991904082013004+60450+022267FM-12+001499999V0201801N009319999999N0000001N9+01281+99999099711ADDGF108991999999999999999999
0029029720999991904082020004+60450+022267FM-12+001499999V0201801N004619999999N0000001N9+01221+99999099551ADDGF108991999999999999999999
0029029720999991904082106004+60450+022267FM-12+001499999V0202701N004619999999N0000001N9+01331+99999099501ADDGF107991999999999999999999
0029029720999991904082113004+60450+022267FM-12+001499999V0202701N006719999999N0000001N9+01331+99999099751ADDGF108991999999999999999999
0029029720999991904082120004+60450+022267FM-12+001499999V0202701N002619999999N0000001N9+01281+99999099921ADDGF104991999999999999999999
0029029720999991904082206004+60450+022267FM-12+001499999V0202701N002619999999N0000001N9+01331+99999100111ADDGF108991999999999999999999
0029029720999991904082213004+60450+022267FM-12+001499999V0202701N006719999999N0000001N9+01721+99999100441ADDGF105991999999999999999999
0029029720999991904082220004+60450+022267FM-12+001499999V0202701N002619999999N0000001N9+01221+99999100591ADDGF101991999999999999999999
0029029720999991904082306004+60450+022267FM-12+001499999V0202701N001019999999N0000001N9+01501+99999100621ADDGF105991999999999999999999
0029029720999991904082313004+60450+022267FM-12+001499999V0202701N004619999999N0000001N9+01831+99999100631ADDGF106991999999999999999999
0029029720999991904082320004+60450+022267FM-12+001499999V0202701N002619999999N0000001N9+01281+99999100701ADDGF101991999999999999999999
0029029720999991904082406004+60450+022267FM-12+001499999V0203601N002619999999N0000001N9+01061+99999100661ADDGF108991999999999999999999
0029029720999991904082413004+60450+022267FM-12+001499999V0203601N004619999999N0000001N9+01891+99999100581ADDGF105991999999999999999999
0029029720999991904082420004+60450+022267FM-12+001499999V0203601N001019999999N0000001N9+01331+99999100621ADDGF103991999999999999999999
0029029720999991904082506004+60450+022267FM-12+001499999V0203601N006719999999N0000001N9+01281+99999100431ADDGF107991999999999999999999
0029029720999991904082513004+60450+022267FM-12+001499999V0203601N006719999999N0000001N9+01671+99999100271ADDGF107991999999999999999999
0029029720999991904082520004+60450+022267FM-12+001499999V0203601N002619999999N0000001N9+01331+99999100321ADDGF106991999999999999999999
0029029720999991904082606004+60450+022267FM-12+001499999V0203601N006719999999N0000001N9+01281+99999100361ADDGF102991999999999999999999
0029029720999991904082613004+60450+022267FM-12+001499999V0203201N006719999999N0000001N9+01561+99999100591ADDGF103991999999999999999999
0029029720999991904082620004+60450+022267FM-12+001499999V0203201N002619999999N0000001N9+00941+99999100991ADDGF102991999999999999999999
0029029720999991904082706004+60450+022267FM-12+001499999V0200501N002619999999N0000001N9+00891+99999101261ADDGF108991999999999999999999
0029029720999991904082713004+60450+022267FM-12+001499999V0201401N004619999999N0000001N9+01671+99999101361ADDGF106991999999999999999999
0029029720999991904082720004+60450+022267FM-12+001499999V0200901N004619999999N0000001N9+01221+99999101461ADDGF108991999999999999999999
0029029720999991904082806004+60450+022267FM-12+001499999V0200901N004619999999N0000001N9+01331+99999101551ADDGF108991999999999999999999
0029029720999991904082813004+60450+022267FM-12+001499999V0201401N006719999999N0000001N9+01721+99999101591ADDGF106991999999999999999999
0029029720999991904082820004+60450+022267FM-12+001499999V0200901N004619999999N0000001N9+01281+99999101681ADDGF108991999999999999999999
0029029720999991904082906004+60450+022267FM-12+001499999V0200901N002619999999N0000001N9+01221+99999101591ADDGF108991999999999999999999
0029029720999991904082913004+60450+022267FM-12+001499999V0203201N002619999999N0000001N9+01391+99999101541ADDGF107991999999999999999999
0029029720999991904082920004+60450+022267FM-12+001499999V0203201N001019999999N0000001N9+01001+99999101541ADDGF104991999999999999999999
0029029720999991904083006004+60450+022267FM-12+001499999V0203201N015419999999N0000001N9+00781+99999101201ADDGF106991999999999999999999
0029029720999991904083013004+60450+022267FM-12+001499999V0203601N012319999999N0000001N9+01171+99999100871ADDGF108991999999999999999999
0029029720999991904083020004+60450+022267FM-12+001499999V0203601N002619999999N0000001N9+00831+99999100861ADDGF108991999999999999999999
0029029720999991904083106004+60450+022267FM-12+001499999V0203601N006719999999N0000001N9+00721+99999100741ADDGF106991999999999999999999
0029029720999991904083113004+60450+022267FM-12+001499999V0200501N006719999999N0000001N9+01171+99999100761ADDGF108991999999999999999999
0029029720999991904083120004+60450+022267FM-12+001499999V0200501N001019999999N0000001N9+00891+99999100901ADDGF108991999999999999999999
0029029720999991904090106004+60450+022267FM-12+001499999V0203601N001019999999N0000001N9+00891+99999101181ADDGF108991999999999999999999
0029029720999991904090113004+60450+022267FM-12+001499999V0203601N002619999999N0000001N9+01281+99999101381ADDGF108991999999999999999999
0029029720999991904090120004+60450+022267FM-12+001499999V0203601N001019999999N0000001N9+01171+99999101581ADDGF108991999999999999999999
0029029720999991904090206004+60450+022267FM-12+001499999V0209991C000019999999N0000001N9+01171+99999101711ADDGF108991999999999999999999
0029029720999991904090213004+60450+022267FM-12+001499999V0200501N001019999999N0000001N9+01501+99999101701ADDGF108991999999999999999999
0029029720999991904090220004+60450+022267FM-12+001499999V0200501N001019999999N0000001N9+01281+99999101631ADDGF108991999999999999999999
0029029720999991904090306004+60450+022267FM-12+001499999V0209991C000019999999N0000001N9+00941+99999101551ADDGF108991999999999999999999
0029029720999991904090313004+60450+022267FM-12+001499999V0202701N001019999999N0000001N9+01391+99999101481ADDGF108991999999999999999999
