0029029810999991905010106004+59500+020350FM-12+002699999V0200701N008219999999N0000001N9-01001+99999103661ADDGF106991999999999999999999
0029029810999991905010113004+59500+020350FM-12+002699999V0202701N002119999999N0000001N9-00831+99999103751ADDGF105991999999999999999999
0029029810999991905010120004+59500+020350FM-12+002699999V0202501N010819999999N0000001N9-00671+99999103311ADDGF108991999999999999999999
0029029810999991905010206004+59500+020350FM-12+002699999V0202501N017019999999N0000001N9-00331+99999102161ADDGF108991999999999999999999
0035029810999991905010213004+59500+020350FM-12+002699999V0202301N025219999999N0000001N9-00111+99999101321ADDGF108991999999999999999999MW1741
0029029810999991905010220004+59500+020350FM-12+002699999V0202301N021119999999N0000001N9+00111+99999100761ADDGF108991999999999999999999
0029029810999991905010306004+59500+020350FM-12+002699999V0202501N015919999999N0000001N9+00331+99999099341ADDGF108991999999999999999999
0029029810999991905010313004+59500+020350FM-12+002699999V0202701N017019999999N0000001N9+00561+99999098901ADDGF104991999999999999999999
0029029810999991905010320004+59500+020350FM-12+002699999V0202901N009819999999N0000001N9+00221+99999099001ADDGF104991999999999999999999
0029029810999991905010406004+59500+020350FM-12+002699999V0202901N013919999999N0000001N9-00111+99999098961ADDGF105991999999999999999999
0029029810999991905010413004+59500+020350FM-12+002699999V0203201N014919999999N0000001N9-00111+99999099191ADDGF102991999999999999999999
0029029810999991905010420004+59500+020350FM-12+002699999V0203201N009819999999N0000001N9-00221+99999099311ADDGF102991999999999999999999
0029029810999991905010506004+59500+020350FM-12+002699999V0202701N008219999999N0000001N9-00221+99999098871ADDGF103991999999999999999999
0029029810999991905010513004+59500+020350FM-12+002699999V0203201N008219999999N0000001N9-00281+99999098911ADDGF106991999999999999999999
0029029810999991905010520004+59500+020350FM-12+002699999V0203201N006219999999N0000001N9-00281+99999099191ADDGF104991999999999999999999
0029029810999991905010606004+59500+020350FM-12+002699999V0202501N005119999999N0000001N9-00391+99999099161ADDGF105991999999999999999999
0029029810999991905010613004+59500+020350FM-12+002699999V0202501N008219999999N0000001N9-00331+99999098961ADDGF106991999999999999999999
0029029810999991905010620004+59500+020350FM-12+002699999V0201801N006219999999N0000001N9-00171+99999098441ADDGF108991999999999999999999
0029029810999991905010706004+59500+020350FM-12+002699999V0203601N003119999999N0000001N9-00111+99999098511ADDGF106991999999999999999999
0035029810999991905010713004+59500+020350FM-12+002699999V0203601N007219999999N0000001N9-00171+99999099121ADDGF106991999999999999999999MW1741
0029029810999991905010720004+59500+020350FM-12+002699999V0203401N010819999999N0000001N9-00281+99999100071ADDGF103991999999999999999999
0029029810999991905010806004+59500+020350FM-12+002699999V0202701N007219999999N0000001N9-00501+99999100841ADDGF104991999999999999999999
0029029810999991905010813004+59500+020350FM-12+002699999V0202301N008719999999N0000001N9-00171+99999100541ADDGF106991999999999999999999
0035029810999991905010820004+59500+020350FM-12+002699999V0201801N011819999999N0000001N9+00281+99999099521ADDGF108991999999999999999999MW1621
0029029810999991905010906004+59500+020350FM-12+002699999V0202301N018019999999N0000001N9+00391+99999098191ADDGF108991999999999999999999
0029029810999991905010913004+59500+020350FM-12+002699999V0202301N017019999999N0000001N9+00391+99999097951ADDGF104991999999999999999999
0029029810999991905010920004+59500+020350FM-12+002699999V0202301N015919999999N0000001N9+00391+99999097161ADDGF104991999999999999999999
0029029810999991905011006004+59500+020350FM-12+002699999V0202901N027819999999N0000001N9+00171+99999097031ADDGF104991999999999999999999
0029029810999991905011013004+59500+020350FM-12+002699999V0203201N029819999999N0000001N9-00171+99999098031ADDGF106991999999999999999999
0029029810999991905011020004+59500+020350FM-12+002699999V0203401N011819999999N0000001N9-00331+99999099671ADDGF106991999999999999999999
0029029810999991905011106004+59500+020350FM-12+002699999V0201801N002119999999N0000001N9-00171+99999099341ADDGF108991999999999999999999
0035029810999991905011113004+59500+020350FM-12+002699999V0201601N006219999999N0000001N9-00061+99999099431ADDGF108991999999999999999999MW1741
0029029810999991905011120004+59500+020350FM-12+002699999V0201601N008219999999N0000001N9+00061+99999099401ADDGF108991999999999999999999
0029029810999991905011206004+59500+020350FM-12+002699999V0202001N011819999999N0000001N9+00281+99999098061ADDGF108991999999999999999999
0029029810999991905011213004+59500+020350FM-12+002699999V0202301N014919999999N0000001N9+00281+99999096911ADDGF106991999999999999999999
0035029810999991905011220004+59500+020350FM-12+002699999V0203201N027819999999N0000001N9-00281+99999097241ADDGF108991999999999999999999MW1721
0035029810999991905011306004+59500+020350FM-12+002699999V0203201N027819999999N0000001N9-00611+99999098671ADDGF108991999999999999999999MW1721
0035029810999991905011313004+59500+020350FM-12+002699999V0200201N021119999999N0000001N9-00721+99999099721ADDGF108991999999999999999999MW1721
0029029810999991905011320004+59500+020350FM-12+002699999V0200501N022119999999N0000001N9-00781+99999101421ADDGF100991999999999999999999
0029029810999991905011406004+59500+020350FM-12+002699999V0203601N013919999999N0000001N9-00721+99999103191ADDGF100991999999999999999999
0029029810999991905011413004+59500+020350FM-12+002699999V0202701N007219999999N0000001N9-00501+99999103471ADDGF104991999999999999999999
0029029810999991905011420004+59500+020350FM-12+002699999V0202501N007219999999N0000001N9-00281+99999103661ADDGF101991999999999999999999
0029029810999991905011506004+59500+020350FM-12+002699999V0202301N010819999999N0000001N9-00171+99999103441ADDGF102991999999999999999999
0029029810999991905011513004+59500+020350FM-12+002699999V0202301N019019999999N0000001N9+00001+99999103551ADDGF101991999999999999999999
0029029810999991905011520004+59500+020350FM-12+002699999V0202301N019019999999N0000001N9-00061+99999103551ADDGF101991999999999999999999
0029029810999991905011606004+59500+020350FM-12+002699999V0202001N006219999999N0000001N9-00111+99999103621ADDGF102991999999999999999999
0029029810999991905011613004+59500+020350FM-12+002699999V0202001N006219999999N0000001N9-00111+99999103551ADDGF101991999999999999999999
0029029810999991905011620004+59500+020350FM-12+002699999V0201801N005119999999N0000001N9-00171+99999103361ADDGF106991999999999999999999
0029029810999991905011706004+59500+020350FM-12+002699999V0201401N007219999999N0000001N9-00061+99999103061ADDGF101991999999999999999999
0029029810999991905011713004+59500+020350FM-12+002699999V0201601N009819999999N0000001N9+00061+99999102991ADDGF100991999999999999999999
0029029810999991905011720004+59500+020350FM-12+002699999V0202001N009819999999N0000001N9+00001+99999102941ADDGF100991999999999999999999
0029029810999991905011806004+59500+020350FM-12+002699999V0201101N012919999999N0000001N9+00001+99999102441ADDGF105991999999999999999999
0029029810999991905011813004+59500+020350FM-12+002699999V0201401N007219999999N0000001N9-00281+99999102521ADDGF106991999999999999999999
0029029810999991905011820004+59500+020350FM-12+002699999V0201401N008219999999N0000001N9-00281+99999102711ADDGF106991999999999999999999
0029029810999991905011906004+59500+020350FM-12+002699999V0201401N005119999999N0000001N9-00281+99999103151ADDGF104991999999999999999999
0029029810999991905011913004+59500+020350FM-12+002699999V0201401N004119999999N0000001N9-00171+99999103441ADDGF102991999999999999999999
0029029810999991905011920004+59500+020350FM-12+002699999V0201401N005119999999N0000001N9-00061+99999103521ADDGF100991999999999999999999
0029029810999991905012006004+59500+020350FM-12+002699999V0201601N005119999999N0000001N9+00001+99999103741ADDGF108991999999999999999999
0029029810999991905012013004+59500+020350FM-12+002699999V0201401N004119999999N0000001N9+00001+99999103951ADDGF108991999999999999999999
0029029810999991905012020004+59500+020350FM-12+002699999V0201401N004119999999N0000001N9-00221+99999104031ADDGF108991999999999999999999
0029029810999991905012106004+59500+020350FM-12+002699999V0201401N003119999999N0000001N9-00221+99999103821ADDGF108991999999999999999999
0029029810999991905012113004+59500+020350FM-12+002699999V0201601N002119999999N0000001N9-00171+99999103921ADDGF106991999999999999999999
0029029810999991905012120004+59500+020350FM-12+002699999V0201801N001019999999N0000001N9-00171+99999103821ADDGF106991999999999999999999
0029029810999991905012206004+59500+020350FM-12+002699999V0202301N004119999999N0000001N9-00221+99999103471ADDGF108991999999999999999999
0029029810999991905012213004+59500+020350FM-12+002699999V0202301N011819999999N0000001N9-00171+99999103121ADDGF106991999999999999999999
0029029810999991905012220004+59500+020350FM-12+002699999V0202301N009819999999N0000001N9-00171+99999102961ADDGF108991999999999999999999
0029029810999991905012306004+59500+020350FM-12+002699999V0202301N010819999999N0000001N9-00061+99999102521ADDGF101991999999999999999999
0029029810999991905012313004+59500+020350FM-12+002699999V0202301N013919999999N0000001N9+00001+99999102261ADDGF102991999999999999999999
0029029810999991905012320004+59500+020350FM-12+002699999V0202301N013919999999N0000001N9-00111+99999101921ADDGF108991999999999999999999
0029029810999991905012406004+59500+020350FM-12+002699999V0202301N013919999999N0000001N9+00061+99999101231ADDGF108991999999999999999999
0029029810999991905012413004+59500+020350FM-12+002699999V0202301N013919999999N0000001N9+00111+99999101301ADDGF108991999999999999999999
0035029810999991905012420004+59500+020350FM-12+002699999V0202301N018019999999N0000001N9+00221+99999101151ADDGF108991999999999999999999MW1601
0035029810999991905012506004+59500+020350FM-12+002699999V0202301N011819999999N0000001N9+00111+99999100701ADDGF108991999999999999999999MW1721
0029029810999991905012513004+59500+020350FM-12+002699999V0202301N011819999999N0000001N9+00111+99999100221ADDGF106991999999999999999999
0035029810999991905012520004+59500+020350FM-12+002699999V0202701N003119999999N0000001N9+00061+99999100021ADDGF106991999999999999999999MW1721
0029029810999991905012606004+59500+020350FM-12+002699999V0203601N015919999999N0000001N9-00171+99999100801ADDGF106991999999999999999999
0029029810999991905012613004+59500+020350FM-12+002699999V0203601N022119999999N0000001N9-00171+99999101401ADDGF105991999999999999999999
0035029810999991905012620004+59500+020350FM-12+002699999V0203601N024219999999N0000001N9-00501+99999102031ADDGF106991999999999999999999MW1741
0029029810999991905012706004+59500+020350FM-12+002699999V0203601N015919999999N0000001N9-00441+99999102621ADDGF104991999999999999999999
0029029810999991905012713004+59500+020350FM-12+002699999V0203601N006219999999N0000001N9-00441+99999102681ADDGF104991999999999999999999
0029029810999991905012720004+59500+020350FM-12+002699999V0202701N004119999999N0000001N9-00391+99999102591ADDGF108991999999999999999999
0029029810999991905012806004+59500+020350FM-12+002699999V0202301N009819999999N0000001N9-00061+99999102121ADDGF107991999999999999999999
0029029810999991905012813004+59500+020350FM-12+002699999V0202301N025219999999N0000001N9+00111+99999101151ADDGF108991999999999999999999
0035029810999991905012820004+59500+020350FM-12+002699999V0202301N019019999999N0000001N9+00171+99999999999ADDGF108991999999999999999999MW1601
0029029810999991905012906004+59500+020350FM-12+002699999V0203201N011819999999N0000001N9+00281+99999099631ADDGF108991999999999999999999
0029029810999991905012913004+59500+020350FM-12+002699999V0203201N023119999999N0000001N9+00111+99999100121ADDGF102991999999999999999999
0029029810999991905012920004+59500+020350FM-12+002699999V0203201N010819999999N0000001N9+00061+99999100751ADDGF101991999999999999999999
0029029810999991905013006004+59500+020350FM-12+002699999V0202301N012919999999N0000001N9+00061+99999099141ADDGF108991999999999999999999
0029029810999991905013013004+59500+020350FM-12+002699999V0203201N018019999999N0000001N9+00441+99999098231ADDGF104991999999999999999999
0029029810999991905013020004+59500+020350FM-12+002699999V0203201N018019999999N0000001N9+00001+99999099461ADDGF108991999999999999999999
0035029810999991905013106004+59500+020350FM-12+002699999V0201601N014919999999N0000001N9-00111+99999097791ADDGF108991999999999999999999MW1721
0029029810999991905013113004+59500+020350FM-12+002699999V0202301N021119999999N0000001N9+00171+99999096521ADDGF108991999999999999999999
0035029810999991905013120004+59500+020350FM-12+002699999V0203201N028819999999N0000001N9-00331+99999096861ADDGF108991999999999999999999MW1721
0029029810999991905020106004+59500+020350FM-12+002699999V0203201N020119999999N0000001N9-00501+99999098461ADDGF108991999999999999999999
0029029810999991905020113004+59500+020350FM-12+002699999V0203201N017019999999N0000001N9-00501+99999098981ADDGF106991999999999999999999
0029029810999991905020120004+59500+020350FM-12+002699999V0203201N008719999999N0000001N9-00441+99999099231ADDGF101991999999999999999999
0029029810999991905020206004+59500+020350FM-12+002699999V0202301N004119999999N0000001N9-00391+99999098801ADDGF102991999999999999999999
0029029810999991905020213004+59500+020350FM-12+002699999V0201401N009819999999N0000001N9-00221+99999098361ADDGF105991999999999999999999
0029029810999991905020220004+59500+020350FM-12+002699999V0201401N010819999999N0000001N9-00331+99999098391ADDGF102991999999999999999999
0029029810999991905020306004+59500+020350FM-12+002699999V0200501N008719999999N0000001N9-00501+99999099231ADDGF106991999999999999999999
0029029810999991905020313004+59500+020350FM-12+002699999V0203601N004119999999N0000001N9-00441+99999099701ADDGF102991999999999999999999
0029029810999991905020320004+59500+020350FM-12+002699999V0202701N007219999999N0000001N9-00441+99999099961ADDGF101991999999999999999999
0029029810999991905020406004+59500+020350FM-12+002699999V0203201N006219999999N0000001N9-00441+99999100421ADDGF105991999999999999999999
0029029810999991905020413004+59500+020350FM-12+002699999V0202701N003119999999N0000001N9-00441+99999100751ADDGF100991999999999999999999
0029029810999991905020420004+59500+020350FM-12+002699999V0202501N004119999999N0000001N9-00441+99999100831ADDGF101991999999999999999999
0029029810999991905020506004+59500+020350FM-12+002699999V0202501N005119999999N0000001N9-00391+99999101031ADDGF106991999999999999999999
0029029810999991905020513004+59500+020350FM-12+002699999V0202301N011819999999N0000001N9-00061+99999100981ADDGF105991999999999999999999
0029029810999991905020520004+59500+020350FM-12+002699999V0202301N011819999999N0000001N9+00171+99999100911ADDGF108991999999999999999999
0029029810999991905020606004+59500+020350FM-12+002699999V0202301N008719999999N0000001N9+00221+99999100041ADDGF108991999999999999999999
0029029810999991905020613004+59500+020350FM-12+002699999V0202301N015919999999N0000001N9+00281+99999099721ADDGF108991999999999999999999
0029029810999991905020620004+59500+020350FM-12+002699999V0202301N015919999999N0000001N9+00281+99999099431ADDGF106991999999999999999999
0029029810999991905020706004+59500+020350FM-12+002699999V0202701N008719999999N0000001N9+00171+99999099551ADDGF106991999999999999999999
0029029810999991905020713004+59500+020350FM-12+002699999V0203201N009819999999N0000001N9+00111+99999100231ADDGF100991999999999999999999
0029029810999991905020720004+59500+020350FM-12+002699999V0203201N008219999999N0000001N9+00061+99999100841ADDGF102991999999999999999999
0029029810999991905020806004+59500+020350FM-12+002699999V0202901N002119999999N0000001N9-00061+99999100901ADDGF102991999999999999999999
0029029810999991905020813004+59500+020350FM-12+002699999V0202901N010819999999N0000001N9+00061+99999101661ADDGF101991999999999999999999
0029029810999991905020820004+59500+020350FM-12+002699999V0203201N008719999999N0000001N9+00001+99999102111ADDGF100991999999999999999999
0029029810999991905020906004+59500+020350FM-12+002699999V0202301N010819999999N0000001N9+00111+99999101501ADDGF107991999999999999999999
0029029810999991905020913004+59500+020350FM-12+002699999V0202301N012919999999N0000001N9+00221+99999101021ADDGF106991999999999999999999
0029029810999991905020920004+59500+020350FM-12+002699999V0202301N010819999999N0000001N9+00331+99999100871ADDGF108991999999999999999999
0029029810999991905021006004+59500+020350FM-12+002699999V0202301N021119999999N0000001N9+00171+99999100081ADDGF108991999999999999999999
0029029810999991905021013004+59500+020350FM-12+002699999V0202301N026219999999N0000001N9+00171+99999099341ADDGF108991999999999999999999
0029029810999991905021020004+59500+020350FM-12+002699999V0202701N014919999999N0000001N9+00221+99999099191ADDGF100991999999999999999999
0029029810999991905021106004+59500+020350FM-12+002699999V0202501N014919999999N0000001N9+00061+99999098551ADDGF105991999999999999999999
0029029810999991905021113004+59500+020350FM-12+002699999V0203201N009819999999N0000001N9-00111+99999098401ADDGF104991999999999999999999
0035029810999991905021120004+59500+020350FM-12+002699999V0203601N022119999999N0000001N9-00391+99999098551ADDGF108991999999999999999999MW1721
0029029810999991905021206004+59500+020350FM-12+002699999V0203201N018019999999N0000001N9-00441+99999099201ADDGF108991999999999999999999
0029029810999991905021213004+59500+020350FM-12+002699999V0203201N017019999999N0000001N9-00441+99999099511ADDGF108991999999999999999999
0035029810999991905021220004+59500+020350FM-12+002699999V0203401N012919999999N0000001N9-00441+99999100101ADDGF108991999999999999999999MW1741
0029029810999991905021306004+59500+020350FM-12+002699999V0203401N013919999999N0000001N9-00441+99999101191ADDGF107991999999999999999999
0029029810999991905021313004+59500+020350FM-12+002699999V0203601N007219999999N0000001N9-00441+99999101701ADDGF106991999999999999999999
0029029810999991905021320004+59500+020350FM-12+002699999V0202501N005119999999N0000001N9-00391+99999101721ADDGF106991999999999999999999
0029029810999991905021406004+59500+020350FM-12+002699999V0202501N017019999999N0000001N9-00171+99999100441ADDGF108991999999999999999999
0029029810999991905021413004+59500+020350FM-12+002699999V0203201N012919999999N0000001N9+00061+99999100661ADDGF106991999999999999999999
0029029810999991905021420004+59500+020350FM-12+002699999V0203201N011819999999N0000001N9-00171+99999101231ADDGF102991999999999999999999
0029029810999991905021506004+59500+020350FM-12+002699999V0203201N018019999999N0000001N9-00391+99999101921ADDGF102991999999999999999999
0029029810999991905021513004+59500+020350FM-12+002699999V0202501N008719999999N0000001N9-00391+99999102021ADDGF102991999999999999999999
0029029810999991905021520004+59500+020350FM-12+002699999V0202301N014919999999N0000001N9-00061+99999101381ADDGF108991999999999999999999
0029029810999991905021606004+59500+020350FM-12+002699999V0202901N015919999999N0000001N9+00061+99999100841ADDGF108991999999999999999999
0029029810999991905021613004+59500+020350FM-12+002699999V0202301N017019999999N0000001N9+00171+99999100431ADDGF106991999999999999999999
0029029810999991905021620004+59500+020350FM-12+002699999V0202301N015919999999N0000001N9+00171+99999100221ADDGF106991999999999999999999
0029029810999991905021706004+59500+020350FM-12+002699999V0202301N018019999999N0000001N9+00171+99999099501ADDGF108991999999999999999999
0029029810999991905021713004+59500+020350FM-12+002699999V0202301N019019999999N0000001N9+00281+99999099221ADDGF106991999999999999999999
0029029810999991905021720004+59500+020350FM-12+002699999V0202301N012919999999N0000001N9+00221+99999099361ADDGF100991999999999999999999
0029029810999991905021806004+59500+020350FM-12+002699999V0202301N013919999999N0000001N9+00111+99999099951ADDGF102991999999999999999999
0029029810999991905021813004+59500+020350FM-12+002699999V0202301N013919999999N0000001N9+00171+99999099961ADDGF101991999999999999999999
0029029810999991905021820004+59500+020350FM-12+002699999V0202301N015919999999N0000001N9+00221+99999099431ADDGF106991999999999999999999
0029029810999991905021906004+59500+020350FM-12+002699999V0202301N022119999999N0000001N9+00171+99999098151ADDGF108991999999999999999999
0029029810999991905021913004+59500+020350FM-12+002699999V0202301N024219999999N0000001N9+00281+99999097881ADDGF102991999999999999999999
0029029810999991905021920004+59500+020350FM-12+002699999V0202301N018019999999N0000001N9+00281+99999097921ADDGF106991999999999999999999
0029029810999991905022006004+59500+020350FM-12+002699999V0202301N011819999999N0000001N9+00111+99999098541ADDGF105991999999999999999999
0029029810999991905022013004+59500+020350FM-12+002699999V0202301N007219999999N0000001N9+00111+99999099391ADDGF102991999999999999999999
0029029810999991905022020004+59500+020350FM-12+002699999V0202701N005119999999N0000001N9+00111+99999100231ADDGF106991999999999999999999
0035029810999991905022106004+59500+020350FM-12+002699999V0203601N013919999999N0000001N9-00061+99999101511ADDGF108991999999999999999999MW1741
0029029810999991905022113004+59500+020350FM-12+002699999V0203601N011819999999N0000001N9+00001+99999102301ADDGF104991999999999999999999
0029029810999991905022120004+59500+020350FM-12+002699999V0203601N013919999999N0000001N9-00171+99999102961ADDGF102991999999999999999999
0029029810999991905022206004+59500+020350FM-12+002699999V0200901N003119999999N0000001N9-00171+99999103581ADDGF100991999999999999999999
0029029810999991905022213004+59500+020350FM-12+002699999V0209991C000019999999N0000001N9+00001+99999103751ADDGF106991999999999999999999
0035029810999991905022220004+59500+020350FM-12+002699999V0201801N002119999999N0000001N9+00061+99999103751ADDGF108991999999999999999999MW1721
0029029810999991905022306004+59500+020350FM-12+002699999V0202301N005119999999N0000001N9+00061+99999103641ADDGF106991999999999999999999
0029029810999991905022313004+59500+020350FM-12+002699999V0202301N002119999999N0000001N9+00221+99999103791ADDGF102991999999999999999999
0029029810999991905022320004+59500+020350FM-12+002699999V0202301N002119999999N0000001N9-00221+99999103461ADDGF108991999999999999999999
0029029810999991905022406004+59500+020350FM-12+002699999V0201401N003119999999N0000001N9-00331+99999103231ADDGF108991999999999999999999
0029029810999991905022413004+59500+020350FM-12+002699999V0201401N006219999999N0000001N9+00001+99999102911ADDGF106991999999999999999999
0035029810999991905022420004+59500+020350FM-12+002699999V0201401N008219999999N0000001N9-00061+99999102561ADDGF108991999999999999999999MW1701
0029029810999991905022506004+59500+020350FM-12+002699999V0201401N005119999999N0000001N9-00061+99999101901ADDGF108991999999999999999999
0029029810999991905022513004+59500+020350FM-12+002699999V0201401N007219999999N0000001N9+00061+99999101501ADDGF108991999999999999999999
0035029810999991905022520004+59500+020350FM-12+002699999V0201401N007219999999N0000001N9+00061+99999101311ADDGF108991999999999999999999MW1741
0035029810999991905022606004+59500+020350FM-12+002699999V0202301N006219999999N0000001N9+00001+99999101071ADDGF108991999999999999999999MW1721
0029029810999991905022613004+59500+020350FM-12+002699999V0202301N008219999999N0000001N9+00111+99999101261ADDGF106991999999999999999999
0029029810999991905022620004+59500+020350FM-12+002699999V0202301N008219999999N0000001N9+00061+99999101191ADDGF108991999999999999999999
0029029810999991905022706004+59500+020350FM-12+002699999V0201601N006219999999N0000001N9-00061+99999101151ADDGF108991999999999999999999
0029029810999991905022713004+59500+020350FM-12+002699999V0201401N010819999999N0000001N9-00111+99999100941ADDGF108991999999999999999999
0029029810999991905022720004+59500+020350FM-12+002699999V0201401N010819999999N0000001N9-00171+99999100641ADDGF108991999999999999999999
0035029810999991905022806004+59500+020350FM-12+002699999V0201401N008719999999N0000001N9-00171+99999100461ADDGF108991999999999999999999MW1721
0035029810999991905022813004+59500+020350FM-12+002699999V0201401N009819999999N0000001N9+00001+99999100111ADDGF108991999999999999999999MW1721
0035029810999991905022820004+59500+020350FM-12+002699999V0201401N008219999999N0000001N9+00001+99999100101ADDGF108991999999999999999999MW1621
0035029810999991905030106004+59500+020350FM-12+002699999V0201401N008219999999N0000001N9+00061+99999100071ADDGF108991999999999999999999MW1741
0035029810999991905030113004+59500+020350FM-12+002699999V0201401N013919999999N0000001N9+00111+99999100151ADDGF108991999999999999999999MW1721
0029029810999991905030120004+59500+020350FM-12+002699999V0201801N009819999999N0000001N9+00111+99999100471ADDGF108991999999999999999999
0029029810999991905030206004+59500+020350FM-12+002699999V0202301N008719999999N0000001N9+00061+99999100781ADDGF107991999999999999999999
0029029810999991905030213004+59500+020350FM-12+002699999V0202301N008219999999N0000001N9+00111+99999101001ADDGF106991999999999999999999
0029029810999991905030220004+59500+020350FM-12+002699999V0202501N004119999999N0000001N9+00001+99999101521ADDGF108991999999999999999999
0029029810999991905030306004+59500+020350FM-12+002699999V0202901N003119999999N0000001N9-00061+99999101861ADDGF108991999999999999999999
0029029810999991905030313004+59500+020350FM-12+002699999V0202701N003119999999N0000001N9+00001+99999102081ADDGF106991999999999999999999
0029029810999991905030320004+59500+020350FM-12+002699999V0201801N004119999999N0000001N9+00001+99999102071ADDGF101991999999999999999999
0029029810999991905030406004+59500+020350FM-12+002699999V0202301N008219999999N0000001N9-00061+99999101801ADDGF104991999999999999999999
0029029810999991905030413004+59500+020350FM-12+002699999V0202301N011819999999N0000001N9+00001+99999101841ADDGF106991999999999999999999
0029029810999991905030420004+59500+020350FM-12+002699999V0202301N008219999999N0000001N9+00061+99999101391ADDGF108991999999999999999999
0029029810999991905030506004+59500+020350FM-12+002699999V0202701N003119999999N0000001N9-00061+99999101321ADDGF107991999999999999999999
0029029810999991905030513004+59500+020350FM-12+002699999V0203201N004119999999N0000001N9+00001+99999101221ADDGF105991999999999999999999
0029029810999991905030520004+59500+020350FM-12+002699999V0203601N007219999999N0000001N9-00171+99999101301ADDGF108991999999999999999999
0029029810999991905030606004+59500+020350FM-12+002699999V0200501N008719999999N0000001N9-00171+99999101201ADDGF108991999999999999999999
0035029810999991905030613004+59500+020350FM-12+002699999V0203601N005119999999N0000001N9-00061+99999101181ADDGF108991999999999999999999MW1701
0029029810999991905030620004+59500+020350FM-12+002699999V0200501N005119999999N0000001N9-00221+99999101121ADDGF108991999999999999999999
0029029810999991905030706004+59500+020350FM-12+002699999V0200501N006219999999N0000001N9-00221+99999101241ADDGF108991999999999999999999
0035029810999991905030713004+59500+020350FM-12+002699999V0200901N007219999999N0000001N9-00331+99999101301ADDGF108991999999999999999999MW1701
0029029810999991905030720004+59500+020350FM-12+002699999V0200901N007219999999N0000001N9-00331+99999101121ADDGF108991999999999999999999
0035029810999991905030806004+59500+020350FM-12+002699999V0201101N008219999999N0000001N9-00391+99999101081ADDGF108991999999999999999999MW1701
0029029810999991905030813004+59500+020350FM-12+002699999V0201401N002119999999N0000001N9-00331+99999101081ADDGF106991999999999999999999
0029029810999991905030820004+59500+020350FM-12+002699999V0201801N002119999999N0000001N9-00331+99999100991ADDGF108991999999999999999999
0035029810999991905030906004+59500+020350FM-12+002699999V0202001N007219999999N0000001N9-00281+99999100681ADDGF108991999999999999999999MW1701
0029029810999991905030913004+59500+020350FM-12+002699999V0201801N015919999999N0000001N9-00111+99999100341ADDGF108991999999999999999999
0029029810999991905030920004+59500+020350FM-12+002699999V0202301N012919999999N0000001N9+00061+99999099761ADDGF108991999999999999999999
0035029810999991905031006004+59500+020350FM-12+002699999V0201601N018019999999N0000001N9+00061+99999098271ADDGF108991999999999999999999MW1741
0029029810999991905031013004+59500+020350FM-12+002699999V0202301N017019999999N0000001N9+00221+99999098031ADDGF104991999999999999999999
0029029810999991905031020004+59500+020350FM-12+002699999V0202301N014919999999N0000001N9+00221+99999098341ADDGF108991999999999999999999
0029029810999991905031106004+59500+020350FM-12+002699999V0202301N013919999999N0000001N9+00111+99999098791ADDGF108991999999999999999999
0029029810999991905031113004+59500+020350FM-12+002699999V0202301N007219999999N0000001N9+00171+99999099281ADDGF108991999999999999999999
0029029810999991905031120004+59500+020350FM-12+002699999V0202001N004119999999N0000001N9+00111+99999099511ADDGF108991999999999999999999
0029029810999991905031206004+59500+020350FM-12+002699999V0202001N013919999999N0000001N9+00221+99999098471ADDGF108991999999999999999999
0029029810999991905031213004+59500+020350FM-12+002699999V0202301N013919999999N0000001N9+00221+99999099191ADDGF105991999999999999999999
0029029810999991905031220004+59500+020350FM-12+002699999V0202301N010819999999N0000001N9+00171+99999099601ADDGF105991999999999999999999
0029029810999991905031306004+59500+020350FM-12+002699999V0209991C000019999999N0000001N9+00171+99999099871ADDGF106991999999999999999999
0029029810999991905031313004+59500+020350FM-12+002699999V0201401N006219999999N0000001N9+00171+99999100201ADDGF108991999999999999999999
0029029810999991905031320004+59500+020350FM-12+002699999V0202001N006219999999N0000001N9+00111+99999100631ADDGF102991999999999999999999
0029029810999991905031406004+59500+020350FM-12+002699999V0201801N006219999999N0000001N9+00171+99999100711ADDGF105991999999999999999999
0029029810999991905031413004+59500+020350FM-12+002699999V0201801N008719999999N0000001N9+00111+99999100951ADDGF108991999999999999999999
0029029810999991905031420004+59500+020350FM-12+002699999V0201801N008219999999N0000001N9+00061+99999101041ADDGF108991999999999999999999
0029029810999991905031506004+59500+020350FM-12+002699999V0201401N008219999999N0000001N9+00061+99999101121ADDGF108991999999999999999999
0029029810999991905031513004+59500+020350FM-12+002699999V0201401N012919999999N0000001N9+00171+99999101101ADDGF108991999999999999999999
0029029810999991905031520004+59500+020350FM-12+002699999V0202001N012919999999N0000001N9+00061+99999101201ADDGF106991999999999999999999
0029029810999991905031606004+59500+020350FM-12+002699999V0201601N015919999999N0000001N9+00111+99999100961ADDGF106991999999999999999999
0029029810999991905031613004+59500+020350FM-12+002699999V0201801N012919999999N0000001N9+00061+99999101151ADDGF106991999999999999999999
0029029810999991905031620004+59500+020350FM-12+002699999V0202001N009819999999N0000001N9+00111+99999101311ADDGF106991999999999999999999
0029029810999991905031706004+59500+020350FM-12+002699999V0201801N010819999999N0000001N9+00111+99999101471ADDGF106991999999999999999999
0029029810999991905031713004+59500+020350FM-12+002699999V0201601N006219999999N0000001N9+00061+99999101751ADDGF106991999999999999999999
0029029810999991905031720004+59500+020350FM-12+002699999V0201401N005119999999N0000001N9+00001+99999101801ADDGF101991999999999999999999
0029029810999991905031806004+59500+020350FM-12+002699999V0201401N008719999999N0000001N9+00001+99999101761ADDGF106991999999999999999999
0029029810999991905031813004+59500+020350FM-12+002699999V0201401N007219999999N0000001N9+00001+99999101781ADDGF106991999999999999999999
0029029810999991905031820004+59500+020350FM-12+002699999V0201401N004119999999N0000001N9+00001+99999101701ADDGF106991999999999999999999
0029029810999991905031906004+59500+020350FM-12+002699999V0201101N004119999999N0000001N9+00001+99999101581ADDGF106991999999999999999999
0029029810999991905031913004+59500+020350FM-12+002699999V0209991C000019999999N0000001N9+00001+99999101631ADDGF102991999999999999999999
0029029810999991905031920004+59500+020350FM-12+002699999V0209991C000019999999N0000001N9-00111+99999101701ADDGF101991999999999999999999
0029029810999991905032006004+59500+020350FM-12+002699999V0203601N005119999999N0000001N9-00111+99999101781ADDGF102991999999999999999999
0029029810999991905032013004+59500+020350FM-12+002699999V0203601N008719999999N0000001N9-00061+99999101981ADDGF102991999999999999999999
0029029810999991905032020004+59500+020350FM-12+002699999V0209991C000019999999N0000001N9-00171+99999102021ADDGF102991999999999999999999
0029029810999991905032106004+59500+020350FM-12+002699999V0209991C000019999999N0000001N9+00061+99999101981ADDGF105991999999999999999999
0029029810999991905032113004+59500+020350FM-12+002699999V0203201N002119999999N0000001N9-00061+99999102021ADDGF108991999999999999999999
0029029810999991905032120004+59500+020350FM-12+002699999V0202701N002119999999N0000001N9-00221+99999102081ADDGF108991999999999999999999
0029029810999991905032206004+59500+020350FM-12+002699999V0202301N005119999999N0000001N9+00111+99999102021ADDGF104991999999999999999999
0035029810999991905032213004+59500+020350FM-12+002699999V0202301N008719999999N0000001N9+00171+99999102001ADDGF106991999999999999999999MW1481
0029029810999991905032220004+59500+020350FM-12+002699999V0202301N006219999999N0000001N9+00111+99999102071ADDGF108991999999999999999999
0029029810999991905032306004+59500+020350FM-12+002699999V0200501N008719999999N0000001N9-00061+99999102271ADDGF106991999999999999999999
0029029810999991905032313004+59500+020350FM-12+002699999V0200901N008719999999N0000001N9-00111+99999102391ADDGF108991999999999999999999
0029029810999991905032320004+59500+020350FM-12+002699999V0200901N008719999999N0000001N9-00061+99999102461ADDGF102991999999999999999999
0035029810999991905032406004+59500+020350FM-12+002699999V0200901N012919999999N0000001N9-00061+99999102361ADDGF106991999999999999999999MW1701
0029029810999991905032413004+59500+020350FM-12+002699999V0200901N011819999999N0000001N9-00061+99999102391ADDGF104991999999999999999999
0029029810999991905032420004+59500+020350FM-12+002699999V0200901N009819999999N0000001N9-00061+99999102311ADDGF108991999999999999999999
0029029810999991905032506004+59500+020350FM-12+002699999V0200501N008719999999N0000001N9-00171+99999101841ADDGF104991999999999999999999
0029029810999991905032513004+59500+020350FM-12+002699999V0200501N006219999999N0000001N9-00171+99999101791ADDGF102991999999999999999999
0029029810999991905032520004+59500+020350FM-12+002699999V0200501N007219999999N0000001N9-00111+99999101761ADDGF108991999999999999999999
0035029810999991905032606004+59500+020350FM-12+002699999V0201401N002119999999N0000001N9-00171+99999101781ADDGF108991999999999999999999MW1701
0029029810999991905032613004+59500+020350FM-12+002699999V0200901N009819999999N0000001N9-00061+99999101701ADDGF106991999999999999999999
0029029810999991905032620004+59500+020350FM-12+002699999V0200901N007219999999N0000001N9-00061+99999101481ADDGF108991999999999999999999
0035029810999991905032706004+59500+020350FM-12+002699999V0209991C000019999999N0000001N9+00001+99999101281ADDGF108991999999999999999999MW1741
0029029810999991905032713004+59500+020350FM-12+002699999V0202701N002119999999N0000001N9+00111+99999101381ADDGF104991999999999999999999
0029029810999991905032720004+59500+020350FM-12+002699999V0202301N004119999999N0000001N9-00061+99999101301ADDGF102991999999999999999999
0035029810999991905032806004+59500+020350FM-12+002699999V0209991C000019999999N0000001N9-00061+99999101081ADDGF108991999999999999999999MW1701
0029029810999991905032813004+59500+020350FM-12+002699999V0203401N003119999999N0000001N9+00001+99999101241ADDGF104991999999999999999999
0029029810999991905032820004+59500+020350FM-12+002699999V0209991C000019999999N0000001N9-00061+99999101401ADDGF102991999999999999999999
0029029810999991905032906004+59500+020350FM-12+002699999V0201801N009819999999N0000001N9+00001+99999101441ADDGF104991999999999999999999
0029029810999991905032913004+59500+020350FM-12+002699999V0201801N010819999999N0000001N9+00111+99999101341ADDGF104991999999999999999999
0035029810999991905032920004+59500+020350FM-12+002699999V0201801N013919999999N0000001N9+00171+99999100711ADDGF108991999999999999999999MW1721
0029029810999991905033006004+59500+020350FM-12+002699999V0202001N011819999999N0000001N9+00221+99999100351ADDGF106991999999999999999999
0029029810999991905033013004+59500+020350FM-12+002699999V0202301N010819999999N0000001N9+00331+99999100341ADDGF105991999999999999999999
0029029810999991905033020004+59500+020350FM-12+002699999V0202301N009819999999N0000001N9+00221+99999100101ADDGF106991999999999999999999
0029029810999991905033106004+59500+020350FM-12+002699999V0202301N005119999999N0000001N9+00221+99999099751ADDGF105991999999999999999999
0029029810999991905033113004+59500+020350FM-12+002699999V0202301N009819999999N0000001N9+00221+99999099821ADDGF106991999999999999999999
0029029810999991905033120004+59500+020350FM-12+002699999V0202301N005119999999N0000001N9+00171+99999099921ADDGF106991999999999999999999
0029029810999991905040106004+59500+020350FM-12+002699999V0209991C000019999999N0000001N9+00111+99999100041ADDGF106991999999999999999999
0029029810999991905040113004+59500+020350FM-12+002699999V0202701N006219999999N0000001N9+00001+99999100301ADDGF106991999999999999999999
0029029810999991905040120004+59500+020350FM-12+002699999V0203601N008719999999N0000001N9+00061+99999100641ADDGF106991999999999999999999
0029029810999991905040206004+59500+020350FM-12+002699999V0200201N014919999999N0000001N9-00111+99999101061ADDGF102991999999999999999999
0029029810999991905040213004+59500+020350FM-12+002699999V0200501N010819999999N0000001N9-00111+99999101151ADDGF102991999999999999999999
0029029810999991905040220004+59500+020350FM-12+002699999V0200901N006219999999N0000001N9+00001+99999100861ADDGF107991999999999999999999
0029029810999991905040306004+59500+020350FM-12+002699999V0200901N008719999999N0000001N9-00061+99999100701ADDGF102991999999999999999999
0029029810999991905040313004+59500+020350FM-12+002699999V0200901N004119999999N0000001N9+00001+99999100761ADDGF102991999999999999999999
0029029810999991905040320004+59500+020350FM-12+002699999V0201801N007219999999N0000001N9+00001+99999100681ADDGF102991999999999999999999
0029029810999991905040406004+59500+020350FM-12+002699999V0202501N008719999999N0000001N9-00061+99999100441ADDGF105991999999999999999999
0029029810999991905040413004+59500+020350FM-12+002699999V0202301N010819999999N0000001N9+00111+99999100061ADDGF105991999999999999999999
0029029810999991905040420004+59500+020350FM-12+002699999V0202301N012919999999N0000001N9+00171+99999099741ADDGF106991999999999999999999
0035029810999991905040506004+59500+020350FM-12+002699999V0202301N019019999999N0000001N9+00171+99999098421ADDGF108991999999999999999999MW1621
0035029810999991905040513004+59500+020350FM-12+002699999V0202001N018019999999N0000001N9+00221+99999097621ADDGF108991999999999999999999MW1621
0029029810999991905040520004+59500+020350FM-12+002699999V0203201N020119999999N0000001N9-00171+99999098061ADDGF108991999999999999999999
0029029810999991905040606004+59500+020350FM-12+002699999V0203201N009819999999N0000001N9-00391+99999099141ADDGF106991999999999999999999
0029029810999991905040613004+59500+020350FM-12+002699999V0203201N006219999999N0000001N9-00331+99999099661ADDGF105991999999999999999999
0029029810999991905040620004+59500+020350FM-12+002699999V0203201N004119999999N0000001N9-00171+99999099801ADDGF101991999999999999999999
0029029810999991905040706004+59500+020350FM-12+002699999V0202701N004119999999N0000001N9+00001+99999099601ADDGF101991999999999999999999
0029029810999991905040713004+59500+020350FM-12+002699999V0203201N005119999999N0000001N9-00061+99999099541ADDGF102991999999999999999999
0029029810999991905040720004+59500+020350FM-12+002699999V0203201N006219999999N0000001N9-00111+99999099421ADDGF102991999999999999999999
0029029810999991905040806004+59500+020350FM-12+002699999V0202901N006219999999N0000001N9-00111+99999099221ADDGF102991999999999999999999
0029029810999991905040813004+59500+020350FM-12+002699999V0202901N004119999999N0000001N9-00061+99999099341ADDGF102991999999999999999999
0029029810999991905040820004+59500+020350FM-12+002699999V0202301N006219999999N0000001N9+00061+99999099301ADDGF102991999999999999999999
0029029810999991905040906004+59500+020350FM-12+002699999V0202301N007219999999N0000001N9+00171+99999099161ADDGF103991999999999999999999
0029029810999991905040913004+59500+020350FM-12+002699999V0201401N011819999999N0000001N9+00001+99999099261ADDGF105991999999999999999999
0029029810999991905040920004+59500+020350FM-12+002699999V0200501N007219999999N0000001N9-00111+99999099541ADDGF105991999999999999999999
0035029810999991905041006004+59500+020350FM-12+002699999V0200901N018019999999N0000001N9-00221+99999099441ADDGF108991999999999999999999MW1721
0029029810999991905041013004+59500+020350FM-12+002699999V0200701N015919999999N0000001N9-00061+99999099621ADDGF108991999999999999999999
0029029810999991905041020004+59500+020350FM-12+002699999V0200501N011819999999N0000001N9-00111+99999100031ADDGF108991999999999999999999
0029029810999991905041106004+59500+020350FM-12+002699999V0200201N009819999999N0000001N9-00171+99999100951ADDGF106991999999999999999999
0029029810999991905041113004+59500+020350FM-12+002699999V0200901N004119999999N0000001N9-00061+99999100991ADDGF106991999999999999999999
0029029810999991905041120004+59500+020350FM-12+002699999V0200701N004119999999N0000001N9-00061+99999101181ADDGF106991999999999999999999
0035029810999991905041206004+59500+020350FM-12+002699999V0201101N008719999999N0000001N9+00001+99999101061ADDGF106991999999999999999999MW1721
0029029810999991905041213004+59500+020350FM-12+002699999V0200901N009819999999N0000001N9+00061+99999101111ADDGF106991999999999999999999
0029029810999991905041220004+59500+020350FM-12+002699999V0200701N008719999999N0000001N9+00171+99999101191ADDGF106991999999999999999999
0035029810999991905041306004+59500+020350FM-12+002699999V0200901N008719999999N0000001N9+00001+99999101401ADDGF108991999999999999999999MW1481
0029029810999991905041313004+59500+020350FM-12+002699999V0200701N010819999999N0000001N9+00001+99999101711ADDGF108991999999999999999999
0029029810999991905041320004+59500+020350FM-12+002699999V0200701N005119999999N0000001N9+00111+99999102191ADDGF102991999999999999999999
0029029810999991905041406004+59500+020350FM-12+002699999V0200501N005119999999N0000001N9+00111+99999102401ADDGF104991999999999999999999
0029029810999991905041413004+59500+020350FM-12+002699999V0200501N003119999999N0000001N9+00111+99999102541ADDGF102991999999999999999999
0029029810999991905041420004+59500+020350FM-12+002699999V0200901N001019999999N0000001N9+00061+99999102541ADDGF103991999999999999999999
0029029810999991905041506004+59500+020350FM-12+002699999V0200901N002119999999N0000001N9+00171+99999102541ADDGF105991999999999999999999
0029029810999991905041513004+59500+020350FM-12+002699999V0209991C000019999999N0000001N9+00331+99999102581ADDGF103991999999999999999999
0029029810999991905041520004+59500+020350FM-12+002699999V0200701N001019999999N0000001N9+00061+99999102631ADDGF103991999999999999999999
0029029810999991905041606004+59500+020350FM-12+002699999V0200901N003119999999N0000001N9+00111+99999102551ADDGF106991999999999999999999
0029029810999991905041613004+59500+020350FM-12+002699999V0200501N007219999999N0000001N9+00171+99999102501ADDGF106991999999999999999999
0029029810999991905041620004+59500+020350FM-12+002699999V0200501N009819999999N0000001N9+00171+99999102561ADDGF106991999999999999999999
0029029810999991905041706004+59500+020350FM-12+002699999V0200501N010819999999N0000001N9+00061+99999102581ADDGF105991999999999999999999
0029029810999991905041713004+59500+020350FM-12+002699999V0200501N010819999999N0000001N9+00171+99999102781ADDGF104991999999999999999999
0029029810999991905041720004+59500+020350FM-12+002699999V0200901N009819999999N0000001N9+00171+99999102791ADDGF102991999999999999999999
0029029810999991905041806004+59500+020350FM-12+002699999V0200701N011819999999N0000001N9+00111+99999102601ADDGF102991999999999999999999
0029029810999991905041813004+59500+020350FM-12+002699999V0200501N009819999999N0000001N9+00061+99999102631ADDGF104991999999999999999999
0029029810999991905041820004+59500+020350FM-12+002699999V0200501N006219999999N0000001N9+00061+99999102461ADDGF106991999999999999999999
0029029810999991905041906004+59500+020350FM-12+002699999V0200501N009819999999N0000001N9+00061+99999101751ADDGF106991999999999999999999
0035029810999991905041913004+59500+020350FM-12+002699999V0200501N013919999999N0000001N9+00171+99999101341ADDGF108991999999999999999999MW1621
0035029810999991905041920004+59500+020350FM-12+002699999V0200501N014919999999N0000001N9+00221+99999100901ADDGF108991999999999999999999MW1621
0029029810999991905042006004+59500+020350FM-12+002699999V0200901N011819999999N0000001N9+00171+99999100551ADDGF108991999999999999999999
0029029810999991905042013004+59500+020350FM-12+002699999V0201101N009819999999N0000001N9+00281+99999100521ADDGF108991999999999999999999
0029029810999991905042020004+59500+020350FM-12+002699999V0202301N004119999999N0000001N9+00171+99999100501ADDGF108991999999999999999999
0029029810999991905042106004+59500+020350FM-12+002699999V0202301N002119999999N0000001N9+00111+99999100351ADDGF106991999999999999999999
0029029810999991905042113004+59500+020350FM-12+002699999V0201801N006219999999N0000001N9+00221+99999100301ADDGF106991999999999999999999
0029029810999991905042120004+59500+020350FM-12+002699999V0201401N008719999999N0000001N9+00171+99999100061ADDGF108991999999999999999999
0035029810999991905042206004+59500+020350FM-12+002699999V0200701N008719999999N0000001N9+00061+99999099391ADDGF108991999999999999999999MW1621
0035029810999991905042213004+59500+020350FM-12+002699999V0203601N009819999999N0000001N9+00061+99999098821ADDGF108991999999999999999999MW1721
0029029810999991905042220004+59500+020350FM-12+002699999V0202701N008719999999N0000001N9+00061+99999098981ADDGF108991999999999999999999
0029029810999991905042306004+59500+020350FM-12+002699999V0202301N008219999999N0000001N9+00281+99999099301ADDGF102991999999999999999999
0029029810999991905042313004+59500+020350FM-12+002699999V0202301N011819999999N0000001N9+00221+99999099591ADDGF102991999999999999999999
0029029810999991905042320004+59500+020350FM-12+002699999V0201801N008719999999N0000001N9+00171+99999099861ADDGF102991999999999999999999
0029029810999991905042406004+59500+020350FM-12+002699999V0201601N013919999999N0000001N9+00171+99999100151ADDGF106991999999999999999999
0029029810999991905042413004+59500+020350FM-12+002699999V0201601N008219999999N0000001N9+00331+99999100241ADDGF106991999999999999999999
0029029810999991905042420004+59500+020350FM-12+002699999V0202001N006219999999N0000001N9+00001+99999100151ADDGF108991999999999999999999
0029029810999991905042506004+59500+020350FM-12+002699999V0201801N008719999999N0000001N9+00001+99999100071ADDGF108991999999999999999999
0029029810999991905042513004+59500+020350FM-12+002699999V0201801N009819999999N0000001N9+00171+99999100191ADDGF108991999999999999999999
0035029810999991905042520004+59500+020350FM-12+002699999V0201801N015919999999N0000001N9+00171+99999100031ADDGF108991999999999999999999MW1701
0029029810999991905042606004+59500+020350FM-12+002699999V0202301N010819999999N0000001N9+00391+99999100231ADDGF102991999999999999999999
0029029810999991905042613004+59500+020350FM-12+002699999V0202001N012919999999N0000001N9+00331+99999100481ADDGF102991999999999999999999
0029029810999991905042620004+59500+020350FM-12+002699999V0202001N010819999999N0000001N9+00281+99999100661ADDGF105991999999999999999999
0029029810999991905042706004+59500+020350FM-12+002699999V0202301N008219999999N0000001N9+00331+99999100871ADDGF106991999999999999999999
0029029810999991905042713004+59500+020350FM-12+002699999V0201801N008719999999N0000001N9+00331+99999101001ADDGF102991999999999999999999
0029029810999991905042720004+59500+020350FM-12+002699999V0201801N006219999999N0000001N9+00171+99999101041ADDGF104991999999999999999999
0029029810999991905042806004+59500+020350FM-12+002699999V0201801N007219999999N0000001N9+00221+99999100881ADDGF106991999999999999999999
0029029810999991905042813004+59500+020350FM-12+002699999V0201801N008219999999N0000001N9+00281+99999101101ADDGF106991999999999999999999
0029029810999991905042820004+59500+020350FM-12+002699999V0201601N009819999999N0000001N9+00331+99999100981ADDGF106991999999999999999999
0035029810999991905042906004+59500+020350FM-12+002699999V0201401N012919999999N0000001N9+00331+99999100591ADDGF108991999999999999999999MW1641
0029029810999991905042913004+59500+020350FM-12+002699999V0201801N006219999999N0000001N9+00391+99999100711ADDGF108991999999999999999999
0035029810999991905042920004+59500+020350FM-12+002699999V0201601N008719999999N0000001N9+00391+99999100511ADDGF106991999999999999999999MW1641
0029029810999991905043006004+59500+020350FM-12+002699999V0202001N008219999999N0000001N9+00501+99999100761ADDGF103991999999999999999999
0029029810999991905043013004+59500+020350FM-12+002699999V0201801N008219999999N0000001N9+00501+99999101001ADDGF102991999999999999999999
0035029810999991905043020004+59500+020350FM-12+002699999V0201101N008719999999N0000001N9+00561+99999100831ADDGF106991999999999999999999MW1601
0029029810999991905050106004+59500+020350FM-12+002699999V0202001N005119999999N0000001N9+00331+99999100391ADDGF108991999999999999999999
0029029810999991905050113004+59500+020350FM-12+002699999V0201801N008719999999N0000001N9+00501+99999100741ADDGF108991999999999999999999
0029029810999991905050120004+59500+020350FM-12+002699999V0201801N002119999999N0000001N9+00501+99999100621ADDGF106991999999999999999999
0029029810999991905050206004+59500+020350FM-12+002699999V0202301N009819999999N0000001N9+00611+99999101001ADDGF105991999999999999999999
0029029810999991905050213004+59500+020350FM-12+002699999V0201801N007219999999N0000001N9+00501+99999101081ADDGF108991999999999999999999
0029029810999991905050220004+59500+020350FM-12+002699999V0201401N011819999999N0000001N9+00611+99999100541ADDGF106991999999999999999999
0029029810999991905050306004+59500+020350FM-12+002699999V0202001N008719999999N0000001N9+00561+99999100601ADDGF108991999999999999999999
0029029810999991905050313004+59500+020350FM-12+002699999V0202301N009819999999N0000001N9+00501+99999100831ADDGF105991999999999999999999
0029029810999991905050320004+59500+020350FM-12+002699999V0202001N008219999999N0000001N9+00501+99999101061ADDGF102991999999999999999999
0029029810999991905050406004+59500+020350FM-12+002699999V0202001N006219999999N0000001N9+00561+99999101401ADDGF103991999999999999999999
0029029810999991905050413004+59500+020350FM-12+002699999V0202001N008719999999N0000001N9+00561+99999101591ADDGF102991999999999999999999
0029029810999991905050420004+59500+020350FM-12+002699999V0202501N009819999999N0000001N9+00441+99999101941ADDGF102991999999999999999999
0029029810999991905050506004+59500+020350FM-12+002699999V0202901N007219999999N0000001N9+00331+99999102621ADDGF102991999999999999999999
0029029810999991905050513004+59500+020350FM-12+002699999V0202901N006219999999N0000001N9+00331+99999103061ADDGF103991999999999999999999
0029029810999991905050520004+59500+020350FM-12+002699999V0202501N004119999999N0000001N9+00281+99999103121ADDGF102991999999999999999999
0029029810999991905050606004+59500+020350FM-12+002699999V0202001N005119999999N0000001N9+00721+99999103061ADDGF102991999999999999999999
0029029810999991905050613004+59500+020350FM-12+002699999V0202301N008219999999N0000001N9+00561+99999102911ADDGF101991999999999999999999
0029029810999991905050620004+59500+020350FM-12+002699999V0202001N005119999999N0000001N9+00441+99999102641ADDGF101991999999999999999999
0029029810999991905050706004+59500+020350FM-12+002699999V0201601N006219999999N0000001N9+00561+99999102241ADDGF106991999999999999999999
0029029810999991905050713004+59500+020350FM-12+002699999V0201601N009819999999N0000001N9+00671+99999101761ADDGF107991999999999999999999
0029029810999991905050720004+59500+020350FM-12+002699999V0201801N012919999999N0000001N9+00721+99999101181ADDGF102991999999999999999999
0029029810999991905050806004+59500+020350FM-12+002699999V0201801N013919999999N0000001N9+00781+99999100501ADDGF102991999999999999999999
0029029810999991905050813004+59500+020350FM-12+002699999V0201801N011819999999N0000001N9+00561+99999100311ADDGF103991999999999999999999
0035029810999991905050820004+59500+020350FM-12+002699999V0202501N006219999999N0000001N9+00671+99999100481ADDGF107991999999999999999999MW1601
0029029810999991905050906004+59500+020350FM-12+002699999V0202301N003119999999N0000001N9+00561+99999100721ADDGF108991999999999999999999
0029029810999991905050913004+59500+020350FM-12+002699999V0203601N002119999999N0000001N9+00501+99999101071ADDGF108991999999999999999999
0029029810999991905050920004+59500+020350FM-12+002699999V0203201N008219999999N0000001N9+00441+99999101141ADDGF108991999999999999999999
0035029810999991905051006004+59500+020350FM-12+002699999V0200201N010819999999N0000001N9+00441+99999101271ADDGF108991999999999999999999MW1621
0035029810999991905051013004+59500+020350FM-12+002699999V0203601N006219999999N0000001N9+00501+99999101421ADDGF108991999999999999999999MW1621
0035029810999991905051020004+59500+020350FM-12+002699999V0209991C000019999999N0000001N9+00441+99999101321ADDGF108991999999999999999999MW1621
0029029810999991905051106004+59500+020350FM-12+002699999V0201801N008219999999N0000001N9+00331+99999101261ADDGF108991999999999999999999
0029029810999991905051113004+59500+020350FM-12+002699999V0202001N003119999999N0000001N9+00781+99999101201ADDGF105991999999999999999999
0029029810999991905051120004+59500+020350FM-12+002699999V0201601N003119999999N0000001N9+00061+99999101111ADDGF108991999999999999999999
0029029810999991905051206004+59500+020350FM-12+002699999V0201801N003119999999N0000001N9+00501+99999100831ADDGF104991999999999999999999
0029029810999991905051213004+59500+020350FM-12+002699999V0201401N008219999999N0000001N9+00441+99999100721ADDGF107991999999999999999999
0029029810999991905051220004+59500+020350FM-12+002699999V0202001N003119999999N0000001N9+00501+99999100641ADDGF108991999999999999999999
0029029810999991905051306004+59500+020350FM-12+002699999V0202501N003119999999N0000001N9+00441+99999100951ADDGF107991999999999999999999
0029029810999991905051313004+59500+020350FM-12+002699999V0202501N002119999999N0000001N9+00611+99999101501ADDGF108991999999999999999999
0029029810999991905051320004+59500+020350FM-12+002699999V0202901N003119999999N0000001N9+00441+99999101721ADDGF107991999999999999999999
0029029810999991905051406004+59500+020350FM-12+002699999V0203201N005119999999N0000001N9+00561+99999101901ADDGF102991999999999999999999
0029029810999991905051413004+59500+020350FM-12+002699999V0203201N008219999999N0000001N9+00501+99999101981ADDGF102991999999999999999999
0029029810999991905051420004+59500+020350FM-12+002699999V0203201N008219999999N0000001N9+00501+99999101961ADDGF102991999999999999999999
0029029810999991905051506004+59500+020350FM-12+002699999V0203201N005119999999N0000001N9+00671+99999102041ADDGF102991999999999999999999
0029029810999991905051513004+59500+020350FM-12+002699999V0203201N007219999999N0000001N9+00781+99999102081ADDGF102991999999999999999999
0029029810999991905051520004+59500+020350FM-12+002699999V0202701N005119999999N0000001N9+00561+99999102101ADDGF102991999999999999999999
0029029810999991905051606004+59500+020350FM-12+002699999V0203201N008219999999N0000001N9+00671+99999102321ADDGF102991999999999999999999
0029029810999991905051613004+59500+020350FM-12+002699999V0203201N006219999999N0000001N9+00611+99999102501ADDGF105991999999999999999999
0029029810999991905051620004+59500+020350FM-12+002699999V0202701N002119999999N0000001N9+00671+99999102481ADDGF103991999999999999999999
0029029810999991905051706004+59500+020350FM-12+002699999V0209991C000019999999N0000001N9+01001+99999102581ADDGF101991999999999999999999
0029029810999991905051713004+59500+020350FM-12+002699999V0202001N008219999999N0000001N9+00941+99999102511ADDGF101991999999999999999999
0029029810999991905051720004+59500+020350FM-12+002699999V0202301N008719999999N0000001N9+00781+99999102241ADDGF101991999999999999999999
0029029810999991905051806004+59500+020350FM-12+002699999V0202301N010819999999N0000001N9+00941+99999101861ADDGF102991999999999999999999
0029029810999991905051813004+59500+020350FM-12+002699999V0203601N004119999999N0000001N9+01001+99999102021ADDGF104991999999999999999999
0029029810999991905051820004+59500+020350FM-12+002699999V0202901N004119999999N0000001N9+00831+99999102001ADDGF106991999999999999999999
0029029810999991905051906004+59500+020350FM-12+002699999V0203201N007219999999N0000001N9+00721+99999101921ADDGF102991999999999999999999
0029029810999991905051913004+59500+020350FM-12+002699999V0202701N005119999999N0000001N9+00721+99999101721ADDGF102991999999999999999999
0029029810999991905051920004+59500+020350FM-12+002699999V0202301N007219999999N0000001N9+00721+99999101111ADDGF102991999999999999999999
0029029810999991905052006004+59500+020350FM-12+002699999V0203601N014919999999N0000001N9+00561+99999100551ADDGF106991999999999999999999
0029029810999991905052013004+59500+020350FM-12+002699999V0203401N011819999999N0000001N9+00391+99999100841ADDGF105991999999999999999999
0029029810999991905052020004+59500+020350FM-12+002699999V0203601N011819999999N0000001N9+00331+99999100521ADDGF101991999999999999999999
0029029810999991905052106004+59500+020350FM-12+002699999V0200201N008219999999N0000001N9+00441+99999100381ADDGF101991999999999999999999
0029029810999991905052113004+59500+020350FM-12+002699999V0203601N009819999999N0000001N9+00441+99999100461ADDGF100991999999999999999999
0029029810999991905052120004+59500+020350FM-12+002699999V0203601N009819999999N0000001N9+00281+99999100511ADDGF102991999999999999999999
0029029810999991905052206004+59500+020350FM-12+002699999V0203601N007219999999N0000001N9+00501+99999100661ADDGF101991999999999999999999
0029029810999991905052213004+59500+020350FM-12+002699999V0202901N005119999999N0000001N9+00561+99999100761ADDGF102991999999999999999999
0029029810999991905052220004+59500+020350FM-12+002699999V0203601N002119999999N0000001N9+00441+99999100601ADDGF103991999999999999999999
0029029810999991905052306004+59500+020350FM-12+002699999V0200201N003119999999N0000001N9+00501+99999100421ADDGF105991999999999999999999
0029029810999991905052313004+59500+020350FM-12+002699999V0202701N003119999999N0000001N9+00611+99999100311ADDGF102991999999999999999999
0029029810999991905052320004+59500+020350FM-12+002699999V0202301N002119999999N0000001N9+00501+99999100301ADDGF102991999999999999999999
0029029810999991905052406004+59500+020350FM-12+002699999V0201801N005119999999N0000001N9+00721+99999100401ADDGF101991999999999999999999
0029029810999991905052413004+59500+020350FM-12+002699999V0201801N005119999999N0000001N9+00831+99999100581ADDGF103991999999999999999999
0029029810999991905052420004+59500+020350FM-12+002699999V0201801N008219999999N0000001N9+00561+99999100561ADDGF107991999999999999999999
0029029810999991905052506004+59500+020350FM-12+002699999V0202001N005119999999N0000001N9+00721+99999100781ADDGF106991999999999999999999
0029029810999991905052513004+59500+020350FM-12+002699999V0202001N009819999999N0000001N9+00781+99999101041ADDGF103991999999999999999999
0029029810999991905052520004+59500+020350FM-12+002699999V0202001N008219999999N0000001N9+00671+99999101181ADDGF103991999999999999999999
0029029810999991905052606004+59500+020350FM-12+002699999V0202301N007219999999N0000001N9+00721+99999101561ADDGF101991999999999999999999
0029029810999991905052613004+59500+020350FM-12+002699999V0202301N008219999999N0000001N9+00831+99999101681ADDGF101991999999999999999999
0029029810999991905052620004+59500+020350FM-12+002699999V0202001N008719999999N0000001N9+00721+99999101711ADDGF102991999999999999999999
0029029810999991905052706004+59500+020350FM-12+002699999V0209991C000019999999N0000001N9+00891+99999101831ADDGF107991999999999999999999
0029029810999991905052713004+59500+020350FM-12+002699999V0201801N003119999999N0000001N9+01171+99999101861ADDGF102991999999999999999999
0029029810999991905052720004+59500+020350FM-12+002699999V0202001N008219999999N0000001N9+00891+99999101751ADDGF104991999999999999999999
0035029810999991905052806004+59500+020350FM-12+002699999V0202301N008219999999N0000001N9+00831+99999101621ADDGF106991999999999999999999MW1601
0029029810999991905052813004+59500+020350FM-12+002699999V0200501N001019999999N0000001N9+00781+99999101981ADDGF103991999999999999999999
0029029810999991905052820004+59500+020350FM-12+002699999V0201801N001019999999N0000001N9+00781+99999102111ADDGF102991999999999999999999
0029029810999991905052906004+59500+020350FM-12+002699999V0202001N004119999999N0000001N9+00891+99999102111ADDGF104991999999999999999999
0029029810999991905052913004+59500+020350FM-12+002699999V0202301N006219999999N0000001N9+01171+99999102021ADDGF102991999999999999999999
0029029810999991905052920004+59500+020350FM-12+002699999V0202301N009819999999N0000001N9+01111+99999101781ADDGF106991999999999999999999
0029029810999991905053006004+59500+020350FM-12+002699999V0202301N007219999999N0000001N9+01281+99999101621ADDGF106991999999999999999999
0029029810999991905053013004+59500+020350FM-12+002699999V0202301N011819999999N0000001N9+01221+99999101401ADDGF106991999999999999999999
0029029810999991905053020004+59500+020350FM-12+002699999V0202301N012919999999N0000001N9+01061+99999101101ADDGF105991999999999999999999
0029029810999991905053106004+59500+020350FM-12+002699999V0203201N008219999999N0000001N9+00831+99999101311ADDGF103991999999999999999999
0029029810999991905053113004+59500+020350FM-12+002699999V0203601N001019999999N0000001N9+01111+99999101471ADDGF102991999999999999999999
0029029810999991905053120004+59500+020350FM-12+002699999V0200901N003119999999N0000001N9+01061+99999101361ADDGF102991999999999999999999
0029029810999991905060106004+59500+020350FM-12+002699999V0201401N011819999999N0000001N9+01061+99999101231ADDGF108991999999999999999999
0029029810999991905060113004+59500+020350FM-12+002699999V0201101N009819999999N0000001N9+01061+99999100991ADDGF105991999999999999999999
0029029810999991905060120004+59500+020350FM-12+002699999V0201401N009819999999N0000001N9+01171+99999100541ADDGF108991999999999999999999
0029029810999991905060206004+59500+020350FM-12+002699999V0202301N009819999999N0000001N9+01001+99999100601ADDGF108991999999999999999999
0029029810999991905060213004+59500+020350FM-12+002699999V0202301N011819999999N0000001N9+01001+99999100681ADDGF107991999999999999999999
0029029810999991905060220004+59500+020350FM-12+002699999V0202301N010819999999N0000001N9+01061+99999100701ADDGF104991999999999999999999
0029029810999991905060306004+59500+020350FM-12+002699999V0202301N014919999999N0000001N9+01061+99999100481ADDGF108991999999999999999999
0029029810999991905060313004+59500+020350FM-12+002699999V0202301N012919999999N0000001N9+01001+99999100601ADDGF105991999999999999999999
0029029810999991905060320004+59500+020350FM-12+002699999V0202301N010819999999N0000001N9+01221+99999100671ADDGF103991999999999999999999
0029029810999991905060406004+59500+020350FM-12+002699999V0202301N010819999999N0000001N9+01001+99999100871ADDGF102991999999999999999999
0029029810999991905060413004+59500+020350FM-12+002699999V0202301N010819999999N0000001N9+01061+99999101071ADDGF102991999999999999999999
0029029810999991905060420004+59500+020350FM-12+002699999V0202301N009819999999N0000001N9+01111+99999101101ADDGF105991999999999999999999
0029029810999991905060506004+59500+020350FM-12+002699999V0202001N004119999999N0000001N9+01171+99999100961ADDGF107991999999999999999999
0029029810999991905060513004+59500+020350FM-12+002699999V0202001N006219999999N0000001N9+01001+99999100791ADDGF108991999999999999999999
0029029810999991905060520004+59500+020350FM-12+002699999V0202301N008219999999N0000001N9+01061+99999100471ADDGF105991999999999999999999
0029029810999991905060606004+59500+020350FM-12+002699999V0203201N008219999999N0000001N9+00781+99999100561ADDGF107991999999999999999999
0029029810999991905060613004+59500+020350FM-12+002699999V0203201N007219999999N0000001N9+00941+99999100781ADDGF105991999999999999999999
0029029810999991905060620004+59500+020350FM-12+002699999V0203201N002119999999N0000001N9+00941+99999100761ADDGF104991999999999999999999
0029029810999991905060706004+59500+020350FM-12+002699999V0203201N008219999999N0000001N9+00891+99999100831ADDGF101991999999999999999999
0029029810999991905060713004+59500+020350FM-12+002699999V0203201N009819999999N0000001N9+00891+99999100991ADDGF101991999999999999999999
0029029810999991905060720004+59500+020350FM-12+002699999V0203201N011819999999N0000001N9+00941+99999101071ADDGF105991999999999999999999
0029029810999991905060806004+59500+020350FM-12+002699999V0200201N011819999999N0000001N9+00781+99999101361ADDGF103991999999999999999999
0029029810999991905060813004+59500+020350FM-12+002699999V0203601N012919999999N0000001N9+00891+99999101591ADDGF101991999999999999999999
0029029810999991905060820004+59500+020350FM-12+002699999V0203401N010819999999N0000001N9+00891+99999101721ADDGF101991999999999999999999
0029029810999991905060906004+59500+020350FM-12+002699999V0203601N008219999999N0000001N9+00891+99999101841ADDGF101991999999999999999999
0029029810999991905060913004+59500+020350FM-12+002699999V0203401N004119999999N0000001N9+00941+99999101871ADDGF101991999999999999999999
0029029810999991905060920004+59500+020350FM-12+002699999V0203601N005119999999N0000001N9+00891+99999101791ADDGF102991999999999999999999
0029029810999991905061006004+59500+020350FM-12+002699999V0200701N006219999999N0000001N9+00941+99999101831ADDGF102991999999999999999999
0029029810999991905061013004+59500+020350FM-12+002699999V0201601N004119999999N0000001N9+01001+99999101841ADDGF102991999999999999999999
0029029810999991905061020004+59500+020350FM-12+002699999V0202301N003119999999N0000001N9+00831+99999101661ADDGF104991999999999999999999
0029029810999991905061106004+59500+020350FM-12+002699999V0202001N008219999999N0000001N9+00891+99999101351ADDGF107991999999999999999999
0029029810999991905061113004+59500+020350FM-12+002699999V0202501N008219999999N0000001N9+00941+99999101141ADDGF103991999999999999999999
0029029810999991905061120004+59500+020350FM-12+002699999V0202701N005119999999N0000001N9+01001+99999101021ADDGF106991999999999999999999
0029029810999991905061206004+59500+020350FM-12+002699999V0209991C000019999999N0000001N9+01331+99999101181ADDGF100991999999999999999999
0029029810999991905061213004+59500+020350FM-12+002699999V0209991C000019999999N0000001N9+01281+99999101551ADDGF100991999999999999999999
0029029810999991905061220004+59500+020350FM-12+002699999V0209991C000019999999N0000001N9+01221+99999101701ADDGF102991999999999999999999
0029029810999991905061306004+59500+020350FM-12+002699999V0200501N005119999999N0000001N9+01171+99999101961ADDGF103991999999999999999999
0029029810999991905061313004+59500+020350FM-12+002699999V0200901N005119999999N0000001N9+01221+99999102061ADDGF105991999999999999999999
0029029810999991905061320004+59500+020350FM-12+002699999V0200501N008219999999N0000001N9+01281+99999102071ADDGF102991999999999999999999
0029029810999991905061406004+59500+020350FM-12+002699999V0200501N008719999999N0000001N9+01281+99999101981ADDGF108991999999999999999999
0029029810999991905061413004+59500+020350FM-12+002699999V0200501N008219999999N0000001N9+01281+99999101831ADDGF105991999999999999999999
0029029810999991905061420004+59500+020350FM-12+002699999V0200701N008219999999N0000001N9+01281+99999101671ADDGF108991999999999999999999
0029029810999991905061506004+59500+020350FM-12+002699999V0202001N005119999999N0000001N9+01441+99999101511ADDGF103991999999999999999999
0029029810999991905061513004+59500+020350FM-12+002699999V0202001N005119999999N0000001N9+01611+99999101561ADDGF101991999999999999999999
0029029810999991905061520004+59500+020350FM-12+002699999V0202001N004119999999N0000001N9+01441+99999101711ADDGF102991999999999999999999
0029029810999991905061606004+59500+020350FM-12+002699999V0202701N003119999999N0000001N9+01561+99999101831ADDGF101991999999999999999999
0029029810999991905061613004+59500+020350FM-12+002699999V0209991C000019999999N0000001N9+02281+99999101831ADDGF104991999999999999999999
0029029810999991905061620004+59500+020350FM-12+002699999V0200201N008219999999N0000001N9+01671+99999101681ADDGF106991999999999999999999
0029029810999991905061706004+59500+020350FM-12+002699999V0200501N005119999999N0000001N9+01391+99999101581ADDGF107991999999999999999999
0029029810999991905061713004+59500+020350FM-12+002699999V0200501N006219999999N0000001N9+01561+99999101401ADDGF102991999999999999999999
0029029810999991905061720004+59500+020350FM-12+002699999V0200201N007219999999N0000001N9+01611+99999101181ADDGF103991999999999999999999
0029029810999991905061806004+59500+020350FM-12+002699999V0200501N008219999999N0000001N9+01561+99999100941ADDGF105991999999999999999999
0029029810999991905061813004+59500+020350FM-12+002699999V0200501N006219999999N0000001N9+01561+99999100941ADDGF102991999999999999999999
0035029810999991905061820004+59500+020350FM-12+002699999V0201101N008219999999N0000001N9+01831+99999100821ADDGF106991999999999999999999MW1171
0029029810999991905061906004+59500+020350FM-12+002699999V0201601N004119999999N0000001N9+02001+99999100641ADDGF104991999999999999999999
0029029810999991905061913004+59500+020350FM-12+002699999V0201801N007219999999N0000001N9+01781+99999100721ADDGF106991999999999999999999
0029029810999991905061920004+59500+020350FM-12+002699999V0201801N005119999999N0000001N9+01671+99999100741ADDGF102991999999999999999999
0029029810999991905062006004+59500+020350FM-12+002699999V0202701N005119999999N0000001N9+01331+99999101001ADDGF108991999999999999999999
0029029810999991905062013004+59500+020350FM-12+002699999V0202501N008219999999N0000001N9+01561+99999101381ADDGF108991999999999999999999
0029029810999991905062020004+59500+020350FM-12+002699999V0202301N007219999999N0000001N9+01611+99999101461ADDGF102991999999999999999999
0029029810999991905062106004+59500+020350FM-12+002699999V0202301N008219999999N0000001N9+01611+99999101621ADDGF105991999999999999999999
0029029810999991905062113004+59500+020350FM-12+002699999V0202301N012919999999N0000001N9+01671+99999101521ADDGF106991999999999999999999
0029029810999991905062120004+59500+020350FM-12+002699999V0202001N008719999999N0000001N9+01441+99999101241ADDGF106991999999999999999999
0029029810999991905062206004+59500+020350FM-12+002699999V0202001N011819999999N0000001N9+01441+99999100541ADDGF108991999999999999999999
0029029810999991905062213004+59500+020350FM-12+002699999V0209991C000019999999N0000001N9+01611+99999100631ADDGF103991999999999999999999
0029029810999991905062220004+59500+020350FM-12+002699999V0203601N002119999999N0000001N9+01391+99999100951ADDGF102991999999999999999999
0029029810999991905062306004+59500+020350FM-12+002699999V0203601N009819999999N0000001N9+01331+99999101661ADDGF108991999999999999999999
0029029810999991905062313004+59500+020350FM-12+002699999V0203401N008719999999N0000001N9+01501+99999102121ADDGF101991999999999999999999
0029029810999991905062320004+59500+020350FM-12+002699999V0203601N008219999999N0000001N9+01331+99999102341ADDGF102991999999999999999999
0029029810999991905062406004+59500+020350FM-12+002699999V0203601N008219999999N0000001N9+01441+99999102441ADDGF102991999999999999999999
0029029810999991905062413004+59500+020350FM-12+002699999V0203201N003119999999N0000001N9+01671+99999102481ADDGF101991999999999999999999
0029029810999991905062420004+59500+020350FM-12+002699999V0202701N003119999999N0000001N9+01671+99999102341ADDGF101991999999999999999999
0029029810999991905062506004+59500+020350FM-12+002699999V0209991C000019999999N0000001N9+02061+99999102311ADDGF100991999999999999999999
0029029810999991905062513004+59500+020350FM-12+002699999V0202001N006219999999N0000001N9+01781+99999102271ADDGF101991999999999999999999
0029029810999991905062520004+59500+020350FM-12+002699999V0202301N008719999999N0000001N9+01721+99999102081ADDGF102991999999999999999999
0029029810999991905062606004+59500+020350FM-12+002699999V0202301N008219999999N0000001N9+01721+99999102101ADDGF102991999999999999999999
0029029810999991905062613004+59500+020350FM-12+002699999V0202301N004119999999N0000001N9+01941+99999102071ADDGF101991999999999999999999
0029029810999991905062620004+59500+020350FM-12+002699999V0202001N007219999999N0000001N9+02001+99999101821ADDGF100991999999999999999999
0029029810999991905062706004+59500+020350FM-12+002699999V0201601N005119999999N0000001N9+02061+99999101561ADDGF100991999999999999999999
0029029810999991905062713004+59500+020350FM-12+002699999V0201801N006219999999N0000001N9+02171+99999101321ADDGF101991999999999999999999
0029029810999991905062720004+59500+020350FM-12+002699999V0201601N005119999999N0000001N9+01891+99999100921ADDGF102991999999999999999999
0029029810999991905062806004+59500+020350FM-12+002699999V0202001N004119999999N0000001N9+02061+99999100641ADDGF106991999999999999999999
0029029810999991905062813004+59500+020350FM-12+002699999V0201801N005119999999N0000001N9+02061+99999100521ADDGF105991999999999999999999
0029029810999991905062820004+59500+020350FM-12+002699999V0201801N006219999999N0000001N9+01671+99999100441ADDGF108991999999999999999999
0029029810999991905062906004+59500+020350FM-12+002699999V0202001N008219999999N0000001N9+01721+99999100381ADDGF102991999999999999999999
0029029810999991905062913004+59500+020350FM-12+002699999V0202001N008219999999N0000001N9+01891+99999100521ADDGF103991999999999999999999
0029029810999991905062920004+59500+020350FM-12+002699999V0202301N010819999999N0000001N9+01671+99999100621ADDGF106991999999999999999999
0029029810999991905063006004+59500+020350FM-12+002699999V0202301N004119999999N0000001N9+01831+99999100961ADDGF104991999999999999999999
0029029810999991905063013004+59500+020350FM-12+002699999V0202301N007219999999N0000001N9+01721+99999101081ADDGF105991999999999999999999
0029029810999991905063020004+59500+020350FM-12+002699999V0202501N004119999999N0000001N9+01671+99999101241ADDGF102991999999999999999999
0029029810999991905070106004+59500+020350FM-12+002699999V0203201N005119999999N0000001N9+01441+99999101511ADDGF108991999999999999999999
0029029810999991905070113004+59500+020350FM-12+002699999V0202701N002119999999N0000001N9+01671+99999101481ADDGF108991999999999999999999
0029029810999991905070120004+59500+020350FM-12+002699999V0203601N005119999999N0000001N9+01611+99999101721ADDGF102991999999999999999999
0029029810999991905070206004+59500+020350FM-12+002699999V0202701N001019999999N0000001N9+01781+99999101911ADDGF102991999999999999999999
0029029810999991905070213004+59500+020350FM-12+002699999V0202301N008719999999N0000001N9+01721+99999101871ADDGF108991999999999999999999
0029029810999991905070220004+59500+020350FM-12+002699999V0202001N006219999999N0000001N9+01671+99999101641ADDGF104991999999999999999999
0029029810999991905070306004+59500+020350FM-12+002699999V0201801N008719999999N0000001N9+01941+99999101361ADDGF102991999999999999999999
0035029810999991905070313004+59500+020350FM-12+002699999V0201801N005119999999N0000001N9+01671+99999101111ADDGF108991999999999999999999MW1621
0029029810999991905070320004+59500+020350FM-12+002699999V0202001N008219999999N0000001N9+01721+99999100831ADDGF104991999999999999999999
0029029810999991905070406004+59500+020350FM-12+002699999V0202501N008219999999N0000001N9+01721+99999100781ADDGF102991999999999999999999
0029029810999991905070413004+59500+020350FM-12+002699999V0203201N008219999999N0000001N9+01781+99999100991ADDGF102991999999999999999999
0029029810999991905070420004+59500+020350FM-12+002699999V0202901N006219999999N0000001N9+01561+99999101221ADDGF102991999999999999999999
0029029810999991905070506004+59500+020350FM-12+002699999V0201801N005119999999N0000001N9+02001+99999100991ADDGF102991999999999999999999
0029029810999991905070513004+59500+020350FM-12+002699999V0202301N011819999999N0000001N9+01781+99999100711ADDGF102991999999999999999999
0029029810999991905070520004+59500+020350FM-12+002699999V0202301N008719999999N0000001N9+01671+99999100381ADDGF106991999999999999999999
0029029810999991905070606004+59500+020350FM-12+002699999V0202301N006219999999N0000001N9+01671+99999099941ADDGF108991999999999999999999
0029029810999991905070613004+59500+020350FM-12+002699999V0202301N006219999999N0000001N9+01671+99999099741ADDGF102991999999999999999999
0029029810999991905070620004+59500+020350FM-12+002699999V0202501N008219999999N0000001N9+01671+99999099511ADDGF102991999999999999999999
0029029810999991905070706004+59500+020350FM-12+002699999V0202901N009819999999N0000001N9+01331+99999099561ADDGF102991999999999999999999
0035029810999991905070713004+59500+020350FM-12+002699999V0203201N015919999999N0000001N9+01331+99999099921ADDGF103991999999999999999999MW1621
0029029810999991905070720004+59500+020350FM-12+002699999V0202701N011819999999N0000001N9+01441+99999100151ADDGF104991999999999999999999
0029029810999991905070806004+59500+020350FM-12+002699999V0203201N004119999999N0000001N9+01441+99999099961ADDGF104991999999999999999999
0029029810999991905070813004+59500+020350FM-12+002699999V0202701N004119999999N0000001N9+01391+99999100121ADDGF106991999999999999999999
0029029810999991905070820004+59500+020350FM-12+002699999V0202701N008219999999N0000001N9+01391+99999100241ADDGF107991999999999999999999
0029029810999991905070906004+59500+020350FM-12+002699999V0203401N011819999999N0000001N9+01331+99999100421ADDGF106991999999999999999999
0029029810999991905070913004+59500+020350FM-12+002699999V0202701N001019999999N0000001N9+01501+99999100481ADDGF107991999999999999999999
0029029810999991905070920004+59500+020350FM-12+002699999V0202701N005119999999N0000001N9+01561+99999100401ADDGF105991999999999999999999
0029029810999991905071006004+59500+020350FM-12+002699999V0203201N013919999999N0000001N9+01331+99999100581ADDGF102991999999999999999999
0029029810999991905071013004+59500+020350FM-12+002699999V0203201N013919999999N0000001N9+01331+99999100761ADDGF102991999999999999999999
0029029810999991905071020004+59500+020350FM-12+002699999V0203201N005119999999N0000001N9+01441+99999100831ADDGF101991999999999999999999
0029029810999991905071106004+59500+020350FM-12+002699999V0202901N007219999999N0000001N9+01441+99999100841ADDGF101991999999999999999999
0029029810999991905071113004+59500+020350FM-12+002699999V0203201N009819999999N0000001N9+01391+99999100881ADDGF102991999999999999999999
0029029810999991905071120004+59500+020350FM-12+002699999V0209991C000019999999N0000001N9+01441+99999100861ADDGF107991999999999999999999
0029029810999991905071206004+59500+020350FM-12+002699999V0209991C000019999999N0000001N9+01561+99999100781ADDGF106991999999999999999999
0029029810999991905071213004+59500+020350FM-12+002699999V0209991C000019999999N0000001N9+01671+99999100751ADDGF107991999999999999999999
0029029810999991905071220004+59500+020350FM-12+002699999V0203601N002119999999N0000001N9+01171+99999100671ADDGF107991999999999999999999
0029029810999991905071306004+59500+020350FM-12+002699999V0203601N007219999999N0000001N9+01281+99999100501ADDGF103991999999999999999999
0029029810999991905071313004+59500+020350FM-12+002699999V0203201N011819999999N0000001N9+01331+99999100511ADDGF103991999999999999999999
0029029810999991905071320004+59500+020350FM-12+002699999V0203201N010819999999N0000001N9+01171+99999100581ADDGF108991999999999999999999
0035029810999991905071406004+59500+020350FM-12+002699999V0203601N011819999999N0000001N9+01221+99999100501ADDGF108991999999999999999999MW1621
0029029810999991905071413004+59500+020350FM-12+002699999V0203201N010819999999N0000001N9+01331+99999100661ADDGF108991999999999999999999
0029029810999991905071420004+59500+020350FM-12+002699999V0203201N013919999999N0000001N9+01221+99999100701ADDGF108991999999999999999999
0029029810999991905071506004+59500+020350FM-12+002699999V0203401N011819999999N0000001N9+01221+99999100711ADDGF108991999999999999999999
0029029810999991905071513004+59500+020350FM-12+002699999V0203201N009819999999N0000001N9+01331+99999100761ADDGF108991999999999999999999
0029029810999991905071520004+59500+020350FM-12+002699999V0203201N008219999999N0000001N9+01221+99999100721ADDGF102991999999999999999999
0029029810999991905071606004+59500+020350FM-12+002699999V0209991C000019999999N0000001N9+01501+99999100591ADDGF103991999999999999999999
0029029810999991905071613004+59500+020350FM-12+002699999V0201801N003119999999N0000001N9+01781+99999100601ADDGF106991999999999999999999
0029029810999991905071620004+59500+020350FM-12+002699999V0201801N008219999999N0000001N9+01501+99999100391ADDGF108991999999999999999999
0029029810999991905071706004+59500+020350FM-12+002699999V0202301N003119999999N0000001N9+01441+99999100081ADDGF107991999999999999999999
0029029810999991905071713004+59500+020350FM-12+002699999V0202001N008219999999N0000001N9+01671+99999099991ADDGF108991999999999999999999
0029029810999991905071720004+59500+020350FM-12+002699999V0202301N009819999999N0000001N9+01561+99999099861ADDGF104991999999999999999999
0029029810999991905071806004+59500+020350FM-12+002699999V0202301N010819999999N0000001N9+01561+99999099911ADDGF102991999999999999999999
0029029810999991905071813004+59500+020350FM-12+002699999V0202301N012919999999N0000001N9+01611+99999100031ADDGF103991999999999999999999
0029029810999991905071820004+59500+020350FM-12+002699999V0202301N008719999999N0000001N9+01501+99999100201ADDGF102991999999999999999999
0029029810999991905071906004+59500+020350FM-12+002699999V0209991C000019999999N0000001N9+02061+99999100431ADDGF104991999999999999999999
0029029810999991905071913004+59500+020350FM-12+002699999V0201401N001019999999N0000001N9+01721+99999100641ADDGF106991999999999999999999
0029029810999991905071920004+59500+020350FM-12+002699999V0200501N006219999999N0000001N9+01561+99999100671ADDGF107991999999999999999999
0035029810999991905072006004+59500+020350FM-12+002699999V0200201N012919999999N0000001N9+01441+99999100431ADDGF108991999999999999999999MW1621
0029029810999991905072013004+59500+020350FM-12+002699999V0200501N010819999999N0000001N9+01501+99999100481ADDGF108991999999999999999999
0029029810999991905072020004+59500+020350FM-12+002699999V0201401N005119999999N0000001N9+01501+99999100681ADDGF106991999999999999999999
0035029810999991905072106004+59500+020350FM-12+002699999V0200501N011819999999N0000001N9+01561+99999100361ADDGF108991999999999999999999MW1621
0029029810999991905072113004+59500+020350FM-12+002699999V0200901N006219999999N0000001N9+01561+99999100621ADDGF106991999999999999999999
0029029810999991905072120004+59500+020350FM-12+002699999V0200501N006219999999N0000001N9+01561+99999100711ADDGF106991999999999999999999
0029029810999991905072206004+59500+020350FM-12+002699999V0200901N005119999999N0000001N9+01671+99999100591ADDGF102991999999999999999999
0029029810999991905072213004+59500+020350FM-12+002699999V0200701N005119999999N0000001N9+01611+99999100711ADDGF107991999999999999999999
0029029810999991905072220004+59500+020350FM-12+002699999V0200201N007219999999N0000001N9+01611+99999100621ADDGF106991999999999999999999
0035029810999991905072306004+59500+020350FM-12+002699999V0202901N008719999999N0000001N9+01501+99999099951ADDGF108991999999999999999999MW1621
0029029810999991905072313004+59500+020350FM-12+002699999V0201801N001019999999N0000001N9+01891+99999100111ADDGF108991999999999999999999
0029029810999991905072320004+59500+020350FM-12+002699999V0209991C000019999999N0000001N9+01671+99999100121ADDGF106991999999999999999999
0029029810999991905072406004+59500+020350FM-12+002699999V0209991C000019999999N0000001N9+01611+99999100161ADDGF107991999999999999999999
0029029810999991905072413004+59500+020350FM-12+002699999V0200501N005119999999N0000001N9+01671+99999100321ADDGF106991999999999999999999
0029029810999991905072420004+59500+020350FM-12+002699999V0200501N008219999999N0000001N9+01671+99999100361ADDGF104991999999999999999999
0029029810999991905072506004+59500+020350FM-12+002699999V0200701N010819999999N0000001N9+01561+99999100321ADDGF106991999999999999999999
0029029810999991905072513004+59500+020350FM-12+002699999V0200701N002119999999N0000001N9+01671+99999100421ADDGF102991999999999999999999
0029029810999991905072520004+59500+020350FM-12+002699999V0202901N003119999999N0000001N9+01671+99999100421ADDGF101991999999999999999999
0029029810999991905072606004+59500+020350FM-12+002699999V0203201N005119999999N0000001N9+01611+99999100461ADDGF104991999999999999999999
0029029810999991905072613004+59500+020350FM-12+002699999V0202301N005119999999N0000001N9+01721+99999100551ADDGF101991999999999999999999
0029029810999991905072620004+59500+020350FM-12+002699999V0202301N008719999999N0000001N9+01671+99999100511ADDGF105991999999999999999999
0029029810999991905072706004+59500+020350FM-12+002699999V0202701N006219999999N0000001N9+01611+99999100501ADDGF102991999999999999999999
0029029810999991905072713004+59500+020350FM-12+002699999V0202301N008219999999N0000001N9+01671+99999100661ADDGF107991999999999999999999
0029029810999991905072720004+59500+020350FM-12+002699999V0209991C000019999999N0000001N9+01671+99999100751ADDGF102991999999999999999999
0029029810999991905072806004+59500+020350FM-12+002699999V0209991C000019999999N0000001N9+02001+99999100741ADDGF102991999999999999999999
0029029810999991905072813004+59500+020350FM-12+002699999V0201801N004119999999N0000001N9+02171+99999100621ADDGF102991999999999999999999
0029029810999991905072820004+59500+020350FM-12+002699999V0202701N007219999999N0000001N9+01611+99999100551ADDGF102991999999999999999999
0029029810999991905072906004+59500+020350FM-12+002699999V0202701N003119999999N0000001N9+01561+99999100601ADDGF102991999999999999999999
0029029810999991905072913004+59500+020350FM-12+002699999V0203201N008219999999N0000001N9+01611+99999100751ADDGF102991999999999999999999
0029029810999991905072920004+59500+020350FM-12+002699999V0202701N002119999999N0000001N9+01561+99999100801ADDGF101991999999999999999999
0029029810999991905073006004+59500+020350FM-12+002699999V0202501N009819999999N0000001N9+01671+99999100511ADDGF107991999999999999999999
0029029810999991905073013004+59500+020350FM-12+002699999V0202001N011819999999N0000001N9+01831+99999100141ADDGF106991999999999999999999
0029029810999991905073020004+59500+020350FM-12+002699999V0202301N008219999999N0000001N9+01671+99999099941ADDGF108991999999999999999999
0035029810999991905073106004+59500+020350FM-12+002699999V0201801N006219999999N0000001N9+01441+99999099581ADDGF108991999999999999999999MW1601
0029029810999991905073113004+59500+020350FM-12+002699999V0202701N003119999999N0000001N9+01671+99999099761ADDGF108991999999999999999999
0029029810999991905073120004+59500+020350FM-12+002699999V0202301N004119999999N0000001N9+01561+99999100081ADDGF102991999999999999999999
0029029810999991905080106004+59500+020350FM-12+002699999V0202301N011819999999N0000001N9+01561+99999100421ADDGF102991999999999999999999
0029029810999991905080113004+59500+020350FM-12+002699999V0202301N008219999999N0000001N9+01721+99999100711ADDGF102991999999999999999999
0029029810999991905080120004+59500+020350FM-12+002699999V0202301N009819999999N0000001N9+01611+99999100951ADDGF103991999999999999999999
0029029810999991905080206004+59500+020350FM-12+002699999V0201801N002119999999N0000001N9+01721+99999100961ADDGF105991999999999999999999
0029029810999991905080213004+59500+020350FM-12+002699999V0201101N007219999999N0000001N9+01671+99999100631ADDGF108991999999999999999999
0035029810999991905080220004+59500+020350FM-12+002699999V0201801N019019999999N0000001N9+01561+99999099801ADDGF108991999999999999999999MW1621
0029029810999991905080306004+59500+020350FM-12+002699999V0202301N011819999999N0000001N9+01501+99999100031ADDGF106991999999999999999999
0029029810999991905080313004+59500+020350FM-12+002699999V0202301N015919999999N0000001N9+01501+99999100311ADDGF101991999999999999999999
0029029810999991905080320004+59500+020350FM-12+002699999V0202301N008219999999N0000001N9+01501+99999100631ADDGF106991999999999999999999
0029029810999991905080406004+59500+020350FM-12+002699999V0202701N002119999999N0000001N9+01561+99999101101ADDGF102991999999999999999999
0029029810999991905080413004+59500+020350FM-12+002699999V0202301N004119999999N0000001N9+01671+99999101351ADDGF106991999999999999999999
0029029810999991905080420004+59500+020350FM-12+002699999V0202001N005119999999N0000001N9+01501+99999101381ADDGF108991999999999999999999
0029029810999991905080506004+59500+020350FM-12+002699999V0201401N010819999999N0000001N9+01611+99999101351ADDGF106991999999999999999999
0029029810999991905080513004+59500+020350FM-12+002699999V0201101N014919999999N0000001N9+01721+99999101151ADDGF105991999999999999999999
0029029810999991905080520004+59500+020350FM-12+002699999V0201101N013919999999N0000001N9+01781+99999100841ADDGF104991999999999999999999
0029029810999991905080606004+59500+020350FM-12+002699999V0201601N007219999999N0000001N9+01831+99999100551ADDGF104991999999999999999999
0029029810999991905080613004+59500+020350FM-12+002699999V0200501N005119999999N0000001N9+01671+99999100541ADDGF108991999999999999999999
0029029810999991905080620004+59500+020350FM-12+002699999V0202701N007219999999N0000001N9+01941+99999100561ADDGF104991999999999999999999
0029029810999991905080706004+59500+020350FM-12+002699999V0202701N008219999999N0000001N9+01561+99999101001ADDGF105991999999999999999999
0029029810999991905080713004+59500+020350FM-12+002699999V0202701N003119999999N0000001N9+01671+99999101301ADDGF106991999999999999999999
0029029810999991905080720004+59500+020350FM-12+002699999V0203601N002119999999N0000001N9+01611+99999101351ADDGF107991999999999999999999
0035029810999991905080806004+59500+020350FM-12+002699999V0203601N006219999999N0000001N9+01561+99999101181ADDGF108991999999999999999999MW1621
0035029810999991905080813004+59500+020350FM-12+002699999V0203201N015919999999N0000001N9+01441+99999101061ADDGF108991999999999999999999MW1621
0029029810999991905080820004+59500+020350FM-12+002699999V0202701N009819999999N0000001N9+01391+99999101151ADDGF107991999999999999999999
0029029810999991905080906004+59500+020350FM-12+002699999V0202501N008219999999N0000001N9+01611+99999101221ADDGF101991999999999999999999
0029029810999991905080913004+59500+020350FM-12+002699999V0202301N008219999999N0000001N9+01611+99999101341ADDGF104991999999999999999999
0029029810999991905080920004+59500+020350FM-12+002699999V0202301N008219999999N0000001N9+01561+99999101281ADDGF102991999999999999999999
0029029810999991905081006004+59500+020350FM-12+002699999V0201601N007219999999N0000001N9+01721+99999101001ADDGF106991999999999999999999
0035029810999991905081013004+59500+020350FM-12+002699999V0202301N003119999999N0000001N9+01391+99999100831ADDGF108991999999999999999999MW1621
0035029810999991905081020004+59500+020350FM-12+002699999V0201801N010819999999N0000001N9+01671+99999999999ADDGF108991999999999999999999MW1621
0029029810999991905081106004+59500+020350FM-12+002699999V0202301N010819999999N0000001N9+01611+99999100031ADDGF103991999999999999999999
0029029810999991905081113004+59500+020350FM-12+002699999V0202301N013919999999N0000001N9+01611+99999099871ADDGF102991999999999999999999
0029029810999991905081120004+59500+020350FM-12+002699999V0202301N011819999999N0000001N9+01561+99999099761ADDGF102991999999999999999999
0029029810999991905081206004+59500+020350FM-12+002699999V0202301N011819999999N0000001N9+01561+99999099751ADDGF104991999999999999999999
0029029810999991905081213004+59500+020350FM-12+002699999V0202301N009819999999N0000001N9+01501+99999099761ADDGF105991999999999999999999
0035029810999991905081220004+59500+020350FM-12+002699999V0202701N007219999999N0000001N9+01331+99999099801ADDGF107991999999999999999999MW1621
0029029810999991905081306004+59500+020350FM-12+002699999V0202901N014919999999N0000001N9+01281+99999100241ADDGF102991999999999999999999
0029029810999991905081313004+59500+020350FM-12+002699999V0202501N007219999999N0000001N9+01611+99999100751ADDGF102991999999999999999999
0029029810999991905081320004+59500+020350FM-12+002699999V0202301N007219999999N0000001N9+01611+99999100831ADDGF105991999999999999999999
0029029810999991905081406004+59500+020350FM-12+002699999V0202701N009819999999N0000001N9+01441+99999100921ADDGF106991999999999999999999
0029029810999991905081413004+59500+020350FM-12+002699999V0203201N005119999999N0000001N9+01501+99999101301ADDGF102991999999999999999999
0029029810999991905081420004+59500+020350FM-12+002699999V0201801N004119999999N0000001N9+01441+99999101461ADDGF104991999999999999999999
0029029810999991905081506004+59500+020350FM-12+002699999V0209991C000019999999N0000001N9+01891+99999101551ADDGF102991999999999999999999
0029029810999991905081513004+59500+020350FM-12+002699999V0202301N006219999999N0000001N9+01561+99999101501ADDGF106991999999999999999999
0029029810999991905081520004+59500+020350FM-12+002699999V0201801N005119999999N0000001N9+01501+99999101281ADDGF108991999999999999999999
0029029810999991905081606004+59500+020350FM-12+002699999V0202301N008219999999N0000001N9+01441+99999100671ADDGF103991999999999999999999
0029029810999991905081613004+59500+020350FM-12+002699999V0202301N008219999999N0000001N9+01611+99999100781ADDGF102991999999999999999999
0029029810999991905081620004+59500+020350FM-12+002699999V0202901N008219999999N0000001N9+01331+99999100751ADDGF104991999999999999999999
0029029810999991905081706004+59500+020350FM-12+002699999V0203201N009819999999N0000001N9+01331+99999100921ADDGF103991999999999999999999
0029029810999991905081713004+59500+020350FM-12+002699999V0203201N014919999999N0000001N9+01331+99999101361ADDGF101991999999999999999999
0029029810999991905081720004+59500+020350FM-12+002699999V0203201N007219999999N0000001N9+01331+99999101661ADDGF102991999999999999999999
0029029810999991905081806004+59500+020350FM-12+002699999V0202701N005119999999N0000001N9+01441+99999101791ADDGF102991999999999999999999
0029029810999991905081813004+59500+020350FM-12+002699999V0202301N005119999999N0000001N9+01561+99999101861ADDGF105991999999999999999999
0029029810999991905081820004+59500+020350FM-12+002699999V0201801N007219999999N0000001N9+01501+99999101751ADDGF106991999999999999999999
0029029810999991905081906004+59500+020350FM-12+002699999V0201601N012919999999N0000001N9+01561+99999101351ADDGF106991999999999999999999
0029029810999991905081913004+59500+020350FM-12+002699999V0201401N013919999999N0000001N9+01561+99999100801ADDGF107991999999999999999999
0029029810999991905081920004+59500+020350FM-12+002699999V0201401N013919999999N0000001N9+01561+99999100271ADDGF108991999999999999999999
0029029810999991905082006004+59500+020350FM-12+002699999V0202701N006219999999N0000001N9+01391+99999100111ADDGF106991999999999999999999
0029029810999991905082013004+59500+020350FM-12+002699999V0202301N011819999999N0000001N9+01501+99999100121ADDGF102991999999999999999999
0029029810999991905082020004+59500+020350FM-12+002699999V0202301N008219999999N0000001N9+01441+99999100061ADDGF105991999999999999999999
0029029810999991905082106004+59500+020350FM-12+002699999V0202701N006219999999N0000001N9+01391+99999100271ADDGF102991999999999999999999
0029029810999991905082113004+59500+020350FM-12+002699999V0202901N006219999999N0000001N9+01441+99999100681ADDGF103991999999999999999999
0035029810999991905082120004+59500+020350FM-12+002699999V0202701N007219999999N0000001N9+01391+99999100841ADDGF107991999999999999999999MW1641
0029029810999991905082206004+59500+020350FM-12+002699999V0202901N008219999999N0000001N9+01391+99999101161ADDGF101991999999999999999999
0029029810999991905082213004+59500+020350FM-12+002699999V0202901N006219999999N0000001N9+01391+99999101321ADDGF102991999999999999999999
0029029810999991905082220004+59500+020350FM-12+002699999V0202901N002119999999N0000001N9+01331+99999101421ADDGF101991999999999999999999
0029029810999991905082306004+59500+020350FM-12+002699999V0203401N004119999999N0000001N9+01281+99999101401ADDGF106991999999999999999999
0029029810999991905082313004+59500+020350FM-12+002699999V0203601N002119999999N0000001N9+01501+99999101431ADDGF107991999999999999999999
0029029810999991905082320004+59500+020350FM-12+002699999V0200901N008219999999N0000001N9+01331+99999101311ADDGF108991999999999999999999
0029029810999991905082406004+59500+020350FM-12+002699999V0200901N011819999999N0000001N9+01441+99999100791ADDGF108991999999999999999999
0035029810999991905082413004+59500+020350FM-12+002699999V0200901N014919999999N0000001N9+01331+99999100561ADDGF108991999999999999999999MW1621
0029029810999991905082420004+59500+020350FM-12+002699999V0200901N006219999999N0000001N9+01331+99999100391ADDGF107991999999999999999999
0029029810999991905082506004+59500+020350FM-12+002699999V0201801N006219999999N0000001N9+01611+99999100351ADDGF106991999999999999999999
0029029810999991905082513004+59500+020350FM-12+002699999V0200501N001019999999N0000001N9+01561+99999100421ADDGF106991999999999999999999
0029029810999991905082520004+59500+020350FM-12+002699999V0200501N008219999999N0000001N9+01281+99999100581ADDGF107991999999999999999999
0029029810999991905082606004+59500+020350FM-12+002699999V0203601N012919999999N0000001N9+01061+99999100831ADDGF107991999999999999999999
0029029810999991905082613004+59500+020350FM-12+002699999V0203601N008719999999N0000001N9+01171+99999101301ADDGF107991999999999999999999
0029029810999991905082620004+59500+020350FM-12+002699999V0203601N008719999999N0000001N9+01171+99999101581ADDGF101991999999999999999999
0029029810999991905082706004+59500+020350FM-12+002699999V0201101N004119999999N0000001N9+01221+99999101701ADDGF102991999999999999999999
0029029810999991905082713004+59500+020350FM-12+002699999V0200701N004119999999N0000001N9+01171+99999101751ADDGF104991999999999999999999
0029029810999991905082720004+59500+020350FM-12+002699999V0200901N006219999999N0000001N9+01111+99999101631ADDGF102991999999999999999999
0029029810999991905082806004+59500+020350FM-12+002699999V0200901N010819999999N0000001N9+01171+99999101441ADDGF107991999999999999999999
0029029810999991905082813004+59500+020350FM-12+002699999V0200901N010819999999N0000001N9+01221+99999101241ADDGF106991999999999999999999
0029029810999991905082820004+59500+020350FM-12+002699999V0201101N009819999999N0000001N9+01221+99999100981ADDGF106991999999999999999999
0029029810999991905082906004+59500+020350FM-12+002699999V0200901N013919999999N0000001N9+01221+99999100561ADDGF107991999999999999999999
0029029810999991905082913004+59500+020350FM-12+002699999V0200901N015919999999N0000001N9+01281+99999100421ADDGF107991999999999999999999
0029029810999991905082920004+59500+020350FM-12+002699999V0200901N013919999999N0000001N9+01281+99999100191ADDGF103991999999999999999999
0029029810999991905083006004+59500+020350FM-12+002699999V0200501N020119999999N0000001N9+01171+99999099441ADDGF106991999999999999999999
0035029810999991905083013004+59500+020350FM-12+002699999V0200501N018019999999N0000001N9+01221+99999099191ADDGF108991999999999999999999MW1601
0035029810999991905083020004+59500+020350FM-12+002699999V0200701N013919999999N0000001N9+01111+99999099401ADDGF108991999999999999999999MW1601
0029029810999991905083106004+59500+020350FM-12+002699999V0200201N010819999999N0000001N9+01061+99999099561ADDGF104991999999999999999999
0029029810999991905083113004+59500+020350FM-12+002699999V0203401N010819999999N0000001N9+01111+99999099701ADDGF106991999999999999999999
0029029810999991905083120004+59500+020350FM-12+002699999V0202901N006219999999N0000001N9+01171+99999099701ADDGF102991999999999999999999
0029029810999991905090106004+59500+020350FM-12+002699999V0203201N008219999999N0000001N9+01061+99999099521ADDGF102991999999999999999999
0029029810999991905090113004+59500+020350FM-12+002699999V0202701N006219999999N0000001N9+01111+99999099511ADDGF102991999999999999999999
0029029810999991905090120004+59500+020350FM-12+002699999V0202301N005119999999N0000001N9+01221+99999099271ADDGF106991999999999999999999
0029029810999991905090206004+59500+020350FM-12+002699999V0202501N005119999999N0000001N9+01111+99999099021ADDGF106991999999999999999999
0029029810999991905090213004+59500+020350FM-12+002699999V0203201N007219999999N0000001N9+01001+99999099101ADDGF104991999999999999999999
0029029810999991905090220004+59500+020350FM-12+002699999V0203401N008219999999N0000001N9+00941+99999099061ADDGF102991999999999999999999
0029029810999991905090306004+59500+020350FM-12+002699999V0209991C000019999999N0000001N9+01441+99999098911ADDGF102991999999999999999999
0029029810999991905090313004+59500+020350FM-12+002699999V0201401N002119999999N0000001N9+01391+99999099041ADDGF102991999999999999999999
