0029227070999991905010106004+62167+030650FM-12+010299999V0209991C000019999999N0000001N9-02831+99999999999ADDGF100991999999999999999999
0029227070999991905010113004+62167+030650FM-12+010299999V0209991C000019999999N0000001N9-02441+99999999999ADDGF101991999999999999999999
0029227070999991905010120004+62167+030650FM-12+010299999V0209991C000019999999N0000001N9-01501+99999999999ADDGF108991999999999999999999
0029227070999991905010206004+62167+030650FM-12+010299999V0201801N002119999999N0000001N9-01061+99999999999ADDGF108991999999999999999999
0029227070999991905010213004+62167+030650FM-12+010299999V0202001N006219999999N0000001N9-00671+99999999999ADDGF108991999999999999999999
0029227070999991905010220004+62167+030650FM-12+010299999V0202001N002119999999N0000001N9-00331+99999999999ADDGF108991999999999999999999
0029227070999991905010306004+62167+030650FM-12+010299999V0202001N002119999999N0000001N9+00171+99999999999ADDGF104991999999999999999999
0029227070999991905010313004+62167+030650FM-12+010299999V0202001N002119999999N0000001N9+00221+99999999999ADDGF108991999999999999999999
0029227070999991905010320004+62167+030650FM-12+010299999V0202701N004119999999N0000001N9-00061+99999999999ADDGF108991999999999999999999
0029227070999991905010406004+62167+030650FM-12+010299999V0202701N001019999999N0000001N9-00611+99999999999ADDGF100991999999999999999999
0029227070999991905010413004+62167+030650FM-12+010299999V0202701N002119999999N0000001N9-00831+99999999999ADDGF100991999999999999999999
0029227070999991905010420004+62167+030650FM-12+010299999V0202901N002119999999N0000001N9-00891+99999999999ADDGF100991999999999999999999
0029227070999991905010506004+62167+030650FM-12+010299999V0209991C000019999999N0000001N9-01671+99999999999ADDGF108991999999999999999999
0029227070999991905010513004+62167+030650FM-12+010299999V0209991C000019999999N0000001N9-01501+99999999999ADDGF106991999999999999999999
0029227070999991905010520004+62167+030650FM-12+010299999V0209991C000019999999N0000001N9-01721+99999999999ADDGF108991999999999999999999
0029227070999991905010606004+62167+030650FM-12+010299999V0209991C000019999999N0000001N9-02781+99999999999ADDGF100991999999999999999999
0029227070999991905010613004+62167+030650FM-12+010299999V0209991C000019999999N0000001N9-02671+99999999999ADDGF108991999999999999999999
0029227070999991905010620004+62167+030650FM-12+010299999V0201601N004119999999N0000001N9-02441+99999999999ADDGF108991999999999999999999
0029227070999991905010706004+62167+030650FM-12+010299999V0209991C000019999999N0000001N9-01331+99999999999ADDGF108991999999999999999999
0029227070999991905010713004+62167+030650FM-12+010299999V0209991C000019999999N0000001N9-01281+99999999999ADDGF108991999999999999999999
0029227070999991905010720004+62167+030650FM-12+010299999V0209991C000019999999N0000001N9-01331+99999999999ADDGF108991999999999999999999
0029227070999991905010806004+62167+030650FM-12+010299999V0203201N002119999999N0000001N9-01391+99999999999ADDGF108991999999999999999999
0029227070999991905010813004+62167+030650FM-12+010299999V0209991C000019999999N0000001N9-02061+99999999999ADDGF100991999999999999999999
0029227070999991905010820004+62167+030650FM-12+010299999V0209991C000019999999N0000001N9-02781+99999999999ADDGF108991999999999999999999
0029227070999991905010906004+62167+030650FM-12+010299999V0203201N009819999999N0000001N9-01781+99999999999ADDGF108991999999999999999999
0029227070999991905010913004+62167+030650FM-12+010299999V0201401N008219999999N0000001N9-00441+99999999999ADDGF108991999999999999999999
0029227070999991905010920004+62167+030650FM-12+010299999V0209991C000019999999N0000001N9+00001+99999999999ADDGF108991999999999999999999
0029227070999991905011006004+62167+030650FM-12+010299999V0209991C000019999999N0000001N9-00111+99999999999ADDGF108991999999999999999999
0029227070999991905011013004+62167+030650FM-12+010299999V0200501N008219999999N0000001N9-00171+99999999999ADDGF108991999999999999999999
0029227070999991905011020004+62167+030650FM-12+010299999V0203201N004119999999N0000001N9-01391+99999999999ADDGF108991999999999999999999
0029227070999991905011106004+62167+030650FM-12+010299999V0203201N002119999999N0000001N9-02221+99999999999ADDGF100991999999999999999999
0029227070999991905011113004+62167+030650FM-12+010299999V0209991C000019999999N0000001N9-02281+99999999999ADDGF100991999999999999999999
0029227070999991905011120004+62167+030650FM-12+010299999V0209991C000019999999N0000001N9-03281+99999999999ADDGF100991999999999999999999
0029227070999991905011206004+62167+030650FM-12+010299999V0209991C000019999999N0000001N9-03281+99999999999ADDGF100991999999999999999999
0029227070999991905011213004+62167+030650FM-12+010299999V0201401N020119999999N0000001N9-01441+99999999999ADDGF108991999999999999999999
0029227070999991905011220004+62167+030650FM-12+010299999V0201401N020119999999N0000001N9-01441+99999999999ADDGF108991999999999999999999
0029227070999991905011306004+62167+030650FM-12+010299999V0200501N011819999999N0000001N9-01671+99999999999ADDGF108991999999999999999999
0029227070999991905011313004+62167+030650FM-12+010299999V0203601N008219999999N0000001N9-01331+99999999999ADDGF100991999999999999999999
0029227070999991905011320004+62167+030650FM-12+010299999V0200501N008219999999N0000001N9-01721+99999999999ADDGF100991999999999999999999
0029227070999991905011406004+62167+030650FM-12+010299999V0209991C000019999999N0000001N9-02781+99999999999ADDGF100991999999999999999999
0029227070999991905011413004+62167+030650FM-12+010299999V0209991C000019999999N0000001N9-02171+99999999999ADDGF100991999999999999999999
0029227070999991905011420004+62167+030650FM-12+010299999V0209991C000019999999N0000001N9-01941+99999999999ADDGF101991999999999999999999
0029227070999991905011506004+62167+030650FM-12+010299999V0209991C000019999999N0000001N9-01891+99999999999ADDGF108991999999999999999999
0029227070999991905011513004+62167+030650FM-12+010299999V0209991C000019999999N0000001N9-00721+99999999999ADDGF108991999999999999999999
0029227070999991905011520004+62167+030650FM-12+010299999V0202301N001019999999N0000001N9-00501+99999999999ADDGF108991999999999999999999
0029227070999991905011606004+62167+030650FM-12+010299999V0202701N004119999999N0000001N9-00441+99999999999ADDGF108991999999999999999999
0029227070999991905011613004+62167+030650FM-12+010299999V0209991C000019999999N0000001N9-00561+99999999999ADDGF108991999999999999999999
0029227070999991905011620004+62167+030650FM-12+010299999V0202901N006219999999N0000001N9-00611+99999999999ADDGF108991999999999999999999
0029227070999991905011706004+62167+030650FM-12+010299999V0202901N004119999999N0000001N9-00721+99999999999ADDGF108991999999999999999999
0029227070999991905011713004+62167+030650FM-12+010299999V0203401N002119999999N0000001N9-00831+99999999999ADDGF108991999999999999999999
0029227070999991905011720004+62167+030650FM-12+010299999V0209991C000019999999N0000001N9-01111+99999999999ADDGF100991999999999999999999
0029227070999991905011806004+62167+030650FM-12+010299999V0209991C000019999999N0000001N9-02171+99999999999ADDGF100991999999999999999999
0029227070999991905011813004+62167+030650FM-12+010299999V0209991C000019999999N0000001N9-02611+99999999999ADDGF100991999999999999999999
0029227070999991905011820004+62167+030650FM-12+010299999V0203201N002119999999N0000001N9-01441+99999999999ADDGF100991999999999999999999
0029227070999991905011906004+62167+030650FM-12+010299999V0209991C000019999999N0000001N9-01391+99999999999ADDGF108991999999999999999999
0029227070999991905011913004+62167+030650FM-12+010299999V0202301N001019999999N0000001N9-01061+99999999999ADDGF108991999999999999999999
0029227070999991905011920004+62167+030650FM-12+010299999V0201601N002119999999N0000001N9-01281+99999999999ADDGF108991999999999999999999
0029227070999991905012006004+62167+030650FM-12+010299999V0209991C000019999999N0000001N9-01501+99999999999ADDGF108991999999999999999999
0029227070999991905012013004+62167+030650FM-12+010299999V0209991C000019999999N0000001N9-01501+99999999999ADDGF108991999999999999999999
0029227070999991905012020004+62167+030650FM-12+010299999V0209991C000019999999N0000001N9-01281+99999999999ADDGF108991999999999999999999
0029227070999991905012106004+62167+030650FM-12+010299999V0209991C000019999999N0000001N9-00891+99999999999ADDGF104991999999999999999999
0029227070999991905012113004+62167+030650FM-12+010299999V0209991C000019999999N0000001N9-00781+99999999999ADDGF106991999999999999999999
0029227070999991905012120004+62167+030650FM-12+010299999V0209991C000019999999N0000001N9-01061+99999999999ADDGF101991999999999999999999
0029227070999991905012206004+62167+030650FM-12+010299999V0209991C000019999999N0000001N9-01281+99999999999ADDGF102991999999999999999999
0029227070999991905012213004+62167+030650FM-12+010299999V0209991C000019999999N0000001N9-01001+99999999999ADDGF100991999999999999999999
0029227070999991905012220004+62167+030650FM-12+010299999V0209991C000019999999N0000001N9-00831+99999999999ADDGF108991999999999999999999
0029227070999991905012306004+62167+030650FM-12+010299999V0202701N002119999999N0000001N9-00831+99999999999ADDGF108991999999999999999999
0029227070999991905012313004+62167+030650FM-12+010299999V0202001N001019999999N0000001N9-00781+99999999999ADDGF108991999999999999999999
0029227070999991905012320004+62167+030650FM-12+010299999V0209991C000019999999N0000001N9-00891+99999999999ADDGF102991999999999999999999
0029227070999991905012406004+62167+030650FM-12+010299999V0202001N006219999999N0000001N9-00171+99999999999ADDGF108991999999999999999999
0029227070999991905012413004+62167+030650FM-12+010299999V0201801N002119999999N0000001N9-00171+99999999999ADDGF108991999999999999999999
0029227070999991905012420004+62167+030650FM-12+010299999V0201801N001019999999N0000001N9-00061+99999999999ADDGF108991999999999999999999
0029227070999991905012506004+62167+030650FM-12+010299999V0201801N003119999999N0000001N9-00061+99999999999ADDGF108991999999999999999999
0029227070999991905012513004+62167+030650FM-12+010299999V0201601N004119999999N0000001N9+00001+99999999999ADDGF108991999999999999999999
0029227070999991905012520004+62167+030650FM-12+010299999V0202901N004119999999N0000001N9+00001+99999999999ADDGF108991999999999999999999
0029227070999991905012606004+62167+030650FM-12+010299999V0201801N002119999999N0000001N9-00061+99999999999ADDGF108991999999999999999999
0029227070999991905012613004+62167+030650FM-12+010299999V0202901N001019999999N0000001N9-00391+99999999999ADDGF108991999999999999999999
0029227070999991905012620004+62167+030650FM-12+010299999V0200901N002119999999N0000001N9-01171+99999999999ADDGF100991999999999999999999
0029227070999991905012706004+62167+030650FM-12+010299999V0209991C000019999999N0000001N9-00831+99999999999ADDGF108991999999999999999999
0029227070999991905012713004+62167+030650FM-12+010299999V0200501N002119999999N0000001N9-00941+99999999999ADDGF108991999999999999999999
0029227070999991905012720004+62167+030650FM-12+010299999V0201801N001019999999N0000001N9-01001+99999999999ADDGF108991999999999999999999
0029227070999991905012806004+62167+030650FM-12+010299999V0200901N002119999999N0000001N9-00831+99999999999ADDGF108991999999999999999999
0029227070999991905012813004+62167+030650FM-12+010299999V0200901N004119999999N0000001N9-00831+99999999999ADDGF108991999999999999999999
0029227070999991905012820004+62167+030650FM-12+010299999V0202301N009819999999N0000001N9-00671+99999999999ADDGF108991999999999999999999
0029227070999991905012906004+62167+030650FM-12+010299999V0201801N009819999999N0000001N9-00281+99999999999ADDGF104991999999999999999999
0029227070999991905012913004+62167+030650FM-12+010299999V0201801N002119999999N0000001N9-00501+99999999999ADDGF108991999999999999999999
0029227070999991905012920004+62167+030650FM-12+010299999V0203201N006219999999N0000001N9-00781+99999999999ADDGF108991999999999999999999
0029227070999991905013006004+62167+030650FM-12+010299999V0203201N002119999999N0000001N9-01781+99999999999ADDGF108991999999999999999999
0029227070999991905013013004+62167+030650FM-12+010299999V0203201N001019999999N0000001N9-01441+99999999999ADDGF108991999999999999999999
0029227070999991905013020004+62167+030650FM-12+010299999V0209991C000019999999N0000001N9-01391+99999999999ADDGF100991999999999999999999
0029227070999991905013106004+62167+030650FM-12+010299999V0209991C000019999999N0000001N9-02221+99999999999ADDGF101991999999999999999999
0029227070999991905013113004+62167+030650FM-12+010299999V0209991C000019999999N0000001N9-01561+99999999999ADDGF108991999999999999999999
0029227070999991905013120004+62167+030650FM-12+010299999V0203201N008219999999N0000001N9-01111+99999999999ADDGF108991999999999999999999
0029227070999991905020106004+62167+030650FM-12+010299999V0200501N008219999999N0000001N9-01111+99999999999ADDGF108991999999999999999999
0029227070999991905020113004+62167+030650FM-12+010299999V0203601N008219999999N0000001N9-01111+99999999999ADDGF108991999999999999999999
0029227070999991905020120004+62167+030650FM-12+010299999V0203201N004119999999N0000001N9-01501+99999999999ADDGF108991999999999999999999
0029227070999991905020206004+62167+030650FM-12+010299999V0209991C000019999999N0000001N9-02391+99999999999ADDGF100991999999999999999999
0029227070999991905020213004+62167+030650FM-12+010299999V0209991C000019999999N0000001N9-02061+99999999999ADDGF100991999999999999999999
0029227070999991905020220004+62167+030650FM-12+010299999V0209991C000019999999N0000001N9-02001+99999999999ADDGF100991999999999999999999
0029227070999991905020306004+62167+030650FM-12+010299999V0209991C000019999999N0000001N9-01671+99999999999ADDGF108991999999999999999999
0029227070999991905020313004+62167+030650FM-12+010299999V0209991C000019999999N0000001N9-01331+99999999999ADDGF108991999999999999999999
0029227070999991905020320004+62167+030650FM-12+010299999V0209991C000019999999N0000001N9-01391+99999999999ADDGF108991999999999999999999
0029227070999991905020406004+62167+030650FM-12+010299999V0209991C000019999999N0000001N9-01501+99999999999ADDGF108991999999999999999999
0029227070999991905020413004+62167+030650FM-12+010299999V0209991C000019999999N0000001N9-01561+99999999999ADDGF108991999999999999999999
0029227070999991905020420004+62167+030650FM-12+010299999V0209991C000019999999N0000001N9-01441+99999999999ADDGF108991999999999999999999
0029227070999991905020506004+62167+030650FM-12+010299999V0209991C000019999999N0000001N9-01391+99999999999ADDGF108991999999999999999999
0029227070999991905020513004+62167+030650FM-12+010299999V0209991C000019999999N0000001N9-01171+99999999999ADDGF108991999999999999999999
0029227070999991905020520004+62167+030650FM-12+010299999V0209991C000019999999N0000001N9-01221+99999999999ADDGF108991999999999999999999
0029227070999991905020606004+62167+030650FM-12+010299999V0201401N009819999999N0000001N9-00671+99999999999ADDGF108991999999999999999999
0029227070999991905020613004+62167+030650FM-12+010299999V0201801N004119999999N0000001N9-00061+99999999999ADDGF108991999999999999999999
0029227070999991905020620004+62167+030650FM-12+010299999V0201801N002119999999N0000001N9+00111+99999999999ADDGF100991999999999999999999
0029227070999991905020706004+62167+030650FM-12+010299999V0202501N004119999999N0000001N9+00001+99999999999ADDGF108991999999999999999999
0029227070999991905020713004+62167+030650FM-12+010299999V0202701N005119999999N0000001N9-00061+99999999999ADDGF106991999999999999999999
0029227070999991905020720004+62167+030650FM-12+010299999V0203201N004119999999N0000001N9-01061+99999999999ADDGF100991999999999999999999
0029227070999991905020806004+62167+030650FM-12+010299999V0209991C000019999999N0000001N9-02221+99999999999ADDGF108991999999999999999999
0029227070999991905020813004+62167+030650FM-12+010299999V0209991C000019999999N0000001N9-01221+99999999999ADDGF106991999999999999999999
0029227070999991905020820004+62167+030650FM-12+010299999V0209991C000019999999N0000001N9-02331+99999999999ADDGF100991999999999999999999
0029227070999991905020906004+62167+030650FM-12+010299999V0209991C000019999999N0000001N9-01781+99999999999ADDGF108991999999999999999999
0029227070999991905020913004+62167+030650FM-12+010299999V0202001N004119999999N0000001N9-00781+99999999999ADDGF108991999999999999999999
0029227070999991905020920004+62167+030650FM-12+010299999V0209991C000019999999N0000001N9-00331+99999999999ADDGF108991999999999999999999
0029227070999991905021006004+62167+030650FM-12+010299999V0202301N002119999999N0000001N9-00111+99999999999ADDGF108991999999999999999999
0029227070999991905021013004+62167+030650FM-12+010299999V0201801N004119999999N0000001N9+00061+99999999999ADDGF108991999999999999999999
0029227070999991905021020004+62167+030650FM-12+010299999V0202001N006219999999N0000001N9+00111+99999999999ADDGF108991999999999999999999
0029227070999991905021106004+62167+030650FM-12+010299999V0201801N002119999999N0000001N9-00281+99999999999ADDGF108991999999999999999999
0029227070999991905021113004+62167+030650FM-12+010299999V0201801N004119999999N0000001N9-00281+99999999999ADDGF108991999999999999999999
0029227070999991905021120004+62167+030650FM-12+010299999V0209991C000019999999N0000001N9-00441+99999999999ADDGF108991999999999999999999
0029227070999991905021206004+62167+030650FM-12+010299999V0203201N002119999999N0000001N9-01171+99999999999ADDGF106991999999999999999999
0029227070999991905021213004+62167+030650FM-12+010299999V0203201N002119999999N0000001N9-00831+99999999999ADDGF108991999999999999999999
0029227070999991905021220004+62167+030650FM-12+010299999V0203201N002119999999N0000001N9-01441+99999999999ADDGF105991999999999999999999
0029227070999991905021306004+62167+030650FM-12+010299999V0203201N002119999999N0000001N9-01671+99999999999ADDGF106991999999999999999999
0029227070999991905021313004+62167+030650FM-12+010299999V0203201N002119999999N0000001N9-01111+99999999999ADDGF106991999999999999999999
0029227070999991905021320004+62167+030650FM-12+010299999V0209991C000019999999N0000001N9-01941+99999999999ADDGF106991999999999999999999
0029227070999991905021406004+62167+030650FM-12+010299999V0201101N003119999999N0000001N9-01831+99999999999ADDGF108991999999999999999999
0029227070999991905021413004+62167+030650FM-12+010299999V0201601N005119999999N0000001N9-01001+99999999999ADDGF108991999999999999999999
0029227070999991905021420004+62167+030650FM-12+010299999V0203201N005119999999N0000001N9-01061+99999999999ADDGF108991999999999999999999
0029227070999991905021506004+62167+030650FM-12+010299999V0202701N005119999999N0000001N9-01441+99999999999ADDGF101991999999999999999999
0029227070999991905021513004+62167+030650FM-12+010299999V0202901N004119999999N0000001N9-01111+99999999999ADDGF101991999999999999999999
0029227070999991905021520004+62167+030650FM-12+010299999V0202901N002119999999N0000001N9-01611+99999999999ADDGF100991999999999999999999
0029227070999991905021606004+62167+030650FM-12+010299999V0209991C000019999999N0000001N9-01781+99999999999ADDGF108991999999999999999999
0029227070999991905021613004+62167+030650FM-12+010299999V0201401N002119999999N0000001N9-00891+99999999999ADDGF108991999999999999999999
0029227070999991905021620004+62167+030650FM-12+010299999V0201401N002119999999N0000001N9-00561+99999999999ADDGF108991999999999999999999
0029227070999991905021706004+62167+030650FM-12+010299999V0201101N002119999999N0000001N9-00281+99999999999ADDGF108991999999999999999999
0029227070999991905021713004+62167+030650FM-12+010299999V0201601N002119999999N0000001N9+00171+99999999999ADDGF108991999999999999999999
0029227070999991905021720004+62167+030650FM-12+010299999V0201801N003119999999N0000001N9+00171+99999999999ADDGF108991999999999999999999
0029227070999991905021806004+62167+030650FM-12+010299999V0201401N002119999999N0000001N9+00061+99999999999ADDGF100991999999999999999999
0029227070999991905021813004+62167+030650FM-12+010299999V0202301N004119999999N0000001N9+00221+99999999999ADDGF100991999999999999999999
0029227070999991905021820004+62167+030650FM-12+010299999V0202001N002119999999N0000001N9-00061+99999999999ADDGF108991999999999999999999
0029227070999991905021906004+62167+030650FM-12+010299999V0202901N004119999999N0000001N9+00061+99999999999ADDGF108991999999999999999999
0029227070999991905021913004+62167+030650FM-12+010299999V0201601N005119999999N0000001N9+00061+99999999999ADDGF108991999999999999999999
0029227070999991905021920004+62167+030650FM-12+010299999V0201601N005119999999N0000001N9+00111+99999999999ADDGF108991999999999999999999
0029227070999991905022006004+62167+030650FM-12+010299999V0202701N001019999999N0000001N9+00061+99999999999ADDGF108991999999999999999999
0029227070999991905022013004+62167+030650FM-12+010299999V0209991C000019999999N0000001N9+00171+99999999999ADDGF108991999999999999999999
0029227070999991905022020004+62167+030650FM-12+010299999V0209991C000019999999N0000001N9+00111+99999999999ADDGF100991999999999999999999
0029227070999991905022106004+62167+030650FM-12+010299999V0203401N001019999999N0000001N9+00061+99999999999ADDGF108991999999999999999999
0029227070999991905022113004+62167+030650FM-12+010299999V0203401N002119999999N0000001N9-00171+99999999999ADDGF108991999999999999999999
0029227070999991905022120004+62167+030650FM-12+010299999V0203401N001019999999N0000001N9-00781+99999999999ADDGF100991999999999999999999
0029227070999991905022206004+62167+030650FM-12+010299999V0209991C000019999999N0000001N9-01891+99999999999ADDGF100991999999999999999999
0029227070999991905022213004+62167+030650FM-12+010299999V0209991C000019999999N0000001N9-00221+99999999999ADDGF100991999999999999999999
0029227070999991905022220004+62167+030650FM-12+010299999V0209991C000019999999N0000001N9-00501+99999999999ADDGF100991999999999999999999
0029227070999991905022306004+62167+030650FM-12+010299999V0209991C000019999999N0000001N9-00781+99999999999ADDGF100991999999999999999999
0029227070999991905022313004+62167+030650FM-12+010299999V0209991C000019999999N0000001N9+00061+99999999999ADDGF100991999999999999999999
0029227070999991905022320004+62167+030650FM-12+010299999V0209991C000019999999N0000001N9-00611+99999999999ADDGF108991999999999999999999
0029227070999991905022406004+62167+030650FM-12+010299999V0209991C000019999999N0000001N9-01501+99999999999ADDGF108991999999999999999999
0029227070999991905022413004+62167+030650FM-12+010299999V0209991C000019999999N0000001N9-00391+99999999999ADDGF108991999999999999999999
0029227070999991905022420004+62167+030650FM-12+010299999V0209991C000019999999N0000001N9-00501+99999999999ADDGF108991999999999999999999
0029227070999991905022506004+62167+030650FM-12+010299999V0201801N003119999999N0000001N9-00671+99999999999ADDGF108991999999999999999999
0029227070999991905022513004+62167+030650FM-12+010299999V0201401N004119999999N0000001N9-00611+99999999999ADDGF108991999999999999999999
0029227070999991905022520004+62167+030650FM-12+010299999V0201401N004119999999N0000001N9-00671+99999999999ADDGF108991999999999999999999
0029227070999991905022606004+62167+030650FM-12+010299999V0201101N002119999999N0000001N9-00281+99999999999ADDGF108991999999999999999999
0029227070999991905022613004+62167+030650FM-12+010299999V0201601N003119999999N0000001N9-00111+99999999999ADDGF108991999999999999999999
0029227070999991905022620004+62167+030650FM-12+010299999V0209991C000019999999N0000001N9-00171+99999999999ADDGF108991999999999999999999
0029227070999991905022706004+62167+030650FM-12+010299999V0201401N001019999999N0000001N9-00061+99999999999ADDGF108991999999999999999999
0029227070999991905022713004+62167+030650FM-12+010299999V0209991C000019999999N0000001N9+00111+99999999999ADDGF108991999999999999999999
0029227070999991905022720004+62167+030650FM-12+010299999V0201401N004119999999N0000001N9-00111+99999999999ADDGF108991999999999999999999
0029227070999991905022806004+62167+030650FM-12+010299999V0201401N006219999999N0000001N9-00501+99999999999ADDGF108991999999999999999999
0029227070999991905022813004+62167+030650FM-12+010299999V0201401N015919999999N0000001N9-00831+99999999999ADDGF108991999999999999999999
0029227070999991905022820004+62167+030650FM-12+010299999V0200901N015919999999N0000001N9-00891+99999999999ADDGF108991999999999999999999
0029227070999991905030106004+62167+030650FM-12+010299999V0201401N006219999999N0000001N9-00561+99999999999ADDGF108991999999999999999999
0029227070999991905030113004+62167+030650FM-12+010299999V0201401N004119999999N0000001N9-00221+99999999999ADDGF108991999999999999999999
0029227070999991905030120004+62167+030650FM-12+010299999V0201401N002119999999N0000001N9-00221+99999999999ADDGF108991999999999999999999
0029227070999991905030206004+62167+030650FM-12+010299999V0201401N001019999999N0000001N9-00171+99999999999ADDGF108991999999999999999999
0029227070999991905030213004+62167+030650FM-12+010299999V0209991C000019999999N0000001N9-00171+99999999999ADDGF108991999999999999999999
0029227070999991905030220004+62167+030650FM-12+010299999V0209991C000019999999N0000001N9-00331+99999999999ADDGF108991999999999999999999
0029227070999991905030306004+62167+030650FM-12+010299999V0202301N001019999999N0000001N9-00331+99999999999ADDGF108991999999999999999999
0029227070999991905030313004+62167+030650FM-12+010299999V0209991C000019999999N0000001N9+00171+99999999999ADDGF108991999999999999999999
0029227070999991905030320004+62167+030650FM-12+010299999V0201801N004119999999N0000001N9-00171+99999999999ADDGF108991999999999999999999
0029227070999991905030406004+62167+030650FM-12+010299999V0201801N002119999999N0000001N9-00391+99999999999ADDGF104991999999999999999999
0029227070999991905030413004+62167+030650FM-12+010299999V0201801N002119999999N0000001N9-00111+99999999999ADDGF108991999999999999999999
0029227070999991905030420004+62167+030650FM-12+010299999V0209991C000019999999N0000001N9-00171+99999999999ADDGF108991999999999999999999
0029227070999991905030506004+62167+030650FM-12+010299999V0201601N006219999999N0000001N9-00171+99999999999ADDGF108991999999999999999999
0029227070999991905030513004+62167+030650FM-12+010299999V0201601N002119999999N0000001N9-00171+99999999999ADDGF108991999999999999999999
0029227070999991905030520004+62167+030650FM-12+010299999V0201601N004119999999N0000001N9-00221+99999999999ADDGF108991999999999999999999
0029227070999991905030606004+62167+030650FM-12+010299999V0201601N004119999999N0000001N9-00221+99999999999ADDGF104991999999999999999999
0029227070999991905030613004+62167+030650FM-12+010299999V0200901N015919999999N0000001N9-00221+99999999999ADDGF108991999999999999999999
0029227070999991905030620004+62167+030650FM-12+010299999V0200901N011819999999N0000001N9+00561+99999999999ADDGF100991999999999999999999
0029227070999991905030706004+62167+030650FM-12+010299999V0200901N004119999999N0000001N9-00671+99999999999ADDGF108991999999999999999999
0029227070999991905030713004+62167+030650FM-12+010299999V0200701N002119999999N0000001N9-02001+99999999999ADDGF108991999999999999999999
0029227070999991905030720004+62167+030650FM-12+010299999V0200701N002119999999N0000001N9-02001+99999999999ADDGF108991999999999999999999
0029227070999991905030806004+62167+030650FM-12+010299999V0200501N002119999999N0000001N9-01061+99999999999ADDGF108991999999999999999999
0029227070999991905030813004+62167+030650FM-12+010299999V0200501N004119999999N0000001N9-00941+99999999999ADDGF108991999999999999999999
0029227070999991905030820004+62167+030650FM-12+010299999V0200501N004119999999N0000001N9-00941+99999999999ADDGF108991999999999999999999
0029227070999991905030906004+62167+030650FM-12+010299999V0200501N001019999999N0000001N9-01941+99999999999ADDGF100991999999999999999999
0029227070999991905030913004+62167+030650FM-12+010299999V0200701N002119999999N0000001N9-00891+99999999999ADDGF108991999999999999999999
0029227070999991905030920004+62167+030650FM-12+010299999V0209991C000019999999N0000001N9-01441+99999999999ADDGF100991999999999999999999
0029227070999991905031006004+62167+030650FM-12+010299999V0209991C000019999999N0000001N9-01281+99999999999ADDGF108991999999999999999999
0029227070999991905031013004+62167+030650FM-12+010299999V0209991C000019999999N0000001N9+00671+99999999999ADDGF108991999999999999999999
0029227070999991905031020004+62167+030650FM-12+010299999V0209991C000019999999N0000001N9-00281+99999999999ADDGF108991999999999999999999
0029227070999991905031106004+62167+030650FM-12+010299999V0200901N002119999999N0000001N9+00061+99999999999ADDGF108991999999999999999999
0029227070999991905031113004+62167+030650FM-12+010299999V0200901N009819999999N0000001N9+00061+99999999999ADDGF108991999999999999999999
0029227070999991905031120004+62167+030650FM-12+010299999V0201401N015919999999N0000001N9+00061+99999999999ADDGF108991999999999999999999
0029227070999991905031206004+62167+030650FM-12+010299999V0201601N006219999999N0000001N9+00061+99999999999ADDGF108991999999999999999999
0029227070999991905031213004+62167+030650FM-12+010299999V0201601N007219999999N0000001N9+00111+99999999999ADDGF108991999999999999999999
0029227070999991905031220004+62167+030650FM-12+010299999V0201601N006219999999N0000001N9+00281+99999999999ADDGF108991999999999999999999
0029227070999991905031306004+62167+030650FM-12+010299999V0209991C000019999999N0000001N9+00221+99999999999ADDGF108991999999999999999999
0029227070999991905031313004+62167+030650FM-12+010299999V0209991C000019999999N0000001N9+00281+99999999999ADDGF108991999999999999999999
0029227070999991905031320004+62167+030650FM-12+010299999V0209991C000019999999N0000001N9+00061+99999999999ADDGF108991999999999999999999
0029227070999991905031406004+62167+030650FM-12+010299999V0209991C000019999999N0000001N9+00061+99999999999ADDGF108991999999999999999999
0029227070999991905031413004+62167+030650FM-12+010299999V0209991C000019999999N0000001N9+00171+99999999999ADDGF108991999999999999999999
0029227070999991905031420004+62167+030650FM-12+010299999V0209991C000019999999N0000001N9+00171+99999999999ADDGF108991999999999999999999
0029227070999991905031506004+62167+030650FM-12+010299999V0209991C000019999999N0000001N9+00061+99999999999ADDGF101991999999999999999999
0029227070999991905031513004+62167+030650FM-12+010299999V0209991C000019999999N0000001N9+00171+99999999999ADDGF108991999999999999999999
0029227070999991905031520004+62167+030650FM-12+010299999V0209991C000019999999N0000001N9-00111+99999999999ADDGF108991999999999999999999
0029227070999991905031606004+62167+030650FM-12+010299999V0201601N002119999999N0000001N9-00391+99999999999ADDGF100991999999999999999999
0029227070999991905031613004+62167+030650FM-12+010299999V0201801N002119999999N0000001N9-00111+99999999999ADDGF108991999999999999999999
0029227070999991905031620004+62167+030650FM-12+010299999V0209991C000019999999N0000001N9-00501+99999999999ADDGF100991999999999999999999
0029227070999991905031706004+62167+030650FM-12+010299999V0201401N002119999999N0000001N9-01001+99999999999ADDGF100991999999999999999999
0029227070999991905031713004+62167+030650FM-12+010299999V0201101N001019999999N0000001N9+00221+99999999999ADDGF100991999999999999999999
0029227070999991905031720004+62167+030650FM-12+010299999V0209991C000019999999N0000001N9-00721+99999999999ADDGF100991999999999999999999
0029227070999991905031806004+62167+030650FM-12+010299999V0209991C000019999999N0000001N9-01671+99999999999ADDGF100991999999999999999999
0029227070999991905031813004+62167+030650FM-12+010299999V0209991C000019999999N0000001N9+00061+99999999999ADDGF100991999999999999999999
0029227070999991905031820004+62167+030650FM-12+010299999V0209991C000019999999N0000001N9-00671+99999999999ADDGF108991999999999999999999
0029227070999991905031906004+62167+030650FM-12+010299999V0209991C000019999999N0000001N9-01671+99999999999ADDGF100991999999999999999999
0029227070999991905031913004+62167+030650FM-12+010299999V0201401N002119999999N0000001N9+00331+99999999999ADDGF100991999999999999999999
0029227070999991905031920004+62167+030650FM-12+010299999V0209991C000019999999N0000001N9-00721+99999999999ADDGF104991999999999999999999
0029227070999991905032006004+62167+030650FM-12+010299999V0209991C000019999999N0000001N9-00781+99999999999ADDGF108991999999999999999999
0029227070999991905032013004+62167+030650FM-12+010299999V0209991C000019999999N0000001N9+00001+99999999999ADDGF102991999999999999999999
0029227070999991905032020004+62167+030650FM-12+010299999V0209991C000019999999N0000001N9-00441+99999999999ADDGF100991999999999999999999
0029227070999991905032106004+62167+030650FM-12+010299999V0209991C000019999999N0000001N9-01061+99999999999ADDGF107991999999999999999999
0029227070999991905032113004+62167+030650FM-12+010299999V0209991C000019999999N0000001N9+00061+99999999999ADDGF108991999999999999999999
0029227070999991905032120004+62167+030650FM-12+010299999V0209991C000019999999N0000001N9-00281+99999999999ADDGF107991999999999999999999
0029227070999991905032206004+62167+030650FM-12+010299999V0209991C000019999999N0000001N9-00331+99999999999ADDGF106991999999999999999999
0029227070999991905032213004+62167+030650FM-12+010299999V0203601N002119999999N0000001N9+00171+99999999999ADDGF108991999999999999999999
0029227070999991905032220004+62167+030650FM-12+010299999V0209991C000019999999N0000001N9-00061+99999999999ADDGF108991999999999999999999
0029227070999991905032306004+62167+030650FM-12+010299999V0209991C000019999999N0000001N9-00721+99999999999ADDGF108991999999999999999999
0029227070999991905032313004+62167+030650FM-12+010299999V0200201N004119999999N0000001N9+00061+99999999999ADDGF102991999999999999999999
0029227070999991905032320004+62167+030650FM-12+010299999V0209991C000019999999N0000001N9-00441+99999999999ADDGF100991999999999999999999
0029227070999991905032406004+62167+030650FM-12+010299999V0209991C000019999999N0000001N9-01221+99999999999ADDGF104991999999999999999999
0029227070999991905032413004+62167+030650FM-12+010299999V0200201N002119999999N0000001N9-00061+99999999999ADDGF108991999999999999999999
0029227070999991905032420004+62167+030650FM-12+010299999V0200201N004119999999N0000001N9-00221+99999999999ADDGF108991999999999999999999
0029227070999991905032506004+62167+030650FM-12+010299999V0200201N004119999999N0000001N9-00391+99999999999ADDGF108991999999999999999999
0029227070999991905032513004+62167+030650FM-12+010299999V0202001N006219999999N0000001N9-00111+99999999999ADDGF106991999999999999999999
0029227070999991905032520004+62167+030650FM-12+010299999V0200901N006219999999N0000001N9-00331+99999999999ADDGF108991999999999999999999
0029227070999991905032606004+62167+030650FM-12+010299999V0201401N004119999999N0000001N9-00391+99999999999ADDGF108991999999999999999999
0029227070999991905032613004+62167+030650FM-12+010299999V0201401N004119999999N0000001N9+00281+99999999999ADDGF106991999999999999999999
0029227070999991905032620004+62167+030650FM-12+010299999V0200901N006219999999N0000001N9-00061+99999999999ADDGF108991999999999999999999
0029227070999991905032706004+62167+030650FM-12+010299999V0201101N004119999999N0000001N9-00221+99999999999ADDGF100991999999999999999999
0029227070999991905032713004+62167+030650FM-12+010299999V0201801N004119999999N0000001N9+00001+99999999999ADDGF108991999999999999999999
0029227070999991905032720004+62167+030650FM-12+010299999V0209991C000019999999N0000001N9-00061+99999999999ADDGF108991999999999999999999
0029227070999991905032806004+62167+030650FM-12+010299999V0209991C000019999999N0000001N9-00061+99999999999ADDGF108991999999999999999999
0029227070999991905032813004+62167+030650FM-12+010299999V0209991C000019999999N0000001N9+00061+99999999999ADDGF108991999999999999999999
0029227070999991905032820004+62167+030650FM-12+010299999V0209991C000019999999N0000001N9-00061+99999999999ADDGF108991999999999999999999
0029227070999991905032906004+62167+030650FM-12+010299999V0209991C000019999999N0000001N9-00781+99999999999ADDGF108991999999999999999999
0029227070999991905032913004+62167+030650FM-12+010299999V0201601N002119999999N0000001N9+00391+99999999999ADDGF100991999999999999999999
0029227070999991905032920004+62167+030650FM-12+010299999V0201401N002119999999N0000001N9-00221+99999999999ADDGF108991999999999999999999
0029227070999991905033006004+62167+030650FM-12+010299999V0201601N004119999999N0000001N9-00281+99999999999ADDGF108991999999999999999999
0029227070999991905033013004+62167+030650FM-12+010299999V0201601N003119999999N0000001N9+00111+99999999999ADDGF108991999999999999999999
0029227070999991905033020004+62167+030650FM-12+010299999V0209991C000019999999N0000001N9+00001+99999999999ADDGF108991999999999999999999
0029227070999991905033106004+62167+030650FM-12+010299999V0209991C000019999999N0000001N9-00111+99999999999ADDGF108991999999999999999999
0029227070999991905033113004+62167+030650FM-12+010299999V0209991C000019999999N0000001N9+00221+99999999999ADDGF108991999999999999999999
0029227070999991905033120004+62167+030650FM-12+010299999V0209991C000019999999N0000001N9+00061+99999999999ADDGF108991999999999999999999
0029227070999991905040106004+62167+030650FM-12+010299999V0209991C000019999999N0000001N9-00111+99999999999ADDGF108991999999999999999999
0029227070999991905040113004+62167+030650FM-12+010299999V0209991C000019999999N0000001N9+00001+99999999999ADDGF106991999999999999999999
0029227070999991905040120004+62167+030650FM-12+010299999V0209991C000019999999N0000001N9-00221+99999999999ADDGF104991999999999999999999
0029227070999991905040206004+62167+030650FM-12+010299999V0200501N002119999999N0000001N9-00721+99999999999ADDGF108991999999999999999999
0029227070999991905040213004+62167+030650FM-12+010299999V0200501N001019999999N0000001N9+00001+99999999999ADDGF108991999999999999999999
0029227070999991905040220004+62167+030650FM-12+010299999V0209991C000019999999N0000001N9-00281+99999999999ADDGF108991999999999999999999
0029227070999991905040306004+62167+030650FM-12+010299999V0200501N002119999999N0000001N9-00891+99999999999ADDGF100991999999999999999999
0029227070999991905040313004+62167+030650FM-12+010299999V0209991C000019999999N0000001N9+00171+99999999999ADDGF100991999999999999999999
0029227070999991905040320004+62167+030650FM-12+010299999V0209991C000019999999N0000001N9-00611+99999999999ADDGF100991999999999999999999
0029227070999991905040406004+62167+030650FM-12+010299999V0209991C000019999999N0000001N9-01331+99999999999ADDGF100991999999999999999999
0029227070999991905040413004+62167+030650FM-12+010299999V0209991C000019999999N0000001N9+00171+99999999999ADDGF100991999999999999999999
0029227070999991905040420004+62167+030650FM-12+010299999V0209991C000019999999N0000001N9-00171+99999999999ADDGF100991999999999999999999
0029227070999991905040506004+62167+030650FM-12+010299999V0209991C000019999999N0000001N9+00171+99999999999ADDGF102991999999999999999999
0029227070999991905040513004+62167+030650FM-12+010299999V0209991C000019999999N0000001N9-00111+99999999999ADDGF104991999999999999999999
0029227070999991905040520004+62167+030650FM-12+010299999V0201601N001019999999N0000001N9-00061+99999999999ADDGF108991999999999999999999
0029227070999991905040606004+62167+030650FM-12+010299999V0201801N008219999999N0000001N9+00061+99999999999ADDGF108991999999999999999999
0029227070999991905040613004+62167+030650FM-12+010299999V0203201N006219999999N0000001N9-00331+99999999999ADDGF104991999999999999999999
0029227070999991905040620004+62167+030650FM-12+010299999V0203601N004119999999N0000001N9-00561+99999999999ADDGF108991999999999999999999
0029227070999991905040706004+62167+030650FM-12+010299999V0203601N008219999999N0000001N9-00831+99999999999ADDGF108991999999999999999999
0029227070999991905040713004+62167+030650FM-12+010299999V0203601N006219999999N0000001N9-00501+99999999999ADDGF108991999999999999999999
0029227070999991905040720004+62167+030650FM-12+010299999V0200201N002119999999N0000001N9-00501+99999999999ADDGF108991999999999999999999
0029227070999991905040806004+62167+030650FM-12+010299999V0201601N015919999999N0000001N9-00501+99999999999ADDGF108991999999999999999999
0029227070999991905040813004+62167+030650FM-12+010299999V0201801N006219999999N0000001N9-00281+99999999999ADDGF108991999999999999999999
0029227070999991905040820004+62167+030650FM-12+010299999V0201801N003119999999N0000001N9-00561+99999999999ADDGF100991999999999999999999
0029227070999991905040906004+62167+030650FM-12+010299999V0201101N001019999999N0000001N9-00781+99999999999ADDGF100991999999999999999999
0029227070999991905040913004+62167+030650FM-12+010299999V0200701N002119999999N0000001N9-00111+99999999999ADDGF108991999999999999999999
0029227070999991905040920004+62167+030650FM-12+010299999V0201101N009819999999N0000001N9-00061+99999999999ADDGF108991999999999999999999
0029227070999991905041006004+62167+030650FM-12+010299999V0201401N002119999999N0000001N9-00171+99999999999ADDGF108991999999999999999999
0029227070999991905041013004+62167+030650FM-12+010299999V0209991C000019999999N0000001N9+00171+99999999999ADDGF106991999999999999999999
0029227070999991905041020004+62167+030650FM-12+010299999V0209991C000019999999N0000001N9+00061+99999999999ADDGF108991999999999999999999
0029227070999991905041106004+62167+030650FM-12+010299999V0200501N002119999999N0000001N9-00501+99999999999ADDGF104991999999999999999999
0029227070999991905041113004+62167+030650FM-12+010299999V0209991C000019999999N0000001N9+00671+99999999999ADDGF100991999999999999999999
0029227070999991905041120004+62167+030650FM-12+010299999V0200901N002119999999N0000001N9+00221+99999999999ADDGF100991999999999999999999
0029227070999991905041206004+62167+030650FM-12+010299999V0200201N002119999999N0000001N9-00831+99999999999ADDGF100991999999999999999999
0029227070999991905041213004+62167+030650FM-12+010299999V0203201N002119999999N0000001N9+00281+99999999999ADDGF100991999999999999999999
0029227070999991905041220004+62167+030650FM-12+010299999V0203201N001019999999N0000001N9+00061+99999999999ADDGF100991999999999999999999
0029227070999991905041306004+62167+030650FM-12+010299999V0203401N001019999999N0000001N9-00611+99999999999ADDGF106991999999999999999999
0029227070999991905041313004+62167+030650FM-12+010299999V0209991C000019999999N0000001N9+00331+99999999999ADDGF108991999999999999999999
0029227070999991905041320004+62167+030650FM-12+010299999V0200201N002119999999N0000001N9+00171+99999999999ADDGF100991999999999999999999
0029227070999991905041406004+62167+030650FM-12+010299999V0200201N002119999999N0000001N9-00061+99999999999ADDGF108991999999999999999999
0029227070999991905041413004+62167+030650FM-12+010299999V0200201N002119999999N0000001N9+00331+99999999999ADDGF108991999999999999999999
0029227070999991905041420004+62167+030650FM-12+010299999V0209991C000019999999N0000001N9+00111+99999999999ADDGF100991999999999999999999
0029227070999991905041506004+62167+030650FM-12+010299999V0200201N001019999999N0000001N9+00111+99999999999ADDGF108991999999999999999999
0029227070999991905041513004+62167+030650FM-12+010299999V0200501N008219999999N0000001N9+00781+99999999999ADDGF100991999999999999999999
0029227070999991905041520004+62167+030650FM-12+010299999V0200501N004119999999N0000001N9+00281+99999999999ADDGF100991999999999999999999
0029227070999991905041606004+62167+030650FM-12+010299999V0200501N002119999999N0000001N9+00221+99999999999ADDGF100991999999999999999999
0029227070999991905041613004+62167+030650FM-12+010299999V0200501N002119999999N0000001N9+00831+99999999999ADDGF100991999999999999999999
0029227070999991905041620004+62167+030650FM-12+010299999V0200901N006219999999N0000001N9+00331+99999999999ADDGF100991999999999999999999
0029227070999991905041706004+62167+030650FM-12+010299999V0200901N004119999999N0000001N9+00281+99999999999ADDGF100991999999999999999999
0029227070999991905041713004+62167+030650FM-12+010299999V0200901N002119999999N0000001N9+00781+99999999999ADDGF102991999999999999999999
0029227070999991905041720004+62167+030650FM-12+010299999V0200501N001019999999N0000001N9+00501+99999999999ADDGF104991999999999999999999
0029227070999991905041806004+62167+030650FM-12+010299999V0200201N006219999999N0000001N9+00391+99999999999ADDGF103991999999999999999999
0029227070999991905041813004+62167+030650FM-12+010299999V0200501N004119999999N0000001N9+00781+99999999999ADDGF108991999999999999999999
0029227070999991905041820004+62167+030650FM-12+010299999V0209991C000019999999N0000001N9+00391+99999999999ADDGF104991999999999999999999
0029227070999991905041906004+62167+030650FM-12+010299999V0201401N002119999999N0000001N9+00281+99999999999ADDGF108991999999999999999999
0029227070999991905041913004+62167+030650FM-12+010299999V0201401N003119999999N0000001N9+00611+99999999999ADDGF102991999999999999999999
0029227070999991905041920004+62167+030650FM-12+010299999V0201601N002119999999N0000001N9+00331+99999999999ADDGF102991999999999999999999
0029227070999991905042006004+62167+030650FM-12+010299999V0209991C000019999999N0000001N9+00281+99999999999ADDGF105991999999999999999999
0029227070999991905042013004+62167+030650FM-12+010299999V0201401N002119999999N0000001N9+00561+99999999999ADDGF106991999999999999999999
0029227070999991905042020004+62167+030650FM-12+010299999V0209991C000019999999N0000001N9+00221+99999999999ADDGF108991999999999999999999
0029227070999991905042106004+62167+030650FM-12+010299999V0200901N002119999999N0000001N9+00391+99999999999ADDGF108991999999999999999999
0029227070999991905042113004+62167+030650FM-12+010299999V0209991C000019999999N0000001N9+00781+99999999999ADDGF108991999999999999999999
0029227070999991905042120004+62167+030650FM-12+010299999V0201101N004119999999N0000001N9+00331+99999999999ADDGF108991999999999999999999
0029227070999991905042206004+62167+030650FM-12+010299999V0201601N003119999999N0000001N9+00221+99999999999ADDGF108991999999999999999999
0029227070999991905042213004+62167+030650FM-12+010299999V0200901N006219999999N0000001N9+00671+99999999999ADDGF108991999999999999999999
0029227070999991905042220004+62167+030650FM-12+010299999V0201401N004119999999N0000001N9+00561+99999999999ADDGF108991999999999999999999
0029227070999991905042306004+62167+030650FM-12+010299999V0201401N004119999999N0000001N9+00391+99999999999ADDGF108991999999999999999999
0029227070999991905042313004+62167+030650FM-12+010299999V0201401N002119999999N0000001N9+00391+99999999999ADDGF108991999999999999999999
0029227070999991905042320004+62167+030650FM-12+010299999V0201401N002119999999N0000001N9+00061+99999999999ADDGF108991999999999999999999
0029227070999991905042406004+62167+030650FM-12+010299999V0200501N003119999999N0000001N9+00061+99999999999ADDGF108991999999999999999999
0029227070999991905042413004+62167+030650FM-12+010299999V0200501N004119999999N0000001N9+00391+99999999999ADDGF102991999999999999999999
0029227070999991905042420004+62167+030650FM-12+010299999V0209991C000019999999N0000001N9+00001+99999999999ADDGF104991999999999999999999
0029227070999991905042506004+62167+030650FM-12+010299999V0201801N002119999999N0000001N9+00111+99999999999ADDGF100991999999999999999999
0029227070999991905042513004+62167+030650FM-12+010299999V0201101N002119999999N0000001N9+00501+99999999999ADDGF106991999999999999999999
0029227070999991905042520004+62167+030650FM-12+010299999V0201401N004119999999N0000001N9+00171+99999999999ADDGF108991999999999999999999
0029227070999991905042606004+62167+030650FM-12+010299999V0201601N006219999999N0000001N9+00221+99999999999ADDGF108991999999999999999999
0029227070999991905042613004+62167+030650FM-12+010299999V0201401N002119999999N0000001N9+00721+99999999999ADDGF100991999999999999999999
0029227070999991905042620004+62167+030650FM-12+010299999V0201401N002119999999N0000001N9+00281+99999999999ADDGF108991999999999999999999
0029227070999991905042706004+62167+030650FM-12+010299999V0201601N004119999999N0000001N9+00281+99999999999ADDGF104991999999999999999999
0029227070999991905042713004+62167+030650FM-12+010299999V0201401N002119999999N0000001N9+00721+99999999999ADDGF108991999999999999999999
0029227070999991905042720004+62167+030650FM-12+010299999V0201401N002119999999N0000001N9+00391+99999999999ADDGF106991999999999999999999
0029227070999991905042806004+62167+030650FM-12+010299999V0209991C000019999999N0000001N9+00391+99999999999ADDGF104991999999999999999999
0029227070999991905042813004+62167+030650FM-12+010299999V0209991C000019999999N0000001N9+01001+99999999999ADDGF101991999999999999999999
0029227070999991905042820004+62167+030650FM-12+010299999V0209991C000019999999N0000001N9+00501+99999999999ADDGF105991999999999999999999
0029227070999991905042906004+62167+030650FM-12+010299999V0209991C000019999999N0000001N9+00391+99999999999ADDGF108991999999999999999999
0029227070999991905042913004+62167+030650FM-12+010299999V0201401N004119999999N0000001N9+01331+99999999999ADDGF100991999999999999999999
0029227070999991905042920004+62167+030650FM-12+010299999V0209991C000019999999N0000001N9+00501+99999999999ADDGF100991999999999999999999
0029227070999991905043006004+62167+030650FM-12+010299999V0201101N004119999999N0000001N9+00671+99999999999ADDGF105991999999999999999999
0029227070999991905043013004+62167+030650FM-12+010299999V0201801N004119999999N0000001N9+00891+99999999999ADDGF108991999999999999999999
0029227070999991905043020004+62167+030650FM-12+010299999V0201801N002119999999N0000001N9+00441+99999999999ADDGF108991999999999999999999
0029227070999991905050106004+62167+030650FM-12+010299999V0201401N004119999999N0000001N9+00391+99999999999ADDGF108991999999999999999999
0029227070999991905050113004+62167+030650FM-12+010299999V0201401N002119999999N0000001N9+01001+99999999999ADDGF102991999999999999999999
0029227070999991905050120004+62167+030650FM-12+010299999V0209991C000019999999N0000001N9+00721+99999999999ADDGF102991999999999999999999
0029227070999991905050206004+62167+030650FM-12+010299999V0201101N002119999999N0000001N9+00611+99999999999ADDGF108991999999999999999999
0029227070999991905050213004+62167+030650FM-12+010299999V0201101N001019999999N0000001N9+01501+99999999999ADDGF100991999999999999999999
0029227070999991905050220004+62167+030650FM-12+010299999V0202301N002119999999N0000001N9+00721+99999999999ADDGF104991999999999999999999
0029227070999991905050306004+62167+030650FM-12+010299999V0209991C000019999999N0000001N9+00781+99999999999ADDGF108991999999999999999999
0029227070999991905050313004+62167+030650FM-12+010299999V0201601N003119999999N0000001N9+01611+99999999999ADDGF104991999999999999999999
0029227070999991905050320004+62167+030650FM-12+010299999V0209991C000019999999N0000001N9+01001+99999999999ADDGF106991999999999999999999
0029227070999991905050406004+62167+030650FM-12+010299999V0200501N001019999999N0000001N9+00721+99999999999ADDGF108991999999999999999999
0029227070999991905050413004+62167+030650FM-12+010299999V0200501N006219999999N0000001N9+01671+99999999999ADDGF105991999999999999999999
0029227070999991905050420004+62167+030650FM-12+010299999V0202001N002119999999N0000001N9+01001+99999999999ADDGF108991999999999999999999
0029227070999991905050506004+62167+030650FM-12+010299999V0202701N003119999999N0000001N9+00891+99999999999ADDGF108991999999999999999999
0029227070999991905050513004+62167+030650FM-12+010299999V0202901N002119999999N0000001N9+01561+99999999999ADDGF106991999999999999999999
0029227070999991905050520004+62167+030650FM-12+010299999V0202901N002119999999N0000001N9+00441+99999999999ADDGF108991999999999999999999
0029227070999991905050606004+62167+030650FM-12+010299999V0202301N003119999999N0000001N9+00501+99999999999ADDGF108991999999999999999999
0029227070999991905050613004+62167+030650FM-12+010299999V0202301N002119999999N0000001N9+00941+99999999999ADDGF106991999999999999999999
0029227070999991905050620004+62167+030650FM-12+010299999V0202001N002119999999N0000001N9+00331+99999999999ADDGF108991999999999999999999
0029227070999991905050706004+62167+030650FM-12+010299999V0202901N001019999999N0000001N9+00391+99999999999ADDGF104991999999999999999999
0029227070999991905050713004+62167+030650FM-12+010299999V0202901N002119999999N0000001N9+01001+99999999999ADDGF104991999999999999999999
0029227070999991905050720004+62167+030650FM-12+010299999V0209991C000019999999N0000001N9+00501+99999999999ADDGF100991999999999999999999
0029227070999991905050806004+62167+030650FM-12+010299999V0201601N004119999999N0000001N9+00441+99999999999ADDGF108991999999999999999999
0029227070999991905050813004+62167+030650FM-12+010299999V0201401N003119999999N0000001N9+01281+99999999999ADDGF104991999999999999999999
0029227070999991905050820004+62167+030650FM-12+010299999V0201401N002119999999N0000001N9+01171+99999999999ADDGF106991999999999999999999
0029227070999991905050906004+62167+030650FM-12+010299999V0201101N002119999999N0000001N9+00331+99999999999ADDGF106991999999999999999999
0029227070999991905050913004+62167+030650FM-12+010299999V0201101N004119999999N0000001N9+01171+99999999999ADDGF102991999999999999999999
0029227070999991905050920004+62167+030650FM-12+010299999V0201101N004119999999N0000001N9+00831+99999999999ADDGF101991999999999999999999
0029227070999991905051006004+62167+030650FM-12+010299999V0201101N002119999999N0000001N9+01061+99999999999ADDGF102991999999999999999999
0029227070999991905051013004+62167+030650FM-12+010299999V0201801N002119999999N0000001N9+01561+99999999999ADDGF108991999999999999999999
0029227070999991905051020004+62167+030650FM-12+010299999V0201801N002119999999N0000001N9+00781+99999999999ADDGF103991999999999999999999
0029227070999991905051106004+62167+030650FM-12+010299999V0209991C000019999999N0000001N9+00781+99999999999ADDGF103991999999999999999999
0029227070999991905051113004+62167+030650FM-12+010299999V0202301N002119999999N0000001N9+01501+99999999999ADDGF102991999999999999999999
0029227070999991905051120004+62167+030650FM-12+010299999V0209991C000019999999N0000001N9+00891+99999999999ADDGF102991999999999999999999
0029227070999991905051206004+62167+030650FM-12+010299999V0201101N003119999999N0000001N9+00781+99999999999ADDGF108991999999999999999999
0029227070999991905051213004+62167+030650FM-12+010299999V0201101N002119999999N0000001N9+01441+99999999999ADDGF106991999999999999999999
0029227070999991905051220004+62167+030650FM-12+010299999V0203601N001019999999N0000001N9+00671+99999999999ADDGF105991999999999999999999
0029227070999991905051306004+62167+030650FM-12+010299999V0202901N002119999999N0000001N9+00561+99999999999ADDGF106991999999999999999999
0029227070999991905051313004+62167+030650FM-12+010299999V0202901N004119999999N0000001N9+01331+99999999999ADDGF103991999999999999999999
0029227070999991905051320004+62167+030650FM-12+010299999V0209991C000019999999N0000001N9+00831+99999999999ADDGF108991999999999999999999
0029227070999991905051406004+62167+030650FM-12+010299999V0202301N002119999999N0000001N9+00891+99999999999ADDGF108991999999999999999999
0029227070999991905051413004+62167+030650FM-12+010299999V0202301N002119999999N0000001N9+01781+99999999999ADDGF105991999999999999999999
0029227070999991905051420004+62167+030650FM-12+010299999V0209991C000019999999N0000001N9+00831+99999999999ADDGF105991999999999999999999
0029227070999991905051506004+62167+030650FM-12+010299999V0202001N004119999999N0000001N9+01171+99999999999ADDGF106991999999999999999999
0029227070999991905051513004+62167+030650FM-12+010299999V0209991C000019999999N0000001N9+01831+99999999999ADDGF103991999999999999999999
0029227070999991905051520004+62167+030650FM-12+010299999V0209991C000019999999N0000001N9+00891+99999999999ADDGF100991999999999999999999
0029227070999991905051606004+62167+030650FM-12+010299999V0200701N005119999999N0000001N9+01001+99999999999ADDGF102991999999999999999999
0029227070999991905051613004+62167+030650FM-12+010299999V0200501N005119999999N0000001N9+01721+99999999999ADDGF105991999999999999999999
0029227070999991905051620004+62167+030650FM-12+010299999V0203201N003119999999N0000001N9+00831+99999999999ADDGF101991999999999999999999
0029227070999991905051706004+62167+030650FM-12+010299999V0209991C000019999999N0000001N9+00891+99999999999ADDGF107991999999999999999999
0029227070999991905051713004+62167+030650FM-12+010299999V0209991C000019999999N0000001N9+01561+99999999999ADDGF108991999999999999999999
0029227070999991905051720004+62167+030650FM-12+010299999V0209991C000019999999N0000001N9+00781+99999999999ADDGF101991999999999999999999
0029227070999991905051806004+62167+030650FM-12+010299999V0202701N003119999999N0000001N9+01171+99999999999ADDGF106991999999999999999999
0029227070999991905051813004+62167+030650FM-12+010299999V0202301N008219999999N0000001N9+01671+99999999999ADDGF103991999999999999999999
0029227070999991905051820004+62167+030650FM-12+010299999V0202301N006219999999N0000001N9+00671+99999999999ADDGF103991999999999999999999
0029227070999991905051906004+62167+030650FM-12+010299999V0202301N004119999999N0000001N9+00721+99999999999ADDGF106991999999999999999999
0029227070999991905051913004+62167+030650FM-12+010299999V0202301N006219999999N0000001N9+01501+99999999999ADDGF103991999999999999999999
0029227070999991905051920004+62167+030650FM-12+010299999V0202001N002119999999N0000001N9+00831+99999999999ADDGF103991999999999999999999
0029227070999991905052006004+62167+030650FM-12+010299999V0202901N004119999999N0000001N9+00561+99999999999ADDGF108991999999999999999999
0029227070999991905052013004+62167+030650FM-12+010299999V0203201N008219999999N0000001N9+00781+99999999999ADDGF106991999999999999999999
0029227070999991905052020004+62167+030650FM-12+010299999V0203401N001019999999N0000001N9+00331+99999999999ADDGF100991999999999999999999
0029227070999991905052106004+62167+030650FM-12+010299999V0203401N002119999999N0000001N9+00391+99999999999ADDGF101991999999999999999999
0029227070999991905052113004+62167+030650FM-12+010299999V0203401N002119999999N0000001N9+01331+99999999999ADDGF102991999999999999999999
0029227070999991905052120004+62167+030650FM-12+010299999V0209991C000019999999N0000001N9+00391+99999999999ADDGF101991999999999999999999
0029227070999991905052206004+62167+030650FM-12+010299999V0209991C000019999999N0000001N9+00331+99999999999ADDGF105991999999999999999999
0029227070999991905052213004+62167+030650FM-12+010299999V0203201N002119999999N0000001N9+00831+99999999999ADDGF103991999999999999999999
0029227070999991905052220004+62167+030650FM-12+010299999V0209991C000019999999N0000001N9+00391+99999999999ADDGF101991999999999999999999
0029227070999991905052306004+62167+030650FM-12+010299999V0200901N001019999999N0000001N9+00671+99999999999ADDGF102991999999999999999999
0029227070999991905052313004+62167+030650FM-12+010299999V0201601N001019999999N0000001N9+01111+99999999999ADDGF107991999999999999999999
0029227070999991905052320004+62167+030650FM-12+010299999V0200701N002119999999N0000001N9+00891+99999999999ADDGF105991999999999999999999
0029227070999991905052406004+62167+030650FM-12+010299999V0203401N003119999999N0000001N9+00501+99999999999ADDGF108991999999999999999999
0029227070999991905052413004+62167+030650FM-12+010299999V0203201N002119999999N0000001N9+01391+99999999999ADDGF106991999999999999999999
0029227070999991905052420004+62167+030650FM-12+010299999V0209991C000019999999N0000001N9+00781+99999999999ADDGF103991999999999999999999
0029227070999991905052506004+62167+030650FM-12+010299999V0209991C000019999999N0000001N9+00941+99999999999ADDGF102991999999999999999999
0029227070999991905052513004+62167+030650FM-12+010299999V0209991C000019999999N0000001N9+01781+99999999999ADDGF108991999999999999999999
0029227070999991905052520004+62167+030650FM-12+010299999V0209991C000019999999N0000001N9+00891+99999999999ADDGF108991999999999999999999
0029227070999991905052606004+62167+030650FM-12+010299999V0209991C000019999999N0000001N9+00941+99999999999ADDGF106991999999999999999999
0029227070999991905052613004+62167+030650FM-12+010299999V0202501N004119999999N0000001N9+01501+99999999999ADDGF103991999999999999999999
0029227070999991905052620004+62167+030650FM-12+010299999V0201601N001019999999N0000001N9+00891+99999999999ADDGF100991999999999999999999
0029227070999991905052706004+62167+030650FM-12+010299999V0209991C000019999999N0000001N9+01611+99999999999ADDGF103991999999999999999999
0029227070999991905052713004+62167+030650FM-12+010299999V0202701N004119999999N0000001N9+01611+99999999999ADDGF103991999999999999999999
0029227070999991905052720004+62167+030650FM-12+010299999V0209991C000019999999N0000001N9+01111+99999999999ADDGF100991999999999999999999
0029227070999991905052806004+62167+030650FM-12+010299999V0201601N004119999999N0000001N9+01221+99999999999ADDGF107991999999999999999999
0029227070999991905052813004+62167+030650FM-12+010299999V0201601N004119999999N0000001N9+01671+99999999999ADDGF106991999999999999999999
0029227070999991905052820004+62167+030650FM-12+010299999V0201601N002119999999N0000001N9+01281+99999999999ADDGF106991999999999999999999
0029227070999991905052906004+62167+030650FM-12+010299999V0209991C000019999999N0000001N9+01061+99999999999ADDGF106991999999999999999999
0029227070999991905052913004+62167+030650FM-12+010299999V0202301N004119999999N0000001N9+01721+99999999999ADDGF106991999999999999999999
0029227070999991905052920004+62167+030650FM-12+010299999V0202301N002119999999N0000001N9+00941+99999999999ADDGF105991999999999999999999
0029227070999991905053006004+62167+030650FM-12+010299999V0201601N004119999999N0000001N9+01221+99999999999ADDGF108991999999999999999999
0029227070999991905053013004+62167+030650FM-12+010299999V0201101N004119999999N0000001N9+01221+99999999999ADDGF106991999999999999999999
0029227070999991905053020004+62167+030650FM-12+010299999V0209991C000019999999N0000001N9+01171+99999999999ADDGF102991999999999999999999
0029227070999991905053106004+62167+030650FM-12+010299999V0209991C000019999999N0000001N9+01061+99999999999ADDGF108991999999999999999999
0029227070999991905053113004+62167+030650FM-12+010299999V0202901N015919999999N0000001N9+01831+99999999999ADDGF105991999999999999999999
0029227070999991905053120004+62167+030650FM-12+010299999V0202901N002119999999N0000001N9+01671+99999999999ADDGF103991999999999999999999
0029227070999991905060106004+62167+030650FM-12+010299999V0202501N002119999999N0000001N9+01221+99999999999ADDGF102991999999999999999999
0029227070999991905060113004+62167+030650FM-12+010299999V0202301N004119999999N0000001N9+01501+99999999999ADDGF103991999999999999999999
0029227070999991905060120004+62167+030650FM-12+010299999V0201401N003119999999N0000001N9+01061+99999999999ADDGF102991999999999999999999
0029227070999991905060206004+62167+030650FM-12+010299999V0209991C000019999999N0000001N9+01331+99999999999ADDGF102991999999999999999999
0029227070999991905060213004+62167+030650FM-12+010299999V0209991C000019999999N0000001N9+01941+99999999999ADDGF103991999999999999999999
0029227070999991905060220004+62167+030650FM-12+010299999V0209991C000019999999N0000001N9+01111+99999999999ADDGF101991999999999999999999
0029227070999991905060306004+62167+030650FM-12+010299999V0202901N002119999999N0000001N9+01501+99999999999ADDGF103991999999999999999999
0029227070999991905060313004+62167+030650FM-12+010299999V0202901N002119999999N0000001N9+02001+99999999999ADDGF102991999999999999999999
0029227070999991905060320004+62167+030650FM-12+010299999V0202301N001019999999N0000001N9+01221+99999999999ADDGF102991999999999999999999
0029227070999991905060406004+62167+030650FM-12+010299999V0209991C000019999999N0000001N9+01721+99999999999ADDGF102991999999999999999999
0029227070999991905060413004+62167+030650FM-12+010299999V0202501N001019999999N0000001N9+01891+99999999999ADDGF102991999999999999999999
0029227070999991905060420004+62167+030650FM-12+010299999V0202301N002119999999N0000001N9+01331+99999999999ADDGF102991999999999999999999
0029227070999991905060506004+62167+030650FM-12+010299999V0202501N004119999999N0000001N9+01831+99999999999ADDGF103991999999999999999999
0029227070999991905060513004+62167+030650FM-12+010299999V0209991C000019999999N0000001N9+02391+99999999999ADDGF102991999999999999999999
0029227070999991905060520004+62167+030650FM-12+010299999V0202701N001019999999N0000001N9+01501+99999999999ADDGF103991999999999999999999
0029227070999991905060606004+62167+030650FM-12+010299999V0203201N003119999999N0000001N9+01501+99999999999ADDGF102991999999999999999999
0029227070999991905060613004+62167+030650FM-12+010299999V0203201N002119999999N0000001N9+01891+99999999999ADDGF104991999999999999999999
0029227070999991905060620004+62167+030650FM-12+010299999V0209991C000019999999N0000001N9+01061+99999999999ADDGF102991999999999999999999
0029227070999991905060706004+62167+030650FM-12+010299999V0202501N001019999999N0000001N9+01171+99999999999ADDGF106991999999999999999999
0029227070999991905060713004+62167+030650FM-12+010299999V0209991C000019999999N0000001N9+01501+99999999999ADDGF106991999999999999999999
0029227070999991905060720004+62167+030650FM-12+010299999V0202901N002119999999N0000001N9+00891+99999999999ADDGF103991999999999999999999
0029227070999991905060806004+62167+030650FM-12+010299999V0209991C000019999999N0000001N9+00831+99999999999ADDGF108991999999999999999999
0029227070999991905060813004+62167+030650FM-12+010299999V0201401N004119999999N0000001N9+01391+99999999999ADDGF106991999999999999999999
0029227070999991905060820004+62167+030650FM-12+010299999V0209991C000019999999N0000001N9+00671+99999999999ADDGF106991999999999999999999
0029227070999991905060906004+62167+030650FM-12+010299999V0200501N002119999999N0000001N9+01001+99999999999ADDGF108991999999999999999999
0029227070999991905060913004+62167+030650FM-12+010299999V0200501N002119999999N0000001N9+01501+99999999999ADDGF103991999999999999999999
0029227070999991905060920004+62167+030650FM-12+010299999V0200501N002119999999N0000001N9+00721+99999999999ADDGF105991999999999999999999
0029227070999991905061006004+62167+030650FM-12+010299999V0200201N004119999999N0000001N9+01221+99999999999ADDGF108991999999999999999999
0029227070999991905061013004+62167+030650FM-12+010299999V0201801N008219999999N0000001N9+01331+99999999999ADDGF108991999999999999999999
0029227070999991905061020004+62167+030650FM-12+010299999V0209991C000019999999N0000001N9+00781+99999999999ADDGF105991999999999999999999
0029227070999991905061106004+62167+030650FM-12+010299999V0200501N002119999999N0000001N9+01111+99999999999ADDGF106991999999999999999999
0029227070999991905061113004+62167+030650FM-12+010299999V0200501N004119999999N0000001N9+01941+99999999999ADDGF103991999999999999999999
0029227070999991905061120004+62167+030650FM-12+010299999V0200501N002119999999N0000001N9+00831+99999999999ADDGF103991999999999999999999
0029227070999991905061206004+62167+030650FM-12+010299999V0202501N003119999999N0000001N9+00831+99999999999ADDGF103991999999999999999999
0029227070999991905061213004+62167+030650FM-12+010299999V0202501N001019999999N0000001N9+01501+99999999999ADDGF102991999999999999999999
0029227070999991905061220004+62167+030650FM-12+010299999V0209991C000019999999N0000001N9+01281+99999999999ADDGF102991999999999999999999
0029227070999991905061306004+62167+030650FM-12+010299999V0209991C000019999999N0000001N9+01281+99999999999ADDGF106991999999999999999999
0029227070999991905061313004+62167+030650FM-12+010299999V0202301N002119999999N0000001N9+02171+99999999999ADDGF103991999999999999999999
0029227070999991905061320004+62167+030650FM-12+010299999V0201101N002119999999N0000001N9+01781+99999999999ADDGF103991999999999999999999
0029227070999991905061406004+62167+030650FM-12+010299999V0203201N002119999999N0000001N9+01831+99999999999ADDGF100991999999999999999999
0029227070999991905061413004+62167+030650FM-12+010299999V0201101N002119999999N0000001N9+02281+99999999999ADDGF108991999999999999999999
0029227070999991905061420004+62167+030650FM-12+010299999V0209991C000019999999N0000001N9+01671+99999999999ADDGF105991999999999999999999
0029227070999991905061506004+62167+030650FM-12+010299999V0209991C000019999999N0000001N9+02061+99999999999ADDGF106991999999999999999999
0029227070999991905061513004+62167+030650FM-12+010299999V0209991C000019999999N0000001N9+01941+99999999999ADDGF105991999999999999999999
0029227070999991905061520004+62167+030650FM-12+010299999V0202501N002119999999N0000001N9+01561+99999999999ADDGF103991999999999999999999
0029227070999991905061606004+62167+030650FM-12+010299999V0209991C000019999999N0000001N9+01671+99999999999ADDGF108991999999999999999999
0029227070999991905061613004+62167+030650FM-12+010299999V0209991C000019999999N0000001N9+02171+99999999999ADDGF103991999999999999999999
0029227070999991905061620004+62167+030650FM-12+010299999V0201401N002119999999N0000001N9+01721+99999999999ADDGF105991999999999999999999
0029227070999991905061706004+62167+030650FM-12+010299999V0201601N004119999999N0000001N9+02001+99999999999ADDGF105991999999999999999999
0029227070999991905061713004+62167+030650FM-12+010299999V0201601N002119999999N0000001N9+02391+99999999999ADDGF106991999999999999999999
0029227070999991905061720004+62167+030650FM-12+010299999V0201401N004119999999N0000001N9+01721+99999999999ADDGF102991999999999999999999
0029227070999991905061806004+62167+030650FM-12+010299999V0209991C000019999999N0000001N9+02001+99999999999ADDGF103991999999999999999999
0029227070999991905061813004+62167+030650FM-12+010299999V0202501N002119999999N0000001N9+02671+99999999999ADDGF103991999999999999999999
0029227070999991905061820004+62167+030650FM-12+010299999V0202501N002119999999N0000001N9+02111+99999999999ADDGF103991999999999999999999
0029227070999991905061906004+62167+030650FM-12+010299999V0201801N002119999999N0000001N9+02001+99999999999ADDGF108991999999999999999999
0029227070999991905061913004+62167+030650FM-12+010299999V0209991C000019999999N0000001N9+02561+99999999999ADDGF103991999999999999999999
0029227070999991905061920004+62167+030650FM-12+010299999V0201401N002119999999N0000001N9+02001+99999999999ADDGF108991999999999999999999
0029227070999991905062006004+62167+030650FM-12+010299999V0201101N002119999999N0000001N9+01781+99999999999ADDGF108991999999999999999999
0029227070999991905062013004+62167+030650FM-12+010299999V0201101N002119999999N0000001N9+02561+99999999999ADDGF108991999999999999999999
0029227070999991905062020004+62167+030650FM-12+010299999V0209991C000019999999N0000001N9+01891+99999999999ADDGF106991999999999999999999
0029227070999991905062106004+62167+030650FM-12+010299999V0202501N002119999999N0000001N9+00891+99999999999ADDGF106991999999999999999999
0029227070999991905062113004+62167+030650FM-12+010299999V0202301N001019999999N0000001N9+01561+99999999999ADDGF105991999999999999999999
0029227070999991905062120004+62167+030650FM-12+010299999V0202301N002119999999N0000001N9+00391+99999999999ADDGF102991999999999999999999
0029227070999991905062206004+62167+030650FM-12+010299999V0202301N002119999999N0000001N9+00611+99999999999ADDGF103991999999999999999999
0029227070999991905062213004+62167+030650FM-12+010299999V0209991C000019999999N0000001N9+00831+99999999999ADDGF108991999999999999999999
0029227070999991905062220004+62167+030650FM-12+010299999V0209991C000019999999N0000001N9+00391+99999999999ADDGF105991999999999999999999
0029227070999991905062306004+62167+030650FM-12+010299999V0209991C000019999999N0000001N9+00671+99999999999ADDGF106991999999999999999999
0029227070999991905062313004+62167+030650FM-12+010299999V0202301N004119999999N0000001N9+01111+99999999999ADDGF105991999999999999999999
0029227070999991905062320004+62167+030650FM-12+010299999V0201101N001019999999N0000001N9+00331+99999999999ADDGF103991999999999999999999
0029227070999991905062406004+62167+030650FM-12+010299999V0200901N002119999999N0000001N9+01281+99999999999ADDGF103991999999999999999999
0029227070999991905062413004+62167+030650FM-12+010299999V0209991C000019999999N0000001N9+01561+99999999999ADDGF103991999999999999999999
0029227070999991905062420004+62167+030650FM-12+010299999V0202501N002119999999N0000001N9+01501+99999999999ADDGF106991999999999999999999
0029227070999991905062506004+62167+030650FM-12+010299999V0209991C000019999999N0000001N9+01831+99999999999ADDGF108991999999999999999999
0029227070999991905062513004+62167+030650FM-12+010299999V0202301N002119999999N0000001N9+02171+99999999999ADDGF108991999999999999999999
0029227070999991905062520004+62167+030650FM-12+010299999V0209991C000019999999N0000001N9+01941+99999999999ADDGF106991999999999999999999
0029227070999991905062606004+62167+030650FM-12+010299999V0201101N001019999999N0000001N9+01501+99999999999ADDGF103991999999999999999999
0029227070999991905062613004+62167+030650FM-12+010299999V0201401N004119999999N0000001N9+02721+99999999999ADDGF108991999999999999999999
0029227070999991905062620004+62167+030650FM-12+010299999V0201401N002119999999N0000001N9+01941+99999999999ADDGF100991999999999999999999
0029227070999991905062706004+62167+030650FM-12+010299999V0209991C000019999999N0000001N9+01721+99999999999ADDGF100991999999999999999999
0029227070999991905062713004+62167+030650FM-12+010299999V0209991C000019999999N0000001N9+02111+99999999999ADDGF106991999999999999999999
0029227070999991905062720004+62167+030650FM-12+010299999V0209991C000019999999N0000001N9+01611+99999999999ADDGF100991999999999999999999
0029227070999991905062806004+62167+030650FM-12+010299999V0209991C000019999999N0000001N9+02061+99999999999ADDGF105991999999999999999999
0029227070999991905062813004+62167+030650FM-12+010299999V0202501N003119999999N0000001N9+02831+99999999999ADDGF102991999999999999999999
0029227070999991905062820004+62167+030650FM-12+010299999V0202301N002119999999N0000001N9+01501+99999999999ADDGF103991999999999999999999
0029227070999991905062906004+62167+030650FM-12+010299999V0209991C000019999999N0000001N9+01061+99999999999ADDGF108991999999999999999999
0029227070999991905062913004+62167+030650FM-12+010299999V0202301N004119999999N0000001N9+01721+99999999999ADDGF106991999999999999999999
0029227070999991905062920004+62167+030650FM-12+010299999V0209991C000019999999N0000001N9+01001+99999999999ADDGF106991999999999999999999
0029227070999991905063006004+62167+030650FM-12+010299999V0201801N002119999999N0000001N9+01281+99999999999ADDGF108991999999999999999999
0029227070999991905063013004+62167+030650FM-12+010299999V0201101N001019999999N0000001N9+01831+99999999999ADDGF108991999999999999999999
0029227070999991905063020004+62167+030650FM-12+010299999V0201401N001019999999N0000001N9+01331+99999999999ADDGF103991999999999999999999
0029227070999991905070106004+62167+030650FM-12+010299999V0209991C000019999999N0000001N9+01561+99999999999ADDGF103991999999999999999999
0029227070999991905070113004+62167+030650FM-12+010299999V0202501N002119999999N0000001N9+01781+99999999999ADDGF103991999999999999999999
0029227070999991905070120004+62167+030650FM-12+010299999V0202301N001019999999N0000001N9+01501+99999999999ADDGF103991999999999999999999
0029227070999991905070206004+62167+030650FM-12+010299999V0209991C000019999999N0000001N9+01501+99999999999ADDGF108991999999999999999999
0029227070999991905070213004+62167+030650FM-12+010299999V0209991C000019999999N0000001N9+01891+99999999999ADDGF108991999999999999999999
0029227070999991905070220004+62167+030650FM-12+010299999V0209991C000019999999N0000001N9+01611+99999999999ADDGF102991999999999999999999
0029227070999991905070306004+62167+030650FM-12+010299999V0202301N002119999999N0000001N9+01671+99999999999ADDGF103991999999999999999999
0029227070999991905070313004+62167+030650FM-12+010299999V0202001N003119999999N0000001N9+02001+99999999999ADDGF106991999999999999999999
0029227070999991905070320004+62167+030650FM-12+010299999V0201401N001019999999N0000001N9+01831+99999999999ADDGF102991999999999999999999
0029227070999991905070406004+62167+030650FM-12+010299999V0201401N002119999999N0000001N9+01611+99999999999ADDGF103991999999999999999999
0029227070999991905070413004+62167+030650FM-12+010299999V0201401N002119999999N0000001N9+01941+99999999999ADDGF104991999999999999999999
0029227070999991905070420004+62167+030650FM-12+010299999V0209991C000019999999N0000001N9+01781+99999999999ADDGF105991999999999999999999
0029227070999991905070506004+62167+030650FM-12+010299999V0201401N001019999999N0000001N9+01391+99999999999ADDGF103991999999999999999999
0029227070999991905070513004+62167+030650FM-12+010299999V0209991C000019999999N0000001N9+01781+99999999999ADDGF103991999999999999999999
0029227070999991905070520004+62167+030650FM-12+010299999V0209991C000019999999N0000001N9+01561+99999999999ADDGF102991999999999999999999
0029227070999991905070606004+62167+030650FM-12+010299999V0202301N002119999999N0000001N9+01501+99999999999ADDGF106991999999999999999999
0029227070999991905070613004+62167+030650FM-12+010299999V0209991C000019999999N0000001N9+01721+99999999999ADDGF106991999999999999999999
0029227070999991905070620004+62167+030650FM-12+010299999V0201401N002119999999N0000001N9+01561+99999999999ADDGF102991999999999999999999
0029227070999991905070706004+62167+030650FM-12+010299999V0209991C000019999999N0000001N9+01561+99999999999ADDGF108991999999999999999999
0029227070999991905070713004+62167+030650FM-12+010299999V0202701N006219999999N0000001N9+01831+99999999999ADDGF106991999999999999999999
0029227070999991905070720004+62167+030650FM-12+010299999V0201601N002119999999N0000001N9+01441+99999999999ADDGF102991999999999999999999
0029227070999991905070806004+62167+030650FM-12+010299999V0202301N008219999999N0000001N9+01221+99999999999ADDGF105991999999999999999999
0029227070999991905070813004+62167+030650FM-12+010299999V0202301N004119999999N0000001N9+00941+99999999999ADDGF108991999999999999999999
0029227070999991905070820004+62167+030650FM-12+010299999V0209991C000019999999N0000001N9+01391+99999999999ADDGF107991999999999999999999
0029227070999991905070906004+62167+030650FM-12+010299999V0202001N002119999999N0000001N9+01221+99999999999ADDGF108991999999999999999999
0029227070999991905070913004+62167+030650FM-12+010299999V0202001N004119999999N0000001N9+01441+99999999999ADDGF106991999999999999999999
0029227070999991905070920004+62167+030650FM-12+010299999V0202001N003119999999N0000001N9+01171+99999999999ADDGF108991999999999999999999
0029227070999991905071006004+62167+030650FM-12+010299999V0203201N002119999999N0000001N9+01111+99999999999ADDGF108991999999999999999999
0029227070999991905071013004+62167+030650FM-12+010299999V0202301N004119999999N0000001N9+01501+99999999999ADDGF108991999999999999999999
0029227070999991905071020004+62167+030650FM-12+010299999V0202501N004119999999N0000001N9+01391+99999999999ADDGF108991999999999999999999
0029227070999991905071106004+62167+030650FM-12+010299999V0202501N002119999999N0000001N9+01171+99999999999ADDGF106991999999999999999999
0029227070999991905071113004+62167+030650FM-12+010299999V0202301N003119999999N0000001N9+01671+99999999999ADDGF105991999999999999999999
0029227070999991905071120004+62167+030650FM-12+010299999V0202501N004119999999N0000001N9+01061+99999999999ADDGF108991999999999999999999
0029227070999991905071206004+62167+030650FM-12+010299999V0202301N002119999999N0000001N9+01061+99999999999ADDGF108991999999999999999999
0029227070999991905071213004+62167+030650FM-12+010299999V0202301N002119999999N0000001N9+01561+99999999999ADDGF108991999999999999999999
0029227070999991905071220004+62167+030650FM-12+010299999V0209991C000019999999N0000001N9+01061+99999999999ADDGF107991999999999999999999
0029227070999991905071306004+62167+030650FM-12+010299999V0202001N006219999999N0000001N9+01061+99999999999ADDGF108991999999999999999999
0029227070999991905071313004+62167+030650FM-12+010299999V0209991C000019999999N0000001N9+01561+99999999999ADDGF108991999999999999999999
0029227070999991905071320004+62167+030650FM-12+010299999V0209991C000019999999N0000001N9+01221+99999999999ADDGF108991999999999999999999
0029227070999991905071406004+62167+030650FM-12+010299999V0203201N002119999999N0000001N9+01501+99999999999ADDGF100991999999999999999999
0029227070999991905071413004+62167+030650FM-12+010299999V0202001N004119999999N0000001N9+01441+99999999999ADDGF106991999999999999999999
0029227070999991905071420004+62167+030650FM-12+010299999V0202901N001019999999N0000001N9+01331+99999999999ADDGF108991999999999999999999
0029227070999991905071506004+62167+030650FM-12+010299999V0200501N006219999999N0000001N9+01331+99999999999ADDGF108991999999999999999999
0029227070999991905071513004+62167+030650FM-12+010299999V0202301N002119999999N0000001N9+02111+99999999999ADDGF106991999999999999999999
0029227070999991905071520004+62167+030650FM-12+010299999V0202301N004119999999N0000001N9+01671+99999999999ADDGF102991999999999999999999
0029227070999991905071606004+62167+030650FM-12+010299999V0209991C000019999999N0000001N9+01501+99999999999ADDGF108991999999999999999999
0029227070999991905071613004+62167+030650FM-12+010299999V0203201N003119999999N0000001N9+01611+99999999999ADDGF108991999999999999999999
0029227070999991905071620004+62167+030650FM-12+010299999V0203201N001019999999N0000001N9+01501+99999999999ADDGF108991999999999999999999
0029227070999991905071706004+62167+030650FM-12+010299999V0203601N002119999999N0000001N9+01561+99999999999ADDGF108991999999999999999999
0029227070999991905071713004+62167+030650FM-12+010299999V0209991C000019999999N0000001N9+02001+99999999999ADDGF108991999999999999999999
0029227070999991905071720004+62167+030650FM-12+010299999V0209991C000019999999N0000001N9+01671+99999999999ADDGF102991999999999999999999
0029227070999991905071806004+62167+030650FM-12+010299999V0209991C000019999999N0000001N9+01671+99999999999ADDGF108991999999999999999999
0029227070999991905071813004+62167+030650FM-12+010299999V0209991C000019999999N0000001N9+01781+99999999999ADDGF108991999999999999999999
0029227070999991905071820004+62167+030650FM-12+010299999V0201401N001019999999N0000001N9+01281+99999999999ADDGF101991999999999999999999
0029227070999991905071906004+62167+030650FM-12+010299999V0202301N002119999999N0000001N9+01441+99999999999ADDGF106991999999999999999999
0029227070999991905071913004+62167+030650FM-12+010299999V0202301N008219999999N0000001N9+01831+99999999999ADDGF108991999999999999999999
0029227070999991905071920004+62167+030650FM-12+010299999V0209991C000019999999N0000001N9+01441+99999999999ADDGF102991999999999999999999
0029227070999991905072006004+62167+030650FM-12+010299999V0209991C000019999999N0000001N9+01721+99999999999ADDGF103991999999999999999999
0029227070999991905072013004+62167+030650FM-12+010299999V0209991C000019999999N0000001N9+01941+99999999999ADDGF108991999999999999999999
0029227070999991905072020004+62167+030650FM-12+010299999V0201601N002119999999N0000001N9+01331+99999999999ADDGF108991999999999999999999
0029227070999991905072106004+62167+030650FM-12+010299999V0200501N004119999999N0000001N9+01501+99999999999ADDGF108991999999999999999999
0029227070999991905072113004+62167+030650FM-12+010299999V0200501N003119999999N0000001N9+02061+99999999999ADDGF105991999999999999999999
0029227070999991905072120004+62167+030650FM-12+010299999V0200901N003119999999N0000001N9+01831+99999999999ADDGF107991999999999999999999
0029227070999991905072206004+62167+030650FM-12+010299999V0209991C000019999999N0000001N9+02061+99999999999ADDGF102991999999999999999999
0029227070999991905072213004+62167+030650FM-12+010299999V0201601N003119999999N0000001N9+02831+99999999999ADDGF104991999999999999999999
0029227070999991905072220004+62167+030650FM-12+010299999V0201401N005119999999N0000001N9+02111+99999999999ADDGF101991999999999999999999
0029227070999991905072306004+62167+030650FM-12+010299999V0201401N005119999999N0000001N9+02061+99999999999ADDGF103991999999999999999999
0029227070999991905072313004+62167+030650FM-12+010299999V0201101N002119999999N0000001N9+02781+99999999999ADDGF102991999999999999999999
0029227070999991905072320004+62167+030650FM-12+010299999V0201101N002119999999N0000001N9+02061+99999999999ADDGF102991999999999999999999
0029227070999991905072406004+62167+030650FM-12+010299999V0200701N002119999999N0000001N9+01831+99999999999ADDGF108991999999999999999999
0029227070999991905072413004+62167+030650FM-12+010299999V0200901N006219999999N0000001N9+02441+99999999999ADDGF103991999999999999999999
0029227070999991905072420004+62167+030650FM-12+010299999V0201101N001019999999N0000001N9+01671+99999999999ADDGF105991999999999999999999
0029227070999991905072506004+62167+030650FM-12+010299999V0201401N003119999999N0000001N9+01721+99999999999ADDGF107991999999999999999999
0029227070999991905072513004+62167+030650FM-12+010299999V0200901N001019999999N0000001N9+01941+99999999999ADDGF108991999999999999999999
0029227070999991905072520004+62167+030650FM-12+010299999V0200901N001019999999N0000001N9+01611+99999999999ADDGF106991999999999999999999
0029227070999991905072606004+62167+030650FM-12+010299999V0209991C000019999999N0000001N9+01561+99999999999ADDGF108991999999999999999999
0029227070999991905072613004+62167+030650FM-12+010299999V0209991C000019999999N0000001N9+01941+99999999999ADDGF108991999999999999999999
0029227070999991905072620004+62167+030650FM-12+010299999V0200901N001019999999N0000001N9+01721+99999999999ADDGF107991999999999999999999
0029227070999991905072706004+62167+030650FM-12+010299999V0200901N001019999999N0000001N9+01561+99999999999ADDGF106991999999999999999999
0029227070999991905072713004+62167+030650FM-12+010299999V0200501N002119999999N0000001N9+01941+99999999999ADDGF106991999999999999999999
0029227070999991905072720004+62167+030650FM-12+010299999V0200901N001019999999N0000001N9+01561+99999999999ADDGF106991999999999999999999
0029227070999991905072806004+62167+030650FM-12+010299999V0209991C000019999999N0000001N9+01671+99999999999ADDGF108991999999999999999999
0029227070999991905072813004+62167+030650FM-12+010299999V0209991C000019999999N0000001N9+01831+99999999999ADDGF106991999999999999999999
0029227070999991905072820004+62167+030650FM-12+010299999V0201401N001019999999N0000001N9+01391+99999999999ADDGF108991999999999999999999
0029227070999991905072906004+62167+030650FM-12+010299999V0201801N002119999999N0000001N9+01501+99999999999ADDGF105991999999999999999999
0029227070999991905072913004+62167+030650FM-12+010299999V0209991C000019999999N0000001N9+01781+99999999999ADDGF105991999999999999999999
0029227070999991905072920004+62167+030650FM-12+010299999V0209991C000019999999N0000001N9+01171+99999999999ADDGF103991999999999999999999
0029227070999991905073006004+62167+030650FM-12+010299999V0209991C000019999999N0000001N9+01331+99999999999ADDGF106991999999999999999999
0029227070999991905073013004+62167+030650FM-12+010299999V0202301N002119999999N0000001N9+02001+99999999999ADDGF107991999999999999999999
0029227070999991905073020004+62167+030650FM-12+010299999V0209991C000019999999N0000001N9+01221+99999999999ADDGF102991999999999999999999
0029227070999991905073106004+62167+030650FM-12+010299999V0209991C000019999999N0000001N9+01391+99999999999ADDGF105991999999999999999999
0029227070999991905073113004+62167+030650FM-12+010299999V0202301N002119999999N0000001N9+01501+99999999999ADDGF106991999999999999999999
0029227070999991905073120004+62167+030650FM-12+010299999V0202301N001019999999N0000001N9+01391+99999999999ADDGF103991999999999999999999
0029227070999991905080106004+62167+030650FM-12+010299999V0209991C000019999999N0000001N9+01391+99999999999ADDGF106991999999999999999999
0029227070999991905080113004+62167+030650FM-12+010299999V0209991C000019999999N0000001N9+02331+99999999999ADDGF102991999999999999999999
0029227070999991905080120004+62167+030650FM-12+010299999V0209991C000019999999N0000001N9+01441+99999999999ADDGF102991999999999999999999
0029227070999991905080206004+62167+030650FM-12+010299999V0202701N002119999999N0000001N9+01561+99999999999ADDGF100991999999999999999999
0029227070999991905080213004+62167+030650FM-12+010299999V0209991C000019999999N0000001N9+02111+99999999999ADDGF103991999999999999999999
0029227070999991905080220004+62167+030650FM-12+010299999V0209991C000019999999N0000001N9+01281+99999999999ADDGF100991999999999999999999
0029227070999991905080306004+62167+030650FM-12+010299999V0209991C000019999999N0000001N9+01561+99999999999ADDGF105991999999999999999999
0029227070999991905080313004+62167+030650FM-12+010299999V0209991C000019999999N0000001N9+01941+99999999999ADDGF106991999999999999999999
0029227070999991905080320004+62167+030650FM-12+010299999V0202301N001019999999N0000001N9+01281+99999999999ADDGF103991999999999999999999
0029227070999991905080406004+62167+030650FM-12+010299999V0201801N008219999999N0000001N9+01281+99999999999ADDGF106991999999999999999999
0029227070999991905080413004+62167+030650FM-12+010299999V0202701N009819999999N0000001N9+01611+99999999999ADDGF106991999999999999999999
0029227070999991905080420004+62167+030650FM-12+010299999V0200901N002119999999N0000001N9+01331+99999999999ADDGF108991999999999999999999
0029227070999991905080506004+62167+030650FM-12+010299999V0209991C000019999999N0000001N9+01501+99999999999ADDGF106991999999999999999999
0029227070999991905080513004+62167+030650FM-12+010299999V0209991C000019999999N0000001N9+02001+99999999999ADDGF105991999999999999999999
0029227070999991905080520004+62167+030650FM-12+010299999V0209991C000019999999N0000001N9+01441+99999999999ADDGF103991999999999999999999
0029227070999991905080606004+62167+030650FM-12+010299999V0200901N002119999999N0000001N9+01671+99999999999ADDGF101991999999999999999999
0029227070999991905080613004+62167+030650FM-12+010299999V0201401N003119999999N0000001N9+02171+99999999999ADDGF107991999999999999999999
0029227070999991905080620004+62167+030650FM-12+010299999V0209991C000019999999N0000001N9+01611+99999999999ADDGF105991999999999999999999
0029227070999991905080706004+62167+030650FM-12+010299999V0201601N004119999999N0000001N9+01781+99999999999ADDGF100991999999999999999999
0029227070999991905080713004+62167+030650FM-12+010299999V0201801N015919999999N0000001N9+02441+99999999999ADDGF101991999999999999999999
0029227070999991905080720004+62167+030650FM-12+010299999V0209991C000019999999N0000001N9+02061+99999999999ADDGF100991999999999999999999
0029227070999991905080806004+62167+030650FM-12+010299999V0209991C000019999999N0000001N9+01721+99999999999ADDGF108991999999999999999999
0029227070999991905080813004+62167+030650FM-12+010299999V0201401N001019999999N0000001N9+02331+99999999999ADDGF108991999999999999999999
0029227070999991905080820004+62167+030650FM-12+010299999V0209991C000019999999N0000001N9+01781+99999999999ADDGF108991999999999999999999
0029227070999991905080906004+62167+030650FM-12+010299999V0209991C000019999999N0000001N9+01721+99999999999ADDGF108991999999999999999999
0029227070999991905080913004+62167+030650FM-12+010299999V0201801N006219999999N0000001N9+01561+99999999999ADDGF108991999999999999999999
0029227070999991905080920004+62167+030650FM-12+010299999V0200501N004119999999N0000001N9+01331+99999999999ADDGF108991999999999999999999
0029227070999991905081006004+62167+030650FM-12+010299999V0202901N009819999999N0000001N9+01171+99999999999ADDGF108991999999999999999999
0029227070999991905081013004+62167+030650FM-12+010299999V0203201N002119999999N0000001N9+01281+99999999999ADDGF108991999999999999999999
0029227070999991905081020004+62167+030650FM-12+010299999V0203201N002119999999N0000001N9+01171+99999999999ADDGF103991999999999999999999
0029227070999991905081106004+62167+030650FM-12+010299999V0201401N015919999999N0000001N9+01061+99999999999ADDGF108991999999999999999999
0000227070999991905081113004+62167+030650FM-12+010299999V0201801N008219999999N0000001N9+02061+99999999999
0029227070999991905081120004+62167+030650FM-12+010299999V0201801N002119999999N0000001N9+01441+99999999999ADDGF108991999999999999999999
0029227070999991905081206004+62167+030650FM-12+010299999V0201801N002119999999N0000001N9+01501+99999999999ADDGF108991999999999999999999
0029227070999991905081213004+62167+030650FM-12+010299999V0201801N002119999999N0000001N9+02001+99999999999ADDGF106991999999999999999999
0029227070999991905081220004+62167+030650FM-12+010299999V0201401N001019999999N0000001N9+01331+99999999999ADDGF106991999999999999999999
0029227070999991905081306004+62167+030650FM-12+010299999V0201801N002119999999N0000001N9+01221+99999999999ADDGF108991999999999999999999
0029227070999991905081313004+62167+030650FM-12+010299999V0201801N002119999999N0000001N9+01281+99999999999ADDGF108991999999999999999999
0029227070999991905081320004+62167+030650FM-12+010299999V0201401N001019999999N0000001N9+01221+99999999999ADDGF103991999999999999999999
0029227070999991905081406004+62167+030650FM-12+010299999V0201801N002119999999N0000001N9+01221+99999999999ADDGF108991999999999999999999
0029227070999991905081413004+62167+030650FM-12+010299999V0209991C000019999999N0000001N9+01611+99999999999ADDGF108991999999999999999999
0029227070999991905081420004+62167+030650FM-12+010299999V0203401N003119999999N0000001N9+01171+99999999999ADDGF106991999999999999999999
0029227070999991905081506004+62167+030650FM-12+010299999V0209991C000019999999N0000001N9+01171+99999999999ADDGF106991999999999999999999
0029227070999991905081513004+62167+030650FM-12+010299999V0209991C000019999999N0000001N9+01611+99999999999ADDGF102991999999999999999999
0029227070999991905081520004+62167+030650FM-12+010299999V0209991C000019999999N0000001N9+01061+99999999999ADDGF103991999999999999999999
0029227070999991905081606004+62167+030650FM-12+010299999V0203401N001019999999N0000001N9+01221+99999999999ADDGF103991999999999999999999
0029227070999991905081613004+62167+030650FM-12+010299999V0202001N003119999999N0000001N9+01831+99999999999ADDGF106991999999999999999999
0029227070999991905081620004+62167+030650FM-12+010299999V0209991C000019999999N0000001N9+01331+99999999999ADDGF108991999999999999999999
0029227070999991905081706004+62167+030650FM-12+010299999V0209991C000019999999N0000001N9+01331+99999999999ADDGF108991999999999999999999
0029227070999991905081713004+62167+030650FM-12+010299999V0201801N003119999999N0000001N9+01441+99999999999ADDGF108991999999999999999999
0029227070999991905081720004+62167+030650FM-12+010299999V0201601N003119999999N0000001N9+01061+99999999999ADDGF101991999999999999999999
0029227070999991905081806004+62167+030650FM-12+010299999V0201601N003119999999N0000001N9+01171+99999999999ADDGF108991999999999999999999
0029227070999991905081813004+62167+030650FM-12+010299999V0201101N002119999999N0000001N9+01781+99999999999ADDGF103991999999999999999999
0029227070999991905081820004+62167+030650FM-12+010299999V0209991C000019999999N0000001N9+01061+99999999999ADDGF101991999999999999999999
0029227070999991905081906004+62167+030650FM-12+010299999V0209991C000019999999N0000001N9+00781+99999999999ADDGF103991999999999999999999
0029227070999991905081913004+62167+030650FM-12+010299999V0209991C000019999999N0000001N9+01721+99999999999ADDGF106991999999999999999999
0029227070999991905081920004+62167+030650FM-12+010299999V0201101N001019999999N0000001N9+01001+99999999999ADDGF102991999999999999999999
0029227070999991905082006004+62167+030650FM-12+010299999V0200901N003119999999N0000001N9+00941+99999999999ADDGF102991999999999999999999
0029227070999991905082013004+62167+030650FM-12+010299999V0200901N002119999999N0000001N9+01501+99999999999ADDGF108991999999999999999999
0029227070999991905082020004+62167+030650FM-12+010299999V0200901N002119999999N0000001N9+00941+99999999999ADDGF102991999999999999999999
0029227070999991905082106004+62167+030650FM-12+010299999V0201101N001019999999N0000001N9+01171+99999999999ADDGF108991999999999999999999
0029227070999991905082113004+62167+030650FM-12+010299999V0200901N003119999999N0000001N9+01831+99999999999ADDGF106991999999999999999999
0029227070999991905082120004+62167+030650FM-12+010299999V0200901N001019999999N0000001N9+01281+99999999999ADDGF107991999999999999999999
0029227070999991905082206004+62167+030650FM-12+010299999V0201101N001019999999N0000001N9+00671+99999999999ADDGF106991999999999999999999
0029227070999991905082213004+62167+030650FM-12+010299999V0201801N003119999999N0000001N9+01061+99999999999ADDGF105991999999999999999999
0029227070999991905082220004+62167+030650FM-12+010299999V0201601N002119999999N0000001N9+00611+99999999999ADDGF105991999999999999999999
0029227070999991905082306004+62167+030650FM-12+010299999V0200501N006219999999N0000001N9+01001+99999999999ADDGF108991999999999999999999
0029227070999991905082313004+62167+030650FM-12+010299999V0200201N004119999999N0000001N9+01171+99999999999ADDGF108991999999999999999999
0029227070999991905082320004+62167+030650FM-12+010299999V0209991C000019999999N0000001N9+00941+99999999999ADDGF106991999999999999999999
0029227070999991905082406004+62167+030650FM-12+010299999V0200501N004119999999N0000001N9+00721+99999999999ADDGF108991999999999999999999
0029227070999991905082413004+62167+030650FM-12+010299999V0200201N006219999999N0000001N9+01001+99999999999ADDGF108991999999999999999999
0029227070999991905082420004+62167+030650FM-12+010299999V0200501N008219999999N0000001N9+00671+99999999999ADDGF105991999999999999999999
0029227070999991905082506004+62167+030650FM-12+010299999V0200501N006219999999N0000001N9+00671+99999999999ADDGF108991999999999999999999
0029227070999991905082513004+62167+030650FM-12+010299999V0200501N004119999999N0000001N9+01221+99999999999ADDGF108991999999999999999999
0029227070999991905082520004+62167+030650FM-12+010299999V0203201N004119999999N0000001N9+00721+99999999999ADDGF108991999999999999999999
0029227070999991905082606004+62167+030650FM-12+010299999V0200501N009819999999N0000001N9+00781+99999999999ADDGF108991999999999999999999
0029227070999991905082613004+62167+030650FM-12+010299999V0200201N006219999999N0000001N9+01061+99999999999ADDGF105991999999999999999999
0029227070999991905082620004+62167+030650FM-12+010299999V0200201N003119999999N0000001N9+00671+99999999999ADDGF103991999999999999999999
0029227070999991905082706004+62167+030650FM-12+010299999V0209991C000019999999N0000001N9+00331+99999999999ADDGF100991999999999999999999
0029227070999991905082713004+62167+030650FM-12+010299999V0209991C000019999999N0000001N9+01441+99999999999ADDGF100991999999999999999999
0029227070999991905082720004+62167+030650FM-12+010299999V0209991C000019999999N0000001N9+00561+99999999999ADDGF101991999999999999999999
0029227070999991905082806004+62167+030650FM-12+010299999V0200201N002119999999N0000001N9+00281+99999999999ADDGF106991999999999999999999
0029227070999991905082813004+62167+030650FM-12+010299999V0200201N004119999999N0000001N9+01501+99999999999ADDGF108991999999999999999999
0029227070999991905082820004+62167+030650FM-12+010299999V0200201N003119999999N0000001N9+00281+99999999999ADDGF108991999999999999999999
0029227070999991905082906004+62167+030650FM-12+010299999V0202901N002119999999N0000001N9+00391+99999999999ADDGF106991999999999999999999
0029227070999991905082913004+62167+030650FM-12+010299999V0203201N001019999999N0000001N9+01281+99999999999ADDGF105991999999999999999999
0029227070999991905082920004+62167+030650FM-12+010299999V0209991C000019999999N0000001N9+00501+99999999999ADDGF105991999999999999999999
0029227070999991905083006004+62167+030650FM-12+010299999V0209991C000019999999N0000001N9+00941+99999999999ADDGF108991999999999999999999
0029227070999991905083013004+62167+030650FM-12+010299999V0203401N008219999999N0000001N9+01391+99999999999ADDGF106991999999999999999999
0029227070999991905083020004+62167+030650FM-12+010299999V0203401N006219999999N0000001N9+00671+99999999999ADDGF105991999999999999999999
0029227070999991905083106004+62167+030650FM-12+010299999V0200201N002119999999N0000001N9+01061+99999999999ADDGF105991999999999999999999
0029227070999991905083113004+62167+030650FM-12+010299999V0203401N004119999999N0000001N9+01501+99999999999ADDGF103991999999999999999999
0029227070999991905083120004+62167+030650FM-12+010299999V0203401N002119999999N0000001N9+00891+99999999999ADDGF108991999999999999999999
0029227070999991905090106004+62167+030650FM-12+010299999V0201101N004119999999N0000001N9+01391+99999999999ADDGF106991999999999999999999
0029227070999991905090113004+62167+030650FM-12+010299999V0201101N002119999999N0000001N9+01671+99999999999ADDGF108991999999999999999999
0029227070999991905090120004+62167+030650FM-12+010299999V0201101N002119999999N0000001N9+01281+99999999999ADDGF105991999999999999999999
0029227070999991905090206004+62167+030650FM-12+010299999V0201401N001019999999N0000001N9+01331+99999999999ADDGF106991999999999999999999
0029227070999991905090213004+62167+030650FM-12+010299999V0201401N002119999999N0000001N9+01671+99999999999ADDGF105991999999999999999999
0029227070999991905090220004+62167+030650FM-12+010299999V0201801N001019999999N0000001N9+01281+99999999999ADDGF103991999999999999999999
0029227070999991905090306004+62167+030650FM-12+010299999V0202501N002119999999N0000001N9+00891+99999999999ADDGF108991999999999999999999
0029227070999991905090313004+62167+030650FM-12+010299999V0202501N006219999999N0000001N9+01221+99999999999ADDGF106991999999999999999999
0029227070999991905090320004+62167+030650FM-12+010299999V0202301N004119999999N0000001N9+00781+99999999999ADDGF106991999999999999999999
0029227070999991905090406004+62167+030650FM-12+010299999V0202301N001019999999N0000001N9+00561+99999999999ADDGF108991999999999999999999
0029227070999991905090413004+62167+030650FM-12+010299999V0202301N001019999999N0000001N9+00721+99999999999ADDGF103991999999999999999999
