0029029500999991905010106004+61483+021350FM-12+000699999V0201601N005119999999N0000001N9-01221+99999103791ADDGF108991999999999999999999
0029029500999991905010113004+61483+021350FM-12+000699999V0202501N009819999999N0000001N9-00671+99999103561ADDGF108991999999999999999999
0029029500999991905010120004+61483+021350FM-12+000699999V0202301N018019999999N0000001N9-00671+99999102991ADDGF108991999999999999999999
0029029500999991905010206004+61483+021350FM-12+000699999V0202301N020119999999N0000001N9-00331+99999101671ADDGF108991999999999999999999
0029029500999991905010213004+61483+021350FM-12+000699999V0201401N015919999999N0000001N9-00061+99999100781ADDGF108991999999999999999999
0029029500999991905010220004+61483+021350FM-12+000699999V0202301N011819999999N0000001N9+00171+99999100041ADDGF108991999999999999999999
0029029500999991905010306004+61483+021350FM-12+000699999V0202301N009819999999N0000001N9+00221+99999099021ADDGF108991999999999999999999
0029029500999991905010313004+61483+021350FM-12+000699999V0203201N009819999999N0000001N9+00281+99999098521ADDGF103991999999999999999999
0029029500999991905010320004+61483+021350FM-12+000699999V0202901N011819999999N0000001N9+00061+99999098831ADDGF100991999999999999999999
0029029500999991905010406004+61483+021350FM-12+000699999V0203401N013919999999N0000001N9+00001+99999098681ADDGF108991999999999999999999
0029029500999991905010413004+61483+021350FM-12+000699999V0203201N011819999999N0000001N9-00111+99999099081ADDGF106991999999999999999999
0029029500999991905010420004+61483+021350FM-12+000699999V0203201N011819999999N0000001N9-00221+99999099141ADDGF106991999999999999999999
0029029500999991905010506004+61483+021350FM-12+000699999V0203201N008219999999N0000001N9-00281+99999098821ADDGF107991999999999999999999
0029029500999991905010513004+61483+021350FM-12+000699999V0200201N006219999999N0000001N9-00391+99999098991ADDGF107991999999999999999999
0029029500999991905010520004+61483+021350FM-12+000699999V0200701N004119999999N0000001N9-00941+99999099391ADDGF102991999999999999999999
0029029500999991905010606004+61483+021350FM-12+000699999V0201801N009819999999N0000001N9-01111+99999099271ADDGF108991999999999999999999
0029029500999991905010613004+61483+021350FM-12+000699999V0202301N011819999999N0000001N9-00331+99999098901ADDGF105991999999999999999999
0029029500999991905010620004+61483+021350FM-12+000699999V0202301N009819999999N0000001N9-00331+99999098501ADDGF108991999999999999999999
0029029500999991905010706004+61483+021350FM-12+000699999V0203201N006219999999N0000001N9-00331+99999098741ADDGF105991999999999999999999
0029029500999991905010713004+61483+021350FM-12+000699999V0200501N004119999999N0000001N9-00391+99999099401ADDGF107991999999999999999999
0029029500999991905010720004+61483+021350FM-12+000699999V0203401N013919999999N0000001N9-00441+99999100161ADDGF103991999999999999999999
0029029500999991905010806004+61483+021350FM-12+000699999V0203201N009819999999N0000001N9-00441+99999100741ADDGF104991999999999999999999
0029029500999991905010813004+61483+021350FM-12+000699999V0201601N004119999999N0000001N9-00561+99999100631ADDGF108991999999999999999999
0029029500999991905010820004+61483+021350FM-12+000699999V0201601N011819999999N0000001N9-00331+99999099541ADDGF108991999999999999999999
0029029500999991905010906004+61483+021350FM-12+000699999V0202301N009819999999N0000001N9+00171+99999097871ADDGF108991999999999999999999
0029029500999991905010913004+61483+021350FM-12+000699999V0202501N006219999999N0000001N9+00061+99999097521ADDGF105991999999999999999999
0029029500999991905010920004+61483+021350FM-12+000699999V0202301N011819999999N0000001N9+00111+99999096801ADDGF102991999999999999999999
0029029500999991905011006004+61483+021350FM-12+000699999V0203401N013919999999N0000001N9+00001+99999097421ADDGF108991999999999999999999
0029029500999991905011013004+61483+021350FM-12+000699999V0203601N018019999999N0000001N9-00781+99999098281ADDGF108991999999999999999999
0029029500999991905011020004+61483+021350FM-12+000699999V0200501N004119999999N0000001N9-00891+99999099791ADDGF104991999999999999999999
0029029500999991905011106004+61483+021350FM-12+000699999V0201401N004119999999N0000001N9-01281+99999099741ADDGF102991999999999999999999
0029029500999991905011113004+61483+021350FM-12+000699999V0201401N006219999999N0000001N9-00891+99999099881ADDGF108991999999999999999999
0029029500999991905011120004+61483+021350FM-12+000699999V0201601N011819999999N0000001N9-00671+99999099581ADDGF108991999999999999999999
0029029500999991905011206004+61483+021350FM-12+000699999V0201601N013919999999N0000001N9-00281+99999098001ADDGF108991999999999999999999
0029029500999991905011213004+61483+021350FM-12+000699999V0201401N004119999999N0000001N9-00061+99999097141ADDGF108991999999999999999999
0029029500999991905011220004+61483+021350FM-12+000699999V0203601N015919999999N0000001N9-00331+99999097151ADDGF108991999999999999999999
0029029500999991905011306004+61483+021350FM-12+000699999V0200501N024219999999N0000001N9-01171+99999098921ADDGF108991999999999999999999
0029029500999991905011313004+61483+021350FM-12+000699999V0200201N024219999999N0000001N9-01111+99999100671ADDGF102991999999999999999999
0029029500999991905011320004+61483+021350FM-12+000699999V0200501N013919999999N0000001N9-01281+99999102341ADDGF100991999999999999999999
0029029500999991905011406004+61483+021350FM-12+000699999V0201601N002119999999N0000001N9-01611+99999103301ADDGF100991999999999999999999
0029029500999991905011413004+61483+021350FM-12+000699999V0202001N006219999999N0000001N9-00721+99999103511ADDGF102991999999999999999999
0029029500999991905011420004+61483+021350FM-12+000699999V0201801N009819999999N0000001N9-00611+99999103401ADDGF100991999999999999999999
0029029500999991905011506004+61483+021350FM-12+000699999V0202301N011819999999N0000001N9-00221+99999103281ADDGF108991999999999999999999
0029029500999991905011513004+61483+021350FM-12+000699999V0202301N011819999999N0000001N9-00171+99999103341ADDGF108991999999999999999999
0029029500999991905011520004+61483+021350FM-12+000699999V0202301N011819999999N0000001N9-00171+99999103401ADDGF108991999999999999999999
0029029500999991905011606004+61483+021350FM-12+000699999V0202301N009819999999N0000001N9-00281+99999103591ADDGF100991999999999999999999
0029029500999991905011613004+61483+021350FM-12+000699999V0202001N006219999999N0000001N9-00171+99999103861ADDGF100991999999999999999999
0029029500999991905011620004+61483+021350FM-12+000699999V0201801N002119999999N0000001N9-00671+99999103861ADDGF100991999999999999999999
0029029500999991905011706004+61483+021350FM-12+000699999V0201601N006219999999N0000001N9-00721+99999103541ADDGF108991999999999999999999
0029029500999991905011713004+61483+021350FM-12+000699999V0201401N004119999999N0000001N9-00831+99999103501ADDGF108991999999999999999999
0029029500999991905011720004+61483+021350FM-12+000699999V0201401N004119999999N0000001N9-01331+99999103401ADDGF100991999999999999999999
0029029500999991905011806004+61483+021350FM-12+000699999V0201401N004119999999N0000001N9-01061+99999103191ADDGF108991999999999999999999
0029029500999991905011813004+61483+021350FM-12+000699999V0201101N004119999999N0000001N9-00721+99999103081ADDGF105991999999999999999999
0029029500999991905011820004+61483+021350FM-12+000699999V0201401N004119999999N0000001N9-01111+99999103231ADDGF100991999999999999999999
0029029500999991905011906004+61483+021350FM-12+000699999V0201601N004119999999N0000001N9-00781+99999103661ADDGF108991999999999999999999
0029029500999991905011913004+61483+021350FM-12+000699999V0201601N002119999999N0000001N9-00831+99999104201ADDGF108991999999999999999999
0029029500999991905011920004+61483+021350FM-12+000699999V0201801N004119999999N0000001N9-00891+99999104101ADDGF108991999999999999999999
0029029500999991905012006004+61483+021350FM-12+000699999V0201101N004119999999N0000001N9-00941+99999104141ADDGF108991999999999999999999
0029029500999991905012013004+61483+021350FM-12+000699999V0201401N004119999999N0000001N9-00781+99999104341ADDGF108991999999999999999999
0029029500999991905012020004+61483+021350FM-12+000699999V0200901N002119999999N0000001N9-00721+99999104421ADDGF108991999999999999999999
0029029500999991905012106004+61483+021350FM-12+000699999V0202701N002119999999N0000001N9-00281+99999104301ADDGF108991999999999999999999
0029029500999991905012113004+61483+021350FM-12+000699999V0202501N002119999999N0000001N9-00281+99999104181ADDGF108991999999999999999999
0029029500999991905012120004+61483+021350FM-12+000699999V0202301N006219999999N0000001N9-00331+99999103941ADDGF108991999999999999999999
0029029500999991905012206004+61483+021350FM-12+000699999V0202301N006219999999N0000001N9-00281+99999103481ADDGF108991999999999999999999
0029029500999991905012213004+61483+021350FM-12+000699999V0202301N008219999999N0000001N9-00221+99999103161ADDGF108991999999999999999999
0029029500999991905012220004+61483+021350FM-12+000699999V0202301N009819999999N0000001N9-00281+99999102871ADDGF108991999999999999999999
0029029500999991905012306004+61483+021350FM-12+000699999V0202301N009819999999N0000001N9-00281+99999102381ADDGF108991999999999999999999
0029029500999991905012313004+61483+021350FM-12+000699999V0202301N011819999999N0000001N9-00221+99999102121ADDGF108991999999999999999999
0029029500999991905012320004+61483+021350FM-12+000699999V0202301N009819999999N0000001N9-00171+99999101671ADDGF108991999999999999999999
0029029500999991905012406004+61483+021350FM-12+000699999V0202301N011819999999N0000001N9+00061+99999101041ADDGF108991999999999999999999
0029029500999991905012413004+61483+021350FM-12+000699999V0202301N006219999999N0000001N9+00061+99999101101ADDGF108991999999999999999999
0029029500999991905012420004+61483+021350FM-12+000699999V0202301N004119999999N0000001N9+00001+99999101161ADDGF108991999999999999999999
0029029500999991905012506004+61483+021350FM-12+000699999V0202301N006219999999N0000001N9+00001+99999100661ADDGF108991999999999999999999
0029029500999991905012513004+61483+021350FM-12+000699999V0202001N008219999999N0000001N9+00061+99999100161ADDGF108991999999999999999999
0029029500999991905012520004+61483+021350FM-12+000699999V0203201N004119999999N0000001N9-00061+99999100181ADDGF108991999999999999999999
0029029500999991905012606004+61483+021350FM-12+000699999V0203201N008219999999N0000001N9-00221+99999101001ADDGF100991999999999999999999
0029029500999991905012613004+61483+021350FM-12+000699999V0203601N009819999999N0000001N9-00441+99999101791ADDGF103991999999999999999999
0029029500999991905012620004+61483+021350FM-12+000699999V0203601N013919999999N0000001N9-00721+99999102361ADDGF100991999999999999999999
0029029500999991905012706004+61483+021350FM-12+000699999V0200201N008219999999N0000001N9-00831+99999103061ADDGF100991999999999999999999
0029029500999991905012713004+61483+021350FM-12+000699999V0201401N002119999999N0000001N9-00941+99999102981ADDGF102991999999999999999999
0029029500999991905012720004+61483+021350FM-12+000699999V0201601N006219999999N0000001N9-01061+99999102661ADDGF106991999999999999999999
0029029500999991905012806004+61483+021350FM-12+000699999V0201801N008219999999N0000001N9-00611+99999101921ADDGF108991999999999999999999
0029029500999991905012813004+61483+021350FM-12+000699999V0202001N013919999999N0000001N9-00061+99999100751ADDGF108991999999999999999999
0029029500999991905012820004+61483+021350FM-12+000699999V0202301N013919999999N0000001N9+00171+99999099461ADDGF103991999999999999999999
0029029500999991905012906004+61483+021350FM-12+000699999V0203201N020119999999N0000001N9+00001+99999099231ADDGF100991999999999999999999
0029029500999991905012913004+61483+021350FM-12+000699999V0203401N022119999999N0000001N9-00061+99999100111ADDGF100991999999999999999999
0029029500999991905012920004+61483+021350FM-12+000699999V0203201N009819999999N0000001N9-00171+99999100681ADDGF102991999999999999999999
0029029500999991905013006004+61483+021350FM-12+000699999V0201801N009819999999N0000001N9-00331+99999099151ADDGF108991999999999999999999
0029029500999991905013013004+61483+021350FM-12+000699999V0203201N009819999999N0000001N9+00111+99999098031ADDGF108991999999999999999999
0029029500999991905013020004+61483+021350FM-12+000699999V0209991C000019999999N0000001N9-00941+99999099511ADDGF102991999999999999999999
0029029500999991905013106004+61483+021350FM-12+000699999V0201601N008219999999N0000001N9-00781+99999098581ADDGF108991999999999999999999
0029029500999991905013113004+61483+021350FM-12+000699999V0200701N013919999999N0000001N9-00721+99999097221ADDGF108991999999999999999999
0029029500999991905013120004+61483+021350FM-12+000699999V0200201N020119999999N0000001N9-00781+99999097501ADDGF108991999999999999999999
0029029500999991905020106004+61483+021350FM-12+000699999V0203601N015919999999N0000001N9-00891+99999098631ADDGF108991999999999999999999
0029029500999991905020113004+61483+021350FM-12+000699999V0203601N006219999999N0000001N9-00891+99999099061ADDGF102991999999999999999999
0029029500999991905020120004+61483+021350FM-12+000699999V0201401N004119999999N0000001N9-01501+99999099261ADDGF103991999999999999999999
0029029500999991905020206004+61483+021350FM-12+000699999V0202501N002119999999N0000001N9-00671+99999099001ADDGF106991999999999999999999
0029029500999991905020213004+61483+021350FM-12+000699999V0201801N002119999999N0000001N9-00671+99999099081ADDGF102991999999999999999999
0029029500999991905020220004+61483+021350FM-12+000699999V0201401N004119999999N0000001N9-01281+99999099351ADDGF100991999999999999999999
0029029500999991905020306004+61483+021350FM-12+000699999V0200701N004119999999N0000001N9-01501+99999099621ADDGF108991999999999999999999
0029029500999991905020313004+61483+021350FM-12+000699999V0209991C000019999999N0000001N9-00941+99999100121ADDGF108991999999999999999999
0029029500999991905020320004+61483+021350FM-12+000699999V0201601N002119999999N0000001N9-01331+99999100201ADDGF101991999999999999999999
0029029500999991905020406004+61483+021350FM-12+000699999V0201401N002119999999N0000001N9-01111+99999100501ADDGF108991999999999999999999
0029029500999991905020413004+61483+021350FM-12+000699999V0209991C000019999999N0000001N9-00781+99999100861ADDGF108991999999999999999999
0029029500999991905020420004+61483+021350FM-12+000699999V0202301N002119999999N0000001N9-00831+99999100961ADDGF102991999999999999999999
0029029500999991905020506004+61483+021350FM-12+000699999V0201601N004119999999N0000001N9-01221+99999101221ADDGF107991999999999999999999
0029029500999991905020513004+61483+021350FM-12+000699999V0201601N004119999999N0000001N9-00831+99999101381ADDGF108991999999999999999999
0029029500999991905020520004+61483+021350FM-12+000699999V0202001N006219999999N0000001N9-00441+99999100841ADDGF108991999999999999999999
0029029500999991905020606004+61483+021350FM-12+000699999V0202301N009819999999N0000001N9+00001+99999099601ADDGF108991999999999999999999
0029029500999991905020613004+61483+021350FM-12+000699999V0202501N008219999999N0000001N9+00171+99999099471ADDGF108991999999999999999999
0029029500999991905020620004+61483+021350FM-12+000699999V0202501N009819999999N0000001N9+00171+99999099111ADDGF101991999999999999999999
0029029500999991905020706004+61483+021350FM-12+000699999V0202901N008219999999N0000001N9+00001+99999099281ADDGF100991999999999999999999
0029029500999991905020713004+61483+021350FM-12+000699999V0203401N004119999999N0000001N9-00221+99999100281ADDGF101991999999999999999999
0029029500999991905020720004+61483+021350FM-12+000699999V0202701N006219999999N0000001N9-00221+99999100741ADDGF101991999999999999999999
0029029500999991905020806004+61483+021350FM-12+000699999V0202901N008219999999N0000001N9-00111+99999100861ADDGF108991999999999999999999
0029029500999991905020813004+61483+021350FM-12+000699999V0203201N011819999999N0000001N9-00061+99999101361ADDGF106991999999999999999999
0029029500999991905020820004+61483+021350FM-12+000699999V0203201N006219999999N0000001N9-00331+99999102031ADDGF101991999999999999999999
0029029500999991905020906004+61483+021350FM-12+000699999V0202301N009819999999N0000001N9-00331+99999101261ADDGF108991999999999999999999
0029029500999991905020913004+61483+021350FM-12+000699999V0202301N009819999999N0000001N9+00171+99999100751ADDGF107991999999999999999999
0029029500999991905020920004+61483+021350FM-12+000699999V0202301N008219999999N0000001N9+00061+99999100621ADDGF100991999999999999999999
0029029500999991905021006004+61483+021350FM-12+000699999V0202301N011819999999N0000001N9+00061+99999099681ADDGF108991999999999999999999
0029029500999991905021013004+61483+021350FM-12+000699999V0202901N011819999999N0000001N9+00111+99999098901ADDGF108991999999999999999999
0029029500999991905021020004+61483+021350FM-12+000699999V0202301N011819999999N0000001N9-00111+99999098741ADDGF101991999999999999999999
0029029500999991905021106004+61483+021350FM-12+000699999V0202701N011819999999N0000001N9-00221+99999098231ADDGF102991999999999999999999
0029029500999991905021113004+61483+021350FM-12+000699999V0203601N004119999999N0000001N9-00221+99999098421ADDGF108991999999999999999999
0029029500999991905021120004+61483+021350FM-12+000699999V0203601N009819999999N0000001N9-00501+99999098901ADDGF108991999999999999999999
0029029500999991905021206004+61483+021350FM-12+000699999V0203401N011819999999N0000001N9-00501+99999099061ADDGF108991999999999999999999
0029029500999991905021213004+61483+021350FM-12+000699999V0200201N011819999999N0000001N9-00441+99999099431ADDGF108991999999999999999999
0029029500999991905021220004+61483+021350FM-12+000699999V0203601N013919999999N0000001N9-00721+99999100281ADDGF108991999999999999999999
0029029500999991905021306004+61483+021350FM-12+000699999V0200201N009819999999N0000001N9-01001+99999101401ADDGF104991999999999999999999
0029029500999991905021313004+61483+021350FM-12+000699999V0200501N002119999999N0000001N9-01061+99999101871ADDGF101991999999999999999999
0029029500999991905021320004+61483+021350FM-12+000699999V0201601N006219999999N0000001N9-01391+99999101711ADDGF100991999999999999999999
0029029500999991905021406004+61483+021350FM-12+000699999V0202301N011819999999N0000001N9-00391+99999100241ADDGF108991999999999999999999
0029029500999991905021413004+61483+021350FM-12+000699999V0203401N006219999999N0000001N9-00221+99999100641ADDGF105991999999999999999999
0029029500999991905021420004+61483+021350FM-12+000699999V0203401N006219999999N0000001N9-00221+99999101391ADDGF102991999999999999999999
0029029500999991905021506004+61483+021350FM-12+000699999V0202501N002119999999N0000001N9-01061+99999101911ADDGF102991999999999999999999
0029029500999991905021513004+61483+021350FM-12+000699999V0202701N004119999999N0000001N9-00441+99999101951ADDGF102991999999999999999999
0029029500999991905021520004+61483+021350FM-12+000699999V0202301N004119999999N0000001N9-00561+99999101441ADDGF106991999999999999999999
0029029500999991905021606004+61483+021350FM-12+000699999V0202301N008219999999N0000001N9-00171+99999100641ADDGF108991999999999999999999
0029029500999991905021613004+61483+021350FM-12+000699999V0202501N006219999999N0000001N9+00111+99999100361ADDGF108991999999999999999999
0029029500999991905021620004+61483+021350FM-12+000699999V0202001N004119999999N0000001N9-00281+99999100101ADDGF108991999999999999999999
0029029500999991905021706004+61483+021350FM-12+000699999V0202301N009819999999N0000001N9+00061+99999099261ADDGF108991999999999999999999
0029029500999991905021713004+61483+021350FM-12+000699999V0202301N011819999999N0000001N9+00171+99999098951ADDGF108991999999999999999999
0029029500999991905021720004+61483+021350FM-12+000699999V0202501N008219999999N0000001N9+00061+99999099101ADDGF108991999999999999999999
0029029500999991905021806004+61483+021350FM-12+000699999V0202501N008219999999N0000001N9-00111+99999099671ADDGF100991999999999999999999
0029029500999991905021813004+61483+021350FM-12+000699999V0202301N006219999999N0000001N9+00061+99999099751ADDGF101991999999999999999999
0029029500999991905021820004+61483+021350FM-12+000699999V0202301N009819999999N0000001N9+00111+99999099071ADDGF108991999999999999999999
0029029500999991905021906004+61483+021350FM-12+000699999V0202301N013919999999N0000001N9+00111+99999097801ADDGF108991999999999999999999
0029029500999991905021913004+61483+021350FM-12+000699999V0202001N013919999999N0000001N9+00171+99999097661ADDGF108991999999999999999999
0029029500999991905021920004+61483+021350FM-12+000699999V0202001N013919999999N0000001N9+00111+99999097721ADDGF108991999999999999999999
0029029500999991905022006004+61483+021350FM-12+000699999V0202001N004119999999N0000001N9-00171+99999098591ADDGF105991999999999999999999
0029029500999991905022013004+61483+021350FM-12+000699999V0202301N002119999999N0000001N9+00061+99999099391ADDGF100991999999999999999999
0029029500999991905022020004+61483+021350FM-12+000699999V0203601N006219999999N0000001N9-00061+99999100381ADDGF108991999999999999999999
0029029500999991905022113004+61483+021350FM-12+000699999V0203401N004119999999N0000001N9-00221+99999102831ADDGF100991999999999999999999
0029029500999991905022120004+61483+021350FM-12+000699999V0200501N002119999999N0000001N9-00501+99999103511ADDGF100991999999999999999999
0029029500999991905022206004+61483+021350FM-12+000699999V0201801N002119999999N0000001N9-00781+99999103841ADDGF100991999999999999999999
0029029500999991905022213004+61483+021350FM-12+000699999V0202301N002119999999N0000001N9-00221+99999103981ADDGF100991999999999999999999
0029029500999991905022220004+61483+021350FM-12+000699999V0202301N004119999999N0000001N9-00671+99999103901ADDGF100991999999999999999999
0029029500999991905022306004+61483+021350FM-12+000699999V0202001N006219999999N0000001N9-00441+99999103781ADDGF100991999999999999999999
0029029500999991905022313004+61483+021350FM-12+000699999V0202301N006219999999N0000001N9-00061+99999103761ADDGF100991999999999999999999
0029029500999991905022320004+61483+021350FM-12+000699999V0201801N004119999999N0000001N9-00611+99999103591ADDGF100991999999999999999999
0029029500999991905022406004+61483+021350FM-12+000699999V0201801N002119999999N0000001N9-00941+99999103381ADDGF100991999999999999999999
0029029500999991905022413004+61483+021350FM-12+000699999V0201801N002119999999N0000001N9-00281+99999103321ADDGF108991999999999999999999
0029029500999991905022420004+61483+021350FM-12+000699999V0201401N002119999999N0000001N9-00441+99999103061ADDGF108991999999999999999999
0029029500999991905022506004+61483+021350FM-12+000699999V0201401N004119999999N0000001N9-00331+99999102311ADDGF108991999999999999999999
0029029500999991905022513004+61483+021350FM-12+000699999V0201601N002119999999N0000001N9-00111+99999101921ADDGF108991999999999999999999
0029029500999991905022520004+61483+021350FM-12+000699999V0201401N002119999999N0000001N9-00221+99999101521ADDGF108991999999999999999999
0029029500999991905022606004+61483+021350FM-12+000699999V0202001N002119999999N0000001N9-00111+99999101271ADDGF108991999999999999999999
0029029500999991905022613004+61483+021350FM-12+000699999V0202001N004119999999N0000001N9+00171+99999101361ADDGF108991999999999999999999
0029029500999991905022620004+61483+021350FM-12+000699999V0202301N008219999999N0000001N9+00001+99999101431ADDGF108991999999999999999999
0029029500999991905022706004+61483+021350FM-12+000699999V0201801N006219999999N0000001N9+00001+99999101441ADDGF108991999999999999999999
0029029500999991905022713004+61483+021350FM-12+000699999V0201401N002119999999N0000001N9+00111+99999101501ADDGF108991999999999999999999
0029029500999991905022720004+61483+021350FM-12+000699999V0201601N008219999999N0000001N9-00061+99999101181ADDGF108991999999999999999999
0029029500999991905022806004+61483+021350FM-12+000699999V0201401N008219999999N0000001N9-00501+99999100941ADDGF108991999999999999999999
0029029500999991905022813004+61483+021350FM-12+000699999V0201401N006219999999N0000001N9-00281+99999100821ADDGF108991999999999999999999
0029029500999991905022820004+61483+021350FM-12+000699999V0201401N006219999999N0000001N9-00331+99999100621ADDGF108991999999999999999999
0029029500999991905030106004+61483+021350FM-12+000699999V0201401N004119999999N0000001N9-00281+99999100621ADDGF108991999999999999999999
0029029500999991905030113004+61483+021350FM-12+000699999V0201601N004119999999N0000001N9+00221+99999100681ADDGF108991999999999999999999
0029029500999991905030120004+61483+021350FM-12+000699999V0201401N006219999999N0000001N9+00061+99999100711ADDGF108991999999999999999999
0029029500999991905030206004+61483+021350FM-12+000699999V0202001N006219999999N0000001N9+00001+99999100981ADDGF108991999999999999999999
0029029500999991905030213004+61483+021350FM-12+000699999V0202301N004119999999N0000001N9+00221+99999101221ADDGF108991999999999999999999
0029029500999991905030220004+61483+021350FM-12+000699999V0202701N002119999999N0000001N9+00001+99999101561ADDGF108991999999999999999999
0029029500999991905030306004+61483+021350FM-12+000699999V0202301N002119999999N0000001N9-00501+99999101941ADDGF100991999999999999999999
0029029500999991905030313004+61483+021350FM-12+000699999V0202301N002119999999N0000001N9+00061+99999102161ADDGF101991999999999999999999
0029029500999991905030320004+61483+021350FM-12+000699999V0201601N002119999999N0000001N9-00671+99999102141ADDGF100991999999999999999999
0029029500999991905030406004+61483+021350FM-12+000699999V0202301N006219999999N0000001N9-00281+99999102031ADDGF108991999999999999999999
0029029500999991905030413004+61483+021350FM-12+000699999V0202301N006219999999N0000001N9+00061+99999101831ADDGF108991999999999999999999
0029029500999991905030420004+61483+021350FM-12+000699999V0202301N004119999999N0000001N9-00221+99999101721ADDGF103991999999999999999999
0029029500999991905030506004+61483+021350FM-12+000699999V0209991C000019999999N0000001N9-00561+99999101521ADDGF107991999999999999999999
0029029500999991905030513004+61483+021350FM-12+000699999V0203601N002119999999N0000001N9-00111+99999101541ADDGF108991999999999999999999
0029029500999991905030520004+61483+021350FM-12+000699999V0200501N006219999999N0000001N9-00221+99999101541ADDGF108991999999999999999999
0029029500999991905030606004+61483+021350FM-12+000699999V0200701N002119999999N0000001N9-00221+99999101541ADDGF108991999999999999999999
0029029500999991905030613004+61483+021350FM-12+000699999V0200501N002119999999N0000001N9-00221+99999101481ADDGF108991999999999999999999
0029029500999991905030620004+61483+021350FM-12+000699999V0200701N002119999999N0000001N9-00441+99999101561ADDGF108991999999999999999999
0029029500999991905030706004+61483+021350FM-12+000699999V0200701N002119999999N0000001N9-00611+99999101701ADDGF108991999999999999999999
0029029500999991905030713004+61483+021350FM-12+000699999V0201401N002119999999N0000001N9-00171+99999101701ADDGF108991999999999999999999
0029029500999991905030720004+61483+021350FM-12+000699999V0201401N002119999999N0000001N9-00501+99999101661ADDGF108991999999999999999999
0029029500999991905030806004+61483+021350FM-12+000699999V0201401N002119999999N0000001N9-00671+99999101541ADDGF108991999999999999999999
0029029500999991905030813004+61483+021350FM-12+000699999V0201601N002119999999N0000001N9-00221+99999101511ADDGF108991999999999999999999
0029029500999991905030820004+61483+021350FM-12+000699999V0201401N002119999999N0000001N9-00611+99999101301ADDGF108991999999999999999999
0029029500999991905030906004+61483+021350FM-12+000699999V0201601N006219999999N0000001N9-00721+99999100701ADDGF108991999999999999999999
0029029500999991905030913004+61483+021350FM-12+000699999V0201801N006219999999N0000001N9-00111+99999100581ADDGF108991999999999999999999
0029029500999991905030920004+61483+021350FM-12+000699999V0201601N008219999999N0000001N9-00331+99999099941ADDGF108991999999999999999999
0029029500999991905031006004+61483+021350FM-12+000699999V0201401N008219999999N0000001N9-00221+99999098951ADDGF108991999999999999999999
0029029500999991905031013004+61483+021350FM-12+000699999V0201601N009819999999N0000001N9+00001+99999097881ADDGF108991999999999999999999
0029029500999991905031020004+61483+021350FM-12+000699999V0202301N011819999999N0000001N9-00111+99999098361ADDGF108991999999999999999999
0029029500999991905031106004+61483+021350FM-12+000699999V0202901N002119999999N0000001N9-00611+99999099081ADDGF108991999999999999999999
0000029500999991905031113004+61483+021350FM-12+000699999V02099999999999999999N0000001N9+00111+99999099561
0029029500999991905031120004+61483+021350FM-12+000699999V0200901N002119999999N0000001N9-00331+99999099781ADDGF108991999999999999999999
0029029500999991905031206004+61483+021350FM-12+000699999V0201401N008219999999N0000001N9+00001+99999098881ADDGF108991999999999999999999
0029029500999991905031213004+61483+021350FM-12+000699999V0202001N009819999999N0000001N9+00281+99999098941ADDGF100991999999999999999999
0029029500999991905031220004+61483+021350FM-12+000699999V0202301N008219999999N0000001N9+00111+99999099591ADDGF107991999999999999999999
0029029500999991905031306004+61483+021350FM-12+000699999V0201601N002119999999N0000001N9-00171+99999100181ADDGF108991999999999999999999
0029029500999991905031313004+61483+021350FM-12+000699999V0200701N002119999999N0000001N9+00331+99999100581ADDGF104991999999999999999999
0029029500999991905031320004+61483+021350FM-12+000699999V0200901N004119999999N0000001N9+00111+99999100841ADDGF108991999999999999999999
0029029500999991905031406004+61483+021350FM-12+000699999V0201601N002119999999N0000001N9+00111+99999100951ADDGF108991999999999999999999
0029029500999991905031413004+61483+021350FM-12+000699999V0202001N004119999999N0000001N9+00441+99999101121ADDGF108991999999999999999999
0029029500999991905031420004+61483+021350FM-12+000699999V0201801N004119999999N0000001N9+00111+99999101321ADDGF108991999999999999999999
0029029500999991905031506004+61483+021350FM-12+000699999V0201601N004119999999N0000001N9+00061+99999101551ADDGF108991999999999999999999
0029029500999991905031513004+61483+021350FM-12+000699999V0201601N002119999999N0000001N9+00171+99999101721ADDGF108991999999999999999999
0029029500999991905031520004+61483+021350FM-12+000699999V0201601N006219999999N0000001N9+00061+99999101551ADDGF108991999999999999999999
0029029500999991905031606004+61483+021350FM-12+000699999V0201601N006219999999N0000001N9+00001+99999101471ADDGF108991999999999999999999
0029029500999991905031613004+61483+021350FM-12+000699999V0201601N006219999999N0000001N9+00111+99999101581ADDGF108991999999999999999999
0029029500999991905031620004+61483+021350FM-12+000699999V0201601N008219999999N0000001N9-00061+99999101721ADDGF108991999999999999999999
0029029500999991905031706004+61483+021350FM-12+000699999V0201401N004119999999N0000001N9-00061+99999101911ADDGF108991999999999999999999
0029029500999991905031713004+61483+021350FM-12+000699999V0201801N002119999999N0000001N9+00391+99999102161ADDGF108991999999999999999999
0029029500999991905031720004+61483+021350FM-12+000699999V0200901N002119999999N0000001N9-00391+99999102271ADDGF100991999999999999999999
0029029500999991905031806004+61483+021350FM-12+000699999V0201401N004119999999N0000001N9-00611+99999102271ADDGF100991999999999999999999
0029029500999991905031813004+61483+021350FM-12+000699999V0201601N002119999999N0000001N9+00221+99999102261ADDGF108991999999999999999999
0029029500999991905031820004+61483+021350FM-12+000699999V0201401N002119999999N0000001N9-00061+99999102081ADDGF108991999999999999999999
0029029500999991905031906004+61483+021350FM-12+000699999V0201101N002119999999N0000001N9-00171+99999101991ADDGF108991999999999999999999
0029029500999991905031913004+61483+021350FM-12+000699999V0200501N002119999999N0000001N9+00061+99999101961ADDGF101991999999999999999999
0029029500999991905031920004+61483+021350FM-12+000699999V0200501N002119999999N0000001N9-00391+99999102121ADDGF100991999999999999999999
0029029500999991905032006004+61483+021350FM-12+000699999V0201601N002119999999N0000001N9-00781+99999102181ADDGF101991999999999999999999
0029029500999991905032013004+61483+021350FM-12+000699999V0209991C000019999999N0000001N9+00061+99999102181ADDGF106991999999999999999999
0000029500999991905032020004+61483+021350FM-12+000699999V02099999999999999999N0000001N9-00281+99999102181
0029029500999991905032106004+61483+021350FM-12+000699999V0209991C000019999999N0000001N9-00221+99999102221ADDGF108991999999999999999999
0029029500999991905032113004+61483+021350FM-12+000699999V0203201N002119999999N0000001N9+00111+99999102221ADDGF108991999999999999999999
0000029500999991905032120004+61483+021350FM-12+000699999V02099999999999999999N0000001N9-00281+99999102121
0029029500999991905032206004+61483+021350FM-12+000699999V0201601N004119999999N0000001N9-00171+99999102041ADDGF108991999999999999999999
0029029500999991905032213004+61483+021350FM-12+000699999V0202001N004119999999N0000001N9+00281+99999102121ADDGF102991999999999999999999
0029029500999991905032220004+61483+021350FM-12+000699999V0201401N002119999999N0000001N9-00221+99999102361ADDGF102991999999999999999999
0029029500999991905032306004+61483+021350FM-12+000699999V0201101N004119999999N0000001N9-00441+99999102741ADDGF100991999999999999999999
0029029500999991905032313004+61483+021350FM-12+000699999V0200501N002119999999N0000001N9+00111+99999102841ADDGF100991999999999999999999
0029029500999991905032320004+61483+021350FM-12+000699999V0200901N004119999999N0000001N9-00281+99999102921ADDGF100991999999999999999999
0029029500999991905032406004+61483+021350FM-12+000699999V0200901N002119999999N0000001N9-00671+99999103021ADDGF101991999999999999999999
0029029500999991905032413004+61483+021350FM-12+000699999V0200901N002119999999N0000001N9+00221+99999102961ADDGF101991999999999999999999
0029029500999991905032420004+61483+021350FM-12+000699999V0200701N002119999999N0000001N9-00501+99999102741ADDGF100991999999999999999999
0029029500999991905032506004+61483+021350FM-12+000699999V0200901N002119999999N0000001N9-00671+99999102391ADDGF108991999999999999999999
0029029500999991905032513004+61483+021350FM-12+000699999V0203601N004119999999N0000001N9-00061+99999102121ADDGF105991999999999999999999
0029029500999991905032520004+61483+021350FM-12+000699999V0200901N002119999999N0000001N9-00331+99999102101ADDGF108991999999999999999999
0029029500999991905032606004+61483+021350FM-12+000699999V0200901N002119999999N0000001N9-00331+99999102121ADDGF108991999999999999999999
0029029500999991905032613004+61483+021350FM-12+000699999V0201801N004119999999N0000001N9+00111+99999102151ADDGF108991999999999999999999
0029029500999991905032620004+61483+021350FM-12+000699999V0200901N004119999999N0000001N9-00331+99999102021ADDGF108991999999999999999999
0029029500999991905032706004+61483+021350FM-12+000699999V0200901N002119999999N0000001N9-00111+99999101591ADDGF108991999999999999999999
0029029500999991905032713004+61483+021350FM-12+000699999V0201601N004119999999N0000001N9+00111+99999101551ADDGF108991999999999999999999
0029029500999991905032720004+61483+021350FM-12+000699999V0202701N002119999999N0000001N9-00221+99999101551ADDGF108991999999999999999999
0029029500999991905032806004+61483+021350FM-12+000699999V0201401N004119999999N0000001N9-00501+99999101431ADDGF105991999999999999999999
0029029500999991905032813004+61483+021350FM-12+000699999V0202301N002119999999N0000001N9+00111+99999101521ADDGF101991999999999999999999
0029029500999991905032820004+61483+021350FM-12+000699999V0200901N002119999999N0000001N9-00611+99999101581ADDGF105991999999999999999999
0029029500999991905032906004+61483+021350FM-12+000699999V0201601N006219999999N0000001N9-00441+99999101621ADDGF108991999999999999999999
0029029500999991905032913004+61483+021350FM-12+000699999V0201801N008219999999N0000001N9+00281+99999101501ADDGF106991999999999999999999
0029029500999991905032920004+61483+021350FM-12+000699999V0201601N011819999999N0000001N9+00001+99999101021ADDGF108991999999999999999999
0029029500999991905033006004+61483+021350FM-12+000699999V0202301N008219999999N0000001N9+00111+99999100341ADDGF108991999999999999999999
0029029500999991905033013004+61483+021350FM-12+000699999V0201801N008219999999N0000001N9+00331+99999100311ADDGF108991999999999999999999
0029029500999991905033020004+61483+021350FM-12+000699999V0201801N008219999999N0000001N9+00111+99999100071ADDGF108991999999999999999999
0029029500999991905033106004+61483+021350FM-12+000699999V0201801N006219999999N0000001N9+00111+99999099841ADDGF108991999999999999999999
0029029500999991905033113004+61483+021350FM-12+000699999V0202301N004119999999N0000001N9+00331+99999099911ADDGF100991999999999999999999
0029029500999991905033120004+61483+021350FM-12+000699999V0200901N002119999999N0000001N9-00061+99999100071ADDGF108991999999999999999999
0029029500999991905040106004+61483+021350FM-12+000699999V0200901N002119999999N0000001N9+00061+99999100321ADDGF108991999999999999999999
0029029500999991905040113004+61483+021350FM-12+000699999V0200501N004119999999N0000001N9+00171+99999100631ADDGF108991999999999999999999
0029029500999991905040120004+61483+021350FM-12+000699999V0203601N004119999999N0000001N9-00171+99999101001ADDGF101991999999999999999999
0029029500999991905040206004+61483+021350FM-12+000699999V0200201N004119999999N0000001N9-00781+99999101591ADDGF100991999999999999999999
0029029500999991905040213004+61483+021350FM-12+000699999V0200501N006219999999N0000001N9-00111+99999101581ADDGF100991999999999999999999
0029029500999991905040220004+61483+021350FM-12+000699999V0200701N004119999999N0000001N9-00611+99999101461ADDGF101991999999999999999999
0029029500999991905040306004+61483+021350FM-12+000699999V0201401N004119999999N0000001N9-00831+99999101161ADDGF101991999999999999999999
0029029500999991905040313004+61483+021350FM-12+000699999V0202301N006219999999N0000001N9+00221+99999100951ADDGF102991999999999999999999
0029029500999991905040320004+61483+021350FM-12+000699999V0202301N006219999999N0000001N9-00391+99999100741ADDGF101991999999999999999999
0029029500999991905040406004+61483+021350FM-12+000699999V0202301N002119999999N0000001N9-00111+99999100381ADDGF106991999999999999999999
0029029500999991905040413004+61483+021350FM-12+000699999V0202301N006219999999N0000001N9+00331+99999100361ADDGF108991999999999999999999
0029029500999991905040420004+61483+021350FM-12+000699999V0202001N011819999999N0000001N9+00061+99999099621ADDGF108991999999999999999999
0029029500999991905040506004+61483+021350FM-12+000699999V0201801N011819999999N0000001N9+00061+99999098421ADDGF108991999999999999999999
0029029500999991905040513004+61483+021350FM-12+000699999V0202001N008219999999N0000001N9+00171+99999097661ADDGF108991999999999999999999
0029029500999991905040520004+61483+021350FM-12+000699999V0203601N024219999999N0000001N9-00721+99999097821ADDGF108991999999999999999999
0029029500999991905040606004+61483+021350FM-12+000699999V0203201N008219999999N0000001N9-00781+99999099141ADDGF106991999999999999999999
0029029500999991905040613004+61483+021350FM-12+000699999V0202901N006219999999N0000001N9-00331+99999099741ADDGF101991999999999999999999
0029029500999991905040620004+61483+021350FM-12+000699999V0201401N002119999999N0000001N9-00671+99999099941ADDGF101991999999999999999999
0029029500999991905040706004+61483+021350FM-12+000699999V0209991C000019999999N0000001N9-00781+99999099801ADDGF101991999999999999999999
0029029500999991905040713004+61483+021350FM-12+000699999V0203401N002119999999N0000001N9-00111+99999099741ADDGF102991999999999999999999
0029029500999991905040720004+61483+021350FM-12+000699999V0201401N002119999999N0000001N9-00671+99999099511ADDGF100991999999999999999999
0029029500999991905040806004+61483+021350FM-12+000699999V0200501N002119999999N0000001N9-00941+99999099201ADDGF106991999999999999999999
0029029500999991905040813004+61483+021350FM-12+000699999V0202901N008219999999N0000001N9-00171+99999099241ADDGF102991999999999999999999
0029029500999991905040820004+61483+021350FM-12+000699999V0202301N008219999999N0000001N9-00281+99999099241ADDGF100991999999999999999999
0029029500999991905040906004+61483+021350FM-12+000699999V0201601N004119999999N0000001N9-00501+99999099401ADDGF105991999999999999999999
0029029500999991905040913004+61483+021350FM-12+000699999V0201801N006219999999N0000001N9+00171+99999098761ADDGF108991999999999999999999
0029029500999991905040920004+61483+021350FM-12+000699999V0201401N002119999999N0000001N9-00441+99999099961ADDGF101991999999999999999999
0029029500999991905041006004+61483+021350FM-12+000699999V0200901N002119999999N0000001N9-00781+99999100271ADDGF100991999999999999999999
0029029500999991905041013004+61483+021350FM-12+000699999V0201101N006219999999N0000001N9+00171+99999100511ADDGF106991999999999999999999
0029029500999991905041020004+61483+021350FM-12+000699999V0200701N004119999999N0000001N9-00561+99999100911ADDGF101991999999999999999999
0029029500999991905041106004+61483+021350FM-12+000699999V0200701N002119999999N0000001N9-00891+99999101381ADDGF101991999999999999999999
0029029500999991905041113004+61483+021350FM-12+000699999V0203601N004119999999N0000001N9+00001+99999101551ADDGF100991999999999999999999
0029029500999991905041120004+61483+021350FM-12+000699999V0200701N004119999999N0000001N9-00441+99999101561ADDGF108991999999999999999999
0029029500999991905041206004+61483+021350FM-12+000699999V0200901N004119999999N0000001N9-00171+99999101671ADDGF102991999999999999999999
0029029500999991905041213004+61483+021350FM-12+000699999V0209991C000019999999N0000001N9+00721+99999101671ADDGF108991999999999999999999
0029029500999991905041220004+61483+021350FM-12+000699999V0200901N004119999999N0000001N9+00001+99999101741ADDGF108991999999999999999999
0029029500999991905041306004+61483+021350FM-12+000699999V0200901N002119999999N0000001N9+00061+99999102001ADDGF108991999999999999999999
0029029500999991905041313004+61483+021350FM-12+000699999V0203401N002119999999N0000001N9+00221+99999102271ADDGF104991999999999999999999
0029029500999991905041320004+61483+021350FM-12+000699999V0200501N002119999999N0000001N9-00281+99999102551ADDGF100991999999999999999999
0029029500999991905041406004+61483+021350FM-12+000699999V0200701N004119999999N0000001N9-00391+99999102791ADDGF108991999999999999999999
0029029500999991905041413004+61483+021350FM-12+000699999V0203601N002119999999N0000001N9+00171+99999102791ADDGF106991999999999999999999
0029029500999991905041420004+61483+021350FM-12+000699999V0200501N002119999999N0000001N9-00171+99999102801ADDGF102991999999999999999999
0029029500999991905041506004+61483+021350FM-12+000699999V0200901N004119999999N0000001N9-00111+99999102871ADDGF102991999999999999999999
0029029500999991905041513004+61483+021350FM-12+000699999V0200901N004119999999N0000001N9+00611+99999102901ADDGF107991999999999999999999
0029029500999991905041520004+61483+021350FM-12+000699999V0200901N002119999999N0000001N9+00001+99999102921ADDGF105991999999999999999999
0029029500999991905041606004+61483+021350FM-12+000699999V0200901N002119999999N0000001N9+00221+99999102981ADDGF106991999999999999999999
0029029500999991905041613004+61483+021350FM-12+000699999V0203601N002119999999N0000001N9+00331+99999102991ADDGF106991999999999999999999
0029029500999991905041620004+61483+021350FM-12+000699999V0200901N004119999999N0000001N9-00061+99999103221ADDGF102991999999999999999999
0029029500999991905041706004+61483+021350FM-12+000699999V0200701N004119999999N0000001N9+00061+99999103241ADDGF101991999999999999999999
0029029500999991905041713004+61483+021350FM-12+000699999V0200901N008219999999N0000001N9+00671+99999103201ADDGF100991999999999999999999
0029029500999991905041720004+61483+021350FM-12+000699999V0200701N004119999999N0000001N9+00001+99999103281ADDGF100991999999999999999999
0029029500999991905041806004+61483+021350FM-12+000699999V0200901N004119999999N0000001N9-00111+99999103241ADDGF100991999999999999999999
0029029500999991905041813004+61483+021350FM-12+000699999V0200701N004119999999N0000001N9+00561+99999103061ADDGF100991999999999999999999
0029029500999991905041820004+61483+021350FM-12+000699999V0200901N002119999999N0000001N9+00171+99999102861ADDGF100991999999999999999999
0029029500999991905041906004+61483+021350FM-12+000699999V0200701N004119999999N0000001N9+00111+99999102391ADDGF107991999999999999999999
0029029500999991905041913004+61483+021350FM-12+000699999V0200901N008219999999N0000001N9+00671+99999102111ADDGF108991999999999999999999
0029029500999991905041920004+61483+021350FM-12+000699999V0200901N006219999999N0000001N9+00221+99999101801ADDGF108991999999999999999999
0029029500999991905042006004+61483+021350FM-12+000699999V0200901N006219999999N0000001N9+00281+99999101301ADDGF108991999999999999999999
0029029500999991905042013004+61483+021350FM-12+000699999V0200901N004119999999N0000001N9+00561+99999101081ADDGF108991999999999999999999
0029029500999991905042020004+61483+021350FM-12+000699999V0201401N002119999999N0000001N9+00221+99999100821ADDGF108991999999999999999999
0029029500999991905042106004+61483+021350FM-12+000699999V0201401N002119999999N0000001N9+00221+99999100441ADDGF108991999999999999999999
0029029500999991905042113004+61483+021350FM-12+000699999V0202001N006219999999N0000001N9+00281+99999100461ADDGF108991999999999999999999
0029029500999991905042120004+61483+021350FM-12+000699999V0201801N006219999999N0000001N9+00001+99999100341ADDGF108991999999999999999999
0029029500999991905042206004+61483+021350FM-12+000699999V0201401N004119999999N0000001N9+00111+99999999999ADDGF108991999999999999999999
0029029500999991905042213004+61483+021350FM-12+000699999V0200501N004119999999N0000001N9+00061+99999099381ADDGF108991999999999999999999
0029029500999991905042220004+61483+021350FM-12+000699999V0209991C000019999999N0000001N9+00221+99999098751ADDGF108991999999999999999999
0029029500999991905042306004+61483+021350FM-12+000699999V0202001N006219999999N0000001N9+00061+99999099361ADDGF102991999999999999999999
0029029500999991905042313004+61483+021350FM-12+000699999V0202001N008219999999N0000001N9+00501+99999099721ADDGF102991999999999999999999
0029029500999991905042320004+61483+021350FM-12+000699999V0201801N006219999999N0000001N9-00061+99999100071ADDGF101991999999999999999999
0029029500999991905042406004+61483+021350FM-12+000699999V0201601N006219999999N0000001N9+00061+99999100501ADDGF108991999999999999999999
0029029500999991905042413004+61483+021350FM-12+000699999V0202301N004119999999N0000001N9+00391+99999100561ADDGF108991999999999999999999
0029029500999991905042420004+61483+021350FM-12+000699999V0201801N002119999999N0000001N9-00061+99999100401ADDGF108991999999999999999999
0029029500999991905042506004+61483+021350FM-12+000699999V0202301N004119999999N0000001N9+00001+99999100221ADDGF108991999999999999999999
0029029500999991905042513004+61483+021350FM-12+000699999V0202301N004119999999N0000001N9+00391+99999100351ADDGF101991999999999999999999
0029029500999991905042520004+61483+021350FM-12+000699999V0201601N009819999999N0000001N9+00171+99999100421ADDGF108991999999999999999999
0029029500999991905042606004+61483+021350FM-12+000699999V0201801N006219999999N0000001N9+00171+99999100341ADDGF108991999999999999999999
0029029500999991905042613004+61483+021350FM-12+000699999V0202301N008219999999N0000001N9+00391+99999100701ADDGF108991999999999999999999
0029029500999991905042620004+61483+021350FM-12+000699999V0201601N006219999999N0000001N9+00171+99999100841ADDGF106991999999999999999999
0029029500999991905042706004+61483+021350FM-12+000699999V0201801N006219999999N0000001N9+00281+99999101021ADDGF108991999999999999999999
0029029500999991905042713004+61483+021350FM-12+000699999V0202001N006219999999N0000001N9+00671+99999101191ADDGF104991999999999999999999
0029029500999991905042720004+61483+021350FM-12+000699999V0201601N004119999999N0000001N9+00111+99999101281ADDGF101991999999999999999999
0029029500999991905042806004+61483+021350FM-12+000699999V0201401N006219999999N0000001N9+00111+99999101311ADDGF108991999999999999999999
0029029500999991905042813004+61483+021350FM-12+000699999V0202001N006219999999N0000001N9+00721+99999101311ADDGF108991999999999999999999
0029029500999991905042820004+61483+021350FM-12+000699999V0201601N006219999999N0000001N9+00221+99999101271ADDGF108991999999999999999999
0029029500999991905042906004+61483+021350FM-12+000699999V0201401N006219999999N0000001N9+00441+99999101031ADDGF108991999999999999999999
0029029500999991905042913004+61483+021350FM-12+000699999V0201601N006219999999N0000001N9+00501+99999100951ADDGF108991999999999999999999
0029029500999991905042920004+61483+021350FM-12+000699999V0201601N006219999999N0000001N9+00441+99999100921ADDGF108991999999999999999999
0029029500999991905043006004+61483+021350FM-12+000699999V0201801N008219999999N0000001N9+00331+99999100831ADDGF108991999999999999999999
0029029500999991905043013004+61483+021350FM-12+000699999V0202001N009819999999N0000001N9+00781+99999101121ADDGF108991999999999999999999
0029029500999991905043020004+61483+021350FM-12+000699999V0201601N008219999999N0000001N9+00501+99999101241ADDGF108991999999999999999999
0029029500999991905050106004+61483+021350FM-12+000699999V0201601N008219999999N0000001N9+00671+99999100671ADDGF108991999999999999999999
0029029500999991905050113004+61483+021350FM-12+000699999V0202001N009819999999N0000001N9+00441+99999100901ADDGF108991999999999999999999
0029029500999991905050120004+61483+021350FM-12+000699999V0201601N008219999999N0000001N9+00441+99999100871ADDGF108991999999999999999999
0029029500999991905050206004+61483+021350FM-12+000699999V0202001N008219999999N0000001N9+00391+99999101001ADDGF102991999999999999999999
0029029500999991905050213004+61483+021350FM-12+000699999V0202001N008219999999N0000001N9+00721+99999101221ADDGF105991999999999999999999
0029029500999991905050220004+61483+021350FM-12+000699999V0201601N008219999999N0000001N9+00721+99999101001ADDGF108991999999999999999999
0029029500999991905050306004+61483+021350FM-12+000699999V0201601N006219999999N0000001N9+00611+99999100661ADDGF108991999999999999999999
0029029500999991905050313004+61483+021350FM-12+000699999V0202001N008219999999N0000001N9+00941+99999100841ADDGF108991999999999999999999
0029029500999991905050320004+61483+021350FM-12+000699999V0202001N006219999999N0000001N9+00331+99999101021ADDGF108991999999999999999999
0029029500999991905050406004+61483+021350FM-12+000699999V0202001N008219999999N0000001N9+00441+99999101441ADDGF108991999999999999999999
0029029500999991905050413004+61483+021350FM-12+000699999V0202301N008219999999N0000001N9+00671+99999101671ADDGF108991999999999999999999
0029029500999991905050420004+61483+021350FM-12+000699999V0202001N006219999999N0000001N9+00281+99999101801ADDGF102991999999999999999999
0029029500999991905050506004+61483+021350FM-12+000699999V0203401N009819999999N0000001N9+00281+99999102661ADDGF108991999999999999999999
0029029500999991905050513004+61483+021350FM-12+000699999V0203201N006219999999N0000001N9+00391+99999103141ADDGF101991999999999999999999
0029029500999991905050520004+61483+021350FM-12+000699999V0203201N002119999999N0000001N9+00111+99999103241ADDGF108991999999999999999999
0029029500999991905050606004+61483+021350FM-12+000699999V0201601N004119999999N0000001N9+00331+99999103301ADDGF101991999999999999999999
0029029500999991905050613004+61483+021350FM-12+000699999V0202301N006219999999N0000001N9+00671+99999103111ADDGF102991999999999999999999
0029029500999991905050620004+61483+021350FM-12+000699999V0201801N006219999999N0000001N9+00441+99999102741ADDGF101991999999999999999999
0029029500999991905050706004+61483+021350FM-12+000699999V0202001N008219999999N0000001N9+00501+99999102471ADDGF103991999999999999999999
0029029500999991905050713004+61483+021350FM-12+000699999V0202001N009819999999N0000001N9+00891+99999102021ADDGF108991999999999999999999
0029029500999991905050720004+61483+021350FM-12+000699999V0201601N011819999999N0000001N9+00831+99999101391ADDGF108991999999999999999999
0029029500999991905050806004+61483+021350FM-12+000699999V0201801N006219999999N0000001N9+00941+99999100701ADDGF106991999999999999999999
0029029500999991905050813004+61483+021350FM-12+000699999V0202301N008219999999N0000001N9+01001+99999100311ADDGF106991999999999999999999
0029029500999991905050820004+61483+021350FM-12+000699999V0203201N006219999999N0000001N9+00281+99999100601ADDGF108991999999999999999999
0029029500999991905050906004+61483+021350FM-12+000699999V0203601N002119999999N0000001N9+00281+99999101101ADDGF108991999999999999999999
0029029500999991905050913004+61483+021350FM-12+000699999V0203601N006219999999N0000001N9+00441+99999101421ADDGF107991999999999999999999
0029029500999991905050920004+61483+021350FM-12+000699999V0203601N008219999999N0000001N9+00391+99999101471ADDGF106991999999999999999999
0029029500999991905051006004+61483+021350FM-12+000699999V0200501N004119999999N0000001N9+00561+99999101821ADDGF105991999999999999999999
0029029500999991905051013004+61483+021350FM-12+000699999V0203601N008219999999N0000001N9+00561+99999101821ADDGF101991999999999999999999
0029029500999991905051020004+61483+021350FM-12+000699999V0200501N004119999999N0000001N9+00561+99999101681ADDGF101991999999999999999999
0029029500999991905051106004+61483+021350FM-12+000699999V0200901N002119999999N0000001N9+00831+99999101501ADDGF108991999999999999999999
0029029500999991905051113004+61483+021350FM-12+000699999V0202001N004119999999N0000001N9+00561+99999101431ADDGF108991999999999999999999
0029029500999991905051120004+61483+021350FM-12+000699999V0202001N004119999999N0000001N9+00331+99999101341ADDGF108991999999999999999999
0029029500999991905051206004+61483+021350FM-12+000699999V0201401N004119999999N0000001N9+00441+99999101151ADDGF102991999999999999999999
0029029500999991905051213004+61483+021350FM-12+000699999V0203401N004119999999N0000001N9+00611+99999101071ADDGF108991999999999999999999
0029029500999991905051220004+61483+021350FM-12+000699999V0209991C000019999999N0000001N9+00671+99999101031ADDGF108991999999999999999999
0029029500999991905051306004+61483+021350FM-12+000699999V0200501N004119999999N0000001N9+00561+99999101281ADDGF108991999999999999999999
0029029500999991905051313004+61483+021350FM-12+000699999V0203401N006219999999N0000001N9+00501+99999101681ADDGF108991999999999999999999
0029029500999991905051320004+61483+021350FM-12+000699999V0203401N004119999999N0000001N9+00441+99999101921ADDGF107991999999999999999999
0029029500999991905051406004+61483+021350FM-12+000699999V0203401N002119999999N0000001N9+00611+99999102111ADDGF107991999999999999999999
0029029500999991905051413004+61483+021350FM-12+000699999V0203401N006219999999N0000001N9+00671+99999102151ADDGF102991999999999999999999
0029029500999991905051420004+61483+021350FM-12+000699999V0203401N004119999999N0000001N9+00561+99999102141ADDGF101991999999999999999999
0029029500999991905051506004+61483+021350FM-12+000699999V0203201N004119999999N0000001N9+00561+99999102071ADDGF100991999999999999999999
0029029500999991905051513004+61483+021350FM-12+000699999V0203201N006219999999N0000001N9+00671+99999102201ADDGF103991999999999999999999
0029029500999991905051520004+61483+021350FM-12+000699999V0202901N002119999999N0000001N9+00561+99999102201ADDGF101991999999999999999999
0029029500999991905051606004+61483+021350FM-12+000699999V0203601N008219999999N0000001N9+00501+99999102561ADDGF100991999999999999999999
0029029500999991905051613004+61483+021350FM-12+000699999V0203401N006219999999N0000001N9+00611+99999102681ADDGF102991999999999999999999
0029029500999991905051620004+61483+021350FM-12+000699999V0202701N004119999999N0000001N9+00501+99999102661ADDGF102991999999999999999999
0029029500999991905051706004+61483+021350FM-12+000699999V0202501N006219999999N0000001N9+00671+99999102641ADDGF106991999999999999999999
0029029500999991905051713004+61483+021350FM-12+000699999V0202501N006219999999N0000001N9+01001+99999102591ADDGF101991999999999999999999
0029029500999991905051720004+61483+021350FM-12+000699999V0202001N002119999999N0000001N9+00781+99999102351ADDGF101991999999999999999999
0029029500999991905051806004+61483+021350FM-12+000699999V0202901N004119999999N0000001N9+00721+99999102141ADDGF108991999999999999999999
0029029500999991905051813004+61483+021350FM-12+000699999V0203201N006219999999N0000001N9+00831+99999102161ADDGF101991999999999999999999
0029029500999991905051820004+61483+021350FM-12+000699999V0203201N006219999999N0000001N9+00721+99999102071ADDGF102991999999999999999999
0029029500999991905051906004+61483+021350FM-12+000699999V0203601N006219999999N0000001N9+00561+99999102121ADDGF100991999999999999999999
0029029500999991905051913004+61483+021350FM-12+000699999V0202701N006219999999N0000001N9+00671+99999101861ADDGF101991999999999999999999
0029029500999991905051920004+61483+021350FM-12+000699999V0202001N004119999999N0000001N9+00561+99999101151ADDGF106991999999999999999999
0029029500999991905052006004+61483+021350FM-12+000699999V0203601N009819999999N0000001N9+00441+99999100961ADDGF107991999999999999999999
0029029500999991905052013004+61483+021350FM-12+000699999V0203601N013919999999N0000001N9+00331+99999101061ADDGF101991999999999999999999
0029029500999991905052020004+61483+021350FM-12+000699999V0203401N008219999999N0000001N9+00281+99999100881ADDGF101991999999999999999999
0029029500999991905052106004+61483+021350FM-12+000699999V0203601N006219999999N0000001N9+00331+99999100751ADDGF101991999999999999999999
0029029500999991905052113004+61483+021350FM-12+000699999V0203401N011819999999N0000001N9+00331+99999100751ADDGF101991999999999999999999
0029029500999991905052120004+61483+021350FM-12+000699999V0203401N009819999999N0000001N9+00281+99999100781ADDGF101991999999999999999999
0029029500999991905052206004+61483+021350FM-12+000699999V0203401N004119999999N0000001N9+00391+99999100841ADDGF100991999999999999999999
0029029500999991905052213004+61483+021350FM-12+000699999V0203201N006219999999N0000001N9+00501+99999101101ADDGF101991999999999999999999
0029029500999991905052220004+61483+021350FM-12+000699999V0203201N004119999999N0000001N9+00331+99999100871ADDGF101991999999999999999999
0029029500999991905052306004+61483+021350FM-12+000699999V0209991C000019999999N0000001N9+00501+99999100701ADDGF101991999999999999999999
0029029500999991905052313004+61483+021350FM-12+000699999V0200201N008219999999N0000001N9+00561+99999100521ADDGF102991999999999999999999
0029029500999991905052320004+61483+021350FM-12+000699999V0203201N004119999999N0000001N9+00441+99999100421ADDGF108991999999999999999999
0029029500999991905052406004+61483+021350FM-12+000699999V0201801N002119999999N0000001N9+00671+99999100641ADDGF108991999999999999999999
0029029500999991905052413004+61483+021350FM-12+000699999V0202301N004119999999N0000001N9+01061+99999100791ADDGF103991999999999999999999
0029029500999991905052420004+61483+021350FM-12+000699999V0202001N004119999999N0000001N9+00721+99999100821ADDGF108991999999999999999999
0029029500999991905052506004+61483+021350FM-12+000699999V0202001N008219999999N0000001N9+00721+99999100921ADDGF101991999999999999999999
0029029500999991905052513004+61483+021350FM-12+000699999V0202301N006219999999N0000001N9+01001+99999101121ADDGF101991999999999999999999
0029029500999991905052520004+61483+021350FM-12+000699999V0202001N008219999999N0000001N9+00671+99999101241ADDGF108991999999999999999999
0029029500999991905052606004+61483+021350FM-12+000699999V0202501N002119999999N0000001N9+00671+99999101661ADDGF100991999999999999999999
0029029500999991905052613004+61483+021350FM-12+000699999V0202001N004119999999N0000001N9+00941+99999101881ADDGF101991999999999999999999
0029029500999991905052620004+61483+021350FM-12+000699999V0202001N006219999999N0000001N9+00721+99999101791ADDGF108991999999999999999999
0029029500999991905052706004+61483+021350FM-12+000699999V0203201N002119999999N0000001N9+00671+99999102071ADDGF101991999999999999999999
0029029500999991905052713004+61483+021350FM-12+000699999V0200201N002119999999N0000001N9+00891+99999102101ADDGF101991999999999999999999
0029029500999991905052720004+61483+021350FM-12+000699999V0201601N004119999999N0000001N9+00941+99999101881ADDGF108991999999999999999999
0029029500999991905052806004+61483+021350FM-12+000699999V0202301N006219999999N0000001N9+00721+99999101671ADDGF108991999999999999999999
0029029500999991905052813004+61483+021350FM-12+000699999V0202501N006219999999N0000001N9+00721+99999102041ADDGF108991999999999999999999
0029029500999991905052820004+61483+021350FM-12+000699999V0202501N002119999999N0000001N9+00561+99999102191ADDGF108991999999999999999999
0000029500999991905052906004+61483+021350FM-12+000699999V02099999999999999999N0000001N9+00721+99999102241
0029029500999991905052913004+61483+021350FM-12+000699999V0202301N006219999999N0000001N9+01221+99999102151ADDGF102991999999999999999999
0029029500999991905052920004+61483+021350FM-12+000699999V0202301N009819999999N0000001N9+01171+99999101681ADDGF108991999999999999999999
0029029500999991905053006004+61483+021350FM-12+000699999V0202501N009819999999N0000001N9+00941+99999101481ADDGF107991999999999999999999
0029029500999991905053013004+61483+021350FM-12+000699999V0202001N008219999999N0000001N9+01391+99999101321ADDGF106991999999999999999999
0029029500999991905053020004+61483+021350FM-12+000699999V0202301N008219999999N0000001N9+01061+99999101001ADDGF108991999999999999999999
0029029500999991905053106004+61483+021350FM-12+000699999V0203401N006219999999N0000001N9+00781+99999101501ADDGF100991999999999999999999
0029029500999991905053113004+61483+021350FM-12+000699999V0202901N004119999999N0000001N9+01001+99999101671ADDGF104991999999999999999999
0029029500999991905053120004+61483+021350FM-12+000699999V0202901N004119999999N0000001N9+00891+99999101621ADDGF101991999999999999999999
0029029500999991905060106004+61483+021350FM-12+000699999V0200501N002119999999N0000001N9+01111+99999101701ADDGF106991999999999999999999
0029029500999991905060113004+61483+021350FM-12+000699999V0200201N002119999999N0000001N9+01281+99999101521ADDGF107991999999999999999999
0029029500999991905060120004+61483+021350FM-12+000699999V0201101N006219999999N0000001N9+01221+99999101071ADDGF108991999999999999999999
0029029500999991905060206004+61483+021350FM-12+000699999V0202001N008219999999N0000001N9+01001+99999100461ADDGF108991999999999999999999
0029029500999991905060213004+61483+021350FM-12+000699999V0202301N006219999999N0000001N9+01061+99999100631ADDGF108991999999999999999999
0029029500999991905060220004+61483+021350FM-12+000699999V0202701N008219999999N0000001N9+00721+99999100701ADDGF108991999999999999999999
0029029500999991905060306004+61483+021350FM-12+000699999V0202301N009819999999N0000001N9+00831+99999100321ADDGF108991999999999999999999
0029029500999991905060313004+61483+021350FM-12+000699999V0202301N009819999999N0000001N9+01221+99999100441ADDGF103991999999999999999999
0029029500999991905060320004+61483+021350FM-12+000699999V0203601N002119999999N0000001N9+00941+99999100591ADDGF105991999999999999999999
0029029500999991905060406004+61483+021350FM-12+000699999V0201601N004119999999N0000001N9+01111+99999100861ADDGF108991999999999999999999
0029029500999991905060413004+61483+021350FM-12+000699999V0202501N004119999999N0000001N9+01171+99999101041ADDGF101991999999999999999999
0029029500999991905060420004+61483+021350FM-12+000699999V0203201N002119999999N0000001N9+01001+99999101261ADDGF101991999999999999999999
0029029500999991905060506004+61483+021350FM-12+000699999V0201601N002119999999N0000001N9+01001+99999101081ADDGF108991999999999999999999
0029029500999991905060513004+61483+021350FM-12+000699999V0202001N004119999999N0000001N9+01281+99999101001ADDGF108991999999999999999999
0029029500999991905060520004+61483+021350FM-12+000699999V0201801N004119999999N0000001N9+01061+99999100671ADDGF107991999999999999999999
0029029500999991905060606004+61483+021350FM-12+000699999V0203201N008219999999N0000001N9+00831+99999100681ADDGF102991999999999999999999
0029029500999991905060613004+61483+021350FM-12+000699999V0203201N009819999999N0000001N9+01001+99999100871ADDGF104991999999999999999999
0029029500999991905060620004+61483+021350FM-12+000699999V0200201N009819999999N0000001N9+00781+99999100881ADDGF101991999999999999999999
0029029500999991905060706004+61483+021350FM-12+000699999V0200501N008219999999N0000001N9+01001+99999101111ADDGF103991999999999999999999
0029029500999991905060713004+61483+021350FM-12+000699999V0203601N011819999999N0000001N9+01061+99999101301ADDGF106991999999999999999999
0029029500999991905060720004+61483+021350FM-12+000699999V0200501N009819999999N0000001N9+01001+99999101581ADDGF101991999999999999999999
0029029500999991905060806004+61483+021350FM-12+000699999V0200501N008219999999N0000001N9+00831+99999101961ADDGF100991999999999999999999
0029029500999991905060813004+61483+021350FM-12+000699999V0203601N011819999999N0000001N9+01001+99999101991ADDGF102991999999999999999999
0029029500999991905060820004+61483+021350FM-12+000699999V0200501N006219999999N0000001N9+00941+99999102191ADDGF101991999999999999999999
0029029500999991905060906004+61483+021350FM-12+000699999V02099999999999999999N0000001N9+00831+99999102231ADDGF100991999999999999999999
0029029500999991905060913004+61483+021350FM-12+000699999V0203601N011819999999N0000001N9+00941+99999102181ADDGF102991999999999999999999
0029029500999991905060920004+61483+021350FM-12+000699999V0200201N008219999999N0000001N9+00721+99999102101ADDGF101991999999999999999999
0029029500999991905061006004+61483+021350FM-12+000699999V0209991C000019999999N0000001N9+00781+99999102161ADDGF101991999999999999999999
0029029500999991905061013004+61483+021350FM-12+000699999V0202701N006219999999N0000001N9+01001+99999102041ADDGF106991999999999999999999
0029029500999991905061020004+61483+021350FM-12+000699999V0202301N002119999999N0000001N9+00831+99999101781ADDGF102991999999999999999999
0029029500999991905061106004+61483+021350FM-12+000699999V0202301N008219999999N0000001N9+00941+99999101391ADDGF106991999999999999999999
0029029500999991905061113004+61483+021350FM-12+000699999V0203401N006219999999N0000001N9+01061+99999101301ADDGF104991999999999999999999
0029029500999991905061120004+61483+021350FM-12+000699999V0203401N004119999999N0000001N9+01001+99999101191ADDGF102991999999999999999999
0029029500999991905061206004+61483+021350FM-12+000699999V0203601N002119999999N0000001N9+00941+99999101471ADDGF100991999999999999999999
0029029500999991905061213004+61483+021350FM-12+000699999V0203601N006219999999N0000001N9+01171+99999101761ADDGF108991999999999999999999
0029029500999991905061220004+61483+021350FM-12+000699999V0200501N002119999999N0000001N9+01061+99999101981ADDGF102991999999999999999999
0029029500999991905061306004+61483+021350FM-12+000699999V0209991C000019999999N0000001N9+01281+99999102381ADDGF100991999999999999999999
0029029500999991905061313004+61483+021350FM-12+000699999V0203601N006219999999N0000001N9+01281+99999102381ADDGF100991999999999999999999
0029029500999991905061320004+61483+021350FM-12+000699999V0200501N002119999999N0000001N9+01221+99999102481ADDGF102991999999999999999999
0029029500999991905061406004+61483+021350FM-12+000699999V0200701N002119999999N0000001N9+01561+99999102621ADDGF100991999999999999999999
0029029500999991905061413004+61483+021350FM-12+000699999V0200201N008219999999N0000001N9+01501+99999102381ADDGF107991999999999999999999
0029029500999991905061420004+61483+021350FM-12+000699999V0200501N004119999999N0000001N9+01441+99999102231ADDGF107991999999999999999999
0029029500999991905061506004+61483+021350FM-12+000699999V0200901N004119999999N0000001N9+01781+99999101951ADDGF106991999999999999999999
0029029500999991905061513004+61483+021350FM-12+000699999V0201101N002119999999N0000001N9+01561+99999101781ADDGF108991999999999999999999
0029029500999991905061520004+61483+021350FM-12+000699999V0201801N002119999999N0000001N9+01331+99999101801ADDGF108991999999999999999999
0029029500999991905061606004+61483+021350FM-12+000699999V0200701N004119999999N0000001N9+01171+99999102101ADDGF108991999999999999999999
0029029500999991905061613004+61483+021350FM-12+000699999V0203601N002119999999N0000001N9+01391+99999102141ADDGF102991999999999999999999
0029029500999991905061620004+61483+021350FM-12+000699999V0200501N002119999999N0000001N9+01441+99999102081ADDGF104991999999999999999999
0029029500999991905061706004+61483+021350FM-12+000699999V0200701N004119999999N0000001N9+01561+99999101981ADDGF108991999999999999999999
0029029500999991905061713004+61483+021350FM-12+000699999V0200201N006219999999N0000001N9+01721+99999101751ADDGF108991999999999999999999
0029029500999991905061720004+61483+021350FM-12+000699999V0200501N002119999999N0000001N9+01501+99999101541ADDGF106991999999999999999999
0029029500999991905061806004+61483+021350FM-12+000699999V0200501N002119999999N0000001N9+01501+99999101421ADDGF108991999999999999999999
0029029500999991905061813004+61483+021350FM-12+000699999V0200201N004119999999N0000001N9+01721+99999101391ADDGF103991999999999999999999
0029029500999991905061820004+61483+021350FM-12+000699999V0200501N002119999999N0000001N9+01721+99999101281ADDGF107991999999999999999999
0029029500999991905061906004+61483+021350FM-12+000699999V0200501N006219999999N0000001N9+01501+99999101031ADDGF106991999999999999999999
0029029500999991905061913004+61483+021350FM-12+000699999V0200501N004119999999N0000001N9+02221+99999100961ADDGF106991999999999999999999
0029029500999991905061920004+61483+021350FM-12+000699999V0201401N002119999999N0000001N9+01781+99999100981ADDGF104991999999999999999999
0029029500999991905062006004+61483+021350FM-12+000699999V0202501N004119999999N0000001N9+01331+99999101031ADDGF108991999999999999999999
0029029500999991905062013004+61483+021350FM-12+000699999V0202901N006219999999N0000001N9+01331+99999101421ADDGF108991999999999999999999
0029029500999991905062020004+61483+021350FM-12+000699999V0202001N006219999999N0000001N9+01331+99999101501ADDGF107991999999999999999999
0029029500999991905062106004+61483+021350FM-12+000699999V0202501N008219999999N0000001N9+01331+99999101471ADDGF102991999999999999999999
0029029500999991905062113004+61483+021350FM-12+000699999V0202001N008219999999N0000001N9+01721+99999101541ADDGF107991999999999999999999
0029029500999991905062120004+61483+021350FM-12+000699999V0202001N006219999999N0000001N9+01221+99999101201ADDGF106991999999999999999999
0029029500999991905062206004+61483+021350FM-12+000699999V0201601N006219999999N0000001N9+01391+99999100741ADDGF108991999999999999999999
0029029500999991905062213004+61483+021350FM-12+000699999V0202501N006219999999N0000001N9+01671+99999100881ADDGF103991999999999999999999
0029029500999991905062220004+61483+021350FM-12+000699999V0203601N004119999999N0000001N9+01281+99999101301ADDGF102991999999999999999999
0029029500999991905062306004+61483+021350FM-12+000699999V0200201N008219999999N0000001N9+01281+99999102121ADDGF100991999999999999999999
0029029500999991905062313004+61483+021350FM-12+000699999V0203601N011819999999N0000001N9+01331+99999102441ADDGF101991999999999999999999
0029029500999991905062320004+61483+021350FM-12+000699999V0200201N006219999999N0000001N9+01331+99999102601ADDGF102991999999999999999999
0029029500999991905062406004+61483+021350FM-12+000699999V0202501N002119999999N0000001N9+01441+99999102711ADDGF107991999999999999999999
0029029500999991905062413004+61483+021350FM-12+000699999V0203201N004119999999N0000001N9+01501+99999102601ADDGF101991999999999999999999
0029029500999991905062420004+61483+021350FM-12+000699999V0202701N002119999999N0000001N9+01561+99999102471ADDGF100991999999999999999999
0029029500999991905062506004+61483+021350FM-12+000699999V0202301N002119999999N0000001N9+01671+99999102511ADDGF100991999999999999999999
0029029500999991905062513004+61483+021350FM-12+000699999V0202301N002119999999N0000001N9+02061+99999102391ADDGF100991999999999999999999
0029029500999991905062520004+61483+021350FM-12+000699999V0201801N004119999999N0000001N9+01831+99999102121ADDGF102991999999999999999999
0029029500999991905062606004+61483+021350FM-12+000699999V0202901N008219999999N0000001N9+01441+99999102021ADDGF102991999999999999999999
0029029500999991905062613004+61483+021350FM-12+000699999V0203401N004119999999N0000001N9+01671+99999102181ADDGF100991999999999999999999
0029029500999991905062620004+61483+021350FM-12+000699999V0202701N002119999999N0000001N9+01671+99999102041ADDGF100991999999999999999999
0029029500999991905062706004+61483+021350FM-12+000699999V0201801N006219999999N0000001N9+01781+99999101761ADDGF100991999999999999999999
0029029500999991905062713004+61483+021350FM-12+000699999V0202001N008219999999N0000001N9+02171+99999101471ADDGF100991999999999999999999
0029029500999991905062720004+61483+021350FM-12+000699999V0202001N006219999999N0000001N9+01831+99999101081ADDGF106991999999999999999999
0029029500999991905062806004+61483+021350FM-12+000699999V0201801N006219999999N0000001N9+01941+99999100841ADDGF100991999999999999999999
0029029500999991905062813004+61483+021350FM-12+000699999V0202301N004119999999N0000001N9+02221+99999100741ADDGF102991999999999999999999
0029029500999991905062820004+61483+021350FM-12+000699999V0201801N002119999999N0000001N9+01941+99999100631ADDGF107991999999999999999999
0029029500999991905062906004+61483+021350FM-12+000699999V0201801N002119999999N0000001N9+01831+99999100641ADDGF101991999999999999999999
0029029500999991905062913004+61483+021350FM-12+000699999V0202301N006219999999N0000001N9+02061+99999100671ADDGF102991999999999999999999
0029029500999991905062920004+61483+021350FM-12+000699999V0201801N002119999999N0000001N9+01831+99999100871ADDGF102991999999999999999999
0000029500999991905063006004+61483+021350FM-12+000699999V02099999999999999999N0000001N9+01721+99999101111
0029029500999991905063013004+61483+021350FM-12+000699999V0200501N004119999999N0000001N9+01941+99999101261ADDGF108991999999999999999999
0029029500999991905063020004+61483+021350FM-12+000699999V0200701N004119999999N0000001N9+01831+99999101481ADDGF105991999999999999999999
0029029500999991905070106004+61483+021350FM-12+000699999V0200501N002119999999N0000001N9+01721+99999101751ADDGF108991999999999999999999
0029029500999991905070113004+61483+021350FM-12+000699999V0203601N008219999999N0000001N9+01721+99999101901ADDGF108991999999999999999999
0029029500999991905070120004+61483+021350FM-12+000699999V0200201N004119999999N0000001N9+01501+99999101941ADDGF101991999999999999999999
0029029500999991905070206004+61483+021350FM-12+000699999V0202301N004119999999N0000001N9+01781+99999102041ADDGF102991999999999999999999
0029029500999991905070213004+61483+021350FM-12+000699999V0202301N006219999999N0000001N9+02171+99999101941ADDGF105991999999999999999999
0029029500999991905070220004+61483+021350FM-12+000699999V0202001N008219999999N0000001N9+01831+99999101721ADDGF102991999999999999999999
0029029500999991905070306004+61483+021350FM-12+000699999V0201801N008219999999N0000001N9+01891+99999101421ADDGF100991999999999999999999
0029029500999991905070313004+61483+021350FM-12+000699999V0202001N009819999999N0000001N9+02171+99999101241ADDGF103991999999999999999999
0029029500999991905070320004+61483+021350FM-12+000699999V0202301N006219999999N0000001N9+01671+99999100991ADDGF106991999999999999999999
0029029500999991905070406004+61483+021350FM-12+000699999V0201801N002119999999N0000001N9+01831+99999100821ADDGF100991999999999999999999
0000029500999991905070413004+61483+021350FM-12+000699999V02099999999999999999N0000001N9+01781+99999100941
0029029500999991905070420004+61483+021350FM-12+000699999V0203201N006219999999N0000001N9+01501+99999101281ADDGF100991999999999999999999
0029029500999991905070506004+61483+021350FM-12+000699999V0202301N002119999999N0000001N9+01721+99999101141ADDGF103991999999999999999999
0029029500999991905070513004+61483+021350FM-12+000699999V0202001N009819999999N0000001N9+02061+99999100781ADDGF101991999999999999999999
0029029500999991905070520004+61483+021350FM-12+000699999V0202001N008219999999N0000001N9+01781+99999100401ADDGF102991999999999999999999
0029029500999991905070606004+61483+021350FM-12+000699999V0202301N011819999999N0000001N9+01721+99999099921ADDGF108991999999999999999999
0029029500999991905070613004+61483+021350FM-12+000699999V0203201N009819999999N0000001N9+01501+99999099801ADDGF101991999999999999999999
0029029500999991905070620004+61483+021350FM-12+000699999V0203201N002119999999N0000001N9+01331+99999099681ADDGF107991999999999999999999
0029029500999991905070706004+61483+021350FM-12+000699999V0203401N009819999999N0000001N9+01171+99999099441ADDGF108991999999999999999999
0029029500999991905070713004+61483+021350FM-12+000699999V0203201N015919999999N0000001N9+01501+99999099881ADDGF102991999999999999999999
0029029500999991905070720004+61483+021350FM-12+000699999V0203201N018019999999N0000001N9+01441+99999999999ADDGF106991999999999999999999
0029029500999991905070806004+61483+021350FM-12+000699999V0203201N014919999999N0000001N9+01221+99999999999ADDGF102991999999999999999999
0029029500999991905070813004+61483+021350FM-12+000699999V0203201N013919999999N0000001N9+01441+99999100081ADDGF106991999999999999999999
0029029500999991905070820004+61483+021350FM-12+000699999V0203201N013919999999N0000001N9+01441+99999100101ADDGF102991999999999999999999
0000029500999991905070906004+61483+021350FM-12+000699999V02099999999999999999N0000001N9+01281+99999100391
0029029500999991905070913004+61483+021350FM-12+000699999V0203201N009819999999N0000001N9+01441+99999100421ADDGF102991999999999999999999
0029029500999991905070920004+61483+021350FM-12+000699999V0203201N011819999999N0000001N9+01441+99999100381ADDGF102991999999999999999999
0029029500999991905071006004+61483+021350FM-12+000699999V0203401N011819999999N0000001N9+01221+99999100581ADDGF101991999999999999999999
0029029500999991905071013004+61483+021350FM-12+000699999V0203401N009819999999N0000001N9+01331+99999100791ADDGF102991999999999999999999
0029029500999991905071020004+61483+021350FM-12+000699999V0203401N009819999999N0000001N9+01331+99999100861ADDGF108991999999999999999999
0029029500999991905071106004+61483+021350FM-12+000699999V0203401N008219999999N0000001N9+01221+99999100881ADDGF100991999999999999999999
0029029500999991905071113004+61483+021350FM-12+000699999V0203201N009819999999N0000001N9+01221+99999100961ADDGF101991999999999999999999
0029029500999991905071120004+61483+021350FM-12+000699999V0202901N004119999999N0000001N9+01221+99999100981ADDGF101991999999999999999999
0029029500999991905071206004+61483+021350FM-12+000699999V0203201N004119999999N0000001N9+01221+99999100911ADDGF101991999999999999999999
0029029500999991905071213004+61483+021350FM-12+000699999V0203401N006219999999N0000001N9+01331+99999100921ADDGF101991999999999999999999
0029029500999991905071220004+61483+021350FM-12+000699999V0203401N004119999999N0000001N9+01111+99999100921ADDGF100991999999999999999999
0029029500999991905071306004+61483+021350FM-12+000699999V0202701N002119999999N0000001N9+01171+99999100721ADDGF108991999999999999999999
0029029500999991905071313004+61483+021350FM-12+000699999V0203401N011819999999N0000001N9+01111+99999100701ADDGF108991999999999999999999
0029029500999991905071320004+61483+021350FM-12+000699999V0203401N008219999999N0000001N9+01001+99999100721ADDGF108991999999999999999999
0029029500999991905071406004+61483+021350FM-12+000699999V0203601N008219999999N0000001N9+00941+99999100741ADDGF108991999999999999999999
0029029500999991905071413004+61483+021350FM-12+000699999V0203401N011819999999N0000001N9+01001+99999100921ADDGF108991999999999999999999
0029029500999991905071420004+61483+021350FM-12+000699999V0203601N006219999999N0000001N9+00781+99999100981ADDGF101991999999999999999999
0029029500999991905071506004+61483+021350FM-12+000699999V0203601N008219999999N0000001N9+00831+99999101001ADDGF107991999999999999999999
0029029500999991905071513004+61483+021350FM-12+000699999V0203601N009819999999N0000001N9+00941+99999100991ADDGF103991999999999999999999
0029029500999991905071520004+61483+021350FM-12+000699999V0200201N002119999999N0000001N9+00781+99999100911ADDGF101991999999999999999999
0029029500999991905071606004+61483+021350FM-12+000699999V0209991C000019999999N0000001N9+00941+99999100841ADDGF102991999999999999999999
0029029500999991905071613004+61483+021350FM-12+000699999V0209991C000019999999N0000001N9+01331+99999100801ADDGF101991999999999999999999
0029029500999991905071620004+61483+021350FM-12+000699999V0200901N002119999999N0000001N9+01391+99999100631ADDGF108991999999999999999999
0029029500999991905071706004+61483+021350FM-12+000699999V0201401N004119999999N0000001N9+01501+99999100271ADDGF108991999999999999999999
0029029500999991905071713004+61483+021350FM-12+000699999V0201801N002119999999N0000001N9+01721+99999100151ADDGF108991999999999999999999
0029029500999991905071720004+61483+021350FM-12+000699999V0201801N002119999999N0000001N9+01391+99999100041ADDGF108991999999999999999999
0029029500999991905071806004+61483+021350FM-12+000699999V0201801N004119999999N0000001N9+01331+99999099871ADDGF103991999999999999999999
0029029500999991905071813004+61483+021350FM-12+000699999V0202301N002119999999N0000001N9+01561+99999100111ADDGF102991999999999999999999
0029029500999991905071820004+61483+021350FM-12+000699999V0202301N004119999999N0000001N9+01221+99999100271ADDGF106991999999999999999999
0029029500999991905071906004+61483+021350FM-12+000699999V0202301N004119999999N0000001N9+01331+99999100591ADDGF101991999999999999999999
0029029500999991905071913004+61483+021350FM-12+000699999V0202301N002119999999N0000001N9+01671+99999100951ADDGF101991999999999999999999
0029029500999991905071920004+61483+021350FM-12+000699999V0203201N002119999999N0000001N9+01281+99999101061ADDGF102991999999999999999999
0029029500999991905072006004+61483+021350FM-12+000699999V0200201N004119999999N0000001N9+01281+99999101111ADDGF105991999999999999999999
0029029500999991905072013004+61483+021350FM-12+000699999V0200901N004119999999N0000001N9+01941+99999101141ADDGF108991999999999999999999
0029029500999991905072020004+61483+021350FM-12+000699999V0200701N008219999999N0000001N9+01441+99999101221ADDGF108991999999999999999999
0029029500999991905072106004+61483+021350FM-12+000699999V0200701N006219999999N0000001N9+01561+99999101121ADDGF108991999999999999999999
0029029500999991905072113004+61483+021350FM-12+000699999V0200901N006219999999N0000001N9+02111+99999101081ADDGF107991999999999999999999
0000029500999991905072120004+61483+021350FM-12+000699999V02099999999999999999N0000001N9+01501+99999101221
0029029500999991905072206004+61483+021350FM-12+000699999V0201101N006219999999N0000001N9+01611+99999101061ADDGF108991999999999999999999
0029029500999991905072213004+61483+021350FM-12+000699999V0203601N002119999999N0000001N9+01671+99999101081ADDGF108991999999999999999999
0029029500999991905072220004+61483+021350FM-12+000699999V0200201N004119999999N0000001N9+01441+99999101001ADDGF107991999999999999999999
0029029500999991905072306004+61483+021350FM-12+000699999V0200701N008219999999N0000001N9+01941+99999100461ADDGF102991999999999999999999
0029029500999991905072313004+61483+021350FM-12+000699999V0201101N009819999999N0000001N9+02221+99999100481ADDGF108991999999999999999999
0029029500999991905072320004+61483+021350FM-12+000699999V0200701N004119999999N0000001N9+01831+99999100481ADDGF107991999999999999999999
0029029500999991905072406004+61483+021350FM-12+000699999V0201101N004119999999N0000001N9+01781+99999100671ADDGF105991999999999999999999
0029029500999991905072413004+61483+021350FM-12+000699999V0202301N004119999999N0000001N9+02061+99999100671ADDGF106991999999999999999999
0029029500999991905072420004+61483+021350FM-12+000699999V0200501N002119999999N0000001N9+01561+99999100861ADDGF103991999999999999999999
0029029500999991905072506004+61483+021350FM-12+000699999V0200901N002119999999N0000001N9+01721+99999100841ADDGF106991999999999999999999
0029029500999991905072513004+61483+021350FM-12+000699999V0203601N004119999999N0000001N9+01671+99999100761ADDGF105991999999999999999999
0029029500999991905072520004+61483+021350FM-12+000699999V0209991C000019999999N0000001N9+01611+99999100791ADDGF106991999999999999999999
0029029500999991905072606004+61483+021350FM-12+000699999V0200501N002119999999N0000001N9+01391+99999100721ADDGF108991999999999999999999
0029029500999991905072613004+61483+021350FM-12+000699999V0202901N002119999999N0000001N9+01221+99999100661ADDGF105991999999999999999999
0029029500999991905072620004+61483+021350FM-12+000699999V0201801N002119999999N0000001N9+01501+99999100711ADDGF102991999999999999999999
0029029500999991905072706004+61483+021350FM-12+000699999V0201401N004119999999N0000001N9+01391+99999100671ADDGF108991999999999999999999
0029029500999991905072713004+61483+021350FM-12+000699999V0203201N002119999999N0000001N9+01721+99999100711ADDGF108991999999999999999999
0029029500999991905072720004+61483+021350FM-12+000699999V0202701N004119999999N0000001N9+01501+99999100801ADDGF107991999999999999999999
0029029500999991905072806004+61483+021350FM-12+000699999V0203201N004119999999N0000001N9+01611+99999100901ADDGF100991999999999999999999
0029029500999991905072813004+61483+021350FM-12+000699999V0203401N004119999999N0000001N9+01671+99999100881ADDGF103991999999999999999999
0029029500999991905072820004+61483+021350FM-12+000699999V0209991C000019999999N0000001N9+01331+99999100791ADDGF106991999999999999999999
0029029500999991905072906004+61483+021350FM-12+000699999V0202301N006219999999N0000001N9+01611+99999100661ADDGF108991999999999999999999
0029029500999991905072913004+61483+021350FM-12+000699999V0203201N008219999999N0000001N9+01611+99999100831ADDGF102991999999999999999999
0029029500999991905072920004+61483+021350FM-12+000699999V0202701N006219999999N0000001N9+01501+99999100721ADDGF101991999999999999999999
0000029500999991905073006004+61483+021350FM-12+000699999V02099999999999999999N0000001N9+01501+99999100581
0029029500999991905073013004+61483+021350FM-12+000699999V0202501N006219999999N0000001N9+01721+99999100431ADDGF102991999999999999999999
0029029500999991905073020004+61483+021350FM-12+000699999V0202001N006219999999N0000001N9+01561+99999100121ADDGF107991999999999999999999
0029029500999991905073106004+61483+021350FM-12+000699999V0201601N008219999999N0000001N9+01611+99999100021ADDGF108991999999999999999999
0029029500999991905073113004+61483+021350FM-12+000699999V0201801N004119999999N0000001N9+01831+99999100041ADDGF108991999999999999999999
0029029500999991905073120004+61483+021350FM-12+000699999V0201801N002119999999N0000001N9+01391+99999100231ADDGF107991999999999999999999
0029029500999991905080106004+61483+021350FM-12+000699999V0201801N004119999999N0000001N9+01441+99999100501ADDGF101991999999999999999999
0029029500999991905080113004+61483+021350FM-12+000699999V0202301N004119999999N0000001N9+01831+99999100741ADDGF101991999999999999999999
0029029500999991905080120004+61483+021350FM-12+000699999V0202501N002119999999N0000001N9+01441+99999101071ADDGF101991999999999999999999
0029029500999991905080206004+61483+021350FM-12+000699999V0201601N004119999999N0000001N9+01501+99999101151ADDGF108991999999999999999999
0029029500999991905080213004+61483+021350FM-12+000699999V0202301N004119999999N0000001N9+02111+99999101031ADDGF108991999999999999999999
0029029500999991905080220004+61483+021350FM-12+000699999V0200901N008219999999N0000001N9+01441+99999100391ADDGF108991999999999999999999
0029029500999991905080306004+61483+021350FM-12+000699999V0202301N013919999999N0000001N9+01441+99999099921ADDGF108991999999999999999999
0029029500999991905080313004+61483+021350FM-12+000699999V0202301N011819999999N0000001N9+01331+99999100191ADDGF108991999999999999999999
0029029500999991905080320004+61483+021350FM-12+000699999V0202901N013919999999N0000001N9+01331+99999100381ADDGF105991999999999999999999
0029029500999991905080406004+61483+021350FM-12+000699999V0202701N006219999999N0000001N9+01331+99999101081ADDGF100991999999999999999999
0029029500999991905080413004+61483+021350FM-12+000699999V0202701N004119999999N0000001N9+01441+99999101461ADDGF105991999999999999999999
0029029500999991905080420004+61483+021350FM-12+000699999V0202301N002119999999N0000001N9+01281+99999101591ADDGF102991999999999999999999
0029029500999991905080506004+61483+021350FM-12+000699999V0201601N002119999999N0000001N9+01441+99999101781ADDGF102991999999999999999999
0029029500999991905080513004+61483+021350FM-12+000699999V0201401N004119999999N0000001N9+02001+99999101631ADDGF108991999999999999999999
0029029500999991905080520004+61483+021350FM-12+000699999V0201401N006219999999N0000001N9+01831+99999101361ADDGF108991999999999999999999
0029029500999991905080606004+61483+021350FM-12+000699999V0201401N004119999999N0000001N9+01441+99999101151ADDGF108991999999999999999999
0029029500999991905080613004+61483+021350FM-12+000699999V0202301N006219999999N0000001N9+02001+99999101041ADDGF107991999999999999999999
0029029500999991905080620004+61483+021350FM-12+000699999V0200901N002119999999N0000001N9+01561+99999101001ADDGF108991999999999999999999
0029029500999991905080706004+61483+021350FM-12+000699999V0202701N004119999999N0000001N9+01561+99999101081ADDGF100991999999999999999999
0029029500999991905080713004+61483+021350FM-12+000699999V0202701N006219999999N0000001N9+01611+99999101441ADDGF101991999999999999999999
0029029500999991905080720004+61483+021350FM-12+000699999V0202501N002119999999N0000001N9+01441+99999101601ADDGF108991999999999999999999
0029029500999991905080806004+61483+021350FM-12+000699999V0203601N002119999999N0000001N9+01501+99999101631ADDGF108991999999999999999999
0029029500999991905080813004+61483+021350FM-12+000699999V0203201N008219999999N0000001N9+01331+99999101401ADDGF108991999999999999999999
0029029500999991905080820004+61483+021350FM-12+000699999V0203401N009819999999N0000001N9+01331+99999101111ADDGF108991999999999999999999
0029029500999991905080906004+61483+021350FM-12+000699999V0203201N008219999999N0000001N9+01331+99999101081ADDGF108991999999999999999999
0029029500999991905080913004+61483+021350FM-12+000699999V0202901N006219999999N0000001N9+01501+99999101361ADDGF107991999999999999999999
0029029500999991905080920004+61483+021350FM-12+000699999V0209991C000019999999N0000001N9+01221+99999101401ADDGF102991999999999999999999
0029029500999991905081006004+61483+021350FM-12+000699999V0201401N006219999999N0000001N9+01331+99999101261ADDGF102991999999999999999999
0029029500999991905081013004+61483+021350FM-12+000699999V0202301N002119999999N0000001N9+01941+99999101041ADDGF108991999999999999999999
0029029500999991905081020004+61483+021350FM-12+000699999V0201801N006219999999N0000001N9+01331+99999100511ADDGF108991999999999999999999
0029029500999991905081106004+61483+021350FM-12+000699999V0202301N013919999999N0000001N9+01441+99999099911ADDGF108991999999999999999999
0029029500999991905081113004+61483+021350FM-12+000699999V0202001N015919999999N0000001N9+01721+99999099781ADDGF102991999999999999999999
0029029500999991905081120004+61483+021350FM-12+000699999V0202301N011819999999N0000001N9+01501+99999099581ADDGF108991999999999999999999
0029029500999991905081206004+61483+021350FM-12+000699999V0202301N006219999999N0000001N9+01441+99999099701ADDGF108991999999999999999999
0029029500999991905081213004+61483+021350FM-12+000699999V0202501N006219999999N0000001N9+01611+99999099871ADDGF103991999999999999999999
0029029500999991905081220004+61483+021350FM-12+000699999V0203201N006219999999N0000001N9+01221+99999099841ADDGF108991999999999999999999
0029029500999991905081306004+61483+021350FM-12+000699999V0203201N013919999999N0000001N9+01281+99999099981ADDGF108991999999999999999999
0029029500999991905081313004+61483+021350FM-12+000699999V0202901N011819999999N0000001N9+01441+99999100661ADDGF106991999999999999999999
0029029500999991905081320004+61483+021350FM-12+000699999V0202501N006219999999N0000001N9+01441+99999100871ADDGF106991999999999999999999
0029029500999991905081406004+61483+021350FM-12+000699999V0203401N008219999999N0000001N9+01281+99999100941ADDGF108991999999999999999999
0029029500999991905081413004+61483+021350FM-12+000699999V0203201N008219999999N0000001N9+01391+99999101271ADDGF101991999999999999999999
0029029500999991905081420004+61483+021350FM-12+000699999V0202701N008219999999N0000001N9+01391+99999101471ADDGF101991999999999999999999
0029029500999991905081506004+61483+021350FM-12+000699999V0202701N006219999999N0000001N9+01281+99999101701ADDGF100991999999999999999999
0029029500999991905081513004+61483+021350FM-12+000699999V0202501N004119999999N0000001N9+01561+99999101741ADDGF105991999999999999999999
0029029500999991905081520004+61483+021350FM-12+000699999V0201801N002119999999N0000001N9+01331+99999101841ADDGF108991999999999999999999
0029029500999991905081606004+61483+021350FM-12+000699999V0200901N008219999999N0000001N9+01171+99999101081ADDGF108991999999999999999999
0029029500999991905081613004+61483+021350FM-12+000699999V0202001N015919999999N0000001N9+01561+99999100801ADDGF107991999999999999999999
0029029500999991905081620004+61483+021350FM-12+000699999V0201801N002119999999N0000001N9+01281+99999100921ADDGF106991999999999999999999
0029029500999991905081706004+61483+021350FM-12+000699999V0203601N006219999999N0000001N9+01281+99999101081ADDGF108991999999999999999999
0029029500999991905081713004+61483+021350FM-12+000699999V0203401N013919999999N0000001N9+01331+99999101471ADDGF100991999999999999999999
0029029500999991905081720004+61483+021350FM-12+000699999V0203201N008219999999N0000001N9+01331+99999101661ADDGF102991999999999999999999
0029029500999991905081806004+61483+021350FM-12+000699999V0203201N004119999999N0000001N9+01331+99999101861ADDGF102991999999999999999999
0029029500999991905081813004+61483+021350FM-12+000699999V0202501N002119999999N0000001N9+01501+99999101991ADDGF101991999999999999999999
0029029500999991905081820004+61483+021350FM-12+000699999V0201801N002119999999N0000001N9+01171+99999101921ADDGF103991999999999999999999
0029029500999991905081906004+61483+021350FM-12+000699999V0201801N006219999999N0000001N9+01441+99999101661ADDGF108991999999999999999999
0029029500999991905081913004+61483+021350FM-12+000699999V0202001N011819999999N0000001N9+01721+99999101271ADDGF108991999999999999999999
0029029500999991905081920004+61483+021350FM-12+000699999V0201601N015919999999N0000001N9+01501+99999100721ADDGF108991999999999999999999
0029029500999991905082006004+61483+021350FM-12+000699999V0201801N002119999999N0000001N9+01221+99999100301ADDGF108991999999999999999999
0029029500999991905082013004+61483+021350FM-12+000699999V0202301N006219999999N0000001N9+01561+99999100281ADDGF106991999999999999999999
0029029500999991905082020004+61483+021350FM-12+000699999V0202301N002119999999N0000001N9+01391+99999100241ADDGF107991999999999999999999
0029029500999991905082106004+61483+021350FM-12+000699999V0200901N002119999999N0000001N9+01281+99999100391ADDGF108991999999999999999999
0029029500999991905082113004+61483+021350FM-12+000699999V0203201N006219999999N0000001N9+01331+99999100761ADDGF108991999999999999999999
0029029500999991905082120004+61483+021350FM-12+000699999V0203201N008219999999N0000001N9+01281+99999100961ADDGF106991999999999999999999
0029029500999991905082206004+61483+021350FM-12+000699999V0203201N009819999999N0000001N9+01281+99999101121ADDGF108991999999999999999999
0029029500999991905082213004+61483+021350FM-12+000699999V0203201N009819999999N0000001N9+01441+99999101341ADDGF101991999999999999999999
0029029500999991905082220004+61483+021350FM-12+000699999V0203601N006219999999N0000001N9+01331+99999101441ADDGF101991999999999999999999
0029029500999991905082306004+61483+021350FM-12+000699999V0201101N004119999999N0000001N9+01281+99999101681ADDGF108991999999999999999999
0029029500999991905082313004+61483+021350FM-12+000699999V0200701N004119999999N0000001N9+01561+99999101791ADDGF104991999999999999999999
0029029500999991905082320004+61483+021350FM-12+000699999V0201101N008219999999N0000001N9+01281+99999101791ADDGF108991999999999999999999
0029029500999991905082406004+61483+021350FM-12+000699999V0200901N011819999999N0000001N9+01061+99999101561ADDGF106991999999999999999999
0029029500999991905082413004+61483+021350FM-12+000699999V0200701N011819999999N0000001N9+01441+99999101461ADDGF108991999999999999999999
0029029500999991905082420004+61483+021350FM-12+000699999V0201101N009819999999N0000001N9+00941+99999101341ADDGF108991999999999999999999
0029029500999991905082506004+61483+021350FM-12+000699999V0200901N009819999999N0000001N9+00941+99999101111ADDGF108991999999999999999999
0029029500999991905082513004+61483+021350FM-12+000699999V0200901N009819999999N0000001N9+01001+99999101121ADDGF108991999999999999999999
0000029500999991905082520004+61483+021350FM-12+000699999V02099999999999999999N0000001N9+00941+99999101241
0029029500999991905082606004+61483+021350FM-12+000699999V0200901N008219999999N0000001N9+00831+99999101471ADDGF101991999999999999999999
0029029500999991905082613004+61483+021350FM-12+000699999V0203601N006219999999N0000001N9+01221+99999101631ADDGF101991999999999999999999
0029029500999991905082620004+61483+021350FM-12+000699999V0200501N006219999999N0000001N9+01061+99999101881ADDGF100991999999999999999999
0029029500999991905082706004+61483+021350FM-12+000699999V0201401N006219999999N0000001N9+00831+99999102041ADDGF101991999999999999999999
0029029500999991905082713004+61483+021350FM-12+000699999V0202501N004119999999N0000001N9+01331+99999102031ADDGF101991999999999999999999
0029029500999991905082720004+61483+021350FM-12+000699999V0203601N002119999999N0000001N9+01001+99999101961ADDGF103991999999999999999999
0029029500999991905082806004+61483+021350FM-12+000699999V0201101N004119999999N0000001N9+00781+99999101941ADDGF101991999999999999999999
0029029500999991905082813004+61483+021350FM-12+000699999V0202301N004119999999N0000001N9+01501+99999101711ADDGF108991999999999999999999
0029029500999991905082820004+61483+021350FM-12+000699999V0200901N006219999999N0000001N9+01111+99999101541ADDGF108991999999999999999999
0029029500999991905082906004+61483+021350FM-12+000699999V0201101N006219999999N0000001N9+00891+99999101321ADDGF108991999999999999999999
0029029500999991905082913004+61483+021350FM-12+000699999V0201401N008219999999N0000001N9+01501+99999101111ADDGF108991999999999999999999
0029029500999991905082920004+61483+021350FM-12+000699999V0200901N004119999999N0000001N9+01061+99999100951ADDGF101991999999999999999999
0029029500999991905083006004+61483+021350FM-12+000699999V0200701N008219999999N0000001N9+01001+99999100601ADDGF101991999999999999999999
0029029500999991905083013004+61483+021350FM-12+000699999V0200901N013919999999N0000001N9+01441+99999100241ADDGF105991999999999999999999
0029029500999991905083020004+61483+021350FM-12+000699999V0200701N008219999999N0000001N9+01111+99999100221ADDGF100991999999999999999999
0029029500999991905083106004+61483+021350FM-12+000699999V0200501N008219999999N0000001N9+01001+99999100111ADDGF108991999999999999999999
0029029500999991905083113004+61483+021350FM-12+000699999V0203601N009819999999N0000001N9+01171+99999099821ADDGF103991999999999999999999
0029029500999991905083120004+61483+021350FM-12+000699999V0203201N009819999999N0000001N9+01111+99999099681ADDGF106991999999999999999999
0029029500999991905090106004+61483+021350FM-12+000699999V0203201N013919999999N0000001N9+01001+99999099471ADDGF108991999999999999999999
0029029500999991905090113004+61483+021350FM-12+000699999V0203201N009819999999N0000001N9+01111+99999099461ADDGF106991999999999999999999
0029029500999991905090120004+61483+021350FM-12+000699999V0202701N008219999999N0000001N9+01111+99999099261ADDGF102991999999999999999999
0029029500999991905090206004+61483+021350FM-12+000699999V0202901N008219999999N0000001N9+00941+99999099081ADDGF102991999999999999999999
0029029500999991905090213004+61483+021350FM-12+000699999V0202901N008219999999N0000001N9+01061+99999099181ADDGF103991999999999999999999
0029029500999991905090220004+61483+021350FM-12+000699999V0202501N004119999999N0000001N9+01001+99999099111ADDGF101991999999999999999999
0029029500999991905090306004+61483+021350FM-12+000699999V0202701N002119999999N0000001N9+01111+99999099021ADDGF102991999999999999999999
0029029500999991905090313004+61483+021350FM-12+000699999V0202701N002119999999N0000001N9+01221+99999099191ADDGF102991999999999999999999
0029029500999991905090320004+61483+021350FM-12+000699999V0203601N002119999999N0000001N9+00941+99999099271ADDGF101991999999999999999999
0029029500999991905090406004+61483+021350FM-12+000699999V0201801N002119999999N0000001N9+00941+99999099471ADDGF101991999999999999999999
0029029500999991905090413004+61483+021350FM-12+000699999V0203601N008219999999N0000001N9+01171+99999099881ADDGF101991999999999999999999
0029029500999991905090420004+61483+021350FM-12+000699999V0203201N004119999999N0000001N9+01001+99999100281ADDGF101991999999999999999999
0029029500999991905090506004+61483+021350FM-12+000699999V0203401N006219999999N0000001N9+01001+99999100821ADDGF102991999999999999999999
0029029500999991905090513004+61483+021350FM-12+000699999V0202701N002119999999N0000001N9+01171+99999101111ADDGF108991999999999999999999
