0029029720999991905010106004+60450+022267FM-12+001499999V0209991C000019999999N0000001N9-02281+99999103831ADDGF105991999999999999999999
0029029720999991905010113004+60450+022267FM-12+001499999V0202701N001019999999N0000001N9-01331+99999103791ADDGF108991999999999999999999
0029029720999991905010120004+60450+022267FM-12+001499999V0203601N002619999999N0000001N9-01061+99999103481ADDGF100991999999999999999999
0029029720999991905010206004+60450+022267FM-12+001499999V0202501N006719999999N0000001N9-00501+99999101991ADDGF108991999999999999999999
0029029720999991905010213004+60450+022267FM-12+001499999V0202301N012319999999N0000001N9-00281+99999101201ADDGF108991999999999999999999
0029029720999991905010220004+60450+022267FM-12+001499999V0202301N006719999999N0000001N9-00061+99999100421ADDGF108991999999999999999999
0029029720999991905010306004+60450+022267FM-12+001499999V0202301N006719999999N0000001N9-00221+99999099201ADDGF108991999999999999999999
0029029720999991905010313004+60450+022267FM-12+001499999V0202701N004619999999N0000001N9+00281+99999098641ADDGF108991999999999999999999
0029029720999991905010320004+60450+022267FM-12+001499999V0202701N001019999999N0000001N9+00001+99999098791ADDGF100991999999999999999999
0029029720999991905010406004+60450+022267FM-12+001499999V0203201N004619999999N0000001N9-00221+99999098671ADDGF108991999999999999999999
0029029720999991905010413004+60450+022267FM-12+001499999V0203201N006719999999N0000001N9-00171+99999098991ADDGF105991999999999999999999
0029029720999991905010420004+60450+022267FM-12+001499999V0203201N002619999999N0000001N9-00391+99999099141ADDGF100991999999999999999999
0029029720999991905010506004+60450+022267FM-12+001499999V0203201N001019999999N0000001N9-00611+99999098981ADDGF101991999999999999999999
0035029720999991905010513004+60450+022267FM-12+001499999V0203601N001019999999N0000001N9-00721+99999099021ADDGF101991999999999999999999MW1721
0029029720999991905010520004+60450+022267FM-12+001499999V0209991C000019999999N0000001N9-01281+99999099231ADDGF100991999999999999999999
0029029720999991905010606004+60450+022267FM-12+001499999V0209991C000019999999N0000001N9-01561+99999099391ADDGF108991999999999999999999
0029029720999991905010613004+60450+022267FM-12+001499999V0209991C000019999999N0000001N9-01221+99999099161ADDGF100991999999999999999999
0029029720999991905010620004+60450+022267FM-12+001499999V0209991C000019999999N0000001N9-01171+99999098631ADDGF100991999999999999999999
0029029720999991905010706004+60450+022267FM-12+001499999V0209991C000019999999N0000001N9-00671+99999098781ADDGF108991999999999999999999
0029029720999991905010713004+60450+022267FM-12+001499999V0203201N001019999999N0000001N9-00501+99999099351ADDGF108991999999999999999999
0029029720999991905010720004+60450+022267FM-12+001499999V0209991C000019999999N0000001N9-01111+99999999999ADDGF100991999999999999999999
0029029720999991905010806004+60450+022267FM-12+001499999V0209991C000019999999N0000001N9-01001+99999100801ADDGF102991999999999999999999
0029029720999991905010813004+60450+022267FM-12+001499999V0209991C000019999999N0000001N9-00831+99999100721ADDGF106991999999999999999999
0029029720999991905010820004+60450+022267FM-12+001499999V0200501N006719999999N0000001N9-00221+99999099461ADDGF108991999999999999999999
0029029720999991905010906004+60450+022267FM-12+001499999V0202701N009319999999N0000001N9+00221+99999098181ADDGF108991999999999999999999
0029029720999991905010913004+60450+022267FM-12+001499999V0202701N006719999999N0000001N9+00171+99999097711ADDGF108991999999999999999999
0029029720999991905010920004+60450+022267FM-12+001499999V0203201N006719999999N0000001N9+00171+99999097081ADDGF100991999999999999999999
0029029720999991905011006004+60450+022267FM-12+001499999V0203201N015419999999N0000001N9+00061+99999096721ADDGF108991999999999999999999
0035029720999991905011013004+60450+022267FM-12+001499999V0203601N012319999999N0000001N9-00611+99999097921ADDGF108991999999999999999999MW1721
0029029720999991905011020004+60450+022267FM-12+001499999V0203601N006719999999N0000001N9-00941+99999099581ADDGF100991999999999999999999
0029029720999991905011106004+60450+022267FM-12+001499999V0201401N004619999999N0000001N9-01061+99999099701ADDGF108991999999999999999999
0029029720999991905011113004+60450+022267FM-12+001499999V0201401N002619999999N0000001N9-00721+99999099861ADDGF108991999999999999999999
0029029720999991905011120004+60450+022267FM-12+001499999V0201401N006719999999N0000001N9-00501+99999099591ADDGF108991999999999999999999
0029029720999991905011206004+60450+022267FM-12+001499999V0201401N002619999999N0000001N9-00391+99999098061ADDGF108991999999999999999999
0035029720999991905011213004+60450+022267FM-12+001499999V0201401N002619999999N0000001N9+00061+99999097141ADDGF108991999999999999999999MW1721
0029029720999991905011220004+60450+022267FM-12+001499999V0201401N002619999999N0000001N9-00061+99999096821ADDGF108991999999999999999999
0035029720999991905011306004+60450+022267FM-12+001499999V0200501N012319999999N0000001N9-01061+99999098541ADDGF108991999999999999999999MW1721
0035029720999991905011313004+60450+022267FM-12+001499999V0203601N012319999999N0000001N9-01061+99999099981ADDGF108991999999999999999999MW1721
0029029720999991905011320004+60450+022267FM-12+001499999V0200501N006719999999N0000001N9-01391+99999101821ADDGF100991999999999999999999
0029029720999991905011406004+60450+022267FM-12+001499999V0209991C000019999999N0000001N9-02001+99999103311ADDGF100991999999999999999999
0029029720999991905011413004+60450+022267FM-12+001499999V0203601N001019999999N0000001N9-01501+99999103701ADDGF100991999999999999999999
0029029720999991905011420004+60450+022267FM-12+001499999V0202301N001019999999N0000001N9-01111+99999103681ADDGF100991999999999999999999
0029029720999991905011506004+60450+022267FM-12+001499999V0202301N002619999999N0000001N9-00501+99999103541ADDGF100991999999999999999999
0029029720999991905011513004+60450+022267FM-12+001499999V0202301N006719999999N0000001N9-00221+99999103621ADDGF100991999999999999999999
0029029720999991905011520004+60450+022267FM-12+001499999V0202301N004619999999N0000001N9-00331+99999103601ADDGF100991999999999999999999
0029029720999991905011606004+60450+022267FM-12+001499999V0202301N002619999999N0000001N9-00391+99999103681ADDGF100991999999999999999999
0029029720999991905011613004+60450+022267FM-12+001499999V0202301N001019999999N0000001N9-00281+99999103781ADDGF100991999999999999999999
0029029720999991905011620004+60450+022267FM-12+001499999V0202301N001019999999N0000001N9-00831+99999103671ADDGF100991999999999999999999
0029029720999991905011706004+60450+022267FM-12+001499999V0209991C000019999999N0000001N9-00671+99999103541ADDGF108991999999999999999999
0029029720999991905011713004+60450+022267FM-12+001499999V0201401N001019999999N0000001N9-00721+99999103431ADDGF100991999999999999999999
0029029720999991905011720004+60450+022267FM-12+001499999V0209991C000019999999N0000001N9-01221+99999103311ADDGF100991999999999999999999
0029029720999991905011806004+60450+022267FM-12+001499999V0200901N001019999999N0000001N9-00941+99999103031ADDGF107991999999999999999999
0029029720999991905011813004+60450+022267FM-12+001499999V0200901N001019999999N0000001N9-00561+99999103061ADDGF100991999999999999999999
0029029720999991905011820004+60450+022267FM-12+001499999V0200901N004619999999N0000001N9-00781+99999103271ADDGF108991999999999999999999
0029029720999991905011906004+60450+022267FM-12+001499999V0200901N001019999999N0000001N9-00831+99999103741ADDGF108991999999999999999999
0029029720999991905011913004+60450+022267FM-12+001499999V0200901N001019999999N0000001N9-00831+99999103861ADDGF103991999999999999999999
0029029720999991905011920004+60450+022267FM-12+001499999V0209991C000019999999N0000001N9-01171+99999103951ADDGF100991999999999999999999
0029029720999991905012006004+60450+022267FM-12+001499999V0209991C000019999999N0000001N9-00831+99999104041ADDGF108991999999999999999999
0029029720999991905012013004+60450+022267FM-12+001499999V0209991C000019999999N0000001N9-00501+99999104321ADDGF108991999999999999999999
0029029720999991905012020004+60450+022267FM-12+001499999V0209991C000019999999N0000001N9-00671+99999104261ADDGF108991999999999999999999
0029029720999991905012106004+60450+022267FM-12+001499999V0209991C000019999999N0000001N9-01001+99999104221ADDGF108991999999999999999999
0029029720999991905012113004+60450+022267FM-12+001499999V0209991C000019999999N0000001N9-00781+99999104121ADDGF108991999999999999999999
0029029720999991905012120004+60450+022267FM-12+001499999V0209991C000019999999N0000001N9-00721+99999104041ADDGF108991999999999999999999
0029029720999991905012206004+60450+022267FM-12+001499999V0202301N002619999999N0000001N9-00441+99999103471ADDGF108991999999999999999999
0029029720999991905012213004+60450+022267FM-12+001499999V0202301N002619999999N0000001N9-00331+99999103301ADDGF108991999999999999999999
0029029720999991905012220004+60450+022267FM-12+001499999V0202301N004619999999N0000001N9-00501+99999103061ADDGF108991999999999999999999
0029029720999991905012306004+60450+022267FM-12+001499999V0202701N004619999999N0000001N9-00501+99999102551ADDGF102991999999999999999999
0029029720999991905012313004+60450+022267FM-12+001499999V0202701N004619999999N0000001N9-00221+99999102261ADDGF100991999999999999999999
0029029720999991905012320004+60450+022267FM-12+001499999V0202301N006719999999N0000001N9-00331+99999101961ADDGF106991999999999999999999
0029029720999991905012406004+60450+022267FM-12+001499999V0202301N002619999999N0000001N9+00001+99999101391ADDGF108991999999999999999999
0029029720999991905012413004+60450+022267FM-12+001499999V0202301N004619999999N0000001N9+00001+99999101281ADDGF108991999999999999999999
0029029720999991905012420004+60450+022267FM-12+001499999V0202301N004619999999N0000001N9+00001+99999101221ADDGF108991999999999999999999
0029029720999991905012506004+60450+022267FM-12+001499999V0202301N002619999999N0000001N9+00061+99999100761ADDGF108991999999999999999999
0035029720999991905012513004+60450+022267FM-12+001499999V0201801N002619999999N0000001N9+00061+99999100221ADDGF108991999999999999999999MW1721
0029029720999991905012520004+60450+022267FM-12+001499999V0201801N001019999999N0000001N9+00001+99999100121ADDGF108991999999999999999999
0029029720999991905012606004+60450+022267FM-12+001499999V0203601N002619999999N0000001N9-00391+99999100821ADDGF102991999999999999999999
0029029720999991905012613004+60450+022267FM-12+001499999V0203601N006719999999N0000001N9-00391+99999101511ADDGF100991999999999999999999
0029029720999991905012620004+60450+022267FM-12+001499999V0203601N004619999999N0000001N9-00941+99999102141ADDGF100991999999999999999999
0029029720999991905012706004+60450+022267FM-12+001499999V0203601N001019999999N0000001N9-01221+99999102831ADDGF100991999999999999999999
0029029720999991905012713004+60450+022267FM-12+001499999V0200501N002619999999N0000001N9-01111+99999102861ADDGF105991999999999999999999
0029029720999991905012720004+60450+022267FM-12+001499999V0201401N001019999999N0000001N9-00941+99999102761ADDGF108991999999999999999999
0029029720999991905012806004+60450+022267FM-12+001499999V0201801N004619999999N0000001N9-00781+99999102181ADDGF108991999999999999999999
0029029720999991905012813004+60450+022267FM-12+001499999V0201801N009319999999N0000001N9-00061+99999101181ADDGF108991999999999999999999
0029029720999991905012820004+60450+022267FM-12+001499999V0201801N009319999999N0000001N9+00111+99999099881ADDGF108991999999999999999999
0029029720999991905012906004+60450+022267FM-12+001499999V0202701N015419999999N0000001N9+00111+99999099321ADDGF108991999999999999999999
0029029720999991905012913004+60450+022267FM-12+001499999V0203201N012319999999N0000001N9+00061+99999099801ADDGF102991999999999999999999
0029029720999991905012920004+60450+022267FM-12+001499999V0203601N001019999999N0000001N9-00221+99999100591ADDGF100991999999999999999999
0029029720999991905013006004+60450+022267FM-12+001499999V0202701N002619999999N0000001N9-00391+99999099271ADDGF108991999999999999999999
0029029720999991905013013004+60450+022267FM-12+001499999V0203201N006719999999N0000001N9+00171+99999098001ADDGF108991999999999999999999
0029029720999991905013020004+60450+022267FM-12+001499999V0203601N006719999999N0000001N9-00671+99999099281ADDGF100991999999999999999999
0029029720999991905013106004+60450+022267FM-12+001499999V0201401N006719999999N0000001N9-00671+99999098601ADDGF108991999999999999999999
0035029720999991905013113004+60450+022267FM-12+001499999V0200901N006719999999N0000001N9-00441+99999096751ADDGF108991999999999999999999MW1721
0035029720999991905013120004+60450+022267FM-12+001499999V0200501N015419999999N0000001N9-00831+99999096511ADDGF108991999999999999999999MW1721
0029029720999991905020106004+60450+022267FM-12+001499999V0203601N006719999999N0000001N9-00941+99999098271ADDGF108991999999999999999999
0029029720999991905020113004+60450+022267FM-12+001499999V0203601N004619999999N0000001N9-00941+99999098831ADDGF103991999999999999999999
0029029720999991905020120004+60450+022267FM-12+001499999V0203601N001019999999N0000001N9-01441+99999099231ADDGF100991999999999999999999
0029029720999991905020206004+60450+022267FM-12+001499999V0209991C000019999999N0000001N9-01831+99999099141ADDGF102991999999999999999999
0029029720999991905020213004+60450+022267FM-12+001499999V0209991C000019999999N0000001N9-00941+99999098831ADDGF105991999999999999999999
0029029720999991905020220004+60450+022267FM-12+001499999V0203601N001019999999N0000001N9-01331+99999098941ADDGF100991999999999999999999
0029029720999991905020306004+60450+022267FM-12+001499999V0209991C000019999999N0000001N9-01721+99999099521ADDGF107991999999999999999999
0029029720999991905020313004+60450+022267FM-12+001499999V0209991C000019999999N0000001N9-01441+99999099861ADDGF100991999999999999999999
0029029720999991905020320004+60450+022267FM-12+001499999V0209991C000019999999N0000001N9-01941+99999100111ADDGF100991999999999999999999
0029029720999991905020406004+60450+022267FM-12+001499999V0209991C000019999999N0000001N9-02221+99999100471ADDGF108991999999999999999999
0029029720999991905020413004+60450+022267FM-12+001499999V0203601N001019999999N0000001N9-00941+99999100801ADDGF108991999999999999999999
0029029720999991905020420004+60450+022267FM-12+001499999V0201801N001019999999N0000001N9-00781+99999101031ADDGF108991999999999999999999
0029029720999991905020506004+60450+022267FM-12+001499999V0209991C000019999999N0000001N9-01111+99999101281ADDGF108991999999999999999999
0029029720999991905020513004+60450+022267FM-12+001499999V0209991C000019999999N0000001N9-00781+99999101361ADDGF108991999999999999999999
0029029720999991905020520004+60450+022267FM-12+001499999V0209991C000019999999N0000001N9-00221+99999100601ADDGF108991999999999999999999
0029029720999991905020606004+60450+022267FM-12+001499999V0202701N001019999999N0000001N9+00111+99999099791ADDGF108991999999999999999999
0029029720999991905020613004+60450+022267FM-12+001499999V0202701N001019999999N0000001N9+00281+99999099721ADDGF108991999999999999999999
0029029720999991905020620004+60450+022267FM-12+001499999V0202701N006719999999N0000001N9+00281+99999099311ADDGF108991999999999999999999
0029029720999991905020706004+60450+022267FM-12+001499999V0202701N002619999999N0000001N9+00061+99999099341ADDGF101991999999999999999999
0029029720999991905020713004+60450+022267FM-12+001499999V0203201N002619999999N0000001N9+00061+99999100071ADDGF100991999999999999999999
0029029720999991905020720004+60450+022267FM-12+001499999V0209991C000019999999N0000001N9-00441+99999100791ADDGF100991999999999999999999
0029029720999991905020806004+60450+022267FM-12+001499999V0203201N002619999999N0000001N9-00781+99999101041ADDGF100991999999999999999999
0029029720999991905020813004+60450+022267FM-12+001499999V0203201N006719999999N0000001N9-00061+99999101311ADDGF101991999999999999999999
0029029720999991905020820004+60450+022267FM-12+001499999V0203601N001019999999N0000001N9-00441+99999101991ADDGF100991999999999999999999
0029029720999991905020906004+60450+022267FM-12+001499999V0202301N002619999999N0000001N9-00331+99999101591ADDGF108991999999999999999999
0029029720999991905020913004+60450+022267FM-12+001499999V0202301N002619999999N0000001N9+00171+99999100961ADDGF108991999999999999999999
0029029720999991905020920004+60450+022267FM-12+001499999V0202701N002619999999N0000001N9-00061+99999100801ADDGF100991999999999999999999
0029029720999991905021006004+60450+022267FM-12+001499999V0202301N004619999999N0000001N9+00111+99999999999ADDGF108991999999999999999999
0029029720999991905021013004+60450+022267FM-12+001499999V0202301N006719999999N0000001N9+00171+99999099191ADDGF108991999999999999999999
0029029720999991905021020004+60450+022267FM-12+001499999V0203201N002619999999N0000001N9-00111+99999099021ADDGF100991999999999999999999
0029029720999991905021106004+60450+022267FM-12+001499999V0202701N002619999999N0000001N9-00281+99999098481ADDGF108991999999999999999999
0029029720999991905021113004+60450+022267FM-12+001499999V0202701N002619999999N0000001N9-00171+99999098341ADDGF108991999999999999999999
0029029720999991905021120004+60450+022267FM-12+001499999V0200501N009319999999N0000001N9-00441+99999098711ADDGF108991999999999999999999
0029029720999991905021206004+60450+022267FM-12+001499999V0203201N006719999999N0000001N9-00831+99999098991ADDGF108991999999999999999999
0029029720999991905021213004+60450+022267FM-12+001499999V0203201N006719999999N0000001N9-00441+99999099321ADDGF108991999999999999999999
0029029720999991905021220004+60450+022267FM-12+001499999V0203601N002619999999N0000001N9-00721+99999099861ADDGF107991999999999999999999
0029029720999991905021306004+60450+022267FM-12+001499999V0203601N001019999999N0000001N9-01171+99999101151ADDGF100991999999999999999999
0029029720999991905021313004+60450+022267FM-12+001499999V0203601N001019999999N0000001N9-00781+99999101681ADDGF100991999999999999999999
0029029720999991905021320004+60450+022267FM-12+001499999V0209991C000019999999N0000001N9-01561+99999101791ADDGF100991999999999999999999
0029029720999991905021406004+60450+022267FM-12+001499999V0202301N006719999999N0000001N9-00221+99999100431ADDGF108991999999999999999999
0029029720999991905021413004+60450+022267FM-12+001499999V0202701N004619999999N0000001N9-00111+99999100471ADDGF106991999999999999999999
0029029720999991905021420004+60450+022267FM-12+001499999V0203601N004619999999N0000001N9-00501+99999101181ADDGF102991999999999999999999
0029029720999991905021506004+60450+022267FM-12+001499999V0209991C000019999999N0000001N9-01391+99999101881ADDGF100991999999999999999999
0029029720999991905021513004+60450+022267FM-12+001499999V0203201N001019999999N0000001N9-00501+99999101981ADDGF105991999999999999999999
0029029720999991905021520004+60450+022267FM-12+001499999V0202701N002619999999N0000001N9-00391+99999101591ADDGF108991999999999999999999
0029029720999991905021606004+60450+022267FM-12+001499999V0202701N004619999999N0000001N9-00061+99999100791ADDGF108991999999999999999999
0029029720999991905021613004+60450+022267FM-12+001499999V0202701N002619999999N0000001N9+00221+99999100441ADDGF108991999999999999999999
0029029720999991905021620004+60450+022267FM-12+001499999V0202701N001019999999N0000001N9+00061+99999100241ADDGF107991999999999999999999
0035029720999991905021706004+60450+022267FM-12+001499999V0202301N006719999999N0000001N9+00171+99999099541ADDGF108991999999999999999999MW1621
0029029720999991905021713004+60450+022267FM-12+001499999V0202301N006719999999N0000001N9+00221+99999099261ADDGF108991999999999999999999
0029029720999991905021720004+60450+022267FM-12+001499999V0202701N004619999999N0000001N9+00221+99999099261ADDGF106991999999999999999999
0029029720999991905021806004+60450+022267FM-12+001499999V0202701N001019999999N0000001N9-00061+99999099861ADDGF100991999999999999999999
0029029720999991905021813004+60450+022267FM-12+001499999V0202701N002619999999N0000001N9+00221+99999099901ADDGF107991999999999999999999
0029029720999991905021820004+60450+022267FM-12+001499999V0202701N004619999999N0000001N9+00061+99999099471ADDGF108991999999999999999999
0029029720999991905021906004+60450+022267FM-12+001499999V0202301N012319999999N0000001N9+00171+99999098151ADDGF108991999999999999999999
0029029720999991905021913004+60450+022267FM-12+001499999V0202301N009319999999N0000001N9+00331+99999098031ADDGF108991999999999999999999
0029029720999991905021920004+60450+022267FM-12+001499999V0202301N012319999999N0000001N9+00221+99999098061ADDGF108991999999999999999999
0029029720999991905022006004+60450+022267FM-12+001499999V0202301N004619999999N0000001N9+00061+99999098751ADDGF103991999999999999999999
0029029720999991905022013004+60450+022267FM-12+001499999V0202701N002619999999N0000001N9+00171+99999099511ADDGF108991999999999999999999
0029029720999991905022020004+60450+022267FM-12+001499999V0203201N001019999999N0000001N9-00111+99999100401ADDGF104991999999999999999999
0029029720999991905022106004+60450+022267FM-12+001499999V0200501N002619999999N0000001N9-00061+99999101631ADDGF108991999999999999999999
0029029720999991905022113004+60450+022267FM-12+001499999V0203601N001019999999N0000001N9+00171+99999102561ADDGF100991999999999999999999
0029029720999991905022120004+60450+022267FM-12+001499999V0200501N001019999999N0000001N9-00281+99999103001ADDGF100991999999999999999999
0029029720999991905022206004+60450+022267FM-12+001499999V0200501N001019999999N0000001N9-00331+99999103881ADDGF100991999999999999999999
0029029720999991905022213004+60450+022267FM-12+001499999V0203601N001019999999N0000001N9-00061+99999103961ADDGF100991999999999999999999
0029029720999991905022220004+60450+022267FM-12+001499999V0209991C000019999999N0000001N9-00281+99999103951ADDGF108991999999999999999999
0029029720999991905022306004+60450+022267FM-12+001499999V0202701N001019999999N0000001N9-00111+99999103981ADDGF108991999999999999999999
0029029720999991905022313004+60450+022267FM-12+001499999V0202701N002619999999N0000001N9+00061+99999103841ADDGF108991999999999999999999
0029029720999991905022320004+60450+022267FM-12+001499999V0202701N001019999999N0000001N9-00281+99999103661ADDGF108991999999999999999999
0029029720999991905022406004+60450+022267FM-12+001499999V0201801N001019999999N0000001N9-00281+99999103401ADDGF108991999999999999999999
0029029720999991905022413004+60450+022267FM-12+001499999V0201401N001019999999N0000001N9-00171+99999103221ADDGF108991999999999999999999
0029029720999991905022420004+60450+022267FM-12+001499999V0201401N002619999999N0000001N9-00171+99999102951ADDGF108991999999999999999999
0029029720999991905022506004+60450+022267FM-12+001499999V0201401N001019999999N0000001N9-00221+99999102191ADDGF108991999999999999999999
0029029720999991905022513004+60450+022267FM-12+001499999V0201401N002619999999N0000001N9+00001+99999101781ADDGF108991999999999999999999
0029029720999991905022520004+60450+022267FM-12+001499999V0201401N002619999999N0000001N9-00061+99999101551ADDGF108991999999999999999999
0029029720999991905022606004+60450+022267FM-12+001499999V0201801N001019999999N0000001N9+00061+99999101301ADDGF108991999999999999999999
0029029720999991905022613004+60450+022267FM-12+001499999V0201801N002619999999N0000001N9+00111+99999101431ADDGF108991999999999999999999
0029029720999991905022620004+60450+022267FM-12+001499999V0201801N002619999999N0000001N9+00061+99999101461ADDGF108991999999999999999999
0029029720999991905022706004+60450+022267FM-12+001499999V0201401N002619999999N0000001N9-00061+99999101471ADDGF108991999999999999999999
0029029720999991905022713004+60450+022267FM-12+001499999V0201401N004619999999N0000001N9+00171+99999101281ADDGF108991999999999999999999
0029029720999991905022720004+60450+022267FM-12+001499999V0201401N006719999999N0000001N9-00281+99999101101ADDGF108991999999999999999999
0029029720999991905022806004+60450+022267FM-12+001499999V0201401N002619999999N0000001N9-00331+99999100741ADDGF108991999999999999999999
0035029720999991905022813004+60450+022267FM-12+001499999V0201401N006719999999N0000001N9-00221+99999100551ADDGF108991999999999999999999MW1721
0035029720999991905022820004+60450+022267FM-12+001499999V0201401N004619999999N0000001N9-00281+99999100401ADDGF108991999999999999999999MW1721
0029029720999991905030106004+60450+022267FM-12+001499999V0201401N004619999999N0000001N9+00061+99999100581ADDGF108991999999999999999999
0035029720999991905030113004+60450+022267FM-12+001499999V0201401N006719999999N0000001N9+00111+99999100661ADDGF108991999999999999999999MW1721
0029029720999991905030120004+60450+022267FM-12+001499999V0201401N006719999999N0000001N9+00061+99999100741ADDGF108991999999999999999999
0029029720999991905030206004+60450+022267FM-12+001499999V0201801N002619999999N0000001N9+00061+99999101021ADDGF108991999999999999999999
0029029720999991905030213004+60450+022267FM-12+001499999V0201801N002619999999N0000001N9+00111+99999101261ADDGF108991999999999999999999
0029029720999991905030220004+60450+022267FM-12+001499999V0201801N001019999999N0000001N9+00001+99999101661ADDGF108991999999999999999999
0029029720999991905030306004+60450+022267FM-12+001499999V0202701N001019999999N0000001N9+00061+99999102021ADDGF108991999999999999999999
0029029720999991905030313004+60450+022267FM-12+001499999V0209991C000019999999N0000001N9+00111+99999102191ADDGF108991999999999999999999
0029029720999991905030320004+60450+022267FM-12+001499999V0202701N001019999999N0000001N9-00061+99999102221ADDGF108991999999999999999999
0029029720999991905030406004+60450+022267FM-12+001499999V0202301N002619999999N0000001N9-00281+99999102081ADDGF108991999999999999999999
0029029720999991905030413004+60450+022267FM-12+001499999V0202301N006719999999N0000001N9+00111+99999101961ADDGF108991999999999999999999
0029029720999991905030420004+60450+022267FM-12+001499999V0202301N002619999999N0000001N9-00061+99999101761ADDGF108991999999999999999999
0029029720999991905030506004+60450+022267FM-12+001499999V0202701N001019999999N0000001N9-00221+99999101381ADDGF108991999999999999999999
0029029720999991905030513004+60450+022267FM-12+001499999V0203601N001019999999N0000001N9+00171+99999101281ADDGF108991999999999999999999
0029029720999991905030520004+60450+022267FM-12+001499999V0203601N002619999999N0000001N9-00061+99999101271ADDGF108991999999999999999999
0035029720999991905030606004+60450+022267FM-12+001499999V0200501N004619999999N0000001N9-00281+99999101311ADDGF108991999999999999999999MW1721
0029029720999991905030613004+60450+022267FM-12+001499999V0200501N002619999999N0000001N9-00171+99999101271ADDGF108991999999999999999999
0029029720999991905030620004+60450+022267FM-12+001499999V0200501N002619999999N0000001N9-00331+99999101271ADDGF108991999999999999999999
0029029720999991905030706004+60450+022267FM-12+001499999V0201401N002619999999N0000001N9-00561+99999101511ADDGF108991999999999999999999
0029029720999991905030713004+60450+022267FM-12+001499999V0200901N002619999999N0000001N9-00171+99999101561ADDGF108991999999999999999999
0035029720999991905030720004+60450+022267FM-12+001499999V0200501N002619999999N0000001N9-00501+99999101551ADDGF108991999999999999999999MW1721
0029029720999991905030806004+60450+022267FM-12+001499999V0201401N002619999999N0000001N9-00671+99999101381ADDGF108991999999999999999999
0029029720999991905030813004+60450+022267FM-12+001499999V0200901N002619999999N0000001N9-00281+99999101341ADDGF108991999999999999999999
0029029720999991905030820004+60450+022267FM-12+001499999V0200501N002619999999N0000001N9-00611+99999101191ADDGF108991999999999999999999
0029029720999991905030906004+60450+022267FM-12+001499999V0201401N002619999999N0000001N9-00671+99999100881ADDGF108991999999999999999999
0029029720999991905030913004+60450+022267FM-12+001499999V0201801N004619999999N0000001N9-00171+99999100561ADDGF108991999999999999999999
0035029720999991905030920004+60450+022267FM-12+001499999V0201801N006719999999N0000001N9-00331+99999100031ADDGF108991999999999999999999MW1721
0029029720999991905031006004+60450+022267FM-12+001499999V0201801N012319999999N0000001N9-00111+99999098831ADDGF108991999999999999999999
0029029720999991905031013004+60450+022267FM-12+001499999V0201801N012319999999N0000001N9+00111+99999098241ADDGF108991999999999999999999
0029029720999991905031020004+60450+022267FM-12+001499999V0201801N009319999999N0000001N9+00221+99999098501ADDGF108991999999999999999999
0029029720999991905031106004+60450+022267FM-12+001499999V0202301N002619999999N0000001N9-00221+99999099401ADDGF108991999999999999999999
0029029720999991905031113004+60450+022267FM-12+001499999V0200901N001019999999N0000001N9+00001+99999099421ADDGF108991999999999999999999
0029029720999991905031120004+60450+022267FM-12+001499999V0209991C000019999999N0000001N9+00061+99999099721ADDGF108991999999999999999999
0035029720999991905031206004+60450+022267FM-12+001499999V0202301N004619999999N0000001N9+00061+99999098911ADDGF108991999999999999999999MW1621
0029029720999991905031213004+60450+022267FM-12+001499999V0202301N004619999999N0000001N9+00391+99999099221ADDGF102991999999999999999999
0029029720999991905031220004+60450+022267FM-12+001499999V0209991C000019999999N0000001N9+00111+99999099871ADDGF108991999999999999999999
0029029720999991905031306004+60450+022267FM-12+001499999V0209991C000019999999N0000001N9+00111+99999100151ADDGF108991999999999999999999
0029029720999991905031313004+60450+022267FM-12+001499999V0201401N001019999999N0000001N9+00391+99999100511ADDGF108991999999999999999999
0029029720999991905031320004+60450+022267FM-12+001499999V0209991C000019999999N0000001N9+00171+99999100701ADDGF108991999999999999999999
0029029720999991905031406004+60450+022267FM-12+001499999V0209991C000019999999N0000001N9+00061+99999100991ADDGF108991999999999999999999
0029029720999991905031413004+60450+022267FM-12+001499999V0201401N001019999999N0000001N9+00281+99999101241ADDGF108991999999999999999999
0029029720999991905031420004+60450+022267FM-12+001499999V0201401N002619999999N0000001N9+00111+99999101431ADDGF108991999999999999999999
0029029720999991905031506004+60450+022267FM-12+001499999V0201401N002619999999N0000001N9+00061+99999101561ADDGF108991999999999999999999
0029029720999991905031513004+60450+022267FM-12+001499999V0201401N004619999999N0000001N9+00281+99999101601ADDGF108991999999999999999999
0029029720999991905031520004+60450+022267FM-12+001499999V0202301N006719999999N0000001N9+00061+99999101581ADDGF108991999999999999999999
0029029720999991905031606004+60450+022267FM-12+001499999V0201401N006719999999N0000001N9+00061+99999101481ADDGF108991999999999999999999
0029029720999991905031613004+60450+022267FM-12+001499999V0201401N006719999999N0000001N9+00061+99999101591ADDGF108991999999999999999999
0029029720999991905031620004+60450+022267FM-12+001499999V0201401N001019999999N0000001N9-00061+99999101701ADDGF108991999999999999999999
0029029720999991905031706004+60450+022267FM-12+001499999V0201401N002619999999N0000001N9-00221+99999101841ADDGF108991999999999999999999
0029029720999991905031713004+60450+022267FM-12+001499999V0201801N002619999999N0000001N9+00171+99999102121ADDGF103991999999999999999999
0029029720999991905031720004+60450+022267FM-12+001499999V0209991C000019999999N0000001N9-00221+99999102141ADDGF100991999999999999999999
0029029720999991905031806004+60450+022267FM-12+001499999V0201401N001019999999N0000001N9-00561+99999102161ADDGF102991999999999999999999
0029029720999991905031813004+60450+022267FM-12+001499999V0201401N002619999999N0000001N9+00111+99999102111ADDGF108991999999999999999999
0029029720999991905031820004+60450+022267FM-12+001499999V0201401N001019999999N0000001N9+00001+99999102001ADDGF108991999999999999999999
0029029720999991905031906004+60450+022267FM-12+001499999V0209991C000019999999N0000001N9-00611+99999101861ADDGF100991999999999999999999
0029029720999991905031913004+60450+022267FM-12+001499999V0209991C000019999999N0000001N9+00221+99999101761ADDGF101991999999999999999999
0029029720999991905031920004+60450+022267FM-12+001499999V0209991C000019999999N0000001N9-00171+99999101781ADDGF102991999999999999999999
0029029720999991905032006004+60450+022267FM-12+001499999V0209991C000019999999N0000001N9-00671+99999101941ADDGF107991999999999999999999
0029029720999991905032013004+60450+022267FM-12+001499999V0203201N001019999999N0000001N9+00281+99999102041ADDGF102991999999999999999999
0029029720999991905032020004+60450+022267FM-12+001499999V0209991C000019999999N0000001N9-00281+99999102101ADDGF100991999999999999999999
0029029720999991905032106004+60450+022267FM-12+001499999V0209991C000019999999N0000001N9-00441+99999102121ADDGF108991999999999999999999
0029029720999991905032113004+60450+022267FM-12+001499999V0203201N001019999999N0000001N9+00331+99999102061ADDGF102991999999999999999999
0029029720999991905032120004+60450+022267FM-12+001499999V0209991C000019999999N0000001N9-00111+99999102121ADDGF100991999999999999999999
0029029720999991905032206004+60450+022267FM-12+001499999V0202701N001019999999N0000001N9-00111+99999102081ADDGF108991999999999999999999
0029029720999991905032213004+60450+022267FM-12+001499999V0202701N001019999999N0000001N9+00561+99999102121ADDGF106991999999999999999999
0029029720999991905032220004+60450+022267FM-12+001499999V0202701N001019999999N0000001N9+00111+99999102191ADDGF108991999999999999999999
0029029720999991905032306004+60450+022267FM-12+001499999V0209991C000019999999N0000001N9-00331+99999102551ADDGF100991999999999999999999
0029029720999991905032313004+60450+022267FM-12+001499999V0200901N002619999999N0000001N9+00331+99999102601ADDGF101991999999999999999999
0029029720999991905032320004+60450+022267FM-12+001499999V0201401N002619999999N0000001N9-00061+99999102751ADDGF102991999999999999999999
0029029720999991905032406004+60450+022267FM-12+001499999V0200501N001019999999N0000001N9-00561+99999102821ADDGF100991999999999999999999
0029029720999991905032413004+60450+022267FM-12+001499999V0200501N002619999999N0000001N9+00281+99999102711ADDGF106991999999999999999999
0029029720999991905032420004+60450+022267FM-12+001499999V0209991C000019999999N0000001N9-00111+99999102441ADDGF100991999999999999999999
0029029720999991905032506004+60450+022267FM-12+001499999V0200501N001019999999N0000001N9-00611+99999102061ADDGF103991999999999999999999
0029029720999991905032513004+60450+022267FM-12+001499999V0200501N001019999999N0000001N9+00001+99999101901ADDGF108991999999999999999999
0029029720999991905032520004+60450+022267FM-12+001499999V0200501N001019999999N0000001N9-00281+99999101901ADDGF108991999999999999999999
0029029720999991905032606004+60450+022267FM-12+001499999V0200501N002619999999N0000001N9-00221+99999102031ADDGF108991999999999999999999
0029029720999991905032613004+60450+022267FM-12+001499999V0201401N001019999999N0000001N9+00171+99999101911ADDGF108991999999999999999999
0029029720999991905032620004+60450+022267FM-12+001499999V0209991C000019999999N0000001N9+00001+99999101791ADDGF108991999999999999999999
0029029720999991905032706004+60450+022267FM-12+001499999V0201801N001019999999N0000001N9+00001+99999101511ADDGF108991999999999999999999
0029029720999991905032713004+60450+022267FM-12+001499999V0201801N001019999999N0000001N9+00221+99999101461ADDGF108991999999999999999999
0029029720999991905032720004+60450+022267FM-12+001499999V0209991C000019999999N0000001N9-00061+99999101461ADDGF102991999999999999999999
0029029720999991905032806004+60450+022267FM-12+001499999V0209991C000019999999N0000001N9-00171+99999101321ADDGF108991999999999999999999
0029029720999991905032813004+60450+022267FM-12+001499999V0209991C000019999999N0000001N9+00281+99999101351ADDGF108991999999999999999999
0029029720999991905032820004+60450+022267FM-12+001499999V0209991C000019999999N0000001N9-00061+99999101481ADDGF108991999999999999999999
0029029720999991905032906004+60450+022267FM-12+001499999V0201801N001019999999N0000001N9-00331+99999101661ADDGF108991999999999999999999
0029029720999991905032920004+60450+022267FM-12+001499999V0201801N006719999999N0000001N9+00001+99999101191ADDGF108991999999999999999999
0029029720999991905033006004+60450+022267FM-12+001499999V0201801N002619999999N0000001N9+00171+99999100481ADDGF108991999999999999999999
0029029720999991905033013004+60450+022267FM-12+001499999V0201801N002619999999N0000001N9+00391+99999100431ADDGF108991999999999999999999
0035029720999991905033020004+60450+022267FM-12+001499999V0201801N002619999999N0000001N9+00171+99999100181ADDGF108991999999999999999999MW1621
0029029720999991905033106004+60450+022267FM-12+001499999V0201801N001019999999N0000001N9+00111+99999099861ADDGF108991999999999999999999
0029029720999991905033113004+60450+022267FM-12+001499999V0201801N001019999999N0000001N9+00331+99999099871ADDGF108991999999999999999999
0029029720999991905033120004+60450+022267FM-12+001499999V0201801N001019999999N0000001N9+00171+99999099991ADDGF108991999999999999999999
0029029720999991905040106004+60450+022267FM-12+001499999V0209991C000019999999N0000001N9+00171+99999100191ADDGF108991999999999999999999
0029029720999991905040113004+60450+022267FM-12+001499999V0209991C000019999999N0000001N9+00441+99999100401ADDGF108991999999999999999999
0029029720999991905040120004+60450+022267FM-12+001499999V0202701N002619999999N0000001N9+00111+99999100671ADDGF108991999999999999999999
0029029720999991905040206004+60450+022267FM-12+001499999V0203601N002619999999N0000001N9-00391+99999101351ADDGF100991999999999999999999
0029029720999991905040213004+60450+022267FM-12+001499999V0203601N004619999999N0000001N9+00001+99999101351ADDGF101991999999999999999999
0029029720999991905040220004+60450+022267FM-12+001499999V0203601N002619999999N0000001N9-00331+99999101241ADDGF100991999999999999999999
0029029720999991905040306004+60450+022267FM-12+001499999V0209991C000019999999N0000001N9-00611+99999100981ADDGF100991999999999999999999
0029029720999991905040313004+60450+022267FM-12+001499999V0203201N002619999999N0000001N9+00281+99999100841ADDGF103991999999999999999999
0029029720999991905040320004+60450+022267FM-12+001499999V0209991C000019999999N0000001N9-00221+99999100721ADDGF100991999999999999999999
0029029720999991905040406004+60450+022267FM-12+001499999V0202701N001019999999N0000001N9-00111+99999100421ADDGF108991999999999999999999
0029029720999991905040413004+60450+022267FM-12+001499999V0202301N004619999999N0000001N9+00391+99999100351ADDGF106991999999999999999999
0029029720999991905040420004+60450+022267FM-12+001499999V0202301N004619999999N0000001N9+00111+99999099881ADDGF105991999999999999999999
0029029720999991905040506004+60450+022267FM-12+001499999V0201801N009319999999N0000001N9+00111+99999098591ADDGF108991999999999999999999
0029029720999991905040513004+60450+022267FM-12+001499999V0202301N009319999999N0000001N9+00111+99999097911ADDGF108991999999999999999999
0029029720999991905040520004+60450+022267FM-12+001499999V0202301N012319999999N0000001N9+00001+99999097551ADDGF108991999999999999999999
0029029720999991905040606004+60450+022267FM-12+001499999V0203201N004619999999N0000001N9-00501+99999099121ADDGF107991999999999999999999
0029029720999991905040613004+60450+022267FM-12+001499999V0203201N004619999999N0000001N9-00221+99999099661ADDGF106991999999999999999999
0029029720999991905040620004+60450+022267FM-12+001499999V0203201N001019999999N0000001N9-00561+99999099861ADDGF100991999999999999999999
0029029720999991905040706004+60450+022267FM-12+001499999V0203601N001019999999N0000001N9-00721+99999099661ADDGF100991999999999999999999
0029029720999991905040713004+60450+022267FM-12+001499999V0203201N001019999999N0000001N9+00111+99999099471ADDGF107991999999999999999999
0029029720999991905040720004+60450+022267FM-12+001499999V0203201N001019999999N0000001N9-00441+99999099391ADDGF100991999999999999999999
0029029720999991905040806004+60450+022267FM-12+001499999V0202701N002619999999N0000001N9-00391+99999099071ADDGF100991999999999999999999
0029029720999991905040813004+60450+022267FM-12+001499999V0203201N002619999999N0000001N9+00061+99999099221ADDGF102991999999999999999999
0029029720999991905040820004+60450+022267FM-12+001499999V0203201N001019999999N0000001N9-00331+99999099381ADDGF100991999999999999999999
0029029720999991905040906004+60450+022267FM-12+001499999V0201801N002619999999N0000001N9-00061+99999099461ADDGF108991999999999999999999
0029029720999991905040913004+60450+022267FM-12+001499999V0203201N001019999999N0000001N9-00171+99999099701ADDGF108991999999999999999999
0029029720999991905040920004+60450+022267FM-12+001499999V0203601N002619999999N0000001N9-00171+99999099791ADDGF100991999999999999999999
0029029720999991905041006004+60450+022267FM-12+001499999V0200901N004619999999N0000001N9-00391+99999099951ADDGF108991999999999999999999
0029029720999991905041013004+60450+022267FM-12+001499999V0200501N006719999999N0000001N9+00111+99999100151ADDGF108991999999999999999999
0029029720999991905041020004+60450+022267FM-12+001499999V0200501N006719999999N0000001N9-00111+99999100501ADDGF108991999999999999999999
0029029720999991905041106004+60450+022267FM-12+001499999V0200501N002619999999N0000001N9-00391+99999101071ADDGF102991999999999999999999
0029029720999991905041113004+60450+022267FM-12+001499999V0200901N001019999999N0000001N9+00331+99999101321ADDGF108991999999999999999999
0029029720999991905041120004+60450+022267FM-12+001499999V0200901N001019999999N0000001N9+00171+99999101431ADDGF108991999999999999999999
0029029720999991905041206004+60450+022267FM-12+001499999V0200901N001019999999N0000001N9-00171+99999101471ADDGF105991999999999999999999
0029029720999991905041213004+60450+022267FM-12+001499999V0201401N002619999999N0000001N9+00611+99999101471ADDGF108991999999999999999999
0029029720999991905041220004+60450+022267FM-12+001499999V0201401N002619999999N0000001N9+00221+99999101561ADDGF108991999999999999999999
0029029720999991905041306004+60450+022267FM-12+001499999V0200901N001019999999N0000001N9+00171+99999101781ADDGF108991999999999999999999
0029029720999991905041313004+60450+022267FM-12+001499999V0200901N001019999999N0000001N9+00501+99999102001ADDGF108991999999999999999999
0029029720999991905041320004+60450+022267FM-12+001499999V0209991C000019999999N0000001N9-00111+99999102321ADDGF100991999999999999999999
0029029720999991905041406004+60450+022267FM-12+001499999V0209991C000019999999N0000001N9-00061+99999102621ADDGF100991999999999999999999
0029029720999991905041413004+60450+022267FM-12+001499999V0209991C000019999999N0000001N9+00611+99999102621ADDGF103991999999999999999999
0029029720999991905041420004+60450+022267FM-12+001499999V0209991C000019999999N0000001N9+00171+99999102631ADDGF108991999999999999999999
0029029720999991905041506004+60450+022267FM-12+001499999V0209991C000019999999N0000001N9+00221+99999102791ADDGF102991999999999999999999
0029029720999991905041513004+60450+022267FM-12+001499999V0209991C000019999999N0000001N9+00501+99999102881ADDGF108991999999999999999999
0029029720999991905041520004+60450+022267FM-12+001499999V0209991C000019999999N0000001N9+00281+99999103031ADDGF108991999999999999999999
0029029720999991905041606004+60450+022267FM-12+001499999V0209991C000019999999N0000001N9+00111+99999102841ADDGF108991999999999999999999
0029029720999991905041613004+60450+022267FM-12+001499999V0200501N004619999999N0000001N9+00221+99999102751ADDGF108991999999999999999999
0029029720999991905041620004+60450+022267FM-12+001499999V0200501N001019999999N0000001N9+00171+99999102921ADDGF107991999999999999999999
0029029720999991905041706004+60450+022267FM-12+001499999V0200501N004619999999N0000001N9+00111+99999102951ADDGF108991999999999999999999
0029029720999991905041713004+60450+022267FM-12+001499999V0200901N004619999999N0000001N9+00611+99999102871ADDGF100991999999999999999999
0029029720999991905041720004+60450+022267FM-12+001499999V0200501N002619999999N0000001N9+00171+99999102991ADDGF100991999999999999999999
0029029720999991905041806004+60450+022267FM-12+001499999V0200501N002619999999N0000001N9+00061+99999102941ADDGF100991999999999999999999
0029029720999991905041813004+60450+022267FM-12+001499999V0200501N004619999999N0000001N9+00611+99999102711ADDGF108991999999999999999999
0029029720999991905041820004+60450+022267FM-12+001499999V0200501N001019999999N0000001N9+00171+99999102631ADDGF108991999999999999999999
0029029720999991905041906004+60450+022267FM-12+001499999V0200901N001019999999N0000001N9+00171+99999102001ADDGF105991999999999999999999
0029029720999991905041913004+60450+022267FM-12+001499999V0200901N004619999999N0000001N9+00501+99999101721ADDGF108991999999999999999999
0029029720999991905041920004+60450+022267FM-12+001499999V0200901N004619999999N0000001N9+00441+99999101391ADDGF108991999999999999999999
0035029720999991905042006004+60450+022267FM-12+001499999V0200901N002619999999N0000001N9+00331+99999101001ADDGF108991999999999999999999MW1621
0029029720999991905042013004+60450+022267FM-12+001499999V0200901N002619999999N0000001N9+00501+99999100881ADDGF108991999999999999999999
0029029720999991905042020004+60450+022267FM-12+001499999V0200901N002619999999N0000001N9+00331+99999100701ADDGF108991999999999999999999
0029029720999991905042106004+60450+022267FM-12+001499999V0202701N001019999999N0000001N9+00111+99999100431ADDGF108991999999999999999999
0029029720999991905042113004+60450+022267FM-12+001499999V0202701N002619999999N0000001N9+00441+99999100441ADDGF106991999999999999999999
0029029720999991905042120004+60450+022267FM-12+001499999V0209991C000019999999N0000001N9-00061+99999100361ADDGF108991999999999999999999
0035029720999991905042206004+60450+022267FM-12+001499999V0200901N001019999999N0000001N9+00061+99999099621ADDGF108991999999999999999999MW1721
0035029720999991905042213004+60450+022267FM-12+001499999V0200901N001019999999N0000001N9+00441+99999098911ADDGF108991999999999999999999MW1621
0029029720999991905042220004+60450+022267FM-12+001499999V0201401N002619999999N0000001N9+00281+99999098821ADDGF108991999999999999999999
0029029720999991905042306004+60450+022267FM-12+001499999V0201801N001019999999N0000001N9+00111+99999099541ADDGF108991999999999999999999
0029029720999991905042313004+60450+022267FM-12+001499999V0202301N004619999999N0000001N9+00561+99999099801ADDGF100991999999999999999999
0029029720999991905042320004+60450+022267FM-12+001499999V0202701N002619999999N0000001N9+00171+99999100121ADDGF108991999999999999999999
0029029720999991905042406004+60450+022267FM-12+001499999V0209991C000019999999N0000001N9+00281+99999100561ADDGF100991999999999999999999
0029029720999991905042413004+60450+022267FM-12+001499999V0201801N004619999999N0000001N9+00721+99999100431ADDGF108991999999999999999999
0029029720999991905042420004+60450+022267FM-12+001499999V0202301N001019999999N0000001N9+00221+99999100221ADDGF105991999999999999999999
0029029720999991905042506004+60450+022267FM-12+001499999V0209991C000019999999N0000001N9-00111+99999100261ADDGF108991999999999999999999
0029029720999991905042513004+60450+022267FM-12+001499999V0201801N004619999999N0000001N9+00391+99999100511ADDGF108991999999999999999999
0029029720999991905042520004+60450+022267FM-12+001499999V0201801N004619999999N0000001N9+00171+99999100421ADDGF108991999999999999999999
0029029720999991905042606004+60450+022267FM-12+001499999V0201801N004619999999N0000001N9+00281+99999100401ADDGF108991999999999999999999
0029029720999991905042613004+60450+022267FM-12+001499999V0201801N004619999999N0000001N9+00671+99999100741ADDGF108991999999999999999999
0029029720999991905042620004+60450+022267FM-12+001499999V0201801N004619999999N0000001N9+00281+99999100981ADDGF108991999999999999999999
0029029720999991905042706004+60450+022267FM-12+001499999V0201401N004619999999N0000001N9+00331+99999101081ADDGF108991999999999999999999
0029029720999991905042713004+60450+022267FM-12+001499999V0201801N004619999999N0000001N9+00561+99999101271ADDGF108991999999999999999999
0029029720999991905042720004+60450+022267FM-12+001499999V0201801N001019999999N0000001N9+00221+99999101301ADDGF108991999999999999999999
0029029720999991905042806004+60450+022267FM-12+001499999V0201401N001019999999N0000001N9+00281+99999101261ADDGF108991999999999999999999
0029029720999991905042813004+60450+022267FM-12+001499999V0201801N002619999999N0000001N9+00671+99999101361ADDGF103991999999999999999999
0029029720999991905042820004+60450+022267FM-12+001499999V0201801N002619999999N0000001N9+00441+99999101301ADDGF108991999999999999999999
0029029720999991905042906004+60450+022267FM-12+001499999V0201401N006719999999N0000001N9+00611+99999100981ADDGF108991999999999999999999
0029029720999991905042913004+60450+022267FM-12+001499999V0201401N004619999999N0000001N9+00611+99999100961ADDGF108991999999999999999999
0029029720999991905042920004+60450+022267FM-12+001499999V0201401N002619999999N0000001N9+00611+99999100861ADDGF108991999999999999999999
0029029720999991905043006004+60450+022267FM-12+001499999V0201801N001019999999N0000001N9+00941+99999101061ADDGF100991999999999999999999
0029029720999991905043013004+60450+022267FM-12+001499999V0201801N002619999999N0000001N9+01281+99999101221ADDGF100991999999999999999999
0029029720999991905043020004+60450+022267FM-12+001499999V0201601N002619999999N0000001N9+00831+99999101191ADDGF108991999999999999999999
0029029720999991905050106004+60450+022267FM-12+001499999V0201601N002619999999N0000001N9+01111+99999100751ADDGF108991999999999999999999
0029029720999991905050113004+60450+022267FM-12+001499999V0201601N002619999999N0000001N9+00671+99999100961ADDGF108991999999999999999999
0029029720999991905050120004+60450+022267FM-12+001499999V0201801N001019999999N0000001N9+00561+99999100921ADDGF108991999999999999999999
0029029720999991905050206004+60450+022267FM-12+001499999V0202301N002619999999N0000001N9+00781+99999101181ADDGF102991999999999999999999
0029029720999991905050213004+60450+022267FM-12+001499999V0202301N004619999999N0000001N9+01331+99999101121ADDGF108991999999999999999999
0029029720999991905050220004+60450+022267FM-12+001499999V0200901N006719999999N0000001N9+01061+99999100991ADDGF108991999999999999999999
0035029720999991905050306004+60450+022267FM-12+001499999V0201401N002619999999N0000001N9+00831+99999100861ADDGF108991999999999999999999MW1621
0029029720999991905050313004+60450+022267FM-12+001499999V0201401N002619999999N0000001N9+01061+99999100961ADDGF108991999999999999999999
0029029720999991905050320004+60450+022267FM-12+001499999V0201401N001019999999N0000001N9+00561+99999101191ADDGF104991999999999999999999
0029029720999991905050406004+60450+022267FM-12+001499999V0201801N002619999999N0000001N9+00781+99999101551ADDGF106991999999999999999999
0029029720999991905050413004+60450+022267FM-12+001499999V0201401N004619999999N0000001N9+01221+99999101751ADDGF102991999999999999999999
0029029720999991905050420004+60450+022267FM-12+001499999V0202301N002619999999N0000001N9+00561+99999101951ADDGF106991999999999999999999
0029029720999991905050506004+60450+022267FM-12+001499999V0202701N009319999999N0000001N9+00781+99999102541ADDGF104991999999999999999999
0029029720999991905050513004+60450+022267FM-12+001499999V0202701N009319999999N0000001N9+01001+99999102921ADDGF103991999999999999999999
0029029720999991905050520004+60450+022267FM-12+001499999V0203601N002619999999N0000001N9+00441+99999103161ADDGF102991999999999999999999
0029029720999991905050606004+60450+022267FM-12+001499999V0200501N002619999999N0000001N9+00561+99999103221ADDGF102991999999999999999999
0029029720999991905050613004+60450+022267FM-12+001499999V0202301N009319999999N0000001N9+01111+99999103101ADDGF102991999999999999999999
0029029720999991905050620004+60450+022267FM-12+001499999V0201801N002619999999N0000001N9+00501+99999102841ADDGF101991999999999999999999
0029029720999991905050706004+60450+022267FM-12+001499999V0201801N001019999999N0000001N9+01171+99999102481ADDGF101991999999999999999999
0029029720999991905050713004+60450+022267FM-12+001499999V0201801N002619999999N0000001N9+01441+99999102111ADDGF108991999999999999999999
0029029720999991905050720004+60450+022267FM-12+001499999V0201401N002619999999N0000001N9+01061+99999101511ADDGF105991999999999999999999
0029029720999991905050806004+60450+022267FM-12+001499999V0201801N002619999999N0000001N9+01281+99999100871ADDGF100991999999999999999999
0029029720999991905050813004+60450+022267FM-12+001499999V0201801N006719999999N0000001N9+01061+99999100671ADDGF106991999999999999999999
0029029720999991905050820004+60450+022267FM-12+001499999V0202301N002619999999N0000001N9+00671+99999100561ADDGF108991999999999999999999
0035029720999991905050906004+60450+022267FM-12+001499999V0209991C000019999999N0000001N9+00721+99999100861ADDGF108991999999999999999999MW1621
0029029720999991905050913004+60450+022267FM-12+001499999V0202701N002619999999N0000001N9+01501+99999101111ADDGF105991999999999999999999
0029029720999991905050920004+60450+022267FM-12+001499999V0209991C000019999999N0000001N9+00941+99999101231ADDGF108991999999999999999999
0029029720999991905051006004+60450+022267FM-12+001499999V0200501N004619999999N0000001N9+01001+99999101501ADDGF106991999999999999999999
0035029720999991905051013004+60450+022267FM-12+001499999V0200901N001019999999N0000001N9+01331+99999101561ADDGF108991999999999999999999MW1621
0029029720999991905051020004+60450+022267FM-12+001499999V0200501N001019999999N0000001N9+01061+99999101461ADDGF108991999999999999999999
0035029720999991905051106004+60450+022267FM-12+001499999V0209991C000019999999N0000001N9+00671+99999101391ADDGF108991999999999999999999MW1621
0029029720999991905051113004+60450+022267FM-12+001499999V0201801N002619999999N0000001N9+00891+99999101361ADDGF107991999999999999999999
0029029720999991905051120004+60450+022267FM-12+001499999V0201801N001019999999N0000001N9+00501+99999101301ADDGF100991999999999999999999
0029029720999991905051206004+60450+022267FM-12+001499999V0209991C000019999999N0000001N9+00561+99999101061ADDGF108991999999999999999999
0029029720999991905051213004+60450+022267FM-12+001499999V0202301N001019999999N0000001N9+01111+99999100951ADDGF108991999999999999999999
0029029720999991905051220004+60450+022267FM-12+001499999V0201801N001019999999N0000001N9+00721+99999100901ADDGF108991999999999999999999
0029029720999991905051306004+60450+022267FM-12+001499999V0201401N002619999999N0000001N9+00891+99999101241ADDGF108991999999999999999999
0029029720999991905051313004+60450+022267FM-12+001499999V0202701N002619999999N0000001N9+01281+99999101501ADDGF103991999999999999999999
0029029720999991905051320004+60450+022267FM-12+001499999V0203201N001019999999N0000001N9+00721+99999101751ADDGF101991999999999999999999
0029029720999991905051406004+60450+022267FM-12+001499999V0202701N001019999999N0000001N9+01001+99999101951ADDGF100991999999999999999999
0029029720999991905051413004+60450+022267FM-12+001499999V0203201N004619999999N0000001N9+01501+99999101881ADDGF104991999999999999999999
0029029720999991905051420004+60450+022267FM-12+001499999V0209991C000019999999N0000001N9+00941+99999101901ADDGF101991999999999999999999
0029029720999991905051506004+60450+022267FM-12+001499999V0209991C000019999999N0000001N9+01171+99999102061ADDGF100991999999999999999999
0029029720999991905051513004+60450+022267FM-12+001499999V0203201N002619999999N0000001N9+01441+99999102021ADDGF100991999999999999999999
0029029720999991905051520004+60450+022267FM-12+001499999V0203601N001019999999N0000001N9+00941+99999102041ADDGF100991999999999999999999
0029029720999991905051606004+60450+022267FM-12+001499999V0203601N002619999999N0000001N9+00941+99999102351ADDGF100991999999999999999999
0029029720999991905051613004+60450+022267FM-12+001499999V0203601N004619999999N0000001N9+01441+99999102381ADDGF106991999999999999999999
0029029720999991905051620004+60450+022267FM-12+001499999V0203601N001019999999N0000001N9+00781+99999102501ADDGF105991999999999999999999
0029029720999991905051706004+60450+022267FM-12+001499999V0203601N001019999999N0000001N9+01111+99999102671ADDGF100991999999999999999999
0029029720999991905051713004+60450+022267FM-12+001499999V0202701N002619999999N0000001N9+01721+99999102541ADDGF103991999999999999999999
0029029720999991905051720004+60450+022267FM-12+001499999V0202301N001019999999N0000001N9+01001+99999102381ADDGF100991999999999999999999
0029029720999991905051806004+60450+022267FM-12+001499999V0202701N001019999999N0000001N9+01391+99999101941ADDGF101991999999999999999999
0029029720999991905051813004+60450+022267FM-12+001499999V0203201N004619999999N0000001N9+01671+99999101941ADDGF101991999999999999999999
0029029720999991905051820004+60450+022267FM-12+001499999V0203601N001019999999N0000001N9+01001+99999101961ADDGF100991999999999999999999
0029029720999991905051906004+60450+022267FM-12+001499999V0203201N001019999999N0000001N9+01001+99999101941ADDGF100991999999999999999999
0029029720999991905051913004+60450+022267FM-12+001499999V0203601N004619999999N0000001N9+01501+99999101661ADDGF100991999999999999999999
0029029720999991905051920004+60450+022267FM-12+001499999V0203201N001019999999N0000001N9+00831+99999101071ADDGF107991999999999999999999
0035029720999991905052006004+60450+022267FM-12+001499999V0200501N001019999999N0000001N9+00611+99999100701ADDGF108991999999999999999999MW1621
0029029720999991905052013004+60450+022267FM-12+001499999V0203601N004619999999N0000001N9+00891+99999100721ADDGF105991999999999999999999
0029029720999991905052020004+60450+022267FM-12+001499999V0203601N002619999999N0000001N9+00441+99999100601ADDGF100991999999999999999999
0029029720999991905052106004+60450+022267FM-12+001499999V0203601N002619999999N0000001N9+00781+99999100551ADDGF100991999999999999999999
0029029720999991905052113004+60450+022267FM-12+001499999V0203601N004619999999N0000001N9+00941+99999100511ADDGF103991999999999999999999
0029029720999991905052120004+60450+022267FM-12+001499999V0203601N001019999999N0000001N9+00391+99999100521ADDGF100991999999999999999999
0029029720999991905052206004+60450+022267FM-12+001499999V0203601N001019999999N0000001N9+00721+99999100781ADDGF100991999999999999999999
0029029720999991905052213004+60450+022267FM-12+001499999V0203601N002619999999N0000001N9+01001+99999100711ADDGF100991999999999999999999
0029029720999991905052220004+60450+022267FM-12+001499999V0203601N001019999999N0000001N9+00441+99999100701ADDGF100991999999999999999999
0029029720999991905052306004+60450+022267FM-12+001499999V0203601N001019999999N0000001N9+00721+99999100471ADDGF101991999999999999999999
0029029720999991905052313004+60450+022267FM-12+001499999V0202701N002619999999N0000001N9+01221+99999100271ADDGF108991999999999999999999
0029029720999991905052320004+60450+022267FM-12+001499999V0209991C000019999999N0000001N9+00781+99999100281ADDGF108991999999999999999999
0029029720999991905052406004+60450+022267FM-12+001499999V0209991C000019999999N0000001N9+00941+99999100591ADDGF101991999999999999999999
0029029720999991905052413004+60450+022267FM-12+001499999V0203201N004619999999N0000001N9+01221+99999100751ADDGF101991999999999999999999
0029029720999991905052420004+60450+022267FM-12+001499999V0209991C000019999999N0000001N9+00721+99999100841ADDGF108991999999999999999999
0029029720999991905052506004+60450+022267FM-12+001499999V0209991C000019999999N0000001N9+01221+99999100941ADDGF100991999999999999999999
0029029720999991905052513004+60450+022267FM-12+001499999V0202301N002619999999N0000001N9+01331+99999101111ADDGF100991999999999999999999
0029029720999991905052520004+60450+022267FM-12+001499999V0209991C000019999999N0000001N9+00721+99999101391ADDGF100991999999999999999999
0029029720999991905052606004+60450+022267FM-12+001499999V0202301N001019999999N0000001N9+01281+99999101621ADDGF100991999999999999999999
0029029720999991905052613004+60450+022267FM-12+001499999V0202701N002619999999N0000001N9+01441+99999101741ADDGF100991999999999999999999
0029029720999991905052620004+60450+022267FM-12+001499999V0202301N001019999999N0000001N9+00891+99999101821ADDGF101991999999999999999999
0029029720999991905052706004+60450+022267FM-12+001499999V0202301N002619999999N0000001N9+01171+99999101961ADDGF108991999999999999999999
0029029720999991905052713004+60450+022267FM-12+001499999V0202501N002619999999N0000001N9+01561+99999102031ADDGF108991999999999999999999
0029029720999991905052720004+60450+022267FM-12+001499999V0202301N001019999999N0000001N9+00941+99999101941ADDGF108991999999999999999999
0035029720999991905052806004+60450+022267FM-12+001499999V0202701N001019999999N0000001N9+00941+99999101721ADDGF108991999999999999999999MW1621
0029029720999991905052813004+60450+022267FM-12+001499999V0203201N002619999999N0000001N9+01171+99999101991ADDGF102991999999999999999999
0029029720999991905052820004+60450+022267FM-12+001499999V0203201N001019999999N0000001N9+00781+99999102121ADDGF108991999999999999999999
0029029720999991905052906004+60450+022267FM-12+001499999V0209991C000019999999N0000001N9+01221+99999102151ADDGF100991999999999999999999
0029029720999991905052913004+60450+022267FM-12+001499999V0201801N002619999999N0000001N9+01721+99999102111ADDGF106991999999999999999999
0029029720999991905052920004+60450+022267FM-12+001499999V0201801N002619999999N0000001N9+01281+99999101871ADDGF106991999999999999999999
0029029720999991905053006004+60450+022267FM-12+001499999V0202701N002619999999N0000001N9+01721+99999101621ADDGF105991999999999999999999
0029029720999991905053013004+60450+022267FM-12+001499999V0202301N004619999999N0000001N9+02171+99999101471ADDGF108991999999999999999999
0029029720999991905053020004+60450+022267FM-12+001499999V0201801N004619999999N0000001N9+01441+99999101041ADDGF108991999999999999999999
0029029720999991905053106004+60450+022267FM-12+001499999V0203201N001019999999N0000001N9+01671+99999101351ADDGF100991999999999999999999
0029029720999991905053113004+60450+022267FM-12+001499999V0203201N002619999999N0000001N9+02001+99999101441ADDGF100991999999999999999999
0029029720999991905053120004+60450+022267FM-12+001499999V0209991C000019999999N0000001N9+01441+99999101481ADDGF100991999999999999999999
0029029720999991905060106004+60450+022267FM-12+001499999V0201401N001019999999N0000001N9+01281+99999101581ADDGF108991999999999999999999
0029029720999991905060113004+60450+022267FM-12+001499999V0201401N004619999999N0000001N9+01891+99999101431ADDGF108991999999999999999999
0029029720999991905060120004+60450+022267FM-12+001499999V0200901N002619999999N0000001N9+01441+99999100911ADDGF108991999999999999999999
0029029720999991905060206004+60450+022267FM-12+001499999V0202701N004619999999N0000001N9+01171+99999100601ADDGF108991999999999999999999
0029029720999991905060213004+60450+022267FM-12+001499999V0202701N004619999999N0000001N9+01501+99999100701ADDGF108991999999999999999999
0029029720999991905060220004+60450+022267FM-12+001499999V0202701N001019999999N0000001N9+01221+99999100681ADDGF108991999999999999999999
0029029720999991905060306004+60450+022267FM-12+001499999V0202301N004619999999N0000001N9+01171+99999100471ADDGF108991999999999999999999
0029029720999991905060313004+60450+022267FM-12+001499999V0202301N004619999999N0000001N9+01721+99999100551ADDGF108991999999999999999999
0029029720999991905060320004+60450+022267FM-12+001499999V0202701N001019999999N0000001N9+01281+99999100661ADDGF102991999999999999999999
0029029720999991905060406004+60450+022267FM-12+001499999V0202701N004619999999N0000001N9+01611+99999100911ADDGF100991999999999999999999
0029029720999991905060413004+60450+022267FM-12+001499999V0202701N006719999999N0000001N9+01831+99999101031ADDGF100991999999999999999999
0029029720999991905060420004+60450+022267FM-12+001499999V0202701N001019999999N0000001N9+01391+99999101191ADDGF100991999999999999999999
0029029720999991905060506004+60450+022267FM-12+001499999V0202701N001019999999N0000001N9+01391+99999101101ADDGF108991999999999999999999
0029029720999991905060513004+60450+022267FM-12+001499999V0201801N006719999999N0000001N9+01781+99999100961ADDGF108991999999999999999999
0029029720999991905060520004+60450+022267FM-12+001499999V0201801N006719999999N0000001N9+01171+99999100681ADDGF108991999999999999999999
0029029720999991905060606004+60450+022267FM-12+001499999V0203201N004619999999N0000001N9+01171+99999100581ADDGF108991999999999999999999
0029029720999991905060613004+60450+022267FM-12+001499999V0202701N009319999999N0000001N9+01611+99999100711ADDGF107991999999999999999999
0029029720999991905060620004+60450+022267FM-12+001499999V0203201N006719999999N0000001N9+01061+99999100721ADDGF106991999999999999999999
0029029720999991905060706004+60450+022267FM-12+001499999V0203601N006719999999N0000001N9+00941+99999100821ADDGF108991999999999999999999
0029029720999991905060713004+60450+022267FM-12+001499999V0203601N009319999999N0000001N9+01781+99999100921ADDGF106991999999999999999999
0029029720999991905060720004+60450+022267FM-12+001499999V0203601N004619999999N0000001N9+01501+99999101161ADDGF105991999999999999999999
0029029720999991905060806004+60450+022267FM-12+001499999V0203601N006719999999N0000001N9+01111+99999101561ADDGF102991999999999999999999
0029029720999991905060813004+60450+022267FM-12+001499999V0203601N009319999999N0000001N9+01561+99999101671ADDGF106991999999999999999999
0029029720999991905060820004+60450+022267FM-12+001499999V0200501N002619999999N0000001N9+01061+99999101801ADDGF101991999999999999999999
0029029720999991905060906004+60450+022267FM-12+001499999V0203601N002619999999N0000001N9+01001+99999101981ADDGF108991999999999999999999
0029029720999991905060913004+60450+022267FM-12+001499999V0200501N004619999999N0000001N9+01331+99999101861ADDGF108991999999999999999999
0029029720999991905060920004+60450+022267FM-12+001499999V0200501N002619999999N0000001N9+01111+99999101831ADDGF108991999999999999999999
0029029720999991905061006004+60450+022267FM-12+001499999V0200501N001019999999N0000001N9+01111+99999102071ADDGF108991999999999999999999
0029029720999991905061013004+60450+022267FM-12+001499999V0200501N002619999999N0000001N9+01331+99999101871ADDGF103991999999999999999999
0029029720999991905061020004+60450+022267FM-12+001499999V0202701N002619999999N0000001N9+00781+99999101751ADDGF102991999999999999999999
0029029720999991905061106004+60450+022267FM-12+001499999V0202301N006719999999N0000001N9+00831+99999101441ADDGF108991999999999999999999
0029029720999991905061113004+60450+022267FM-12+001499999V0202701N006719999999N0000001N9+01391+99999101191ADDGF106991999999999999999999
0029029720999991905061120004+60450+022267FM-12+001499999V0202701N002619999999N0000001N9+00941+99999101111ADDGF107991999999999999999999
0029029720999991905061206004+60450+022267FM-12+001499999V0202701N001019999999N0000001N9+01501+99999101341ADDGF100991999999999999999999
0029029720999991905061213004+60450+022267FM-12+001499999V0202701N004619999999N0000001N9+01721+99999101641ADDGF105991999999999999999999
0029029720999991905061220004+60450+022267FM-12+001499999V0201801N004619999999N0000001N9+01061+99999101981ADDGF105991999999999999999999
0029029720999991905061306004+60450+022267FM-12+001499999V0200501N002619999999N0000001N9+01671+99999102201ADDGF100991999999999999999999
0029029720999991905061313004+60450+022267FM-12+001499999V0200901N009319999999N0000001N9+02001+99999102221ADDGF106991999999999999999999
0029029720999991905061320004+60450+022267FM-12+001499999V0200901N001019999999N0000001N9+01501+99999102341ADDGF101991999999999999999999
0029029720999991905061406004+60450+022267FM-12+001499999V0200501N006719999999N0000001N9+01831+99999102321ADDGF107991999999999999999999
0029029720999991905061413004+60450+022267FM-12+001499999V0200901N009319999999N0000001N9+02221+99999102101ADDGF108991999999999999999999
0029029720999991905061420004+60450+022267FM-12+001499999V0200501N004619999999N0000001N9+02111+99999101991ADDGF105991999999999999999999
0029029720999991905061506004+60450+022267FM-12+001499999V0200501N006719999999N0000001N9+01671+99999101741ADDGF108991999999999999999999
0029029720999991905061513004+60450+022267FM-12+001499999V0202701N002619999999N0000001N9+02111+99999101711ADDGF103991999999999999999999
0029029720999991905061520004+60450+022267FM-12+001499999V0202501N001019999999N0000001N9+01561+99999101791ADDGF100991999999999999999999
0029029720999991905061606004+60450+022267FM-12+001499999V0202301N001019999999N0000001N9+01891+99999101961ADDGF100991999999999999999999
0029029720999991905061613004+60450+022267FM-12+001499999V0203601N004619999999N0000001N9+02441+99999101881ADDGF102991999999999999999999
0029029720999991905061620004+60450+022267FM-12+001499999V0203601N004619999999N0000001N9+02001+99999101861ADDGF104991999999999999999999
0029029720999991905061706004+60450+022267FM-12+001499999V0200501N004619999999N0000001N9+02001+99999101781ADDGF107991999999999999999999
0029029720999991905061713004+60450+022267FM-12+001499999V0200501N006719999999N0000001N9+02611+99999101481ADDGF104991999999999999999999
0029029720999991905061720004+60450+022267FM-12+001499999V0202701N001019999999N0000001N9+02281+99999101351ADDGF102991999999999999999999
0029029720999991905061806004+60450+022267FM-12+001499999V0203601N004619999999N0000001N9+02501+99999101201ADDGF107991999999999999999999
0029029720999991905061813004+60450+022267FM-12+001499999V0203601N009319999999N0000001N9+02781+99999101101ADDGF107991999999999999999999
0029029720999991905061820004+60450+022267FM-12+001499999V0203601N006719999999N0000001N9+02111+99999101081ADDGF102991999999999999999999
0029029720999991905061906004+60450+022267FM-12+001499999V0201401N004619999999N0000001N9+02501+99999100921ADDGF104991999999999999999999
0029029720999991905061913004+60450+022267FM-12+001499999V0201801N009319999999N0000001N9+02781+99999100911ADDGF103991999999999999999999
0029029720999991905061920004+60450+022267FM-12+001499999V0201801N001019999999N0000001N9+02221+99999100921ADDGF107991999999999999999999
0029029720999991905062006004+60450+022267FM-12+001499999V0202301N006719999999N0000001N9+01781+99999101001ADDGF108991999999999999999999
0029029720999991905062013004+60450+022267FM-12+001499999V0202701N009319999999N0000001N9+01831+99999101381ADDGF107991999999999999999999
0029029720999991905062020004+60450+022267FM-12+001499999V0201801N004619999999N0000001N9+01721+99999101541ADDGF108991999999999999999999
0029029720999991905062106004+60450+022267FM-12+001499999V0202701N009319999999N0000001N9+02061+99999101671ADDGF102991999999999999999999
0029029720999991905062113004+60450+022267FM-12+001499999V0201801N009319999999N0000001N9+02281+99999101631ADDGF105991999999999999999999
0029029720999991905062120004+60450+022267FM-12+001499999V0201801N006719999999N0000001N9+01671+99999101321ADDGF108991999999999999999999
0029029720999991905062206004+60450+022267FM-12+001499999V0201801N006719999999N0000001N9+01611+99999100831ADDGF108991999999999999999999
0029029720999991905062213004+60450+022267FM-12+001499999V0201801N006719999999N0000001N9+01671+99999100831ADDGF108991999999999999999999
0029029720999991905062220004+60450+022267FM-12+001499999V0201401N002619999999N0000001N9+01611+99999101061ADDGF106991999999999999999999
0029029720999991905062306004+60450+022267FM-12+001499999V0203601N004619999999N0000001N9+01941+99999101841ADDGF102991999999999999999999
0000029720999991905062313004+60450+022267FM-12+001499999V02099999999999999999N0000001N9+02331+99999102261
0000029720999991905062320004+60450+022267FM-12+001499999V02099999999999999999N0000001N9+01891+99999102471
0000029720999991905062406004+60450+022267FM-12+001499999V02099999999999999999N0000001N9+02171+99999102591
0000029720999991905062413004+60450+022267FM-12+001499999V02099999999999999999N0000001N9+02281+99999102431
0000029720999991905062420004+60450+022267FM-12+001499999V02099999999999999999N0000001N9+01831+99999102361
0000029720999991905062506004+60450+022267FM-12+001499999V02099999999999999999N0000001N9+02171+99999102391
0000029720999991905062513004+60450+022267FM-12+001499999V02099999999999999999N0000001N9+02281+99999102261
0000029720999991905062520004+60450+022267FM-12+001499999V02099999999999999999N0000001N9+02061+99999102101
0000029720999991905062606004+60450+022267FM-12+001499999V02099999999999999999N0000001N9+02111+99999102021
0000029720999991905062613004+60450+022267FM-12+001499999V02099999999999999999N0000001N9+02331+99999102021
0000029720999991905062620004+60450+022267FM-12+001499999V02099999999999999999N0000001N9+01891+99999101941
0029029720999991905062706004+60450+022267FM-12+001499999V0202301N002619999999N0000001N9+02391+99999101791ADDGF100991999999999999999999
0029029720999991905062713004+60450+022267FM-12+001499999V0201401N009319999999N0000001N9+02671+99999101471ADDGF100991999999999999999999
0029029720999991905062720004+60450+022267FM-12+001499999V0201801N001019999999N0000001N9+02171+99999101151ADDGF101991999999999999999999
0029029720999991905062806004+60450+022267FM-12+001499999V0201801N002619999999N0000001N9+02611+99999100791ADDGF102991999999999999999999
0029029720999991905062813004+60450+022267FM-12+001499999V0201801N009319999999N0000001N9+02671+99999100681ADDGF102991999999999999999999
0029029720999991905062820004+60450+022267FM-12+001499999V0201801N002619999999N0000001N9+02001+99999100561ADDGF102991999999999999999999
0029029720999991905062906004+60450+022267FM-12+001499999V0201401N006719999999N0000001N9+01831+99999100621ADDGF108991999999999999999999
0029029720999991905062913004+60450+022267FM-12+001499999V0201801N009319999999N0000001N9+02391+99999100631ADDGF102991999999999999999999
0029029720999991905062920004+60450+022267FM-12+001499999V0201801N004619999999N0000001N9+01941+99999100751ADDGF102991999999999999999999
0029029720999991905063006004+60450+022267FM-12+001499999V0202301N006719999999N0000001N9+02171+99999101101ADDGF106991999999999999999999
0029029720999991905063013004+60450+022267FM-12+001499999V0202301N012319999999N0000001N9+02561+99999101101ADDGF106991999999999999999999
0029029720999991905063020004+60450+022267FM-12+001499999V0203601N001019999999N0000001N9+01831+99999101301ADDGF104991999999999999999999
0029029720999991905070106004+60450+022267FM-12+001499999V0203601N004619999999N0000001N9+02061+99999101591ADDGF106991999999999999999999
0029029720999991905070113004+60450+022267FM-12+001499999V0203601N004619999999N0000001N9+02061+99999101711ADDGF108991999999999999999999
0029029720999991905070120004+60450+022267FM-12+001499999V0203601N002619999999N0000001N9+01781+99999101791ADDGF106991999999999999999999
0029029720999991905070206004+60450+022267FM-12+001499999V0203601N002619999999N0000001N9+01941+99999101991ADDGF105991999999999999999999
0029029720999991905070213004+60450+022267FM-12+001499999V0202301N006719999999N0000001N9+02441+99999101911ADDGF102991999999999999999999
0029029720999991905070220004+60450+022267FM-12+001499999V0202701N001019999999N0000001N9+01721+99999101781ADDGF101991999999999999999999
0029029720999991905070306004+60450+022267FM-12+001499999V0201801N006719999999N0000001N9+02061+99999101661ADDGF107991999999999999999999
0029029720999991905070313004+60450+022267FM-12+001499999V0202301N009319999999N0000001N9+02391+99999101231ADDGF103991999999999999999999
0029029720999991905070320004+60450+022267FM-12+001499999V0201801N006719999999N0000001N9+01831+99999101021ADDGF108991999999999999999999
0029029720999991905070406004+60450+022267FM-12+001499999V0202701N004619999999N0000001N9+02221+99999100791ADDGF101991999999999999999999
0029029720999991905070413004+60450+022267FM-12+001499999V0202701N012319999999N0000001N9+02331+99999100821ADDGF102991999999999999999999
0029029720999991905070420004+60450+022267FM-12+001499999V0203201N006719999999N0000001N9+01611+99999101151ADDGF100991999999999999999999
0029029720999991905070506004+60450+022267FM-12+001499999V0202701N004619999999N0000001N9+02061+99999101071ADDGF101991999999999999999999
0029029720999991905070513004+60450+022267FM-12+001499999V0202701N009319999999N0000001N9+02221+99999100871ADDGF102991999999999999999999
0029029720999991905070520004+60450+022267FM-12+001499999V0201801N004619999999N0000001N9+01781+99999100471ADDGF102991999999999999999999
0029029720999991905070606004+60450+022267FM-12+001499999V0202301N004619999999N0000001N9+01831+99999099981ADDGF108991999999999999999999
0029029720999991905070613004+60450+022267FM-12+001499999V0202301N012319999999N0000001N9+02111+99999099761ADDGF106991999999999999999999
0029029720999991905070620004+60450+022267FM-12+001499999V0202701N002619999999N0000001N9+01501+99999099671ADDGF100991999999999999999999
0029029720999991905070706004+60450+022267FM-12+001499999V0202701N006719999999N0000001N9+01501+99999099431ADDGF106991999999999999999999
0029029720999991905070713004+60450+022267FM-12+001499999V0203601N009319999999N0000001N9+01221+99999099701ADDGF107991999999999999999999
0029029720999991905070720004+60450+022267FM-12+001499999V0202701N006719999999N0000001N9+01391+99999099981ADDGF101991999999999999999999
0029029720999991905070806004+60450+022267FM-12+001499999V0202701N009319999999N0000001N9+01611+99999099921ADDGF103991999999999999999999
0029029720999991905070813004+60450+022267FM-12+001499999V0203201N012319999999N0000001N9+01561+99999999999ADDGF106991999999999999999999
0029029720999991905070820004+60450+022267FM-12+001499999V0203201N004619999999N0000001N9+01391+99999100081ADDGF102991999999999999999999
0029029720999991905070906004+60450+022267FM-12+001499999V0203201N009319999999N0000001N9+01561+99999100261ADDGF102991999999999999999999
0029029720999991905070913004+60450+022267FM-12+001499999V0203201N012319999999N0000001N9+01611+99999100351ADDGF107991999999999999999999
0029029720999991905070920004+60450+022267FM-12+001499999V0203201N004619999999N0000001N9+01391+99999100351ADDGF101991999999999999999999
0029029720999991905071006004+60450+022267FM-12+001499999V0203201N009319999999N0000001N9+01671+99999100361ADDGF102991999999999999999999
0029029720999991905071013004+60450+022267FM-12+001499999V0203201N012319999999N0000001N9+01781+99999100541ADDGF106991999999999999999999
0029029720999991905071020004+60450+022267FM-12+001499999V0203201N006719999999N0000001N9+01441+99999100781ADDGF105991999999999999999999
0029029720999991905071106004+60450+022267FM-12+001499999V0203201N006719999999N0000001N9+01781+99999100741ADDGF100991999999999999999999
0029029720999991905071113004+60450+022267FM-12+001499999V0202701N009319999999N0000001N9+01721+99999100791ADDGF100991999999999999999999
0029029720999991905071120004+60450+022267FM-12+001499999V0202701N004619999999N0000001N9+01331+99999100861ADDGF101991999999999999999999
0029029720999991905071206004+60450+022267FM-12+001499999V0202701N004619999999N0000001N9+01721+99999100841ADDGF101991999999999999999999
0029029720999991905071213004+60450+022267FM-12+001499999V0202701N006719999999N0000001N9+01781+99999100801ADDGF107991999999999999999999
0029029720999991905071220004+60450+022267FM-12+001499999V0202701N002619999999N0000001N9+01331+99999100761ADDGF107991999999999999999999
0029029720999991905071306004+60450+022267FM-12+001499999V0203601N004619999999N0000001N9+01441+99999100591ADDGF101991999999999999999999
0029029720999991905071313004+60450+022267FM-12+001499999V0203201N006719999999N0000001N9+01671+99999100461ADDGF107991999999999999999999
0029029720999991905071320004+60450+022267FM-12+001499999V0203201N006719999999N0000001N9+01281+99999100521ADDGF108991999999999999999999
0029029720999991905071406004+60450+022267FM-12+001499999V0203201N006719999999N0000001N9+01221+99999100511ADDGF108991999999999999999999
0029029720999991905071413004+60450+022267FM-12+001499999V0203601N009319999999N0000001N9+01781+99999100521ADDGF107991999999999999999999
0029029720999991905071420004+60450+022267FM-12+001499999V0200501N004619999999N0000001N9+01501+99999100631ADDGF102991999999999999999999
0029029720999991905071506004+60450+022267FM-12+001499999V0203601N006719999999N0000001N9+01501+99999100701ADDGF101991999999999999999999
0029029720999991905071513004+60450+022267FM-12+001499999V0200501N009319999999N0000001N9+01941+99999100681ADDGF103991999999999999999999
0029029720999991905071520004+60450+022267FM-12+001499999V0203601N004619999999N0000001N9+01671+99999100711ADDGF101991999999999999999999
0029029720999991905071606004+60450+022267FM-12+001499999V0203601N002619999999N0000001N9+01831+99999100671ADDGF101991999999999999999999
0029029720999991905071613004+60450+022267FM-12+001499999V0202701N006719999999N0000001N9+02281+99999100641ADDGF102991999999999999999999
0029029720999991905071620004+60450+022267FM-12+001499999V0202301N004619999999N0000001N9+01781+99999100601ADDGF107991999999999999999999
0029029720999991905071706004+60450+022267FM-12+001499999V0201401N004619999999N0000001N9+01611+99999100231ADDGF108991999999999999999999
0035029720999991905071713004+60450+022267FM-12+001499999V0201801N006719999999N0000001N9+01781+99999100261ADDGF108991999999999999999999MW1621
0029029720999991905071720004+60450+022267FM-12+001499999V0201401N006719999999N0000001N9+01561+99999100071ADDGF107991999999999999999999
0029029720999991905071806004+60450+022267FM-12+001499999V0202301N006719999999N0000001N9+01831+99999099911ADDGF103991999999999999999999
0029029720999991905071813004+60450+022267FM-12+001499999V0202301N009319999999N0000001N9+01941+99999100061ADDGF104991999999999999999999
0029029720999991905071820004+60450+022267FM-12+001499999V0202301N004619999999N0000001N9+01561+99999100271ADDGF106991999999999999999999
0029029720999991905071906004+60450+022267FM-12+001499999V0201801N002619999999N0000001N9+02001+99999100581ADDGF105991999999999999999999
0029029720999991905071913004+60450+022267FM-12+001499999V0202301N006719999999N0000001N9+02171+99999100761ADDGF105991999999999999999999
0029029720999991905071920004+60450+022267FM-12+001499999V0202301N004619999999N0000001N9+01781+99999100871ADDGF107991999999999999999999
0029029720999991905072006004+60450+022267FM-12+001499999V0200501N004619999999N0000001N9+01611+99999100821ADDGF108991999999999999999999
0029029720999991905072013004+60450+022267FM-12+001499999V0200501N009319999999N0000001N9+01671+99999100801ADDGF108991999999999999999999
0029029720999991905072020004+60450+022267FM-12+001499999V0200901N006719999999N0000001N9+01671+99999100921ADDGF108991999999999999999999
0029029720999991905072106004+60450+022267FM-12+001499999V0200501N009319999999N0000001N9+01671+99999100741ADDGF108991999999999999999999
0029029720999991905072113004+60450+022267FM-12+001499999V0200901N009319999999N0000001N9+02281+99999100831ADDGF106991999999999999999999
0029029720999991905072120004+60450+022267FM-12+001499999V0201801N002619999999N0000001N9+01831+99999100991ADDGF107991999999999999999999
0029029720999991905072206004+60450+022267FM-12+001499999V0200901N004619999999N0000001N9+01611+99999100911ADDGF106991999999999999999999
0029029720999991905072213004+60450+022267FM-12+001499999V0200901N006719999999N0000001N9+02281+99999100901ADDGF106991999999999999999999
0029029720999991905072220004+60450+022267FM-12+001499999V0200901N002619999999N0000001N9+01941+99999100841ADDGF108991999999999999999999
0029029720999991905072306004+60450+022267FM-12+001499999V0200901N012319999999N0000001N9+02001+99999100161ADDGF107991999999999999999999
0029029720999991905072313004+60450+022267FM-12+001499999V0200901N009319999999N0000001N9+02221+99999100341ADDGF107991999999999999999999
0029029720999991905072320004+60450+022267FM-12+001499999V0200901N004619999999N0000001N9+01831+99999100261ADDGF108991999999999999999999
0029029720999991905072406004+60450+022267FM-12+001499999V0200901N006719999999N0000001N9+01781+99999100391ADDGF108991999999999999999999
0029029720999991905072413004+60450+022267FM-12+001499999V0200901N006719999999N0000001N9+02171+99999100521ADDGF107991999999999999999999
0029029720999991905072420004+60450+022267FM-12+001499999V0200901N004619999999N0000001N9+01831+99999100641ADDGF106991999999999999999999
0029029720999991905072506004+60450+022267FM-12+001499999V0200501N004619999999N0000001N9+01831+99999100591ADDGF102991999999999999999999
0029029720999991905072513004+60450+022267FM-12+001499999V0200501N009319999999N0000001N9+02111+99999100511ADDGF106991999999999999999999
0029029720999991905072520004+60450+022267FM-12+001499999V0200501N002619999999N0000001N9+01611+99999100581ADDGF107991999999999999999999
0029029720999991905072606004+60450+022267FM-12+001499999V0203601N006719999999N0000001N9+01721+99999100521ADDGF106991999999999999999999
0029029720999991905072613004+60450+022267FM-12+001499999V0202701N006719999999N0000001N9+02061+99999100521ADDGF106991999999999999999999
0029029720999991905072620004+60450+022267FM-12+001499999V0202701N002619999999N0000001N9+01611+99999100641ADDGF102991999999999999999999
0029029720999991905072706004+60450+022267FM-12+001499999V0201401N004619999999N0000001N9+01721+99999100591ADDGF107991999999999999999999
0029029720999991905072713004+60450+022267FM-12+001499999V0202701N006719999999N0000001N9+02111+99999100631ADDGF106991999999999999999999
0029029720999991905072720004+60450+022267FM-12+001499999V0202701N004619999999N0000001N9+01611+99999100741ADDGF106991999999999999999999
0029029720999991905072806004+60450+022267FM-12+001499999V0203201N002619999999N0000001N9+01891+99999100841ADDGF102991999999999999999999
0029029720999991905072813004+60450+022267FM-12+001499999V0202301N009319999999N0000001N9+02171+99999100721ADDGF102991999999999999999999
0029029720999991905072820004+60450+022267FM-12+001499999V0200901N001019999999N0000001N9+01611+99999100681ADDGF108991999999999999999999
0029029720999991905072906004+60450+022267FM-12+001499999V0209991C000019999999N0000001N9+01721+99999100631ADDGF101991999999999999999999
0035029720999991905072913004+60450+022267FM-12+001499999V0202701N004619999999N0000001N9+01611+99999100741ADDGF104991999999999999999999MW1171
0029029720999991905072920004+60450+022267FM-12+001499999V0203201N001019999999N0000001N9+01221+99999100781ADDGF100991999999999999999999
0035029720999991905073006004+60450+022267FM-12+001499999V0202301N004619999999N0000001N9+01831+99999100521ADDGF102991999999999999999999MW1171
0029029720999991905073013004+60450+022267FM-12+001499999V0202701N009319999999N0000001N9+02001+99999100391ADDGF106991999999999999999999
0029029720999991905073020004+60450+022267FM-12+001499999V0202701N002619999999N0000001N9+01561+99999100121ADDGF107991999999999999999999
0035029720999991905073106004+60450+022267FM-12+001499999V0200901N001019999999N0000001N9+01441+99999099861ADDGF108991999999999999999999MW1621
0029029720999991905073113004+60450+022267FM-12+001499999V0201801N006719999999N0000001N9+01781+99999099871ADDGF108991999999999999999999
0029029720999991905073120004+60450+022267FM-12+001499999V0200901N002619999999N0000001N9+01391+99999100161ADDGF108991999999999999999999
0029029720999991905080106004+60450+022267FM-12+001499999V0200901N002619999999N0000001N9+01671+99999100471ADDGF107991999999999999999999
0029029720999991905080113004+60450+022267FM-12+001499999V0202701N009319999999N0000001N9+02001+99999100681ADDGF101991999999999999999999
0029029720999991905080120004+60450+022267FM-12+001499999V0202701N004619999999N0000001N9+01501+99999101001ADDGF100991999999999999999999
0029029720999991905080206004+60450+022267FM-12+001499999V0200901N002619999999N0000001N9+01721+99999101151ADDGF107991999999999999999999
0029029720999991905080213004+60450+022267FM-12+001499999V0201401N006719999999N0000001N9+02171+99999101001ADDGF108991999999999999999999
0029029720999991905080220004+60450+022267FM-12+001499999V0200901N006719999999N0000001N9+01561+99999100311ADDGF108991999999999999999999
0029029720999991905080306004+60450+022267FM-12+001499999V0202301N009319999999N0000001N9+01441+99999100081ADDGF106991999999999999999999
0029029720999991905080313004+60450+022267FM-12+001499999V0202301N015419999999N0000001N9+01721+99999100301ADDGF106991999999999999999999
0029029720999991905080320004+60450+022267FM-12+001499999V0202301N009319999999N0000001N9+01611+99999100511ADDGF102991999999999999999999
0029029720999991905080406004+60450+022267FM-12+001499999V0202701N004619999999N0000001N9+01721+99999101111ADDGF102991999999999999999999
0029029720999991905080413004+60450+022267FM-12+001499999V0202701N006719999999N0000001N9+01891+99999101361ADDGF106991999999999999999999
0029029720999991905080420004+60450+022267FM-12+001499999V0202701N001019999999N0000001N9+01391+99999101501ADDGF102991999999999999999999
0029029720999991905080506004+60450+022267FM-12+001499999V0200901N004619999999N0000001N9+01831+99999101741ADDGF101991999999999999999999
0029029720999991905080513004+60450+022267FM-12+001499999V0200901N006719999999N0000001N9+02281+99999101561ADDGF101991999999999999999999
0029029720999991905080520004+60450+022267FM-12+001499999V0200901N006719999999N0000001N9+01831+99999101381ADDGF102991999999999999999999
0029029720999991905080606004+60450+022267FM-12+001499999V0200901N006719999999N0000001N9+01831+99999100981ADDGF106991999999999999999999
0029029720999991905080613004+60450+022267FM-12+001499999V0202301N009319999999N0000001N9+02501+99999100921ADDGF102991999999999999999999
0029029720999991905080620004+60450+022267FM-12+001499999V0202301N001019999999N0000001N9+02171+99999100761ADDGF105991999999999999999999
0029029720999991905080706004+60450+022267FM-12+001499999V0202701N004619999999N0000001N9+02171+99999101121ADDGF102991999999999999999999
0029029720999991905080713004+60450+022267FM-12+001499999V0202701N006719999999N0000001N9+02281+99999101341ADDGF101991999999999999999999
0029029720999991905080720004+60450+022267FM-12+001499999V0203201N006719999999N0000001N9+01781+99999101441ADDGF107991999999999999999999
0029029720999991905080806004+60450+022267FM-12+001499999V0203601N004619999999N0000001N9+01671+99999101301ADDGF108991999999999999999999
0029029720999991905080813004+60450+022267FM-12+001499999V0203601N006719999999N0000001N9+01781+99999101031ADDGF108991999999999999999999
0029029720999991905080820004+60450+022267FM-12+001499999V0202701N009319999999N0000001N9+01391+99999100791ADDGF108991999999999999999999
0029029720999991905080906004+60450+022267FM-12+001499999V0202701N006719999999N0000001N9+01611+99999101151ADDGF107991999999999999999999
0029029720999991905080913004+60450+022267FM-12+001499999V0202701N009319999999N0000001N9+02001+99999101301ADDGF102991999999999999999999
0029029720999991905080920004+60450+022267FM-12+001499999V0202701N004619999999N0000001N9+01611+99999101351ADDGF102991999999999999999999
0029029720999991905081006004+60450+022267FM-12+001499999V0201801N001019999999N0000001N9+01781+99999101221ADDGF106991999999999999999999
0029029720999991905081013004+60450+022267FM-12+001499999V0201801N006719999999N0000001N9+02001+99999101061ADDGF108991999999999999999999
0029029720999991905081020004+60450+022267FM-12+001499999V0200901N006719999999N0000001N9+01501+99999100561ADDGF108991999999999999999999
0029029720999991905081106004+60450+022267FM-12+001499999V0201801N009319999999N0000001N9+01611+99999100101ADDGF107991999999999999999999
0029029720999991905081113004+60450+022267FM-12+001499999V0201801N015419999999N0000001N9+01891+99999999999ADDGF106991999999999999999999
0029029720999991905081120004+60450+022267FM-12+001499999V0201801N009319999999N0000001N9+01501+99999099781ADDGF103991999999999999999999
0029029720999991905081206004+60450+022267FM-12+001499999V0201801N006719999999N0000001N9+01671+99999099841ADDGF107991999999999999999999
0029029720999991905081213004+60450+022267FM-12+001499999V0202301N009319999999N0000001N9+01721+99999099901ADDGF104991999999999999999999
0029029720999991905081220004+60450+022267FM-12+001499999V0202301N004619999999N0000001N9+01281+99999099781ADDGF103991999999999999999999
0029029720999991905081306004+60450+022267FM-12+001499999V0202701N009319999999N0000001N9+01281+99999099981ADDGF108991999999999999999999
0029029720999991905081313004+60450+022267FM-12+001499999V0202701N012319999999N0000001N9+01501+99999100631ADDGF107991999999999999999999
0029029720999991905081320004+60450+022267FM-12+001499999V0202701N002619999999N0000001N9+01111+99999100951ADDGF103991999999999999999999
0029029720999991905081406004+60450+022267FM-12+001499999V0202701N004619999999N0000001N9+01501+99999100871ADDGF105991999999999999999999
0029029720999991905081413004+60450+022267FM-12+001499999V0202701N009319999999N0000001N9+01561+99999101141ADDGF106991999999999999999999
0029029720999991905081420004+60450+022267FM-12+001499999V0203201N001019999999N0000001N9+01111+99999101521ADDGF101991999999999999999999
0029029720999991905081506004+60450+022267FM-12+001499999V0202701N002619999999N0000001N9+01611+99999101661ADDGF101991999999999999999999
0029029720999991905081513004+60450+022267FM-12+001499999V0202701N006719999999N0000001N9+01891+99999101661ADDGF106991999999999999999999
0029029720999991905081520004+60450+022267FM-12+001499999V0201801N002619999999N0000001N9+01501+99999101541ADDGF107991999999999999999999
0029029720999991905081606004+60450+022267FM-12+001499999V0201401N006719999999N0000001N9+01561+99999100761ADDGF107991999999999999999999
0029029720999991905081613004+60450+022267FM-12+001499999V0201801N009319999999N0000001N9+01781+99999100961ADDGF106991999999999999999999
0029029720999991905081620004+60450+022267FM-12+001499999V0201801N004619999999N0000001N9+01281+99999100871ADDGF102991999999999999999999
0029029720999991905081706004+60450+022267FM-12+001499999V0203601N002619999999N0000001N9+01171+99999100981ADDGF107991999999999999999999
0029029720999991905081713004+60450+022267FM-12+001499999V0203601N006719999999N0000001N9+01561+99999101201ADDGF106991999999999999999999
0029029720999991905081720004+60450+022267FM-12+001499999V0203201N004619999999N0000001N9+01061+99999101561ADDGF101991999999999999999999
0029029720999991905081806004+60450+022267FM-12+001499999V0203201N004619999999N0000001N9+01561+99999101831ADDGF103991999999999999999999
0029029720999991905081813004+60450+022267FM-12+001499999V0202701N006719999999N0000001N9+01891+99999101911ADDGF102991999999999999999999
0029029720999991905081820004+60450+022267FM-12+001499999V0202301N001019999999N0000001N9+01221+99999101951ADDGF101991999999999999999999
0029029720999991905081906004+60450+022267FM-12+001499999V0201401N006719999999N0000001N9+01721+99999101631ADDGF106991999999999999999999
0029029720999991905081913004+60450+022267FM-12+001499999V0201401N009319999999N0000001N9+01831+99999101311ADDGF106991999999999999999999
0029029720999991905081920004+60450+022267FM-12+001499999V0200901N009319999999N0000001N9+01501+99999100831ADDGF107991999999999999999999
0029029720999991905082006004+60450+022267FM-12+001499999V0202701N009319999999N0000001N9+01281+99999100071ADDGF108991999999999999999999
0029029720999991905082013004+60450+022267FM-12+001499999V0202701N009319999999N0000001N9+01781+99999100271ADDGF106991999999999999999999
0029029720999991905082020004+60450+022267FM-12+001499999V0201801N002619999999N0000001N9+01391+99999100241ADDGF102991999999999999999999
0029029720999991905082106004+60450+022267FM-12+001499999V0202701N002619999999N0000001N9+01391+99999100281ADDGF106991999999999999999999
0029029720999991905082113004+60450+022267FM-12+001499999V0202701N006719999999N0000001N9+01501+99999100581ADDGF107991999999999999999999
0029029720999991905082120004+60450+022267FM-12+001499999V0203201N001019999999N0000001N9+01171+99999100821ADDGF101991999999999999999999
0029029720999991905082206004+60450+022267FM-12+001499999V0203201N002619999999N0000001N9+01331+99999101111ADDGF106991999999999999999999
0029029720999991905082213004+60450+022267FM-12+001499999V0202701N006719999999N0000001N9+01501+99999101261ADDGF108991999999999999999999
0029029720999991905082220004+60450+022267FM-12+001499999V0202701N001019999999N0000001N9+01171+99999101261ADDGF101991999999999999999999
0029029720999991905082306004+60450+022267FM-12+001499999V0203601N004619999999N0000001N9+01001+99999101541ADDGF108991999999999999999999
0029029720999991905082313004+60450+022267FM-12+001499999V0201401N006719999999N0000001N9+01781+99999101521ADDGF106991999999999999999999
0029029720999991905082320004+60450+022267FM-12+001499999V0200901N001019999999N0000001N9+01391+99999101561ADDGF107991999999999999999999
0029029720999991905082406004+60450+022267FM-12+001499999V0200501N006719999999N0000001N9+01171+99999101321ADDGF108991999999999999999999
0035029720999991905082413004+60450+022267FM-12+001499999V0200501N009319999999N0000001N9+01281+99999101201ADDGF108991999999999999999999MW1621
0035029720999991905082420004+60450+022267FM-12+001499999V0200901N015419999999N0000001N9+01001+99999101001ADDGF108991999999999999999999MW1621
0029029720999991905082506004+60450+022267FM-12+001499999V0200501N009319999999N0000001N9+00941+99999100821ADDGF108991999999999999999999
0029029720999991905082513004+60450+022267FM-12+001499999V0200501N009319999999N0000001N9+01111+99999100751ADDGF108991999999999999999999
0029029720999991905082520004+60450+022267FM-12+001499999V0200201N009319999999N0000001N9+00941+99999100781ADDGF108991999999999999999999
0029029720999991905082606004+60450+022267FM-12+001499999V0203601N009319999999N0000001N9+00781+99999101061ADDGF102991999999999999999999
0029029720999991905082613004+60450+022267FM-12+001499999V0200501N009319999999N0000001N9+01391+99999101401ADDGF103991999999999999999999
0029029720999991905082620004+60450+022267FM-12+001499999V0200501N002619999999N0000001N9+01061+99999101591ADDGF101991999999999999999999
0029029720999991905082706004+60450+022267FM-12+001499999V0203601N001019999999N0000001N9+01111+99999101921ADDGF100991999999999999999999
0029029720999991905082713004+60450+022267FM-12+001499999V0203601N004619999999N0000001N9+01391+99999101871ADDGF102991999999999999999999
0029029720999991905082720004+60450+022267FM-12+001499999V0203601N002619999999N0000001N9+00561+99999101861ADDGF100991999999999999999999
0029029720999991905082806004+60450+022267FM-12+001499999V0200901N001019999999N0000001N9+01061+99999101751ADDGF107991999999999999999999
0029029720999991905082813004+60450+022267FM-12+001499999V0200901N006719999999N0000001N9+01441+99999101551ADDGF107991999999999999999999
0029029720999991905082820004+60450+022267FM-12+001499999V0209991C000019999999N0000001N9+01001+99999101381ADDGF102991999999999999999999
0029029720999991905082906004+60450+022267FM-12+001499999V0200901N002619999999N0000001N9+01061+99999101071ADDGF108991999999999999999999
0029029720999991905082913004+60450+022267FM-12+001499999V0200901N009319999999N0000001N9+01501+99999100881ADDGF108991999999999999999999
0029029720999991905082920004+60450+022267FM-12+001499999V0200901N001019999999N0000001N9+01171+99999100681ADDGF105991999999999999999999
0029029720999991905083006004+60450+022267FM-12+001499999V0200901N015419999999N0000001N9+01171+99999100141ADDGF102991999999999999999999
0029029720999991905083013004+60450+022267FM-12+001499999V0200901N012319999999N0000001N9+01501+99999099761ADDGF104991999999999999999999
0029029720999991905083020004+60450+022267FM-12+001499999V0200901N009319999999N0000001N9+01171+99999099821ADDGF108991999999999999999999
0029029720999991905083106004+60450+022267FM-12+001499999V0200501N006719999999N0000001N9+01001+99999099721ADDGF104991999999999999999999
0029029720999991905083113004+60450+022267FM-12+001499999V0200501N004619999999N0000001N9+01391+99999099591ADDGF106991999999999999999999
0029029720999991905083120004+60450+022267FM-12+001499999V0200501N002619999999N0000001N9+00831+99999099621ADDGF101991999999999999999999
0029029720999991905090106004+60450+022267FM-12+001499999V0203601N004619999999N0000001N9+01001+99999099591ADDGF103991999999999999999999
0029029720999991905090113004+60450+022267FM-12+001499999V0203201N004619999999N0000001N9+01281+99999099441ADDGF105991999999999999999999
0029029720999991905090120004+60450+022267FM-12+001499999V0203201N001019999999N0000001N9+00671+99999099311ADDGF100991999999999999999999
0029029720999991905090206004+60450+022267FM-12+001499999V0203601N001019999999N0000001N9+00891+99999099061ADDGF108991999999999999999999
0029029720999991905090213004+60450+022267FM-12+001499999V0203201N002619999999N0000001N9+01171+99999099061ADDGF102991999999999999999999
0029029720999991905090220004+60450+022267FM-12+001499999V0203201N001019999999N0000001N9+00611+99999099081ADDGF100991999999999999999999
0029029720999991905090306004+60450+022267FM-12+001499999V0209991C000019999999N0000001N9+00721+99999099031ADDGF100991999999999999999999
0029029720999991905090313004+60450+022267FM-12+001499999V0200501N002619999999N0000001N9+01561+99999099121ADDGF105991999999999999999999
0029029720999991905090320004+60450+022267FM-12+001499999V0209991C000019999999N0000001N9+00781+99999099151ADDGF100991999999999999999999
0029029720999991905090406004+60450+022267FM-12+001499999V0209991C000019999999N0000001N9+00501+99999099391ADDGF100991999999999999999999
0029029720999991905090413004+60450+022267FM-12+001499999V0203201N001019999999N0000001N9+01221+99999099721ADDGF103991999999999999999999
0029029720999991905090420004+60450+022267FM-12+001499999V0209991C000019999999N0000001N9+00721+99999100161ADDGF100991999999999999999999
0029029720999991905090506004+60450+022267FM-12+001499999V0209991C000019999999N0000001N9+00501+99999100721ADDGF102991999999999999999999
